{
	"contracts/Journal3Jobs.sol": {
		"Journal3Jobs": {
			"abi": [
				{
					"inputs": [],
					"stateMutability": "nonpayable",
					"type": "constructor"
				},
				{
					"anonymous": false,
					"inputs": [
						{
							"indexed": true,
							"internalType": "address",
							"name": "previousOwner",
							"type": "address"
						},
						{
							"indexed": true,
							"internalType": "address",
							"name": "newOwner",
							"type": "address"
						}
					],
					"name": "OwnershipTransferred",
					"type": "event"
				},
				{
					"inputs": [
						{
							"internalType": "bytes32",
							"name": "metadata_ipfs",
							"type": "bytes32"
						},
						{
							"internalType": "address[]",
							"name": "qualifications",
							"type": "address[]"
						},
						{
							"internalType": "uint16[][]",
							"name": "qualification_filtering",
							"type": "uint16[][]"
						},
						{
							"components": [
								{
									"internalType": "address",
									"name": "checkpoint_addr",
									"type": "address"
								},
								{
									"internalType": "string",
									"name": "checkpoint_name",
									"type": "string"
								},
								{
									"internalType": "address[]",
									"name": "candidates",
									"type": "address[]"
								}
							],
							"internalType": "struct Checkpoints[]",
							"name": "checkpoints",
							"type": "tuple[]"
						},
						{
							"internalType": "uint256",
							"name": "checkpoint_size",
							"type": "uint256"
						},
						{
							"internalType": "uint256",
							"name": "qualifications_size",
							"type": "uint256"
						}
					],
					"name": "createJob",
					"outputs": [
						{
							"internalType": "bool",
							"name": "",
							"type": "bool"
						}
					],
					"stateMutability": "nonpayable",
					"type": "function"
				},
				{
					"inputs": [],
					"name": "owner",
					"outputs": [
						{
							"internalType": "address",
							"name": "",
							"type": "address"
						}
					],
					"stateMutability": "view",
					"type": "function"
				},
				{
					"inputs": [],
					"name": "renounceOwnership",
					"outputs": [],
					"stateMutability": "nonpayable",
					"type": "function"
				},
				{
					"inputs": [
						{
							"internalType": "address",
							"name": "newOwner",
							"type": "address"
						}
					],
					"name": "transferOwnership",
					"outputs": [],
					"stateMutability": "nonpayable",
					"type": "function"
				}
			],
			"devdoc": {
				"kind": "dev",
				"methods": {
					"owner()": {
						"details": "Returns the address of the current owner."
					},
					"renounceOwnership()": {
						"details": "Leaves the contract without owner. It will not be possible to call `onlyOwner` functions anymore. Can only be called by the current owner. NOTE: Renouncing ownership will leave the contract without an owner, thereby removing any functionality that is only available to the owner."
					},
					"transferOwnership(address)": {
						"details": "Transfers ownership of the contract to a new account (`newOwner`). Can only be called by the current owner."
					}
				},
				"version": 1
			},
			"evm": {
				"assembly": "    /* \"contracts/Journal3Jobs.sol\":442:1663  contract Journal3Jobs is Ownable{\r... */\n  mstore(0x40, 0x80)\n    /* \"contracts/Journal3Jobs.sol\":599:642  constructor(){\r... */\n  callvalue\n  dup1\n  iszero\n  tag_1\n  jumpi\n  0x00\n  dup1\n  revert\ntag_1:\n  pop\n    /* \"@openzeppelin/contracts/access/Ownable.sol\":936:968  _transferOwnership(_msgSender()) */\n  tag_5\n    /* \"@openzeppelin/contracts/access/Ownable.sol\":955:967  _msgSender() */\n  tag_6\n    /* \"@openzeppelin/contracts/access/Ownable.sol\":955:965  _msgSender */\n  shl(0x20, tag_7)\n    /* \"@openzeppelin/contracts/access/Ownable.sol\":955:967  _msgSender() */\n  0x20\n  shr\n  jump\t// in\ntag_6:\n    /* \"@openzeppelin/contracts/access/Ownable.sol\":936:954  _transferOwnership */\n  shl(0x20, tag_8)\n    /* \"@openzeppelin/contracts/access/Ownable.sol\":936:968  _transferOwnership(_msgSender()) */\n  0x20\n  shr\n  jump\t// in\ntag_5:\n    /* \"contracts/Journal3Jobs.sol\":633:634  0 */\n  0x00\n    /* \"contracts/Journal3Jobs.sol\":623:630  job_cnt */\n  0x01\n    /* \"contracts/Journal3Jobs.sol\":623:634  job_cnt = 0 */\n  dup2\n  swap1\n  sstore\n  pop\n    /* \"contracts/Journal3Jobs.sol\":442:1663  contract Journal3Jobs is Ownable{\r... */\n  jump(tag_10)\n    /* \"@openzeppelin/contracts/utils/Context.sol\":640:736  function _msgSender() internal view virtual returns (address) {... */\ntag_7:\n    /* \"@openzeppelin/contracts/utils/Context.sol\":693:700  address */\n  0x00\n    /* \"@openzeppelin/contracts/utils/Context.sol\":719:729  msg.sender */\n  caller\n    /* \"@openzeppelin/contracts/utils/Context.sol\":712:729  return msg.sender */\n  swap1\n  pop\n    /* \"@openzeppelin/contracts/utils/Context.sol\":640:736  function _msgSender() internal view virtual returns (address) {... */\n  swap1\n  jump\t// out\n    /* \"@openzeppelin/contracts/access/Ownable.sol\":2433:2620  function _transferOwnership(address newOwner) internal virtual {... */\ntag_8:\n    /* \"@openzeppelin/contracts/access/Ownable.sol\":2506:2522  address oldOwner */\n  0x00\n    /* \"@openzeppelin/contracts/access/Ownable.sol\":2525:2531  _owner */\n  dup1\n  0x00\n  swap1\n  sload\n  swap1\n  0x0100\n  exp\n  swap1\n  div\n  0xffffffffffffffffffffffffffffffffffffffff\n  and\n    /* \"@openzeppelin/contracts/access/Ownable.sol\":2506:2531  address oldOwner = _owner */\n  swap1\n  pop\n    /* \"@openzeppelin/contracts/access/Ownable.sol\":2550:2558  newOwner */\n  dup2\n    /* \"@openzeppelin/contracts/access/Ownable.sol\":2541:2547  _owner */\n  0x00\n  dup1\n    /* \"@openzeppelin/contracts/access/Ownable.sol\":2541:2558  _owner = newOwner */\n  0x0100\n  exp\n  dup2\n  sload\n  dup2\n  0xffffffffffffffffffffffffffffffffffffffff\n  mul\n  not\n  and\n  swap1\n  dup4\n  0xffffffffffffffffffffffffffffffffffffffff\n  and\n  mul\n  or\n  swap1\n  sstore\n  pop\n    /* \"@openzeppelin/contracts/access/Ownable.sol\":2604:2612  newOwner */\n  dup2\n    /* \"@openzeppelin/contracts/access/Ownable.sol\":2573:2613  OwnershipTransferred(oldOwner, newOwner) */\n  0xffffffffffffffffffffffffffffffffffffffff\n  and\n    /* \"@openzeppelin/contracts/access/Ownable.sol\":2594:2602  oldOwner */\n  dup2\n    /* \"@openzeppelin/contracts/access/Ownable.sol\":2573:2613  OwnershipTransferred(oldOwner, newOwner) */\n  0xffffffffffffffffffffffffffffffffffffffff\n  and\n  0x8be0079c531659141344cd1fd0a4f28419497f9722a3daafe3b4186f6b6457e0\n  mload(0x40)\n  mload(0x40)\n  dup1\n  swap2\n  sub\n  swap1\n  log3\n    /* \"@openzeppelin/contracts/access/Ownable.sol\":2496:2620  {... */\n  pop\n    /* \"@openzeppelin/contracts/access/Ownable.sol\":2433:2620  function _transferOwnership(address newOwner) internal virtual {... */\n  pop\n  jump\t// out\n    /* \"contracts/Journal3Jobs.sol\":442:1663  contract Journal3Jobs is Ownable{\r... */\ntag_10:\n  dataSize(sub_0)\n  dup1\n  dataOffset(sub_0)\n  0x00\n  codecopy\n  0x00\n  return\nstop\n\nsub_0: assembly {\n        /* \"contracts/Journal3Jobs.sol\":442:1663  contract Journal3Jobs is Ownable{\r... */\n      mstore(0x40, 0x80)\n      callvalue\n      dup1\n      iszero\n      tag_1\n      jumpi\n      0x00\n      dup1\n      revert\n    tag_1:\n      pop\n      jumpi(tag_2, lt(calldatasize, 0x04))\n      shr(0xe0, calldataload(0x00))\n      dup1\n      0x715018a6\n      eq\n      tag_3\n      jumpi\n      dup1\n      0x8da5cb5b\n      eq\n      tag_4\n      jumpi\n      dup1\n      0xf2fde38b\n      eq\n      tag_5\n      jumpi\n      dup1\n      0xfaee0455\n      eq\n      tag_6\n      jumpi\n    tag_2:\n      0x00\n      dup1\n      revert\n        /* \"@openzeppelin/contracts/access/Ownable.sol\":1831:1932  function renounceOwnership() public virtual onlyOwner {... */\n    tag_3:\n      tag_7\n      tag_8\n      jump\t// in\n    tag_7:\n      stop\n        /* \"@openzeppelin/contracts/access/Ownable.sol\":1201:1286  function owner() public view virtual returns (address) {... */\n    tag_4:\n      tag_9\n      tag_10\n      jump\t// in\n    tag_9:\n      mload(0x40)\n      tag_11\n      swap2\n      swap1\n      tag_12\n      jump\t// in\n    tag_11:\n      mload(0x40)\n      dup1\n      swap2\n      sub\n      swap1\n      return\n        /* \"@openzeppelin/contracts/access/Ownable.sol\":2081:2279  function transferOwnership(address newOwner) public virtual onlyOwner {... */\n    tag_5:\n      tag_13\n      0x04\n      dup1\n      calldatasize\n      sub\n      dup2\n      add\n      swap1\n      tag_14\n      swap2\n      swap1\n      tag_15\n      jump\t// in\n    tag_14:\n      tag_16\n      jump\t// in\n    tag_13:\n      stop\n        /* \"contracts/Journal3Jobs.sol\":650:1552  function createJob(bytes32 metadata_ipfs, address[] memory qualifications, uint16[][] memory qualification_filtering, Checkpoints[] memory checkpoints, uint checkpoint_size, uint qualifications_size) public returns(bool){\r... */\n    tag_6:\n      tag_17\n      0x04\n      dup1\n      calldatasize\n      sub\n      dup2\n      add\n      swap1\n      tag_18\n      swap2\n      swap1\n      tag_19\n      jump\t// in\n    tag_18:\n      tag_20\n      jump\t// in\n    tag_17:\n      mload(0x40)\n      tag_21\n      swap2\n      swap1\n      tag_22\n      jump\t// in\n    tag_21:\n      mload(0x40)\n      dup1\n      swap2\n      sub\n      swap1\n      return\n        /* \"@openzeppelin/contracts/access/Ownable.sol\":1831:1932  function renounceOwnership() public virtual onlyOwner {... */\n    tag_8:\n        /* \"@openzeppelin/contracts/access/Ownable.sol\":1094:1107  _checkOwner() */\n      tag_24\n        /* \"@openzeppelin/contracts/access/Ownable.sol\":1094:1105  _checkOwner */\n      tag_25\n        /* \"@openzeppelin/contracts/access/Ownable.sol\":1094:1107  _checkOwner() */\n      jump\t// in\n    tag_24:\n        /* \"@openzeppelin/contracts/access/Ownable.sol\":1895:1925  _transferOwnership(address(0)) */\n      tag_27\n        /* \"@openzeppelin/contracts/access/Ownable.sol\":1922:1923  0 */\n      0x00\n        /* \"@openzeppelin/contracts/access/Ownable.sol\":1895:1913  _transferOwnership */\n      tag_28\n        /* \"@openzeppelin/contracts/access/Ownable.sol\":1895:1925  _transferOwnership(address(0)) */\n      jump\t// in\n    tag_27:\n        /* \"@openzeppelin/contracts/access/Ownable.sol\":1831:1932  function renounceOwnership() public virtual onlyOwner {... */\n      jump\t// out\n        /* \"@openzeppelin/contracts/access/Ownable.sol\":1201:1286  function owner() public view virtual returns (address) {... */\n    tag_10:\n        /* \"@openzeppelin/contracts/access/Ownable.sol\":1247:1254  address */\n      0x00\n        /* \"@openzeppelin/contracts/access/Ownable.sol\":1273:1279  _owner */\n      dup1\n      0x00\n      swap1\n      sload\n      swap1\n      0x0100\n      exp\n      swap1\n      div\n      0xffffffffffffffffffffffffffffffffffffffff\n      and\n        /* \"@openzeppelin/contracts/access/Ownable.sol\":1266:1279  return _owner */\n      swap1\n      pop\n        /* \"@openzeppelin/contracts/access/Ownable.sol\":1201:1286  function owner() public view virtual returns (address) {... */\n      swap1\n      jump\t// out\n        /* \"@openzeppelin/contracts/access/Ownable.sol\":2081:2279  function transferOwnership(address newOwner) public virtual onlyOwner {... */\n    tag_16:\n        /* \"@openzeppelin/contracts/access/Ownable.sol\":1094:1107  _checkOwner() */\n      tag_31\n        /* \"@openzeppelin/contracts/access/Ownable.sol\":1094:1105  _checkOwner */\n      tag_25\n        /* \"@openzeppelin/contracts/access/Ownable.sol\":1094:1107  _checkOwner() */\n      jump\t// in\n    tag_31:\n        /* \"@openzeppelin/contracts/access/Ownable.sol\":2189:2190  0 */\n      0x00\n        /* \"@openzeppelin/contracts/access/Ownable.sol\":2169:2191  newOwner != address(0) */\n      0xffffffffffffffffffffffffffffffffffffffff\n      and\n        /* \"@openzeppelin/contracts/access/Ownable.sol\":2169:2177  newOwner */\n      dup2\n        /* \"@openzeppelin/contracts/access/Ownable.sol\":2169:2191  newOwner != address(0) */\n      0xffffffffffffffffffffffffffffffffffffffff\n      and\n      eq\n      iszero\n        /* \"@openzeppelin/contracts/access/Ownable.sol\":2161:2234  require(newOwner != address(0), \"Ownable: new owner is the zero address\") */\n      tag_33\n      jumpi\n      mload(0x40)\n      0x08c379a000000000000000000000000000000000000000000000000000000000\n      dup2\n      mstore\n      0x04\n      add\n      tag_34\n      swap1\n      tag_35\n      jump\t// in\n    tag_34:\n      mload(0x40)\n      dup1\n      swap2\n      sub\n      swap1\n      revert\n    tag_33:\n        /* \"@openzeppelin/contracts/access/Ownable.sol\":2244:2272  _transferOwnership(newOwner) */\n      tag_36\n        /* \"@openzeppelin/contracts/access/Ownable.sol\":2263:2271  newOwner */\n      dup2\n        /* \"@openzeppelin/contracts/access/Ownable.sol\":2244:2262  _transferOwnership */\n      tag_28\n        /* \"@openzeppelin/contracts/access/Ownable.sol\":2244:2272  _transferOwnership(newOwner) */\n      jump\t// in\n    tag_36:\n        /* \"@openzeppelin/contracts/access/Ownable.sol\":2081:2279  function transferOwnership(address newOwner) public virtual onlyOwner {... */\n      pop\n      jump\t// out\n        /* \"contracts/Journal3Jobs.sol\":650:1552  function createJob(bytes32 metadata_ipfs, address[] memory qualifications, uint16[][] memory qualification_filtering, Checkpoints[] memory checkpoints, uint checkpoint_size, uint qualifications_size) public returns(bool){\r... */\n    tag_20:\n        /* \"contracts/Journal3Jobs.sol\":865:869  bool */\n      0x00\n        /* \"contracts/Journal3Jobs.sol\":881:900  Job storage tempJob */\n      dup1\n        /* \"contracts/Journal3Jobs.sol\":903:911  all_jobs */\n      0x02\n        /* \"contracts/Journal3Jobs.sol\":903:920  all_jobs[job_cnt] */\n      0x00\n        /* \"contracts/Journal3Jobs.sol\":912:919  job_cnt */\n      sload(0x01)\n        /* \"contracts/Journal3Jobs.sol\":903:920  all_jobs[job_cnt] */\n      dup2\n      mstore\n      0x20\n      add\n      swap1\n      dup2\n      mstore\n      0x20\n      add\n      0x00\n      keccak256\n        /* \"contracts/Journal3Jobs.sol\":881:920  Job storage tempJob = all_jobs[job_cnt] */\n      swap1\n      pop\n        /* \"contracts/Journal3Jobs.sol\":955:968  metadata_ipfs */\n      dup8\n        /* \"contracts/Journal3Jobs.sol\":931:938  tempJob */\n      dup2\n        /* \"contracts/Journal3Jobs.sol\":931:952  tempJob.metadata_ipfs */\n      0x00\n      add\n        /* \"contracts/Journal3Jobs.sol\":931:968  tempJob.metadata_ipfs = metadata_ipfs */\n      dup2\n      swap1\n      sstore\n      pop\n        /* \"contracts/Journal3Jobs.sol\":986:992  uint i */\n      0x00\n        /* \"contracts/Journal3Jobs.sol\":981:1123  for (uint i=0; i < checkpoint_size; i++){\r... */\n    tag_38:\n        /* \"contracts/Journal3Jobs.sol\":1000:1015  checkpoint_size */\n      dup5\n        /* \"contracts/Journal3Jobs.sol\":996:997  i */\n      dup2\n        /* \"contracts/Journal3Jobs.sol\":996:1015  i < checkpoint_size */\n      lt\n        /* \"contracts/Journal3Jobs.sol\":981:1123  for (uint i=0; i < checkpoint_size; i++){\r... */\n      iszero\n      tag_39\n      jumpi\n        /* \"contracts/Journal3Jobs.sol\":1097:1108  checkpoints */\n      dup6\n        /* \"contracts/Journal3Jobs.sol\":1109:1110  i */\n      dup2\n        /* \"contracts/Journal3Jobs.sol\":1097:1111  checkpoints[i] */\n      dup2\n      mload\n      dup2\n      lt\n      tag_41\n      jumpi\n      tag_42\n      tag_43\n      jump\t// in\n    tag_42:\n    tag_41:\n      0x20\n      mul\n      0x20\n      add\n      add\n      mload\n        /* \"contracts/Journal3Jobs.sol\":1036:1043  tempJob */\n      dup3\n        /* \"contracts/Journal3Jobs.sol\":1036:1062  tempJob.candidate_profiles */\n      0x02\n      add\n        /* \"contracts/Journal3Jobs.sol\":1036:1094  tempJob.candidate_profiles[checkpoints[i].checkpoint_addr] */\n      0x00\n        /* \"contracts/Journal3Jobs.sol\":1063:1074  checkpoints */\n      dup9\n        /* \"contracts/Journal3Jobs.sol\":1075:1076  i */\n      dup5\n        /* \"contracts/Journal3Jobs.sol\":1063:1077  checkpoints[i] */\n      dup2\n      mload\n      dup2\n      lt\n      tag_44\n      jumpi\n      tag_45\n      tag_43\n      jump\t// in\n    tag_45:\n    tag_44:\n      0x20\n      mul\n      0x20\n      add\n      add\n      mload\n        /* \"contracts/Journal3Jobs.sol\":1063:1093  checkpoints[i].checkpoint_addr */\n      0x00\n      add\n      mload\n        /* \"contracts/Journal3Jobs.sol\":1036:1094  tempJob.candidate_profiles[checkpoints[i].checkpoint_addr] */\n      0xffffffffffffffffffffffffffffffffffffffff\n      and\n      0xffffffffffffffffffffffffffffffffffffffff\n      and\n      dup2\n      mstore\n      0x20\n      add\n      swap1\n      dup2\n      mstore\n      0x20\n      add\n      0x00\n      keccak256\n        /* \"contracts/Journal3Jobs.sol\":1036:1111  tempJob.candidate_profiles[checkpoints[i].checkpoint_addr] = checkpoints[i] */\n      0x00\n      dup3\n      add\n      mload\n      dup2\n      0x00\n      add\n      exp(0x0100, 0x00)\n      dup2\n      sload\n      dup2\n      0xffffffffffffffffffffffffffffffffffffffff\n      mul\n      not\n      and\n      swap1\n      dup4\n      0xffffffffffffffffffffffffffffffffffffffff\n      and\n      mul\n      or\n      swap1\n      sstore\n      pop\n      0x20\n      dup3\n      add\n      mload\n      dup2\n      0x01\n      add\n      swap1\n      dup1\n      mload\n      swap1\n      0x20\n      add\n      swap1\n      tag_46\n      swap3\n      swap2\n      swap1\n      tag_47\n      jump\t// in\n    tag_46:\n      pop\n      0x40\n      dup3\n      add\n      mload\n      dup2\n      0x02\n      add\n      swap1\n      dup1\n      mload\n      swap1\n      0x20\n      add\n      swap1\n      tag_48\n      swap3\n      swap2\n      swap1\n      tag_49\n      jump\t// in\n    tag_48:\n      pop\n      swap1\n      pop\n      pop\n        /* \"contracts/Journal3Jobs.sol\":1017:1020  i++ */\n      dup1\n      dup1\n      tag_50\n      swap1\n      tag_51\n      jump\t// in\n    tag_50:\n      swap2\n      pop\n      pop\n        /* \"contracts/Journal3Jobs.sol\":981:1123  for (uint i=0; i < checkpoint_size; i++){\r... */\n      jump(tag_38)\n    tag_39:\n      pop\n        /* \"contracts/Journal3Jobs.sol\":1140:1146  uint i */\n      0x00\n        /* \"contracts/Journal3Jobs.sol\":1135:1426  for (uint i=0; i < qualifications_size; i++){\r... */\n    tag_52:\n        /* \"contracts/Journal3Jobs.sol\":1154:1173  qualifications_size */\n      dup4\n        /* \"contracts/Journal3Jobs.sol\":1150:1151  i */\n      dup2\n        /* \"contracts/Journal3Jobs.sol\":1150:1173  i < qualifications_size */\n      lt\n        /* \"contracts/Journal3Jobs.sol\":1135:1426  for (uint i=0; i < qualifications_size; i++){\r... */\n      iszero\n      tag_53\n      jumpi\n        /* \"contracts/Journal3Jobs.sol\":1198:1204  uint j */\n      0x00\n        /* \"contracts/Journal3Jobs.sol\":1194:1415  for(uint j=0; j < qualifications_size; j++){\r... */\n    tag_55:\n        /* \"contracts/Journal3Jobs.sol\":1212:1231  qualifications_size */\n      dup5\n        /* \"contracts/Journal3Jobs.sol\":1208:1209  j */\n      dup2\n        /* \"contracts/Journal3Jobs.sol\":1208:1231  j < qualifications_size */\n      lt\n        /* \"contracts/Journal3Jobs.sol\":1194:1415  for(uint j=0; j < qualifications_size; j++){\r... */\n      iszero\n      tag_56\n      jumpi\n        /* \"contracts/Journal3Jobs.sol\":1290:1291  1 */\n      0x01\n        /* \"contracts/Journal3Jobs.sol\":1259:1282  qualification_filtering */\n      dup9\n        /* \"contracts/Journal3Jobs.sol\":1283:1284  i */\n      dup4\n        /* \"contracts/Journal3Jobs.sol\":1259:1285  qualification_filtering[i] */\n      dup2\n      mload\n      dup2\n      lt\n      tag_58\n      jumpi\n      tag_59\n      tag_43\n      jump\t// in\n    tag_59:\n    tag_58:\n      0x20\n      mul\n      0x20\n      add\n      add\n      mload\n        /* \"contracts/Journal3Jobs.sol\":1286:1287  j */\n      dup3\n        /* \"contracts/Journal3Jobs.sol\":1259:1288  qualification_filtering[i][j] */\n      dup2\n      mload\n      dup2\n      lt\n      tag_60\n      jumpi\n      tag_61\n      tag_43\n      jump\t// in\n    tag_61:\n    tag_60:\n      0x20\n      mul\n      0x20\n      add\n      add\n      mload\n        /* \"contracts/Journal3Jobs.sol\":1259:1291  qualification_filtering[i][j]==1 */\n      0xffff\n      and\n      eq\n        /* \"contracts/Journal3Jobs.sol\":1256:1400  if(qualification_filtering[i][j]==1){\r... */\n      iszero\n      tag_62\n      jumpi\n        /* \"contracts/Journal3Jobs.sol\":1315:1322  tempJob */\n      dup3\n        /* \"contracts/Journal3Jobs.sol\":1315:1337  tempJob.qualifications */\n      0x01\n      add\n        /* \"contracts/Journal3Jobs.sol\":1315:1356  tempJob.qualifications[qualifications[i]] */\n      0x00\n        /* \"contracts/Journal3Jobs.sol\":1338:1352  qualifications */\n      dup11\n        /* \"contracts/Journal3Jobs.sol\":1353:1354  i */\n      dup5\n        /* \"contracts/Journal3Jobs.sol\":1338:1355  qualifications[i] */\n      dup2\n      mload\n      dup2\n      lt\n      tag_63\n      jumpi\n      tag_64\n      tag_43\n      jump\t// in\n    tag_64:\n    tag_63:\n      0x20\n      mul\n      0x20\n      add\n      add\n      mload\n        /* \"contracts/Journal3Jobs.sol\":1315:1356  tempJob.qualifications[qualifications[i]] */\n      0xffffffffffffffffffffffffffffffffffffffff\n      and\n      0xffffffffffffffffffffffffffffffffffffffff\n      and\n      dup2\n      mstore\n      0x20\n      add\n      swap1\n      dup2\n      mstore\n      0x20\n      add\n      0x00\n      keccak256\n        /* \"contracts/Journal3Jobs.sol\":1362:1376  qualifications */\n      dup10\n        /* \"contracts/Journal3Jobs.sol\":1377:1378  j */\n      dup3\n        /* \"contracts/Journal3Jobs.sol\":1362:1379  qualifications[j] */\n      dup2\n      mload\n      dup2\n      lt\n      tag_65\n      jumpi\n      tag_66\n      tag_43\n      jump\t// in\n    tag_66:\n    tag_65:\n      0x20\n      mul\n      0x20\n      add\n      add\n      mload\n        /* \"contracts/Journal3Jobs.sol\":1315:1380  tempJob.qualifications[qualifications[i]].push(qualifications[j]) */\n      swap1\n      dup1\n      0x01\n      dup2\n      sload\n      add\n      dup1\n      dup3\n      sstore\n      dup1\n      swap2\n      pop\n      pop\n      0x01\n      swap1\n      sub\n      swap1\n      0x00\n      mstore\n      keccak256(0x00, 0x20)\n      add\n      0x00\n      swap1\n      swap2\n      swap1\n      swap2\n      swap1\n      swap2\n      0x0100\n      exp\n      dup2\n      sload\n      dup2\n      0xffffffffffffffffffffffffffffffffffffffff\n      mul\n      not\n      and\n      swap1\n      dup4\n      0xffffffffffffffffffffffffffffffffffffffff\n      and\n      mul\n      or\n      swap1\n      sstore\n      pop\n        /* \"contracts/Journal3Jobs.sol\":1256:1400  if(qualification_filtering[i][j]==1){\r... */\n    tag_62:\n        /* \"contracts/Journal3Jobs.sol\":1233:1236  j++ */\n      dup1\n      dup1\n      tag_68\n      swap1\n      tag_51\n      jump\t// in\n    tag_68:\n      swap2\n      pop\n      pop\n        /* \"contracts/Journal3Jobs.sol\":1194:1415  for(uint j=0; j < qualifications_size; j++){\r... */\n      jump(tag_55)\n    tag_56:\n      pop\n        /* \"contracts/Journal3Jobs.sol\":1175:1178  i++ */\n      dup1\n      dup1\n      tag_69\n      swap1\n      tag_51\n      jump\t// in\n    tag_69:\n      swap2\n      pop\n      pop\n        /* \"contracts/Journal3Jobs.sol\":1135:1426  for (uint i=0; i < qualifications_size; i++){\r... */\n      jump(tag_52)\n    tag_53:\n      pop\n        /* \"contracts/Journal3Jobs.sol\":1456:1461  false */\n      0x00\n        /* \"contracts/Journal3Jobs.sol\":1436:1443  tempJob */\n      dup2\n        /* \"contracts/Journal3Jobs.sol\":1436:1453  tempJob.is_active */\n      0x04\n      add\n      0x00\n        /* \"contracts/Journal3Jobs.sol\":1436:1461  tempJob.is_active = false */\n      0x0100\n      exp\n      dup2\n      sload\n      dup2\n      0xff\n      mul\n      not\n      and\n      swap1\n      dup4\n      iszero\n      iszero\n      mul\n      or\n      swap1\n      sstore\n      pop\n        /* \"contracts/Journal3Jobs.sol\":1493:1494  0 */\n      0x00\n        /* \"contracts/Journal3Jobs.sol\":1472:1479  tempJob */\n      dup2\n        /* \"contracts/Journal3Jobs.sol\":1472:1490  tempJob.jou_staked */\n      0x03\n      add\n        /* \"contracts/Journal3Jobs.sol\":1472:1494  tempJob.jou_staked = 0 */\n      dup2\n      swap1\n      sstore\n      pop\n        /* \"contracts/Journal3Jobs.sol\":1507:1514  job_cnt */\n      0x01\n      0x00\n        /* \"contracts/Journal3Jobs.sol\":1507:1516  job_cnt++ */\n      dup2\n      sload\n      dup1\n      swap3\n      swap2\n      swap1\n      tag_70\n      swap1\n      tag_51\n      jump\t// in\n    tag_70:\n      swap2\n      swap1\n      pop\n      sstore\n      pop\n        /* \"contracts/Journal3Jobs.sol\":1536:1540  true */\n      0x01\n        /* \"contracts/Journal3Jobs.sol\":1529:1540  return true */\n      swap2\n      pop\n      pop\n        /* \"contracts/Journal3Jobs.sol\":650:1552  function createJob(bytes32 metadata_ipfs, address[] memory qualifications, uint16[][] memory qualification_filtering, Checkpoints[] memory checkpoints, uint checkpoint_size, uint qualifications_size) public returns(bool){\r... */\n      swap7\n      swap6\n      pop\n      pop\n      pop\n      pop\n      pop\n      pop\n      jump\t// out\n        /* \"@openzeppelin/contracts/access/Ownable.sol\":1359:1489  function _checkOwner() internal view virtual {... */\n    tag_25:\n        /* \"@openzeppelin/contracts/access/Ownable.sol\":1433:1445  _msgSender() */\n      tag_72\n        /* \"@openzeppelin/contracts/access/Ownable.sol\":1433:1443  _msgSender */\n      tag_73\n        /* \"@openzeppelin/contracts/access/Ownable.sol\":1433:1445  _msgSender() */\n      jump\t// in\n    tag_72:\n        /* \"@openzeppelin/contracts/access/Ownable.sol\":1422:1445  owner() == _msgSender() */\n      0xffffffffffffffffffffffffffffffffffffffff\n      and\n        /* \"@openzeppelin/contracts/access/Ownable.sol\":1422:1429  owner() */\n      tag_74\n        /* \"@openzeppelin/contracts/access/Ownable.sol\":1422:1427  owner */\n      tag_10\n        /* \"@openzeppelin/contracts/access/Ownable.sol\":1422:1429  owner() */\n      jump\t// in\n    tag_74:\n        /* \"@openzeppelin/contracts/access/Ownable.sol\":1422:1445  owner() == _msgSender() */\n      0xffffffffffffffffffffffffffffffffffffffff\n      and\n      eq\n        /* \"@openzeppelin/contracts/access/Ownable.sol\":1414:1482  require(owner() == _msgSender(), \"Ownable: caller is not the owner\") */\n      tag_75\n      jumpi\n      mload(0x40)\n      0x08c379a000000000000000000000000000000000000000000000000000000000\n      dup2\n      mstore\n      0x04\n      add\n      tag_76\n      swap1\n      tag_77\n      jump\t// in\n    tag_76:\n      mload(0x40)\n      dup1\n      swap2\n      sub\n      swap1\n      revert\n    tag_75:\n        /* \"@openzeppelin/contracts/access/Ownable.sol\":1359:1489  function _checkOwner() internal view virtual {... */\n      jump\t// out\n        /* \"@openzeppelin/contracts/access/Ownable.sol\":2433:2620  function _transferOwnership(address newOwner) internal virtual {... */\n    tag_28:\n        /* \"@openzeppelin/contracts/access/Ownable.sol\":2506:2522  address oldOwner */\n      0x00\n        /* \"@openzeppelin/contracts/access/Ownable.sol\":2525:2531  _owner */\n      dup1\n      0x00\n      swap1\n      sload\n      swap1\n      0x0100\n      exp\n      swap1\n      div\n      0xffffffffffffffffffffffffffffffffffffffff\n      and\n        /* \"@openzeppelin/contracts/access/Ownable.sol\":2506:2531  address oldOwner = _owner */\n      swap1\n      pop\n        /* \"@openzeppelin/contracts/access/Ownable.sol\":2550:2558  newOwner */\n      dup2\n        /* \"@openzeppelin/contracts/access/Ownable.sol\":2541:2547  _owner */\n      0x00\n      dup1\n        /* \"@openzeppelin/contracts/access/Ownable.sol\":2541:2558  _owner = newOwner */\n      0x0100\n      exp\n      dup2\n      sload\n      dup2\n      0xffffffffffffffffffffffffffffffffffffffff\n      mul\n      not\n      and\n      swap1\n      dup4\n      0xffffffffffffffffffffffffffffffffffffffff\n      and\n      mul\n      or\n      swap1\n      sstore\n      pop\n        /* \"@openzeppelin/contracts/access/Ownable.sol\":2604:2612  newOwner */\n      dup2\n        /* \"@openzeppelin/contracts/access/Ownable.sol\":2573:2613  OwnershipTransferred(oldOwner, newOwner) */\n      0xffffffffffffffffffffffffffffffffffffffff\n      and\n        /* \"@openzeppelin/contracts/access/Ownable.sol\":2594:2602  oldOwner */\n      dup2\n        /* \"@openzeppelin/contracts/access/Ownable.sol\":2573:2613  OwnershipTransferred(oldOwner, newOwner) */\n      0xffffffffffffffffffffffffffffffffffffffff\n      and\n      0x8be0079c531659141344cd1fd0a4f28419497f9722a3daafe3b4186f6b6457e0\n      mload(0x40)\n      mload(0x40)\n      dup1\n      swap2\n      sub\n      swap1\n      log3\n        /* \"@openzeppelin/contracts/access/Ownable.sol\":2496:2620  {... */\n      pop\n        /* \"@openzeppelin/contracts/access/Ownable.sol\":2433:2620  function _transferOwnership(address newOwner) internal virtual {... */\n      pop\n      jump\t// out\n        /* \"@openzeppelin/contracts/utils/Context.sol\":640:736  function _msgSender() internal view virtual returns (address) {... */\n    tag_73:\n        /* \"@openzeppelin/contracts/utils/Context.sol\":693:700  address */\n      0x00\n        /* \"@openzeppelin/contracts/utils/Context.sol\":719:729  msg.sender */\n      caller\n        /* \"@openzeppelin/contracts/utils/Context.sol\":712:729  return msg.sender */\n      swap1\n      pop\n        /* \"@openzeppelin/contracts/utils/Context.sol\":640:736  function _msgSender() internal view virtual returns (address) {... */\n      swap1\n      jump\t// out\n    tag_47:\n      dup3\n      dup1\n      sload\n      tag_80\n      swap1\n      tag_81\n      jump\t// in\n    tag_80:\n      swap1\n      0x00\n      mstore\n      keccak256(0x00, 0x20)\n      swap1\n      0x1f\n      add\n      0x20\n      swap1\n      div\n      dup2\n      add\n      swap3\n      dup3\n      tag_83\n      jumpi\n      0x00\n      dup6\n      sstore\n      jump(tag_82)\n    tag_83:\n      dup3\n      0x1f\n      lt\n      tag_84\n      jumpi\n      dup1\n      mload\n      not(0xff)\n      and\n      dup4\n      dup1\n      add\n      or\n      dup6\n      sstore\n      jump(tag_82)\n    tag_84:\n      dup3\n      dup1\n      add\n      0x01\n      add\n      dup6\n      sstore\n      dup3\n      iszero\n      tag_82\n      jumpi\n      swap2\n      dup3\n      add\n    tag_85:\n      dup3\n      dup2\n      gt\n      iszero\n      tag_86\n      jumpi\n      dup3\n      mload\n      dup3\n      sstore\n      swap2\n      0x20\n      add\n      swap2\n      swap1\n      0x01\n      add\n      swap1\n      jump(tag_85)\n    tag_86:\n    tag_82:\n      pop\n      swap1\n      pop\n      tag_87\n      swap2\n      swap1\n      tag_88\n      jump\t// in\n    tag_87:\n      pop\n      swap1\n      jump\t// out\n    tag_49:\n      dup3\n      dup1\n      sload\n      dup3\n      dup3\n      sstore\n      swap1\n      0x00\n      mstore\n      keccak256(0x00, 0x20)\n      swap1\n      dup2\n      add\n      swap3\n      dup3\n      iszero\n      tag_89\n      jumpi\n      swap2\n      0x20\n      mul\n      dup3\n      add\n    tag_90:\n      dup3\n      dup2\n      gt\n      iszero\n      tag_91\n      jumpi\n      dup3\n      mload\n      dup3\n      exp(0x0100, 0x00)\n      dup2\n      sload\n      dup2\n      0xffffffffffffffffffffffffffffffffffffffff\n      mul\n      not\n      and\n      swap1\n      dup4\n      0xffffffffffffffffffffffffffffffffffffffff\n      and\n      mul\n      or\n      swap1\n      sstore\n      pop\n      swap2\n      0x20\n      add\n      swap2\n      swap1\n      0x01\n      add\n      swap1\n      jump(tag_90)\n    tag_91:\n    tag_89:\n      pop\n      swap1\n      pop\n      tag_92\n      swap2\n      swap1\n      tag_88\n      jump\t// in\n    tag_92:\n      pop\n      swap1\n      jump\t// out\n    tag_88:\n    tag_93:\n      dup1\n      dup3\n      gt\n      iszero\n      tag_94\n      jumpi\n      0x00\n      dup2\n      0x00\n      swap1\n      sstore\n      pop\n      0x01\n      add\n      jump(tag_93)\n    tag_94:\n      pop\n      swap1\n      jump\t// out\n        /* \"#utility.yul\":24:746   */\n    tag_96:\n        /* \"#utility.yul\":120:125   */\n      0x00\n        /* \"#utility.yul\":145:226   */\n      tag_98\n        /* \"#utility.yul\":161:225   */\n      tag_99\n        /* \"#utility.yul\":218:224   */\n      dup5\n        /* \"#utility.yul\":161:225   */\n      tag_100\n      jump\t// in\n    tag_99:\n        /* \"#utility.yul\":145:226   */\n      tag_101\n      jump\t// in\n    tag_98:\n        /* \"#utility.yul\":136:226   */\n      swap1\n      pop\n        /* \"#utility.yul\":246:251   */\n      dup1\n        /* \"#utility.yul\":275:281   */\n      dup4\n        /* \"#utility.yul\":268:273   */\n      dup3\n        /* \"#utility.yul\":261:282   */\n      mstore\n        /* \"#utility.yul\":309:313   */\n      0x20\n        /* \"#utility.yul\":302:307   */\n      dup3\n        /* \"#utility.yul\":298:314   */\n      add\n        /* \"#utility.yul\":291:314   */\n      swap1\n      pop\n        /* \"#utility.yul\":335:341   */\n      dup3\n        /* \"#utility.yul\":385:388   */\n      dup6\n        /* \"#utility.yul\":377:381   */\n      0x20\n        /* \"#utility.yul\":369:375   */\n      dup7\n        /* \"#utility.yul\":365:382   */\n      mul\n        /* \"#utility.yul\":360:363   */\n      dup3\n        /* \"#utility.yul\":356:383   */\n      add\n        /* \"#utility.yul\":353:389   */\n      gt\n        /* \"#utility.yul\":350:493   */\n      iszero\n      tag_102\n      jumpi\n        /* \"#utility.yul\":404:483   */\n      tag_103\n      tag_104\n      jump\t// in\n    tag_103:\n        /* \"#utility.yul\":350:493   */\n    tag_102:\n        /* \"#utility.yul\":517:518   */\n      0x00\n        /* \"#utility.yul\":502:740   */\n    tag_105:\n        /* \"#utility.yul\":527:533   */\n      dup6\n        /* \"#utility.yul\":524:525   */\n      dup2\n        /* \"#utility.yul\":521:534   */\n      lt\n        /* \"#utility.yul\":502:740   */\n      iszero\n      tag_107\n      jumpi\n        /* \"#utility.yul\":595:598   */\n      dup2\n        /* \"#utility.yul\":624:661   */\n      tag_108\n        /* \"#utility.yul\":657:660   */\n      dup9\n        /* \"#utility.yul\":645:655   */\n      dup3\n        /* \"#utility.yul\":624:661   */\n      tag_109\n      jump\t// in\n    tag_108:\n        /* \"#utility.yul\":619:622   */\n      dup5\n        /* \"#utility.yul\":612:662   */\n      mstore\n        /* \"#utility.yul\":691:695   */\n      0x20\n        /* \"#utility.yul\":686:689   */\n      dup5\n        /* \"#utility.yul\":682:696   */\n      add\n        /* \"#utility.yul\":675:696   */\n      swap4\n      pop\n        /* \"#utility.yul\":725:729   */\n      0x20\n        /* \"#utility.yul\":720:723   */\n      dup4\n        /* \"#utility.yul\":716:730   */\n      add\n        /* \"#utility.yul\":709:730   */\n      swap3\n      pop\n        /* \"#utility.yul\":562:740   */\n      pop\n        /* \"#utility.yul\":549:550   */\n      0x01\n        /* \"#utility.yul\":546:547   */\n      dup2\n        /* \"#utility.yul\":542:551   */\n      add\n        /* \"#utility.yul\":537:551   */\n      swap1\n      pop\n        /* \"#utility.yul\":502:740   */\n      jump(tag_105)\n    tag_107:\n        /* \"#utility.yul\":506:520   */\n      pop\n        /* \"#utility.yul\":126:746   */\n      pop\n      pop\n        /* \"#utility.yul\":24:746   */\n      swap4\n      swap3\n      pop\n      pop\n      pop\n      jump\t// out\n        /* \"#utility.yul\":770:1769   */\n    tag_110:\n        /* \"#utility.yul\":890:895   */\n      0x00\n        /* \"#utility.yul\":915:1020   */\n      tag_112\n        /* \"#utility.yul\":931:1019   */\n      tag_113\n        /* \"#utility.yul\":1012:1018   */\n      dup5\n        /* \"#utility.yul\":931:1019   */\n      tag_114\n      jump\t// in\n    tag_113:\n        /* \"#utility.yul\":915:1020   */\n      tag_101\n      jump\t// in\n    tag_112:\n        /* \"#utility.yul\":906:1020   */\n      swap1\n      pop\n        /* \"#utility.yul\":1040:1045   */\n      dup1\n        /* \"#utility.yul\":1069:1075   */\n      dup4\n        /* \"#utility.yul\":1062:1067   */\n      dup3\n        /* \"#utility.yul\":1055:1076   */\n      mstore\n        /* \"#utility.yul\":1103:1107   */\n      0x20\n        /* \"#utility.yul\":1096:1101   */\n      dup3\n        /* \"#utility.yul\":1092:1108   */\n      add\n        /* \"#utility.yul\":1085:1108   */\n      swap1\n      pop\n        /* \"#utility.yul\":1129:1135   */\n      dup3\n        /* \"#utility.yul\":1179:1182   */\n      dup6\n        /* \"#utility.yul\":1171:1175   */\n      0x20\n        /* \"#utility.yul\":1163:1169   */\n      dup7\n        /* \"#utility.yul\":1159:1176   */\n      mul\n        /* \"#utility.yul\":1154:1157   */\n      dup3\n        /* \"#utility.yul\":1150:1177   */\n      add\n        /* \"#utility.yul\":1147:1183   */\n      gt\n        /* \"#utility.yul\":1144:1287   */\n      iszero\n      tag_115\n      jumpi\n        /* \"#utility.yul\":1198:1277   */\n      tag_116\n      tag_104\n      jump\t// in\n    tag_116:\n        /* \"#utility.yul\":1144:1287   */\n    tag_115:\n        /* \"#utility.yul\":1311:1312   */\n      0x00\n        /* \"#utility.yul\":1296:1763   */\n    tag_117:\n        /* \"#utility.yul\":1321:1327   */\n      dup6\n        /* \"#utility.yul\":1318:1319   */\n      dup2\n        /* \"#utility.yul\":1315:1328   */\n      lt\n        /* \"#utility.yul\":1296:1763   */\n      iszero\n      tag_119\n      jumpi\n        /* \"#utility.yul\":1403:1406   */\n      dup2\n        /* \"#utility.yul\":1390:1407   */\n      calldataload\n        /* \"#utility.yul\":1439:1457   */\n      0xffffffffffffffff\n        /* \"#utility.yul\":1426:1437   */\n      dup2\n        /* \"#utility.yul\":1423:1458   */\n      gt\n        /* \"#utility.yul\":1420:1542   */\n      iszero\n      tag_120\n      jumpi\n        /* \"#utility.yul\":1461:1540   */\n      tag_121\n      tag_122\n      jump\t// in\n    tag_121:\n        /* \"#utility.yul\":1420:1542   */\n    tag_120:\n        /* \"#utility.yul\":1585:1596   */\n      dup1\n        /* \"#utility.yul\":1577:1583   */\n      dup7\n        /* \"#utility.yul\":1573:1597   */\n      add\n        /* \"#utility.yul\":1623:1684   */\n      tag_123\n        /* \"#utility.yul\":1680:1683   */\n      dup10\n        /* \"#utility.yul\":1668:1678   */\n      dup3\n        /* \"#utility.yul\":1623:1684   */\n      tag_124\n      jump\t// in\n    tag_123:\n        /* \"#utility.yul\":1618:1621   */\n      dup6\n        /* \"#utility.yul\":1611:1685   */\n      mstore\n        /* \"#utility.yul\":1714:1718   */\n      0x20\n        /* \"#utility.yul\":1709:1712   */\n      dup6\n        /* \"#utility.yul\":1705:1719   */\n      add\n        /* \"#utility.yul\":1698:1719   */\n      swap5\n      pop\n        /* \"#utility.yul\":1748:1752   */\n      0x20\n        /* \"#utility.yul\":1743:1746   */\n      dup5\n        /* \"#utility.yul\":1739:1753   */\n      add\n        /* \"#utility.yul\":1732:1753   */\n      swap4\n      pop\n        /* \"#utility.yul\":1356:1763   */\n      pop\n      pop\n        /* \"#utility.yul\":1343:1344   */\n      0x01\n        /* \"#utility.yul\":1340:1341   */\n      dup2\n        /* \"#utility.yul\":1336:1345   */\n      add\n        /* \"#utility.yul\":1331:1345   */\n      swap1\n      pop\n        /* \"#utility.yul\":1296:1763   */\n      jump(tag_117)\n    tag_119:\n        /* \"#utility.yul\":1300:1314   */\n      pop\n        /* \"#utility.yul\":896:1769   */\n      pop\n      pop\n        /* \"#utility.yul\":770:1769   */\n      swap4\n      swap3\n      pop\n      pop\n      pop\n      jump\t// out\n        /* \"#utility.yul\":1803:2814   */\n    tag_125:\n        /* \"#utility.yul\":1927:1932   */\n      0x00\n        /* \"#utility.yul\":1952:2061   */\n      tag_127\n        /* \"#utility.yul\":1968:2060   */\n      tag_128\n        /* \"#utility.yul\":2053:2059   */\n      dup5\n        /* \"#utility.yul\":1968:2060   */\n      tag_129\n      jump\t// in\n    tag_128:\n        /* \"#utility.yul\":1952:2061   */\n      tag_101\n      jump\t// in\n    tag_127:\n        /* \"#utility.yul\":1943:2061   */\n      swap1\n      pop\n        /* \"#utility.yul\":2081:2086   */\n      dup1\n        /* \"#utility.yul\":2110:2116   */\n      dup4\n        /* \"#utility.yul\":2103:2108   */\n      dup3\n        /* \"#utility.yul\":2096:2117   */\n      mstore\n        /* \"#utility.yul\":2144:2148   */\n      0x20\n        /* \"#utility.yul\":2137:2142   */\n      dup3\n        /* \"#utility.yul\":2133:2149   */\n      add\n        /* \"#utility.yul\":2126:2149   */\n      swap1\n      pop\n        /* \"#utility.yul\":2170:2176   */\n      dup3\n        /* \"#utility.yul\":2220:2223   */\n      dup6\n        /* \"#utility.yul\":2212:2216   */\n      0x20\n        /* \"#utility.yul\":2204:2210   */\n      dup7\n        /* \"#utility.yul\":2200:2217   */\n      mul\n        /* \"#utility.yul\":2195:2198   */\n      dup3\n        /* \"#utility.yul\":2191:2218   */\n      add\n        /* \"#utility.yul\":2188:2224   */\n      gt\n        /* \"#utility.yul\":2185:2328   */\n      iszero\n      tag_130\n      jumpi\n        /* \"#utility.yul\":2239:2318   */\n      tag_131\n      tag_104\n      jump\t// in\n    tag_131:\n        /* \"#utility.yul\":2185:2328   */\n    tag_130:\n        /* \"#utility.yul\":2352:2353   */\n      0x00\n        /* \"#utility.yul\":2337:2808   */\n    tag_132:\n        /* \"#utility.yul\":2362:2368   */\n      dup6\n        /* \"#utility.yul\":2359:2360   */\n      dup2\n        /* \"#utility.yul\":2356:2369   */\n      lt\n        /* \"#utility.yul\":2337:2808   */\n      iszero\n      tag_134\n      jumpi\n        /* \"#utility.yul\":2444:2447   */\n      dup2\n        /* \"#utility.yul\":2431:2448   */\n      calldataload\n        /* \"#utility.yul\":2480:2498   */\n      0xffffffffffffffff\n        /* \"#utility.yul\":2467:2478   */\n      dup2\n        /* \"#utility.yul\":2464:2499   */\n      gt\n        /* \"#utility.yul\":2461:2583   */\n      iszero\n      tag_135\n      jumpi\n        /* \"#utility.yul\":2502:2581   */\n      tag_136\n      tag_122\n      jump\t// in\n    tag_136:\n        /* \"#utility.yul\":2461:2583   */\n    tag_135:\n        /* \"#utility.yul\":2626:2637   */\n      dup1\n        /* \"#utility.yul\":2618:2624   */\n      dup7\n        /* \"#utility.yul\":2614:2638   */\n      add\n        /* \"#utility.yul\":2664:2729   */\n      tag_137\n        /* \"#utility.yul\":2725:2728   */\n      dup10\n        /* \"#utility.yul\":2713:2723   */\n      dup3\n        /* \"#utility.yul\":2664:2729   */\n      tag_138\n      jump\t// in\n    tag_137:\n        /* \"#utility.yul\":2659:2662   */\n      dup6\n        /* \"#utility.yul\":2652:2730   */\n      mstore\n        /* \"#utility.yul\":2759:2763   */\n      0x20\n        /* \"#utility.yul\":2754:2757   */\n      dup6\n        /* \"#utility.yul\":2750:2764   */\n      add\n        /* \"#utility.yul\":2743:2764   */\n      swap5\n      pop\n        /* \"#utility.yul\":2793:2797   */\n      0x20\n        /* \"#utility.yul\":2788:2791   */\n      dup5\n        /* \"#utility.yul\":2784:2798   */\n      add\n        /* \"#utility.yul\":2777:2798   */\n      swap4\n      pop\n        /* \"#utility.yul\":2397:2808   */\n      pop\n      pop\n        /* \"#utility.yul\":2384:2385   */\n      0x01\n        /* \"#utility.yul\":2381:2382   */\n      dup2\n        /* \"#utility.yul\":2377:2386   */\n      add\n        /* \"#utility.yul\":2372:2386   */\n      swap1\n      pop\n        /* \"#utility.yul\":2337:2808   */\n      jump(tag_132)\n    tag_134:\n        /* \"#utility.yul\":2341:2355   */\n      pop\n        /* \"#utility.yul\":1933:2814   */\n      pop\n      pop\n        /* \"#utility.yul\":1803:2814   */\n      swap4\n      swap3\n      pop\n      pop\n      pop\n      jump\t// out\n        /* \"#utility.yul\":2836:3555   */\n    tag_139:\n        /* \"#utility.yul\":2931:2936   */\n      0x00\n        /* \"#utility.yul\":2956:3036   */\n      tag_141\n        /* \"#utility.yul\":2972:3035   */\n      tag_142\n        /* \"#utility.yul\":3028:3034   */\n      dup5\n        /* \"#utility.yul\":2972:3035   */\n      tag_143\n      jump\t// in\n    tag_142:\n        /* \"#utility.yul\":2956:3036   */\n      tag_101\n      jump\t// in\n    tag_141:\n        /* \"#utility.yul\":2947:3036   */\n      swap1\n      pop\n        /* \"#utility.yul\":3056:3061   */\n      dup1\n        /* \"#utility.yul\":3085:3091   */\n      dup4\n        /* \"#utility.yul\":3078:3083   */\n      dup3\n        /* \"#utility.yul\":3071:3092   */\n      mstore\n        /* \"#utility.yul\":3119:3123   */\n      0x20\n        /* \"#utility.yul\":3112:3117   */\n      dup3\n        /* \"#utility.yul\":3108:3124   */\n      add\n        /* \"#utility.yul\":3101:3124   */\n      swap1\n      pop\n        /* \"#utility.yul\":3145:3151   */\n      dup3\n        /* \"#utility.yul\":3195:3198   */\n      dup6\n        /* \"#utility.yul\":3187:3191   */\n      0x20\n        /* \"#utility.yul\":3179:3185   */\n      dup7\n        /* \"#utility.yul\":3175:3192   */\n      mul\n        /* \"#utility.yul\":3170:3173   */\n      dup3\n        /* \"#utility.yul\":3166:3193   */\n      add\n        /* \"#utility.yul\":3163:3199   */\n      gt\n        /* \"#utility.yul\":3160:3303   */\n      iszero\n      tag_144\n      jumpi\n        /* \"#utility.yul\":3214:3293   */\n      tag_145\n      tag_104\n      jump\t// in\n    tag_145:\n        /* \"#utility.yul\":3160:3303   */\n    tag_144:\n        /* \"#utility.yul\":3327:3328   */\n      0x00\n        /* \"#utility.yul\":3312:3549   */\n    tag_146:\n        /* \"#utility.yul\":3337:3343   */\n      dup6\n        /* \"#utility.yul\":3334:3335   */\n      dup2\n        /* \"#utility.yul\":3331:3344   */\n      lt\n        /* \"#utility.yul\":3312:3549   */\n      iszero\n      tag_148\n      jumpi\n        /* \"#utility.yul\":3405:3408   */\n      dup2\n        /* \"#utility.yul\":3434:3470   */\n      tag_149\n        /* \"#utility.yul\":3466:3469   */\n      dup9\n        /* \"#utility.yul\":3454:3464   */\n      dup3\n        /* \"#utility.yul\":3434:3470   */\n      tag_150\n      jump\t// in\n    tag_149:\n        /* \"#utility.yul\":3429:3432   */\n      dup5\n        /* \"#utility.yul\":3422:3471   */\n      mstore\n        /* \"#utility.yul\":3500:3504   */\n      0x20\n        /* \"#utility.yul\":3495:3498   */\n      dup5\n        /* \"#utility.yul\":3491:3505   */\n      add\n        /* \"#utility.yul\":3484:3505   */\n      swap4\n      pop\n        /* \"#utility.yul\":3534:3538   */\n      0x20\n        /* \"#utility.yul\":3529:3532   */\n      dup4\n        /* \"#utility.yul\":3525:3539   */\n      add\n        /* \"#utility.yul\":3518:3539   */\n      swap3\n      pop\n        /* \"#utility.yul\":3372:3549   */\n      pop\n        /* \"#utility.yul\":3359:3360   */\n      0x01\n        /* \"#utility.yul\":3356:3357   */\n      dup2\n        /* \"#utility.yul\":3352:3361   */\n      add\n        /* \"#utility.yul\":3347:3361   */\n      swap1\n      pop\n        /* \"#utility.yul\":3312:3549   */\n      jump(tag_146)\n    tag_148:\n        /* \"#utility.yul\":3316:3330   */\n      pop\n        /* \"#utility.yul\":2937:3555   */\n      pop\n      pop\n        /* \"#utility.yul\":2836:3555   */\n      swap4\n      swap3\n      pop\n      pop\n      pop\n      jump\t// out\n        /* \"#utility.yul\":3561:3973   */\n    tag_151:\n        /* \"#utility.yul\":3639:3644   */\n      0x00\n        /* \"#utility.yul\":3664:3730   */\n      tag_153\n        /* \"#utility.yul\":3680:3729   */\n      tag_154\n        /* \"#utility.yul\":3722:3728   */\n      dup5\n        /* \"#utility.yul\":3680:3729   */\n      tag_155\n      jump\t// in\n    tag_154:\n        /* \"#utility.yul\":3664:3730   */\n      tag_101\n      jump\t// in\n    tag_153:\n        /* \"#utility.yul\":3655:3730   */\n      swap1\n      pop\n        /* \"#utility.yul\":3753:3759   */\n      dup3\n        /* \"#utility.yul\":3746:3751   */\n      dup2\n        /* \"#utility.yul\":3739:3760   */\n      mstore\n        /* \"#utility.yul\":3791:3795   */\n      0x20\n        /* \"#utility.yul\":3784:3789   */\n      dup2\n        /* \"#utility.yul\":3780:3796   */\n      add\n        /* \"#utility.yul\":3829:3832   */\n      dup5\n        /* \"#utility.yul\":3820:3826   */\n      dup5\n        /* \"#utility.yul\":3815:3818   */\n      dup5\n        /* \"#utility.yul\":3811:3827   */\n      add\n        /* \"#utility.yul\":3808:3833   */\n      gt\n        /* \"#utility.yul\":3805:3917   */\n      iszero\n      tag_156\n      jumpi\n        /* \"#utility.yul\":3836:3915   */\n      tag_157\n      tag_158\n      jump\t// in\n    tag_157:\n        /* \"#utility.yul\":3805:3917   */\n    tag_156:\n        /* \"#utility.yul\":3926:3967   */\n      tag_159\n        /* \"#utility.yul\":3960:3966   */\n      dup5\n        /* \"#utility.yul\":3955:3958   */\n      dup3\n        /* \"#utility.yul\":3950:3953   */\n      dup6\n        /* \"#utility.yul\":3926:3967   */\n      tag_160\n      jump\t// in\n    tag_159:\n        /* \"#utility.yul\":3645:3973   */\n      pop\n        /* \"#utility.yul\":3561:3973   */\n      swap4\n      swap3\n      pop\n      pop\n      pop\n      jump\t// out\n        /* \"#utility.yul\":3979:4118   */\n    tag_109:\n        /* \"#utility.yul\":4025:4030   */\n      0x00\n        /* \"#utility.yul\":4063:4069   */\n      dup2\n        /* \"#utility.yul\":4050:4070   */\n      calldataload\n        /* \"#utility.yul\":4041:4070   */\n      swap1\n      pop\n        /* \"#utility.yul\":4079:4112   */\n      tag_162\n        /* \"#utility.yul\":4106:4111   */\n      dup2\n        /* \"#utility.yul\":4079:4112   */\n      tag_163\n      jump\t// in\n    tag_162:\n        /* \"#utility.yul\":3979:4118   */\n      swap3\n      swap2\n      pop\n      pop\n      jump\t// out\n        /* \"#utility.yul\":4141:4511   */\n    tag_164:\n        /* \"#utility.yul\":4212:4217   */\n      0x00\n        /* \"#utility.yul\":4261:4264   */\n      dup3\n        /* \"#utility.yul\":4254:4258   */\n      0x1f\n        /* \"#utility.yul\":4246:4252   */\n      dup4\n        /* \"#utility.yul\":4242:4259   */\n      add\n        /* \"#utility.yul\":4238:4265   */\n      slt\n        /* \"#utility.yul\":4228:4350   */\n      tag_166\n      jumpi\n        /* \"#utility.yul\":4269:4348   */\n      tag_167\n      tag_122\n      jump\t// in\n    tag_167:\n        /* \"#utility.yul\":4228:4350   */\n    tag_166:\n        /* \"#utility.yul\":4386:4392   */\n      dup2\n        /* \"#utility.yul\":4373:4393   */\n      calldataload\n        /* \"#utility.yul\":4411:4505   */\n      tag_168\n        /* \"#utility.yul\":4501:4504   */\n      dup5\n        /* \"#utility.yul\":4493:4499   */\n      dup3\n        /* \"#utility.yul\":4486:4490   */\n      0x20\n        /* \"#utility.yul\":4478:4484   */\n      dup7\n        /* \"#utility.yul\":4474:4491   */\n      add\n        /* \"#utility.yul\":4411:4505   */\n      tag_96\n      jump\t// in\n    tag_168:\n        /* \"#utility.yul\":4402:4505   */\n      swap2\n      pop\n        /* \"#utility.yul\":4218:4511   */\n      pop\n        /* \"#utility.yul\":4141:4511   */\n      swap3\n      swap2\n      pop\n      pop\n      jump\t// out\n        /* \"#utility.yul\":4535:4953   */\n    tag_169:\n        /* \"#utility.yul\":4630:4635   */\n      0x00\n        /* \"#utility.yul\":4679:4682   */\n      dup3\n        /* \"#utility.yul\":4672:4676   */\n      0x1f\n        /* \"#utility.yul\":4664:4670   */\n      dup4\n        /* \"#utility.yul\":4660:4677   */\n      add\n        /* \"#utility.yul\":4656:4683   */\n      slt\n        /* \"#utility.yul\":4646:4768   */\n      tag_171\n      jumpi\n        /* \"#utility.yul\":4687:4766   */\n      tag_172\n      tag_122\n      jump\t// in\n    tag_172:\n        /* \"#utility.yul\":4646:4768   */\n    tag_171:\n        /* \"#utility.yul\":4804:4810   */\n      dup2\n        /* \"#utility.yul\":4791:4811   */\n      calldataload\n        /* \"#utility.yul\":4829:4947   */\n      tag_173\n        /* \"#utility.yul\":4943:4946   */\n      dup5\n        /* \"#utility.yul\":4935:4941   */\n      dup3\n        /* \"#utility.yul\":4928:4932   */\n      0x20\n        /* \"#utility.yul\":4920:4926   */\n      dup7\n        /* \"#utility.yul\":4916:4933   */\n      add\n        /* \"#utility.yul\":4829:4947   */\n      tag_110\n      jump\t// in\n    tag_173:\n        /* \"#utility.yul\":4820:4947   */\n      swap2\n      pop\n        /* \"#utility.yul\":4636:4953   */\n      pop\n        /* \"#utility.yul\":4535:4953   */\n      swap3\n      swap2\n      pop\n      pop\n      jump\t// out\n        /* \"#utility.yul\":4987:5413   */\n    tag_174:\n        /* \"#utility.yul\":5086:5091   */\n      0x00\n        /* \"#utility.yul\":5135:5138   */\n      dup3\n        /* \"#utility.yul\":5128:5132   */\n      0x1f\n        /* \"#utility.yul\":5120:5126   */\n      dup4\n        /* \"#utility.yul\":5116:5133   */\n      add\n        /* \"#utility.yul\":5112:5139   */\n      slt\n        /* \"#utility.yul\":5102:5224   */\n      tag_176\n      jumpi\n        /* \"#utility.yul\":5143:5222   */\n      tag_177\n      tag_122\n      jump\t// in\n    tag_177:\n        /* \"#utility.yul\":5102:5224   */\n    tag_176:\n        /* \"#utility.yul\":5260:5266   */\n      dup2\n        /* \"#utility.yul\":5247:5267   */\n      calldataload\n        /* \"#utility.yul\":5285:5407   */\n      tag_178\n        /* \"#utility.yul\":5403:5406   */\n      dup5\n        /* \"#utility.yul\":5395:5401   */\n      dup3\n        /* \"#utility.yul\":5388:5392   */\n      0x20\n        /* \"#utility.yul\":5380:5386   */\n      dup7\n        /* \"#utility.yul\":5376:5393   */\n      add\n        /* \"#utility.yul\":5285:5407   */\n      tag_125\n      jump\t// in\n    tag_178:\n        /* \"#utility.yul\":5276:5407   */\n      swap2\n      pop\n        /* \"#utility.yul\":5092:5413   */\n      pop\n        /* \"#utility.yul\":4987:5413   */\n      swap3\n      swap2\n      pop\n      pop\n      jump\t// out\n        /* \"#utility.yul\":5435:5803   */\n    tag_124:\n        /* \"#utility.yul\":5505:5510   */\n      0x00\n        /* \"#utility.yul\":5554:5557   */\n      dup3\n        /* \"#utility.yul\":5547:5551   */\n      0x1f\n        /* \"#utility.yul\":5539:5545   */\n      dup4\n        /* \"#utility.yul\":5535:5552   */\n      add\n        /* \"#utility.yul\":5531:5558   */\n      slt\n        /* \"#utility.yul\":5521:5643   */\n      tag_180\n      jumpi\n        /* \"#utility.yul\":5562:5641   */\n      tag_181\n      tag_122\n      jump\t// in\n    tag_181:\n        /* \"#utility.yul\":5521:5643   */\n    tag_180:\n        /* \"#utility.yul\":5679:5685   */\n      dup2\n        /* \"#utility.yul\":5666:5686   */\n      calldataload\n        /* \"#utility.yul\":5704:5797   */\n      tag_182\n        /* \"#utility.yul\":5793:5796   */\n      dup5\n        /* \"#utility.yul\":5785:5791   */\n      dup3\n        /* \"#utility.yul\":5778:5782   */\n      0x20\n        /* \"#utility.yul\":5770:5776   */\n      dup7\n        /* \"#utility.yul\":5766:5783   */\n      add\n        /* \"#utility.yul\":5704:5797   */\n      tag_139\n      jump\t// in\n    tag_182:\n        /* \"#utility.yul\":5695:5797   */\n      swap2\n      pop\n        /* \"#utility.yul\":5511:5803   */\n      pop\n        /* \"#utility.yul\":5435:5803   */\n      swap3\n      swap2\n      pop\n      pop\n      jump\t// out\n        /* \"#utility.yul\":5809:5948   */\n    tag_183:\n        /* \"#utility.yul\":5855:5860   */\n      0x00\n        /* \"#utility.yul\":5893:5899   */\n      dup2\n        /* \"#utility.yul\":5880:5900   */\n      calldataload\n        /* \"#utility.yul\":5871:5900   */\n      swap1\n      pop\n        /* \"#utility.yul\":5909:5942   */\n      tag_185\n        /* \"#utility.yul\":5936:5941   */\n      dup2\n        /* \"#utility.yul\":5909:5942   */\n      tag_186\n      jump\t// in\n    tag_185:\n        /* \"#utility.yul\":5809:5948   */\n      swap3\n      swap2\n      pop\n      pop\n      jump\t// out\n        /* \"#utility.yul\":5968:6308   */\n    tag_187:\n        /* \"#utility.yul\":6024:6029   */\n      0x00\n        /* \"#utility.yul\":6073:6076   */\n      dup3\n        /* \"#utility.yul\":6066:6070   */\n      0x1f\n        /* \"#utility.yul\":6058:6064   */\n      dup4\n        /* \"#utility.yul\":6054:6071   */\n      add\n        /* \"#utility.yul\":6050:6077   */\n      slt\n        /* \"#utility.yul\":6040:6162   */\n      tag_189\n      jumpi\n        /* \"#utility.yul\":6081:6160   */\n      tag_190\n      tag_122\n      jump\t// in\n    tag_190:\n        /* \"#utility.yul\":6040:6162   */\n    tag_189:\n        /* \"#utility.yul\":6198:6204   */\n      dup2\n        /* \"#utility.yul\":6185:6205   */\n      calldataload\n        /* \"#utility.yul\":6223:6302   */\n      tag_191\n        /* \"#utility.yul\":6298:6301   */\n      dup5\n        /* \"#utility.yul\":6290:6296   */\n      dup3\n        /* \"#utility.yul\":6283:6287   */\n      0x20\n        /* \"#utility.yul\":6275:6281   */\n      dup7\n        /* \"#utility.yul\":6271:6288   */\n      add\n        /* \"#utility.yul\":6223:6302   */\n      tag_151\n      jump\t// in\n    tag_191:\n        /* \"#utility.yul\":6214:6302   */\n      swap2\n      pop\n        /* \"#utility.yul\":6030:6308   */\n      pop\n        /* \"#utility.yul\":5968:6308   */\n      swap3\n      swap2\n      pop\n      pop\n      jump\t// out\n        /* \"#utility.yul\":6340:7461   */\n    tag_138:\n        /* \"#utility.yul\":6417:6422   */\n      0x00\n        /* \"#utility.yul\":6461:6465   */\n      0x60\n        /* \"#utility.yul\":6449:6458   */\n      dup3\n        /* \"#utility.yul\":6444:6447   */\n      dup5\n        /* \"#utility.yul\":6440:6459   */\n      sub\n        /* \"#utility.yul\":6436:6466   */\n      slt\n        /* \"#utility.yul\":6433:6550   */\n      iszero\n      tag_193\n      jumpi\n        /* \"#utility.yul\":6469:6548   */\n      tag_194\n      tag_195\n      jump\t// in\n    tag_194:\n        /* \"#utility.yul\":6433:6550   */\n    tag_193:\n        /* \"#utility.yul\":6568:6589   */\n      tag_196\n        /* \"#utility.yul\":6584:6588   */\n      0x60\n        /* \"#utility.yul\":6568:6589   */\n      tag_101\n      jump\t// in\n    tag_196:\n        /* \"#utility.yul\":6559:6589   */\n      swap1\n      pop\n        /* \"#utility.yul\":6659:6660   */\n      0x00\n        /* \"#utility.yul\":6699:6748   */\n      tag_197\n        /* \"#utility.yul\":6744:6747   */\n      dup5\n        /* \"#utility.yul\":6735:6741   */\n      dup3\n        /* \"#utility.yul\":6724:6733   */\n      dup6\n        /* \"#utility.yul\":6720:6742   */\n      add\n        /* \"#utility.yul\":6699:6748   */\n      tag_109\n      jump\t// in\n    tag_197:\n        /* \"#utility.yul\":6692:6696   */\n      0x00\n        /* \"#utility.yul\":6685:6690   */\n      dup4\n        /* \"#utility.yul\":6681:6697   */\n      add\n        /* \"#utility.yul\":6674:6749   */\n      mstore\n        /* \"#utility.yul\":6599:6760   */\n      pop\n        /* \"#utility.yul\":6858:6860   */\n      0x20\n        /* \"#utility.yul\":6847:6856   */\n      dup3\n        /* \"#utility.yul\":6843:6861   */\n      add\n        /* \"#utility.yul\":6830:6862   */\n      calldataload\n        /* \"#utility.yul\":6889:6907   */\n      0xffffffffffffffff\n        /* \"#utility.yul\":6881:6887   */\n      dup2\n        /* \"#utility.yul\":6878:6908   */\n      gt\n        /* \"#utility.yul\":6875:6992   */\n      iszero\n      tag_198\n      jumpi\n        /* \"#utility.yul\":6911:6990   */\n      tag_199\n      tag_200\n      jump\t// in\n    tag_199:\n        /* \"#utility.yul\":6875:6992   */\n    tag_198:\n        /* \"#utility.yul\":7031:7090   */\n      tag_201\n        /* \"#utility.yul\":7086:7089   */\n      dup5\n        /* \"#utility.yul\":7077:7083   */\n      dup3\n        /* \"#utility.yul\":7066:7075   */\n      dup6\n        /* \"#utility.yul\":7062:7084   */\n      add\n        /* \"#utility.yul\":7031:7090   */\n      tag_187\n      jump\t// in\n    tag_201:\n        /* \"#utility.yul\":7024:7028   */\n      0x20\n        /* \"#utility.yul\":7017:7022   */\n      dup4\n        /* \"#utility.yul\":7013:7029   */\n      add\n        /* \"#utility.yul\":7006:7091   */\n      mstore\n        /* \"#utility.yul\":6770:7102   */\n      pop\n        /* \"#utility.yul\":7195:7197   */\n      0x40\n        /* \"#utility.yul\":7184:7193   */\n      dup3\n        /* \"#utility.yul\":7180:7198   */\n      add\n        /* \"#utility.yul\":7167:7199   */\n      calldataload\n        /* \"#utility.yul\":7226:7244   */\n      0xffffffffffffffff\n        /* \"#utility.yul\":7218:7224   */\n      dup2\n        /* \"#utility.yul\":7215:7245   */\n      gt\n        /* \"#utility.yul\":7212:7329   */\n      iszero\n      tag_202\n      jumpi\n        /* \"#utility.yul\":7248:7327   */\n      tag_203\n      tag_200\n      jump\t// in\n    tag_203:\n        /* \"#utility.yul\":7212:7329   */\n    tag_202:\n        /* \"#utility.yul\":7368:7442   */\n      tag_204\n        /* \"#utility.yul\":7438:7441   */\n      dup5\n        /* \"#utility.yul\":7429:7435   */\n      dup3\n        /* \"#utility.yul\":7418:7427   */\n      dup6\n        /* \"#utility.yul\":7414:7436   */\n      add\n        /* \"#utility.yul\":7368:7442   */\n      tag_164\n      jump\t// in\n    tag_204:\n        /* \"#utility.yul\":7361:7365   */\n      0x40\n        /* \"#utility.yul\":7354:7359   */\n      dup4\n        /* \"#utility.yul\":7350:7366   */\n      add\n        /* \"#utility.yul\":7343:7443   */\n      mstore\n        /* \"#utility.yul\":7112:7454   */\n      pop\n        /* \"#utility.yul\":6340:7461   */\n      swap3\n      swap2\n      pop\n      pop\n      jump\t// out\n        /* \"#utility.yul\":7467:7604   */\n    tag_150:\n        /* \"#utility.yul\":7512:7517   */\n      0x00\n        /* \"#utility.yul\":7550:7556   */\n      dup2\n        /* \"#utility.yul\":7537:7557   */\n      calldataload\n        /* \"#utility.yul\":7528:7557   */\n      swap1\n      pop\n        /* \"#utility.yul\":7566:7598   */\n      tag_206\n        /* \"#utility.yul\":7592:7597   */\n      dup2\n        /* \"#utility.yul\":7566:7598   */\n      tag_207\n      jump\t// in\n    tag_206:\n        /* \"#utility.yul\":7467:7604   */\n      swap3\n      swap2\n      pop\n      pop\n      jump\t// out\n        /* \"#utility.yul\":7610:7749   */\n    tag_208:\n        /* \"#utility.yul\":7656:7661   */\n      0x00\n        /* \"#utility.yul\":7694:7700   */\n      dup2\n        /* \"#utility.yul\":7681:7701   */\n      calldataload\n        /* \"#utility.yul\":7672:7701   */\n      swap1\n      pop\n        /* \"#utility.yul\":7710:7743   */\n      tag_210\n        /* \"#utility.yul\":7737:7742   */\n      dup2\n        /* \"#utility.yul\":7710:7743   */\n      tag_211\n      jump\t// in\n    tag_210:\n        /* \"#utility.yul\":7610:7749   */\n      swap3\n      swap2\n      pop\n      pop\n      jump\t// out\n        /* \"#utility.yul\":7755:8084   */\n    tag_15:\n        /* \"#utility.yul\":7814:7820   */\n      0x00\n        /* \"#utility.yul\":7863:7865   */\n      0x20\n        /* \"#utility.yul\":7851:7860   */\n      dup3\n        /* \"#utility.yul\":7842:7849   */\n      dup5\n        /* \"#utility.yul\":7838:7861   */\n      sub\n        /* \"#utility.yul\":7834:7866   */\n      slt\n        /* \"#utility.yul\":7831:7950   */\n      iszero\n      tag_213\n      jumpi\n        /* \"#utility.yul\":7869:7948   */\n      tag_214\n      tag_215\n      jump\t// in\n    tag_214:\n        /* \"#utility.yul\":7831:7950   */\n    tag_213:\n        /* \"#utility.yul\":7989:7990   */\n      0x00\n        /* \"#utility.yul\":8014:8067   */\n      tag_216\n        /* \"#utility.yul\":8059:8066   */\n      dup5\n        /* \"#utility.yul\":8050:8056   */\n      dup3\n        /* \"#utility.yul\":8039:8048   */\n      dup6\n        /* \"#utility.yul\":8035:8057   */\n      add\n        /* \"#utility.yul\":8014:8067   */\n      tag_109\n      jump\t// in\n    tag_216:\n        /* \"#utility.yul\":8004:8067   */\n      swap2\n      pop\n        /* \"#utility.yul\":7960:8077   */\n      pop\n        /* \"#utility.yul\":7755:8084   */\n      swap3\n      swap2\n      pop\n      pop\n      jump\t// out\n        /* \"#utility.yul\":8090:9881   */\n    tag_19:\n        /* \"#utility.yul\":8321:8327   */\n      0x00\n        /* \"#utility.yul\":8329:8335   */\n      dup1\n        /* \"#utility.yul\":8337:8343   */\n      0x00\n        /* \"#utility.yul\":8345:8351   */\n      dup1\n        /* \"#utility.yul\":8353:8359   */\n      0x00\n        /* \"#utility.yul\":8361:8367   */\n      dup1\n        /* \"#utility.yul\":8410:8413   */\n      0xc0\n        /* \"#utility.yul\":8398:8407   */\n      dup8\n        /* \"#utility.yul\":8389:8396   */\n      dup10\n        /* \"#utility.yul\":8385:8408   */\n      sub\n        /* \"#utility.yul\":8381:8414   */\n      slt\n        /* \"#utility.yul\":8378:8498   */\n      iszero\n      tag_218\n      jumpi\n        /* \"#utility.yul\":8417:8496   */\n      tag_219\n      tag_215\n      jump\t// in\n    tag_219:\n        /* \"#utility.yul\":8378:8498   */\n    tag_218:\n        /* \"#utility.yul\":8537:8538   */\n      0x00\n        /* \"#utility.yul\":8562:8615   */\n      tag_220\n        /* \"#utility.yul\":8607:8614   */\n      dup10\n        /* \"#utility.yul\":8598:8604   */\n      dup3\n        /* \"#utility.yul\":8587:8596   */\n      dup11\n        /* \"#utility.yul\":8583:8605   */\n      add\n        /* \"#utility.yul\":8562:8615   */\n      tag_183\n      jump\t// in\n    tag_220:\n        /* \"#utility.yul\":8552:8615   */\n      swap7\n      pop\n        /* \"#utility.yul\":8508:8625   */\n      pop\n        /* \"#utility.yul\":8692:8694   */\n      0x20\n        /* \"#utility.yul\":8681:8690   */\n      dup8\n        /* \"#utility.yul\":8677:8695   */\n      add\n        /* \"#utility.yul\":8664:8696   */\n      calldataload\n        /* \"#utility.yul\":8723:8741   */\n      0xffffffffffffffff\n        /* \"#utility.yul\":8715:8721   */\n      dup2\n        /* \"#utility.yul\":8712:8742   */\n      gt\n        /* \"#utility.yul\":8709:8826   */\n      iszero\n      tag_221\n      jumpi\n        /* \"#utility.yul\":8745:8824   */\n      tag_222\n      tag_223\n      jump\t// in\n    tag_222:\n        /* \"#utility.yul\":8709:8826   */\n    tag_221:\n        /* \"#utility.yul\":8850:8928   */\n      tag_224\n        /* \"#utility.yul\":8920:8927   */\n      dup10\n        /* \"#utility.yul\":8911:8917   */\n      dup3\n        /* \"#utility.yul\":8900:8909   */\n      dup11\n        /* \"#utility.yul\":8896:8918   */\n      add\n        /* \"#utility.yul\":8850:8928   */\n      tag_164\n      jump\t// in\n    tag_224:\n        /* \"#utility.yul\":8840:8928   */\n      swap6\n      pop\n        /* \"#utility.yul\":8635:8938   */\n      pop\n        /* \"#utility.yul\":9005:9007   */\n      0x40\n        /* \"#utility.yul\":8994:9003   */\n      dup8\n        /* \"#utility.yul\":8990:9008   */\n      add\n        /* \"#utility.yul\":8977:9009   */\n      calldataload\n        /* \"#utility.yul\":9036:9054   */\n      0xffffffffffffffff\n        /* \"#utility.yul\":9028:9034   */\n      dup2\n        /* \"#utility.yul\":9025:9055   */\n      gt\n        /* \"#utility.yul\":9022:9139   */\n      iszero\n      tag_225\n      jumpi\n        /* \"#utility.yul\":9058:9137   */\n      tag_226\n      tag_223\n      jump\t// in\n    tag_226:\n        /* \"#utility.yul\":9022:9139   */\n    tag_225:\n        /* \"#utility.yul\":9163:9265   */\n      tag_227\n        /* \"#utility.yul\":9257:9264   */\n      dup10\n        /* \"#utility.yul\":9248:9254   */\n      dup3\n        /* \"#utility.yul\":9237:9246   */\n      dup11\n        /* \"#utility.yul\":9233:9255   */\n      add\n        /* \"#utility.yul\":9163:9265   */\n      tag_169\n      jump\t// in\n    tag_227:\n        /* \"#utility.yul\":9153:9265   */\n      swap5\n      pop\n        /* \"#utility.yul\":8948:9275   */\n      pop\n        /* \"#utility.yul\":9342:9344   */\n      0x60\n        /* \"#utility.yul\":9331:9340   */\n      dup8\n        /* \"#utility.yul\":9327:9345   */\n      add\n        /* \"#utility.yul\":9314:9346   */\n      calldataload\n        /* \"#utility.yul\":9373:9391   */\n      0xffffffffffffffff\n        /* \"#utility.yul\":9365:9371   */\n      dup2\n        /* \"#utility.yul\":9362:9392   */\n      gt\n        /* \"#utility.yul\":9359:9476   */\n      iszero\n      tag_228\n      jumpi\n        /* \"#utility.yul\":9395:9474   */\n      tag_229\n      tag_223\n      jump\t// in\n    tag_229:\n        /* \"#utility.yul\":9359:9476   */\n    tag_228:\n        /* \"#utility.yul\":9500:9606   */\n      tag_230\n        /* \"#utility.yul\":9598:9605   */\n      dup10\n        /* \"#utility.yul\":9589:9595   */\n      dup3\n        /* \"#utility.yul\":9578:9587   */\n      dup11\n        /* \"#utility.yul\":9574:9596   */\n      add\n        /* \"#utility.yul\":9500:9606   */\n      tag_174\n      jump\t// in\n    tag_230:\n        /* \"#utility.yul\":9490:9606   */\n      swap4\n      pop\n        /* \"#utility.yul\":9285:9616   */\n      pop\n        /* \"#utility.yul\":9655:9658   */\n      0x80\n        /* \"#utility.yul\":9682:9735   */\n      tag_231\n        /* \"#utility.yul\":9727:9734   */\n      dup10\n        /* \"#utility.yul\":9718:9724   */\n      dup3\n        /* \"#utility.yul\":9707:9716   */\n      dup11\n        /* \"#utility.yul\":9703:9725   */\n      add\n        /* \"#utility.yul\":9682:9735   */\n      tag_208\n      jump\t// in\n    tag_231:\n        /* \"#utility.yul\":9672:9735   */\n      swap3\n      pop\n        /* \"#utility.yul\":9626:9745   */\n      pop\n        /* \"#utility.yul\":9784:9787   */\n      0xa0\n        /* \"#utility.yul\":9811:9864   */\n      tag_232\n        /* \"#utility.yul\":9856:9863   */\n      dup10\n        /* \"#utility.yul\":9847:9853   */\n      dup3\n        /* \"#utility.yul\":9836:9845   */\n      dup11\n        /* \"#utility.yul\":9832:9854   */\n      add\n        /* \"#utility.yul\":9811:9864   */\n      tag_208\n      jump\t// in\n    tag_232:\n        /* \"#utility.yul\":9801:9864   */\n      swap2\n      pop\n        /* \"#utility.yul\":9755:9874   */\n      pop\n        /* \"#utility.yul\":8090:9881   */\n      swap3\n      swap6\n      pop\n      swap3\n      swap6\n      pop\n      swap3\n      swap6\n      jump\t// out\n        /* \"#utility.yul\":9887:10005   */\n    tag_233:\n        /* \"#utility.yul\":9974:9998   */\n      tag_235\n        /* \"#utility.yul\":9992:9997   */\n      dup2\n        /* \"#utility.yul\":9974:9998   */\n      tag_236\n      jump\t// in\n    tag_235:\n        /* \"#utility.yul\":9969:9972   */\n      dup3\n        /* \"#utility.yul\":9962:9999   */\n      mstore\n        /* \"#utility.yul\":9887:10005   */\n      pop\n      pop\n      jump\t// out\n        /* \"#utility.yul\":10011:10120   */\n    tag_237:\n        /* \"#utility.yul\":10092:10113   */\n      tag_239\n        /* \"#utility.yul\":10107:10112   */\n      dup2\n        /* \"#utility.yul\":10092:10113   */\n      tag_240\n      jump\t// in\n    tag_239:\n        /* \"#utility.yul\":10087:10090   */\n      dup3\n        /* \"#utility.yul\":10080:10114   */\n      mstore\n        /* \"#utility.yul\":10011:10120   */\n      pop\n      pop\n      jump\t// out\n        /* \"#utility.yul\":10126:10492   */\n    tag_241:\n        /* \"#utility.yul\":10268:10271   */\n      0x00\n        /* \"#utility.yul\":10289:10356   */\n      tag_243\n        /* \"#utility.yul\":10353:10355   */\n      0x26\n        /* \"#utility.yul\":10348:10351   */\n      dup4\n        /* \"#utility.yul\":10289:10356   */\n      tag_244\n      jump\t// in\n    tag_243:\n        /* \"#utility.yul\":10282:10356   */\n      swap2\n      pop\n        /* \"#utility.yul\":10365:10458   */\n      tag_245\n        /* \"#utility.yul\":10454:10457   */\n      dup3\n        /* \"#utility.yul\":10365:10458   */\n      tag_246\n      jump\t// in\n    tag_245:\n        /* \"#utility.yul\":10483:10485   */\n      0x40\n        /* \"#utility.yul\":10478:10481   */\n      dup3\n        /* \"#utility.yul\":10474:10486   */\n      add\n        /* \"#utility.yul\":10467:10486   */\n      swap1\n      pop\n        /* \"#utility.yul\":10126:10492   */\n      swap2\n      swap1\n      pop\n      jump\t// out\n        /* \"#utility.yul\":10498:10864   */\n    tag_247:\n        /* \"#utility.yul\":10640:10643   */\n      0x00\n        /* \"#utility.yul\":10661:10728   */\n      tag_249\n        /* \"#utility.yul\":10725:10727   */\n      0x20\n        /* \"#utility.yul\":10720:10723   */\n      dup4\n        /* \"#utility.yul\":10661:10728   */\n      tag_244\n      jump\t// in\n    tag_249:\n        /* \"#utility.yul\":10654:10728   */\n      swap2\n      pop\n        /* \"#utility.yul\":10737:10830   */\n      tag_250\n        /* \"#utility.yul\":10826:10829   */\n      dup3\n        /* \"#utility.yul\":10737:10830   */\n      tag_251\n      jump\t// in\n    tag_250:\n        /* \"#utility.yul\":10855:10857   */\n      0x20\n        /* \"#utility.yul\":10850:10853   */\n      dup3\n        /* \"#utility.yul\":10846:10858   */\n      add\n        /* \"#utility.yul\":10839:10858   */\n      swap1\n      pop\n        /* \"#utility.yul\":10498:10864   */\n      swap2\n      swap1\n      pop\n      jump\t// out\n        /* \"#utility.yul\":10870:11092   */\n    tag_12:\n        /* \"#utility.yul\":10963:10967   */\n      0x00\n        /* \"#utility.yul\":11001:11003   */\n      0x20\n        /* \"#utility.yul\":10990:10999   */\n      dup3\n        /* \"#utility.yul\":10986:11004   */\n      add\n        /* \"#utility.yul\":10978:11004   */\n      swap1\n      pop\n        /* \"#utility.yul\":11014:11085   */\n      tag_253\n        /* \"#utility.yul\":11082:11083   */\n      0x00\n        /* \"#utility.yul\":11071:11080   */\n      dup4\n        /* \"#utility.yul\":11067:11084   */\n      add\n        /* \"#utility.yul\":11058:11064   */\n      dup5\n        /* \"#utility.yul\":11014:11085   */\n      tag_233\n      jump\t// in\n    tag_253:\n        /* \"#utility.yul\":10870:11092   */\n      swap3\n      swap2\n      pop\n      pop\n      jump\t// out\n        /* \"#utility.yul\":11098:11308   */\n    tag_22:\n        /* \"#utility.yul\":11185:11189   */\n      0x00\n        /* \"#utility.yul\":11223:11225   */\n      0x20\n        /* \"#utility.yul\":11212:11221   */\n      dup3\n        /* \"#utility.yul\":11208:11226   */\n      add\n        /* \"#utility.yul\":11200:11226   */\n      swap1\n      pop\n        /* \"#utility.yul\":11236:11301   */\n      tag_255\n        /* \"#utility.yul\":11298:11299   */\n      0x00\n        /* \"#utility.yul\":11287:11296   */\n      dup4\n        /* \"#utility.yul\":11283:11300   */\n      add\n        /* \"#utility.yul\":11274:11280   */\n      dup5\n        /* \"#utility.yul\":11236:11301   */\n      tag_237\n      jump\t// in\n    tag_255:\n        /* \"#utility.yul\":11098:11308   */\n      swap3\n      swap2\n      pop\n      pop\n      jump\t// out\n        /* \"#utility.yul\":11314:11733   */\n    tag_35:\n        /* \"#utility.yul\":11480:11484   */\n      0x00\n        /* \"#utility.yul\":11518:11520   */\n      0x20\n        /* \"#utility.yul\":11507:11516   */\n      dup3\n        /* \"#utility.yul\":11503:11521   */\n      add\n        /* \"#utility.yul\":11495:11521   */\n      swap1\n      pop\n        /* \"#utility.yul\":11567:11576   */\n      dup2\n        /* \"#utility.yul\":11561:11565   */\n      dup2\n        /* \"#utility.yul\":11557:11577   */\n      sub\n        /* \"#utility.yul\":11553:11554   */\n      0x00\n        /* \"#utility.yul\":11542:11551   */\n      dup4\n        /* \"#utility.yul\":11538:11555   */\n      add\n        /* \"#utility.yul\":11531:11578   */\n      mstore\n        /* \"#utility.yul\":11595:11726   */\n      tag_257\n        /* \"#utility.yul\":11721:11725   */\n      dup2\n        /* \"#utility.yul\":11595:11726   */\n      tag_241\n      jump\t// in\n    tag_257:\n        /* \"#utility.yul\":11587:11726   */\n      swap1\n      pop\n        /* \"#utility.yul\":11314:11733   */\n      swap2\n      swap1\n      pop\n      jump\t// out\n        /* \"#utility.yul\":11739:12158   */\n    tag_77:\n        /* \"#utility.yul\":11905:11909   */\n      0x00\n        /* \"#utility.yul\":11943:11945   */\n      0x20\n        /* \"#utility.yul\":11932:11941   */\n      dup3\n        /* \"#utility.yul\":11928:11946   */\n      add\n        /* \"#utility.yul\":11920:11946   */\n      swap1\n      pop\n        /* \"#utility.yul\":11992:12001   */\n      dup2\n        /* \"#utility.yul\":11986:11990   */\n      dup2\n        /* \"#utility.yul\":11982:12002   */\n      sub\n        /* \"#utility.yul\":11978:11979   */\n      0x00\n        /* \"#utility.yul\":11967:11976   */\n      dup4\n        /* \"#utility.yul\":11963:11980   */\n      add\n        /* \"#utility.yul\":11956:12003   */\n      mstore\n        /* \"#utility.yul\":12020:12151   */\n      tag_259\n        /* \"#utility.yul\":12146:12150   */\n      dup2\n        /* \"#utility.yul\":12020:12151   */\n      tag_247\n      jump\t// in\n    tag_259:\n        /* \"#utility.yul\":12012:12151   */\n      swap1\n      pop\n        /* \"#utility.yul\":11739:12158   */\n      swap2\n      swap1\n      pop\n      jump\t// out\n        /* \"#utility.yul\":12164:12293   */\n    tag_101:\n        /* \"#utility.yul\":12198:12204   */\n      0x00\n        /* \"#utility.yul\":12225:12245   */\n      tag_261\n      tag_262\n      jump\t// in\n    tag_261:\n        /* \"#utility.yul\":12215:12245   */\n      swap1\n      pop\n        /* \"#utility.yul\":12254:12287   */\n      tag_263\n        /* \"#utility.yul\":12282:12286   */\n      dup3\n        /* \"#utility.yul\":12274:12280   */\n      dup3\n        /* \"#utility.yul\":12254:12287   */\n      tag_264\n      jump\t// in\n    tag_263:\n        /* \"#utility.yul\":12164:12293   */\n      swap2\n      swap1\n      pop\n      jump\t// out\n        /* \"#utility.yul\":12299:12374   */\n    tag_262:\n        /* \"#utility.yul\":12332:12338   */\n      0x00\n        /* \"#utility.yul\":12365:12367   */\n      0x40\n        /* \"#utility.yul\":12359:12368   */\n      mload\n        /* \"#utility.yul\":12349:12368   */\n      swap1\n      pop\n        /* \"#utility.yul\":12299:12374   */\n      swap1\n      jump\t// out\n        /* \"#utility.yul\":12380:12691   */\n    tag_100:\n        /* \"#utility.yul\":12457:12461   */\n      0x00\n        /* \"#utility.yul\":12547:12565   */\n      0xffffffffffffffff\n        /* \"#utility.yul\":12539:12545   */\n      dup3\n        /* \"#utility.yul\":12536:12566   */\n      gt\n        /* \"#utility.yul\":12533:12589   */\n      iszero\n      tag_267\n      jumpi\n        /* \"#utility.yul\":12569:12587   */\n      tag_268\n      tag_269\n      jump\t// in\n    tag_268:\n        /* \"#utility.yul\":12533:12589   */\n    tag_267:\n        /* \"#utility.yul\":12619:12623   */\n      0x20\n        /* \"#utility.yul\":12611:12617   */\n      dup3\n        /* \"#utility.yul\":12607:12624   */\n      mul\n        /* \"#utility.yul\":12599:12624   */\n      swap1\n      pop\n        /* \"#utility.yul\":12679:12683   */\n      0x20\n        /* \"#utility.yul\":12673:12677   */\n      dup2\n        /* \"#utility.yul\":12669:12684   */\n      add\n        /* \"#utility.yul\":12661:12684   */\n      swap1\n      pop\n        /* \"#utility.yul\":12380:12691   */\n      swap2\n      swap1\n      pop\n      jump\t// out\n        /* \"#utility.yul\":12697:13032   */\n    tag_114:\n        /* \"#utility.yul\":12798:12802   */\n      0x00\n        /* \"#utility.yul\":12888:12906   */\n      0xffffffffffffffff\n        /* \"#utility.yul\":12880:12886   */\n      dup3\n        /* \"#utility.yul\":12877:12907   */\n      gt\n        /* \"#utility.yul\":12874:12930   */\n      iszero\n      tag_271\n      jumpi\n        /* \"#utility.yul\":12910:12928   */\n      tag_272\n      tag_269\n      jump\t// in\n    tag_272:\n        /* \"#utility.yul\":12874:12930   */\n    tag_271:\n        /* \"#utility.yul\":12960:12964   */\n      0x20\n        /* \"#utility.yul\":12952:12958   */\n      dup3\n        /* \"#utility.yul\":12948:12965   */\n      mul\n        /* \"#utility.yul\":12940:12965   */\n      swap1\n      pop\n        /* \"#utility.yul\":13020:13024   */\n      0x20\n        /* \"#utility.yul\":13014:13018   */\n      dup2\n        /* \"#utility.yul\":13010:13025   */\n      add\n        /* \"#utility.yul\":13002:13025   */\n      swap1\n      pop\n        /* \"#utility.yul\":12697:13032   */\n      swap2\n      swap1\n      pop\n      jump\t// out\n        /* \"#utility.yul\":13038:13377   */\n    tag_129:\n        /* \"#utility.yul\":13143:13147   */\n      0x00\n        /* \"#utility.yul\":13233:13251   */\n      0xffffffffffffffff\n        /* \"#utility.yul\":13225:13231   */\n      dup3\n        /* \"#utility.yul\":13222:13252   */\n      gt\n        /* \"#utility.yul\":13219:13275   */\n      iszero\n      tag_274\n      jumpi\n        /* \"#utility.yul\":13255:13273   */\n      tag_275\n      tag_269\n      jump\t// in\n    tag_275:\n        /* \"#utility.yul\":13219:13275   */\n    tag_274:\n        /* \"#utility.yul\":13305:13309   */\n      0x20\n        /* \"#utility.yul\":13297:13303   */\n      dup3\n        /* \"#utility.yul\":13293:13310   */\n      mul\n        /* \"#utility.yul\":13285:13310   */\n      swap1\n      pop\n        /* \"#utility.yul\":13365:13369   */\n      0x20\n        /* \"#utility.yul\":13359:13363   */\n      dup2\n        /* \"#utility.yul\":13355:13370   */\n      add\n        /* \"#utility.yul\":13347:13370   */\n      swap1\n      pop\n        /* \"#utility.yul\":13038:13377   */\n      swap2\n      swap1\n      pop\n      jump\t// out\n        /* \"#utility.yul\":13383:13693   */\n    tag_143:\n        /* \"#utility.yul\":13459:13463   */\n      0x00\n        /* \"#utility.yul\":13549:13567   */\n      0xffffffffffffffff\n        /* \"#utility.yul\":13541:13547   */\n      dup3\n        /* \"#utility.yul\":13538:13568   */\n      gt\n        /* \"#utility.yul\":13535:13591   */\n      iszero\n      tag_277\n      jumpi\n        /* \"#utility.yul\":13571:13589   */\n      tag_278\n      tag_269\n      jump\t// in\n    tag_278:\n        /* \"#utility.yul\":13535:13591   */\n    tag_277:\n        /* \"#utility.yul\":13621:13625   */\n      0x20\n        /* \"#utility.yul\":13613:13619   */\n      dup3\n        /* \"#utility.yul\":13609:13626   */\n      mul\n        /* \"#utility.yul\":13601:13626   */\n      swap1\n      pop\n        /* \"#utility.yul\":13681:13685   */\n      0x20\n        /* \"#utility.yul\":13675:13679   */\n      dup2\n        /* \"#utility.yul\":13671:13686   */\n      add\n        /* \"#utility.yul\":13663:13686   */\n      swap1\n      pop\n        /* \"#utility.yul\":13383:13693   */\n      swap2\n      swap1\n      pop\n      jump\t// out\n        /* \"#utility.yul\":13699:14007   */\n    tag_155:\n        /* \"#utility.yul\":13761:13765   */\n      0x00\n        /* \"#utility.yul\":13851:13869   */\n      0xffffffffffffffff\n        /* \"#utility.yul\":13843:13849   */\n      dup3\n        /* \"#utility.yul\":13840:13870   */\n      gt\n        /* \"#utility.yul\":13837:13893   */\n      iszero\n      tag_280\n      jumpi\n        /* \"#utility.yul\":13873:13891   */\n      tag_281\n      tag_269\n      jump\t// in\n    tag_281:\n        /* \"#utility.yul\":13837:13893   */\n    tag_280:\n        /* \"#utility.yul\":13911:13940   */\n      tag_282\n        /* \"#utility.yul\":13933:13939   */\n      dup3\n        /* \"#utility.yul\":13911:13940   */\n      tag_283\n      jump\t// in\n    tag_282:\n        /* \"#utility.yul\":13903:13940   */\n      swap1\n      pop\n        /* \"#utility.yul\":13995:13999   */\n      0x20\n        /* \"#utility.yul\":13989:13993   */\n      dup2\n        /* \"#utility.yul\":13985:14000   */\n      add\n        /* \"#utility.yul\":13977:14000   */\n      swap1\n      pop\n        /* \"#utility.yul\":13699:14007   */\n      swap2\n      swap1\n      pop\n      jump\t// out\n        /* \"#utility.yul\":14013:14182   */\n    tag_244:\n        /* \"#utility.yul\":14097:14108   */\n      0x00\n        /* \"#utility.yul\":14131:14137   */\n      dup3\n        /* \"#utility.yul\":14126:14129   */\n      dup3\n        /* \"#utility.yul\":14119:14138   */\n      mstore\n        /* \"#utility.yul\":14171:14175   */\n      0x20\n        /* \"#utility.yul\":14166:14169   */\n      dup3\n        /* \"#utility.yul\":14162:14176   */\n      add\n        /* \"#utility.yul\":14147:14176   */\n      swap1\n      pop\n        /* \"#utility.yul\":14013:14182   */\n      swap3\n      swap2\n      pop\n      pop\n      jump\t// out\n        /* \"#utility.yul\":14188:14284   */\n    tag_236:\n        /* \"#utility.yul\":14225:14232   */\n      0x00\n        /* \"#utility.yul\":14254:14278   */\n      tag_286\n        /* \"#utility.yul\":14272:14277   */\n      dup3\n        /* \"#utility.yul\":14254:14278   */\n      tag_287\n      jump\t// in\n    tag_286:\n        /* \"#utility.yul\":14243:14278   */\n      swap1\n      pop\n        /* \"#utility.yul\":14188:14284   */\n      swap2\n      swap1\n      pop\n      jump\t// out\n        /* \"#utility.yul\":14290:14380   */\n    tag_240:\n        /* \"#utility.yul\":14324:14331   */\n      0x00\n        /* \"#utility.yul\":14367:14372   */\n      dup2\n        /* \"#utility.yul\":14360:14373   */\n      iszero\n        /* \"#utility.yul\":14353:14374   */\n      iszero\n        /* \"#utility.yul\":14342:14374   */\n      swap1\n      pop\n        /* \"#utility.yul\":14290:14380   */\n      swap2\n      swap1\n      pop\n      jump\t// out\n        /* \"#utility.yul\":14386:14463   */\n    tag_289:\n        /* \"#utility.yul\":14423:14430   */\n      0x00\n        /* \"#utility.yul\":14452:14457   */\n      dup2\n        /* \"#utility.yul\":14441:14457   */\n      swap1\n      pop\n        /* \"#utility.yul\":14386:14463   */\n      swap2\n      swap1\n      pop\n      jump\t// out\n        /* \"#utility.yul\":14469:14558   */\n    tag_291:\n        /* \"#utility.yul\":14505:14512   */\n      0x00\n        /* \"#utility.yul\":14545:14551   */\n      0xffff\n        /* \"#utility.yul\":14538:14543   */\n      dup3\n        /* \"#utility.yul\":14534:14552   */\n      and\n        /* \"#utility.yul\":14523:14552   */\n      swap1\n      pop\n        /* \"#utility.yul\":14469:14558   */\n      swap2\n      swap1\n      pop\n      jump\t// out\n        /* \"#utility.yul\":14564:14690   */\n    tag_287:\n        /* \"#utility.yul\":14601:14608   */\n      0x00\n        /* \"#utility.yul\":14641:14683   */\n      0xffffffffffffffffffffffffffffffffffffffff\n        /* \"#utility.yul\":14634:14639   */\n      dup3\n        /* \"#utility.yul\":14630:14684   */\n      and\n        /* \"#utility.yul\":14619:14684   */\n      swap1\n      pop\n        /* \"#utility.yul\":14564:14690   */\n      swap2\n      swap1\n      pop\n      jump\t// out\n        /* \"#utility.yul\":14696:14773   */\n    tag_294:\n        /* \"#utility.yul\":14733:14740   */\n      0x00\n        /* \"#utility.yul\":14762:14767   */\n      dup2\n        /* \"#utility.yul\":14751:14767   */\n      swap1\n      pop\n        /* \"#utility.yul\":14696:14773   */\n      swap2\n      swap1\n      pop\n      jump\t// out\n        /* \"#utility.yul\":14779:14933   */\n    tag_160:\n        /* \"#utility.yul\":14863:14869   */\n      dup3\n        /* \"#utility.yul\":14858:14861   */\n      dup2\n        /* \"#utility.yul\":14853:14856   */\n      dup4\n        /* \"#utility.yul\":14840:14870   */\n      calldatacopy\n        /* \"#utility.yul\":14925:14926   */\n      0x00\n        /* \"#utility.yul\":14916:14922   */\n      dup4\n        /* \"#utility.yul\":14911:14914   */\n      dup4\n        /* \"#utility.yul\":14907:14923   */\n      add\n        /* \"#utility.yul\":14900:14927   */\n      mstore\n        /* \"#utility.yul\":14779:14933   */\n      pop\n      pop\n      pop\n      jump\t// out\n        /* \"#utility.yul\":14939:15259   */\n    tag_81:\n        /* \"#utility.yul\":14983:14989   */\n      0x00\n        /* \"#utility.yul\":15020:15021   */\n      0x02\n        /* \"#utility.yul\":15014:15018   */\n      dup3\n        /* \"#utility.yul\":15010:15022   */\n      div\n        /* \"#utility.yul\":15000:15022   */\n      swap1\n      pop\n        /* \"#utility.yul\":15067:15068   */\n      0x01\n        /* \"#utility.yul\":15061:15065   */\n      dup3\n        /* \"#utility.yul\":15057:15069   */\n      and\n        /* \"#utility.yul\":15088:15106   */\n      dup1\n        /* \"#utility.yul\":15078:15159   */\n      tag_298\n      jumpi\n        /* \"#utility.yul\":15144:15148   */\n      0x7f\n        /* \"#utility.yul\":15136:15142   */\n      dup3\n        /* \"#utility.yul\":15132:15149   */\n      and\n        /* \"#utility.yul\":15122:15149   */\n      swap2\n      pop\n        /* \"#utility.yul\":15078:15159   */\n    tag_298:\n        /* \"#utility.yul\":15206:15208   */\n      0x20\n        /* \"#utility.yul\":15198:15204   */\n      dup3\n        /* \"#utility.yul\":15195:15209   */\n      lt\n        /* \"#utility.yul\":15175:15193   */\n      dup2\n        /* \"#utility.yul\":15172:15210   */\n      eq\n        /* \"#utility.yul\":15169:15253   */\n      iszero\n      tag_299\n      jumpi\n        /* \"#utility.yul\":15225:15243   */\n      tag_300\n      tag_301\n      jump\t// in\n    tag_300:\n        /* \"#utility.yul\":15169:15253   */\n    tag_299:\n        /* \"#utility.yul\":14990:15259   */\n      pop\n        /* \"#utility.yul\":14939:15259   */\n      swap2\n      swap1\n      pop\n      jump\t// out\n        /* \"#utility.yul\":15265:15546   */\n    tag_264:\n        /* \"#utility.yul\":15348:15375   */\n      tag_303\n        /* \"#utility.yul\":15370:15374   */\n      dup3\n        /* \"#utility.yul\":15348:15375   */\n      tag_283\n      jump\t// in\n    tag_303:\n        /* \"#utility.yul\":15340:15346   */\n      dup2\n        /* \"#utility.yul\":15336:15376   */\n      add\n        /* \"#utility.yul\":15478:15484   */\n      dup2\n        /* \"#utility.yul\":15466:15476   */\n      dup2\n        /* \"#utility.yul\":15463:15485   */\n      lt\n        /* \"#utility.yul\":15442:15460   */\n      0xffffffffffffffff\n        /* \"#utility.yul\":15430:15440   */\n      dup3\n        /* \"#utility.yul\":15427:15461   */\n      gt\n        /* \"#utility.yul\":15424:15486   */\n      or\n        /* \"#utility.yul\":15421:15509   */\n      iszero\n      tag_304\n      jumpi\n        /* \"#utility.yul\":15489:15507   */\n      tag_305\n      tag_269\n      jump\t// in\n    tag_305:\n        /* \"#utility.yul\":15421:15509   */\n    tag_304:\n        /* \"#utility.yul\":15529:15539   */\n      dup1\n        /* \"#utility.yul\":15525:15527   */\n      0x40\n        /* \"#utility.yul\":15518:15540   */\n      mstore\n        /* \"#utility.yul\":15308:15546   */\n      pop\n        /* \"#utility.yul\":15265:15546   */\n      pop\n      pop\n      jump\t// out\n        /* \"#utility.yul\":15552:15785   */\n    tag_51:\n        /* \"#utility.yul\":15591:15594   */\n      0x00\n        /* \"#utility.yul\":15614:15638   */\n      tag_307\n        /* \"#utility.yul\":15632:15637   */\n      dup3\n        /* \"#utility.yul\":15614:15638   */\n      tag_294\n      jump\t// in\n    tag_307:\n        /* \"#utility.yul\":15605:15638   */\n      swap2\n      pop\n        /* \"#utility.yul\":15660:15726   */\n      0xffffffffffffffffffffffffffffffffffffffffffffffffffffffffffffffff\n        /* \"#utility.yul\":15653:15658   */\n      dup3\n        /* \"#utility.yul\":15650:15727   */\n      eq\n        /* \"#utility.yul\":15647:15750   */\n      iszero\n      tag_308\n      jumpi\n        /* \"#utility.yul\":15730:15748   */\n      tag_309\n      tag_310\n      jump\t// in\n    tag_309:\n        /* \"#utility.yul\":15647:15750   */\n    tag_308:\n        /* \"#utility.yul\":15777:15778   */\n      0x01\n        /* \"#utility.yul\":15770:15775   */\n      dup3\n        /* \"#utility.yul\":15766:15779   */\n      add\n        /* \"#utility.yul\":15759:15779   */\n      swap1\n      pop\n        /* \"#utility.yul\":15552:15785   */\n      swap2\n      swap1\n      pop\n      jump\t// out\n        /* \"#utility.yul\":15791:15971   */\n    tag_310:\n        /* \"#utility.yul\":15839:15916   */\n      0x4e487b7100000000000000000000000000000000000000000000000000000000\n        /* \"#utility.yul\":15836:15837   */\n      0x00\n        /* \"#utility.yul\":15829:15917   */\n      mstore\n        /* \"#utility.yul\":15936:15940   */\n      0x11\n        /* \"#utility.yul\":15933:15934   */\n      0x04\n        /* \"#utility.yul\":15926:15941   */\n      mstore\n        /* \"#utility.yul\":15960:15964   */\n      0x24\n        /* \"#utility.yul\":15957:15958   */\n      0x00\n        /* \"#utility.yul\":15950:15965   */\n      revert\n        /* \"#utility.yul\":15977:16157   */\n    tag_301:\n        /* \"#utility.yul\":16025:16102   */\n      0x4e487b7100000000000000000000000000000000000000000000000000000000\n        /* \"#utility.yul\":16022:16023   */\n      0x00\n        /* \"#utility.yul\":16015:16103   */\n      mstore\n        /* \"#utility.yul\":16122:16126   */\n      0x22\n        /* \"#utility.yul\":16119:16120   */\n      0x04\n        /* \"#utility.yul\":16112:16127   */\n      mstore\n        /* \"#utility.yul\":16146:16150   */\n      0x24\n        /* \"#utility.yul\":16143:16144   */\n      0x00\n        /* \"#utility.yul\":16136:16151   */\n      revert\n        /* \"#utility.yul\":16163:16343   */\n    tag_43:\n        /* \"#utility.yul\":16211:16288   */\n      0x4e487b7100000000000000000000000000000000000000000000000000000000\n        /* \"#utility.yul\":16208:16209   */\n      0x00\n        /* \"#utility.yul\":16201:16289   */\n      mstore\n        /* \"#utility.yul\":16308:16312   */\n      0x32\n        /* \"#utility.yul\":16305:16306   */\n      0x04\n        /* \"#utility.yul\":16298:16313   */\n      mstore\n        /* \"#utility.yul\":16332:16336   */\n      0x24\n        /* \"#utility.yul\":16329:16330   */\n      0x00\n        /* \"#utility.yul\":16322:16337   */\n      revert\n        /* \"#utility.yul\":16349:16529   */\n    tag_269:\n        /* \"#utility.yul\":16397:16474   */\n      0x4e487b7100000000000000000000000000000000000000000000000000000000\n        /* \"#utility.yul\":16394:16395   */\n      0x00\n        /* \"#utility.yul\":16387:16475   */\n      mstore\n        /* \"#utility.yul\":16494:16498   */\n      0x41\n        /* \"#utility.yul\":16491:16492   */\n      0x04\n        /* \"#utility.yul\":16484:16499   */\n      mstore\n        /* \"#utility.yul\":16518:16522   */\n      0x24\n        /* \"#utility.yul\":16515:16516   */\n      0x00\n        /* \"#utility.yul\":16508:16523   */\n      revert\n        /* \"#utility.yul\":16535:16652   */\n    tag_122:\n        /* \"#utility.yul\":16644:16645   */\n      0x00\n        /* \"#utility.yul\":16641:16642   */\n      dup1\n        /* \"#utility.yul\":16634:16646   */\n      revert\n        /* \"#utility.yul\":16658:16775   */\n    tag_195:\n        /* \"#utility.yul\":16767:16768   */\n      0x00\n        /* \"#utility.yul\":16764:16765   */\n      dup1\n        /* \"#utility.yul\":16757:16769   */\n      revert\n        /* \"#utility.yul\":16781:16898   */\n    tag_200:\n        /* \"#utility.yul\":16890:16891   */\n      0x00\n        /* \"#utility.yul\":16887:16888   */\n      dup1\n        /* \"#utility.yul\":16880:16892   */\n      revert\n        /* \"#utility.yul\":16904:17021   */\n    tag_104:\n        /* \"#utility.yul\":17013:17014   */\n      0x00\n        /* \"#utility.yul\":17010:17011   */\n      dup1\n        /* \"#utility.yul\":17003:17015   */\n      revert\n        /* \"#utility.yul\":17027:17144   */\n    tag_158:\n        /* \"#utility.yul\":17136:17137   */\n      0x00\n        /* \"#utility.yul\":17133:17134   */\n      dup1\n        /* \"#utility.yul\":17126:17138   */\n      revert\n        /* \"#utility.yul\":17150:17267   */\n    tag_223:\n        /* \"#utility.yul\":17259:17260   */\n      0x00\n        /* \"#utility.yul\":17256:17257   */\n      dup1\n        /* \"#utility.yul\":17249:17261   */\n      revert\n        /* \"#utility.yul\":17273:17390   */\n    tag_215:\n        /* \"#utility.yul\":17382:17383   */\n      0x00\n        /* \"#utility.yul\":17379:17380   */\n      dup1\n        /* \"#utility.yul\":17372:17384   */\n      revert\n        /* \"#utility.yul\":17396:17498   */\n    tag_283:\n        /* \"#utility.yul\":17437:17443   */\n      0x00\n        /* \"#utility.yul\":17488:17490   */\n      0x1f\n        /* \"#utility.yul\":17484:17491   */\n      not\n        /* \"#utility.yul\":17479:17481   */\n      0x1f\n        /* \"#utility.yul\":17472:17477   */\n      dup4\n        /* \"#utility.yul\":17468:17482   */\n      add\n        /* \"#utility.yul\":17464:17492   */\n      and\n        /* \"#utility.yul\":17454:17492   */\n      swap1\n      pop\n        /* \"#utility.yul\":17396:17498   */\n      swap2\n      swap1\n      pop\n      jump\t// out\n        /* \"#utility.yul\":17504:17729   */\n    tag_246:\n        /* \"#utility.yul\":17644:17678   */\n      0x4f776e61626c653a206e6577206f776e657220697320746865207a65726f2061\n        /* \"#utility.yul\":17640:17641   */\n      0x00\n        /* \"#utility.yul\":17632:17638   */\n      dup3\n        /* \"#utility.yul\":17628:17642   */\n      add\n        /* \"#utility.yul\":17621:17679   */\n      mstore\n        /* \"#utility.yul\":17713:17721   */\n      0x6464726573730000000000000000000000000000000000000000000000000000\n        /* \"#utility.yul\":17708:17710   */\n      0x20\n        /* \"#utility.yul\":17700:17706   */\n      dup3\n        /* \"#utility.yul\":17696:17711   */\n      add\n        /* \"#utility.yul\":17689:17722   */\n      mstore\n        /* \"#utility.yul\":17504:17729   */\n      pop\n      jump\t// out\n        /* \"#utility.yul\":17735:17917   */\n    tag_251:\n        /* \"#utility.yul\":17875:17909   */\n      0x4f776e61626c653a2063616c6c6572206973206e6f7420746865206f776e6572\n        /* \"#utility.yul\":17871:17872   */\n      0x00\n        /* \"#utility.yul\":17863:17869   */\n      dup3\n        /* \"#utility.yul\":17859:17873   */\n      add\n        /* \"#utility.yul\":17852:17910   */\n      mstore\n        /* \"#utility.yul\":17735:17917   */\n      pop\n      jump\t// out\n        /* \"#utility.yul\":17923:18045   */\n    tag_163:\n        /* \"#utility.yul\":17996:18020   */\n      tag_326\n        /* \"#utility.yul\":18014:18019   */\n      dup2\n        /* \"#utility.yul\":17996:18020   */\n      tag_236\n      jump\t// in\n    tag_326:\n        /* \"#utility.yul\":17989:17994   */\n      dup2\n        /* \"#utility.yul\":17986:18021   */\n      eq\n        /* \"#utility.yul\":17976:18039   */\n      tag_327\n      jumpi\n        /* \"#utility.yul\":18035:18036   */\n      0x00\n        /* \"#utility.yul\":18032:18033   */\n      dup1\n        /* \"#utility.yul\":18025:18037   */\n      revert\n        /* \"#utility.yul\":17976:18039   */\n    tag_327:\n        /* \"#utility.yul\":17923:18045   */\n      pop\n      jump\t// out\n        /* \"#utility.yul\":18051:18173   */\n    tag_186:\n        /* \"#utility.yul\":18124:18148   */\n      tag_329\n        /* \"#utility.yul\":18142:18147   */\n      dup2\n        /* \"#utility.yul\":18124:18148   */\n      tag_289\n      jump\t// in\n    tag_329:\n        /* \"#utility.yul\":18117:18122   */\n      dup2\n        /* \"#utility.yul\":18114:18149   */\n      eq\n        /* \"#utility.yul\":18104:18167   */\n      tag_330\n      jumpi\n        /* \"#utility.yul\":18163:18164   */\n      0x00\n        /* \"#utility.yul\":18160:18161   */\n      dup1\n        /* \"#utility.yul\":18153:18165   */\n      revert\n        /* \"#utility.yul\":18104:18167   */\n    tag_330:\n        /* \"#utility.yul\":18051:18173   */\n      pop\n      jump\t// out\n        /* \"#utility.yul\":18179:18299   */\n    tag_207:\n        /* \"#utility.yul\":18251:18274   */\n      tag_332\n        /* \"#utility.yul\":18268:18273   */\n      dup2\n        /* \"#utility.yul\":18251:18274   */\n      tag_291\n      jump\t// in\n    tag_332:\n        /* \"#utility.yul\":18244:18249   */\n      dup2\n        /* \"#utility.yul\":18241:18275   */\n      eq\n        /* \"#utility.yul\":18231:18293   */\n      tag_333\n      jumpi\n        /* \"#utility.yul\":18289:18290   */\n      0x00\n        /* \"#utility.yul\":18286:18287   */\n      dup1\n        /* \"#utility.yul\":18279:18291   */\n      revert\n        /* \"#utility.yul\":18231:18293   */\n    tag_333:\n        /* \"#utility.yul\":18179:18299   */\n      pop\n      jump\t// out\n        /* \"#utility.yul\":18305:18427   */\n    tag_211:\n        /* \"#utility.yul\":18378:18402   */\n      tag_335\n        /* \"#utility.yul\":18396:18401   */\n      dup2\n        /* \"#utility.yul\":18378:18402   */\n      tag_294\n      jump\t// in\n    tag_335:\n        /* \"#utility.yul\":18371:18376   */\n      dup2\n        /* \"#utility.yul\":18368:18403   */\n      eq\n        /* \"#utility.yul\":18358:18421   */\n      tag_336\n      jumpi\n        /* \"#utility.yul\":18417:18418   */\n      0x00\n        /* \"#utility.yul\":18414:18415   */\n      dup1\n        /* \"#utility.yul\":18407:18419   */\n      revert\n        /* \"#utility.yul\":18358:18421   */\n    tag_336:\n        /* \"#utility.yul\":18305:18427   */\n      pop\n      jump\t// out\n\n    auxdata: 0xa26469706673582212202ad46d35fc7d1420e70868f34feac30213c921dc8377dbbfa7e7a1e64e2fdd0f64736f6c63430008070033\n}\n",
				"bytecode": {
					"linkReferences": {},
					"object": "608060405234801561001057600080fd5b5061002d61002261003a60201b60201c565b61004260201b60201c565b6000600181905550610106565b600033905090565b60008060009054906101000a900473ffffffffffffffffffffffffffffffffffffffff169050816000806101000a81548173ffffffffffffffffffffffffffffffffffffffff021916908373ffffffffffffffffffffffffffffffffffffffff1602179055508173ffffffffffffffffffffffffffffffffffffffff168173ffffffffffffffffffffffffffffffffffffffff167f8be0079c531659141344cd1fd0a4f28419497f9722a3daafe3b4186f6b6457e060405160405180910390a35050565b611109806101156000396000f3fe608060405234801561001057600080fd5b506004361061004c5760003560e01c8063715018a6146100515780638da5cb5b1461005b578063f2fde38b14610079578063faee045514610095575b600080fd5b6100596100c5565b005b6100636100d9565b6040516100709190610c67565b60405180910390f35b610093600480360381019061008e9190610af5565b610102565b005b6100af60048036038101906100aa9190610b22565b610186565b6040516100bc9190610c82565b60405180910390f35b6100cd61046a565b6100d760006104e8565b565b60008060009054906101000a900473ffffffffffffffffffffffffffffffffffffffff16905090565b61010a61046a565b600073ffffffffffffffffffffffffffffffffffffffff168173ffffffffffffffffffffffffffffffffffffffff16141561017a576040517f08c379a000000000000000000000000000000000000000000000000000000000815260040161017190610c9d565b60405180910390fd5b610183816104e8565b50565b600080600260006001548152602001908152602001600020905087816000018190555060005b848110156102c5578581815181106101c7576101c6610f6d565b5b60200260200101518260020160008884815181106101e8576101e7610f6d565b5b60200260200101516000015173ffffffffffffffffffffffffffffffffffffffff1673ffffffffffffffffffffffffffffffffffffffff16815260200190815260200160002060008201518160000160006101000a81548173ffffffffffffffffffffffffffffffffffffffff021916908373ffffffffffffffffffffffffffffffffffffffff16021790555060208201518160010190805190602001906102919291906105b4565b5060408201518160020190805190602001906102ae92919061063a565b5090505080806102bd90610ec6565b9150506101ac565b5060005b8381101561041b5760005b848110156104075760018883815181106102f1576102f0610f6d565b5b6020026020010151828151811061030b5761030a610f6d565b5b602002602001015161ffff1614156103f4578260010160008a848151811061033657610335610f6d565b5b602002602001015173ffffffffffffffffffffffffffffffffffffffff1673ffffffffffffffffffffffffffffffffffffffff16815260200190815260200160002089828151811061038b5761038a610f6d565b5b60200260200101519080600181540180825580915050600190039060005260206000200160009091909190916101000a81548173ffffffffffffffffffffffffffffffffffffffff021916908373ffffffffffffffffffffffffffffffffffffffff1602179055505b80806103ff90610ec6565b9150506102d4565b50808061041390610ec6565b9150506102c9565b5060008160040160006101000a81548160ff021916908315150217905550600081600301819055506001600081548092919061045690610ec6565b919050555060019150509695505050505050565b6104726105ac565b73ffffffffffffffffffffffffffffffffffffffff166104906100d9565b73ffffffffffffffffffffffffffffffffffffffff16146104e6576040517f08c379a00000000000000000000000000000000000000000000000000000000081526004016104dd90610cbd565b60405180910390fd5b565b60008060009054906101000a900473ffffffffffffffffffffffffffffffffffffffff169050816000806101000a81548173ffffffffffffffffffffffffffffffffffffffff021916908373ffffffffffffffffffffffffffffffffffffffff1602179055508173ffffffffffffffffffffffffffffffffffffffff168173ffffffffffffffffffffffffffffffffffffffff167f8be0079c531659141344cd1fd0a4f28419497f9722a3daafe3b4186f6b6457e060405160405180910390a35050565b600033905090565b8280546105c090610e63565b90600052602060002090601f0160209004810192826105e25760008555610629565b82601f106105fb57805160ff1916838001178555610629565b82800160010185558215610629579182015b8281111561062857825182559160200191906001019061060d565b5b50905061063691906106c4565b5090565b8280548282559060005260206000209081019282156106b3579160200282015b828111156106b25782518260006101000a81548173ffffffffffffffffffffffffffffffffffffffff021916908373ffffffffffffffffffffffffffffffffffffffff1602179055509160200191906001019061065a565b5b5090506106c091906106c4565b5090565b5b808211156106dd5760008160009055506001016106c5565b5090565b60006106f46106ef84610d02565b610cdd565b9050808382526020820190508285602086028201111561071757610716610fda565b5b60005b85811015610747578161072d888261091f565b84526020840193506020830192505060018101905061071a565b5050509392505050565b600061076461075f84610d2e565b610cdd565b9050808382526020820190508285602086028201111561078757610786610fda565b5b60005b858110156107d557813567ffffffffffffffff8111156107ad576107ac610fcb565b5b8086016107ba89826109be565b8552602085019450602084019350505060018101905061078a565b5050509392505050565b60006107f26107ed84610d5a565b610cdd565b9050808382526020820190508285602086028201111561081557610814610fda565b5b60005b8581101561086357813567ffffffffffffffff81111561083b5761083a610fcb565b5b8086016108488982610a2f565b85526020850194506020840193505050600181019050610818565b5050509392505050565b600061088061087b84610d86565b610cdd565b905080838252602082019050828560208602820111156108a3576108a2610fda565b5b60005b858110156108d357816108b98882610acb565b8452602084019350602083019250506001810190506108a6565b5050509392505050565b60006108f06108eb84610db2565b610cdd565b90508281526020810184848401111561090c5761090b610fdf565b5b610917848285610e54565b509392505050565b60008135905061092e81611077565b92915050565b600082601f83011261094957610948610fcb565b5b81356109598482602086016106e1565b91505092915050565b600082601f83011261097757610976610fcb565b5b8135610987848260208601610751565b91505092915050565b600082601f8301126109a5576109a4610fcb565b5b81356109b58482602086016107df565b91505092915050565b600082601f8301126109d3576109d2610fcb565b5b81356109e384826020860161086d565b91505092915050565b6000813590506109fb8161108e565b92915050565b600082601f830112610a1657610a15610fcb565b5b8135610a268482602086016108dd565b91505092915050565b600060608284031215610a4557610a44610fd0565b5b610a4f6060610cdd565b90506000610a5f8482850161091f565b600083015250602082013567ffffffffffffffff811115610a8357610a82610fd5565b5b610a8f84828501610a01565b602083015250604082013567ffffffffffffffff811115610ab357610ab2610fd5565b5b610abf84828501610934565b60408301525092915050565b600081359050610ada816110a5565b92915050565b600081359050610aef816110bc565b92915050565b600060208284031215610b0b57610b0a610fe9565b5b6000610b198482850161091f565b91505092915050565b60008060008060008060c08789031215610b3f57610b3e610fe9565b5b6000610b4d89828a016109ec565b965050602087013567ffffffffffffffff811115610b6e57610b6d610fe4565b5b610b7a89828a01610934565b955050604087013567ffffffffffffffff811115610b9b57610b9a610fe4565b5b610ba789828a01610962565b945050606087013567ffffffffffffffff811115610bc857610bc7610fe4565b5b610bd489828a01610990565b9350506080610be589828a01610ae0565b92505060a0610bf689828a01610ae0565b9150509295509295509295565b610c0c81610df4565b82525050565b610c1b81610e06565b82525050565b6000610c2e602683610de3565b9150610c3982610fff565b604082019050919050565b6000610c51602083610de3565b9150610c5c8261104e565b602082019050919050565b6000602082019050610c7c6000830184610c03565b92915050565b6000602082019050610c976000830184610c12565b92915050565b60006020820190508181036000830152610cb681610c21565b9050919050565b60006020820190508181036000830152610cd681610c44565b9050919050565b6000610ce7610cf8565b9050610cf38282610e95565b919050565b6000604051905090565b600067ffffffffffffffff821115610d1d57610d1c610f9c565b5b602082029050602081019050919050565b600067ffffffffffffffff821115610d4957610d48610f9c565b5b602082029050602081019050919050565b600067ffffffffffffffff821115610d7557610d74610f9c565b5b602082029050602081019050919050565b600067ffffffffffffffff821115610da157610da0610f9c565b5b602082029050602081019050919050565b600067ffffffffffffffff821115610dcd57610dcc610f9c565b5b610dd682610fee565b9050602081019050919050565b600082825260208201905092915050565b6000610dff82610e2a565b9050919050565b60008115159050919050565b6000819050919050565b600061ffff82169050919050565b600073ffffffffffffffffffffffffffffffffffffffff82169050919050565b6000819050919050565b82818337600083830152505050565b60006002820490506001821680610e7b57607f821691505b60208210811415610e8f57610e8e610f3e565b5b50919050565b610e9e82610fee565b810181811067ffffffffffffffff82111715610ebd57610ebc610f9c565b5b80604052505050565b6000610ed182610e4a565b91507fffffffffffffffffffffffffffffffffffffffffffffffffffffffffffffffff821415610f0457610f03610f0f565b5b600182019050919050565b7f4e487b7100000000000000000000000000000000000000000000000000000000600052601160045260246000fd5b7f4e487b7100000000000000000000000000000000000000000000000000000000600052602260045260246000fd5b7f4e487b7100000000000000000000000000000000000000000000000000000000600052603260045260246000fd5b7f4e487b7100000000000000000000000000000000000000000000000000000000600052604160045260246000fd5b600080fd5b600080fd5b600080fd5b600080fd5b600080fd5b600080fd5b600080fd5b6000601f19601f8301169050919050565b7f4f776e61626c653a206e6577206f776e657220697320746865207a65726f206160008201527f6464726573730000000000000000000000000000000000000000000000000000602082015250565b7f4f776e61626c653a2063616c6c6572206973206e6f7420746865206f776e6572600082015250565b61108081610df4565b811461108b57600080fd5b50565b61109781610e12565b81146110a257600080fd5b50565b6110ae81610e1c565b81146110b957600080fd5b50565b6110c581610e4a565b81146110d057600080fd5b5056fea26469706673582212202ad46d35fc7d1420e70868f34feac30213c921dc8377dbbfa7e7a1e64e2fdd0f64736f6c63430008070033",
					"opcodes": "PUSH1 0x80 PUSH1 0x40 MSTORE CALLVALUE DUP1 ISZERO PUSH2 0x10 JUMPI PUSH1 0x0 DUP1 REVERT JUMPDEST POP PUSH2 0x2D PUSH2 0x22 PUSH2 0x3A PUSH1 0x20 SHL PUSH1 0x20 SHR JUMP JUMPDEST PUSH2 0x42 PUSH1 0x20 SHL PUSH1 0x20 SHR JUMP JUMPDEST PUSH1 0x0 PUSH1 0x1 DUP2 SWAP1 SSTORE POP PUSH2 0x106 JUMP JUMPDEST PUSH1 0x0 CALLER SWAP1 POP SWAP1 JUMP JUMPDEST PUSH1 0x0 DUP1 PUSH1 0x0 SWAP1 SLOAD SWAP1 PUSH2 0x100 EXP SWAP1 DIV PUSH20 0xFFFFFFFFFFFFFFFFFFFFFFFFFFFFFFFFFFFFFFFF AND SWAP1 POP DUP2 PUSH1 0x0 DUP1 PUSH2 0x100 EXP DUP2 SLOAD DUP2 PUSH20 0xFFFFFFFFFFFFFFFFFFFFFFFFFFFFFFFFFFFFFFFF MUL NOT AND SWAP1 DUP4 PUSH20 0xFFFFFFFFFFFFFFFFFFFFFFFFFFFFFFFFFFFFFFFF AND MUL OR SWAP1 SSTORE POP DUP2 PUSH20 0xFFFFFFFFFFFFFFFFFFFFFFFFFFFFFFFFFFFFFFFF AND DUP2 PUSH20 0xFFFFFFFFFFFFFFFFFFFFFFFFFFFFFFFFFFFFFFFF AND PUSH32 0x8BE0079C531659141344CD1FD0A4F28419497F9722A3DAAFE3B4186F6B6457E0 PUSH1 0x40 MLOAD PUSH1 0x40 MLOAD DUP1 SWAP2 SUB SWAP1 LOG3 POP POP JUMP JUMPDEST PUSH2 0x1109 DUP1 PUSH2 0x115 PUSH1 0x0 CODECOPY PUSH1 0x0 RETURN INVALID PUSH1 0x80 PUSH1 0x40 MSTORE CALLVALUE DUP1 ISZERO PUSH2 0x10 JUMPI PUSH1 0x0 DUP1 REVERT JUMPDEST POP PUSH1 0x4 CALLDATASIZE LT PUSH2 0x4C JUMPI PUSH1 0x0 CALLDATALOAD PUSH1 0xE0 SHR DUP1 PUSH4 0x715018A6 EQ PUSH2 0x51 JUMPI DUP1 PUSH4 0x8DA5CB5B EQ PUSH2 0x5B JUMPI DUP1 PUSH4 0xF2FDE38B EQ PUSH2 0x79 JUMPI DUP1 PUSH4 0xFAEE0455 EQ PUSH2 0x95 JUMPI JUMPDEST PUSH1 0x0 DUP1 REVERT JUMPDEST PUSH2 0x59 PUSH2 0xC5 JUMP JUMPDEST STOP JUMPDEST PUSH2 0x63 PUSH2 0xD9 JUMP JUMPDEST PUSH1 0x40 MLOAD PUSH2 0x70 SWAP2 SWAP1 PUSH2 0xC67 JUMP JUMPDEST PUSH1 0x40 MLOAD DUP1 SWAP2 SUB SWAP1 RETURN JUMPDEST PUSH2 0x93 PUSH1 0x4 DUP1 CALLDATASIZE SUB DUP2 ADD SWAP1 PUSH2 0x8E SWAP2 SWAP1 PUSH2 0xAF5 JUMP JUMPDEST PUSH2 0x102 JUMP JUMPDEST STOP JUMPDEST PUSH2 0xAF PUSH1 0x4 DUP1 CALLDATASIZE SUB DUP2 ADD SWAP1 PUSH2 0xAA SWAP2 SWAP1 PUSH2 0xB22 JUMP JUMPDEST PUSH2 0x186 JUMP JUMPDEST PUSH1 0x40 MLOAD PUSH2 0xBC SWAP2 SWAP1 PUSH2 0xC82 JUMP JUMPDEST PUSH1 0x40 MLOAD DUP1 SWAP2 SUB SWAP1 RETURN JUMPDEST PUSH2 0xCD PUSH2 0x46A JUMP JUMPDEST PUSH2 0xD7 PUSH1 0x0 PUSH2 0x4E8 JUMP JUMPDEST JUMP JUMPDEST PUSH1 0x0 DUP1 PUSH1 0x0 SWAP1 SLOAD SWAP1 PUSH2 0x100 EXP SWAP1 DIV PUSH20 0xFFFFFFFFFFFFFFFFFFFFFFFFFFFFFFFFFFFFFFFF AND SWAP1 POP SWAP1 JUMP JUMPDEST PUSH2 0x10A PUSH2 0x46A JUMP JUMPDEST PUSH1 0x0 PUSH20 0xFFFFFFFFFFFFFFFFFFFFFFFFFFFFFFFFFFFFFFFF AND DUP2 PUSH20 0xFFFFFFFFFFFFFFFFFFFFFFFFFFFFFFFFFFFFFFFF AND EQ ISZERO PUSH2 0x17A JUMPI PUSH1 0x40 MLOAD PUSH32 0x8C379A000000000000000000000000000000000000000000000000000000000 DUP2 MSTORE PUSH1 0x4 ADD PUSH2 0x171 SWAP1 PUSH2 0xC9D JUMP JUMPDEST PUSH1 0x40 MLOAD DUP1 SWAP2 SUB SWAP1 REVERT JUMPDEST PUSH2 0x183 DUP2 PUSH2 0x4E8 JUMP JUMPDEST POP JUMP JUMPDEST PUSH1 0x0 DUP1 PUSH1 0x2 PUSH1 0x0 PUSH1 0x1 SLOAD DUP2 MSTORE PUSH1 0x20 ADD SWAP1 DUP2 MSTORE PUSH1 0x20 ADD PUSH1 0x0 KECCAK256 SWAP1 POP DUP8 DUP2 PUSH1 0x0 ADD DUP2 SWAP1 SSTORE POP PUSH1 0x0 JUMPDEST DUP5 DUP2 LT ISZERO PUSH2 0x2C5 JUMPI DUP6 DUP2 DUP2 MLOAD DUP2 LT PUSH2 0x1C7 JUMPI PUSH2 0x1C6 PUSH2 0xF6D JUMP JUMPDEST JUMPDEST PUSH1 0x20 MUL PUSH1 0x20 ADD ADD MLOAD DUP3 PUSH1 0x2 ADD PUSH1 0x0 DUP9 DUP5 DUP2 MLOAD DUP2 LT PUSH2 0x1E8 JUMPI PUSH2 0x1E7 PUSH2 0xF6D JUMP JUMPDEST JUMPDEST PUSH1 0x20 MUL PUSH1 0x20 ADD ADD MLOAD PUSH1 0x0 ADD MLOAD PUSH20 0xFFFFFFFFFFFFFFFFFFFFFFFFFFFFFFFFFFFFFFFF AND PUSH20 0xFFFFFFFFFFFFFFFFFFFFFFFFFFFFFFFFFFFFFFFF AND DUP2 MSTORE PUSH1 0x20 ADD SWAP1 DUP2 MSTORE PUSH1 0x20 ADD PUSH1 0x0 KECCAK256 PUSH1 0x0 DUP3 ADD MLOAD DUP2 PUSH1 0x0 ADD PUSH1 0x0 PUSH2 0x100 EXP DUP2 SLOAD DUP2 PUSH20 0xFFFFFFFFFFFFFFFFFFFFFFFFFFFFFFFFFFFFFFFF MUL NOT AND SWAP1 DUP4 PUSH20 0xFFFFFFFFFFFFFFFFFFFFFFFFFFFFFFFFFFFFFFFF AND MUL OR SWAP1 SSTORE POP PUSH1 0x20 DUP3 ADD MLOAD DUP2 PUSH1 0x1 ADD SWAP1 DUP1 MLOAD SWAP1 PUSH1 0x20 ADD SWAP1 PUSH2 0x291 SWAP3 SWAP2 SWAP1 PUSH2 0x5B4 JUMP JUMPDEST POP PUSH1 0x40 DUP3 ADD MLOAD DUP2 PUSH1 0x2 ADD SWAP1 DUP1 MLOAD SWAP1 PUSH1 0x20 ADD SWAP1 PUSH2 0x2AE SWAP3 SWAP2 SWAP1 PUSH2 0x63A JUMP JUMPDEST POP SWAP1 POP POP DUP1 DUP1 PUSH2 0x2BD SWAP1 PUSH2 0xEC6 JUMP JUMPDEST SWAP2 POP POP PUSH2 0x1AC JUMP JUMPDEST POP PUSH1 0x0 JUMPDEST DUP4 DUP2 LT ISZERO PUSH2 0x41B JUMPI PUSH1 0x0 JUMPDEST DUP5 DUP2 LT ISZERO PUSH2 0x407 JUMPI PUSH1 0x1 DUP9 DUP4 DUP2 MLOAD DUP2 LT PUSH2 0x2F1 JUMPI PUSH2 0x2F0 PUSH2 0xF6D JUMP JUMPDEST JUMPDEST PUSH1 0x20 MUL PUSH1 0x20 ADD ADD MLOAD DUP3 DUP2 MLOAD DUP2 LT PUSH2 0x30B JUMPI PUSH2 0x30A PUSH2 0xF6D JUMP JUMPDEST JUMPDEST PUSH1 0x20 MUL PUSH1 0x20 ADD ADD MLOAD PUSH2 0xFFFF AND EQ ISZERO PUSH2 0x3F4 JUMPI DUP3 PUSH1 0x1 ADD PUSH1 0x0 DUP11 DUP5 DUP2 MLOAD DUP2 LT PUSH2 0x336 JUMPI PUSH2 0x335 PUSH2 0xF6D JUMP JUMPDEST JUMPDEST PUSH1 0x20 MUL PUSH1 0x20 ADD ADD MLOAD PUSH20 0xFFFFFFFFFFFFFFFFFFFFFFFFFFFFFFFFFFFFFFFF AND PUSH20 0xFFFFFFFFFFFFFFFFFFFFFFFFFFFFFFFFFFFFFFFF AND DUP2 MSTORE PUSH1 0x20 ADD SWAP1 DUP2 MSTORE PUSH1 0x20 ADD PUSH1 0x0 KECCAK256 DUP10 DUP3 DUP2 MLOAD DUP2 LT PUSH2 0x38B JUMPI PUSH2 0x38A PUSH2 0xF6D JUMP JUMPDEST JUMPDEST PUSH1 0x20 MUL PUSH1 0x20 ADD ADD MLOAD SWAP1 DUP1 PUSH1 0x1 DUP2 SLOAD ADD DUP1 DUP3 SSTORE DUP1 SWAP2 POP POP PUSH1 0x1 SWAP1 SUB SWAP1 PUSH1 0x0 MSTORE PUSH1 0x20 PUSH1 0x0 KECCAK256 ADD PUSH1 0x0 SWAP1 SWAP2 SWAP1 SWAP2 SWAP1 SWAP2 PUSH2 0x100 EXP DUP2 SLOAD DUP2 PUSH20 0xFFFFFFFFFFFFFFFFFFFFFFFFFFFFFFFFFFFFFFFF MUL NOT AND SWAP1 DUP4 PUSH20 0xFFFFFFFFFFFFFFFFFFFFFFFFFFFFFFFFFFFFFFFF AND MUL OR SWAP1 SSTORE POP JUMPDEST DUP1 DUP1 PUSH2 0x3FF SWAP1 PUSH2 0xEC6 JUMP JUMPDEST SWAP2 POP POP PUSH2 0x2D4 JUMP JUMPDEST POP DUP1 DUP1 PUSH2 0x413 SWAP1 PUSH2 0xEC6 JUMP JUMPDEST SWAP2 POP POP PUSH2 0x2C9 JUMP JUMPDEST POP PUSH1 0x0 DUP2 PUSH1 0x4 ADD PUSH1 0x0 PUSH2 0x100 EXP DUP2 SLOAD DUP2 PUSH1 0xFF MUL NOT AND SWAP1 DUP4 ISZERO ISZERO MUL OR SWAP1 SSTORE POP PUSH1 0x0 DUP2 PUSH1 0x3 ADD DUP2 SWAP1 SSTORE POP PUSH1 0x1 PUSH1 0x0 DUP2 SLOAD DUP1 SWAP3 SWAP2 SWAP1 PUSH2 0x456 SWAP1 PUSH2 0xEC6 JUMP JUMPDEST SWAP2 SWAP1 POP SSTORE POP PUSH1 0x1 SWAP2 POP POP SWAP7 SWAP6 POP POP POP POP POP POP JUMP JUMPDEST PUSH2 0x472 PUSH2 0x5AC JUMP JUMPDEST PUSH20 0xFFFFFFFFFFFFFFFFFFFFFFFFFFFFFFFFFFFFFFFF AND PUSH2 0x490 PUSH2 0xD9 JUMP JUMPDEST PUSH20 0xFFFFFFFFFFFFFFFFFFFFFFFFFFFFFFFFFFFFFFFF AND EQ PUSH2 0x4E6 JUMPI PUSH1 0x40 MLOAD PUSH32 0x8C379A000000000000000000000000000000000000000000000000000000000 DUP2 MSTORE PUSH1 0x4 ADD PUSH2 0x4DD SWAP1 PUSH2 0xCBD JUMP JUMPDEST PUSH1 0x40 MLOAD DUP1 SWAP2 SUB SWAP1 REVERT JUMPDEST JUMP JUMPDEST PUSH1 0x0 DUP1 PUSH1 0x0 SWAP1 SLOAD SWAP1 PUSH2 0x100 EXP SWAP1 DIV PUSH20 0xFFFFFFFFFFFFFFFFFFFFFFFFFFFFFFFFFFFFFFFF AND SWAP1 POP DUP2 PUSH1 0x0 DUP1 PUSH2 0x100 EXP DUP2 SLOAD DUP2 PUSH20 0xFFFFFFFFFFFFFFFFFFFFFFFFFFFFFFFFFFFFFFFF MUL NOT AND SWAP1 DUP4 PUSH20 0xFFFFFFFFFFFFFFFFFFFFFFFFFFFFFFFFFFFFFFFF AND MUL OR SWAP1 SSTORE POP DUP2 PUSH20 0xFFFFFFFFFFFFFFFFFFFFFFFFFFFFFFFFFFFFFFFF AND DUP2 PUSH20 0xFFFFFFFFFFFFFFFFFFFFFFFFFFFFFFFFFFFFFFFF AND PUSH32 0x8BE0079C531659141344CD1FD0A4F28419497F9722A3DAAFE3B4186F6B6457E0 PUSH1 0x40 MLOAD PUSH1 0x40 MLOAD DUP1 SWAP2 SUB SWAP1 LOG3 POP POP JUMP JUMPDEST PUSH1 0x0 CALLER SWAP1 POP SWAP1 JUMP JUMPDEST DUP3 DUP1 SLOAD PUSH2 0x5C0 SWAP1 PUSH2 0xE63 JUMP JUMPDEST SWAP1 PUSH1 0x0 MSTORE PUSH1 0x20 PUSH1 0x0 KECCAK256 SWAP1 PUSH1 0x1F ADD PUSH1 0x20 SWAP1 DIV DUP2 ADD SWAP3 DUP3 PUSH2 0x5E2 JUMPI PUSH1 0x0 DUP6 SSTORE PUSH2 0x629 JUMP JUMPDEST DUP3 PUSH1 0x1F LT PUSH2 0x5FB JUMPI DUP1 MLOAD PUSH1 0xFF NOT AND DUP4 DUP1 ADD OR DUP6 SSTORE PUSH2 0x629 JUMP JUMPDEST DUP3 DUP1 ADD PUSH1 0x1 ADD DUP6 SSTORE DUP3 ISZERO PUSH2 0x629 JUMPI SWAP2 DUP3 ADD JUMPDEST DUP3 DUP2 GT ISZERO PUSH2 0x628 JUMPI DUP3 MLOAD DUP3 SSTORE SWAP2 PUSH1 0x20 ADD SWAP2 SWAP1 PUSH1 0x1 ADD SWAP1 PUSH2 0x60D JUMP JUMPDEST JUMPDEST POP SWAP1 POP PUSH2 0x636 SWAP2 SWAP1 PUSH2 0x6C4 JUMP JUMPDEST POP SWAP1 JUMP JUMPDEST DUP3 DUP1 SLOAD DUP3 DUP3 SSTORE SWAP1 PUSH1 0x0 MSTORE PUSH1 0x20 PUSH1 0x0 KECCAK256 SWAP1 DUP2 ADD SWAP3 DUP3 ISZERO PUSH2 0x6B3 JUMPI SWAP2 PUSH1 0x20 MUL DUP3 ADD JUMPDEST DUP3 DUP2 GT ISZERO PUSH2 0x6B2 JUMPI DUP3 MLOAD DUP3 PUSH1 0x0 PUSH2 0x100 EXP DUP2 SLOAD DUP2 PUSH20 0xFFFFFFFFFFFFFFFFFFFFFFFFFFFFFFFFFFFFFFFF MUL NOT AND SWAP1 DUP4 PUSH20 0xFFFFFFFFFFFFFFFFFFFFFFFFFFFFFFFFFFFFFFFF AND MUL OR SWAP1 SSTORE POP SWAP2 PUSH1 0x20 ADD SWAP2 SWAP1 PUSH1 0x1 ADD SWAP1 PUSH2 0x65A JUMP JUMPDEST JUMPDEST POP SWAP1 POP PUSH2 0x6C0 SWAP2 SWAP1 PUSH2 0x6C4 JUMP JUMPDEST POP SWAP1 JUMP JUMPDEST JUMPDEST DUP1 DUP3 GT ISZERO PUSH2 0x6DD JUMPI PUSH1 0x0 DUP2 PUSH1 0x0 SWAP1 SSTORE POP PUSH1 0x1 ADD PUSH2 0x6C5 JUMP JUMPDEST POP SWAP1 JUMP JUMPDEST PUSH1 0x0 PUSH2 0x6F4 PUSH2 0x6EF DUP5 PUSH2 0xD02 JUMP JUMPDEST PUSH2 0xCDD JUMP JUMPDEST SWAP1 POP DUP1 DUP4 DUP3 MSTORE PUSH1 0x20 DUP3 ADD SWAP1 POP DUP3 DUP6 PUSH1 0x20 DUP7 MUL DUP3 ADD GT ISZERO PUSH2 0x717 JUMPI PUSH2 0x716 PUSH2 0xFDA JUMP JUMPDEST JUMPDEST PUSH1 0x0 JUMPDEST DUP6 DUP2 LT ISZERO PUSH2 0x747 JUMPI DUP2 PUSH2 0x72D DUP9 DUP3 PUSH2 0x91F JUMP JUMPDEST DUP5 MSTORE PUSH1 0x20 DUP5 ADD SWAP4 POP PUSH1 0x20 DUP4 ADD SWAP3 POP POP PUSH1 0x1 DUP2 ADD SWAP1 POP PUSH2 0x71A JUMP JUMPDEST POP POP POP SWAP4 SWAP3 POP POP POP JUMP JUMPDEST PUSH1 0x0 PUSH2 0x764 PUSH2 0x75F DUP5 PUSH2 0xD2E JUMP JUMPDEST PUSH2 0xCDD JUMP JUMPDEST SWAP1 POP DUP1 DUP4 DUP3 MSTORE PUSH1 0x20 DUP3 ADD SWAP1 POP DUP3 DUP6 PUSH1 0x20 DUP7 MUL DUP3 ADD GT ISZERO PUSH2 0x787 JUMPI PUSH2 0x786 PUSH2 0xFDA JUMP JUMPDEST JUMPDEST PUSH1 0x0 JUMPDEST DUP6 DUP2 LT ISZERO PUSH2 0x7D5 JUMPI DUP2 CALLDATALOAD PUSH8 0xFFFFFFFFFFFFFFFF DUP2 GT ISZERO PUSH2 0x7AD JUMPI PUSH2 0x7AC PUSH2 0xFCB JUMP JUMPDEST JUMPDEST DUP1 DUP7 ADD PUSH2 0x7BA DUP10 DUP3 PUSH2 0x9BE JUMP JUMPDEST DUP6 MSTORE PUSH1 0x20 DUP6 ADD SWAP5 POP PUSH1 0x20 DUP5 ADD SWAP4 POP POP POP PUSH1 0x1 DUP2 ADD SWAP1 POP PUSH2 0x78A JUMP JUMPDEST POP POP POP SWAP4 SWAP3 POP POP POP JUMP JUMPDEST PUSH1 0x0 PUSH2 0x7F2 PUSH2 0x7ED DUP5 PUSH2 0xD5A JUMP JUMPDEST PUSH2 0xCDD JUMP JUMPDEST SWAP1 POP DUP1 DUP4 DUP3 MSTORE PUSH1 0x20 DUP3 ADD SWAP1 POP DUP3 DUP6 PUSH1 0x20 DUP7 MUL DUP3 ADD GT ISZERO PUSH2 0x815 JUMPI PUSH2 0x814 PUSH2 0xFDA JUMP JUMPDEST JUMPDEST PUSH1 0x0 JUMPDEST DUP6 DUP2 LT ISZERO PUSH2 0x863 JUMPI DUP2 CALLDATALOAD PUSH8 0xFFFFFFFFFFFFFFFF DUP2 GT ISZERO PUSH2 0x83B JUMPI PUSH2 0x83A PUSH2 0xFCB JUMP JUMPDEST JUMPDEST DUP1 DUP7 ADD PUSH2 0x848 DUP10 DUP3 PUSH2 0xA2F JUMP JUMPDEST DUP6 MSTORE PUSH1 0x20 DUP6 ADD SWAP5 POP PUSH1 0x20 DUP5 ADD SWAP4 POP POP POP PUSH1 0x1 DUP2 ADD SWAP1 POP PUSH2 0x818 JUMP JUMPDEST POP POP POP SWAP4 SWAP3 POP POP POP JUMP JUMPDEST PUSH1 0x0 PUSH2 0x880 PUSH2 0x87B DUP5 PUSH2 0xD86 JUMP JUMPDEST PUSH2 0xCDD JUMP JUMPDEST SWAP1 POP DUP1 DUP4 DUP3 MSTORE PUSH1 0x20 DUP3 ADD SWAP1 POP DUP3 DUP6 PUSH1 0x20 DUP7 MUL DUP3 ADD GT ISZERO PUSH2 0x8A3 JUMPI PUSH2 0x8A2 PUSH2 0xFDA JUMP JUMPDEST JUMPDEST PUSH1 0x0 JUMPDEST DUP6 DUP2 LT ISZERO PUSH2 0x8D3 JUMPI DUP2 PUSH2 0x8B9 DUP9 DUP3 PUSH2 0xACB JUMP JUMPDEST DUP5 MSTORE PUSH1 0x20 DUP5 ADD SWAP4 POP PUSH1 0x20 DUP4 ADD SWAP3 POP POP PUSH1 0x1 DUP2 ADD SWAP1 POP PUSH2 0x8A6 JUMP JUMPDEST POP POP POP SWAP4 SWAP3 POP POP POP JUMP JUMPDEST PUSH1 0x0 PUSH2 0x8F0 PUSH2 0x8EB DUP5 PUSH2 0xDB2 JUMP JUMPDEST PUSH2 0xCDD JUMP JUMPDEST SWAP1 POP DUP3 DUP2 MSTORE PUSH1 0x20 DUP2 ADD DUP5 DUP5 DUP5 ADD GT ISZERO PUSH2 0x90C JUMPI PUSH2 0x90B PUSH2 0xFDF JUMP JUMPDEST JUMPDEST PUSH2 0x917 DUP5 DUP3 DUP6 PUSH2 0xE54 JUMP JUMPDEST POP SWAP4 SWAP3 POP POP POP JUMP JUMPDEST PUSH1 0x0 DUP2 CALLDATALOAD SWAP1 POP PUSH2 0x92E DUP2 PUSH2 0x1077 JUMP JUMPDEST SWAP3 SWAP2 POP POP JUMP JUMPDEST PUSH1 0x0 DUP3 PUSH1 0x1F DUP4 ADD SLT PUSH2 0x949 JUMPI PUSH2 0x948 PUSH2 0xFCB JUMP JUMPDEST JUMPDEST DUP2 CALLDATALOAD PUSH2 0x959 DUP5 DUP3 PUSH1 0x20 DUP7 ADD PUSH2 0x6E1 JUMP JUMPDEST SWAP2 POP POP SWAP3 SWAP2 POP POP JUMP JUMPDEST PUSH1 0x0 DUP3 PUSH1 0x1F DUP4 ADD SLT PUSH2 0x977 JUMPI PUSH2 0x976 PUSH2 0xFCB JUMP JUMPDEST JUMPDEST DUP2 CALLDATALOAD PUSH2 0x987 DUP5 DUP3 PUSH1 0x20 DUP7 ADD PUSH2 0x751 JUMP JUMPDEST SWAP2 POP POP SWAP3 SWAP2 POP POP JUMP JUMPDEST PUSH1 0x0 DUP3 PUSH1 0x1F DUP4 ADD SLT PUSH2 0x9A5 JUMPI PUSH2 0x9A4 PUSH2 0xFCB JUMP JUMPDEST JUMPDEST DUP2 CALLDATALOAD PUSH2 0x9B5 DUP5 DUP3 PUSH1 0x20 DUP7 ADD PUSH2 0x7DF JUMP JUMPDEST SWAP2 POP POP SWAP3 SWAP2 POP POP JUMP JUMPDEST PUSH1 0x0 DUP3 PUSH1 0x1F DUP4 ADD SLT PUSH2 0x9D3 JUMPI PUSH2 0x9D2 PUSH2 0xFCB JUMP JUMPDEST JUMPDEST DUP2 CALLDATALOAD PUSH2 0x9E3 DUP5 DUP3 PUSH1 0x20 DUP7 ADD PUSH2 0x86D JUMP JUMPDEST SWAP2 POP POP SWAP3 SWAP2 POP POP JUMP JUMPDEST PUSH1 0x0 DUP2 CALLDATALOAD SWAP1 POP PUSH2 0x9FB DUP2 PUSH2 0x108E JUMP JUMPDEST SWAP3 SWAP2 POP POP JUMP JUMPDEST PUSH1 0x0 DUP3 PUSH1 0x1F DUP4 ADD SLT PUSH2 0xA16 JUMPI PUSH2 0xA15 PUSH2 0xFCB JUMP JUMPDEST JUMPDEST DUP2 CALLDATALOAD PUSH2 0xA26 DUP5 DUP3 PUSH1 0x20 DUP7 ADD PUSH2 0x8DD JUMP JUMPDEST SWAP2 POP POP SWAP3 SWAP2 POP POP JUMP JUMPDEST PUSH1 0x0 PUSH1 0x60 DUP3 DUP5 SUB SLT ISZERO PUSH2 0xA45 JUMPI PUSH2 0xA44 PUSH2 0xFD0 JUMP JUMPDEST JUMPDEST PUSH2 0xA4F PUSH1 0x60 PUSH2 0xCDD JUMP JUMPDEST SWAP1 POP PUSH1 0x0 PUSH2 0xA5F DUP5 DUP3 DUP6 ADD PUSH2 0x91F JUMP JUMPDEST PUSH1 0x0 DUP4 ADD MSTORE POP PUSH1 0x20 DUP3 ADD CALLDATALOAD PUSH8 0xFFFFFFFFFFFFFFFF DUP2 GT ISZERO PUSH2 0xA83 JUMPI PUSH2 0xA82 PUSH2 0xFD5 JUMP JUMPDEST JUMPDEST PUSH2 0xA8F DUP5 DUP3 DUP6 ADD PUSH2 0xA01 JUMP JUMPDEST PUSH1 0x20 DUP4 ADD MSTORE POP PUSH1 0x40 DUP3 ADD CALLDATALOAD PUSH8 0xFFFFFFFFFFFFFFFF DUP2 GT ISZERO PUSH2 0xAB3 JUMPI PUSH2 0xAB2 PUSH2 0xFD5 JUMP JUMPDEST JUMPDEST PUSH2 0xABF DUP5 DUP3 DUP6 ADD PUSH2 0x934 JUMP JUMPDEST PUSH1 0x40 DUP4 ADD MSTORE POP SWAP3 SWAP2 POP POP JUMP JUMPDEST PUSH1 0x0 DUP2 CALLDATALOAD SWAP1 POP PUSH2 0xADA DUP2 PUSH2 0x10A5 JUMP JUMPDEST SWAP3 SWAP2 POP POP JUMP JUMPDEST PUSH1 0x0 DUP2 CALLDATALOAD SWAP1 POP PUSH2 0xAEF DUP2 PUSH2 0x10BC JUMP JUMPDEST SWAP3 SWAP2 POP POP JUMP JUMPDEST PUSH1 0x0 PUSH1 0x20 DUP3 DUP5 SUB SLT ISZERO PUSH2 0xB0B JUMPI PUSH2 0xB0A PUSH2 0xFE9 JUMP JUMPDEST JUMPDEST PUSH1 0x0 PUSH2 0xB19 DUP5 DUP3 DUP6 ADD PUSH2 0x91F JUMP JUMPDEST SWAP2 POP POP SWAP3 SWAP2 POP POP JUMP JUMPDEST PUSH1 0x0 DUP1 PUSH1 0x0 DUP1 PUSH1 0x0 DUP1 PUSH1 0xC0 DUP8 DUP10 SUB SLT ISZERO PUSH2 0xB3F JUMPI PUSH2 0xB3E PUSH2 0xFE9 JUMP JUMPDEST JUMPDEST PUSH1 0x0 PUSH2 0xB4D DUP10 DUP3 DUP11 ADD PUSH2 0x9EC JUMP JUMPDEST SWAP7 POP POP PUSH1 0x20 DUP8 ADD CALLDATALOAD PUSH8 0xFFFFFFFFFFFFFFFF DUP2 GT ISZERO PUSH2 0xB6E JUMPI PUSH2 0xB6D PUSH2 0xFE4 JUMP JUMPDEST JUMPDEST PUSH2 0xB7A DUP10 DUP3 DUP11 ADD PUSH2 0x934 JUMP JUMPDEST SWAP6 POP POP PUSH1 0x40 DUP8 ADD CALLDATALOAD PUSH8 0xFFFFFFFFFFFFFFFF DUP2 GT ISZERO PUSH2 0xB9B JUMPI PUSH2 0xB9A PUSH2 0xFE4 JUMP JUMPDEST JUMPDEST PUSH2 0xBA7 DUP10 DUP3 DUP11 ADD PUSH2 0x962 JUMP JUMPDEST SWAP5 POP POP PUSH1 0x60 DUP8 ADD CALLDATALOAD PUSH8 0xFFFFFFFFFFFFFFFF DUP2 GT ISZERO PUSH2 0xBC8 JUMPI PUSH2 0xBC7 PUSH2 0xFE4 JUMP JUMPDEST JUMPDEST PUSH2 0xBD4 DUP10 DUP3 DUP11 ADD PUSH2 0x990 JUMP JUMPDEST SWAP4 POP POP PUSH1 0x80 PUSH2 0xBE5 DUP10 DUP3 DUP11 ADD PUSH2 0xAE0 JUMP JUMPDEST SWAP3 POP POP PUSH1 0xA0 PUSH2 0xBF6 DUP10 DUP3 DUP11 ADD PUSH2 0xAE0 JUMP JUMPDEST SWAP2 POP POP SWAP3 SWAP6 POP SWAP3 SWAP6 POP SWAP3 SWAP6 JUMP JUMPDEST PUSH2 0xC0C DUP2 PUSH2 0xDF4 JUMP JUMPDEST DUP3 MSTORE POP POP JUMP JUMPDEST PUSH2 0xC1B DUP2 PUSH2 0xE06 JUMP JUMPDEST DUP3 MSTORE POP POP JUMP JUMPDEST PUSH1 0x0 PUSH2 0xC2E PUSH1 0x26 DUP4 PUSH2 0xDE3 JUMP JUMPDEST SWAP2 POP PUSH2 0xC39 DUP3 PUSH2 0xFFF JUMP JUMPDEST PUSH1 0x40 DUP3 ADD SWAP1 POP SWAP2 SWAP1 POP JUMP JUMPDEST PUSH1 0x0 PUSH2 0xC51 PUSH1 0x20 DUP4 PUSH2 0xDE3 JUMP JUMPDEST SWAP2 POP PUSH2 0xC5C DUP3 PUSH2 0x104E JUMP JUMPDEST PUSH1 0x20 DUP3 ADD SWAP1 POP SWAP2 SWAP1 POP JUMP JUMPDEST PUSH1 0x0 PUSH1 0x20 DUP3 ADD SWAP1 POP PUSH2 0xC7C PUSH1 0x0 DUP4 ADD DUP5 PUSH2 0xC03 JUMP JUMPDEST SWAP3 SWAP2 POP POP JUMP JUMPDEST PUSH1 0x0 PUSH1 0x20 DUP3 ADD SWAP1 POP PUSH2 0xC97 PUSH1 0x0 DUP4 ADD DUP5 PUSH2 0xC12 JUMP JUMPDEST SWAP3 SWAP2 POP POP JUMP JUMPDEST PUSH1 0x0 PUSH1 0x20 DUP3 ADD SWAP1 POP DUP2 DUP2 SUB PUSH1 0x0 DUP4 ADD MSTORE PUSH2 0xCB6 DUP2 PUSH2 0xC21 JUMP JUMPDEST SWAP1 POP SWAP2 SWAP1 POP JUMP JUMPDEST PUSH1 0x0 PUSH1 0x20 DUP3 ADD SWAP1 POP DUP2 DUP2 SUB PUSH1 0x0 DUP4 ADD MSTORE PUSH2 0xCD6 DUP2 PUSH2 0xC44 JUMP JUMPDEST SWAP1 POP SWAP2 SWAP1 POP JUMP JUMPDEST PUSH1 0x0 PUSH2 0xCE7 PUSH2 0xCF8 JUMP JUMPDEST SWAP1 POP PUSH2 0xCF3 DUP3 DUP3 PUSH2 0xE95 JUMP JUMPDEST SWAP2 SWAP1 POP JUMP JUMPDEST PUSH1 0x0 PUSH1 0x40 MLOAD SWAP1 POP SWAP1 JUMP JUMPDEST PUSH1 0x0 PUSH8 0xFFFFFFFFFFFFFFFF DUP3 GT ISZERO PUSH2 0xD1D JUMPI PUSH2 0xD1C PUSH2 0xF9C JUMP JUMPDEST JUMPDEST PUSH1 0x20 DUP3 MUL SWAP1 POP PUSH1 0x20 DUP2 ADD SWAP1 POP SWAP2 SWAP1 POP JUMP JUMPDEST PUSH1 0x0 PUSH8 0xFFFFFFFFFFFFFFFF DUP3 GT ISZERO PUSH2 0xD49 JUMPI PUSH2 0xD48 PUSH2 0xF9C JUMP JUMPDEST JUMPDEST PUSH1 0x20 DUP3 MUL SWAP1 POP PUSH1 0x20 DUP2 ADD SWAP1 POP SWAP2 SWAP1 POP JUMP JUMPDEST PUSH1 0x0 PUSH8 0xFFFFFFFFFFFFFFFF DUP3 GT ISZERO PUSH2 0xD75 JUMPI PUSH2 0xD74 PUSH2 0xF9C JUMP JUMPDEST JUMPDEST PUSH1 0x20 DUP3 MUL SWAP1 POP PUSH1 0x20 DUP2 ADD SWAP1 POP SWAP2 SWAP1 POP JUMP JUMPDEST PUSH1 0x0 PUSH8 0xFFFFFFFFFFFFFFFF DUP3 GT ISZERO PUSH2 0xDA1 JUMPI PUSH2 0xDA0 PUSH2 0xF9C JUMP JUMPDEST JUMPDEST PUSH1 0x20 DUP3 MUL SWAP1 POP PUSH1 0x20 DUP2 ADD SWAP1 POP SWAP2 SWAP1 POP JUMP JUMPDEST PUSH1 0x0 PUSH8 0xFFFFFFFFFFFFFFFF DUP3 GT ISZERO PUSH2 0xDCD JUMPI PUSH2 0xDCC PUSH2 0xF9C JUMP JUMPDEST JUMPDEST PUSH2 0xDD6 DUP3 PUSH2 0xFEE JUMP JUMPDEST SWAP1 POP PUSH1 0x20 DUP2 ADD SWAP1 POP SWAP2 SWAP1 POP JUMP JUMPDEST PUSH1 0x0 DUP3 DUP3 MSTORE PUSH1 0x20 DUP3 ADD SWAP1 POP SWAP3 SWAP2 POP POP JUMP JUMPDEST PUSH1 0x0 PUSH2 0xDFF DUP3 PUSH2 0xE2A JUMP JUMPDEST SWAP1 POP SWAP2 SWAP1 POP JUMP JUMPDEST PUSH1 0x0 DUP2 ISZERO ISZERO SWAP1 POP SWAP2 SWAP1 POP JUMP JUMPDEST PUSH1 0x0 DUP2 SWAP1 POP SWAP2 SWAP1 POP JUMP JUMPDEST PUSH1 0x0 PUSH2 0xFFFF DUP3 AND SWAP1 POP SWAP2 SWAP1 POP JUMP JUMPDEST PUSH1 0x0 PUSH20 0xFFFFFFFFFFFFFFFFFFFFFFFFFFFFFFFFFFFFFFFF DUP3 AND SWAP1 POP SWAP2 SWAP1 POP JUMP JUMPDEST PUSH1 0x0 DUP2 SWAP1 POP SWAP2 SWAP1 POP JUMP JUMPDEST DUP3 DUP2 DUP4 CALLDATACOPY PUSH1 0x0 DUP4 DUP4 ADD MSTORE POP POP POP JUMP JUMPDEST PUSH1 0x0 PUSH1 0x2 DUP3 DIV SWAP1 POP PUSH1 0x1 DUP3 AND DUP1 PUSH2 0xE7B JUMPI PUSH1 0x7F DUP3 AND SWAP2 POP JUMPDEST PUSH1 0x20 DUP3 LT DUP2 EQ ISZERO PUSH2 0xE8F JUMPI PUSH2 0xE8E PUSH2 0xF3E JUMP JUMPDEST JUMPDEST POP SWAP2 SWAP1 POP JUMP JUMPDEST PUSH2 0xE9E DUP3 PUSH2 0xFEE JUMP JUMPDEST DUP2 ADD DUP2 DUP2 LT PUSH8 0xFFFFFFFFFFFFFFFF DUP3 GT OR ISZERO PUSH2 0xEBD JUMPI PUSH2 0xEBC PUSH2 0xF9C JUMP JUMPDEST JUMPDEST DUP1 PUSH1 0x40 MSTORE POP POP POP JUMP JUMPDEST PUSH1 0x0 PUSH2 0xED1 DUP3 PUSH2 0xE4A JUMP JUMPDEST SWAP2 POP PUSH32 0xFFFFFFFFFFFFFFFFFFFFFFFFFFFFFFFFFFFFFFFFFFFFFFFFFFFFFFFFFFFFFFFF DUP3 EQ ISZERO PUSH2 0xF04 JUMPI PUSH2 0xF03 PUSH2 0xF0F JUMP JUMPDEST JUMPDEST PUSH1 0x1 DUP3 ADD SWAP1 POP SWAP2 SWAP1 POP JUMP JUMPDEST PUSH32 0x4E487B7100000000000000000000000000000000000000000000000000000000 PUSH1 0x0 MSTORE PUSH1 0x11 PUSH1 0x4 MSTORE PUSH1 0x24 PUSH1 0x0 REVERT JUMPDEST PUSH32 0x4E487B7100000000000000000000000000000000000000000000000000000000 PUSH1 0x0 MSTORE PUSH1 0x22 PUSH1 0x4 MSTORE PUSH1 0x24 PUSH1 0x0 REVERT JUMPDEST PUSH32 0x4E487B7100000000000000000000000000000000000000000000000000000000 PUSH1 0x0 MSTORE PUSH1 0x32 PUSH1 0x4 MSTORE PUSH1 0x24 PUSH1 0x0 REVERT JUMPDEST PUSH32 0x4E487B7100000000000000000000000000000000000000000000000000000000 PUSH1 0x0 MSTORE PUSH1 0x41 PUSH1 0x4 MSTORE PUSH1 0x24 PUSH1 0x0 REVERT JUMPDEST PUSH1 0x0 DUP1 REVERT JUMPDEST PUSH1 0x0 DUP1 REVERT JUMPDEST PUSH1 0x0 DUP1 REVERT JUMPDEST PUSH1 0x0 DUP1 REVERT JUMPDEST PUSH1 0x0 DUP1 REVERT JUMPDEST PUSH1 0x0 DUP1 REVERT JUMPDEST PUSH1 0x0 DUP1 REVERT JUMPDEST PUSH1 0x0 PUSH1 0x1F NOT PUSH1 0x1F DUP4 ADD AND SWAP1 POP SWAP2 SWAP1 POP JUMP JUMPDEST PUSH32 0x4F776E61626C653A206E6577206F776E657220697320746865207A65726F2061 PUSH1 0x0 DUP3 ADD MSTORE PUSH32 0x6464726573730000000000000000000000000000000000000000000000000000 PUSH1 0x20 DUP3 ADD MSTORE POP JUMP JUMPDEST PUSH32 0x4F776E61626C653A2063616C6C6572206973206E6F7420746865206F776E6572 PUSH1 0x0 DUP3 ADD MSTORE POP JUMP JUMPDEST PUSH2 0x1080 DUP2 PUSH2 0xDF4 JUMP JUMPDEST DUP2 EQ PUSH2 0x108B JUMPI PUSH1 0x0 DUP1 REVERT JUMPDEST POP JUMP JUMPDEST PUSH2 0x1097 DUP2 PUSH2 0xE12 JUMP JUMPDEST DUP2 EQ PUSH2 0x10A2 JUMPI PUSH1 0x0 DUP1 REVERT JUMPDEST POP JUMP JUMPDEST PUSH2 0x10AE DUP2 PUSH2 0xE1C JUMP JUMPDEST DUP2 EQ PUSH2 0x10B9 JUMPI PUSH1 0x0 DUP1 REVERT JUMPDEST POP JUMP JUMPDEST PUSH2 0x10C5 DUP2 PUSH2 0xE4A JUMP JUMPDEST DUP2 EQ PUSH2 0x10D0 JUMPI PUSH1 0x0 DUP1 REVERT JUMPDEST POP JUMP INVALID LOG2 PUSH5 0x6970667358 0x22 SLT KECCAK256 0x2A 0xD4 PUSH14 0x35FC7D1420E70868F34FEAC30213 0xC9 0x21 0xDC DUP4 PUSH24 0xDBBFA7E7A1E64E2FDD0F64736F6C63430008070033000000 "
				},
				"gasEstimates": {
					"creation": {
						"codeDepositCost": "872200",
						"executionCost": "infinite",
						"totalCost": "infinite"
					},
					"external": {
						"createJob(bytes32,address[],uint16[][],(address,string,address[])[],uint256,uint256)": "infinite",
						"owner()": "2522",
						"renounceOwnership()": "30376",
						"transferOwnership(address)": "30769"
					}
				},
				"methodIdentifiers": {
					"createJob(bytes32,address[],uint16[][],(address,string,address[])[],uint256,uint256)": "faee0455",
					"owner()": "8da5cb5b",
					"renounceOwnership()": "715018a6",
					"transferOwnership(address)": "f2fde38b"
				}
			},
			"storageLayout": {
				"storage": [
					{
						"astId": 7,
						"contract": "contracts/Journal3Jobs.sol:Journal3Jobs",
						"label": "_owner",
						"offset": 0,
						"slot": "0",
						"type": "t_address"
					},
					{
						"astId": 166,
						"contract": "contracts/Journal3Jobs.sol:Journal3Jobs",
						"label": "job_cnt",
						"offset": 0,
						"slot": "1",
						"type": "t_uint256"
					},
					{
						"astId": 171,
						"contract": "contracts/Journal3Jobs.sol:Journal3Jobs",
						"label": "all_jobs",
						"offset": 0,
						"slot": "2",
						"type": "t_mapping(t_uint256,t_struct(Job)162_storage)"
					}
				],
				"types": {
					"t_address": {
						"encoding": "inplace",
						"label": "address",
						"numberOfBytes": "20"
					},
					"t_array(t_address)dyn_storage": {
						"base": "t_address",
						"encoding": "dynamic_array",
						"label": "address[]",
						"numberOfBytes": "32"
					},
					"t_bool": {
						"encoding": "inplace",
						"label": "bool",
						"numberOfBytes": "1"
					},
					"t_bytes32": {
						"encoding": "inplace",
						"label": "bytes32",
						"numberOfBytes": "32"
					},
					"t_mapping(t_address,t_array(t_address)dyn_storage)": {
						"encoding": "mapping",
						"key": "t_address",
						"label": "mapping(address => address[])",
						"numberOfBytes": "32",
						"value": "t_array(t_address)dyn_storage"
					},
					"t_mapping(t_address,t_struct(Checkpoints)145_storage)": {
						"encoding": "mapping",
						"key": "t_address",
						"label": "mapping(address => struct Checkpoints)",
						"numberOfBytes": "32",
						"value": "t_struct(Checkpoints)145_storage"
					},
					"t_mapping(t_uint256,t_struct(Job)162_storage)": {
						"encoding": "mapping",
						"key": "t_uint256",
						"label": "mapping(uint256 => struct Job)",
						"numberOfBytes": "32",
						"value": "t_struct(Job)162_storage"
					},
					"t_string_storage": {
						"encoding": "bytes",
						"label": "string",
						"numberOfBytes": "32"
					},
					"t_struct(Checkpoints)145_storage": {
						"encoding": "inplace",
						"label": "struct Checkpoints",
						"members": [
							{
								"astId": 139,
								"contract": "contracts/Journal3Jobs.sol:Journal3Jobs",
								"label": "checkpoint_addr",
								"offset": 0,
								"slot": "0",
								"type": "t_address"
							},
							{
								"astId": 141,
								"contract": "contracts/Journal3Jobs.sol:Journal3Jobs",
								"label": "checkpoint_name",
								"offset": 0,
								"slot": "1",
								"type": "t_string_storage"
							},
							{
								"astId": 144,
								"contract": "contracts/Journal3Jobs.sol:Journal3Jobs",
								"label": "candidates",
								"offset": 0,
								"slot": "2",
								"type": "t_array(t_address)dyn_storage"
							}
						],
						"numberOfBytes": "96"
					},
					"t_struct(Job)162_storage": {
						"encoding": "inplace",
						"label": "struct Job",
						"members": [
							{
								"astId": 147,
								"contract": "contracts/Journal3Jobs.sol:Journal3Jobs",
								"label": "metadata_ipfs",
								"offset": 0,
								"slot": "0",
								"type": "t_bytes32"
							},
							{
								"astId": 152,
								"contract": "contracts/Journal3Jobs.sol:Journal3Jobs",
								"label": "qualifications",
								"offset": 0,
								"slot": "1",
								"type": "t_mapping(t_address,t_array(t_address)dyn_storage)"
							},
							{
								"astId": 157,
								"contract": "contracts/Journal3Jobs.sol:Journal3Jobs",
								"label": "candidate_profiles",
								"offset": 0,
								"slot": "2",
								"type": "t_mapping(t_address,t_struct(Checkpoints)145_storage)"
							},
							{
								"astId": 159,
								"contract": "contracts/Journal3Jobs.sol:Journal3Jobs",
								"label": "jou_staked",
								"offset": 0,
								"slot": "3",
								"type": "t_uint256"
							},
							{
								"astId": 161,
								"contract": "contracts/Journal3Jobs.sol:Journal3Jobs",
								"label": "is_active",
								"offset": 0,
								"slot": "4",
								"type": "t_bool"
							}
						],
						"numberOfBytes": "160"
					},
					"t_uint256": {
						"encoding": "inplace",
						"label": "uint256",
						"numberOfBytes": "32"
					}
				}
			},
			"userdoc": {
				"kind": "user",
				"methods": {},
				"version": 1
			}
		}
	}
}