{
	"contracts/Journal3Jobs.sol": {
		"Journal3Jobs": {
			"abi": [
				{
					"inputs": [
						{
							"internalType": "address",
							"name": "jou_address",
							"type": "address"
						},
						{
							"internalType": "address",
							"name": "skill_std",
							"type": "address"
						}
					],
					"stateMutability": "nonpayable",
					"type": "constructor"
				},
				{
					"anonymous": false,
					"inputs": [
						{
							"indexed": true,
							"internalType": "address",
							"name": "previousOwner",
							"type": "address"
						},
						{
							"indexed": true,
							"internalType": "address",
							"name": "newOwner",
							"type": "address"
						}
					],
					"name": "OwnershipTransferred",
					"type": "event"
				},
				{
					"anonymous": false,
					"inputs": [
						{
							"indexed": false,
							"internalType": "uint256",
							"name": "idx",
							"type": "uint256"
						},
						{
							"indexed": false,
							"internalType": "uint256",
							"name": "amount",
							"type": "uint256"
						}
					],
					"name": "staking_successful",
					"type": "event"
				},
				{
					"inputs": [
						{
							"internalType": "uint256",
							"name": "",
							"type": "uint256"
						}
					],
					"name": "all_jobs",
					"outputs": [
						{
							"internalType": "string",
							"name": "metadata_ipfs",
							"type": "string"
						},
						{
							"internalType": "uint256",
							"name": "qualif_size",
							"type": "uint256"
						},
						{
							"internalType": "uint256",
							"name": "jou_staked",
							"type": "uint256"
						},
						{
							"internalType": "bool",
							"name": "is_active",
							"type": "bool"
						},
						{
							"internalType": "address",
							"name": "closing_indexer",
							"type": "address"
						},
						{
							"internalType": "bool",
							"name": "gasless_experience",
							"type": "bool"
						},
						{
							"internalType": "uint256",
							"name": "root",
							"type": "uint256"
						}
					],
					"stateMutability": "view",
					"type": "function"
				},
				{
					"inputs": [
						{
							"internalType": "uint256",
							"name": "idx",
							"type": "uint256"
						}
					],
					"name": "apply_job",
					"outputs": [],
					"stateMutability": "nonpayable",
					"type": "function"
				},
				{
					"inputs": [],
					"name": "claim_royalties_skill_creator",
					"outputs": [],
					"stateMutability": "nonpayable",
					"type": "function"
				},
				{
					"inputs": [
						{
							"internalType": "uint256",
							"name": "idx",
							"type": "uint256"
						}
					],
					"name": "close_job",
					"outputs": [],
					"stateMutability": "nonpayable",
					"type": "function"
				},
				{
					"inputs": [
						{
							"internalType": "string",
							"name": "metadata_ipfs",
							"type": "string"
						},
						{
							"internalType": "uint256[]",
							"name": "qualifications",
							"type": "uint256[]"
						},
						{
							"internalType": "uint256[][]",
							"name": "qualification_filtering",
							"type": "uint256[][]"
						},
						{
							"components": [
								{
									"internalType": "uint256",
									"name": "checkpoint_addr",
									"type": "uint256"
								},
								{
									"internalType": "string",
									"name": "checkpoint_name",
									"type": "string"
								},
								{
									"internalType": "address[]",
									"name": "candidates",
									"type": "address[]"
								}
							],
							"internalType": "struct Checkpoints[]",
							"name": "checkpoints",
							"type": "tuple[]"
						},
						{
							"internalType": "uint256",
							"name": "checkpoint_size",
							"type": "uint256"
						},
						{
							"internalType": "uint256",
							"name": "qualifications_size",
							"type": "uint256"
						},
						{
							"internalType": "uint256",
							"name": "root",
							"type": "uint256"
						},
						{
							"internalType": "address",
							"name": "closing_indexer",
							"type": "address"
						}
					],
					"name": "createJob",
					"outputs": [
						{
							"internalType": "bool",
							"name": "",
							"type": "bool"
						}
					],
					"stateMutability": "nonpayable",
					"type": "function"
				},
				{
					"inputs": [],
					"name": "owner",
					"outputs": [
						{
							"internalType": "address",
							"name": "",
							"type": "address"
						}
					],
					"stateMutability": "view",
					"type": "function"
				},
				{
					"inputs": [],
					"name": "renounceOwnership",
					"outputs": [],
					"stateMutability": "nonpayable",
					"type": "function"
				},
				{
					"inputs": [
						{
							"internalType": "uint256",
							"name": "idx",
							"type": "uint256"
						},
						{
							"internalType": "uint256",
							"name": "amount",
							"type": "uint256"
						}
					],
					"name": "stake_jou_job",
					"outputs": [],
					"stateMutability": "nonpayable",
					"type": "function"
				},
				{
					"inputs": [
						{
							"internalType": "address",
							"name": "newOwner",
							"type": "address"
						}
					],
					"name": "transferOwnership",
					"outputs": [],
					"stateMutability": "nonpayable",
					"type": "function"
				}
			],
			"devdoc": {
				"kind": "dev",
				"methods": {
					"owner()": {
						"details": "Returns the address of the current owner."
					},
					"renounceOwnership()": {
						"details": "Leaves the contract without owner. It will not be possible to call `onlyOwner` functions anymore. Can only be called by the current owner. NOTE: Renouncing ownership will leave the contract without an owner, thereby removing any functionality that is only available to the owner."
					},
					"transferOwnership(address)": {
						"details": "Transfers ownership of the contract to a new account (`newOwner`). Can only be called by the current owner."
					}
				},
				"version": 1
			},
			"evm": {
				"assembly": "    /* \"contracts/Journal3Jobs.sol\":638:5349  contract Journal3Jobs is Ownable{\r... */\n  mstore(0x40, 0x80)\n    /* \"contracts/Journal3Jobs.sol\":954:1118  constructor(address jou_address, address skill_std){\r... */\n  callvalue\n  dup1\n  iszero\n  tag_1\n  jumpi\n  0x00\n  dup1\n  revert\ntag_1:\n  pop\n  mload(0x40)\n  sub(codesize, bytecodeSize)\n  dup1\n  bytecodeSize\n  dup4\n  codecopy\n  dup2\n  dup2\n  add\n  0x40\n  mstore\n  dup2\n  add\n  swap1\n  tag_2\n  swap2\n  swap1\n  tag_3\n  jump\t// in\ntag_2:\n    /* \"@openzeppelin/contracts/access/Ownable.sol\":936:968  _transferOwnership(_msgSender()) */\n  tag_7\n    /* \"@openzeppelin/contracts/access/Ownable.sol\":955:967  _msgSender() */\n  tag_8\n    /* \"@openzeppelin/contracts/access/Ownable.sol\":955:965  _msgSender */\n  shl(0x20, tag_9)\n    /* \"@openzeppelin/contracts/access/Ownable.sol\":955:967  _msgSender() */\n  0x20\n  shr\n  jump\t// in\ntag_8:\n    /* \"@openzeppelin/contracts/access/Ownable.sol\":936:954  _transferOwnership */\n  shl(0x20, tag_10)\n    /* \"@openzeppelin/contracts/access/Ownable.sol\":936:968  _transferOwnership(_msgSender()) */\n  0x20\n  shr\n  jump\t// in\ntag_7:\n    /* \"contracts/Journal3Jobs.sol\":1026:1027  0 */\n  0x00\n    /* \"contracts/Journal3Jobs.sol\":1016:1023  job_cnt */\n  0x01\n    /* \"contracts/Journal3Jobs.sol\":1016:1027  job_cnt = 0 */\n  dup2\n  swap1\n  sstore\n  pop\n    /* \"contracts/Journal3Jobs.sol\":1051:1062  jou_address */\n  dup2\n    /* \"contracts/Journal3Jobs.sol\":1038:1041  jou */\n  0x05\n  0x00\n    /* \"contracts/Journal3Jobs.sol\":1038:1063  jou = IERC20(jou_address) */\n  0x0100\n  exp\n  dup2\n  sload\n  dup2\n  0xffffffffffffffffffffffffffffffffffffffff\n  mul\n  not\n  and\n  swap1\n  dup4\n  0xffffffffffffffffffffffffffffffffffffffff\n  and\n  mul\n  or\n  swap1\n  sstore\n  pop\n    /* \"contracts/Journal3Jobs.sol\":1100:1109  skill_std */\n  dup1\n    /* \"contracts/Journal3Jobs.sol\":1074:1085  skills_repo */\n  0x06\n  0x00\n    /* \"contracts/Journal3Jobs.sol\":1074:1110  skills_repo = ISkillsRepo(skill_std) */\n  0x0100\n  exp\n  dup2\n  sload\n  dup2\n  0xffffffffffffffffffffffffffffffffffffffff\n  mul\n  not\n  and\n  swap1\n  dup4\n  0xffffffffffffffffffffffffffffffffffffffff\n  and\n  mul\n  or\n  swap1\n  sstore\n  pop\n    /* \"contracts/Journal3Jobs.sol\":954:1118  constructor(address jou_address, address skill_std){\r... */\n  pop\n  pop\n    /* \"contracts/Journal3Jobs.sol\":638:5349  contract Journal3Jobs is Ownable{\r... */\n  jump(tag_12)\n    /* \"@openzeppelin/contracts/utils/Context.sol\":640:736  function _msgSender() internal view virtual returns (address) {... */\ntag_9:\n    /* \"@openzeppelin/contracts/utils/Context.sol\":693:700  address */\n  0x00\n    /* \"@openzeppelin/contracts/utils/Context.sol\":719:729  msg.sender */\n  caller\n    /* \"@openzeppelin/contracts/utils/Context.sol\":712:729  return msg.sender */\n  swap1\n  pop\n    /* \"@openzeppelin/contracts/utils/Context.sol\":640:736  function _msgSender() internal view virtual returns (address) {... */\n  swap1\n  jump\t// out\n    /* \"@openzeppelin/contracts/access/Ownable.sol\":2433:2620  function _transferOwnership(address newOwner) internal virtual {... */\ntag_10:\n    /* \"@openzeppelin/contracts/access/Ownable.sol\":2506:2522  address oldOwner */\n  0x00\n    /* \"@openzeppelin/contracts/access/Ownable.sol\":2525:2531  _owner */\n  dup1\n  0x00\n  swap1\n  sload\n  swap1\n  0x0100\n  exp\n  swap1\n  div\n  0xffffffffffffffffffffffffffffffffffffffff\n  and\n    /* \"@openzeppelin/contracts/access/Ownable.sol\":2506:2531  address oldOwner = _owner */\n  swap1\n  pop\n    /* \"@openzeppelin/contracts/access/Ownable.sol\":2550:2558  newOwner */\n  dup2\n    /* \"@openzeppelin/contracts/access/Ownable.sol\":2541:2547  _owner */\n  0x00\n  dup1\n    /* \"@openzeppelin/contracts/access/Ownable.sol\":2541:2558  _owner = newOwner */\n  0x0100\n  exp\n  dup2\n  sload\n  dup2\n  0xffffffffffffffffffffffffffffffffffffffff\n  mul\n  not\n  and\n  swap1\n  dup4\n  0xffffffffffffffffffffffffffffffffffffffff\n  and\n  mul\n  or\n  swap1\n  sstore\n  pop\n    /* \"@openzeppelin/contracts/access/Ownable.sol\":2604:2612  newOwner */\n  dup2\n    /* \"@openzeppelin/contracts/access/Ownable.sol\":2573:2613  OwnershipTransferred(oldOwner, newOwner) */\n  0xffffffffffffffffffffffffffffffffffffffff\n  and\n    /* \"@openzeppelin/contracts/access/Ownable.sol\":2594:2602  oldOwner */\n  dup2\n    /* \"@openzeppelin/contracts/access/Ownable.sol\":2573:2613  OwnershipTransferred(oldOwner, newOwner) */\n  0xffffffffffffffffffffffffffffffffffffffff\n  and\n  0x8be0079c531659141344cd1fd0a4f28419497f9722a3daafe3b4186f6b6457e0\n  mload(0x40)\n  mload(0x40)\n  dup1\n  swap2\n  sub\n  swap1\n  log3\n    /* \"@openzeppelin/contracts/access/Ownable.sol\":2496:2620  {... */\n  pop\n    /* \"@openzeppelin/contracts/access/Ownable.sol\":2433:2620  function _transferOwnership(address newOwner) internal virtual {... */\n  pop\n  jump\t// out\n    /* \"#utility.yul\":7:150   */\ntag_16:\n    /* \"#utility.yul\":64:69   */\n  0x00\n    /* \"#utility.yul\":95:101   */\n  dup2\n    /* \"#utility.yul\":89:102   */\n  mload\n    /* \"#utility.yul\":80:102   */\n  swap1\n  pop\n    /* \"#utility.yul\":111:144   */\n  tag_18\n    /* \"#utility.yul\":138:143   */\n  dup2\n    /* \"#utility.yul\":111:144   */\n  tag_19\n  jump\t// in\ntag_18:\n    /* \"#utility.yul\":7:150   */\n  swap3\n  swap2\n  pop\n  pop\n  jump\t// out\n    /* \"#utility.yul\":156:663   */\ntag_3:\n    /* \"#utility.yul\":235:241   */\n  0x00\n    /* \"#utility.yul\":243:249   */\n  dup1\n    /* \"#utility.yul\":292:294   */\n  0x40\n    /* \"#utility.yul\":280:289   */\n  dup4\n    /* \"#utility.yul\":271:278   */\n  dup6\n    /* \"#utility.yul\":267:290   */\n  sub\n    /* \"#utility.yul\":263:295   */\n  slt\n    /* \"#utility.yul\":260:379   */\n  iszero\n  tag_21\n  jumpi\n    /* \"#utility.yul\":298:377   */\n  tag_22\n  tag_23\n  jump\t// in\ntag_22:\n    /* \"#utility.yul\":260:379   */\ntag_21:\n    /* \"#utility.yul\":418:419   */\n  0x00\n    /* \"#utility.yul\":443:507   */\n  tag_24\n    /* \"#utility.yul\":499:506   */\n  dup6\n    /* \"#utility.yul\":490:496   */\n  dup3\n    /* \"#utility.yul\":479:488   */\n  dup7\n    /* \"#utility.yul\":475:497   */\n  add\n    /* \"#utility.yul\":443:507   */\n  tag_16\n  jump\t// in\ntag_24:\n    /* \"#utility.yul\":433:507   */\n  swap3\n  pop\n    /* \"#utility.yul\":389:517   */\n  pop\n    /* \"#utility.yul\":556:558   */\n  0x20\n    /* \"#utility.yul\":582:646   */\n  tag_25\n    /* \"#utility.yul\":638:645   */\n  dup6\n    /* \"#utility.yul\":629:635   */\n  dup3\n    /* \"#utility.yul\":618:627   */\n  dup7\n    /* \"#utility.yul\":614:636   */\n  add\n    /* \"#utility.yul\":582:646   */\n  tag_16\n  jump\t// in\ntag_25:\n    /* \"#utility.yul\":572:646   */\n  swap2\n  pop\n    /* \"#utility.yul\":527:656   */\n  pop\n    /* \"#utility.yul\":156:663   */\n  swap3\n  pop\n  swap3\n  swap1\n  pop\n  jump\t// out\n    /* \"#utility.yul\":750:846   */\ntag_28:\n    /* \"#utility.yul\":787:794   */\n  0x00\n    /* \"#utility.yul\":816:840   */\n  tag_30\n    /* \"#utility.yul\":834:839   */\n  dup3\n    /* \"#utility.yul\":816:840   */\n  tag_31\n  jump\t// in\ntag_30:\n    /* \"#utility.yul\":805:840   */\n  swap1\n  pop\n    /* \"#utility.yul\":750:846   */\n  swap2\n  swap1\n  pop\n  jump\t// out\n    /* \"#utility.yul\":852:978   */\ntag_31:\n    /* \"#utility.yul\":889:896   */\n  0x00\n    /* \"#utility.yul\":929:971   */\n  0xffffffffffffffffffffffffffffffffffffffff\n    /* \"#utility.yul\":922:927   */\n  dup3\n    /* \"#utility.yul\":918:972   */\n  and\n    /* \"#utility.yul\":907:972   */\n  swap1\n  pop\n    /* \"#utility.yul\":852:978   */\n  swap2\n  swap1\n  pop\n  jump\t// out\n    /* \"#utility.yul\":1107:1224   */\ntag_23:\n    /* \"#utility.yul\":1216:1217   */\n  0x00\n    /* \"#utility.yul\":1213:1214   */\n  dup1\n    /* \"#utility.yul\":1206:1218   */\n  revert\n    /* \"#utility.yul\":1230:1352   */\ntag_19:\n    /* \"#utility.yul\":1303:1327   */\n  tag_37\n    /* \"#utility.yul\":1321:1326   */\n  dup2\n    /* \"#utility.yul\":1303:1327   */\n  tag_28\n  jump\t// in\ntag_37:\n    /* \"#utility.yul\":1296:1301   */\n  dup2\n    /* \"#utility.yul\":1293:1328   */\n  eq\n    /* \"#utility.yul\":1283:1346   */\n  tag_38\n  jumpi\n    /* \"#utility.yul\":1342:1343   */\n  0x00\n    /* \"#utility.yul\":1339:1340   */\n  dup1\n    /* \"#utility.yul\":1332:1344   */\n  revert\n    /* \"#utility.yul\":1283:1346   */\ntag_38:\n    /* \"#utility.yul\":1230:1352   */\n  pop\n  jump\t// out\n    /* \"contracts/Journal3Jobs.sol\":638:5349  contract Journal3Jobs is Ownable{\r... */\ntag_12:\n  dataSize(sub_0)\n  dup1\n  dataOffset(sub_0)\n  0x00\n  codecopy\n  0x00\n  return\nstop\n\nsub_0: assembly {\n        /* \"contracts/Journal3Jobs.sol\":638:5349  contract Journal3Jobs is Ownable{\r... */\n      mstore(0x40, 0x80)\n      callvalue\n      dup1\n      iszero\n      tag_1\n      jumpi\n      0x00\n      dup1\n      revert\n    tag_1:\n      pop\n      jumpi(tag_2, lt(calldatasize, 0x04))\n      shr(0xe0, calldataload(0x00))\n      dup1\n      0xb5ec25ae\n      gt\n      tag_12\n      jumpi\n      dup1\n      0xb5ec25ae\n      eq\n      tag_7\n      jumpi\n      dup1\n      0xcd3c6e56\n      eq\n      tag_8\n      jumpi\n      dup1\n      0xe6d46c8d\n      eq\n      tag_9\n      jumpi\n      dup1\n      0xeffbb95d\n      eq\n      tag_10\n      jumpi\n      dup1\n      0xf2fde38b\n      eq\n      tag_11\n      jumpi\n      jump(tag_2)\n    tag_12:\n      dup1\n      0x62063e87\n      eq\n      tag_3\n      jumpi\n      dup1\n      0x715018a6\n      eq\n      tag_4\n      jumpi\n      dup1\n      0x8da5cb5b\n      eq\n      tag_5\n      jumpi\n      dup1\n      0xaf812ebf\n      eq\n      tag_6\n      jumpi\n    tag_2:\n      0x00\n      dup1\n      revert\n        /* \"contracts/Journal3Jobs.sol\":1126:2475  function createJob(string memory metadata_ipfs, uint[] memory qualifications, uint[][] memory qualification_filtering, Checkpoints[] memory checkpoints, uint checkpoint_size, uint qualifications_size, uint root, address closing_indexer) public returns(bool){\r... */\n    tag_3:\n      tag_13\n      0x04\n      dup1\n      calldatasize\n      sub\n      dup2\n      add\n      swap1\n      tag_14\n      swap2\n      swap1\n      tag_15\n      jump\t// in\n    tag_14:\n      tag_16\n      jump\t// in\n    tag_13:\n      mload(0x40)\n      tag_17\n      swap2\n      swap1\n      tag_18\n      jump\t// in\n    tag_17:\n      mload(0x40)\n      dup1\n      swap2\n      sub\n      swap1\n      return\n        /* \"@openzeppelin/contracts/access/Ownable.sol\":1831:1932  function renounceOwnership() public virtual onlyOwner {... */\n    tag_4:\n      tag_19\n      tag_20\n      jump\t// in\n    tag_19:\n      stop\n        /* \"@openzeppelin/contracts/access/Ownable.sol\":1201:1286  function owner() public view virtual returns (address) {... */\n    tag_5:\n      tag_21\n      tag_22\n      jump\t// in\n    tag_21:\n      mload(0x40)\n      tag_23\n      swap2\n      swap1\n      tag_24\n      jump\t// in\n    tag_23:\n      mload(0x40)\n      dup1\n      swap2\n      sub\n      swap1\n      return\n        /* \"contracts/Journal3Jobs.sol\":5165:5339  function claim_royalties_skill_creator() public {\r... */\n    tag_6:\n      tag_25\n      tag_26\n      jump\t// in\n    tag_25:\n      stop\n        /* \"contracts/Journal3Jobs.sol\":2988:4000  function apply_job(uint idx) public {\r... */\n    tag_7:\n      tag_27\n      0x04\n      dup1\n      calldatasize\n      sub\n      dup2\n      add\n      swap1\n      tag_28\n      swap2\n      swap1\n      tag_29\n      jump\t// in\n    tag_28:\n      tag_30\n      jump\t// in\n    tag_27:\n      stop\n        /* \"contracts/Journal3Jobs.sol\":2483:2976  function stake_jou_job(uint idx, uint amount) public {\r... */\n    tag_8:\n      tag_31\n      0x04\n      dup1\n      calldatasize\n      sub\n      dup2\n      add\n      swap1\n      tag_32\n      swap2\n      swap1\n      tag_33\n      jump\t// in\n    tag_32:\n      tag_34\n      jump\t// in\n    tag_31:\n      stop\n        /* \"contracts/Journal3Jobs.sol\":4009:5157  function close_job(uint idx) public {\r... */\n    tag_9:\n      tag_35\n      0x04\n      dup1\n      calldatasize\n      sub\n      dup2\n      add\n      swap1\n      tag_36\n      swap2\n      swap1\n      tag_29\n      jump\t// in\n    tag_36:\n      tag_37\n      jump\t// in\n    tag_35:\n      stop\n        /* \"contracts/Journal3Jobs.sol\":698:735  mapping (uint => Job) public all_jobs */\n    tag_10:\n      tag_38\n      0x04\n      dup1\n      calldatasize\n      sub\n      dup2\n      add\n      swap1\n      tag_39\n      swap2\n      swap1\n      tag_29\n      jump\t// in\n    tag_39:\n      tag_40\n      jump\t// in\n    tag_38:\n      mload(0x40)\n      tag_41\n      swap8\n      swap7\n      swap6\n      swap5\n      swap4\n      swap3\n      swap2\n      swap1\n      tag_42\n      jump\t// in\n    tag_41:\n      mload(0x40)\n      dup1\n      swap2\n      sub\n      swap1\n      return\n        /* \"@openzeppelin/contracts/access/Ownable.sol\":2081:2279  function transferOwnership(address newOwner) public virtual onlyOwner {... */\n    tag_11:\n      tag_43\n      0x04\n      dup1\n      calldatasize\n      sub\n      dup2\n      add\n      swap1\n      tag_44\n      swap2\n      swap1\n      tag_45\n      jump\t// in\n    tag_44:\n      tag_46\n      jump\t// in\n    tag_43:\n      stop\n        /* \"contracts/Journal3Jobs.sol\":1126:2475  function createJob(string memory metadata_ipfs, uint[] memory qualifications, uint[][] memory qualification_filtering, Checkpoints[] memory checkpoints, uint checkpoint_size, uint qualifications_size, uint root, address closing_indexer) public returns(bool){\r... */\n    tag_16:\n        /* \"contracts/Journal3Jobs.sol\":1378:1382  bool */\n      0x00\n        /* \"contracts/Journal3Jobs.sol\":1394:1413  Job storage tempJob */\n      dup1\n        /* \"contracts/Journal3Jobs.sol\":1416:1424  all_jobs */\n      0x02\n        /* \"contracts/Journal3Jobs.sol\":1416:1433  all_jobs[job_cnt] */\n      0x00\n        /* \"contracts/Journal3Jobs.sol\":1425:1432  job_cnt */\n      sload(0x01)\n        /* \"contracts/Journal3Jobs.sol\":1416:1433  all_jobs[job_cnt] */\n      dup2\n      mstore\n      0x20\n      add\n      swap1\n      dup2\n      mstore\n      0x20\n      add\n      0x00\n      keccak256\n        /* \"contracts/Journal3Jobs.sol\":1394:1433  Job storage tempJob = all_jobs[job_cnt] */\n      swap1\n      pop\n        /* \"contracts/Journal3Jobs.sol\":1468:1481  metadata_ipfs */\n      dup10\n        /* \"contracts/Journal3Jobs.sol\":1444:1451  tempJob */\n      dup2\n        /* \"contracts/Journal3Jobs.sol\":1444:1465  tempJob.metadata_ipfs */\n      0x00\n      add\n        /* \"contracts/Journal3Jobs.sol\":1444:1481  tempJob.metadata_ipfs = metadata_ipfs */\n      swap1\n      dup1\n      mload\n      swap1\n      0x20\n      add\n      swap1\n      tag_48\n      swap3\n      swap2\n      swap1\n      tag_49\n      jump\t// in\n    tag_48:\n      pop\n        /* \"contracts/Journal3Jobs.sol\":1517:1521  root */\n      dup4\n        /* \"contracts/Journal3Jobs.sol\":1502:1509  tempJob */\n      dup2\n        /* \"contracts/Journal3Jobs.sol\":1502:1514  tempJob.root */\n      0x07\n      add\n        /* \"contracts/Journal3Jobs.sol\":1502:1521  tempJob.root = root */\n      dup2\n      swap1\n      sstore\n      pop\n        /* \"contracts/Journal3Jobs.sol\":1539:1545  uint i */\n      0x00\n        /* \"contracts/Journal3Jobs.sol\":1534:1676  for (uint i=0; i < checkpoint_size; i++){\r... */\n    tag_50:\n        /* \"contracts/Journal3Jobs.sol\":1553:1568  checkpoint_size */\n      dup7\n        /* \"contracts/Journal3Jobs.sol\":1549:1550  i */\n      dup2\n        /* \"contracts/Journal3Jobs.sol\":1549:1568  i < checkpoint_size */\n      lt\n        /* \"contracts/Journal3Jobs.sol\":1534:1676  for (uint i=0; i < checkpoint_size; i++){\r... */\n      iszero\n      tag_51\n      jumpi\n        /* \"contracts/Journal3Jobs.sol\":1650:1661  checkpoints */\n      dup8\n        /* \"contracts/Journal3Jobs.sol\":1662:1663  i */\n      dup2\n        /* \"contracts/Journal3Jobs.sol\":1650:1664  checkpoints[i] */\n      dup2\n      mload\n      dup2\n      lt\n      tag_53\n      jumpi\n      tag_54\n      tag_55\n      jump\t// in\n    tag_54:\n    tag_53:\n      0x20\n      mul\n      0x20\n      add\n      add\n      mload\n        /* \"contracts/Journal3Jobs.sol\":1589:1596  tempJob */\n      dup3\n        /* \"contracts/Journal3Jobs.sol\":1589:1615  tempJob.candidate_profiles */\n      0x04\n      add\n        /* \"contracts/Journal3Jobs.sol\":1589:1647  tempJob.candidate_profiles[checkpoints[i].checkpoint_addr] */\n      0x00\n        /* \"contracts/Journal3Jobs.sol\":1616:1627  checkpoints */\n      dup11\n        /* \"contracts/Journal3Jobs.sol\":1628:1629  i */\n      dup5\n        /* \"contracts/Journal3Jobs.sol\":1616:1630  checkpoints[i] */\n      dup2\n      mload\n      dup2\n      lt\n      tag_56\n      jumpi\n      tag_57\n      tag_55\n      jump\t// in\n    tag_57:\n    tag_56:\n      0x20\n      mul\n      0x20\n      add\n      add\n      mload\n        /* \"contracts/Journal3Jobs.sol\":1616:1646  checkpoints[i].checkpoint_addr */\n      0x00\n      add\n      mload\n        /* \"contracts/Journal3Jobs.sol\":1589:1647  tempJob.candidate_profiles[checkpoints[i].checkpoint_addr] */\n      dup2\n      mstore\n      0x20\n      add\n      swap1\n      dup2\n      mstore\n      0x20\n      add\n      0x00\n      keccak256\n        /* \"contracts/Journal3Jobs.sol\":1589:1664  tempJob.candidate_profiles[checkpoints[i].checkpoint_addr] = checkpoints[i] */\n      0x00\n      dup3\n      add\n      mload\n      dup2\n      0x00\n      add\n      sstore\n      0x20\n      dup3\n      add\n      mload\n      dup2\n      0x01\n      add\n      swap1\n      dup1\n      mload\n      swap1\n      0x20\n      add\n      swap1\n      tag_58\n      swap3\n      swap2\n      swap1\n      tag_49\n      jump\t// in\n    tag_58:\n      pop\n      0x40\n      dup3\n      add\n      mload\n      dup2\n      0x02\n      add\n      swap1\n      dup1\n      mload\n      swap1\n      0x20\n      add\n      swap1\n      tag_59\n      swap3\n      swap2\n      swap1\n      tag_60\n      jump\t// in\n    tag_59:\n      pop\n      swap1\n      pop\n      pop\n        /* \"contracts/Journal3Jobs.sol\":1570:1573  i++ */\n      dup1\n      dup1\n      tag_61\n      swap1\n      tag_62\n      jump\t// in\n    tag_61:\n      swap2\n      pop\n      pop\n        /* \"contracts/Journal3Jobs.sol\":1534:1676  for (uint i=0; i < checkpoint_size; i++){\r... */\n      jump(tag_50)\n    tag_51:\n      pop\n        /* \"contracts/Journal3Jobs.sol\":1693:1699  uint i */\n      0x00\n        /* \"contracts/Journal3Jobs.sol\":1688:2202  for (uint i=0; i < qualifications_size; i++){\r... */\n    tag_63:\n        /* \"contracts/Journal3Jobs.sol\":1707:1726  qualifications_size */\n      dup6\n        /* \"contracts/Journal3Jobs.sol\":1703:1704  i */\n      dup2\n        /* \"contracts/Journal3Jobs.sol\":1703:1726  i < qualifications_size */\n      lt\n        /* \"contracts/Journal3Jobs.sol\":1688:2202  for (uint i=0; i < qualifications_size; i++){\r... */\n      iszero\n      tag_64\n      jumpi\n        /* \"contracts/Journal3Jobs.sol\":1751:1757  uint j */\n      0x00\n        /* \"contracts/Journal3Jobs.sol\":1747:1968  for(uint j=0; j < qualifications_size; j++){\r... */\n    tag_66:\n        /* \"contracts/Journal3Jobs.sol\":1765:1784  qualifications_size */\n      dup7\n        /* \"contracts/Journal3Jobs.sol\":1761:1762  j */\n      dup2\n        /* \"contracts/Journal3Jobs.sol\":1761:1784  j < qualifications_size */\n      lt\n        /* \"contracts/Journal3Jobs.sol\":1747:1968  for(uint j=0; j < qualifications_size; j++){\r... */\n      iszero\n      tag_67\n      jumpi\n        /* \"contracts/Journal3Jobs.sol\":1843:1844  1 */\n      0x01\n        /* \"contracts/Journal3Jobs.sol\":1812:1835  qualification_filtering */\n      dup11\n        /* \"contracts/Journal3Jobs.sol\":1836:1837  i */\n      dup4\n        /* \"contracts/Journal3Jobs.sol\":1812:1838  qualification_filtering[i] */\n      dup2\n      mload\n      dup2\n      lt\n      tag_69\n      jumpi\n      tag_70\n      tag_55\n      jump\t// in\n    tag_70:\n    tag_69:\n      0x20\n      mul\n      0x20\n      add\n      add\n      mload\n        /* \"contracts/Journal3Jobs.sol\":1839:1840  j */\n      dup3\n        /* \"contracts/Journal3Jobs.sol\":1812:1841  qualification_filtering[i][j] */\n      dup2\n      mload\n      dup2\n      lt\n      tag_71\n      jumpi\n      tag_72\n      tag_55\n      jump\t// in\n    tag_72:\n    tag_71:\n      0x20\n      mul\n      0x20\n      add\n      add\n      mload\n        /* \"contracts/Journal3Jobs.sol\":1812:1844  qualification_filtering[i][j]==1 */\n      eq\n        /* \"contracts/Journal3Jobs.sol\":1809:1953  if(qualification_filtering[i][j]==1){\r... */\n      iszero\n      tag_73\n      jumpi\n        /* \"contracts/Journal3Jobs.sol\":1868:1875  tempJob */\n      dup3\n        /* \"contracts/Journal3Jobs.sol\":1868:1890  tempJob.qualifications */\n      0x01\n      add\n        /* \"contracts/Journal3Jobs.sol\":1868:1909  tempJob.qualifications[qualifications[i]] */\n      0x00\n        /* \"contracts/Journal3Jobs.sol\":1891:1905  qualifications */\n      dup13\n        /* \"contracts/Journal3Jobs.sol\":1906:1907  i */\n      dup5\n        /* \"contracts/Journal3Jobs.sol\":1891:1908  qualifications[i] */\n      dup2\n      mload\n      dup2\n      lt\n      tag_74\n      jumpi\n      tag_75\n      tag_55\n      jump\t// in\n    tag_75:\n    tag_74:\n      0x20\n      mul\n      0x20\n      add\n      add\n      mload\n        /* \"contracts/Journal3Jobs.sol\":1868:1909  tempJob.qualifications[qualifications[i]] */\n      dup2\n      mstore\n      0x20\n      add\n      swap1\n      dup2\n      mstore\n      0x20\n      add\n      0x00\n      keccak256\n        /* \"contracts/Journal3Jobs.sol\":1915:1929  qualifications */\n      dup12\n        /* \"contracts/Journal3Jobs.sol\":1930:1931  j */\n      dup3\n        /* \"contracts/Journal3Jobs.sol\":1915:1932  qualifications[j] */\n      dup2\n      mload\n      dup2\n      lt\n      tag_76\n      jumpi\n      tag_77\n      tag_55\n      jump\t// in\n    tag_77:\n    tag_76:\n      0x20\n      mul\n      0x20\n      add\n      add\n      mload\n        /* \"contracts/Journal3Jobs.sol\":1868:1933  tempJob.qualifications[qualifications[i]].push(qualifications[j]) */\n      swap1\n      dup1\n      0x01\n      dup2\n      sload\n      add\n      dup1\n      dup3\n      sstore\n      dup1\n      swap2\n      pop\n      pop\n      0x01\n      swap1\n      sub\n      swap1\n      0x00\n      mstore\n      keccak256(0x00, 0x20)\n      add\n      0x00\n      swap1\n      swap2\n      swap1\n      swap2\n      swap1\n      swap2\n      pop\n      sstore\n        /* \"contracts/Journal3Jobs.sol\":1809:1953  if(qualification_filtering[i][j]==1){\r... */\n    tag_73:\n        /* \"contracts/Journal3Jobs.sol\":1786:1789  j++ */\n      dup1\n      dup1\n      tag_79\n      swap1\n      tag_62\n      jump\t// in\n    tag_79:\n      swap2\n      pop\n      pop\n        /* \"contracts/Journal3Jobs.sol\":1747:1968  for(uint j=0; j < qualifications_size; j++){\r... */\n      jump(tag_66)\n    tag_67:\n      pop\n        /* \"contracts/Journal3Jobs.sol\":2037:2038  0 */\n      0x00\n        /* \"contracts/Journal3Jobs.sol\":1985:1992  tempJob */\n      dup3\n        /* \"contracts/Journal3Jobs.sol\":1985:2007  tempJob.qualifications */\n      0x01\n      add\n        /* \"contracts/Journal3Jobs.sol\":1985:2026  tempJob.qualifications[qualifications[i]] */\n      0x00\n        /* \"contracts/Journal3Jobs.sol\":2008:2022  qualifications */\n      dup13\n        /* \"contracts/Journal3Jobs.sol\":2023:2024  i */\n      dup5\n        /* \"contracts/Journal3Jobs.sol\":2008:2025  qualifications[i] */\n      dup2\n      mload\n      dup2\n      lt\n      tag_80\n      jumpi\n      tag_81\n      tag_55\n      jump\t// in\n    tag_81:\n    tag_80:\n      0x20\n      mul\n      0x20\n      add\n      add\n      mload\n        /* \"contracts/Journal3Jobs.sol\":1985:2026  tempJob.qualifications[qualifications[i]] */\n      dup2\n      mstore\n      0x20\n      add\n      swap1\n      dup2\n      mstore\n      0x20\n      add\n      0x00\n      keccak256\n        /* \"contracts/Journal3Jobs.sol\":1985:2033  tempJob.qualifications[qualifications[i]].length */\n      dup1\n      sload\n      swap1\n      pop\n        /* \"contracts/Journal3Jobs.sol\":1985:2038  tempJob.qualifications[qualifications[i]].length == 0 */\n      eq\n        /* \"contracts/Journal3Jobs.sol\":1982:2191  if(tempJob.qualifications[qualifications[i]].length == 0){\r... */\n      iszero\n      tag_82\n      jumpi\n        /* \"contracts/Journal3Jobs.sol\":2058:2065  tempJob */\n      dup2\n        /* \"contracts/Journal3Jobs.sol\":2058:2080  tempJob.qualifications */\n      0x01\n      add\n        /* \"contracts/Journal3Jobs.sol\":2058:2099  tempJob.qualifications[qualifications[i]] */\n      0x00\n        /* \"contracts/Journal3Jobs.sol\":2081:2095  qualifications */\n      dup12\n        /* \"contracts/Journal3Jobs.sol\":2096:2097  i */\n      dup4\n        /* \"contracts/Journal3Jobs.sol\":2081:2098  qualifications[i] */\n      dup2\n      mload\n      dup2\n      lt\n      tag_83\n      jumpi\n      tag_84\n      tag_55\n      jump\t// in\n    tag_84:\n    tag_83:\n      0x20\n      mul\n      0x20\n      add\n      add\n      mload\n        /* \"contracts/Journal3Jobs.sol\":2058:2099  tempJob.qualifications[qualifications[i]] */\n      dup2\n      mstore\n      0x20\n      add\n      swap1\n      dup2\n      mstore\n      0x20\n      add\n      0x00\n      keccak256\n        /* \"contracts/Journal3Jobs.sol\":2105:2106  0 */\n      0x00\n        /* \"contracts/Journal3Jobs.sol\":2058:2107  tempJob.qualifications[qualifications[i]].push(0) */\n      swap1\n      dup1\n      0x01\n      dup2\n      sload\n      add\n      dup1\n      dup3\n      sstore\n      dup1\n      swap2\n      pop\n      pop\n      0x01\n      swap1\n      sub\n      swap1\n      0x00\n      mstore\n      keccak256(0x00, 0x20)\n      add\n      0x00\n      swap1\n      swap2\n      swap1\n      swap2\n      swap1\n      swap2\n      pop\n      sstore\n        /* \"contracts/Journal3Jobs.sol\":2126:2133  tempJob */\n      dup2\n        /* \"contracts/Journal3Jobs.sol\":2126:2148  tempJob.qualifications */\n      0x01\n      add\n        /* \"contracts/Journal3Jobs.sol\":2126:2167  tempJob.qualifications[qualifications[i]] */\n      0x00\n        /* \"contracts/Journal3Jobs.sol\":2149:2163  qualifications */\n      dup12\n        /* \"contracts/Journal3Jobs.sol\":2164:2165  i */\n      dup4\n        /* \"contracts/Journal3Jobs.sol\":2149:2166  qualifications[i] */\n      dup2\n      mload\n      dup2\n      lt\n      tag_86\n      jumpi\n      tag_87\n      tag_55\n      jump\t// in\n    tag_87:\n    tag_86:\n      0x20\n      mul\n      0x20\n      add\n      add\n      mload\n        /* \"contracts/Journal3Jobs.sol\":2126:2167  tempJob.qualifications[qualifications[i]] */\n      dup2\n      mstore\n      0x20\n      add\n      swap1\n      dup2\n      mstore\n      0x20\n      add\n      0x00\n      keccak256\n        /* \"contracts/Journal3Jobs.sol\":2173:2174  0 */\n      0x00\n        /* \"contracts/Journal3Jobs.sol\":2126:2175  tempJob.qualifications[qualifications[i]].push(0) */\n      swap1\n      dup1\n      0x01\n      dup2\n      sload\n      add\n      dup1\n      dup3\n      sstore\n      dup1\n      swap2\n      pop\n      pop\n      0x01\n      swap1\n      sub\n      swap1\n      0x00\n      mstore\n      keccak256(0x00, 0x20)\n      add\n      0x00\n      swap1\n      swap2\n      swap1\n      swap2\n      swap1\n      swap2\n      pop\n      sstore\n        /* \"contracts/Journal3Jobs.sol\":1982:2191  if(tempJob.qualifications[qualifications[i]].length == 0){\r... */\n    tag_82:\n        /* \"contracts/Journal3Jobs.sol\":1728:1731  i++ */\n      dup1\n      dup1\n      tag_89\n      swap1\n      tag_62\n      jump\t// in\n    tag_89:\n      swap2\n      pop\n      pop\n        /* \"contracts/Journal3Jobs.sol\":1688:2202  for (uint i=0; i < qualifications_size; i++){\r... */\n      jump(tag_63)\n    tag_64:\n      pop\n        /* \"contracts/Journal3Jobs.sol\":2232:2237  false */\n      0x00\n        /* \"contracts/Journal3Jobs.sol\":2212:2219  tempJob */\n      dup2\n        /* \"contracts/Journal3Jobs.sol\":2212:2229  tempJob.is_active */\n      0x06\n      add\n      0x00\n        /* \"contracts/Journal3Jobs.sol\":2212:2237  tempJob.is_active = false */\n      0x0100\n      exp\n      dup2\n      sload\n      dup2\n      0xff\n      mul\n      not\n      and\n      swap1\n      dup4\n      iszero\n      iszero\n      mul\n      or\n      swap1\n      sstore\n      pop\n        /* \"contracts/Journal3Jobs.sol\":2269:2270  0 */\n      0x00\n        /* \"contracts/Journal3Jobs.sol\":2248:2255  tempJob */\n      dup2\n        /* \"contracts/Journal3Jobs.sol\":2248:2266  tempJob.jou_staked */\n      0x05\n      add\n        /* \"contracts/Journal3Jobs.sol\":2248:2270  tempJob.jou_staked = 0 */\n      dup2\n      swap1\n      sstore\n      pop\n        /* \"contracts/Journal3Jobs.sol\":2307:2322  closing_indexer */\n      dup3\n        /* \"contracts/Journal3Jobs.sol\":2281:2288  tempJob */\n      dup2\n        /* \"contracts/Journal3Jobs.sol\":2281:2304  tempJob.closing_indexer */\n      0x06\n      add\n      0x01\n        /* \"contracts/Journal3Jobs.sol\":2281:2322  tempJob.closing_indexer = closing_indexer */\n      0x0100\n      exp\n      dup2\n      sload\n      dup2\n      0xffffffffffffffffffffffffffffffffffffffff\n      mul\n      not\n      and\n      swap1\n      dup4\n      0xffffffffffffffffffffffffffffffffffffffff\n      and\n      mul\n      or\n      swap1\n      sstore\n      pop\n        /* \"contracts/Journal3Jobs.sol\":2353:2367  qualifications */\n      dup9\n        /* \"contracts/Journal3Jobs.sol\":2333:2340  tempJob */\n      dup2\n        /* \"contracts/Journal3Jobs.sol\":2333:2350  tempJob.qual_list */\n      0x02\n      add\n        /* \"contracts/Journal3Jobs.sol\":2333:2367  tempJob.qual_list = qualifications */\n      swap1\n      dup1\n      mload\n      swap1\n      0x20\n      add\n      swap1\n      tag_90\n      swap3\n      swap2\n      swap1\n      tag_91\n      jump\t// in\n    tag_90:\n      pop\n        /* \"contracts/Journal3Jobs.sol\":2400:2419  qualifications_size */\n      dup5\n        /* \"contracts/Journal3Jobs.sol\":2378:2385  tempJob */\n      dup2\n        /* \"contracts/Journal3Jobs.sol\":2378:2397  tempJob.qualif_size */\n      0x03\n      add\n        /* \"contracts/Journal3Jobs.sol\":2378:2419  tempJob.qualif_size = qualifications_size */\n      dup2\n      swap1\n      sstore\n      pop\n        /* \"contracts/Journal3Jobs.sol\":2430:2437  job_cnt */\n      0x01\n      0x00\n        /* \"contracts/Journal3Jobs.sol\":2430:2439  job_cnt++ */\n      dup2\n      sload\n      dup1\n      swap3\n      swap2\n      swap1\n      tag_92\n      swap1\n      tag_62\n      jump\t// in\n    tag_92:\n      swap2\n      swap1\n      pop\n      sstore\n      pop\n        /* \"contracts/Journal3Jobs.sol\":2459:2463  true */\n      0x01\n        /* \"contracts/Journal3Jobs.sol\":2452:2463  return true */\n      swap2\n      pop\n      pop\n        /* \"contracts/Journal3Jobs.sol\":1126:2475  function createJob(string memory metadata_ipfs, uint[] memory qualifications, uint[][] memory qualification_filtering, Checkpoints[] memory checkpoints, uint checkpoint_size, uint qualifications_size, uint root, address closing_indexer) public returns(bool){\r... */\n      swap9\n      swap8\n      pop\n      pop\n      pop\n      pop\n      pop\n      pop\n      pop\n      pop\n      jump\t// out\n        /* \"@openzeppelin/contracts/access/Ownable.sol\":1831:1932  function renounceOwnership() public virtual onlyOwner {... */\n    tag_20:\n        /* \"@openzeppelin/contracts/access/Ownable.sol\":1094:1107  _checkOwner() */\n      tag_94\n        /* \"@openzeppelin/contracts/access/Ownable.sol\":1094:1105  _checkOwner */\n      tag_95\n        /* \"@openzeppelin/contracts/access/Ownable.sol\":1094:1107  _checkOwner() */\n      jump\t// in\n    tag_94:\n        /* \"@openzeppelin/contracts/access/Ownable.sol\":1895:1925  _transferOwnership(address(0)) */\n      tag_97\n        /* \"@openzeppelin/contracts/access/Ownable.sol\":1922:1923  0 */\n      0x00\n        /* \"@openzeppelin/contracts/access/Ownable.sol\":1895:1913  _transferOwnership */\n      tag_98\n        /* \"@openzeppelin/contracts/access/Ownable.sol\":1895:1925  _transferOwnership(address(0)) */\n      jump\t// in\n    tag_97:\n        /* \"@openzeppelin/contracts/access/Ownable.sol\":1831:1932  function renounceOwnership() public virtual onlyOwner {... */\n      jump\t// out\n        /* \"@openzeppelin/contracts/access/Ownable.sol\":1201:1286  function owner() public view virtual returns (address) {... */\n    tag_22:\n        /* \"@openzeppelin/contracts/access/Ownable.sol\":1247:1254  address */\n      0x00\n        /* \"@openzeppelin/contracts/access/Ownable.sol\":1273:1279  _owner */\n      dup1\n      0x00\n      swap1\n      sload\n      swap1\n      0x0100\n      exp\n      swap1\n      div\n      0xffffffffffffffffffffffffffffffffffffffff\n      and\n        /* \"@openzeppelin/contracts/access/Ownable.sol\":1266:1279  return _owner */\n      swap1\n      pop\n        /* \"@openzeppelin/contracts/access/Ownable.sol\":1201:1286  function owner() public view virtual returns (address) {... */\n      swap1\n      jump\t// out\n        /* \"contracts/Journal3Jobs.sol\":5165:5339  function claim_royalties_skill_creator() public {\r... */\n    tag_26:\n        /* \"contracts/Journal3Jobs.sol\":5224:5227  jou */\n      0x05\n      0x00\n      swap1\n      sload\n      swap1\n      0x0100\n      exp\n      swap1\n      div\n      0xffffffffffffffffffffffffffffffffffffffff\n      and\n        /* \"contracts/Journal3Jobs.sol\":5224:5236  jou.transfer */\n      0xffffffffffffffffffffffffffffffffffffffff\n      and\n      0xa9059cbb\n        /* \"contracts/Journal3Jobs.sol\":5237:5247  msg.sender */\n      caller\n        /* \"contracts/Journal3Jobs.sol\":5249:5270  skill_creator_rewards */\n      0x03\n        /* \"contracts/Journal3Jobs.sol\":5249:5282  skill_creator_rewards[msg.sender] */\n      0x00\n        /* \"contracts/Journal3Jobs.sol\":5271:5281  msg.sender */\n      caller\n        /* \"contracts/Journal3Jobs.sol\":5249:5282  skill_creator_rewards[msg.sender] */\n      0xffffffffffffffffffffffffffffffffffffffff\n      and\n      0xffffffffffffffffffffffffffffffffffffffff\n      and\n      dup2\n      mstore\n      0x20\n      add\n      swap1\n      dup2\n      mstore\n      0x20\n      add\n      0x00\n      keccak256\n      sload\n        /* \"contracts/Journal3Jobs.sol\":5224:5283  jou.transfer(msg.sender, skill_creator_rewards[msg.sender]) */\n      mload(0x40)\n      dup4\n      0xffffffff\n      and\n      0xe0\n      shl\n      dup2\n      mstore\n      0x04\n      add\n      tag_101\n      swap3\n      swap2\n      swap1\n      tag_102\n      jump\t// in\n    tag_101:\n      0x20\n      mload(0x40)\n      dup1\n      dup4\n      sub\n      dup2\n      0x00\n      dup8\n      dup1\n      extcodesize\n      iszero\n      dup1\n      iszero\n      tag_103\n      jumpi\n      0x00\n      dup1\n      revert\n    tag_103:\n      pop\n      gas\n      call\n      iszero\n      dup1\n      iszero\n      tag_105\n      jumpi\n      returndatasize\n      0x00\n      dup1\n      returndatacopy\n      revert(0x00, returndatasize)\n    tag_105:\n      pop\n      pop\n      pop\n      pop\n      mload(0x40)\n      returndatasize\n      not(0x1f)\n      0x1f\n      dup3\n      add\n      and\n      dup3\n      add\n      dup1\n      0x40\n      mstore\n      pop\n      dup2\n      add\n      swap1\n      tag_106\n      swap2\n      swap1\n      tag_107\n      jump\t// in\n    tag_106:\n      pop\n        /* \"contracts/Journal3Jobs.sol\":5330:5331  0 */\n      0x00\n        /* \"contracts/Journal3Jobs.sol\":5294:5315  skill_creator_rewards */\n      0x03\n        /* \"contracts/Journal3Jobs.sol\":5294:5327  skill_creator_rewards[msg.sender] */\n      0x00\n        /* \"contracts/Journal3Jobs.sol\":5316:5326  msg.sender */\n      caller\n        /* \"contracts/Journal3Jobs.sol\":5294:5327  skill_creator_rewards[msg.sender] */\n      0xffffffffffffffffffffffffffffffffffffffff\n      and\n      0xffffffffffffffffffffffffffffffffffffffff\n      and\n      dup2\n      mstore\n      0x20\n      add\n      swap1\n      dup2\n      mstore\n      0x20\n      add\n      0x00\n      keccak256\n        /* \"contracts/Journal3Jobs.sol\":5294:5331  skill_creator_rewards[msg.sender] = 0 */\n      dup2\n      swap1\n      sstore\n      pop\n        /* \"contracts/Journal3Jobs.sol\":5165:5339  function claim_royalties_skill_creator() public {\r... */\n      jump\t// out\n        /* \"contracts/Journal3Jobs.sol\":2988:4000  function apply_job(uint idx) public {\r... */\n    tag_30:\n        /* \"contracts/Journal3Jobs.sol\":3068:3072  true */\n      0x01\n        /* \"contracts/Journal3Jobs.sol\":3043:3072  all_jobs[idx].is_active==true */\n      iszero\n      iszero\n        /* \"contracts/Journal3Jobs.sol\":3043:3051  all_jobs */\n      0x02\n        /* \"contracts/Journal3Jobs.sol\":3043:3056  all_jobs[idx] */\n      0x00\n        /* \"contracts/Journal3Jobs.sol\":3052:3055  idx */\n      dup4\n        /* \"contracts/Journal3Jobs.sol\":3043:3056  all_jobs[idx] */\n      dup2\n      mstore\n      0x20\n      add\n      swap1\n      dup2\n      mstore\n      0x20\n      add\n      0x00\n      keccak256\n        /* \"contracts/Journal3Jobs.sol\":3043:3066  all_jobs[idx].is_active */\n      0x06\n      add\n      0x00\n      swap1\n      sload\n      swap1\n      0x0100\n      exp\n      swap1\n      div\n      0xff\n      and\n        /* \"contracts/Journal3Jobs.sol\":3043:3072  all_jobs[idx].is_active==true */\n      iszero\n      iszero\n      eq\n        /* \"contracts/Journal3Jobs.sol\":3035:3096  require(all_jobs[idx].is_active==true, \"Job is not open yet\") */\n      tag_109\n      jumpi\n      mload(0x40)\n      0x08c379a000000000000000000000000000000000000000000000000000000000\n      dup2\n      mstore\n      0x04\n      add\n      tag_110\n      swap1\n      tag_111\n      jump\t// in\n    tag_110:\n      mload(0x40)\n      dup1\n      swap2\n      sub\n      swap1\n      revert\n    tag_109:\n        /* \"contracts/Journal3Jobs.sol\":3141:3142  0 */\n      0x00\n        /* \"contracts/Journal3Jobs.sol\":3115:3123  all_jobs */\n      0x02\n        /* \"contracts/Journal3Jobs.sol\":3115:3128  all_jobs[idx] */\n      0x00\n        /* \"contracts/Journal3Jobs.sol\":3124:3127  idx */\n      dup4\n        /* \"contracts/Journal3Jobs.sol\":3115:3128  all_jobs[idx] */\n      dup2\n      mstore\n      0x20\n      add\n      swap1\n      dup2\n      mstore\n      0x20\n      add\n      0x00\n      keccak256\n        /* \"contracts/Journal3Jobs.sol\":3115:3139  all_jobs[idx].jou_staked */\n      0x05\n      add\n      sload\n        /* \"contracts/Journal3Jobs.sol\":3115:3142  all_jobs[idx].jou_staked!=0 */\n      eq\n      iszero\n        /* \"contracts/Journal3Jobs.sol\":3107:3180  require(all_jobs[idx].jou_staked!=0, \"Job not accepting more applicants\") */\n      tag_112\n      jumpi\n      mload(0x40)\n      0x08c379a000000000000000000000000000000000000000000000000000000000\n      dup2\n      mstore\n      0x04\n      add\n      tag_113\n      swap1\n      tag_114\n      jump\t// in\n    tag_113:\n      mload(0x40)\n      dup1\n      swap2\n      sub\n      swap1\n      revert\n    tag_112:\n        /* \"contracts/Journal3Jobs.sol\":3193:3206  uint currnode */\n      0x00\n        /* \"contracts/Journal3Jobs.sol\":3209:3217  all_jobs */\n      0x02\n        /* \"contracts/Journal3Jobs.sol\":3209:3222  all_jobs[idx] */\n      0x00\n        /* \"contracts/Journal3Jobs.sol\":3218:3221  idx */\n      dup4\n        /* \"contracts/Journal3Jobs.sol\":3209:3222  all_jobs[idx] */\n      dup2\n      mstore\n      0x20\n      add\n      swap1\n      dup2\n      mstore\n      0x20\n      add\n      0x00\n      keccak256\n        /* \"contracts/Journal3Jobs.sol\":3209:3227  all_jobs[idx].root */\n      0x07\n      add\n      sload\n        /* \"contracts/Journal3Jobs.sol\":3193:3227  uint currnode = all_jobs[idx].root */\n      swap1\n      pop\n        /* \"contracts/Journal3Jobs.sol\":3248:3993  while (currnode!=0){\r... */\n    tag_115:\n        /* \"contracts/Journal3Jobs.sol\":3265:3266  0 */\n      0x00\n        /* \"contracts/Journal3Jobs.sol\":3255:3263  currnode */\n      dup2\n        /* \"contracts/Journal3Jobs.sol\":3255:3266  currnode!=0 */\n      eq\n        /* \"contracts/Journal3Jobs.sol\":3248:3993  while (currnode!=0){\r... */\n      tag_116\n      jumpi\n        /* \"contracts/Journal3Jobs.sol\":3331:3332  1 */\n      0x01\n        /* \"contracts/Journal3Jobs.sol\":3286:3297  skills_repo */\n      0x06\n      0x00\n      swap1\n      sload\n      swap1\n      0x0100\n      exp\n      swap1\n      div\n      0xffffffffffffffffffffffffffffffffffffffff\n      and\n        /* \"contracts/Journal3Jobs.sol\":3286:3307  skills_repo.balanceOf */\n      0xffffffffffffffffffffffffffffffffffffffff\n      and\n      0xfdd58e\n        /* \"contracts/Journal3Jobs.sol\":3308:3318  msg.sender */\n      caller\n        /* \"contracts/Journal3Jobs.sol\":3320:3328  currnode */\n      dup5\n        /* \"contracts/Journal3Jobs.sol\":3286:3329  skills_repo.balanceOf(msg.sender, currnode) */\n      mload(0x40)\n      dup4\n      0xffffffff\n      and\n      0xe0\n      shl\n      dup2\n      mstore\n      0x04\n      add\n      tag_117\n      swap3\n      swap2\n      swap1\n      tag_102\n      jump\t// in\n    tag_117:\n      0x20\n      mload(0x40)\n      dup1\n      dup4\n      sub\n      dup2\n      dup7\n      dup1\n      extcodesize\n      iszero\n      dup1\n      iszero\n      tag_118\n      jumpi\n      0x00\n      dup1\n      revert\n    tag_118:\n      pop\n      gas\n      staticcall\n      iszero\n      dup1\n      iszero\n      tag_120\n      jumpi\n      returndatasize\n      0x00\n      dup1\n      returndatacopy\n      revert(0x00, returndatasize)\n    tag_120:\n      pop\n      pop\n      pop\n      pop\n      mload(0x40)\n      returndatasize\n      not(0x1f)\n      0x1f\n      dup3\n      add\n      and\n      dup3\n      add\n      dup1\n      0x40\n      mstore\n      pop\n      dup2\n      add\n      swap1\n      tag_121\n      swap2\n      swap1\n      tag_122\n      jump\t// in\n    tag_121:\n        /* \"contracts/Journal3Jobs.sol\":3286:3332  skills_repo.balanceOf(msg.sender, currnode)==1 */\n      eq\n        /* \"contracts/Journal3Jobs.sol\":3282:3982  if (skills_repo.balanceOf(msg.sender, currnode)==1){\r... */\n      iszero\n      tag_123\n      jumpi\n        /* \"contracts/Journal3Jobs.sol\":3363:3371  all_jobs */\n      0x02\n        /* \"contracts/Journal3Jobs.sol\":3363:3376  all_jobs[idx] */\n      0x00\n        /* \"contracts/Journal3Jobs.sol\":3372:3375  idx */\n      dup4\n        /* \"contracts/Journal3Jobs.sol\":3363:3376  all_jobs[idx] */\n      dup2\n      mstore\n      0x20\n      add\n      swap1\n      dup2\n      mstore\n      0x20\n      add\n      0x00\n      keccak256\n        /* \"contracts/Journal3Jobs.sol\":3363:3391  all_jobs[idx].qualifications */\n      0x01\n      add\n        /* \"contracts/Journal3Jobs.sol\":3363:3401  all_jobs[idx].qualifications[currnode] */\n      0x00\n        /* \"contracts/Journal3Jobs.sol\":3392:3400  currnode */\n      dup3\n        /* \"contracts/Journal3Jobs.sol\":3363:3401  all_jobs[idx].qualifications[currnode] */\n      dup2\n      mstore\n      0x20\n      add\n      swap1\n      dup2\n      mstore\n      0x20\n      add\n      0x00\n      keccak256\n        /* \"contracts/Journal3Jobs.sol\":3402:3403  0 */\n      0x00\n        /* \"contracts/Journal3Jobs.sol\":3363:3404  all_jobs[idx].qualifications[currnode][0] */\n      dup2\n      sload\n      dup2\n      lt\n      tag_124\n      jumpi\n      tag_125\n      tag_55\n      jump\t// in\n    tag_125:\n    tag_124:\n      swap1\n      0x00\n      mstore\n      keccak256(0x00, 0x20)\n      add\n      sload\n        /* \"contracts/Journal3Jobs.sol\":3352:3404  currnode = all_jobs[idx].qualifications[currnode][0] */\n      swap1\n      pop\n        /* \"contracts/Journal3Jobs.sol\":3486:3494  currnode */\n      dup1\n        /* \"contracts/Journal3Jobs.sol\":3426:3434  all_jobs */\n      0x02\n        /* \"contracts/Journal3Jobs.sol\":3426:3439  all_jobs[idx] */\n      0x00\n        /* \"contracts/Journal3Jobs.sol\":3435:3438  idx */\n      dup5\n        /* \"contracts/Journal3Jobs.sol\":3426:3439  all_jobs[idx] */\n      dup2\n      mstore\n      0x20\n      add\n      swap1\n      dup2\n      mstore\n      0x20\n      add\n      0x00\n      keccak256\n        /* \"contracts/Journal3Jobs.sol\":3426:3458  all_jobs[idx].candidate_profiles */\n      0x04\n      add\n        /* \"contracts/Journal3Jobs.sol\":3426:3468  all_jobs[idx].candidate_profiles[currnode] */\n      0x00\n        /* \"contracts/Journal3Jobs.sol\":3459:3467  currnode */\n      dup4\n        /* \"contracts/Journal3Jobs.sol\":3426:3468  all_jobs[idx].candidate_profiles[currnode] */\n      dup2\n      mstore\n      0x20\n      add\n      swap1\n      dup2\n      mstore\n      0x20\n      add\n      0x00\n      keccak256\n        /* \"contracts/Journal3Jobs.sol\":3426:3484  all_jobs[idx].candidate_profiles[currnode].checkpoint_addr */\n      0x00\n      add\n      sload\n        /* \"contracts/Journal3Jobs.sol\":3426:3494  all_jobs[idx].candidate_profiles[currnode].checkpoint_addr==currnode */\n      eq\n        /* \"contracts/Journal3Jobs.sol\":3423:3608  if(all_jobs[idx].candidate_profiles[currnode].checkpoint_addr==currnode){\r... */\n      iszero\n      tag_127\n      jumpi\n        /* \"contracts/Journal3Jobs.sol\":3518:3526  all_jobs */\n      0x02\n        /* \"contracts/Journal3Jobs.sol\":3518:3531  all_jobs[idx] */\n      0x00\n        /* \"contracts/Journal3Jobs.sol\":3527:3530  idx */\n      dup4\n        /* \"contracts/Journal3Jobs.sol\":3518:3531  all_jobs[idx] */\n      dup2\n      mstore\n      0x20\n      add\n      swap1\n      dup2\n      mstore\n      0x20\n      add\n      0x00\n      keccak256\n        /* \"contracts/Journal3Jobs.sol\":3518:3550  all_jobs[idx].candidate_profiles */\n      0x04\n      add\n        /* \"contracts/Journal3Jobs.sol\":3518:3560  all_jobs[idx].candidate_profiles[currnode] */\n      0x00\n        /* \"contracts/Journal3Jobs.sol\":3551:3559  currnode */\n      dup3\n        /* \"contracts/Journal3Jobs.sol\":3518:3560  all_jobs[idx].candidate_profiles[currnode] */\n      dup2\n      mstore\n      0x20\n      add\n      swap1\n      dup2\n      mstore\n      0x20\n      add\n      0x00\n      keccak256\n        /* \"contracts/Journal3Jobs.sol\":3518:3571  all_jobs[idx].candidate_profiles[currnode].candidates */\n      0x02\n      add\n        /* \"contracts/Journal3Jobs.sol\":3577:3587  msg.sender */\n      caller\n        /* \"contracts/Journal3Jobs.sol\":3518:3588  all_jobs[idx].candidate_profiles[currnode].candidates.push(msg.sender) */\n      swap1\n      dup1\n      0x01\n      dup2\n      sload\n      add\n      dup1\n      dup3\n      sstore\n      dup1\n      swap2\n      pop\n      pop\n      0x01\n      swap1\n      sub\n      swap1\n      0x00\n      mstore\n      keccak256(0x00, 0x20)\n      add\n      0x00\n      swap1\n      swap2\n      swap1\n      swap2\n      swap1\n      swap2\n      0x0100\n      exp\n      dup2\n      sload\n      dup2\n      0xffffffffffffffffffffffffffffffffffffffff\n      mul\n      not\n      and\n      swap1\n      dup4\n      0xffffffffffffffffffffffffffffffffffffffff\n      and\n      mul\n      or\n      swap1\n      sstore\n      pop\n        /* \"contracts/Journal3Jobs.sol\":3423:3608  if(all_jobs[idx].candidate_profiles[currnode].checkpoint_addr==currnode){\r... */\n    tag_127:\n        /* \"contracts/Journal3Jobs.sol\":3626:3650  uint skill_creation_fees */\n      0x00\n        /* \"contracts/Journal3Jobs.sol\":3678:3684  400000 */\n      0x061a80\n        /* \"contracts/Journal3Jobs.sol\":3653:3661  all_jobs */\n      0x02\n        /* \"contracts/Journal3Jobs.sol\":3653:3666  all_jobs[idx] */\n      0x00\n        /* \"contracts/Journal3Jobs.sol\":3662:3665  idx */\n      dup6\n        /* \"contracts/Journal3Jobs.sol\":3653:3666  all_jobs[idx] */\n      dup2\n      mstore\n      0x20\n      add\n      swap1\n      dup2\n      mstore\n      0x20\n      add\n      0x00\n      keccak256\n        /* \"contracts/Journal3Jobs.sol\":3653:3677  all_jobs[idx].jou_staked */\n      0x05\n      add\n      sload\n        /* \"contracts/Journal3Jobs.sol\":3653:3684  all_jobs[idx].jou_staked/400000 */\n      tag_129\n      swap2\n      swap1\n      tag_130\n      jump\t// in\n    tag_129:\n        /* \"contracts/Journal3Jobs.sol\":3626:3684  uint skill_creation_fees = all_jobs[idx].jou_staked/400000 */\n      swap1\n      pop\n        /* \"contracts/Journal3Jobs.sol\":3776:3795  skill_creation_fees */\n      dup1\n        /* \"contracts/Journal3Jobs.sol\":3703:3724  skill_creator_rewards */\n      0x03\n        /* \"contracts/Journal3Jobs.sol\":3703:3772  skill_creator_rewards[skills_repo.get_creator_token_id_map(currnode)] */\n      0x00\n        /* \"contracts/Journal3Jobs.sol\":3725:3736  skills_repo */\n      0x06\n      0x00\n      swap1\n      sload\n      swap1\n      0x0100\n      exp\n      swap1\n      div\n      0xffffffffffffffffffffffffffffffffffffffff\n      and\n        /* \"contracts/Journal3Jobs.sol\":3725:3761  skills_repo.get_creator_token_id_map */\n      0xffffffffffffffffffffffffffffffffffffffff\n      and\n      0x25e56054\n        /* \"contracts/Journal3Jobs.sol\":3762:3770  currnode */\n      dup7\n        /* \"contracts/Journal3Jobs.sol\":3725:3771  skills_repo.get_creator_token_id_map(currnode) */\n      mload(0x40)\n      dup3\n      0xffffffff\n      and\n      0xe0\n      shl\n      dup2\n      mstore\n      0x04\n      add\n      tag_131\n      swap2\n      swap1\n      tag_132\n      jump\t// in\n    tag_131:\n      0x20\n      mload(0x40)\n      dup1\n      dup4\n      sub\n      dup2\n      dup7\n      dup1\n      extcodesize\n      iszero\n      dup1\n      iszero\n      tag_133\n      jumpi\n      0x00\n      dup1\n      revert\n    tag_133:\n      pop\n      gas\n      staticcall\n      iszero\n      dup1\n      iszero\n      tag_135\n      jumpi\n      returndatasize\n      0x00\n      dup1\n      returndatacopy\n      revert(0x00, returndatasize)\n    tag_135:\n      pop\n      pop\n      pop\n      pop\n      mload(0x40)\n      returndatasize\n      not(0x1f)\n      0x1f\n      dup3\n      add\n      and\n      dup3\n      add\n      dup1\n      0x40\n      mstore\n      pop\n      dup2\n      add\n      swap1\n      tag_136\n      swap2\n      swap1\n      tag_137\n      jump\t// in\n    tag_136:\n        /* \"contracts/Journal3Jobs.sol\":3703:3772  skill_creator_rewards[skills_repo.get_creator_token_id_map(currnode)] */\n      0xffffffffffffffffffffffffffffffffffffffff\n      and\n      0xffffffffffffffffffffffffffffffffffffffff\n      and\n      dup2\n      mstore\n      0x20\n      add\n      swap1\n      dup2\n      mstore\n      0x20\n      add\n      0x00\n      keccak256\n      0x00\n        /* \"contracts/Journal3Jobs.sol\":3703:3795  skill_creator_rewards[skills_repo.get_creator_token_id_map(currnode)] += skill_creation_fees */\n      dup3\n      dup3\n      sload\n      tag_138\n      swap2\n      swap1\n      tag_139\n      jump\t// in\n    tag_138:\n      swap3\n      pop\n      pop\n      dup2\n      swap1\n      sstore\n      pop\n        /* \"contracts/Journal3Jobs.sol\":3842:3861  skill_creation_fees */\n      dup1\n        /* \"contracts/Journal3Jobs.sol\":3814:3822  all_jobs */\n      0x02\n        /* \"contracts/Journal3Jobs.sol\":3814:3827  all_jobs[idx] */\n      0x00\n        /* \"contracts/Journal3Jobs.sol\":3823:3826  idx */\n      dup6\n        /* \"contracts/Journal3Jobs.sol\":3814:3827  all_jobs[idx] */\n      dup2\n      mstore\n      0x20\n      add\n      swap1\n      dup2\n      mstore\n      0x20\n      add\n      0x00\n      keccak256\n        /* \"contracts/Journal3Jobs.sol\":3814:3838  all_jobs[idx].jou_staked */\n      0x05\n      add\n      0x00\n        /* \"contracts/Journal3Jobs.sol\":3814:3861  all_jobs[idx].jou_staked -= skill_creation_fees */\n      dup3\n      dup3\n      sload\n      tag_140\n      swap2\n      swap1\n      tag_141\n      jump\t// in\n    tag_140:\n      swap3\n      pop\n      pop\n      dup2\n      swap1\n      sstore\n      pop\n        /* \"contracts/Journal3Jobs.sol\":3333:3877  {\r... */\n      pop\n        /* \"contracts/Journal3Jobs.sol\":3282:3982  if (skills_repo.balanceOf(msg.sender, currnode)==1){\r... */\n      jump(tag_142)\n    tag_123:\n        /* \"contracts/Journal3Jobs.sol\":3925:3933  all_jobs */\n      0x02\n        /* \"contracts/Journal3Jobs.sol\":3925:3938  all_jobs[idx] */\n      0x00\n        /* \"contracts/Journal3Jobs.sol\":3934:3937  idx */\n      dup4\n        /* \"contracts/Journal3Jobs.sol\":3925:3938  all_jobs[idx] */\n      dup2\n      mstore\n      0x20\n      add\n      swap1\n      dup2\n      mstore\n      0x20\n      add\n      0x00\n      keccak256\n        /* \"contracts/Journal3Jobs.sol\":3925:3953  all_jobs[idx].qualifications */\n      0x01\n      add\n        /* \"contracts/Journal3Jobs.sol\":3925:3963  all_jobs[idx].qualifications[currnode] */\n      0x00\n        /* \"contracts/Journal3Jobs.sol\":3954:3962  currnode */\n      dup3\n        /* \"contracts/Journal3Jobs.sol\":3925:3963  all_jobs[idx].qualifications[currnode] */\n      dup2\n      mstore\n      0x20\n      add\n      swap1\n      dup2\n      mstore\n      0x20\n      add\n      0x00\n      keccak256\n        /* \"contracts/Journal3Jobs.sol\":3964:3965  1 */\n      0x01\n        /* \"contracts/Journal3Jobs.sol\":3925:3966  all_jobs[idx].qualifications[currnode][1] */\n      dup2\n      sload\n      dup2\n      lt\n      tag_143\n      jumpi\n      tag_144\n      tag_55\n      jump\t// in\n    tag_144:\n    tag_143:\n      swap1\n      0x00\n      mstore\n      keccak256(0x00, 0x20)\n      add\n      sload\n        /* \"contracts/Journal3Jobs.sol\":3914:3966  currnode = all_jobs[idx].qualifications[currnode][1] */\n      swap1\n      pop\n        /* \"contracts/Journal3Jobs.sol\":3282:3982  if (skills_repo.balanceOf(msg.sender, currnode)==1){\r... */\n    tag_142:\n        /* \"contracts/Journal3Jobs.sol\":3248:3993  while (currnode!=0){\r... */\n      jump(tag_115)\n    tag_116:\n        /* \"contracts/Journal3Jobs.sol\":3024:4000  {\r... */\n      pop\n        /* \"contracts/Journal3Jobs.sol\":2988:4000  function apply_job(uint idx) public {\r... */\n      pop\n      jump\t// out\n        /* \"contracts/Journal3Jobs.sol\":2483:2976  function stake_jou_job(uint idx, uint amount) public {\r... */\n    tag_34:\n        /* \"contracts/Journal3Jobs.sol\":2564:2565  0 */\n      0x00\n        /* \"contracts/Journal3Jobs.sol\":2555:2561  amount */\n      dup2\n        /* \"contracts/Journal3Jobs.sol\":2555:2565  amount > 0 */\n      gt\n        /* \"contracts/Journal3Jobs.sol\":2547:2592  require(amount > 0, \"InvalidAmountException\") */\n      tag_147\n      jumpi\n      mload(0x40)\n      0x08c379a000000000000000000000000000000000000000000000000000000000\n      dup2\n      mstore\n      0x04\n      add\n      tag_148\n      swap1\n      tag_149\n      jump\t// in\n    tag_148:\n      mload(0x40)\n      dup1\n      swap2\n      sub\n      swap1\n      revert\n    tag_147:\n        /* \"contracts/Journal3Jobs.sol\":2603:2620  uint256 allowance */\n      0x00\n        /* \"contracts/Journal3Jobs.sol\":2623:2626  jou */\n      0x05\n      0x00\n      swap1\n      sload\n      swap1\n      0x0100\n      exp\n      swap1\n      div\n      0xffffffffffffffffffffffffffffffffffffffff\n      and\n        /* \"contracts/Journal3Jobs.sol\":2623:2636  jou.allowance */\n      0xffffffffffffffffffffffffffffffffffffffff\n      and\n      0xdd62ed3e\n        /* \"contracts/Journal3Jobs.sol\":2637:2647  msg.sender */\n      caller\n        /* \"contracts/Journal3Jobs.sol\":2657:2661  this */\n      address\n        /* \"contracts/Journal3Jobs.sol\":2623:2663  jou.allowance(msg.sender, address(this)) */\n      mload(0x40)\n      dup4\n      0xffffffff\n      and\n      0xe0\n      shl\n      dup2\n      mstore\n      0x04\n      add\n      tag_150\n      swap3\n      swap2\n      swap1\n      tag_151\n      jump\t// in\n    tag_150:\n      0x20\n      mload(0x40)\n      dup1\n      dup4\n      sub\n      dup2\n      dup7\n      dup1\n      extcodesize\n      iszero\n      dup1\n      iszero\n      tag_152\n      jumpi\n      0x00\n      dup1\n      revert\n    tag_152:\n      pop\n      gas\n      staticcall\n      iszero\n      dup1\n      iszero\n      tag_154\n      jumpi\n      returndatasize\n      0x00\n      dup1\n      returndatacopy\n      revert(0x00, returndatasize)\n    tag_154:\n      pop\n      pop\n      pop\n      pop\n      mload(0x40)\n      returndatasize\n      not(0x1f)\n      0x1f\n      dup3\n      add\n      and\n      dup3\n      add\n      dup1\n      0x40\n      mstore\n      pop\n      dup2\n      add\n      swap1\n      tag_155\n      swap2\n      swap1\n      tag_122\n      jump\t// in\n    tag_155:\n        /* \"contracts/Journal3Jobs.sol\":2603:2663  uint256 allowance = jou.allowance(msg.sender, address(this)) */\n      swap1\n      pop\n        /* \"contracts/Journal3Jobs.sol\":2695:2701  amount */\n      dup2\n        /* \"contracts/Journal3Jobs.sol\":2682:2691  allowance */\n      dup2\n        /* \"contracts/Journal3Jobs.sol\":2682:2701  allowance >= amount */\n      lt\n      iszero\n        /* \"contracts/Journal3Jobs.sol\":2674:2724  require(allowance >= amount, \"AllowanceException\") */\n      tag_156\n      jumpi\n      mload(0x40)\n      0x08c379a000000000000000000000000000000000000000000000000000000000\n      dup2\n      mstore\n      0x04\n      add\n      tag_157\n      swap1\n      tag_158\n      jump\t// in\n    tag_157:\n      mload(0x40)\n      dup1\n      swap2\n      sub\n      swap1\n      revert\n    tag_156:\n        /* \"contracts/Journal3Jobs.sol\":2735:2738  jou */\n      0x05\n      0x00\n      swap1\n      sload\n      swap1\n      0x0100\n      exp\n      swap1\n      div\n      0xffffffffffffffffffffffffffffffffffffffff\n      and\n        /* \"contracts/Journal3Jobs.sol\":2735:2751  jou.transferFrom */\n      0xffffffffffffffffffffffffffffffffffffffff\n      and\n      0x23b872dd\n        /* \"contracts/Journal3Jobs.sol\":2752:2762  msg.sender */\n      caller\n        /* \"contracts/Journal3Jobs.sol\":2772:2776  this */\n      address\n        /* \"contracts/Journal3Jobs.sol\":2779:2785  amount */\n      dup6\n        /* \"contracts/Journal3Jobs.sol\":2735:2786  jou.transferFrom(msg.sender, address(this), amount) */\n      mload(0x40)\n      dup5\n      0xffffffff\n      and\n      0xe0\n      shl\n      dup2\n      mstore\n      0x04\n      add\n      tag_159\n      swap4\n      swap3\n      swap2\n      swap1\n      tag_160\n      jump\t// in\n    tag_159:\n      0x20\n      mload(0x40)\n      dup1\n      dup4\n      sub\n      dup2\n      0x00\n      dup8\n      dup1\n      extcodesize\n      iszero\n      dup1\n      iszero\n      tag_161\n      jumpi\n      0x00\n      dup1\n      revert\n    tag_161:\n      pop\n      gas\n      call\n      iszero\n      dup1\n      iszero\n      tag_163\n      jumpi\n      returndatasize\n      0x00\n      dup1\n      returndatacopy\n      revert(0x00, returndatasize)\n    tag_163:\n      pop\n      pop\n      pop\n      pop\n      mload(0x40)\n      returndatasize\n      not(0x1f)\n      0x1f\n      dup3\n      add\n      and\n      dup3\n      add\n      dup1\n      0x40\n      mstore\n      pop\n      dup2\n      add\n      swap1\n      tag_164\n      swap2\n      swap1\n      tag_107\n      jump\t// in\n    tag_164:\n      pop\n        /* \"contracts/Journal3Jobs.sol\":2805:2815  msg.sender */\n      caller\n        /* \"contracts/Journal3Jobs.sol\":2797:2825  payable(msg.sender).transfer */\n      0xffffffffffffffffffffffffffffffffffffffff\n      and\n        /* \"contracts/Journal3Jobs.sol\":2797:2833  payable(msg.sender).transfer(amount) */\n      0x08fc\n        /* \"contracts/Journal3Jobs.sol\":2826:2832  amount */\n      dup4\n        /* \"contracts/Journal3Jobs.sol\":2797:2833  payable(msg.sender).transfer(amount) */\n      swap1\n      dup2\n      iszero\n      mul\n      swap1\n      mload(0x40)\n      0x00\n      mload(0x40)\n      dup1\n      dup4\n      sub\n      dup2\n      dup6\n      dup9\n      dup9\n      call\n      swap4\n      pop\n      pop\n      pop\n      pop\n      iszero\n      dup1\n      iszero\n      tag_166\n      jumpi\n      returndatasize\n      0x00\n      dup1\n      returndatacopy\n      revert(0x00, returndatasize)\n    tag_166:\n      pop\n        /* \"contracts/Journal3Jobs.sol\":2872:2878  amount */\n      dup2\n        /* \"contracts/Journal3Jobs.sol\":2844:2852  all_jobs */\n      0x02\n        /* \"contracts/Journal3Jobs.sol\":2844:2857  all_jobs[idx] */\n      0x00\n        /* \"contracts/Journal3Jobs.sol\":2853:2856  idx */\n      dup6\n        /* \"contracts/Journal3Jobs.sol\":2844:2857  all_jobs[idx] */\n      dup2\n      mstore\n      0x20\n      add\n      swap1\n      dup2\n      mstore\n      0x20\n      add\n      0x00\n      keccak256\n        /* \"contracts/Journal3Jobs.sol\":2844:2868  all_jobs[idx].jou_staked */\n      0x05\n      add\n      0x00\n        /* \"contracts/Journal3Jobs.sol\":2844:2878  all_jobs[idx].jou_staked += amount */\n      dup3\n      dup3\n      sload\n      tag_167\n      swap2\n      swap1\n      tag_139\n      jump\t// in\n    tag_167:\n      swap3\n      pop\n      pop\n      dup2\n      swap1\n      sstore\n      pop\n        /* \"contracts/Journal3Jobs.sol\":2915:2919  true */\n      0x01\n        /* \"contracts/Journal3Jobs.sol\":2889:2897  all_jobs */\n      0x02\n        /* \"contracts/Journal3Jobs.sol\":2889:2902  all_jobs[idx] */\n      0x00\n        /* \"contracts/Journal3Jobs.sol\":2898:2901  idx */\n      dup6\n        /* \"contracts/Journal3Jobs.sol\":2889:2902  all_jobs[idx] */\n      dup2\n      mstore\n      0x20\n      add\n      swap1\n      dup2\n      mstore\n      0x20\n      add\n      0x00\n      keccak256\n        /* \"contracts/Journal3Jobs.sol\":2889:2912  all_jobs[idx].is_active */\n      0x06\n      add\n      0x00\n        /* \"contracts/Journal3Jobs.sol\":2889:2919  all_jobs[idx].is_active = true */\n      0x0100\n      exp\n      dup2\n      sload\n      dup2\n      0xff\n      mul\n      not\n      and\n      swap1\n      dup4\n      iszero\n      iszero\n      mul\n      or\n      swap1\n      sstore\n      pop\n        /* \"contracts/Journal3Jobs.sol\":2935:2966  staking_successful(idx, amount) */\n      0x21f9bb95ea07d82a536314fd89080112cda91fc68b6e0a77ced196a3a291e1c9\n        /* \"contracts/Journal3Jobs.sol\":2954:2957  idx */\n      dup4\n        /* \"contracts/Journal3Jobs.sol\":2959:2965  amount */\n      dup4\n        /* \"contracts/Journal3Jobs.sol\":2935:2966  staking_successful(idx, amount) */\n      mload(0x40)\n      tag_168\n      swap3\n      swap2\n      swap1\n      tag_169\n      jump\t// in\n    tag_168:\n      mload(0x40)\n      dup1\n      swap2\n      sub\n      swap1\n      log1\n        /* \"contracts/Journal3Jobs.sol\":2536:2976  {\r... */\n      pop\n        /* \"contracts/Journal3Jobs.sol\":2483:2976  function stake_jou_job(uint idx, uint amount) public {\r... */\n      pop\n      pop\n      jump\t// out\n        /* \"contracts/Journal3Jobs.sol\":4009:5157  function close_job(uint idx) public {\r... */\n    tag_37:\n        /* \"contracts/Journal3Jobs.sol\":4076:4083  owner() */\n      tag_171\n        /* \"contracts/Journal3Jobs.sol\":4076:4081  owner */\n      tag_22\n        /* \"contracts/Journal3Jobs.sol\":4076:4083  owner() */\n      jump\t// in\n    tag_171:\n        /* \"contracts/Journal3Jobs.sol\":4064:4083  msg.sender==owner() */\n      0xffffffffffffffffffffffffffffffffffffffff\n      and\n        /* \"contracts/Journal3Jobs.sol\":4064:4074  msg.sender */\n      caller\n        /* \"contracts/Journal3Jobs.sol\":4064:4083  msg.sender==owner() */\n      0xffffffffffffffffffffffffffffffffffffffff\n      and\n      eq\n        /* \"contracts/Journal3Jobs.sol\":4064:4128  msg.sender==owner()\t|| msg.sender==all_jobs[idx].closing_indexer */\n      dup1\n      tag_172\n      jumpi\n      pop\n        /* \"contracts/Journal3Jobs.sol\":4099:4107  all_jobs */\n      0x02\n        /* \"contracts/Journal3Jobs.sol\":4099:4112  all_jobs[idx] */\n      0x00\n        /* \"contracts/Journal3Jobs.sol\":4108:4111  idx */\n      dup3\n        /* \"contracts/Journal3Jobs.sol\":4099:4112  all_jobs[idx] */\n      dup2\n      mstore\n      0x20\n      add\n      swap1\n      dup2\n      mstore\n      0x20\n      add\n      0x00\n      keccak256\n        /* \"contracts/Journal3Jobs.sol\":4099:4128  all_jobs[idx].closing_indexer */\n      0x06\n      add\n      0x01\n      swap1\n      sload\n      swap1\n      0x0100\n      exp\n      swap1\n      div\n      0xffffffffffffffffffffffffffffffffffffffff\n      and\n        /* \"contracts/Journal3Jobs.sol\":4087:4128  msg.sender==all_jobs[idx].closing_indexer */\n      0xffffffffffffffffffffffffffffffffffffffff\n      and\n        /* \"contracts/Journal3Jobs.sol\":4087:4097  msg.sender */\n      caller\n        /* \"contracts/Journal3Jobs.sol\":4087:4128  msg.sender==all_jobs[idx].closing_indexer */\n      0xffffffffffffffffffffffffffffffffffffffff\n      and\n      eq\n        /* \"contracts/Journal3Jobs.sol\":4064:4128  msg.sender==owner()\t|| msg.sender==all_jobs[idx].closing_indexer */\n    tag_172:\n        /* \"contracts/Journal3Jobs.sol\":4056:4152  require(msg.sender==owner()\t|| msg.sender==all_jobs[idx].closing_indexer, \"Unauthorized Closer\") */\n      tag_173\n      jumpi\n      mload(0x40)\n      0x08c379a000000000000000000000000000000000000000000000000000000000\n      dup2\n      mstore\n      0x04\n      add\n      tag_174\n      swap1\n      tag_175\n      jump\t// in\n    tag_174:\n      mload(0x40)\n      dup1\n      swap2\n      sub\n      swap1\n      revert\n    tag_173:\n        /* \"contracts/Journal3Jobs.sol\":4198:4202  true */\n      0x01\n        /* \"contracts/Journal3Jobs.sol\":4171:4202  all_jobs[idx].is_active == true */\n      iszero\n      iszero\n        /* \"contracts/Journal3Jobs.sol\":4171:4179  all_jobs */\n      0x02\n        /* \"contracts/Journal3Jobs.sol\":4171:4184  all_jobs[idx] */\n      0x00\n        /* \"contracts/Journal3Jobs.sol\":4180:4183  idx */\n      dup4\n        /* \"contracts/Journal3Jobs.sol\":4171:4184  all_jobs[idx] */\n      dup2\n      mstore\n      0x20\n      add\n      swap1\n      dup2\n      mstore\n      0x20\n      add\n      0x00\n      keccak256\n        /* \"contracts/Journal3Jobs.sol\":4171:4194  all_jobs[idx].is_active */\n      0x06\n      add\n      0x00\n      swap1\n      sload\n      swap1\n      0x0100\n      exp\n      swap1\n      div\n      0xff\n      and\n        /* \"contracts/Journal3Jobs.sol\":4171:4202  all_jobs[idx].is_active == true */\n      iszero\n      iszero\n      eq\n        /* \"contracts/Journal3Jobs.sol\":4163:4225  require(all_jobs[idx].is_active == true, \"Job Already Closed\") */\n      tag_176\n      jumpi\n      mload(0x40)\n      0x08c379a000000000000000000000000000000000000000000000000000000000\n      dup2\n      mstore\n      0x04\n      add\n      tag_177\n      swap1\n      tag_178\n      jump\t// in\n    tag_177:\n      mload(0x40)\n      dup1\n      swap2\n      sub\n      swap1\n      revert\n    tag_176:\n        /* \"contracts/Journal3Jobs.sol\":4240:4246  uint i */\n      0x00\n        /* \"contracts/Journal3Jobs.sol\":4236:4397  for(uint i=0; i< all_jobs[idx].qualif_size; i++){\r... */\n    tag_179:\n        /* \"contracts/Journal3Jobs.sol\":4253:4261  all_jobs */\n      0x02\n        /* \"contracts/Journal3Jobs.sol\":4253:4266  all_jobs[idx] */\n      0x00\n        /* \"contracts/Journal3Jobs.sol\":4262:4265  idx */\n      dup4\n        /* \"contracts/Journal3Jobs.sol\":4253:4266  all_jobs[idx] */\n      dup2\n      mstore\n      0x20\n      add\n      swap1\n      dup2\n      mstore\n      0x20\n      add\n      0x00\n      keccak256\n        /* \"contracts/Journal3Jobs.sol\":4253:4278  all_jobs[idx].qualif_size */\n      0x03\n      add\n      sload\n        /* \"contracts/Journal3Jobs.sol\":4250:4251  i */\n      dup2\n        /* \"contracts/Journal3Jobs.sol\":4250:4278  i< all_jobs[idx].qualif_size */\n      lt\n        /* \"contracts/Journal3Jobs.sol\":4236:4397  for(uint i=0; i< all_jobs[idx].qualif_size; i++){\r... */\n      iszero\n      tag_180\n      jumpi\n        /* \"contracts/Journal3Jobs.sol\":4384:4385  1 */\n      0x01\n        /* \"contracts/Journal3Jobs.sol\":4299:4320  oracle_reward_returns */\n      0x04\n        /* \"contracts/Journal3Jobs.sol\":4299:4381  oracle_reward_returns[skills_repo.get_oracle_data_src(all_jobs[idx].qual_list[i])] */\n      0x00\n        /* \"contracts/Journal3Jobs.sol\":4321:4332  skills_repo */\n      0x06\n      0x00\n      swap1\n      sload\n      swap1\n      0x0100\n      exp\n      swap1\n      div\n      0xffffffffffffffffffffffffffffffffffffffff\n      and\n        /* \"contracts/Journal3Jobs.sol\":4321:4352  skills_repo.get_oracle_data_src */\n      0xffffffffffffffffffffffffffffffffffffffff\n      and\n      0x58b478f4\n        /* \"contracts/Journal3Jobs.sol\":4353:4361  all_jobs */\n      0x02\n        /* \"contracts/Journal3Jobs.sol\":4353:4366  all_jobs[idx] */\n      0x00\n        /* \"contracts/Journal3Jobs.sol\":4362:4365  idx */\n      dup9\n        /* \"contracts/Journal3Jobs.sol\":4353:4366  all_jobs[idx] */\n      dup2\n      mstore\n      0x20\n      add\n      swap1\n      dup2\n      mstore\n      0x20\n      add\n      0x00\n      keccak256\n        /* \"contracts/Journal3Jobs.sol\":4353:4376  all_jobs[idx].qual_list */\n      0x02\n      add\n        /* \"contracts/Journal3Jobs.sol\":4377:4378  i */\n      dup7\n        /* \"contracts/Journal3Jobs.sol\":4353:4379  all_jobs[idx].qual_list[i] */\n      dup2\n      sload\n      dup2\n      lt\n      tag_182\n      jumpi\n      tag_183\n      tag_55\n      jump\t// in\n    tag_183:\n    tag_182:\n      swap1\n      0x00\n      mstore\n      keccak256(0x00, 0x20)\n      add\n      sload\n        /* \"contracts/Journal3Jobs.sol\":4321:4380  skills_repo.get_oracle_data_src(all_jobs[idx].qual_list[i]) */\n      mload(0x40)\n      dup3\n      0xffffffff\n      and\n      0xe0\n      shl\n      dup2\n      mstore\n      0x04\n      add\n      tag_185\n      swap2\n      swap1\n      tag_132\n      jump\t// in\n    tag_185:\n      0x20\n      mload(0x40)\n      dup1\n      dup4\n      sub\n      dup2\n      dup7\n      dup1\n      extcodesize\n      iszero\n      dup1\n      iszero\n      tag_186\n      jumpi\n      0x00\n      dup1\n      revert\n    tag_186:\n      pop\n      gas\n      staticcall\n      iszero\n      dup1\n      iszero\n      tag_188\n      jumpi\n      returndatasize\n      0x00\n      dup1\n      returndatacopy\n      revert(0x00, returndatasize)\n    tag_188:\n      pop\n      pop\n      pop\n      pop\n      mload(0x40)\n      returndatasize\n      not(0x1f)\n      0x1f\n      dup3\n      add\n      and\n      dup3\n      add\n      dup1\n      0x40\n      mstore\n      pop\n      dup2\n      add\n      swap1\n      tag_189\n      swap2\n      swap1\n      tag_137\n      jump\t// in\n    tag_189:\n        /* \"contracts/Journal3Jobs.sol\":4299:4381  oracle_reward_returns[skills_repo.get_oracle_data_src(all_jobs[idx].qual_list[i])] */\n      0xffffffffffffffffffffffffffffffffffffffff\n      and\n      0xffffffffffffffffffffffffffffffffffffffff\n      and\n      dup2\n      mstore\n      0x20\n      add\n      swap1\n      dup2\n      mstore\n      0x20\n      add\n      0x00\n      keccak256\n      0x00\n        /* \"contracts/Journal3Jobs.sol\":4299:4385  oracle_reward_returns[skills_repo.get_oracle_data_src(all_jobs[idx].qual_list[i])] +=1 */\n      dup3\n      dup3\n      sload\n      tag_190\n      swap2\n      swap1\n      tag_139\n      jump\t// in\n    tag_190:\n      swap3\n      pop\n      pop\n      dup2\n      swap1\n      sstore\n      pop\n        /* \"contracts/Journal3Jobs.sol\":4280:4283  i++ */\n      dup1\n      dup1\n      tag_191\n      swap1\n      tag_62\n      jump\t// in\n    tag_191:\n      swap2\n      pop\n      pop\n        /* \"contracts/Journal3Jobs.sol\":4236:4397  for(uint i=0; i< all_jobs[idx].qualif_size; i++){\r... */\n      jump(tag_179)\n    tag_180:\n      pop\n        /* \"contracts/Journal3Jobs.sol\":4413:4419  uint i */\n      0x00\n        /* \"contracts/Journal3Jobs.sol\":4409:5108  for(uint i=0; i< all_jobs[idx].qualif_size; i++){\r... */\n    tag_192:\n        /* \"contracts/Journal3Jobs.sol\":4426:4434  all_jobs */\n      0x02\n        /* \"contracts/Journal3Jobs.sol\":4426:4439  all_jobs[idx] */\n      0x00\n        /* \"contracts/Journal3Jobs.sol\":4435:4438  idx */\n      dup4\n        /* \"contracts/Journal3Jobs.sol\":4426:4439  all_jobs[idx] */\n      dup2\n      mstore\n      0x20\n      add\n      swap1\n      dup2\n      mstore\n      0x20\n      add\n      0x00\n      keccak256\n        /* \"contracts/Journal3Jobs.sol\":4426:4451  all_jobs[idx].qualif_size */\n      0x03\n      add\n      sload\n        /* \"contracts/Journal3Jobs.sol\":4423:4424  i */\n      dup2\n        /* \"contracts/Journal3Jobs.sol\":4423:4451  i< all_jobs[idx].qualif_size */\n      lt\n        /* \"contracts/Journal3Jobs.sol\":4409:5108  for(uint i=0; i< all_jobs[idx].qualif_size; i++){\r... */\n      iszero\n      tag_193\n      jumpi\n        /* \"contracts/Journal3Jobs.sol\":4559:4560  0 */\n      0x00\n        /* \"contracts/Journal3Jobs.sol\":4475:4496  oracle_reward_returns */\n      0x04\n        /* \"contracts/Journal3Jobs.sol\":4475:4557  oracle_reward_returns[skills_repo.get_oracle_data_src(all_jobs[idx].qual_list[i])] */\n      0x00\n        /* \"contracts/Journal3Jobs.sol\":4497:4508  skills_repo */\n      0x06\n      0x00\n      swap1\n      sload\n      swap1\n      0x0100\n      exp\n      swap1\n      div\n      0xffffffffffffffffffffffffffffffffffffffff\n      and\n        /* \"contracts/Journal3Jobs.sol\":4497:4528  skills_repo.get_oracle_data_src */\n      0xffffffffffffffffffffffffffffffffffffffff\n      and\n      0x58b478f4\n        /* \"contracts/Journal3Jobs.sol\":4529:4537  all_jobs */\n      0x02\n        /* \"contracts/Journal3Jobs.sol\":4529:4542  all_jobs[idx] */\n      0x00\n        /* \"contracts/Journal3Jobs.sol\":4538:4541  idx */\n      dup9\n        /* \"contracts/Journal3Jobs.sol\":4529:4542  all_jobs[idx] */\n      dup2\n      mstore\n      0x20\n      add\n      swap1\n      dup2\n      mstore\n      0x20\n      add\n      0x00\n      keccak256\n        /* \"contracts/Journal3Jobs.sol\":4529:4552  all_jobs[idx].qual_list */\n      0x02\n      add\n        /* \"contracts/Journal3Jobs.sol\":4553:4554  i */\n      dup7\n        /* \"contracts/Journal3Jobs.sol\":4529:4555  all_jobs[idx].qual_list[i] */\n      dup2\n      sload\n      dup2\n      lt\n      tag_195\n      jumpi\n      tag_196\n      tag_55\n      jump\t// in\n    tag_196:\n    tag_195:\n      swap1\n      0x00\n      mstore\n      keccak256(0x00, 0x20)\n      add\n      sload\n        /* \"contracts/Journal3Jobs.sol\":4497:4556  skills_repo.get_oracle_data_src(all_jobs[idx].qual_list[i]) */\n      mload(0x40)\n      dup3\n      0xffffffff\n      and\n      0xe0\n      shl\n      dup2\n      mstore\n      0x04\n      add\n      tag_198\n      swap2\n      swap1\n      tag_132\n      jump\t// in\n    tag_198:\n      0x20\n      mload(0x40)\n      dup1\n      dup4\n      sub\n      dup2\n      dup7\n      dup1\n      extcodesize\n      iszero\n      dup1\n      iszero\n      tag_199\n      jumpi\n      0x00\n      dup1\n      revert\n    tag_199:\n      pop\n      gas\n      staticcall\n      iszero\n      dup1\n      iszero\n      tag_201\n      jumpi\n      returndatasize\n      0x00\n      dup1\n      returndatacopy\n      revert(0x00, returndatasize)\n    tag_201:\n      pop\n      pop\n      pop\n      pop\n      mload(0x40)\n      returndatasize\n      not(0x1f)\n      0x1f\n      dup3\n      add\n      and\n      dup3\n      add\n      dup1\n      0x40\n      mstore\n      pop\n      dup2\n      add\n      swap1\n      tag_202\n      swap2\n      swap1\n      tag_137\n      jump\t// in\n    tag_202:\n        /* \"contracts/Journal3Jobs.sol\":4475:4557  oracle_reward_returns[skills_repo.get_oracle_data_src(all_jobs[idx].qual_list[i])] */\n      0xffffffffffffffffffffffffffffffffffffffff\n      and\n      0xffffffffffffffffffffffffffffffffffffffff\n      and\n      dup2\n      mstore\n      0x20\n      add\n      swap1\n      dup2\n      mstore\n      0x20\n      add\n      0x00\n      keccak256\n      sload\n        /* \"contracts/Journal3Jobs.sol\":4475:4560  oracle_reward_returns[skills_repo.get_oracle_data_src(all_jobs[idx].qual_list[i])]!=0 */\n      eq\n        /* \"contracts/Journal3Jobs.sol\":4472:5097  if(oracle_reward_returns[skills_repo.get_oracle_data_src(all_jobs[idx].qual_list[i])]!=0){\r... */\n      tag_203\n      jumpi\n        /* \"contracts/Journal3Jobs.sol\":4580:4596  uint transferAmt */\n      0x00\n        /* \"contracts/Journal3Jobs.sol\":4723:4731  all_jobs */\n      0x02\n        /* \"contracts/Journal3Jobs.sol\":4723:4736  all_jobs[idx] */\n      0x00\n        /* \"contracts/Journal3Jobs.sol\":4732:4735  idx */\n      dup5\n        /* \"contracts/Journal3Jobs.sol\":4723:4736  all_jobs[idx] */\n      dup2\n      mstore\n      0x20\n      add\n      swap1\n      dup2\n      mstore\n      0x20\n      add\n      0x00\n      keccak256\n        /* \"contracts/Journal3Jobs.sol\":4723:4748  all_jobs[idx].qualif_size */\n      0x03\n      add\n      sload\n        /* \"contracts/Journal3Jobs.sol\":4717:4720  100 */\n      0x64\n        /* \"contracts/Journal3Jobs.sol\":4717:4748  100 * all_jobs[idx].qualif_size */\n      tag_204\n      swap2\n      swap1\n      tag_205\n      jump\t// in\n    tag_204:\n        /* \"contracts/Journal3Jobs.sol\":4631:4652  oracle_reward_returns */\n      0x04\n        /* \"contracts/Journal3Jobs.sol\":4631:4713  oracle_reward_returns[skills_repo.get_oracle_data_src(all_jobs[idx].qual_list[i])] */\n      0x00\n        /* \"contracts/Journal3Jobs.sol\":4653:4664  skills_repo */\n      0x06\n      0x00\n      swap1\n      sload\n      swap1\n      0x0100\n      exp\n      swap1\n      div\n      0xffffffffffffffffffffffffffffffffffffffff\n      and\n        /* \"contracts/Journal3Jobs.sol\":4653:4684  skills_repo.get_oracle_data_src */\n      0xffffffffffffffffffffffffffffffffffffffff\n      and\n      0x58b478f4\n        /* \"contracts/Journal3Jobs.sol\":4685:4693  all_jobs */\n      0x02\n        /* \"contracts/Journal3Jobs.sol\":4685:4698  all_jobs[idx] */\n      0x00\n        /* \"contracts/Journal3Jobs.sol\":4694:4697  idx */\n      dup10\n        /* \"contracts/Journal3Jobs.sol\":4685:4698  all_jobs[idx] */\n      dup2\n      mstore\n      0x20\n      add\n      swap1\n      dup2\n      mstore\n      0x20\n      add\n      0x00\n      keccak256\n        /* \"contracts/Journal3Jobs.sol\":4685:4708  all_jobs[idx].qual_list */\n      0x02\n      add\n        /* \"contracts/Journal3Jobs.sol\":4709:4710  i */\n      dup8\n        /* \"contracts/Journal3Jobs.sol\":4685:4711  all_jobs[idx].qual_list[i] */\n      dup2\n      sload\n      dup2\n      lt\n      tag_206\n      jumpi\n      tag_207\n      tag_55\n      jump\t// in\n    tag_207:\n    tag_206:\n      swap1\n      0x00\n      mstore\n      keccak256(0x00, 0x20)\n      add\n      sload\n        /* \"contracts/Journal3Jobs.sol\":4653:4712  skills_repo.get_oracle_data_src(all_jobs[idx].qual_list[i]) */\n      mload(0x40)\n      dup3\n      0xffffffff\n      and\n      0xe0\n      shl\n      dup2\n      mstore\n      0x04\n      add\n      tag_209\n      swap2\n      swap1\n      tag_132\n      jump\t// in\n    tag_209:\n      0x20\n      mload(0x40)\n      dup1\n      dup4\n      sub\n      dup2\n      dup7\n      dup1\n      extcodesize\n      iszero\n      dup1\n      iszero\n      tag_210\n      jumpi\n      0x00\n      dup1\n      revert\n    tag_210:\n      pop\n      gas\n      staticcall\n      iszero\n      dup1\n      iszero\n      tag_212\n      jumpi\n      returndatasize\n      0x00\n      dup1\n      returndatacopy\n      revert(0x00, returndatasize)\n    tag_212:\n      pop\n      pop\n      pop\n      pop\n      mload(0x40)\n      returndatasize\n      not(0x1f)\n      0x1f\n      dup3\n      add\n      and\n      dup3\n      add\n      dup1\n      0x40\n      mstore\n      pop\n      dup2\n      add\n      swap1\n      tag_213\n      swap2\n      swap1\n      tag_137\n      jump\t// in\n    tag_213:\n        /* \"contracts/Journal3Jobs.sol\":4631:4713  oracle_reward_returns[skills_repo.get_oracle_data_src(all_jobs[idx].qual_list[i])] */\n      0xffffffffffffffffffffffffffffffffffffffff\n      and\n      0xffffffffffffffffffffffffffffffffffffffff\n      and\n      dup2\n      mstore\n      0x20\n      add\n      swap1\n      dup2\n      mstore\n      0x20\n      add\n      0x00\n      keccak256\n      sload\n        /* \"contracts/Journal3Jobs.sol\":4604:4612  all_jobs */\n      0x02\n        /* \"contracts/Journal3Jobs.sol\":4604:4617  all_jobs[idx] */\n      0x00\n        /* \"contracts/Journal3Jobs.sol\":4613:4616  idx */\n      dup7\n        /* \"contracts/Journal3Jobs.sol\":4604:4617  all_jobs[idx] */\n      dup2\n      mstore\n      0x20\n      add\n      swap1\n      dup2\n      mstore\n      0x20\n      add\n      0x00\n      keccak256\n        /* \"contracts/Journal3Jobs.sol\":4604:4628  all_jobs[idx].jou_staked */\n      0x05\n      add\n      sload\n        /* \"contracts/Journal3Jobs.sol\":4599:4601  51 */\n      0x33\n        /* \"contracts/Journal3Jobs.sol\":4599:4628  51 * all_jobs[idx].jou_staked */\n      tag_214\n      swap2\n      swap1\n      tag_205\n      jump\t// in\n    tag_214:\n        /* \"contracts/Journal3Jobs.sol\":4599:4713  51 * all_jobs[idx].jou_staked * oracle_reward_returns[skills_repo.get_oracle_data_src(all_jobs[idx].qual_list[i])] */\n      tag_215\n      swap2\n      swap1\n      tag_205\n      jump\t// in\n    tag_215:\n        /* \"contracts/Journal3Jobs.sol\":4599:4749  51 * all_jobs[idx].jou_staked * oracle_reward_returns[skills_repo.get_oracle_data_src(all_jobs[idx].qual_list[i])] / (100 * all_jobs[idx].qualif_size) */\n      tag_216\n      swap2\n      swap1\n      tag_130\n      jump\t// in\n    tag_216:\n        /* \"contracts/Journal3Jobs.sol\":4580:4749  uint transferAmt = 51 * all_jobs[idx].jou_staked * oracle_reward_returns[skills_repo.get_oracle_data_src(all_jobs[idx].qual_list[i])] / (100 * all_jobs[idx].qualif_size) */\n      swap1\n      pop\n        /* \"contracts/Journal3Jobs.sol\":4796:4807  transferAmt */\n      dup1\n        /* \"contracts/Journal3Jobs.sol\":4768:4776  all_jobs */\n      0x02\n        /* \"contracts/Journal3Jobs.sol\":4768:4781  all_jobs[idx] */\n      0x00\n        /* \"contracts/Journal3Jobs.sol\":4777:4780  idx */\n      dup6\n        /* \"contracts/Journal3Jobs.sol\":4768:4781  all_jobs[idx] */\n      dup2\n      mstore\n      0x20\n      add\n      swap1\n      dup2\n      mstore\n      0x20\n      add\n      0x00\n      keccak256\n        /* \"contracts/Journal3Jobs.sol\":4768:4792  all_jobs[idx].jou_staked */\n      0x05\n      add\n      0x00\n        /* \"contracts/Journal3Jobs.sol\":4768:4807  all_jobs[idx].jou_staked -= transferAmt */\n      dup3\n      dup3\n      sload\n      tag_217\n      swap2\n      swap1\n      tag_141\n      jump\t// in\n    tag_217:\n      swap3\n      pop\n      pop\n      dup2\n      swap1\n      sstore\n      pop\n        /* \"contracts/Journal3Jobs.sol\":4826:4829  jou */\n      0x05\n      0x00\n      swap1\n      sload\n      swap1\n      0x0100\n      exp\n      swap1\n      div\n      0xffffffffffffffffffffffffffffffffffffffff\n      and\n        /* \"contracts/Journal3Jobs.sol\":4826:4838  jou.transfer */\n      0xffffffffffffffffffffffffffffffffffffffff\n      and\n      0xa9059cbb\n        /* \"contracts/Journal3Jobs.sol\":4861:4872  skills_repo */\n      0x06\n      0x00\n      swap1\n      sload\n      swap1\n      0x0100\n      exp\n      swap1\n      div\n      0xffffffffffffffffffffffffffffffffffffffff\n      and\n        /* \"contracts/Journal3Jobs.sol\":4861:4892  skills_repo.get_oracle_data_src */\n      0xffffffffffffffffffffffffffffffffffffffff\n      and\n      0x58b478f4\n        /* \"contracts/Journal3Jobs.sol\":4893:4901  all_jobs */\n      0x02\n        /* \"contracts/Journal3Jobs.sol\":4893:4906  all_jobs[idx] */\n      0x00\n        /* \"contracts/Journal3Jobs.sol\":4902:4905  idx */\n      dup9\n        /* \"contracts/Journal3Jobs.sol\":4893:4906  all_jobs[idx] */\n      dup2\n      mstore\n      0x20\n      add\n      swap1\n      dup2\n      mstore\n      0x20\n      add\n      0x00\n      keccak256\n        /* \"contracts/Journal3Jobs.sol\":4893:4916  all_jobs[idx].qual_list */\n      0x02\n      add\n        /* \"contracts/Journal3Jobs.sol\":4917:4918  i */\n      dup7\n        /* \"contracts/Journal3Jobs.sol\":4893:4919  all_jobs[idx].qual_list[i] */\n      dup2\n      sload\n      dup2\n      lt\n      tag_218\n      jumpi\n      tag_219\n      tag_55\n      jump\t// in\n    tag_219:\n    tag_218:\n      swap1\n      0x00\n      mstore\n      keccak256(0x00, 0x20)\n      add\n      sload\n        /* \"contracts/Journal3Jobs.sol\":4861:4920  skills_repo.get_oracle_data_src(all_jobs[idx].qual_list[i]) */\n      mload(0x40)\n      dup3\n      0xffffffff\n      and\n      0xe0\n      shl\n      dup2\n      mstore\n      0x04\n      add\n      tag_221\n      swap2\n      swap1\n      tag_132\n      jump\t// in\n    tag_221:\n      0x20\n      mload(0x40)\n      dup1\n      dup4\n      sub\n      dup2\n      dup7\n      dup1\n      extcodesize\n      iszero\n      dup1\n      iszero\n      tag_222\n      jumpi\n      0x00\n      dup1\n      revert\n    tag_222:\n      pop\n      gas\n      staticcall\n      iszero\n      dup1\n      iszero\n      tag_224\n      jumpi\n      returndatasize\n      0x00\n      dup1\n      returndatacopy\n      revert(0x00, returndatasize)\n    tag_224:\n      pop\n      pop\n      pop\n      pop\n      mload(0x40)\n      returndatasize\n      not(0x1f)\n      0x1f\n      dup3\n      add\n      and\n      dup3\n      add\n      dup1\n      0x40\n      mstore\n      pop\n      dup2\n      add\n      swap1\n      tag_225\n      swap2\n      swap1\n      tag_137\n      jump\t// in\n    tag_225:\n        /* \"contracts/Journal3Jobs.sol\":4944:4955  transferAmt */\n      dup4\n        /* \"contracts/Journal3Jobs.sol\":4826:4974  jou.transfer(\r... */\n      mload(0x40)\n      dup4\n      0xffffffff\n      and\n      0xe0\n      shl\n      dup2\n      mstore\n      0x04\n      add\n      tag_226\n      swap3\n      swap2\n      swap1\n      tag_102\n      jump\t// in\n    tag_226:\n      0x20\n      mload(0x40)\n      dup1\n      dup4\n      sub\n      dup2\n      0x00\n      dup8\n      dup1\n      extcodesize\n      iszero\n      dup1\n      iszero\n      tag_227\n      jumpi\n      0x00\n      dup1\n      revert\n    tag_227:\n      pop\n      gas\n      call\n      iszero\n      dup1\n      iszero\n      tag_229\n      jumpi\n      returndatasize\n      0x00\n      dup1\n      returndatacopy\n      revert(0x00, returndatasize)\n    tag_229:\n      pop\n      pop\n      pop\n      pop\n      mload(0x40)\n      returndatasize\n      not(0x1f)\n      0x1f\n      dup3\n      add\n      and\n      dup3\n      add\n      dup1\n      0x40\n      mstore\n      pop\n      dup2\n      add\n      swap1\n      tag_230\n      swap2\n      swap1\n      tag_107\n      jump\t// in\n    tag_230:\n      pop\n        /* \"contracts/Journal3Jobs.sol\":5078:5079  0 */\n      0x00\n        /* \"contracts/Journal3Jobs.sol\":4993:5014  oracle_reward_returns */\n      0x04\n        /* \"contracts/Journal3Jobs.sol\":4993:5075  oracle_reward_returns[skills_repo.get_oracle_data_src(all_jobs[idx].qual_list[i])] */\n      0x00\n        /* \"contracts/Journal3Jobs.sol\":5015:5026  skills_repo */\n      0x06\n      0x00\n      swap1\n      sload\n      swap1\n      0x0100\n      exp\n      swap1\n      div\n      0xffffffffffffffffffffffffffffffffffffffff\n      and\n        /* \"contracts/Journal3Jobs.sol\":5015:5046  skills_repo.get_oracle_data_src */\n      0xffffffffffffffffffffffffffffffffffffffff\n      and\n      0x58b478f4\n        /* \"contracts/Journal3Jobs.sol\":5047:5055  all_jobs */\n      0x02\n        /* \"contracts/Journal3Jobs.sol\":5047:5060  all_jobs[idx] */\n      0x00\n        /* \"contracts/Journal3Jobs.sol\":5056:5059  idx */\n      dup10\n        /* \"contracts/Journal3Jobs.sol\":5047:5060  all_jobs[idx] */\n      dup2\n      mstore\n      0x20\n      add\n      swap1\n      dup2\n      mstore\n      0x20\n      add\n      0x00\n      keccak256\n        /* \"contracts/Journal3Jobs.sol\":5047:5070  all_jobs[idx].qual_list */\n      0x02\n      add\n        /* \"contracts/Journal3Jobs.sol\":5071:5072  i */\n      dup8\n        /* \"contracts/Journal3Jobs.sol\":5047:5073  all_jobs[idx].qual_list[i] */\n      dup2\n      sload\n      dup2\n      lt\n      tag_231\n      jumpi\n      tag_232\n      tag_55\n      jump\t// in\n    tag_232:\n    tag_231:\n      swap1\n      0x00\n      mstore\n      keccak256(0x00, 0x20)\n      add\n      sload\n        /* \"contracts/Journal3Jobs.sol\":5015:5074  skills_repo.get_oracle_data_src(all_jobs[idx].qual_list[i]) */\n      mload(0x40)\n      dup3\n      0xffffffff\n      and\n      0xe0\n      shl\n      dup2\n      mstore\n      0x04\n      add\n      tag_234\n      swap2\n      swap1\n      tag_132\n      jump\t// in\n    tag_234:\n      0x20\n      mload(0x40)\n      dup1\n      dup4\n      sub\n      dup2\n      dup7\n      dup1\n      extcodesize\n      iszero\n      dup1\n      iszero\n      tag_235\n      jumpi\n      0x00\n      dup1\n      revert\n    tag_235:\n      pop\n      gas\n      staticcall\n      iszero\n      dup1\n      iszero\n      tag_237\n      jumpi\n      returndatasize\n      0x00\n      dup1\n      returndatacopy\n      revert(0x00, returndatasize)\n    tag_237:\n      pop\n      pop\n      pop\n      pop\n      mload(0x40)\n      returndatasize\n      not(0x1f)\n      0x1f\n      dup3\n      add\n      and\n      dup3\n      add\n      dup1\n      0x40\n      mstore\n      pop\n      dup2\n      add\n      swap1\n      tag_238\n      swap2\n      swap1\n      tag_137\n      jump\t// in\n    tag_238:\n        /* \"contracts/Journal3Jobs.sol\":4993:5075  oracle_reward_returns[skills_repo.get_oracle_data_src(all_jobs[idx].qual_list[i])] */\n      0xffffffffffffffffffffffffffffffffffffffff\n      and\n      0xffffffffffffffffffffffffffffffffffffffff\n      and\n      dup2\n      mstore\n      0x20\n      add\n      swap1\n      dup2\n      mstore\n      0x20\n      add\n      0x00\n      keccak256\n        /* \"contracts/Journal3Jobs.sol\":4993:5079  oracle_reward_returns[skills_repo.get_oracle_data_src(all_jobs[idx].qual_list[i])] = 0 */\n      dup2\n      swap1\n      sstore\n      pop\n        /* \"contracts/Journal3Jobs.sol\":4561:5097  {\r... */\n      pop\n        /* \"contracts/Journal3Jobs.sol\":4472:5097  if(oracle_reward_returns[skills_repo.get_oracle_data_src(all_jobs[idx].qual_list[i])]!=0){\r... */\n    tag_203:\n        /* \"contracts/Journal3Jobs.sol\":4453:4456  i++ */\n      dup1\n      dup1\n      tag_239\n      swap1\n      tag_62\n      jump\t// in\n    tag_239:\n      swap2\n      pop\n      pop\n        /* \"contracts/Journal3Jobs.sol\":4409:5108  for(uint i=0; i< all_jobs[idx].qualif_size; i++){\r... */\n      jump(tag_192)\n    tag_193:\n      pop\n        /* \"contracts/Journal3Jobs.sol\":5144:5149  false */\n      0x00\n        /* \"contracts/Journal3Jobs.sol\":5118:5126  all_jobs */\n      0x02\n        /* \"contracts/Journal3Jobs.sol\":5118:5131  all_jobs[idx] */\n      0x00\n        /* \"contracts/Journal3Jobs.sol\":5127:5130  idx */\n      dup4\n        /* \"contracts/Journal3Jobs.sol\":5118:5131  all_jobs[idx] */\n      dup2\n      mstore\n      0x20\n      add\n      swap1\n      dup2\n      mstore\n      0x20\n      add\n      0x00\n      keccak256\n        /* \"contracts/Journal3Jobs.sol\":5118:5141  all_jobs[idx].is_active */\n      0x06\n      add\n      0x00\n        /* \"contracts/Journal3Jobs.sol\":5118:5149  all_jobs[idx].is_active = false */\n      0x0100\n      exp\n      dup2\n      sload\n      dup2\n      0xff\n      mul\n      not\n      and\n      swap1\n      dup4\n      iszero\n      iszero\n      mul\n      or\n      swap1\n      sstore\n      pop\n        /* \"contracts/Journal3Jobs.sol\":4009:5157  function close_job(uint idx) public {\r... */\n      pop\n      jump\t// out\n        /* \"contracts/Journal3Jobs.sol\":698:735  mapping (uint => Job) public all_jobs */\n    tag_40:\n      mstore(0x20, 0x02)\n      dup1\n      0x00\n      mstore\n      keccak256(0x00, 0x40)\n      0x00\n      swap2\n      pop\n      swap1\n      pop\n      dup1\n      0x00\n      add\n      dup1\n      sload\n      tag_240\n      swap1\n      tag_241\n      jump\t// in\n    tag_240:\n      dup1\n      0x1f\n      add\n      0x20\n      dup1\n      swap2\n      div\n      mul\n      0x20\n      add\n      mload(0x40)\n      swap1\n      dup2\n      add\n      0x40\n      mstore\n      dup1\n      swap3\n      swap2\n      swap1\n      dup2\n      dup2\n      mstore\n      0x20\n      add\n      dup3\n      dup1\n      sload\n      tag_242\n      swap1\n      tag_241\n      jump\t// in\n    tag_242:\n      dup1\n      iszero\n      tag_243\n      jumpi\n      dup1\n      0x1f\n      lt\n      tag_244\n      jumpi\n      0x0100\n      dup1\n      dup4\n      sload\n      div\n      mul\n      dup4\n      mstore\n      swap2\n      0x20\n      add\n      swap2\n      jump(tag_243)\n    tag_244:\n      dup3\n      add\n      swap2\n      swap1\n      0x00\n      mstore\n      keccak256(0x00, 0x20)\n      swap1\n    tag_245:\n      dup2\n      sload\n      dup2\n      mstore\n      swap1\n      0x01\n      add\n      swap1\n      0x20\n      add\n      dup1\n      dup4\n      gt\n      tag_245\n      jumpi\n      dup3\n      swap1\n      sub\n      0x1f\n      and\n      dup3\n      add\n      swap2\n    tag_243:\n      pop\n      pop\n      pop\n      pop\n      pop\n      swap1\n      dup1\n      0x03\n      add\n      sload\n      swap1\n      dup1\n      0x05\n      add\n      sload\n      swap1\n      dup1\n      0x06\n      add\n      0x00\n      swap1\n      sload\n      swap1\n      0x0100\n      exp\n      swap1\n      div\n      0xff\n      and\n      swap1\n      dup1\n      0x06\n      add\n      0x01\n      swap1\n      sload\n      swap1\n      0x0100\n      exp\n      swap1\n      div\n      0xffffffffffffffffffffffffffffffffffffffff\n      and\n      swap1\n      dup1\n      0x06\n      add\n      0x15\n      swap1\n      sload\n      swap1\n      0x0100\n      exp\n      swap1\n      div\n      0xff\n      and\n      swap1\n      dup1\n      0x07\n      add\n      sload\n      swap1\n      pop\n      dup8\n      jump\t// out\n        /* \"@openzeppelin/contracts/access/Ownable.sol\":2081:2279  function transferOwnership(address newOwner) public virtual onlyOwner {... */\n    tag_46:\n        /* \"@openzeppelin/contracts/access/Ownable.sol\":1094:1107  _checkOwner() */\n      tag_247\n        /* \"@openzeppelin/contracts/access/Ownable.sol\":1094:1105  _checkOwner */\n      tag_95\n        /* \"@openzeppelin/contracts/access/Ownable.sol\":1094:1107  _checkOwner() */\n      jump\t// in\n    tag_247:\n        /* \"@openzeppelin/contracts/access/Ownable.sol\":2189:2190  0 */\n      0x00\n        /* \"@openzeppelin/contracts/access/Ownable.sol\":2169:2191  newOwner != address(0) */\n      0xffffffffffffffffffffffffffffffffffffffff\n      and\n        /* \"@openzeppelin/contracts/access/Ownable.sol\":2169:2177  newOwner */\n      dup2\n        /* \"@openzeppelin/contracts/access/Ownable.sol\":2169:2191  newOwner != address(0) */\n      0xffffffffffffffffffffffffffffffffffffffff\n      and\n      eq\n      iszero\n        /* \"@openzeppelin/contracts/access/Ownable.sol\":2161:2234  require(newOwner != address(0), \"Ownable: new owner is the zero address\") */\n      tag_249\n      jumpi\n      mload(0x40)\n      0x08c379a000000000000000000000000000000000000000000000000000000000\n      dup2\n      mstore\n      0x04\n      add\n      tag_250\n      swap1\n      tag_251\n      jump\t// in\n    tag_250:\n      mload(0x40)\n      dup1\n      swap2\n      sub\n      swap1\n      revert\n    tag_249:\n        /* \"@openzeppelin/contracts/access/Ownable.sol\":2244:2272  _transferOwnership(newOwner) */\n      tag_252\n        /* \"@openzeppelin/contracts/access/Ownable.sol\":2263:2271  newOwner */\n      dup2\n        /* \"@openzeppelin/contracts/access/Ownable.sol\":2244:2262  _transferOwnership */\n      tag_98\n        /* \"@openzeppelin/contracts/access/Ownable.sol\":2244:2272  _transferOwnership(newOwner) */\n      jump\t// in\n    tag_252:\n        /* \"@openzeppelin/contracts/access/Ownable.sol\":2081:2279  function transferOwnership(address newOwner) public virtual onlyOwner {... */\n      pop\n      jump\t// out\n        /* \"@openzeppelin/contracts/access/Ownable.sol\":1359:1489  function _checkOwner() internal view virtual {... */\n    tag_95:\n        /* \"@openzeppelin/contracts/access/Ownable.sol\":1433:1445  _msgSender() */\n      tag_254\n        /* \"@openzeppelin/contracts/access/Ownable.sol\":1433:1443  _msgSender */\n      tag_255\n        /* \"@openzeppelin/contracts/access/Ownable.sol\":1433:1445  _msgSender() */\n      jump\t// in\n    tag_254:\n        /* \"@openzeppelin/contracts/access/Ownable.sol\":1422:1445  owner() == _msgSender() */\n      0xffffffffffffffffffffffffffffffffffffffff\n      and\n        /* \"@openzeppelin/contracts/access/Ownable.sol\":1422:1429  owner() */\n      tag_256\n        /* \"@openzeppelin/contracts/access/Ownable.sol\":1422:1427  owner */\n      tag_22\n        /* \"@openzeppelin/contracts/access/Ownable.sol\":1422:1429  owner() */\n      jump\t// in\n    tag_256:\n        /* \"@openzeppelin/contracts/access/Ownable.sol\":1422:1445  owner() == _msgSender() */\n      0xffffffffffffffffffffffffffffffffffffffff\n      and\n      eq\n        /* \"@openzeppelin/contracts/access/Ownable.sol\":1414:1482  require(owner() == _msgSender(), \"Ownable: caller is not the owner\") */\n      tag_257\n      jumpi\n      mload(0x40)\n      0x08c379a000000000000000000000000000000000000000000000000000000000\n      dup2\n      mstore\n      0x04\n      add\n      tag_258\n      swap1\n      tag_259\n      jump\t// in\n    tag_258:\n      mload(0x40)\n      dup1\n      swap2\n      sub\n      swap1\n      revert\n    tag_257:\n        /* \"@openzeppelin/contracts/access/Ownable.sol\":1359:1489  function _checkOwner() internal view virtual {... */\n      jump\t// out\n        /* \"@openzeppelin/contracts/access/Ownable.sol\":2433:2620  function _transferOwnership(address newOwner) internal virtual {... */\n    tag_98:\n        /* \"@openzeppelin/contracts/access/Ownable.sol\":2506:2522  address oldOwner */\n      0x00\n        /* \"@openzeppelin/contracts/access/Ownable.sol\":2525:2531  _owner */\n      dup1\n      0x00\n      swap1\n      sload\n      swap1\n      0x0100\n      exp\n      swap1\n      div\n      0xffffffffffffffffffffffffffffffffffffffff\n      and\n        /* \"@openzeppelin/contracts/access/Ownable.sol\":2506:2531  address oldOwner = _owner */\n      swap1\n      pop\n        /* \"@openzeppelin/contracts/access/Ownable.sol\":2550:2558  newOwner */\n      dup2\n        /* \"@openzeppelin/contracts/access/Ownable.sol\":2541:2547  _owner */\n      0x00\n      dup1\n        /* \"@openzeppelin/contracts/access/Ownable.sol\":2541:2558  _owner = newOwner */\n      0x0100\n      exp\n      dup2\n      sload\n      dup2\n      0xffffffffffffffffffffffffffffffffffffffff\n      mul\n      not\n      and\n      swap1\n      dup4\n      0xffffffffffffffffffffffffffffffffffffffff\n      and\n      mul\n      or\n      swap1\n      sstore\n      pop\n        /* \"@openzeppelin/contracts/access/Ownable.sol\":2604:2612  newOwner */\n      dup2\n        /* \"@openzeppelin/contracts/access/Ownable.sol\":2573:2613  OwnershipTransferred(oldOwner, newOwner) */\n      0xffffffffffffffffffffffffffffffffffffffff\n      and\n        /* \"@openzeppelin/contracts/access/Ownable.sol\":2594:2602  oldOwner */\n      dup2\n        /* \"@openzeppelin/contracts/access/Ownable.sol\":2573:2613  OwnershipTransferred(oldOwner, newOwner) */\n      0xffffffffffffffffffffffffffffffffffffffff\n      and\n      0x8be0079c531659141344cd1fd0a4f28419497f9722a3daafe3b4186f6b6457e0\n      mload(0x40)\n      mload(0x40)\n      dup1\n      swap2\n      sub\n      swap1\n      log3\n        /* \"@openzeppelin/contracts/access/Ownable.sol\":2496:2620  {... */\n      pop\n        /* \"@openzeppelin/contracts/access/Ownable.sol\":2433:2620  function _transferOwnership(address newOwner) internal virtual {... */\n      pop\n      jump\t// out\n        /* \"@openzeppelin/contracts/utils/Context.sol\":640:736  function _msgSender() internal view virtual returns (address) {... */\n    tag_255:\n        /* \"@openzeppelin/contracts/utils/Context.sol\":693:700  address */\n      0x00\n        /* \"@openzeppelin/contracts/utils/Context.sol\":719:729  msg.sender */\n      caller\n        /* \"@openzeppelin/contracts/utils/Context.sol\":712:729  return msg.sender */\n      swap1\n      pop\n        /* \"@openzeppelin/contracts/utils/Context.sol\":640:736  function _msgSender() internal view virtual returns (address) {... */\n      swap1\n      jump\t// out\n    tag_49:\n      dup3\n      dup1\n      sload\n      tag_262\n      swap1\n      tag_241\n      jump\t// in\n    tag_262:\n      swap1\n      0x00\n      mstore\n      keccak256(0x00, 0x20)\n      swap1\n      0x1f\n      add\n      0x20\n      swap1\n      div\n      dup2\n      add\n      swap3\n      dup3\n      tag_264\n      jumpi\n      0x00\n      dup6\n      sstore\n      jump(tag_263)\n    tag_264:\n      dup3\n      0x1f\n      lt\n      tag_265\n      jumpi\n      dup1\n      mload\n      not(0xff)\n      and\n      dup4\n      dup1\n      add\n      or\n      dup6\n      sstore\n      jump(tag_263)\n    tag_265:\n      dup3\n      dup1\n      add\n      0x01\n      add\n      dup6\n      sstore\n      dup3\n      iszero\n      tag_263\n      jumpi\n      swap2\n      dup3\n      add\n    tag_266:\n      dup3\n      dup2\n      gt\n      iszero\n      tag_267\n      jumpi\n      dup3\n      mload\n      dup3\n      sstore\n      swap2\n      0x20\n      add\n      swap2\n      swap1\n      0x01\n      add\n      swap1\n      jump(tag_266)\n    tag_267:\n    tag_263:\n      pop\n      swap1\n      pop\n      tag_268\n      swap2\n      swap1\n      tag_269\n      jump\t// in\n    tag_268:\n      pop\n      swap1\n      jump\t// out\n    tag_60:\n      dup3\n      dup1\n      sload\n      dup3\n      dup3\n      sstore\n      swap1\n      0x00\n      mstore\n      keccak256(0x00, 0x20)\n      swap1\n      dup2\n      add\n      swap3\n      dup3\n      iszero\n      tag_270\n      jumpi\n      swap2\n      0x20\n      mul\n      dup3\n      add\n    tag_271:\n      dup3\n      dup2\n      gt\n      iszero\n      tag_272\n      jumpi\n      dup3\n      mload\n      dup3\n      exp(0x0100, 0x00)\n      dup2\n      sload\n      dup2\n      0xffffffffffffffffffffffffffffffffffffffff\n      mul\n      not\n      and\n      swap1\n      dup4\n      0xffffffffffffffffffffffffffffffffffffffff\n      and\n      mul\n      or\n      swap1\n      sstore\n      pop\n      swap2\n      0x20\n      add\n      swap2\n      swap1\n      0x01\n      add\n      swap1\n      jump(tag_271)\n    tag_272:\n    tag_270:\n      pop\n      swap1\n      pop\n      tag_273\n      swap2\n      swap1\n      tag_269\n      jump\t// in\n    tag_273:\n      pop\n      swap1\n      jump\t// out\n    tag_91:\n      dup3\n      dup1\n      sload\n      dup3\n      dup3\n      sstore\n      swap1\n      0x00\n      mstore\n      keccak256(0x00, 0x20)\n      swap1\n      dup2\n      add\n      swap3\n      dup3\n      iszero\n      tag_274\n      jumpi\n      swap2\n      0x20\n      mul\n      dup3\n      add\n    tag_275:\n      dup3\n      dup2\n      gt\n      iszero\n      tag_276\n      jumpi\n      dup3\n      mload\n      dup3\n      sstore\n      swap2\n      0x20\n      add\n      swap2\n      swap1\n      0x01\n      add\n      swap1\n      jump(tag_275)\n    tag_276:\n    tag_274:\n      pop\n      swap1\n      pop\n      tag_277\n      swap2\n      swap1\n      tag_269\n      jump\t// in\n    tag_277:\n      pop\n      swap1\n      jump\t// out\n    tag_269:\n    tag_278:\n      dup1\n      dup3\n      gt\n      iszero\n      tag_279\n      jumpi\n      0x00\n      dup2\n      0x00\n      swap1\n      sstore\n      pop\n      0x01\n      add\n      jump(tag_278)\n    tag_279:\n      pop\n      swap1\n      jump\t// out\n        /* \"#utility.yul\":24:746   */\n    tag_281:\n        /* \"#utility.yul\":120:125   */\n      0x00\n        /* \"#utility.yul\":145:226   */\n      tag_283\n        /* \"#utility.yul\":161:225   */\n      tag_284\n        /* \"#utility.yul\":218:224   */\n      dup5\n        /* \"#utility.yul\":161:225   */\n      tag_285\n      jump\t// in\n    tag_284:\n        /* \"#utility.yul\":145:226   */\n      tag_286\n      jump\t// in\n    tag_283:\n        /* \"#utility.yul\":136:226   */\n      swap1\n      pop\n        /* \"#utility.yul\":246:251   */\n      dup1\n        /* \"#utility.yul\":275:281   */\n      dup4\n        /* \"#utility.yul\":268:273   */\n      dup3\n        /* \"#utility.yul\":261:282   */\n      mstore\n        /* \"#utility.yul\":309:313   */\n      0x20\n        /* \"#utility.yul\":302:307   */\n      dup3\n        /* \"#utility.yul\":298:314   */\n      add\n        /* \"#utility.yul\":291:314   */\n      swap1\n      pop\n        /* \"#utility.yul\":335:341   */\n      dup3\n        /* \"#utility.yul\":385:388   */\n      dup6\n        /* \"#utility.yul\":377:381   */\n      0x20\n        /* \"#utility.yul\":369:375   */\n      dup7\n        /* \"#utility.yul\":365:382   */\n      mul\n        /* \"#utility.yul\":360:363   */\n      dup3\n        /* \"#utility.yul\":356:383   */\n      add\n        /* \"#utility.yul\":353:389   */\n      gt\n        /* \"#utility.yul\":350:493   */\n      iszero\n      tag_287\n      jumpi\n        /* \"#utility.yul\":404:483   */\n      tag_288\n      tag_289\n      jump\t// in\n    tag_288:\n        /* \"#utility.yul\":350:493   */\n    tag_287:\n        /* \"#utility.yul\":517:518   */\n      0x00\n        /* \"#utility.yul\":502:740   */\n    tag_290:\n        /* \"#utility.yul\":527:533   */\n      dup6\n        /* \"#utility.yul\":524:525   */\n      dup2\n        /* \"#utility.yul\":521:534   */\n      lt\n        /* \"#utility.yul\":502:740   */\n      iszero\n      tag_292\n      jumpi\n        /* \"#utility.yul\":595:598   */\n      dup2\n        /* \"#utility.yul\":624:661   */\n      tag_293\n        /* \"#utility.yul\":657:660   */\n      dup9\n        /* \"#utility.yul\":645:655   */\n      dup3\n        /* \"#utility.yul\":624:661   */\n      tag_294\n      jump\t// in\n    tag_293:\n        /* \"#utility.yul\":619:622   */\n      dup5\n        /* \"#utility.yul\":612:662   */\n      mstore\n        /* \"#utility.yul\":691:695   */\n      0x20\n        /* \"#utility.yul\":686:689   */\n      dup5\n        /* \"#utility.yul\":682:696   */\n      add\n        /* \"#utility.yul\":675:696   */\n      swap4\n      pop\n        /* \"#utility.yul\":725:729   */\n      0x20\n        /* \"#utility.yul\":720:723   */\n      dup4\n        /* \"#utility.yul\":716:730   */\n      add\n        /* \"#utility.yul\":709:730   */\n      swap3\n      pop\n        /* \"#utility.yul\":562:740   */\n      pop\n        /* \"#utility.yul\":549:550   */\n      0x01\n        /* \"#utility.yul\":546:547   */\n      dup2\n        /* \"#utility.yul\":542:551   */\n      add\n        /* \"#utility.yul\":537:551   */\n      swap1\n      pop\n        /* \"#utility.yul\":502:740   */\n      jump(tag_290)\n    tag_292:\n        /* \"#utility.yul\":506:520   */\n      pop\n        /* \"#utility.yul\":126:746   */\n      pop\n      pop\n        /* \"#utility.yul\":24:746   */\n      swap4\n      swap3\n      pop\n      pop\n      pop\n      jump\t// out\n        /* \"#utility.yul\":771:1773   */\n    tag_295:\n        /* \"#utility.yul\":892:897   */\n      0x00\n        /* \"#utility.yul\":917:1023   */\n      tag_297\n        /* \"#utility.yul\":933:1022   */\n      tag_298\n        /* \"#utility.yul\":1015:1021   */\n      dup5\n        /* \"#utility.yul\":933:1022   */\n      tag_299\n      jump\t// in\n    tag_298:\n        /* \"#utility.yul\":917:1023   */\n      tag_286\n      jump\t// in\n    tag_297:\n        /* \"#utility.yul\":908:1023   */\n      swap1\n      pop\n        /* \"#utility.yul\":1043:1048   */\n      dup1\n        /* \"#utility.yul\":1072:1078   */\n      dup4\n        /* \"#utility.yul\":1065:1070   */\n      dup3\n        /* \"#utility.yul\":1058:1079   */\n      mstore\n        /* \"#utility.yul\":1106:1110   */\n      0x20\n        /* \"#utility.yul\":1099:1104   */\n      dup3\n        /* \"#utility.yul\":1095:1111   */\n      add\n        /* \"#utility.yul\":1088:1111   */\n      swap1\n      pop\n        /* \"#utility.yul\":1132:1138   */\n      dup3\n        /* \"#utility.yul\":1182:1185   */\n      dup6\n        /* \"#utility.yul\":1174:1178   */\n      0x20\n        /* \"#utility.yul\":1166:1172   */\n      dup7\n        /* \"#utility.yul\":1162:1179   */\n      mul\n        /* \"#utility.yul\":1157:1160   */\n      dup3\n        /* \"#utility.yul\":1153:1180   */\n      add\n        /* \"#utility.yul\":1150:1186   */\n      gt\n        /* \"#utility.yul\":1147:1290   */\n      iszero\n      tag_300\n      jumpi\n        /* \"#utility.yul\":1201:1280   */\n      tag_301\n      tag_289\n      jump\t// in\n    tag_301:\n        /* \"#utility.yul\":1147:1290   */\n    tag_300:\n        /* \"#utility.yul\":1314:1315   */\n      0x00\n        /* \"#utility.yul\":1299:1767   */\n    tag_302:\n        /* \"#utility.yul\":1324:1330   */\n      dup6\n        /* \"#utility.yul\":1321:1322   */\n      dup2\n        /* \"#utility.yul\":1318:1331   */\n      lt\n        /* \"#utility.yul\":1299:1767   */\n      iszero\n      tag_304\n      jumpi\n        /* \"#utility.yul\":1406:1409   */\n      dup2\n        /* \"#utility.yul\":1393:1410   */\n      calldataload\n        /* \"#utility.yul\":1442:1460   */\n      0xffffffffffffffff\n        /* \"#utility.yul\":1429:1440   */\n      dup2\n        /* \"#utility.yul\":1426:1461   */\n      gt\n        /* \"#utility.yul\":1423:1545   */\n      iszero\n      tag_305\n      jumpi\n        /* \"#utility.yul\":1464:1543   */\n      tag_306\n      tag_307\n      jump\t// in\n    tag_306:\n        /* \"#utility.yul\":1423:1545   */\n    tag_305:\n        /* \"#utility.yul\":1588:1599   */\n      dup1\n        /* \"#utility.yul\":1580:1586   */\n      dup7\n        /* \"#utility.yul\":1576:1600   */\n      add\n        /* \"#utility.yul\":1626:1688   */\n      tag_308\n        /* \"#utility.yul\":1684:1687   */\n      dup10\n        /* \"#utility.yul\":1672:1682   */\n      dup3\n        /* \"#utility.yul\":1626:1688   */\n      tag_309\n      jump\t// in\n    tag_308:\n        /* \"#utility.yul\":1621:1624   */\n      dup6\n        /* \"#utility.yul\":1614:1689   */\n      mstore\n        /* \"#utility.yul\":1718:1722   */\n      0x20\n        /* \"#utility.yul\":1713:1716   */\n      dup6\n        /* \"#utility.yul\":1709:1723   */\n      add\n        /* \"#utility.yul\":1702:1723   */\n      swap5\n      pop\n        /* \"#utility.yul\":1752:1756   */\n      0x20\n        /* \"#utility.yul\":1747:1750   */\n      dup5\n        /* \"#utility.yul\":1743:1757   */\n      add\n        /* \"#utility.yul\":1736:1757   */\n      swap4\n      pop\n        /* \"#utility.yul\":1359:1767   */\n      pop\n      pop\n        /* \"#utility.yul\":1346:1347   */\n      0x01\n        /* \"#utility.yul\":1343:1344   */\n      dup2\n        /* \"#utility.yul\":1339:1348   */\n      add\n        /* \"#utility.yul\":1334:1348   */\n      swap1\n      pop\n        /* \"#utility.yul\":1299:1767   */\n      jump(tag_302)\n    tag_304:\n        /* \"#utility.yul\":1303:1317   */\n      pop\n        /* \"#utility.yul\":898:1773   */\n      pop\n      pop\n        /* \"#utility.yul\":771:1773   */\n      swap4\n      swap3\n      pop\n      pop\n      pop\n      jump\t// out\n        /* \"#utility.yul\":1807:2818   */\n    tag_310:\n        /* \"#utility.yul\":1931:1936   */\n      0x00\n        /* \"#utility.yul\":1956:2065   */\n      tag_312\n        /* \"#utility.yul\":1972:2064   */\n      tag_313\n        /* \"#utility.yul\":2057:2063   */\n      dup5\n        /* \"#utility.yul\":1972:2064   */\n      tag_314\n      jump\t// in\n    tag_313:\n        /* \"#utility.yul\":1956:2065   */\n      tag_286\n      jump\t// in\n    tag_312:\n        /* \"#utility.yul\":1947:2065   */\n      swap1\n      pop\n        /* \"#utility.yul\":2085:2090   */\n      dup1\n        /* \"#utility.yul\":2114:2120   */\n      dup4\n        /* \"#utility.yul\":2107:2112   */\n      dup3\n        /* \"#utility.yul\":2100:2121   */\n      mstore\n        /* \"#utility.yul\":2148:2152   */\n      0x20\n        /* \"#utility.yul\":2141:2146   */\n      dup3\n        /* \"#utility.yul\":2137:2153   */\n      add\n        /* \"#utility.yul\":2130:2153   */\n      swap1\n      pop\n        /* \"#utility.yul\":2174:2180   */\n      dup3\n        /* \"#utility.yul\":2224:2227   */\n      dup6\n        /* \"#utility.yul\":2216:2220   */\n      0x20\n        /* \"#utility.yul\":2208:2214   */\n      dup7\n        /* \"#utility.yul\":2204:2221   */\n      mul\n        /* \"#utility.yul\":2199:2202   */\n      dup3\n        /* \"#utility.yul\":2195:2222   */\n      add\n        /* \"#utility.yul\":2192:2228   */\n      gt\n        /* \"#utility.yul\":2189:2332   */\n      iszero\n      tag_315\n      jumpi\n        /* \"#utility.yul\":2243:2322   */\n      tag_316\n      tag_289\n      jump\t// in\n    tag_316:\n        /* \"#utility.yul\":2189:2332   */\n    tag_315:\n        /* \"#utility.yul\":2356:2357   */\n      0x00\n        /* \"#utility.yul\":2341:2812   */\n    tag_317:\n        /* \"#utility.yul\":2366:2372   */\n      dup6\n        /* \"#utility.yul\":2363:2364   */\n      dup2\n        /* \"#utility.yul\":2360:2373   */\n      lt\n        /* \"#utility.yul\":2341:2812   */\n      iszero\n      tag_319\n      jumpi\n        /* \"#utility.yul\":2448:2451   */\n      dup2\n        /* \"#utility.yul\":2435:2452   */\n      calldataload\n        /* \"#utility.yul\":2484:2502   */\n      0xffffffffffffffff\n        /* \"#utility.yul\":2471:2482   */\n      dup2\n        /* \"#utility.yul\":2468:2503   */\n      gt\n        /* \"#utility.yul\":2465:2587   */\n      iszero\n      tag_320\n      jumpi\n        /* \"#utility.yul\":2506:2585   */\n      tag_321\n      tag_307\n      jump\t// in\n    tag_321:\n        /* \"#utility.yul\":2465:2587   */\n    tag_320:\n        /* \"#utility.yul\":2630:2641   */\n      dup1\n        /* \"#utility.yul\":2622:2628   */\n      dup7\n        /* \"#utility.yul\":2618:2642   */\n      add\n        /* \"#utility.yul\":2668:2733   */\n      tag_322\n        /* \"#utility.yul\":2729:2732   */\n      dup10\n        /* \"#utility.yul\":2717:2727   */\n      dup3\n        /* \"#utility.yul\":2668:2733   */\n      tag_323\n      jump\t// in\n    tag_322:\n        /* \"#utility.yul\":2663:2666   */\n      dup6\n        /* \"#utility.yul\":2656:2734   */\n      mstore\n        /* \"#utility.yul\":2763:2767   */\n      0x20\n        /* \"#utility.yul\":2758:2761   */\n      dup6\n        /* \"#utility.yul\":2754:2768   */\n      add\n        /* \"#utility.yul\":2747:2768   */\n      swap5\n      pop\n        /* \"#utility.yul\":2797:2801   */\n      0x20\n        /* \"#utility.yul\":2792:2795   */\n      dup5\n        /* \"#utility.yul\":2788:2802   */\n      add\n        /* \"#utility.yul\":2781:2802   */\n      swap4\n      pop\n        /* \"#utility.yul\":2401:2812   */\n      pop\n      pop\n        /* \"#utility.yul\":2388:2389   */\n      0x01\n        /* \"#utility.yul\":2385:2386   */\n      dup2\n        /* \"#utility.yul\":2381:2390   */\n      add\n        /* \"#utility.yul\":2376:2390   */\n      swap1\n      pop\n        /* \"#utility.yul\":2341:2812   */\n      jump(tag_317)\n    tag_319:\n        /* \"#utility.yul\":2345:2359   */\n      pop\n        /* \"#utility.yul\":1937:2818   */\n      pop\n      pop\n        /* \"#utility.yul\":1807:2818   */\n      swap4\n      swap3\n      pop\n      pop\n      pop\n      jump\t// out\n        /* \"#utility.yul\":2841:3563   */\n    tag_324:\n        /* \"#utility.yul\":2937:2942   */\n      0x00\n        /* \"#utility.yul\":2962:3043   */\n      tag_326\n        /* \"#utility.yul\":2978:3042   */\n      tag_327\n        /* \"#utility.yul\":3035:3041   */\n      dup5\n        /* \"#utility.yul\":2978:3042   */\n      tag_328\n      jump\t// in\n    tag_327:\n        /* \"#utility.yul\":2962:3043   */\n      tag_286\n      jump\t// in\n    tag_326:\n        /* \"#utility.yul\":2953:3043   */\n      swap1\n      pop\n        /* \"#utility.yul\":3063:3068   */\n      dup1\n        /* \"#utility.yul\":3092:3098   */\n      dup4\n        /* \"#utility.yul\":3085:3090   */\n      dup3\n        /* \"#utility.yul\":3078:3099   */\n      mstore\n        /* \"#utility.yul\":3126:3130   */\n      0x20\n        /* \"#utility.yul\":3119:3124   */\n      dup3\n        /* \"#utility.yul\":3115:3131   */\n      add\n        /* \"#utility.yul\":3108:3131   */\n      swap1\n      pop\n        /* \"#utility.yul\":3152:3158   */\n      dup3\n        /* \"#utility.yul\":3202:3205   */\n      dup6\n        /* \"#utility.yul\":3194:3198   */\n      0x20\n        /* \"#utility.yul\":3186:3192   */\n      dup7\n        /* \"#utility.yul\":3182:3199   */\n      mul\n        /* \"#utility.yul\":3177:3180   */\n      dup3\n        /* \"#utility.yul\":3173:3200   */\n      add\n        /* \"#utility.yul\":3170:3206   */\n      gt\n        /* \"#utility.yul\":3167:3310   */\n      iszero\n      tag_329\n      jumpi\n        /* \"#utility.yul\":3221:3300   */\n      tag_330\n      tag_289\n      jump\t// in\n    tag_330:\n        /* \"#utility.yul\":3167:3310   */\n    tag_329:\n        /* \"#utility.yul\":3334:3335   */\n      0x00\n        /* \"#utility.yul\":3319:3557   */\n    tag_331:\n        /* \"#utility.yul\":3344:3350   */\n      dup6\n        /* \"#utility.yul\":3341:3342   */\n      dup2\n        /* \"#utility.yul\":3338:3351   */\n      lt\n        /* \"#utility.yul\":3319:3557   */\n      iszero\n      tag_333\n      jumpi\n        /* \"#utility.yul\":3412:3415   */\n      dup2\n        /* \"#utility.yul\":3441:3478   */\n      tag_334\n        /* \"#utility.yul\":3474:3477   */\n      dup9\n        /* \"#utility.yul\":3462:3472   */\n      dup3\n        /* \"#utility.yul\":3441:3478   */\n      tag_335\n      jump\t// in\n    tag_334:\n        /* \"#utility.yul\":3436:3439   */\n      dup5\n        /* \"#utility.yul\":3429:3479   */\n      mstore\n        /* \"#utility.yul\":3508:3512   */\n      0x20\n        /* \"#utility.yul\":3503:3506   */\n      dup5\n        /* \"#utility.yul\":3499:3513   */\n      add\n        /* \"#utility.yul\":3492:3513   */\n      swap4\n      pop\n        /* \"#utility.yul\":3542:3546   */\n      0x20\n        /* \"#utility.yul\":3537:3540   */\n      dup4\n        /* \"#utility.yul\":3533:3547   */\n      add\n        /* \"#utility.yul\":3526:3547   */\n      swap3\n      pop\n        /* \"#utility.yul\":3379:3557   */\n      pop\n        /* \"#utility.yul\":3366:3367   */\n      0x01\n        /* \"#utility.yul\":3363:3364   */\n      dup2\n        /* \"#utility.yul\":3359:3368   */\n      add\n        /* \"#utility.yul\":3354:3368   */\n      swap1\n      pop\n        /* \"#utility.yul\":3319:3557   */\n      jump(tag_331)\n    tag_333:\n        /* \"#utility.yul\":3323:3337   */\n      pop\n        /* \"#utility.yul\":2943:3563   */\n      pop\n      pop\n        /* \"#utility.yul\":2841:3563   */\n      swap4\n      swap3\n      pop\n      pop\n      pop\n      jump\t// out\n        /* \"#utility.yul\":3569:3981   */\n    tag_336:\n        /* \"#utility.yul\":3647:3652   */\n      0x00\n        /* \"#utility.yul\":3672:3738   */\n      tag_338\n        /* \"#utility.yul\":3688:3737   */\n      tag_339\n        /* \"#utility.yul\":3730:3736   */\n      dup5\n        /* \"#utility.yul\":3688:3737   */\n      tag_340\n      jump\t// in\n    tag_339:\n        /* \"#utility.yul\":3672:3738   */\n      tag_286\n      jump\t// in\n    tag_338:\n        /* \"#utility.yul\":3663:3738   */\n      swap1\n      pop\n        /* \"#utility.yul\":3761:3767   */\n      dup3\n        /* \"#utility.yul\":3754:3759   */\n      dup2\n        /* \"#utility.yul\":3747:3768   */\n      mstore\n        /* \"#utility.yul\":3799:3803   */\n      0x20\n        /* \"#utility.yul\":3792:3797   */\n      dup2\n        /* \"#utility.yul\":3788:3804   */\n      add\n        /* \"#utility.yul\":3837:3840   */\n      dup5\n        /* \"#utility.yul\":3828:3834   */\n      dup5\n        /* \"#utility.yul\":3823:3826   */\n      dup5\n        /* \"#utility.yul\":3819:3835   */\n      add\n        /* \"#utility.yul\":3816:3841   */\n      gt\n        /* \"#utility.yul\":3813:3925   */\n      iszero\n      tag_341\n      jumpi\n        /* \"#utility.yul\":3844:3923   */\n      tag_342\n      tag_343\n      jump\t// in\n    tag_342:\n        /* \"#utility.yul\":3813:3925   */\n    tag_341:\n        /* \"#utility.yul\":3934:3975   */\n      tag_344\n        /* \"#utility.yul\":3968:3974   */\n      dup5\n        /* \"#utility.yul\":3963:3966   */\n      dup3\n        /* \"#utility.yul\":3958:3961   */\n      dup6\n        /* \"#utility.yul\":3934:3975   */\n      tag_345\n      jump\t// in\n    tag_344:\n        /* \"#utility.yul\":3653:3981   */\n      pop\n        /* \"#utility.yul\":3569:3981   */\n      swap4\n      swap3\n      pop\n      pop\n      pop\n      jump\t// out\n        /* \"#utility.yul\":3987:4126   */\n    tag_294:\n        /* \"#utility.yul\":4033:4038   */\n      0x00\n        /* \"#utility.yul\":4071:4077   */\n      dup2\n        /* \"#utility.yul\":4058:4078   */\n      calldataload\n        /* \"#utility.yul\":4049:4078   */\n      swap1\n      pop\n        /* \"#utility.yul\":4087:4120   */\n      tag_347\n        /* \"#utility.yul\":4114:4119   */\n      dup2\n        /* \"#utility.yul\":4087:4120   */\n      tag_348\n      jump\t// in\n    tag_347:\n        /* \"#utility.yul\":3987:4126   */\n      swap3\n      swap2\n      pop\n      pop\n      jump\t// out\n        /* \"#utility.yul\":4132:4275   */\n    tag_349:\n        /* \"#utility.yul\":4189:4194   */\n      0x00\n        /* \"#utility.yul\":4220:4226   */\n      dup2\n        /* \"#utility.yul\":4214:4227   */\n      mload\n        /* \"#utility.yul\":4205:4227   */\n      swap1\n      pop\n        /* \"#utility.yul\":4236:4269   */\n      tag_351\n        /* \"#utility.yul\":4263:4268   */\n      dup2\n        /* \"#utility.yul\":4236:4269   */\n      tag_348\n      jump\t// in\n    tag_351:\n        /* \"#utility.yul\":4132:4275   */\n      swap3\n      swap2\n      pop\n      pop\n      jump\t// out\n        /* \"#utility.yul\":4298:4668   */\n    tag_352:\n        /* \"#utility.yul\":4369:4374   */\n      0x00\n        /* \"#utility.yul\":4418:4421   */\n      dup3\n        /* \"#utility.yul\":4411:4415   */\n      0x1f\n        /* \"#utility.yul\":4403:4409   */\n      dup4\n        /* \"#utility.yul\":4399:4416   */\n      add\n        /* \"#utility.yul\":4395:4422   */\n      slt\n        /* \"#utility.yul\":4385:4507   */\n      tag_354\n      jumpi\n        /* \"#utility.yul\":4426:4505   */\n      tag_355\n      tag_307\n      jump\t// in\n    tag_355:\n        /* \"#utility.yul\":4385:4507   */\n    tag_354:\n        /* \"#utility.yul\":4543:4549   */\n      dup2\n        /* \"#utility.yul\":4530:4550   */\n      calldataload\n        /* \"#utility.yul\":4568:4662   */\n      tag_356\n        /* \"#utility.yul\":4658:4661   */\n      dup5\n        /* \"#utility.yul\":4650:4656   */\n      dup3\n        /* \"#utility.yul\":4643:4647   */\n      0x20\n        /* \"#utility.yul\":4635:4641   */\n      dup7\n        /* \"#utility.yul\":4631:4648   */\n      add\n        /* \"#utility.yul\":4568:4662   */\n      tag_281\n      jump\t// in\n    tag_356:\n        /* \"#utility.yul\":4559:4662   */\n      swap2\n      pop\n        /* \"#utility.yul\":4375:4668   */\n      pop\n        /* \"#utility.yul\":4298:4668   */\n      swap3\n      swap2\n      pop\n      pop\n      jump\t// out\n        /* \"#utility.yul\":4693:5113   */\n    tag_357:\n        /* \"#utility.yul\":4789:4794   */\n      0x00\n        /* \"#utility.yul\":4838:4841   */\n      dup3\n        /* \"#utility.yul\":4831:4835   */\n      0x1f\n        /* \"#utility.yul\":4823:4829   */\n      dup4\n        /* \"#utility.yul\":4819:4836   */\n      add\n        /* \"#utility.yul\":4815:4842   */\n      slt\n        /* \"#utility.yul\":4805:4927   */\n      tag_359\n      jumpi\n        /* \"#utility.yul\":4846:4925   */\n      tag_360\n      tag_307\n      jump\t// in\n    tag_360:\n        /* \"#utility.yul\":4805:4927   */\n    tag_359:\n        /* \"#utility.yul\":4963:4969   */\n      dup2\n        /* \"#utility.yul\":4950:4970   */\n      calldataload\n        /* \"#utility.yul\":4988:5107   */\n      tag_361\n        /* \"#utility.yul\":5103:5106   */\n      dup5\n        /* \"#utility.yul\":5095:5101   */\n      dup3\n        /* \"#utility.yul\":5088:5092   */\n      0x20\n        /* \"#utility.yul\":5080:5086   */\n      dup7\n        /* \"#utility.yul\":5076:5093   */\n      add\n        /* \"#utility.yul\":4988:5107   */\n      tag_295\n      jump\t// in\n    tag_361:\n        /* \"#utility.yul\":4979:5107   */\n      swap2\n      pop\n        /* \"#utility.yul\":4795:5113   */\n      pop\n        /* \"#utility.yul\":4693:5113   */\n      swap3\n      swap2\n      pop\n      pop\n      jump\t// out\n        /* \"#utility.yul\":5147:5573   */\n    tag_362:\n        /* \"#utility.yul\":5246:5251   */\n      0x00\n        /* \"#utility.yul\":5295:5298   */\n      dup3\n        /* \"#utility.yul\":5288:5292   */\n      0x1f\n        /* \"#utility.yul\":5280:5286   */\n      dup4\n        /* \"#utility.yul\":5276:5293   */\n      add\n        /* \"#utility.yul\":5272:5299   */\n      slt\n        /* \"#utility.yul\":5262:5384   */\n      tag_364\n      jumpi\n        /* \"#utility.yul\":5303:5382   */\n      tag_365\n      tag_307\n      jump\t// in\n    tag_365:\n        /* \"#utility.yul\":5262:5384   */\n    tag_364:\n        /* \"#utility.yul\":5420:5426   */\n      dup2\n        /* \"#utility.yul\":5407:5427   */\n      calldataload\n        /* \"#utility.yul\":5445:5567   */\n      tag_366\n        /* \"#utility.yul\":5563:5566   */\n      dup5\n        /* \"#utility.yul\":5555:5561   */\n      dup3\n        /* \"#utility.yul\":5548:5552   */\n      0x20\n        /* \"#utility.yul\":5540:5546   */\n      dup7\n        /* \"#utility.yul\":5536:5553   */\n      add\n        /* \"#utility.yul\":5445:5567   */\n      tag_310\n      jump\t// in\n    tag_366:\n        /* \"#utility.yul\":5436:5567   */\n      swap2\n      pop\n        /* \"#utility.yul\":5252:5573   */\n      pop\n        /* \"#utility.yul\":5147:5573   */\n      swap3\n      swap2\n      pop\n      pop\n      jump\t// out\n        /* \"#utility.yul\":5596:5966   */\n    tag_309:\n        /* \"#utility.yul\":5667:5672   */\n      0x00\n        /* \"#utility.yul\":5716:5719   */\n      dup3\n        /* \"#utility.yul\":5709:5713   */\n      0x1f\n        /* \"#utility.yul\":5701:5707   */\n      dup4\n        /* \"#utility.yul\":5697:5714   */\n      add\n        /* \"#utility.yul\":5693:5720   */\n      slt\n        /* \"#utility.yul\":5683:5805   */\n      tag_368\n      jumpi\n        /* \"#utility.yul\":5724:5803   */\n      tag_369\n      tag_307\n      jump\t// in\n    tag_369:\n        /* \"#utility.yul\":5683:5805   */\n    tag_368:\n        /* \"#utility.yul\":5841:5847   */\n      dup2\n        /* \"#utility.yul\":5828:5848   */\n      calldataload\n        /* \"#utility.yul\":5866:5960   */\n      tag_370\n        /* \"#utility.yul\":5956:5959   */\n      dup5\n        /* \"#utility.yul\":5948:5954   */\n      dup3\n        /* \"#utility.yul\":5941:5945   */\n      0x20\n        /* \"#utility.yul\":5933:5939   */\n      dup7\n        /* \"#utility.yul\":5929:5946   */\n      add\n        /* \"#utility.yul\":5866:5960   */\n      tag_324\n      jump\t// in\n    tag_370:\n        /* \"#utility.yul\":5857:5960   */\n      swap2\n      pop\n        /* \"#utility.yul\":5673:5966   */\n      pop\n        /* \"#utility.yul\":5596:5966   */\n      swap3\n      swap2\n      pop\n      pop\n      jump\t// out\n        /* \"#utility.yul\":5972:6109   */\n    tag_371:\n        /* \"#utility.yul\":6026:6031   */\n      0x00\n        /* \"#utility.yul\":6057:6063   */\n      dup2\n        /* \"#utility.yul\":6051:6064   */\n      mload\n        /* \"#utility.yul\":6042:6064   */\n      swap1\n      pop\n        /* \"#utility.yul\":6073:6103   */\n      tag_373\n        /* \"#utility.yul\":6097:6102   */\n      dup2\n        /* \"#utility.yul\":6073:6103   */\n      tag_374\n      jump\t// in\n    tag_373:\n        /* \"#utility.yul\":5972:6109   */\n      swap3\n      swap2\n      pop\n      pop\n      jump\t// out\n        /* \"#utility.yul\":6129:6469   */\n    tag_375:\n        /* \"#utility.yul\":6185:6190   */\n      0x00\n        /* \"#utility.yul\":6234:6237   */\n      dup3\n        /* \"#utility.yul\":6227:6231   */\n      0x1f\n        /* \"#utility.yul\":6219:6225   */\n      dup4\n        /* \"#utility.yul\":6215:6232   */\n      add\n        /* \"#utility.yul\":6211:6238   */\n      slt\n        /* \"#utility.yul\":6201:6323   */\n      tag_377\n      jumpi\n        /* \"#utility.yul\":6242:6321   */\n      tag_378\n      tag_307\n      jump\t// in\n    tag_378:\n        /* \"#utility.yul\":6201:6323   */\n    tag_377:\n        /* \"#utility.yul\":6359:6365   */\n      dup2\n        /* \"#utility.yul\":6346:6366   */\n      calldataload\n        /* \"#utility.yul\":6384:6463   */\n      tag_379\n        /* \"#utility.yul\":6459:6462   */\n      dup5\n        /* \"#utility.yul\":6451:6457   */\n      dup3\n        /* \"#utility.yul\":6444:6448   */\n      0x20\n        /* \"#utility.yul\":6436:6442   */\n      dup7\n        /* \"#utility.yul\":6432:6449   */\n      add\n        /* \"#utility.yul\":6384:6463   */\n      tag_336\n      jump\t// in\n    tag_379:\n        /* \"#utility.yul\":6375:6463   */\n      swap2\n      pop\n        /* \"#utility.yul\":6191:6469   */\n      pop\n        /* \"#utility.yul\":6129:6469   */\n      swap3\n      swap2\n      pop\n      pop\n      jump\t// out\n        /* \"#utility.yul\":6501:7622   */\n    tag_323:\n        /* \"#utility.yul\":6578:6583   */\n      0x00\n        /* \"#utility.yul\":6622:6626   */\n      0x60\n        /* \"#utility.yul\":6610:6619   */\n      dup3\n        /* \"#utility.yul\":6605:6608   */\n      dup5\n        /* \"#utility.yul\":6601:6620   */\n      sub\n        /* \"#utility.yul\":6597:6627   */\n      slt\n        /* \"#utility.yul\":6594:6711   */\n      iszero\n      tag_381\n      jumpi\n        /* \"#utility.yul\":6630:6709   */\n      tag_382\n      tag_383\n      jump\t// in\n    tag_382:\n        /* \"#utility.yul\":6594:6711   */\n    tag_381:\n        /* \"#utility.yul\":6729:6750   */\n      tag_384\n        /* \"#utility.yul\":6745:6749   */\n      0x60\n        /* \"#utility.yul\":6729:6750   */\n      tag_286\n      jump\t// in\n    tag_384:\n        /* \"#utility.yul\":6720:6750   */\n      swap1\n      pop\n        /* \"#utility.yul\":6820:6821   */\n      0x00\n        /* \"#utility.yul\":6860:6909   */\n      tag_385\n        /* \"#utility.yul\":6905:6908   */\n      dup5\n        /* \"#utility.yul\":6896:6902   */\n      dup3\n        /* \"#utility.yul\":6885:6894   */\n      dup6\n        /* \"#utility.yul\":6881:6903   */\n      add\n        /* \"#utility.yul\":6860:6909   */\n      tag_335\n      jump\t// in\n    tag_385:\n        /* \"#utility.yul\":6853:6857   */\n      0x00\n        /* \"#utility.yul\":6846:6851   */\n      dup4\n        /* \"#utility.yul\":6842:6858   */\n      add\n        /* \"#utility.yul\":6835:6910   */\n      mstore\n        /* \"#utility.yul\":6760:6921   */\n      pop\n        /* \"#utility.yul\":7019:7021   */\n      0x20\n        /* \"#utility.yul\":7008:7017   */\n      dup3\n        /* \"#utility.yul\":7004:7022   */\n      add\n        /* \"#utility.yul\":6991:7023   */\n      calldataload\n        /* \"#utility.yul\":7050:7068   */\n      0xffffffffffffffff\n        /* \"#utility.yul\":7042:7048   */\n      dup2\n        /* \"#utility.yul\":7039:7069   */\n      gt\n        /* \"#utility.yul\":7036:7153   */\n      iszero\n      tag_386\n      jumpi\n        /* \"#utility.yul\":7072:7151   */\n      tag_387\n      tag_388\n      jump\t// in\n    tag_387:\n        /* \"#utility.yul\":7036:7153   */\n    tag_386:\n        /* \"#utility.yul\":7192:7251   */\n      tag_389\n        /* \"#utility.yul\":7247:7250   */\n      dup5\n        /* \"#utility.yul\":7238:7244   */\n      dup3\n        /* \"#utility.yul\":7227:7236   */\n      dup6\n        /* \"#utility.yul\":7223:7245   */\n      add\n        /* \"#utility.yul\":7192:7251   */\n      tag_375\n      jump\t// in\n    tag_389:\n        /* \"#utility.yul\":7185:7189   */\n      0x20\n        /* \"#utility.yul\":7178:7183   */\n      dup4\n        /* \"#utility.yul\":7174:7190   */\n      add\n        /* \"#utility.yul\":7167:7252   */\n      mstore\n        /* \"#utility.yul\":6931:7263   */\n      pop\n        /* \"#utility.yul\":7356:7358   */\n      0x40\n        /* \"#utility.yul\":7345:7354   */\n      dup3\n        /* \"#utility.yul\":7341:7359   */\n      add\n        /* \"#utility.yul\":7328:7360   */\n      calldataload\n        /* \"#utility.yul\":7387:7405   */\n      0xffffffffffffffff\n        /* \"#utility.yul\":7379:7385   */\n      dup2\n        /* \"#utility.yul\":7376:7406   */\n      gt\n        /* \"#utility.yul\":7373:7490   */\n      iszero\n      tag_390\n      jumpi\n        /* \"#utility.yul\":7409:7488   */\n      tag_391\n      tag_388\n      jump\t// in\n    tag_391:\n        /* \"#utility.yul\":7373:7490   */\n    tag_390:\n        /* \"#utility.yul\":7529:7603   */\n      tag_392\n        /* \"#utility.yul\":7599:7602   */\n      dup5\n        /* \"#utility.yul\":7590:7596   */\n      dup3\n        /* \"#utility.yul\":7579:7588   */\n      dup6\n        /* \"#utility.yul\":7575:7597   */\n      add\n        /* \"#utility.yul\":7529:7603   */\n      tag_352\n      jump\t// in\n    tag_392:\n        /* \"#utility.yul\":7522:7526   */\n      0x40\n        /* \"#utility.yul\":7515:7520   */\n      dup4\n        /* \"#utility.yul\":7511:7527   */\n      add\n        /* \"#utility.yul\":7504:7604   */\n      mstore\n        /* \"#utility.yul\":7273:7615   */\n      pop\n        /* \"#utility.yul\":6501:7622   */\n      swap3\n      swap2\n      pop\n      pop\n      jump\t// out\n        /* \"#utility.yul\":7628:7767   */\n    tag_335:\n        /* \"#utility.yul\":7674:7679   */\n      0x00\n        /* \"#utility.yul\":7712:7718   */\n      dup2\n        /* \"#utility.yul\":7699:7719   */\n      calldataload\n        /* \"#utility.yul\":7690:7719   */\n      swap1\n      pop\n        /* \"#utility.yul\":7728:7761   */\n      tag_394\n        /* \"#utility.yul\":7755:7760   */\n      dup2\n        /* \"#utility.yul\":7728:7761   */\n      tag_395\n      jump\t// in\n    tag_394:\n        /* \"#utility.yul\":7628:7767   */\n      swap3\n      swap2\n      pop\n      pop\n      jump\t// out\n        /* \"#utility.yul\":7773:7916   */\n    tag_396:\n        /* \"#utility.yul\":7830:7835   */\n      0x00\n        /* \"#utility.yul\":7861:7867   */\n      dup2\n        /* \"#utility.yul\":7855:7868   */\n      mload\n        /* \"#utility.yul\":7846:7868   */\n      swap1\n      pop\n        /* \"#utility.yul\":7877:7910   */\n      tag_398\n        /* \"#utility.yul\":7904:7909   */\n      dup2\n        /* \"#utility.yul\":7877:7910   */\n      tag_395\n      jump\t// in\n    tag_398:\n        /* \"#utility.yul\":7773:7916   */\n      swap3\n      swap2\n      pop\n      pop\n      jump\t// out\n        /* \"#utility.yul\":7922:8251   */\n    tag_45:\n        /* \"#utility.yul\":7981:7987   */\n      0x00\n        /* \"#utility.yul\":8030:8032   */\n      0x20\n        /* \"#utility.yul\":8018:8027   */\n      dup3\n        /* \"#utility.yul\":8009:8016   */\n      dup5\n        /* \"#utility.yul\":8005:8028   */\n      sub\n        /* \"#utility.yul\":8001:8033   */\n      slt\n        /* \"#utility.yul\":7998:8117   */\n      iszero\n      tag_400\n      jumpi\n        /* \"#utility.yul\":8036:8115   */\n      tag_401\n      tag_402\n      jump\t// in\n    tag_401:\n        /* \"#utility.yul\":7998:8117   */\n    tag_400:\n        /* \"#utility.yul\":8156:8157   */\n      0x00\n        /* \"#utility.yul\":8181:8234   */\n      tag_403\n        /* \"#utility.yul\":8226:8233   */\n      dup5\n        /* \"#utility.yul\":8217:8223   */\n      dup3\n        /* \"#utility.yul\":8206:8215   */\n      dup6\n        /* \"#utility.yul\":8202:8224   */\n      add\n        /* \"#utility.yul\":8181:8234   */\n      tag_294\n      jump\t// in\n    tag_403:\n        /* \"#utility.yul\":8171:8234   */\n      swap2\n      pop\n        /* \"#utility.yul\":8127:8244   */\n      pop\n        /* \"#utility.yul\":7922:8251   */\n      swap3\n      swap2\n      pop\n      pop\n      jump\t// out\n        /* \"#utility.yul\":8257:8608   */\n    tag_137:\n        /* \"#utility.yul\":8327:8333   */\n      0x00\n        /* \"#utility.yul\":8376:8378   */\n      0x20\n        /* \"#utility.yul\":8364:8373   */\n      dup3\n        /* \"#utility.yul\":8355:8362   */\n      dup5\n        /* \"#utility.yul\":8351:8374   */\n      sub\n        /* \"#utility.yul\":8347:8379   */\n      slt\n        /* \"#utility.yul\":8344:8463   */\n      iszero\n      tag_405\n      jumpi\n        /* \"#utility.yul\":8382:8461   */\n      tag_406\n      tag_402\n      jump\t// in\n    tag_406:\n        /* \"#utility.yul\":8344:8463   */\n    tag_405:\n        /* \"#utility.yul\":8502:8503   */\n      0x00\n        /* \"#utility.yul\":8527:8591   */\n      tag_407\n        /* \"#utility.yul\":8583:8590   */\n      dup5\n        /* \"#utility.yul\":8574:8580   */\n      dup3\n        /* \"#utility.yul\":8563:8572   */\n      dup6\n        /* \"#utility.yul\":8559:8581   */\n      add\n        /* \"#utility.yul\":8527:8591   */\n      tag_349\n      jump\t// in\n    tag_407:\n        /* \"#utility.yul\":8517:8591   */\n      swap2\n      pop\n        /* \"#utility.yul\":8473:8601   */\n      pop\n        /* \"#utility.yul\":8257:8608   */\n      swap3\n      swap2\n      pop\n      pop\n      jump\t// out\n        /* \"#utility.yul\":8614:8959   */\n    tag_107:\n        /* \"#utility.yul\":8681:8687   */\n      0x00\n        /* \"#utility.yul\":8730:8732   */\n      0x20\n        /* \"#utility.yul\":8718:8727   */\n      dup3\n        /* \"#utility.yul\":8709:8716   */\n      dup5\n        /* \"#utility.yul\":8705:8728   */\n      sub\n        /* \"#utility.yul\":8701:8733   */\n      slt\n        /* \"#utility.yul\":8698:8817   */\n      iszero\n      tag_409\n      jumpi\n        /* \"#utility.yul\":8736:8815   */\n      tag_410\n      tag_402\n      jump\t// in\n    tag_410:\n        /* \"#utility.yul\":8698:8817   */\n    tag_409:\n        /* \"#utility.yul\":8856:8857   */\n      0x00\n        /* \"#utility.yul\":8881:8942   */\n      tag_411\n        /* \"#utility.yul\":8934:8941   */\n      dup5\n        /* \"#utility.yul\":8925:8931   */\n      dup3\n        /* \"#utility.yul\":8914:8923   */\n      dup6\n        /* \"#utility.yul\":8910:8932   */\n      add\n        /* \"#utility.yul\":8881:8942   */\n      tag_371\n      jump\t// in\n    tag_411:\n        /* \"#utility.yul\":8871:8942   */\n      swap2\n      pop\n        /* \"#utility.yul\":8827:8952   */\n      pop\n        /* \"#utility.yul\":8614:8959   */\n      swap3\n      swap2\n      pop\n      pop\n      jump\t// out\n        /* \"#utility.yul\":8965:11230   */\n    tag_15:\n        /* \"#utility.yul\":9225:9231   */\n      0x00\n        /* \"#utility.yul\":9233:9239   */\n      dup1\n        /* \"#utility.yul\":9241:9247   */\n      0x00\n        /* \"#utility.yul\":9249:9255   */\n      dup1\n        /* \"#utility.yul\":9257:9263   */\n      0x00\n        /* \"#utility.yul\":9265:9271   */\n      dup1\n        /* \"#utility.yul\":9273:9279   */\n      0x00\n        /* \"#utility.yul\":9281:9287   */\n      dup1\n        /* \"#utility.yul\":9330:9333   */\n      0x0100\n        /* \"#utility.yul\":9318:9327   */\n      dup10\n        /* \"#utility.yul\":9309:9316   */\n      dup12\n        /* \"#utility.yul\":9305:9328   */\n      sub\n        /* \"#utility.yul\":9301:9334   */\n      slt\n        /* \"#utility.yul\":9298:9418   */\n      iszero\n      tag_413\n      jumpi\n        /* \"#utility.yul\":9337:9416   */\n      tag_414\n      tag_402\n      jump\t// in\n    tag_414:\n        /* \"#utility.yul\":9298:9418   */\n    tag_413:\n        /* \"#utility.yul\":9485:9486   */\n      0x00\n        /* \"#utility.yul\":9474:9483   */\n      dup10\n        /* \"#utility.yul\":9470:9487   */\n      add\n        /* \"#utility.yul\":9457:9488   */\n      calldataload\n        /* \"#utility.yul\":9515:9533   */\n      0xffffffffffffffff\n        /* \"#utility.yul\":9507:9513   */\n      dup2\n        /* \"#utility.yul\":9504:9534   */\n      gt\n        /* \"#utility.yul\":9501:9618   */\n      iszero\n      tag_415\n      jumpi\n        /* \"#utility.yul\":9537:9616   */\n      tag_416\n      tag_417\n      jump\t// in\n    tag_416:\n        /* \"#utility.yul\":9501:9618   */\n    tag_415:\n        /* \"#utility.yul\":9642:9705   */\n      tag_418\n        /* \"#utility.yul\":9697:9704   */\n      dup12\n        /* \"#utility.yul\":9688:9694   */\n      dup3\n        /* \"#utility.yul\":9677:9686   */\n      dup13\n        /* \"#utility.yul\":9673:9695   */\n      add\n        /* \"#utility.yul\":9642:9705   */\n      tag_375\n      jump\t// in\n    tag_418:\n        /* \"#utility.yul\":9632:9705   */\n      swap9\n      pop\n        /* \"#utility.yul\":9428:9715   */\n      pop\n        /* \"#utility.yul\":9782:9784   */\n      0x20\n        /* \"#utility.yul\":9771:9780   */\n      dup10\n        /* \"#utility.yul\":9767:9785   */\n      add\n        /* \"#utility.yul\":9754:9786   */\n      calldataload\n        /* \"#utility.yul\":9813:9831   */\n      0xffffffffffffffff\n        /* \"#utility.yul\":9805:9811   */\n      dup2\n        /* \"#utility.yul\":9802:9832   */\n      gt\n        /* \"#utility.yul\":9799:9916   */\n      iszero\n      tag_419\n      jumpi\n        /* \"#utility.yul\":9835:9914   */\n      tag_420\n      tag_417\n      jump\t// in\n    tag_420:\n        /* \"#utility.yul\":9799:9916   */\n    tag_419:\n        /* \"#utility.yul\":9940:10018   */\n      tag_421\n        /* \"#utility.yul\":10010:10017   */\n      dup12\n        /* \"#utility.yul\":10001:10007   */\n      dup3\n        /* \"#utility.yul\":9990:9999   */\n      dup13\n        /* \"#utility.yul\":9986:10008   */\n      add\n        /* \"#utility.yul\":9940:10018   */\n      tag_309\n      jump\t// in\n    tag_421:\n        /* \"#utility.yul\":9930:10018   */\n      swap8\n      pop\n        /* \"#utility.yul\":9725:10028   */\n      pop\n        /* \"#utility.yul\":10095:10097   */\n      0x40\n        /* \"#utility.yul\":10084:10093   */\n      dup10\n        /* \"#utility.yul\":10080:10098   */\n      add\n        /* \"#utility.yul\":10067:10099   */\n      calldataload\n        /* \"#utility.yul\":10126:10144   */\n      0xffffffffffffffff\n        /* \"#utility.yul\":10118:10124   */\n      dup2\n        /* \"#utility.yul\":10115:10145   */\n      gt\n        /* \"#utility.yul\":10112:10229   */\n      iszero\n      tag_422\n      jumpi\n        /* \"#utility.yul\":10148:10227   */\n      tag_423\n      tag_417\n      jump\t// in\n    tag_423:\n        /* \"#utility.yul\":10112:10229   */\n    tag_422:\n        /* \"#utility.yul\":10253:10356   */\n      tag_424\n        /* \"#utility.yul\":10348:10355   */\n      dup12\n        /* \"#utility.yul\":10339:10345   */\n      dup3\n        /* \"#utility.yul\":10328:10337   */\n      dup13\n        /* \"#utility.yul\":10324:10346   */\n      add\n        /* \"#utility.yul\":10253:10356   */\n      tag_357\n      jump\t// in\n    tag_424:\n        /* \"#utility.yul\":10243:10356   */\n      swap7\n      pop\n        /* \"#utility.yul\":10038:10366   */\n      pop\n        /* \"#utility.yul\":10433:10435   */\n      0x60\n        /* \"#utility.yul\":10422:10431   */\n      dup10\n        /* \"#utility.yul\":10418:10436   */\n      add\n        /* \"#utility.yul\":10405:10437   */\n      calldataload\n        /* \"#utility.yul\":10464:10482   */\n      0xffffffffffffffff\n        /* \"#utility.yul\":10456:10462   */\n      dup2\n        /* \"#utility.yul\":10453:10483   */\n      gt\n        /* \"#utility.yul\":10450:10567   */\n      iszero\n      tag_425\n      jumpi\n        /* \"#utility.yul\":10486:10565   */\n      tag_426\n      tag_417\n      jump\t// in\n    tag_426:\n        /* \"#utility.yul\":10450:10567   */\n    tag_425:\n        /* \"#utility.yul\":10591:10697   */\n      tag_427\n        /* \"#utility.yul\":10689:10696   */\n      dup12\n        /* \"#utility.yul\":10680:10686   */\n      dup3\n        /* \"#utility.yul\":10669:10678   */\n      dup13\n        /* \"#utility.yul\":10665:10687   */\n      add\n        /* \"#utility.yul\":10591:10697   */\n      tag_362\n      jump\t// in\n    tag_427:\n        /* \"#utility.yul\":10581:10697   */\n      swap6\n      pop\n        /* \"#utility.yul\":10376:10707   */\n      pop\n        /* \"#utility.yul\":10746:10749   */\n      0x80\n        /* \"#utility.yul\":10773:10826   */\n      tag_428\n        /* \"#utility.yul\":10818:10825   */\n      dup12\n        /* \"#utility.yul\":10809:10815   */\n      dup3\n        /* \"#utility.yul\":10798:10807   */\n      dup13\n        /* \"#utility.yul\":10794:10816   */\n      add\n        /* \"#utility.yul\":10773:10826   */\n      tag_335\n      jump\t// in\n    tag_428:\n        /* \"#utility.yul\":10763:10826   */\n      swap5\n      pop\n        /* \"#utility.yul\":10717:10836   */\n      pop\n        /* \"#utility.yul\":10875:10878   */\n      0xa0\n        /* \"#utility.yul\":10902:10955   */\n      tag_429\n        /* \"#utility.yul\":10947:10954   */\n      dup12\n        /* \"#utility.yul\":10938:10944   */\n      dup3\n        /* \"#utility.yul\":10927:10936   */\n      dup13\n        /* \"#utility.yul\":10923:10945   */\n      add\n        /* \"#utility.yul\":10902:10955   */\n      tag_335\n      jump\t// in\n    tag_429:\n        /* \"#utility.yul\":10892:10955   */\n      swap4\n      pop\n        /* \"#utility.yul\":10846:10965   */\n      pop\n        /* \"#utility.yul\":11004:11007   */\n      0xc0\n        /* \"#utility.yul\":11031:11084   */\n      tag_430\n        /* \"#utility.yul\":11076:11083   */\n      dup12\n        /* \"#utility.yul\":11067:11073   */\n      dup3\n        /* \"#utility.yul\":11056:11065   */\n      dup13\n        /* \"#utility.yul\":11052:11074   */\n      add\n        /* \"#utility.yul\":11031:11084   */\n      tag_335\n      jump\t// in\n    tag_430:\n        /* \"#utility.yul\":11021:11084   */\n      swap3\n      pop\n        /* \"#utility.yul\":10975:11094   */\n      pop\n        /* \"#utility.yul\":11133:11136   */\n      0xe0\n        /* \"#utility.yul\":11160:11213   */\n      tag_431\n        /* \"#utility.yul\":11205:11212   */\n      dup12\n        /* \"#utility.yul\":11196:11202   */\n      dup3\n        /* \"#utility.yul\":11185:11194   */\n      dup13\n        /* \"#utility.yul\":11181:11203   */\n      add\n        /* \"#utility.yul\":11160:11213   */\n      tag_294\n      jump\t// in\n    tag_431:\n        /* \"#utility.yul\":11150:11213   */\n      swap2\n      pop\n        /* \"#utility.yul\":11104:11223   */\n      pop\n        /* \"#utility.yul\":8965:11230   */\n      swap3\n      swap6\n      swap9\n      pop\n      swap3\n      swap6\n      swap9\n      swap1\n      swap4\n      swap7\n      pop\n      jump\t// out\n        /* \"#utility.yul\":11236:11565   */\n    tag_29:\n        /* \"#utility.yul\":11295:11301   */\n      0x00\n        /* \"#utility.yul\":11344:11346   */\n      0x20\n        /* \"#utility.yul\":11332:11341   */\n      dup3\n        /* \"#utility.yul\":11323:11330   */\n      dup5\n        /* \"#utility.yul\":11319:11342   */\n      sub\n        /* \"#utility.yul\":11315:11347   */\n      slt\n        /* \"#utility.yul\":11312:11431   */\n      iszero\n      tag_433\n      jumpi\n        /* \"#utility.yul\":11350:11429   */\n      tag_434\n      tag_402\n      jump\t// in\n    tag_434:\n        /* \"#utility.yul\":11312:11431   */\n    tag_433:\n        /* \"#utility.yul\":11470:11471   */\n      0x00\n        /* \"#utility.yul\":11495:11548   */\n      tag_435\n        /* \"#utility.yul\":11540:11547   */\n      dup5\n        /* \"#utility.yul\":11531:11537   */\n      dup3\n        /* \"#utility.yul\":11520:11529   */\n      dup6\n        /* \"#utility.yul\":11516:11538   */\n      add\n        /* \"#utility.yul\":11495:11548   */\n      tag_335\n      jump\t// in\n    tag_435:\n        /* \"#utility.yul\":11485:11548   */\n      swap2\n      pop\n        /* \"#utility.yul\":11441:11558   */\n      pop\n        /* \"#utility.yul\":11236:11565   */\n      swap3\n      swap2\n      pop\n      pop\n      jump\t// out\n        /* \"#utility.yul\":11571:11922   */\n    tag_122:\n        /* \"#utility.yul\":11641:11647   */\n      0x00\n        /* \"#utility.yul\":11690:11692   */\n      0x20\n        /* \"#utility.yul\":11678:11687   */\n      dup3\n        /* \"#utility.yul\":11669:11676   */\n      dup5\n        /* \"#utility.yul\":11665:11688   */\n      sub\n        /* \"#utility.yul\":11661:11693   */\n      slt\n        /* \"#utility.yul\":11658:11777   */\n      iszero\n      tag_437\n      jumpi\n        /* \"#utility.yul\":11696:11775   */\n      tag_438\n      tag_402\n      jump\t// in\n    tag_438:\n        /* \"#utility.yul\":11658:11777   */\n    tag_437:\n        /* \"#utility.yul\":11816:11817   */\n      0x00\n        /* \"#utility.yul\":11841:11905   */\n      tag_439\n        /* \"#utility.yul\":11897:11904   */\n      dup5\n        /* \"#utility.yul\":11888:11894   */\n      dup3\n        /* \"#utility.yul\":11877:11886   */\n      dup6\n        /* \"#utility.yul\":11873:11895   */\n      add\n        /* \"#utility.yul\":11841:11905   */\n      tag_396\n      jump\t// in\n    tag_439:\n        /* \"#utility.yul\":11831:11905   */\n      swap2\n      pop\n        /* \"#utility.yul\":11787:11915   */\n      pop\n        /* \"#utility.yul\":11571:11922   */\n      swap3\n      swap2\n      pop\n      pop\n      jump\t// out\n        /* \"#utility.yul\":11928:12402   */\n    tag_33:\n        /* \"#utility.yul\":11996:12002   */\n      0x00\n        /* \"#utility.yul\":12004:12010   */\n      dup1\n        /* \"#utility.yul\":12053:12055   */\n      0x40\n        /* \"#utility.yul\":12041:12050   */\n      dup4\n        /* \"#utility.yul\":12032:12039   */\n      dup6\n        /* \"#utility.yul\":12028:12051   */\n      sub\n        /* \"#utility.yul\":12024:12056   */\n      slt\n        /* \"#utility.yul\":12021:12140   */\n      iszero\n      tag_441\n      jumpi\n        /* \"#utility.yul\":12059:12138   */\n      tag_442\n      tag_402\n      jump\t// in\n    tag_442:\n        /* \"#utility.yul\":12021:12140   */\n    tag_441:\n        /* \"#utility.yul\":12179:12180   */\n      0x00\n        /* \"#utility.yul\":12204:12257   */\n      tag_443\n        /* \"#utility.yul\":12249:12256   */\n      dup6\n        /* \"#utility.yul\":12240:12246   */\n      dup3\n        /* \"#utility.yul\":12229:12238   */\n      dup7\n        /* \"#utility.yul\":12225:12247   */\n      add\n        /* \"#utility.yul\":12204:12257   */\n      tag_335\n      jump\t// in\n    tag_443:\n        /* \"#utility.yul\":12194:12257   */\n      swap3\n      pop\n        /* \"#utility.yul\":12150:12267   */\n      pop\n        /* \"#utility.yul\":12306:12308   */\n      0x20\n        /* \"#utility.yul\":12332:12385   */\n      tag_444\n        /* \"#utility.yul\":12377:12384   */\n      dup6\n        /* \"#utility.yul\":12368:12374   */\n      dup3\n        /* \"#utility.yul\":12357:12366   */\n      dup7\n        /* \"#utility.yul\":12353:12375   */\n      add\n        /* \"#utility.yul\":12332:12385   */\n      tag_335\n      jump\t// in\n    tag_444:\n        /* \"#utility.yul\":12322:12385   */\n      swap2\n      pop\n        /* \"#utility.yul\":12277:12395   */\n      pop\n        /* \"#utility.yul\":11928:12402   */\n      swap3\n      pop\n      swap3\n      swap1\n      pop\n      jump\t// out\n        /* \"#utility.yul\":12408:12526   */\n    tag_445:\n        /* \"#utility.yul\":12495:12519   */\n      tag_447\n        /* \"#utility.yul\":12513:12518   */\n      dup2\n        /* \"#utility.yul\":12495:12519   */\n      tag_448\n      jump\t// in\n    tag_447:\n        /* \"#utility.yul\":12490:12493   */\n      dup3\n        /* \"#utility.yul\":12483:12520   */\n      mstore\n        /* \"#utility.yul\":12408:12526   */\n      pop\n      pop\n      jump\t// out\n        /* \"#utility.yul\":12532:12641   */\n    tag_449:\n        /* \"#utility.yul\":12613:12634   */\n      tag_451\n        /* \"#utility.yul\":12628:12633   */\n      dup2\n        /* \"#utility.yul\":12613:12634   */\n      tag_452\n      jump\t// in\n    tag_451:\n        /* \"#utility.yul\":12608:12611   */\n      dup3\n        /* \"#utility.yul\":12601:12635   */\n      mstore\n        /* \"#utility.yul\":12532:12641   */\n      pop\n      pop\n      jump\t// out\n        /* \"#utility.yul\":12647:13011   */\n    tag_453:\n        /* \"#utility.yul\":12735:12738   */\n      0x00\n        /* \"#utility.yul\":12763:12802   */\n      tag_455\n        /* \"#utility.yul\":12796:12801   */\n      dup3\n        /* \"#utility.yul\":12763:12802   */\n      tag_456\n      jump\t// in\n    tag_455:\n        /* \"#utility.yul\":12818:12889   */\n      tag_457\n        /* \"#utility.yul\":12882:12888   */\n      dup2\n        /* \"#utility.yul\":12877:12880   */\n      dup6\n        /* \"#utility.yul\":12818:12889   */\n      tag_458\n      jump\t// in\n    tag_457:\n        /* \"#utility.yul\":12811:12889   */\n      swap4\n      pop\n        /* \"#utility.yul\":12898:12950   */\n      tag_459\n        /* \"#utility.yul\":12943:12949   */\n      dup2\n        /* \"#utility.yul\":12938:12941   */\n      dup6\n        /* \"#utility.yul\":12931:12935   */\n      0x20\n        /* \"#utility.yul\":12924:12929   */\n      dup7\n        /* \"#utility.yul\":12920:12936   */\n      add\n        /* \"#utility.yul\":12898:12950   */\n      tag_460\n      jump\t// in\n    tag_459:\n        /* \"#utility.yul\":12975:13004   */\n      tag_461\n        /* \"#utility.yul\":12997:13003   */\n      dup2\n        /* \"#utility.yul\":12975:13004   */\n      tag_462\n      jump\t// in\n    tag_461:\n        /* \"#utility.yul\":12970:12973   */\n      dup5\n        /* \"#utility.yul\":12966:13005   */\n      add\n        /* \"#utility.yul\":12959:13005   */\n      swap2\n      pop\n        /* \"#utility.yul\":12739:13011   */\n      pop\n        /* \"#utility.yul\":12647:13011   */\n      swap3\n      swap2\n      pop\n      pop\n      jump\t// out\n        /* \"#utility.yul\":13017:13383   */\n    tag_463:\n        /* \"#utility.yul\":13159:13162   */\n      0x00\n        /* \"#utility.yul\":13180:13247   */\n      tag_465\n        /* \"#utility.yul\":13244:13246   */\n      0x26\n        /* \"#utility.yul\":13239:13242   */\n      dup4\n        /* \"#utility.yul\":13180:13247   */\n      tag_458\n      jump\t// in\n    tag_465:\n        /* \"#utility.yul\":13173:13247   */\n      swap2\n      pop\n        /* \"#utility.yul\":13256:13349   */\n      tag_466\n        /* \"#utility.yul\":13345:13348   */\n      dup3\n        /* \"#utility.yul\":13256:13349   */\n      tag_467\n      jump\t// in\n    tag_466:\n        /* \"#utility.yul\":13374:13376   */\n      0x40\n        /* \"#utility.yul\":13369:13372   */\n      dup3\n        /* \"#utility.yul\":13365:13377   */\n      add\n        /* \"#utility.yul\":13358:13377   */\n      swap1\n      pop\n        /* \"#utility.yul\":13017:13383   */\n      swap2\n      swap1\n      pop\n      jump\t// out\n        /* \"#utility.yul\":13389:13755   */\n    tag_468:\n        /* \"#utility.yul\":13531:13534   */\n      0x00\n        /* \"#utility.yul\":13552:13619   */\n      tag_470\n        /* \"#utility.yul\":13616:13618   */\n      0x12\n        /* \"#utility.yul\":13611:13614   */\n      dup4\n        /* \"#utility.yul\":13552:13619   */\n      tag_458\n      jump\t// in\n    tag_470:\n        /* \"#utility.yul\":13545:13619   */\n      swap2\n      pop\n        /* \"#utility.yul\":13628:13721   */\n      tag_471\n        /* \"#utility.yul\":13717:13720   */\n      dup3\n        /* \"#utility.yul\":13628:13721   */\n      tag_472\n      jump\t// in\n    tag_471:\n        /* \"#utility.yul\":13746:13748   */\n      0x20\n        /* \"#utility.yul\":13741:13744   */\n      dup3\n        /* \"#utility.yul\":13737:13749   */\n      add\n        /* \"#utility.yul\":13730:13749   */\n      swap1\n      pop\n        /* \"#utility.yul\":13389:13755   */\n      swap2\n      swap1\n      pop\n      jump\t// out\n        /* \"#utility.yul\":13761:14127   */\n    tag_473:\n        /* \"#utility.yul\":13903:13906   */\n      0x00\n        /* \"#utility.yul\":13924:13991   */\n      tag_475\n        /* \"#utility.yul\":13988:13990   */\n      0x12\n        /* \"#utility.yul\":13983:13986   */\n      dup4\n        /* \"#utility.yul\":13924:13991   */\n      tag_458\n      jump\t// in\n    tag_475:\n        /* \"#utility.yul\":13917:13991   */\n      swap2\n      pop\n        /* \"#utility.yul\":14000:14093   */\n      tag_476\n        /* \"#utility.yul\":14089:14092   */\n      dup3\n        /* \"#utility.yul\":14000:14093   */\n      tag_477\n      jump\t// in\n    tag_476:\n        /* \"#utility.yul\":14118:14120   */\n      0x20\n        /* \"#utility.yul\":14113:14116   */\n      dup3\n        /* \"#utility.yul\":14109:14121   */\n      add\n        /* \"#utility.yul\":14102:14121   */\n      swap1\n      pop\n        /* \"#utility.yul\":13761:14127   */\n      swap2\n      swap1\n      pop\n      jump\t// out\n        /* \"#utility.yul\":14133:14499   */\n    tag_478:\n        /* \"#utility.yul\":14275:14278   */\n      0x00\n        /* \"#utility.yul\":14296:14363   */\n      tag_480\n        /* \"#utility.yul\":14360:14362   */\n      0x13\n        /* \"#utility.yul\":14355:14358   */\n      dup4\n        /* \"#utility.yul\":14296:14363   */\n      tag_458\n      jump\t// in\n    tag_480:\n        /* \"#utility.yul\":14289:14363   */\n      swap2\n      pop\n        /* \"#utility.yul\":14372:14465   */\n      tag_481\n        /* \"#utility.yul\":14461:14464   */\n      dup3\n        /* \"#utility.yul\":14372:14465   */\n      tag_482\n      jump\t// in\n    tag_481:\n        /* \"#utility.yul\":14490:14492   */\n      0x20\n        /* \"#utility.yul\":14485:14488   */\n      dup3\n        /* \"#utility.yul\":14481:14493   */\n      add\n        /* \"#utility.yul\":14474:14493   */\n      swap1\n      pop\n        /* \"#utility.yul\":14133:14499   */\n      swap2\n      swap1\n      pop\n      jump\t// out\n        /* \"#utility.yul\":14505:14871   */\n    tag_483:\n        /* \"#utility.yul\":14647:14650   */\n      0x00\n        /* \"#utility.yul\":14668:14735   */\n      tag_485\n        /* \"#utility.yul\":14732:14734   */\n      0x21\n        /* \"#utility.yul\":14727:14730   */\n      dup4\n        /* \"#utility.yul\":14668:14735   */\n      tag_458\n      jump\t// in\n    tag_485:\n        /* \"#utility.yul\":14661:14735   */\n      swap2\n      pop\n        /* \"#utility.yul\":14744:14837   */\n      tag_486\n        /* \"#utility.yul\":14833:14836   */\n      dup3\n        /* \"#utility.yul\":14744:14837   */\n      tag_487\n      jump\t// in\n    tag_486:\n        /* \"#utility.yul\":14862:14864   */\n      0x40\n        /* \"#utility.yul\":14857:14860   */\n      dup3\n        /* \"#utility.yul\":14853:14865   */\n      add\n        /* \"#utility.yul\":14846:14865   */\n      swap1\n      pop\n        /* \"#utility.yul\":14505:14871   */\n      swap2\n      swap1\n      pop\n      jump\t// out\n        /* \"#utility.yul\":14877:15243   */\n    tag_488:\n        /* \"#utility.yul\":15019:15022   */\n      0x00\n        /* \"#utility.yul\":15040:15107   */\n      tag_490\n        /* \"#utility.yul\":15104:15106   */\n      0x20\n        /* \"#utility.yul\":15099:15102   */\n      dup4\n        /* \"#utility.yul\":15040:15107   */\n      tag_458\n      jump\t// in\n    tag_490:\n        /* \"#utility.yul\":15033:15107   */\n      swap2\n      pop\n        /* \"#utility.yul\":15116:15209   */\n      tag_491\n        /* \"#utility.yul\":15205:15208   */\n      dup3\n        /* \"#utility.yul\":15116:15209   */\n      tag_492\n      jump\t// in\n    tag_491:\n        /* \"#utility.yul\":15234:15236   */\n      0x20\n        /* \"#utility.yul\":15229:15232   */\n      dup3\n        /* \"#utility.yul\":15225:15237   */\n      add\n        /* \"#utility.yul\":15218:15237   */\n      swap1\n      pop\n        /* \"#utility.yul\":14877:15243   */\n      swap2\n      swap1\n      pop\n      jump\t// out\n        /* \"#utility.yul\":15249:15615   */\n    tag_493:\n        /* \"#utility.yul\":15391:15394   */\n      0x00\n        /* \"#utility.yul\":15412:15479   */\n      tag_495\n        /* \"#utility.yul\":15476:15478   */\n      0x16\n        /* \"#utility.yul\":15471:15474   */\n      dup4\n        /* \"#utility.yul\":15412:15479   */\n      tag_458\n      jump\t// in\n    tag_495:\n        /* \"#utility.yul\":15405:15479   */\n      swap2\n      pop\n        /* \"#utility.yul\":15488:15581   */\n      tag_496\n        /* \"#utility.yul\":15577:15580   */\n      dup3\n        /* \"#utility.yul\":15488:15581   */\n      tag_497\n      jump\t// in\n    tag_496:\n        /* \"#utility.yul\":15606:15608   */\n      0x20\n        /* \"#utility.yul\":15601:15604   */\n      dup3\n        /* \"#utility.yul\":15597:15609   */\n      add\n        /* \"#utility.yul\":15590:15609   */\n      swap1\n      pop\n        /* \"#utility.yul\":15249:15615   */\n      swap2\n      swap1\n      pop\n      jump\t// out\n        /* \"#utility.yul\":15621:15987   */\n    tag_498:\n        /* \"#utility.yul\":15763:15766   */\n      0x00\n        /* \"#utility.yul\":15784:15851   */\n      tag_500\n        /* \"#utility.yul\":15848:15850   */\n      0x13\n        /* \"#utility.yul\":15843:15846   */\n      dup4\n        /* \"#utility.yul\":15784:15851   */\n      tag_458\n      jump\t// in\n    tag_500:\n        /* \"#utility.yul\":15777:15851   */\n      swap2\n      pop\n        /* \"#utility.yul\":15860:15953   */\n      tag_501\n        /* \"#utility.yul\":15949:15952   */\n      dup3\n        /* \"#utility.yul\":15860:15953   */\n      tag_502\n      jump\t// in\n    tag_501:\n        /* \"#utility.yul\":15978:15980   */\n      0x20\n        /* \"#utility.yul\":15973:15976   */\n      dup3\n        /* \"#utility.yul\":15969:15981   */\n      add\n        /* \"#utility.yul\":15962:15981   */\n      swap1\n      pop\n        /* \"#utility.yul\":15621:15987   */\n      swap2\n      swap1\n      pop\n      jump\t// out\n        /* \"#utility.yul\":15993:16111   */\n    tag_503:\n        /* \"#utility.yul\":16080:16104   */\n      tag_505\n        /* \"#utility.yul\":16098:16103   */\n      dup2\n        /* \"#utility.yul\":16080:16104   */\n      tag_506\n      jump\t// in\n    tag_505:\n        /* \"#utility.yul\":16075:16078   */\n      dup3\n        /* \"#utility.yul\":16068:16105   */\n      mstore\n        /* \"#utility.yul\":15993:16111   */\n      pop\n      pop\n      jump\t// out\n        /* \"#utility.yul\":16117:16339   */\n    tag_24:\n        /* \"#utility.yul\":16210:16214   */\n      0x00\n        /* \"#utility.yul\":16248:16250   */\n      0x20\n        /* \"#utility.yul\":16237:16246   */\n      dup3\n        /* \"#utility.yul\":16233:16251   */\n      add\n        /* \"#utility.yul\":16225:16251   */\n      swap1\n      pop\n        /* \"#utility.yul\":16261:16332   */\n      tag_508\n        /* \"#utility.yul\":16329:16330   */\n      0x00\n        /* \"#utility.yul\":16318:16327   */\n      dup4\n        /* \"#utility.yul\":16314:16331   */\n      add\n        /* \"#utility.yul\":16305:16311   */\n      dup5\n        /* \"#utility.yul\":16261:16332   */\n      tag_445\n      jump\t// in\n    tag_508:\n        /* \"#utility.yul\":16117:16339   */\n      swap3\n      swap2\n      pop\n      pop\n      jump\t// out\n        /* \"#utility.yul\":16345:16677   */\n    tag_151:\n        /* \"#utility.yul\":16466:16470   */\n      0x00\n        /* \"#utility.yul\":16504:16506   */\n      0x40\n        /* \"#utility.yul\":16493:16502   */\n      dup3\n        /* \"#utility.yul\":16489:16507   */\n      add\n        /* \"#utility.yul\":16481:16507   */\n      swap1\n      pop\n        /* \"#utility.yul\":16517:16588   */\n      tag_510\n        /* \"#utility.yul\":16585:16586   */\n      0x00\n        /* \"#utility.yul\":16574:16583   */\n      dup4\n        /* \"#utility.yul\":16570:16587   */\n      add\n        /* \"#utility.yul\":16561:16567   */\n      dup6\n        /* \"#utility.yul\":16517:16588   */\n      tag_445\n      jump\t// in\n    tag_510:\n        /* \"#utility.yul\":16598:16670   */\n      tag_511\n        /* \"#utility.yul\":16666:16668   */\n      0x20\n        /* \"#utility.yul\":16655:16664   */\n      dup4\n        /* \"#utility.yul\":16651:16669   */\n      add\n        /* \"#utility.yul\":16642:16648   */\n      dup5\n        /* \"#utility.yul\":16598:16670   */\n      tag_445\n      jump\t// in\n    tag_511:\n        /* \"#utility.yul\":16345:16677   */\n      swap4\n      swap3\n      pop\n      pop\n      pop\n      jump\t// out\n        /* \"#utility.yul\":16683:17125   */\n    tag_160:\n        /* \"#utility.yul\":16832:16836   */\n      0x00\n        /* \"#utility.yul\":16870:16872   */\n      0x60\n        /* \"#utility.yul\":16859:16868   */\n      dup3\n        /* \"#utility.yul\":16855:16873   */\n      add\n        /* \"#utility.yul\":16847:16873   */\n      swap1\n      pop\n        /* \"#utility.yul\":16883:16954   */\n      tag_513\n        /* \"#utility.yul\":16951:16952   */\n      0x00\n        /* \"#utility.yul\":16940:16949   */\n      dup4\n        /* \"#utility.yul\":16936:16953   */\n      add\n        /* \"#utility.yul\":16927:16933   */\n      dup7\n        /* \"#utility.yul\":16883:16954   */\n      tag_445\n      jump\t// in\n    tag_513:\n        /* \"#utility.yul\":16964:17036   */\n      tag_514\n        /* \"#utility.yul\":17032:17034   */\n      0x20\n        /* \"#utility.yul\":17021:17030   */\n      dup4\n        /* \"#utility.yul\":17017:17035   */\n      add\n        /* \"#utility.yul\":17008:17014   */\n      dup6\n        /* \"#utility.yul\":16964:17036   */\n      tag_445\n      jump\t// in\n    tag_514:\n        /* \"#utility.yul\":17046:17118   */\n      tag_515\n        /* \"#utility.yul\":17114:17116   */\n      0x40\n        /* \"#utility.yul\":17103:17112   */\n      dup4\n        /* \"#utility.yul\":17099:17117   */\n      add\n        /* \"#utility.yul\":17090:17096   */\n      dup5\n        /* \"#utility.yul\":17046:17118   */\n      tag_503\n      jump\t// in\n    tag_515:\n        /* \"#utility.yul\":16683:17125   */\n      swap5\n      swap4\n      pop\n      pop\n      pop\n      pop\n      jump\t// out\n        /* \"#utility.yul\":17131:17463   */\n    tag_102:\n        /* \"#utility.yul\":17252:17256   */\n      0x00\n        /* \"#utility.yul\":17290:17292   */\n      0x40\n        /* \"#utility.yul\":17279:17288   */\n      dup3\n        /* \"#utility.yul\":17275:17293   */\n      add\n        /* \"#utility.yul\":17267:17293   */\n      swap1\n      pop\n        /* \"#utility.yul\":17303:17374   */\n      tag_517\n        /* \"#utility.yul\":17371:17372   */\n      0x00\n        /* \"#utility.yul\":17360:17369   */\n      dup4\n        /* \"#utility.yul\":17356:17373   */\n      add\n        /* \"#utility.yul\":17347:17353   */\n      dup6\n        /* \"#utility.yul\":17303:17374   */\n      tag_445\n      jump\t// in\n    tag_517:\n        /* \"#utility.yul\":17384:17456   */\n      tag_518\n        /* \"#utility.yul\":17452:17454   */\n      0x20\n        /* \"#utility.yul\":17441:17450   */\n      dup4\n        /* \"#utility.yul\":17437:17455   */\n      add\n        /* \"#utility.yul\":17428:17434   */\n      dup5\n        /* \"#utility.yul\":17384:17456   */\n      tag_503\n      jump\t// in\n    tag_518:\n        /* \"#utility.yul\":17131:17463   */\n      swap4\n      swap3\n      pop\n      pop\n      pop\n      jump\t// out\n        /* \"#utility.yul\":17469:17679   */\n    tag_18:\n        /* \"#utility.yul\":17556:17560   */\n      0x00\n        /* \"#utility.yul\":17594:17596   */\n      0x20\n        /* \"#utility.yul\":17583:17592   */\n      dup3\n        /* \"#utility.yul\":17579:17597   */\n      add\n        /* \"#utility.yul\":17571:17597   */\n      swap1\n      pop\n        /* \"#utility.yul\":17607:17672   */\n      tag_520\n        /* \"#utility.yul\":17669:17670   */\n      0x00\n        /* \"#utility.yul\":17658:17667   */\n      dup4\n        /* \"#utility.yul\":17654:17671   */\n      add\n        /* \"#utility.yul\":17645:17651   */\n      dup5\n        /* \"#utility.yul\":17607:17672   */\n      tag_449\n      jump\t// in\n    tag_520:\n        /* \"#utility.yul\":17469:17679   */\n      swap3\n      swap2\n      pop\n      pop\n      jump\t// out\n        /* \"#utility.yul\":17685:18638   */\n    tag_42:\n        /* \"#utility.yul\":17954:17958   */\n      0x00\n        /* \"#utility.yul\":17992:17995   */\n      0xe0\n        /* \"#utility.yul\":17981:17990   */\n      dup3\n        /* \"#utility.yul\":17977:17996   */\n      add\n        /* \"#utility.yul\":17969:17996   */\n      swap1\n      pop\n        /* \"#utility.yul\":18042:18051   */\n      dup2\n        /* \"#utility.yul\":18036:18040   */\n      dup2\n        /* \"#utility.yul\":18032:18052   */\n      sub\n        /* \"#utility.yul\":18028:18029   */\n      0x00\n        /* \"#utility.yul\":18017:18026   */\n      dup4\n        /* \"#utility.yul\":18013:18030   */\n      add\n        /* \"#utility.yul\":18006:18053   */\n      mstore\n        /* \"#utility.yul\":18070:18148   */\n      tag_522\n        /* \"#utility.yul\":18143:18147   */\n      dup2\n        /* \"#utility.yul\":18134:18140   */\n      dup11\n        /* \"#utility.yul\":18070:18148   */\n      tag_453\n      jump\t// in\n    tag_522:\n        /* \"#utility.yul\":18062:18148   */\n      swap1\n      pop\n        /* \"#utility.yul\":18158:18230   */\n      tag_523\n        /* \"#utility.yul\":18226:18228   */\n      0x20\n        /* \"#utility.yul\":18215:18224   */\n      dup4\n        /* \"#utility.yul\":18211:18229   */\n      add\n        /* \"#utility.yul\":18202:18208   */\n      dup10\n        /* \"#utility.yul\":18158:18230   */\n      tag_503\n      jump\t// in\n    tag_523:\n        /* \"#utility.yul\":18240:18312   */\n      tag_524\n        /* \"#utility.yul\":18308:18310   */\n      0x40\n        /* \"#utility.yul\":18297:18306   */\n      dup4\n        /* \"#utility.yul\":18293:18311   */\n      add\n        /* \"#utility.yul\":18284:18290   */\n      dup9\n        /* \"#utility.yul\":18240:18312   */\n      tag_503\n      jump\t// in\n    tag_524:\n        /* \"#utility.yul\":18322:18388   */\n      tag_525\n        /* \"#utility.yul\":18384:18386   */\n      0x60\n        /* \"#utility.yul\":18373:18382   */\n      dup4\n        /* \"#utility.yul\":18369:18387   */\n      add\n        /* \"#utility.yul\":18360:18366   */\n      dup8\n        /* \"#utility.yul\":18322:18388   */\n      tag_449\n      jump\t// in\n    tag_525:\n        /* \"#utility.yul\":18398:18471   */\n      tag_526\n        /* \"#utility.yul\":18466:18469   */\n      0x80\n        /* \"#utility.yul\":18455:18464   */\n      dup4\n        /* \"#utility.yul\":18451:18470   */\n      add\n        /* \"#utility.yul\":18442:18448   */\n      dup7\n        /* \"#utility.yul\":18398:18471   */\n      tag_445\n      jump\t// in\n    tag_526:\n        /* \"#utility.yul\":18481:18548   */\n      tag_527\n        /* \"#utility.yul\":18543:18546   */\n      0xa0\n        /* \"#utility.yul\":18532:18541   */\n      dup4\n        /* \"#utility.yul\":18528:18547   */\n      add\n        /* \"#utility.yul\":18519:18525   */\n      dup6\n        /* \"#utility.yul\":18481:18548   */\n      tag_449\n      jump\t// in\n    tag_527:\n        /* \"#utility.yul\":18558:18631   */\n      tag_528\n        /* \"#utility.yul\":18626:18629   */\n      0xc0\n        /* \"#utility.yul\":18615:18624   */\n      dup4\n        /* \"#utility.yul\":18611:18630   */\n      add\n        /* \"#utility.yul\":18602:18608   */\n      dup5\n        /* \"#utility.yul\":18558:18631   */\n      tag_503\n      jump\t// in\n    tag_528:\n        /* \"#utility.yul\":17685:18638   */\n      swap9\n      swap8\n      pop\n      pop\n      pop\n      pop\n      pop\n      pop\n      pop\n      pop\n      jump\t// out\n        /* \"#utility.yul\":18644:19063   */\n    tag_251:\n        /* \"#utility.yul\":18810:18814   */\n      0x00\n        /* \"#utility.yul\":18848:18850   */\n      0x20\n        /* \"#utility.yul\":18837:18846   */\n      dup3\n        /* \"#utility.yul\":18833:18851   */\n      add\n        /* \"#utility.yul\":18825:18851   */\n      swap1\n      pop\n        /* \"#utility.yul\":18897:18906   */\n      dup2\n        /* \"#utility.yul\":18891:18895   */\n      dup2\n        /* \"#utility.yul\":18887:18907   */\n      sub\n        /* \"#utility.yul\":18883:18884   */\n      0x00\n        /* \"#utility.yul\":18872:18881   */\n      dup4\n        /* \"#utility.yul\":18868:18885   */\n      add\n        /* \"#utility.yul\":18861:18908   */\n      mstore\n        /* \"#utility.yul\":18925:19056   */\n      tag_530\n        /* \"#utility.yul\":19051:19055   */\n      dup2\n        /* \"#utility.yul\":18925:19056   */\n      tag_463\n      jump\t// in\n    tag_530:\n        /* \"#utility.yul\":18917:19056   */\n      swap1\n      pop\n        /* \"#utility.yul\":18644:19063   */\n      swap2\n      swap1\n      pop\n      jump\t// out\n        /* \"#utility.yul\":19069:19488   */\n    tag_178:\n        /* \"#utility.yul\":19235:19239   */\n      0x00\n        /* \"#utility.yul\":19273:19275   */\n      0x20\n        /* \"#utility.yul\":19262:19271   */\n      dup3\n        /* \"#utility.yul\":19258:19276   */\n      add\n        /* \"#utility.yul\":19250:19276   */\n      swap1\n      pop\n        /* \"#utility.yul\":19322:19331   */\n      dup2\n        /* \"#utility.yul\":19316:19320   */\n      dup2\n        /* \"#utility.yul\":19312:19332   */\n      sub\n        /* \"#utility.yul\":19308:19309   */\n      0x00\n        /* \"#utility.yul\":19297:19306   */\n      dup4\n        /* \"#utility.yul\":19293:19310   */\n      add\n        /* \"#utility.yul\":19286:19333   */\n      mstore\n        /* \"#utility.yul\":19350:19481   */\n      tag_532\n        /* \"#utility.yul\":19476:19480   */\n      dup2\n        /* \"#utility.yul\":19350:19481   */\n      tag_468\n      jump\t// in\n    tag_532:\n        /* \"#utility.yul\":19342:19481   */\n      swap1\n      pop\n        /* \"#utility.yul\":19069:19488   */\n      swap2\n      swap1\n      pop\n      jump\t// out\n        /* \"#utility.yul\":19494:19913   */\n    tag_158:\n        /* \"#utility.yul\":19660:19664   */\n      0x00\n        /* \"#utility.yul\":19698:19700   */\n      0x20\n        /* \"#utility.yul\":19687:19696   */\n      dup3\n        /* \"#utility.yul\":19683:19701   */\n      add\n        /* \"#utility.yul\":19675:19701   */\n      swap1\n      pop\n        /* \"#utility.yul\":19747:19756   */\n      dup2\n        /* \"#utility.yul\":19741:19745   */\n      dup2\n        /* \"#utility.yul\":19737:19757   */\n      sub\n        /* \"#utility.yul\":19733:19734   */\n      0x00\n        /* \"#utility.yul\":19722:19731   */\n      dup4\n        /* \"#utility.yul\":19718:19735   */\n      add\n        /* \"#utility.yul\":19711:19758   */\n      mstore\n        /* \"#utility.yul\":19775:19906   */\n      tag_534\n        /* \"#utility.yul\":19901:19905   */\n      dup2\n        /* \"#utility.yul\":19775:19906   */\n      tag_473\n      jump\t// in\n    tag_534:\n        /* \"#utility.yul\":19767:19906   */\n      swap1\n      pop\n        /* \"#utility.yul\":19494:19913   */\n      swap2\n      swap1\n      pop\n      jump\t// out\n        /* \"#utility.yul\":19919:20338   */\n    tag_111:\n        /* \"#utility.yul\":20085:20089   */\n      0x00\n        /* \"#utility.yul\":20123:20125   */\n      0x20\n        /* \"#utility.yul\":20112:20121   */\n      dup3\n        /* \"#utility.yul\":20108:20126   */\n      add\n        /* \"#utility.yul\":20100:20126   */\n      swap1\n      pop\n        /* \"#utility.yul\":20172:20181   */\n      dup2\n        /* \"#utility.yul\":20166:20170   */\n      dup2\n        /* \"#utility.yul\":20162:20182   */\n      sub\n        /* \"#utility.yul\":20158:20159   */\n      0x00\n        /* \"#utility.yul\":20147:20156   */\n      dup4\n        /* \"#utility.yul\":20143:20160   */\n      add\n        /* \"#utility.yul\":20136:20183   */\n      mstore\n        /* \"#utility.yul\":20200:20331   */\n      tag_536\n        /* \"#utility.yul\":20326:20330   */\n      dup2\n        /* \"#utility.yul\":20200:20331   */\n      tag_478\n      jump\t// in\n    tag_536:\n        /* \"#utility.yul\":20192:20331   */\n      swap1\n      pop\n        /* \"#utility.yul\":19919:20338   */\n      swap2\n      swap1\n      pop\n      jump\t// out\n        /* \"#utility.yul\":20344:20763   */\n    tag_114:\n        /* \"#utility.yul\":20510:20514   */\n      0x00\n        /* \"#utility.yul\":20548:20550   */\n      0x20\n        /* \"#utility.yul\":20537:20546   */\n      dup3\n        /* \"#utility.yul\":20533:20551   */\n      add\n        /* \"#utility.yul\":20525:20551   */\n      swap1\n      pop\n        /* \"#utility.yul\":20597:20606   */\n      dup2\n        /* \"#utility.yul\":20591:20595   */\n      dup2\n        /* \"#utility.yul\":20587:20607   */\n      sub\n        /* \"#utility.yul\":20583:20584   */\n      0x00\n        /* \"#utility.yul\":20572:20581   */\n      dup4\n        /* \"#utility.yul\":20568:20585   */\n      add\n        /* \"#utility.yul\":20561:20608   */\n      mstore\n        /* \"#utility.yul\":20625:20756   */\n      tag_538\n        /* \"#utility.yul\":20751:20755   */\n      dup2\n        /* \"#utility.yul\":20625:20756   */\n      tag_483\n      jump\t// in\n    tag_538:\n        /* \"#utility.yul\":20617:20756   */\n      swap1\n      pop\n        /* \"#utility.yul\":20344:20763   */\n      swap2\n      swap1\n      pop\n      jump\t// out\n        /* \"#utility.yul\":20769:21188   */\n    tag_259:\n        /* \"#utility.yul\":20935:20939   */\n      0x00\n        /* \"#utility.yul\":20973:20975   */\n      0x20\n        /* \"#utility.yul\":20962:20971   */\n      dup3\n        /* \"#utility.yul\":20958:20976   */\n      add\n        /* \"#utility.yul\":20950:20976   */\n      swap1\n      pop\n        /* \"#utility.yul\":21022:21031   */\n      dup2\n        /* \"#utility.yul\":21016:21020   */\n      dup2\n        /* \"#utility.yul\":21012:21032   */\n      sub\n        /* \"#utility.yul\":21008:21009   */\n      0x00\n        /* \"#utility.yul\":20997:21006   */\n      dup4\n        /* \"#utility.yul\":20993:21010   */\n      add\n        /* \"#utility.yul\":20986:21033   */\n      mstore\n        /* \"#utility.yul\":21050:21181   */\n      tag_540\n        /* \"#utility.yul\":21176:21180   */\n      dup2\n        /* \"#utility.yul\":21050:21181   */\n      tag_488\n      jump\t// in\n    tag_540:\n        /* \"#utility.yul\":21042:21181   */\n      swap1\n      pop\n        /* \"#utility.yul\":20769:21188   */\n      swap2\n      swap1\n      pop\n      jump\t// out\n        /* \"#utility.yul\":21194:21613   */\n    tag_149:\n        /* \"#utility.yul\":21360:21364   */\n      0x00\n        /* \"#utility.yul\":21398:21400   */\n      0x20\n        /* \"#utility.yul\":21387:21396   */\n      dup3\n        /* \"#utility.yul\":21383:21401   */\n      add\n        /* \"#utility.yul\":21375:21401   */\n      swap1\n      pop\n        /* \"#utility.yul\":21447:21456   */\n      dup2\n        /* \"#utility.yul\":21441:21445   */\n      dup2\n        /* \"#utility.yul\":21437:21457   */\n      sub\n        /* \"#utility.yul\":21433:21434   */\n      0x00\n        /* \"#utility.yul\":21422:21431   */\n      dup4\n        /* \"#utility.yul\":21418:21435   */\n      add\n        /* \"#utility.yul\":21411:21458   */\n      mstore\n        /* \"#utility.yul\":21475:21606   */\n      tag_542\n        /* \"#utility.yul\":21601:21605   */\n      dup2\n        /* \"#utility.yul\":21475:21606   */\n      tag_493\n      jump\t// in\n    tag_542:\n        /* \"#utility.yul\":21467:21606   */\n      swap1\n      pop\n        /* \"#utility.yul\":21194:21613   */\n      swap2\n      swap1\n      pop\n      jump\t// out\n        /* \"#utility.yul\":21619:22038   */\n    tag_175:\n        /* \"#utility.yul\":21785:21789   */\n      0x00\n        /* \"#utility.yul\":21823:21825   */\n      0x20\n        /* \"#utility.yul\":21812:21821   */\n      dup3\n        /* \"#utility.yul\":21808:21826   */\n      add\n        /* \"#utility.yul\":21800:21826   */\n      swap1\n      pop\n        /* \"#utility.yul\":21872:21881   */\n      dup2\n        /* \"#utility.yul\":21866:21870   */\n      dup2\n        /* \"#utility.yul\":21862:21882   */\n      sub\n        /* \"#utility.yul\":21858:21859   */\n      0x00\n        /* \"#utility.yul\":21847:21856   */\n      dup4\n        /* \"#utility.yul\":21843:21860   */\n      add\n        /* \"#utility.yul\":21836:21883   */\n      mstore\n        /* \"#utility.yul\":21900:22031   */\n      tag_544\n        /* \"#utility.yul\":22026:22030   */\n      dup2\n        /* \"#utility.yul\":21900:22031   */\n      tag_498\n      jump\t// in\n    tag_544:\n        /* \"#utility.yul\":21892:22031   */\n      swap1\n      pop\n        /* \"#utility.yul\":21619:22038   */\n      swap2\n      swap1\n      pop\n      jump\t// out\n        /* \"#utility.yul\":22044:22266   */\n    tag_132:\n        /* \"#utility.yul\":22137:22141   */\n      0x00\n        /* \"#utility.yul\":22175:22177   */\n      0x20\n        /* \"#utility.yul\":22164:22173   */\n      dup3\n        /* \"#utility.yul\":22160:22178   */\n      add\n        /* \"#utility.yul\":22152:22178   */\n      swap1\n      pop\n        /* \"#utility.yul\":22188:22259   */\n      tag_546\n        /* \"#utility.yul\":22256:22257   */\n      0x00\n        /* \"#utility.yul\":22245:22254   */\n      dup4\n        /* \"#utility.yul\":22241:22258   */\n      add\n        /* \"#utility.yul\":22232:22238   */\n      dup5\n        /* \"#utility.yul\":22188:22259   */\n      tag_503\n      jump\t// in\n    tag_546:\n        /* \"#utility.yul\":22044:22266   */\n      swap3\n      swap2\n      pop\n      pop\n      jump\t// out\n        /* \"#utility.yul\":22272:22604   */\n    tag_169:\n        /* \"#utility.yul\":22393:22397   */\n      0x00\n        /* \"#utility.yul\":22431:22433   */\n      0x40\n        /* \"#utility.yul\":22420:22429   */\n      dup3\n        /* \"#utility.yul\":22416:22434   */\n      add\n        /* \"#utility.yul\":22408:22434   */\n      swap1\n      pop\n        /* \"#utility.yul\":22444:22515   */\n      tag_548\n        /* \"#utility.yul\":22512:22513   */\n      0x00\n        /* \"#utility.yul\":22501:22510   */\n      dup4\n        /* \"#utility.yul\":22497:22514   */\n      add\n        /* \"#utility.yul\":22488:22494   */\n      dup6\n        /* \"#utility.yul\":22444:22515   */\n      tag_503\n      jump\t// in\n    tag_548:\n        /* \"#utility.yul\":22525:22597   */\n      tag_549\n        /* \"#utility.yul\":22593:22595   */\n      0x20\n        /* \"#utility.yul\":22582:22591   */\n      dup4\n        /* \"#utility.yul\":22578:22596   */\n      add\n        /* \"#utility.yul\":22569:22575   */\n      dup5\n        /* \"#utility.yul\":22525:22597   */\n      tag_503\n      jump\t// in\n    tag_549:\n        /* \"#utility.yul\":22272:22604   */\n      swap4\n      swap3\n      pop\n      pop\n      pop\n      jump\t// out\n        /* \"#utility.yul\":22610:22739   */\n    tag_286:\n        /* \"#utility.yul\":22644:22650   */\n      0x00\n        /* \"#utility.yul\":22671:22691   */\n      tag_551\n      tag_552\n      jump\t// in\n    tag_551:\n        /* \"#utility.yul\":22661:22691   */\n      swap1\n      pop\n        /* \"#utility.yul\":22700:22733   */\n      tag_553\n        /* \"#utility.yul\":22728:22732   */\n      dup3\n        /* \"#utility.yul\":22720:22726   */\n      dup3\n        /* \"#utility.yul\":22700:22733   */\n      tag_554\n      jump\t// in\n    tag_553:\n        /* \"#utility.yul\":22610:22739   */\n      swap2\n      swap1\n      pop\n      jump\t// out\n        /* \"#utility.yul\":22745:22820   */\n    tag_552:\n        /* \"#utility.yul\":22778:22784   */\n      0x00\n        /* \"#utility.yul\":22811:22813   */\n      0x40\n        /* \"#utility.yul\":22805:22814   */\n      mload\n        /* \"#utility.yul\":22795:22814   */\n      swap1\n      pop\n        /* \"#utility.yul\":22745:22820   */\n      swap1\n      jump\t// out\n        /* \"#utility.yul\":22826:23137   */\n    tag_285:\n        /* \"#utility.yul\":22903:22907   */\n      0x00\n        /* \"#utility.yul\":22993:23011   */\n      0xffffffffffffffff\n        /* \"#utility.yul\":22985:22991   */\n      dup3\n        /* \"#utility.yul\":22982:23012   */\n      gt\n        /* \"#utility.yul\":22979:23035   */\n      iszero\n      tag_557\n      jumpi\n        /* \"#utility.yul\":23015:23033   */\n      tag_558\n      tag_559\n      jump\t// in\n    tag_558:\n        /* \"#utility.yul\":22979:23035   */\n    tag_557:\n        /* \"#utility.yul\":23065:23069   */\n      0x20\n        /* \"#utility.yul\":23057:23063   */\n      dup3\n        /* \"#utility.yul\":23053:23070   */\n      mul\n        /* \"#utility.yul\":23045:23070   */\n      swap1\n      pop\n        /* \"#utility.yul\":23125:23129   */\n      0x20\n        /* \"#utility.yul\":23119:23123   */\n      dup2\n        /* \"#utility.yul\":23115:23130   */\n      add\n        /* \"#utility.yul\":23107:23130   */\n      swap1\n      pop\n        /* \"#utility.yul\":22826:23137   */\n      swap2\n      swap1\n      pop\n      jump\t// out\n        /* \"#utility.yul\":23143:23479   */\n    tag_299:\n        /* \"#utility.yul\":23245:23249   */\n      0x00\n        /* \"#utility.yul\":23335:23353   */\n      0xffffffffffffffff\n        /* \"#utility.yul\":23327:23333   */\n      dup3\n        /* \"#utility.yul\":23324:23354   */\n      gt\n        /* \"#utility.yul\":23321:23377   */\n      iszero\n      tag_561\n      jumpi\n        /* \"#utility.yul\":23357:23375   */\n      tag_562\n      tag_559\n      jump\t// in\n    tag_562:\n        /* \"#utility.yul\":23321:23377   */\n    tag_561:\n        /* \"#utility.yul\":23407:23411   */\n      0x20\n        /* \"#utility.yul\":23399:23405   */\n      dup3\n        /* \"#utility.yul\":23395:23412   */\n      mul\n        /* \"#utility.yul\":23387:23412   */\n      swap1\n      pop\n        /* \"#utility.yul\":23467:23471   */\n      0x20\n        /* \"#utility.yul\":23461:23465   */\n      dup2\n        /* \"#utility.yul\":23457:23472   */\n      add\n        /* \"#utility.yul\":23449:23472   */\n      swap1\n      pop\n        /* \"#utility.yul\":23143:23479   */\n      swap2\n      swap1\n      pop\n      jump\t// out\n        /* \"#utility.yul\":23485:23824   */\n    tag_314:\n        /* \"#utility.yul\":23590:23594   */\n      0x00\n        /* \"#utility.yul\":23680:23698   */\n      0xffffffffffffffff\n        /* \"#utility.yul\":23672:23678   */\n      dup3\n        /* \"#utility.yul\":23669:23699   */\n      gt\n        /* \"#utility.yul\":23666:23722   */\n      iszero\n      tag_564\n      jumpi\n        /* \"#utility.yul\":23702:23720   */\n      tag_565\n      tag_559\n      jump\t// in\n    tag_565:\n        /* \"#utility.yul\":23666:23722   */\n    tag_564:\n        /* \"#utility.yul\":23752:23756   */\n      0x20\n        /* \"#utility.yul\":23744:23750   */\n      dup3\n        /* \"#utility.yul\":23740:23757   */\n      mul\n        /* \"#utility.yul\":23732:23757   */\n      swap1\n      pop\n        /* \"#utility.yul\":23812:23816   */\n      0x20\n        /* \"#utility.yul\":23806:23810   */\n      dup2\n        /* \"#utility.yul\":23802:23817   */\n      add\n        /* \"#utility.yul\":23794:23817   */\n      swap1\n      pop\n        /* \"#utility.yul\":23485:23824   */\n      swap2\n      swap1\n      pop\n      jump\t// out\n        /* \"#utility.yul\":23830:24141   */\n    tag_328:\n        /* \"#utility.yul\":23907:23911   */\n      0x00\n        /* \"#utility.yul\":23997:24015   */\n      0xffffffffffffffff\n        /* \"#utility.yul\":23989:23995   */\n      dup3\n        /* \"#utility.yul\":23986:24016   */\n      gt\n        /* \"#utility.yul\":23983:24039   */\n      iszero\n      tag_567\n      jumpi\n        /* \"#utility.yul\":24019:24037   */\n      tag_568\n      tag_559\n      jump\t// in\n    tag_568:\n        /* \"#utility.yul\":23983:24039   */\n    tag_567:\n        /* \"#utility.yul\":24069:24073   */\n      0x20\n        /* \"#utility.yul\":24061:24067   */\n      dup3\n        /* \"#utility.yul\":24057:24074   */\n      mul\n        /* \"#utility.yul\":24049:24074   */\n      swap1\n      pop\n        /* \"#utility.yul\":24129:24133   */\n      0x20\n        /* \"#utility.yul\":24123:24127   */\n      dup2\n        /* \"#utility.yul\":24119:24134   */\n      add\n        /* \"#utility.yul\":24111:24134   */\n      swap1\n      pop\n        /* \"#utility.yul\":23830:24141   */\n      swap2\n      swap1\n      pop\n      jump\t// out\n        /* \"#utility.yul\":24147:24455   */\n    tag_340:\n        /* \"#utility.yul\":24209:24213   */\n      0x00\n        /* \"#utility.yul\":24299:24317   */\n      0xffffffffffffffff\n        /* \"#utility.yul\":24291:24297   */\n      dup3\n        /* \"#utility.yul\":24288:24318   */\n      gt\n        /* \"#utility.yul\":24285:24341   */\n      iszero\n      tag_570\n      jumpi\n        /* \"#utility.yul\":24321:24339   */\n      tag_571\n      tag_559\n      jump\t// in\n    tag_571:\n        /* \"#utility.yul\":24285:24341   */\n    tag_570:\n        /* \"#utility.yul\":24359:24388   */\n      tag_572\n        /* \"#utility.yul\":24381:24387   */\n      dup3\n        /* \"#utility.yul\":24359:24388   */\n      tag_462\n      jump\t// in\n    tag_572:\n        /* \"#utility.yul\":24351:24388   */\n      swap1\n      pop\n        /* \"#utility.yul\":24443:24447   */\n      0x20\n        /* \"#utility.yul\":24437:24441   */\n      dup2\n        /* \"#utility.yul\":24433:24448   */\n      add\n        /* \"#utility.yul\":24425:24448   */\n      swap1\n      pop\n        /* \"#utility.yul\":24147:24455   */\n      swap2\n      swap1\n      pop\n      jump\t// out\n        /* \"#utility.yul\":24461:24560   */\n    tag_456:\n        /* \"#utility.yul\":24513:24519   */\n      0x00\n        /* \"#utility.yul\":24547:24552   */\n      dup2\n        /* \"#utility.yul\":24541:24553   */\n      mload\n        /* \"#utility.yul\":24531:24553   */\n      swap1\n      pop\n        /* \"#utility.yul\":24461:24560   */\n      swap2\n      swap1\n      pop\n      jump\t// out\n        /* \"#utility.yul\":24566:24735   */\n    tag_458:\n        /* \"#utility.yul\":24650:24661   */\n      0x00\n        /* \"#utility.yul\":24684:24690   */\n      dup3\n        /* \"#utility.yul\":24679:24682   */\n      dup3\n        /* \"#utility.yul\":24672:24691   */\n      mstore\n        /* \"#utility.yul\":24724:24728   */\n      0x20\n        /* \"#utility.yul\":24719:24722   */\n      dup3\n        /* \"#utility.yul\":24715:24729   */\n      add\n        /* \"#utility.yul\":24700:24729   */\n      swap1\n      pop\n        /* \"#utility.yul\":24566:24735   */\n      swap3\n      swap2\n      pop\n      pop\n      jump\t// out\n        /* \"#utility.yul\":24741:25046   */\n    tag_139:\n        /* \"#utility.yul\":24781:24784   */\n      0x00\n        /* \"#utility.yul\":24800:24820   */\n      tag_576\n        /* \"#utility.yul\":24818:24819   */\n      dup3\n        /* \"#utility.yul\":24800:24820   */\n      tag_506\n      jump\t// in\n    tag_576:\n        /* \"#utility.yul\":24795:24820   */\n      swap2\n      pop\n        /* \"#utility.yul\":24834:24854   */\n      tag_577\n        /* \"#utility.yul\":24852:24853   */\n      dup4\n        /* \"#utility.yul\":24834:24854   */\n      tag_506\n      jump\t// in\n    tag_577:\n        /* \"#utility.yul\":24829:24854   */\n      swap3\n      pop\n        /* \"#utility.yul\":24988:24989   */\n      dup3\n        /* \"#utility.yul\":24920:24986   */\n      0xffffffffffffffffffffffffffffffffffffffffffffffffffffffffffffffff\n        /* \"#utility.yul\":24916:24990   */\n      sub\n        /* \"#utility.yul\":24913:24914   */\n      dup3\n        /* \"#utility.yul\":24910:24991   */\n      gt\n        /* \"#utility.yul\":24907:25014   */\n      iszero\n      tag_578\n      jumpi\n        /* \"#utility.yul\":24994:25012   */\n      tag_579\n      tag_580\n      jump\t// in\n    tag_579:\n        /* \"#utility.yul\":24907:25014   */\n    tag_578:\n        /* \"#utility.yul\":25038:25039   */\n      dup3\n        /* \"#utility.yul\":25035:25036   */\n      dup3\n        /* \"#utility.yul\":25031:25040   */\n      add\n        /* \"#utility.yul\":25024:25040   */\n      swap1\n      pop\n        /* \"#utility.yul\":24741:25046   */\n      swap3\n      swap2\n      pop\n      pop\n      jump\t// out\n        /* \"#utility.yul\":25052:25237   */\n    tag_130:\n        /* \"#utility.yul\":25092:25093   */\n      0x00\n        /* \"#utility.yul\":25109:25129   */\n      tag_582\n        /* \"#utility.yul\":25127:25128   */\n      dup3\n        /* \"#utility.yul\":25109:25129   */\n      tag_506\n      jump\t// in\n    tag_582:\n        /* \"#utility.yul\":25104:25129   */\n      swap2\n      pop\n        /* \"#utility.yul\":25143:25163   */\n      tag_583\n        /* \"#utility.yul\":25161:25162   */\n      dup4\n        /* \"#utility.yul\":25143:25163   */\n      tag_506\n      jump\t// in\n    tag_583:\n        /* \"#utility.yul\":25138:25163   */\n      swap3\n      pop\n        /* \"#utility.yul\":25182:25183   */\n      dup3\n        /* \"#utility.yul\":25172:25207   */\n      tag_584\n      jumpi\n        /* \"#utility.yul\":25187:25205   */\n      tag_585\n      tag_586\n      jump\t// in\n    tag_585:\n        /* \"#utility.yul\":25172:25207   */\n    tag_584:\n        /* \"#utility.yul\":25229:25230   */\n      dup3\n        /* \"#utility.yul\":25226:25227   */\n      dup3\n        /* \"#utility.yul\":25222:25231   */\n      div\n        /* \"#utility.yul\":25217:25231   */\n      swap1\n      pop\n        /* \"#utility.yul\":25052:25237   */\n      swap3\n      swap2\n      pop\n      pop\n      jump\t// out\n        /* \"#utility.yul\":25243:25591   */\n    tag_205:\n        /* \"#utility.yul\":25283:25290   */\n      0x00\n        /* \"#utility.yul\":25306:25326   */\n      tag_588\n        /* \"#utility.yul\":25324:25325   */\n      dup3\n        /* \"#utility.yul\":25306:25326   */\n      tag_506\n      jump\t// in\n    tag_588:\n        /* \"#utility.yul\":25301:25326   */\n      swap2\n      pop\n        /* \"#utility.yul\":25340:25360   */\n      tag_589\n        /* \"#utility.yul\":25358:25359   */\n      dup4\n        /* \"#utility.yul\":25340:25360   */\n      tag_506\n      jump\t// in\n    tag_589:\n        /* \"#utility.yul\":25335:25360   */\n      swap3\n      pop\n        /* \"#utility.yul\":25528:25529   */\n      dup2\n        /* \"#utility.yul\":25460:25526   */\n      0xffffffffffffffffffffffffffffffffffffffffffffffffffffffffffffffff\n        /* \"#utility.yul\":25456:25530   */\n      div\n        /* \"#utility.yul\":25453:25454   */\n      dup4\n        /* \"#utility.yul\":25450:25531   */\n      gt\n        /* \"#utility.yul\":25445:25446   */\n      dup3\n        /* \"#utility.yul\":25438:25447   */\n      iszero\n        /* \"#utility.yul\":25431:25448   */\n      iszero\n        /* \"#utility.yul\":25427:25532   */\n      and\n        /* \"#utility.yul\":25424:25555   */\n      iszero\n      tag_590\n      jumpi\n        /* \"#utility.yul\":25535:25553   */\n      tag_591\n      tag_580\n      jump\t// in\n    tag_591:\n        /* \"#utility.yul\":25424:25555   */\n    tag_590:\n        /* \"#utility.yul\":25583:25584   */\n      dup3\n        /* \"#utility.yul\":25580:25581   */\n      dup3\n        /* \"#utility.yul\":25576:25585   */\n      mul\n        /* \"#utility.yul\":25565:25585   */\n      swap1\n      pop\n        /* \"#utility.yul\":25243:25591   */\n      swap3\n      swap2\n      pop\n      pop\n      jump\t// out\n        /* \"#utility.yul\":25597:25788   */\n    tag_141:\n        /* \"#utility.yul\":25637:25641   */\n      0x00\n        /* \"#utility.yul\":25657:25677   */\n      tag_593\n        /* \"#utility.yul\":25675:25676   */\n      dup3\n        /* \"#utility.yul\":25657:25677   */\n      tag_506\n      jump\t// in\n    tag_593:\n        /* \"#utility.yul\":25652:25677   */\n      swap2\n      pop\n        /* \"#utility.yul\":25691:25711   */\n      tag_594\n        /* \"#utility.yul\":25709:25710   */\n      dup4\n        /* \"#utility.yul\":25691:25711   */\n      tag_506\n      jump\t// in\n    tag_594:\n        /* \"#utility.yul\":25686:25711   */\n      swap3\n      pop\n        /* \"#utility.yul\":25730:25731   */\n      dup3\n        /* \"#utility.yul\":25727:25728   */\n      dup3\n        /* \"#utility.yul\":25724:25732   */\n      lt\n        /* \"#utility.yul\":25721:25755   */\n      iszero\n      tag_595\n      jumpi\n        /* \"#utility.yul\":25735:25753   */\n      tag_596\n      tag_580\n      jump\t// in\n    tag_596:\n        /* \"#utility.yul\":25721:25755   */\n    tag_595:\n        /* \"#utility.yul\":25780:25781   */\n      dup3\n        /* \"#utility.yul\":25777:25778   */\n      dup3\n        /* \"#utility.yul\":25773:25782   */\n      sub\n        /* \"#utility.yul\":25765:25782   */\n      swap1\n      pop\n        /* \"#utility.yul\":25597:25788   */\n      swap3\n      swap2\n      pop\n      pop\n      jump\t// out\n        /* \"#utility.yul\":25794:25890   */\n    tag_448:\n        /* \"#utility.yul\":25831:25838   */\n      0x00\n        /* \"#utility.yul\":25860:25884   */\n      tag_598\n        /* \"#utility.yul\":25878:25883   */\n      dup3\n        /* \"#utility.yul\":25860:25884   */\n      tag_599\n      jump\t// in\n    tag_598:\n        /* \"#utility.yul\":25849:25884   */\n      swap1\n      pop\n        /* \"#utility.yul\":25794:25890   */\n      swap2\n      swap1\n      pop\n      jump\t// out\n        /* \"#utility.yul\":25896:25986   */\n    tag_452:\n        /* \"#utility.yul\":25930:25937   */\n      0x00\n        /* \"#utility.yul\":25973:25978   */\n      dup2\n        /* \"#utility.yul\":25966:25979   */\n      iszero\n        /* \"#utility.yul\":25959:25980   */\n      iszero\n        /* \"#utility.yul\":25948:25980   */\n      swap1\n      pop\n        /* \"#utility.yul\":25896:25986   */\n      swap2\n      swap1\n      pop\n      jump\t// out\n        /* \"#utility.yul\":25992:26118   */\n    tag_599:\n        /* \"#utility.yul\":26029:26036   */\n      0x00\n        /* \"#utility.yul\":26069:26111   */\n      0xffffffffffffffffffffffffffffffffffffffff\n        /* \"#utility.yul\":26062:26067   */\n      dup3\n        /* \"#utility.yul\":26058:26112   */\n      and\n        /* \"#utility.yul\":26047:26112   */\n      swap1\n      pop\n        /* \"#utility.yul\":25992:26118   */\n      swap2\n      swap1\n      pop\n      jump\t// out\n        /* \"#utility.yul\":26124:26201   */\n    tag_506:\n        /* \"#utility.yul\":26161:26168   */\n      0x00\n        /* \"#utility.yul\":26190:26195   */\n      dup2\n        /* \"#utility.yul\":26179:26195   */\n      swap1\n      pop\n        /* \"#utility.yul\":26124:26201   */\n      swap2\n      swap1\n      pop\n      jump\t// out\n        /* \"#utility.yul\":26207:26361   */\n    tag_345:\n        /* \"#utility.yul\":26291:26297   */\n      dup3\n        /* \"#utility.yul\":26286:26289   */\n      dup2\n        /* \"#utility.yul\":26281:26284   */\n      dup4\n        /* \"#utility.yul\":26268:26298   */\n      calldatacopy\n        /* \"#utility.yul\":26353:26354   */\n      0x00\n        /* \"#utility.yul\":26344:26350   */\n      dup4\n        /* \"#utility.yul\":26339:26342   */\n      dup4\n        /* \"#utility.yul\":26335:26351   */\n      add\n        /* \"#utility.yul\":26328:26355   */\n      mstore\n        /* \"#utility.yul\":26207:26361   */\n      pop\n      pop\n      pop\n      jump\t// out\n        /* \"#utility.yul\":26367:26674   */\n    tag_460:\n        /* \"#utility.yul\":26435:26436   */\n      0x00\n        /* \"#utility.yul\":26445:26558   */\n    tag_605:\n        /* \"#utility.yul\":26459:26465   */\n      dup4\n        /* \"#utility.yul\":26456:26457   */\n      dup2\n        /* \"#utility.yul\":26453:26466   */\n      lt\n        /* \"#utility.yul\":26445:26558   */\n      iszero\n      tag_607\n      jumpi\n        /* \"#utility.yul\":26544:26545   */\n      dup1\n        /* \"#utility.yul\":26539:26542   */\n      dup3\n        /* \"#utility.yul\":26535:26546   */\n      add\n        /* \"#utility.yul\":26529:26547   */\n      mload\n        /* \"#utility.yul\":26525:26526   */\n      dup2\n        /* \"#utility.yul\":26520:26523   */\n      dup5\n        /* \"#utility.yul\":26516:26527   */\n      add\n        /* \"#utility.yul\":26509:26548   */\n      mstore\n        /* \"#utility.yul\":26481:26483   */\n      0x20\n        /* \"#utility.yul\":26478:26479   */\n      dup2\n        /* \"#utility.yul\":26474:26484   */\n      add\n        /* \"#utility.yul\":26469:26484   */\n      swap1\n      pop\n        /* \"#utility.yul\":26445:26558   */\n      jump(tag_605)\n    tag_607:\n        /* \"#utility.yul\":26576:26582   */\n      dup4\n        /* \"#utility.yul\":26573:26574   */\n      dup2\n        /* \"#utility.yul\":26570:26583   */\n      gt\n        /* \"#utility.yul\":26567:26668   */\n      iszero\n      tag_608\n      jumpi\n        /* \"#utility.yul\":26656:26657   */\n      0x00\n        /* \"#utility.yul\":26647:26653   */\n      dup5\n        /* \"#utility.yul\":26642:26645   */\n      dup5\n        /* \"#utility.yul\":26638:26654   */\n      add\n        /* \"#utility.yul\":26631:26658   */\n      mstore\n        /* \"#utility.yul\":26567:26668   */\n    tag_608:\n        /* \"#utility.yul\":26416:26674   */\n      pop\n        /* \"#utility.yul\":26367:26674   */\n      pop\n      pop\n      pop\n      jump\t// out\n        /* \"#utility.yul\":26680:27000   */\n    tag_241:\n        /* \"#utility.yul\":26724:26730   */\n      0x00\n        /* \"#utility.yul\":26761:26762   */\n      0x02\n        /* \"#utility.yul\":26755:26759   */\n      dup3\n        /* \"#utility.yul\":26751:26763   */\n      div\n        /* \"#utility.yul\":26741:26763   */\n      swap1\n      pop\n        /* \"#utility.yul\":26808:26809   */\n      0x01\n        /* \"#utility.yul\":26802:26806   */\n      dup3\n        /* \"#utility.yul\":26798:26810   */\n      and\n        /* \"#utility.yul\":26829:26847   */\n      dup1\n        /* \"#utility.yul\":26819:26900   */\n      tag_610\n      jumpi\n        /* \"#utility.yul\":26885:26889   */\n      0x7f\n        /* \"#utility.yul\":26877:26883   */\n      dup3\n        /* \"#utility.yul\":26873:26890   */\n      and\n        /* \"#utility.yul\":26863:26890   */\n      swap2\n      pop\n        /* \"#utility.yul\":26819:26900   */\n    tag_610:\n        /* \"#utility.yul\":26947:26949   */\n      0x20\n        /* \"#utility.yul\":26939:26945   */\n      dup3\n        /* \"#utility.yul\":26936:26950   */\n      lt\n        /* \"#utility.yul\":26916:26934   */\n      dup2\n        /* \"#utility.yul\":26913:26951   */\n      eq\n        /* \"#utility.yul\":26910:26994   */\n      iszero\n      tag_611\n      jumpi\n        /* \"#utility.yul\":26966:26984   */\n      tag_612\n      tag_613\n      jump\t// in\n    tag_612:\n        /* \"#utility.yul\":26910:26994   */\n    tag_611:\n        /* \"#utility.yul\":26731:27000   */\n      pop\n        /* \"#utility.yul\":26680:27000   */\n      swap2\n      swap1\n      pop\n      jump\t// out\n        /* \"#utility.yul\":27006:27287   */\n    tag_554:\n        /* \"#utility.yul\":27089:27116   */\n      tag_615\n        /* \"#utility.yul\":27111:27115   */\n      dup3\n        /* \"#utility.yul\":27089:27116   */\n      tag_462\n      jump\t// in\n    tag_615:\n        /* \"#utility.yul\":27081:27087   */\n      dup2\n        /* \"#utility.yul\":27077:27117   */\n      add\n        /* \"#utility.yul\":27219:27225   */\n      dup2\n        /* \"#utility.yul\":27207:27217   */\n      dup2\n        /* \"#utility.yul\":27204:27226   */\n      lt\n        /* \"#utility.yul\":27183:27201   */\n      0xffffffffffffffff\n        /* \"#utility.yul\":27171:27181   */\n      dup3\n        /* \"#utility.yul\":27168:27202   */\n      gt\n        /* \"#utility.yul\":27165:27227   */\n      or\n        /* \"#utility.yul\":27162:27250   */\n      iszero\n      tag_616\n      jumpi\n        /* \"#utility.yul\":27230:27248   */\n      tag_617\n      tag_559\n      jump\t// in\n    tag_617:\n        /* \"#utility.yul\":27162:27250   */\n    tag_616:\n        /* \"#utility.yul\":27270:27280   */\n      dup1\n        /* \"#utility.yul\":27266:27268   */\n      0x40\n        /* \"#utility.yul\":27259:27281   */\n      mstore\n        /* \"#utility.yul\":27049:27287   */\n      pop\n        /* \"#utility.yul\":27006:27287   */\n      pop\n      pop\n      jump\t// out\n        /* \"#utility.yul\":27293:27526   */\n    tag_62:\n        /* \"#utility.yul\":27332:27335   */\n      0x00\n        /* \"#utility.yul\":27355:27379   */\n      tag_619\n        /* \"#utility.yul\":27373:27378   */\n      dup3\n        /* \"#utility.yul\":27355:27379   */\n      tag_506\n      jump\t// in\n    tag_619:\n        /* \"#utility.yul\":27346:27379   */\n      swap2\n      pop\n        /* \"#utility.yul\":27401:27467   */\n      0xffffffffffffffffffffffffffffffffffffffffffffffffffffffffffffffff\n        /* \"#utility.yul\":27394:27399   */\n      dup3\n        /* \"#utility.yul\":27391:27468   */\n      eq\n        /* \"#utility.yul\":27388:27491   */\n      iszero\n      tag_620\n      jumpi\n        /* \"#utility.yul\":27471:27489   */\n      tag_621\n      tag_580\n      jump\t// in\n    tag_621:\n        /* \"#utility.yul\":27388:27491   */\n    tag_620:\n        /* \"#utility.yul\":27518:27519   */\n      0x01\n        /* \"#utility.yul\":27511:27516   */\n      dup3\n        /* \"#utility.yul\":27507:27520   */\n      add\n        /* \"#utility.yul\":27500:27520   */\n      swap1\n      pop\n        /* \"#utility.yul\":27293:27526   */\n      swap2\n      swap1\n      pop\n      jump\t// out\n        /* \"#utility.yul\":27532:27712   */\n    tag_580:\n        /* \"#utility.yul\":27580:27657   */\n      0x4e487b7100000000000000000000000000000000000000000000000000000000\n        /* \"#utility.yul\":27577:27578   */\n      0x00\n        /* \"#utility.yul\":27570:27658   */\n      mstore\n        /* \"#utility.yul\":27677:27681   */\n      0x11\n        /* \"#utility.yul\":27674:27675   */\n      0x04\n        /* \"#utility.yul\":27667:27682   */\n      mstore\n        /* \"#utility.yul\":27701:27705   */\n      0x24\n        /* \"#utility.yul\":27698:27699   */\n      0x00\n        /* \"#utility.yul\":27691:27706   */\n      revert\n        /* \"#utility.yul\":27718:27898   */\n    tag_586:\n        /* \"#utility.yul\":27766:27843   */\n      0x4e487b7100000000000000000000000000000000000000000000000000000000\n        /* \"#utility.yul\":27763:27764   */\n      0x00\n        /* \"#utility.yul\":27756:27844   */\n      mstore\n        /* \"#utility.yul\":27863:27867   */\n      0x12\n        /* \"#utility.yul\":27860:27861   */\n      0x04\n        /* \"#utility.yul\":27853:27868   */\n      mstore\n        /* \"#utility.yul\":27887:27891   */\n      0x24\n        /* \"#utility.yul\":27884:27885   */\n      0x00\n        /* \"#utility.yul\":27877:27892   */\n      revert\n        /* \"#utility.yul\":27904:28084   */\n    tag_613:\n        /* \"#utility.yul\":27952:28029   */\n      0x4e487b7100000000000000000000000000000000000000000000000000000000\n        /* \"#utility.yul\":27949:27950   */\n      0x00\n        /* \"#utility.yul\":27942:28030   */\n      mstore\n        /* \"#utility.yul\":28049:28053   */\n      0x22\n        /* \"#utility.yul\":28046:28047   */\n      0x04\n        /* \"#utility.yul\":28039:28054   */\n      mstore\n        /* \"#utility.yul\":28073:28077   */\n      0x24\n        /* \"#utility.yul\":28070:28071   */\n      0x00\n        /* \"#utility.yul\":28063:28078   */\n      revert\n        /* \"#utility.yul\":28090:28270   */\n    tag_55:\n        /* \"#utility.yul\":28138:28215   */\n      0x4e487b7100000000000000000000000000000000000000000000000000000000\n        /* \"#utility.yul\":28135:28136   */\n      0x00\n        /* \"#utility.yul\":28128:28216   */\n      mstore\n        /* \"#utility.yul\":28235:28239   */\n      0x32\n        /* \"#utility.yul\":28232:28233   */\n      0x04\n        /* \"#utility.yul\":28225:28240   */\n      mstore\n        /* \"#utility.yul\":28259:28263   */\n      0x24\n        /* \"#utility.yul\":28256:28257   */\n      0x00\n        /* \"#utility.yul\":28249:28264   */\n      revert\n        /* \"#utility.yul\":28276:28456   */\n    tag_559:\n        /* \"#utility.yul\":28324:28401   */\n      0x4e487b7100000000000000000000000000000000000000000000000000000000\n        /* \"#utility.yul\":28321:28322   */\n      0x00\n        /* \"#utility.yul\":28314:28402   */\n      mstore\n        /* \"#utility.yul\":28421:28425   */\n      0x41\n        /* \"#utility.yul\":28418:28419   */\n      0x04\n        /* \"#utility.yul\":28411:28426   */\n      mstore\n        /* \"#utility.yul\":28445:28449   */\n      0x24\n        /* \"#utility.yul\":28442:28443   */\n      0x00\n        /* \"#utility.yul\":28435:28450   */\n      revert\n        /* \"#utility.yul\":28462:28579   */\n    tag_307:\n        /* \"#utility.yul\":28571:28572   */\n      0x00\n        /* \"#utility.yul\":28568:28569   */\n      dup1\n        /* \"#utility.yul\":28561:28573   */\n      revert\n        /* \"#utility.yul\":28585:28702   */\n    tag_383:\n        /* \"#utility.yul\":28694:28695   */\n      0x00\n        /* \"#utility.yul\":28691:28692   */\n      dup1\n        /* \"#utility.yul\":28684:28696   */\n      revert\n        /* \"#utility.yul\":28708:28825   */\n    tag_388:\n        /* \"#utility.yul\":28817:28818   */\n      0x00\n        /* \"#utility.yul\":28814:28815   */\n      dup1\n        /* \"#utility.yul\":28807:28819   */\n      revert\n        /* \"#utility.yul\":28831:28948   */\n    tag_289:\n        /* \"#utility.yul\":28940:28941   */\n      0x00\n        /* \"#utility.yul\":28937:28938   */\n      dup1\n        /* \"#utility.yul\":28930:28942   */\n      revert\n        /* \"#utility.yul\":28954:29071   */\n    tag_343:\n        /* \"#utility.yul\":29063:29064   */\n      0x00\n        /* \"#utility.yul\":29060:29061   */\n      dup1\n        /* \"#utility.yul\":29053:29065   */\n      revert\n        /* \"#utility.yul\":29077:29194   */\n    tag_417:\n        /* \"#utility.yul\":29186:29187   */\n      0x00\n        /* \"#utility.yul\":29183:29184   */\n      dup1\n        /* \"#utility.yul\":29176:29188   */\n      revert\n        /* \"#utility.yul\":29200:29317   */\n    tag_402:\n        /* \"#utility.yul\":29309:29310   */\n      0x00\n        /* \"#utility.yul\":29306:29307   */\n      dup1\n        /* \"#utility.yul\":29299:29311   */\n      revert\n        /* \"#utility.yul\":29323:29425   */\n    tag_462:\n        /* \"#utility.yul\":29364:29370   */\n      0x00\n        /* \"#utility.yul\":29415:29417   */\n      0x1f\n        /* \"#utility.yul\":29411:29418   */\n      not\n        /* \"#utility.yul\":29406:29408   */\n      0x1f\n        /* \"#utility.yul\":29399:29404   */\n      dup4\n        /* \"#utility.yul\":29395:29409   */\n      add\n        /* \"#utility.yul\":29391:29419   */\n      and\n        /* \"#utility.yul\":29381:29419   */\n      swap1\n      pop\n        /* \"#utility.yul\":29323:29425   */\n      swap2\n      swap1\n      pop\n      jump\t// out\n        /* \"#utility.yul\":29431:29656   */\n    tag_467:\n        /* \"#utility.yul\":29571:29605   */\n      0x4f776e61626c653a206e6577206f776e657220697320746865207a65726f2061\n        /* \"#utility.yul\":29567:29568   */\n      0x00\n        /* \"#utility.yul\":29559:29565   */\n      dup3\n        /* \"#utility.yul\":29555:29569   */\n      add\n        /* \"#utility.yul\":29548:29606   */\n      mstore\n        /* \"#utility.yul\":29640:29648   */\n      0x6464726573730000000000000000000000000000000000000000000000000000\n        /* \"#utility.yul\":29635:29637   */\n      0x20\n        /* \"#utility.yul\":29627:29633   */\n      dup3\n        /* \"#utility.yul\":29623:29638   */\n      add\n        /* \"#utility.yul\":29616:29649   */\n      mstore\n        /* \"#utility.yul\":29431:29656   */\n      pop\n      jump\t// out\n        /* \"#utility.yul\":29662:29830   */\n    tag_472:\n        /* \"#utility.yul\":29802:29822   */\n      0x4a6f6220416c726561647920436c6f7365640000000000000000000000000000\n        /* \"#utility.yul\":29798:29799   */\n      0x00\n        /* \"#utility.yul\":29790:29796   */\n      dup3\n        /* \"#utility.yul\":29786:29800   */\n      add\n        /* \"#utility.yul\":29779:29823   */\n      mstore\n        /* \"#utility.yul\":29662:29830   */\n      pop\n      jump\t// out\n        /* \"#utility.yul\":29836:30004   */\n    tag_477:\n        /* \"#utility.yul\":29976:29996   */\n      0x416c6c6f77616e6365457863657074696f6e0000000000000000000000000000\n        /* \"#utility.yul\":29972:29973   */\n      0x00\n        /* \"#utility.yul\":29964:29970   */\n      dup3\n        /* \"#utility.yul\":29960:29974   */\n      add\n        /* \"#utility.yul\":29953:29997   */\n      mstore\n        /* \"#utility.yul\":29836:30004   */\n      pop\n      jump\t// out\n        /* \"#utility.yul\":30010:30179   */\n    tag_482:\n        /* \"#utility.yul\":30150:30171   */\n      0x4a6f62206973206e6f74206f70656e2079657400000000000000000000000000\n        /* \"#utility.yul\":30146:30147   */\n      0x00\n        /* \"#utility.yul\":30138:30144   */\n      dup3\n        /* \"#utility.yul\":30134:30148   */\n      add\n        /* \"#utility.yul\":30127:30172   */\n      mstore\n        /* \"#utility.yul\":30010:30179   */\n      pop\n      jump\t// out\n        /* \"#utility.yul\":30185:30405   */\n    tag_487:\n        /* \"#utility.yul\":30325:30359   */\n      0x4a6f62206e6f7420616363657074696e67206d6f7265206170706c6963616e74\n        /* \"#utility.yul\":30321:30322   */\n      0x00\n        /* \"#utility.yul\":30313:30319   */\n      dup3\n        /* \"#utility.yul\":30309:30323   */\n      add\n        /* \"#utility.yul\":30302:30360   */\n      mstore\n        /* \"#utility.yul\":30394:30397   */\n      0x7300000000000000000000000000000000000000000000000000000000000000\n        /* \"#utility.yul\":30389:30391   */\n      0x20\n        /* \"#utility.yul\":30381:30387   */\n      dup3\n        /* \"#utility.yul\":30377:30392   */\n      add\n        /* \"#utility.yul\":30370:30398   */\n      mstore\n        /* \"#utility.yul\":30185:30405   */\n      pop\n      jump\t// out\n        /* \"#utility.yul\":30411:30593   */\n    tag_492:\n        /* \"#utility.yul\":30551:30585   */\n      0x4f776e61626c653a2063616c6c6572206973206e6f7420746865206f776e6572\n        /* \"#utility.yul\":30547:30548   */\n      0x00\n        /* \"#utility.yul\":30539:30545   */\n      dup3\n        /* \"#utility.yul\":30535:30549   */\n      add\n        /* \"#utility.yul\":30528:30586   */\n      mstore\n        /* \"#utility.yul\":30411:30593   */\n      pop\n      jump\t// out\n        /* \"#utility.yul\":30599:30771   */\n    tag_497:\n        /* \"#utility.yul\":30739:30763   */\n      0x496e76616c6964416d6f756e74457863657074696f6e00000000000000000000\n        /* \"#utility.yul\":30735:30736   */\n      0x00\n        /* \"#utility.yul\":30727:30733   */\n      dup3\n        /* \"#utility.yul\":30723:30737   */\n      add\n        /* \"#utility.yul\":30716:30764   */\n      mstore\n        /* \"#utility.yul\":30599:30771   */\n      pop\n      jump\t// out\n        /* \"#utility.yul\":30777:30946   */\n    tag_502:\n        /* \"#utility.yul\":30917:30938   */\n      0x556e617574686f72697a656420436c6f73657200000000000000000000000000\n        /* \"#utility.yul\":30913:30914   */\n      0x00\n        /* \"#utility.yul\":30905:30911   */\n      dup3\n        /* \"#utility.yul\":30901:30915   */\n      add\n        /* \"#utility.yul\":30894:30939   */\n      mstore\n        /* \"#utility.yul\":30777:30946   */\n      pop\n      jump\t// out\n        /* \"#utility.yul\":30952:31074   */\n    tag_348:\n        /* \"#utility.yul\":31025:31049   */\n      tag_644\n        /* \"#utility.yul\":31043:31048   */\n      dup2\n        /* \"#utility.yul\":31025:31049   */\n      tag_448\n      jump\t// in\n    tag_644:\n        /* \"#utility.yul\":31018:31023   */\n      dup2\n        /* \"#utility.yul\":31015:31050   */\n      eq\n        /* \"#utility.yul\":31005:31068   */\n      tag_645\n      jumpi\n        /* \"#utility.yul\":31064:31065   */\n      0x00\n        /* \"#utility.yul\":31061:31062   */\n      dup1\n        /* \"#utility.yul\":31054:31066   */\n      revert\n        /* \"#utility.yul\":31005:31068   */\n    tag_645:\n        /* \"#utility.yul\":30952:31074   */\n      pop\n      jump\t// out\n        /* \"#utility.yul\":31080:31196   */\n    tag_374:\n        /* \"#utility.yul\":31150:31171   */\n      tag_647\n        /* \"#utility.yul\":31165:31170   */\n      dup2\n        /* \"#utility.yul\":31150:31171   */\n      tag_452\n      jump\t// in\n    tag_647:\n        /* \"#utility.yul\":31143:31148   */\n      dup2\n        /* \"#utility.yul\":31140:31172   */\n      eq\n        /* \"#utility.yul\":31130:31190   */\n      tag_648\n      jumpi\n        /* \"#utility.yul\":31186:31187   */\n      0x00\n        /* \"#utility.yul\":31183:31184   */\n      dup1\n        /* \"#utility.yul\":31176:31188   */\n      revert\n        /* \"#utility.yul\":31130:31190   */\n    tag_648:\n        /* \"#utility.yul\":31080:31196   */\n      pop\n      jump\t// out\n        /* \"#utility.yul\":31202:31324   */\n    tag_395:\n        /* \"#utility.yul\":31275:31299   */\n      tag_650\n        /* \"#utility.yul\":31293:31298   */\n      dup2\n        /* \"#utility.yul\":31275:31299   */\n      tag_506\n      jump\t// in\n    tag_650:\n        /* \"#utility.yul\":31268:31273   */\n      dup2\n        /* \"#utility.yul\":31265:31300   */\n      eq\n        /* \"#utility.yul\":31255:31318   */\n      tag_651\n      jumpi\n        /* \"#utility.yul\":31314:31315   */\n      0x00\n        /* \"#utility.yul\":31311:31312   */\n      dup1\n        /* \"#utility.yul\":31304:31316   */\n      revert\n        /* \"#utility.yul\":31255:31318   */\n    tag_651:\n        /* \"#utility.yul\":31202:31324   */\n      pop\n      jump\t// out\n\n    auxdata: 0xa2646970667358221220fbfdc122f9d928af485cdfa219a895f5e832e6de5e8328a24c5460603b4fe7ff64736f6c63430008070033\n}\n",
				"bytecode": {
					"linkReferences": {},
					"object": "60806040523480156200001157600080fd5b5060405162002dfd38038062002dfd8339818101604052810190620000379190620001cc565b620000576200004b620000e960201b60201c565b620000f160201b60201c565b600060018190555081600560006101000a81548173ffffffffffffffffffffffffffffffffffffffff021916908373ffffffffffffffffffffffffffffffffffffffff16021790555080600660006101000a81548173ffffffffffffffffffffffffffffffffffffffff021916908373ffffffffffffffffffffffffffffffffffffffff160217905550505062000266565b600033905090565b60008060009054906101000a900473ffffffffffffffffffffffffffffffffffffffff169050816000806101000a81548173ffffffffffffffffffffffffffffffffffffffff021916908373ffffffffffffffffffffffffffffffffffffffff1602179055508173ffffffffffffffffffffffffffffffffffffffff168173ffffffffffffffffffffffffffffffffffffffff167f8be0079c531659141344cd1fd0a4f28419497f9722a3daafe3b4186f6b6457e060405160405180910390a35050565b600081519050620001c6816200024c565b92915050565b60008060408385031215620001e657620001e562000247565b5b6000620001f685828601620001b5565b92505060206200020985828601620001b5565b9150509250929050565b6000620002208262000227565b9050919050565b600073ffffffffffffffffffffffffffffffffffffffff82169050919050565b600080fd5b620002578162000213565b81146200026357600080fd5b50565b612b8780620002766000396000f3fe608060405234801561001057600080fd5b50600436106100935760003560e01c8063b5ec25ae11610066578063b5ec25ae146100fa578063cd3c6e5614610116578063e6d46c8d14610132578063effbb95d1461014e578063f2fde38b1461018457610093565b806362063e8714610098578063715018a6146100c85780638da5cb5b146100d2578063af812ebf146100f0575b600080fd5b6100b260048036038101906100ad9190611f35565b6101a0565b6040516100bf9190612317565b60405180910390f35b6100d061051b565b005b6100da61052f565b6040516100e79190612273565b60405180910390f35b6100f8610558565b005b610114600480360381019061010f919061205b565b61068e565b005b610130600480360381019061012b91906120b5565b610adc565b005b61014c6004803603810190610147919061205b565b610da6565b005b6101686004803603810190610163919061205b565b611639565b60405161017b9796959493929190612332565b60405180910390f35b61019e60048036038101906101999190611eae565b61173d565b005b6000806002600060015481526020019081526020016000209050898160000190805190602001906101d292919061190b565b5083816007018190555060005b8681101561028f578781815181106101fa576101f96128e6565b5b60200260200101518260040160008a848151811061021b5761021a6128e6565b5b602002602001015160000151815260200190815260200160002060008201518160000155602082015181600101908051906020019061025b92919061190b565b506040820151816002019080519060200190610278929190611991565b50905050808061028790612810565b9150506101df565b5060005b858110156104655760005b868110156103675760018a83815181106102bb576102ba6128e6565b5b602002602001015182815181106102d5576102d46128e6565b5b60200260200101511415610354578260010160008c84815181106102fc576102fb6128e6565b5b602002602001015181526020019081526020016000208b8281518110610325576103246128e6565b5b602002602001015190806001815401808255809150506001900390600052602060002001600090919091909150555b808061035f90612810565b91505061029e565b5060008260010160008c8481518110610383576103826128e6565b5b60200260200101518152602001908152602001600020805490501415610452578160010160008b83815181106103bc576103bb6128e6565b5b60200260200101518152602001908152602001600020600090806001815401808255809150506001900390600052602060002001600090919091909150558160010160008b8381518110610413576104126128e6565b5b60200260200101518152602001908152602001600020600090806001815401808255809150506001900390600052602060002001600090919091909150555b808061045d90612810565b915050610293565b5060008160060160006101000a81548160ff02191690831515021790555060008160050181905550828160060160016101000a81548173ffffffffffffffffffffffffffffffffffffffff021916908373ffffffffffffffffffffffffffffffffffffffff160217905550888160020190805190602001906104e8929190611a1b565b508481600301819055506001600081548092919061050590612810565b9190505550600191505098975050505050505050565b6105236117c1565b61052d600061183f565b565b60008060009054906101000a900473ffffffffffffffffffffffffffffffffffffffff16905090565b600560009054906101000a900473ffffffffffffffffffffffffffffffffffffffff1673ffffffffffffffffffffffffffffffffffffffff1663a9059cbb33600360003373ffffffffffffffffffffffffffffffffffffffff1673ffffffffffffffffffffffffffffffffffffffff168152602001908152602001600020546040518363ffffffff1660e01b81526004016105f49291906122ee565b602060405180830381600087803b15801561060e57600080fd5b505af1158015610622573d6000803e3d6000fd5b505050506040513d601f19601f820116820180604052508101906106469190611f08565b506000600360003373ffffffffffffffffffffffffffffffffffffffff1673ffffffffffffffffffffffffffffffffffffffff16815260200190815260200160002081905550565b600115156002600083815260200190815260200160002060060160009054906101000a900460ff161515146106f8576040517f08c379a00000000000000000000000000000000000000000000000000000000081526004016106ef90612408565b60405180910390fd5b600060026000838152602001908152602001600020600501541415610752576040517f08c379a000000000000000000000000000000000000000000000000000000000815260040161074990612428565b60405180910390fd5b6000600260008381526020019081526020016000206007015490505b60008114610ad8576001600660009054906101000a900473ffffffffffffffffffffffffffffffffffffffff1673ffffffffffffffffffffffffffffffffffffffff1662fdd58e33846040518363ffffffff1660e01b81526004016107d49291906122ee565b60206040518083038186803b1580156107ec57600080fd5b505afa158015610800573d6000803e3d6000fd5b505050506040513d601f19601f820116820180604052508101906108249190612088565b1415610a8b57600260008381526020019081526020016000206001016000828152602001908152602001600020600081548110610864576108636128e6565b5b906000526020600020015490508060026000848152602001908152602001600020600401600083815260200190815260200160002060000154141561092f57600260008381526020019081526020016000206004016000828152602001908152602001600020600201339080600181540180825580915050600190039060005260206000200160009091909190916101000a81548173ffffffffffffffffffffffffffffffffffffffff021916908373ffffffffffffffffffffffffffffffffffffffff1602179055505b600062061a8060026000858152602001908152602001600020600501546109569190612664565b90508060036000600660009054906101000a900473ffffffffffffffffffffffffffffffffffffffff1673ffffffffffffffffffffffffffffffffffffffff166325e56054866040518263ffffffff1660e01b81526004016109b891906124a8565b60206040518083038186803b1580156109d057600080fd5b505afa1580156109e4573d6000803e3d6000fd5b505050506040513d601f19601f82011682018060405250810190610a089190611edb565b73ffffffffffffffffffffffffffffffffffffffff1673ffffffffffffffffffffffffffffffffffffffff1681526020019081526020016000206000828254610a51919061260e565b9250508190555080600260008581526020019081526020016000206005016000828254610a7e91906126ef565b9250508190555050610ad3565b600260008381526020019081526020016000206001016000828152602001908152602001600020600181548110610ac557610ac46128e6565b5b906000526020600020015490505b61076e565b5050565b60008111610b1f576040517f08c379a0000000000000000000000000000000000000000000000000000000008152600401610b1690612468565b60405180910390fd5b6000600560009054906101000a900473ffffffffffffffffffffffffffffffffffffffff1673ffffffffffffffffffffffffffffffffffffffff1663dd62ed3e33306040518363ffffffff1660e01b8152600401610b7e92919061228e565b60206040518083038186803b158015610b9657600080fd5b505afa158015610baa573d6000803e3d6000fd5b505050506040513d601f19601f82011682018060405250810190610bce9190612088565b905081811015610c13576040517f08c379a0000000000000000000000000000000000000000000000000000000008152600401610c0a906123e8565b60405180910390fd5b600560009054906101000a900473ffffffffffffffffffffffffffffffffffffffff1673ffffffffffffffffffffffffffffffffffffffff166323b872dd3330856040518463ffffffff1660e01b8152600401610c72939291906122b7565b602060405180830381600087803b158015610c8c57600080fd5b505af1158015610ca0573d6000803e3d6000fd5b505050506040513d601f19601f82011682018060405250810190610cc49190611f08565b503373ffffffffffffffffffffffffffffffffffffffff166108fc839081150290604051600060405180830381858888f19350505050158015610d0b573d6000803e3d6000fd5b5081600260008581526020019081526020016000206005016000828254610d32919061260e565b9250508190555060016002600085815260200190815260200160002060060160006101000a81548160ff0219169083151502179055507f21f9bb95ea07d82a536314fd89080112cda91fc68b6e0a77ced196a3a291e1c98383604051610d999291906124c3565b60405180910390a1505050565b610dae61052f565b73ffffffffffffffffffffffffffffffffffffffff163373ffffffffffffffffffffffffffffffffffffffff161480610e4857506002600082815260200190815260200160002060060160019054906101000a900473ffffffffffffffffffffffffffffffffffffffff1673ffffffffffffffffffffffffffffffffffffffff163373ffffffffffffffffffffffffffffffffffffffff16145b610e87576040517f08c379a0000000000000000000000000000000000000000000000000000000008152600401610e7e90612488565b60405180910390fd5b600115156002600083815260200190815260200160002060060160009054906101000a900460ff16151514610ef1576040517f08c379a0000000000000000000000000000000000000000000000000000000008152600401610ee8906123c8565b60405180910390fd5b60005b600260008381526020019081526020016000206003015481101561105857600160046000600660009054906101000a900473ffffffffffffffffffffffffffffffffffffffff1673ffffffffffffffffffffffffffffffffffffffff166358b478f4600260008881526020019081526020016000206002018681548110610f7e57610f7d6128e6565b5b90600052602060002001546040518263ffffffff1660e01b8152600401610fa591906124a8565b60206040518083038186803b158015610fbd57600080fd5b505afa158015610fd1573d6000803e3d6000fd5b505050506040513d601f19601f82011682018060405250810190610ff59190611edb565b73ffffffffffffffffffffffffffffffffffffffff1673ffffffffffffffffffffffffffffffffffffffff168152602001908152602001600020600082825461103e919061260e565b92505081905550808061105090612810565b915050610ef4565b5060005b600260008381526020019081526020016000206003015481101561160657600060046000600660009054906101000a900473ffffffffffffffffffffffffffffffffffffffff1673ffffffffffffffffffffffffffffffffffffffff166358b478f46002600088815260200190815260200160002060020186815481106110e6576110e56128e6565b5b90600052602060002001546040518263ffffffff1660e01b815260040161110d91906124a8565b60206040518083038186803b15801561112557600080fd5b505afa158015611139573d6000803e3d6000fd5b505050506040513d601f19601f8201168201806040525081019061115d9190611edb565b73ffffffffffffffffffffffffffffffffffffffff1673ffffffffffffffffffffffffffffffffffffffff16815260200190815260200160002054146115f3576000600260008481526020019081526020016000206003015460646111c29190612695565b60046000600660009054906101000a900473ffffffffffffffffffffffffffffffffffffffff1673ffffffffffffffffffffffffffffffffffffffff166358b478f460026000898152602001908152602001600020600201878154811061122c5761122b6128e6565b5b90600052602060002001546040518263ffffffff1660e01b815260040161125391906124a8565b60206040518083038186803b15801561126b57600080fd5b505afa15801561127f573d6000803e3d6000fd5b505050506040513d601f19601f820116820180604052508101906112a39190611edb565b73ffffffffffffffffffffffffffffffffffffffff1673ffffffffffffffffffffffffffffffffffffffff16815260200190815260200160002054600260008681526020019081526020016000206005015460336113019190612695565b61130b9190612695565b6113159190612664565b90508060026000858152602001908152602001600020600501600082825461133d91906126ef565b92505081905550600560009054906101000a900473ffffffffffffffffffffffffffffffffffffffff1673ffffffffffffffffffffffffffffffffffffffff1663a9059cbb600660009054906101000a900473ffffffffffffffffffffffffffffffffffffffff1673ffffffffffffffffffffffffffffffffffffffff166358b478f46002600088815260200190815260200160002060020186815481106113e8576113e76128e6565b5b90600052602060002001546040518263ffffffff1660e01b815260040161140f91906124a8565b60206040518083038186803b15801561142757600080fd5b505afa15801561143b573d6000803e3d6000fd5b505050506040513d601f19601f8201168201806040525081019061145f9190611edb565b836040518363ffffffff1660e01b815260040161147d9291906122ee565b602060405180830381600087803b15801561149757600080fd5b505af11580156114ab573d6000803e3d6000fd5b505050506040513d601f19601f820116820180604052508101906114cf9190611f08565b50600060046000600660009054906101000a900473ffffffffffffffffffffffffffffffffffffffff1673ffffffffffffffffffffffffffffffffffffffff166358b478f460026000898152602001908152602001600020600201878154811061153c5761153b6128e6565b5b90600052602060002001546040518263ffffffff1660e01b815260040161156391906124a8565b60206040518083038186803b15801561157b57600080fd5b505afa15801561158f573d6000803e3d6000fd5b505050506040513d601f19601f820116820180604052508101906115b39190611edb565b73ffffffffffffffffffffffffffffffffffffffff1673ffffffffffffffffffffffffffffffffffffffff16815260200190815260200160002081905550505b80806115fe90612810565b91505061105c565b5060006002600083815260200190815260200160002060060160006101000a81548160ff02191690831515021790555050565b600260205280600052604060002060009150905080600001805461165c906127ad565b80601f0160208091040260200160405190810160405280929190818152602001828054611688906127ad565b80156116d55780601f106116aa576101008083540402835291602001916116d5565b820191906000526020600020905b8154815290600101906020018083116116b857829003601f168201915b5050505050908060030154908060050154908060060160009054906101000a900460ff16908060060160019054906101000a900473ffffffffffffffffffffffffffffffffffffffff16908060060160159054906101000a900460ff16908060070154905087565b6117456117c1565b600073ffffffffffffffffffffffffffffffffffffffff168173ffffffffffffffffffffffffffffffffffffffff1614156117b5576040517f08c379a00000000000000000000000000000000000000000000000000000000081526004016117ac906123a8565b60405180910390fd5b6117be8161183f565b50565b6117c9611903565b73ffffffffffffffffffffffffffffffffffffffff166117e761052f565b73ffffffffffffffffffffffffffffffffffffffff161461183d576040517f08c379a000000000000000000000000000000000000000000000000000000000815260040161183490612448565b60405180910390fd5b565b60008060009054906101000a900473ffffffffffffffffffffffffffffffffffffffff169050816000806101000a81548173ffffffffffffffffffffffffffffffffffffffff021916908373ffffffffffffffffffffffffffffffffffffffff1602179055508173ffffffffffffffffffffffffffffffffffffffff168173ffffffffffffffffffffffffffffffffffffffff167f8be0079c531659141344cd1fd0a4f28419497f9722a3daafe3b4186f6b6457e060405160405180910390a35050565b600033905090565b828054611917906127ad565b90600052602060002090601f0160209004810192826119395760008555611980565b82601f1061195257805160ff1916838001178555611980565b82800160010185558215611980579182015b8281111561197f578251825591602001919060010190611964565b5b50905061198d9190611a68565b5090565b828054828255906000526020600020908101928215611a0a579160200282015b82811115611a095782518260006101000a81548173ffffffffffffffffffffffffffffffffffffffff021916908373ffffffffffffffffffffffffffffffffffffffff160217905550916020019190600101906119b1565b5b509050611a179190611a68565b5090565b828054828255906000526020600020908101928215611a57579160200282015b82811115611a56578251825591602001919060010190611a3b565b5b509050611a649190611a68565b5090565b5b80821115611a81576000816000905550600101611a69565b5090565b6000611a98611a9384612511565b6124ec565b90508083825260208201905082856020860282011115611abb57611aba612953565b5b60005b85811015611aeb5781611ad18882611cc3565b845260208401935060208301925050600181019050611abe565b5050509392505050565b6000611b08611b038461253d565b6124ec565b90508083825260208201905082856020860282011115611b2b57611b2a612953565b5b60005b85811015611b7957813567ffffffffffffffff811115611b5157611b50612944565b5b808601611b5e8982611d77565b85526020850194506020840193505050600181019050611b2e565b5050509392505050565b6000611b96611b9184612569565b6124ec565b90508083825260208201905082856020860282011115611bb957611bb8612953565b5b60005b85811015611c0757813567ffffffffffffffff811115611bdf57611bde612944565b5b808601611bec8982611de8565b85526020850194506020840193505050600181019050611bbc565b5050509392505050565b6000611c24611c1f84612595565b6124ec565b90508083825260208201905082856020860282011115611c4757611c46612953565b5b60005b85811015611c775781611c5d8882611e84565b845260208401935060208301925050600181019050611c4a565b5050509392505050565b6000611c94611c8f846125c1565b6124ec565b905082815260208101848484011115611cb057611caf612958565b5b611cbb84828561276b565b509392505050565b600081359050611cd281612b0c565b92915050565b600081519050611ce781612b0c565b92915050565b600082601f830112611d0257611d01612944565b5b8135611d12848260208601611a85565b91505092915050565b600082601f830112611d3057611d2f612944565b5b8135611d40848260208601611af5565b91505092915050565b600082601f830112611d5e57611d5d612944565b5b8135611d6e848260208601611b83565b91505092915050565b600082601f830112611d8c57611d8b612944565b5b8135611d9c848260208601611c11565b91505092915050565b600081519050611db481612b23565b92915050565b600082601f830112611dcf57611dce612944565b5b8135611ddf848260208601611c81565b91505092915050565b600060608284031215611dfe57611dfd612949565b5b611e0860606124ec565b90506000611e1884828501611e84565b600083015250602082013567ffffffffffffffff811115611e3c57611e3b61294e565b5b611e4884828501611dba565b602083015250604082013567ffffffffffffffff811115611e6c57611e6b61294e565b5b611e7884828501611ced565b60408301525092915050565b600081359050611e9381612b3a565b92915050565b600081519050611ea881612b3a565b92915050565b600060208284031215611ec457611ec3612962565b5b6000611ed284828501611cc3565b91505092915050565b600060208284031215611ef157611ef0612962565b5b6000611eff84828501611cd8565b91505092915050565b600060208284031215611f1e57611f1d612962565b5b6000611f2c84828501611da5565b91505092915050565b600080600080600080600080610100898b031215611f5657611f55612962565b5b600089013567ffffffffffffffff811115611f7457611f7361295d565b5b611f808b828c01611dba565b985050602089013567ffffffffffffffff811115611fa157611fa061295d565b5b611fad8b828c01611d77565b975050604089013567ffffffffffffffff811115611fce57611fcd61295d565b5b611fda8b828c01611d1b565b965050606089013567ffffffffffffffff811115611ffb57611ffa61295d565b5b6120078b828c01611d49565b95505060806120188b828c01611e84565b94505060a06120298b828c01611e84565b93505060c061203a8b828c01611e84565b92505060e061204b8b828c01611cc3565b9150509295985092959890939650565b60006020828403121561207157612070612962565b5b600061207f84828501611e84565b91505092915050565b60006020828403121561209e5761209d612962565b5b60006120ac84828501611e99565b91505092915050565b600080604083850312156120cc576120cb612962565b5b60006120da85828601611e84565b92505060206120eb85828601611e84565b9150509250929050565b6120fe81612723565b82525050565b61210d81612735565b82525050565b600061211e826125f2565b61212881856125fd565b935061213881856020860161277a565b61214181612967565b840191505092915050565b60006121596026836125fd565b915061216482612978565b604082019050919050565b600061217c6012836125fd565b9150612187826129c7565b602082019050919050565b600061219f6012836125fd565b91506121aa826129f0565b602082019050919050565b60006121c26013836125fd565b91506121cd82612a19565b602082019050919050565b60006121e56021836125fd565b91506121f082612a42565b604082019050919050565b60006122086020836125fd565b915061221382612a91565b602082019050919050565b600061222b6016836125fd565b915061223682612aba565b602082019050919050565b600061224e6013836125fd565b915061225982612ae3565b602082019050919050565b61226d81612761565b82525050565b600060208201905061228860008301846120f5565b92915050565b60006040820190506122a360008301856120f5565b6122b060208301846120f5565b9392505050565b60006060820190506122cc60008301866120f5565b6122d960208301856120f5565b6122e66040830184612264565b949350505050565b600060408201905061230360008301856120f5565b6123106020830184612264565b9392505050565b600060208201905061232c6000830184612104565b92915050565b600060e082019050818103600083015261234c818a612113565b905061235b6020830189612264565b6123686040830188612264565b6123756060830187612104565b61238260808301866120f5565b61238f60a0830185612104565b61239c60c0830184612264565b98975050505050505050565b600060208201905081810360008301526123c18161214c565b9050919050565b600060208201905081810360008301526123e18161216f565b9050919050565b6000602082019050818103600083015261240181612192565b9050919050565b60006020820190508181036000830152612421816121b5565b9050919050565b60006020820190508181036000830152612441816121d8565b9050919050565b60006020820190508181036000830152612461816121fb565b9050919050565b600060208201905081810360008301526124818161221e565b9050919050565b600060208201905081810360008301526124a181612241565b9050919050565b60006020820190506124bd6000830184612264565b92915050565b60006040820190506124d86000830185612264565b6124e56020830184612264565b9392505050565b60006124f6612507565b905061250282826127df565b919050565b6000604051905090565b600067ffffffffffffffff82111561252c5761252b612915565b5b602082029050602081019050919050565b600067ffffffffffffffff82111561255857612557612915565b5b602082029050602081019050919050565b600067ffffffffffffffff82111561258457612583612915565b5b602082029050602081019050919050565b600067ffffffffffffffff8211156125b0576125af612915565b5b602082029050602081019050919050565b600067ffffffffffffffff8211156125dc576125db612915565b5b6125e582612967565b9050602081019050919050565b600081519050919050565b600082825260208201905092915050565b600061261982612761565b915061262483612761565b9250827fffffffffffffffffffffffffffffffffffffffffffffffffffffffffffffffff0382111561265957612658612859565b5b828201905092915050565b600061266f82612761565b915061267a83612761565b92508261268a57612689612888565b5b828204905092915050565b60006126a082612761565b91506126ab83612761565b9250817fffffffffffffffffffffffffffffffffffffffffffffffffffffffffffffffff04831182151516156126e4576126e3612859565b5b828202905092915050565b60006126fa82612761565b915061270583612761565b92508282101561271857612717612859565b5b828203905092915050565b600061272e82612741565b9050919050565b60008115159050919050565b600073ffffffffffffffffffffffffffffffffffffffff82169050919050565b6000819050919050565b82818337600083830152505050565b60005b8381101561279857808201518184015260208101905061277d565b838111156127a7576000848401525b50505050565b600060028204905060018216806127c557607f821691505b602082108114156127d9576127d86128b7565b5b50919050565b6127e882612967565b810181811067ffffffffffffffff8211171561280757612806612915565b5b80604052505050565b600061281b82612761565b91507fffffffffffffffffffffffffffffffffffffffffffffffffffffffffffffffff82141561284e5761284d612859565b5b600182019050919050565b7f4e487b7100000000000000000000000000000000000000000000000000000000600052601160045260246000fd5b7f4e487b7100000000000000000000000000000000000000000000000000000000600052601260045260246000fd5b7f4e487b7100000000000000000000000000000000000000000000000000000000600052602260045260246000fd5b7f4e487b7100000000000000000000000000000000000000000000000000000000600052603260045260246000fd5b7f4e487b7100000000000000000000000000000000000000000000000000000000600052604160045260246000fd5b600080fd5b600080fd5b600080fd5b600080fd5b600080fd5b600080fd5b600080fd5b6000601f19601f8301169050919050565b7f4f776e61626c653a206e6577206f776e657220697320746865207a65726f206160008201527f6464726573730000000000000000000000000000000000000000000000000000602082015250565b7f4a6f6220416c726561647920436c6f7365640000000000000000000000000000600082015250565b7f416c6c6f77616e6365457863657074696f6e0000000000000000000000000000600082015250565b7f4a6f62206973206e6f74206f70656e2079657400000000000000000000000000600082015250565b7f4a6f62206e6f7420616363657074696e67206d6f7265206170706c6963616e7460008201527f7300000000000000000000000000000000000000000000000000000000000000602082015250565b7f4f776e61626c653a2063616c6c6572206973206e6f7420746865206f776e6572600082015250565b7f496e76616c6964416d6f756e74457863657074696f6e00000000000000000000600082015250565b7f556e617574686f72697a656420436c6f73657200000000000000000000000000600082015250565b612b1581612723565b8114612b2057600080fd5b50565b612b2c81612735565b8114612b3757600080fd5b50565b612b4381612761565b8114612b4e57600080fd5b5056fea2646970667358221220fbfdc122f9d928af485cdfa219a895f5e832e6de5e8328a24c5460603b4fe7ff64736f6c63430008070033",
					"opcodes": "PUSH1 0x80 PUSH1 0x40 MSTORE CALLVALUE DUP1 ISZERO PUSH3 0x11 JUMPI PUSH1 0x0 DUP1 REVERT JUMPDEST POP PUSH1 0x40 MLOAD PUSH3 0x2DFD CODESIZE SUB DUP1 PUSH3 0x2DFD DUP4 CODECOPY DUP2 DUP2 ADD PUSH1 0x40 MSTORE DUP2 ADD SWAP1 PUSH3 0x37 SWAP2 SWAP1 PUSH3 0x1CC JUMP JUMPDEST PUSH3 0x57 PUSH3 0x4B PUSH3 0xE9 PUSH1 0x20 SHL PUSH1 0x20 SHR JUMP JUMPDEST PUSH3 0xF1 PUSH1 0x20 SHL PUSH1 0x20 SHR JUMP JUMPDEST PUSH1 0x0 PUSH1 0x1 DUP2 SWAP1 SSTORE POP DUP2 PUSH1 0x5 PUSH1 0x0 PUSH2 0x100 EXP DUP2 SLOAD DUP2 PUSH20 0xFFFFFFFFFFFFFFFFFFFFFFFFFFFFFFFFFFFFFFFF MUL NOT AND SWAP1 DUP4 PUSH20 0xFFFFFFFFFFFFFFFFFFFFFFFFFFFFFFFFFFFFFFFF AND MUL OR SWAP1 SSTORE POP DUP1 PUSH1 0x6 PUSH1 0x0 PUSH2 0x100 EXP DUP2 SLOAD DUP2 PUSH20 0xFFFFFFFFFFFFFFFFFFFFFFFFFFFFFFFFFFFFFFFF MUL NOT AND SWAP1 DUP4 PUSH20 0xFFFFFFFFFFFFFFFFFFFFFFFFFFFFFFFFFFFFFFFF AND MUL OR SWAP1 SSTORE POP POP POP PUSH3 0x266 JUMP JUMPDEST PUSH1 0x0 CALLER SWAP1 POP SWAP1 JUMP JUMPDEST PUSH1 0x0 DUP1 PUSH1 0x0 SWAP1 SLOAD SWAP1 PUSH2 0x100 EXP SWAP1 DIV PUSH20 0xFFFFFFFFFFFFFFFFFFFFFFFFFFFFFFFFFFFFFFFF AND SWAP1 POP DUP2 PUSH1 0x0 DUP1 PUSH2 0x100 EXP DUP2 SLOAD DUP2 PUSH20 0xFFFFFFFFFFFFFFFFFFFFFFFFFFFFFFFFFFFFFFFF MUL NOT AND SWAP1 DUP4 PUSH20 0xFFFFFFFFFFFFFFFFFFFFFFFFFFFFFFFFFFFFFFFF AND MUL OR SWAP1 SSTORE POP DUP2 PUSH20 0xFFFFFFFFFFFFFFFFFFFFFFFFFFFFFFFFFFFFFFFF AND DUP2 PUSH20 0xFFFFFFFFFFFFFFFFFFFFFFFFFFFFFFFFFFFFFFFF AND PUSH32 0x8BE0079C531659141344CD1FD0A4F28419497F9722A3DAAFE3B4186F6B6457E0 PUSH1 0x40 MLOAD PUSH1 0x40 MLOAD DUP1 SWAP2 SUB SWAP1 LOG3 POP POP JUMP JUMPDEST PUSH1 0x0 DUP2 MLOAD SWAP1 POP PUSH3 0x1C6 DUP2 PUSH3 0x24C JUMP JUMPDEST SWAP3 SWAP2 POP POP JUMP JUMPDEST PUSH1 0x0 DUP1 PUSH1 0x40 DUP4 DUP6 SUB SLT ISZERO PUSH3 0x1E6 JUMPI PUSH3 0x1E5 PUSH3 0x247 JUMP JUMPDEST JUMPDEST PUSH1 0x0 PUSH3 0x1F6 DUP6 DUP3 DUP7 ADD PUSH3 0x1B5 JUMP JUMPDEST SWAP3 POP POP PUSH1 0x20 PUSH3 0x209 DUP6 DUP3 DUP7 ADD PUSH3 0x1B5 JUMP JUMPDEST SWAP2 POP POP SWAP3 POP SWAP3 SWAP1 POP JUMP JUMPDEST PUSH1 0x0 PUSH3 0x220 DUP3 PUSH3 0x227 JUMP JUMPDEST SWAP1 POP SWAP2 SWAP1 POP JUMP JUMPDEST PUSH1 0x0 PUSH20 0xFFFFFFFFFFFFFFFFFFFFFFFFFFFFFFFFFFFFFFFF DUP3 AND SWAP1 POP SWAP2 SWAP1 POP JUMP JUMPDEST PUSH1 0x0 DUP1 REVERT JUMPDEST PUSH3 0x257 DUP2 PUSH3 0x213 JUMP JUMPDEST DUP2 EQ PUSH3 0x263 JUMPI PUSH1 0x0 DUP1 REVERT JUMPDEST POP JUMP JUMPDEST PUSH2 0x2B87 DUP1 PUSH3 0x276 PUSH1 0x0 CODECOPY PUSH1 0x0 RETURN INVALID PUSH1 0x80 PUSH1 0x40 MSTORE CALLVALUE DUP1 ISZERO PUSH2 0x10 JUMPI PUSH1 0x0 DUP1 REVERT JUMPDEST POP PUSH1 0x4 CALLDATASIZE LT PUSH2 0x93 JUMPI PUSH1 0x0 CALLDATALOAD PUSH1 0xE0 SHR DUP1 PUSH4 0xB5EC25AE GT PUSH2 0x66 JUMPI DUP1 PUSH4 0xB5EC25AE EQ PUSH2 0xFA JUMPI DUP1 PUSH4 0xCD3C6E56 EQ PUSH2 0x116 JUMPI DUP1 PUSH4 0xE6D46C8D EQ PUSH2 0x132 JUMPI DUP1 PUSH4 0xEFFBB95D EQ PUSH2 0x14E JUMPI DUP1 PUSH4 0xF2FDE38B EQ PUSH2 0x184 JUMPI PUSH2 0x93 JUMP JUMPDEST DUP1 PUSH4 0x62063E87 EQ PUSH2 0x98 JUMPI DUP1 PUSH4 0x715018A6 EQ PUSH2 0xC8 JUMPI DUP1 PUSH4 0x8DA5CB5B EQ PUSH2 0xD2 JUMPI DUP1 PUSH4 0xAF812EBF EQ PUSH2 0xF0 JUMPI JUMPDEST PUSH1 0x0 DUP1 REVERT JUMPDEST PUSH2 0xB2 PUSH1 0x4 DUP1 CALLDATASIZE SUB DUP2 ADD SWAP1 PUSH2 0xAD SWAP2 SWAP1 PUSH2 0x1F35 JUMP JUMPDEST PUSH2 0x1A0 JUMP JUMPDEST PUSH1 0x40 MLOAD PUSH2 0xBF SWAP2 SWAP1 PUSH2 0x2317 JUMP JUMPDEST PUSH1 0x40 MLOAD DUP1 SWAP2 SUB SWAP1 RETURN JUMPDEST PUSH2 0xD0 PUSH2 0x51B JUMP JUMPDEST STOP JUMPDEST PUSH2 0xDA PUSH2 0x52F JUMP JUMPDEST PUSH1 0x40 MLOAD PUSH2 0xE7 SWAP2 SWAP1 PUSH2 0x2273 JUMP JUMPDEST PUSH1 0x40 MLOAD DUP1 SWAP2 SUB SWAP1 RETURN JUMPDEST PUSH2 0xF8 PUSH2 0x558 JUMP JUMPDEST STOP JUMPDEST PUSH2 0x114 PUSH1 0x4 DUP1 CALLDATASIZE SUB DUP2 ADD SWAP1 PUSH2 0x10F SWAP2 SWAP1 PUSH2 0x205B JUMP JUMPDEST PUSH2 0x68E JUMP JUMPDEST STOP JUMPDEST PUSH2 0x130 PUSH1 0x4 DUP1 CALLDATASIZE SUB DUP2 ADD SWAP1 PUSH2 0x12B SWAP2 SWAP1 PUSH2 0x20B5 JUMP JUMPDEST PUSH2 0xADC JUMP JUMPDEST STOP JUMPDEST PUSH2 0x14C PUSH1 0x4 DUP1 CALLDATASIZE SUB DUP2 ADD SWAP1 PUSH2 0x147 SWAP2 SWAP1 PUSH2 0x205B JUMP JUMPDEST PUSH2 0xDA6 JUMP JUMPDEST STOP JUMPDEST PUSH2 0x168 PUSH1 0x4 DUP1 CALLDATASIZE SUB DUP2 ADD SWAP1 PUSH2 0x163 SWAP2 SWAP1 PUSH2 0x205B JUMP JUMPDEST PUSH2 0x1639 JUMP JUMPDEST PUSH1 0x40 MLOAD PUSH2 0x17B SWAP8 SWAP7 SWAP6 SWAP5 SWAP4 SWAP3 SWAP2 SWAP1 PUSH2 0x2332 JUMP JUMPDEST PUSH1 0x40 MLOAD DUP1 SWAP2 SUB SWAP1 RETURN JUMPDEST PUSH2 0x19E PUSH1 0x4 DUP1 CALLDATASIZE SUB DUP2 ADD SWAP1 PUSH2 0x199 SWAP2 SWAP1 PUSH2 0x1EAE JUMP JUMPDEST PUSH2 0x173D JUMP JUMPDEST STOP JUMPDEST PUSH1 0x0 DUP1 PUSH1 0x2 PUSH1 0x0 PUSH1 0x1 SLOAD DUP2 MSTORE PUSH1 0x20 ADD SWAP1 DUP2 MSTORE PUSH1 0x20 ADD PUSH1 0x0 KECCAK256 SWAP1 POP DUP10 DUP2 PUSH1 0x0 ADD SWAP1 DUP1 MLOAD SWAP1 PUSH1 0x20 ADD SWAP1 PUSH2 0x1D2 SWAP3 SWAP2 SWAP1 PUSH2 0x190B JUMP JUMPDEST POP DUP4 DUP2 PUSH1 0x7 ADD DUP2 SWAP1 SSTORE POP PUSH1 0x0 JUMPDEST DUP7 DUP2 LT ISZERO PUSH2 0x28F JUMPI DUP8 DUP2 DUP2 MLOAD DUP2 LT PUSH2 0x1FA JUMPI PUSH2 0x1F9 PUSH2 0x28E6 JUMP JUMPDEST JUMPDEST PUSH1 0x20 MUL PUSH1 0x20 ADD ADD MLOAD DUP3 PUSH1 0x4 ADD PUSH1 0x0 DUP11 DUP5 DUP2 MLOAD DUP2 LT PUSH2 0x21B JUMPI PUSH2 0x21A PUSH2 0x28E6 JUMP JUMPDEST JUMPDEST PUSH1 0x20 MUL PUSH1 0x20 ADD ADD MLOAD PUSH1 0x0 ADD MLOAD DUP2 MSTORE PUSH1 0x20 ADD SWAP1 DUP2 MSTORE PUSH1 0x20 ADD PUSH1 0x0 KECCAK256 PUSH1 0x0 DUP3 ADD MLOAD DUP2 PUSH1 0x0 ADD SSTORE PUSH1 0x20 DUP3 ADD MLOAD DUP2 PUSH1 0x1 ADD SWAP1 DUP1 MLOAD SWAP1 PUSH1 0x20 ADD SWAP1 PUSH2 0x25B SWAP3 SWAP2 SWAP1 PUSH2 0x190B JUMP JUMPDEST POP PUSH1 0x40 DUP3 ADD MLOAD DUP2 PUSH1 0x2 ADD SWAP1 DUP1 MLOAD SWAP1 PUSH1 0x20 ADD SWAP1 PUSH2 0x278 SWAP3 SWAP2 SWAP1 PUSH2 0x1991 JUMP JUMPDEST POP SWAP1 POP POP DUP1 DUP1 PUSH2 0x287 SWAP1 PUSH2 0x2810 JUMP JUMPDEST SWAP2 POP POP PUSH2 0x1DF JUMP JUMPDEST POP PUSH1 0x0 JUMPDEST DUP6 DUP2 LT ISZERO PUSH2 0x465 JUMPI PUSH1 0x0 JUMPDEST DUP7 DUP2 LT ISZERO PUSH2 0x367 JUMPI PUSH1 0x1 DUP11 DUP4 DUP2 MLOAD DUP2 LT PUSH2 0x2BB JUMPI PUSH2 0x2BA PUSH2 0x28E6 JUMP JUMPDEST JUMPDEST PUSH1 0x20 MUL PUSH1 0x20 ADD ADD MLOAD DUP3 DUP2 MLOAD DUP2 LT PUSH2 0x2D5 JUMPI PUSH2 0x2D4 PUSH2 0x28E6 JUMP JUMPDEST JUMPDEST PUSH1 0x20 MUL PUSH1 0x20 ADD ADD MLOAD EQ ISZERO PUSH2 0x354 JUMPI DUP3 PUSH1 0x1 ADD PUSH1 0x0 DUP13 DUP5 DUP2 MLOAD DUP2 LT PUSH2 0x2FC JUMPI PUSH2 0x2FB PUSH2 0x28E6 JUMP JUMPDEST JUMPDEST PUSH1 0x20 MUL PUSH1 0x20 ADD ADD MLOAD DUP2 MSTORE PUSH1 0x20 ADD SWAP1 DUP2 MSTORE PUSH1 0x20 ADD PUSH1 0x0 KECCAK256 DUP12 DUP3 DUP2 MLOAD DUP2 LT PUSH2 0x325 JUMPI PUSH2 0x324 PUSH2 0x28E6 JUMP JUMPDEST JUMPDEST PUSH1 0x20 MUL PUSH1 0x20 ADD ADD MLOAD SWAP1 DUP1 PUSH1 0x1 DUP2 SLOAD ADD DUP1 DUP3 SSTORE DUP1 SWAP2 POP POP PUSH1 0x1 SWAP1 SUB SWAP1 PUSH1 0x0 MSTORE PUSH1 0x20 PUSH1 0x0 KECCAK256 ADD PUSH1 0x0 SWAP1 SWAP2 SWAP1 SWAP2 SWAP1 SWAP2 POP SSTORE JUMPDEST DUP1 DUP1 PUSH2 0x35F SWAP1 PUSH2 0x2810 JUMP JUMPDEST SWAP2 POP POP PUSH2 0x29E JUMP JUMPDEST POP PUSH1 0x0 DUP3 PUSH1 0x1 ADD PUSH1 0x0 DUP13 DUP5 DUP2 MLOAD DUP2 LT PUSH2 0x383 JUMPI PUSH2 0x382 PUSH2 0x28E6 JUMP JUMPDEST JUMPDEST PUSH1 0x20 MUL PUSH1 0x20 ADD ADD MLOAD DUP2 MSTORE PUSH1 0x20 ADD SWAP1 DUP2 MSTORE PUSH1 0x20 ADD PUSH1 0x0 KECCAK256 DUP1 SLOAD SWAP1 POP EQ ISZERO PUSH2 0x452 JUMPI DUP2 PUSH1 0x1 ADD PUSH1 0x0 DUP12 DUP4 DUP2 MLOAD DUP2 LT PUSH2 0x3BC JUMPI PUSH2 0x3BB PUSH2 0x28E6 JUMP JUMPDEST JUMPDEST PUSH1 0x20 MUL PUSH1 0x20 ADD ADD MLOAD DUP2 MSTORE PUSH1 0x20 ADD SWAP1 DUP2 MSTORE PUSH1 0x20 ADD PUSH1 0x0 KECCAK256 PUSH1 0x0 SWAP1 DUP1 PUSH1 0x1 DUP2 SLOAD ADD DUP1 DUP3 SSTORE DUP1 SWAP2 POP POP PUSH1 0x1 SWAP1 SUB SWAP1 PUSH1 0x0 MSTORE PUSH1 0x20 PUSH1 0x0 KECCAK256 ADD PUSH1 0x0 SWAP1 SWAP2 SWAP1 SWAP2 SWAP1 SWAP2 POP SSTORE DUP2 PUSH1 0x1 ADD PUSH1 0x0 DUP12 DUP4 DUP2 MLOAD DUP2 LT PUSH2 0x413 JUMPI PUSH2 0x412 PUSH2 0x28E6 JUMP JUMPDEST JUMPDEST PUSH1 0x20 MUL PUSH1 0x20 ADD ADD MLOAD DUP2 MSTORE PUSH1 0x20 ADD SWAP1 DUP2 MSTORE PUSH1 0x20 ADD PUSH1 0x0 KECCAK256 PUSH1 0x0 SWAP1 DUP1 PUSH1 0x1 DUP2 SLOAD ADD DUP1 DUP3 SSTORE DUP1 SWAP2 POP POP PUSH1 0x1 SWAP1 SUB SWAP1 PUSH1 0x0 MSTORE PUSH1 0x20 PUSH1 0x0 KECCAK256 ADD PUSH1 0x0 SWAP1 SWAP2 SWAP1 SWAP2 SWAP1 SWAP2 POP SSTORE JUMPDEST DUP1 DUP1 PUSH2 0x45D SWAP1 PUSH2 0x2810 JUMP JUMPDEST SWAP2 POP POP PUSH2 0x293 JUMP JUMPDEST POP PUSH1 0x0 DUP2 PUSH1 0x6 ADD PUSH1 0x0 PUSH2 0x100 EXP DUP2 SLOAD DUP2 PUSH1 0xFF MUL NOT AND SWAP1 DUP4 ISZERO ISZERO MUL OR SWAP1 SSTORE POP PUSH1 0x0 DUP2 PUSH1 0x5 ADD DUP2 SWAP1 SSTORE POP DUP3 DUP2 PUSH1 0x6 ADD PUSH1 0x1 PUSH2 0x100 EXP DUP2 SLOAD DUP2 PUSH20 0xFFFFFFFFFFFFFFFFFFFFFFFFFFFFFFFFFFFFFFFF MUL NOT AND SWAP1 DUP4 PUSH20 0xFFFFFFFFFFFFFFFFFFFFFFFFFFFFFFFFFFFFFFFF AND MUL OR SWAP1 SSTORE POP DUP9 DUP2 PUSH1 0x2 ADD SWAP1 DUP1 MLOAD SWAP1 PUSH1 0x20 ADD SWAP1 PUSH2 0x4E8 SWAP3 SWAP2 SWAP1 PUSH2 0x1A1B JUMP JUMPDEST POP DUP5 DUP2 PUSH1 0x3 ADD DUP2 SWAP1 SSTORE POP PUSH1 0x1 PUSH1 0x0 DUP2 SLOAD DUP1 SWAP3 SWAP2 SWAP1 PUSH2 0x505 SWAP1 PUSH2 0x2810 JUMP JUMPDEST SWAP2 SWAP1 POP SSTORE POP PUSH1 0x1 SWAP2 POP POP SWAP9 SWAP8 POP POP POP POP POP POP POP POP JUMP JUMPDEST PUSH2 0x523 PUSH2 0x17C1 JUMP JUMPDEST PUSH2 0x52D PUSH1 0x0 PUSH2 0x183F JUMP JUMPDEST JUMP JUMPDEST PUSH1 0x0 DUP1 PUSH1 0x0 SWAP1 SLOAD SWAP1 PUSH2 0x100 EXP SWAP1 DIV PUSH20 0xFFFFFFFFFFFFFFFFFFFFFFFFFFFFFFFFFFFFFFFF AND SWAP1 POP SWAP1 JUMP JUMPDEST PUSH1 0x5 PUSH1 0x0 SWAP1 SLOAD SWAP1 PUSH2 0x100 EXP SWAP1 DIV PUSH20 0xFFFFFFFFFFFFFFFFFFFFFFFFFFFFFFFFFFFFFFFF AND PUSH20 0xFFFFFFFFFFFFFFFFFFFFFFFFFFFFFFFFFFFFFFFF AND PUSH4 0xA9059CBB CALLER PUSH1 0x3 PUSH1 0x0 CALLER PUSH20 0xFFFFFFFFFFFFFFFFFFFFFFFFFFFFFFFFFFFFFFFF AND PUSH20 0xFFFFFFFFFFFFFFFFFFFFFFFFFFFFFFFFFFFFFFFF AND DUP2 MSTORE PUSH1 0x20 ADD SWAP1 DUP2 MSTORE PUSH1 0x20 ADD PUSH1 0x0 KECCAK256 SLOAD PUSH1 0x40 MLOAD DUP4 PUSH4 0xFFFFFFFF AND PUSH1 0xE0 SHL DUP2 MSTORE PUSH1 0x4 ADD PUSH2 0x5F4 SWAP3 SWAP2 SWAP1 PUSH2 0x22EE JUMP JUMPDEST PUSH1 0x20 PUSH1 0x40 MLOAD DUP1 DUP4 SUB DUP2 PUSH1 0x0 DUP8 DUP1 EXTCODESIZE ISZERO DUP1 ISZERO PUSH2 0x60E JUMPI PUSH1 0x0 DUP1 REVERT JUMPDEST POP GAS CALL ISZERO DUP1 ISZERO PUSH2 0x622 JUMPI RETURNDATASIZE PUSH1 0x0 DUP1 RETURNDATACOPY RETURNDATASIZE PUSH1 0x0 REVERT JUMPDEST POP POP POP POP PUSH1 0x40 MLOAD RETURNDATASIZE PUSH1 0x1F NOT PUSH1 0x1F DUP3 ADD AND DUP3 ADD DUP1 PUSH1 0x40 MSTORE POP DUP2 ADD SWAP1 PUSH2 0x646 SWAP2 SWAP1 PUSH2 0x1F08 JUMP JUMPDEST POP PUSH1 0x0 PUSH1 0x3 PUSH1 0x0 CALLER PUSH20 0xFFFFFFFFFFFFFFFFFFFFFFFFFFFFFFFFFFFFFFFF AND PUSH20 0xFFFFFFFFFFFFFFFFFFFFFFFFFFFFFFFFFFFFFFFF AND DUP2 MSTORE PUSH1 0x20 ADD SWAP1 DUP2 MSTORE PUSH1 0x20 ADD PUSH1 0x0 KECCAK256 DUP2 SWAP1 SSTORE POP JUMP JUMPDEST PUSH1 0x1 ISZERO ISZERO PUSH1 0x2 PUSH1 0x0 DUP4 DUP2 MSTORE PUSH1 0x20 ADD SWAP1 DUP2 MSTORE PUSH1 0x20 ADD PUSH1 0x0 KECCAK256 PUSH1 0x6 ADD PUSH1 0x0 SWAP1 SLOAD SWAP1 PUSH2 0x100 EXP SWAP1 DIV PUSH1 0xFF AND ISZERO ISZERO EQ PUSH2 0x6F8 JUMPI PUSH1 0x40 MLOAD PUSH32 0x8C379A000000000000000000000000000000000000000000000000000000000 DUP2 MSTORE PUSH1 0x4 ADD PUSH2 0x6EF SWAP1 PUSH2 0x2408 JUMP JUMPDEST PUSH1 0x40 MLOAD DUP1 SWAP2 SUB SWAP1 REVERT JUMPDEST PUSH1 0x0 PUSH1 0x2 PUSH1 0x0 DUP4 DUP2 MSTORE PUSH1 0x20 ADD SWAP1 DUP2 MSTORE PUSH1 0x20 ADD PUSH1 0x0 KECCAK256 PUSH1 0x5 ADD SLOAD EQ ISZERO PUSH2 0x752 JUMPI PUSH1 0x40 MLOAD PUSH32 0x8C379A000000000000000000000000000000000000000000000000000000000 DUP2 MSTORE PUSH1 0x4 ADD PUSH2 0x749 SWAP1 PUSH2 0x2428 JUMP JUMPDEST PUSH1 0x40 MLOAD DUP1 SWAP2 SUB SWAP1 REVERT JUMPDEST PUSH1 0x0 PUSH1 0x2 PUSH1 0x0 DUP4 DUP2 MSTORE PUSH1 0x20 ADD SWAP1 DUP2 MSTORE PUSH1 0x20 ADD PUSH1 0x0 KECCAK256 PUSH1 0x7 ADD SLOAD SWAP1 POP JUMPDEST PUSH1 0x0 DUP2 EQ PUSH2 0xAD8 JUMPI PUSH1 0x1 PUSH1 0x6 PUSH1 0x0 SWAP1 SLOAD SWAP1 PUSH2 0x100 EXP SWAP1 DIV PUSH20 0xFFFFFFFFFFFFFFFFFFFFFFFFFFFFFFFFFFFFFFFF AND PUSH20 0xFFFFFFFFFFFFFFFFFFFFFFFFFFFFFFFFFFFFFFFF AND PUSH3 0xFDD58E CALLER DUP5 PUSH1 0x40 MLOAD DUP4 PUSH4 0xFFFFFFFF AND PUSH1 0xE0 SHL DUP2 MSTORE PUSH1 0x4 ADD PUSH2 0x7D4 SWAP3 SWAP2 SWAP1 PUSH2 0x22EE JUMP JUMPDEST PUSH1 0x20 PUSH1 0x40 MLOAD DUP1 DUP4 SUB DUP2 DUP7 DUP1 EXTCODESIZE ISZERO DUP1 ISZERO PUSH2 0x7EC JUMPI PUSH1 0x0 DUP1 REVERT JUMPDEST POP GAS STATICCALL ISZERO DUP1 ISZERO PUSH2 0x800 JUMPI RETURNDATASIZE PUSH1 0x0 DUP1 RETURNDATACOPY RETURNDATASIZE PUSH1 0x0 REVERT JUMPDEST POP POP POP POP PUSH1 0x40 MLOAD RETURNDATASIZE PUSH1 0x1F NOT PUSH1 0x1F DUP3 ADD AND DUP3 ADD DUP1 PUSH1 0x40 MSTORE POP DUP2 ADD SWAP1 PUSH2 0x824 SWAP2 SWAP1 PUSH2 0x2088 JUMP JUMPDEST EQ ISZERO PUSH2 0xA8B JUMPI PUSH1 0x2 PUSH1 0x0 DUP4 DUP2 MSTORE PUSH1 0x20 ADD SWAP1 DUP2 MSTORE PUSH1 0x20 ADD PUSH1 0x0 KECCAK256 PUSH1 0x1 ADD PUSH1 0x0 DUP3 DUP2 MSTORE PUSH1 0x20 ADD SWAP1 DUP2 MSTORE PUSH1 0x20 ADD PUSH1 0x0 KECCAK256 PUSH1 0x0 DUP2 SLOAD DUP2 LT PUSH2 0x864 JUMPI PUSH2 0x863 PUSH2 0x28E6 JUMP JUMPDEST JUMPDEST SWAP1 PUSH1 0x0 MSTORE PUSH1 0x20 PUSH1 0x0 KECCAK256 ADD SLOAD SWAP1 POP DUP1 PUSH1 0x2 PUSH1 0x0 DUP5 DUP2 MSTORE PUSH1 0x20 ADD SWAP1 DUP2 MSTORE PUSH1 0x20 ADD PUSH1 0x0 KECCAK256 PUSH1 0x4 ADD PUSH1 0x0 DUP4 DUP2 MSTORE PUSH1 0x20 ADD SWAP1 DUP2 MSTORE PUSH1 0x20 ADD PUSH1 0x0 KECCAK256 PUSH1 0x0 ADD SLOAD EQ ISZERO PUSH2 0x92F JUMPI PUSH1 0x2 PUSH1 0x0 DUP4 DUP2 MSTORE PUSH1 0x20 ADD SWAP1 DUP2 MSTORE PUSH1 0x20 ADD PUSH1 0x0 KECCAK256 PUSH1 0x4 ADD PUSH1 0x0 DUP3 DUP2 MSTORE PUSH1 0x20 ADD SWAP1 DUP2 MSTORE PUSH1 0x20 ADD PUSH1 0x0 KECCAK256 PUSH1 0x2 ADD CALLER SWAP1 DUP1 PUSH1 0x1 DUP2 SLOAD ADD DUP1 DUP3 SSTORE DUP1 SWAP2 POP POP PUSH1 0x1 SWAP1 SUB SWAP1 PUSH1 0x0 MSTORE PUSH1 0x20 PUSH1 0x0 KECCAK256 ADD PUSH1 0x0 SWAP1 SWAP2 SWAP1 SWAP2 SWAP1 SWAP2 PUSH2 0x100 EXP DUP2 SLOAD DUP2 PUSH20 0xFFFFFFFFFFFFFFFFFFFFFFFFFFFFFFFFFFFFFFFF MUL NOT AND SWAP1 DUP4 PUSH20 0xFFFFFFFFFFFFFFFFFFFFFFFFFFFFFFFFFFFFFFFF AND MUL OR SWAP1 SSTORE POP JUMPDEST PUSH1 0x0 PUSH3 0x61A80 PUSH1 0x2 PUSH1 0x0 DUP6 DUP2 MSTORE PUSH1 0x20 ADD SWAP1 DUP2 MSTORE PUSH1 0x20 ADD PUSH1 0x0 KECCAK256 PUSH1 0x5 ADD SLOAD PUSH2 0x956 SWAP2 SWAP1 PUSH2 0x2664 JUMP JUMPDEST SWAP1 POP DUP1 PUSH1 0x3 PUSH1 0x0 PUSH1 0x6 PUSH1 0x0 SWAP1 SLOAD SWAP1 PUSH2 0x100 EXP SWAP1 DIV PUSH20 0xFFFFFFFFFFFFFFFFFFFFFFFFFFFFFFFFFFFFFFFF AND PUSH20 0xFFFFFFFFFFFFFFFFFFFFFFFFFFFFFFFFFFFFFFFF AND PUSH4 0x25E56054 DUP7 PUSH1 0x40 MLOAD DUP3 PUSH4 0xFFFFFFFF AND PUSH1 0xE0 SHL DUP2 MSTORE PUSH1 0x4 ADD PUSH2 0x9B8 SWAP2 SWAP1 PUSH2 0x24A8 JUMP JUMPDEST PUSH1 0x20 PUSH1 0x40 MLOAD DUP1 DUP4 SUB DUP2 DUP7 DUP1 EXTCODESIZE ISZERO DUP1 ISZERO PUSH2 0x9D0 JUMPI PUSH1 0x0 DUP1 REVERT JUMPDEST POP GAS STATICCALL ISZERO DUP1 ISZERO PUSH2 0x9E4 JUMPI RETURNDATASIZE PUSH1 0x0 DUP1 RETURNDATACOPY RETURNDATASIZE PUSH1 0x0 REVERT JUMPDEST POP POP POP POP PUSH1 0x40 MLOAD RETURNDATASIZE PUSH1 0x1F NOT PUSH1 0x1F DUP3 ADD AND DUP3 ADD DUP1 PUSH1 0x40 MSTORE POP DUP2 ADD SWAP1 PUSH2 0xA08 SWAP2 SWAP1 PUSH2 0x1EDB JUMP JUMPDEST PUSH20 0xFFFFFFFFFFFFFFFFFFFFFFFFFFFFFFFFFFFFFFFF AND PUSH20 0xFFFFFFFFFFFFFFFFFFFFFFFFFFFFFFFFFFFFFFFF AND DUP2 MSTORE PUSH1 0x20 ADD SWAP1 DUP2 MSTORE PUSH1 0x20 ADD PUSH1 0x0 KECCAK256 PUSH1 0x0 DUP3 DUP3 SLOAD PUSH2 0xA51 SWAP2 SWAP1 PUSH2 0x260E JUMP JUMPDEST SWAP3 POP POP DUP2 SWAP1 SSTORE POP DUP1 PUSH1 0x2 PUSH1 0x0 DUP6 DUP2 MSTORE PUSH1 0x20 ADD SWAP1 DUP2 MSTORE PUSH1 0x20 ADD PUSH1 0x0 KECCAK256 PUSH1 0x5 ADD PUSH1 0x0 DUP3 DUP3 SLOAD PUSH2 0xA7E SWAP2 SWAP1 PUSH2 0x26EF JUMP JUMPDEST SWAP3 POP POP DUP2 SWAP1 SSTORE POP POP PUSH2 0xAD3 JUMP JUMPDEST PUSH1 0x2 PUSH1 0x0 DUP4 DUP2 MSTORE PUSH1 0x20 ADD SWAP1 DUP2 MSTORE PUSH1 0x20 ADD PUSH1 0x0 KECCAK256 PUSH1 0x1 ADD PUSH1 0x0 DUP3 DUP2 MSTORE PUSH1 0x20 ADD SWAP1 DUP2 MSTORE PUSH1 0x20 ADD PUSH1 0x0 KECCAK256 PUSH1 0x1 DUP2 SLOAD DUP2 LT PUSH2 0xAC5 JUMPI PUSH2 0xAC4 PUSH2 0x28E6 JUMP JUMPDEST JUMPDEST SWAP1 PUSH1 0x0 MSTORE PUSH1 0x20 PUSH1 0x0 KECCAK256 ADD SLOAD SWAP1 POP JUMPDEST PUSH2 0x76E JUMP JUMPDEST POP POP JUMP JUMPDEST PUSH1 0x0 DUP2 GT PUSH2 0xB1F JUMPI PUSH1 0x40 MLOAD PUSH32 0x8C379A000000000000000000000000000000000000000000000000000000000 DUP2 MSTORE PUSH1 0x4 ADD PUSH2 0xB16 SWAP1 PUSH2 0x2468 JUMP JUMPDEST PUSH1 0x40 MLOAD DUP1 SWAP2 SUB SWAP1 REVERT JUMPDEST PUSH1 0x0 PUSH1 0x5 PUSH1 0x0 SWAP1 SLOAD SWAP1 PUSH2 0x100 EXP SWAP1 DIV PUSH20 0xFFFFFFFFFFFFFFFFFFFFFFFFFFFFFFFFFFFFFFFF AND PUSH20 0xFFFFFFFFFFFFFFFFFFFFFFFFFFFFFFFFFFFFFFFF AND PUSH4 0xDD62ED3E CALLER ADDRESS PUSH1 0x40 MLOAD DUP4 PUSH4 0xFFFFFFFF AND PUSH1 0xE0 SHL DUP2 MSTORE PUSH1 0x4 ADD PUSH2 0xB7E SWAP3 SWAP2 SWAP1 PUSH2 0x228E JUMP JUMPDEST PUSH1 0x20 PUSH1 0x40 MLOAD DUP1 DUP4 SUB DUP2 DUP7 DUP1 EXTCODESIZE ISZERO DUP1 ISZERO PUSH2 0xB96 JUMPI PUSH1 0x0 DUP1 REVERT JUMPDEST POP GAS STATICCALL ISZERO DUP1 ISZERO PUSH2 0xBAA JUMPI RETURNDATASIZE PUSH1 0x0 DUP1 RETURNDATACOPY RETURNDATASIZE PUSH1 0x0 REVERT JUMPDEST POP POP POP POP PUSH1 0x40 MLOAD RETURNDATASIZE PUSH1 0x1F NOT PUSH1 0x1F DUP3 ADD AND DUP3 ADD DUP1 PUSH1 0x40 MSTORE POP DUP2 ADD SWAP1 PUSH2 0xBCE SWAP2 SWAP1 PUSH2 0x2088 JUMP JUMPDEST SWAP1 POP DUP2 DUP2 LT ISZERO PUSH2 0xC13 JUMPI PUSH1 0x40 MLOAD PUSH32 0x8C379A000000000000000000000000000000000000000000000000000000000 DUP2 MSTORE PUSH1 0x4 ADD PUSH2 0xC0A SWAP1 PUSH2 0x23E8 JUMP JUMPDEST PUSH1 0x40 MLOAD DUP1 SWAP2 SUB SWAP1 REVERT JUMPDEST PUSH1 0x5 PUSH1 0x0 SWAP1 SLOAD SWAP1 PUSH2 0x100 EXP SWAP1 DIV PUSH20 0xFFFFFFFFFFFFFFFFFFFFFFFFFFFFFFFFFFFFFFFF AND PUSH20 0xFFFFFFFFFFFFFFFFFFFFFFFFFFFFFFFFFFFFFFFF AND PUSH4 0x23B872DD CALLER ADDRESS DUP6 PUSH1 0x40 MLOAD DUP5 PUSH4 0xFFFFFFFF AND PUSH1 0xE0 SHL DUP2 MSTORE PUSH1 0x4 ADD PUSH2 0xC72 SWAP4 SWAP3 SWAP2 SWAP1 PUSH2 0x22B7 JUMP JUMPDEST PUSH1 0x20 PUSH1 0x40 MLOAD DUP1 DUP4 SUB DUP2 PUSH1 0x0 DUP8 DUP1 EXTCODESIZE ISZERO DUP1 ISZERO PUSH2 0xC8C JUMPI PUSH1 0x0 DUP1 REVERT JUMPDEST POP GAS CALL ISZERO DUP1 ISZERO PUSH2 0xCA0 JUMPI RETURNDATASIZE PUSH1 0x0 DUP1 RETURNDATACOPY RETURNDATASIZE PUSH1 0x0 REVERT JUMPDEST POP POP POP POP PUSH1 0x40 MLOAD RETURNDATASIZE PUSH1 0x1F NOT PUSH1 0x1F DUP3 ADD AND DUP3 ADD DUP1 PUSH1 0x40 MSTORE POP DUP2 ADD SWAP1 PUSH2 0xCC4 SWAP2 SWAP1 PUSH2 0x1F08 JUMP JUMPDEST POP CALLER PUSH20 0xFFFFFFFFFFFFFFFFFFFFFFFFFFFFFFFFFFFFFFFF AND PUSH2 0x8FC DUP4 SWAP1 DUP2 ISZERO MUL SWAP1 PUSH1 0x40 MLOAD PUSH1 0x0 PUSH1 0x40 MLOAD DUP1 DUP4 SUB DUP2 DUP6 DUP9 DUP9 CALL SWAP4 POP POP POP POP ISZERO DUP1 ISZERO PUSH2 0xD0B JUMPI RETURNDATASIZE PUSH1 0x0 DUP1 RETURNDATACOPY RETURNDATASIZE PUSH1 0x0 REVERT JUMPDEST POP DUP2 PUSH1 0x2 PUSH1 0x0 DUP6 DUP2 MSTORE PUSH1 0x20 ADD SWAP1 DUP2 MSTORE PUSH1 0x20 ADD PUSH1 0x0 KECCAK256 PUSH1 0x5 ADD PUSH1 0x0 DUP3 DUP3 SLOAD PUSH2 0xD32 SWAP2 SWAP1 PUSH2 0x260E JUMP JUMPDEST SWAP3 POP POP DUP2 SWAP1 SSTORE POP PUSH1 0x1 PUSH1 0x2 PUSH1 0x0 DUP6 DUP2 MSTORE PUSH1 0x20 ADD SWAP1 DUP2 MSTORE PUSH1 0x20 ADD PUSH1 0x0 KECCAK256 PUSH1 0x6 ADD PUSH1 0x0 PUSH2 0x100 EXP DUP2 SLOAD DUP2 PUSH1 0xFF MUL NOT AND SWAP1 DUP4 ISZERO ISZERO MUL OR SWAP1 SSTORE POP PUSH32 0x21F9BB95EA07D82A536314FD89080112CDA91FC68B6E0A77CED196A3A291E1C9 DUP4 DUP4 PUSH1 0x40 MLOAD PUSH2 0xD99 SWAP3 SWAP2 SWAP1 PUSH2 0x24C3 JUMP JUMPDEST PUSH1 0x40 MLOAD DUP1 SWAP2 SUB SWAP1 LOG1 POP POP POP JUMP JUMPDEST PUSH2 0xDAE PUSH2 0x52F JUMP JUMPDEST PUSH20 0xFFFFFFFFFFFFFFFFFFFFFFFFFFFFFFFFFFFFFFFF AND CALLER PUSH20 0xFFFFFFFFFFFFFFFFFFFFFFFFFFFFFFFFFFFFFFFF AND EQ DUP1 PUSH2 0xE48 JUMPI POP PUSH1 0x2 PUSH1 0x0 DUP3 DUP2 MSTORE PUSH1 0x20 ADD SWAP1 DUP2 MSTORE PUSH1 0x20 ADD PUSH1 0x0 KECCAK256 PUSH1 0x6 ADD PUSH1 0x1 SWAP1 SLOAD SWAP1 PUSH2 0x100 EXP SWAP1 DIV PUSH20 0xFFFFFFFFFFFFFFFFFFFFFFFFFFFFFFFFFFFFFFFF AND PUSH20 0xFFFFFFFFFFFFFFFFFFFFFFFFFFFFFFFFFFFFFFFF AND CALLER PUSH20 0xFFFFFFFFFFFFFFFFFFFFFFFFFFFFFFFFFFFFFFFF AND EQ JUMPDEST PUSH2 0xE87 JUMPI PUSH1 0x40 MLOAD PUSH32 0x8C379A000000000000000000000000000000000000000000000000000000000 DUP2 MSTORE PUSH1 0x4 ADD PUSH2 0xE7E SWAP1 PUSH2 0x2488 JUMP JUMPDEST PUSH1 0x40 MLOAD DUP1 SWAP2 SUB SWAP1 REVERT JUMPDEST PUSH1 0x1 ISZERO ISZERO PUSH1 0x2 PUSH1 0x0 DUP4 DUP2 MSTORE PUSH1 0x20 ADD SWAP1 DUP2 MSTORE PUSH1 0x20 ADD PUSH1 0x0 KECCAK256 PUSH1 0x6 ADD PUSH1 0x0 SWAP1 SLOAD SWAP1 PUSH2 0x100 EXP SWAP1 DIV PUSH1 0xFF AND ISZERO ISZERO EQ PUSH2 0xEF1 JUMPI PUSH1 0x40 MLOAD PUSH32 0x8C379A000000000000000000000000000000000000000000000000000000000 DUP2 MSTORE PUSH1 0x4 ADD PUSH2 0xEE8 SWAP1 PUSH2 0x23C8 JUMP JUMPDEST PUSH1 0x40 MLOAD DUP1 SWAP2 SUB SWAP1 REVERT JUMPDEST PUSH1 0x0 JUMPDEST PUSH1 0x2 PUSH1 0x0 DUP4 DUP2 MSTORE PUSH1 0x20 ADD SWAP1 DUP2 MSTORE PUSH1 0x20 ADD PUSH1 0x0 KECCAK256 PUSH1 0x3 ADD SLOAD DUP2 LT ISZERO PUSH2 0x1058 JUMPI PUSH1 0x1 PUSH1 0x4 PUSH1 0x0 PUSH1 0x6 PUSH1 0x0 SWAP1 SLOAD SWAP1 PUSH2 0x100 EXP SWAP1 DIV PUSH20 0xFFFFFFFFFFFFFFFFFFFFFFFFFFFFFFFFFFFFFFFF AND PUSH20 0xFFFFFFFFFFFFFFFFFFFFFFFFFFFFFFFFFFFFFFFF AND PUSH4 0x58B478F4 PUSH1 0x2 PUSH1 0x0 DUP9 DUP2 MSTORE PUSH1 0x20 ADD SWAP1 DUP2 MSTORE PUSH1 0x20 ADD PUSH1 0x0 KECCAK256 PUSH1 0x2 ADD DUP7 DUP2 SLOAD DUP2 LT PUSH2 0xF7E JUMPI PUSH2 0xF7D PUSH2 0x28E6 JUMP JUMPDEST JUMPDEST SWAP1 PUSH1 0x0 MSTORE PUSH1 0x20 PUSH1 0x0 KECCAK256 ADD SLOAD PUSH1 0x40 MLOAD DUP3 PUSH4 0xFFFFFFFF AND PUSH1 0xE0 SHL DUP2 MSTORE PUSH1 0x4 ADD PUSH2 0xFA5 SWAP2 SWAP1 PUSH2 0x24A8 JUMP JUMPDEST PUSH1 0x20 PUSH1 0x40 MLOAD DUP1 DUP4 SUB DUP2 DUP7 DUP1 EXTCODESIZE ISZERO DUP1 ISZERO PUSH2 0xFBD JUMPI PUSH1 0x0 DUP1 REVERT JUMPDEST POP GAS STATICCALL ISZERO DUP1 ISZERO PUSH2 0xFD1 JUMPI RETURNDATASIZE PUSH1 0x0 DUP1 RETURNDATACOPY RETURNDATASIZE PUSH1 0x0 REVERT JUMPDEST POP POP POP POP PUSH1 0x40 MLOAD RETURNDATASIZE PUSH1 0x1F NOT PUSH1 0x1F DUP3 ADD AND DUP3 ADD DUP1 PUSH1 0x40 MSTORE POP DUP2 ADD SWAP1 PUSH2 0xFF5 SWAP2 SWAP1 PUSH2 0x1EDB JUMP JUMPDEST PUSH20 0xFFFFFFFFFFFFFFFFFFFFFFFFFFFFFFFFFFFFFFFF AND PUSH20 0xFFFFFFFFFFFFFFFFFFFFFFFFFFFFFFFFFFFFFFFF AND DUP2 MSTORE PUSH1 0x20 ADD SWAP1 DUP2 MSTORE PUSH1 0x20 ADD PUSH1 0x0 KECCAK256 PUSH1 0x0 DUP3 DUP3 SLOAD PUSH2 0x103E SWAP2 SWAP1 PUSH2 0x260E JUMP JUMPDEST SWAP3 POP POP DUP2 SWAP1 SSTORE POP DUP1 DUP1 PUSH2 0x1050 SWAP1 PUSH2 0x2810 JUMP JUMPDEST SWAP2 POP POP PUSH2 0xEF4 JUMP JUMPDEST POP PUSH1 0x0 JUMPDEST PUSH1 0x2 PUSH1 0x0 DUP4 DUP2 MSTORE PUSH1 0x20 ADD SWAP1 DUP2 MSTORE PUSH1 0x20 ADD PUSH1 0x0 KECCAK256 PUSH1 0x3 ADD SLOAD DUP2 LT ISZERO PUSH2 0x1606 JUMPI PUSH1 0x0 PUSH1 0x4 PUSH1 0x0 PUSH1 0x6 PUSH1 0x0 SWAP1 SLOAD SWAP1 PUSH2 0x100 EXP SWAP1 DIV PUSH20 0xFFFFFFFFFFFFFFFFFFFFFFFFFFFFFFFFFFFFFFFF AND PUSH20 0xFFFFFFFFFFFFFFFFFFFFFFFFFFFFFFFFFFFFFFFF AND PUSH4 0x58B478F4 PUSH1 0x2 PUSH1 0x0 DUP9 DUP2 MSTORE PUSH1 0x20 ADD SWAP1 DUP2 MSTORE PUSH1 0x20 ADD PUSH1 0x0 KECCAK256 PUSH1 0x2 ADD DUP7 DUP2 SLOAD DUP2 LT PUSH2 0x10E6 JUMPI PUSH2 0x10E5 PUSH2 0x28E6 JUMP JUMPDEST JUMPDEST SWAP1 PUSH1 0x0 MSTORE PUSH1 0x20 PUSH1 0x0 KECCAK256 ADD SLOAD PUSH1 0x40 MLOAD DUP3 PUSH4 0xFFFFFFFF AND PUSH1 0xE0 SHL DUP2 MSTORE PUSH1 0x4 ADD PUSH2 0x110D SWAP2 SWAP1 PUSH2 0x24A8 JUMP JUMPDEST PUSH1 0x20 PUSH1 0x40 MLOAD DUP1 DUP4 SUB DUP2 DUP7 DUP1 EXTCODESIZE ISZERO DUP1 ISZERO PUSH2 0x1125 JUMPI PUSH1 0x0 DUP1 REVERT JUMPDEST POP GAS STATICCALL ISZERO DUP1 ISZERO PUSH2 0x1139 JUMPI RETURNDATASIZE PUSH1 0x0 DUP1 RETURNDATACOPY RETURNDATASIZE PUSH1 0x0 REVERT JUMPDEST POP POP POP POP PUSH1 0x40 MLOAD RETURNDATASIZE PUSH1 0x1F NOT PUSH1 0x1F DUP3 ADD AND DUP3 ADD DUP1 PUSH1 0x40 MSTORE POP DUP2 ADD SWAP1 PUSH2 0x115D SWAP2 SWAP1 PUSH2 0x1EDB JUMP JUMPDEST PUSH20 0xFFFFFFFFFFFFFFFFFFFFFFFFFFFFFFFFFFFFFFFF AND PUSH20 0xFFFFFFFFFFFFFFFFFFFFFFFFFFFFFFFFFFFFFFFF AND DUP2 MSTORE PUSH1 0x20 ADD SWAP1 DUP2 MSTORE PUSH1 0x20 ADD PUSH1 0x0 KECCAK256 SLOAD EQ PUSH2 0x15F3 JUMPI PUSH1 0x0 PUSH1 0x2 PUSH1 0x0 DUP5 DUP2 MSTORE PUSH1 0x20 ADD SWAP1 DUP2 MSTORE PUSH1 0x20 ADD PUSH1 0x0 KECCAK256 PUSH1 0x3 ADD SLOAD PUSH1 0x64 PUSH2 0x11C2 SWAP2 SWAP1 PUSH2 0x2695 JUMP JUMPDEST PUSH1 0x4 PUSH1 0x0 PUSH1 0x6 PUSH1 0x0 SWAP1 SLOAD SWAP1 PUSH2 0x100 EXP SWAP1 DIV PUSH20 0xFFFFFFFFFFFFFFFFFFFFFFFFFFFFFFFFFFFFFFFF AND PUSH20 0xFFFFFFFFFFFFFFFFFFFFFFFFFFFFFFFFFFFFFFFF AND PUSH4 0x58B478F4 PUSH1 0x2 PUSH1 0x0 DUP10 DUP2 MSTORE PUSH1 0x20 ADD SWAP1 DUP2 MSTORE PUSH1 0x20 ADD PUSH1 0x0 KECCAK256 PUSH1 0x2 ADD DUP8 DUP2 SLOAD DUP2 LT PUSH2 0x122C JUMPI PUSH2 0x122B PUSH2 0x28E6 JUMP JUMPDEST JUMPDEST SWAP1 PUSH1 0x0 MSTORE PUSH1 0x20 PUSH1 0x0 KECCAK256 ADD SLOAD PUSH1 0x40 MLOAD DUP3 PUSH4 0xFFFFFFFF AND PUSH1 0xE0 SHL DUP2 MSTORE PUSH1 0x4 ADD PUSH2 0x1253 SWAP2 SWAP1 PUSH2 0x24A8 JUMP JUMPDEST PUSH1 0x20 PUSH1 0x40 MLOAD DUP1 DUP4 SUB DUP2 DUP7 DUP1 EXTCODESIZE ISZERO DUP1 ISZERO PUSH2 0x126B JUMPI PUSH1 0x0 DUP1 REVERT JUMPDEST POP GAS STATICCALL ISZERO DUP1 ISZERO PUSH2 0x127F JUMPI RETURNDATASIZE PUSH1 0x0 DUP1 RETURNDATACOPY RETURNDATASIZE PUSH1 0x0 REVERT JUMPDEST POP POP POP POP PUSH1 0x40 MLOAD RETURNDATASIZE PUSH1 0x1F NOT PUSH1 0x1F DUP3 ADD AND DUP3 ADD DUP1 PUSH1 0x40 MSTORE POP DUP2 ADD SWAP1 PUSH2 0x12A3 SWAP2 SWAP1 PUSH2 0x1EDB JUMP JUMPDEST PUSH20 0xFFFFFFFFFFFFFFFFFFFFFFFFFFFFFFFFFFFFFFFF AND PUSH20 0xFFFFFFFFFFFFFFFFFFFFFFFFFFFFFFFFFFFFFFFF AND DUP2 MSTORE PUSH1 0x20 ADD SWAP1 DUP2 MSTORE PUSH1 0x20 ADD PUSH1 0x0 KECCAK256 SLOAD PUSH1 0x2 PUSH1 0x0 DUP7 DUP2 MSTORE PUSH1 0x20 ADD SWAP1 DUP2 MSTORE PUSH1 0x20 ADD PUSH1 0x0 KECCAK256 PUSH1 0x5 ADD SLOAD PUSH1 0x33 PUSH2 0x1301 SWAP2 SWAP1 PUSH2 0x2695 JUMP JUMPDEST PUSH2 0x130B SWAP2 SWAP1 PUSH2 0x2695 JUMP JUMPDEST PUSH2 0x1315 SWAP2 SWAP1 PUSH2 0x2664 JUMP JUMPDEST SWAP1 POP DUP1 PUSH1 0x2 PUSH1 0x0 DUP6 DUP2 MSTORE PUSH1 0x20 ADD SWAP1 DUP2 MSTORE PUSH1 0x20 ADD PUSH1 0x0 KECCAK256 PUSH1 0x5 ADD PUSH1 0x0 DUP3 DUP3 SLOAD PUSH2 0x133D SWAP2 SWAP1 PUSH2 0x26EF JUMP JUMPDEST SWAP3 POP POP DUP2 SWAP1 SSTORE POP PUSH1 0x5 PUSH1 0x0 SWAP1 SLOAD SWAP1 PUSH2 0x100 EXP SWAP1 DIV PUSH20 0xFFFFFFFFFFFFFFFFFFFFFFFFFFFFFFFFFFFFFFFF AND PUSH20 0xFFFFFFFFFFFFFFFFFFFFFFFFFFFFFFFFFFFFFFFF AND PUSH4 0xA9059CBB PUSH1 0x6 PUSH1 0x0 SWAP1 SLOAD SWAP1 PUSH2 0x100 EXP SWAP1 DIV PUSH20 0xFFFFFFFFFFFFFFFFFFFFFFFFFFFFFFFFFFFFFFFF AND PUSH20 0xFFFFFFFFFFFFFFFFFFFFFFFFFFFFFFFFFFFFFFFF AND PUSH4 0x58B478F4 PUSH1 0x2 PUSH1 0x0 DUP9 DUP2 MSTORE PUSH1 0x20 ADD SWAP1 DUP2 MSTORE PUSH1 0x20 ADD PUSH1 0x0 KECCAK256 PUSH1 0x2 ADD DUP7 DUP2 SLOAD DUP2 LT PUSH2 0x13E8 JUMPI PUSH2 0x13E7 PUSH2 0x28E6 JUMP JUMPDEST JUMPDEST SWAP1 PUSH1 0x0 MSTORE PUSH1 0x20 PUSH1 0x0 KECCAK256 ADD SLOAD PUSH1 0x40 MLOAD DUP3 PUSH4 0xFFFFFFFF AND PUSH1 0xE0 SHL DUP2 MSTORE PUSH1 0x4 ADD PUSH2 0x140F SWAP2 SWAP1 PUSH2 0x24A8 JUMP JUMPDEST PUSH1 0x20 PUSH1 0x40 MLOAD DUP1 DUP4 SUB DUP2 DUP7 DUP1 EXTCODESIZE ISZERO DUP1 ISZERO PUSH2 0x1427 JUMPI PUSH1 0x0 DUP1 REVERT JUMPDEST POP GAS STATICCALL ISZERO DUP1 ISZERO PUSH2 0x143B JUMPI RETURNDATASIZE PUSH1 0x0 DUP1 RETURNDATACOPY RETURNDATASIZE PUSH1 0x0 REVERT JUMPDEST POP POP POP POP PUSH1 0x40 MLOAD RETURNDATASIZE PUSH1 0x1F NOT PUSH1 0x1F DUP3 ADD AND DUP3 ADD DUP1 PUSH1 0x40 MSTORE POP DUP2 ADD SWAP1 PUSH2 0x145F SWAP2 SWAP1 PUSH2 0x1EDB JUMP JUMPDEST DUP4 PUSH1 0x40 MLOAD DUP4 PUSH4 0xFFFFFFFF AND PUSH1 0xE0 SHL DUP2 MSTORE PUSH1 0x4 ADD PUSH2 0x147D SWAP3 SWAP2 SWAP1 PUSH2 0x22EE JUMP JUMPDEST PUSH1 0x20 PUSH1 0x40 MLOAD DUP1 DUP4 SUB DUP2 PUSH1 0x0 DUP8 DUP1 EXTCODESIZE ISZERO DUP1 ISZERO PUSH2 0x1497 JUMPI PUSH1 0x0 DUP1 REVERT JUMPDEST POP GAS CALL ISZERO DUP1 ISZERO PUSH2 0x14AB JUMPI RETURNDATASIZE PUSH1 0x0 DUP1 RETURNDATACOPY RETURNDATASIZE PUSH1 0x0 REVERT JUMPDEST POP POP POP POP PUSH1 0x40 MLOAD RETURNDATASIZE PUSH1 0x1F NOT PUSH1 0x1F DUP3 ADD AND DUP3 ADD DUP1 PUSH1 0x40 MSTORE POP DUP2 ADD SWAP1 PUSH2 0x14CF SWAP2 SWAP1 PUSH2 0x1F08 JUMP JUMPDEST POP PUSH1 0x0 PUSH1 0x4 PUSH1 0x0 PUSH1 0x6 PUSH1 0x0 SWAP1 SLOAD SWAP1 PUSH2 0x100 EXP SWAP1 DIV PUSH20 0xFFFFFFFFFFFFFFFFFFFFFFFFFFFFFFFFFFFFFFFF AND PUSH20 0xFFFFFFFFFFFFFFFFFFFFFFFFFFFFFFFFFFFFFFFF AND PUSH4 0x58B478F4 PUSH1 0x2 PUSH1 0x0 DUP10 DUP2 MSTORE PUSH1 0x20 ADD SWAP1 DUP2 MSTORE PUSH1 0x20 ADD PUSH1 0x0 KECCAK256 PUSH1 0x2 ADD DUP8 DUP2 SLOAD DUP2 LT PUSH2 0x153C JUMPI PUSH2 0x153B PUSH2 0x28E6 JUMP JUMPDEST JUMPDEST SWAP1 PUSH1 0x0 MSTORE PUSH1 0x20 PUSH1 0x0 KECCAK256 ADD SLOAD PUSH1 0x40 MLOAD DUP3 PUSH4 0xFFFFFFFF AND PUSH1 0xE0 SHL DUP2 MSTORE PUSH1 0x4 ADD PUSH2 0x1563 SWAP2 SWAP1 PUSH2 0x24A8 JUMP JUMPDEST PUSH1 0x20 PUSH1 0x40 MLOAD DUP1 DUP4 SUB DUP2 DUP7 DUP1 EXTCODESIZE ISZERO DUP1 ISZERO PUSH2 0x157B JUMPI PUSH1 0x0 DUP1 REVERT JUMPDEST POP GAS STATICCALL ISZERO DUP1 ISZERO PUSH2 0x158F JUMPI RETURNDATASIZE PUSH1 0x0 DUP1 RETURNDATACOPY RETURNDATASIZE PUSH1 0x0 REVERT JUMPDEST POP POP POP POP PUSH1 0x40 MLOAD RETURNDATASIZE PUSH1 0x1F NOT PUSH1 0x1F DUP3 ADD AND DUP3 ADD DUP1 PUSH1 0x40 MSTORE POP DUP2 ADD SWAP1 PUSH2 0x15B3 SWAP2 SWAP1 PUSH2 0x1EDB JUMP JUMPDEST PUSH20 0xFFFFFFFFFFFFFFFFFFFFFFFFFFFFFFFFFFFFFFFF AND PUSH20 0xFFFFFFFFFFFFFFFFFFFFFFFFFFFFFFFFFFFFFFFF AND DUP2 MSTORE PUSH1 0x20 ADD SWAP1 DUP2 MSTORE PUSH1 0x20 ADD PUSH1 0x0 KECCAK256 DUP2 SWAP1 SSTORE POP POP JUMPDEST DUP1 DUP1 PUSH2 0x15FE SWAP1 PUSH2 0x2810 JUMP JUMPDEST SWAP2 POP POP PUSH2 0x105C JUMP JUMPDEST POP PUSH1 0x0 PUSH1 0x2 PUSH1 0x0 DUP4 DUP2 MSTORE PUSH1 0x20 ADD SWAP1 DUP2 MSTORE PUSH1 0x20 ADD PUSH1 0x0 KECCAK256 PUSH1 0x6 ADD PUSH1 0x0 PUSH2 0x100 EXP DUP2 SLOAD DUP2 PUSH1 0xFF MUL NOT AND SWAP1 DUP4 ISZERO ISZERO MUL OR SWAP1 SSTORE POP POP JUMP JUMPDEST PUSH1 0x2 PUSH1 0x20 MSTORE DUP1 PUSH1 0x0 MSTORE PUSH1 0x40 PUSH1 0x0 KECCAK256 PUSH1 0x0 SWAP2 POP SWAP1 POP DUP1 PUSH1 0x0 ADD DUP1 SLOAD PUSH2 0x165C SWAP1 PUSH2 0x27AD JUMP JUMPDEST DUP1 PUSH1 0x1F ADD PUSH1 0x20 DUP1 SWAP2 DIV MUL PUSH1 0x20 ADD PUSH1 0x40 MLOAD SWAP1 DUP2 ADD PUSH1 0x40 MSTORE DUP1 SWAP3 SWAP2 SWAP1 DUP2 DUP2 MSTORE PUSH1 0x20 ADD DUP3 DUP1 SLOAD PUSH2 0x1688 SWAP1 PUSH2 0x27AD JUMP JUMPDEST DUP1 ISZERO PUSH2 0x16D5 JUMPI DUP1 PUSH1 0x1F LT PUSH2 0x16AA JUMPI PUSH2 0x100 DUP1 DUP4 SLOAD DIV MUL DUP4 MSTORE SWAP2 PUSH1 0x20 ADD SWAP2 PUSH2 0x16D5 JUMP JUMPDEST DUP3 ADD SWAP2 SWAP1 PUSH1 0x0 MSTORE PUSH1 0x20 PUSH1 0x0 KECCAK256 SWAP1 JUMPDEST DUP2 SLOAD DUP2 MSTORE SWAP1 PUSH1 0x1 ADD SWAP1 PUSH1 0x20 ADD DUP1 DUP4 GT PUSH2 0x16B8 JUMPI DUP3 SWAP1 SUB PUSH1 0x1F AND DUP3 ADD SWAP2 JUMPDEST POP POP POP POP POP SWAP1 DUP1 PUSH1 0x3 ADD SLOAD SWAP1 DUP1 PUSH1 0x5 ADD SLOAD SWAP1 DUP1 PUSH1 0x6 ADD PUSH1 0x0 SWAP1 SLOAD SWAP1 PUSH2 0x100 EXP SWAP1 DIV PUSH1 0xFF AND SWAP1 DUP1 PUSH1 0x6 ADD PUSH1 0x1 SWAP1 SLOAD SWAP1 PUSH2 0x100 EXP SWAP1 DIV PUSH20 0xFFFFFFFFFFFFFFFFFFFFFFFFFFFFFFFFFFFFFFFF AND SWAP1 DUP1 PUSH1 0x6 ADD PUSH1 0x15 SWAP1 SLOAD SWAP1 PUSH2 0x100 EXP SWAP1 DIV PUSH1 0xFF AND SWAP1 DUP1 PUSH1 0x7 ADD SLOAD SWAP1 POP DUP8 JUMP JUMPDEST PUSH2 0x1745 PUSH2 0x17C1 JUMP JUMPDEST PUSH1 0x0 PUSH20 0xFFFFFFFFFFFFFFFFFFFFFFFFFFFFFFFFFFFFFFFF AND DUP2 PUSH20 0xFFFFFFFFFFFFFFFFFFFFFFFFFFFFFFFFFFFFFFFF AND EQ ISZERO PUSH2 0x17B5 JUMPI PUSH1 0x40 MLOAD PUSH32 0x8C379A000000000000000000000000000000000000000000000000000000000 DUP2 MSTORE PUSH1 0x4 ADD PUSH2 0x17AC SWAP1 PUSH2 0x23A8 JUMP JUMPDEST PUSH1 0x40 MLOAD DUP1 SWAP2 SUB SWAP1 REVERT JUMPDEST PUSH2 0x17BE DUP2 PUSH2 0x183F JUMP JUMPDEST POP JUMP JUMPDEST PUSH2 0x17C9 PUSH2 0x1903 JUMP JUMPDEST PUSH20 0xFFFFFFFFFFFFFFFFFFFFFFFFFFFFFFFFFFFFFFFF AND PUSH2 0x17E7 PUSH2 0x52F JUMP JUMPDEST PUSH20 0xFFFFFFFFFFFFFFFFFFFFFFFFFFFFFFFFFFFFFFFF AND EQ PUSH2 0x183D JUMPI PUSH1 0x40 MLOAD PUSH32 0x8C379A000000000000000000000000000000000000000000000000000000000 DUP2 MSTORE PUSH1 0x4 ADD PUSH2 0x1834 SWAP1 PUSH2 0x2448 JUMP JUMPDEST PUSH1 0x40 MLOAD DUP1 SWAP2 SUB SWAP1 REVERT JUMPDEST JUMP JUMPDEST PUSH1 0x0 DUP1 PUSH1 0x0 SWAP1 SLOAD SWAP1 PUSH2 0x100 EXP SWAP1 DIV PUSH20 0xFFFFFFFFFFFFFFFFFFFFFFFFFFFFFFFFFFFFFFFF AND SWAP1 POP DUP2 PUSH1 0x0 DUP1 PUSH2 0x100 EXP DUP2 SLOAD DUP2 PUSH20 0xFFFFFFFFFFFFFFFFFFFFFFFFFFFFFFFFFFFFFFFF MUL NOT AND SWAP1 DUP4 PUSH20 0xFFFFFFFFFFFFFFFFFFFFFFFFFFFFFFFFFFFFFFFF AND MUL OR SWAP1 SSTORE POP DUP2 PUSH20 0xFFFFFFFFFFFFFFFFFFFFFFFFFFFFFFFFFFFFFFFF AND DUP2 PUSH20 0xFFFFFFFFFFFFFFFFFFFFFFFFFFFFFFFFFFFFFFFF AND PUSH32 0x8BE0079C531659141344CD1FD0A4F28419497F9722A3DAAFE3B4186F6B6457E0 PUSH1 0x40 MLOAD PUSH1 0x40 MLOAD DUP1 SWAP2 SUB SWAP1 LOG3 POP POP JUMP JUMPDEST PUSH1 0x0 CALLER SWAP1 POP SWAP1 JUMP JUMPDEST DUP3 DUP1 SLOAD PUSH2 0x1917 SWAP1 PUSH2 0x27AD JUMP JUMPDEST SWAP1 PUSH1 0x0 MSTORE PUSH1 0x20 PUSH1 0x0 KECCAK256 SWAP1 PUSH1 0x1F ADD PUSH1 0x20 SWAP1 DIV DUP2 ADD SWAP3 DUP3 PUSH2 0x1939 JUMPI PUSH1 0x0 DUP6 SSTORE PUSH2 0x1980 JUMP JUMPDEST DUP3 PUSH1 0x1F LT PUSH2 0x1952 JUMPI DUP1 MLOAD PUSH1 0xFF NOT AND DUP4 DUP1 ADD OR DUP6 SSTORE PUSH2 0x1980 JUMP JUMPDEST DUP3 DUP1 ADD PUSH1 0x1 ADD DUP6 SSTORE DUP3 ISZERO PUSH2 0x1980 JUMPI SWAP2 DUP3 ADD JUMPDEST DUP3 DUP2 GT ISZERO PUSH2 0x197F JUMPI DUP3 MLOAD DUP3 SSTORE SWAP2 PUSH1 0x20 ADD SWAP2 SWAP1 PUSH1 0x1 ADD SWAP1 PUSH2 0x1964 JUMP JUMPDEST JUMPDEST POP SWAP1 POP PUSH2 0x198D SWAP2 SWAP1 PUSH2 0x1A68 JUMP JUMPDEST POP SWAP1 JUMP JUMPDEST DUP3 DUP1 SLOAD DUP3 DUP3 SSTORE SWAP1 PUSH1 0x0 MSTORE PUSH1 0x20 PUSH1 0x0 KECCAK256 SWAP1 DUP2 ADD SWAP3 DUP3 ISZERO PUSH2 0x1A0A JUMPI SWAP2 PUSH1 0x20 MUL DUP3 ADD JUMPDEST DUP3 DUP2 GT ISZERO PUSH2 0x1A09 JUMPI DUP3 MLOAD DUP3 PUSH1 0x0 PUSH2 0x100 EXP DUP2 SLOAD DUP2 PUSH20 0xFFFFFFFFFFFFFFFFFFFFFFFFFFFFFFFFFFFFFFFF MUL NOT AND SWAP1 DUP4 PUSH20 0xFFFFFFFFFFFFFFFFFFFFFFFFFFFFFFFFFFFFFFFF AND MUL OR SWAP1 SSTORE POP SWAP2 PUSH1 0x20 ADD SWAP2 SWAP1 PUSH1 0x1 ADD SWAP1 PUSH2 0x19B1 JUMP JUMPDEST JUMPDEST POP SWAP1 POP PUSH2 0x1A17 SWAP2 SWAP1 PUSH2 0x1A68 JUMP JUMPDEST POP SWAP1 JUMP JUMPDEST DUP3 DUP1 SLOAD DUP3 DUP3 SSTORE SWAP1 PUSH1 0x0 MSTORE PUSH1 0x20 PUSH1 0x0 KECCAK256 SWAP1 DUP2 ADD SWAP3 DUP3 ISZERO PUSH2 0x1A57 JUMPI SWAP2 PUSH1 0x20 MUL DUP3 ADD JUMPDEST DUP3 DUP2 GT ISZERO PUSH2 0x1A56 JUMPI DUP3 MLOAD DUP3 SSTORE SWAP2 PUSH1 0x20 ADD SWAP2 SWAP1 PUSH1 0x1 ADD SWAP1 PUSH2 0x1A3B JUMP JUMPDEST JUMPDEST POP SWAP1 POP PUSH2 0x1A64 SWAP2 SWAP1 PUSH2 0x1A68 JUMP JUMPDEST POP SWAP1 JUMP JUMPDEST JUMPDEST DUP1 DUP3 GT ISZERO PUSH2 0x1A81 JUMPI PUSH1 0x0 DUP2 PUSH1 0x0 SWAP1 SSTORE POP PUSH1 0x1 ADD PUSH2 0x1A69 JUMP JUMPDEST POP SWAP1 JUMP JUMPDEST PUSH1 0x0 PUSH2 0x1A98 PUSH2 0x1A93 DUP5 PUSH2 0x2511 JUMP JUMPDEST PUSH2 0x24EC JUMP JUMPDEST SWAP1 POP DUP1 DUP4 DUP3 MSTORE PUSH1 0x20 DUP3 ADD SWAP1 POP DUP3 DUP6 PUSH1 0x20 DUP7 MUL DUP3 ADD GT ISZERO PUSH2 0x1ABB JUMPI PUSH2 0x1ABA PUSH2 0x2953 JUMP JUMPDEST JUMPDEST PUSH1 0x0 JUMPDEST DUP6 DUP2 LT ISZERO PUSH2 0x1AEB JUMPI DUP2 PUSH2 0x1AD1 DUP9 DUP3 PUSH2 0x1CC3 JUMP JUMPDEST DUP5 MSTORE PUSH1 0x20 DUP5 ADD SWAP4 POP PUSH1 0x20 DUP4 ADD SWAP3 POP POP PUSH1 0x1 DUP2 ADD SWAP1 POP PUSH2 0x1ABE JUMP JUMPDEST POP POP POP SWAP4 SWAP3 POP POP POP JUMP JUMPDEST PUSH1 0x0 PUSH2 0x1B08 PUSH2 0x1B03 DUP5 PUSH2 0x253D JUMP JUMPDEST PUSH2 0x24EC JUMP JUMPDEST SWAP1 POP DUP1 DUP4 DUP3 MSTORE PUSH1 0x20 DUP3 ADD SWAP1 POP DUP3 DUP6 PUSH1 0x20 DUP7 MUL DUP3 ADD GT ISZERO PUSH2 0x1B2B JUMPI PUSH2 0x1B2A PUSH2 0x2953 JUMP JUMPDEST JUMPDEST PUSH1 0x0 JUMPDEST DUP6 DUP2 LT ISZERO PUSH2 0x1B79 JUMPI DUP2 CALLDATALOAD PUSH8 0xFFFFFFFFFFFFFFFF DUP2 GT ISZERO PUSH2 0x1B51 JUMPI PUSH2 0x1B50 PUSH2 0x2944 JUMP JUMPDEST JUMPDEST DUP1 DUP7 ADD PUSH2 0x1B5E DUP10 DUP3 PUSH2 0x1D77 JUMP JUMPDEST DUP6 MSTORE PUSH1 0x20 DUP6 ADD SWAP5 POP PUSH1 0x20 DUP5 ADD SWAP4 POP POP POP PUSH1 0x1 DUP2 ADD SWAP1 POP PUSH2 0x1B2E JUMP JUMPDEST POP POP POP SWAP4 SWAP3 POP POP POP JUMP JUMPDEST PUSH1 0x0 PUSH2 0x1B96 PUSH2 0x1B91 DUP5 PUSH2 0x2569 JUMP JUMPDEST PUSH2 0x24EC JUMP JUMPDEST SWAP1 POP DUP1 DUP4 DUP3 MSTORE PUSH1 0x20 DUP3 ADD SWAP1 POP DUP3 DUP6 PUSH1 0x20 DUP7 MUL DUP3 ADD GT ISZERO PUSH2 0x1BB9 JUMPI PUSH2 0x1BB8 PUSH2 0x2953 JUMP JUMPDEST JUMPDEST PUSH1 0x0 JUMPDEST DUP6 DUP2 LT ISZERO PUSH2 0x1C07 JUMPI DUP2 CALLDATALOAD PUSH8 0xFFFFFFFFFFFFFFFF DUP2 GT ISZERO PUSH2 0x1BDF JUMPI PUSH2 0x1BDE PUSH2 0x2944 JUMP JUMPDEST JUMPDEST DUP1 DUP7 ADD PUSH2 0x1BEC DUP10 DUP3 PUSH2 0x1DE8 JUMP JUMPDEST DUP6 MSTORE PUSH1 0x20 DUP6 ADD SWAP5 POP PUSH1 0x20 DUP5 ADD SWAP4 POP POP POP PUSH1 0x1 DUP2 ADD SWAP1 POP PUSH2 0x1BBC JUMP JUMPDEST POP POP POP SWAP4 SWAP3 POP POP POP JUMP JUMPDEST PUSH1 0x0 PUSH2 0x1C24 PUSH2 0x1C1F DUP5 PUSH2 0x2595 JUMP JUMPDEST PUSH2 0x24EC JUMP JUMPDEST SWAP1 POP DUP1 DUP4 DUP3 MSTORE PUSH1 0x20 DUP3 ADD SWAP1 POP DUP3 DUP6 PUSH1 0x20 DUP7 MUL DUP3 ADD GT ISZERO PUSH2 0x1C47 JUMPI PUSH2 0x1C46 PUSH2 0x2953 JUMP JUMPDEST JUMPDEST PUSH1 0x0 JUMPDEST DUP6 DUP2 LT ISZERO PUSH2 0x1C77 JUMPI DUP2 PUSH2 0x1C5D DUP9 DUP3 PUSH2 0x1E84 JUMP JUMPDEST DUP5 MSTORE PUSH1 0x20 DUP5 ADD SWAP4 POP PUSH1 0x20 DUP4 ADD SWAP3 POP POP PUSH1 0x1 DUP2 ADD SWAP1 POP PUSH2 0x1C4A JUMP JUMPDEST POP POP POP SWAP4 SWAP3 POP POP POP JUMP JUMPDEST PUSH1 0x0 PUSH2 0x1C94 PUSH2 0x1C8F DUP5 PUSH2 0x25C1 JUMP JUMPDEST PUSH2 0x24EC JUMP JUMPDEST SWAP1 POP DUP3 DUP2 MSTORE PUSH1 0x20 DUP2 ADD DUP5 DUP5 DUP5 ADD GT ISZERO PUSH2 0x1CB0 JUMPI PUSH2 0x1CAF PUSH2 0x2958 JUMP JUMPDEST JUMPDEST PUSH2 0x1CBB DUP5 DUP3 DUP6 PUSH2 0x276B JUMP JUMPDEST POP SWAP4 SWAP3 POP POP POP JUMP JUMPDEST PUSH1 0x0 DUP2 CALLDATALOAD SWAP1 POP PUSH2 0x1CD2 DUP2 PUSH2 0x2B0C JUMP JUMPDEST SWAP3 SWAP2 POP POP JUMP JUMPDEST PUSH1 0x0 DUP2 MLOAD SWAP1 POP PUSH2 0x1CE7 DUP2 PUSH2 0x2B0C JUMP JUMPDEST SWAP3 SWAP2 POP POP JUMP JUMPDEST PUSH1 0x0 DUP3 PUSH1 0x1F DUP4 ADD SLT PUSH2 0x1D02 JUMPI PUSH2 0x1D01 PUSH2 0x2944 JUMP JUMPDEST JUMPDEST DUP2 CALLDATALOAD PUSH2 0x1D12 DUP5 DUP3 PUSH1 0x20 DUP7 ADD PUSH2 0x1A85 JUMP JUMPDEST SWAP2 POP POP SWAP3 SWAP2 POP POP JUMP JUMPDEST PUSH1 0x0 DUP3 PUSH1 0x1F DUP4 ADD SLT PUSH2 0x1D30 JUMPI PUSH2 0x1D2F PUSH2 0x2944 JUMP JUMPDEST JUMPDEST DUP2 CALLDATALOAD PUSH2 0x1D40 DUP5 DUP3 PUSH1 0x20 DUP7 ADD PUSH2 0x1AF5 JUMP JUMPDEST SWAP2 POP POP SWAP3 SWAP2 POP POP JUMP JUMPDEST PUSH1 0x0 DUP3 PUSH1 0x1F DUP4 ADD SLT PUSH2 0x1D5E JUMPI PUSH2 0x1D5D PUSH2 0x2944 JUMP JUMPDEST JUMPDEST DUP2 CALLDATALOAD PUSH2 0x1D6E DUP5 DUP3 PUSH1 0x20 DUP7 ADD PUSH2 0x1B83 JUMP JUMPDEST SWAP2 POP POP SWAP3 SWAP2 POP POP JUMP JUMPDEST PUSH1 0x0 DUP3 PUSH1 0x1F DUP4 ADD SLT PUSH2 0x1D8C JUMPI PUSH2 0x1D8B PUSH2 0x2944 JUMP JUMPDEST JUMPDEST DUP2 CALLDATALOAD PUSH2 0x1D9C DUP5 DUP3 PUSH1 0x20 DUP7 ADD PUSH2 0x1C11 JUMP JUMPDEST SWAP2 POP POP SWAP3 SWAP2 POP POP JUMP JUMPDEST PUSH1 0x0 DUP2 MLOAD SWAP1 POP PUSH2 0x1DB4 DUP2 PUSH2 0x2B23 JUMP JUMPDEST SWAP3 SWAP2 POP POP JUMP JUMPDEST PUSH1 0x0 DUP3 PUSH1 0x1F DUP4 ADD SLT PUSH2 0x1DCF JUMPI PUSH2 0x1DCE PUSH2 0x2944 JUMP JUMPDEST JUMPDEST DUP2 CALLDATALOAD PUSH2 0x1DDF DUP5 DUP3 PUSH1 0x20 DUP7 ADD PUSH2 0x1C81 JUMP JUMPDEST SWAP2 POP POP SWAP3 SWAP2 POP POP JUMP JUMPDEST PUSH1 0x0 PUSH1 0x60 DUP3 DUP5 SUB SLT ISZERO PUSH2 0x1DFE JUMPI PUSH2 0x1DFD PUSH2 0x2949 JUMP JUMPDEST JUMPDEST PUSH2 0x1E08 PUSH1 0x60 PUSH2 0x24EC JUMP JUMPDEST SWAP1 POP PUSH1 0x0 PUSH2 0x1E18 DUP5 DUP3 DUP6 ADD PUSH2 0x1E84 JUMP JUMPDEST PUSH1 0x0 DUP4 ADD MSTORE POP PUSH1 0x20 DUP3 ADD CALLDATALOAD PUSH8 0xFFFFFFFFFFFFFFFF DUP2 GT ISZERO PUSH2 0x1E3C JUMPI PUSH2 0x1E3B PUSH2 0x294E JUMP JUMPDEST JUMPDEST PUSH2 0x1E48 DUP5 DUP3 DUP6 ADD PUSH2 0x1DBA JUMP JUMPDEST PUSH1 0x20 DUP4 ADD MSTORE POP PUSH1 0x40 DUP3 ADD CALLDATALOAD PUSH8 0xFFFFFFFFFFFFFFFF DUP2 GT ISZERO PUSH2 0x1E6C JUMPI PUSH2 0x1E6B PUSH2 0x294E JUMP JUMPDEST JUMPDEST PUSH2 0x1E78 DUP5 DUP3 DUP6 ADD PUSH2 0x1CED JUMP JUMPDEST PUSH1 0x40 DUP4 ADD MSTORE POP SWAP3 SWAP2 POP POP JUMP JUMPDEST PUSH1 0x0 DUP2 CALLDATALOAD SWAP1 POP PUSH2 0x1E93 DUP2 PUSH2 0x2B3A JUMP JUMPDEST SWAP3 SWAP2 POP POP JUMP JUMPDEST PUSH1 0x0 DUP2 MLOAD SWAP1 POP PUSH2 0x1EA8 DUP2 PUSH2 0x2B3A JUMP JUMPDEST SWAP3 SWAP2 POP POP JUMP JUMPDEST PUSH1 0x0 PUSH1 0x20 DUP3 DUP5 SUB SLT ISZERO PUSH2 0x1EC4 JUMPI PUSH2 0x1EC3 PUSH2 0x2962 JUMP JUMPDEST JUMPDEST PUSH1 0x0 PUSH2 0x1ED2 DUP5 DUP3 DUP6 ADD PUSH2 0x1CC3 JUMP JUMPDEST SWAP2 POP POP SWAP3 SWAP2 POP POP JUMP JUMPDEST PUSH1 0x0 PUSH1 0x20 DUP3 DUP5 SUB SLT ISZERO PUSH2 0x1EF1 JUMPI PUSH2 0x1EF0 PUSH2 0x2962 JUMP JUMPDEST JUMPDEST PUSH1 0x0 PUSH2 0x1EFF DUP5 DUP3 DUP6 ADD PUSH2 0x1CD8 JUMP JUMPDEST SWAP2 POP POP SWAP3 SWAP2 POP POP JUMP JUMPDEST PUSH1 0x0 PUSH1 0x20 DUP3 DUP5 SUB SLT ISZERO PUSH2 0x1F1E JUMPI PUSH2 0x1F1D PUSH2 0x2962 JUMP JUMPDEST JUMPDEST PUSH1 0x0 PUSH2 0x1F2C DUP5 DUP3 DUP6 ADD PUSH2 0x1DA5 JUMP JUMPDEST SWAP2 POP POP SWAP3 SWAP2 POP POP JUMP JUMPDEST PUSH1 0x0 DUP1 PUSH1 0x0 DUP1 PUSH1 0x0 DUP1 PUSH1 0x0 DUP1 PUSH2 0x100 DUP10 DUP12 SUB SLT ISZERO PUSH2 0x1F56 JUMPI PUSH2 0x1F55 PUSH2 0x2962 JUMP JUMPDEST JUMPDEST PUSH1 0x0 DUP10 ADD CALLDATALOAD PUSH8 0xFFFFFFFFFFFFFFFF DUP2 GT ISZERO PUSH2 0x1F74 JUMPI PUSH2 0x1F73 PUSH2 0x295D JUMP JUMPDEST JUMPDEST PUSH2 0x1F80 DUP12 DUP3 DUP13 ADD PUSH2 0x1DBA JUMP JUMPDEST SWAP9 POP POP PUSH1 0x20 DUP10 ADD CALLDATALOAD PUSH8 0xFFFFFFFFFFFFFFFF DUP2 GT ISZERO PUSH2 0x1FA1 JUMPI PUSH2 0x1FA0 PUSH2 0x295D JUMP JUMPDEST JUMPDEST PUSH2 0x1FAD DUP12 DUP3 DUP13 ADD PUSH2 0x1D77 JUMP JUMPDEST SWAP8 POP POP PUSH1 0x40 DUP10 ADD CALLDATALOAD PUSH8 0xFFFFFFFFFFFFFFFF DUP2 GT ISZERO PUSH2 0x1FCE JUMPI PUSH2 0x1FCD PUSH2 0x295D JUMP JUMPDEST JUMPDEST PUSH2 0x1FDA DUP12 DUP3 DUP13 ADD PUSH2 0x1D1B JUMP JUMPDEST SWAP7 POP POP PUSH1 0x60 DUP10 ADD CALLDATALOAD PUSH8 0xFFFFFFFFFFFFFFFF DUP2 GT ISZERO PUSH2 0x1FFB JUMPI PUSH2 0x1FFA PUSH2 0x295D JUMP JUMPDEST JUMPDEST PUSH2 0x2007 DUP12 DUP3 DUP13 ADD PUSH2 0x1D49 JUMP JUMPDEST SWAP6 POP POP PUSH1 0x80 PUSH2 0x2018 DUP12 DUP3 DUP13 ADD PUSH2 0x1E84 JUMP JUMPDEST SWAP5 POP POP PUSH1 0xA0 PUSH2 0x2029 DUP12 DUP3 DUP13 ADD PUSH2 0x1E84 JUMP JUMPDEST SWAP4 POP POP PUSH1 0xC0 PUSH2 0x203A DUP12 DUP3 DUP13 ADD PUSH2 0x1E84 JUMP JUMPDEST SWAP3 POP POP PUSH1 0xE0 PUSH2 0x204B DUP12 DUP3 DUP13 ADD PUSH2 0x1CC3 JUMP JUMPDEST SWAP2 POP POP SWAP3 SWAP6 SWAP9 POP SWAP3 SWAP6 SWAP9 SWAP1 SWAP4 SWAP7 POP JUMP JUMPDEST PUSH1 0x0 PUSH1 0x20 DUP3 DUP5 SUB SLT ISZERO PUSH2 0x2071 JUMPI PUSH2 0x2070 PUSH2 0x2962 JUMP JUMPDEST JUMPDEST PUSH1 0x0 PUSH2 0x207F DUP5 DUP3 DUP6 ADD PUSH2 0x1E84 JUMP JUMPDEST SWAP2 POP POP SWAP3 SWAP2 POP POP JUMP JUMPDEST PUSH1 0x0 PUSH1 0x20 DUP3 DUP5 SUB SLT ISZERO PUSH2 0x209E JUMPI PUSH2 0x209D PUSH2 0x2962 JUMP JUMPDEST JUMPDEST PUSH1 0x0 PUSH2 0x20AC DUP5 DUP3 DUP6 ADD PUSH2 0x1E99 JUMP JUMPDEST SWAP2 POP POP SWAP3 SWAP2 POP POP JUMP JUMPDEST PUSH1 0x0 DUP1 PUSH1 0x40 DUP4 DUP6 SUB SLT ISZERO PUSH2 0x20CC JUMPI PUSH2 0x20CB PUSH2 0x2962 JUMP JUMPDEST JUMPDEST PUSH1 0x0 PUSH2 0x20DA DUP6 DUP3 DUP7 ADD PUSH2 0x1E84 JUMP JUMPDEST SWAP3 POP POP PUSH1 0x20 PUSH2 0x20EB DUP6 DUP3 DUP7 ADD PUSH2 0x1E84 JUMP JUMPDEST SWAP2 POP POP SWAP3 POP SWAP3 SWAP1 POP JUMP JUMPDEST PUSH2 0x20FE DUP2 PUSH2 0x2723 JUMP JUMPDEST DUP3 MSTORE POP POP JUMP JUMPDEST PUSH2 0x210D DUP2 PUSH2 0x2735 JUMP JUMPDEST DUP3 MSTORE POP POP JUMP JUMPDEST PUSH1 0x0 PUSH2 0x211E DUP3 PUSH2 0x25F2 JUMP JUMPDEST PUSH2 0x2128 DUP2 DUP6 PUSH2 0x25FD JUMP JUMPDEST SWAP4 POP PUSH2 0x2138 DUP2 DUP6 PUSH1 0x20 DUP7 ADD PUSH2 0x277A JUMP JUMPDEST PUSH2 0x2141 DUP2 PUSH2 0x2967 JUMP JUMPDEST DUP5 ADD SWAP2 POP POP SWAP3 SWAP2 POP POP JUMP JUMPDEST PUSH1 0x0 PUSH2 0x2159 PUSH1 0x26 DUP4 PUSH2 0x25FD JUMP JUMPDEST SWAP2 POP PUSH2 0x2164 DUP3 PUSH2 0x2978 JUMP JUMPDEST PUSH1 0x40 DUP3 ADD SWAP1 POP SWAP2 SWAP1 POP JUMP JUMPDEST PUSH1 0x0 PUSH2 0x217C PUSH1 0x12 DUP4 PUSH2 0x25FD JUMP JUMPDEST SWAP2 POP PUSH2 0x2187 DUP3 PUSH2 0x29C7 JUMP JUMPDEST PUSH1 0x20 DUP3 ADD SWAP1 POP SWAP2 SWAP1 POP JUMP JUMPDEST PUSH1 0x0 PUSH2 0x219F PUSH1 0x12 DUP4 PUSH2 0x25FD JUMP JUMPDEST SWAP2 POP PUSH2 0x21AA DUP3 PUSH2 0x29F0 JUMP JUMPDEST PUSH1 0x20 DUP3 ADD SWAP1 POP SWAP2 SWAP1 POP JUMP JUMPDEST PUSH1 0x0 PUSH2 0x21C2 PUSH1 0x13 DUP4 PUSH2 0x25FD JUMP JUMPDEST SWAP2 POP PUSH2 0x21CD DUP3 PUSH2 0x2A19 JUMP JUMPDEST PUSH1 0x20 DUP3 ADD SWAP1 POP SWAP2 SWAP1 POP JUMP JUMPDEST PUSH1 0x0 PUSH2 0x21E5 PUSH1 0x21 DUP4 PUSH2 0x25FD JUMP JUMPDEST SWAP2 POP PUSH2 0x21F0 DUP3 PUSH2 0x2A42 JUMP JUMPDEST PUSH1 0x40 DUP3 ADD SWAP1 POP SWAP2 SWAP1 POP JUMP JUMPDEST PUSH1 0x0 PUSH2 0x2208 PUSH1 0x20 DUP4 PUSH2 0x25FD JUMP JUMPDEST SWAP2 POP PUSH2 0x2213 DUP3 PUSH2 0x2A91 JUMP JUMPDEST PUSH1 0x20 DUP3 ADD SWAP1 POP SWAP2 SWAP1 POP JUMP JUMPDEST PUSH1 0x0 PUSH2 0x222B PUSH1 0x16 DUP4 PUSH2 0x25FD JUMP JUMPDEST SWAP2 POP PUSH2 0x2236 DUP3 PUSH2 0x2ABA JUMP JUMPDEST PUSH1 0x20 DUP3 ADD SWAP1 POP SWAP2 SWAP1 POP JUMP JUMPDEST PUSH1 0x0 PUSH2 0x224E PUSH1 0x13 DUP4 PUSH2 0x25FD JUMP JUMPDEST SWAP2 POP PUSH2 0x2259 DUP3 PUSH2 0x2AE3 JUMP JUMPDEST PUSH1 0x20 DUP3 ADD SWAP1 POP SWAP2 SWAP1 POP JUMP JUMPDEST PUSH2 0x226D DUP2 PUSH2 0x2761 JUMP JUMPDEST DUP3 MSTORE POP POP JUMP JUMPDEST PUSH1 0x0 PUSH1 0x20 DUP3 ADD SWAP1 POP PUSH2 0x2288 PUSH1 0x0 DUP4 ADD DUP5 PUSH2 0x20F5 JUMP JUMPDEST SWAP3 SWAP2 POP POP JUMP JUMPDEST PUSH1 0x0 PUSH1 0x40 DUP3 ADD SWAP1 POP PUSH2 0x22A3 PUSH1 0x0 DUP4 ADD DUP6 PUSH2 0x20F5 JUMP JUMPDEST PUSH2 0x22B0 PUSH1 0x20 DUP4 ADD DUP5 PUSH2 0x20F5 JUMP JUMPDEST SWAP4 SWAP3 POP POP POP JUMP JUMPDEST PUSH1 0x0 PUSH1 0x60 DUP3 ADD SWAP1 POP PUSH2 0x22CC PUSH1 0x0 DUP4 ADD DUP7 PUSH2 0x20F5 JUMP JUMPDEST PUSH2 0x22D9 PUSH1 0x20 DUP4 ADD DUP6 PUSH2 0x20F5 JUMP JUMPDEST PUSH2 0x22E6 PUSH1 0x40 DUP4 ADD DUP5 PUSH2 0x2264 JUMP JUMPDEST SWAP5 SWAP4 POP POP POP POP JUMP JUMPDEST PUSH1 0x0 PUSH1 0x40 DUP3 ADD SWAP1 POP PUSH2 0x2303 PUSH1 0x0 DUP4 ADD DUP6 PUSH2 0x20F5 JUMP JUMPDEST PUSH2 0x2310 PUSH1 0x20 DUP4 ADD DUP5 PUSH2 0x2264 JUMP JUMPDEST SWAP4 SWAP3 POP POP POP JUMP JUMPDEST PUSH1 0x0 PUSH1 0x20 DUP3 ADD SWAP1 POP PUSH2 0x232C PUSH1 0x0 DUP4 ADD DUP5 PUSH2 0x2104 JUMP JUMPDEST SWAP3 SWAP2 POP POP JUMP JUMPDEST PUSH1 0x0 PUSH1 0xE0 DUP3 ADD SWAP1 POP DUP2 DUP2 SUB PUSH1 0x0 DUP4 ADD MSTORE PUSH2 0x234C DUP2 DUP11 PUSH2 0x2113 JUMP JUMPDEST SWAP1 POP PUSH2 0x235B PUSH1 0x20 DUP4 ADD DUP10 PUSH2 0x2264 JUMP JUMPDEST PUSH2 0x2368 PUSH1 0x40 DUP4 ADD DUP9 PUSH2 0x2264 JUMP JUMPDEST PUSH2 0x2375 PUSH1 0x60 DUP4 ADD DUP8 PUSH2 0x2104 JUMP JUMPDEST PUSH2 0x2382 PUSH1 0x80 DUP4 ADD DUP7 PUSH2 0x20F5 JUMP JUMPDEST PUSH2 0x238F PUSH1 0xA0 DUP4 ADD DUP6 PUSH2 0x2104 JUMP JUMPDEST PUSH2 0x239C PUSH1 0xC0 DUP4 ADD DUP5 PUSH2 0x2264 JUMP JUMPDEST SWAP9 SWAP8 POP POP POP POP POP POP POP POP JUMP JUMPDEST PUSH1 0x0 PUSH1 0x20 DUP3 ADD SWAP1 POP DUP2 DUP2 SUB PUSH1 0x0 DUP4 ADD MSTORE PUSH2 0x23C1 DUP2 PUSH2 0x214C JUMP JUMPDEST SWAP1 POP SWAP2 SWAP1 POP JUMP JUMPDEST PUSH1 0x0 PUSH1 0x20 DUP3 ADD SWAP1 POP DUP2 DUP2 SUB PUSH1 0x0 DUP4 ADD MSTORE PUSH2 0x23E1 DUP2 PUSH2 0x216F JUMP JUMPDEST SWAP1 POP SWAP2 SWAP1 POP JUMP JUMPDEST PUSH1 0x0 PUSH1 0x20 DUP3 ADD SWAP1 POP DUP2 DUP2 SUB PUSH1 0x0 DUP4 ADD MSTORE PUSH2 0x2401 DUP2 PUSH2 0x2192 JUMP JUMPDEST SWAP1 POP SWAP2 SWAP1 POP JUMP JUMPDEST PUSH1 0x0 PUSH1 0x20 DUP3 ADD SWAP1 POP DUP2 DUP2 SUB PUSH1 0x0 DUP4 ADD MSTORE PUSH2 0x2421 DUP2 PUSH2 0x21B5 JUMP JUMPDEST SWAP1 POP SWAP2 SWAP1 POP JUMP JUMPDEST PUSH1 0x0 PUSH1 0x20 DUP3 ADD SWAP1 POP DUP2 DUP2 SUB PUSH1 0x0 DUP4 ADD MSTORE PUSH2 0x2441 DUP2 PUSH2 0x21D8 JUMP JUMPDEST SWAP1 POP SWAP2 SWAP1 POP JUMP JUMPDEST PUSH1 0x0 PUSH1 0x20 DUP3 ADD SWAP1 POP DUP2 DUP2 SUB PUSH1 0x0 DUP4 ADD MSTORE PUSH2 0x2461 DUP2 PUSH2 0x21FB JUMP JUMPDEST SWAP1 POP SWAP2 SWAP1 POP JUMP JUMPDEST PUSH1 0x0 PUSH1 0x20 DUP3 ADD SWAP1 POP DUP2 DUP2 SUB PUSH1 0x0 DUP4 ADD MSTORE PUSH2 0x2481 DUP2 PUSH2 0x221E JUMP JUMPDEST SWAP1 POP SWAP2 SWAP1 POP JUMP JUMPDEST PUSH1 0x0 PUSH1 0x20 DUP3 ADD SWAP1 POP DUP2 DUP2 SUB PUSH1 0x0 DUP4 ADD MSTORE PUSH2 0x24A1 DUP2 PUSH2 0x2241 JUMP JUMPDEST SWAP1 POP SWAP2 SWAP1 POP JUMP JUMPDEST PUSH1 0x0 PUSH1 0x20 DUP3 ADD SWAP1 POP PUSH2 0x24BD PUSH1 0x0 DUP4 ADD DUP5 PUSH2 0x2264 JUMP JUMPDEST SWAP3 SWAP2 POP POP JUMP JUMPDEST PUSH1 0x0 PUSH1 0x40 DUP3 ADD SWAP1 POP PUSH2 0x24D8 PUSH1 0x0 DUP4 ADD DUP6 PUSH2 0x2264 JUMP JUMPDEST PUSH2 0x24E5 PUSH1 0x20 DUP4 ADD DUP5 PUSH2 0x2264 JUMP JUMPDEST SWAP4 SWAP3 POP POP POP JUMP JUMPDEST PUSH1 0x0 PUSH2 0x24F6 PUSH2 0x2507 JUMP JUMPDEST SWAP1 POP PUSH2 0x2502 DUP3 DUP3 PUSH2 0x27DF JUMP JUMPDEST SWAP2 SWAP1 POP JUMP JUMPDEST PUSH1 0x0 PUSH1 0x40 MLOAD SWAP1 POP SWAP1 JUMP JUMPDEST PUSH1 0x0 PUSH8 0xFFFFFFFFFFFFFFFF DUP3 GT ISZERO PUSH2 0x252C JUMPI PUSH2 0x252B PUSH2 0x2915 JUMP JUMPDEST JUMPDEST PUSH1 0x20 DUP3 MUL SWAP1 POP PUSH1 0x20 DUP2 ADD SWAP1 POP SWAP2 SWAP1 POP JUMP JUMPDEST PUSH1 0x0 PUSH8 0xFFFFFFFFFFFFFFFF DUP3 GT ISZERO PUSH2 0x2558 JUMPI PUSH2 0x2557 PUSH2 0x2915 JUMP JUMPDEST JUMPDEST PUSH1 0x20 DUP3 MUL SWAP1 POP PUSH1 0x20 DUP2 ADD SWAP1 POP SWAP2 SWAP1 POP JUMP JUMPDEST PUSH1 0x0 PUSH8 0xFFFFFFFFFFFFFFFF DUP3 GT ISZERO PUSH2 0x2584 JUMPI PUSH2 0x2583 PUSH2 0x2915 JUMP JUMPDEST JUMPDEST PUSH1 0x20 DUP3 MUL SWAP1 POP PUSH1 0x20 DUP2 ADD SWAP1 POP SWAP2 SWAP1 POP JUMP JUMPDEST PUSH1 0x0 PUSH8 0xFFFFFFFFFFFFFFFF DUP3 GT ISZERO PUSH2 0x25B0 JUMPI PUSH2 0x25AF PUSH2 0x2915 JUMP JUMPDEST JUMPDEST PUSH1 0x20 DUP3 MUL SWAP1 POP PUSH1 0x20 DUP2 ADD SWAP1 POP SWAP2 SWAP1 POP JUMP JUMPDEST PUSH1 0x0 PUSH8 0xFFFFFFFFFFFFFFFF DUP3 GT ISZERO PUSH2 0x25DC JUMPI PUSH2 0x25DB PUSH2 0x2915 JUMP JUMPDEST JUMPDEST PUSH2 0x25E5 DUP3 PUSH2 0x2967 JUMP JUMPDEST SWAP1 POP PUSH1 0x20 DUP2 ADD SWAP1 POP SWAP2 SWAP1 POP JUMP JUMPDEST PUSH1 0x0 DUP2 MLOAD SWAP1 POP SWAP2 SWAP1 POP JUMP JUMPDEST PUSH1 0x0 DUP3 DUP3 MSTORE PUSH1 0x20 DUP3 ADD SWAP1 POP SWAP3 SWAP2 POP POP JUMP JUMPDEST PUSH1 0x0 PUSH2 0x2619 DUP3 PUSH2 0x2761 JUMP JUMPDEST SWAP2 POP PUSH2 0x2624 DUP4 PUSH2 0x2761 JUMP JUMPDEST SWAP3 POP DUP3 PUSH32 0xFFFFFFFFFFFFFFFFFFFFFFFFFFFFFFFFFFFFFFFFFFFFFFFFFFFFFFFFFFFFFFFF SUB DUP3 GT ISZERO PUSH2 0x2659 JUMPI PUSH2 0x2658 PUSH2 0x2859 JUMP JUMPDEST JUMPDEST DUP3 DUP3 ADD SWAP1 POP SWAP3 SWAP2 POP POP JUMP JUMPDEST PUSH1 0x0 PUSH2 0x266F DUP3 PUSH2 0x2761 JUMP JUMPDEST SWAP2 POP PUSH2 0x267A DUP4 PUSH2 0x2761 JUMP JUMPDEST SWAP3 POP DUP3 PUSH2 0x268A JUMPI PUSH2 0x2689 PUSH2 0x2888 JUMP JUMPDEST JUMPDEST DUP3 DUP3 DIV SWAP1 POP SWAP3 SWAP2 POP POP JUMP JUMPDEST PUSH1 0x0 PUSH2 0x26A0 DUP3 PUSH2 0x2761 JUMP JUMPDEST SWAP2 POP PUSH2 0x26AB DUP4 PUSH2 0x2761 JUMP JUMPDEST SWAP3 POP DUP2 PUSH32 0xFFFFFFFFFFFFFFFFFFFFFFFFFFFFFFFFFFFFFFFFFFFFFFFFFFFFFFFFFFFFFFFF DIV DUP4 GT DUP3 ISZERO ISZERO AND ISZERO PUSH2 0x26E4 JUMPI PUSH2 0x26E3 PUSH2 0x2859 JUMP JUMPDEST JUMPDEST DUP3 DUP3 MUL SWAP1 POP SWAP3 SWAP2 POP POP JUMP JUMPDEST PUSH1 0x0 PUSH2 0x26FA DUP3 PUSH2 0x2761 JUMP JUMPDEST SWAP2 POP PUSH2 0x2705 DUP4 PUSH2 0x2761 JUMP JUMPDEST SWAP3 POP DUP3 DUP3 LT ISZERO PUSH2 0x2718 JUMPI PUSH2 0x2717 PUSH2 0x2859 JUMP JUMPDEST JUMPDEST DUP3 DUP3 SUB SWAP1 POP SWAP3 SWAP2 POP POP JUMP JUMPDEST PUSH1 0x0 PUSH2 0x272E DUP3 PUSH2 0x2741 JUMP JUMPDEST SWAP1 POP SWAP2 SWAP1 POP JUMP JUMPDEST PUSH1 0x0 DUP2 ISZERO ISZERO SWAP1 POP SWAP2 SWAP1 POP JUMP JUMPDEST PUSH1 0x0 PUSH20 0xFFFFFFFFFFFFFFFFFFFFFFFFFFFFFFFFFFFFFFFF DUP3 AND SWAP1 POP SWAP2 SWAP1 POP JUMP JUMPDEST PUSH1 0x0 DUP2 SWAP1 POP SWAP2 SWAP1 POP JUMP JUMPDEST DUP3 DUP2 DUP4 CALLDATACOPY PUSH1 0x0 DUP4 DUP4 ADD MSTORE POP POP POP JUMP JUMPDEST PUSH1 0x0 JUMPDEST DUP4 DUP2 LT ISZERO PUSH2 0x2798 JUMPI DUP1 DUP3 ADD MLOAD DUP2 DUP5 ADD MSTORE PUSH1 0x20 DUP2 ADD SWAP1 POP PUSH2 0x277D JUMP JUMPDEST DUP4 DUP2 GT ISZERO PUSH2 0x27A7 JUMPI PUSH1 0x0 DUP5 DUP5 ADD MSTORE JUMPDEST POP POP POP POP JUMP JUMPDEST PUSH1 0x0 PUSH1 0x2 DUP3 DIV SWAP1 POP PUSH1 0x1 DUP3 AND DUP1 PUSH2 0x27C5 JUMPI PUSH1 0x7F DUP3 AND SWAP2 POP JUMPDEST PUSH1 0x20 DUP3 LT DUP2 EQ ISZERO PUSH2 0x27D9 JUMPI PUSH2 0x27D8 PUSH2 0x28B7 JUMP JUMPDEST JUMPDEST POP SWAP2 SWAP1 POP JUMP JUMPDEST PUSH2 0x27E8 DUP3 PUSH2 0x2967 JUMP JUMPDEST DUP2 ADD DUP2 DUP2 LT PUSH8 0xFFFFFFFFFFFFFFFF DUP3 GT OR ISZERO PUSH2 0x2807 JUMPI PUSH2 0x2806 PUSH2 0x2915 JUMP JUMPDEST JUMPDEST DUP1 PUSH1 0x40 MSTORE POP POP POP JUMP JUMPDEST PUSH1 0x0 PUSH2 0x281B DUP3 PUSH2 0x2761 JUMP JUMPDEST SWAP2 POP PUSH32 0xFFFFFFFFFFFFFFFFFFFFFFFFFFFFFFFFFFFFFFFFFFFFFFFFFFFFFFFFFFFFFFFF DUP3 EQ ISZERO PUSH2 0x284E JUMPI PUSH2 0x284D PUSH2 0x2859 JUMP JUMPDEST JUMPDEST PUSH1 0x1 DUP3 ADD SWAP1 POP SWAP2 SWAP1 POP JUMP JUMPDEST PUSH32 0x4E487B7100000000000000000000000000000000000000000000000000000000 PUSH1 0x0 MSTORE PUSH1 0x11 PUSH1 0x4 MSTORE PUSH1 0x24 PUSH1 0x0 REVERT JUMPDEST PUSH32 0x4E487B7100000000000000000000000000000000000000000000000000000000 PUSH1 0x0 MSTORE PUSH1 0x12 PUSH1 0x4 MSTORE PUSH1 0x24 PUSH1 0x0 REVERT JUMPDEST PUSH32 0x4E487B7100000000000000000000000000000000000000000000000000000000 PUSH1 0x0 MSTORE PUSH1 0x22 PUSH1 0x4 MSTORE PUSH1 0x24 PUSH1 0x0 REVERT JUMPDEST PUSH32 0x4E487B7100000000000000000000000000000000000000000000000000000000 PUSH1 0x0 MSTORE PUSH1 0x32 PUSH1 0x4 MSTORE PUSH1 0x24 PUSH1 0x0 REVERT JUMPDEST PUSH32 0x4E487B7100000000000000000000000000000000000000000000000000000000 PUSH1 0x0 MSTORE PUSH1 0x41 PUSH1 0x4 MSTORE PUSH1 0x24 PUSH1 0x0 REVERT JUMPDEST PUSH1 0x0 DUP1 REVERT JUMPDEST PUSH1 0x0 DUP1 REVERT JUMPDEST PUSH1 0x0 DUP1 REVERT JUMPDEST PUSH1 0x0 DUP1 REVERT JUMPDEST PUSH1 0x0 DUP1 REVERT JUMPDEST PUSH1 0x0 DUP1 REVERT JUMPDEST PUSH1 0x0 DUP1 REVERT JUMPDEST PUSH1 0x0 PUSH1 0x1F NOT PUSH1 0x1F DUP4 ADD AND SWAP1 POP SWAP2 SWAP1 POP JUMP JUMPDEST PUSH32 0x4F776E61626C653A206E6577206F776E657220697320746865207A65726F2061 PUSH1 0x0 DUP3 ADD MSTORE PUSH32 0x6464726573730000000000000000000000000000000000000000000000000000 PUSH1 0x20 DUP3 ADD MSTORE POP JUMP JUMPDEST PUSH32 0x4A6F6220416C726561647920436C6F7365640000000000000000000000000000 PUSH1 0x0 DUP3 ADD MSTORE POP JUMP JUMPDEST PUSH32 0x416C6C6F77616E6365457863657074696F6E0000000000000000000000000000 PUSH1 0x0 DUP3 ADD MSTORE POP JUMP JUMPDEST PUSH32 0x4A6F62206973206E6F74206F70656E2079657400000000000000000000000000 PUSH1 0x0 DUP3 ADD MSTORE POP JUMP JUMPDEST PUSH32 0x4A6F62206E6F7420616363657074696E67206D6F7265206170706C6963616E74 PUSH1 0x0 DUP3 ADD MSTORE PUSH32 0x7300000000000000000000000000000000000000000000000000000000000000 PUSH1 0x20 DUP3 ADD MSTORE POP JUMP JUMPDEST PUSH32 0x4F776E61626C653A2063616C6C6572206973206E6F7420746865206F776E6572 PUSH1 0x0 DUP3 ADD MSTORE POP JUMP JUMPDEST PUSH32 0x496E76616C6964416D6F756E74457863657074696F6E00000000000000000000 PUSH1 0x0 DUP3 ADD MSTORE POP JUMP JUMPDEST PUSH32 0x556E617574686F72697A656420436C6F73657200000000000000000000000000 PUSH1 0x0 DUP3 ADD MSTORE POP JUMP JUMPDEST PUSH2 0x2B15 DUP2 PUSH2 0x2723 JUMP JUMPDEST DUP2 EQ PUSH2 0x2B20 JUMPI PUSH1 0x0 DUP1 REVERT JUMPDEST POP JUMP JUMPDEST PUSH2 0x2B2C DUP2 PUSH2 0x2735 JUMP JUMPDEST DUP2 EQ PUSH2 0x2B37 JUMPI PUSH1 0x0 DUP1 REVERT JUMPDEST POP JUMP JUMPDEST PUSH2 0x2B43 DUP2 PUSH2 0x2761 JUMP JUMPDEST DUP2 EQ PUSH2 0x2B4E JUMPI PUSH1 0x0 DUP1 REVERT JUMPDEST POP JUMP INVALID LOG2 PUSH5 0x6970667358 0x22 SLT KECCAK256 0xFB REVERT 0xC1 0x22 0xF9 0xD9 0x28 0xAF BASEFEE 0x5C 0xDF LOG2 NOT 0xA8 SWAP6 CREATE2 0xE8 ORIGIN 0xE6 0xDE 0x5E DUP4 0x28 LOG2 0x4C SLOAD PUSH1 0x60 EXTCODESIZE 0x4F 0xE7 SELFDESTRUCT PUSH5 0x736F6C6343 STOP ADDMOD SMOD STOP CALLER "
				},
				"gasEstimates": {
					"creation": {
						"codeDepositCost": "2228600",
						"executionCost": "infinite",
						"totalCost": "infinite"
					},
					"external": {
						"all_jobs(uint256)": "infinite",
						"apply_job(uint256)": "infinite",
						"claim_royalties_skill_creator()": "infinite",
						"close_job(uint256)": "infinite",
						"createJob(string,uint256[],uint256[][],(uint256,string,address[])[],uint256,uint256,uint256,address)": "infinite",
						"owner()": "2567",
						"renounceOwnership()": "30421",
						"stake_jou_job(uint256,uint256)": "infinite",
						"transferOwnership(address)": "30835"
					}
				},
				"methodIdentifiers": {
					"all_jobs(uint256)": "effbb95d",
					"apply_job(uint256)": "b5ec25ae",
					"claim_royalties_skill_creator()": "af812ebf",
					"close_job(uint256)": "e6d46c8d",
					"createJob(string,uint256[],uint256[][],(uint256,string,address[])[],uint256,uint256,uint256,address)": "62063e87",
					"owner()": "8da5cb5b",
					"renounceOwnership()": "715018a6",
					"stake_jou_job(uint256,uint256)": "cd3c6e56",
					"transferOwnership(address)": "f2fde38b"
				}
			},
			"storageLayout": {
				"storage": [
					{
						"astId": 7,
						"contract": "contracts/Journal3Jobs.sol:Journal3Jobs",
						"label": "_owner",
						"offset": 0,
						"slot": "0",
						"type": "t_address"
					},
					{
						"astId": 411,
						"contract": "contracts/Journal3Jobs.sol:Journal3Jobs",
						"label": "job_cnt",
						"offset": 0,
						"slot": "1",
						"type": "t_uint256"
					},
					{
						"astId": 416,
						"contract": "contracts/Journal3Jobs.sol:Journal3Jobs",
						"label": "all_jobs",
						"offset": 0,
						"slot": "2",
						"type": "t_mapping(t_uint256,t_struct(Job)407_storage)"
					},
					{
						"astId": 420,
						"contract": "contracts/Journal3Jobs.sol:Journal3Jobs",
						"label": "skill_creator_rewards",
						"offset": 0,
						"slot": "3",
						"type": "t_mapping(t_address,t_uint256)"
					},
					{
						"astId": 424,
						"contract": "contracts/Journal3Jobs.sol:Journal3Jobs",
						"label": "oracle_reward_returns",
						"offset": 0,
						"slot": "4",
						"type": "t_mapping(t_address,t_uint256)"
					},
					{
						"astId": 433,
						"contract": "contracts/Journal3Jobs.sol:Journal3Jobs",
						"label": "jou",
						"offset": 0,
						"slot": "5",
						"type": "t_contract(IERC20)312"
					},
					{
						"astId": 436,
						"contract": "contracts/Journal3Jobs.sol:Journal3Jobs",
						"label": "skills_repo",
						"offset": 0,
						"slot": "6",
						"type": "t_contract(ISkillsRepo)366"
					}
				],
				"types": {
					"t_address": {
						"encoding": "inplace",
						"label": "address",
						"numberOfBytes": "20"
					},
					"t_array(t_address)dyn_storage": {
						"base": "t_address",
						"encoding": "dynamic_array",
						"label": "address[]",
						"numberOfBytes": "32"
					},
					"t_array(t_uint256)dyn_storage": {
						"base": "t_uint256",
						"encoding": "dynamic_array",
						"label": "uint256[]",
						"numberOfBytes": "32"
					},
					"t_bool": {
						"encoding": "inplace",
						"label": "bool",
						"numberOfBytes": "1"
					},
					"t_contract(IERC20)312": {
						"encoding": "inplace",
						"label": "contract IERC20",
						"numberOfBytes": "20"
					},
					"t_contract(ISkillsRepo)366": {
						"encoding": "inplace",
						"label": "contract ISkillsRepo",
						"numberOfBytes": "20"
					},
					"t_mapping(t_address,t_uint256)": {
						"encoding": "mapping",
						"key": "t_address",
						"label": "mapping(address => uint256)",
						"numberOfBytes": "32",
						"value": "t_uint256"
					},
					"t_mapping(t_uint256,t_array(t_uint256)dyn_storage)": {
						"encoding": "mapping",
						"key": "t_uint256",
						"label": "mapping(uint256 => uint256[])",
						"numberOfBytes": "32",
						"value": "t_array(t_uint256)dyn_storage"
					},
					"t_mapping(t_uint256,t_struct(Checkpoints)379_storage)": {
						"encoding": "mapping",
						"key": "t_uint256",
						"label": "mapping(uint256 => struct Checkpoints)",
						"numberOfBytes": "32",
						"value": "t_struct(Checkpoints)379_storage"
					},
					"t_mapping(t_uint256,t_struct(Job)407_storage)": {
						"encoding": "mapping",
						"key": "t_uint256",
						"label": "mapping(uint256 => struct Job)",
						"numberOfBytes": "32",
						"value": "t_struct(Job)407_storage"
					},
					"t_string_storage": {
						"encoding": "bytes",
						"label": "string",
						"numberOfBytes": "32"
					},
					"t_struct(Checkpoints)379_storage": {
						"encoding": "inplace",
						"label": "struct Checkpoints",
						"members": [
							{
								"astId": 373,
								"contract": "contracts/Journal3Jobs.sol:Journal3Jobs",
								"label": "checkpoint_addr",
								"offset": 0,
								"slot": "0",
								"type": "t_uint256"
							},
							{
								"astId": 375,
								"contract": "contracts/Journal3Jobs.sol:Journal3Jobs",
								"label": "checkpoint_name",
								"offset": 0,
								"slot": "1",
								"type": "t_string_storage"
							},
							{
								"astId": 378,
								"contract": "contracts/Journal3Jobs.sol:Journal3Jobs",
								"label": "candidates",
								"offset": 0,
								"slot": "2",
								"type": "t_array(t_address)dyn_storage"
							}
						],
						"numberOfBytes": "96"
					},
					"t_struct(Job)407_storage": {
						"encoding": "inplace",
						"label": "struct Job",
						"members": [
							{
								"astId": 381,
								"contract": "contracts/Journal3Jobs.sol:Journal3Jobs",
								"label": "metadata_ipfs",
								"offset": 0,
								"slot": "0",
								"type": "t_string_storage"
							},
							{
								"astId": 386,
								"contract": "contracts/Journal3Jobs.sol:Journal3Jobs",
								"label": "qualifications",
								"offset": 0,
								"slot": "1",
								"type": "t_mapping(t_uint256,t_array(t_uint256)dyn_storage)"
							},
							{
								"astId": 389,
								"contract": "contracts/Journal3Jobs.sol:Journal3Jobs",
								"label": "qual_list",
								"offset": 0,
								"slot": "2",
								"type": "t_array(t_uint256)dyn_storage"
							},
							{
								"astId": 391,
								"contract": "contracts/Journal3Jobs.sol:Journal3Jobs",
								"label": "qualif_size",
								"offset": 0,
								"slot": "3",
								"type": "t_uint256"
							},
							{
								"astId": 396,
								"contract": "contracts/Journal3Jobs.sol:Journal3Jobs",
								"label": "candidate_profiles",
								"offset": 0,
								"slot": "4",
								"type": "t_mapping(t_uint256,t_struct(Checkpoints)379_storage)"
							},
							{
								"astId": 398,
								"contract": "contracts/Journal3Jobs.sol:Journal3Jobs",
								"label": "jou_staked",
								"offset": 0,
								"slot": "5",
								"type": "t_uint256"
							},
							{
								"astId": 400,
								"contract": "contracts/Journal3Jobs.sol:Journal3Jobs",
								"label": "is_active",
								"offset": 0,
								"slot": "6",
								"type": "t_bool"
							},
							{
								"astId": 402,
								"contract": "contracts/Journal3Jobs.sol:Journal3Jobs",
								"label": "closing_indexer",
								"offset": 1,
								"slot": "6",
								"type": "t_address"
							},
							{
								"astId": 404,
								"contract": "contracts/Journal3Jobs.sol:Journal3Jobs",
								"label": "gasless_experience",
								"offset": 21,
								"slot": "6",
								"type": "t_bool"
							},
							{
								"astId": 406,
								"contract": "contracts/Journal3Jobs.sol:Journal3Jobs",
								"label": "root",
								"offset": 0,
								"slot": "7",
								"type": "t_uint256"
							}
						],
						"numberOfBytes": "256"
					},
					"t_uint256": {
						"encoding": "inplace",
						"label": "uint256",
						"numberOfBytes": "32"
					}
				}
			},
			"userdoc": {
				"kind": "user",
				"methods": {},
				"version": 1
			}
		}
	}
}