{
	"contracts/DataOnboarder.sol": {
		"DataOnboarder": {
			"abi": [
				{
					"inputs": [],
					"stateMutability": "nonpayable",
					"type": "constructor"
				},
				{
					"anonymous": false,
					"inputs": [
						{
							"indexed": true,
							"internalType": "address",
							"name": "previousOwner",
							"type": "address"
						},
						{
							"indexed": true,
							"internalType": "address",
							"name": "newOwner",
							"type": "address"
						}
					],
					"name": "OwnershipTransferred",
					"type": "event"
				},
				{
					"inputs": [
						{
							"components": [
								{
									"internalType": "string",
									"name": "profile_uid",
									"type": "string"
								},
								{
									"internalType": "string",
									"name": "platform_name",
									"type": "string"
								},
								{
									"internalType": "address",
									"name": "corresponding_pubkey",
									"type": "address"
								},
								{
									"internalType": "bytes",
									"name": "signature",
									"type": "bytes"
								}
							],
							"internalType": "struct DataOnboarderSigner.DataSourceLink",
							"name": "verified_data_source",
							"type": "tuple"
						}
					],
					"name": "add_name",
					"outputs": [],
					"stateMutability": "nonpayable",
					"type": "function"
				},
				{
					"inputs": [
						{
							"internalType": "address",
							"name": "",
							"type": "address"
						},
						{
							"internalType": "string",
							"name": "",
							"type": "string"
						}
					],
					"name": "add_to_source_map",
					"outputs": [
						{
							"internalType": "string",
							"name": "",
							"type": "string"
						}
					],
					"stateMutability": "view",
					"type": "function"
				},
				{
					"inputs": [
						{
							"components": [
								{
									"internalType": "string",
									"name": "profile_uid",
									"type": "string"
								},
								{
									"internalType": "string",
									"name": "platform_name",
									"type": "string"
								},
								{
									"internalType": "address",
									"name": "corresponding_pubkey",
									"type": "address"
								},
								{
									"internalType": "bytes",
									"name": "signature",
									"type": "bytes"
								}
							],
							"internalType": "struct DataOnboarderSigner.DataSourceLink",
							"name": "result",
							"type": "tuple"
						}
					],
					"name": "getSigner",
					"outputs": [
						{
							"internalType": "address",
							"name": "",
							"type": "address"
						}
					],
					"stateMutability": "view",
					"type": "function"
				},
				{
					"inputs": [],
					"name": "owner",
					"outputs": [
						{
							"internalType": "address",
							"name": "",
							"type": "address"
						}
					],
					"stateMutability": "view",
					"type": "function"
				},
				{
					"inputs": [],
					"name": "renounceOwnership",
					"outputs": [],
					"stateMutability": "nonpayable",
					"type": "function"
				},
				{
					"inputs": [
						{
							"internalType": "address",
							"name": "_creator",
							"type": "address"
						}
					],
					"name": "setRouterCreator",
					"outputs": [],
					"stateMutability": "nonpayable",
					"type": "function"
				},
				{
					"inputs": [
						{
							"internalType": "address",
							"name": "newOwner",
							"type": "address"
						}
					],
					"name": "transferOwnership",
					"outputs": [],
					"stateMutability": "nonpayable",
					"type": "function"
				}
			],
			"devdoc": {
				"kind": "dev",
				"methods": {
					"owner()": {
						"details": "Returns the address of the current owner."
					},
					"renounceOwnership()": {
						"details": "Leaves the contract without owner. It will not be possible to call `onlyOwner` functions anymore. Can only be called by the current owner. NOTE: Renouncing ownership will leave the contract without an owner, thereby removing any functionality that is only available to the owner."
					},
					"transferOwnership(address)": {
						"details": "Transfers ownership of the contract to a new account (`newOwner`). Can only be called by the current owner."
					}
				},
				"version": 1
			},
			"evm": {
				"assembly": "    /* \"contracts/DataOnboarder.sol\":167:1012  contract DataOnboarder is Ownable, DataOnboarderSigner{\r... */\n  mstore(0x40, 0x0140)\n    /* \"contracts/DataOnboarder.sol\":338:438  constructor() DataOnboarderSigner(\"journal3.com\", \"1\"){\r... */\n  callvalue\n  dup1\n  iszero\n  tag_1\n  jumpi\n  0x00\n  dup1\n  revert\ntag_1:\n  pop\n    /* \"contracts/DataOnboarderSigner.sol\":360:493  constructor(string memory SIGNING_DOMAIN,string memory SIGNATURE_VERSION) EIP712(SIGNING_DOMAIN, SIGNATURE_VERSION){\r... */\n  mload(0x40)\n  dup1\n  0x40\n  add\n  0x40\n  mstore\n  dup1\n  0x0c\n  dup2\n  mstore\n  0x20\n  add\n  0x6a6f75726e616c332e636f6d0000000000000000000000000000000000000000\n  dup2\n  mstore\n  pop\n  mload(0x40)\n  dup1\n  0x40\n  add\n  0x40\n  mstore\n  dup1\n  0x01\n  dup2\n  mstore\n  0x20\n  add\n  0x3100000000000000000000000000000000000000000000000000000000000000\n  dup2\n  mstore\n  pop\n    /* \"contracts/DataOnboarderSigner.sol\":441:455  SIGNING_DOMAIN */\n  dup2\n    /* \"contracts/DataOnboarderSigner.sol\":457:474  SIGNATURE_VERSION */\n  dup2\n    /* \"@openzeppelin/contracts/access/Ownable.sol\":936:968  _transferOwnership(_msgSender()) */\n  tag_7\n    /* \"@openzeppelin/contracts/access/Ownable.sol\":955:967  _msgSender() */\n  tag_8\n    /* \"@openzeppelin/contracts/access/Ownable.sol\":955:965  _msgSender */\n  shl(0x20, tag_9)\n    /* \"@openzeppelin/contracts/access/Ownable.sol\":955:967  _msgSender() */\n  0x20\n  shr\n  jump\t// in\ntag_8:\n    /* \"@openzeppelin/contracts/access/Ownable.sol\":936:954  _transferOwnership */\n  shl(0x20, tag_10)\n    /* \"@openzeppelin/contracts/access/Ownable.sol\":936:968  _transferOwnership(_msgSender()) */\n  0x20\n  shr\n  jump\t// in\ntag_7:\n    /* \"@openzeppelin/contracts/utils/cryptography/EIP712.sol\":2529:2547  bytes32 hashedName */\n  0x00\n    /* \"@openzeppelin/contracts/utils/cryptography/EIP712.sol\":2566:2570  name */\n  dup3\n    /* \"@openzeppelin/contracts/utils/cryptography/EIP712.sol\":2550:2572  keccak256(bytes(name)) */\n  dup1\n  mload\n  swap1\n  0x20\n  add\n  keccak256\n    /* \"@openzeppelin/contracts/utils/cryptography/EIP712.sol\":2529:2572  bytes32 hashedName = keccak256(bytes(name)) */\n  swap1\n  pop\n    /* \"@openzeppelin/contracts/utils/cryptography/EIP712.sol\":2582:2603  bytes32 hashedVersion */\n  0x00\n    /* \"@openzeppelin/contracts/utils/cryptography/EIP712.sol\":2622:2629  version */\n  dup3\n    /* \"@openzeppelin/contracts/utils/cryptography/EIP712.sol\":2606:2631  keccak256(bytes(version)) */\n  dup1\n  mload\n  swap1\n  0x20\n  add\n  keccak256\n    /* \"@openzeppelin/contracts/utils/cryptography/EIP712.sol\":2582:2631  bytes32 hashedVersion = keccak256(bytes(version)) */\n  swap1\n  pop\n    /* \"@openzeppelin/contracts/utils/cryptography/EIP712.sol\":2641:2657  bytes32 typeHash */\n  0x00\n    /* \"@openzeppelin/contracts/utils/cryptography/EIP712.sol\":2660:2777  keccak256(... */\n  0x8b73c3c69bb8fe3d512ecc4cf759cc79239f7b179b0ffacaa9a75d522b39400f\n    /* \"@openzeppelin/contracts/utils/cryptography/EIP712.sol\":2641:2777  bytes32 typeHash = keccak256(... */\n  swap1\n  pop\n    /* \"@openzeppelin/contracts/utils/cryptography/EIP712.sol\":2802:2812  hashedName */\n  dup3\n    /* \"@openzeppelin/contracts/utils/cryptography/EIP712.sol\":2787:2812  _HASHED_NAME = hashedName */\n  0xe0\n  dup2\n  dup2\n  mstore\n  pop\n  pop\n    /* \"@openzeppelin/contracts/utils/cryptography/EIP712.sol\":2840:2853  hashedVersion */\n  dup2\n    /* \"@openzeppelin/contracts/utils/cryptography/EIP712.sol\":2822:2853  _HASHED_VERSION = hashedVersion */\n  0x0100\n  dup2\n  dup2\n  mstore\n  pop\n  pop\n    /* \"@openzeppelin/contracts/utils/cryptography/EIP712.sol\":2882:2895  block.chainid */\n  chainid\n    /* \"@openzeppelin/contracts/utils/cryptography/EIP712.sol\":2863:2895  _CACHED_CHAIN_ID = block.chainid */\n  0xa0\n  dup2\n  dup2\n  mstore\n  pop\n  pop\n    /* \"@openzeppelin/contracts/utils/cryptography/EIP712.sol\":2932:2990  _buildDomainSeparator(typeHash, hashedName, hashedVersion) */\n  tag_12\n    /* \"@openzeppelin/contracts/utils/cryptography/EIP712.sol\":2954:2962  typeHash */\n  dup2\n    /* \"@openzeppelin/contracts/utils/cryptography/EIP712.sol\":2964:2974  hashedName */\n  dup5\n    /* \"@openzeppelin/contracts/utils/cryptography/EIP712.sol\":2976:2989  hashedVersion */\n  dup5\n    /* \"@openzeppelin/contracts/utils/cryptography/EIP712.sol\":2932:2953  _buildDomainSeparator */\n  shl(0x20, tag_13)\n    /* \"@openzeppelin/contracts/utils/cryptography/EIP712.sol\":2932:2990  _buildDomainSeparator(typeHash, hashedName, hashedVersion) */\n  0x20\n  shr\n  jump\t// in\ntag_12:\n    /* \"@openzeppelin/contracts/utils/cryptography/EIP712.sol\":2905:2990  _CACHED_DOMAIN_SEPARATOR = _buildDomainSeparator(typeHash, hashedName, hashedVersion) */\n  0x80\n  dup2\n  dup2\n  mstore\n  pop\n  pop\n    /* \"@openzeppelin/contracts/utils/cryptography/EIP712.sol\":3023:3027  this */\n  address\n    /* \"@openzeppelin/contracts/utils/cryptography/EIP712.sol\":3000:3028  _CACHED_THIS = address(this) */\n  0xffffffffffffffffffffffffffffffffffffffff\n  and\n  0xc0\n  dup2\n  0xffffffffffffffffffffffffffffffffffffffff\n  and\n  0x60\n  shl\n  dup2\n  mstore\n  pop\n  pop\n    /* \"@openzeppelin/contracts/utils/cryptography/EIP712.sol\":3051:3059  typeHash */\n  dup1\n    /* \"@openzeppelin/contracts/utils/cryptography/EIP712.sol\":3038:3059  _TYPE_HASH = typeHash */\n  0x0120\n  dup2\n  dup2\n  mstore\n  pop\n  pop\n    /* \"@openzeppelin/contracts/utils/cryptography/EIP712.sol\":2519:3066  {... */\n  pop\n  pop\n  pop\n    /* \"@openzeppelin/contracts/utils/cryptography/EIP712.sol\":2464:3066  constructor(string memory name, string memory version) {... */\n  pop\n  pop\n    /* \"contracts/DataOnboarderSigner.sol\":360:493  constructor(string memory SIGNING_DOMAIN,string memory SIGNATURE_VERSION) EIP712(SIGNING_DOMAIN, SIGNATURE_VERSION){\r... */\n  pop\n  pop\n    /* \"contracts/DataOnboarder.sol\":420:430  msg.sender */\n  caller\n    /* \"contracts/DataOnboarder.sol\":403:417  router_creator */\n  0x02\n  0x00\n    /* \"contracts/DataOnboarder.sol\":403:430  router_creator = msg.sender */\n  0x0100\n  exp\n  dup2\n  sload\n  dup2\n  0xffffffffffffffffffffffffffffffffffffffff\n  mul\n  not\n  and\n  swap1\n  dup4\n  0xffffffffffffffffffffffffffffffffffffffff\n  and\n  mul\n  or\n  swap1\n  sstore\n  pop\n    /* \"contracts/DataOnboarder.sol\":167:1012  contract DataOnboarder is Ownable, DataOnboarderSigner{\r... */\n  jump(tag_16)\n    /* \"@openzeppelin/contracts/utils/Context.sol\":640:736  function _msgSender() internal view virtual returns (address) {... */\ntag_9:\n    /* \"@openzeppelin/contracts/utils/Context.sol\":693:700  address */\n  0x00\n    /* \"@openzeppelin/contracts/utils/Context.sol\":719:729  msg.sender */\n  caller\n    /* \"@openzeppelin/contracts/utils/Context.sol\":712:729  return msg.sender */\n  swap1\n  pop\n    /* \"@openzeppelin/contracts/utils/Context.sol\":640:736  function _msgSender() internal view virtual returns (address) {... */\n  swap1\n  jump\t// out\n    /* \"@openzeppelin/contracts/access/Ownable.sol\":2433:2620  function _transferOwnership(address newOwner) internal virtual {... */\ntag_10:\n    /* \"@openzeppelin/contracts/access/Ownable.sol\":2506:2522  address oldOwner */\n  0x00\n    /* \"@openzeppelin/contracts/access/Ownable.sol\":2525:2531  _owner */\n  dup1\n  0x00\n  swap1\n  sload\n  swap1\n  0x0100\n  exp\n  swap1\n  div\n  0xffffffffffffffffffffffffffffffffffffffff\n  and\n    /* \"@openzeppelin/contracts/access/Ownable.sol\":2506:2531  address oldOwner = _owner */\n  swap1\n  pop\n    /* \"@openzeppelin/contracts/access/Ownable.sol\":2550:2558  newOwner */\n  dup2\n    /* \"@openzeppelin/contracts/access/Ownable.sol\":2541:2547  _owner */\n  0x00\n  dup1\n    /* \"@openzeppelin/contracts/access/Ownable.sol\":2541:2558  _owner = newOwner */\n  0x0100\n  exp\n  dup2\n  sload\n  dup2\n  0xffffffffffffffffffffffffffffffffffffffff\n  mul\n  not\n  and\n  swap1\n  dup4\n  0xffffffffffffffffffffffffffffffffffffffff\n  and\n  mul\n  or\n  swap1\n  sstore\n  pop\n    /* \"@openzeppelin/contracts/access/Ownable.sol\":2604:2612  newOwner */\n  dup2\n    /* \"@openzeppelin/contracts/access/Ownable.sol\":2573:2613  OwnershipTransferred(oldOwner, newOwner) */\n  0xffffffffffffffffffffffffffffffffffffffff\n  and\n    /* \"@openzeppelin/contracts/access/Ownable.sol\":2594:2602  oldOwner */\n  dup2\n    /* \"@openzeppelin/contracts/access/Ownable.sol\":2573:2613  OwnershipTransferred(oldOwner, newOwner) */\n  0xffffffffffffffffffffffffffffffffffffffff\n  and\n  0x8be0079c531659141344cd1fd0a4f28419497f9722a3daafe3b4186f6b6457e0\n  mload(0x40)\n  mload(0x40)\n  dup1\n  swap2\n  sub\n  swap1\n  log3\n    /* \"@openzeppelin/contracts/access/Ownable.sol\":2496:2620  {... */\n  pop\n    /* \"@openzeppelin/contracts/access/Ownable.sol\":2433:2620  function _transferOwnership(address newOwner) internal virtual {... */\n  pop\n  jump\t// out\n    /* \"@openzeppelin/contracts/utils/cryptography/EIP712.sol\":3466:3723  function _buildDomainSeparator(... */\ntag_13:\n    /* \"@openzeppelin/contracts/utils/cryptography/EIP712.sol\":3606:3613  bytes32 */\n  0x00\n    /* \"@openzeppelin/contracts/utils/cryptography/EIP712.sol\":3653:3661  typeHash */\n  dup4\n    /* \"@openzeppelin/contracts/utils/cryptography/EIP712.sol\":3663:3671  nameHash */\n  dup4\n    /* \"@openzeppelin/contracts/utils/cryptography/EIP712.sol\":3673:3684  versionHash */\n  dup4\n    /* \"@openzeppelin/contracts/utils/cryptography/EIP712.sol\":3686:3699  block.chainid */\n  chainid\n    /* \"@openzeppelin/contracts/utils/cryptography/EIP712.sol\":3709:3713  this */\n  address\n    /* \"@openzeppelin/contracts/utils/cryptography/EIP712.sol\":3642:3715  abi.encode(typeHash, nameHash, versionHash, block.chainid, address(this)) */\n  add(0x20, mload(0x40))\n  tag_20\n  swap6\n  swap5\n  swap4\n  swap3\n  swap2\n  swap1\n  tag_21\n  jump\t// in\ntag_20:\n  mload(0x40)\n  0x20\n  dup2\n  dup4\n  sub\n  sub\n  dup2\n  mstore\n  swap1\n  0x40\n  mstore\n    /* \"@openzeppelin/contracts/utils/cryptography/EIP712.sol\":3632:3716  keccak256(abi.encode(typeHash, nameHash, versionHash, block.chainid, address(this))) */\n  dup1\n  mload\n  swap1\n  0x20\n  add\n  keccak256\n    /* \"@openzeppelin/contracts/utils/cryptography/EIP712.sol\":3625:3716  return keccak256(abi.encode(typeHash, nameHash, versionHash, block.chainid, address(this))) */\n  swap1\n  pop\n    /* \"@openzeppelin/contracts/utils/cryptography/EIP712.sol\":3466:3723  function _buildDomainSeparator(... */\n  swap4\n  swap3\n  pop\n  pop\n  pop\n  jump\t// out\n    /* \"#utility.yul\":7:125   */\ntag_23:\n    /* \"#utility.yul\":94:118   */\n  tag_25\n    /* \"#utility.yul\":112:117   */\n  dup2\n    /* \"#utility.yul\":94:118   */\n  tag_26\n  jump\t// in\ntag_25:\n    /* \"#utility.yul\":89:92   */\n  dup3\n    /* \"#utility.yul\":82:119   */\n  mstore\n    /* \"#utility.yul\":7:125   */\n  pop\n  pop\n  jump\t// out\n    /* \"#utility.yul\":131:249   */\ntag_27:\n    /* \"#utility.yul\":218:242   */\n  tag_29\n    /* \"#utility.yul\":236:241   */\n  dup2\n    /* \"#utility.yul\":218:242   */\n  tag_30\n  jump\t// in\ntag_29:\n    /* \"#utility.yul\":213:216   */\n  dup3\n    /* \"#utility.yul\":206:243   */\n  mstore\n    /* \"#utility.yul\":131:249   */\n  pop\n  pop\n  jump\t// out\n    /* \"#utility.yul\":255:373   */\ntag_31:\n    /* \"#utility.yul\":342:366   */\n  tag_33\n    /* \"#utility.yul\":360:365   */\n  dup2\n    /* \"#utility.yul\":342:366   */\n  tag_34\n  jump\t// in\ntag_33:\n    /* \"#utility.yul\":337:340   */\n  dup3\n    /* \"#utility.yul\":330:367   */\n  mstore\n    /* \"#utility.yul\":255:373   */\n  pop\n  pop\n  jump\t// out\n    /* \"#utility.yul\":379:1043   */\ntag_21:\n    /* \"#utility.yul\":584:588   */\n  0x00\n    /* \"#utility.yul\":622:625   */\n  0xa0\n    /* \"#utility.yul\":611:620   */\n  dup3\n    /* \"#utility.yul\":607:626   */\n  add\n    /* \"#utility.yul\":599:626   */\n  swap1\n  pop\n    /* \"#utility.yul\":636:707   */\n  tag_36\n    /* \"#utility.yul\":704:705   */\n  0x00\n    /* \"#utility.yul\":693:702   */\n  dup4\n    /* \"#utility.yul\":689:706   */\n  add\n    /* \"#utility.yul\":680:686   */\n  dup9\n    /* \"#utility.yul\":636:707   */\n  tag_27\n  jump\t// in\ntag_36:\n    /* \"#utility.yul\":717:789   */\n  tag_37\n    /* \"#utility.yul\":785:787   */\n  0x20\n    /* \"#utility.yul\":774:783   */\n  dup4\n    /* \"#utility.yul\":770:788   */\n  add\n    /* \"#utility.yul\":761:767   */\n  dup8\n    /* \"#utility.yul\":717:789   */\n  tag_27\n  jump\t// in\ntag_37:\n    /* \"#utility.yul\":799:871   */\n  tag_38\n    /* \"#utility.yul\":867:869   */\n  0x40\n    /* \"#utility.yul\":856:865   */\n  dup4\n    /* \"#utility.yul\":852:870   */\n  add\n    /* \"#utility.yul\":843:849   */\n  dup7\n    /* \"#utility.yul\":799:871   */\n  tag_27\n  jump\t// in\ntag_38:\n    /* \"#utility.yul\":881:953   */\n  tag_39\n    /* \"#utility.yul\":949:951   */\n  0x60\n    /* \"#utility.yul\":938:947   */\n  dup4\n    /* \"#utility.yul\":934:952   */\n  add\n    /* \"#utility.yul\":925:931   */\n  dup6\n    /* \"#utility.yul\":881:953   */\n  tag_31\n  jump\t// in\ntag_39:\n    /* \"#utility.yul\":963:1036   */\n  tag_40\n    /* \"#utility.yul\":1031:1034   */\n  0x80\n    /* \"#utility.yul\":1020:1029   */\n  dup4\n    /* \"#utility.yul\":1016:1035   */\n  add\n    /* \"#utility.yul\":1007:1013   */\n  dup5\n    /* \"#utility.yul\":963:1036   */\n  tag_23\n  jump\t// in\ntag_40:\n    /* \"#utility.yul\":379:1043   */\n  swap7\n  swap6\n  pop\n  pop\n  pop\n  pop\n  pop\n  pop\n  jump\t// out\n    /* \"#utility.yul\":1049:1145   */\ntag_26:\n    /* \"#utility.yul\":1086:1093   */\n  0x00\n    /* \"#utility.yul\":1115:1139   */\n  tag_42\n    /* \"#utility.yul\":1133:1138   */\n  dup3\n    /* \"#utility.yul\":1115:1139   */\n  tag_43\n  jump\t// in\ntag_42:\n    /* \"#utility.yul\":1104:1139   */\n  swap1\n  pop\n    /* \"#utility.yul\":1049:1145   */\n  swap2\n  swap1\n  pop\n  jump\t// out\n    /* \"#utility.yul\":1151:1228   */\ntag_30:\n    /* \"#utility.yul\":1188:1195   */\n  0x00\n    /* \"#utility.yul\":1217:1222   */\n  dup2\n    /* \"#utility.yul\":1206:1222   */\n  swap1\n  pop\n    /* \"#utility.yul\":1151:1228   */\n  swap2\n  swap1\n  pop\n  jump\t// out\n    /* \"#utility.yul\":1234:1360   */\ntag_43:\n    /* \"#utility.yul\":1271:1278   */\n  0x00\n    /* \"#utility.yul\":1311:1353   */\n  0xffffffffffffffffffffffffffffffffffffffff\n    /* \"#utility.yul\":1304:1309   */\n  dup3\n    /* \"#utility.yul\":1300:1354   */\n  and\n    /* \"#utility.yul\":1289:1354   */\n  swap1\n  pop\n    /* \"#utility.yul\":1234:1360   */\n  swap2\n  swap1\n  pop\n  jump\t// out\n    /* \"#utility.yul\":1366:1443   */\ntag_34:\n    /* \"#utility.yul\":1403:1410   */\n  0x00\n    /* \"#utility.yul\":1432:1437   */\n  dup2\n    /* \"#utility.yul\":1421:1437   */\n  swap1\n  pop\n    /* \"#utility.yul\":1366:1443   */\n  swap2\n  swap1\n  pop\n  jump\t// out\n    /* \"contracts/DataOnboarder.sol\":167:1012  contract DataOnboarder is Ownable, DataOnboarderSigner{\r... */\ntag_16:\n  mload(0x80)\n  mload(0xa0)\n  shr(0x60, mload(0xc0))\n  mload(0xe0)\n  mload(0x0100)\n  mload(0x0120)\n  codecopy(0x00, dataOffset(sub_0), dataSize(sub_0))\n  0x00\n  assignImmutable(\"0xcab8721890c4a0282eedf7457a9eef71e0286aef15a4e0cdc4e5d20a5c38ddc9\")\n  0x00\n  assignImmutable(\"0x897a133c923b782c0eb5be242182d01a105b8766edbf31c68f44b2a1201f0476\")\n  0x00\n  assignImmutable(\"0x62436f2808c4896b559574a20128c359e32d25d88f8026d5d47b3442a6b3eabd\")\n  0x00\n  assignImmutable(\"0x17f9f6c7b1e09d3d1844320c8ed1a68af4fbb1102f099230f06c07fb6e143460\")\n  0x00\n  assignImmutable(\"0xcf5384ecdd962c51714f0761b3e741fbbed81221f270bc3511a60f72d0d8cd7d\")\n  0x00\n  assignImmutable(\"0xc789ed62c0471ea887fe385618241659dfb2b473a8c970202f43d3beabf7a5e4\")\n  return(0x00, dataSize(sub_0))\nstop\n\nsub_0: assembly {\n        /* \"contracts/DataOnboarder.sol\":167:1012  contract DataOnboarder is Ownable, DataOnboarderSigner{\r... */\n      mstore(0x40, 0x80)\n      callvalue\n      dup1\n      iszero\n      tag_1\n      jumpi\n      0x00\n      dup1\n      revert\n    tag_1:\n      pop\n      jumpi(tag_2, lt(calldatasize, 0x04))\n      shr(0xe0, calldataload(0x00))\n      dup1\n      0x8da5cb5b\n      gt\n      tag_10\n      jumpi\n      dup1\n      0x8da5cb5b\n      eq\n      tag_6\n      jumpi\n      dup1\n      0xb24a5e0d\n      eq\n      tag_7\n      jumpi\n      dup1\n      0xb2969a2e\n      eq\n      tag_8\n      jumpi\n      dup1\n      0xf2fde38b\n      eq\n      tag_9\n      jumpi\n      jump(tag_2)\n    tag_10:\n      dup1\n      0x30f89e29\n      eq\n      tag_3\n      jumpi\n      dup1\n      0x68dfffbd\n      eq\n      tag_4\n      jumpi\n      dup1\n      0x715018a6\n      eq\n      tag_5\n      jumpi\n    tag_2:\n      0x00\n      dup1\n      revert\n        /* \"contracts/DataOnboarderSigner.sol\":501:619  function getSigner(DataSourceLink memory result) public view returns(address){\r... */\n    tag_3:\n      tag_11\n      0x04\n      dup1\n      calldatasize\n      sub\n      dup2\n      add\n      swap1\n      tag_12\n      swap2\n      swap1\n      tag_13\n      jump\t// in\n    tag_12:\n      tag_14\n      jump\t// in\n    tag_11:\n      mload(0x40)\n      tag_15\n      swap2\n      swap1\n      tag_16\n      jump\t// in\n    tag_15:\n      mload(0x40)\n      dup1\n      swap2\n      sub\n      swap1\n      return\n        /* \"contracts/DataOnboarder.sol\":234:300  mapping(address=>mapping(string=>string)) public add_to_source_map */\n    tag_4:\n      tag_17\n      0x04\n      dup1\n      calldatasize\n      sub\n      dup2\n      add\n      swap1\n      tag_18\n      swap2\n      swap1\n      tag_19\n      jump\t// in\n    tag_18:\n      tag_20\n      jump\t// in\n    tag_17:\n      mload(0x40)\n      tag_21\n      swap2\n      swap1\n      tag_22\n      jump\t// in\n    tag_21:\n      mload(0x40)\n      dup1\n      swap2\n      sub\n      swap1\n      return\n        /* \"@openzeppelin/contracts/access/Ownable.sol\":1831:1932  function renounceOwnership() public virtual onlyOwner {... */\n    tag_5:\n      tag_23\n      tag_24\n      jump\t// in\n    tag_23:\n      stop\n        /* \"@openzeppelin/contracts/access/Ownable.sol\":1201:1286  function owner() public view virtual returns (address) {... */\n    tag_6:\n      tag_25\n      tag_26\n      jump\t// in\n    tag_25:\n      mload(0x40)\n      tag_27\n      swap2\n      swap1\n      tag_16\n      jump\t// in\n    tag_27:\n      mload(0x40)\n      dup1\n      swap2\n      sub\n      swap1\n      return\n        /* \"contracts/DataOnboarder.sol\":446:893  function add_name(DataSourceLink memory verified_data_source) external{\r... */\n    tag_7:\n      tag_28\n      0x04\n      dup1\n      calldatasize\n      sub\n      dup2\n      add\n      swap1\n      tag_29\n      swap2\n      swap1\n      tag_13\n      jump\t// in\n    tag_29:\n      tag_30\n      jump\t// in\n    tag_28:\n      stop\n        /* \"contracts/DataOnboarder.sol\":901:1007  function setRouterCreator(address _creator) external onlyOwner{\r... */\n    tag_8:\n      tag_31\n      0x04\n      dup1\n      calldatasize\n      sub\n      dup2\n      add\n      swap1\n      tag_32\n      swap2\n      swap1\n      tag_33\n      jump\t// in\n    tag_32:\n      tag_34\n      jump\t// in\n    tag_31:\n      stop\n        /* \"@openzeppelin/contracts/access/Ownable.sol\":2081:2279  function transferOwnership(address newOwner) public virtual onlyOwner {... */\n    tag_9:\n      tag_35\n      0x04\n      dup1\n      calldatasize\n      sub\n      dup2\n      add\n      swap1\n      tag_36\n      swap2\n      swap1\n      tag_33\n      jump\t// in\n    tag_36:\n      tag_37\n      jump\t// in\n    tag_35:\n      stop\n        /* \"contracts/DataOnboarderSigner.sol\":501:619  function getSigner(DataSourceLink memory result) public view returns(address){\r... */\n    tag_14:\n        /* \"contracts/DataOnboarderSigner.sol\":570:577  address */\n      0x00\n        /* \"contracts/DataOnboarderSigner.sol\":596:611  _verify(result) */\n      tag_39\n        /* \"contracts/DataOnboarderSigner.sol\":604:610  result */\n      dup3\n        /* \"contracts/DataOnboarderSigner.sol\":596:603  _verify */\n      tag_40\n        /* \"contracts/DataOnboarderSigner.sol\":596:611  _verify(result) */\n      jump\t// in\n    tag_39:\n        /* \"contracts/DataOnboarderSigner.sol\":589:611  return _verify(result) */\n      swap1\n      pop\n        /* \"contracts/DataOnboarderSigner.sol\":501:619  function getSigner(DataSourceLink memory result) public view returns(address){\r... */\n      swap2\n      swap1\n      pop\n      jump\t// out\n        /* \"contracts/DataOnboarder.sol\":234:300  mapping(address=>mapping(string=>string)) public add_to_source_map */\n    tag_20:\n      mstore(0x20, 0x01)\n      dup2\n      0x00\n      mstore\n      keccak256(0x00, 0x40)\n      dup2\n      dup1\n      mload\n      0x20\n      dup2\n      add\n      dup3\n      add\n      dup1\n      mload\n      dup5\n      dup3\n      mstore\n      0x20\n      dup4\n      add\n      0x20\n      dup6\n      add\n      keccak256\n      dup2\n      dup4\n      mstore\n      dup1\n      swap6\n      pop\n      pop\n      pop\n      pop\n      pop\n      pop\n      0x00\n      swap2\n      pop\n      swap2\n      pop\n      pop\n      dup1\n      sload\n      tag_41\n      swap1\n      tag_42\n      jump\t// in\n    tag_41:\n      dup1\n      0x1f\n      add\n      0x20\n      dup1\n      swap2\n      div\n      mul\n      0x20\n      add\n      mload(0x40)\n      swap1\n      dup2\n      add\n      0x40\n      mstore\n      dup1\n      swap3\n      swap2\n      swap1\n      dup2\n      dup2\n      mstore\n      0x20\n      add\n      dup3\n      dup1\n      sload\n      tag_43\n      swap1\n      tag_42\n      jump\t// in\n    tag_43:\n      dup1\n      iszero\n      tag_44\n      jumpi\n      dup1\n      0x1f\n      lt\n      tag_45\n      jumpi\n      0x0100\n      dup1\n      dup4\n      sload\n      div\n      mul\n      dup4\n      mstore\n      swap2\n      0x20\n      add\n      swap2\n      jump(tag_44)\n    tag_45:\n      dup3\n      add\n      swap2\n      swap1\n      0x00\n      mstore\n      keccak256(0x00, 0x20)\n      swap1\n    tag_46:\n      dup2\n      sload\n      dup2\n      mstore\n      swap1\n      0x01\n      add\n      swap1\n      0x20\n      add\n      dup1\n      dup4\n      gt\n      tag_46\n      jumpi\n      dup3\n      swap1\n      sub\n      0x1f\n      and\n      dup3\n      add\n      swap2\n    tag_44:\n      pop\n      pop\n      pop\n      pop\n      pop\n      dup2\n      jump\t// out\n        /* \"@openzeppelin/contracts/access/Ownable.sol\":1831:1932  function renounceOwnership() public virtual onlyOwner {... */\n    tag_24:\n        /* \"@openzeppelin/contracts/access/Ownable.sol\":1094:1107  _checkOwner() */\n      tag_48\n        /* \"@openzeppelin/contracts/access/Ownable.sol\":1094:1105  _checkOwner */\n      tag_49\n        /* \"@openzeppelin/contracts/access/Ownable.sol\":1094:1107  _checkOwner() */\n      jump\t// in\n    tag_48:\n        /* \"@openzeppelin/contracts/access/Ownable.sol\":1895:1925  _transferOwnership(address(0)) */\n      tag_51\n        /* \"@openzeppelin/contracts/access/Ownable.sol\":1922:1923  0 */\n      0x00\n        /* \"@openzeppelin/contracts/access/Ownable.sol\":1895:1913  _transferOwnership */\n      tag_52\n        /* \"@openzeppelin/contracts/access/Ownable.sol\":1895:1925  _transferOwnership(address(0)) */\n      jump\t// in\n    tag_51:\n        /* \"@openzeppelin/contracts/access/Ownable.sol\":1831:1932  function renounceOwnership() public virtual onlyOwner {... */\n      jump\t// out\n        /* \"@openzeppelin/contracts/access/Ownable.sol\":1201:1286  function owner() public view virtual returns (address) {... */\n    tag_26:\n        /* \"@openzeppelin/contracts/access/Ownable.sol\":1247:1254  address */\n      0x00\n        /* \"@openzeppelin/contracts/access/Ownable.sol\":1273:1279  _owner */\n      dup1\n      0x00\n      swap1\n      sload\n      swap1\n      0x0100\n      exp\n      swap1\n      div\n      0xffffffffffffffffffffffffffffffffffffffff\n      and\n        /* \"@openzeppelin/contracts/access/Ownable.sol\":1266:1279  return _owner */\n      swap1\n      pop\n        /* \"@openzeppelin/contracts/access/Ownable.sol\":1201:1286  function owner() public view virtual returns (address) {... */\n      swap1\n      jump\t// out\n        /* \"contracts/DataOnboarder.sol\":446:893  function add_name(DataSourceLink memory verified_data_source) external{\r... */\n    tag_30:\n        /* \"contracts/DataOnboarder.sol\":553:584  getSigner(verified_data_source) */\n      tag_55\n        /* \"contracts/DataOnboarder.sol\":563:583  verified_data_source */\n      dup2\n        /* \"contracts/DataOnboarder.sol\":553:562  getSigner */\n      tag_14\n        /* \"contracts/DataOnboarder.sol\":553:584  getSigner(verified_data_source) */\n      jump\t// in\n    tag_55:\n        /* \"contracts/DataOnboarder.sol\":535:584  router_creator == getSigner(verified_data_source) */\n      0xffffffffffffffffffffffffffffffffffffffff\n      and\n        /* \"contracts/DataOnboarder.sol\":535:549  router_creator */\n      0x02\n      0x00\n      swap1\n      sload\n      swap1\n      0x0100\n      exp\n      swap1\n      div\n      0xffffffffffffffffffffffffffffffffffffffff\n      and\n        /* \"contracts/DataOnboarder.sol\":535:584  router_creator == getSigner(verified_data_source) */\n      0xffffffffffffffffffffffffffffffffffffffff\n      and\n      eq\n        /* \"contracts/DataOnboarder.sol\":527:640  require(router_creator == getSigner(verified_data_source), \"Incorrectly signed data source verification request\") */\n      tag_56\n      jumpi\n      mload(0x40)\n      0x08c379a000000000000000000000000000000000000000000000000000000000\n      dup2\n      mstore\n      0x04\n      add\n      tag_57\n      swap1\n      tag_58\n      jump\t// in\n    tag_57:\n      mload(0x40)\n      dup1\n      swap2\n      sub\n      swap1\n      revert\n    tag_56:\n        /* \"contracts/DataOnboarder.sol\":740:741  0 */\n      0x00\n        /* \"contracts/DataOnboarder.sol\":665:682  add_to_source_map */\n      0x01\n        /* \"contracts/DataOnboarder.sol\":665:694  add_to_source_map[msg.sender] */\n      0x00\n        /* \"contracts/DataOnboarder.sol\":683:693  msg.sender */\n      caller\n        /* \"contracts/DataOnboarder.sol\":665:694  add_to_source_map[msg.sender] */\n      0xffffffffffffffffffffffffffffffffffffffff\n      and\n      0xffffffffffffffffffffffffffffffffffffffff\n      and\n      dup2\n      mstore\n      0x20\n      add\n      swap1\n      dup2\n      mstore\n      0x20\n      add\n      0x00\n      keccak256\n        /* \"contracts/DataOnboarder.sol\":695:715  verified_data_source */\n      dup3\n        /* \"contracts/DataOnboarder.sol\":695:729  verified_data_source.platform_name */\n      0x20\n      add\n      mload\n        /* \"contracts/DataOnboarder.sol\":665:730  add_to_source_map[msg.sender][verified_data_source.platform_name] */\n      mload(0x40)\n      tag_59\n      swap2\n      swap1\n      tag_60\n      jump\t// in\n    tag_59:\n      swap1\n      dup2\n      mstore\n      0x20\n      add\n      mload(0x40)\n      dup1\n      swap2\n      sub\n      swap1\n      keccak256\n        /* \"contracts/DataOnboarder.sol\":659:738  bytes(add_to_source_map[msg.sender][verified_data_source.platform_name]).length */\n      dup1\n      sload\n      tag_61\n      swap1\n      tag_42\n      jump\t// in\n    tag_61:\n      swap1\n      pop\n        /* \"contracts/DataOnboarder.sol\":659:741  bytes(add_to_source_map[msg.sender][verified_data_source.platform_name]).length==0 */\n      eq\n        /* \"contracts/DataOnboarder.sol\":651:774  require(bytes(add_to_source_map[msg.sender][verified_data_source.platform_name]).length==0, \"Data Source Already Verified\") */\n      tag_62\n      jumpi\n      mload(0x40)\n      0x08c379a000000000000000000000000000000000000000000000000000000000\n      dup2\n      mstore\n      0x04\n      add\n      tag_63\n      swap1\n      tag_64\n      jump\t// in\n    tag_63:\n      mload(0x40)\n      dup1\n      swap2\n      sub\n      swap1\n      revert\n    tag_62:\n        /* \"contracts/DataOnboarder.sol\":853:873  verified_data_source */\n      dup1\n        /* \"contracts/DataOnboarder.sol\":853:885  verified_data_source.profile_uid */\n      0x00\n      add\n      mload\n        /* \"contracts/DataOnboarder.sol\":785:802  add_to_source_map */\n      0x01\n        /* \"contracts/DataOnboarder.sol\":785:814  add_to_source_map[msg.sender] */\n      0x00\n        /* \"contracts/DataOnboarder.sol\":803:813  msg.sender */\n      caller\n        /* \"contracts/DataOnboarder.sol\":785:814  add_to_source_map[msg.sender] */\n      0xffffffffffffffffffffffffffffffffffffffff\n      and\n      0xffffffffffffffffffffffffffffffffffffffff\n      and\n      dup2\n      mstore\n      0x20\n      add\n      swap1\n      dup2\n      mstore\n      0x20\n      add\n      0x00\n      keccak256\n        /* \"contracts/DataOnboarder.sol\":815:835  verified_data_source */\n      dup3\n        /* \"contracts/DataOnboarder.sol\":815:849  verified_data_source.platform_name */\n      0x20\n      add\n      mload\n        /* \"contracts/DataOnboarder.sol\":785:850  add_to_source_map[msg.sender][verified_data_source.platform_name] */\n      mload(0x40)\n      tag_65\n      swap2\n      swap1\n      tag_60\n      jump\t// in\n    tag_65:\n      swap1\n      dup2\n      mstore\n      0x20\n      add\n      mload(0x40)\n      dup1\n      swap2\n      sub\n      swap1\n      keccak256\n        /* \"contracts/DataOnboarder.sol\":785:885  add_to_source_map[msg.sender][verified_data_source.platform_name] = verified_data_source.profile_uid */\n      swap1\n      dup1\n      mload\n      swap1\n      0x20\n      add\n      swap1\n      tag_66\n      swap3\n      swap2\n      swap1\n      tag_67\n      jump\t// in\n    tag_66:\n      pop\n        /* \"contracts/DataOnboarder.sol\":446:893  function add_name(DataSourceLink memory verified_data_source) external{\r... */\n      pop\n      jump\t// out\n        /* \"contracts/DataOnboarder.sol\":901:1007  function setRouterCreator(address _creator) external onlyOwner{\r... */\n    tag_34:\n        /* \"@openzeppelin/contracts/access/Ownable.sol\":1094:1107  _checkOwner() */\n      tag_69\n        /* \"@openzeppelin/contracts/access/Ownable.sol\":1094:1105  _checkOwner */\n      tag_49\n        /* \"@openzeppelin/contracts/access/Ownable.sol\":1094:1107  _checkOwner() */\n      jump\t// in\n    tag_69:\n        /* \"contracts/DataOnboarder.sol\":991:999  _creator */\n      dup1\n        /* \"contracts/DataOnboarder.sol\":974:988  router_creator */\n      0x02\n      0x00\n        /* \"contracts/DataOnboarder.sol\":974:999  router_creator = _creator */\n      0x0100\n      exp\n      dup2\n      sload\n      dup2\n      0xffffffffffffffffffffffffffffffffffffffff\n      mul\n      not\n      and\n      swap1\n      dup4\n      0xffffffffffffffffffffffffffffffffffffffff\n      and\n      mul\n      or\n      swap1\n      sstore\n      pop\n        /* \"contracts/DataOnboarder.sol\":901:1007  function setRouterCreator(address _creator) external onlyOwner{\r... */\n      pop\n      jump\t// out\n        /* \"@openzeppelin/contracts/access/Ownable.sol\":2081:2279  function transferOwnership(address newOwner) public virtual onlyOwner {... */\n    tag_37:\n        /* \"@openzeppelin/contracts/access/Ownable.sol\":1094:1107  _checkOwner() */\n      tag_72\n        /* \"@openzeppelin/contracts/access/Ownable.sol\":1094:1105  _checkOwner */\n      tag_49\n        /* \"@openzeppelin/contracts/access/Ownable.sol\":1094:1107  _checkOwner() */\n      jump\t// in\n    tag_72:\n        /* \"@openzeppelin/contracts/access/Ownable.sol\":2189:2190  0 */\n      0x00\n        /* \"@openzeppelin/contracts/access/Ownable.sol\":2169:2191  newOwner != address(0) */\n      0xffffffffffffffffffffffffffffffffffffffff\n      and\n        /* \"@openzeppelin/contracts/access/Ownable.sol\":2169:2177  newOwner */\n      dup2\n        /* \"@openzeppelin/contracts/access/Ownable.sol\":2169:2191  newOwner != address(0) */\n      0xffffffffffffffffffffffffffffffffffffffff\n      and\n      eq\n      iszero\n        /* \"@openzeppelin/contracts/access/Ownable.sol\":2161:2234  require(newOwner != address(0), \"Ownable: new owner is the zero address\") */\n      tag_74\n      jumpi\n      mload(0x40)\n      0x08c379a000000000000000000000000000000000000000000000000000000000\n      dup2\n      mstore\n      0x04\n      add\n      tag_75\n      swap1\n      tag_76\n      jump\t// in\n    tag_75:\n      mload(0x40)\n      dup1\n      swap2\n      sub\n      swap1\n      revert\n    tag_74:\n        /* \"@openzeppelin/contracts/access/Ownable.sol\":2244:2272  _transferOwnership(newOwner) */\n      tag_77\n        /* \"@openzeppelin/contracts/access/Ownable.sol\":2263:2271  newOwner */\n      dup2\n        /* \"@openzeppelin/contracts/access/Ownable.sol\":2244:2262  _transferOwnership */\n      tag_52\n        /* \"@openzeppelin/contracts/access/Ownable.sol\":2244:2272  _transferOwnership(newOwner) */\n      jump\t// in\n    tag_77:\n        /* \"@openzeppelin/contracts/access/Ownable.sol\":2081:2279  function transferOwnership(address newOwner) public virtual onlyOwner {... */\n      pop\n      jump\t// out\n        /* \"contracts/DataOnboarderSigner.sol\":1144:1329  function _verify(DataSourceLink memory result) internal view returns (address) {\r... */\n    tag_40:\n        /* \"contracts/DataOnboarderSigner.sol\":1214:1221  address */\n      0x00\n        /* \"contracts/DataOnboarderSigner.sol\":1234:1248  bytes32 digest */\n      dup1\n        /* \"contracts/DataOnboarderSigner.sol\":1251:1264  _hash(result) */\n      tag_79\n        /* \"contracts/DataOnboarderSigner.sol\":1257:1263  result */\n      dup4\n        /* \"contracts/DataOnboarderSigner.sol\":1251:1256  _hash */\n      tag_80\n        /* \"contracts/DataOnboarderSigner.sol\":1251:1264  _hash(result) */\n      jump\t// in\n    tag_79:\n        /* \"contracts/DataOnboarderSigner.sol\":1234:1264  bytes32 digest = _hash(result) */\n      swap1\n      pop\n        /* \"contracts/DataOnboarderSigner.sol\":1282:1321  ECDSA.recover(digest, result.signature) */\n      tag_81\n        /* \"contracts/DataOnboarderSigner.sol\":1296:1302  digest */\n      dup2\n        /* \"contracts/DataOnboarderSigner.sol\":1304:1310  result */\n      dup5\n        /* \"contracts/DataOnboarderSigner.sol\":1304:1320  result.signature */\n      0x60\n      add\n      mload\n        /* \"contracts/DataOnboarderSigner.sol\":1282:1295  ECDSA.recover */\n      tag_82\n        /* \"contracts/DataOnboarderSigner.sol\":1282:1321  ECDSA.recover(digest, result.signature) */\n      jump\t// in\n    tag_81:\n        /* \"contracts/DataOnboarderSigner.sol\":1275:1321  return ECDSA.recover(digest, result.signature) */\n      swap2\n      pop\n      pop\n        /* \"contracts/DataOnboarderSigner.sol\":1144:1329  function _verify(DataSourceLink memory result) internal view returns (address) {\r... */\n      swap2\n      swap1\n      pop\n      jump\t// out\n        /* \"@openzeppelin/contracts/access/Ownable.sol\":1359:1489  function _checkOwner() internal view virtual {... */\n    tag_49:\n        /* \"@openzeppelin/contracts/access/Ownable.sol\":1433:1445  _msgSender() */\n      tag_84\n        /* \"@openzeppelin/contracts/access/Ownable.sol\":1433:1443  _msgSender */\n      tag_85\n        /* \"@openzeppelin/contracts/access/Ownable.sol\":1433:1445  _msgSender() */\n      jump\t// in\n    tag_84:\n        /* \"@openzeppelin/contracts/access/Ownable.sol\":1422:1445  owner() == _msgSender() */\n      0xffffffffffffffffffffffffffffffffffffffff\n      and\n        /* \"@openzeppelin/contracts/access/Ownable.sol\":1422:1429  owner() */\n      tag_86\n        /* \"@openzeppelin/contracts/access/Ownable.sol\":1422:1427  owner */\n      tag_26\n        /* \"@openzeppelin/contracts/access/Ownable.sol\":1422:1429  owner() */\n      jump\t// in\n    tag_86:\n        /* \"@openzeppelin/contracts/access/Ownable.sol\":1422:1445  owner() == _msgSender() */\n      0xffffffffffffffffffffffffffffffffffffffff\n      and\n      eq\n        /* \"@openzeppelin/contracts/access/Ownable.sol\":1414:1482  require(owner() == _msgSender(), \"Ownable: caller is not the owner\") */\n      tag_87\n      jumpi\n      mload(0x40)\n      0x08c379a000000000000000000000000000000000000000000000000000000000\n      dup2\n      mstore\n      0x04\n      add\n      tag_88\n      swap1\n      tag_89\n      jump\t// in\n    tag_88:\n      mload(0x40)\n      dup1\n      swap2\n      sub\n      swap1\n      revert\n    tag_87:\n        /* \"@openzeppelin/contracts/access/Ownable.sol\":1359:1489  function _checkOwner() internal view virtual {... */\n      jump\t// out\n        /* \"@openzeppelin/contracts/access/Ownable.sol\":2433:2620  function _transferOwnership(address newOwner) internal virtual {... */\n    tag_52:\n        /* \"@openzeppelin/contracts/access/Ownable.sol\":2506:2522  address oldOwner */\n      0x00\n        /* \"@openzeppelin/contracts/access/Ownable.sol\":2525:2531  _owner */\n      dup1\n      0x00\n      swap1\n      sload\n      swap1\n      0x0100\n      exp\n      swap1\n      div\n      0xffffffffffffffffffffffffffffffffffffffff\n      and\n        /* \"@openzeppelin/contracts/access/Ownable.sol\":2506:2531  address oldOwner = _owner */\n      swap1\n      pop\n        /* \"@openzeppelin/contracts/access/Ownable.sol\":2550:2558  newOwner */\n      dup2\n        /* \"@openzeppelin/contracts/access/Ownable.sol\":2541:2547  _owner */\n      0x00\n      dup1\n        /* \"@openzeppelin/contracts/access/Ownable.sol\":2541:2558  _owner = newOwner */\n      0x0100\n      exp\n      dup2\n      sload\n      dup2\n      0xffffffffffffffffffffffffffffffffffffffff\n      mul\n      not\n      and\n      swap1\n      dup4\n      0xffffffffffffffffffffffffffffffffffffffff\n      and\n      mul\n      or\n      swap1\n      sstore\n      pop\n        /* \"@openzeppelin/contracts/access/Ownable.sol\":2604:2612  newOwner */\n      dup2\n        /* \"@openzeppelin/contracts/access/Ownable.sol\":2573:2613  OwnershipTransferred(oldOwner, newOwner) */\n      0xffffffffffffffffffffffffffffffffffffffff\n      and\n        /* \"@openzeppelin/contracts/access/Ownable.sol\":2594:2602  oldOwner */\n      dup2\n        /* \"@openzeppelin/contracts/access/Ownable.sol\":2573:2613  OwnershipTransferred(oldOwner, newOwner) */\n      0xffffffffffffffffffffffffffffffffffffffff\n      and\n      0x8be0079c531659141344cd1fd0a4f28419497f9722a3daafe3b4186f6b6457e0\n      mload(0x40)\n      mload(0x40)\n      dup1\n      swap2\n      sub\n      swap1\n      log3\n        /* \"@openzeppelin/contracts/access/Ownable.sol\":2496:2620  {... */\n      pop\n        /* \"@openzeppelin/contracts/access/Ownable.sol\":2433:2620  function _transferOwnership(address newOwner) internal virtual {... */\n      pop\n      jump\t// out\n        /* \"contracts/DataOnboarderSigner.sol\":629:1136  function _hash(DataSourceLink memory result) internal view returns (bytes32) {\r... */\n    tag_80:\n        /* \"contracts/DataOnboarderSigner.sol\":697:704  bytes32 */\n      0x00\n        /* \"contracts/DataOnboarderSigner.sol\":724:1128  _hashTypedDataV4(\r... */\n      tag_92\n        /* \"contracts/DataOnboarderSigner.sol\":816:913  keccak256(\"DataSourceLink(string profile_uid,string platform_name,address corresponding_pubkey)\") */\n      0x9980e35fd3e98fb83ed8ba021944828eb14149855296a1d36bc6313f56ef5aa6\n        /* \"contracts/DataOnboarderSigner.sol\":952:958  result */\n      dup4\n        /* \"contracts/DataOnboarderSigner.sol\":952:970  result.profile_uid */\n      0x00\n      add\n      mload\n        /* \"contracts/DataOnboarderSigner.sol\":936:972  keccak256(bytes(result.profile_uid)) */\n      dup1\n      mload\n      swap1\n      0x20\n      add\n      keccak256\n        /* \"contracts/DataOnboarderSigner.sol\":1011:1017  result */\n      dup5\n        /* \"contracts/DataOnboarderSigner.sol\":1011:1031  result.platform_name */\n      0x20\n      add\n      mload\n        /* \"contracts/DataOnboarderSigner.sol\":995:1033  keccak256(bytes(result.platform_name)) */\n      dup1\n      mload\n      swap1\n      0x20\n      add\n      keccak256\n        /* \"contracts/DataOnboarderSigner.sol\":1056:1062  result */\n      dup6\n        /* \"contracts/DataOnboarderSigner.sol\":1056:1083  result.corresponding_pubkey */\n      0x40\n      add\n      mload\n        /* \"contracts/DataOnboarderSigner.sol\":783:1102  abi.encode(\r... */\n      add(0x20, mload(0x40))\n      tag_93\n      swap5\n      swap4\n      swap3\n      swap2\n      swap1\n      tag_94\n      jump\t// in\n    tag_93:\n      mload(0x40)\n      0x20\n      dup2\n      dup4\n      sub\n      sub\n      dup2\n      mstore\n      swap1\n      0x40\n      mstore\n        /* \"contracts/DataOnboarderSigner.sol\":755:1117  keccak256(\r... */\n      dup1\n      mload\n      swap1\n      0x20\n      add\n      keccak256\n        /* \"contracts/DataOnboarderSigner.sol\":724:740  _hashTypedDataV4 */\n      tag_95\n        /* \"contracts/DataOnboarderSigner.sol\":724:1128  _hashTypedDataV4(\r... */\n      jump\t// in\n    tag_92:\n        /* \"contracts/DataOnboarderSigner.sol\":717:1128  return _hashTypedDataV4(\r... */\n      swap1\n      pop\n        /* \"contracts/DataOnboarderSigner.sol\":629:1136  function _hash(DataSourceLink memory result) internal view returns (bytes32) {\r... */\n      swap2\n      swap1\n      pop\n      jump\t// out\n        /* \"@openzeppelin/contracts/utils/cryptography/ECDSA.sol\":3661:3888  function recover(bytes32 hash, bytes memory signature) internal pure returns (address) {... */\n    tag_82:\n        /* \"@openzeppelin/contracts/utils/cryptography/ECDSA.sol\":3739:3746  address */\n      0x00\n        /* \"@openzeppelin/contracts/utils/cryptography/ECDSA.sol\":3759:3776  address recovered */\n      dup1\n        /* \"@openzeppelin/contracts/utils/cryptography/ECDSA.sol\":3778:3796  RecoverError error */\n      0x00\n        /* \"@openzeppelin/contracts/utils/cryptography/ECDSA.sol\":3800:3827  tryRecover(hash, signature) */\n      tag_97\n        /* \"@openzeppelin/contracts/utils/cryptography/ECDSA.sol\":3811:3815  hash */\n      dup6\n        /* \"@openzeppelin/contracts/utils/cryptography/ECDSA.sol\":3817:3826  signature */\n      dup6\n        /* \"@openzeppelin/contracts/utils/cryptography/ECDSA.sol\":3800:3810  tryRecover */\n      tag_98\n        /* \"@openzeppelin/contracts/utils/cryptography/ECDSA.sol\":3800:3827  tryRecover(hash, signature) */\n      jump\t// in\n    tag_97:\n        /* \"@openzeppelin/contracts/utils/cryptography/ECDSA.sol\":3758:3827  (address recovered, RecoverError error) = tryRecover(hash, signature) */\n      swap2\n      pop\n      swap2\n      pop\n        /* \"@openzeppelin/contracts/utils/cryptography/ECDSA.sol\":3837:3855  _throwError(error) */\n      tag_99\n        /* \"@openzeppelin/contracts/utils/cryptography/ECDSA.sol\":3849:3854  error */\n      dup2\n        /* \"@openzeppelin/contracts/utils/cryptography/ECDSA.sol\":3837:3848  _throwError */\n      tag_100\n        /* \"@openzeppelin/contracts/utils/cryptography/ECDSA.sol\":3837:3855  _throwError(error) */\n      jump\t// in\n    tag_99:\n        /* \"@openzeppelin/contracts/utils/cryptography/ECDSA.sol\":3872:3881  recovered */\n      dup2\n        /* \"@openzeppelin/contracts/utils/cryptography/ECDSA.sol\":3865:3881  return recovered */\n      swap3\n      pop\n      pop\n      pop\n        /* \"@openzeppelin/contracts/utils/cryptography/ECDSA.sol\":3661:3888  function recover(bytes32 hash, bytes memory signature) internal pure returns (address) {... */\n      swap3\n      swap2\n      pop\n      pop\n      jump\t// out\n        /* \"@openzeppelin/contracts/utils/Context.sol\":640:736  function _msgSender() internal view virtual returns (address) {... */\n    tag_85:\n        /* \"@openzeppelin/contracts/utils/Context.sol\":693:700  address */\n      0x00\n        /* \"@openzeppelin/contracts/utils/Context.sol\":719:729  msg.sender */\n      caller\n        /* \"@openzeppelin/contracts/utils/Context.sol\":712:729  return msg.sender */\n      swap1\n      pop\n        /* \"@openzeppelin/contracts/utils/Context.sol\":640:736  function _msgSender() internal view virtual returns (address) {... */\n      swap1\n      jump\t// out\n        /* \"@openzeppelin/contracts/utils/cryptography/EIP712.sol\":4348:4513  function _hashTypedDataV4(bytes32 structHash) internal view virtual returns (bytes32) {... */\n    tag_95:\n        /* \"@openzeppelin/contracts/utils/cryptography/EIP712.sol\":4425:4432  bytes32 */\n      0x00\n        /* \"@openzeppelin/contracts/utils/cryptography/EIP712.sol\":4451:4506  ECDSA.toTypedDataHash(_domainSeparatorV4(), structHash) */\n      tag_103\n        /* \"@openzeppelin/contracts/utils/cryptography/EIP712.sol\":4473:4493  _domainSeparatorV4() */\n      tag_104\n        /* \"@openzeppelin/contracts/utils/cryptography/EIP712.sol\":4473:4491  _domainSeparatorV4 */\n      tag_105\n        /* \"@openzeppelin/contracts/utils/cryptography/EIP712.sol\":4473:4493  _domainSeparatorV4() */\n      jump\t// in\n    tag_104:\n        /* \"@openzeppelin/contracts/utils/cryptography/EIP712.sol\":4495:4505  structHash */\n      dup4\n        /* \"@openzeppelin/contracts/utils/cryptography/EIP712.sol\":4451:4472  ECDSA.toTypedDataHash */\n      tag_106\n        /* \"@openzeppelin/contracts/utils/cryptography/EIP712.sol\":4451:4506  ECDSA.toTypedDataHash(_domainSeparatorV4(), structHash) */\n      jump\t// in\n    tag_103:\n        /* \"@openzeppelin/contracts/utils/cryptography/EIP712.sol\":4444:4506  return ECDSA.toTypedDataHash(_domainSeparatorV4(), structHash) */\n      swap1\n      pop\n        /* \"@openzeppelin/contracts/utils/cryptography/EIP712.sol\":4348:4513  function _hashTypedDataV4(bytes32 structHash) internal view virtual returns (bytes32) {... */\n      swap2\n      swap1\n      pop\n      jump\t// out\n        /* \"@openzeppelin/contracts/utils/cryptography/ECDSA.sol\":2145:2875  function tryRecover(bytes32 hash, bytes memory signature) internal pure returns (address, RecoverError) {... */\n    tag_98:\n        /* \"@openzeppelin/contracts/utils/cryptography/ECDSA.sol\":2226:2233  address */\n      0x00\n        /* \"@openzeppelin/contracts/utils/cryptography/ECDSA.sol\":2235:2247  RecoverError */\n      dup1\n        /* \"@openzeppelin/contracts/utils/cryptography/ECDSA.sol\":2283:2285  65 */\n      0x41\n        /* \"@openzeppelin/contracts/utils/cryptography/ECDSA.sol\":2263:2272  signature */\n      dup4\n        /* \"@openzeppelin/contracts/utils/cryptography/ECDSA.sol\":2263:2279  signature.length */\n      mload\n        /* \"@openzeppelin/contracts/utils/cryptography/ECDSA.sol\":2263:2285  signature.length == 65 */\n      eq\n        /* \"@openzeppelin/contracts/utils/cryptography/ECDSA.sol\":2259:2869  if (signature.length == 65) {... */\n      iszero\n      tag_108\n      jumpi\n        /* \"@openzeppelin/contracts/utils/cryptography/ECDSA.sol\":2301:2310  bytes32 r */\n      0x00\n        /* \"@openzeppelin/contracts/utils/cryptography/ECDSA.sol\":2324:2333  bytes32 s */\n      dup1\n        /* \"@openzeppelin/contracts/utils/cryptography/ECDSA.sol\":2347:2354  uint8 v */\n      0x00\n        /* \"@openzeppelin/contracts/utils/cryptography/ECDSA.sol\":2599:2603  0x20 */\n      0x20\n        /* \"@openzeppelin/contracts/utils/cryptography/ECDSA.sol\":2588:2597  signature */\n      dup7\n        /* \"@openzeppelin/contracts/utils/cryptography/ECDSA.sol\":2584:2604  add(signature, 0x20) */\n      add\n        /* \"@openzeppelin/contracts/utils/cryptography/ECDSA.sol\":2578:2605  mload(add(signature, 0x20)) */\n      mload\n        /* \"@openzeppelin/contracts/utils/cryptography/ECDSA.sol\":2573:2605  r := mload(add(signature, 0x20)) */\n      swap3\n      pop\n        /* \"@openzeppelin/contracts/utils/cryptography/ECDSA.sol\":2648:2652  0x40 */\n      0x40\n        /* \"@openzeppelin/contracts/utils/cryptography/ECDSA.sol\":2637:2646  signature */\n      dup7\n        /* \"@openzeppelin/contracts/utils/cryptography/ECDSA.sol\":2633:2653  add(signature, 0x40) */\n      add\n        /* \"@openzeppelin/contracts/utils/cryptography/ECDSA.sol\":2627:2654  mload(add(signature, 0x40)) */\n      mload\n        /* \"@openzeppelin/contracts/utils/cryptography/ECDSA.sol\":2622:2654  s := mload(add(signature, 0x40)) */\n      swap2\n      pop\n        /* \"@openzeppelin/contracts/utils/cryptography/ECDSA.sol\":2705:2709  0x60 */\n      0x60\n        /* \"@openzeppelin/contracts/utils/cryptography/ECDSA.sol\":2694:2703  signature */\n      dup7\n        /* \"@openzeppelin/contracts/utils/cryptography/ECDSA.sol\":2690:2710  add(signature, 0x60) */\n      add\n        /* \"@openzeppelin/contracts/utils/cryptography/ECDSA.sol\":2684:2711  mload(add(signature, 0x60)) */\n      mload\n        /* \"@openzeppelin/contracts/utils/cryptography/ECDSA.sol\":2681:2682  0 */\n      0x00\n        /* \"@openzeppelin/contracts/utils/cryptography/ECDSA.sol\":2676:2712  byte(0, mload(add(signature, 0x60))) */\n      byte\n        /* \"@openzeppelin/contracts/utils/cryptography/ECDSA.sol\":2671:2712  v := byte(0, mload(add(signature, 0x60))) */\n      swap1\n      pop\n        /* \"@openzeppelin/contracts/utils/cryptography/ECDSA.sol\":2746:2771  tryRecover(hash, v, r, s) */\n      tag_109\n        /* \"@openzeppelin/contracts/utils/cryptography/ECDSA.sol\":2757:2761  hash */\n      dup8\n        /* \"@openzeppelin/contracts/utils/cryptography/ECDSA.sol\":2763:2764  v */\n      dup3\n        /* \"@openzeppelin/contracts/utils/cryptography/ECDSA.sol\":2766:2767  r */\n      dup6\n        /* \"@openzeppelin/contracts/utils/cryptography/ECDSA.sol\":2769:2770  s */\n      dup6\n        /* \"@openzeppelin/contracts/utils/cryptography/ECDSA.sol\":2746:2756  tryRecover */\n      tag_110\n        /* \"@openzeppelin/contracts/utils/cryptography/ECDSA.sol\":2746:2771  tryRecover(hash, v, r, s) */\n      jump\t// in\n    tag_109:\n        /* \"@openzeppelin/contracts/utils/cryptography/ECDSA.sol\":2739:2771  return tryRecover(hash, v, r, s) */\n      swap5\n      pop\n      swap5\n      pop\n      pop\n      pop\n      pop\n      jump(tag_107)\n        /* \"@openzeppelin/contracts/utils/cryptography/ECDSA.sol\":2259:2869  if (signature.length == 65) {... */\n    tag_108:\n        /* \"@openzeppelin/contracts/utils/cryptography/ECDSA.sol\":2818:2819  0 */\n      0x00\n        /* \"@openzeppelin/contracts/utils/cryptography/ECDSA.sol\":2822:2857  RecoverError.InvalidSignatureLength */\n      0x02\n        /* \"@openzeppelin/contracts/utils/cryptography/ECDSA.sol\":2802:2858  return (address(0), RecoverError.InvalidSignatureLength) */\n      swap2\n      pop\n      swap2\n      pop\n        /* \"@openzeppelin/contracts/utils/cryptography/ECDSA.sol\":2145:2875  function tryRecover(bytes32 hash, bytes memory signature) internal pure returns (address, RecoverError) {... */\n    tag_107:\n      swap3\n      pop\n      swap3\n      swap1\n      pop\n      jump\t// out\n        /* \"@openzeppelin/contracts/utils/cryptography/ECDSA.sol\":570:1081  function _throwError(RecoverError error) private pure {... */\n    tag_100:\n        /* \"@openzeppelin/contracts/utils/cryptography/ECDSA.sol\":647:667  RecoverError.NoError */\n      0x00\n        /* \"@openzeppelin/contracts/utils/cryptography/ECDSA.sol\":638:667  error == RecoverError.NoError */\n      0x04\n      dup2\n      gt\n      iszero\n      tag_113\n      jumpi\n      tag_114\n      tag_115\n      jump\t// in\n    tag_114:\n    tag_113:\n        /* \"@openzeppelin/contracts/utils/cryptography/ECDSA.sol\":638:643  error */\n      dup2\n        /* \"@openzeppelin/contracts/utils/cryptography/ECDSA.sol\":638:667  error == RecoverError.NoError */\n      0x04\n      dup2\n      gt\n      iszero\n      tag_116\n      jumpi\n      tag_117\n      tag_115\n      jump\t// in\n    tag_117:\n    tag_116:\n      eq\n        /* \"@openzeppelin/contracts/utils/cryptography/ECDSA.sol\":634:1075  if (error == RecoverError.NoError) {... */\n      iszero\n      tag_118\n      jumpi\n        /* \"@openzeppelin/contracts/utils/cryptography/ECDSA.sol\":683:690  return; */\n      jump(tag_112)\n        /* \"@openzeppelin/contracts/utils/cryptography/ECDSA.sol\":634:1075  if (error == RecoverError.NoError) {... */\n    tag_118:\n        /* \"@openzeppelin/contracts/utils/cryptography/ECDSA.sol\":743:772  RecoverError.InvalidSignature */\n      0x01\n        /* \"@openzeppelin/contracts/utils/cryptography/ECDSA.sol\":734:772  error == RecoverError.InvalidSignature */\n      0x04\n      dup2\n      gt\n      iszero\n      tag_120\n      jumpi\n      tag_121\n      tag_115\n      jump\t// in\n    tag_121:\n    tag_120:\n        /* \"@openzeppelin/contracts/utils/cryptography/ECDSA.sol\":734:739  error */\n      dup2\n        /* \"@openzeppelin/contracts/utils/cryptography/ECDSA.sol\":734:772  error == RecoverError.InvalidSignature */\n      0x04\n      dup2\n      gt\n      iszero\n      tag_122\n      jumpi\n      tag_123\n      tag_115\n      jump\t// in\n    tag_123:\n    tag_122:\n      eq\n        /* \"@openzeppelin/contracts/utils/cryptography/ECDSA.sol\":730:1075  if (error == RecoverError.InvalidSignature) {... */\n      iszero\n      tag_124\n      jumpi\n        /* \"@openzeppelin/contracts/utils/cryptography/ECDSA.sol\":788:822  revert(\"ECDSA: invalid signature\") */\n      mload(0x40)\n      0x08c379a000000000000000000000000000000000000000000000000000000000\n      dup2\n      mstore\n      0x04\n      add\n      tag_125\n      swap1\n      tag_126\n      jump\t// in\n    tag_125:\n      mload(0x40)\n      dup1\n      swap2\n      sub\n      swap1\n      revert\n        /* \"@openzeppelin/contracts/utils/cryptography/ECDSA.sol\":730:1075  if (error == RecoverError.InvalidSignature) {... */\n    tag_124:\n        /* \"@openzeppelin/contracts/utils/cryptography/ECDSA.sol\":852:887  RecoverError.InvalidSignatureLength */\n      0x02\n        /* \"@openzeppelin/contracts/utils/cryptography/ECDSA.sol\":843:887  error == RecoverError.InvalidSignatureLength */\n      0x04\n      dup2\n      gt\n      iszero\n      tag_128\n      jumpi\n      tag_129\n      tag_115\n      jump\t// in\n    tag_129:\n    tag_128:\n        /* \"@openzeppelin/contracts/utils/cryptography/ECDSA.sol\":843:848  error */\n      dup2\n        /* \"@openzeppelin/contracts/utils/cryptography/ECDSA.sol\":843:887  error == RecoverError.InvalidSignatureLength */\n      0x04\n      dup2\n      gt\n      iszero\n      tag_130\n      jumpi\n      tag_131\n      tag_115\n      jump\t// in\n    tag_131:\n    tag_130:\n      eq\n        /* \"@openzeppelin/contracts/utils/cryptography/ECDSA.sol\":839:1075  if (error == RecoverError.InvalidSignatureLength) {... */\n      iszero\n      tag_132\n      jumpi\n        /* \"@openzeppelin/contracts/utils/cryptography/ECDSA.sol\":903:944  revert(\"ECDSA: invalid signature length\") */\n      mload(0x40)\n      0x08c379a000000000000000000000000000000000000000000000000000000000\n      dup2\n      mstore\n      0x04\n      add\n      tag_133\n      swap1\n      tag_134\n      jump\t// in\n    tag_133:\n      mload(0x40)\n      dup1\n      swap2\n      sub\n      swap1\n      revert\n        /* \"@openzeppelin/contracts/utils/cryptography/ECDSA.sol\":839:1075  if (error == RecoverError.InvalidSignatureLength) {... */\n    tag_132:\n        /* \"@openzeppelin/contracts/utils/cryptography/ECDSA.sol\":974:1004  RecoverError.InvalidSignatureS */\n      0x03\n        /* \"@openzeppelin/contracts/utils/cryptography/ECDSA.sol\":965:1004  error == RecoverError.InvalidSignatureS */\n      0x04\n      dup2\n      gt\n      iszero\n      tag_136\n      jumpi\n      tag_137\n      tag_115\n      jump\t// in\n    tag_137:\n    tag_136:\n        /* \"@openzeppelin/contracts/utils/cryptography/ECDSA.sol\":965:970  error */\n      dup2\n        /* \"@openzeppelin/contracts/utils/cryptography/ECDSA.sol\":965:1004  error == RecoverError.InvalidSignatureS */\n      0x04\n      dup2\n      gt\n      iszero\n      tag_138\n      jumpi\n      tag_139\n      tag_115\n      jump\t// in\n    tag_139:\n    tag_138:\n      eq\n        /* \"@openzeppelin/contracts/utils/cryptography/ECDSA.sol\":961:1075  if (error == RecoverError.InvalidSignatureS) {... */\n      iszero\n      tag_140\n      jumpi\n        /* \"@openzeppelin/contracts/utils/cryptography/ECDSA.sol\":1020:1064  revert(\"ECDSA: invalid signature 's' value\") */\n      mload(0x40)\n      0x08c379a000000000000000000000000000000000000000000000000000000000\n      dup2\n      mstore\n      0x04\n      add\n      tag_141\n      swap1\n      tag_142\n      jump\t// in\n    tag_141:\n      mload(0x40)\n      dup1\n      swap2\n      sub\n      swap1\n      revert\n        /* \"@openzeppelin/contracts/utils/cryptography/ECDSA.sol\":961:1075  if (error == RecoverError.InvalidSignatureS) {... */\n    tag_140:\n        /* \"@openzeppelin/contracts/utils/cryptography/ECDSA.sol\":570:1081  function _throwError(RecoverError error) private pure {... */\n    tag_112:\n      pop\n      jump\t// out\n        /* \"@openzeppelin/contracts/utils/cryptography/EIP712.sol\":3152:3460  function _domainSeparatorV4() internal view returns (bytes32) {... */\n    tag_105:\n        /* \"@openzeppelin/contracts/utils/cryptography/EIP712.sol\":3205:3212  bytes32 */\n      0x00\n        /* \"@openzeppelin/contracts/utils/cryptography/EIP712.sol\":3245:3257  _CACHED_THIS */\n      immutable(\"0x17f9f6c7b1e09d3d1844320c8ed1a68af4fbb1102f099230f06c07fb6e143460\")\n        /* \"@openzeppelin/contracts/utils/cryptography/EIP712.sol\":3228:3257  address(this) == _CACHED_THIS */\n      0xffffffffffffffffffffffffffffffffffffffff\n      and\n        /* \"@openzeppelin/contracts/utils/cryptography/EIP712.sol\":3236:3240  this */\n      address\n        /* \"@openzeppelin/contracts/utils/cryptography/EIP712.sol\":3228:3257  address(this) == _CACHED_THIS */\n      0xffffffffffffffffffffffffffffffffffffffff\n      and\n      eq\n        /* \"@openzeppelin/contracts/utils/cryptography/EIP712.sol\":3228:3294  address(this) == _CACHED_THIS && block.chainid == _CACHED_CHAIN_ID */\n      dup1\n      iszero\n      tag_144\n      jumpi\n      pop\n        /* \"@openzeppelin/contracts/utils/cryptography/EIP712.sol\":3278:3294  _CACHED_CHAIN_ID */\n      immutable(\"0xcf5384ecdd962c51714f0761b3e741fbbed81221f270bc3511a60f72d0d8cd7d\")\n        /* \"@openzeppelin/contracts/utils/cryptography/EIP712.sol\":3261:3274  block.chainid */\n      chainid\n        /* \"@openzeppelin/contracts/utils/cryptography/EIP712.sol\":3261:3294  block.chainid == _CACHED_CHAIN_ID */\n      eq\n        /* \"@openzeppelin/contracts/utils/cryptography/EIP712.sol\":3228:3294  address(this) == _CACHED_THIS && block.chainid == _CACHED_CHAIN_ID */\n    tag_144:\n        /* \"@openzeppelin/contracts/utils/cryptography/EIP712.sol\":3224:3454  if (address(this) == _CACHED_THIS && block.chainid == _CACHED_CHAIN_ID) {... */\n      iszero\n      tag_145\n      jumpi\n        /* \"@openzeppelin/contracts/utils/cryptography/EIP712.sol\":3317:3341  _CACHED_DOMAIN_SEPARATOR */\n      immutable(\"0xc789ed62c0471ea887fe385618241659dfb2b473a8c970202f43d3beabf7a5e4\")\n        /* \"@openzeppelin/contracts/utils/cryptography/EIP712.sol\":3310:3341  return _CACHED_DOMAIN_SEPARATOR */\n      swap1\n      pop\n      jump(tag_143)\n        /* \"@openzeppelin/contracts/utils/cryptography/EIP712.sol\":3224:3454  if (address(this) == _CACHED_THIS && block.chainid == _CACHED_CHAIN_ID) {... */\n    tag_145:\n        /* \"@openzeppelin/contracts/utils/cryptography/EIP712.sol\":3379:3443  _buildDomainSeparator(_TYPE_HASH, _HASHED_NAME, _HASHED_VERSION) */\n      tag_147\n        /* \"@openzeppelin/contracts/utils/cryptography/EIP712.sol\":3401:3411  _TYPE_HASH */\n      immutable(\"0xcab8721890c4a0282eedf7457a9eef71e0286aef15a4e0cdc4e5d20a5c38ddc9\")\n        /* \"@openzeppelin/contracts/utils/cryptography/EIP712.sol\":3413:3425  _HASHED_NAME */\n      immutable(\"0x62436f2808c4896b559574a20128c359e32d25d88f8026d5d47b3442a6b3eabd\")\n        /* \"@openzeppelin/contracts/utils/cryptography/EIP712.sol\":3427:3442  _HASHED_VERSION */\n      immutable(\"0x897a133c923b782c0eb5be242182d01a105b8766edbf31c68f44b2a1201f0476\")\n        /* \"@openzeppelin/contracts/utils/cryptography/EIP712.sol\":3379:3400  _buildDomainSeparator */\n      tag_148\n        /* \"@openzeppelin/contracts/utils/cryptography/EIP712.sol\":3379:3443  _buildDomainSeparator(_TYPE_HASH, _HASHED_NAME, _HASHED_VERSION) */\n      jump\t// in\n    tag_147:\n        /* \"@openzeppelin/contracts/utils/cryptography/EIP712.sol\":3372:3443  return _buildDomainSeparator(_TYPE_HASH, _HASHED_NAME, _HASHED_VERSION) */\n      swap1\n      pop\n        /* \"@openzeppelin/contracts/utils/cryptography/EIP712.sol\":3152:3460  function _domainSeparatorV4() internal view returns (bytes32) {... */\n    tag_143:\n      swap1\n      jump\t// out\n        /* \"@openzeppelin/contracts/utils/cryptography/ECDSA.sol\":8341:8535  function toTypedDataHash(bytes32 domainSeparator, bytes32 structHash) internal pure returns (bytes32) {... */\n    tag_106:\n        /* \"@openzeppelin/contracts/utils/cryptography/ECDSA.sol\":8434:8441  bytes32 */\n      0x00\n        /* \"@openzeppelin/contracts/utils/cryptography/ECDSA.sol\":8499:8514  domainSeparator */\n      dup3\n        /* \"@openzeppelin/contracts/utils/cryptography/ECDSA.sol\":8516:8526  structHash */\n      dup3\n        /* \"@openzeppelin/contracts/utils/cryptography/ECDSA.sol\":8470:8527  abi.encodePacked(\"\\x19\\x01\", domainSeparator, structHash) */\n      add(0x20, mload(0x40))\n      tag_150\n      swap3\n      swap2\n      swap1\n      tag_151\n      jump\t// in\n    tag_150:\n      mload(0x40)\n      0x20\n      dup2\n      dup4\n      sub\n      sub\n      dup2\n      mstore\n      swap1\n      0x40\n      mstore\n        /* \"@openzeppelin/contracts/utils/cryptography/ECDSA.sol\":8460:8528  keccak256(abi.encodePacked(\"\\x19\\x01\", domainSeparator, structHash)) */\n      dup1\n      mload\n      swap1\n      0x20\n      add\n      keccak256\n        /* \"@openzeppelin/contracts/utils/cryptography/ECDSA.sol\":8453:8528  return keccak256(abi.encodePacked(\"\\x19\\x01\", domainSeparator, structHash)) */\n      swap1\n      pop\n        /* \"@openzeppelin/contracts/utils/cryptography/ECDSA.sol\":8341:8535  function toTypedDataHash(bytes32 domainSeparator, bytes32 structHash) internal pure returns (bytes32) {... */\n      swap3\n      swap2\n      pop\n      pop\n      jump\t// out\n        /* \"@openzeppelin/contracts/utils/cryptography/ECDSA.sol\":5069:6563  function tryRecover(... */\n    tag_110:\n        /* \"@openzeppelin/contracts/utils/cryptography/ECDSA.sol\":5195:5202  address */\n      0x00\n        /* \"@openzeppelin/contracts/utils/cryptography/ECDSA.sol\":5204:5216  RecoverError */\n      dup1\n        /* \"@openzeppelin/contracts/utils/cryptography/ECDSA.sol\":6119:6185  0x7FFFFFFFFFFFFFFFFFFFFFFFFFFFFFFF5D576E7357A4501DDFE92F46681B20A0 */\n      0x7fffffffffffffffffffffffffffffff5d576e7357a4501ddfe92f46681b20a0\n        /* \"@openzeppelin/contracts/utils/cryptography/ECDSA.sol\":6114:6115  s */\n      dup4\n        /* \"@openzeppelin/contracts/utils/cryptography/ECDSA.sol\":6106:6116  uint256(s) */\n      0x00\n      shr\n        /* \"@openzeppelin/contracts/utils/cryptography/ECDSA.sol\":6106:6185  uint256(s) > 0x7FFFFFFFFFFFFFFFFFFFFFFFFFFFFFFF5D576E7357A4501DDFE92F46681B20A0 */\n      gt\n        /* \"@openzeppelin/contracts/utils/cryptography/ECDSA.sol\":6102:6263  if (uint256(s) > 0x7FFFFFFFFFFFFFFFFFFFFFFFFFFFFFFF5D576E7357A4501DDFE92F46681B20A0) {... */\n      iszero\n      tag_153\n      jumpi\n        /* \"@openzeppelin/contracts/utils/cryptography/ECDSA.sol\":6217:6218  0 */\n      0x00\n        /* \"@openzeppelin/contracts/utils/cryptography/ECDSA.sol\":6221:6251  RecoverError.InvalidSignatureS */\n      0x03\n        /* \"@openzeppelin/contracts/utils/cryptography/ECDSA.sol\":6201:6252  return (address(0), RecoverError.InvalidSignatureS) */\n      swap2\n      pop\n      swap2\n      pop\n      jump(tag_152)\n        /* \"@openzeppelin/contracts/utils/cryptography/ECDSA.sol\":6102:6263  if (uint256(s) > 0x7FFFFFFFFFFFFFFFFFFFFFFFFFFFFFFF5D576E7357A4501DDFE92F46681B20A0) {... */\n    tag_153:\n        /* \"@openzeppelin/contracts/utils/cryptography/ECDSA.sol\":6357:6371  address signer */\n      0x00\n        /* \"@openzeppelin/contracts/utils/cryptography/ECDSA.sol\":6374:6398  ecrecover(hash, v, r, s) */\n      0x01\n        /* \"@openzeppelin/contracts/utils/cryptography/ECDSA.sol\":6384:6388  hash */\n      dup8\n        /* \"@openzeppelin/contracts/utils/cryptography/ECDSA.sol\":6390:6391  v */\n      dup8\n        /* \"@openzeppelin/contracts/utils/cryptography/ECDSA.sol\":6393:6394  r */\n      dup8\n        /* \"@openzeppelin/contracts/utils/cryptography/ECDSA.sol\":6396:6397  s */\n      dup8\n        /* \"@openzeppelin/contracts/utils/cryptography/ECDSA.sol\":6374:6398  ecrecover(hash, v, r, s) */\n      mload(0x40)\n      0x00\n      dup2\n      mstore\n      0x20\n      add\n      0x40\n      mstore\n      mload(0x40)\n      tag_154\n      swap5\n      swap4\n      swap3\n      swap2\n      swap1\n      tag_155\n      jump\t// in\n    tag_154:\n      0x20\n      mload(0x40)\n      0x20\n      dup2\n      sub\n      swap1\n      dup1\n      dup5\n      sub\n      swap1\n      dup6\n      gas\n      staticcall\n      iszero\n      dup1\n      iszero\n      tag_157\n      jumpi\n      returndatasize\n      0x00\n      dup1\n      returndatacopy\n      revert(0x00, returndatasize)\n    tag_157:\n      pop\n      pop\n      pop\n      mload(sub(mload(0x40), 0x20))\n        /* \"@openzeppelin/contracts/utils/cryptography/ECDSA.sol\":6357:6398  address signer = ecrecover(hash, v, r, s) */\n      swap1\n      pop\n        /* \"@openzeppelin/contracts/utils/cryptography/ECDSA.sol\":6430:6431  0 */\n      0x00\n        /* \"@openzeppelin/contracts/utils/cryptography/ECDSA.sol\":6412:6432  signer == address(0) */\n      0xffffffffffffffffffffffffffffffffffffffff\n      and\n        /* \"@openzeppelin/contracts/utils/cryptography/ECDSA.sol\":6412:6418  signer */\n      dup2\n        /* \"@openzeppelin/contracts/utils/cryptography/ECDSA.sol\":6412:6432  signer == address(0) */\n      0xffffffffffffffffffffffffffffffffffffffff\n      and\n      eq\n        /* \"@openzeppelin/contracts/utils/cryptography/ECDSA.sol\":6408:6509  if (signer == address(0)) {... */\n      iszero\n      tag_158\n      jumpi\n        /* \"@openzeppelin/contracts/utils/cryptography/ECDSA.sol\":6464:6465  0 */\n      0x00\n        /* \"@openzeppelin/contracts/utils/cryptography/ECDSA.sol\":6468:6497  RecoverError.InvalidSignature */\n      0x01\n        /* \"@openzeppelin/contracts/utils/cryptography/ECDSA.sol\":6448:6498  return (address(0), RecoverError.InvalidSignature) */\n      swap3\n      pop\n      swap3\n      pop\n      pop\n      jump(tag_152)\n        /* \"@openzeppelin/contracts/utils/cryptography/ECDSA.sol\":6408:6509  if (signer == address(0)) {... */\n    tag_158:\n        /* \"@openzeppelin/contracts/utils/cryptography/ECDSA.sol\":6527:6533  signer */\n      dup1\n        /* \"@openzeppelin/contracts/utils/cryptography/ECDSA.sol\":6535:6555  RecoverError.NoError */\n      0x00\n        /* \"@openzeppelin/contracts/utils/cryptography/ECDSA.sol\":6519:6556  return (signer, RecoverError.NoError) */\n      swap3\n      pop\n      swap3\n      pop\n      pop\n        /* \"@openzeppelin/contracts/utils/cryptography/ECDSA.sol\":5069:6563  function tryRecover(... */\n    tag_152:\n      swap5\n      pop\n      swap5\n      swap3\n      pop\n      pop\n      pop\n      jump\t// out\n        /* \"@openzeppelin/contracts/utils/cryptography/EIP712.sol\":3466:3723  function _buildDomainSeparator(... */\n    tag_148:\n        /* \"@openzeppelin/contracts/utils/cryptography/EIP712.sol\":3606:3613  bytes32 */\n      0x00\n        /* \"@openzeppelin/contracts/utils/cryptography/EIP712.sol\":3653:3661  typeHash */\n      dup4\n        /* \"@openzeppelin/contracts/utils/cryptography/EIP712.sol\":3663:3671  nameHash */\n      dup4\n        /* \"@openzeppelin/contracts/utils/cryptography/EIP712.sol\":3673:3684  versionHash */\n      dup4\n        /* \"@openzeppelin/contracts/utils/cryptography/EIP712.sol\":3686:3699  block.chainid */\n      chainid\n        /* \"@openzeppelin/contracts/utils/cryptography/EIP712.sol\":3709:3713  this */\n      address\n        /* \"@openzeppelin/contracts/utils/cryptography/EIP712.sol\":3642:3715  abi.encode(typeHash, nameHash, versionHash, block.chainid, address(this)) */\n      add(0x20, mload(0x40))\n      tag_160\n      swap6\n      swap5\n      swap4\n      swap3\n      swap2\n      swap1\n      tag_161\n      jump\t// in\n    tag_160:\n      mload(0x40)\n      0x20\n      dup2\n      dup4\n      sub\n      sub\n      dup2\n      mstore\n      swap1\n      0x40\n      mstore\n        /* \"@openzeppelin/contracts/utils/cryptography/EIP712.sol\":3632:3716  keccak256(abi.encode(typeHash, nameHash, versionHash, block.chainid, address(this))) */\n      dup1\n      mload\n      swap1\n      0x20\n      add\n      keccak256\n        /* \"@openzeppelin/contracts/utils/cryptography/EIP712.sol\":3625:3716  return keccak256(abi.encode(typeHash, nameHash, versionHash, block.chainid, address(this))) */\n      swap1\n      pop\n        /* \"@openzeppelin/contracts/utils/cryptography/EIP712.sol\":3466:3723  function _buildDomainSeparator(... */\n      swap4\n      swap3\n      pop\n      pop\n      pop\n      jump\t// out\n    tag_67:\n      dup3\n      dup1\n      sload\n      tag_162\n      swap1\n      tag_42\n      jump\t// in\n    tag_162:\n      swap1\n      0x00\n      mstore\n      keccak256(0x00, 0x20)\n      swap1\n      0x1f\n      add\n      0x20\n      swap1\n      div\n      dup2\n      add\n      swap3\n      dup3\n      tag_164\n      jumpi\n      0x00\n      dup6\n      sstore\n      jump(tag_163)\n    tag_164:\n      dup3\n      0x1f\n      lt\n      tag_165\n      jumpi\n      dup1\n      mload\n      not(0xff)\n      and\n      dup4\n      dup1\n      add\n      or\n      dup6\n      sstore\n      jump(tag_163)\n    tag_165:\n      dup3\n      dup1\n      add\n      0x01\n      add\n      dup6\n      sstore\n      dup3\n      iszero\n      tag_163\n      jumpi\n      swap2\n      dup3\n      add\n    tag_166:\n      dup3\n      dup2\n      gt\n      iszero\n      tag_167\n      jumpi\n      dup3\n      mload\n      dup3\n      sstore\n      swap2\n      0x20\n      add\n      swap2\n      swap1\n      0x01\n      add\n      swap1\n      jump(tag_166)\n    tag_167:\n    tag_163:\n      pop\n      swap1\n      pop\n      tag_168\n      swap2\n      swap1\n      tag_169\n      jump\t// in\n    tag_168:\n      pop\n      swap1\n      jump\t// out\n    tag_169:\n    tag_170:\n      dup1\n      dup3\n      gt\n      iszero\n      tag_171\n      jumpi\n      0x00\n      dup2\n      0x00\n      swap1\n      sstore\n      pop\n      0x01\n      add\n      jump(tag_170)\n    tag_171:\n      pop\n      swap1\n      jump\t// out\n        /* \"#utility.yul\":7:417   */\n    tag_173:\n        /* \"#utility.yul\":84:89   */\n      0x00\n        /* \"#utility.yul\":109:174   */\n      tag_175\n        /* \"#utility.yul\":125:173   */\n      tag_176\n        /* \"#utility.yul\":166:172   */\n      dup5\n        /* \"#utility.yul\":125:173   */\n      tag_177\n      jump\t// in\n    tag_176:\n        /* \"#utility.yul\":109:174   */\n      tag_178\n      jump\t// in\n    tag_175:\n        /* \"#utility.yul\":100:174   */\n      swap1\n      pop\n        /* \"#utility.yul\":197:203   */\n      dup3\n        /* \"#utility.yul\":190:195   */\n      dup2\n        /* \"#utility.yul\":183:204   */\n      mstore\n        /* \"#utility.yul\":235:239   */\n      0x20\n        /* \"#utility.yul\":228:233   */\n      dup2\n        /* \"#utility.yul\":224:240   */\n      add\n        /* \"#utility.yul\":273:276   */\n      dup5\n        /* \"#utility.yul\":264:270   */\n      dup5\n        /* \"#utility.yul\":259:262   */\n      dup5\n        /* \"#utility.yul\":255:271   */\n      add\n        /* \"#utility.yul\":252:277   */\n      gt\n        /* \"#utility.yul\":249:361   */\n      iszero\n      tag_179\n      jumpi\n        /* \"#utility.yul\":280:359   */\n      tag_180\n      tag_181\n      jump\t// in\n    tag_180:\n        /* \"#utility.yul\":249:361   */\n    tag_179:\n        /* \"#utility.yul\":370:411   */\n      tag_182\n        /* \"#utility.yul\":404:410   */\n      dup5\n        /* \"#utility.yul\":399:402   */\n      dup3\n        /* \"#utility.yul\":394:397   */\n      dup6\n        /* \"#utility.yul\":370:411   */\n      tag_183\n      jump\t// in\n    tag_182:\n        /* \"#utility.yul\":90:417   */\n      pop\n        /* \"#utility.yul\":7:417   */\n      swap4\n      swap3\n      pop\n      pop\n      pop\n      jump\t// out\n        /* \"#utility.yul\":423:835   */\n    tag_184:\n        /* \"#utility.yul\":501:506   */\n      0x00\n        /* \"#utility.yul\":526:592   */\n      tag_186\n        /* \"#utility.yul\":542:591   */\n      tag_187\n        /* \"#utility.yul\":584:590   */\n      dup5\n        /* \"#utility.yul\":542:591   */\n      tag_188\n      jump\t// in\n    tag_187:\n        /* \"#utility.yul\":526:592   */\n      tag_178\n      jump\t// in\n    tag_186:\n        /* \"#utility.yul\":517:592   */\n      swap1\n      pop\n        /* \"#utility.yul\":615:621   */\n      dup3\n        /* \"#utility.yul\":608:613   */\n      dup2\n        /* \"#utility.yul\":601:622   */\n      mstore\n        /* \"#utility.yul\":653:657   */\n      0x20\n        /* \"#utility.yul\":646:651   */\n      dup2\n        /* \"#utility.yul\":642:658   */\n      add\n        /* \"#utility.yul\":691:694   */\n      dup5\n        /* \"#utility.yul\":682:688   */\n      dup5\n        /* \"#utility.yul\":677:680   */\n      dup5\n        /* \"#utility.yul\":673:689   */\n      add\n        /* \"#utility.yul\":670:695   */\n      gt\n        /* \"#utility.yul\":667:779   */\n      iszero\n      tag_189\n      jumpi\n        /* \"#utility.yul\":698:777   */\n      tag_190\n      tag_181\n      jump\t// in\n    tag_190:\n        /* \"#utility.yul\":667:779   */\n    tag_189:\n        /* \"#utility.yul\":788:829   */\n      tag_191\n        /* \"#utility.yul\":822:828   */\n      dup5\n        /* \"#utility.yul\":817:820   */\n      dup3\n        /* \"#utility.yul\":812:815   */\n      dup6\n        /* \"#utility.yul\":788:829   */\n      tag_183\n      jump\t// in\n    tag_191:\n        /* \"#utility.yul\":507:835   */\n      pop\n        /* \"#utility.yul\":423:835   */\n      swap4\n      swap3\n      pop\n      pop\n      pop\n      jump\t// out\n        /* \"#utility.yul\":841:980   */\n    tag_192:\n        /* \"#utility.yul\":887:892   */\n      0x00\n        /* \"#utility.yul\":925:931   */\n      dup2\n        /* \"#utility.yul\":912:932   */\n      calldataload\n        /* \"#utility.yul\":903:932   */\n      swap1\n      pop\n        /* \"#utility.yul\":941:974   */\n      tag_194\n        /* \"#utility.yul\":968:973   */\n      dup2\n        /* \"#utility.yul\":941:974   */\n      tag_195\n      jump\t// in\n    tag_194:\n        /* \"#utility.yul\":841:980   */\n      swap3\n      swap2\n      pop\n      pop\n      jump\t// out\n        /* \"#utility.yul\":999:1337   */\n    tag_196:\n        /* \"#utility.yul\":1054:1059   */\n      0x00\n        /* \"#utility.yul\":1103:1106   */\n      dup3\n        /* \"#utility.yul\":1096:1100   */\n      0x1f\n        /* \"#utility.yul\":1088:1094   */\n      dup4\n        /* \"#utility.yul\":1084:1101   */\n      add\n        /* \"#utility.yul\":1080:1107   */\n      slt\n        /* \"#utility.yul\":1070:1192   */\n      tag_198\n      jumpi\n        /* \"#utility.yul\":1111:1190   */\n      tag_199\n      tag_200\n      jump\t// in\n    tag_199:\n        /* \"#utility.yul\":1070:1192   */\n    tag_198:\n        /* \"#utility.yul\":1228:1234   */\n      dup2\n        /* \"#utility.yul\":1215:1235   */\n      calldataload\n        /* \"#utility.yul\":1253:1331   */\n      tag_201\n        /* \"#utility.yul\":1327:1330   */\n      dup5\n        /* \"#utility.yul\":1319:1325   */\n      dup3\n        /* \"#utility.yul\":1312:1316   */\n      0x20\n        /* \"#utility.yul\":1304:1310   */\n      dup7\n        /* \"#utility.yul\":1300:1317   */\n      add\n        /* \"#utility.yul\":1253:1331   */\n      tag_173\n      jump\t// in\n    tag_201:\n        /* \"#utility.yul\":1244:1331   */\n      swap2\n      pop\n        /* \"#utility.yul\":1060:1337   */\n      pop\n        /* \"#utility.yul\":999:1337   */\n      swap3\n      swap2\n      pop\n      pop\n      jump\t// out\n        /* \"#utility.yul\":1357:1697   */\n    tag_202:\n        /* \"#utility.yul\":1413:1418   */\n      0x00\n        /* \"#utility.yul\":1462:1465   */\n      dup3\n        /* \"#utility.yul\":1455:1459   */\n      0x1f\n        /* \"#utility.yul\":1447:1453   */\n      dup4\n        /* \"#utility.yul\":1443:1460   */\n      add\n        /* \"#utility.yul\":1439:1466   */\n      slt\n        /* \"#utility.yul\":1429:1551   */\n      tag_204\n      jumpi\n        /* \"#utility.yul\":1470:1549   */\n      tag_205\n      tag_200\n      jump\t// in\n    tag_205:\n        /* \"#utility.yul\":1429:1551   */\n    tag_204:\n        /* \"#utility.yul\":1587:1593   */\n      dup2\n        /* \"#utility.yul\":1574:1594   */\n      calldataload\n        /* \"#utility.yul\":1612:1691   */\n      tag_206\n        /* \"#utility.yul\":1687:1690   */\n      dup5\n        /* \"#utility.yul\":1679:1685   */\n      dup3\n        /* \"#utility.yul\":1672:1676   */\n      0x20\n        /* \"#utility.yul\":1664:1670   */\n      dup7\n        /* \"#utility.yul\":1660:1677   */\n      add\n        /* \"#utility.yul\":1612:1691   */\n      tag_184\n      jump\t// in\n    tag_206:\n        /* \"#utility.yul\":1603:1691   */\n      swap2\n      pop\n        /* \"#utility.yul\":1419:1697   */\n      pop\n        /* \"#utility.yul\":1357:1697   */\n      swap3\n      swap2\n      pop\n      pop\n      jump\t// out\n        /* \"#utility.yul\":1752:3201   */\n    tag_207:\n        /* \"#utility.yul\":1833:1838   */\n      0x00\n        /* \"#utility.yul\":1877:1881   */\n      0x80\n        /* \"#utility.yul\":1865:1874   */\n      dup3\n        /* \"#utility.yul\":1860:1863   */\n      dup5\n        /* \"#utility.yul\":1856:1875   */\n      sub\n        /* \"#utility.yul\":1852:1882   */\n      slt\n        /* \"#utility.yul\":1849:1966   */\n      iszero\n      tag_209\n      jumpi\n        /* \"#utility.yul\":1885:1964   */\n      tag_210\n      tag_211\n      jump\t// in\n    tag_210:\n        /* \"#utility.yul\":1849:1966   */\n    tag_209:\n        /* \"#utility.yul\":1984:2005   */\n      tag_212\n        /* \"#utility.yul\":2000:2004   */\n      0x80\n        /* \"#utility.yul\":1984:2005   */\n      tag_178\n      jump\t// in\n    tag_212:\n        /* \"#utility.yul\":1975:2005   */\n      swap1\n      pop\n        /* \"#utility.yul\":2099:2100   */\n      0x00\n        /* \"#utility.yul\":2088:2097   */\n      dup3\n        /* \"#utility.yul\":2084:2101   */\n      add\n        /* \"#utility.yul\":2071:2102   */\n      calldataload\n        /* \"#utility.yul\":2129:2147   */\n      0xffffffffffffffff\n        /* \"#utility.yul\":2121:2127   */\n      dup2\n        /* \"#utility.yul\":2118:2148   */\n      gt\n        /* \"#utility.yul\":2115:2232   */\n      iszero\n      tag_213\n      jumpi\n        /* \"#utility.yul\":2151:2230   */\n      tag_214\n      tag_215\n      jump\t// in\n    tag_214:\n        /* \"#utility.yul\":2115:2232   */\n    tag_213:\n        /* \"#utility.yul\":2271:2330   */\n      tag_216\n        /* \"#utility.yul\":2326:2329   */\n      dup5\n        /* \"#utility.yul\":2317:2323   */\n      dup3\n        /* \"#utility.yul\":2306:2315   */\n      dup6\n        /* \"#utility.yul\":2302:2324   */\n      add\n        /* \"#utility.yul\":2271:2330   */\n      tag_202\n      jump\t// in\n    tag_216:\n        /* \"#utility.yul\":2264:2268   */\n      0x00\n        /* \"#utility.yul\":2257:2262   */\n      dup4\n        /* \"#utility.yul\":2253:2269   */\n      add\n        /* \"#utility.yul\":2246:2331   */\n      mstore\n        /* \"#utility.yul\":2015:2342   */\n      pop\n        /* \"#utility.yul\":2438:2440   */\n      0x20\n        /* \"#utility.yul\":2427:2436   */\n      dup3\n        /* \"#utility.yul\":2423:2441   */\n      add\n        /* \"#utility.yul\":2410:2442   */\n      calldataload\n        /* \"#utility.yul\":2469:2487   */\n      0xffffffffffffffff\n        /* \"#utility.yul\":2461:2467   */\n      dup2\n        /* \"#utility.yul\":2458:2488   */\n      gt\n        /* \"#utility.yul\":2455:2572   */\n      iszero\n      tag_217\n      jumpi\n        /* \"#utility.yul\":2491:2570   */\n      tag_218\n      tag_215\n      jump\t// in\n    tag_218:\n        /* \"#utility.yul\":2455:2572   */\n    tag_217:\n        /* \"#utility.yul\":2611:2670   */\n      tag_219\n        /* \"#utility.yul\":2666:2669   */\n      dup5\n        /* \"#utility.yul\":2657:2663   */\n      dup3\n        /* \"#utility.yul\":2646:2655   */\n      dup6\n        /* \"#utility.yul\":2642:2664   */\n      add\n        /* \"#utility.yul\":2611:2670   */\n      tag_202\n      jump\t// in\n    tag_219:\n        /* \"#utility.yul\":2604:2608   */\n      0x20\n        /* \"#utility.yul\":2597:2602   */\n      dup4\n        /* \"#utility.yul\":2593:2609   */\n      add\n        /* \"#utility.yul\":2586:2671   */\n      mstore\n        /* \"#utility.yul\":2352:2682   */\n      pop\n        /* \"#utility.yul\":2757:2759   */\n      0x40\n        /* \"#utility.yul\":2798:2847   */\n      tag_220\n        /* \"#utility.yul\":2843:2846   */\n      dup5\n        /* \"#utility.yul\":2834:2840   */\n      dup3\n        /* \"#utility.yul\":2823:2832   */\n      dup6\n        /* \"#utility.yul\":2819:2841   */\n      add\n        /* \"#utility.yul\":2798:2847   */\n      tag_192\n      jump\t// in\n    tag_220:\n        /* \"#utility.yul\":2791:2795   */\n      0x40\n        /* \"#utility.yul\":2784:2789   */\n      dup4\n        /* \"#utility.yul\":2780:2796   */\n      add\n        /* \"#utility.yul\":2773:2848   */\n      mstore\n        /* \"#utility.yul\":2692:2859   */\n      pop\n        /* \"#utility.yul\":2951:2953   */\n      0x60\n        /* \"#utility.yul\":2940:2949   */\n      dup3\n        /* \"#utility.yul\":2936:2954   */\n      add\n        /* \"#utility.yul\":2923:2955   */\n      calldataload\n        /* \"#utility.yul\":2982:3000   */\n      0xffffffffffffffff\n        /* \"#utility.yul\":2974:2980   */\n      dup2\n        /* \"#utility.yul\":2971:3001   */\n      gt\n        /* \"#utility.yul\":2968:3085   */\n      iszero\n      tag_221\n      jumpi\n        /* \"#utility.yul\":3004:3083   */\n      tag_222\n      tag_215\n      jump\t// in\n    tag_222:\n        /* \"#utility.yul\":2968:3085   */\n    tag_221:\n        /* \"#utility.yul\":3124:3182   */\n      tag_223\n        /* \"#utility.yul\":3178:3181   */\n      dup5\n        /* \"#utility.yul\":3169:3175   */\n      dup3\n        /* \"#utility.yul\":3158:3167   */\n      dup6\n        /* \"#utility.yul\":3154:3176   */\n      add\n        /* \"#utility.yul\":3124:3182   */\n      tag_196\n      jump\t// in\n    tag_223:\n        /* \"#utility.yul\":3117:3121   */\n      0x60\n        /* \"#utility.yul\":3110:3115   */\n      dup4\n        /* \"#utility.yul\":3106:3122   */\n      add\n        /* \"#utility.yul\":3099:3183   */\n      mstore\n        /* \"#utility.yul\":2869:3194   */\n      pop\n        /* \"#utility.yul\":1752:3201   */\n      swap3\n      swap2\n      pop\n      pop\n      jump\t// out\n        /* \"#utility.yul\":3207:3536   */\n    tag_33:\n        /* \"#utility.yul\":3266:3272   */\n      0x00\n        /* \"#utility.yul\":3315:3317   */\n      0x20\n        /* \"#utility.yul\":3303:3312   */\n      dup3\n        /* \"#utility.yul\":3294:3301   */\n      dup5\n        /* \"#utility.yul\":3290:3313   */\n      sub\n        /* \"#utility.yul\":3286:3318   */\n      slt\n        /* \"#utility.yul\":3283:3402   */\n      iszero\n      tag_225\n      jumpi\n        /* \"#utility.yul\":3321:3400   */\n      tag_226\n      tag_227\n      jump\t// in\n    tag_226:\n        /* \"#utility.yul\":3283:3402   */\n    tag_225:\n        /* \"#utility.yul\":3441:3442   */\n      0x00\n        /* \"#utility.yul\":3466:3519   */\n      tag_228\n        /* \"#utility.yul\":3511:3518   */\n      dup5\n        /* \"#utility.yul\":3502:3508   */\n      dup3\n        /* \"#utility.yul\":3491:3500   */\n      dup6\n        /* \"#utility.yul\":3487:3509   */\n      add\n        /* \"#utility.yul\":3466:3519   */\n      tag_192\n      jump\t// in\n    tag_228:\n        /* \"#utility.yul\":3456:3519   */\n      swap2\n      pop\n        /* \"#utility.yul\":3412:3529   */\n      pop\n        /* \"#utility.yul\":3207:3536   */\n      swap3\n      swap2\n      pop\n      pop\n      jump\t// out\n        /* \"#utility.yul\":3542:4196   */\n    tag_19:\n        /* \"#utility.yul\":3620:3626   */\n      0x00\n        /* \"#utility.yul\":3628:3634   */\n      dup1\n        /* \"#utility.yul\":3677:3679   */\n      0x40\n        /* \"#utility.yul\":3665:3674   */\n      dup4\n        /* \"#utility.yul\":3656:3663   */\n      dup6\n        /* \"#utility.yul\":3652:3675   */\n      sub\n        /* \"#utility.yul\":3648:3680   */\n      slt\n        /* \"#utility.yul\":3645:3764   */\n      iszero\n      tag_230\n      jumpi\n        /* \"#utility.yul\":3683:3762   */\n      tag_231\n      tag_227\n      jump\t// in\n    tag_231:\n        /* \"#utility.yul\":3645:3764   */\n    tag_230:\n        /* \"#utility.yul\":3803:3804   */\n      0x00\n        /* \"#utility.yul\":3828:3881   */\n      tag_232\n        /* \"#utility.yul\":3873:3880   */\n      dup6\n        /* \"#utility.yul\":3864:3870   */\n      dup3\n        /* \"#utility.yul\":3853:3862   */\n      dup7\n        /* \"#utility.yul\":3849:3871   */\n      add\n        /* \"#utility.yul\":3828:3881   */\n      tag_192\n      jump\t// in\n    tag_232:\n        /* \"#utility.yul\":3818:3881   */\n      swap3\n      pop\n        /* \"#utility.yul\":3774:3891   */\n      pop\n        /* \"#utility.yul\":3958:3960   */\n      0x20\n        /* \"#utility.yul\":3947:3956   */\n      dup4\n        /* \"#utility.yul\":3943:3961   */\n      add\n        /* \"#utility.yul\":3930:3962   */\n      calldataload\n        /* \"#utility.yul\":3989:4007   */\n      0xffffffffffffffff\n        /* \"#utility.yul\":3981:3987   */\n      dup2\n        /* \"#utility.yul\":3978:4008   */\n      gt\n        /* \"#utility.yul\":3975:4092   */\n      iszero\n      tag_233\n      jumpi\n        /* \"#utility.yul\":4011:4090   */\n      tag_234\n      tag_235\n      jump\t// in\n    tag_234:\n        /* \"#utility.yul\":3975:4092   */\n    tag_233:\n        /* \"#utility.yul\":4116:4179   */\n      tag_236\n        /* \"#utility.yul\":4171:4178   */\n      dup6\n        /* \"#utility.yul\":4162:4168   */\n      dup3\n        /* \"#utility.yul\":4151:4160   */\n      dup7\n        /* \"#utility.yul\":4147:4169   */\n      add\n        /* \"#utility.yul\":4116:4179   */\n      tag_202\n      jump\t// in\n    tag_236:\n        /* \"#utility.yul\":4106:4179   */\n      swap2\n      pop\n        /* \"#utility.yul\":3901:4189   */\n      pop\n        /* \"#utility.yul\":3542:4196   */\n      swap3\n      pop\n      swap3\n      swap1\n      pop\n      jump\t// out\n        /* \"#utility.yul\":4202:4755   */\n    tag_13:\n        /* \"#utility.yul\":4293:4299   */\n      0x00\n        /* \"#utility.yul\":4342:4344   */\n      0x20\n        /* \"#utility.yul\":4330:4339   */\n      dup3\n        /* \"#utility.yul\":4321:4328   */\n      dup5\n        /* \"#utility.yul\":4317:4340   */\n      sub\n        /* \"#utility.yul\":4313:4345   */\n      slt\n        /* \"#utility.yul\":4310:4429   */\n      iszero\n      tag_238\n      jumpi\n        /* \"#utility.yul\":4348:4427   */\n      tag_239\n      tag_227\n      jump\t// in\n    tag_239:\n        /* \"#utility.yul\":4310:4429   */\n    tag_238:\n        /* \"#utility.yul\":4496:4497   */\n      0x00\n        /* \"#utility.yul\":4485:4494   */\n      dup3\n        /* \"#utility.yul\":4481:4498   */\n      add\n        /* \"#utility.yul\":4468:4499   */\n      calldataload\n        /* \"#utility.yul\":4526:4544   */\n      0xffffffffffffffff\n        /* \"#utility.yul\":4518:4524   */\n      dup2\n        /* \"#utility.yul\":4515:4545   */\n      gt\n        /* \"#utility.yul\":4512:4629   */\n      iszero\n      tag_240\n      jumpi\n        /* \"#utility.yul\":4548:4627   */\n      tag_241\n      tag_235\n      jump\t// in\n    tag_241:\n        /* \"#utility.yul\":4512:4629   */\n    tag_240:\n        /* \"#utility.yul\":4653:4738   */\n      tag_242\n        /* \"#utility.yul\":4730:4737   */\n      dup5\n        /* \"#utility.yul\":4721:4727   */\n      dup3\n        /* \"#utility.yul\":4710:4719   */\n      dup6\n        /* \"#utility.yul\":4706:4728   */\n      add\n        /* \"#utility.yul\":4653:4738   */\n      tag_207\n      jump\t// in\n    tag_242:\n        /* \"#utility.yul\":4643:4738   */\n      swap2\n      pop\n        /* \"#utility.yul\":4439:4748   */\n      pop\n        /* \"#utility.yul\":4202:4755   */\n      swap3\n      swap2\n      pop\n      pop\n      jump\t// out\n        /* \"#utility.yul\":4761:4879   */\n    tag_243:\n        /* \"#utility.yul\":4848:4872   */\n      tag_245\n        /* \"#utility.yul\":4866:4871   */\n      dup2\n        /* \"#utility.yul\":4848:4872   */\n      tag_246\n      jump\t// in\n    tag_245:\n        /* \"#utility.yul\":4843:4846   */\n      dup3\n        /* \"#utility.yul\":4836:4873   */\n      mstore\n        /* \"#utility.yul\":4761:4879   */\n      pop\n      pop\n      jump\t// out\n        /* \"#utility.yul\":4885:5003   */\n    tag_247:\n        /* \"#utility.yul\":4972:4996   */\n      tag_249\n        /* \"#utility.yul\":4990:4995   */\n      dup2\n        /* \"#utility.yul\":4972:4996   */\n      tag_250\n      jump\t// in\n    tag_249:\n        /* \"#utility.yul\":4967:4970   */\n      dup3\n        /* \"#utility.yul\":4960:4997   */\n      mstore\n        /* \"#utility.yul\":4885:5003   */\n      pop\n      pop\n      jump\t// out\n        /* \"#utility.yul\":5009:5166   */\n    tag_251:\n        /* \"#utility.yul\":5114:5159   */\n      tag_253\n        /* \"#utility.yul\":5134:5158   */\n      tag_254\n        /* \"#utility.yul\":5152:5157   */\n      dup3\n        /* \"#utility.yul\":5134:5158   */\n      tag_250\n      jump\t// in\n    tag_254:\n        /* \"#utility.yul\":5114:5159   */\n      tag_255\n      jump\t// in\n    tag_253:\n        /* \"#utility.yul\":5109:5112   */\n      dup3\n        /* \"#utility.yul\":5102:5160   */\n      mstore\n        /* \"#utility.yul\":5009:5166   */\n      pop\n      pop\n      jump\t// out\n        /* \"#utility.yul\":5172:5536   */\n    tag_256:\n        /* \"#utility.yul\":5260:5263   */\n      0x00\n        /* \"#utility.yul\":5288:5327   */\n      tag_258\n        /* \"#utility.yul\":5321:5326   */\n      dup3\n        /* \"#utility.yul\":5288:5327   */\n      tag_259\n      jump\t// in\n    tag_258:\n        /* \"#utility.yul\":5343:5414   */\n      tag_260\n        /* \"#utility.yul\":5407:5413   */\n      dup2\n        /* \"#utility.yul\":5402:5405   */\n      dup6\n        /* \"#utility.yul\":5343:5414   */\n      tag_261\n      jump\t// in\n    tag_260:\n        /* \"#utility.yul\":5336:5414   */\n      swap4\n      pop\n        /* \"#utility.yul\":5423:5475   */\n      tag_262\n        /* \"#utility.yul\":5468:5474   */\n      dup2\n        /* \"#utility.yul\":5463:5466   */\n      dup6\n        /* \"#utility.yul\":5456:5460   */\n      0x20\n        /* \"#utility.yul\":5449:5454   */\n      dup7\n        /* \"#utility.yul\":5445:5461   */\n      add\n        /* \"#utility.yul\":5423:5475   */\n      tag_263\n      jump\t// in\n    tag_262:\n        /* \"#utility.yul\":5500:5529   */\n      tag_264\n        /* \"#utility.yul\":5522:5528   */\n      dup2\n        /* \"#utility.yul\":5500:5529   */\n      tag_265\n      jump\t// in\n    tag_264:\n        /* \"#utility.yul\":5495:5498   */\n      dup5\n        /* \"#utility.yul\":5491:5530   */\n      add\n        /* \"#utility.yul\":5484:5530   */\n      swap2\n      pop\n        /* \"#utility.yul\":5264:5536   */\n      pop\n        /* \"#utility.yul\":5172:5536   */\n      swap3\n      swap2\n      pop\n      pop\n      jump\t// out\n        /* \"#utility.yul\":5542:5919   */\n    tag_266:\n        /* \"#utility.yul\":5648:5651   */\n      0x00\n        /* \"#utility.yul\":5676:5715   */\n      tag_268\n        /* \"#utility.yul\":5709:5714   */\n      dup3\n        /* \"#utility.yul\":5676:5715   */\n      tag_259\n      jump\t// in\n    tag_268:\n        /* \"#utility.yul\":5731:5820   */\n      tag_269\n        /* \"#utility.yul\":5813:5819   */\n      dup2\n        /* \"#utility.yul\":5808:5811   */\n      dup6\n        /* \"#utility.yul\":5731:5820   */\n      tag_270\n      jump\t// in\n    tag_269:\n        /* \"#utility.yul\":5724:5820   */\n      swap4\n      pop\n        /* \"#utility.yul\":5829:5881   */\n      tag_271\n        /* \"#utility.yul\":5874:5880   */\n      dup2\n        /* \"#utility.yul\":5869:5872   */\n      dup6\n        /* \"#utility.yul\":5862:5866   */\n      0x20\n        /* \"#utility.yul\":5855:5860   */\n      dup7\n        /* \"#utility.yul\":5851:5867   */\n      add\n        /* \"#utility.yul\":5829:5881   */\n      tag_263\n      jump\t// in\n    tag_271:\n        /* \"#utility.yul\":5906:5912   */\n      dup1\n        /* \"#utility.yul\":5901:5904   */\n      dup5\n        /* \"#utility.yul\":5897:5913   */\n      add\n        /* \"#utility.yul\":5890:5913   */\n      swap2\n      pop\n        /* \"#utility.yul\":5652:5919   */\n      pop\n        /* \"#utility.yul\":5542:5919   */\n      swap3\n      swap2\n      pop\n      pop\n      jump\t// out\n        /* \"#utility.yul\":5925:6291   */\n    tag_272:\n        /* \"#utility.yul\":6067:6070   */\n      0x00\n        /* \"#utility.yul\":6088:6155   */\n      tag_274\n        /* \"#utility.yul\":6152:6154   */\n      0x18\n        /* \"#utility.yul\":6147:6150   */\n      dup4\n        /* \"#utility.yul\":6088:6155   */\n      tag_261\n      jump\t// in\n    tag_274:\n        /* \"#utility.yul\":6081:6155   */\n      swap2\n      pop\n        /* \"#utility.yul\":6164:6257   */\n      tag_275\n        /* \"#utility.yul\":6253:6256   */\n      dup3\n        /* \"#utility.yul\":6164:6257   */\n      tag_276\n      jump\t// in\n    tag_275:\n        /* \"#utility.yul\":6282:6284   */\n      0x20\n        /* \"#utility.yul\":6277:6280   */\n      dup3\n        /* \"#utility.yul\":6273:6285   */\n      add\n        /* \"#utility.yul\":6266:6285   */\n      swap1\n      pop\n        /* \"#utility.yul\":5925:6291   */\n      swap2\n      swap1\n      pop\n      jump\t// out\n        /* \"#utility.yul\":6297:6663   */\n    tag_277:\n        /* \"#utility.yul\":6439:6442   */\n      0x00\n        /* \"#utility.yul\":6460:6527   */\n      tag_279\n        /* \"#utility.yul\":6524:6526   */\n      0x1f\n        /* \"#utility.yul\":6519:6522   */\n      dup4\n        /* \"#utility.yul\":6460:6527   */\n      tag_261\n      jump\t// in\n    tag_279:\n        /* \"#utility.yul\":6453:6527   */\n      swap2\n      pop\n        /* \"#utility.yul\":6536:6629   */\n      tag_280\n        /* \"#utility.yul\":6625:6628   */\n      dup3\n        /* \"#utility.yul\":6536:6629   */\n      tag_281\n      jump\t// in\n    tag_280:\n        /* \"#utility.yul\":6654:6656   */\n      0x20\n        /* \"#utility.yul\":6649:6652   */\n      dup3\n        /* \"#utility.yul\":6645:6657   */\n      add\n        /* \"#utility.yul\":6638:6657   */\n      swap1\n      pop\n        /* \"#utility.yul\":6297:6663   */\n      swap2\n      swap1\n      pop\n      jump\t// out\n        /* \"#utility.yul\":6669:7035   */\n    tag_282:\n        /* \"#utility.yul\":6811:6814   */\n      0x00\n        /* \"#utility.yul\":6832:6899   */\n      tag_284\n        /* \"#utility.yul\":6896:6898   */\n      0x33\n        /* \"#utility.yul\":6891:6894   */\n      dup4\n        /* \"#utility.yul\":6832:6899   */\n      tag_261\n      jump\t// in\n    tag_284:\n        /* \"#utility.yul\":6825:6899   */\n      swap2\n      pop\n        /* \"#utility.yul\":6908:7001   */\n      tag_285\n        /* \"#utility.yul\":6997:7000   */\n      dup3\n        /* \"#utility.yul\":6908:7001   */\n      tag_286\n      jump\t// in\n    tag_285:\n        /* \"#utility.yul\":7026:7028   */\n      0x40\n        /* \"#utility.yul\":7021:7024   */\n      dup3\n        /* \"#utility.yul\":7017:7029   */\n      add\n        /* \"#utility.yul\":7010:7029   */\n      swap1\n      pop\n        /* \"#utility.yul\":6669:7035   */\n      swap2\n      swap1\n      pop\n      jump\t// out\n        /* \"#utility.yul\":7041:7407   */\n    tag_287:\n        /* \"#utility.yul\":7183:7186   */\n      0x00\n        /* \"#utility.yul\":7204:7271   */\n      tag_289\n        /* \"#utility.yul\":7268:7270   */\n      0x1c\n        /* \"#utility.yul\":7263:7266   */\n      dup4\n        /* \"#utility.yul\":7204:7271   */\n      tag_261\n      jump\t// in\n    tag_289:\n        /* \"#utility.yul\":7197:7271   */\n      swap2\n      pop\n        /* \"#utility.yul\":7280:7373   */\n      tag_290\n        /* \"#utility.yul\":7369:7372   */\n      dup3\n        /* \"#utility.yul\":7280:7373   */\n      tag_291\n      jump\t// in\n    tag_290:\n        /* \"#utility.yul\":7398:7400   */\n      0x20\n        /* \"#utility.yul\":7393:7396   */\n      dup3\n        /* \"#utility.yul\":7389:7401   */\n      add\n        /* \"#utility.yul\":7382:7401   */\n      swap1\n      pop\n        /* \"#utility.yul\":7041:7407   */\n      swap2\n      swap1\n      pop\n      jump\t// out\n        /* \"#utility.yul\":7413:7779   */\n    tag_292:\n        /* \"#utility.yul\":7555:7558   */\n      0x00\n        /* \"#utility.yul\":7576:7643   */\n      tag_294\n        /* \"#utility.yul\":7640:7642   */\n      0x26\n        /* \"#utility.yul\":7635:7638   */\n      dup4\n        /* \"#utility.yul\":7576:7643   */\n      tag_261\n      jump\t// in\n    tag_294:\n        /* \"#utility.yul\":7569:7643   */\n      swap2\n      pop\n        /* \"#utility.yul\":7652:7745   */\n      tag_295\n        /* \"#utility.yul\":7741:7744   */\n      dup3\n        /* \"#utility.yul\":7652:7745   */\n      tag_296\n      jump\t// in\n    tag_295:\n        /* \"#utility.yul\":7770:7772   */\n      0x40\n        /* \"#utility.yul\":7765:7768   */\n      dup3\n        /* \"#utility.yul\":7761:7773   */\n      add\n        /* \"#utility.yul\":7754:7773   */\n      swap1\n      pop\n        /* \"#utility.yul\":7413:7779   */\n      swap2\n      swap1\n      pop\n      jump\t// out\n        /* \"#utility.yul\":7785:8185   */\n    tag_297:\n        /* \"#utility.yul\":7945:7948   */\n      0x00\n        /* \"#utility.yul\":7966:8050   */\n      tag_299\n        /* \"#utility.yul\":8048:8049   */\n      0x02\n        /* \"#utility.yul\":8043:8046   */\n      dup4\n        /* \"#utility.yul\":7966:8050   */\n      tag_270\n      jump\t// in\n    tag_299:\n        /* \"#utility.yul\":7959:8050   */\n      swap2\n      pop\n        /* \"#utility.yul\":8059:8152   */\n      tag_300\n        /* \"#utility.yul\":8148:8151   */\n      dup3\n        /* \"#utility.yul\":8059:8152   */\n      tag_301\n      jump\t// in\n    tag_300:\n        /* \"#utility.yul\":8177:8178   */\n      0x02\n        /* \"#utility.yul\":8172:8175   */\n      dup3\n        /* \"#utility.yul\":8168:8179   */\n      add\n        /* \"#utility.yul\":8161:8179   */\n      swap1\n      pop\n        /* \"#utility.yul\":7785:8185   */\n      swap2\n      swap1\n      pop\n      jump\t// out\n        /* \"#utility.yul\":8191:8557   */\n    tag_302:\n        /* \"#utility.yul\":8333:8336   */\n      0x00\n        /* \"#utility.yul\":8354:8421   */\n      tag_304\n        /* \"#utility.yul\":8418:8420   */\n      0x22\n        /* \"#utility.yul\":8413:8416   */\n      dup4\n        /* \"#utility.yul\":8354:8421   */\n      tag_261\n      jump\t// in\n    tag_304:\n        /* \"#utility.yul\":8347:8421   */\n      swap2\n      pop\n        /* \"#utility.yul\":8430:8523   */\n      tag_305\n        /* \"#utility.yul\":8519:8522   */\n      dup3\n        /* \"#utility.yul\":8430:8523   */\n      tag_306\n      jump\t// in\n    tag_305:\n        /* \"#utility.yul\":8548:8550   */\n      0x40\n        /* \"#utility.yul\":8543:8546   */\n      dup3\n        /* \"#utility.yul\":8539:8551   */\n      add\n        /* \"#utility.yul\":8532:8551   */\n      swap1\n      pop\n        /* \"#utility.yul\":8191:8557   */\n      swap2\n      swap1\n      pop\n      jump\t// out\n        /* \"#utility.yul\":8563:8929   */\n    tag_307:\n        /* \"#utility.yul\":8705:8708   */\n      0x00\n        /* \"#utility.yul\":8726:8793   */\n      tag_309\n        /* \"#utility.yul\":8790:8792   */\n      0x20\n        /* \"#utility.yul\":8785:8788   */\n      dup4\n        /* \"#utility.yul\":8726:8793   */\n      tag_261\n      jump\t// in\n    tag_309:\n        /* \"#utility.yul\":8719:8793   */\n      swap2\n      pop\n        /* \"#utility.yul\":8802:8895   */\n      tag_310\n        /* \"#utility.yul\":8891:8894   */\n      dup3\n        /* \"#utility.yul\":8802:8895   */\n      tag_311\n      jump\t// in\n    tag_310:\n        /* \"#utility.yul\":8920:8922   */\n      0x20\n        /* \"#utility.yul\":8915:8918   */\n      dup3\n        /* \"#utility.yul\":8911:8923   */\n      add\n        /* \"#utility.yul\":8904:8923   */\n      swap1\n      pop\n        /* \"#utility.yul\":8563:8929   */\n      swap2\n      swap1\n      pop\n      jump\t// out\n        /* \"#utility.yul\":8935:9053   */\n    tag_312:\n        /* \"#utility.yul\":9022:9046   */\n      tag_314\n        /* \"#utility.yul\":9040:9045   */\n      dup2\n        /* \"#utility.yul\":9022:9046   */\n      tag_315\n      jump\t// in\n    tag_314:\n        /* \"#utility.yul\":9017:9020   */\n      dup3\n        /* \"#utility.yul\":9010:9047   */\n      mstore\n        /* \"#utility.yul\":8935:9053   */\n      pop\n      pop\n      jump\t// out\n        /* \"#utility.yul\":9059:9171   */\n    tag_316:\n        /* \"#utility.yul\":9142:9164   */\n      tag_318\n        /* \"#utility.yul\":9158:9163   */\n      dup2\n        /* \"#utility.yul\":9142:9164   */\n      tag_319\n      jump\t// in\n    tag_318:\n        /* \"#utility.yul\":9137:9140   */\n      dup3\n        /* \"#utility.yul\":9130:9165   */\n      mstore\n        /* \"#utility.yul\":9059:9171   */\n      pop\n      pop\n      jump\t// out\n        /* \"#utility.yul\":9177:9452   */\n    tag_60:\n        /* \"#utility.yul\":9309:9312   */\n      0x00\n        /* \"#utility.yul\":9331:9426   */\n      tag_321\n        /* \"#utility.yul\":9422:9425   */\n      dup3\n        /* \"#utility.yul\":9413:9419   */\n      dup5\n        /* \"#utility.yul\":9331:9426   */\n      tag_266\n      jump\t// in\n    tag_321:\n        /* \"#utility.yul\":9324:9426   */\n      swap2\n      pop\n        /* \"#utility.yul\":9443:9446   */\n      dup2\n        /* \"#utility.yul\":9436:9446   */\n      swap1\n      pop\n        /* \"#utility.yul\":9177:9452   */\n      swap3\n      swap2\n      pop\n      pop\n      jump\t// out\n        /* \"#utility.yul\":9458:10121   */\n    tag_151:\n        /* \"#utility.yul\":9699:9702   */\n      0x00\n        /* \"#utility.yul\":9721:9869   */\n      tag_323\n        /* \"#utility.yul\":9865:9868   */\n      dup3\n        /* \"#utility.yul\":9721:9869   */\n      tag_297\n      jump\t// in\n    tag_323:\n        /* \"#utility.yul\":9714:9869   */\n      swap2\n      pop\n        /* \"#utility.yul\":9879:9954   */\n      tag_324\n        /* \"#utility.yul\":9950:9953   */\n      dup3\n        /* \"#utility.yul\":9941:9947   */\n      dup6\n        /* \"#utility.yul\":9879:9954   */\n      tag_251\n      jump\t// in\n    tag_324:\n        /* \"#utility.yul\":9979:9981   */\n      0x20\n        /* \"#utility.yul\":9974:9977   */\n      dup3\n        /* \"#utility.yul\":9970:9982   */\n      add\n        /* \"#utility.yul\":9963:9982   */\n      swap2\n      pop\n        /* \"#utility.yul\":9992:10067   */\n      tag_325\n        /* \"#utility.yul\":10063:10066   */\n      dup3\n        /* \"#utility.yul\":10054:10060   */\n      dup5\n        /* \"#utility.yul\":9992:10067   */\n      tag_251\n      jump\t// in\n    tag_325:\n        /* \"#utility.yul\":10092:10094   */\n      0x20\n        /* \"#utility.yul\":10087:10090   */\n      dup3\n        /* \"#utility.yul\":10083:10095   */\n      add\n        /* \"#utility.yul\":10076:10095   */\n      swap2\n      pop\n        /* \"#utility.yul\":10112:10115   */\n      dup2\n        /* \"#utility.yul\":10105:10115   */\n      swap1\n      pop\n        /* \"#utility.yul\":9458:10121   */\n      swap4\n      swap3\n      pop\n      pop\n      pop\n      jump\t// out\n        /* \"#utility.yul\":10127:10349   */\n    tag_16:\n        /* \"#utility.yul\":10220:10224   */\n      0x00\n        /* \"#utility.yul\":10258:10260   */\n      0x20\n        /* \"#utility.yul\":10247:10256   */\n      dup3\n        /* \"#utility.yul\":10243:10261   */\n      add\n        /* \"#utility.yul\":10235:10261   */\n      swap1\n      pop\n        /* \"#utility.yul\":10271:10342   */\n      tag_327\n        /* \"#utility.yul\":10339:10340   */\n      0x00\n        /* \"#utility.yul\":10328:10337   */\n      dup4\n        /* \"#utility.yul\":10324:10341   */\n      add\n        /* \"#utility.yul\":10315:10321   */\n      dup5\n        /* \"#utility.yul\":10271:10342   */\n      tag_243\n      jump\t// in\n    tag_327:\n        /* \"#utility.yul\":10127:10349   */\n      swap3\n      swap2\n      pop\n      pop\n      jump\t// out\n        /* \"#utility.yul\":10355:10908   */\n    tag_94:\n        /* \"#utility.yul\":10532:10536   */\n      0x00\n        /* \"#utility.yul\":10570:10573   */\n      0x80\n        /* \"#utility.yul\":10559:10568   */\n      dup3\n        /* \"#utility.yul\":10555:10574   */\n      add\n        /* \"#utility.yul\":10547:10574   */\n      swap1\n      pop\n        /* \"#utility.yul\":10584:10655   */\n      tag_329\n        /* \"#utility.yul\":10652:10653   */\n      0x00\n        /* \"#utility.yul\":10641:10650   */\n      dup4\n        /* \"#utility.yul\":10637:10654   */\n      add\n        /* \"#utility.yul\":10628:10634   */\n      dup8\n        /* \"#utility.yul\":10584:10655   */\n      tag_247\n      jump\t// in\n    tag_329:\n        /* \"#utility.yul\":10665:10737   */\n      tag_330\n        /* \"#utility.yul\":10733:10735   */\n      0x20\n        /* \"#utility.yul\":10722:10731   */\n      dup4\n        /* \"#utility.yul\":10718:10736   */\n      add\n        /* \"#utility.yul\":10709:10715   */\n      dup7\n        /* \"#utility.yul\":10665:10737   */\n      tag_247\n      jump\t// in\n    tag_330:\n        /* \"#utility.yul\":10747:10819   */\n      tag_331\n        /* \"#utility.yul\":10815:10817   */\n      0x40\n        /* \"#utility.yul\":10804:10813   */\n      dup4\n        /* \"#utility.yul\":10800:10818   */\n      add\n        /* \"#utility.yul\":10791:10797   */\n      dup6\n        /* \"#utility.yul\":10747:10819   */\n      tag_247\n      jump\t// in\n    tag_331:\n        /* \"#utility.yul\":10829:10901   */\n      tag_332\n        /* \"#utility.yul\":10897:10899   */\n      0x60\n        /* \"#utility.yul\":10886:10895   */\n      dup4\n        /* \"#utility.yul\":10882:10900   */\n      add\n        /* \"#utility.yul\":10873:10879   */\n      dup5\n        /* \"#utility.yul\":10829:10901   */\n      tag_243\n      jump\t// in\n    tag_332:\n        /* \"#utility.yul\":10355:10908   */\n      swap6\n      swap5\n      pop\n      pop\n      pop\n      pop\n      pop\n      jump\t// out\n        /* \"#utility.yul\":10914:11578   */\n    tag_161:\n        /* \"#utility.yul\":11119:11123   */\n      0x00\n        /* \"#utility.yul\":11157:11160   */\n      0xa0\n        /* \"#utility.yul\":11146:11155   */\n      dup3\n        /* \"#utility.yul\":11142:11161   */\n      add\n        /* \"#utility.yul\":11134:11161   */\n      swap1\n      pop\n        /* \"#utility.yul\":11171:11242   */\n      tag_334\n        /* \"#utility.yul\":11239:11240   */\n      0x00\n        /* \"#utility.yul\":11228:11237   */\n      dup4\n        /* \"#utility.yul\":11224:11241   */\n      add\n        /* \"#utility.yul\":11215:11221   */\n      dup9\n        /* \"#utility.yul\":11171:11242   */\n      tag_247\n      jump\t// in\n    tag_334:\n        /* \"#utility.yul\":11252:11324   */\n      tag_335\n        /* \"#utility.yul\":11320:11322   */\n      0x20\n        /* \"#utility.yul\":11309:11318   */\n      dup4\n        /* \"#utility.yul\":11305:11323   */\n      add\n        /* \"#utility.yul\":11296:11302   */\n      dup8\n        /* \"#utility.yul\":11252:11324   */\n      tag_247\n      jump\t// in\n    tag_335:\n        /* \"#utility.yul\":11334:11406   */\n      tag_336\n        /* \"#utility.yul\":11402:11404   */\n      0x40\n        /* \"#utility.yul\":11391:11400   */\n      dup4\n        /* \"#utility.yul\":11387:11405   */\n      add\n        /* \"#utility.yul\":11378:11384   */\n      dup7\n        /* \"#utility.yul\":11334:11406   */\n      tag_247\n      jump\t// in\n    tag_336:\n        /* \"#utility.yul\":11416:11488   */\n      tag_337\n        /* \"#utility.yul\":11484:11486   */\n      0x60\n        /* \"#utility.yul\":11473:11482   */\n      dup4\n        /* \"#utility.yul\":11469:11487   */\n      add\n        /* \"#utility.yul\":11460:11466   */\n      dup6\n        /* \"#utility.yul\":11416:11488   */\n      tag_312\n      jump\t// in\n    tag_337:\n        /* \"#utility.yul\":11498:11571   */\n      tag_338\n        /* \"#utility.yul\":11566:11569   */\n      0x80\n        /* \"#utility.yul\":11555:11564   */\n      dup4\n        /* \"#utility.yul\":11551:11570   */\n      add\n        /* \"#utility.yul\":11542:11548   */\n      dup5\n        /* \"#utility.yul\":11498:11571   */\n      tag_243\n      jump\t// in\n    tag_338:\n        /* \"#utility.yul\":10914:11578   */\n      swap7\n      swap6\n      pop\n      pop\n      pop\n      pop\n      pop\n      pop\n      jump\t// out\n        /* \"#utility.yul\":11584:12129   */\n    tag_155:\n        /* \"#utility.yul\":11757:11761   */\n      0x00\n        /* \"#utility.yul\":11795:11798   */\n      0x80\n        /* \"#utility.yul\":11784:11793   */\n      dup3\n        /* \"#utility.yul\":11780:11799   */\n      add\n        /* \"#utility.yul\":11772:11799   */\n      swap1\n      pop\n        /* \"#utility.yul\":11809:11880   */\n      tag_340\n        /* \"#utility.yul\":11877:11878   */\n      0x00\n        /* \"#utility.yul\":11866:11875   */\n      dup4\n        /* \"#utility.yul\":11862:11879   */\n      add\n        /* \"#utility.yul\":11853:11859   */\n      dup8\n        /* \"#utility.yul\":11809:11880   */\n      tag_247\n      jump\t// in\n    tag_340:\n        /* \"#utility.yul\":11890:11958   */\n      tag_341\n        /* \"#utility.yul\":11954:11956   */\n      0x20\n        /* \"#utility.yul\":11943:11952   */\n      dup4\n        /* \"#utility.yul\":11939:11957   */\n      add\n        /* \"#utility.yul\":11930:11936   */\n      dup7\n        /* \"#utility.yul\":11890:11958   */\n      tag_316\n      jump\t// in\n    tag_341:\n        /* \"#utility.yul\":11968:12040   */\n      tag_342\n        /* \"#utility.yul\":12036:12038   */\n      0x40\n        /* \"#utility.yul\":12025:12034   */\n      dup4\n        /* \"#utility.yul\":12021:12039   */\n      add\n        /* \"#utility.yul\":12012:12018   */\n      dup6\n        /* \"#utility.yul\":11968:12040   */\n      tag_247\n      jump\t// in\n    tag_342:\n        /* \"#utility.yul\":12050:12122   */\n      tag_343\n        /* \"#utility.yul\":12118:12120   */\n      0x60\n        /* \"#utility.yul\":12107:12116   */\n      dup4\n        /* \"#utility.yul\":12103:12121   */\n      add\n        /* \"#utility.yul\":12094:12100   */\n      dup5\n        /* \"#utility.yul\":12050:12122   */\n      tag_247\n      jump\t// in\n    tag_343:\n        /* \"#utility.yul\":11584:12129   */\n      swap6\n      swap5\n      pop\n      pop\n      pop\n      pop\n      pop\n      jump\t// out\n        /* \"#utility.yul\":12135:12448   */\n    tag_22:\n        /* \"#utility.yul\":12248:12252   */\n      0x00\n        /* \"#utility.yul\":12286:12288   */\n      0x20\n        /* \"#utility.yul\":12275:12284   */\n      dup3\n        /* \"#utility.yul\":12271:12289   */\n      add\n        /* \"#utility.yul\":12263:12289   */\n      swap1\n      pop\n        /* \"#utility.yul\":12335:12344   */\n      dup2\n        /* \"#utility.yul\":12329:12333   */\n      dup2\n        /* \"#utility.yul\":12325:12345   */\n      sub\n        /* \"#utility.yul\":12321:12322   */\n      0x00\n        /* \"#utility.yul\":12310:12319   */\n      dup4\n        /* \"#utility.yul\":12306:12323   */\n      add\n        /* \"#utility.yul\":12299:12346   */\n      mstore\n        /* \"#utility.yul\":12363:12441   */\n      tag_345\n        /* \"#utility.yul\":12436:12440   */\n      dup2\n        /* \"#utility.yul\":12427:12433   */\n      dup5\n        /* \"#utility.yul\":12363:12441   */\n      tag_256\n      jump\t// in\n    tag_345:\n        /* \"#utility.yul\":12355:12441   */\n      swap1\n      pop\n        /* \"#utility.yul\":12135:12448   */\n      swap3\n      swap2\n      pop\n      pop\n      jump\t// out\n        /* \"#utility.yul\":12454:12873   */\n    tag_126:\n        /* \"#utility.yul\":12620:12624   */\n      0x00\n        /* \"#utility.yul\":12658:12660   */\n      0x20\n        /* \"#utility.yul\":12647:12656   */\n      dup3\n        /* \"#utility.yul\":12643:12661   */\n      add\n        /* \"#utility.yul\":12635:12661   */\n      swap1\n      pop\n        /* \"#utility.yul\":12707:12716   */\n      dup2\n        /* \"#utility.yul\":12701:12705   */\n      dup2\n        /* \"#utility.yul\":12697:12717   */\n      sub\n        /* \"#utility.yul\":12693:12694   */\n      0x00\n        /* \"#utility.yul\":12682:12691   */\n      dup4\n        /* \"#utility.yul\":12678:12695   */\n      add\n        /* \"#utility.yul\":12671:12718   */\n      mstore\n        /* \"#utility.yul\":12735:12866   */\n      tag_347\n        /* \"#utility.yul\":12861:12865   */\n      dup2\n        /* \"#utility.yul\":12735:12866   */\n      tag_272\n      jump\t// in\n    tag_347:\n        /* \"#utility.yul\":12727:12866   */\n      swap1\n      pop\n        /* \"#utility.yul\":12454:12873   */\n      swap2\n      swap1\n      pop\n      jump\t// out\n        /* \"#utility.yul\":12879:13298   */\n    tag_134:\n        /* \"#utility.yul\":13045:13049   */\n      0x00\n        /* \"#utility.yul\":13083:13085   */\n      0x20\n        /* \"#utility.yul\":13072:13081   */\n      dup3\n        /* \"#utility.yul\":13068:13086   */\n      add\n        /* \"#utility.yul\":13060:13086   */\n      swap1\n      pop\n        /* \"#utility.yul\":13132:13141   */\n      dup2\n        /* \"#utility.yul\":13126:13130   */\n      dup2\n        /* \"#utility.yul\":13122:13142   */\n      sub\n        /* \"#utility.yul\":13118:13119   */\n      0x00\n        /* \"#utility.yul\":13107:13116   */\n      dup4\n        /* \"#utility.yul\":13103:13120   */\n      add\n        /* \"#utility.yul\":13096:13143   */\n      mstore\n        /* \"#utility.yul\":13160:13291   */\n      tag_349\n        /* \"#utility.yul\":13286:13290   */\n      dup2\n        /* \"#utility.yul\":13160:13291   */\n      tag_277\n      jump\t// in\n    tag_349:\n        /* \"#utility.yul\":13152:13291   */\n      swap1\n      pop\n        /* \"#utility.yul\":12879:13298   */\n      swap2\n      swap1\n      pop\n      jump\t// out\n        /* \"#utility.yul\":13304:13723   */\n    tag_58:\n        /* \"#utility.yul\":13470:13474   */\n      0x00\n        /* \"#utility.yul\":13508:13510   */\n      0x20\n        /* \"#utility.yul\":13497:13506   */\n      dup3\n        /* \"#utility.yul\":13493:13511   */\n      add\n        /* \"#utility.yul\":13485:13511   */\n      swap1\n      pop\n        /* \"#utility.yul\":13557:13566   */\n      dup2\n        /* \"#utility.yul\":13551:13555   */\n      dup2\n        /* \"#utility.yul\":13547:13567   */\n      sub\n        /* \"#utility.yul\":13543:13544   */\n      0x00\n        /* \"#utility.yul\":13532:13541   */\n      dup4\n        /* \"#utility.yul\":13528:13545   */\n      add\n        /* \"#utility.yul\":13521:13568   */\n      mstore\n        /* \"#utility.yul\":13585:13716   */\n      tag_351\n        /* \"#utility.yul\":13711:13715   */\n      dup2\n        /* \"#utility.yul\":13585:13716   */\n      tag_282\n      jump\t// in\n    tag_351:\n        /* \"#utility.yul\":13577:13716   */\n      swap1\n      pop\n        /* \"#utility.yul\":13304:13723   */\n      swap2\n      swap1\n      pop\n      jump\t// out\n        /* \"#utility.yul\":13729:14148   */\n    tag_64:\n        /* \"#utility.yul\":13895:13899   */\n      0x00\n        /* \"#utility.yul\":13933:13935   */\n      0x20\n        /* \"#utility.yul\":13922:13931   */\n      dup3\n        /* \"#utility.yul\":13918:13936   */\n      add\n        /* \"#utility.yul\":13910:13936   */\n      swap1\n      pop\n        /* \"#utility.yul\":13982:13991   */\n      dup2\n        /* \"#utility.yul\":13976:13980   */\n      dup2\n        /* \"#utility.yul\":13972:13992   */\n      sub\n        /* \"#utility.yul\":13968:13969   */\n      0x00\n        /* \"#utility.yul\":13957:13966   */\n      dup4\n        /* \"#utility.yul\":13953:13970   */\n      add\n        /* \"#utility.yul\":13946:13993   */\n      mstore\n        /* \"#utility.yul\":14010:14141   */\n      tag_353\n        /* \"#utility.yul\":14136:14140   */\n      dup2\n        /* \"#utility.yul\":14010:14141   */\n      tag_287\n      jump\t// in\n    tag_353:\n        /* \"#utility.yul\":14002:14141   */\n      swap1\n      pop\n        /* \"#utility.yul\":13729:14148   */\n      swap2\n      swap1\n      pop\n      jump\t// out\n        /* \"#utility.yul\":14154:14573   */\n    tag_76:\n        /* \"#utility.yul\":14320:14324   */\n      0x00\n        /* \"#utility.yul\":14358:14360   */\n      0x20\n        /* \"#utility.yul\":14347:14356   */\n      dup3\n        /* \"#utility.yul\":14343:14361   */\n      add\n        /* \"#utility.yul\":14335:14361   */\n      swap1\n      pop\n        /* \"#utility.yul\":14407:14416   */\n      dup2\n        /* \"#utility.yul\":14401:14405   */\n      dup2\n        /* \"#utility.yul\":14397:14417   */\n      sub\n        /* \"#utility.yul\":14393:14394   */\n      0x00\n        /* \"#utility.yul\":14382:14391   */\n      dup4\n        /* \"#utility.yul\":14378:14395   */\n      add\n        /* \"#utility.yul\":14371:14418   */\n      mstore\n        /* \"#utility.yul\":14435:14566   */\n      tag_355\n        /* \"#utility.yul\":14561:14565   */\n      dup2\n        /* \"#utility.yul\":14435:14566   */\n      tag_292\n      jump\t// in\n    tag_355:\n        /* \"#utility.yul\":14427:14566   */\n      swap1\n      pop\n        /* \"#utility.yul\":14154:14573   */\n      swap2\n      swap1\n      pop\n      jump\t// out\n        /* \"#utility.yul\":14579:14998   */\n    tag_142:\n        /* \"#utility.yul\":14745:14749   */\n      0x00\n        /* \"#utility.yul\":14783:14785   */\n      0x20\n        /* \"#utility.yul\":14772:14781   */\n      dup3\n        /* \"#utility.yul\":14768:14786   */\n      add\n        /* \"#utility.yul\":14760:14786   */\n      swap1\n      pop\n        /* \"#utility.yul\":14832:14841   */\n      dup2\n        /* \"#utility.yul\":14826:14830   */\n      dup2\n        /* \"#utility.yul\":14822:14842   */\n      sub\n        /* \"#utility.yul\":14818:14819   */\n      0x00\n        /* \"#utility.yul\":14807:14816   */\n      dup4\n        /* \"#utility.yul\":14803:14820   */\n      add\n        /* \"#utility.yul\":14796:14843   */\n      mstore\n        /* \"#utility.yul\":14860:14991   */\n      tag_357\n        /* \"#utility.yul\":14986:14990   */\n      dup2\n        /* \"#utility.yul\":14860:14991   */\n      tag_302\n      jump\t// in\n    tag_357:\n        /* \"#utility.yul\":14852:14991   */\n      swap1\n      pop\n        /* \"#utility.yul\":14579:14998   */\n      swap2\n      swap1\n      pop\n      jump\t// out\n        /* \"#utility.yul\":15004:15423   */\n    tag_89:\n        /* \"#utility.yul\":15170:15174   */\n      0x00\n        /* \"#utility.yul\":15208:15210   */\n      0x20\n        /* \"#utility.yul\":15197:15206   */\n      dup3\n        /* \"#utility.yul\":15193:15211   */\n      add\n        /* \"#utility.yul\":15185:15211   */\n      swap1\n      pop\n        /* \"#utility.yul\":15257:15266   */\n      dup2\n        /* \"#utility.yul\":15251:15255   */\n      dup2\n        /* \"#utility.yul\":15247:15267   */\n      sub\n        /* \"#utility.yul\":15243:15244   */\n      0x00\n        /* \"#utility.yul\":15232:15241   */\n      dup4\n        /* \"#utility.yul\":15228:15245   */\n      add\n        /* \"#utility.yul\":15221:15268   */\n      mstore\n        /* \"#utility.yul\":15285:15416   */\n      tag_359\n        /* \"#utility.yul\":15411:15415   */\n      dup2\n        /* \"#utility.yul\":15285:15416   */\n      tag_307\n      jump\t// in\n    tag_359:\n        /* \"#utility.yul\":15277:15416   */\n      swap1\n      pop\n        /* \"#utility.yul\":15004:15423   */\n      swap2\n      swap1\n      pop\n      jump\t// out\n        /* \"#utility.yul\":15429:15558   */\n    tag_178:\n        /* \"#utility.yul\":15463:15469   */\n      0x00\n        /* \"#utility.yul\":15490:15510   */\n      tag_361\n      tag_362\n      jump\t// in\n    tag_361:\n        /* \"#utility.yul\":15480:15510   */\n      swap1\n      pop\n        /* \"#utility.yul\":15519:15552   */\n      tag_363\n        /* \"#utility.yul\":15547:15551   */\n      dup3\n        /* \"#utility.yul\":15539:15545   */\n      dup3\n        /* \"#utility.yul\":15519:15552   */\n      tag_364\n      jump\t// in\n    tag_363:\n        /* \"#utility.yul\":15429:15558   */\n      swap2\n      swap1\n      pop\n      jump\t// out\n        /* \"#utility.yul\":15564:15639   */\n    tag_362:\n        /* \"#utility.yul\":15597:15603   */\n      0x00\n        /* \"#utility.yul\":15630:15632   */\n      0x40\n        /* \"#utility.yul\":15624:15633   */\n      mload\n        /* \"#utility.yul\":15614:15633   */\n      swap1\n      pop\n        /* \"#utility.yul\":15564:15639   */\n      swap1\n      jump\t// out\n        /* \"#utility.yul\":15645:15952   */\n    tag_177:\n        /* \"#utility.yul\":15706:15710   */\n      0x00\n        /* \"#utility.yul\":15796:15814   */\n      0xffffffffffffffff\n        /* \"#utility.yul\":15788:15794   */\n      dup3\n        /* \"#utility.yul\":15785:15815   */\n      gt\n        /* \"#utility.yul\":15782:15838   */\n      iszero\n      tag_367\n      jumpi\n        /* \"#utility.yul\":15818:15836   */\n      tag_368\n      tag_369\n      jump\t// in\n    tag_368:\n        /* \"#utility.yul\":15782:15838   */\n    tag_367:\n        /* \"#utility.yul\":15856:15885   */\n      tag_370\n        /* \"#utility.yul\":15878:15884   */\n      dup3\n        /* \"#utility.yul\":15856:15885   */\n      tag_265\n      jump\t// in\n    tag_370:\n        /* \"#utility.yul\":15848:15885   */\n      swap1\n      pop\n        /* \"#utility.yul\":15940:15944   */\n      0x20\n        /* \"#utility.yul\":15934:15938   */\n      dup2\n        /* \"#utility.yul\":15930:15945   */\n      add\n        /* \"#utility.yul\":15922:15945   */\n      swap1\n      pop\n        /* \"#utility.yul\":15645:15952   */\n      swap2\n      swap1\n      pop\n      jump\t// out\n        /* \"#utility.yul\":15958:16266   */\n    tag_188:\n        /* \"#utility.yul\":16020:16024   */\n      0x00\n        /* \"#utility.yul\":16110:16128   */\n      0xffffffffffffffff\n        /* \"#utility.yul\":16102:16108   */\n      dup3\n        /* \"#utility.yul\":16099:16129   */\n      gt\n        /* \"#utility.yul\":16096:16152   */\n      iszero\n      tag_372\n      jumpi\n        /* \"#utility.yul\":16132:16150   */\n      tag_373\n      tag_369\n      jump\t// in\n    tag_373:\n        /* \"#utility.yul\":16096:16152   */\n    tag_372:\n        /* \"#utility.yul\":16170:16199   */\n      tag_374\n        /* \"#utility.yul\":16192:16198   */\n      dup3\n        /* \"#utility.yul\":16170:16199   */\n      tag_265\n      jump\t// in\n    tag_374:\n        /* \"#utility.yul\":16162:16199   */\n      swap1\n      pop\n        /* \"#utility.yul\":16254:16258   */\n      0x20\n        /* \"#utility.yul\":16248:16252   */\n      dup2\n        /* \"#utility.yul\":16244:16259   */\n      add\n        /* \"#utility.yul\":16236:16259   */\n      swap1\n      pop\n        /* \"#utility.yul\":15958:16266   */\n      swap2\n      swap1\n      pop\n      jump\t// out\n        /* \"#utility.yul\":16272:16371   */\n    tag_259:\n        /* \"#utility.yul\":16324:16330   */\n      0x00\n        /* \"#utility.yul\":16358:16363   */\n      dup2\n        /* \"#utility.yul\":16352:16364   */\n      mload\n        /* \"#utility.yul\":16342:16364   */\n      swap1\n      pop\n        /* \"#utility.yul\":16272:16371   */\n      swap2\n      swap1\n      pop\n      jump\t// out\n        /* \"#utility.yul\":16377:16546   */\n    tag_261:\n        /* \"#utility.yul\":16461:16472   */\n      0x00\n        /* \"#utility.yul\":16495:16501   */\n      dup3\n        /* \"#utility.yul\":16490:16493   */\n      dup3\n        /* \"#utility.yul\":16483:16502   */\n      mstore\n        /* \"#utility.yul\":16535:16539   */\n      0x20\n        /* \"#utility.yul\":16530:16533   */\n      dup3\n        /* \"#utility.yul\":16526:16540   */\n      add\n        /* \"#utility.yul\":16511:16540   */\n      swap1\n      pop\n        /* \"#utility.yul\":16377:16546   */\n      swap3\n      swap2\n      pop\n      pop\n      jump\t// out\n        /* \"#utility.yul\":16552:16700   */\n    tag_270:\n        /* \"#utility.yul\":16654:16665   */\n      0x00\n        /* \"#utility.yul\":16691:16694   */\n      dup2\n        /* \"#utility.yul\":16676:16694   */\n      swap1\n      pop\n        /* \"#utility.yul\":16552:16700   */\n      swap3\n      swap2\n      pop\n      pop\n      jump\t// out\n        /* \"#utility.yul\":16706:16802   */\n    tag_246:\n        /* \"#utility.yul\":16743:16750   */\n      0x00\n        /* \"#utility.yul\":16772:16796   */\n      tag_379\n        /* \"#utility.yul\":16790:16795   */\n      dup3\n        /* \"#utility.yul\":16772:16796   */\n      tag_380\n      jump\t// in\n    tag_379:\n        /* \"#utility.yul\":16761:16796   */\n      swap1\n      pop\n        /* \"#utility.yul\":16706:16802   */\n      swap2\n      swap1\n      pop\n      jump\t// out\n        /* \"#utility.yul\":16808:16885   */\n    tag_250:\n        /* \"#utility.yul\":16845:16852   */\n      0x00\n        /* \"#utility.yul\":16874:16879   */\n      dup2\n        /* \"#utility.yul\":16863:16879   */\n      swap1\n      pop\n        /* \"#utility.yul\":16808:16885   */\n      swap2\n      swap1\n      pop\n      jump\t// out\n        /* \"#utility.yul\":16891:17017   */\n    tag_380:\n        /* \"#utility.yul\":16928:16935   */\n      0x00\n        /* \"#utility.yul\":16968:17010   */\n      0xffffffffffffffffffffffffffffffffffffffff\n        /* \"#utility.yul\":16961:16966   */\n      dup3\n        /* \"#utility.yul\":16957:17011   */\n      and\n        /* \"#utility.yul\":16946:17011   */\n      swap1\n      pop\n        /* \"#utility.yul\":16891:17017   */\n      swap2\n      swap1\n      pop\n      jump\t// out\n        /* \"#utility.yul\":17023:17100   */\n    tag_315:\n        /* \"#utility.yul\":17060:17067   */\n      0x00\n        /* \"#utility.yul\":17089:17094   */\n      dup2\n        /* \"#utility.yul\":17078:17094   */\n      swap1\n      pop\n        /* \"#utility.yul\":17023:17100   */\n      swap2\n      swap1\n      pop\n      jump\t// out\n        /* \"#utility.yul\":17106:17192   */\n    tag_319:\n        /* \"#utility.yul\":17141:17148   */\n      0x00\n        /* \"#utility.yul\":17181:17185   */\n      0xff\n        /* \"#utility.yul\":17174:17179   */\n      dup3\n        /* \"#utility.yul\":17170:17186   */\n      and\n        /* \"#utility.yul\":17159:17186   */\n      swap1\n      pop\n        /* \"#utility.yul\":17106:17192   */\n      swap2\n      swap1\n      pop\n      jump\t// out\n        /* \"#utility.yul\":17198:17352   */\n    tag_183:\n        /* \"#utility.yul\":17282:17288   */\n      dup3\n        /* \"#utility.yul\":17277:17280   */\n      dup2\n        /* \"#utility.yul\":17272:17275   */\n      dup4\n        /* \"#utility.yul\":17259:17289   */\n      calldatacopy\n        /* \"#utility.yul\":17344:17345   */\n      0x00\n        /* \"#utility.yul\":17335:17341   */\n      dup4\n        /* \"#utility.yul\":17330:17333   */\n      dup4\n        /* \"#utility.yul\":17326:17342   */\n      add\n        /* \"#utility.yul\":17319:17346   */\n      mstore\n        /* \"#utility.yul\":17198:17352   */\n      pop\n      pop\n      pop\n      jump\t// out\n        /* \"#utility.yul\":17358:17665   */\n    tag_263:\n        /* \"#utility.yul\":17426:17427   */\n      0x00\n        /* \"#utility.yul\":17436:17549   */\n    tag_387:\n        /* \"#utility.yul\":17450:17456   */\n      dup4\n        /* \"#utility.yul\":17447:17448   */\n      dup2\n        /* \"#utility.yul\":17444:17457   */\n      lt\n        /* \"#utility.yul\":17436:17549   */\n      iszero\n      tag_389\n      jumpi\n        /* \"#utility.yul\":17535:17536   */\n      dup1\n        /* \"#utility.yul\":17530:17533   */\n      dup3\n        /* \"#utility.yul\":17526:17537   */\n      add\n        /* \"#utility.yul\":17520:17538   */\n      mload\n        /* \"#utility.yul\":17516:17517   */\n      dup2\n        /* \"#utility.yul\":17511:17514   */\n      dup5\n        /* \"#utility.yul\":17507:17518   */\n      add\n        /* \"#utility.yul\":17500:17539   */\n      mstore\n        /* \"#utility.yul\":17472:17474   */\n      0x20\n        /* \"#utility.yul\":17469:17470   */\n      dup2\n        /* \"#utility.yul\":17465:17475   */\n      add\n        /* \"#utility.yul\":17460:17475   */\n      swap1\n      pop\n        /* \"#utility.yul\":17436:17549   */\n      jump(tag_387)\n    tag_389:\n        /* \"#utility.yul\":17567:17573   */\n      dup4\n        /* \"#utility.yul\":17564:17565   */\n      dup2\n        /* \"#utility.yul\":17561:17574   */\n      gt\n        /* \"#utility.yul\":17558:17659   */\n      iszero\n      tag_390\n      jumpi\n        /* \"#utility.yul\":17647:17648   */\n      0x00\n        /* \"#utility.yul\":17638:17644   */\n      dup5\n        /* \"#utility.yul\":17633:17636   */\n      dup5\n        /* \"#utility.yul\":17629:17645   */\n      add\n        /* \"#utility.yul\":17622:17649   */\n      mstore\n        /* \"#utility.yul\":17558:17659   */\n    tag_390:\n        /* \"#utility.yul\":17407:17665   */\n      pop\n        /* \"#utility.yul\":17358:17665   */\n      pop\n      pop\n      pop\n      jump\t// out\n        /* \"#utility.yul\":17671:17991   */\n    tag_42:\n        /* \"#utility.yul\":17715:17721   */\n      0x00\n        /* \"#utility.yul\":17752:17753   */\n      0x02\n        /* \"#utility.yul\":17746:17750   */\n      dup3\n        /* \"#utility.yul\":17742:17754   */\n      div\n        /* \"#utility.yul\":17732:17754   */\n      swap1\n      pop\n        /* \"#utility.yul\":17799:17800   */\n      0x01\n        /* \"#utility.yul\":17793:17797   */\n      dup3\n        /* \"#utility.yul\":17789:17801   */\n      and\n        /* \"#utility.yul\":17820:17838   */\n      dup1\n        /* \"#utility.yul\":17810:17891   */\n      tag_392\n      jumpi\n        /* \"#utility.yul\":17876:17880   */\n      0x7f\n        /* \"#utility.yul\":17868:17874   */\n      dup3\n        /* \"#utility.yul\":17864:17881   */\n      and\n        /* \"#utility.yul\":17854:17881   */\n      swap2\n      pop\n        /* \"#utility.yul\":17810:17891   */\n    tag_392:\n        /* \"#utility.yul\":17938:17940   */\n      0x20\n        /* \"#utility.yul\":17930:17936   */\n      dup3\n        /* \"#utility.yul\":17927:17941   */\n      lt\n        /* \"#utility.yul\":17907:17925   */\n      dup2\n        /* \"#utility.yul\":17904:17942   */\n      eq\n        /* \"#utility.yul\":17901:17985   */\n      iszero\n      tag_393\n      jumpi\n        /* \"#utility.yul\":17957:17975   */\n      tag_394\n      tag_395\n      jump\t// in\n    tag_394:\n        /* \"#utility.yul\":17901:17985   */\n    tag_393:\n        /* \"#utility.yul\":17722:17991   */\n      pop\n        /* \"#utility.yul\":17671:17991   */\n      swap2\n      swap1\n      pop\n      jump\t// out\n        /* \"#utility.yul\":17997:18278   */\n    tag_364:\n        /* \"#utility.yul\":18080:18107   */\n      tag_397\n        /* \"#utility.yul\":18102:18106   */\n      dup3\n        /* \"#utility.yul\":18080:18107   */\n      tag_265\n      jump\t// in\n    tag_397:\n        /* \"#utility.yul\":18072:18078   */\n      dup2\n        /* \"#utility.yul\":18068:18108   */\n      add\n        /* \"#utility.yul\":18210:18216   */\n      dup2\n        /* \"#utility.yul\":18198:18208   */\n      dup2\n        /* \"#utility.yul\":18195:18217   */\n      lt\n        /* \"#utility.yul\":18174:18192   */\n      0xffffffffffffffff\n        /* \"#utility.yul\":18162:18172   */\n      dup3\n        /* \"#utility.yul\":18159:18193   */\n      gt\n        /* \"#utility.yul\":18156:18218   */\n      or\n        /* \"#utility.yul\":18153:18241   */\n      iszero\n      tag_398\n      jumpi\n        /* \"#utility.yul\":18221:18239   */\n      tag_399\n      tag_369\n      jump\t// in\n    tag_399:\n        /* \"#utility.yul\":18153:18241   */\n    tag_398:\n        /* \"#utility.yul\":18261:18271   */\n      dup1\n        /* \"#utility.yul\":18257:18259   */\n      0x40\n        /* \"#utility.yul\":18250:18272   */\n      mstore\n        /* \"#utility.yul\":18040:18278   */\n      pop\n        /* \"#utility.yul\":17997:18278   */\n      pop\n      pop\n      jump\t// out\n        /* \"#utility.yul\":18284:18363   */\n    tag_255:\n        /* \"#utility.yul\":18323:18330   */\n      0x00\n        /* \"#utility.yul\":18352:18357   */\n      dup2\n        /* \"#utility.yul\":18341:18357   */\n      swap1\n      pop\n        /* \"#utility.yul\":18284:18363   */\n      swap2\n      swap1\n      pop\n      jump\t// out\n        /* \"#utility.yul\":18369:18549   */\n    tag_115:\n        /* \"#utility.yul\":18417:18494   */\n      0x4e487b7100000000000000000000000000000000000000000000000000000000\n        /* \"#utility.yul\":18414:18415   */\n      0x00\n        /* \"#utility.yul\":18407:18495   */\n      mstore\n        /* \"#utility.yul\":18514:18518   */\n      0x21\n        /* \"#utility.yul\":18511:18512   */\n      0x04\n        /* \"#utility.yul\":18504:18519   */\n      mstore\n        /* \"#utility.yul\":18538:18542   */\n      0x24\n        /* \"#utility.yul\":18535:18536   */\n      0x00\n        /* \"#utility.yul\":18528:18543   */\n      revert\n        /* \"#utility.yul\":18555:18735   */\n    tag_395:\n        /* \"#utility.yul\":18603:18680   */\n      0x4e487b7100000000000000000000000000000000000000000000000000000000\n        /* \"#utility.yul\":18600:18601   */\n      0x00\n        /* \"#utility.yul\":18593:18681   */\n      mstore\n        /* \"#utility.yul\":18700:18704   */\n      0x22\n        /* \"#utility.yul\":18697:18698   */\n      0x04\n        /* \"#utility.yul\":18690:18705   */\n      mstore\n        /* \"#utility.yul\":18724:18728   */\n      0x24\n        /* \"#utility.yul\":18721:18722   */\n      0x00\n        /* \"#utility.yul\":18714:18729   */\n      revert\n        /* \"#utility.yul\":18741:18921   */\n    tag_369:\n        /* \"#utility.yul\":18789:18866   */\n      0x4e487b7100000000000000000000000000000000000000000000000000000000\n        /* \"#utility.yul\":18786:18787   */\n      0x00\n        /* \"#utility.yul\":18779:18867   */\n      mstore\n        /* \"#utility.yul\":18886:18890   */\n      0x41\n        /* \"#utility.yul\":18883:18884   */\n      0x04\n        /* \"#utility.yul\":18876:18891   */\n      mstore\n        /* \"#utility.yul\":18910:18914   */\n      0x24\n        /* \"#utility.yul\":18907:18908   */\n      0x00\n        /* \"#utility.yul\":18900:18915   */\n      revert\n        /* \"#utility.yul\":18927:19044   */\n    tag_200:\n        /* \"#utility.yul\":19036:19037   */\n      0x00\n        /* \"#utility.yul\":19033:19034   */\n      dup1\n        /* \"#utility.yul\":19026:19038   */\n      revert\n        /* \"#utility.yul\":19050:19167   */\n    tag_211:\n        /* \"#utility.yul\":19159:19160   */\n      0x00\n        /* \"#utility.yul\":19156:19157   */\n      dup1\n        /* \"#utility.yul\":19149:19161   */\n      revert\n        /* \"#utility.yul\":19173:19290   */\n    tag_215:\n        /* \"#utility.yul\":19282:19283   */\n      0x00\n        /* \"#utility.yul\":19279:19280   */\n      dup1\n        /* \"#utility.yul\":19272:19284   */\n      revert\n        /* \"#utility.yul\":19296:19413   */\n    tag_181:\n        /* \"#utility.yul\":19405:19406   */\n      0x00\n        /* \"#utility.yul\":19402:19403   */\n      dup1\n        /* \"#utility.yul\":19395:19407   */\n      revert\n        /* \"#utility.yul\":19419:19536   */\n    tag_235:\n        /* \"#utility.yul\":19528:19529   */\n      0x00\n        /* \"#utility.yul\":19525:19526   */\n      dup1\n        /* \"#utility.yul\":19518:19530   */\n      revert\n        /* \"#utility.yul\":19542:19659   */\n    tag_227:\n        /* \"#utility.yul\":19651:19652   */\n      0x00\n        /* \"#utility.yul\":19648:19649   */\n      dup1\n        /* \"#utility.yul\":19641:19653   */\n      revert\n        /* \"#utility.yul\":19665:19767   */\n    tag_265:\n        /* \"#utility.yul\":19706:19712   */\n      0x00\n        /* \"#utility.yul\":19757:19759   */\n      0x1f\n        /* \"#utility.yul\":19753:19760   */\n      not\n        /* \"#utility.yul\":19748:19750   */\n      0x1f\n        /* \"#utility.yul\":19741:19746   */\n      dup4\n        /* \"#utility.yul\":19737:19751   */\n      add\n        /* \"#utility.yul\":19733:19761   */\n      and\n        /* \"#utility.yul\":19723:19761   */\n      swap1\n      pop\n        /* \"#utility.yul\":19665:19767   */\n      swap2\n      swap1\n      pop\n      jump\t// out\n        /* \"#utility.yul\":19773:19947   */\n    tag_276:\n        /* \"#utility.yul\":19913:19939   */\n      0x45434453413a20696e76616c6964207369676e61747572650000000000000000\n        /* \"#utility.yul\":19909:19910   */\n      0x00\n        /* \"#utility.yul\":19901:19907   */\n      dup3\n        /* \"#utility.yul\":19897:19911   */\n      add\n        /* \"#utility.yul\":19890:19940   */\n      mstore\n        /* \"#utility.yul\":19773:19947   */\n      pop\n      jump\t// out\n        /* \"#utility.yul\":19953:20134   */\n    tag_281:\n        /* \"#utility.yul\":20093:20126   */\n      0x45434453413a20696e76616c6964207369676e6174757265206c656e67746800\n        /* \"#utility.yul\":20089:20090   */\n      0x00\n        /* \"#utility.yul\":20081:20087   */\n      dup3\n        /* \"#utility.yul\":20077:20091   */\n      add\n        /* \"#utility.yul\":20070:20127   */\n      mstore\n        /* \"#utility.yul\":19953:20134   */\n      pop\n      jump\t// out\n        /* \"#utility.yul\":20140:20378   */\n    tag_286:\n        /* \"#utility.yul\":20280:20314   */\n      0x496e636f72726563746c79207369676e6564206461746120736f757263652076\n        /* \"#utility.yul\":20276:20277   */\n      0x00\n        /* \"#utility.yul\":20268:20274   */\n      dup3\n        /* \"#utility.yul\":20264:20278   */\n      add\n        /* \"#utility.yul\":20257:20315   */\n      mstore\n        /* \"#utility.yul\":20349:20370   */\n      0x6572696669636174696f6e207265717565737400000000000000000000000000\n        /* \"#utility.yul\":20344:20346   */\n      0x20\n        /* \"#utility.yul\":20336:20342   */\n      dup3\n        /* \"#utility.yul\":20332:20347   */\n      add\n        /* \"#utility.yul\":20325:20371   */\n      mstore\n        /* \"#utility.yul\":20140:20378   */\n      pop\n      jump\t// out\n        /* \"#utility.yul\":20384:20562   */\n    tag_291:\n        /* \"#utility.yul\":20524:20554   */\n      0x4461746120536f7572636520416c726561647920566572696669656400000000\n        /* \"#utility.yul\":20520:20521   */\n      0x00\n        /* \"#utility.yul\":20512:20518   */\n      dup3\n        /* \"#utility.yul\":20508:20522   */\n      add\n        /* \"#utility.yul\":20501:20555   */\n      mstore\n        /* \"#utility.yul\":20384:20562   */\n      pop\n      jump\t// out\n        /* \"#utility.yul\":20568:20793   */\n    tag_296:\n        /* \"#utility.yul\":20708:20742   */\n      0x4f776e61626c653a206e6577206f776e657220697320746865207a65726f2061\n        /* \"#utility.yul\":20704:20705   */\n      0x00\n        /* \"#utility.yul\":20696:20702   */\n      dup3\n        /* \"#utility.yul\":20692:20706   */\n      add\n        /* \"#utility.yul\":20685:20743   */\n      mstore\n        /* \"#utility.yul\":20777:20785   */\n      0x6464726573730000000000000000000000000000000000000000000000000000\n        /* \"#utility.yul\":20772:20774   */\n      0x20\n        /* \"#utility.yul\":20764:20770   */\n      dup3\n        /* \"#utility.yul\":20760:20775   */\n      add\n        /* \"#utility.yul\":20753:20786   */\n      mstore\n        /* \"#utility.yul\":20568:20793   */\n      pop\n      jump\t// out\n        /* \"#utility.yul\":20799:21013   */\n    tag_301:\n        /* \"#utility.yul\":20939:21005   */\n      0x1901000000000000000000000000000000000000000000000000000000000000\n        /* \"#utility.yul\":20935:20936   */\n      0x00\n        /* \"#utility.yul\":20927:20933   */\n      dup3\n        /* \"#utility.yul\":20923:20937   */\n      add\n        /* \"#utility.yul\":20916:21006   */\n      mstore\n        /* \"#utility.yul\":20799:21013   */\n      pop\n      jump\t// out\n        /* \"#utility.yul\":21019:21240   */\n    tag_306:\n        /* \"#utility.yul\":21159:21193   */\n      0x45434453413a20696e76616c6964207369676e6174757265202773272076616c\n        /* \"#utility.yul\":21155:21156   */\n      0x00\n        /* \"#utility.yul\":21147:21153   */\n      dup3\n        /* \"#utility.yul\":21143:21157   */\n      add\n        /* \"#utility.yul\":21136:21194   */\n      mstore\n        /* \"#utility.yul\":21228:21232   */\n      0x7565000000000000000000000000000000000000000000000000000000000000\n        /* \"#utility.yul\":21223:21225   */\n      0x20\n        /* \"#utility.yul\":21215:21221   */\n      dup3\n        /* \"#utility.yul\":21211:21226   */\n      add\n        /* \"#utility.yul\":21204:21233   */\n      mstore\n        /* \"#utility.yul\":21019:21240   */\n      pop\n      jump\t// out\n        /* \"#utility.yul\":21246:21428   */\n    tag_311:\n        /* \"#utility.yul\":21386:21420   */\n      0x4f776e61626c653a2063616c6c6572206973206e6f7420746865206f776e6572\n        /* \"#utility.yul\":21382:21383   */\n      0x00\n        /* \"#utility.yul\":21374:21380   */\n      dup3\n        /* \"#utility.yul\":21370:21384   */\n      add\n        /* \"#utility.yul\":21363:21421   */\n      mstore\n        /* \"#utility.yul\":21246:21428   */\n      pop\n      jump\t// out\n        /* \"#utility.yul\":21434:21556   */\n    tag_195:\n        /* \"#utility.yul\":21507:21531   */\n      tag_420\n        /* \"#utility.yul\":21525:21530   */\n      dup2\n        /* \"#utility.yul\":21507:21531   */\n      tag_246\n      jump\t// in\n    tag_420:\n        /* \"#utility.yul\":21500:21505   */\n      dup2\n        /* \"#utility.yul\":21497:21532   */\n      eq\n        /* \"#utility.yul\":21487:21550   */\n      tag_421\n      jumpi\n        /* \"#utility.yul\":21546:21547   */\n      0x00\n        /* \"#utility.yul\":21543:21544   */\n      dup1\n        /* \"#utility.yul\":21536:21548   */\n      revert\n        /* \"#utility.yul\":21487:21550   */\n    tag_421:\n        /* \"#utility.yul\":21434:21556   */\n      pop\n      jump\t// out\n\n    auxdata: 0xa26469706673582212204fe5e2203bbc38e0ce741ad907cdf4a66529240065a27ee939f26c6e9d41aa9464736f6c63430008070033\n}\n",
				"bytecode": {
					"linkReferences": {},
					"object": "6101406040523480156200001257600080fd5b506040518060400160405280600c81526020017f6a6f75726e616c332e636f6d00000000000000000000000000000000000000008152506040518060400160405280600181526020017f31000000000000000000000000000000000000000000000000000000000000008152508181620000a1620000956200019f60201b60201c565b620001a760201b60201c565b60008280519060200120905060008280519060200120905060007f8b73c3c69bb8fe3d512ecc4cf759cc79239f7b179b0ffacaa9a75d522b39400f90508260e081815250508161010081815250504660a081815250506200010a8184846200026b60201b60201c565b608081815250503073ffffffffffffffffffffffffffffffffffffffff1660c08173ffffffffffffffffffffffffffffffffffffffff1660601b815250508061012081815250505050505050505033600260006101000a81548173ffffffffffffffffffffffffffffffffffffffff021916908373ffffffffffffffffffffffffffffffffffffffff1602179055506200037f565b600033905090565b60008060009054906101000a900473ffffffffffffffffffffffffffffffffffffffff169050816000806101000a81548173ffffffffffffffffffffffffffffffffffffffff021916908373ffffffffffffffffffffffffffffffffffffffff1602179055508173ffffffffffffffffffffffffffffffffffffffff168173ffffffffffffffffffffffffffffffffffffffff167f8be0079c531659141344cd1fd0a4f28419497f9722a3daafe3b4186f6b6457e060405160405180910390a35050565b6000838383463060405160200162000288959493929190620002da565b6040516020818303038152906040528051906020012090509392505050565b620002b28162000337565b82525050565b620002c3816200034b565b82525050565b620002d48162000375565b82525050565b600060a082019050620002f16000830188620002b8565b620003006020830187620002b8565b6200030f6040830186620002b8565b6200031e6060830185620002c9565b6200032d6080830184620002a7565b9695505050505050565b6000620003448262000355565b9050919050565b6000819050919050565b600073ffffffffffffffffffffffffffffffffffffffff82169050919050565b6000819050919050565b60805160a05160c05160601c60e0516101005161012051611718620003d26000396000610996015260006109d8015260006109b7015260006108ec015260006109420152600061096b01526117186000f3fe608060405234801561001057600080fd5b506004361061007d5760003560e01c80638da5cb5b1161005b5780638da5cb5b146100ec578063b24a5e0d1461010a578063b2969a2e14610126578063f2fde38b146101425761007d565b806330f89e291461008257806368dfffbd146100b2578063715018a6146100e2575b600080fd5b61009c60048036038101906100979190610e3f565b61015e565b6040516100a991906110ab565b60405180910390f35b6100cc60048036038101906100c79190610de3565b610170565b6040516100d991906111a3565b60405180910390f35b6100ea610233565b005b6100f4610247565b60405161010191906110ab565b60405180910390f35b610124600480360381019061011f9190610e3f565b610270565b005b610140600480360381019061013b9190610db6565b610431565b005b61015c60048036038101906101579190610db6565b61047d565b005b600061016982610501565b9050919050565b6001602052816000526040600020818051602081018201805184825260208301602085012081835280955050505050506000915091505080546101b2906113e8565b80601f01602080910402602001604051908101604052809291908181526020018280546101de906113e8565b801561022b5780601f106102005761010080835404028352916020019161022b565b820191906000526020600020905b81548152906001019060200180831161020e57829003601f168201915b505050505081565b61023b610525565b61024560006105a3565b565b60008060009054906101000a900473ffffffffffffffffffffffffffffffffffffffff16905090565b6102798161015e565b73ffffffffffffffffffffffffffffffffffffffff16600260009054906101000a900473ffffffffffffffffffffffffffffffffffffffff1673ffffffffffffffffffffffffffffffffffffffff1614610308576040517f08c379a00000000000000000000000000000000000000000000000000000000081526004016102ff90611205565b60405180910390fd5b6000600160003373ffffffffffffffffffffffffffffffffffffffff1673ffffffffffffffffffffffffffffffffffffffff168152602001908152602001600020826020015160405161035b919061105d565b90815260200160405180910390208054610374906113e8565b9050146103b6576040517f08c379a00000000000000000000000000000000000000000000000000000000081526004016103ad90611225565b60405180910390fd5b8060000151600160003373ffffffffffffffffffffffffffffffffffffffff1673ffffffffffffffffffffffffffffffffffffffff168152602001908152602001600020826020015160405161040c919061105d565b9081526020016040518091039020908051906020019061042d929190610b52565b5050565b610439610525565b80600260006101000a81548173ffffffffffffffffffffffffffffffffffffffff021916908373ffffffffffffffffffffffffffffffffffffffff16021790555050565b610485610525565b600073ffffffffffffffffffffffffffffffffffffffff168173ffffffffffffffffffffffffffffffffffffffff1614156104f5576040517f08c379a00000000000000000000000000000000000000000000000000000000081526004016104ec90611245565b60405180910390fd5b6104fe816105a3565b50565b60008061050d83610667565b905061051d8184606001516106df565b915050919050565b61052d610706565b73ffffffffffffffffffffffffffffffffffffffff1661054b610247565b73ffffffffffffffffffffffffffffffffffffffff16146105a1576040517f08c379a000000000000000000000000000000000000000000000000000000000815260040161059890611285565b60405180910390fd5b565b60008060009054906101000a900473ffffffffffffffffffffffffffffffffffffffff169050816000806101000a81548173ffffffffffffffffffffffffffffffffffffffff021916908373ffffffffffffffffffffffffffffffffffffffff1602179055508173ffffffffffffffffffffffffffffffffffffffff168173ffffffffffffffffffffffffffffffffffffffff167f8be0079c531659141344cd1fd0a4f28419497f9722a3daafe3b4186f6b6457e060405160405180910390a35050565b60006106d87f9980e35fd3e98fb83ed8ba021944828eb14149855296a1d36bc6313f56ef5aa683600001518051906020012084602001518051906020012085604001516040516020016106bd94939291906110c6565b6040516020818303038152906040528051906020012061070e565b9050919050565b60008060006106ee8585610728565b915091506106fb8161077a565b819250505092915050565b600033905090565b600061072161071b6108e8565b83610a02565b9050919050565b60008060418351141561076a5760008060006020860151925060408601519150606086015160001a905061075e87828585610a35565b94509450505050610773565b60006002915091505b9250929050565b6000600481111561078e5761078d611455565b5b8160048111156107a1576107a0611455565b5b14156107ac576108e5565b600160048111156107c0576107bf611455565b5b8160048111156107d3576107d2611455565b5b1415610814576040517f08c379a000000000000000000000000000000000000000000000000000000000815260040161080b906111c5565b60405180910390fd5b6002600481111561082857610827611455565b5b81600481111561083b5761083a611455565b5b141561087c576040517f08c379a0000000000000000000000000000000000000000000000000000000008152600401610873906111e5565b60405180910390fd5b600360048111156108905761088f611455565b5b8160048111156108a3576108a2611455565b5b14156108e4576040517f08c379a00000000000000000000000000000000000000000000000000000000081526004016108db90611265565b60405180910390fd5b5b50565b60007f000000000000000000000000000000000000000000000000000000000000000073ffffffffffffffffffffffffffffffffffffffff163073ffffffffffffffffffffffffffffffffffffffff1614801561096457507f000000000000000000000000000000000000000000000000000000000000000046145b15610991577f000000000000000000000000000000000000000000000000000000000000000090506109ff565b6109fc7f00000000000000000000000000000000000000000000000000000000000000007f00000000000000000000000000000000000000000000000000000000000000007f0000000000000000000000000000000000000000000000000000000000000000610b18565b90505b90565b60008282604051602001610a17929190611074565b60405160208183030381529060405280519060200120905092915050565b6000807f7fffffffffffffffffffffffffffffff5d576e7357a4501ddfe92f46681b20a08360001c1115610a70576000600391509150610b0f565b600060018787878760405160008152602001604052604051610a95949392919061115e565b6020604051602081039080840390855afa158015610ab7573d6000803e3d6000fd5b505050602060405103519050600073ffffffffffffffffffffffffffffffffffffffff168173ffffffffffffffffffffffffffffffffffffffff161415610b0657600060019250925050610b0f565b80600092509250505b94509492505050565b60008383834630604051602001610b3395949392919061110b565b6040516020818303038152906040528051906020012090509392505050565b828054610b5e906113e8565b90600052602060002090601f016020900481019282610b805760008555610bc7565b82601f10610b9957805160ff1916838001178555610bc7565b82800160010185558215610bc7579182015b82811115610bc6578251825591602001919060010190610bab565b5b509050610bd49190610bd8565b5090565b5b80821115610bf1576000816000905550600101610bd9565b5090565b6000610c08610c03846112ca565b6112a5565b905082815260208101848484011115610c2457610c236114f1565b5b610c2f8482856113a6565b509392505050565b6000610c4a610c45846112fb565b6112a5565b905082815260208101848484011115610c6657610c656114f1565b5b610c718482856113a6565b509392505050565b600081359050610c88816116cb565b92915050565b600082601f830112610ca357610ca26114e2565b5b8135610cb3848260208601610bf5565b91505092915050565b600082601f830112610cd157610cd06114e2565b5b8135610ce1848260208601610c37565b91505092915050565b600060808284031215610d0057610cff6114e7565b5b610d0a60806112a5565b9050600082013567ffffffffffffffff811115610d2a57610d296114ec565b5b610d3684828501610cbc565b600083015250602082013567ffffffffffffffff811115610d5a57610d596114ec565b5b610d6684828501610cbc565b6020830152506040610d7a84828501610c79565b604083015250606082013567ffffffffffffffff811115610d9e57610d9d6114ec565b5b610daa84828501610c8e565b60608301525092915050565b600060208284031215610dcc57610dcb6114fb565b5b6000610dda84828501610c79565b91505092915050565b60008060408385031215610dfa57610df96114fb565b5b6000610e0885828601610c79565b925050602083013567ffffffffffffffff811115610e2957610e286114f6565b5b610e3585828601610cbc565b9150509250929050565b600060208284031215610e5557610e546114fb565b5b600082013567ffffffffffffffff811115610e7357610e726114f6565b5b610e7f84828501610cea565b91505092915050565b610e9181611353565b82525050565b610ea081611365565b82525050565b610eb7610eb282611365565b61144b565b82525050565b6000610ec88261132c565b610ed28185611337565b9350610ee28185602086016113b5565b610eeb81611500565b840191505092915050565b6000610f018261132c565b610f0b8185611348565b9350610f1b8185602086016113b5565b80840191505092915050565b6000610f34601883611337565b9150610f3f82611511565b602082019050919050565b6000610f57601f83611337565b9150610f628261153a565b602082019050919050565b6000610f7a603383611337565b9150610f8582611563565b604082019050919050565b6000610f9d601c83611337565b9150610fa8826115b2565b602082019050919050565b6000610fc0602683611337565b9150610fcb826115db565b604082019050919050565b6000610fe3600283611348565b9150610fee8261162a565b600282019050919050565b6000611006602283611337565b915061101182611653565b604082019050919050565b6000611029602083611337565b9150611034826116a2565b602082019050919050565b6110488161138f565b82525050565b61105781611399565b82525050565b60006110698284610ef6565b915081905092915050565b600061107f82610fd6565b915061108b8285610ea6565b60208201915061109b8284610ea6565b6020820191508190509392505050565b60006020820190506110c06000830184610e88565b92915050565b60006080820190506110db6000830187610e97565b6110e86020830186610e97565b6110f56040830185610e97565b6111026060830184610e88565b95945050505050565b600060a0820190506111206000830188610e97565b61112d6020830187610e97565b61113a6040830186610e97565b611147606083018561103f565b6111546080830184610e88565b9695505050505050565b60006080820190506111736000830187610e97565b611180602083018661104e565b61118d6040830185610e97565b61119a6060830184610e97565b95945050505050565b600060208201905081810360008301526111bd8184610ebd565b905092915050565b600060208201905081810360008301526111de81610f27565b9050919050565b600060208201905081810360008301526111fe81610f4a565b9050919050565b6000602082019050818103600083015261121e81610f6d565b9050919050565b6000602082019050818103600083015261123e81610f90565b9050919050565b6000602082019050818103600083015261125e81610fb3565b9050919050565b6000602082019050818103600083015261127e81610ff9565b9050919050565b6000602082019050818103600083015261129e8161101c565b9050919050565b60006112af6112c0565b90506112bb828261141a565b919050565b6000604051905090565b600067ffffffffffffffff8211156112e5576112e46114b3565b5b6112ee82611500565b9050602081019050919050565b600067ffffffffffffffff821115611316576113156114b3565b5b61131f82611500565b9050602081019050919050565b600081519050919050565b600082825260208201905092915050565b600081905092915050565b600061135e8261136f565b9050919050565b6000819050919050565b600073ffffffffffffffffffffffffffffffffffffffff82169050919050565b6000819050919050565b600060ff82169050919050565b82818337600083830152505050565b60005b838110156113d35780820151818401526020810190506113b8565b838111156113e2576000848401525b50505050565b6000600282049050600182168061140057607f821691505b6020821081141561141457611413611484565b5b50919050565b61142382611500565b810181811067ffffffffffffffff82111715611442576114416114b3565b5b80604052505050565b6000819050919050565b7f4e487b7100000000000000000000000000000000000000000000000000000000600052602160045260246000fd5b7f4e487b7100000000000000000000000000000000000000000000000000000000600052602260045260246000fd5b7f4e487b7100000000000000000000000000000000000000000000000000000000600052604160045260246000fd5b600080fd5b600080fd5b600080fd5b600080fd5b600080fd5b600080fd5b6000601f19601f8301169050919050565b7f45434453413a20696e76616c6964207369676e61747572650000000000000000600082015250565b7f45434453413a20696e76616c6964207369676e6174757265206c656e67746800600082015250565b7f496e636f72726563746c79207369676e6564206461746120736f75726365207660008201527f6572696669636174696f6e207265717565737400000000000000000000000000602082015250565b7f4461746120536f7572636520416c726561647920566572696669656400000000600082015250565b7f4f776e61626c653a206e6577206f776e657220697320746865207a65726f206160008201527f6464726573730000000000000000000000000000000000000000000000000000602082015250565b7f1901000000000000000000000000000000000000000000000000000000000000600082015250565b7f45434453413a20696e76616c6964207369676e6174757265202773272076616c60008201527f7565000000000000000000000000000000000000000000000000000000000000602082015250565b7f4f776e61626c653a2063616c6c6572206973206e6f7420746865206f776e6572600082015250565b6116d481611353565b81146116df57600080fd5b5056fea26469706673582212204fe5e2203bbc38e0ce741ad907cdf4a66529240065a27ee939f26c6e9d41aa9464736f6c63430008070033",
					"opcodes": "PUSH2 0x140 PUSH1 0x40 MSTORE CALLVALUE DUP1 ISZERO PUSH3 0x12 JUMPI PUSH1 0x0 DUP1 REVERT JUMPDEST POP PUSH1 0x40 MLOAD DUP1 PUSH1 0x40 ADD PUSH1 0x40 MSTORE DUP1 PUSH1 0xC DUP2 MSTORE PUSH1 0x20 ADD PUSH32 0x6A6F75726E616C332E636F6D0000000000000000000000000000000000000000 DUP2 MSTORE POP PUSH1 0x40 MLOAD DUP1 PUSH1 0x40 ADD PUSH1 0x40 MSTORE DUP1 PUSH1 0x1 DUP2 MSTORE PUSH1 0x20 ADD PUSH32 0x3100000000000000000000000000000000000000000000000000000000000000 DUP2 MSTORE POP DUP2 DUP2 PUSH3 0xA1 PUSH3 0x95 PUSH3 0x19F PUSH1 0x20 SHL PUSH1 0x20 SHR JUMP JUMPDEST PUSH3 0x1A7 PUSH1 0x20 SHL PUSH1 0x20 SHR JUMP JUMPDEST PUSH1 0x0 DUP3 DUP1 MLOAD SWAP1 PUSH1 0x20 ADD KECCAK256 SWAP1 POP PUSH1 0x0 DUP3 DUP1 MLOAD SWAP1 PUSH1 0x20 ADD KECCAK256 SWAP1 POP PUSH1 0x0 PUSH32 0x8B73C3C69BB8FE3D512ECC4CF759CC79239F7B179B0FFACAA9A75D522B39400F SWAP1 POP DUP3 PUSH1 0xE0 DUP2 DUP2 MSTORE POP POP DUP2 PUSH2 0x100 DUP2 DUP2 MSTORE POP POP CHAINID PUSH1 0xA0 DUP2 DUP2 MSTORE POP POP PUSH3 0x10A DUP2 DUP5 DUP5 PUSH3 0x26B PUSH1 0x20 SHL PUSH1 0x20 SHR JUMP JUMPDEST PUSH1 0x80 DUP2 DUP2 MSTORE POP POP ADDRESS PUSH20 0xFFFFFFFFFFFFFFFFFFFFFFFFFFFFFFFFFFFFFFFF AND PUSH1 0xC0 DUP2 PUSH20 0xFFFFFFFFFFFFFFFFFFFFFFFFFFFFFFFFFFFFFFFF AND PUSH1 0x60 SHL DUP2 MSTORE POP POP DUP1 PUSH2 0x120 DUP2 DUP2 MSTORE POP POP POP POP POP POP POP POP POP CALLER PUSH1 0x2 PUSH1 0x0 PUSH2 0x100 EXP DUP2 SLOAD DUP2 PUSH20 0xFFFFFFFFFFFFFFFFFFFFFFFFFFFFFFFFFFFFFFFF MUL NOT AND SWAP1 DUP4 PUSH20 0xFFFFFFFFFFFFFFFFFFFFFFFFFFFFFFFFFFFFFFFF AND MUL OR SWAP1 SSTORE POP PUSH3 0x37F JUMP JUMPDEST PUSH1 0x0 CALLER SWAP1 POP SWAP1 JUMP JUMPDEST PUSH1 0x0 DUP1 PUSH1 0x0 SWAP1 SLOAD SWAP1 PUSH2 0x100 EXP SWAP1 DIV PUSH20 0xFFFFFFFFFFFFFFFFFFFFFFFFFFFFFFFFFFFFFFFF AND SWAP1 POP DUP2 PUSH1 0x0 DUP1 PUSH2 0x100 EXP DUP2 SLOAD DUP2 PUSH20 0xFFFFFFFFFFFFFFFFFFFFFFFFFFFFFFFFFFFFFFFF MUL NOT AND SWAP1 DUP4 PUSH20 0xFFFFFFFFFFFFFFFFFFFFFFFFFFFFFFFFFFFFFFFF AND MUL OR SWAP1 SSTORE POP DUP2 PUSH20 0xFFFFFFFFFFFFFFFFFFFFFFFFFFFFFFFFFFFFFFFF AND DUP2 PUSH20 0xFFFFFFFFFFFFFFFFFFFFFFFFFFFFFFFFFFFFFFFF AND PUSH32 0x8BE0079C531659141344CD1FD0A4F28419497F9722A3DAAFE3B4186F6B6457E0 PUSH1 0x40 MLOAD PUSH1 0x40 MLOAD DUP1 SWAP2 SUB SWAP1 LOG3 POP POP JUMP JUMPDEST PUSH1 0x0 DUP4 DUP4 DUP4 CHAINID ADDRESS PUSH1 0x40 MLOAD PUSH1 0x20 ADD PUSH3 0x288 SWAP6 SWAP5 SWAP4 SWAP3 SWAP2 SWAP1 PUSH3 0x2DA JUMP JUMPDEST PUSH1 0x40 MLOAD PUSH1 0x20 DUP2 DUP4 SUB SUB DUP2 MSTORE SWAP1 PUSH1 0x40 MSTORE DUP1 MLOAD SWAP1 PUSH1 0x20 ADD KECCAK256 SWAP1 POP SWAP4 SWAP3 POP POP POP JUMP JUMPDEST PUSH3 0x2B2 DUP2 PUSH3 0x337 JUMP JUMPDEST DUP3 MSTORE POP POP JUMP JUMPDEST PUSH3 0x2C3 DUP2 PUSH3 0x34B JUMP JUMPDEST DUP3 MSTORE POP POP JUMP JUMPDEST PUSH3 0x2D4 DUP2 PUSH3 0x375 JUMP JUMPDEST DUP3 MSTORE POP POP JUMP JUMPDEST PUSH1 0x0 PUSH1 0xA0 DUP3 ADD SWAP1 POP PUSH3 0x2F1 PUSH1 0x0 DUP4 ADD DUP9 PUSH3 0x2B8 JUMP JUMPDEST PUSH3 0x300 PUSH1 0x20 DUP4 ADD DUP8 PUSH3 0x2B8 JUMP JUMPDEST PUSH3 0x30F PUSH1 0x40 DUP4 ADD DUP7 PUSH3 0x2B8 JUMP JUMPDEST PUSH3 0x31E PUSH1 0x60 DUP4 ADD DUP6 PUSH3 0x2C9 JUMP JUMPDEST PUSH3 0x32D PUSH1 0x80 DUP4 ADD DUP5 PUSH3 0x2A7 JUMP JUMPDEST SWAP7 SWAP6 POP POP POP POP POP POP JUMP JUMPDEST PUSH1 0x0 PUSH3 0x344 DUP3 PUSH3 0x355 JUMP JUMPDEST SWAP1 POP SWAP2 SWAP1 POP JUMP JUMPDEST PUSH1 0x0 DUP2 SWAP1 POP SWAP2 SWAP1 POP JUMP JUMPDEST PUSH1 0x0 PUSH20 0xFFFFFFFFFFFFFFFFFFFFFFFFFFFFFFFFFFFFFFFF DUP3 AND SWAP1 POP SWAP2 SWAP1 POP JUMP JUMPDEST PUSH1 0x0 DUP2 SWAP1 POP SWAP2 SWAP1 POP JUMP JUMPDEST PUSH1 0x80 MLOAD PUSH1 0xA0 MLOAD PUSH1 0xC0 MLOAD PUSH1 0x60 SHR PUSH1 0xE0 MLOAD PUSH2 0x100 MLOAD PUSH2 0x120 MLOAD PUSH2 0x1718 PUSH3 0x3D2 PUSH1 0x0 CODECOPY PUSH1 0x0 PUSH2 0x996 ADD MSTORE PUSH1 0x0 PUSH2 0x9D8 ADD MSTORE PUSH1 0x0 PUSH2 0x9B7 ADD MSTORE PUSH1 0x0 PUSH2 0x8EC ADD MSTORE PUSH1 0x0 PUSH2 0x942 ADD MSTORE PUSH1 0x0 PUSH2 0x96B ADD MSTORE PUSH2 0x1718 PUSH1 0x0 RETURN INVALID PUSH1 0x80 PUSH1 0x40 MSTORE CALLVALUE DUP1 ISZERO PUSH2 0x10 JUMPI PUSH1 0x0 DUP1 REVERT JUMPDEST POP PUSH1 0x4 CALLDATASIZE LT PUSH2 0x7D JUMPI PUSH1 0x0 CALLDATALOAD PUSH1 0xE0 SHR DUP1 PUSH4 0x8DA5CB5B GT PUSH2 0x5B JUMPI DUP1 PUSH4 0x8DA5CB5B EQ PUSH2 0xEC JUMPI DUP1 PUSH4 0xB24A5E0D EQ PUSH2 0x10A JUMPI DUP1 PUSH4 0xB2969A2E EQ PUSH2 0x126 JUMPI DUP1 PUSH4 0xF2FDE38B EQ PUSH2 0x142 JUMPI PUSH2 0x7D JUMP JUMPDEST DUP1 PUSH4 0x30F89E29 EQ PUSH2 0x82 JUMPI DUP1 PUSH4 0x68DFFFBD EQ PUSH2 0xB2 JUMPI DUP1 PUSH4 0x715018A6 EQ PUSH2 0xE2 JUMPI JUMPDEST PUSH1 0x0 DUP1 REVERT JUMPDEST PUSH2 0x9C PUSH1 0x4 DUP1 CALLDATASIZE SUB DUP2 ADD SWAP1 PUSH2 0x97 SWAP2 SWAP1 PUSH2 0xE3F JUMP JUMPDEST PUSH2 0x15E JUMP JUMPDEST PUSH1 0x40 MLOAD PUSH2 0xA9 SWAP2 SWAP1 PUSH2 0x10AB JUMP JUMPDEST PUSH1 0x40 MLOAD DUP1 SWAP2 SUB SWAP1 RETURN JUMPDEST PUSH2 0xCC PUSH1 0x4 DUP1 CALLDATASIZE SUB DUP2 ADD SWAP1 PUSH2 0xC7 SWAP2 SWAP1 PUSH2 0xDE3 JUMP JUMPDEST PUSH2 0x170 JUMP JUMPDEST PUSH1 0x40 MLOAD PUSH2 0xD9 SWAP2 SWAP1 PUSH2 0x11A3 JUMP JUMPDEST PUSH1 0x40 MLOAD DUP1 SWAP2 SUB SWAP1 RETURN JUMPDEST PUSH2 0xEA PUSH2 0x233 JUMP JUMPDEST STOP JUMPDEST PUSH2 0xF4 PUSH2 0x247 JUMP JUMPDEST PUSH1 0x40 MLOAD PUSH2 0x101 SWAP2 SWAP1 PUSH2 0x10AB JUMP JUMPDEST PUSH1 0x40 MLOAD DUP1 SWAP2 SUB SWAP1 RETURN JUMPDEST PUSH2 0x124 PUSH1 0x4 DUP1 CALLDATASIZE SUB DUP2 ADD SWAP1 PUSH2 0x11F SWAP2 SWAP1 PUSH2 0xE3F JUMP JUMPDEST PUSH2 0x270 JUMP JUMPDEST STOP JUMPDEST PUSH2 0x140 PUSH1 0x4 DUP1 CALLDATASIZE SUB DUP2 ADD SWAP1 PUSH2 0x13B SWAP2 SWAP1 PUSH2 0xDB6 JUMP JUMPDEST PUSH2 0x431 JUMP JUMPDEST STOP JUMPDEST PUSH2 0x15C PUSH1 0x4 DUP1 CALLDATASIZE SUB DUP2 ADD SWAP1 PUSH2 0x157 SWAP2 SWAP1 PUSH2 0xDB6 JUMP JUMPDEST PUSH2 0x47D JUMP JUMPDEST STOP JUMPDEST PUSH1 0x0 PUSH2 0x169 DUP3 PUSH2 0x501 JUMP JUMPDEST SWAP1 POP SWAP2 SWAP1 POP JUMP JUMPDEST PUSH1 0x1 PUSH1 0x20 MSTORE DUP2 PUSH1 0x0 MSTORE PUSH1 0x40 PUSH1 0x0 KECCAK256 DUP2 DUP1 MLOAD PUSH1 0x20 DUP2 ADD DUP3 ADD DUP1 MLOAD DUP5 DUP3 MSTORE PUSH1 0x20 DUP4 ADD PUSH1 0x20 DUP6 ADD KECCAK256 DUP2 DUP4 MSTORE DUP1 SWAP6 POP POP POP POP POP POP PUSH1 0x0 SWAP2 POP SWAP2 POP POP DUP1 SLOAD PUSH2 0x1B2 SWAP1 PUSH2 0x13E8 JUMP JUMPDEST DUP1 PUSH1 0x1F ADD PUSH1 0x20 DUP1 SWAP2 DIV MUL PUSH1 0x20 ADD PUSH1 0x40 MLOAD SWAP1 DUP2 ADD PUSH1 0x40 MSTORE DUP1 SWAP3 SWAP2 SWAP1 DUP2 DUP2 MSTORE PUSH1 0x20 ADD DUP3 DUP1 SLOAD PUSH2 0x1DE SWAP1 PUSH2 0x13E8 JUMP JUMPDEST DUP1 ISZERO PUSH2 0x22B JUMPI DUP1 PUSH1 0x1F LT PUSH2 0x200 JUMPI PUSH2 0x100 DUP1 DUP4 SLOAD DIV MUL DUP4 MSTORE SWAP2 PUSH1 0x20 ADD SWAP2 PUSH2 0x22B JUMP JUMPDEST DUP3 ADD SWAP2 SWAP1 PUSH1 0x0 MSTORE PUSH1 0x20 PUSH1 0x0 KECCAK256 SWAP1 JUMPDEST DUP2 SLOAD DUP2 MSTORE SWAP1 PUSH1 0x1 ADD SWAP1 PUSH1 0x20 ADD DUP1 DUP4 GT PUSH2 0x20E JUMPI DUP3 SWAP1 SUB PUSH1 0x1F AND DUP3 ADD SWAP2 JUMPDEST POP POP POP POP POP DUP2 JUMP JUMPDEST PUSH2 0x23B PUSH2 0x525 JUMP JUMPDEST PUSH2 0x245 PUSH1 0x0 PUSH2 0x5A3 JUMP JUMPDEST JUMP JUMPDEST PUSH1 0x0 DUP1 PUSH1 0x0 SWAP1 SLOAD SWAP1 PUSH2 0x100 EXP SWAP1 DIV PUSH20 0xFFFFFFFFFFFFFFFFFFFFFFFFFFFFFFFFFFFFFFFF AND SWAP1 POP SWAP1 JUMP JUMPDEST PUSH2 0x279 DUP2 PUSH2 0x15E JUMP JUMPDEST PUSH20 0xFFFFFFFFFFFFFFFFFFFFFFFFFFFFFFFFFFFFFFFF AND PUSH1 0x2 PUSH1 0x0 SWAP1 SLOAD SWAP1 PUSH2 0x100 EXP SWAP1 DIV PUSH20 0xFFFFFFFFFFFFFFFFFFFFFFFFFFFFFFFFFFFFFFFF AND PUSH20 0xFFFFFFFFFFFFFFFFFFFFFFFFFFFFFFFFFFFFFFFF AND EQ PUSH2 0x308 JUMPI PUSH1 0x40 MLOAD PUSH32 0x8C379A000000000000000000000000000000000000000000000000000000000 DUP2 MSTORE PUSH1 0x4 ADD PUSH2 0x2FF SWAP1 PUSH2 0x1205 JUMP JUMPDEST PUSH1 0x40 MLOAD DUP1 SWAP2 SUB SWAP1 REVERT JUMPDEST PUSH1 0x0 PUSH1 0x1 PUSH1 0x0 CALLER PUSH20 0xFFFFFFFFFFFFFFFFFFFFFFFFFFFFFFFFFFFFFFFF AND PUSH20 0xFFFFFFFFFFFFFFFFFFFFFFFFFFFFFFFFFFFFFFFF AND DUP2 MSTORE PUSH1 0x20 ADD SWAP1 DUP2 MSTORE PUSH1 0x20 ADD PUSH1 0x0 KECCAK256 DUP3 PUSH1 0x20 ADD MLOAD PUSH1 0x40 MLOAD PUSH2 0x35B SWAP2 SWAP1 PUSH2 0x105D JUMP JUMPDEST SWAP1 DUP2 MSTORE PUSH1 0x20 ADD PUSH1 0x40 MLOAD DUP1 SWAP2 SUB SWAP1 KECCAK256 DUP1 SLOAD PUSH2 0x374 SWAP1 PUSH2 0x13E8 JUMP JUMPDEST SWAP1 POP EQ PUSH2 0x3B6 JUMPI PUSH1 0x40 MLOAD PUSH32 0x8C379A000000000000000000000000000000000000000000000000000000000 DUP2 MSTORE PUSH1 0x4 ADD PUSH2 0x3AD SWAP1 PUSH2 0x1225 JUMP JUMPDEST PUSH1 0x40 MLOAD DUP1 SWAP2 SUB SWAP1 REVERT JUMPDEST DUP1 PUSH1 0x0 ADD MLOAD PUSH1 0x1 PUSH1 0x0 CALLER PUSH20 0xFFFFFFFFFFFFFFFFFFFFFFFFFFFFFFFFFFFFFFFF AND PUSH20 0xFFFFFFFFFFFFFFFFFFFFFFFFFFFFFFFFFFFFFFFF AND DUP2 MSTORE PUSH1 0x20 ADD SWAP1 DUP2 MSTORE PUSH1 0x20 ADD PUSH1 0x0 KECCAK256 DUP3 PUSH1 0x20 ADD MLOAD PUSH1 0x40 MLOAD PUSH2 0x40C SWAP2 SWAP1 PUSH2 0x105D JUMP JUMPDEST SWAP1 DUP2 MSTORE PUSH1 0x20 ADD PUSH1 0x40 MLOAD DUP1 SWAP2 SUB SWAP1 KECCAK256 SWAP1 DUP1 MLOAD SWAP1 PUSH1 0x20 ADD SWAP1 PUSH2 0x42D SWAP3 SWAP2 SWAP1 PUSH2 0xB52 JUMP JUMPDEST POP POP JUMP JUMPDEST PUSH2 0x439 PUSH2 0x525 JUMP JUMPDEST DUP1 PUSH1 0x2 PUSH1 0x0 PUSH2 0x100 EXP DUP2 SLOAD DUP2 PUSH20 0xFFFFFFFFFFFFFFFFFFFFFFFFFFFFFFFFFFFFFFFF MUL NOT AND SWAP1 DUP4 PUSH20 0xFFFFFFFFFFFFFFFFFFFFFFFFFFFFFFFFFFFFFFFF AND MUL OR SWAP1 SSTORE POP POP JUMP JUMPDEST PUSH2 0x485 PUSH2 0x525 JUMP JUMPDEST PUSH1 0x0 PUSH20 0xFFFFFFFFFFFFFFFFFFFFFFFFFFFFFFFFFFFFFFFF AND DUP2 PUSH20 0xFFFFFFFFFFFFFFFFFFFFFFFFFFFFFFFFFFFFFFFF AND EQ ISZERO PUSH2 0x4F5 JUMPI PUSH1 0x40 MLOAD PUSH32 0x8C379A000000000000000000000000000000000000000000000000000000000 DUP2 MSTORE PUSH1 0x4 ADD PUSH2 0x4EC SWAP1 PUSH2 0x1245 JUMP JUMPDEST PUSH1 0x40 MLOAD DUP1 SWAP2 SUB SWAP1 REVERT JUMPDEST PUSH2 0x4FE DUP2 PUSH2 0x5A3 JUMP JUMPDEST POP JUMP JUMPDEST PUSH1 0x0 DUP1 PUSH2 0x50D DUP4 PUSH2 0x667 JUMP JUMPDEST SWAP1 POP PUSH2 0x51D DUP2 DUP5 PUSH1 0x60 ADD MLOAD PUSH2 0x6DF JUMP JUMPDEST SWAP2 POP POP SWAP2 SWAP1 POP JUMP JUMPDEST PUSH2 0x52D PUSH2 0x706 JUMP JUMPDEST PUSH20 0xFFFFFFFFFFFFFFFFFFFFFFFFFFFFFFFFFFFFFFFF AND PUSH2 0x54B PUSH2 0x247 JUMP JUMPDEST PUSH20 0xFFFFFFFFFFFFFFFFFFFFFFFFFFFFFFFFFFFFFFFF AND EQ PUSH2 0x5A1 JUMPI PUSH1 0x40 MLOAD PUSH32 0x8C379A000000000000000000000000000000000000000000000000000000000 DUP2 MSTORE PUSH1 0x4 ADD PUSH2 0x598 SWAP1 PUSH2 0x1285 JUMP JUMPDEST PUSH1 0x40 MLOAD DUP1 SWAP2 SUB SWAP1 REVERT JUMPDEST JUMP JUMPDEST PUSH1 0x0 DUP1 PUSH1 0x0 SWAP1 SLOAD SWAP1 PUSH2 0x100 EXP SWAP1 DIV PUSH20 0xFFFFFFFFFFFFFFFFFFFFFFFFFFFFFFFFFFFFFFFF AND SWAP1 POP DUP2 PUSH1 0x0 DUP1 PUSH2 0x100 EXP DUP2 SLOAD DUP2 PUSH20 0xFFFFFFFFFFFFFFFFFFFFFFFFFFFFFFFFFFFFFFFF MUL NOT AND SWAP1 DUP4 PUSH20 0xFFFFFFFFFFFFFFFFFFFFFFFFFFFFFFFFFFFFFFFF AND MUL OR SWAP1 SSTORE POP DUP2 PUSH20 0xFFFFFFFFFFFFFFFFFFFFFFFFFFFFFFFFFFFFFFFF AND DUP2 PUSH20 0xFFFFFFFFFFFFFFFFFFFFFFFFFFFFFFFFFFFFFFFF AND PUSH32 0x8BE0079C531659141344CD1FD0A4F28419497F9722A3DAAFE3B4186F6B6457E0 PUSH1 0x40 MLOAD PUSH1 0x40 MLOAD DUP1 SWAP2 SUB SWAP1 LOG3 POP POP JUMP JUMPDEST PUSH1 0x0 PUSH2 0x6D8 PUSH32 0x9980E35FD3E98FB83ED8BA021944828EB14149855296A1D36BC6313F56EF5AA6 DUP4 PUSH1 0x0 ADD MLOAD DUP1 MLOAD SWAP1 PUSH1 0x20 ADD KECCAK256 DUP5 PUSH1 0x20 ADD MLOAD DUP1 MLOAD SWAP1 PUSH1 0x20 ADD KECCAK256 DUP6 PUSH1 0x40 ADD MLOAD PUSH1 0x40 MLOAD PUSH1 0x20 ADD PUSH2 0x6BD SWAP5 SWAP4 SWAP3 SWAP2 SWAP1 PUSH2 0x10C6 JUMP JUMPDEST PUSH1 0x40 MLOAD PUSH1 0x20 DUP2 DUP4 SUB SUB DUP2 MSTORE SWAP1 PUSH1 0x40 MSTORE DUP1 MLOAD SWAP1 PUSH1 0x20 ADD KECCAK256 PUSH2 0x70E JUMP JUMPDEST SWAP1 POP SWAP2 SWAP1 POP JUMP JUMPDEST PUSH1 0x0 DUP1 PUSH1 0x0 PUSH2 0x6EE DUP6 DUP6 PUSH2 0x728 JUMP JUMPDEST SWAP2 POP SWAP2 POP PUSH2 0x6FB DUP2 PUSH2 0x77A JUMP JUMPDEST DUP2 SWAP3 POP POP POP SWAP3 SWAP2 POP POP JUMP JUMPDEST PUSH1 0x0 CALLER SWAP1 POP SWAP1 JUMP JUMPDEST PUSH1 0x0 PUSH2 0x721 PUSH2 0x71B PUSH2 0x8E8 JUMP JUMPDEST DUP4 PUSH2 0xA02 JUMP JUMPDEST SWAP1 POP SWAP2 SWAP1 POP JUMP JUMPDEST PUSH1 0x0 DUP1 PUSH1 0x41 DUP4 MLOAD EQ ISZERO PUSH2 0x76A JUMPI PUSH1 0x0 DUP1 PUSH1 0x0 PUSH1 0x20 DUP7 ADD MLOAD SWAP3 POP PUSH1 0x40 DUP7 ADD MLOAD SWAP2 POP PUSH1 0x60 DUP7 ADD MLOAD PUSH1 0x0 BYTE SWAP1 POP PUSH2 0x75E DUP8 DUP3 DUP6 DUP6 PUSH2 0xA35 JUMP JUMPDEST SWAP5 POP SWAP5 POP POP POP POP PUSH2 0x773 JUMP JUMPDEST PUSH1 0x0 PUSH1 0x2 SWAP2 POP SWAP2 POP JUMPDEST SWAP3 POP SWAP3 SWAP1 POP JUMP JUMPDEST PUSH1 0x0 PUSH1 0x4 DUP2 GT ISZERO PUSH2 0x78E JUMPI PUSH2 0x78D PUSH2 0x1455 JUMP JUMPDEST JUMPDEST DUP2 PUSH1 0x4 DUP2 GT ISZERO PUSH2 0x7A1 JUMPI PUSH2 0x7A0 PUSH2 0x1455 JUMP JUMPDEST JUMPDEST EQ ISZERO PUSH2 0x7AC JUMPI PUSH2 0x8E5 JUMP JUMPDEST PUSH1 0x1 PUSH1 0x4 DUP2 GT ISZERO PUSH2 0x7C0 JUMPI PUSH2 0x7BF PUSH2 0x1455 JUMP JUMPDEST JUMPDEST DUP2 PUSH1 0x4 DUP2 GT ISZERO PUSH2 0x7D3 JUMPI PUSH2 0x7D2 PUSH2 0x1455 JUMP JUMPDEST JUMPDEST EQ ISZERO PUSH2 0x814 JUMPI PUSH1 0x40 MLOAD PUSH32 0x8C379A000000000000000000000000000000000000000000000000000000000 DUP2 MSTORE PUSH1 0x4 ADD PUSH2 0x80B SWAP1 PUSH2 0x11C5 JUMP JUMPDEST PUSH1 0x40 MLOAD DUP1 SWAP2 SUB SWAP1 REVERT JUMPDEST PUSH1 0x2 PUSH1 0x4 DUP2 GT ISZERO PUSH2 0x828 JUMPI PUSH2 0x827 PUSH2 0x1455 JUMP JUMPDEST JUMPDEST DUP2 PUSH1 0x4 DUP2 GT ISZERO PUSH2 0x83B JUMPI PUSH2 0x83A PUSH2 0x1455 JUMP JUMPDEST JUMPDEST EQ ISZERO PUSH2 0x87C JUMPI PUSH1 0x40 MLOAD PUSH32 0x8C379A000000000000000000000000000000000000000000000000000000000 DUP2 MSTORE PUSH1 0x4 ADD PUSH2 0x873 SWAP1 PUSH2 0x11E5 JUMP JUMPDEST PUSH1 0x40 MLOAD DUP1 SWAP2 SUB SWAP1 REVERT JUMPDEST PUSH1 0x3 PUSH1 0x4 DUP2 GT ISZERO PUSH2 0x890 JUMPI PUSH2 0x88F PUSH2 0x1455 JUMP JUMPDEST JUMPDEST DUP2 PUSH1 0x4 DUP2 GT ISZERO PUSH2 0x8A3 JUMPI PUSH2 0x8A2 PUSH2 0x1455 JUMP JUMPDEST JUMPDEST EQ ISZERO PUSH2 0x8E4 JUMPI PUSH1 0x40 MLOAD PUSH32 0x8C379A000000000000000000000000000000000000000000000000000000000 DUP2 MSTORE PUSH1 0x4 ADD PUSH2 0x8DB SWAP1 PUSH2 0x1265 JUMP JUMPDEST PUSH1 0x40 MLOAD DUP1 SWAP2 SUB SWAP1 REVERT JUMPDEST JUMPDEST POP JUMP JUMPDEST PUSH1 0x0 PUSH32 0x0 PUSH20 0xFFFFFFFFFFFFFFFFFFFFFFFFFFFFFFFFFFFFFFFF AND ADDRESS PUSH20 0xFFFFFFFFFFFFFFFFFFFFFFFFFFFFFFFFFFFFFFFF AND EQ DUP1 ISZERO PUSH2 0x964 JUMPI POP PUSH32 0x0 CHAINID EQ JUMPDEST ISZERO PUSH2 0x991 JUMPI PUSH32 0x0 SWAP1 POP PUSH2 0x9FF JUMP JUMPDEST PUSH2 0x9FC PUSH32 0x0 PUSH32 0x0 PUSH32 0x0 PUSH2 0xB18 JUMP JUMPDEST SWAP1 POP JUMPDEST SWAP1 JUMP JUMPDEST PUSH1 0x0 DUP3 DUP3 PUSH1 0x40 MLOAD PUSH1 0x20 ADD PUSH2 0xA17 SWAP3 SWAP2 SWAP1 PUSH2 0x1074 JUMP JUMPDEST PUSH1 0x40 MLOAD PUSH1 0x20 DUP2 DUP4 SUB SUB DUP2 MSTORE SWAP1 PUSH1 0x40 MSTORE DUP1 MLOAD SWAP1 PUSH1 0x20 ADD KECCAK256 SWAP1 POP SWAP3 SWAP2 POP POP JUMP JUMPDEST PUSH1 0x0 DUP1 PUSH32 0x7FFFFFFFFFFFFFFFFFFFFFFFFFFFFFFF5D576E7357A4501DDFE92F46681B20A0 DUP4 PUSH1 0x0 SHR GT ISZERO PUSH2 0xA70 JUMPI PUSH1 0x0 PUSH1 0x3 SWAP2 POP SWAP2 POP PUSH2 0xB0F JUMP JUMPDEST PUSH1 0x0 PUSH1 0x1 DUP8 DUP8 DUP8 DUP8 PUSH1 0x40 MLOAD PUSH1 0x0 DUP2 MSTORE PUSH1 0x20 ADD PUSH1 0x40 MSTORE PUSH1 0x40 MLOAD PUSH2 0xA95 SWAP5 SWAP4 SWAP3 SWAP2 SWAP1 PUSH2 0x115E JUMP JUMPDEST PUSH1 0x20 PUSH1 0x40 MLOAD PUSH1 0x20 DUP2 SUB SWAP1 DUP1 DUP5 SUB SWAP1 DUP6 GAS STATICCALL ISZERO DUP1 ISZERO PUSH2 0xAB7 JUMPI RETURNDATASIZE PUSH1 0x0 DUP1 RETURNDATACOPY RETURNDATASIZE PUSH1 0x0 REVERT JUMPDEST POP POP POP PUSH1 0x20 PUSH1 0x40 MLOAD SUB MLOAD SWAP1 POP PUSH1 0x0 PUSH20 0xFFFFFFFFFFFFFFFFFFFFFFFFFFFFFFFFFFFFFFFF AND DUP2 PUSH20 0xFFFFFFFFFFFFFFFFFFFFFFFFFFFFFFFFFFFFFFFF AND EQ ISZERO PUSH2 0xB06 JUMPI PUSH1 0x0 PUSH1 0x1 SWAP3 POP SWAP3 POP POP PUSH2 0xB0F JUMP JUMPDEST DUP1 PUSH1 0x0 SWAP3 POP SWAP3 POP POP JUMPDEST SWAP5 POP SWAP5 SWAP3 POP POP POP JUMP JUMPDEST PUSH1 0x0 DUP4 DUP4 DUP4 CHAINID ADDRESS PUSH1 0x40 MLOAD PUSH1 0x20 ADD PUSH2 0xB33 SWAP6 SWAP5 SWAP4 SWAP3 SWAP2 SWAP1 PUSH2 0x110B JUMP JUMPDEST PUSH1 0x40 MLOAD PUSH1 0x20 DUP2 DUP4 SUB SUB DUP2 MSTORE SWAP1 PUSH1 0x40 MSTORE DUP1 MLOAD SWAP1 PUSH1 0x20 ADD KECCAK256 SWAP1 POP SWAP4 SWAP3 POP POP POP JUMP JUMPDEST DUP3 DUP1 SLOAD PUSH2 0xB5E SWAP1 PUSH2 0x13E8 JUMP JUMPDEST SWAP1 PUSH1 0x0 MSTORE PUSH1 0x20 PUSH1 0x0 KECCAK256 SWAP1 PUSH1 0x1F ADD PUSH1 0x20 SWAP1 DIV DUP2 ADD SWAP3 DUP3 PUSH2 0xB80 JUMPI PUSH1 0x0 DUP6 SSTORE PUSH2 0xBC7 JUMP JUMPDEST DUP3 PUSH1 0x1F LT PUSH2 0xB99 JUMPI DUP1 MLOAD PUSH1 0xFF NOT AND DUP4 DUP1 ADD OR DUP6 SSTORE PUSH2 0xBC7 JUMP JUMPDEST DUP3 DUP1 ADD PUSH1 0x1 ADD DUP6 SSTORE DUP3 ISZERO PUSH2 0xBC7 JUMPI SWAP2 DUP3 ADD JUMPDEST DUP3 DUP2 GT ISZERO PUSH2 0xBC6 JUMPI DUP3 MLOAD DUP3 SSTORE SWAP2 PUSH1 0x20 ADD SWAP2 SWAP1 PUSH1 0x1 ADD SWAP1 PUSH2 0xBAB JUMP JUMPDEST JUMPDEST POP SWAP1 POP PUSH2 0xBD4 SWAP2 SWAP1 PUSH2 0xBD8 JUMP JUMPDEST POP SWAP1 JUMP JUMPDEST JUMPDEST DUP1 DUP3 GT ISZERO PUSH2 0xBF1 JUMPI PUSH1 0x0 DUP2 PUSH1 0x0 SWAP1 SSTORE POP PUSH1 0x1 ADD PUSH2 0xBD9 JUMP JUMPDEST POP SWAP1 JUMP JUMPDEST PUSH1 0x0 PUSH2 0xC08 PUSH2 0xC03 DUP5 PUSH2 0x12CA JUMP JUMPDEST PUSH2 0x12A5 JUMP JUMPDEST SWAP1 POP DUP3 DUP2 MSTORE PUSH1 0x20 DUP2 ADD DUP5 DUP5 DUP5 ADD GT ISZERO PUSH2 0xC24 JUMPI PUSH2 0xC23 PUSH2 0x14F1 JUMP JUMPDEST JUMPDEST PUSH2 0xC2F DUP5 DUP3 DUP6 PUSH2 0x13A6 JUMP JUMPDEST POP SWAP4 SWAP3 POP POP POP JUMP JUMPDEST PUSH1 0x0 PUSH2 0xC4A PUSH2 0xC45 DUP5 PUSH2 0x12FB JUMP JUMPDEST PUSH2 0x12A5 JUMP JUMPDEST SWAP1 POP DUP3 DUP2 MSTORE PUSH1 0x20 DUP2 ADD DUP5 DUP5 DUP5 ADD GT ISZERO PUSH2 0xC66 JUMPI PUSH2 0xC65 PUSH2 0x14F1 JUMP JUMPDEST JUMPDEST PUSH2 0xC71 DUP5 DUP3 DUP6 PUSH2 0x13A6 JUMP JUMPDEST POP SWAP4 SWAP3 POP POP POP JUMP JUMPDEST PUSH1 0x0 DUP2 CALLDATALOAD SWAP1 POP PUSH2 0xC88 DUP2 PUSH2 0x16CB JUMP JUMPDEST SWAP3 SWAP2 POP POP JUMP JUMPDEST PUSH1 0x0 DUP3 PUSH1 0x1F DUP4 ADD SLT PUSH2 0xCA3 JUMPI PUSH2 0xCA2 PUSH2 0x14E2 JUMP JUMPDEST JUMPDEST DUP2 CALLDATALOAD PUSH2 0xCB3 DUP5 DUP3 PUSH1 0x20 DUP7 ADD PUSH2 0xBF5 JUMP JUMPDEST SWAP2 POP POP SWAP3 SWAP2 POP POP JUMP JUMPDEST PUSH1 0x0 DUP3 PUSH1 0x1F DUP4 ADD SLT PUSH2 0xCD1 JUMPI PUSH2 0xCD0 PUSH2 0x14E2 JUMP JUMPDEST JUMPDEST DUP2 CALLDATALOAD PUSH2 0xCE1 DUP5 DUP3 PUSH1 0x20 DUP7 ADD PUSH2 0xC37 JUMP JUMPDEST SWAP2 POP POP SWAP3 SWAP2 POP POP JUMP JUMPDEST PUSH1 0x0 PUSH1 0x80 DUP3 DUP5 SUB SLT ISZERO PUSH2 0xD00 JUMPI PUSH2 0xCFF PUSH2 0x14E7 JUMP JUMPDEST JUMPDEST PUSH2 0xD0A PUSH1 0x80 PUSH2 0x12A5 JUMP JUMPDEST SWAP1 POP PUSH1 0x0 DUP3 ADD CALLDATALOAD PUSH8 0xFFFFFFFFFFFFFFFF DUP2 GT ISZERO PUSH2 0xD2A JUMPI PUSH2 0xD29 PUSH2 0x14EC JUMP JUMPDEST JUMPDEST PUSH2 0xD36 DUP5 DUP3 DUP6 ADD PUSH2 0xCBC JUMP JUMPDEST PUSH1 0x0 DUP4 ADD MSTORE POP PUSH1 0x20 DUP3 ADD CALLDATALOAD PUSH8 0xFFFFFFFFFFFFFFFF DUP2 GT ISZERO PUSH2 0xD5A JUMPI PUSH2 0xD59 PUSH2 0x14EC JUMP JUMPDEST JUMPDEST PUSH2 0xD66 DUP5 DUP3 DUP6 ADD PUSH2 0xCBC JUMP JUMPDEST PUSH1 0x20 DUP4 ADD MSTORE POP PUSH1 0x40 PUSH2 0xD7A DUP5 DUP3 DUP6 ADD PUSH2 0xC79 JUMP JUMPDEST PUSH1 0x40 DUP4 ADD MSTORE POP PUSH1 0x60 DUP3 ADD CALLDATALOAD PUSH8 0xFFFFFFFFFFFFFFFF DUP2 GT ISZERO PUSH2 0xD9E JUMPI PUSH2 0xD9D PUSH2 0x14EC JUMP JUMPDEST JUMPDEST PUSH2 0xDAA DUP5 DUP3 DUP6 ADD PUSH2 0xC8E JUMP JUMPDEST PUSH1 0x60 DUP4 ADD MSTORE POP SWAP3 SWAP2 POP POP JUMP JUMPDEST PUSH1 0x0 PUSH1 0x20 DUP3 DUP5 SUB SLT ISZERO PUSH2 0xDCC JUMPI PUSH2 0xDCB PUSH2 0x14FB JUMP JUMPDEST JUMPDEST PUSH1 0x0 PUSH2 0xDDA DUP5 DUP3 DUP6 ADD PUSH2 0xC79 JUMP JUMPDEST SWAP2 POP POP SWAP3 SWAP2 POP POP JUMP JUMPDEST PUSH1 0x0 DUP1 PUSH1 0x40 DUP4 DUP6 SUB SLT ISZERO PUSH2 0xDFA JUMPI PUSH2 0xDF9 PUSH2 0x14FB JUMP JUMPDEST JUMPDEST PUSH1 0x0 PUSH2 0xE08 DUP6 DUP3 DUP7 ADD PUSH2 0xC79 JUMP JUMPDEST SWAP3 POP POP PUSH1 0x20 DUP4 ADD CALLDATALOAD PUSH8 0xFFFFFFFFFFFFFFFF DUP2 GT ISZERO PUSH2 0xE29 JUMPI PUSH2 0xE28 PUSH2 0x14F6 JUMP JUMPDEST JUMPDEST PUSH2 0xE35 DUP6 DUP3 DUP7 ADD PUSH2 0xCBC JUMP JUMPDEST SWAP2 POP POP SWAP3 POP SWAP3 SWAP1 POP JUMP JUMPDEST PUSH1 0x0 PUSH1 0x20 DUP3 DUP5 SUB SLT ISZERO PUSH2 0xE55 JUMPI PUSH2 0xE54 PUSH2 0x14FB JUMP JUMPDEST JUMPDEST PUSH1 0x0 DUP3 ADD CALLDATALOAD PUSH8 0xFFFFFFFFFFFFFFFF DUP2 GT ISZERO PUSH2 0xE73 JUMPI PUSH2 0xE72 PUSH2 0x14F6 JUMP JUMPDEST JUMPDEST PUSH2 0xE7F DUP5 DUP3 DUP6 ADD PUSH2 0xCEA JUMP JUMPDEST SWAP2 POP POP SWAP3 SWAP2 POP POP JUMP JUMPDEST PUSH2 0xE91 DUP2 PUSH2 0x1353 JUMP JUMPDEST DUP3 MSTORE POP POP JUMP JUMPDEST PUSH2 0xEA0 DUP2 PUSH2 0x1365 JUMP JUMPDEST DUP3 MSTORE POP POP JUMP JUMPDEST PUSH2 0xEB7 PUSH2 0xEB2 DUP3 PUSH2 0x1365 JUMP JUMPDEST PUSH2 0x144B JUMP JUMPDEST DUP3 MSTORE POP POP JUMP JUMPDEST PUSH1 0x0 PUSH2 0xEC8 DUP3 PUSH2 0x132C JUMP JUMPDEST PUSH2 0xED2 DUP2 DUP6 PUSH2 0x1337 JUMP JUMPDEST SWAP4 POP PUSH2 0xEE2 DUP2 DUP6 PUSH1 0x20 DUP7 ADD PUSH2 0x13B5 JUMP JUMPDEST PUSH2 0xEEB DUP2 PUSH2 0x1500 JUMP JUMPDEST DUP5 ADD SWAP2 POP POP SWAP3 SWAP2 POP POP JUMP JUMPDEST PUSH1 0x0 PUSH2 0xF01 DUP3 PUSH2 0x132C JUMP JUMPDEST PUSH2 0xF0B DUP2 DUP6 PUSH2 0x1348 JUMP JUMPDEST SWAP4 POP PUSH2 0xF1B DUP2 DUP6 PUSH1 0x20 DUP7 ADD PUSH2 0x13B5 JUMP JUMPDEST DUP1 DUP5 ADD SWAP2 POP POP SWAP3 SWAP2 POP POP JUMP JUMPDEST PUSH1 0x0 PUSH2 0xF34 PUSH1 0x18 DUP4 PUSH2 0x1337 JUMP JUMPDEST SWAP2 POP PUSH2 0xF3F DUP3 PUSH2 0x1511 JUMP JUMPDEST PUSH1 0x20 DUP3 ADD SWAP1 POP SWAP2 SWAP1 POP JUMP JUMPDEST PUSH1 0x0 PUSH2 0xF57 PUSH1 0x1F DUP4 PUSH2 0x1337 JUMP JUMPDEST SWAP2 POP PUSH2 0xF62 DUP3 PUSH2 0x153A JUMP JUMPDEST PUSH1 0x20 DUP3 ADD SWAP1 POP SWAP2 SWAP1 POP JUMP JUMPDEST PUSH1 0x0 PUSH2 0xF7A PUSH1 0x33 DUP4 PUSH2 0x1337 JUMP JUMPDEST SWAP2 POP PUSH2 0xF85 DUP3 PUSH2 0x1563 JUMP JUMPDEST PUSH1 0x40 DUP3 ADD SWAP1 POP SWAP2 SWAP1 POP JUMP JUMPDEST PUSH1 0x0 PUSH2 0xF9D PUSH1 0x1C DUP4 PUSH2 0x1337 JUMP JUMPDEST SWAP2 POP PUSH2 0xFA8 DUP3 PUSH2 0x15B2 JUMP JUMPDEST PUSH1 0x20 DUP3 ADD SWAP1 POP SWAP2 SWAP1 POP JUMP JUMPDEST PUSH1 0x0 PUSH2 0xFC0 PUSH1 0x26 DUP4 PUSH2 0x1337 JUMP JUMPDEST SWAP2 POP PUSH2 0xFCB DUP3 PUSH2 0x15DB JUMP JUMPDEST PUSH1 0x40 DUP3 ADD SWAP1 POP SWAP2 SWAP1 POP JUMP JUMPDEST PUSH1 0x0 PUSH2 0xFE3 PUSH1 0x2 DUP4 PUSH2 0x1348 JUMP JUMPDEST SWAP2 POP PUSH2 0xFEE DUP3 PUSH2 0x162A JUMP JUMPDEST PUSH1 0x2 DUP3 ADD SWAP1 POP SWAP2 SWAP1 POP JUMP JUMPDEST PUSH1 0x0 PUSH2 0x1006 PUSH1 0x22 DUP4 PUSH2 0x1337 JUMP JUMPDEST SWAP2 POP PUSH2 0x1011 DUP3 PUSH2 0x1653 JUMP JUMPDEST PUSH1 0x40 DUP3 ADD SWAP1 POP SWAP2 SWAP1 POP JUMP JUMPDEST PUSH1 0x0 PUSH2 0x1029 PUSH1 0x20 DUP4 PUSH2 0x1337 JUMP JUMPDEST SWAP2 POP PUSH2 0x1034 DUP3 PUSH2 0x16A2 JUMP JUMPDEST PUSH1 0x20 DUP3 ADD SWAP1 POP SWAP2 SWAP1 POP JUMP JUMPDEST PUSH2 0x1048 DUP2 PUSH2 0x138F JUMP JUMPDEST DUP3 MSTORE POP POP JUMP JUMPDEST PUSH2 0x1057 DUP2 PUSH2 0x1399 JUMP JUMPDEST DUP3 MSTORE POP POP JUMP JUMPDEST PUSH1 0x0 PUSH2 0x1069 DUP3 DUP5 PUSH2 0xEF6 JUMP JUMPDEST SWAP2 POP DUP2 SWAP1 POP SWAP3 SWAP2 POP POP JUMP JUMPDEST PUSH1 0x0 PUSH2 0x107F DUP3 PUSH2 0xFD6 JUMP JUMPDEST SWAP2 POP PUSH2 0x108B DUP3 DUP6 PUSH2 0xEA6 JUMP JUMPDEST PUSH1 0x20 DUP3 ADD SWAP2 POP PUSH2 0x109B DUP3 DUP5 PUSH2 0xEA6 JUMP JUMPDEST PUSH1 0x20 DUP3 ADD SWAP2 POP DUP2 SWAP1 POP SWAP4 SWAP3 POP POP POP JUMP JUMPDEST PUSH1 0x0 PUSH1 0x20 DUP3 ADD SWAP1 POP PUSH2 0x10C0 PUSH1 0x0 DUP4 ADD DUP5 PUSH2 0xE88 JUMP JUMPDEST SWAP3 SWAP2 POP POP JUMP JUMPDEST PUSH1 0x0 PUSH1 0x80 DUP3 ADD SWAP1 POP PUSH2 0x10DB PUSH1 0x0 DUP4 ADD DUP8 PUSH2 0xE97 JUMP JUMPDEST PUSH2 0x10E8 PUSH1 0x20 DUP4 ADD DUP7 PUSH2 0xE97 JUMP JUMPDEST PUSH2 0x10F5 PUSH1 0x40 DUP4 ADD DUP6 PUSH2 0xE97 JUMP JUMPDEST PUSH2 0x1102 PUSH1 0x60 DUP4 ADD DUP5 PUSH2 0xE88 JUMP JUMPDEST SWAP6 SWAP5 POP POP POP POP POP JUMP JUMPDEST PUSH1 0x0 PUSH1 0xA0 DUP3 ADD SWAP1 POP PUSH2 0x1120 PUSH1 0x0 DUP4 ADD DUP9 PUSH2 0xE97 JUMP JUMPDEST PUSH2 0x112D PUSH1 0x20 DUP4 ADD DUP8 PUSH2 0xE97 JUMP JUMPDEST PUSH2 0x113A PUSH1 0x40 DUP4 ADD DUP7 PUSH2 0xE97 JUMP JUMPDEST PUSH2 0x1147 PUSH1 0x60 DUP4 ADD DUP6 PUSH2 0x103F JUMP JUMPDEST PUSH2 0x1154 PUSH1 0x80 DUP4 ADD DUP5 PUSH2 0xE88 JUMP JUMPDEST SWAP7 SWAP6 POP POP POP POP POP POP JUMP JUMPDEST PUSH1 0x0 PUSH1 0x80 DUP3 ADD SWAP1 POP PUSH2 0x1173 PUSH1 0x0 DUP4 ADD DUP8 PUSH2 0xE97 JUMP JUMPDEST PUSH2 0x1180 PUSH1 0x20 DUP4 ADD DUP7 PUSH2 0x104E JUMP JUMPDEST PUSH2 0x118D PUSH1 0x40 DUP4 ADD DUP6 PUSH2 0xE97 JUMP JUMPDEST PUSH2 0x119A PUSH1 0x60 DUP4 ADD DUP5 PUSH2 0xE97 JUMP JUMPDEST SWAP6 SWAP5 POP POP POP POP POP JUMP JUMPDEST PUSH1 0x0 PUSH1 0x20 DUP3 ADD SWAP1 POP DUP2 DUP2 SUB PUSH1 0x0 DUP4 ADD MSTORE PUSH2 0x11BD DUP2 DUP5 PUSH2 0xEBD JUMP JUMPDEST SWAP1 POP SWAP3 SWAP2 POP POP JUMP JUMPDEST PUSH1 0x0 PUSH1 0x20 DUP3 ADD SWAP1 POP DUP2 DUP2 SUB PUSH1 0x0 DUP4 ADD MSTORE PUSH2 0x11DE DUP2 PUSH2 0xF27 JUMP JUMPDEST SWAP1 POP SWAP2 SWAP1 POP JUMP JUMPDEST PUSH1 0x0 PUSH1 0x20 DUP3 ADD SWAP1 POP DUP2 DUP2 SUB PUSH1 0x0 DUP4 ADD MSTORE PUSH2 0x11FE DUP2 PUSH2 0xF4A JUMP JUMPDEST SWAP1 POP SWAP2 SWAP1 POP JUMP JUMPDEST PUSH1 0x0 PUSH1 0x20 DUP3 ADD SWAP1 POP DUP2 DUP2 SUB PUSH1 0x0 DUP4 ADD MSTORE PUSH2 0x121E DUP2 PUSH2 0xF6D JUMP JUMPDEST SWAP1 POP SWAP2 SWAP1 POP JUMP JUMPDEST PUSH1 0x0 PUSH1 0x20 DUP3 ADD SWAP1 POP DUP2 DUP2 SUB PUSH1 0x0 DUP4 ADD MSTORE PUSH2 0x123E DUP2 PUSH2 0xF90 JUMP JUMPDEST SWAP1 POP SWAP2 SWAP1 POP JUMP JUMPDEST PUSH1 0x0 PUSH1 0x20 DUP3 ADD SWAP1 POP DUP2 DUP2 SUB PUSH1 0x0 DUP4 ADD MSTORE PUSH2 0x125E DUP2 PUSH2 0xFB3 JUMP JUMPDEST SWAP1 POP SWAP2 SWAP1 POP JUMP JUMPDEST PUSH1 0x0 PUSH1 0x20 DUP3 ADD SWAP1 POP DUP2 DUP2 SUB PUSH1 0x0 DUP4 ADD MSTORE PUSH2 0x127E DUP2 PUSH2 0xFF9 JUMP JUMPDEST SWAP1 POP SWAP2 SWAP1 POP JUMP JUMPDEST PUSH1 0x0 PUSH1 0x20 DUP3 ADD SWAP1 POP DUP2 DUP2 SUB PUSH1 0x0 DUP4 ADD MSTORE PUSH2 0x129E DUP2 PUSH2 0x101C JUMP JUMPDEST SWAP1 POP SWAP2 SWAP1 POP JUMP JUMPDEST PUSH1 0x0 PUSH2 0x12AF PUSH2 0x12C0 JUMP JUMPDEST SWAP1 POP PUSH2 0x12BB DUP3 DUP3 PUSH2 0x141A JUMP JUMPDEST SWAP2 SWAP1 POP JUMP JUMPDEST PUSH1 0x0 PUSH1 0x40 MLOAD SWAP1 POP SWAP1 JUMP JUMPDEST PUSH1 0x0 PUSH8 0xFFFFFFFFFFFFFFFF DUP3 GT ISZERO PUSH2 0x12E5 JUMPI PUSH2 0x12E4 PUSH2 0x14B3 JUMP JUMPDEST JUMPDEST PUSH2 0x12EE DUP3 PUSH2 0x1500 JUMP JUMPDEST SWAP1 POP PUSH1 0x20 DUP2 ADD SWAP1 POP SWAP2 SWAP1 POP JUMP JUMPDEST PUSH1 0x0 PUSH8 0xFFFFFFFFFFFFFFFF DUP3 GT ISZERO PUSH2 0x1316 JUMPI PUSH2 0x1315 PUSH2 0x14B3 JUMP JUMPDEST JUMPDEST PUSH2 0x131F DUP3 PUSH2 0x1500 JUMP JUMPDEST SWAP1 POP PUSH1 0x20 DUP2 ADD SWAP1 POP SWAP2 SWAP1 POP JUMP JUMPDEST PUSH1 0x0 DUP2 MLOAD SWAP1 POP SWAP2 SWAP1 POP JUMP JUMPDEST PUSH1 0x0 DUP3 DUP3 MSTORE PUSH1 0x20 DUP3 ADD SWAP1 POP SWAP3 SWAP2 POP POP JUMP JUMPDEST PUSH1 0x0 DUP2 SWAP1 POP SWAP3 SWAP2 POP POP JUMP JUMPDEST PUSH1 0x0 PUSH2 0x135E DUP3 PUSH2 0x136F JUMP JUMPDEST SWAP1 POP SWAP2 SWAP1 POP JUMP JUMPDEST PUSH1 0x0 DUP2 SWAP1 POP SWAP2 SWAP1 POP JUMP JUMPDEST PUSH1 0x0 PUSH20 0xFFFFFFFFFFFFFFFFFFFFFFFFFFFFFFFFFFFFFFFF DUP3 AND SWAP1 POP SWAP2 SWAP1 POP JUMP JUMPDEST PUSH1 0x0 DUP2 SWAP1 POP SWAP2 SWAP1 POP JUMP JUMPDEST PUSH1 0x0 PUSH1 0xFF DUP3 AND SWAP1 POP SWAP2 SWAP1 POP JUMP JUMPDEST DUP3 DUP2 DUP4 CALLDATACOPY PUSH1 0x0 DUP4 DUP4 ADD MSTORE POP POP POP JUMP JUMPDEST PUSH1 0x0 JUMPDEST DUP4 DUP2 LT ISZERO PUSH2 0x13D3 JUMPI DUP1 DUP3 ADD MLOAD DUP2 DUP5 ADD MSTORE PUSH1 0x20 DUP2 ADD SWAP1 POP PUSH2 0x13B8 JUMP JUMPDEST DUP4 DUP2 GT ISZERO PUSH2 0x13E2 JUMPI PUSH1 0x0 DUP5 DUP5 ADD MSTORE JUMPDEST POP POP POP POP JUMP JUMPDEST PUSH1 0x0 PUSH1 0x2 DUP3 DIV SWAP1 POP PUSH1 0x1 DUP3 AND DUP1 PUSH2 0x1400 JUMPI PUSH1 0x7F DUP3 AND SWAP2 POP JUMPDEST PUSH1 0x20 DUP3 LT DUP2 EQ ISZERO PUSH2 0x1414 JUMPI PUSH2 0x1413 PUSH2 0x1484 JUMP JUMPDEST JUMPDEST POP SWAP2 SWAP1 POP JUMP JUMPDEST PUSH2 0x1423 DUP3 PUSH2 0x1500 JUMP JUMPDEST DUP2 ADD DUP2 DUP2 LT PUSH8 0xFFFFFFFFFFFFFFFF DUP3 GT OR ISZERO PUSH2 0x1442 JUMPI PUSH2 0x1441 PUSH2 0x14B3 JUMP JUMPDEST JUMPDEST DUP1 PUSH1 0x40 MSTORE POP POP POP JUMP JUMPDEST PUSH1 0x0 DUP2 SWAP1 POP SWAP2 SWAP1 POP JUMP JUMPDEST PUSH32 0x4E487B7100000000000000000000000000000000000000000000000000000000 PUSH1 0x0 MSTORE PUSH1 0x21 PUSH1 0x4 MSTORE PUSH1 0x24 PUSH1 0x0 REVERT JUMPDEST PUSH32 0x4E487B7100000000000000000000000000000000000000000000000000000000 PUSH1 0x0 MSTORE PUSH1 0x22 PUSH1 0x4 MSTORE PUSH1 0x24 PUSH1 0x0 REVERT JUMPDEST PUSH32 0x4E487B7100000000000000000000000000000000000000000000000000000000 PUSH1 0x0 MSTORE PUSH1 0x41 PUSH1 0x4 MSTORE PUSH1 0x24 PUSH1 0x0 REVERT JUMPDEST PUSH1 0x0 DUP1 REVERT JUMPDEST PUSH1 0x0 DUP1 REVERT JUMPDEST PUSH1 0x0 DUP1 REVERT JUMPDEST PUSH1 0x0 DUP1 REVERT JUMPDEST PUSH1 0x0 DUP1 REVERT JUMPDEST PUSH1 0x0 DUP1 REVERT JUMPDEST PUSH1 0x0 PUSH1 0x1F NOT PUSH1 0x1F DUP4 ADD AND SWAP1 POP SWAP2 SWAP1 POP JUMP JUMPDEST PUSH32 0x45434453413A20696E76616C6964207369676E61747572650000000000000000 PUSH1 0x0 DUP3 ADD MSTORE POP JUMP JUMPDEST PUSH32 0x45434453413A20696E76616C6964207369676E6174757265206C656E67746800 PUSH1 0x0 DUP3 ADD MSTORE POP JUMP JUMPDEST PUSH32 0x496E636F72726563746C79207369676E6564206461746120736F757263652076 PUSH1 0x0 DUP3 ADD MSTORE PUSH32 0x6572696669636174696F6E207265717565737400000000000000000000000000 PUSH1 0x20 DUP3 ADD MSTORE POP JUMP JUMPDEST PUSH32 0x4461746120536F7572636520416C726561647920566572696669656400000000 PUSH1 0x0 DUP3 ADD MSTORE POP JUMP JUMPDEST PUSH32 0x4F776E61626C653A206E6577206F776E657220697320746865207A65726F2061 PUSH1 0x0 DUP3 ADD MSTORE PUSH32 0x6464726573730000000000000000000000000000000000000000000000000000 PUSH1 0x20 DUP3 ADD MSTORE POP JUMP JUMPDEST PUSH32 0x1901000000000000000000000000000000000000000000000000000000000000 PUSH1 0x0 DUP3 ADD MSTORE POP JUMP JUMPDEST PUSH32 0x45434453413A20696E76616C6964207369676E6174757265202773272076616C PUSH1 0x0 DUP3 ADD MSTORE PUSH32 0x7565000000000000000000000000000000000000000000000000000000000000 PUSH1 0x20 DUP3 ADD MSTORE POP JUMP JUMPDEST PUSH32 0x4F776E61626C653A2063616C6C6572206973206E6F7420746865206F776E6572 PUSH1 0x0 DUP3 ADD MSTORE POP JUMP JUMPDEST PUSH2 0x16D4 DUP2 PUSH2 0x1353 JUMP JUMPDEST DUP2 EQ PUSH2 0x16DF JUMPI PUSH1 0x0 DUP1 REVERT JUMPDEST POP JUMP INVALID LOG2 PUSH5 0x6970667358 0x22 SLT KECCAK256 0x4F 0xE5 0xE2 KECCAK256 EXTCODESIZE 0xBC CODESIZE 0xE0 0xCE PUSH21 0x1AD907CDF4A66529240065A27EE939F26C6E9D41AA SWAP5 PUSH5 0x736F6C6343 STOP ADDMOD SMOD STOP CALLER "
				},
				"gasEstimates": {
					"creation": {
						"codeDepositCost": "1182400",
						"executionCost": "infinite",
						"totalCost": "infinite"
					},
					"external": {
						"add_name((string,string,address,bytes))": "infinite",
						"add_to_source_map(address,string)": "infinite",
						"getSigner((string,string,address,bytes))": "infinite",
						"owner()": "2522",
						"renounceOwnership()": "30443",
						"setRouterCreator(address)": "27030",
						"transferOwnership(address)": "30813"
					}
				},
				"methodIdentifiers": {
					"add_name((string,string,address,bytes))": "b24a5e0d",
					"add_to_source_map(address,string)": "68dfffbd",
					"getSigner((string,string,address,bytes))": "30f89e29",
					"owner()": "8da5cb5b",
					"renounceOwnership()": "715018a6",
					"setRouterCreator(address)": "b2969a2e",
					"transferOwnership(address)": "f2fde38b"
				}
			},
			"storageLayout": {
				"storage": [
					{
						"astId": 7,
						"contract": "contracts/DataOnboarder.sol:DataOnboarder",
						"label": "_owner",
						"offset": 0,
						"slot": "0",
						"type": "t_address"
					},
					{
						"astId": 1706,
						"contract": "contracts/DataOnboarder.sol:DataOnboarder",
						"label": "add_to_source_map",
						"offset": 0,
						"slot": "1",
						"type": "t_mapping(t_address,t_mapping(t_string_memory_ptr,t_string_storage))"
					},
					{
						"astId": 1708,
						"contract": "contracts/DataOnboarder.sol:DataOnboarder",
						"label": "router_creator",
						"offset": 0,
						"slot": "2",
						"type": "t_address"
					}
				],
				"types": {
					"t_address": {
						"encoding": "inplace",
						"label": "address",
						"numberOfBytes": "20"
					},
					"t_mapping(t_address,t_mapping(t_string_memory_ptr,t_string_storage))": {
						"encoding": "mapping",
						"key": "t_address",
						"label": "mapping(address => mapping(string => string))",
						"numberOfBytes": "32",
						"value": "t_mapping(t_string_memory_ptr,t_string_storage)"
					},
					"t_mapping(t_string_memory_ptr,t_string_storage)": {
						"encoding": "mapping",
						"key": "t_string_memory_ptr",
						"label": "mapping(string => string)",
						"numberOfBytes": "32",
						"value": "t_string_storage"
					},
					"t_string_memory_ptr": {
						"encoding": "bytes",
						"label": "string",
						"numberOfBytes": "32"
					},
					"t_string_storage": {
						"encoding": "bytes",
						"label": "string",
						"numberOfBytes": "32"
					}
				}
			},
			"userdoc": {
				"kind": "user",
				"methods": {},
				"version": 1
			}
		}
	}
}