{
	"contracts/DataOnboarder.sol": {
		"DataOnboarder": {
			"abi": [
				{
					"inputs": [],
					"stateMutability": "nonpayable",
					"type": "constructor"
				},
				{
					"anonymous": false,
					"inputs": [
						{
							"indexed": true,
							"internalType": "address",
							"name": "previousOwner",
							"type": "address"
						},
						{
							"indexed": true,
							"internalType": "address",
							"name": "newOwner",
							"type": "address"
						}
					],
					"name": "OwnershipTransferred",
					"type": "event"
				},
				{
					"inputs": [
						{
							"components": [
								{
									"internalType": "string",
									"name": "profile_uid",
									"type": "string"
								},
								{
									"internalType": "string",
									"name": "platform_name",
									"type": "string"
								},
								{
									"internalType": "address",
									"name": "corresponding_pubkey",
									"type": "address"
								},
								{
									"internalType": "bytes",
									"name": "signature",
									"type": "bytes"
								}
							],
							"internalType": "struct DataOnboarderSigner.DataSourceLink",
							"name": "verified_data_source",
							"type": "tuple"
						}
					],
					"name": "add_name",
					"outputs": [],
					"stateMutability": "nonpayable",
					"type": "function"
				},
				{
					"inputs": [
						{
							"internalType": "address",
							"name": "",
							"type": "address"
						},
						{
							"internalType": "string",
							"name": "",
							"type": "string"
						}
					],
					"name": "add_to_source_map",
					"outputs": [
						{
							"internalType": "string",
							"name": "",
							"type": "string"
						}
					],
					"stateMutability": "view",
					"type": "function"
				},
				{
					"inputs": [
						{
							"components": [
								{
									"internalType": "string",
									"name": "profile_uid",
									"type": "string"
								},
								{
									"internalType": "string",
									"name": "platform_name",
									"type": "string"
								},
								{
									"internalType": "address",
									"name": "corresponding_pubkey",
									"type": "address"
								},
								{
									"internalType": "bytes",
									"name": "signature",
									"type": "bytes"
								}
							],
							"internalType": "struct DataOnboarderSigner.DataSourceLink",
							"name": "result",
							"type": "tuple"
						}
					],
					"name": "getSigner",
					"outputs": [
						{
							"internalType": "address",
							"name": "",
							"type": "address"
						}
					],
					"stateMutability": "view",
					"type": "function"
				},
				{
					"inputs": [],
					"name": "owner",
					"outputs": [
						{
							"internalType": "address",
							"name": "",
							"type": "address"
						}
					],
					"stateMutability": "view",
					"type": "function"
				},
				{
					"inputs": [],
					"name": "renounceOwnership",
					"outputs": [],
					"stateMutability": "nonpayable",
					"type": "function"
				},
				{
					"inputs": [
						{
							"internalType": "address",
							"name": "_creator",
							"type": "address"
						}
					],
					"name": "setRouterCreator",
					"outputs": [],
					"stateMutability": "nonpayable",
					"type": "function"
				},
				{
					"inputs": [
						{
							"internalType": "string",
							"name": "",
							"type": "string"
						},
						{
							"internalType": "string",
							"name": "",
							"type": "string"
						}
					],
					"name": "source_to_add_map",
					"outputs": [
						{
							"internalType": "address",
							"name": "",
							"type": "address"
						}
					],
					"stateMutability": "view",
					"type": "function"
				},
				{
					"inputs": [
						{
							"internalType": "address",
							"name": "newOwner",
							"type": "address"
						}
					],
					"name": "transferOwnership",
					"outputs": [],
					"stateMutability": "nonpayable",
					"type": "function"
				}
			],
			"devdoc": {
				"kind": "dev",
				"methods": {
					"owner()": {
						"details": "Returns the address of the current owner."
					},
					"renounceOwnership()": {
						"details": "Leaves the contract without owner. It will not be possible to call `onlyOwner` functions anymore. Can only be called by the current owner. NOTE: Renouncing ownership will leave the contract without an owner, thereby removing any functionality that is only available to the owner."
					},
					"transferOwnership(address)": {
						"details": "Transfers ownership of the contract to a new account (`newOwner`). Can only be called by the current owner."
					}
				},
				"version": 1
			},
			"evm": {
				"assembly": "    /* \"contracts/DataOnboarder.sol\":167:1196  contract DataOnboarder is Ownable, DataOnboarderSigner{\r... */\n  mstore(0x40, 0x0140)\n    /* \"contracts/DataOnboarder.sol\":411:511  constructor() DataOnboarderSigner(\"journal3.com\", \"1\"){\r... */\n  callvalue\n  dup1\n  iszero\n  tag_1\n  jumpi\n  0x00\n  dup1\n  revert\ntag_1:\n  pop\n    /* \"contracts/DataOnboarderSigner.sol\":360:493  constructor(string memory SIGNING_DOMAIN,string memory SIGNATURE_VERSION) EIP712(SIGNING_DOMAIN, SIGNATURE_VERSION){\r... */\n  mload(0x40)\n  dup1\n  0x40\n  add\n  0x40\n  mstore\n  dup1\n  0x0c\n  dup2\n  mstore\n  0x20\n  add\n  0x6a6f75726e616c332e636f6d0000000000000000000000000000000000000000\n  dup2\n  mstore\n  pop\n  mload(0x40)\n  dup1\n  0x40\n  add\n  0x40\n  mstore\n  dup1\n  0x01\n  dup2\n  mstore\n  0x20\n  add\n  0x3100000000000000000000000000000000000000000000000000000000000000\n  dup2\n  mstore\n  pop\n    /* \"contracts/DataOnboarderSigner.sol\":441:455  SIGNING_DOMAIN */\n  dup2\n    /* \"contracts/DataOnboarderSigner.sol\":457:474  SIGNATURE_VERSION */\n  dup2\n    /* \"@openzeppelin/contracts/access/Ownable.sol\":936:968  _transferOwnership(_msgSender()) */\n  tag_7\n    /* \"@openzeppelin/contracts/access/Ownable.sol\":955:967  _msgSender() */\n  tag_8\n    /* \"@openzeppelin/contracts/access/Ownable.sol\":955:965  _msgSender */\n  shl(0x20, tag_9)\n    /* \"@openzeppelin/contracts/access/Ownable.sol\":955:967  _msgSender() */\n  0x20\n  shr\n  jump\t// in\ntag_8:\n    /* \"@openzeppelin/contracts/access/Ownable.sol\":936:954  _transferOwnership */\n  shl(0x20, tag_10)\n    /* \"@openzeppelin/contracts/access/Ownable.sol\":936:968  _transferOwnership(_msgSender()) */\n  0x20\n  shr\n  jump\t// in\ntag_7:\n    /* \"@openzeppelin/contracts/utils/cryptography/EIP712.sol\":2529:2547  bytes32 hashedName */\n  0x00\n    /* \"@openzeppelin/contracts/utils/cryptography/EIP712.sol\":2566:2570  name */\n  dup3\n    /* \"@openzeppelin/contracts/utils/cryptography/EIP712.sol\":2550:2572  keccak256(bytes(name)) */\n  dup1\n  mload\n  swap1\n  0x20\n  add\n  keccak256\n    /* \"@openzeppelin/contracts/utils/cryptography/EIP712.sol\":2529:2572  bytes32 hashedName = keccak256(bytes(name)) */\n  swap1\n  pop\n    /* \"@openzeppelin/contracts/utils/cryptography/EIP712.sol\":2582:2603  bytes32 hashedVersion */\n  0x00\n    /* \"@openzeppelin/contracts/utils/cryptography/EIP712.sol\":2622:2629  version */\n  dup3\n    /* \"@openzeppelin/contracts/utils/cryptography/EIP712.sol\":2606:2631  keccak256(bytes(version)) */\n  dup1\n  mload\n  swap1\n  0x20\n  add\n  keccak256\n    /* \"@openzeppelin/contracts/utils/cryptography/EIP712.sol\":2582:2631  bytes32 hashedVersion = keccak256(bytes(version)) */\n  swap1\n  pop\n    /* \"@openzeppelin/contracts/utils/cryptography/EIP712.sol\":2641:2657  bytes32 typeHash */\n  0x00\n    /* \"@openzeppelin/contracts/utils/cryptography/EIP712.sol\":2660:2777  keccak256(... */\n  0x8b73c3c69bb8fe3d512ecc4cf759cc79239f7b179b0ffacaa9a75d522b39400f\n    /* \"@openzeppelin/contracts/utils/cryptography/EIP712.sol\":2641:2777  bytes32 typeHash = keccak256(... */\n  swap1\n  pop\n    /* \"@openzeppelin/contracts/utils/cryptography/EIP712.sol\":2802:2812  hashedName */\n  dup3\n    /* \"@openzeppelin/contracts/utils/cryptography/EIP712.sol\":2787:2812  _HASHED_NAME = hashedName */\n  0xe0\n  dup2\n  dup2\n  mstore\n  pop\n  pop\n    /* \"@openzeppelin/contracts/utils/cryptography/EIP712.sol\":2840:2853  hashedVersion */\n  dup2\n    /* \"@openzeppelin/contracts/utils/cryptography/EIP712.sol\":2822:2853  _HASHED_VERSION = hashedVersion */\n  0x0100\n  dup2\n  dup2\n  mstore\n  pop\n  pop\n    /* \"@openzeppelin/contracts/utils/cryptography/EIP712.sol\":2882:2895  block.chainid */\n  chainid\n    /* \"@openzeppelin/contracts/utils/cryptography/EIP712.sol\":2863:2895  _CACHED_CHAIN_ID = block.chainid */\n  0xa0\n  dup2\n  dup2\n  mstore\n  pop\n  pop\n    /* \"@openzeppelin/contracts/utils/cryptography/EIP712.sol\":2932:2990  _buildDomainSeparator(typeHash, hashedName, hashedVersion) */\n  tag_12\n    /* \"@openzeppelin/contracts/utils/cryptography/EIP712.sol\":2954:2962  typeHash */\n  dup2\n    /* \"@openzeppelin/contracts/utils/cryptography/EIP712.sol\":2964:2974  hashedName */\n  dup5\n    /* \"@openzeppelin/contracts/utils/cryptography/EIP712.sol\":2976:2989  hashedVersion */\n  dup5\n    /* \"@openzeppelin/contracts/utils/cryptography/EIP712.sol\":2932:2953  _buildDomainSeparator */\n  shl(0x20, tag_13)\n    /* \"@openzeppelin/contracts/utils/cryptography/EIP712.sol\":2932:2990  _buildDomainSeparator(typeHash, hashedName, hashedVersion) */\n  0x20\n  shr\n  jump\t// in\ntag_12:\n    /* \"@openzeppelin/contracts/utils/cryptography/EIP712.sol\":2905:2990  _CACHED_DOMAIN_SEPARATOR = _buildDomainSeparator(typeHash, hashedName, hashedVersion) */\n  0x80\n  dup2\n  dup2\n  mstore\n  pop\n  pop\n    /* \"@openzeppelin/contracts/utils/cryptography/EIP712.sol\":3023:3027  this */\n  address\n    /* \"@openzeppelin/contracts/utils/cryptography/EIP712.sol\":3000:3028  _CACHED_THIS = address(this) */\n  0xffffffffffffffffffffffffffffffffffffffff\n  and\n  0xc0\n  dup2\n  0xffffffffffffffffffffffffffffffffffffffff\n  and\n  0x60\n  shl\n  dup2\n  mstore\n  pop\n  pop\n    /* \"@openzeppelin/contracts/utils/cryptography/EIP712.sol\":3051:3059  typeHash */\n  dup1\n    /* \"@openzeppelin/contracts/utils/cryptography/EIP712.sol\":3038:3059  _TYPE_HASH = typeHash */\n  0x0120\n  dup2\n  dup2\n  mstore\n  pop\n  pop\n    /* \"@openzeppelin/contracts/utils/cryptography/EIP712.sol\":2519:3066  {... */\n  pop\n  pop\n  pop\n    /* \"@openzeppelin/contracts/utils/cryptography/EIP712.sol\":2464:3066  constructor(string memory name, string memory version) {... */\n  pop\n  pop\n    /* \"contracts/DataOnboarderSigner.sol\":360:493  constructor(string memory SIGNING_DOMAIN,string memory SIGNATURE_VERSION) EIP712(SIGNING_DOMAIN, SIGNATURE_VERSION){\r... */\n  pop\n  pop\n    /* \"contracts/DataOnboarder.sol\":493:503  msg.sender */\n  caller\n    /* \"contracts/DataOnboarder.sol\":476:490  router_creator */\n  0x03\n  0x00\n    /* \"contracts/DataOnboarder.sol\":476:503  router_creator = msg.sender */\n  0x0100\n  exp\n  dup2\n  sload\n  dup2\n  0xffffffffffffffffffffffffffffffffffffffff\n  mul\n  not\n  and\n  swap1\n  dup4\n  0xffffffffffffffffffffffffffffffffffffffff\n  and\n  mul\n  or\n  swap1\n  sstore\n  pop\n    /* \"contracts/DataOnboarder.sol\":167:1196  contract DataOnboarder is Ownable, DataOnboarderSigner{\r... */\n  jump(tag_16)\n    /* \"@openzeppelin/contracts/utils/Context.sol\":640:736  function _msgSender() internal view virtual returns (address) {... */\ntag_9:\n    /* \"@openzeppelin/contracts/utils/Context.sol\":693:700  address */\n  0x00\n    /* \"@openzeppelin/contracts/utils/Context.sol\":719:729  msg.sender */\n  caller\n    /* \"@openzeppelin/contracts/utils/Context.sol\":712:729  return msg.sender */\n  swap1\n  pop\n    /* \"@openzeppelin/contracts/utils/Context.sol\":640:736  function _msgSender() internal view virtual returns (address) {... */\n  swap1\n  jump\t// out\n    /* \"@openzeppelin/contracts/access/Ownable.sol\":2433:2620  function _transferOwnership(address newOwner) internal virtual {... */\ntag_10:\n    /* \"@openzeppelin/contracts/access/Ownable.sol\":2506:2522  address oldOwner */\n  0x00\n    /* \"@openzeppelin/contracts/access/Ownable.sol\":2525:2531  _owner */\n  dup1\n  0x00\n  swap1\n  sload\n  swap1\n  0x0100\n  exp\n  swap1\n  div\n  0xffffffffffffffffffffffffffffffffffffffff\n  and\n    /* \"@openzeppelin/contracts/access/Ownable.sol\":2506:2531  address oldOwner = _owner */\n  swap1\n  pop\n    /* \"@openzeppelin/contracts/access/Ownable.sol\":2550:2558  newOwner */\n  dup2\n    /* \"@openzeppelin/contracts/access/Ownable.sol\":2541:2547  _owner */\n  0x00\n  dup1\n    /* \"@openzeppelin/contracts/access/Ownable.sol\":2541:2558  _owner = newOwner */\n  0x0100\n  exp\n  dup2\n  sload\n  dup2\n  0xffffffffffffffffffffffffffffffffffffffff\n  mul\n  not\n  and\n  swap1\n  dup4\n  0xffffffffffffffffffffffffffffffffffffffff\n  and\n  mul\n  or\n  swap1\n  sstore\n  pop\n    /* \"@openzeppelin/contracts/access/Ownable.sol\":2604:2612  newOwner */\n  dup2\n    /* \"@openzeppelin/contracts/access/Ownable.sol\":2573:2613  OwnershipTransferred(oldOwner, newOwner) */\n  0xffffffffffffffffffffffffffffffffffffffff\n  and\n    /* \"@openzeppelin/contracts/access/Ownable.sol\":2594:2602  oldOwner */\n  dup2\n    /* \"@openzeppelin/contracts/access/Ownable.sol\":2573:2613  OwnershipTransferred(oldOwner, newOwner) */\n  0xffffffffffffffffffffffffffffffffffffffff\n  and\n  0x8be0079c531659141344cd1fd0a4f28419497f9722a3daafe3b4186f6b6457e0\n  mload(0x40)\n  mload(0x40)\n  dup1\n  swap2\n  sub\n  swap1\n  log3\n    /* \"@openzeppelin/contracts/access/Ownable.sol\":2496:2620  {... */\n  pop\n    /* \"@openzeppelin/contracts/access/Ownable.sol\":2433:2620  function _transferOwnership(address newOwner) internal virtual {... */\n  pop\n  jump\t// out\n    /* \"@openzeppelin/contracts/utils/cryptography/EIP712.sol\":3466:3723  function _buildDomainSeparator(... */\ntag_13:\n    /* \"@openzeppelin/contracts/utils/cryptography/EIP712.sol\":3606:3613  bytes32 */\n  0x00\n    /* \"@openzeppelin/contracts/utils/cryptography/EIP712.sol\":3653:3661  typeHash */\n  dup4\n    /* \"@openzeppelin/contracts/utils/cryptography/EIP712.sol\":3663:3671  nameHash */\n  dup4\n    /* \"@openzeppelin/contracts/utils/cryptography/EIP712.sol\":3673:3684  versionHash */\n  dup4\n    /* \"@openzeppelin/contracts/utils/cryptography/EIP712.sol\":3686:3699  block.chainid */\n  chainid\n    /* \"@openzeppelin/contracts/utils/cryptography/EIP712.sol\":3709:3713  this */\n  address\n    /* \"@openzeppelin/contracts/utils/cryptography/EIP712.sol\":3642:3715  abi.encode(typeHash, nameHash, versionHash, block.chainid, address(this)) */\n  add(0x20, mload(0x40))\n  tag_20\n  swap6\n  swap5\n  swap4\n  swap3\n  swap2\n  swap1\n  tag_21\n  jump\t// in\ntag_20:\n  mload(0x40)\n  0x20\n  dup2\n  dup4\n  sub\n  sub\n  dup2\n  mstore\n  swap1\n  0x40\n  mstore\n    /* \"@openzeppelin/contracts/utils/cryptography/EIP712.sol\":3632:3716  keccak256(abi.encode(typeHash, nameHash, versionHash, block.chainid, address(this))) */\n  dup1\n  mload\n  swap1\n  0x20\n  add\n  keccak256\n    /* \"@openzeppelin/contracts/utils/cryptography/EIP712.sol\":3625:3716  return keccak256(abi.encode(typeHash, nameHash, versionHash, block.chainid, address(this))) */\n  swap1\n  pop\n    /* \"@openzeppelin/contracts/utils/cryptography/EIP712.sol\":3466:3723  function _buildDomainSeparator(... */\n  swap4\n  swap3\n  pop\n  pop\n  pop\n  jump\t// out\n    /* \"#utility.yul\":7:125   */\ntag_23:\n    /* \"#utility.yul\":94:118   */\n  tag_25\n    /* \"#utility.yul\":112:117   */\n  dup2\n    /* \"#utility.yul\":94:118   */\n  tag_26\n  jump\t// in\ntag_25:\n    /* \"#utility.yul\":89:92   */\n  dup3\n    /* \"#utility.yul\":82:119   */\n  mstore\n    /* \"#utility.yul\":7:125   */\n  pop\n  pop\n  jump\t// out\n    /* \"#utility.yul\":131:249   */\ntag_27:\n    /* \"#utility.yul\":218:242   */\n  tag_29\n    /* \"#utility.yul\":236:241   */\n  dup2\n    /* \"#utility.yul\":218:242   */\n  tag_30\n  jump\t// in\ntag_29:\n    /* \"#utility.yul\":213:216   */\n  dup3\n    /* \"#utility.yul\":206:243   */\n  mstore\n    /* \"#utility.yul\":131:249   */\n  pop\n  pop\n  jump\t// out\n    /* \"#utility.yul\":255:373   */\ntag_31:\n    /* \"#utility.yul\":342:366   */\n  tag_33\n    /* \"#utility.yul\":360:365   */\n  dup2\n    /* \"#utility.yul\":342:366   */\n  tag_34\n  jump\t// in\ntag_33:\n    /* \"#utility.yul\":337:340   */\n  dup3\n    /* \"#utility.yul\":330:367   */\n  mstore\n    /* \"#utility.yul\":255:373   */\n  pop\n  pop\n  jump\t// out\n    /* \"#utility.yul\":379:1043   */\ntag_21:\n    /* \"#utility.yul\":584:588   */\n  0x00\n    /* \"#utility.yul\":622:625   */\n  0xa0\n    /* \"#utility.yul\":611:620   */\n  dup3\n    /* \"#utility.yul\":607:626   */\n  add\n    /* \"#utility.yul\":599:626   */\n  swap1\n  pop\n    /* \"#utility.yul\":636:707   */\n  tag_36\n    /* \"#utility.yul\":704:705   */\n  0x00\n    /* \"#utility.yul\":693:702   */\n  dup4\n    /* \"#utility.yul\":689:706   */\n  add\n    /* \"#utility.yul\":680:686   */\n  dup9\n    /* \"#utility.yul\":636:707   */\n  tag_27\n  jump\t// in\ntag_36:\n    /* \"#utility.yul\":717:789   */\n  tag_37\n    /* \"#utility.yul\":785:787   */\n  0x20\n    /* \"#utility.yul\":774:783   */\n  dup4\n    /* \"#utility.yul\":770:788   */\n  add\n    /* \"#utility.yul\":761:767   */\n  dup8\n    /* \"#utility.yul\":717:789   */\n  tag_27\n  jump\t// in\ntag_37:\n    /* \"#utility.yul\":799:871   */\n  tag_38\n    /* \"#utility.yul\":867:869   */\n  0x40\n    /* \"#utility.yul\":856:865   */\n  dup4\n    /* \"#utility.yul\":852:870   */\n  add\n    /* \"#utility.yul\":843:849   */\n  dup7\n    /* \"#utility.yul\":799:871   */\n  tag_27\n  jump\t// in\ntag_38:\n    /* \"#utility.yul\":881:953   */\n  tag_39\n    /* \"#utility.yul\":949:951   */\n  0x60\n    /* \"#utility.yul\":938:947   */\n  dup4\n    /* \"#utility.yul\":934:952   */\n  add\n    /* \"#utility.yul\":925:931   */\n  dup6\n    /* \"#utility.yul\":881:953   */\n  tag_31\n  jump\t// in\ntag_39:\n    /* \"#utility.yul\":963:1036   */\n  tag_40\n    /* \"#utility.yul\":1031:1034   */\n  0x80\n    /* \"#utility.yul\":1020:1029   */\n  dup4\n    /* \"#utility.yul\":1016:1035   */\n  add\n    /* \"#utility.yul\":1007:1013   */\n  dup5\n    /* \"#utility.yul\":963:1036   */\n  tag_23\n  jump\t// in\ntag_40:\n    /* \"#utility.yul\":379:1043   */\n  swap7\n  swap6\n  pop\n  pop\n  pop\n  pop\n  pop\n  pop\n  jump\t// out\n    /* \"#utility.yul\":1049:1145   */\ntag_26:\n    /* \"#utility.yul\":1086:1093   */\n  0x00\n    /* \"#utility.yul\":1115:1139   */\n  tag_42\n    /* \"#utility.yul\":1133:1138   */\n  dup3\n    /* \"#utility.yul\":1115:1139   */\n  tag_43\n  jump\t// in\ntag_42:\n    /* \"#utility.yul\":1104:1139   */\n  swap1\n  pop\n    /* \"#utility.yul\":1049:1145   */\n  swap2\n  swap1\n  pop\n  jump\t// out\n    /* \"#utility.yul\":1151:1228   */\ntag_30:\n    /* \"#utility.yul\":1188:1195   */\n  0x00\n    /* \"#utility.yul\":1217:1222   */\n  dup2\n    /* \"#utility.yul\":1206:1222   */\n  swap1\n  pop\n    /* \"#utility.yul\":1151:1228   */\n  swap2\n  swap1\n  pop\n  jump\t// out\n    /* \"#utility.yul\":1234:1360   */\ntag_43:\n    /* \"#utility.yul\":1271:1278   */\n  0x00\n    /* \"#utility.yul\":1311:1353   */\n  0xffffffffffffffffffffffffffffffffffffffff\n    /* \"#utility.yul\":1304:1309   */\n  dup3\n    /* \"#utility.yul\":1300:1354   */\n  and\n    /* \"#utility.yul\":1289:1354   */\n  swap1\n  pop\n    /* \"#utility.yul\":1234:1360   */\n  swap2\n  swap1\n  pop\n  jump\t// out\n    /* \"#utility.yul\":1366:1443   */\ntag_34:\n    /* \"#utility.yul\":1403:1410   */\n  0x00\n    /* \"#utility.yul\":1432:1437   */\n  dup2\n    /* \"#utility.yul\":1421:1437   */\n  swap1\n  pop\n    /* \"#utility.yul\":1366:1443   */\n  swap2\n  swap1\n  pop\n  jump\t// out\n    /* \"contracts/DataOnboarder.sol\":167:1196  contract DataOnboarder is Ownable, DataOnboarderSigner{\r... */\ntag_16:\n  mload(0x80)\n  mload(0xa0)\n  shr(0x60, mload(0xc0))\n  mload(0xe0)\n  mload(0x0100)\n  mload(0x0120)\n  codecopy(0x00, dataOffset(sub_0), dataSize(sub_0))\n  0x00\n  assignImmutable(\"0xcab8721890c4a0282eedf7457a9eef71e0286aef15a4e0cdc4e5d20a5c38ddc9\")\n  0x00\n  assignImmutable(\"0x897a133c923b782c0eb5be242182d01a105b8766edbf31c68f44b2a1201f0476\")\n  0x00\n  assignImmutable(\"0x62436f2808c4896b559574a20128c359e32d25d88f8026d5d47b3442a6b3eabd\")\n  0x00\n  assignImmutable(\"0x17f9f6c7b1e09d3d1844320c8ed1a68af4fbb1102f099230f06c07fb6e143460\")\n  0x00\n  assignImmutable(\"0xcf5384ecdd962c51714f0761b3e741fbbed81221f270bc3511a60f72d0d8cd7d\")\n  0x00\n  assignImmutable(\"0xc789ed62c0471ea887fe385618241659dfb2b473a8c970202f43d3beabf7a5e4\")\n  return(0x00, dataSize(sub_0))\nstop\n\nsub_0: assembly {\n        /* \"contracts/DataOnboarder.sol\":167:1196  contract DataOnboarder is Ownable, DataOnboarderSigner{\r... */\n      mstore(0x40, 0x80)\n      callvalue\n      dup1\n      iszero\n      tag_1\n      jumpi\n      0x00\n      dup1\n      revert\n    tag_1:\n      pop\n      jumpi(tag_2, lt(calldatasize, 0x04))\n      shr(0xe0, calldataload(0x00))\n      dup1\n      0x8da5cb5b\n      gt\n      tag_11\n      jumpi\n      dup1\n      0x8da5cb5b\n      eq\n      tag_7\n      jumpi\n      dup1\n      0xb24a5e0d\n      eq\n      tag_8\n      jumpi\n      dup1\n      0xb2969a2e\n      eq\n      tag_9\n      jumpi\n      dup1\n      0xf2fde38b\n      eq\n      tag_10\n      jumpi\n      jump(tag_2)\n    tag_11:\n      dup1\n      0x2dffb6ce\n      eq\n      tag_3\n      jumpi\n      dup1\n      0x30f89e29\n      eq\n      tag_4\n      jumpi\n      dup1\n      0x68dfffbd\n      eq\n      tag_5\n      jumpi\n      dup1\n      0x715018a6\n      eq\n      tag_6\n      jumpi\n    tag_2:\n      0x00\n      dup1\n      revert\n        /* \"contracts/DataOnboarder.sol\":307:373  mapping(string=>mapping(string=>address)) public source_to_add_map */\n    tag_3:\n      tag_12\n      0x04\n      dup1\n      calldatasize\n      sub\n      dup2\n      add\n      swap1\n      tag_13\n      swap2\n      swap1\n      tag_14\n      jump\t// in\n    tag_13:\n      tag_15\n      jump\t// in\n    tag_12:\n      mload(0x40)\n      tag_16\n      swap2\n      swap1\n      tag_17\n      jump\t// in\n    tag_16:\n      mload(0x40)\n      dup1\n      swap2\n      sub\n      swap1\n      return\n        /* \"contracts/DataOnboarderSigner.sol\":501:619  function getSigner(DataSourceLink memory result) public view returns(address){\r... */\n    tag_4:\n      tag_18\n      0x04\n      dup1\n      calldatasize\n      sub\n      dup2\n      add\n      swap1\n      tag_19\n      swap2\n      swap1\n      tag_20\n      jump\t// in\n    tag_19:\n      tag_21\n      jump\t// in\n    tag_18:\n      mload(0x40)\n      tag_22\n      swap2\n      swap1\n      tag_17\n      jump\t// in\n    tag_22:\n      mload(0x40)\n      dup1\n      swap2\n      sub\n      swap1\n      return\n        /* \"contracts/DataOnboarder.sol\":234:300  mapping(address=>mapping(string=>string)) public add_to_source_map */\n    tag_5:\n      tag_23\n      0x04\n      dup1\n      calldatasize\n      sub\n      dup2\n      add\n      swap1\n      tag_24\n      swap2\n      swap1\n      tag_25\n      jump\t// in\n    tag_24:\n      tag_26\n      jump\t// in\n    tag_23:\n      mload(0x40)\n      tag_27\n      swap2\n      swap1\n      tag_28\n      jump\t// in\n    tag_27:\n      mload(0x40)\n      dup1\n      swap2\n      sub\n      swap1\n      return\n        /* \"@openzeppelin/contracts/access/Ownable.sol\":1831:1932  function renounceOwnership() public virtual onlyOwner {... */\n    tag_6:\n      tag_29\n      tag_30\n      jump\t// in\n    tag_29:\n      stop\n        /* \"@openzeppelin/contracts/access/Ownable.sol\":1201:1286  function owner() public view virtual returns (address) {... */\n    tag_7:\n      tag_31\n      tag_32\n      jump\t// in\n    tag_31:\n      mload(0x40)\n      tag_33\n      swap2\n      swap1\n      tag_17\n      jump\t// in\n    tag_33:\n      mload(0x40)\n      dup1\n      swap2\n      sub\n      swap1\n      return\n        /* \"contracts/DataOnboarder.sol\":519:1077  function add_name(DataSourceLink memory verified_data_source) external{\r... */\n    tag_8:\n      tag_34\n      0x04\n      dup1\n      calldatasize\n      sub\n      dup2\n      add\n      swap1\n      tag_35\n      swap2\n      swap1\n      tag_20\n      jump\t// in\n    tag_35:\n      tag_36\n      jump\t// in\n    tag_34:\n      stop\n        /* \"contracts/DataOnboarder.sol\":1085:1191  function setRouterCreator(address _creator) external onlyOwner{\r... */\n    tag_9:\n      tag_37\n      0x04\n      dup1\n      calldatasize\n      sub\n      dup2\n      add\n      swap1\n      tag_38\n      swap2\n      swap1\n      tag_39\n      jump\t// in\n    tag_38:\n      tag_40\n      jump\t// in\n    tag_37:\n      stop\n        /* \"@openzeppelin/contracts/access/Ownable.sol\":2081:2279  function transferOwnership(address newOwner) public virtual onlyOwner {... */\n    tag_10:\n      tag_41\n      0x04\n      dup1\n      calldatasize\n      sub\n      dup2\n      add\n      swap1\n      tag_42\n      swap2\n      swap1\n      tag_39\n      jump\t// in\n    tag_42:\n      tag_43\n      jump\t// in\n    tag_41:\n      stop\n        /* \"contracts/DataOnboarder.sol\":307:373  mapping(string=>mapping(string=>address)) public source_to_add_map */\n    tag_15:\n      0x02\n      dup3\n      dup1\n      mload\n      0x20\n      dup2\n      add\n      dup3\n      add\n      dup1\n      mload\n      dup5\n      dup3\n      mstore\n      0x20\n      dup4\n      add\n      0x20\n      dup6\n      add\n      keccak256\n      dup2\n      dup4\n      mstore\n      dup1\n      swap6\n      pop\n      pop\n      pop\n      pop\n      pop\n      pop\n      dup2\n      dup1\n      mload\n      0x20\n      dup2\n      add\n      dup3\n      add\n      dup1\n      mload\n      dup5\n      dup3\n      mstore\n      0x20\n      dup4\n      add\n      0x20\n      dup6\n      add\n      keccak256\n      dup2\n      dup4\n      mstore\n      dup1\n      swap6\n      pop\n      pop\n      pop\n      pop\n      pop\n      pop\n      0x00\n      swap2\n      pop\n      swap2\n      pop\n      swap1\n      sload\n      swap1\n      0x0100\n      exp\n      swap1\n      div\n      0xffffffffffffffffffffffffffffffffffffffff\n      and\n      dup2\n      jump\t// out\n        /* \"contracts/DataOnboarderSigner.sol\":501:619  function getSigner(DataSourceLink memory result) public view returns(address){\r... */\n    tag_21:\n        /* \"contracts/DataOnboarderSigner.sol\":570:577  address */\n      0x00\n        /* \"contracts/DataOnboarderSigner.sol\":596:611  _verify(result) */\n      tag_45\n        /* \"contracts/DataOnboarderSigner.sol\":604:610  result */\n      dup3\n        /* \"contracts/DataOnboarderSigner.sol\":596:603  _verify */\n      tag_46\n        /* \"contracts/DataOnboarderSigner.sol\":596:611  _verify(result) */\n      jump\t// in\n    tag_45:\n        /* \"contracts/DataOnboarderSigner.sol\":589:611  return _verify(result) */\n      swap1\n      pop\n        /* \"contracts/DataOnboarderSigner.sol\":501:619  function getSigner(DataSourceLink memory result) public view returns(address){\r... */\n      swap2\n      swap1\n      pop\n      jump\t// out\n        /* \"contracts/DataOnboarder.sol\":234:300  mapping(address=>mapping(string=>string)) public add_to_source_map */\n    tag_26:\n      mstore(0x20, 0x01)\n      dup2\n      0x00\n      mstore\n      keccak256(0x00, 0x40)\n      dup2\n      dup1\n      mload\n      0x20\n      dup2\n      add\n      dup3\n      add\n      dup1\n      mload\n      dup5\n      dup3\n      mstore\n      0x20\n      dup4\n      add\n      0x20\n      dup6\n      add\n      keccak256\n      dup2\n      dup4\n      mstore\n      dup1\n      swap6\n      pop\n      pop\n      pop\n      pop\n      pop\n      pop\n      0x00\n      swap2\n      pop\n      swap2\n      pop\n      pop\n      dup1\n      sload\n      tag_47\n      swap1\n      tag_48\n      jump\t// in\n    tag_47:\n      dup1\n      0x1f\n      add\n      0x20\n      dup1\n      swap2\n      div\n      mul\n      0x20\n      add\n      mload(0x40)\n      swap1\n      dup2\n      add\n      0x40\n      mstore\n      dup1\n      swap3\n      swap2\n      swap1\n      dup2\n      dup2\n      mstore\n      0x20\n      add\n      dup3\n      dup1\n      sload\n      tag_49\n      swap1\n      tag_48\n      jump\t// in\n    tag_49:\n      dup1\n      iszero\n      tag_50\n      jumpi\n      dup1\n      0x1f\n      lt\n      tag_51\n      jumpi\n      0x0100\n      dup1\n      dup4\n      sload\n      div\n      mul\n      dup4\n      mstore\n      swap2\n      0x20\n      add\n      swap2\n      jump(tag_50)\n    tag_51:\n      dup3\n      add\n      swap2\n      swap1\n      0x00\n      mstore\n      keccak256(0x00, 0x20)\n      swap1\n    tag_52:\n      dup2\n      sload\n      dup2\n      mstore\n      swap1\n      0x01\n      add\n      swap1\n      0x20\n      add\n      dup1\n      dup4\n      gt\n      tag_52\n      jumpi\n      dup3\n      swap1\n      sub\n      0x1f\n      and\n      dup3\n      add\n      swap2\n    tag_50:\n      pop\n      pop\n      pop\n      pop\n      pop\n      dup2\n      jump\t// out\n        /* \"@openzeppelin/contracts/access/Ownable.sol\":1831:1932  function renounceOwnership() public virtual onlyOwner {... */\n    tag_30:\n        /* \"@openzeppelin/contracts/access/Ownable.sol\":1094:1107  _checkOwner() */\n      tag_54\n        /* \"@openzeppelin/contracts/access/Ownable.sol\":1094:1105  _checkOwner */\n      tag_55\n        /* \"@openzeppelin/contracts/access/Ownable.sol\":1094:1107  _checkOwner() */\n      jump\t// in\n    tag_54:\n        /* \"@openzeppelin/contracts/access/Ownable.sol\":1895:1925  _transferOwnership(address(0)) */\n      tag_57\n        /* \"@openzeppelin/contracts/access/Ownable.sol\":1922:1923  0 */\n      0x00\n        /* \"@openzeppelin/contracts/access/Ownable.sol\":1895:1913  _transferOwnership */\n      tag_58\n        /* \"@openzeppelin/contracts/access/Ownable.sol\":1895:1925  _transferOwnership(address(0)) */\n      jump\t// in\n    tag_57:\n        /* \"@openzeppelin/contracts/access/Ownable.sol\":1831:1932  function renounceOwnership() public virtual onlyOwner {... */\n      jump\t// out\n        /* \"@openzeppelin/contracts/access/Ownable.sol\":1201:1286  function owner() public view virtual returns (address) {... */\n    tag_32:\n        /* \"@openzeppelin/contracts/access/Ownable.sol\":1247:1254  address */\n      0x00\n        /* \"@openzeppelin/contracts/access/Ownable.sol\":1273:1279  _owner */\n      dup1\n      0x00\n      swap1\n      sload\n      swap1\n      0x0100\n      exp\n      swap1\n      div\n      0xffffffffffffffffffffffffffffffffffffffff\n      and\n        /* \"@openzeppelin/contracts/access/Ownable.sol\":1266:1279  return _owner */\n      swap1\n      pop\n        /* \"@openzeppelin/contracts/access/Ownable.sol\":1201:1286  function owner() public view virtual returns (address) {... */\n      swap1\n      jump\t// out\n        /* \"contracts/DataOnboarder.sol\":519:1077  function add_name(DataSourceLink memory verified_data_source) external{\r... */\n    tag_36:\n        /* \"contracts/DataOnboarder.sol\":626:657  getSigner(verified_data_source) */\n      tag_61\n        /* \"contracts/DataOnboarder.sol\":636:656  verified_data_source */\n      dup2\n        /* \"contracts/DataOnboarder.sol\":626:635  getSigner */\n      tag_21\n        /* \"contracts/DataOnboarder.sol\":626:657  getSigner(verified_data_source) */\n      jump\t// in\n    tag_61:\n        /* \"contracts/DataOnboarder.sol\":608:657  router_creator == getSigner(verified_data_source) */\n      0xffffffffffffffffffffffffffffffffffffffff\n      and\n        /* \"contracts/DataOnboarder.sol\":608:622  router_creator */\n      0x03\n      0x00\n      swap1\n      sload\n      swap1\n      0x0100\n      exp\n      swap1\n      div\n      0xffffffffffffffffffffffffffffffffffffffff\n      and\n        /* \"contracts/DataOnboarder.sol\":608:657  router_creator == getSigner(verified_data_source) */\n      0xffffffffffffffffffffffffffffffffffffffff\n      and\n      eq\n        /* \"contracts/DataOnboarder.sol\":600:713  require(router_creator == getSigner(verified_data_source), \"Incorrectly signed data source verification request\") */\n      tag_62\n      jumpi\n      mload(0x40)\n      0x08c379a000000000000000000000000000000000000000000000000000000000\n      dup2\n      mstore\n      0x04\n      add\n      tag_63\n      swap1\n      tag_64\n      jump\t// in\n    tag_63:\n      mload(0x40)\n      dup1\n      swap2\n      sub\n      swap1\n      revert\n    tag_62:\n        /* \"contracts/DataOnboarder.sol\":813:814  0 */\n      0x00\n        /* \"contracts/DataOnboarder.sol\":738:755  add_to_source_map */\n      0x01\n        /* \"contracts/DataOnboarder.sol\":738:767  add_to_source_map[msg.sender] */\n      0x00\n        /* \"contracts/DataOnboarder.sol\":756:766  msg.sender */\n      caller\n        /* \"contracts/DataOnboarder.sol\":738:767  add_to_source_map[msg.sender] */\n      0xffffffffffffffffffffffffffffffffffffffff\n      and\n      0xffffffffffffffffffffffffffffffffffffffff\n      and\n      dup2\n      mstore\n      0x20\n      add\n      swap1\n      dup2\n      mstore\n      0x20\n      add\n      0x00\n      keccak256\n        /* \"contracts/DataOnboarder.sol\":768:788  verified_data_source */\n      dup3\n        /* \"contracts/DataOnboarder.sol\":768:802  verified_data_source.platform_name */\n      0x20\n      add\n      mload\n        /* \"contracts/DataOnboarder.sol\":738:803  add_to_source_map[msg.sender][verified_data_source.platform_name] */\n      mload(0x40)\n      tag_65\n      swap2\n      swap1\n      tag_66\n      jump\t// in\n    tag_65:\n      swap1\n      dup2\n      mstore\n      0x20\n      add\n      mload(0x40)\n      dup1\n      swap2\n      sub\n      swap1\n      keccak256\n        /* \"contracts/DataOnboarder.sol\":732:811  bytes(add_to_source_map[msg.sender][verified_data_source.platform_name]).length */\n      dup1\n      sload\n      tag_67\n      swap1\n      tag_48\n      jump\t// in\n    tag_67:\n      swap1\n      pop\n        /* \"contracts/DataOnboarder.sol\":732:814  bytes(add_to_source_map[msg.sender][verified_data_source.platform_name]).length==0 */\n      eq\n        /* \"contracts/DataOnboarder.sol\":724:847  require(bytes(add_to_source_map[msg.sender][verified_data_source.platform_name]).length==0, \"Data Source Already Verified\") */\n      tag_68\n      jumpi\n      mload(0x40)\n      0x08c379a000000000000000000000000000000000000000000000000000000000\n      dup2\n      mstore\n      0x04\n      add\n      tag_69\n      swap1\n      tag_70\n      jump\t// in\n    tag_69:\n      mload(0x40)\n      dup1\n      swap2\n      sub\n      swap1\n      revert\n    tag_68:\n        /* \"contracts/DataOnboarder.sol\":926:946  verified_data_source */\n      dup1\n        /* \"contracts/DataOnboarder.sol\":926:958  verified_data_source.profile_uid */\n      0x00\n      add\n      mload\n        /* \"contracts/DataOnboarder.sol\":858:875  add_to_source_map */\n      0x01\n        /* \"contracts/DataOnboarder.sol\":858:887  add_to_source_map[msg.sender] */\n      0x00\n        /* \"contracts/DataOnboarder.sol\":876:886  msg.sender */\n      caller\n        /* \"contracts/DataOnboarder.sol\":858:887  add_to_source_map[msg.sender] */\n      0xffffffffffffffffffffffffffffffffffffffff\n      and\n      0xffffffffffffffffffffffffffffffffffffffff\n      and\n      dup2\n      mstore\n      0x20\n      add\n      swap1\n      dup2\n      mstore\n      0x20\n      add\n      0x00\n      keccak256\n        /* \"contracts/DataOnboarder.sol\":888:908  verified_data_source */\n      dup3\n        /* \"contracts/DataOnboarder.sol\":888:922  verified_data_source.platform_name */\n      0x20\n      add\n      mload\n        /* \"contracts/DataOnboarder.sol\":858:923  add_to_source_map[msg.sender][verified_data_source.platform_name] */\n      mload(0x40)\n      tag_71\n      swap2\n      swap1\n      tag_66\n      jump\t// in\n    tag_71:\n      swap1\n      dup2\n      mstore\n      0x20\n      add\n      mload(0x40)\n      dup1\n      swap2\n      sub\n      swap1\n      keccak256\n        /* \"contracts/DataOnboarder.sol\":858:958  add_to_source_map[msg.sender][verified_data_source.platform_name] = verified_data_source.profile_uid */\n      swap1\n      dup1\n      mload\n      swap1\n      0x20\n      add\n      swap1\n      tag_72\n      swap3\n      swap2\n      swap1\n      tag_73\n      jump\t// in\n    tag_72:\n      pop\n        /* \"contracts/DataOnboarder.sol\":1059:1069  msg.sender */\n      caller\n        /* \"contracts/DataOnboarder.sol\":969:986  source_to_add_map */\n      0x02\n        /* \"contracts/DataOnboarder.sol\":987:1007  verified_data_source */\n      dup3\n        /* \"contracts/DataOnboarder.sol\":987:1021  verified_data_source.platform_name */\n      0x20\n      add\n      mload\n        /* \"contracts/DataOnboarder.sol\":969:1022  source_to_add_map[verified_data_source.platform_name] */\n      mload(0x40)\n      tag_74\n      swap2\n      swap1\n      tag_66\n      jump\t// in\n    tag_74:\n      swap1\n      dup2\n      mstore\n      0x20\n      add\n      mload(0x40)\n      dup1\n      swap2\n      sub\n      swap1\n      keccak256\n        /* \"contracts/DataOnboarder.sol\":1023:1043  verified_data_source */\n      dup3\n        /* \"contracts/DataOnboarder.sol\":1023:1055  verified_data_source.profile_uid */\n      0x00\n      add\n      mload\n        /* \"contracts/DataOnboarder.sol\":969:1056  source_to_add_map[verified_data_source.platform_name][verified_data_source.profile_uid] */\n      mload(0x40)\n      tag_75\n      swap2\n      swap1\n      tag_66\n      jump\t// in\n    tag_75:\n      swap1\n      dup2\n      mstore\n      0x20\n      add\n      mload(0x40)\n      dup1\n      swap2\n      sub\n      swap1\n      keccak256\n      0x00\n        /* \"contracts/DataOnboarder.sol\":969:1069  source_to_add_map[verified_data_source.platform_name][verified_data_source.profile_uid] = msg.sender */\n      0x0100\n      exp\n      dup2\n      sload\n      dup2\n      0xffffffffffffffffffffffffffffffffffffffff\n      mul\n      not\n      and\n      swap1\n      dup4\n      0xffffffffffffffffffffffffffffffffffffffff\n      and\n      mul\n      or\n      swap1\n      sstore\n      pop\n        /* \"contracts/DataOnboarder.sol\":519:1077  function add_name(DataSourceLink memory verified_data_source) external{\r... */\n      pop\n      jump\t// out\n        /* \"contracts/DataOnboarder.sol\":1085:1191  function setRouterCreator(address _creator) external onlyOwner{\r... */\n    tag_40:\n        /* \"@openzeppelin/contracts/access/Ownable.sol\":1094:1107  _checkOwner() */\n      tag_77\n        /* \"@openzeppelin/contracts/access/Ownable.sol\":1094:1105  _checkOwner */\n      tag_55\n        /* \"@openzeppelin/contracts/access/Ownable.sol\":1094:1107  _checkOwner() */\n      jump\t// in\n    tag_77:\n        /* \"contracts/DataOnboarder.sol\":1175:1183  _creator */\n      dup1\n        /* \"contracts/DataOnboarder.sol\":1158:1172  router_creator */\n      0x03\n      0x00\n        /* \"contracts/DataOnboarder.sol\":1158:1183  router_creator = _creator */\n      0x0100\n      exp\n      dup2\n      sload\n      dup2\n      0xffffffffffffffffffffffffffffffffffffffff\n      mul\n      not\n      and\n      swap1\n      dup4\n      0xffffffffffffffffffffffffffffffffffffffff\n      and\n      mul\n      or\n      swap1\n      sstore\n      pop\n        /* \"contracts/DataOnboarder.sol\":1085:1191  function setRouterCreator(address _creator) external onlyOwner{\r... */\n      pop\n      jump\t// out\n        /* \"@openzeppelin/contracts/access/Ownable.sol\":2081:2279  function transferOwnership(address newOwner) public virtual onlyOwner {... */\n    tag_43:\n        /* \"@openzeppelin/contracts/access/Ownable.sol\":1094:1107  _checkOwner() */\n      tag_80\n        /* \"@openzeppelin/contracts/access/Ownable.sol\":1094:1105  _checkOwner */\n      tag_55\n        /* \"@openzeppelin/contracts/access/Ownable.sol\":1094:1107  _checkOwner() */\n      jump\t// in\n    tag_80:\n        /* \"@openzeppelin/contracts/access/Ownable.sol\":2189:2190  0 */\n      0x00\n        /* \"@openzeppelin/contracts/access/Ownable.sol\":2169:2191  newOwner != address(0) */\n      0xffffffffffffffffffffffffffffffffffffffff\n      and\n        /* \"@openzeppelin/contracts/access/Ownable.sol\":2169:2177  newOwner */\n      dup2\n        /* \"@openzeppelin/contracts/access/Ownable.sol\":2169:2191  newOwner != address(0) */\n      0xffffffffffffffffffffffffffffffffffffffff\n      and\n      eq\n      iszero\n        /* \"@openzeppelin/contracts/access/Ownable.sol\":2161:2234  require(newOwner != address(0), \"Ownable: new owner is the zero address\") */\n      tag_82\n      jumpi\n      mload(0x40)\n      0x08c379a000000000000000000000000000000000000000000000000000000000\n      dup2\n      mstore\n      0x04\n      add\n      tag_83\n      swap1\n      tag_84\n      jump\t// in\n    tag_83:\n      mload(0x40)\n      dup1\n      swap2\n      sub\n      swap1\n      revert\n    tag_82:\n        /* \"@openzeppelin/contracts/access/Ownable.sol\":2244:2272  _transferOwnership(newOwner) */\n      tag_85\n        /* \"@openzeppelin/contracts/access/Ownable.sol\":2263:2271  newOwner */\n      dup2\n        /* \"@openzeppelin/contracts/access/Ownable.sol\":2244:2262  _transferOwnership */\n      tag_58\n        /* \"@openzeppelin/contracts/access/Ownable.sol\":2244:2272  _transferOwnership(newOwner) */\n      jump\t// in\n    tag_85:\n        /* \"@openzeppelin/contracts/access/Ownable.sol\":2081:2279  function transferOwnership(address newOwner) public virtual onlyOwner {... */\n      pop\n      jump\t// out\n        /* \"contracts/DataOnboarderSigner.sol\":1144:1329  function _verify(DataSourceLink memory result) internal view returns (address) {\r... */\n    tag_46:\n        /* \"contracts/DataOnboarderSigner.sol\":1214:1221  address */\n      0x00\n        /* \"contracts/DataOnboarderSigner.sol\":1234:1248  bytes32 digest */\n      dup1\n        /* \"contracts/DataOnboarderSigner.sol\":1251:1264  _hash(result) */\n      tag_87\n        /* \"contracts/DataOnboarderSigner.sol\":1257:1263  result */\n      dup4\n        /* \"contracts/DataOnboarderSigner.sol\":1251:1256  _hash */\n      tag_88\n        /* \"contracts/DataOnboarderSigner.sol\":1251:1264  _hash(result) */\n      jump\t// in\n    tag_87:\n        /* \"contracts/DataOnboarderSigner.sol\":1234:1264  bytes32 digest = _hash(result) */\n      swap1\n      pop\n        /* \"contracts/DataOnboarderSigner.sol\":1282:1321  ECDSA.recover(digest, result.signature) */\n      tag_89\n        /* \"contracts/DataOnboarderSigner.sol\":1296:1302  digest */\n      dup2\n        /* \"contracts/DataOnboarderSigner.sol\":1304:1310  result */\n      dup5\n        /* \"contracts/DataOnboarderSigner.sol\":1304:1320  result.signature */\n      0x60\n      add\n      mload\n        /* \"contracts/DataOnboarderSigner.sol\":1282:1295  ECDSA.recover */\n      tag_90\n        /* \"contracts/DataOnboarderSigner.sol\":1282:1321  ECDSA.recover(digest, result.signature) */\n      jump\t// in\n    tag_89:\n        /* \"contracts/DataOnboarderSigner.sol\":1275:1321  return ECDSA.recover(digest, result.signature) */\n      swap2\n      pop\n      pop\n        /* \"contracts/DataOnboarderSigner.sol\":1144:1329  function _verify(DataSourceLink memory result) internal view returns (address) {\r... */\n      swap2\n      swap1\n      pop\n      jump\t// out\n        /* \"@openzeppelin/contracts/access/Ownable.sol\":1359:1489  function _checkOwner() internal view virtual {... */\n    tag_55:\n        /* \"@openzeppelin/contracts/access/Ownable.sol\":1433:1445  _msgSender() */\n      tag_92\n        /* \"@openzeppelin/contracts/access/Ownable.sol\":1433:1443  _msgSender */\n      tag_93\n        /* \"@openzeppelin/contracts/access/Ownable.sol\":1433:1445  _msgSender() */\n      jump\t// in\n    tag_92:\n        /* \"@openzeppelin/contracts/access/Ownable.sol\":1422:1445  owner() == _msgSender() */\n      0xffffffffffffffffffffffffffffffffffffffff\n      and\n        /* \"@openzeppelin/contracts/access/Ownable.sol\":1422:1429  owner() */\n      tag_94\n        /* \"@openzeppelin/contracts/access/Ownable.sol\":1422:1427  owner */\n      tag_32\n        /* \"@openzeppelin/contracts/access/Ownable.sol\":1422:1429  owner() */\n      jump\t// in\n    tag_94:\n        /* \"@openzeppelin/contracts/access/Ownable.sol\":1422:1445  owner() == _msgSender() */\n      0xffffffffffffffffffffffffffffffffffffffff\n      and\n      eq\n        /* \"@openzeppelin/contracts/access/Ownable.sol\":1414:1482  require(owner() == _msgSender(), \"Ownable: caller is not the owner\") */\n      tag_95\n      jumpi\n      mload(0x40)\n      0x08c379a000000000000000000000000000000000000000000000000000000000\n      dup2\n      mstore\n      0x04\n      add\n      tag_96\n      swap1\n      tag_97\n      jump\t// in\n    tag_96:\n      mload(0x40)\n      dup1\n      swap2\n      sub\n      swap1\n      revert\n    tag_95:\n        /* \"@openzeppelin/contracts/access/Ownable.sol\":1359:1489  function _checkOwner() internal view virtual {... */\n      jump\t// out\n        /* \"@openzeppelin/contracts/access/Ownable.sol\":2433:2620  function _transferOwnership(address newOwner) internal virtual {... */\n    tag_58:\n        /* \"@openzeppelin/contracts/access/Ownable.sol\":2506:2522  address oldOwner */\n      0x00\n        /* \"@openzeppelin/contracts/access/Ownable.sol\":2525:2531  _owner */\n      dup1\n      0x00\n      swap1\n      sload\n      swap1\n      0x0100\n      exp\n      swap1\n      div\n      0xffffffffffffffffffffffffffffffffffffffff\n      and\n        /* \"@openzeppelin/contracts/access/Ownable.sol\":2506:2531  address oldOwner = _owner */\n      swap1\n      pop\n        /* \"@openzeppelin/contracts/access/Ownable.sol\":2550:2558  newOwner */\n      dup2\n        /* \"@openzeppelin/contracts/access/Ownable.sol\":2541:2547  _owner */\n      0x00\n      dup1\n        /* \"@openzeppelin/contracts/access/Ownable.sol\":2541:2558  _owner = newOwner */\n      0x0100\n      exp\n      dup2\n      sload\n      dup2\n      0xffffffffffffffffffffffffffffffffffffffff\n      mul\n      not\n      and\n      swap1\n      dup4\n      0xffffffffffffffffffffffffffffffffffffffff\n      and\n      mul\n      or\n      swap1\n      sstore\n      pop\n        /* \"@openzeppelin/contracts/access/Ownable.sol\":2604:2612  newOwner */\n      dup2\n        /* \"@openzeppelin/contracts/access/Ownable.sol\":2573:2613  OwnershipTransferred(oldOwner, newOwner) */\n      0xffffffffffffffffffffffffffffffffffffffff\n      and\n        /* \"@openzeppelin/contracts/access/Ownable.sol\":2594:2602  oldOwner */\n      dup2\n        /* \"@openzeppelin/contracts/access/Ownable.sol\":2573:2613  OwnershipTransferred(oldOwner, newOwner) */\n      0xffffffffffffffffffffffffffffffffffffffff\n      and\n      0x8be0079c531659141344cd1fd0a4f28419497f9722a3daafe3b4186f6b6457e0\n      mload(0x40)\n      mload(0x40)\n      dup1\n      swap2\n      sub\n      swap1\n      log3\n        /* \"@openzeppelin/contracts/access/Ownable.sol\":2496:2620  {... */\n      pop\n        /* \"@openzeppelin/contracts/access/Ownable.sol\":2433:2620  function _transferOwnership(address newOwner) internal virtual {... */\n      pop\n      jump\t// out\n        /* \"contracts/DataOnboarderSigner.sol\":629:1136  function _hash(DataSourceLink memory result) internal view returns (bytes32) {\r... */\n    tag_88:\n        /* \"contracts/DataOnboarderSigner.sol\":697:704  bytes32 */\n      0x00\n        /* \"contracts/DataOnboarderSigner.sol\":724:1128  _hashTypedDataV4(\r... */\n      tag_100\n        /* \"contracts/DataOnboarderSigner.sol\":816:913  keccak256(\"DataSourceLink(string profile_uid,string platform_name,address corresponding_pubkey)\") */\n      0x9980e35fd3e98fb83ed8ba021944828eb14149855296a1d36bc6313f56ef5aa6\n        /* \"contracts/DataOnboarderSigner.sol\":952:958  result */\n      dup4\n        /* \"contracts/DataOnboarderSigner.sol\":952:970  result.profile_uid */\n      0x00\n      add\n      mload\n        /* \"contracts/DataOnboarderSigner.sol\":936:972  keccak256(bytes(result.profile_uid)) */\n      dup1\n      mload\n      swap1\n      0x20\n      add\n      keccak256\n        /* \"contracts/DataOnboarderSigner.sol\":1011:1017  result */\n      dup5\n        /* \"contracts/DataOnboarderSigner.sol\":1011:1031  result.platform_name */\n      0x20\n      add\n      mload\n        /* \"contracts/DataOnboarderSigner.sol\":995:1033  keccak256(bytes(result.platform_name)) */\n      dup1\n      mload\n      swap1\n      0x20\n      add\n      keccak256\n        /* \"contracts/DataOnboarderSigner.sol\":1056:1062  result */\n      dup6\n        /* \"contracts/DataOnboarderSigner.sol\":1056:1083  result.corresponding_pubkey */\n      0x40\n      add\n      mload\n        /* \"contracts/DataOnboarderSigner.sol\":783:1102  abi.encode(\r... */\n      add(0x20, mload(0x40))\n      tag_101\n      swap5\n      swap4\n      swap3\n      swap2\n      swap1\n      tag_102\n      jump\t// in\n    tag_101:\n      mload(0x40)\n      0x20\n      dup2\n      dup4\n      sub\n      sub\n      dup2\n      mstore\n      swap1\n      0x40\n      mstore\n        /* \"contracts/DataOnboarderSigner.sol\":755:1117  keccak256(\r... */\n      dup1\n      mload\n      swap1\n      0x20\n      add\n      keccak256\n        /* \"contracts/DataOnboarderSigner.sol\":724:740  _hashTypedDataV4 */\n      tag_103\n        /* \"contracts/DataOnboarderSigner.sol\":724:1128  _hashTypedDataV4(\r... */\n      jump\t// in\n    tag_100:\n        /* \"contracts/DataOnboarderSigner.sol\":717:1128  return _hashTypedDataV4(\r... */\n      swap1\n      pop\n        /* \"contracts/DataOnboarderSigner.sol\":629:1136  function _hash(DataSourceLink memory result) internal view returns (bytes32) {\r... */\n      swap2\n      swap1\n      pop\n      jump\t// out\n        /* \"@openzeppelin/contracts/utils/cryptography/ECDSA.sol\":3661:3888  function recover(bytes32 hash, bytes memory signature) internal pure returns (address) {... */\n    tag_90:\n        /* \"@openzeppelin/contracts/utils/cryptography/ECDSA.sol\":3739:3746  address */\n      0x00\n        /* \"@openzeppelin/contracts/utils/cryptography/ECDSA.sol\":3759:3776  address recovered */\n      dup1\n        /* \"@openzeppelin/contracts/utils/cryptography/ECDSA.sol\":3778:3796  RecoverError error */\n      0x00\n        /* \"@openzeppelin/contracts/utils/cryptography/ECDSA.sol\":3800:3827  tryRecover(hash, signature) */\n      tag_105\n        /* \"@openzeppelin/contracts/utils/cryptography/ECDSA.sol\":3811:3815  hash */\n      dup6\n        /* \"@openzeppelin/contracts/utils/cryptography/ECDSA.sol\":3817:3826  signature */\n      dup6\n        /* \"@openzeppelin/contracts/utils/cryptography/ECDSA.sol\":3800:3810  tryRecover */\n      tag_106\n        /* \"@openzeppelin/contracts/utils/cryptography/ECDSA.sol\":3800:3827  tryRecover(hash, signature) */\n      jump\t// in\n    tag_105:\n        /* \"@openzeppelin/contracts/utils/cryptography/ECDSA.sol\":3758:3827  (address recovered, RecoverError error) = tryRecover(hash, signature) */\n      swap2\n      pop\n      swap2\n      pop\n        /* \"@openzeppelin/contracts/utils/cryptography/ECDSA.sol\":3837:3855  _throwError(error) */\n      tag_107\n        /* \"@openzeppelin/contracts/utils/cryptography/ECDSA.sol\":3849:3854  error */\n      dup2\n        /* \"@openzeppelin/contracts/utils/cryptography/ECDSA.sol\":3837:3848  _throwError */\n      tag_108\n        /* \"@openzeppelin/contracts/utils/cryptography/ECDSA.sol\":3837:3855  _throwError(error) */\n      jump\t// in\n    tag_107:\n        /* \"@openzeppelin/contracts/utils/cryptography/ECDSA.sol\":3872:3881  recovered */\n      dup2\n        /* \"@openzeppelin/contracts/utils/cryptography/ECDSA.sol\":3865:3881  return recovered */\n      swap3\n      pop\n      pop\n      pop\n        /* \"@openzeppelin/contracts/utils/cryptography/ECDSA.sol\":3661:3888  function recover(bytes32 hash, bytes memory signature) internal pure returns (address) {... */\n      swap3\n      swap2\n      pop\n      pop\n      jump\t// out\n        /* \"@openzeppelin/contracts/utils/Context.sol\":640:736  function _msgSender() internal view virtual returns (address) {... */\n    tag_93:\n        /* \"@openzeppelin/contracts/utils/Context.sol\":693:700  address */\n      0x00\n        /* \"@openzeppelin/contracts/utils/Context.sol\":719:729  msg.sender */\n      caller\n        /* \"@openzeppelin/contracts/utils/Context.sol\":712:729  return msg.sender */\n      swap1\n      pop\n        /* \"@openzeppelin/contracts/utils/Context.sol\":640:736  function _msgSender() internal view virtual returns (address) {... */\n      swap1\n      jump\t// out\n        /* \"@openzeppelin/contracts/utils/cryptography/EIP712.sol\":4348:4513  function _hashTypedDataV4(bytes32 structHash) internal view virtual returns (bytes32) {... */\n    tag_103:\n        /* \"@openzeppelin/contracts/utils/cryptography/EIP712.sol\":4425:4432  bytes32 */\n      0x00\n        /* \"@openzeppelin/contracts/utils/cryptography/EIP712.sol\":4451:4506  ECDSA.toTypedDataHash(_domainSeparatorV4(), structHash) */\n      tag_111\n        /* \"@openzeppelin/contracts/utils/cryptography/EIP712.sol\":4473:4493  _domainSeparatorV4() */\n      tag_112\n        /* \"@openzeppelin/contracts/utils/cryptography/EIP712.sol\":4473:4491  _domainSeparatorV4 */\n      tag_113\n        /* \"@openzeppelin/contracts/utils/cryptography/EIP712.sol\":4473:4493  _domainSeparatorV4() */\n      jump\t// in\n    tag_112:\n        /* \"@openzeppelin/contracts/utils/cryptography/EIP712.sol\":4495:4505  structHash */\n      dup4\n        /* \"@openzeppelin/contracts/utils/cryptography/EIP712.sol\":4451:4472  ECDSA.toTypedDataHash */\n      tag_114\n        /* \"@openzeppelin/contracts/utils/cryptography/EIP712.sol\":4451:4506  ECDSA.toTypedDataHash(_domainSeparatorV4(), structHash) */\n      jump\t// in\n    tag_111:\n        /* \"@openzeppelin/contracts/utils/cryptography/EIP712.sol\":4444:4506  return ECDSA.toTypedDataHash(_domainSeparatorV4(), structHash) */\n      swap1\n      pop\n        /* \"@openzeppelin/contracts/utils/cryptography/EIP712.sol\":4348:4513  function _hashTypedDataV4(bytes32 structHash) internal view virtual returns (bytes32) {... */\n      swap2\n      swap1\n      pop\n      jump\t// out\n        /* \"@openzeppelin/contracts/utils/cryptography/ECDSA.sol\":2145:2875  function tryRecover(bytes32 hash, bytes memory signature) internal pure returns (address, RecoverError) {... */\n    tag_106:\n        /* \"@openzeppelin/contracts/utils/cryptography/ECDSA.sol\":2226:2233  address */\n      0x00\n        /* \"@openzeppelin/contracts/utils/cryptography/ECDSA.sol\":2235:2247  RecoverError */\n      dup1\n        /* \"@openzeppelin/contracts/utils/cryptography/ECDSA.sol\":2283:2285  65 */\n      0x41\n        /* \"@openzeppelin/contracts/utils/cryptography/ECDSA.sol\":2263:2272  signature */\n      dup4\n        /* \"@openzeppelin/contracts/utils/cryptography/ECDSA.sol\":2263:2279  signature.length */\n      mload\n        /* \"@openzeppelin/contracts/utils/cryptography/ECDSA.sol\":2263:2285  signature.length == 65 */\n      eq\n        /* \"@openzeppelin/contracts/utils/cryptography/ECDSA.sol\":2259:2869  if (signature.length == 65) {... */\n      iszero\n      tag_116\n      jumpi\n        /* \"@openzeppelin/contracts/utils/cryptography/ECDSA.sol\":2301:2310  bytes32 r */\n      0x00\n        /* \"@openzeppelin/contracts/utils/cryptography/ECDSA.sol\":2324:2333  bytes32 s */\n      dup1\n        /* \"@openzeppelin/contracts/utils/cryptography/ECDSA.sol\":2347:2354  uint8 v */\n      0x00\n        /* \"@openzeppelin/contracts/utils/cryptography/ECDSA.sol\":2599:2603  0x20 */\n      0x20\n        /* \"@openzeppelin/contracts/utils/cryptography/ECDSA.sol\":2588:2597  signature */\n      dup7\n        /* \"@openzeppelin/contracts/utils/cryptography/ECDSA.sol\":2584:2604  add(signature, 0x20) */\n      add\n        /* \"@openzeppelin/contracts/utils/cryptography/ECDSA.sol\":2578:2605  mload(add(signature, 0x20)) */\n      mload\n        /* \"@openzeppelin/contracts/utils/cryptography/ECDSA.sol\":2573:2605  r := mload(add(signature, 0x20)) */\n      swap3\n      pop\n        /* \"@openzeppelin/contracts/utils/cryptography/ECDSA.sol\":2648:2652  0x40 */\n      0x40\n        /* \"@openzeppelin/contracts/utils/cryptography/ECDSA.sol\":2637:2646  signature */\n      dup7\n        /* \"@openzeppelin/contracts/utils/cryptography/ECDSA.sol\":2633:2653  add(signature, 0x40) */\n      add\n        /* \"@openzeppelin/contracts/utils/cryptography/ECDSA.sol\":2627:2654  mload(add(signature, 0x40)) */\n      mload\n        /* \"@openzeppelin/contracts/utils/cryptography/ECDSA.sol\":2622:2654  s := mload(add(signature, 0x40)) */\n      swap2\n      pop\n        /* \"@openzeppelin/contracts/utils/cryptography/ECDSA.sol\":2705:2709  0x60 */\n      0x60\n        /* \"@openzeppelin/contracts/utils/cryptography/ECDSA.sol\":2694:2703  signature */\n      dup7\n        /* \"@openzeppelin/contracts/utils/cryptography/ECDSA.sol\":2690:2710  add(signature, 0x60) */\n      add\n        /* \"@openzeppelin/contracts/utils/cryptography/ECDSA.sol\":2684:2711  mload(add(signature, 0x60)) */\n      mload\n        /* \"@openzeppelin/contracts/utils/cryptography/ECDSA.sol\":2681:2682  0 */\n      0x00\n        /* \"@openzeppelin/contracts/utils/cryptography/ECDSA.sol\":2676:2712  byte(0, mload(add(signature, 0x60))) */\n      byte\n        /* \"@openzeppelin/contracts/utils/cryptography/ECDSA.sol\":2671:2712  v := byte(0, mload(add(signature, 0x60))) */\n      swap1\n      pop\n        /* \"@openzeppelin/contracts/utils/cryptography/ECDSA.sol\":2746:2771  tryRecover(hash, v, r, s) */\n      tag_117\n        /* \"@openzeppelin/contracts/utils/cryptography/ECDSA.sol\":2757:2761  hash */\n      dup8\n        /* \"@openzeppelin/contracts/utils/cryptography/ECDSA.sol\":2763:2764  v */\n      dup3\n        /* \"@openzeppelin/contracts/utils/cryptography/ECDSA.sol\":2766:2767  r */\n      dup6\n        /* \"@openzeppelin/contracts/utils/cryptography/ECDSA.sol\":2769:2770  s */\n      dup6\n        /* \"@openzeppelin/contracts/utils/cryptography/ECDSA.sol\":2746:2756  tryRecover */\n      tag_118\n        /* \"@openzeppelin/contracts/utils/cryptography/ECDSA.sol\":2746:2771  tryRecover(hash, v, r, s) */\n      jump\t// in\n    tag_117:\n        /* \"@openzeppelin/contracts/utils/cryptography/ECDSA.sol\":2739:2771  return tryRecover(hash, v, r, s) */\n      swap5\n      pop\n      swap5\n      pop\n      pop\n      pop\n      pop\n      jump(tag_115)\n        /* \"@openzeppelin/contracts/utils/cryptography/ECDSA.sol\":2259:2869  if (signature.length == 65) {... */\n    tag_116:\n        /* \"@openzeppelin/contracts/utils/cryptography/ECDSA.sol\":2818:2819  0 */\n      0x00\n        /* \"@openzeppelin/contracts/utils/cryptography/ECDSA.sol\":2822:2857  RecoverError.InvalidSignatureLength */\n      0x02\n        /* \"@openzeppelin/contracts/utils/cryptography/ECDSA.sol\":2802:2858  return (address(0), RecoverError.InvalidSignatureLength) */\n      swap2\n      pop\n      swap2\n      pop\n        /* \"@openzeppelin/contracts/utils/cryptography/ECDSA.sol\":2145:2875  function tryRecover(bytes32 hash, bytes memory signature) internal pure returns (address, RecoverError) {... */\n    tag_115:\n      swap3\n      pop\n      swap3\n      swap1\n      pop\n      jump\t// out\n        /* \"@openzeppelin/contracts/utils/cryptography/ECDSA.sol\":570:1081  function _throwError(RecoverError error) private pure {... */\n    tag_108:\n        /* \"@openzeppelin/contracts/utils/cryptography/ECDSA.sol\":647:667  RecoverError.NoError */\n      0x00\n        /* \"@openzeppelin/contracts/utils/cryptography/ECDSA.sol\":638:667  error == RecoverError.NoError */\n      0x04\n      dup2\n      gt\n      iszero\n      tag_121\n      jumpi\n      tag_122\n      tag_123\n      jump\t// in\n    tag_122:\n    tag_121:\n        /* \"@openzeppelin/contracts/utils/cryptography/ECDSA.sol\":638:643  error */\n      dup2\n        /* \"@openzeppelin/contracts/utils/cryptography/ECDSA.sol\":638:667  error == RecoverError.NoError */\n      0x04\n      dup2\n      gt\n      iszero\n      tag_124\n      jumpi\n      tag_125\n      tag_123\n      jump\t// in\n    tag_125:\n    tag_124:\n      eq\n        /* \"@openzeppelin/contracts/utils/cryptography/ECDSA.sol\":634:1075  if (error == RecoverError.NoError) {... */\n      iszero\n      tag_126\n      jumpi\n        /* \"@openzeppelin/contracts/utils/cryptography/ECDSA.sol\":683:690  return; */\n      jump(tag_120)\n        /* \"@openzeppelin/contracts/utils/cryptography/ECDSA.sol\":634:1075  if (error == RecoverError.NoError) {... */\n    tag_126:\n        /* \"@openzeppelin/contracts/utils/cryptography/ECDSA.sol\":743:772  RecoverError.InvalidSignature */\n      0x01\n        /* \"@openzeppelin/contracts/utils/cryptography/ECDSA.sol\":734:772  error == RecoverError.InvalidSignature */\n      0x04\n      dup2\n      gt\n      iszero\n      tag_128\n      jumpi\n      tag_129\n      tag_123\n      jump\t// in\n    tag_129:\n    tag_128:\n        /* \"@openzeppelin/contracts/utils/cryptography/ECDSA.sol\":734:739  error */\n      dup2\n        /* \"@openzeppelin/contracts/utils/cryptography/ECDSA.sol\":734:772  error == RecoverError.InvalidSignature */\n      0x04\n      dup2\n      gt\n      iszero\n      tag_130\n      jumpi\n      tag_131\n      tag_123\n      jump\t// in\n    tag_131:\n    tag_130:\n      eq\n        /* \"@openzeppelin/contracts/utils/cryptography/ECDSA.sol\":730:1075  if (error == RecoverError.InvalidSignature) {... */\n      iszero\n      tag_132\n      jumpi\n        /* \"@openzeppelin/contracts/utils/cryptography/ECDSA.sol\":788:822  revert(\"ECDSA: invalid signature\") */\n      mload(0x40)\n      0x08c379a000000000000000000000000000000000000000000000000000000000\n      dup2\n      mstore\n      0x04\n      add\n      tag_133\n      swap1\n      tag_134\n      jump\t// in\n    tag_133:\n      mload(0x40)\n      dup1\n      swap2\n      sub\n      swap1\n      revert\n        /* \"@openzeppelin/contracts/utils/cryptography/ECDSA.sol\":730:1075  if (error == RecoverError.InvalidSignature) {... */\n    tag_132:\n        /* \"@openzeppelin/contracts/utils/cryptography/ECDSA.sol\":852:887  RecoverError.InvalidSignatureLength */\n      0x02\n        /* \"@openzeppelin/contracts/utils/cryptography/ECDSA.sol\":843:887  error == RecoverError.InvalidSignatureLength */\n      0x04\n      dup2\n      gt\n      iszero\n      tag_136\n      jumpi\n      tag_137\n      tag_123\n      jump\t// in\n    tag_137:\n    tag_136:\n        /* \"@openzeppelin/contracts/utils/cryptography/ECDSA.sol\":843:848  error */\n      dup2\n        /* \"@openzeppelin/contracts/utils/cryptography/ECDSA.sol\":843:887  error == RecoverError.InvalidSignatureLength */\n      0x04\n      dup2\n      gt\n      iszero\n      tag_138\n      jumpi\n      tag_139\n      tag_123\n      jump\t// in\n    tag_139:\n    tag_138:\n      eq\n        /* \"@openzeppelin/contracts/utils/cryptography/ECDSA.sol\":839:1075  if (error == RecoverError.InvalidSignatureLength) {... */\n      iszero\n      tag_140\n      jumpi\n        /* \"@openzeppelin/contracts/utils/cryptography/ECDSA.sol\":903:944  revert(\"ECDSA: invalid signature length\") */\n      mload(0x40)\n      0x08c379a000000000000000000000000000000000000000000000000000000000\n      dup2\n      mstore\n      0x04\n      add\n      tag_141\n      swap1\n      tag_142\n      jump\t// in\n    tag_141:\n      mload(0x40)\n      dup1\n      swap2\n      sub\n      swap1\n      revert\n        /* \"@openzeppelin/contracts/utils/cryptography/ECDSA.sol\":839:1075  if (error == RecoverError.InvalidSignatureLength) {... */\n    tag_140:\n        /* \"@openzeppelin/contracts/utils/cryptography/ECDSA.sol\":974:1004  RecoverError.InvalidSignatureS */\n      0x03\n        /* \"@openzeppelin/contracts/utils/cryptography/ECDSA.sol\":965:1004  error == RecoverError.InvalidSignatureS */\n      0x04\n      dup2\n      gt\n      iszero\n      tag_144\n      jumpi\n      tag_145\n      tag_123\n      jump\t// in\n    tag_145:\n    tag_144:\n        /* \"@openzeppelin/contracts/utils/cryptography/ECDSA.sol\":965:970  error */\n      dup2\n        /* \"@openzeppelin/contracts/utils/cryptography/ECDSA.sol\":965:1004  error == RecoverError.InvalidSignatureS */\n      0x04\n      dup2\n      gt\n      iszero\n      tag_146\n      jumpi\n      tag_147\n      tag_123\n      jump\t// in\n    tag_147:\n    tag_146:\n      eq\n        /* \"@openzeppelin/contracts/utils/cryptography/ECDSA.sol\":961:1075  if (error == RecoverError.InvalidSignatureS) {... */\n      iszero\n      tag_148\n      jumpi\n        /* \"@openzeppelin/contracts/utils/cryptography/ECDSA.sol\":1020:1064  revert(\"ECDSA: invalid signature 's' value\") */\n      mload(0x40)\n      0x08c379a000000000000000000000000000000000000000000000000000000000\n      dup2\n      mstore\n      0x04\n      add\n      tag_149\n      swap1\n      tag_150\n      jump\t// in\n    tag_149:\n      mload(0x40)\n      dup1\n      swap2\n      sub\n      swap1\n      revert\n        /* \"@openzeppelin/contracts/utils/cryptography/ECDSA.sol\":961:1075  if (error == RecoverError.InvalidSignatureS) {... */\n    tag_148:\n        /* \"@openzeppelin/contracts/utils/cryptography/ECDSA.sol\":570:1081  function _throwError(RecoverError error) private pure {... */\n    tag_120:\n      pop\n      jump\t// out\n        /* \"@openzeppelin/contracts/utils/cryptography/EIP712.sol\":3152:3460  function _domainSeparatorV4() internal view returns (bytes32) {... */\n    tag_113:\n        /* \"@openzeppelin/contracts/utils/cryptography/EIP712.sol\":3205:3212  bytes32 */\n      0x00\n        /* \"@openzeppelin/contracts/utils/cryptography/EIP712.sol\":3245:3257  _CACHED_THIS */\n      immutable(\"0x17f9f6c7b1e09d3d1844320c8ed1a68af4fbb1102f099230f06c07fb6e143460\")\n        /* \"@openzeppelin/contracts/utils/cryptography/EIP712.sol\":3228:3257  address(this) == _CACHED_THIS */\n      0xffffffffffffffffffffffffffffffffffffffff\n      and\n        /* \"@openzeppelin/contracts/utils/cryptography/EIP712.sol\":3236:3240  this */\n      address\n        /* \"@openzeppelin/contracts/utils/cryptography/EIP712.sol\":3228:3257  address(this) == _CACHED_THIS */\n      0xffffffffffffffffffffffffffffffffffffffff\n      and\n      eq\n        /* \"@openzeppelin/contracts/utils/cryptography/EIP712.sol\":3228:3294  address(this) == _CACHED_THIS && block.chainid == _CACHED_CHAIN_ID */\n      dup1\n      iszero\n      tag_152\n      jumpi\n      pop\n        /* \"@openzeppelin/contracts/utils/cryptography/EIP712.sol\":3278:3294  _CACHED_CHAIN_ID */\n      immutable(\"0xcf5384ecdd962c51714f0761b3e741fbbed81221f270bc3511a60f72d0d8cd7d\")\n        /* \"@openzeppelin/contracts/utils/cryptography/EIP712.sol\":3261:3274  block.chainid */\n      chainid\n        /* \"@openzeppelin/contracts/utils/cryptography/EIP712.sol\":3261:3294  block.chainid == _CACHED_CHAIN_ID */\n      eq\n        /* \"@openzeppelin/contracts/utils/cryptography/EIP712.sol\":3228:3294  address(this) == _CACHED_THIS && block.chainid == _CACHED_CHAIN_ID */\n    tag_152:\n        /* \"@openzeppelin/contracts/utils/cryptography/EIP712.sol\":3224:3454  if (address(this) == _CACHED_THIS && block.chainid == _CACHED_CHAIN_ID) {... */\n      iszero\n      tag_153\n      jumpi\n        /* \"@openzeppelin/contracts/utils/cryptography/EIP712.sol\":3317:3341  _CACHED_DOMAIN_SEPARATOR */\n      immutable(\"0xc789ed62c0471ea887fe385618241659dfb2b473a8c970202f43d3beabf7a5e4\")\n        /* \"@openzeppelin/contracts/utils/cryptography/EIP712.sol\":3310:3341  return _CACHED_DOMAIN_SEPARATOR */\n      swap1\n      pop\n      jump(tag_151)\n        /* \"@openzeppelin/contracts/utils/cryptography/EIP712.sol\":3224:3454  if (address(this) == _CACHED_THIS && block.chainid == _CACHED_CHAIN_ID) {... */\n    tag_153:\n        /* \"@openzeppelin/contracts/utils/cryptography/EIP712.sol\":3379:3443  _buildDomainSeparator(_TYPE_HASH, _HASHED_NAME, _HASHED_VERSION) */\n      tag_155\n        /* \"@openzeppelin/contracts/utils/cryptography/EIP712.sol\":3401:3411  _TYPE_HASH */\n      immutable(\"0xcab8721890c4a0282eedf7457a9eef71e0286aef15a4e0cdc4e5d20a5c38ddc9\")\n        /* \"@openzeppelin/contracts/utils/cryptography/EIP712.sol\":3413:3425  _HASHED_NAME */\n      immutable(\"0x62436f2808c4896b559574a20128c359e32d25d88f8026d5d47b3442a6b3eabd\")\n        /* \"@openzeppelin/contracts/utils/cryptography/EIP712.sol\":3427:3442  _HASHED_VERSION */\n      immutable(\"0x897a133c923b782c0eb5be242182d01a105b8766edbf31c68f44b2a1201f0476\")\n        /* \"@openzeppelin/contracts/utils/cryptography/EIP712.sol\":3379:3400  _buildDomainSeparator */\n      tag_156\n        /* \"@openzeppelin/contracts/utils/cryptography/EIP712.sol\":3379:3443  _buildDomainSeparator(_TYPE_HASH, _HASHED_NAME, _HASHED_VERSION) */\n      jump\t// in\n    tag_155:\n        /* \"@openzeppelin/contracts/utils/cryptography/EIP712.sol\":3372:3443  return _buildDomainSeparator(_TYPE_HASH, _HASHED_NAME, _HASHED_VERSION) */\n      swap1\n      pop\n        /* \"@openzeppelin/contracts/utils/cryptography/EIP712.sol\":3152:3460  function _domainSeparatorV4() internal view returns (bytes32) {... */\n    tag_151:\n      swap1\n      jump\t// out\n        /* \"@openzeppelin/contracts/utils/cryptography/ECDSA.sol\":8341:8535  function toTypedDataHash(bytes32 domainSeparator, bytes32 structHash) internal pure returns (bytes32) {... */\n    tag_114:\n        /* \"@openzeppelin/contracts/utils/cryptography/ECDSA.sol\":8434:8441  bytes32 */\n      0x00\n        /* \"@openzeppelin/contracts/utils/cryptography/ECDSA.sol\":8499:8514  domainSeparator */\n      dup3\n        /* \"@openzeppelin/contracts/utils/cryptography/ECDSA.sol\":8516:8526  structHash */\n      dup3\n        /* \"@openzeppelin/contracts/utils/cryptography/ECDSA.sol\":8470:8527  abi.encodePacked(\"\\x19\\x01\", domainSeparator, structHash) */\n      add(0x20, mload(0x40))\n      tag_158\n      swap3\n      swap2\n      swap1\n      tag_159\n      jump\t// in\n    tag_158:\n      mload(0x40)\n      0x20\n      dup2\n      dup4\n      sub\n      sub\n      dup2\n      mstore\n      swap1\n      0x40\n      mstore\n        /* \"@openzeppelin/contracts/utils/cryptography/ECDSA.sol\":8460:8528  keccak256(abi.encodePacked(\"\\x19\\x01\", domainSeparator, structHash)) */\n      dup1\n      mload\n      swap1\n      0x20\n      add\n      keccak256\n        /* \"@openzeppelin/contracts/utils/cryptography/ECDSA.sol\":8453:8528  return keccak256(abi.encodePacked(\"\\x19\\x01\", domainSeparator, structHash)) */\n      swap1\n      pop\n        /* \"@openzeppelin/contracts/utils/cryptography/ECDSA.sol\":8341:8535  function toTypedDataHash(bytes32 domainSeparator, bytes32 structHash) internal pure returns (bytes32) {... */\n      swap3\n      swap2\n      pop\n      pop\n      jump\t// out\n        /* \"@openzeppelin/contracts/utils/cryptography/ECDSA.sol\":5069:6563  function tryRecover(... */\n    tag_118:\n        /* \"@openzeppelin/contracts/utils/cryptography/ECDSA.sol\":5195:5202  address */\n      0x00\n        /* \"@openzeppelin/contracts/utils/cryptography/ECDSA.sol\":5204:5216  RecoverError */\n      dup1\n        /* \"@openzeppelin/contracts/utils/cryptography/ECDSA.sol\":6119:6185  0x7FFFFFFFFFFFFFFFFFFFFFFFFFFFFFFF5D576E7357A4501DDFE92F46681B20A0 */\n      0x7fffffffffffffffffffffffffffffff5d576e7357a4501ddfe92f46681b20a0\n        /* \"@openzeppelin/contracts/utils/cryptography/ECDSA.sol\":6114:6115  s */\n      dup4\n        /* \"@openzeppelin/contracts/utils/cryptography/ECDSA.sol\":6106:6116  uint256(s) */\n      0x00\n      shr\n        /* \"@openzeppelin/contracts/utils/cryptography/ECDSA.sol\":6106:6185  uint256(s) > 0x7FFFFFFFFFFFFFFFFFFFFFFFFFFFFFFF5D576E7357A4501DDFE92F46681B20A0 */\n      gt\n        /* \"@openzeppelin/contracts/utils/cryptography/ECDSA.sol\":6102:6263  if (uint256(s) > 0x7FFFFFFFFFFFFFFFFFFFFFFFFFFFFFFF5D576E7357A4501DDFE92F46681B20A0) {... */\n      iszero\n      tag_161\n      jumpi\n        /* \"@openzeppelin/contracts/utils/cryptography/ECDSA.sol\":6217:6218  0 */\n      0x00\n        /* \"@openzeppelin/contracts/utils/cryptography/ECDSA.sol\":6221:6251  RecoverError.InvalidSignatureS */\n      0x03\n        /* \"@openzeppelin/contracts/utils/cryptography/ECDSA.sol\":6201:6252  return (address(0), RecoverError.InvalidSignatureS) */\n      swap2\n      pop\n      swap2\n      pop\n      jump(tag_160)\n        /* \"@openzeppelin/contracts/utils/cryptography/ECDSA.sol\":6102:6263  if (uint256(s) > 0x7FFFFFFFFFFFFFFFFFFFFFFFFFFFFFFF5D576E7357A4501DDFE92F46681B20A0) {... */\n    tag_161:\n        /* \"@openzeppelin/contracts/utils/cryptography/ECDSA.sol\":6357:6371  address signer */\n      0x00\n        /* \"@openzeppelin/contracts/utils/cryptography/ECDSA.sol\":6374:6398  ecrecover(hash, v, r, s) */\n      0x01\n        /* \"@openzeppelin/contracts/utils/cryptography/ECDSA.sol\":6384:6388  hash */\n      dup8\n        /* \"@openzeppelin/contracts/utils/cryptography/ECDSA.sol\":6390:6391  v */\n      dup8\n        /* \"@openzeppelin/contracts/utils/cryptography/ECDSA.sol\":6393:6394  r */\n      dup8\n        /* \"@openzeppelin/contracts/utils/cryptography/ECDSA.sol\":6396:6397  s */\n      dup8\n        /* \"@openzeppelin/contracts/utils/cryptography/ECDSA.sol\":6374:6398  ecrecover(hash, v, r, s) */\n      mload(0x40)\n      0x00\n      dup2\n      mstore\n      0x20\n      add\n      0x40\n      mstore\n      mload(0x40)\n      tag_162\n      swap5\n      swap4\n      swap3\n      swap2\n      swap1\n      tag_163\n      jump\t// in\n    tag_162:\n      0x20\n      mload(0x40)\n      0x20\n      dup2\n      sub\n      swap1\n      dup1\n      dup5\n      sub\n      swap1\n      dup6\n      gas\n      staticcall\n      iszero\n      dup1\n      iszero\n      tag_165\n      jumpi\n      returndatasize\n      0x00\n      dup1\n      returndatacopy\n      revert(0x00, returndatasize)\n    tag_165:\n      pop\n      pop\n      pop\n      mload(sub(mload(0x40), 0x20))\n        /* \"@openzeppelin/contracts/utils/cryptography/ECDSA.sol\":6357:6398  address signer = ecrecover(hash, v, r, s) */\n      swap1\n      pop\n        /* \"@openzeppelin/contracts/utils/cryptography/ECDSA.sol\":6430:6431  0 */\n      0x00\n        /* \"@openzeppelin/contracts/utils/cryptography/ECDSA.sol\":6412:6432  signer == address(0) */\n      0xffffffffffffffffffffffffffffffffffffffff\n      and\n        /* \"@openzeppelin/contracts/utils/cryptography/ECDSA.sol\":6412:6418  signer */\n      dup2\n        /* \"@openzeppelin/contracts/utils/cryptography/ECDSA.sol\":6412:6432  signer == address(0) */\n      0xffffffffffffffffffffffffffffffffffffffff\n      and\n      eq\n        /* \"@openzeppelin/contracts/utils/cryptography/ECDSA.sol\":6408:6509  if (signer == address(0)) {... */\n      iszero\n      tag_166\n      jumpi\n        /* \"@openzeppelin/contracts/utils/cryptography/ECDSA.sol\":6464:6465  0 */\n      0x00\n        /* \"@openzeppelin/contracts/utils/cryptography/ECDSA.sol\":6468:6497  RecoverError.InvalidSignature */\n      0x01\n        /* \"@openzeppelin/contracts/utils/cryptography/ECDSA.sol\":6448:6498  return (address(0), RecoverError.InvalidSignature) */\n      swap3\n      pop\n      swap3\n      pop\n      pop\n      jump(tag_160)\n        /* \"@openzeppelin/contracts/utils/cryptography/ECDSA.sol\":6408:6509  if (signer == address(0)) {... */\n    tag_166:\n        /* \"@openzeppelin/contracts/utils/cryptography/ECDSA.sol\":6527:6533  signer */\n      dup1\n        /* \"@openzeppelin/contracts/utils/cryptography/ECDSA.sol\":6535:6555  RecoverError.NoError */\n      0x00\n        /* \"@openzeppelin/contracts/utils/cryptography/ECDSA.sol\":6519:6556  return (signer, RecoverError.NoError) */\n      swap3\n      pop\n      swap3\n      pop\n      pop\n        /* \"@openzeppelin/contracts/utils/cryptography/ECDSA.sol\":5069:6563  function tryRecover(... */\n    tag_160:\n      swap5\n      pop\n      swap5\n      swap3\n      pop\n      pop\n      pop\n      jump\t// out\n        /* \"@openzeppelin/contracts/utils/cryptography/EIP712.sol\":3466:3723  function _buildDomainSeparator(... */\n    tag_156:\n        /* \"@openzeppelin/contracts/utils/cryptography/EIP712.sol\":3606:3613  bytes32 */\n      0x00\n        /* \"@openzeppelin/contracts/utils/cryptography/EIP712.sol\":3653:3661  typeHash */\n      dup4\n        /* \"@openzeppelin/contracts/utils/cryptography/EIP712.sol\":3663:3671  nameHash */\n      dup4\n        /* \"@openzeppelin/contracts/utils/cryptography/EIP712.sol\":3673:3684  versionHash */\n      dup4\n        /* \"@openzeppelin/contracts/utils/cryptography/EIP712.sol\":3686:3699  block.chainid */\n      chainid\n        /* \"@openzeppelin/contracts/utils/cryptography/EIP712.sol\":3709:3713  this */\n      address\n        /* \"@openzeppelin/contracts/utils/cryptography/EIP712.sol\":3642:3715  abi.encode(typeHash, nameHash, versionHash, block.chainid, address(this)) */\n      add(0x20, mload(0x40))\n      tag_168\n      swap6\n      swap5\n      swap4\n      swap3\n      swap2\n      swap1\n      tag_169\n      jump\t// in\n    tag_168:\n      mload(0x40)\n      0x20\n      dup2\n      dup4\n      sub\n      sub\n      dup2\n      mstore\n      swap1\n      0x40\n      mstore\n        /* \"@openzeppelin/contracts/utils/cryptography/EIP712.sol\":3632:3716  keccak256(abi.encode(typeHash, nameHash, versionHash, block.chainid, address(this))) */\n      dup1\n      mload\n      swap1\n      0x20\n      add\n      keccak256\n        /* \"@openzeppelin/contracts/utils/cryptography/EIP712.sol\":3625:3716  return keccak256(abi.encode(typeHash, nameHash, versionHash, block.chainid, address(this))) */\n      swap1\n      pop\n        /* \"@openzeppelin/contracts/utils/cryptography/EIP712.sol\":3466:3723  function _buildDomainSeparator(... */\n      swap4\n      swap3\n      pop\n      pop\n      pop\n      jump\t// out\n    tag_73:\n      dup3\n      dup1\n      sload\n      tag_170\n      swap1\n      tag_48\n      jump\t// in\n    tag_170:\n      swap1\n      0x00\n      mstore\n      keccak256(0x00, 0x20)\n      swap1\n      0x1f\n      add\n      0x20\n      swap1\n      div\n      dup2\n      add\n      swap3\n      dup3\n      tag_172\n      jumpi\n      0x00\n      dup6\n      sstore\n      jump(tag_171)\n    tag_172:\n      dup3\n      0x1f\n      lt\n      tag_173\n      jumpi\n      dup1\n      mload\n      not(0xff)\n      and\n      dup4\n      dup1\n      add\n      or\n      dup6\n      sstore\n      jump(tag_171)\n    tag_173:\n      dup3\n      dup1\n      add\n      0x01\n      add\n      dup6\n      sstore\n      dup3\n      iszero\n      tag_171\n      jumpi\n      swap2\n      dup3\n      add\n    tag_174:\n      dup3\n      dup2\n      gt\n      iszero\n      tag_175\n      jumpi\n      dup3\n      mload\n      dup3\n      sstore\n      swap2\n      0x20\n      add\n      swap2\n      swap1\n      0x01\n      add\n      swap1\n      jump(tag_174)\n    tag_175:\n    tag_171:\n      pop\n      swap1\n      pop\n      tag_176\n      swap2\n      swap1\n      tag_177\n      jump\t// in\n    tag_176:\n      pop\n      swap1\n      jump\t// out\n    tag_177:\n    tag_178:\n      dup1\n      dup3\n      gt\n      iszero\n      tag_179\n      jumpi\n      0x00\n      dup2\n      0x00\n      swap1\n      sstore\n      pop\n      0x01\n      add\n      jump(tag_178)\n    tag_179:\n      pop\n      swap1\n      jump\t// out\n        /* \"#utility.yul\":7:417   */\n    tag_181:\n        /* \"#utility.yul\":84:89   */\n      0x00\n        /* \"#utility.yul\":109:174   */\n      tag_183\n        /* \"#utility.yul\":125:173   */\n      tag_184\n        /* \"#utility.yul\":166:172   */\n      dup5\n        /* \"#utility.yul\":125:173   */\n      tag_185\n      jump\t// in\n    tag_184:\n        /* \"#utility.yul\":109:174   */\n      tag_186\n      jump\t// in\n    tag_183:\n        /* \"#utility.yul\":100:174   */\n      swap1\n      pop\n        /* \"#utility.yul\":197:203   */\n      dup3\n        /* \"#utility.yul\":190:195   */\n      dup2\n        /* \"#utility.yul\":183:204   */\n      mstore\n        /* \"#utility.yul\":235:239   */\n      0x20\n        /* \"#utility.yul\":228:233   */\n      dup2\n        /* \"#utility.yul\":224:240   */\n      add\n        /* \"#utility.yul\":273:276   */\n      dup5\n        /* \"#utility.yul\":264:270   */\n      dup5\n        /* \"#utility.yul\":259:262   */\n      dup5\n        /* \"#utility.yul\":255:271   */\n      add\n        /* \"#utility.yul\":252:277   */\n      gt\n        /* \"#utility.yul\":249:361   */\n      iszero\n      tag_187\n      jumpi\n        /* \"#utility.yul\":280:359   */\n      tag_188\n      tag_189\n      jump\t// in\n    tag_188:\n        /* \"#utility.yul\":249:361   */\n    tag_187:\n        /* \"#utility.yul\":370:411   */\n      tag_190\n        /* \"#utility.yul\":404:410   */\n      dup5\n        /* \"#utility.yul\":399:402   */\n      dup3\n        /* \"#utility.yul\":394:397   */\n      dup6\n        /* \"#utility.yul\":370:411   */\n      tag_191\n      jump\t// in\n    tag_190:\n        /* \"#utility.yul\":90:417   */\n      pop\n        /* \"#utility.yul\":7:417   */\n      swap4\n      swap3\n      pop\n      pop\n      pop\n      jump\t// out\n        /* \"#utility.yul\":423:835   */\n    tag_192:\n        /* \"#utility.yul\":501:506   */\n      0x00\n        /* \"#utility.yul\":526:592   */\n      tag_194\n        /* \"#utility.yul\":542:591   */\n      tag_195\n        /* \"#utility.yul\":584:590   */\n      dup5\n        /* \"#utility.yul\":542:591   */\n      tag_196\n      jump\t// in\n    tag_195:\n        /* \"#utility.yul\":526:592   */\n      tag_186\n      jump\t// in\n    tag_194:\n        /* \"#utility.yul\":517:592   */\n      swap1\n      pop\n        /* \"#utility.yul\":615:621   */\n      dup3\n        /* \"#utility.yul\":608:613   */\n      dup2\n        /* \"#utility.yul\":601:622   */\n      mstore\n        /* \"#utility.yul\":653:657   */\n      0x20\n        /* \"#utility.yul\":646:651   */\n      dup2\n        /* \"#utility.yul\":642:658   */\n      add\n        /* \"#utility.yul\":691:694   */\n      dup5\n        /* \"#utility.yul\":682:688   */\n      dup5\n        /* \"#utility.yul\":677:680   */\n      dup5\n        /* \"#utility.yul\":673:689   */\n      add\n        /* \"#utility.yul\":670:695   */\n      gt\n        /* \"#utility.yul\":667:779   */\n      iszero\n      tag_197\n      jumpi\n        /* \"#utility.yul\":698:777   */\n      tag_198\n      tag_189\n      jump\t// in\n    tag_198:\n        /* \"#utility.yul\":667:779   */\n    tag_197:\n        /* \"#utility.yul\":788:829   */\n      tag_199\n        /* \"#utility.yul\":822:828   */\n      dup5\n        /* \"#utility.yul\":817:820   */\n      dup3\n        /* \"#utility.yul\":812:815   */\n      dup6\n        /* \"#utility.yul\":788:829   */\n      tag_191\n      jump\t// in\n    tag_199:\n        /* \"#utility.yul\":507:835   */\n      pop\n        /* \"#utility.yul\":423:835   */\n      swap4\n      swap3\n      pop\n      pop\n      pop\n      jump\t// out\n        /* \"#utility.yul\":841:980   */\n    tag_200:\n        /* \"#utility.yul\":887:892   */\n      0x00\n        /* \"#utility.yul\":925:931   */\n      dup2\n        /* \"#utility.yul\":912:932   */\n      calldataload\n        /* \"#utility.yul\":903:932   */\n      swap1\n      pop\n        /* \"#utility.yul\":941:974   */\n      tag_202\n        /* \"#utility.yul\":968:973   */\n      dup2\n        /* \"#utility.yul\":941:974   */\n      tag_203\n      jump\t// in\n    tag_202:\n        /* \"#utility.yul\":841:980   */\n      swap3\n      swap2\n      pop\n      pop\n      jump\t// out\n        /* \"#utility.yul\":999:1337   */\n    tag_204:\n        /* \"#utility.yul\":1054:1059   */\n      0x00\n        /* \"#utility.yul\":1103:1106   */\n      dup3\n        /* \"#utility.yul\":1096:1100   */\n      0x1f\n        /* \"#utility.yul\":1088:1094   */\n      dup4\n        /* \"#utility.yul\":1084:1101   */\n      add\n        /* \"#utility.yul\":1080:1107   */\n      slt\n        /* \"#utility.yul\":1070:1192   */\n      tag_206\n      jumpi\n        /* \"#utility.yul\":1111:1190   */\n      tag_207\n      tag_208\n      jump\t// in\n    tag_207:\n        /* \"#utility.yul\":1070:1192   */\n    tag_206:\n        /* \"#utility.yul\":1228:1234   */\n      dup2\n        /* \"#utility.yul\":1215:1235   */\n      calldataload\n        /* \"#utility.yul\":1253:1331   */\n      tag_209\n        /* \"#utility.yul\":1327:1330   */\n      dup5\n        /* \"#utility.yul\":1319:1325   */\n      dup3\n        /* \"#utility.yul\":1312:1316   */\n      0x20\n        /* \"#utility.yul\":1304:1310   */\n      dup7\n        /* \"#utility.yul\":1300:1317   */\n      add\n        /* \"#utility.yul\":1253:1331   */\n      tag_181\n      jump\t// in\n    tag_209:\n        /* \"#utility.yul\":1244:1331   */\n      swap2\n      pop\n        /* \"#utility.yul\":1060:1337   */\n      pop\n        /* \"#utility.yul\":999:1337   */\n      swap3\n      swap2\n      pop\n      pop\n      jump\t// out\n        /* \"#utility.yul\":1357:1697   */\n    tag_210:\n        /* \"#utility.yul\":1413:1418   */\n      0x00\n        /* \"#utility.yul\":1462:1465   */\n      dup3\n        /* \"#utility.yul\":1455:1459   */\n      0x1f\n        /* \"#utility.yul\":1447:1453   */\n      dup4\n        /* \"#utility.yul\":1443:1460   */\n      add\n        /* \"#utility.yul\":1439:1466   */\n      slt\n        /* \"#utility.yul\":1429:1551   */\n      tag_212\n      jumpi\n        /* \"#utility.yul\":1470:1549   */\n      tag_213\n      tag_208\n      jump\t// in\n    tag_213:\n        /* \"#utility.yul\":1429:1551   */\n    tag_212:\n        /* \"#utility.yul\":1587:1593   */\n      dup2\n        /* \"#utility.yul\":1574:1594   */\n      calldataload\n        /* \"#utility.yul\":1612:1691   */\n      tag_214\n        /* \"#utility.yul\":1687:1690   */\n      dup5\n        /* \"#utility.yul\":1679:1685   */\n      dup3\n        /* \"#utility.yul\":1672:1676   */\n      0x20\n        /* \"#utility.yul\":1664:1670   */\n      dup7\n        /* \"#utility.yul\":1660:1677   */\n      add\n        /* \"#utility.yul\":1612:1691   */\n      tag_192\n      jump\t// in\n    tag_214:\n        /* \"#utility.yul\":1603:1691   */\n      swap2\n      pop\n        /* \"#utility.yul\":1419:1697   */\n      pop\n        /* \"#utility.yul\":1357:1697   */\n      swap3\n      swap2\n      pop\n      pop\n      jump\t// out\n        /* \"#utility.yul\":1752:3201   */\n    tag_215:\n        /* \"#utility.yul\":1833:1838   */\n      0x00\n        /* \"#utility.yul\":1877:1881   */\n      0x80\n        /* \"#utility.yul\":1865:1874   */\n      dup3\n        /* \"#utility.yul\":1860:1863   */\n      dup5\n        /* \"#utility.yul\":1856:1875   */\n      sub\n        /* \"#utility.yul\":1852:1882   */\n      slt\n        /* \"#utility.yul\":1849:1966   */\n      iszero\n      tag_217\n      jumpi\n        /* \"#utility.yul\":1885:1964   */\n      tag_218\n      tag_219\n      jump\t// in\n    tag_218:\n        /* \"#utility.yul\":1849:1966   */\n    tag_217:\n        /* \"#utility.yul\":1984:2005   */\n      tag_220\n        /* \"#utility.yul\":2000:2004   */\n      0x80\n        /* \"#utility.yul\":1984:2005   */\n      tag_186\n      jump\t// in\n    tag_220:\n        /* \"#utility.yul\":1975:2005   */\n      swap1\n      pop\n        /* \"#utility.yul\":2099:2100   */\n      0x00\n        /* \"#utility.yul\":2088:2097   */\n      dup3\n        /* \"#utility.yul\":2084:2101   */\n      add\n        /* \"#utility.yul\":2071:2102   */\n      calldataload\n        /* \"#utility.yul\":2129:2147   */\n      0xffffffffffffffff\n        /* \"#utility.yul\":2121:2127   */\n      dup2\n        /* \"#utility.yul\":2118:2148   */\n      gt\n        /* \"#utility.yul\":2115:2232   */\n      iszero\n      tag_221\n      jumpi\n        /* \"#utility.yul\":2151:2230   */\n      tag_222\n      tag_223\n      jump\t// in\n    tag_222:\n        /* \"#utility.yul\":2115:2232   */\n    tag_221:\n        /* \"#utility.yul\":2271:2330   */\n      tag_224\n        /* \"#utility.yul\":2326:2329   */\n      dup5\n        /* \"#utility.yul\":2317:2323   */\n      dup3\n        /* \"#utility.yul\":2306:2315   */\n      dup6\n        /* \"#utility.yul\":2302:2324   */\n      add\n        /* \"#utility.yul\":2271:2330   */\n      tag_210\n      jump\t// in\n    tag_224:\n        /* \"#utility.yul\":2264:2268   */\n      0x00\n        /* \"#utility.yul\":2257:2262   */\n      dup4\n        /* \"#utility.yul\":2253:2269   */\n      add\n        /* \"#utility.yul\":2246:2331   */\n      mstore\n        /* \"#utility.yul\":2015:2342   */\n      pop\n        /* \"#utility.yul\":2438:2440   */\n      0x20\n        /* \"#utility.yul\":2427:2436   */\n      dup3\n        /* \"#utility.yul\":2423:2441   */\n      add\n        /* \"#utility.yul\":2410:2442   */\n      calldataload\n        /* \"#utility.yul\":2469:2487   */\n      0xffffffffffffffff\n        /* \"#utility.yul\":2461:2467   */\n      dup2\n        /* \"#utility.yul\":2458:2488   */\n      gt\n        /* \"#utility.yul\":2455:2572   */\n      iszero\n      tag_225\n      jumpi\n        /* \"#utility.yul\":2491:2570   */\n      tag_226\n      tag_223\n      jump\t// in\n    tag_226:\n        /* \"#utility.yul\":2455:2572   */\n    tag_225:\n        /* \"#utility.yul\":2611:2670   */\n      tag_227\n        /* \"#utility.yul\":2666:2669   */\n      dup5\n        /* \"#utility.yul\":2657:2663   */\n      dup3\n        /* \"#utility.yul\":2646:2655   */\n      dup6\n        /* \"#utility.yul\":2642:2664   */\n      add\n        /* \"#utility.yul\":2611:2670   */\n      tag_210\n      jump\t// in\n    tag_227:\n        /* \"#utility.yul\":2604:2608   */\n      0x20\n        /* \"#utility.yul\":2597:2602   */\n      dup4\n        /* \"#utility.yul\":2593:2609   */\n      add\n        /* \"#utility.yul\":2586:2671   */\n      mstore\n        /* \"#utility.yul\":2352:2682   */\n      pop\n        /* \"#utility.yul\":2757:2759   */\n      0x40\n        /* \"#utility.yul\":2798:2847   */\n      tag_228\n        /* \"#utility.yul\":2843:2846   */\n      dup5\n        /* \"#utility.yul\":2834:2840   */\n      dup3\n        /* \"#utility.yul\":2823:2832   */\n      dup6\n        /* \"#utility.yul\":2819:2841   */\n      add\n        /* \"#utility.yul\":2798:2847   */\n      tag_200\n      jump\t// in\n    tag_228:\n        /* \"#utility.yul\":2791:2795   */\n      0x40\n        /* \"#utility.yul\":2784:2789   */\n      dup4\n        /* \"#utility.yul\":2780:2796   */\n      add\n        /* \"#utility.yul\":2773:2848   */\n      mstore\n        /* \"#utility.yul\":2692:2859   */\n      pop\n        /* \"#utility.yul\":2951:2953   */\n      0x60\n        /* \"#utility.yul\":2940:2949   */\n      dup3\n        /* \"#utility.yul\":2936:2954   */\n      add\n        /* \"#utility.yul\":2923:2955   */\n      calldataload\n        /* \"#utility.yul\":2982:3000   */\n      0xffffffffffffffff\n        /* \"#utility.yul\":2974:2980   */\n      dup2\n        /* \"#utility.yul\":2971:3001   */\n      gt\n        /* \"#utility.yul\":2968:3085   */\n      iszero\n      tag_229\n      jumpi\n        /* \"#utility.yul\":3004:3083   */\n      tag_230\n      tag_223\n      jump\t// in\n    tag_230:\n        /* \"#utility.yul\":2968:3085   */\n    tag_229:\n        /* \"#utility.yul\":3124:3182   */\n      tag_231\n        /* \"#utility.yul\":3178:3181   */\n      dup5\n        /* \"#utility.yul\":3169:3175   */\n      dup3\n        /* \"#utility.yul\":3158:3167   */\n      dup6\n        /* \"#utility.yul\":3154:3176   */\n      add\n        /* \"#utility.yul\":3124:3182   */\n      tag_204\n      jump\t// in\n    tag_231:\n        /* \"#utility.yul\":3117:3121   */\n      0x60\n        /* \"#utility.yul\":3110:3115   */\n      dup4\n        /* \"#utility.yul\":3106:3122   */\n      add\n        /* \"#utility.yul\":3099:3183   */\n      mstore\n        /* \"#utility.yul\":2869:3194   */\n      pop\n        /* \"#utility.yul\":1752:3201   */\n      swap3\n      swap2\n      pop\n      pop\n      jump\t// out\n        /* \"#utility.yul\":3207:3536   */\n    tag_39:\n        /* \"#utility.yul\":3266:3272   */\n      0x00\n        /* \"#utility.yul\":3315:3317   */\n      0x20\n        /* \"#utility.yul\":3303:3312   */\n      dup3\n        /* \"#utility.yul\":3294:3301   */\n      dup5\n        /* \"#utility.yul\":3290:3313   */\n      sub\n        /* \"#utility.yul\":3286:3318   */\n      slt\n        /* \"#utility.yul\":3283:3402   */\n      iszero\n      tag_233\n      jumpi\n        /* \"#utility.yul\":3321:3400   */\n      tag_234\n      tag_235\n      jump\t// in\n    tag_234:\n        /* \"#utility.yul\":3283:3402   */\n    tag_233:\n        /* \"#utility.yul\":3441:3442   */\n      0x00\n        /* \"#utility.yul\":3466:3519   */\n      tag_236\n        /* \"#utility.yul\":3511:3518   */\n      dup5\n        /* \"#utility.yul\":3502:3508   */\n      dup3\n        /* \"#utility.yul\":3491:3500   */\n      dup6\n        /* \"#utility.yul\":3487:3509   */\n      add\n        /* \"#utility.yul\":3466:3519   */\n      tag_200\n      jump\t// in\n    tag_236:\n        /* \"#utility.yul\":3456:3519   */\n      swap2\n      pop\n        /* \"#utility.yul\":3412:3529   */\n      pop\n        /* \"#utility.yul\":3207:3536   */\n      swap3\n      swap2\n      pop\n      pop\n      jump\t// out\n        /* \"#utility.yul\":3542:4196   */\n    tag_25:\n        /* \"#utility.yul\":3620:3626   */\n      0x00\n        /* \"#utility.yul\":3628:3634   */\n      dup1\n        /* \"#utility.yul\":3677:3679   */\n      0x40\n        /* \"#utility.yul\":3665:3674   */\n      dup4\n        /* \"#utility.yul\":3656:3663   */\n      dup6\n        /* \"#utility.yul\":3652:3675   */\n      sub\n        /* \"#utility.yul\":3648:3680   */\n      slt\n        /* \"#utility.yul\":3645:3764   */\n      iszero\n      tag_238\n      jumpi\n        /* \"#utility.yul\":3683:3762   */\n      tag_239\n      tag_235\n      jump\t// in\n    tag_239:\n        /* \"#utility.yul\":3645:3764   */\n    tag_238:\n        /* \"#utility.yul\":3803:3804   */\n      0x00\n        /* \"#utility.yul\":3828:3881   */\n      tag_240\n        /* \"#utility.yul\":3873:3880   */\n      dup6\n        /* \"#utility.yul\":3864:3870   */\n      dup3\n        /* \"#utility.yul\":3853:3862   */\n      dup7\n        /* \"#utility.yul\":3849:3871   */\n      add\n        /* \"#utility.yul\":3828:3881   */\n      tag_200\n      jump\t// in\n    tag_240:\n        /* \"#utility.yul\":3818:3881   */\n      swap3\n      pop\n        /* \"#utility.yul\":3774:3891   */\n      pop\n        /* \"#utility.yul\":3958:3960   */\n      0x20\n        /* \"#utility.yul\":3947:3956   */\n      dup4\n        /* \"#utility.yul\":3943:3961   */\n      add\n        /* \"#utility.yul\":3930:3962   */\n      calldataload\n        /* \"#utility.yul\":3989:4007   */\n      0xffffffffffffffff\n        /* \"#utility.yul\":3981:3987   */\n      dup2\n        /* \"#utility.yul\":3978:4008   */\n      gt\n        /* \"#utility.yul\":3975:4092   */\n      iszero\n      tag_241\n      jumpi\n        /* \"#utility.yul\":4011:4090   */\n      tag_242\n      tag_243\n      jump\t// in\n    tag_242:\n        /* \"#utility.yul\":3975:4092   */\n    tag_241:\n        /* \"#utility.yul\":4116:4179   */\n      tag_244\n        /* \"#utility.yul\":4171:4178   */\n      dup6\n        /* \"#utility.yul\":4162:4168   */\n      dup3\n        /* \"#utility.yul\":4151:4160   */\n      dup7\n        /* \"#utility.yul\":4147:4169   */\n      add\n        /* \"#utility.yul\":4116:4179   */\n      tag_210\n      jump\t// in\n    tag_244:\n        /* \"#utility.yul\":4106:4179   */\n      swap2\n      pop\n        /* \"#utility.yul\":3901:4189   */\n      pop\n        /* \"#utility.yul\":3542:4196   */\n      swap3\n      pop\n      swap3\n      swap1\n      pop\n      jump\t// out\n        /* \"#utility.yul\":4202:5036   */\n    tag_14:\n        /* \"#utility.yul\":4290:4296   */\n      0x00\n        /* \"#utility.yul\":4298:4304   */\n      dup1\n        /* \"#utility.yul\":4347:4349   */\n      0x40\n        /* \"#utility.yul\":4335:4344   */\n      dup4\n        /* \"#utility.yul\":4326:4333   */\n      dup6\n        /* \"#utility.yul\":4322:4345   */\n      sub\n        /* \"#utility.yul\":4318:4350   */\n      slt\n        /* \"#utility.yul\":4315:4434   */\n      iszero\n      tag_246\n      jumpi\n        /* \"#utility.yul\":4353:4432   */\n      tag_247\n      tag_235\n      jump\t// in\n    tag_247:\n        /* \"#utility.yul\":4315:4434   */\n    tag_246:\n        /* \"#utility.yul\":4501:4502   */\n      0x00\n        /* \"#utility.yul\":4490:4499   */\n      dup4\n        /* \"#utility.yul\":4486:4503   */\n      add\n        /* \"#utility.yul\":4473:4504   */\n      calldataload\n        /* \"#utility.yul\":4531:4549   */\n      0xffffffffffffffff\n        /* \"#utility.yul\":4523:4529   */\n      dup2\n        /* \"#utility.yul\":4520:4550   */\n      gt\n        /* \"#utility.yul\":4517:4634   */\n      iszero\n      tag_248\n      jumpi\n        /* \"#utility.yul\":4553:4632   */\n      tag_249\n      tag_243\n      jump\t// in\n    tag_249:\n        /* \"#utility.yul\":4517:4634   */\n    tag_248:\n        /* \"#utility.yul\":4658:4721   */\n      tag_250\n        /* \"#utility.yul\":4713:4720   */\n      dup6\n        /* \"#utility.yul\":4704:4710   */\n      dup3\n        /* \"#utility.yul\":4693:4702   */\n      dup7\n        /* \"#utility.yul\":4689:4711   */\n      add\n        /* \"#utility.yul\":4658:4721   */\n      tag_210\n      jump\t// in\n    tag_250:\n        /* \"#utility.yul\":4648:4721   */\n      swap3\n      pop\n        /* \"#utility.yul\":4444:4731   */\n      pop\n        /* \"#utility.yul\":4798:4800   */\n      0x20\n        /* \"#utility.yul\":4787:4796   */\n      dup4\n        /* \"#utility.yul\":4783:4801   */\n      add\n        /* \"#utility.yul\":4770:4802   */\n      calldataload\n        /* \"#utility.yul\":4829:4847   */\n      0xffffffffffffffff\n        /* \"#utility.yul\":4821:4827   */\n      dup2\n        /* \"#utility.yul\":4818:4848   */\n      gt\n        /* \"#utility.yul\":4815:4932   */\n      iszero\n      tag_251\n      jumpi\n        /* \"#utility.yul\":4851:4930   */\n      tag_252\n      tag_243\n      jump\t// in\n    tag_252:\n        /* \"#utility.yul\":4815:4932   */\n    tag_251:\n        /* \"#utility.yul\":4956:5019   */\n      tag_253\n        /* \"#utility.yul\":5011:5018   */\n      dup6\n        /* \"#utility.yul\":5002:5008   */\n      dup3\n        /* \"#utility.yul\":4991:5000   */\n      dup7\n        /* \"#utility.yul\":4987:5009   */\n      add\n        /* \"#utility.yul\":4956:5019   */\n      tag_210\n      jump\t// in\n    tag_253:\n        /* \"#utility.yul\":4946:5019   */\n      swap2\n      pop\n        /* \"#utility.yul\":4741:5029   */\n      pop\n        /* \"#utility.yul\":4202:5036   */\n      swap3\n      pop\n      swap3\n      swap1\n      pop\n      jump\t// out\n        /* \"#utility.yul\":5042:5595   */\n    tag_20:\n        /* \"#utility.yul\":5133:5139   */\n      0x00\n        /* \"#utility.yul\":5182:5184   */\n      0x20\n        /* \"#utility.yul\":5170:5179   */\n      dup3\n        /* \"#utility.yul\":5161:5168   */\n      dup5\n        /* \"#utility.yul\":5157:5180   */\n      sub\n        /* \"#utility.yul\":5153:5185   */\n      slt\n        /* \"#utility.yul\":5150:5269   */\n      iszero\n      tag_255\n      jumpi\n        /* \"#utility.yul\":5188:5267   */\n      tag_256\n      tag_235\n      jump\t// in\n    tag_256:\n        /* \"#utility.yul\":5150:5269   */\n    tag_255:\n        /* \"#utility.yul\":5336:5337   */\n      0x00\n        /* \"#utility.yul\":5325:5334   */\n      dup3\n        /* \"#utility.yul\":5321:5338   */\n      add\n        /* \"#utility.yul\":5308:5339   */\n      calldataload\n        /* \"#utility.yul\":5366:5384   */\n      0xffffffffffffffff\n        /* \"#utility.yul\":5358:5364   */\n      dup2\n        /* \"#utility.yul\":5355:5385   */\n      gt\n        /* \"#utility.yul\":5352:5469   */\n      iszero\n      tag_257\n      jumpi\n        /* \"#utility.yul\":5388:5467   */\n      tag_258\n      tag_243\n      jump\t// in\n    tag_258:\n        /* \"#utility.yul\":5352:5469   */\n    tag_257:\n        /* \"#utility.yul\":5493:5578   */\n      tag_259\n        /* \"#utility.yul\":5570:5577   */\n      dup5\n        /* \"#utility.yul\":5561:5567   */\n      dup3\n        /* \"#utility.yul\":5550:5559   */\n      dup6\n        /* \"#utility.yul\":5546:5568   */\n      add\n        /* \"#utility.yul\":5493:5578   */\n      tag_215\n      jump\t// in\n    tag_259:\n        /* \"#utility.yul\":5483:5578   */\n      swap2\n      pop\n        /* \"#utility.yul\":5279:5588   */\n      pop\n        /* \"#utility.yul\":5042:5595   */\n      swap3\n      swap2\n      pop\n      pop\n      jump\t// out\n        /* \"#utility.yul\":5601:5719   */\n    tag_260:\n        /* \"#utility.yul\":5688:5712   */\n      tag_262\n        /* \"#utility.yul\":5706:5711   */\n      dup2\n        /* \"#utility.yul\":5688:5712   */\n      tag_263\n      jump\t// in\n    tag_262:\n        /* \"#utility.yul\":5683:5686   */\n      dup3\n        /* \"#utility.yul\":5676:5713   */\n      mstore\n        /* \"#utility.yul\":5601:5719   */\n      pop\n      pop\n      jump\t// out\n        /* \"#utility.yul\":5725:5843   */\n    tag_264:\n        /* \"#utility.yul\":5812:5836   */\n      tag_266\n        /* \"#utility.yul\":5830:5835   */\n      dup2\n        /* \"#utility.yul\":5812:5836   */\n      tag_267\n      jump\t// in\n    tag_266:\n        /* \"#utility.yul\":5807:5810   */\n      dup3\n        /* \"#utility.yul\":5800:5837   */\n      mstore\n        /* \"#utility.yul\":5725:5843   */\n      pop\n      pop\n      jump\t// out\n        /* \"#utility.yul\":5849:6006   */\n    tag_268:\n        /* \"#utility.yul\":5954:5999   */\n      tag_270\n        /* \"#utility.yul\":5974:5998   */\n      tag_271\n        /* \"#utility.yul\":5992:5997   */\n      dup3\n        /* \"#utility.yul\":5974:5998   */\n      tag_267\n      jump\t// in\n    tag_271:\n        /* \"#utility.yul\":5954:5999   */\n      tag_272\n      jump\t// in\n    tag_270:\n        /* \"#utility.yul\":5949:5952   */\n      dup3\n        /* \"#utility.yul\":5942:6000   */\n      mstore\n        /* \"#utility.yul\":5849:6006   */\n      pop\n      pop\n      jump\t// out\n        /* \"#utility.yul\":6012:6376   */\n    tag_273:\n        /* \"#utility.yul\":6100:6103   */\n      0x00\n        /* \"#utility.yul\":6128:6167   */\n      tag_275\n        /* \"#utility.yul\":6161:6166   */\n      dup3\n        /* \"#utility.yul\":6128:6167   */\n      tag_276\n      jump\t// in\n    tag_275:\n        /* \"#utility.yul\":6183:6254   */\n      tag_277\n        /* \"#utility.yul\":6247:6253   */\n      dup2\n        /* \"#utility.yul\":6242:6245   */\n      dup6\n        /* \"#utility.yul\":6183:6254   */\n      tag_278\n      jump\t// in\n    tag_277:\n        /* \"#utility.yul\":6176:6254   */\n      swap4\n      pop\n        /* \"#utility.yul\":6263:6315   */\n      tag_279\n        /* \"#utility.yul\":6308:6314   */\n      dup2\n        /* \"#utility.yul\":6303:6306   */\n      dup6\n        /* \"#utility.yul\":6296:6300   */\n      0x20\n        /* \"#utility.yul\":6289:6294   */\n      dup7\n        /* \"#utility.yul\":6285:6301   */\n      add\n        /* \"#utility.yul\":6263:6315   */\n      tag_280\n      jump\t// in\n    tag_279:\n        /* \"#utility.yul\":6340:6369   */\n      tag_281\n        /* \"#utility.yul\":6362:6368   */\n      dup2\n        /* \"#utility.yul\":6340:6369   */\n      tag_282\n      jump\t// in\n    tag_281:\n        /* \"#utility.yul\":6335:6338   */\n      dup5\n        /* \"#utility.yul\":6331:6370   */\n      add\n        /* \"#utility.yul\":6324:6370   */\n      swap2\n      pop\n        /* \"#utility.yul\":6104:6376   */\n      pop\n        /* \"#utility.yul\":6012:6376   */\n      swap3\n      swap2\n      pop\n      pop\n      jump\t// out\n        /* \"#utility.yul\":6382:6759   */\n    tag_283:\n        /* \"#utility.yul\":6488:6491   */\n      0x00\n        /* \"#utility.yul\":6516:6555   */\n      tag_285\n        /* \"#utility.yul\":6549:6554   */\n      dup3\n        /* \"#utility.yul\":6516:6555   */\n      tag_276\n      jump\t// in\n    tag_285:\n        /* \"#utility.yul\":6571:6660   */\n      tag_286\n        /* \"#utility.yul\":6653:6659   */\n      dup2\n        /* \"#utility.yul\":6648:6651   */\n      dup6\n        /* \"#utility.yul\":6571:6660   */\n      tag_287\n      jump\t// in\n    tag_286:\n        /* \"#utility.yul\":6564:6660   */\n      swap4\n      pop\n        /* \"#utility.yul\":6669:6721   */\n      tag_288\n        /* \"#utility.yul\":6714:6720   */\n      dup2\n        /* \"#utility.yul\":6709:6712   */\n      dup6\n        /* \"#utility.yul\":6702:6706   */\n      0x20\n        /* \"#utility.yul\":6695:6700   */\n      dup7\n        /* \"#utility.yul\":6691:6707   */\n      add\n        /* \"#utility.yul\":6669:6721   */\n      tag_280\n      jump\t// in\n    tag_288:\n        /* \"#utility.yul\":6746:6752   */\n      dup1\n        /* \"#utility.yul\":6741:6744   */\n      dup5\n        /* \"#utility.yul\":6737:6753   */\n      add\n        /* \"#utility.yul\":6730:6753   */\n      swap2\n      pop\n        /* \"#utility.yul\":6492:6759   */\n      pop\n        /* \"#utility.yul\":6382:6759   */\n      swap3\n      swap2\n      pop\n      pop\n      jump\t// out\n        /* \"#utility.yul\":6765:7131   */\n    tag_289:\n        /* \"#utility.yul\":6907:6910   */\n      0x00\n        /* \"#utility.yul\":6928:6995   */\n      tag_291\n        /* \"#utility.yul\":6992:6994   */\n      0x18\n        /* \"#utility.yul\":6987:6990   */\n      dup4\n        /* \"#utility.yul\":6928:6995   */\n      tag_278\n      jump\t// in\n    tag_291:\n        /* \"#utility.yul\":6921:6995   */\n      swap2\n      pop\n        /* \"#utility.yul\":7004:7097   */\n      tag_292\n        /* \"#utility.yul\":7093:7096   */\n      dup3\n        /* \"#utility.yul\":7004:7097   */\n      tag_293\n      jump\t// in\n    tag_292:\n        /* \"#utility.yul\":7122:7124   */\n      0x20\n        /* \"#utility.yul\":7117:7120   */\n      dup3\n        /* \"#utility.yul\":7113:7125   */\n      add\n        /* \"#utility.yul\":7106:7125   */\n      swap1\n      pop\n        /* \"#utility.yul\":6765:7131   */\n      swap2\n      swap1\n      pop\n      jump\t// out\n        /* \"#utility.yul\":7137:7503   */\n    tag_294:\n        /* \"#utility.yul\":7279:7282   */\n      0x00\n        /* \"#utility.yul\":7300:7367   */\n      tag_296\n        /* \"#utility.yul\":7364:7366   */\n      0x1f\n        /* \"#utility.yul\":7359:7362   */\n      dup4\n        /* \"#utility.yul\":7300:7367   */\n      tag_278\n      jump\t// in\n    tag_296:\n        /* \"#utility.yul\":7293:7367   */\n      swap2\n      pop\n        /* \"#utility.yul\":7376:7469   */\n      tag_297\n        /* \"#utility.yul\":7465:7468   */\n      dup3\n        /* \"#utility.yul\":7376:7469   */\n      tag_298\n      jump\t// in\n    tag_297:\n        /* \"#utility.yul\":7494:7496   */\n      0x20\n        /* \"#utility.yul\":7489:7492   */\n      dup3\n        /* \"#utility.yul\":7485:7497   */\n      add\n        /* \"#utility.yul\":7478:7497   */\n      swap1\n      pop\n        /* \"#utility.yul\":7137:7503   */\n      swap2\n      swap1\n      pop\n      jump\t// out\n        /* \"#utility.yul\":7509:7875   */\n    tag_299:\n        /* \"#utility.yul\":7651:7654   */\n      0x00\n        /* \"#utility.yul\":7672:7739   */\n      tag_301\n        /* \"#utility.yul\":7736:7738   */\n      0x33\n        /* \"#utility.yul\":7731:7734   */\n      dup4\n        /* \"#utility.yul\":7672:7739   */\n      tag_278\n      jump\t// in\n    tag_301:\n        /* \"#utility.yul\":7665:7739   */\n      swap2\n      pop\n        /* \"#utility.yul\":7748:7841   */\n      tag_302\n        /* \"#utility.yul\":7837:7840   */\n      dup3\n        /* \"#utility.yul\":7748:7841   */\n      tag_303\n      jump\t// in\n    tag_302:\n        /* \"#utility.yul\":7866:7868   */\n      0x40\n        /* \"#utility.yul\":7861:7864   */\n      dup3\n        /* \"#utility.yul\":7857:7869   */\n      add\n        /* \"#utility.yul\":7850:7869   */\n      swap1\n      pop\n        /* \"#utility.yul\":7509:7875   */\n      swap2\n      swap1\n      pop\n      jump\t// out\n        /* \"#utility.yul\":7881:8247   */\n    tag_304:\n        /* \"#utility.yul\":8023:8026   */\n      0x00\n        /* \"#utility.yul\":8044:8111   */\n      tag_306\n        /* \"#utility.yul\":8108:8110   */\n      0x1c\n        /* \"#utility.yul\":8103:8106   */\n      dup4\n        /* \"#utility.yul\":8044:8111   */\n      tag_278\n      jump\t// in\n    tag_306:\n        /* \"#utility.yul\":8037:8111   */\n      swap2\n      pop\n        /* \"#utility.yul\":8120:8213   */\n      tag_307\n        /* \"#utility.yul\":8209:8212   */\n      dup3\n        /* \"#utility.yul\":8120:8213   */\n      tag_308\n      jump\t// in\n    tag_307:\n        /* \"#utility.yul\":8238:8240   */\n      0x20\n        /* \"#utility.yul\":8233:8236   */\n      dup3\n        /* \"#utility.yul\":8229:8241   */\n      add\n        /* \"#utility.yul\":8222:8241   */\n      swap1\n      pop\n        /* \"#utility.yul\":7881:8247   */\n      swap2\n      swap1\n      pop\n      jump\t// out\n        /* \"#utility.yul\":8253:8619   */\n    tag_309:\n        /* \"#utility.yul\":8395:8398   */\n      0x00\n        /* \"#utility.yul\":8416:8483   */\n      tag_311\n        /* \"#utility.yul\":8480:8482   */\n      0x26\n        /* \"#utility.yul\":8475:8478   */\n      dup4\n        /* \"#utility.yul\":8416:8483   */\n      tag_278\n      jump\t// in\n    tag_311:\n        /* \"#utility.yul\":8409:8483   */\n      swap2\n      pop\n        /* \"#utility.yul\":8492:8585   */\n      tag_312\n        /* \"#utility.yul\":8581:8584   */\n      dup3\n        /* \"#utility.yul\":8492:8585   */\n      tag_313\n      jump\t// in\n    tag_312:\n        /* \"#utility.yul\":8610:8612   */\n      0x40\n        /* \"#utility.yul\":8605:8608   */\n      dup3\n        /* \"#utility.yul\":8601:8613   */\n      add\n        /* \"#utility.yul\":8594:8613   */\n      swap1\n      pop\n        /* \"#utility.yul\":8253:8619   */\n      swap2\n      swap1\n      pop\n      jump\t// out\n        /* \"#utility.yul\":8625:9025   */\n    tag_314:\n        /* \"#utility.yul\":8785:8788   */\n      0x00\n        /* \"#utility.yul\":8806:8890   */\n      tag_316\n        /* \"#utility.yul\":8888:8889   */\n      0x02\n        /* \"#utility.yul\":8883:8886   */\n      dup4\n        /* \"#utility.yul\":8806:8890   */\n      tag_287\n      jump\t// in\n    tag_316:\n        /* \"#utility.yul\":8799:8890   */\n      swap2\n      pop\n        /* \"#utility.yul\":8899:8992   */\n      tag_317\n        /* \"#utility.yul\":8988:8991   */\n      dup3\n        /* \"#utility.yul\":8899:8992   */\n      tag_318\n      jump\t// in\n    tag_317:\n        /* \"#utility.yul\":9017:9018   */\n      0x02\n        /* \"#utility.yul\":9012:9015   */\n      dup3\n        /* \"#utility.yul\":9008:9019   */\n      add\n        /* \"#utility.yul\":9001:9019   */\n      swap1\n      pop\n        /* \"#utility.yul\":8625:9025   */\n      swap2\n      swap1\n      pop\n      jump\t// out\n        /* \"#utility.yul\":9031:9397   */\n    tag_319:\n        /* \"#utility.yul\":9173:9176   */\n      0x00\n        /* \"#utility.yul\":9194:9261   */\n      tag_321\n        /* \"#utility.yul\":9258:9260   */\n      0x22\n        /* \"#utility.yul\":9253:9256   */\n      dup4\n        /* \"#utility.yul\":9194:9261   */\n      tag_278\n      jump\t// in\n    tag_321:\n        /* \"#utility.yul\":9187:9261   */\n      swap2\n      pop\n        /* \"#utility.yul\":9270:9363   */\n      tag_322\n        /* \"#utility.yul\":9359:9362   */\n      dup3\n        /* \"#utility.yul\":9270:9363   */\n      tag_323\n      jump\t// in\n    tag_322:\n        /* \"#utility.yul\":9388:9390   */\n      0x40\n        /* \"#utility.yul\":9383:9386   */\n      dup3\n        /* \"#utility.yul\":9379:9391   */\n      add\n        /* \"#utility.yul\":9372:9391   */\n      swap1\n      pop\n        /* \"#utility.yul\":9031:9397   */\n      swap2\n      swap1\n      pop\n      jump\t// out\n        /* \"#utility.yul\":9403:9769   */\n    tag_324:\n        /* \"#utility.yul\":9545:9548   */\n      0x00\n        /* \"#utility.yul\":9566:9633   */\n      tag_326\n        /* \"#utility.yul\":9630:9632   */\n      0x20\n        /* \"#utility.yul\":9625:9628   */\n      dup4\n        /* \"#utility.yul\":9566:9633   */\n      tag_278\n      jump\t// in\n    tag_326:\n        /* \"#utility.yul\":9559:9633   */\n      swap2\n      pop\n        /* \"#utility.yul\":9642:9735   */\n      tag_327\n        /* \"#utility.yul\":9731:9734   */\n      dup3\n        /* \"#utility.yul\":9642:9735   */\n      tag_328\n      jump\t// in\n    tag_327:\n        /* \"#utility.yul\":9760:9762   */\n      0x20\n        /* \"#utility.yul\":9755:9758   */\n      dup3\n        /* \"#utility.yul\":9751:9763   */\n      add\n        /* \"#utility.yul\":9744:9763   */\n      swap1\n      pop\n        /* \"#utility.yul\":9403:9769   */\n      swap2\n      swap1\n      pop\n      jump\t// out\n        /* \"#utility.yul\":9775:9893   */\n    tag_329:\n        /* \"#utility.yul\":9862:9886   */\n      tag_331\n        /* \"#utility.yul\":9880:9885   */\n      dup2\n        /* \"#utility.yul\":9862:9886   */\n      tag_332\n      jump\t// in\n    tag_331:\n        /* \"#utility.yul\":9857:9860   */\n      dup3\n        /* \"#utility.yul\":9850:9887   */\n      mstore\n        /* \"#utility.yul\":9775:9893   */\n      pop\n      pop\n      jump\t// out\n        /* \"#utility.yul\":9899:10011   */\n    tag_333:\n        /* \"#utility.yul\":9982:10004   */\n      tag_335\n        /* \"#utility.yul\":9998:10003   */\n      dup2\n        /* \"#utility.yul\":9982:10004   */\n      tag_336\n      jump\t// in\n    tag_335:\n        /* \"#utility.yul\":9977:9980   */\n      dup3\n        /* \"#utility.yul\":9970:10005   */\n      mstore\n        /* \"#utility.yul\":9899:10011   */\n      pop\n      pop\n      jump\t// out\n        /* \"#utility.yul\":10017:10292   */\n    tag_66:\n        /* \"#utility.yul\":10149:10152   */\n      0x00\n        /* \"#utility.yul\":10171:10266   */\n      tag_338\n        /* \"#utility.yul\":10262:10265   */\n      dup3\n        /* \"#utility.yul\":10253:10259   */\n      dup5\n        /* \"#utility.yul\":10171:10266   */\n      tag_283\n      jump\t// in\n    tag_338:\n        /* \"#utility.yul\":10164:10266   */\n      swap2\n      pop\n        /* \"#utility.yul\":10283:10286   */\n      dup2\n        /* \"#utility.yul\":10276:10286   */\n      swap1\n      pop\n        /* \"#utility.yul\":10017:10292   */\n      swap3\n      swap2\n      pop\n      pop\n      jump\t// out\n        /* \"#utility.yul\":10298:10961   */\n    tag_159:\n        /* \"#utility.yul\":10539:10542   */\n      0x00\n        /* \"#utility.yul\":10561:10709   */\n      tag_340\n        /* \"#utility.yul\":10705:10708   */\n      dup3\n        /* \"#utility.yul\":10561:10709   */\n      tag_314\n      jump\t// in\n    tag_340:\n        /* \"#utility.yul\":10554:10709   */\n      swap2\n      pop\n        /* \"#utility.yul\":10719:10794   */\n      tag_341\n        /* \"#utility.yul\":10790:10793   */\n      dup3\n        /* \"#utility.yul\":10781:10787   */\n      dup6\n        /* \"#utility.yul\":10719:10794   */\n      tag_268\n      jump\t// in\n    tag_341:\n        /* \"#utility.yul\":10819:10821   */\n      0x20\n        /* \"#utility.yul\":10814:10817   */\n      dup3\n        /* \"#utility.yul\":10810:10822   */\n      add\n        /* \"#utility.yul\":10803:10822   */\n      swap2\n      pop\n        /* \"#utility.yul\":10832:10907   */\n      tag_342\n        /* \"#utility.yul\":10903:10906   */\n      dup3\n        /* \"#utility.yul\":10894:10900   */\n      dup5\n        /* \"#utility.yul\":10832:10907   */\n      tag_268\n      jump\t// in\n    tag_342:\n        /* \"#utility.yul\":10932:10934   */\n      0x20\n        /* \"#utility.yul\":10927:10930   */\n      dup3\n        /* \"#utility.yul\":10923:10935   */\n      add\n        /* \"#utility.yul\":10916:10935   */\n      swap2\n      pop\n        /* \"#utility.yul\":10952:10955   */\n      dup2\n        /* \"#utility.yul\":10945:10955   */\n      swap1\n      pop\n        /* \"#utility.yul\":10298:10961   */\n      swap4\n      swap3\n      pop\n      pop\n      pop\n      jump\t// out\n        /* \"#utility.yul\":10967:11189   */\n    tag_17:\n        /* \"#utility.yul\":11060:11064   */\n      0x00\n        /* \"#utility.yul\":11098:11100   */\n      0x20\n        /* \"#utility.yul\":11087:11096   */\n      dup3\n        /* \"#utility.yul\":11083:11101   */\n      add\n        /* \"#utility.yul\":11075:11101   */\n      swap1\n      pop\n        /* \"#utility.yul\":11111:11182   */\n      tag_344\n        /* \"#utility.yul\":11179:11180   */\n      0x00\n        /* \"#utility.yul\":11168:11177   */\n      dup4\n        /* \"#utility.yul\":11164:11181   */\n      add\n        /* \"#utility.yul\":11155:11161   */\n      dup5\n        /* \"#utility.yul\":11111:11182   */\n      tag_260\n      jump\t// in\n    tag_344:\n        /* \"#utility.yul\":10967:11189   */\n      swap3\n      swap2\n      pop\n      pop\n      jump\t// out\n        /* \"#utility.yul\":11195:11748   */\n    tag_102:\n        /* \"#utility.yul\":11372:11376   */\n      0x00\n        /* \"#utility.yul\":11410:11413   */\n      0x80\n        /* \"#utility.yul\":11399:11408   */\n      dup3\n        /* \"#utility.yul\":11395:11414   */\n      add\n        /* \"#utility.yul\":11387:11414   */\n      swap1\n      pop\n        /* \"#utility.yul\":11424:11495   */\n      tag_346\n        /* \"#utility.yul\":11492:11493   */\n      0x00\n        /* \"#utility.yul\":11481:11490   */\n      dup4\n        /* \"#utility.yul\":11477:11494   */\n      add\n        /* \"#utility.yul\":11468:11474   */\n      dup8\n        /* \"#utility.yul\":11424:11495   */\n      tag_264\n      jump\t// in\n    tag_346:\n        /* \"#utility.yul\":11505:11577   */\n      tag_347\n        /* \"#utility.yul\":11573:11575   */\n      0x20\n        /* \"#utility.yul\":11562:11571   */\n      dup4\n        /* \"#utility.yul\":11558:11576   */\n      add\n        /* \"#utility.yul\":11549:11555   */\n      dup7\n        /* \"#utility.yul\":11505:11577   */\n      tag_264\n      jump\t// in\n    tag_347:\n        /* \"#utility.yul\":11587:11659   */\n      tag_348\n        /* \"#utility.yul\":11655:11657   */\n      0x40\n        /* \"#utility.yul\":11644:11653   */\n      dup4\n        /* \"#utility.yul\":11640:11658   */\n      add\n        /* \"#utility.yul\":11631:11637   */\n      dup6\n        /* \"#utility.yul\":11587:11659   */\n      tag_264\n      jump\t// in\n    tag_348:\n        /* \"#utility.yul\":11669:11741   */\n      tag_349\n        /* \"#utility.yul\":11737:11739   */\n      0x60\n        /* \"#utility.yul\":11726:11735   */\n      dup4\n        /* \"#utility.yul\":11722:11740   */\n      add\n        /* \"#utility.yul\":11713:11719   */\n      dup5\n        /* \"#utility.yul\":11669:11741   */\n      tag_260\n      jump\t// in\n    tag_349:\n        /* \"#utility.yul\":11195:11748   */\n      swap6\n      swap5\n      pop\n      pop\n      pop\n      pop\n      pop\n      jump\t// out\n        /* \"#utility.yul\":11754:12418   */\n    tag_169:\n        /* \"#utility.yul\":11959:11963   */\n      0x00\n        /* \"#utility.yul\":11997:12000   */\n      0xa0\n        /* \"#utility.yul\":11986:11995   */\n      dup3\n        /* \"#utility.yul\":11982:12001   */\n      add\n        /* \"#utility.yul\":11974:12001   */\n      swap1\n      pop\n        /* \"#utility.yul\":12011:12082   */\n      tag_351\n        /* \"#utility.yul\":12079:12080   */\n      0x00\n        /* \"#utility.yul\":12068:12077   */\n      dup4\n        /* \"#utility.yul\":12064:12081   */\n      add\n        /* \"#utility.yul\":12055:12061   */\n      dup9\n        /* \"#utility.yul\":12011:12082   */\n      tag_264\n      jump\t// in\n    tag_351:\n        /* \"#utility.yul\":12092:12164   */\n      tag_352\n        /* \"#utility.yul\":12160:12162   */\n      0x20\n        /* \"#utility.yul\":12149:12158   */\n      dup4\n        /* \"#utility.yul\":12145:12163   */\n      add\n        /* \"#utility.yul\":12136:12142   */\n      dup8\n        /* \"#utility.yul\":12092:12164   */\n      tag_264\n      jump\t// in\n    tag_352:\n        /* \"#utility.yul\":12174:12246   */\n      tag_353\n        /* \"#utility.yul\":12242:12244   */\n      0x40\n        /* \"#utility.yul\":12231:12240   */\n      dup4\n        /* \"#utility.yul\":12227:12245   */\n      add\n        /* \"#utility.yul\":12218:12224   */\n      dup7\n        /* \"#utility.yul\":12174:12246   */\n      tag_264\n      jump\t// in\n    tag_353:\n        /* \"#utility.yul\":12256:12328   */\n      tag_354\n        /* \"#utility.yul\":12324:12326   */\n      0x60\n        /* \"#utility.yul\":12313:12322   */\n      dup4\n        /* \"#utility.yul\":12309:12327   */\n      add\n        /* \"#utility.yul\":12300:12306   */\n      dup6\n        /* \"#utility.yul\":12256:12328   */\n      tag_329\n      jump\t// in\n    tag_354:\n        /* \"#utility.yul\":12338:12411   */\n      tag_355\n        /* \"#utility.yul\":12406:12409   */\n      0x80\n        /* \"#utility.yul\":12395:12404   */\n      dup4\n        /* \"#utility.yul\":12391:12410   */\n      add\n        /* \"#utility.yul\":12382:12388   */\n      dup5\n        /* \"#utility.yul\":12338:12411   */\n      tag_260\n      jump\t// in\n    tag_355:\n        /* \"#utility.yul\":11754:12418   */\n      swap7\n      swap6\n      pop\n      pop\n      pop\n      pop\n      pop\n      pop\n      jump\t// out\n        /* \"#utility.yul\":12424:12969   */\n    tag_163:\n        /* \"#utility.yul\":12597:12601   */\n      0x00\n        /* \"#utility.yul\":12635:12638   */\n      0x80\n        /* \"#utility.yul\":12624:12633   */\n      dup3\n        /* \"#utility.yul\":12620:12639   */\n      add\n        /* \"#utility.yul\":12612:12639   */\n      swap1\n      pop\n        /* \"#utility.yul\":12649:12720   */\n      tag_357\n        /* \"#utility.yul\":12717:12718   */\n      0x00\n        /* \"#utility.yul\":12706:12715   */\n      dup4\n        /* \"#utility.yul\":12702:12719   */\n      add\n        /* \"#utility.yul\":12693:12699   */\n      dup8\n        /* \"#utility.yul\":12649:12720   */\n      tag_264\n      jump\t// in\n    tag_357:\n        /* \"#utility.yul\":12730:12798   */\n      tag_358\n        /* \"#utility.yul\":12794:12796   */\n      0x20\n        /* \"#utility.yul\":12783:12792   */\n      dup4\n        /* \"#utility.yul\":12779:12797   */\n      add\n        /* \"#utility.yul\":12770:12776   */\n      dup7\n        /* \"#utility.yul\":12730:12798   */\n      tag_333\n      jump\t// in\n    tag_358:\n        /* \"#utility.yul\":12808:12880   */\n      tag_359\n        /* \"#utility.yul\":12876:12878   */\n      0x40\n        /* \"#utility.yul\":12865:12874   */\n      dup4\n        /* \"#utility.yul\":12861:12879   */\n      add\n        /* \"#utility.yul\":12852:12858   */\n      dup6\n        /* \"#utility.yul\":12808:12880   */\n      tag_264\n      jump\t// in\n    tag_359:\n        /* \"#utility.yul\":12890:12962   */\n      tag_360\n        /* \"#utility.yul\":12958:12960   */\n      0x60\n        /* \"#utility.yul\":12947:12956   */\n      dup4\n        /* \"#utility.yul\":12943:12961   */\n      add\n        /* \"#utility.yul\":12934:12940   */\n      dup5\n        /* \"#utility.yul\":12890:12962   */\n      tag_264\n      jump\t// in\n    tag_360:\n        /* \"#utility.yul\":12424:12969   */\n      swap6\n      swap5\n      pop\n      pop\n      pop\n      pop\n      pop\n      jump\t// out\n        /* \"#utility.yul\":12975:13288   */\n    tag_28:\n        /* \"#utility.yul\":13088:13092   */\n      0x00\n        /* \"#utility.yul\":13126:13128   */\n      0x20\n        /* \"#utility.yul\":13115:13124   */\n      dup3\n        /* \"#utility.yul\":13111:13129   */\n      add\n        /* \"#utility.yul\":13103:13129   */\n      swap1\n      pop\n        /* \"#utility.yul\":13175:13184   */\n      dup2\n        /* \"#utility.yul\":13169:13173   */\n      dup2\n        /* \"#utility.yul\":13165:13185   */\n      sub\n        /* \"#utility.yul\":13161:13162   */\n      0x00\n        /* \"#utility.yul\":13150:13159   */\n      dup4\n        /* \"#utility.yul\":13146:13163   */\n      add\n        /* \"#utility.yul\":13139:13186   */\n      mstore\n        /* \"#utility.yul\":13203:13281   */\n      tag_362\n        /* \"#utility.yul\":13276:13280   */\n      dup2\n        /* \"#utility.yul\":13267:13273   */\n      dup5\n        /* \"#utility.yul\":13203:13281   */\n      tag_273\n      jump\t// in\n    tag_362:\n        /* \"#utility.yul\":13195:13281   */\n      swap1\n      pop\n        /* \"#utility.yul\":12975:13288   */\n      swap3\n      swap2\n      pop\n      pop\n      jump\t// out\n        /* \"#utility.yul\":13294:13713   */\n    tag_134:\n        /* \"#utility.yul\":13460:13464   */\n      0x00\n        /* \"#utility.yul\":13498:13500   */\n      0x20\n        /* \"#utility.yul\":13487:13496   */\n      dup3\n        /* \"#utility.yul\":13483:13501   */\n      add\n        /* \"#utility.yul\":13475:13501   */\n      swap1\n      pop\n        /* \"#utility.yul\":13547:13556   */\n      dup2\n        /* \"#utility.yul\":13541:13545   */\n      dup2\n        /* \"#utility.yul\":13537:13557   */\n      sub\n        /* \"#utility.yul\":13533:13534   */\n      0x00\n        /* \"#utility.yul\":13522:13531   */\n      dup4\n        /* \"#utility.yul\":13518:13535   */\n      add\n        /* \"#utility.yul\":13511:13558   */\n      mstore\n        /* \"#utility.yul\":13575:13706   */\n      tag_364\n        /* \"#utility.yul\":13701:13705   */\n      dup2\n        /* \"#utility.yul\":13575:13706   */\n      tag_289\n      jump\t// in\n    tag_364:\n        /* \"#utility.yul\":13567:13706   */\n      swap1\n      pop\n        /* \"#utility.yul\":13294:13713   */\n      swap2\n      swap1\n      pop\n      jump\t// out\n        /* \"#utility.yul\":13719:14138   */\n    tag_142:\n        /* \"#utility.yul\":13885:13889   */\n      0x00\n        /* \"#utility.yul\":13923:13925   */\n      0x20\n        /* \"#utility.yul\":13912:13921   */\n      dup3\n        /* \"#utility.yul\":13908:13926   */\n      add\n        /* \"#utility.yul\":13900:13926   */\n      swap1\n      pop\n        /* \"#utility.yul\":13972:13981   */\n      dup2\n        /* \"#utility.yul\":13966:13970   */\n      dup2\n        /* \"#utility.yul\":13962:13982   */\n      sub\n        /* \"#utility.yul\":13958:13959   */\n      0x00\n        /* \"#utility.yul\":13947:13956   */\n      dup4\n        /* \"#utility.yul\":13943:13960   */\n      add\n        /* \"#utility.yul\":13936:13983   */\n      mstore\n        /* \"#utility.yul\":14000:14131   */\n      tag_366\n        /* \"#utility.yul\":14126:14130   */\n      dup2\n        /* \"#utility.yul\":14000:14131   */\n      tag_294\n      jump\t// in\n    tag_366:\n        /* \"#utility.yul\":13992:14131   */\n      swap1\n      pop\n        /* \"#utility.yul\":13719:14138   */\n      swap2\n      swap1\n      pop\n      jump\t// out\n        /* \"#utility.yul\":14144:14563   */\n    tag_64:\n        /* \"#utility.yul\":14310:14314   */\n      0x00\n        /* \"#utility.yul\":14348:14350   */\n      0x20\n        /* \"#utility.yul\":14337:14346   */\n      dup3\n        /* \"#utility.yul\":14333:14351   */\n      add\n        /* \"#utility.yul\":14325:14351   */\n      swap1\n      pop\n        /* \"#utility.yul\":14397:14406   */\n      dup2\n        /* \"#utility.yul\":14391:14395   */\n      dup2\n        /* \"#utility.yul\":14387:14407   */\n      sub\n        /* \"#utility.yul\":14383:14384   */\n      0x00\n        /* \"#utility.yul\":14372:14381   */\n      dup4\n        /* \"#utility.yul\":14368:14385   */\n      add\n        /* \"#utility.yul\":14361:14408   */\n      mstore\n        /* \"#utility.yul\":14425:14556   */\n      tag_368\n        /* \"#utility.yul\":14551:14555   */\n      dup2\n        /* \"#utility.yul\":14425:14556   */\n      tag_299\n      jump\t// in\n    tag_368:\n        /* \"#utility.yul\":14417:14556   */\n      swap1\n      pop\n        /* \"#utility.yul\":14144:14563   */\n      swap2\n      swap1\n      pop\n      jump\t// out\n        /* \"#utility.yul\":14569:14988   */\n    tag_70:\n        /* \"#utility.yul\":14735:14739   */\n      0x00\n        /* \"#utility.yul\":14773:14775   */\n      0x20\n        /* \"#utility.yul\":14762:14771   */\n      dup3\n        /* \"#utility.yul\":14758:14776   */\n      add\n        /* \"#utility.yul\":14750:14776   */\n      swap1\n      pop\n        /* \"#utility.yul\":14822:14831   */\n      dup2\n        /* \"#utility.yul\":14816:14820   */\n      dup2\n        /* \"#utility.yul\":14812:14832   */\n      sub\n        /* \"#utility.yul\":14808:14809   */\n      0x00\n        /* \"#utility.yul\":14797:14806   */\n      dup4\n        /* \"#utility.yul\":14793:14810   */\n      add\n        /* \"#utility.yul\":14786:14833   */\n      mstore\n        /* \"#utility.yul\":14850:14981   */\n      tag_370\n        /* \"#utility.yul\":14976:14980   */\n      dup2\n        /* \"#utility.yul\":14850:14981   */\n      tag_304\n      jump\t// in\n    tag_370:\n        /* \"#utility.yul\":14842:14981   */\n      swap1\n      pop\n        /* \"#utility.yul\":14569:14988   */\n      swap2\n      swap1\n      pop\n      jump\t// out\n        /* \"#utility.yul\":14994:15413   */\n    tag_84:\n        /* \"#utility.yul\":15160:15164   */\n      0x00\n        /* \"#utility.yul\":15198:15200   */\n      0x20\n        /* \"#utility.yul\":15187:15196   */\n      dup3\n        /* \"#utility.yul\":15183:15201   */\n      add\n        /* \"#utility.yul\":15175:15201   */\n      swap1\n      pop\n        /* \"#utility.yul\":15247:15256   */\n      dup2\n        /* \"#utility.yul\":15241:15245   */\n      dup2\n        /* \"#utility.yul\":15237:15257   */\n      sub\n        /* \"#utility.yul\":15233:15234   */\n      0x00\n        /* \"#utility.yul\":15222:15231   */\n      dup4\n        /* \"#utility.yul\":15218:15235   */\n      add\n        /* \"#utility.yul\":15211:15258   */\n      mstore\n        /* \"#utility.yul\":15275:15406   */\n      tag_372\n        /* \"#utility.yul\":15401:15405   */\n      dup2\n        /* \"#utility.yul\":15275:15406   */\n      tag_309\n      jump\t// in\n    tag_372:\n        /* \"#utility.yul\":15267:15406   */\n      swap1\n      pop\n        /* \"#utility.yul\":14994:15413   */\n      swap2\n      swap1\n      pop\n      jump\t// out\n        /* \"#utility.yul\":15419:15838   */\n    tag_150:\n        /* \"#utility.yul\":15585:15589   */\n      0x00\n        /* \"#utility.yul\":15623:15625   */\n      0x20\n        /* \"#utility.yul\":15612:15621   */\n      dup3\n        /* \"#utility.yul\":15608:15626   */\n      add\n        /* \"#utility.yul\":15600:15626   */\n      swap1\n      pop\n        /* \"#utility.yul\":15672:15681   */\n      dup2\n        /* \"#utility.yul\":15666:15670   */\n      dup2\n        /* \"#utility.yul\":15662:15682   */\n      sub\n        /* \"#utility.yul\":15658:15659   */\n      0x00\n        /* \"#utility.yul\":15647:15656   */\n      dup4\n        /* \"#utility.yul\":15643:15660   */\n      add\n        /* \"#utility.yul\":15636:15683   */\n      mstore\n        /* \"#utility.yul\":15700:15831   */\n      tag_374\n        /* \"#utility.yul\":15826:15830   */\n      dup2\n        /* \"#utility.yul\":15700:15831   */\n      tag_319\n      jump\t// in\n    tag_374:\n        /* \"#utility.yul\":15692:15831   */\n      swap1\n      pop\n        /* \"#utility.yul\":15419:15838   */\n      swap2\n      swap1\n      pop\n      jump\t// out\n        /* \"#utility.yul\":15844:16263   */\n    tag_97:\n        /* \"#utility.yul\":16010:16014   */\n      0x00\n        /* \"#utility.yul\":16048:16050   */\n      0x20\n        /* \"#utility.yul\":16037:16046   */\n      dup3\n        /* \"#utility.yul\":16033:16051   */\n      add\n        /* \"#utility.yul\":16025:16051   */\n      swap1\n      pop\n        /* \"#utility.yul\":16097:16106   */\n      dup2\n        /* \"#utility.yul\":16091:16095   */\n      dup2\n        /* \"#utility.yul\":16087:16107   */\n      sub\n        /* \"#utility.yul\":16083:16084   */\n      0x00\n        /* \"#utility.yul\":16072:16081   */\n      dup4\n        /* \"#utility.yul\":16068:16085   */\n      add\n        /* \"#utility.yul\":16061:16108   */\n      mstore\n        /* \"#utility.yul\":16125:16256   */\n      tag_376\n        /* \"#utility.yul\":16251:16255   */\n      dup2\n        /* \"#utility.yul\":16125:16256   */\n      tag_324\n      jump\t// in\n    tag_376:\n        /* \"#utility.yul\":16117:16256   */\n      swap1\n      pop\n        /* \"#utility.yul\":15844:16263   */\n      swap2\n      swap1\n      pop\n      jump\t// out\n        /* \"#utility.yul\":16269:16398   */\n    tag_186:\n        /* \"#utility.yul\":16303:16309   */\n      0x00\n        /* \"#utility.yul\":16330:16350   */\n      tag_378\n      tag_379\n      jump\t// in\n    tag_378:\n        /* \"#utility.yul\":16320:16350   */\n      swap1\n      pop\n        /* \"#utility.yul\":16359:16392   */\n      tag_380\n        /* \"#utility.yul\":16387:16391   */\n      dup3\n        /* \"#utility.yul\":16379:16385   */\n      dup3\n        /* \"#utility.yul\":16359:16392   */\n      tag_381\n      jump\t// in\n    tag_380:\n        /* \"#utility.yul\":16269:16398   */\n      swap2\n      swap1\n      pop\n      jump\t// out\n        /* \"#utility.yul\":16404:16479   */\n    tag_379:\n        /* \"#utility.yul\":16437:16443   */\n      0x00\n        /* \"#utility.yul\":16470:16472   */\n      0x40\n        /* \"#utility.yul\":16464:16473   */\n      mload\n        /* \"#utility.yul\":16454:16473   */\n      swap1\n      pop\n        /* \"#utility.yul\":16404:16479   */\n      swap1\n      jump\t// out\n        /* \"#utility.yul\":16485:16792   */\n    tag_185:\n        /* \"#utility.yul\":16546:16550   */\n      0x00\n        /* \"#utility.yul\":16636:16654   */\n      0xffffffffffffffff\n        /* \"#utility.yul\":16628:16634   */\n      dup3\n        /* \"#utility.yul\":16625:16655   */\n      gt\n        /* \"#utility.yul\":16622:16678   */\n      iszero\n      tag_384\n      jumpi\n        /* \"#utility.yul\":16658:16676   */\n      tag_385\n      tag_386\n      jump\t// in\n    tag_385:\n        /* \"#utility.yul\":16622:16678   */\n    tag_384:\n        /* \"#utility.yul\":16696:16725   */\n      tag_387\n        /* \"#utility.yul\":16718:16724   */\n      dup3\n        /* \"#utility.yul\":16696:16725   */\n      tag_282\n      jump\t// in\n    tag_387:\n        /* \"#utility.yul\":16688:16725   */\n      swap1\n      pop\n        /* \"#utility.yul\":16780:16784   */\n      0x20\n        /* \"#utility.yul\":16774:16778   */\n      dup2\n        /* \"#utility.yul\":16770:16785   */\n      add\n        /* \"#utility.yul\":16762:16785   */\n      swap1\n      pop\n        /* \"#utility.yul\":16485:16792   */\n      swap2\n      swap1\n      pop\n      jump\t// out\n        /* \"#utility.yul\":16798:17106   */\n    tag_196:\n        /* \"#utility.yul\":16860:16864   */\n      0x00\n        /* \"#utility.yul\":16950:16968   */\n      0xffffffffffffffff\n        /* \"#utility.yul\":16942:16948   */\n      dup3\n        /* \"#utility.yul\":16939:16969   */\n      gt\n        /* \"#utility.yul\":16936:16992   */\n      iszero\n      tag_389\n      jumpi\n        /* \"#utility.yul\":16972:16990   */\n      tag_390\n      tag_386\n      jump\t// in\n    tag_390:\n        /* \"#utility.yul\":16936:16992   */\n    tag_389:\n        /* \"#utility.yul\":17010:17039   */\n      tag_391\n        /* \"#utility.yul\":17032:17038   */\n      dup3\n        /* \"#utility.yul\":17010:17039   */\n      tag_282\n      jump\t// in\n    tag_391:\n        /* \"#utility.yul\":17002:17039   */\n      swap1\n      pop\n        /* \"#utility.yul\":17094:17098   */\n      0x20\n        /* \"#utility.yul\":17088:17092   */\n      dup2\n        /* \"#utility.yul\":17084:17099   */\n      add\n        /* \"#utility.yul\":17076:17099   */\n      swap1\n      pop\n        /* \"#utility.yul\":16798:17106   */\n      swap2\n      swap1\n      pop\n      jump\t// out\n        /* \"#utility.yul\":17112:17211   */\n    tag_276:\n        /* \"#utility.yul\":17164:17170   */\n      0x00\n        /* \"#utility.yul\":17198:17203   */\n      dup2\n        /* \"#utility.yul\":17192:17204   */\n      mload\n        /* \"#utility.yul\":17182:17204   */\n      swap1\n      pop\n        /* \"#utility.yul\":17112:17211   */\n      swap2\n      swap1\n      pop\n      jump\t// out\n        /* \"#utility.yul\":17217:17386   */\n    tag_278:\n        /* \"#utility.yul\":17301:17312   */\n      0x00\n        /* \"#utility.yul\":17335:17341   */\n      dup3\n        /* \"#utility.yul\":17330:17333   */\n      dup3\n        /* \"#utility.yul\":17323:17342   */\n      mstore\n        /* \"#utility.yul\":17375:17379   */\n      0x20\n        /* \"#utility.yul\":17370:17373   */\n      dup3\n        /* \"#utility.yul\":17366:17380   */\n      add\n        /* \"#utility.yul\":17351:17380   */\n      swap1\n      pop\n        /* \"#utility.yul\":17217:17386   */\n      swap3\n      swap2\n      pop\n      pop\n      jump\t// out\n        /* \"#utility.yul\":17392:17540   */\n    tag_287:\n        /* \"#utility.yul\":17494:17505   */\n      0x00\n        /* \"#utility.yul\":17531:17534   */\n      dup2\n        /* \"#utility.yul\":17516:17534   */\n      swap1\n      pop\n        /* \"#utility.yul\":17392:17540   */\n      swap3\n      swap2\n      pop\n      pop\n      jump\t// out\n        /* \"#utility.yul\":17546:17642   */\n    tag_263:\n        /* \"#utility.yul\":17583:17590   */\n      0x00\n        /* \"#utility.yul\":17612:17636   */\n      tag_396\n        /* \"#utility.yul\":17630:17635   */\n      dup3\n        /* \"#utility.yul\":17612:17636   */\n      tag_397\n      jump\t// in\n    tag_396:\n        /* \"#utility.yul\":17601:17636   */\n      swap1\n      pop\n        /* \"#utility.yul\":17546:17642   */\n      swap2\n      swap1\n      pop\n      jump\t// out\n        /* \"#utility.yul\":17648:17725   */\n    tag_267:\n        /* \"#utility.yul\":17685:17692   */\n      0x00\n        /* \"#utility.yul\":17714:17719   */\n      dup2\n        /* \"#utility.yul\":17703:17719   */\n      swap1\n      pop\n        /* \"#utility.yul\":17648:17725   */\n      swap2\n      swap1\n      pop\n      jump\t// out\n        /* \"#utility.yul\":17731:17857   */\n    tag_397:\n        /* \"#utility.yul\":17768:17775   */\n      0x00\n        /* \"#utility.yul\":17808:17850   */\n      0xffffffffffffffffffffffffffffffffffffffff\n        /* \"#utility.yul\":17801:17806   */\n      dup3\n        /* \"#utility.yul\":17797:17851   */\n      and\n        /* \"#utility.yul\":17786:17851   */\n      swap1\n      pop\n        /* \"#utility.yul\":17731:17857   */\n      swap2\n      swap1\n      pop\n      jump\t// out\n        /* \"#utility.yul\":17863:17940   */\n    tag_332:\n        /* \"#utility.yul\":17900:17907   */\n      0x00\n        /* \"#utility.yul\":17929:17934   */\n      dup2\n        /* \"#utility.yul\":17918:17934   */\n      swap1\n      pop\n        /* \"#utility.yul\":17863:17940   */\n      swap2\n      swap1\n      pop\n      jump\t// out\n        /* \"#utility.yul\":17946:18032   */\n    tag_336:\n        /* \"#utility.yul\":17981:17988   */\n      0x00\n        /* \"#utility.yul\":18021:18025   */\n      0xff\n        /* \"#utility.yul\":18014:18019   */\n      dup3\n        /* \"#utility.yul\":18010:18026   */\n      and\n        /* \"#utility.yul\":17999:18026   */\n      swap1\n      pop\n        /* \"#utility.yul\":17946:18032   */\n      swap2\n      swap1\n      pop\n      jump\t// out\n        /* \"#utility.yul\":18038:18192   */\n    tag_191:\n        /* \"#utility.yul\":18122:18128   */\n      dup3\n        /* \"#utility.yul\":18117:18120   */\n      dup2\n        /* \"#utility.yul\":18112:18115   */\n      dup4\n        /* \"#utility.yul\":18099:18129   */\n      calldatacopy\n        /* \"#utility.yul\":18184:18185   */\n      0x00\n        /* \"#utility.yul\":18175:18181   */\n      dup4\n        /* \"#utility.yul\":18170:18173   */\n      dup4\n        /* \"#utility.yul\":18166:18182   */\n      add\n        /* \"#utility.yul\":18159:18186   */\n      mstore\n        /* \"#utility.yul\":18038:18192   */\n      pop\n      pop\n      pop\n      jump\t// out\n        /* \"#utility.yul\":18198:18505   */\n    tag_280:\n        /* \"#utility.yul\":18266:18267   */\n      0x00\n        /* \"#utility.yul\":18276:18389   */\n    tag_404:\n        /* \"#utility.yul\":18290:18296   */\n      dup4\n        /* \"#utility.yul\":18287:18288   */\n      dup2\n        /* \"#utility.yul\":18284:18297   */\n      lt\n        /* \"#utility.yul\":18276:18389   */\n      iszero\n      tag_406\n      jumpi\n        /* \"#utility.yul\":18375:18376   */\n      dup1\n        /* \"#utility.yul\":18370:18373   */\n      dup3\n        /* \"#utility.yul\":18366:18377   */\n      add\n        /* \"#utility.yul\":18360:18378   */\n      mload\n        /* \"#utility.yul\":18356:18357   */\n      dup2\n        /* \"#utility.yul\":18351:18354   */\n      dup5\n        /* \"#utility.yul\":18347:18358   */\n      add\n        /* \"#utility.yul\":18340:18379   */\n      mstore\n        /* \"#utility.yul\":18312:18314   */\n      0x20\n        /* \"#utility.yul\":18309:18310   */\n      dup2\n        /* \"#utility.yul\":18305:18315   */\n      add\n        /* \"#utility.yul\":18300:18315   */\n      swap1\n      pop\n        /* \"#utility.yul\":18276:18389   */\n      jump(tag_404)\n    tag_406:\n        /* \"#utility.yul\":18407:18413   */\n      dup4\n        /* \"#utility.yul\":18404:18405   */\n      dup2\n        /* \"#utility.yul\":18401:18414   */\n      gt\n        /* \"#utility.yul\":18398:18499   */\n      iszero\n      tag_407\n      jumpi\n        /* \"#utility.yul\":18487:18488   */\n      0x00\n        /* \"#utility.yul\":18478:18484   */\n      dup5\n        /* \"#utility.yul\":18473:18476   */\n      dup5\n        /* \"#utility.yul\":18469:18485   */\n      add\n        /* \"#utility.yul\":18462:18489   */\n      mstore\n        /* \"#utility.yul\":18398:18499   */\n    tag_407:\n        /* \"#utility.yul\":18247:18505   */\n      pop\n        /* \"#utility.yul\":18198:18505   */\n      pop\n      pop\n      pop\n      jump\t// out\n        /* \"#utility.yul\":18511:18831   */\n    tag_48:\n        /* \"#utility.yul\":18555:18561   */\n      0x00\n        /* \"#utility.yul\":18592:18593   */\n      0x02\n        /* \"#utility.yul\":18586:18590   */\n      dup3\n        /* \"#utility.yul\":18582:18594   */\n      div\n        /* \"#utility.yul\":18572:18594   */\n      swap1\n      pop\n        /* \"#utility.yul\":18639:18640   */\n      0x01\n        /* \"#utility.yul\":18633:18637   */\n      dup3\n        /* \"#utility.yul\":18629:18641   */\n      and\n        /* \"#utility.yul\":18660:18678   */\n      dup1\n        /* \"#utility.yul\":18650:18731   */\n      tag_409\n      jumpi\n        /* \"#utility.yul\":18716:18720   */\n      0x7f\n        /* \"#utility.yul\":18708:18714   */\n      dup3\n        /* \"#utility.yul\":18704:18721   */\n      and\n        /* \"#utility.yul\":18694:18721   */\n      swap2\n      pop\n        /* \"#utility.yul\":18650:18731   */\n    tag_409:\n        /* \"#utility.yul\":18778:18780   */\n      0x20\n        /* \"#utility.yul\":18770:18776   */\n      dup3\n        /* \"#utility.yul\":18767:18781   */\n      lt\n        /* \"#utility.yul\":18747:18765   */\n      dup2\n        /* \"#utility.yul\":18744:18782   */\n      eq\n        /* \"#utility.yul\":18741:18825   */\n      iszero\n      tag_410\n      jumpi\n        /* \"#utility.yul\":18797:18815   */\n      tag_411\n      tag_412\n      jump\t// in\n    tag_411:\n        /* \"#utility.yul\":18741:18825   */\n    tag_410:\n        /* \"#utility.yul\":18562:18831   */\n      pop\n        /* \"#utility.yul\":18511:18831   */\n      swap2\n      swap1\n      pop\n      jump\t// out\n        /* \"#utility.yul\":18837:19118   */\n    tag_381:\n        /* \"#utility.yul\":18920:18947   */\n      tag_414\n        /* \"#utility.yul\":18942:18946   */\n      dup3\n        /* \"#utility.yul\":18920:18947   */\n      tag_282\n      jump\t// in\n    tag_414:\n        /* \"#utility.yul\":18912:18918   */\n      dup2\n        /* \"#utility.yul\":18908:18948   */\n      add\n        /* \"#utility.yul\":19050:19056   */\n      dup2\n        /* \"#utility.yul\":19038:19048   */\n      dup2\n        /* \"#utility.yul\":19035:19057   */\n      lt\n        /* \"#utility.yul\":19014:19032   */\n      0xffffffffffffffff\n        /* \"#utility.yul\":19002:19012   */\n      dup3\n        /* \"#utility.yul\":18999:19033   */\n      gt\n        /* \"#utility.yul\":18996:19058   */\n      or\n        /* \"#utility.yul\":18993:19081   */\n      iszero\n      tag_415\n      jumpi\n        /* \"#utility.yul\":19061:19079   */\n      tag_416\n      tag_386\n      jump\t// in\n    tag_416:\n        /* \"#utility.yul\":18993:19081   */\n    tag_415:\n        /* \"#utility.yul\":19101:19111   */\n      dup1\n        /* \"#utility.yul\":19097:19099   */\n      0x40\n        /* \"#utility.yul\":19090:19112   */\n      mstore\n        /* \"#utility.yul\":18880:19118   */\n      pop\n        /* \"#utility.yul\":18837:19118   */\n      pop\n      pop\n      jump\t// out\n        /* \"#utility.yul\":19124:19203   */\n    tag_272:\n        /* \"#utility.yul\":19163:19170   */\n      0x00\n        /* \"#utility.yul\":19192:19197   */\n      dup2\n        /* \"#utility.yul\":19181:19197   */\n      swap1\n      pop\n        /* \"#utility.yul\":19124:19203   */\n      swap2\n      swap1\n      pop\n      jump\t// out\n        /* \"#utility.yul\":19209:19389   */\n    tag_123:\n        /* \"#utility.yul\":19257:19334   */\n      0x4e487b7100000000000000000000000000000000000000000000000000000000\n        /* \"#utility.yul\":19254:19255   */\n      0x00\n        /* \"#utility.yul\":19247:19335   */\n      mstore\n        /* \"#utility.yul\":19354:19358   */\n      0x21\n        /* \"#utility.yul\":19351:19352   */\n      0x04\n        /* \"#utility.yul\":19344:19359   */\n      mstore\n        /* \"#utility.yul\":19378:19382   */\n      0x24\n        /* \"#utility.yul\":19375:19376   */\n      0x00\n        /* \"#utility.yul\":19368:19383   */\n      revert\n        /* \"#utility.yul\":19395:19575   */\n    tag_412:\n        /* \"#utility.yul\":19443:19520   */\n      0x4e487b7100000000000000000000000000000000000000000000000000000000\n        /* \"#utility.yul\":19440:19441   */\n      0x00\n        /* \"#utility.yul\":19433:19521   */\n      mstore\n        /* \"#utility.yul\":19540:19544   */\n      0x22\n        /* \"#utility.yul\":19537:19538   */\n      0x04\n        /* \"#utility.yul\":19530:19545   */\n      mstore\n        /* \"#utility.yul\":19564:19568   */\n      0x24\n        /* \"#utility.yul\":19561:19562   */\n      0x00\n        /* \"#utility.yul\":19554:19569   */\n      revert\n        /* \"#utility.yul\":19581:19761   */\n    tag_386:\n        /* \"#utility.yul\":19629:19706   */\n      0x4e487b7100000000000000000000000000000000000000000000000000000000\n        /* \"#utility.yul\":19626:19627   */\n      0x00\n        /* \"#utility.yul\":19619:19707   */\n      mstore\n        /* \"#utility.yul\":19726:19730   */\n      0x41\n        /* \"#utility.yul\":19723:19724   */\n      0x04\n        /* \"#utility.yul\":19716:19731   */\n      mstore\n        /* \"#utility.yul\":19750:19754   */\n      0x24\n        /* \"#utility.yul\":19747:19748   */\n      0x00\n        /* \"#utility.yul\":19740:19755   */\n      revert\n        /* \"#utility.yul\":19767:19884   */\n    tag_208:\n        /* \"#utility.yul\":19876:19877   */\n      0x00\n        /* \"#utility.yul\":19873:19874   */\n      dup1\n        /* \"#utility.yul\":19866:19878   */\n      revert\n        /* \"#utility.yul\":19890:20007   */\n    tag_219:\n        /* \"#utility.yul\":19999:20000   */\n      0x00\n        /* \"#utility.yul\":19996:19997   */\n      dup1\n        /* \"#utility.yul\":19989:20001   */\n      revert\n        /* \"#utility.yul\":20013:20130   */\n    tag_223:\n        /* \"#utility.yul\":20122:20123   */\n      0x00\n        /* \"#utility.yul\":20119:20120   */\n      dup1\n        /* \"#utility.yul\":20112:20124   */\n      revert\n        /* \"#utility.yul\":20136:20253   */\n    tag_189:\n        /* \"#utility.yul\":20245:20246   */\n      0x00\n        /* \"#utility.yul\":20242:20243   */\n      dup1\n        /* \"#utility.yul\":20235:20247   */\n      revert\n        /* \"#utility.yul\":20259:20376   */\n    tag_243:\n        /* \"#utility.yul\":20368:20369   */\n      0x00\n        /* \"#utility.yul\":20365:20366   */\n      dup1\n        /* \"#utility.yul\":20358:20370   */\n      revert\n        /* \"#utility.yul\":20382:20499   */\n    tag_235:\n        /* \"#utility.yul\":20491:20492   */\n      0x00\n        /* \"#utility.yul\":20488:20489   */\n      dup1\n        /* \"#utility.yul\":20481:20493   */\n      revert\n        /* \"#utility.yul\":20505:20607   */\n    tag_282:\n        /* \"#utility.yul\":20546:20552   */\n      0x00\n        /* \"#utility.yul\":20597:20599   */\n      0x1f\n        /* \"#utility.yul\":20593:20600   */\n      not\n        /* \"#utility.yul\":20588:20590   */\n      0x1f\n        /* \"#utility.yul\":20581:20586   */\n      dup4\n        /* \"#utility.yul\":20577:20591   */\n      add\n        /* \"#utility.yul\":20573:20601   */\n      and\n        /* \"#utility.yul\":20563:20601   */\n      swap1\n      pop\n        /* \"#utility.yul\":20505:20607   */\n      swap2\n      swap1\n      pop\n      jump\t// out\n        /* \"#utility.yul\":20613:20787   */\n    tag_293:\n        /* \"#utility.yul\":20753:20779   */\n      0x45434453413a20696e76616c6964207369676e61747572650000000000000000\n        /* \"#utility.yul\":20749:20750   */\n      0x00\n        /* \"#utility.yul\":20741:20747   */\n      dup3\n        /* \"#utility.yul\":20737:20751   */\n      add\n        /* \"#utility.yul\":20730:20780   */\n      mstore\n        /* \"#utility.yul\":20613:20787   */\n      pop\n      jump\t// out\n        /* \"#utility.yul\":20793:20974   */\n    tag_298:\n        /* \"#utility.yul\":20933:20966   */\n      0x45434453413a20696e76616c6964207369676e6174757265206c656e67746800\n        /* \"#utility.yul\":20929:20930   */\n      0x00\n        /* \"#utility.yul\":20921:20927   */\n      dup3\n        /* \"#utility.yul\":20917:20931   */\n      add\n        /* \"#utility.yul\":20910:20967   */\n      mstore\n        /* \"#utility.yul\":20793:20974   */\n      pop\n      jump\t// out\n        /* \"#utility.yul\":20980:21218   */\n    tag_303:\n        /* \"#utility.yul\":21120:21154   */\n      0x496e636f72726563746c79207369676e6564206461746120736f757263652076\n        /* \"#utility.yul\":21116:21117   */\n      0x00\n        /* \"#utility.yul\":21108:21114   */\n      dup3\n        /* \"#utility.yul\":21104:21118   */\n      add\n        /* \"#utility.yul\":21097:21155   */\n      mstore\n        /* \"#utility.yul\":21189:21210   */\n      0x6572696669636174696f6e207265717565737400000000000000000000000000\n        /* \"#utility.yul\":21184:21186   */\n      0x20\n        /* \"#utility.yul\":21176:21182   */\n      dup3\n        /* \"#utility.yul\":21172:21187   */\n      add\n        /* \"#utility.yul\":21165:21211   */\n      mstore\n        /* \"#utility.yul\":20980:21218   */\n      pop\n      jump\t// out\n        /* \"#utility.yul\":21224:21402   */\n    tag_308:\n        /* \"#utility.yul\":21364:21394   */\n      0x4461746120536f7572636520416c726561647920566572696669656400000000\n        /* \"#utility.yul\":21360:21361   */\n      0x00\n        /* \"#utility.yul\":21352:21358   */\n      dup3\n        /* \"#utility.yul\":21348:21362   */\n      add\n        /* \"#utility.yul\":21341:21395   */\n      mstore\n        /* \"#utility.yul\":21224:21402   */\n      pop\n      jump\t// out\n        /* \"#utility.yul\":21408:21633   */\n    tag_313:\n        /* \"#utility.yul\":21548:21582   */\n      0x4f776e61626c653a206e6577206f776e657220697320746865207a65726f2061\n        /* \"#utility.yul\":21544:21545   */\n      0x00\n        /* \"#utility.yul\":21536:21542   */\n      dup3\n        /* \"#utility.yul\":21532:21546   */\n      add\n        /* \"#utility.yul\":21525:21583   */\n      mstore\n        /* \"#utility.yul\":21617:21625   */\n      0x6464726573730000000000000000000000000000000000000000000000000000\n        /* \"#utility.yul\":21612:21614   */\n      0x20\n        /* \"#utility.yul\":21604:21610   */\n      dup3\n        /* \"#utility.yul\":21600:21615   */\n      add\n        /* \"#utility.yul\":21593:21626   */\n      mstore\n        /* \"#utility.yul\":21408:21633   */\n      pop\n      jump\t// out\n        /* \"#utility.yul\":21639:21853   */\n    tag_318:\n        /* \"#utility.yul\":21779:21845   */\n      0x1901000000000000000000000000000000000000000000000000000000000000\n        /* \"#utility.yul\":21775:21776   */\n      0x00\n        /* \"#utility.yul\":21767:21773   */\n      dup3\n        /* \"#utility.yul\":21763:21777   */\n      add\n        /* \"#utility.yul\":21756:21846   */\n      mstore\n        /* \"#utility.yul\":21639:21853   */\n      pop\n      jump\t// out\n        /* \"#utility.yul\":21859:22080   */\n    tag_323:\n        /* \"#utility.yul\":21999:22033   */\n      0x45434453413a20696e76616c6964207369676e6174757265202773272076616c\n        /* \"#utility.yul\":21995:21996   */\n      0x00\n        /* \"#utility.yul\":21987:21993   */\n      dup3\n        /* \"#utility.yul\":21983:21997   */\n      add\n        /* \"#utility.yul\":21976:22034   */\n      mstore\n        /* \"#utility.yul\":22068:22072   */\n      0x7565000000000000000000000000000000000000000000000000000000000000\n        /* \"#utility.yul\":22063:22065   */\n      0x20\n        /* \"#utility.yul\":22055:22061   */\n      dup3\n        /* \"#utility.yul\":22051:22066   */\n      add\n        /* \"#utility.yul\":22044:22073   */\n      mstore\n        /* \"#utility.yul\":21859:22080   */\n      pop\n      jump\t// out\n        /* \"#utility.yul\":22086:22268   */\n    tag_328:\n        /* \"#utility.yul\":22226:22260   */\n      0x4f776e61626c653a2063616c6c6572206973206e6f7420746865206f776e6572\n        /* \"#utility.yul\":22222:22223   */\n      0x00\n        /* \"#utility.yul\":22214:22220   */\n      dup3\n        /* \"#utility.yul\":22210:22224   */\n      add\n        /* \"#utility.yul\":22203:22261   */\n      mstore\n        /* \"#utility.yul\":22086:22268   */\n      pop\n      jump\t// out\n        /* \"#utility.yul\":22274:22396   */\n    tag_203:\n        /* \"#utility.yul\":22347:22371   */\n      tag_437\n        /* \"#utility.yul\":22365:22370   */\n      dup2\n        /* \"#utility.yul\":22347:22371   */\n      tag_263\n      jump\t// in\n    tag_437:\n        /* \"#utility.yul\":22340:22345   */\n      dup2\n        /* \"#utility.yul\":22337:22372   */\n      eq\n        /* \"#utility.yul\":22327:22390   */\n      tag_438\n      jumpi\n        /* \"#utility.yul\":22386:22387   */\n      0x00\n        /* \"#utility.yul\":22383:22384   */\n      dup1\n        /* \"#utility.yul\":22376:22388   */\n      revert\n        /* \"#utility.yul\":22327:22390   */\n    tag_438:\n        /* \"#utility.yul\":22274:22396   */\n      pop\n      jump\t// out\n\n    auxdata: 0xa26469706673582212203fc8936cfa661b83a5a89ef600029e4c028c41050c663f358a0c05c1c789c63a64736f6c63430008070033\n}\n",
				"bytecode": {
					"linkReferences": {},
					"object": "6101406040523480156200001257600080fd5b506040518060400160405280600c81526020017f6a6f75726e616c332e636f6d00000000000000000000000000000000000000008152506040518060400160405280600181526020017f31000000000000000000000000000000000000000000000000000000000000008152508181620000a1620000956200019f60201b60201c565b620001a760201b60201c565b60008280519060200120905060008280519060200120905060007f8b73c3c69bb8fe3d512ecc4cf759cc79239f7b179b0ffacaa9a75d522b39400f90508260e081815250508161010081815250504660a081815250506200010a8184846200026b60201b60201c565b608081815250503073ffffffffffffffffffffffffffffffffffffffff1660c08173ffffffffffffffffffffffffffffffffffffffff1660601b815250508061012081815250505050505050505033600360006101000a81548173ffffffffffffffffffffffffffffffffffffffff021916908373ffffffffffffffffffffffffffffffffffffffff1602179055506200037f565b600033905090565b60008060009054906101000a900473ffffffffffffffffffffffffffffffffffffffff169050816000806101000a81548173ffffffffffffffffffffffffffffffffffffffff021916908373ffffffffffffffffffffffffffffffffffffffff1602179055508173ffffffffffffffffffffffffffffffffffffffff168173ffffffffffffffffffffffffffffffffffffffff167f8be0079c531659141344cd1fd0a4f28419497f9722a3daafe3b4186f6b6457e060405160405180910390a35050565b6000838383463060405160200162000288959493929190620002da565b6040516020818303038152906040528051906020012090509392505050565b620002b28162000337565b82525050565b620002c3816200034b565b82525050565b620002d48162000375565b82525050565b600060a082019050620002f16000830188620002b8565b620003006020830187620002b8565b6200030f6040830186620002b8565b6200031e6060830185620002c9565b6200032d6080830184620002a7565b9695505050505050565b6000620003448262000355565b9050919050565b6000819050919050565b600073ffffffffffffffffffffffffffffffffffffffff82169050919050565b6000819050919050565b60805160a05160c05160601c60e05161010051610120516118ba620003d26000396000610ac001526000610b0201526000610ae101526000610a1601526000610a6c01526000610a9501526118ba6000f3fe608060405234801561001057600080fd5b50600436106100885760003560e01c80638da5cb5b1161005b5780638da5cb5b14610127578063b24a5e0d14610145578063b2969a2e14610161578063f2fde38b1461017d57610088565b80632dffb6ce1461008d57806330f89e29146100bd57806368dfffbd146100ed578063715018a61461011d575b600080fd5b6100a760048036038101906100a29190610f69565b610199565b6040516100b4919061124d565b60405180910390f35b6100d760048036038101906100d29190610fe1565b610207565b6040516100e4919061124d565b60405180910390f35b61010760048036038101906101029190610f0d565b610219565b6040516101149190611345565b60405180910390f35b6101256102dc565b005b61012f6102f0565b60405161013c919061124d565b60405180910390f35b61015f600480360381019061015a9190610fe1565b610319565b005b61017b60048036038101906101769190610ee0565b61055b565b005b61019760048036038101906101929190610ee0565b6105a7565b005b600282805160208101820180518482526020830160208501208183528095505050505050818051602081018201805184825260208301602085012081835280955050505050506000915091509054906101000a900473ffffffffffffffffffffffffffffffffffffffff1681565b60006102128261062b565b9050919050565b60016020528160005260406000208180516020810182018051848252602083016020850120818352809550505050505060009150915050805461025b9061158a565b80601f01602080910402602001604051908101604052809291908181526020018280546102879061158a565b80156102d45780601f106102a9576101008083540402835291602001916102d4565b820191906000526020600020905b8154815290600101906020018083116102b757829003601f168201915b505050505081565b6102e461064f565b6102ee60006106cd565b565b60008060009054906101000a900473ffffffffffffffffffffffffffffffffffffffff16905090565b61032281610207565b73ffffffffffffffffffffffffffffffffffffffff16600360009054906101000a900473ffffffffffffffffffffffffffffffffffffffff1673ffffffffffffffffffffffffffffffffffffffff16146103b1576040517f08c379a00000000000000000000000000000000000000000000000000000000081526004016103a8906113a7565b60405180910390fd5b6000600160003373ffffffffffffffffffffffffffffffffffffffff1673ffffffffffffffffffffffffffffffffffffffff168152602001908152602001600020826020015160405161040491906111ff565b9081526020016040518091039020805461041d9061158a565b90501461045f576040517f08c379a0000000000000000000000000000000000000000000000000000000008152600401610456906113c7565b60405180910390fd5b8060000151600160003373ffffffffffffffffffffffffffffffffffffffff1673ffffffffffffffffffffffffffffffffffffffff16815260200190815260200160002082602001516040516104b591906111ff565b908152602001604051809103902090805190602001906104d6929190610c7c565b5033600282602001516040516104ec91906111ff565b9081526020016040518091039020826000015160405161050c91906111ff565b908152602001604051809103902060006101000a81548173ffffffffffffffffffffffffffffffffffffffff021916908373ffffffffffffffffffffffffffffffffffffffff16021790555050565b61056361064f565b80600360006101000a81548173ffffffffffffffffffffffffffffffffffffffff021916908373ffffffffffffffffffffffffffffffffffffffff16021790555050565b6105af61064f565b600073ffffffffffffffffffffffffffffffffffffffff168173ffffffffffffffffffffffffffffffffffffffff16141561061f576040517f08c379a0000000000000000000000000000000000000000000000000000000008152600401610616906113e7565b60405180910390fd5b610628816106cd565b50565b60008061063783610791565b9050610647818460600151610809565b915050919050565b610657610830565b73ffffffffffffffffffffffffffffffffffffffff166106756102f0565b73ffffffffffffffffffffffffffffffffffffffff16146106cb576040517f08c379a00000000000000000000000000000000000000000000000000000000081526004016106c290611427565b60405180910390fd5b565b60008060009054906101000a900473ffffffffffffffffffffffffffffffffffffffff169050816000806101000a81548173ffffffffffffffffffffffffffffffffffffffff021916908373ffffffffffffffffffffffffffffffffffffffff1602179055508173ffffffffffffffffffffffffffffffffffffffff168173ffffffffffffffffffffffffffffffffffffffff167f8be0079c531659141344cd1fd0a4f28419497f9722a3daafe3b4186f6b6457e060405160405180910390a35050565b60006108027f9980e35fd3e98fb83ed8ba021944828eb14149855296a1d36bc6313f56ef5aa683600001518051906020012084602001518051906020012085604001516040516020016107e79493929190611268565b60405160208183030381529060405280519060200120610838565b9050919050565b60008060006108188585610852565b91509150610825816108a4565b819250505092915050565b600033905090565b600061084b610845610a12565b83610b2c565b9050919050565b6000806041835114156108945760008060006020860151925060408601519150606086015160001a905061088887828585610b5f565b9450945050505061089d565b60006002915091505b9250929050565b600060048111156108b8576108b76115f7565b5b8160048111156108cb576108ca6115f7565b5b14156108d657610a0f565b600160048111156108ea576108e96115f7565b5b8160048111156108fd576108fc6115f7565b5b141561093e576040517f08c379a000000000000000000000000000000000000000000000000000000000815260040161093590611367565b60405180910390fd5b60026004811115610952576109516115f7565b5b816004811115610965576109646115f7565b5b14156109a6576040517f08c379a000000000000000000000000000000000000000000000000000000000815260040161099d90611387565b60405180910390fd5b600360048111156109ba576109b96115f7565b5b8160048111156109cd576109cc6115f7565b5b1415610a0e576040517f08c379a0000000000000000000000000000000000000000000000000000000008152600401610a0590611407565b60405180910390fd5b5b50565b60007f000000000000000000000000000000000000000000000000000000000000000073ffffffffffffffffffffffffffffffffffffffff163073ffffffffffffffffffffffffffffffffffffffff16148015610a8e57507f000000000000000000000000000000000000000000000000000000000000000046145b15610abb577f00000000000000000000000000000000000000000000000000000000000000009050610b29565b610b267f00000000000000000000000000000000000000000000000000000000000000007f00000000000000000000000000000000000000000000000000000000000000007f0000000000000000000000000000000000000000000000000000000000000000610c42565b90505b90565b60008282604051602001610b41929190611216565b60405160208183030381529060405280519060200120905092915050565b6000807f7fffffffffffffffffffffffffffffff5d576e7357a4501ddfe92f46681b20a08360001c1115610b9a576000600391509150610c39565b600060018787878760405160008152602001604052604051610bbf9493929190611300565b6020604051602081039080840390855afa158015610be1573d6000803e3d6000fd5b505050602060405103519050600073ffffffffffffffffffffffffffffffffffffffff168173ffffffffffffffffffffffffffffffffffffffff161415610c3057600060019250925050610c39565b80600092509250505b94509492505050565b60008383834630604051602001610c5d9594939291906112ad565b6040516020818303038152906040528051906020012090509392505050565b828054610c889061158a565b90600052602060002090601f016020900481019282610caa5760008555610cf1565b82601f10610cc357805160ff1916838001178555610cf1565b82800160010185558215610cf1579182015b82811115610cf0578251825591602001919060010190610cd5565b5b509050610cfe9190610d02565b5090565b5b80821115610d1b576000816000905550600101610d03565b5090565b6000610d32610d2d8461146c565b611447565b905082815260208101848484011115610d4e57610d4d611693565b5b610d59848285611548565b509392505050565b6000610d74610d6f8461149d565b611447565b905082815260208101848484011115610d9057610d8f611693565b5b610d9b848285611548565b509392505050565b600081359050610db28161186d565b92915050565b600082601f830112610dcd57610dcc611684565b5b8135610ddd848260208601610d1f565b91505092915050565b600082601f830112610dfb57610dfa611684565b5b8135610e0b848260208601610d61565b91505092915050565b600060808284031215610e2a57610e29611689565b5b610e346080611447565b9050600082013567ffffffffffffffff811115610e5457610e5361168e565b5b610e6084828501610de6565b600083015250602082013567ffffffffffffffff811115610e8457610e8361168e565b5b610e9084828501610de6565b6020830152506040610ea484828501610da3565b604083015250606082013567ffffffffffffffff811115610ec857610ec761168e565b5b610ed484828501610db8565b60608301525092915050565b600060208284031215610ef657610ef561169d565b5b6000610f0484828501610da3565b91505092915050565b60008060408385031215610f2457610f2361169d565b5b6000610f3285828601610da3565b925050602083013567ffffffffffffffff811115610f5357610f52611698565b5b610f5f85828601610de6565b9150509250929050565b60008060408385031215610f8057610f7f61169d565b5b600083013567ffffffffffffffff811115610f9e57610f9d611698565b5b610faa85828601610de6565b925050602083013567ffffffffffffffff811115610fcb57610fca611698565b5b610fd785828601610de6565b9150509250929050565b600060208284031215610ff757610ff661169d565b5b600082013567ffffffffffffffff81111561101557611014611698565b5b61102184828501610e14565b91505092915050565b611033816114f5565b82525050565b61104281611507565b82525050565b61105961105482611507565b6115ed565b82525050565b600061106a826114ce565b61107481856114d9565b9350611084818560208601611557565b61108d816116a2565b840191505092915050565b60006110a3826114ce565b6110ad81856114ea565b93506110bd818560208601611557565b80840191505092915050565b60006110d66018836114d9565b91506110e1826116b3565b602082019050919050565b60006110f9601f836114d9565b9150611104826116dc565b602082019050919050565b600061111c6033836114d9565b915061112782611705565b604082019050919050565b600061113f601c836114d9565b915061114a82611754565b602082019050919050565b60006111626026836114d9565b915061116d8261177d565b604082019050919050565b60006111856002836114ea565b9150611190826117cc565b600282019050919050565b60006111a86022836114d9565b91506111b3826117f5565b604082019050919050565b60006111cb6020836114d9565b91506111d682611844565b602082019050919050565b6111ea81611531565b82525050565b6111f98161153b565b82525050565b600061120b8284611098565b915081905092915050565b600061122182611178565b915061122d8285611048565b60208201915061123d8284611048565b6020820191508190509392505050565b6000602082019050611262600083018461102a565b92915050565b600060808201905061127d6000830187611039565b61128a6020830186611039565b6112976040830185611039565b6112a4606083018461102a565b95945050505050565b600060a0820190506112c26000830188611039565b6112cf6020830187611039565b6112dc6040830186611039565b6112e960608301856111e1565b6112f6608083018461102a565b9695505050505050565b60006080820190506113156000830187611039565b61132260208301866111f0565b61132f6040830185611039565b61133c6060830184611039565b95945050505050565b6000602082019050818103600083015261135f818461105f565b905092915050565b60006020820190508181036000830152611380816110c9565b9050919050565b600060208201905081810360008301526113a0816110ec565b9050919050565b600060208201905081810360008301526113c08161110f565b9050919050565b600060208201905081810360008301526113e081611132565b9050919050565b6000602082019050818103600083015261140081611155565b9050919050565b600060208201905081810360008301526114208161119b565b9050919050565b60006020820190508181036000830152611440816111be565b9050919050565b6000611451611462565b905061145d82826115bc565b919050565b6000604051905090565b600067ffffffffffffffff82111561148757611486611655565b5b611490826116a2565b9050602081019050919050565b600067ffffffffffffffff8211156114b8576114b7611655565b5b6114c1826116a2565b9050602081019050919050565b600081519050919050565b600082825260208201905092915050565b600081905092915050565b600061150082611511565b9050919050565b6000819050919050565b600073ffffffffffffffffffffffffffffffffffffffff82169050919050565b6000819050919050565b600060ff82169050919050565b82818337600083830152505050565b60005b8381101561157557808201518184015260208101905061155a565b83811115611584576000848401525b50505050565b600060028204905060018216806115a257607f821691505b602082108114156115b6576115b5611626565b5b50919050565b6115c5826116a2565b810181811067ffffffffffffffff821117156115e4576115e3611655565b5b80604052505050565b6000819050919050565b7f4e487b7100000000000000000000000000000000000000000000000000000000600052602160045260246000fd5b7f4e487b7100000000000000000000000000000000000000000000000000000000600052602260045260246000fd5b7f4e487b7100000000000000000000000000000000000000000000000000000000600052604160045260246000fd5b600080fd5b600080fd5b600080fd5b600080fd5b600080fd5b600080fd5b6000601f19601f8301169050919050565b7f45434453413a20696e76616c6964207369676e61747572650000000000000000600082015250565b7f45434453413a20696e76616c6964207369676e6174757265206c656e67746800600082015250565b7f496e636f72726563746c79207369676e6564206461746120736f75726365207660008201527f6572696669636174696f6e207265717565737400000000000000000000000000602082015250565b7f4461746120536f7572636520416c726561647920566572696669656400000000600082015250565b7f4f776e61626c653a206e6577206f776e657220697320746865207a65726f206160008201527f6464726573730000000000000000000000000000000000000000000000000000602082015250565b7f1901000000000000000000000000000000000000000000000000000000000000600082015250565b7f45434453413a20696e76616c6964207369676e6174757265202773272076616c60008201527f7565000000000000000000000000000000000000000000000000000000000000602082015250565b7f4f776e61626c653a2063616c6c6572206973206e6f7420746865206f776e6572600082015250565b611876816114f5565b811461188157600080fd5b5056fea26469706673582212203fc8936cfa661b83a5a89ef600029e4c028c41050c663f358a0c05c1c789c63a64736f6c63430008070033",
					"opcodes": "PUSH2 0x140 PUSH1 0x40 MSTORE CALLVALUE DUP1 ISZERO PUSH3 0x12 JUMPI PUSH1 0x0 DUP1 REVERT JUMPDEST POP PUSH1 0x40 MLOAD DUP1 PUSH1 0x40 ADD PUSH1 0x40 MSTORE DUP1 PUSH1 0xC DUP2 MSTORE PUSH1 0x20 ADD PUSH32 0x6A6F75726E616C332E636F6D0000000000000000000000000000000000000000 DUP2 MSTORE POP PUSH1 0x40 MLOAD DUP1 PUSH1 0x40 ADD PUSH1 0x40 MSTORE DUP1 PUSH1 0x1 DUP2 MSTORE PUSH1 0x20 ADD PUSH32 0x3100000000000000000000000000000000000000000000000000000000000000 DUP2 MSTORE POP DUP2 DUP2 PUSH3 0xA1 PUSH3 0x95 PUSH3 0x19F PUSH1 0x20 SHL PUSH1 0x20 SHR JUMP JUMPDEST PUSH3 0x1A7 PUSH1 0x20 SHL PUSH1 0x20 SHR JUMP JUMPDEST PUSH1 0x0 DUP3 DUP1 MLOAD SWAP1 PUSH1 0x20 ADD KECCAK256 SWAP1 POP PUSH1 0x0 DUP3 DUP1 MLOAD SWAP1 PUSH1 0x20 ADD KECCAK256 SWAP1 POP PUSH1 0x0 PUSH32 0x8B73C3C69BB8FE3D512ECC4CF759CC79239F7B179B0FFACAA9A75D522B39400F SWAP1 POP DUP3 PUSH1 0xE0 DUP2 DUP2 MSTORE POP POP DUP2 PUSH2 0x100 DUP2 DUP2 MSTORE POP POP CHAINID PUSH1 0xA0 DUP2 DUP2 MSTORE POP POP PUSH3 0x10A DUP2 DUP5 DUP5 PUSH3 0x26B PUSH1 0x20 SHL PUSH1 0x20 SHR JUMP JUMPDEST PUSH1 0x80 DUP2 DUP2 MSTORE POP POP ADDRESS PUSH20 0xFFFFFFFFFFFFFFFFFFFFFFFFFFFFFFFFFFFFFFFF AND PUSH1 0xC0 DUP2 PUSH20 0xFFFFFFFFFFFFFFFFFFFFFFFFFFFFFFFFFFFFFFFF AND PUSH1 0x60 SHL DUP2 MSTORE POP POP DUP1 PUSH2 0x120 DUP2 DUP2 MSTORE POP POP POP POP POP POP POP POP POP CALLER PUSH1 0x3 PUSH1 0x0 PUSH2 0x100 EXP DUP2 SLOAD DUP2 PUSH20 0xFFFFFFFFFFFFFFFFFFFFFFFFFFFFFFFFFFFFFFFF MUL NOT AND SWAP1 DUP4 PUSH20 0xFFFFFFFFFFFFFFFFFFFFFFFFFFFFFFFFFFFFFFFF AND MUL OR SWAP1 SSTORE POP PUSH3 0x37F JUMP JUMPDEST PUSH1 0x0 CALLER SWAP1 POP SWAP1 JUMP JUMPDEST PUSH1 0x0 DUP1 PUSH1 0x0 SWAP1 SLOAD SWAP1 PUSH2 0x100 EXP SWAP1 DIV PUSH20 0xFFFFFFFFFFFFFFFFFFFFFFFFFFFFFFFFFFFFFFFF AND SWAP1 POP DUP2 PUSH1 0x0 DUP1 PUSH2 0x100 EXP DUP2 SLOAD DUP2 PUSH20 0xFFFFFFFFFFFFFFFFFFFFFFFFFFFFFFFFFFFFFFFF MUL NOT AND SWAP1 DUP4 PUSH20 0xFFFFFFFFFFFFFFFFFFFFFFFFFFFFFFFFFFFFFFFF AND MUL OR SWAP1 SSTORE POP DUP2 PUSH20 0xFFFFFFFFFFFFFFFFFFFFFFFFFFFFFFFFFFFFFFFF AND DUP2 PUSH20 0xFFFFFFFFFFFFFFFFFFFFFFFFFFFFFFFFFFFFFFFF AND PUSH32 0x8BE0079C531659141344CD1FD0A4F28419497F9722A3DAAFE3B4186F6B6457E0 PUSH1 0x40 MLOAD PUSH1 0x40 MLOAD DUP1 SWAP2 SUB SWAP1 LOG3 POP POP JUMP JUMPDEST PUSH1 0x0 DUP4 DUP4 DUP4 CHAINID ADDRESS PUSH1 0x40 MLOAD PUSH1 0x20 ADD PUSH3 0x288 SWAP6 SWAP5 SWAP4 SWAP3 SWAP2 SWAP1 PUSH3 0x2DA JUMP JUMPDEST PUSH1 0x40 MLOAD PUSH1 0x20 DUP2 DUP4 SUB SUB DUP2 MSTORE SWAP1 PUSH1 0x40 MSTORE DUP1 MLOAD SWAP1 PUSH1 0x20 ADD KECCAK256 SWAP1 POP SWAP4 SWAP3 POP POP POP JUMP JUMPDEST PUSH3 0x2B2 DUP2 PUSH3 0x337 JUMP JUMPDEST DUP3 MSTORE POP POP JUMP JUMPDEST PUSH3 0x2C3 DUP2 PUSH3 0x34B JUMP JUMPDEST DUP3 MSTORE POP POP JUMP JUMPDEST PUSH3 0x2D4 DUP2 PUSH3 0x375 JUMP JUMPDEST DUP3 MSTORE POP POP JUMP JUMPDEST PUSH1 0x0 PUSH1 0xA0 DUP3 ADD SWAP1 POP PUSH3 0x2F1 PUSH1 0x0 DUP4 ADD DUP9 PUSH3 0x2B8 JUMP JUMPDEST PUSH3 0x300 PUSH1 0x20 DUP4 ADD DUP8 PUSH3 0x2B8 JUMP JUMPDEST PUSH3 0x30F PUSH1 0x40 DUP4 ADD DUP7 PUSH3 0x2B8 JUMP JUMPDEST PUSH3 0x31E PUSH1 0x60 DUP4 ADD DUP6 PUSH3 0x2C9 JUMP JUMPDEST PUSH3 0x32D PUSH1 0x80 DUP4 ADD DUP5 PUSH3 0x2A7 JUMP JUMPDEST SWAP7 SWAP6 POP POP POP POP POP POP JUMP JUMPDEST PUSH1 0x0 PUSH3 0x344 DUP3 PUSH3 0x355 JUMP JUMPDEST SWAP1 POP SWAP2 SWAP1 POP JUMP JUMPDEST PUSH1 0x0 DUP2 SWAP1 POP SWAP2 SWAP1 POP JUMP JUMPDEST PUSH1 0x0 PUSH20 0xFFFFFFFFFFFFFFFFFFFFFFFFFFFFFFFFFFFFFFFF DUP3 AND SWAP1 POP SWAP2 SWAP1 POP JUMP JUMPDEST PUSH1 0x0 DUP2 SWAP1 POP SWAP2 SWAP1 POP JUMP JUMPDEST PUSH1 0x80 MLOAD PUSH1 0xA0 MLOAD PUSH1 0xC0 MLOAD PUSH1 0x60 SHR PUSH1 0xE0 MLOAD PUSH2 0x100 MLOAD PUSH2 0x120 MLOAD PUSH2 0x18BA PUSH3 0x3D2 PUSH1 0x0 CODECOPY PUSH1 0x0 PUSH2 0xAC0 ADD MSTORE PUSH1 0x0 PUSH2 0xB02 ADD MSTORE PUSH1 0x0 PUSH2 0xAE1 ADD MSTORE PUSH1 0x0 PUSH2 0xA16 ADD MSTORE PUSH1 0x0 PUSH2 0xA6C ADD MSTORE PUSH1 0x0 PUSH2 0xA95 ADD MSTORE PUSH2 0x18BA PUSH1 0x0 RETURN INVALID PUSH1 0x80 PUSH1 0x40 MSTORE CALLVALUE DUP1 ISZERO PUSH2 0x10 JUMPI PUSH1 0x0 DUP1 REVERT JUMPDEST POP PUSH1 0x4 CALLDATASIZE LT PUSH2 0x88 JUMPI PUSH1 0x0 CALLDATALOAD PUSH1 0xE0 SHR DUP1 PUSH4 0x8DA5CB5B GT PUSH2 0x5B JUMPI DUP1 PUSH4 0x8DA5CB5B EQ PUSH2 0x127 JUMPI DUP1 PUSH4 0xB24A5E0D EQ PUSH2 0x145 JUMPI DUP1 PUSH4 0xB2969A2E EQ PUSH2 0x161 JUMPI DUP1 PUSH4 0xF2FDE38B EQ PUSH2 0x17D JUMPI PUSH2 0x88 JUMP JUMPDEST DUP1 PUSH4 0x2DFFB6CE EQ PUSH2 0x8D JUMPI DUP1 PUSH4 0x30F89E29 EQ PUSH2 0xBD JUMPI DUP1 PUSH4 0x68DFFFBD EQ PUSH2 0xED JUMPI DUP1 PUSH4 0x715018A6 EQ PUSH2 0x11D JUMPI JUMPDEST PUSH1 0x0 DUP1 REVERT JUMPDEST PUSH2 0xA7 PUSH1 0x4 DUP1 CALLDATASIZE SUB DUP2 ADD SWAP1 PUSH2 0xA2 SWAP2 SWAP1 PUSH2 0xF69 JUMP JUMPDEST PUSH2 0x199 JUMP JUMPDEST PUSH1 0x40 MLOAD PUSH2 0xB4 SWAP2 SWAP1 PUSH2 0x124D JUMP JUMPDEST PUSH1 0x40 MLOAD DUP1 SWAP2 SUB SWAP1 RETURN JUMPDEST PUSH2 0xD7 PUSH1 0x4 DUP1 CALLDATASIZE SUB DUP2 ADD SWAP1 PUSH2 0xD2 SWAP2 SWAP1 PUSH2 0xFE1 JUMP JUMPDEST PUSH2 0x207 JUMP JUMPDEST PUSH1 0x40 MLOAD PUSH2 0xE4 SWAP2 SWAP1 PUSH2 0x124D JUMP JUMPDEST PUSH1 0x40 MLOAD DUP1 SWAP2 SUB SWAP1 RETURN JUMPDEST PUSH2 0x107 PUSH1 0x4 DUP1 CALLDATASIZE SUB DUP2 ADD SWAP1 PUSH2 0x102 SWAP2 SWAP1 PUSH2 0xF0D JUMP JUMPDEST PUSH2 0x219 JUMP JUMPDEST PUSH1 0x40 MLOAD PUSH2 0x114 SWAP2 SWAP1 PUSH2 0x1345 JUMP JUMPDEST PUSH1 0x40 MLOAD DUP1 SWAP2 SUB SWAP1 RETURN JUMPDEST PUSH2 0x125 PUSH2 0x2DC JUMP JUMPDEST STOP JUMPDEST PUSH2 0x12F PUSH2 0x2F0 JUMP JUMPDEST PUSH1 0x40 MLOAD PUSH2 0x13C SWAP2 SWAP1 PUSH2 0x124D JUMP JUMPDEST PUSH1 0x40 MLOAD DUP1 SWAP2 SUB SWAP1 RETURN JUMPDEST PUSH2 0x15F PUSH1 0x4 DUP1 CALLDATASIZE SUB DUP2 ADD SWAP1 PUSH2 0x15A SWAP2 SWAP1 PUSH2 0xFE1 JUMP JUMPDEST PUSH2 0x319 JUMP JUMPDEST STOP JUMPDEST PUSH2 0x17B PUSH1 0x4 DUP1 CALLDATASIZE SUB DUP2 ADD SWAP1 PUSH2 0x176 SWAP2 SWAP1 PUSH2 0xEE0 JUMP JUMPDEST PUSH2 0x55B JUMP JUMPDEST STOP JUMPDEST PUSH2 0x197 PUSH1 0x4 DUP1 CALLDATASIZE SUB DUP2 ADD SWAP1 PUSH2 0x192 SWAP2 SWAP1 PUSH2 0xEE0 JUMP JUMPDEST PUSH2 0x5A7 JUMP JUMPDEST STOP JUMPDEST PUSH1 0x2 DUP3 DUP1 MLOAD PUSH1 0x20 DUP2 ADD DUP3 ADD DUP1 MLOAD DUP5 DUP3 MSTORE PUSH1 0x20 DUP4 ADD PUSH1 0x20 DUP6 ADD KECCAK256 DUP2 DUP4 MSTORE DUP1 SWAP6 POP POP POP POP POP POP DUP2 DUP1 MLOAD PUSH1 0x20 DUP2 ADD DUP3 ADD DUP1 MLOAD DUP5 DUP3 MSTORE PUSH1 0x20 DUP4 ADD PUSH1 0x20 DUP6 ADD KECCAK256 DUP2 DUP4 MSTORE DUP1 SWAP6 POP POP POP POP POP POP PUSH1 0x0 SWAP2 POP SWAP2 POP SWAP1 SLOAD SWAP1 PUSH2 0x100 EXP SWAP1 DIV PUSH20 0xFFFFFFFFFFFFFFFFFFFFFFFFFFFFFFFFFFFFFFFF AND DUP2 JUMP JUMPDEST PUSH1 0x0 PUSH2 0x212 DUP3 PUSH2 0x62B JUMP JUMPDEST SWAP1 POP SWAP2 SWAP1 POP JUMP JUMPDEST PUSH1 0x1 PUSH1 0x20 MSTORE DUP2 PUSH1 0x0 MSTORE PUSH1 0x40 PUSH1 0x0 KECCAK256 DUP2 DUP1 MLOAD PUSH1 0x20 DUP2 ADD DUP3 ADD DUP1 MLOAD DUP5 DUP3 MSTORE PUSH1 0x20 DUP4 ADD PUSH1 0x20 DUP6 ADD KECCAK256 DUP2 DUP4 MSTORE DUP1 SWAP6 POP POP POP POP POP POP PUSH1 0x0 SWAP2 POP SWAP2 POP POP DUP1 SLOAD PUSH2 0x25B SWAP1 PUSH2 0x158A JUMP JUMPDEST DUP1 PUSH1 0x1F ADD PUSH1 0x20 DUP1 SWAP2 DIV MUL PUSH1 0x20 ADD PUSH1 0x40 MLOAD SWAP1 DUP2 ADD PUSH1 0x40 MSTORE DUP1 SWAP3 SWAP2 SWAP1 DUP2 DUP2 MSTORE PUSH1 0x20 ADD DUP3 DUP1 SLOAD PUSH2 0x287 SWAP1 PUSH2 0x158A JUMP JUMPDEST DUP1 ISZERO PUSH2 0x2D4 JUMPI DUP1 PUSH1 0x1F LT PUSH2 0x2A9 JUMPI PUSH2 0x100 DUP1 DUP4 SLOAD DIV MUL DUP4 MSTORE SWAP2 PUSH1 0x20 ADD SWAP2 PUSH2 0x2D4 JUMP JUMPDEST DUP3 ADD SWAP2 SWAP1 PUSH1 0x0 MSTORE PUSH1 0x20 PUSH1 0x0 KECCAK256 SWAP1 JUMPDEST DUP2 SLOAD DUP2 MSTORE SWAP1 PUSH1 0x1 ADD SWAP1 PUSH1 0x20 ADD DUP1 DUP4 GT PUSH2 0x2B7 JUMPI DUP3 SWAP1 SUB PUSH1 0x1F AND DUP3 ADD SWAP2 JUMPDEST POP POP POP POP POP DUP2 JUMP JUMPDEST PUSH2 0x2E4 PUSH2 0x64F JUMP JUMPDEST PUSH2 0x2EE PUSH1 0x0 PUSH2 0x6CD JUMP JUMPDEST JUMP JUMPDEST PUSH1 0x0 DUP1 PUSH1 0x0 SWAP1 SLOAD SWAP1 PUSH2 0x100 EXP SWAP1 DIV PUSH20 0xFFFFFFFFFFFFFFFFFFFFFFFFFFFFFFFFFFFFFFFF AND SWAP1 POP SWAP1 JUMP JUMPDEST PUSH2 0x322 DUP2 PUSH2 0x207 JUMP JUMPDEST PUSH20 0xFFFFFFFFFFFFFFFFFFFFFFFFFFFFFFFFFFFFFFFF AND PUSH1 0x3 PUSH1 0x0 SWAP1 SLOAD SWAP1 PUSH2 0x100 EXP SWAP1 DIV PUSH20 0xFFFFFFFFFFFFFFFFFFFFFFFFFFFFFFFFFFFFFFFF AND PUSH20 0xFFFFFFFFFFFFFFFFFFFFFFFFFFFFFFFFFFFFFFFF AND EQ PUSH2 0x3B1 JUMPI PUSH1 0x40 MLOAD PUSH32 0x8C379A000000000000000000000000000000000000000000000000000000000 DUP2 MSTORE PUSH1 0x4 ADD PUSH2 0x3A8 SWAP1 PUSH2 0x13A7 JUMP JUMPDEST PUSH1 0x40 MLOAD DUP1 SWAP2 SUB SWAP1 REVERT JUMPDEST PUSH1 0x0 PUSH1 0x1 PUSH1 0x0 CALLER PUSH20 0xFFFFFFFFFFFFFFFFFFFFFFFFFFFFFFFFFFFFFFFF AND PUSH20 0xFFFFFFFFFFFFFFFFFFFFFFFFFFFFFFFFFFFFFFFF AND DUP2 MSTORE PUSH1 0x20 ADD SWAP1 DUP2 MSTORE PUSH1 0x20 ADD PUSH1 0x0 KECCAK256 DUP3 PUSH1 0x20 ADD MLOAD PUSH1 0x40 MLOAD PUSH2 0x404 SWAP2 SWAP1 PUSH2 0x11FF JUMP JUMPDEST SWAP1 DUP2 MSTORE PUSH1 0x20 ADD PUSH1 0x40 MLOAD DUP1 SWAP2 SUB SWAP1 KECCAK256 DUP1 SLOAD PUSH2 0x41D SWAP1 PUSH2 0x158A JUMP JUMPDEST SWAP1 POP EQ PUSH2 0x45F JUMPI PUSH1 0x40 MLOAD PUSH32 0x8C379A000000000000000000000000000000000000000000000000000000000 DUP2 MSTORE PUSH1 0x4 ADD PUSH2 0x456 SWAP1 PUSH2 0x13C7 JUMP JUMPDEST PUSH1 0x40 MLOAD DUP1 SWAP2 SUB SWAP1 REVERT JUMPDEST DUP1 PUSH1 0x0 ADD MLOAD PUSH1 0x1 PUSH1 0x0 CALLER PUSH20 0xFFFFFFFFFFFFFFFFFFFFFFFFFFFFFFFFFFFFFFFF AND PUSH20 0xFFFFFFFFFFFFFFFFFFFFFFFFFFFFFFFFFFFFFFFF AND DUP2 MSTORE PUSH1 0x20 ADD SWAP1 DUP2 MSTORE PUSH1 0x20 ADD PUSH1 0x0 KECCAK256 DUP3 PUSH1 0x20 ADD MLOAD PUSH1 0x40 MLOAD PUSH2 0x4B5 SWAP2 SWAP1 PUSH2 0x11FF JUMP JUMPDEST SWAP1 DUP2 MSTORE PUSH1 0x20 ADD PUSH1 0x40 MLOAD DUP1 SWAP2 SUB SWAP1 KECCAK256 SWAP1 DUP1 MLOAD SWAP1 PUSH1 0x20 ADD SWAP1 PUSH2 0x4D6 SWAP3 SWAP2 SWAP1 PUSH2 0xC7C JUMP JUMPDEST POP CALLER PUSH1 0x2 DUP3 PUSH1 0x20 ADD MLOAD PUSH1 0x40 MLOAD PUSH2 0x4EC SWAP2 SWAP1 PUSH2 0x11FF JUMP JUMPDEST SWAP1 DUP2 MSTORE PUSH1 0x20 ADD PUSH1 0x40 MLOAD DUP1 SWAP2 SUB SWAP1 KECCAK256 DUP3 PUSH1 0x0 ADD MLOAD PUSH1 0x40 MLOAD PUSH2 0x50C SWAP2 SWAP1 PUSH2 0x11FF JUMP JUMPDEST SWAP1 DUP2 MSTORE PUSH1 0x20 ADD PUSH1 0x40 MLOAD DUP1 SWAP2 SUB SWAP1 KECCAK256 PUSH1 0x0 PUSH2 0x100 EXP DUP2 SLOAD DUP2 PUSH20 0xFFFFFFFFFFFFFFFFFFFFFFFFFFFFFFFFFFFFFFFF MUL NOT AND SWAP1 DUP4 PUSH20 0xFFFFFFFFFFFFFFFFFFFFFFFFFFFFFFFFFFFFFFFF AND MUL OR SWAP1 SSTORE POP POP JUMP JUMPDEST PUSH2 0x563 PUSH2 0x64F JUMP JUMPDEST DUP1 PUSH1 0x3 PUSH1 0x0 PUSH2 0x100 EXP DUP2 SLOAD DUP2 PUSH20 0xFFFFFFFFFFFFFFFFFFFFFFFFFFFFFFFFFFFFFFFF MUL NOT AND SWAP1 DUP4 PUSH20 0xFFFFFFFFFFFFFFFFFFFFFFFFFFFFFFFFFFFFFFFF AND MUL OR SWAP1 SSTORE POP POP JUMP JUMPDEST PUSH2 0x5AF PUSH2 0x64F JUMP JUMPDEST PUSH1 0x0 PUSH20 0xFFFFFFFFFFFFFFFFFFFFFFFFFFFFFFFFFFFFFFFF AND DUP2 PUSH20 0xFFFFFFFFFFFFFFFFFFFFFFFFFFFFFFFFFFFFFFFF AND EQ ISZERO PUSH2 0x61F JUMPI PUSH1 0x40 MLOAD PUSH32 0x8C379A000000000000000000000000000000000000000000000000000000000 DUP2 MSTORE PUSH1 0x4 ADD PUSH2 0x616 SWAP1 PUSH2 0x13E7 JUMP JUMPDEST PUSH1 0x40 MLOAD DUP1 SWAP2 SUB SWAP1 REVERT JUMPDEST PUSH2 0x628 DUP2 PUSH2 0x6CD JUMP JUMPDEST POP JUMP JUMPDEST PUSH1 0x0 DUP1 PUSH2 0x637 DUP4 PUSH2 0x791 JUMP JUMPDEST SWAP1 POP PUSH2 0x647 DUP2 DUP5 PUSH1 0x60 ADD MLOAD PUSH2 0x809 JUMP JUMPDEST SWAP2 POP POP SWAP2 SWAP1 POP JUMP JUMPDEST PUSH2 0x657 PUSH2 0x830 JUMP JUMPDEST PUSH20 0xFFFFFFFFFFFFFFFFFFFFFFFFFFFFFFFFFFFFFFFF AND PUSH2 0x675 PUSH2 0x2F0 JUMP JUMPDEST PUSH20 0xFFFFFFFFFFFFFFFFFFFFFFFFFFFFFFFFFFFFFFFF AND EQ PUSH2 0x6CB JUMPI PUSH1 0x40 MLOAD PUSH32 0x8C379A000000000000000000000000000000000000000000000000000000000 DUP2 MSTORE PUSH1 0x4 ADD PUSH2 0x6C2 SWAP1 PUSH2 0x1427 JUMP JUMPDEST PUSH1 0x40 MLOAD DUP1 SWAP2 SUB SWAP1 REVERT JUMPDEST JUMP JUMPDEST PUSH1 0x0 DUP1 PUSH1 0x0 SWAP1 SLOAD SWAP1 PUSH2 0x100 EXP SWAP1 DIV PUSH20 0xFFFFFFFFFFFFFFFFFFFFFFFFFFFFFFFFFFFFFFFF AND SWAP1 POP DUP2 PUSH1 0x0 DUP1 PUSH2 0x100 EXP DUP2 SLOAD DUP2 PUSH20 0xFFFFFFFFFFFFFFFFFFFFFFFFFFFFFFFFFFFFFFFF MUL NOT AND SWAP1 DUP4 PUSH20 0xFFFFFFFFFFFFFFFFFFFFFFFFFFFFFFFFFFFFFFFF AND MUL OR SWAP1 SSTORE POP DUP2 PUSH20 0xFFFFFFFFFFFFFFFFFFFFFFFFFFFFFFFFFFFFFFFF AND DUP2 PUSH20 0xFFFFFFFFFFFFFFFFFFFFFFFFFFFFFFFFFFFFFFFF AND PUSH32 0x8BE0079C531659141344CD1FD0A4F28419497F9722A3DAAFE3B4186F6B6457E0 PUSH1 0x40 MLOAD PUSH1 0x40 MLOAD DUP1 SWAP2 SUB SWAP1 LOG3 POP POP JUMP JUMPDEST PUSH1 0x0 PUSH2 0x802 PUSH32 0x9980E35FD3E98FB83ED8BA021944828EB14149855296A1D36BC6313F56EF5AA6 DUP4 PUSH1 0x0 ADD MLOAD DUP1 MLOAD SWAP1 PUSH1 0x20 ADD KECCAK256 DUP5 PUSH1 0x20 ADD MLOAD DUP1 MLOAD SWAP1 PUSH1 0x20 ADD KECCAK256 DUP6 PUSH1 0x40 ADD MLOAD PUSH1 0x40 MLOAD PUSH1 0x20 ADD PUSH2 0x7E7 SWAP5 SWAP4 SWAP3 SWAP2 SWAP1 PUSH2 0x1268 JUMP JUMPDEST PUSH1 0x40 MLOAD PUSH1 0x20 DUP2 DUP4 SUB SUB DUP2 MSTORE SWAP1 PUSH1 0x40 MSTORE DUP1 MLOAD SWAP1 PUSH1 0x20 ADD KECCAK256 PUSH2 0x838 JUMP JUMPDEST SWAP1 POP SWAP2 SWAP1 POP JUMP JUMPDEST PUSH1 0x0 DUP1 PUSH1 0x0 PUSH2 0x818 DUP6 DUP6 PUSH2 0x852 JUMP JUMPDEST SWAP2 POP SWAP2 POP PUSH2 0x825 DUP2 PUSH2 0x8A4 JUMP JUMPDEST DUP2 SWAP3 POP POP POP SWAP3 SWAP2 POP POP JUMP JUMPDEST PUSH1 0x0 CALLER SWAP1 POP SWAP1 JUMP JUMPDEST PUSH1 0x0 PUSH2 0x84B PUSH2 0x845 PUSH2 0xA12 JUMP JUMPDEST DUP4 PUSH2 0xB2C JUMP JUMPDEST SWAP1 POP SWAP2 SWAP1 POP JUMP JUMPDEST PUSH1 0x0 DUP1 PUSH1 0x41 DUP4 MLOAD EQ ISZERO PUSH2 0x894 JUMPI PUSH1 0x0 DUP1 PUSH1 0x0 PUSH1 0x20 DUP7 ADD MLOAD SWAP3 POP PUSH1 0x40 DUP7 ADD MLOAD SWAP2 POP PUSH1 0x60 DUP7 ADD MLOAD PUSH1 0x0 BYTE SWAP1 POP PUSH2 0x888 DUP8 DUP3 DUP6 DUP6 PUSH2 0xB5F JUMP JUMPDEST SWAP5 POP SWAP5 POP POP POP POP PUSH2 0x89D JUMP JUMPDEST PUSH1 0x0 PUSH1 0x2 SWAP2 POP SWAP2 POP JUMPDEST SWAP3 POP SWAP3 SWAP1 POP JUMP JUMPDEST PUSH1 0x0 PUSH1 0x4 DUP2 GT ISZERO PUSH2 0x8B8 JUMPI PUSH2 0x8B7 PUSH2 0x15F7 JUMP JUMPDEST JUMPDEST DUP2 PUSH1 0x4 DUP2 GT ISZERO PUSH2 0x8CB JUMPI PUSH2 0x8CA PUSH2 0x15F7 JUMP JUMPDEST JUMPDEST EQ ISZERO PUSH2 0x8D6 JUMPI PUSH2 0xA0F JUMP JUMPDEST PUSH1 0x1 PUSH1 0x4 DUP2 GT ISZERO PUSH2 0x8EA JUMPI PUSH2 0x8E9 PUSH2 0x15F7 JUMP JUMPDEST JUMPDEST DUP2 PUSH1 0x4 DUP2 GT ISZERO PUSH2 0x8FD JUMPI PUSH2 0x8FC PUSH2 0x15F7 JUMP JUMPDEST JUMPDEST EQ ISZERO PUSH2 0x93E JUMPI PUSH1 0x40 MLOAD PUSH32 0x8C379A000000000000000000000000000000000000000000000000000000000 DUP2 MSTORE PUSH1 0x4 ADD PUSH2 0x935 SWAP1 PUSH2 0x1367 JUMP JUMPDEST PUSH1 0x40 MLOAD DUP1 SWAP2 SUB SWAP1 REVERT JUMPDEST PUSH1 0x2 PUSH1 0x4 DUP2 GT ISZERO PUSH2 0x952 JUMPI PUSH2 0x951 PUSH2 0x15F7 JUMP JUMPDEST JUMPDEST DUP2 PUSH1 0x4 DUP2 GT ISZERO PUSH2 0x965 JUMPI PUSH2 0x964 PUSH2 0x15F7 JUMP JUMPDEST JUMPDEST EQ ISZERO PUSH2 0x9A6 JUMPI PUSH1 0x40 MLOAD PUSH32 0x8C379A000000000000000000000000000000000000000000000000000000000 DUP2 MSTORE PUSH1 0x4 ADD PUSH2 0x99D SWAP1 PUSH2 0x1387 JUMP JUMPDEST PUSH1 0x40 MLOAD DUP1 SWAP2 SUB SWAP1 REVERT JUMPDEST PUSH1 0x3 PUSH1 0x4 DUP2 GT ISZERO PUSH2 0x9BA JUMPI PUSH2 0x9B9 PUSH2 0x15F7 JUMP JUMPDEST JUMPDEST DUP2 PUSH1 0x4 DUP2 GT ISZERO PUSH2 0x9CD JUMPI PUSH2 0x9CC PUSH2 0x15F7 JUMP JUMPDEST JUMPDEST EQ ISZERO PUSH2 0xA0E JUMPI PUSH1 0x40 MLOAD PUSH32 0x8C379A000000000000000000000000000000000000000000000000000000000 DUP2 MSTORE PUSH1 0x4 ADD PUSH2 0xA05 SWAP1 PUSH2 0x1407 JUMP JUMPDEST PUSH1 0x40 MLOAD DUP1 SWAP2 SUB SWAP1 REVERT JUMPDEST JUMPDEST POP JUMP JUMPDEST PUSH1 0x0 PUSH32 0x0 PUSH20 0xFFFFFFFFFFFFFFFFFFFFFFFFFFFFFFFFFFFFFFFF AND ADDRESS PUSH20 0xFFFFFFFFFFFFFFFFFFFFFFFFFFFFFFFFFFFFFFFF AND EQ DUP1 ISZERO PUSH2 0xA8E JUMPI POP PUSH32 0x0 CHAINID EQ JUMPDEST ISZERO PUSH2 0xABB JUMPI PUSH32 0x0 SWAP1 POP PUSH2 0xB29 JUMP JUMPDEST PUSH2 0xB26 PUSH32 0x0 PUSH32 0x0 PUSH32 0x0 PUSH2 0xC42 JUMP JUMPDEST SWAP1 POP JUMPDEST SWAP1 JUMP JUMPDEST PUSH1 0x0 DUP3 DUP3 PUSH1 0x40 MLOAD PUSH1 0x20 ADD PUSH2 0xB41 SWAP3 SWAP2 SWAP1 PUSH2 0x1216 JUMP JUMPDEST PUSH1 0x40 MLOAD PUSH1 0x20 DUP2 DUP4 SUB SUB DUP2 MSTORE SWAP1 PUSH1 0x40 MSTORE DUP1 MLOAD SWAP1 PUSH1 0x20 ADD KECCAK256 SWAP1 POP SWAP3 SWAP2 POP POP JUMP JUMPDEST PUSH1 0x0 DUP1 PUSH32 0x7FFFFFFFFFFFFFFFFFFFFFFFFFFFFFFF5D576E7357A4501DDFE92F46681B20A0 DUP4 PUSH1 0x0 SHR GT ISZERO PUSH2 0xB9A JUMPI PUSH1 0x0 PUSH1 0x3 SWAP2 POP SWAP2 POP PUSH2 0xC39 JUMP JUMPDEST PUSH1 0x0 PUSH1 0x1 DUP8 DUP8 DUP8 DUP8 PUSH1 0x40 MLOAD PUSH1 0x0 DUP2 MSTORE PUSH1 0x20 ADD PUSH1 0x40 MSTORE PUSH1 0x40 MLOAD PUSH2 0xBBF SWAP5 SWAP4 SWAP3 SWAP2 SWAP1 PUSH2 0x1300 JUMP JUMPDEST PUSH1 0x20 PUSH1 0x40 MLOAD PUSH1 0x20 DUP2 SUB SWAP1 DUP1 DUP5 SUB SWAP1 DUP6 GAS STATICCALL ISZERO DUP1 ISZERO PUSH2 0xBE1 JUMPI RETURNDATASIZE PUSH1 0x0 DUP1 RETURNDATACOPY RETURNDATASIZE PUSH1 0x0 REVERT JUMPDEST POP POP POP PUSH1 0x20 PUSH1 0x40 MLOAD SUB MLOAD SWAP1 POP PUSH1 0x0 PUSH20 0xFFFFFFFFFFFFFFFFFFFFFFFFFFFFFFFFFFFFFFFF AND DUP2 PUSH20 0xFFFFFFFFFFFFFFFFFFFFFFFFFFFFFFFFFFFFFFFF AND EQ ISZERO PUSH2 0xC30 JUMPI PUSH1 0x0 PUSH1 0x1 SWAP3 POP SWAP3 POP POP PUSH2 0xC39 JUMP JUMPDEST DUP1 PUSH1 0x0 SWAP3 POP SWAP3 POP POP JUMPDEST SWAP5 POP SWAP5 SWAP3 POP POP POP JUMP JUMPDEST PUSH1 0x0 DUP4 DUP4 DUP4 CHAINID ADDRESS PUSH1 0x40 MLOAD PUSH1 0x20 ADD PUSH2 0xC5D SWAP6 SWAP5 SWAP4 SWAP3 SWAP2 SWAP1 PUSH2 0x12AD JUMP JUMPDEST PUSH1 0x40 MLOAD PUSH1 0x20 DUP2 DUP4 SUB SUB DUP2 MSTORE SWAP1 PUSH1 0x40 MSTORE DUP1 MLOAD SWAP1 PUSH1 0x20 ADD KECCAK256 SWAP1 POP SWAP4 SWAP3 POP POP POP JUMP JUMPDEST DUP3 DUP1 SLOAD PUSH2 0xC88 SWAP1 PUSH2 0x158A JUMP JUMPDEST SWAP1 PUSH1 0x0 MSTORE PUSH1 0x20 PUSH1 0x0 KECCAK256 SWAP1 PUSH1 0x1F ADD PUSH1 0x20 SWAP1 DIV DUP2 ADD SWAP3 DUP3 PUSH2 0xCAA JUMPI PUSH1 0x0 DUP6 SSTORE PUSH2 0xCF1 JUMP JUMPDEST DUP3 PUSH1 0x1F LT PUSH2 0xCC3 JUMPI DUP1 MLOAD PUSH1 0xFF NOT AND DUP4 DUP1 ADD OR DUP6 SSTORE PUSH2 0xCF1 JUMP JUMPDEST DUP3 DUP1 ADD PUSH1 0x1 ADD DUP6 SSTORE DUP3 ISZERO PUSH2 0xCF1 JUMPI SWAP2 DUP3 ADD JUMPDEST DUP3 DUP2 GT ISZERO PUSH2 0xCF0 JUMPI DUP3 MLOAD DUP3 SSTORE SWAP2 PUSH1 0x20 ADD SWAP2 SWAP1 PUSH1 0x1 ADD SWAP1 PUSH2 0xCD5 JUMP JUMPDEST JUMPDEST POP SWAP1 POP PUSH2 0xCFE SWAP2 SWAP1 PUSH2 0xD02 JUMP JUMPDEST POP SWAP1 JUMP JUMPDEST JUMPDEST DUP1 DUP3 GT ISZERO PUSH2 0xD1B JUMPI PUSH1 0x0 DUP2 PUSH1 0x0 SWAP1 SSTORE POP PUSH1 0x1 ADD PUSH2 0xD03 JUMP JUMPDEST POP SWAP1 JUMP JUMPDEST PUSH1 0x0 PUSH2 0xD32 PUSH2 0xD2D DUP5 PUSH2 0x146C JUMP JUMPDEST PUSH2 0x1447 JUMP JUMPDEST SWAP1 POP DUP3 DUP2 MSTORE PUSH1 0x20 DUP2 ADD DUP5 DUP5 DUP5 ADD GT ISZERO PUSH2 0xD4E JUMPI PUSH2 0xD4D PUSH2 0x1693 JUMP JUMPDEST JUMPDEST PUSH2 0xD59 DUP5 DUP3 DUP6 PUSH2 0x1548 JUMP JUMPDEST POP SWAP4 SWAP3 POP POP POP JUMP JUMPDEST PUSH1 0x0 PUSH2 0xD74 PUSH2 0xD6F DUP5 PUSH2 0x149D JUMP JUMPDEST PUSH2 0x1447 JUMP JUMPDEST SWAP1 POP DUP3 DUP2 MSTORE PUSH1 0x20 DUP2 ADD DUP5 DUP5 DUP5 ADD GT ISZERO PUSH2 0xD90 JUMPI PUSH2 0xD8F PUSH2 0x1693 JUMP JUMPDEST JUMPDEST PUSH2 0xD9B DUP5 DUP3 DUP6 PUSH2 0x1548 JUMP JUMPDEST POP SWAP4 SWAP3 POP POP POP JUMP JUMPDEST PUSH1 0x0 DUP2 CALLDATALOAD SWAP1 POP PUSH2 0xDB2 DUP2 PUSH2 0x186D JUMP JUMPDEST SWAP3 SWAP2 POP POP JUMP JUMPDEST PUSH1 0x0 DUP3 PUSH1 0x1F DUP4 ADD SLT PUSH2 0xDCD JUMPI PUSH2 0xDCC PUSH2 0x1684 JUMP JUMPDEST JUMPDEST DUP2 CALLDATALOAD PUSH2 0xDDD DUP5 DUP3 PUSH1 0x20 DUP7 ADD PUSH2 0xD1F JUMP JUMPDEST SWAP2 POP POP SWAP3 SWAP2 POP POP JUMP JUMPDEST PUSH1 0x0 DUP3 PUSH1 0x1F DUP4 ADD SLT PUSH2 0xDFB JUMPI PUSH2 0xDFA PUSH2 0x1684 JUMP JUMPDEST JUMPDEST DUP2 CALLDATALOAD PUSH2 0xE0B DUP5 DUP3 PUSH1 0x20 DUP7 ADD PUSH2 0xD61 JUMP JUMPDEST SWAP2 POP POP SWAP3 SWAP2 POP POP JUMP JUMPDEST PUSH1 0x0 PUSH1 0x80 DUP3 DUP5 SUB SLT ISZERO PUSH2 0xE2A JUMPI PUSH2 0xE29 PUSH2 0x1689 JUMP JUMPDEST JUMPDEST PUSH2 0xE34 PUSH1 0x80 PUSH2 0x1447 JUMP JUMPDEST SWAP1 POP PUSH1 0x0 DUP3 ADD CALLDATALOAD PUSH8 0xFFFFFFFFFFFFFFFF DUP2 GT ISZERO PUSH2 0xE54 JUMPI PUSH2 0xE53 PUSH2 0x168E JUMP JUMPDEST JUMPDEST PUSH2 0xE60 DUP5 DUP3 DUP6 ADD PUSH2 0xDE6 JUMP JUMPDEST PUSH1 0x0 DUP4 ADD MSTORE POP PUSH1 0x20 DUP3 ADD CALLDATALOAD PUSH8 0xFFFFFFFFFFFFFFFF DUP2 GT ISZERO PUSH2 0xE84 JUMPI PUSH2 0xE83 PUSH2 0x168E JUMP JUMPDEST JUMPDEST PUSH2 0xE90 DUP5 DUP3 DUP6 ADD PUSH2 0xDE6 JUMP JUMPDEST PUSH1 0x20 DUP4 ADD MSTORE POP PUSH1 0x40 PUSH2 0xEA4 DUP5 DUP3 DUP6 ADD PUSH2 0xDA3 JUMP JUMPDEST PUSH1 0x40 DUP4 ADD MSTORE POP PUSH1 0x60 DUP3 ADD CALLDATALOAD PUSH8 0xFFFFFFFFFFFFFFFF DUP2 GT ISZERO PUSH2 0xEC8 JUMPI PUSH2 0xEC7 PUSH2 0x168E JUMP JUMPDEST JUMPDEST PUSH2 0xED4 DUP5 DUP3 DUP6 ADD PUSH2 0xDB8 JUMP JUMPDEST PUSH1 0x60 DUP4 ADD MSTORE POP SWAP3 SWAP2 POP POP JUMP JUMPDEST PUSH1 0x0 PUSH1 0x20 DUP3 DUP5 SUB SLT ISZERO PUSH2 0xEF6 JUMPI PUSH2 0xEF5 PUSH2 0x169D JUMP JUMPDEST JUMPDEST PUSH1 0x0 PUSH2 0xF04 DUP5 DUP3 DUP6 ADD PUSH2 0xDA3 JUMP JUMPDEST SWAP2 POP POP SWAP3 SWAP2 POP POP JUMP JUMPDEST PUSH1 0x0 DUP1 PUSH1 0x40 DUP4 DUP6 SUB SLT ISZERO PUSH2 0xF24 JUMPI PUSH2 0xF23 PUSH2 0x169D JUMP JUMPDEST JUMPDEST PUSH1 0x0 PUSH2 0xF32 DUP6 DUP3 DUP7 ADD PUSH2 0xDA3 JUMP JUMPDEST SWAP3 POP POP PUSH1 0x20 DUP4 ADD CALLDATALOAD PUSH8 0xFFFFFFFFFFFFFFFF DUP2 GT ISZERO PUSH2 0xF53 JUMPI PUSH2 0xF52 PUSH2 0x1698 JUMP JUMPDEST JUMPDEST PUSH2 0xF5F DUP6 DUP3 DUP7 ADD PUSH2 0xDE6 JUMP JUMPDEST SWAP2 POP POP SWAP3 POP SWAP3 SWAP1 POP JUMP JUMPDEST PUSH1 0x0 DUP1 PUSH1 0x40 DUP4 DUP6 SUB SLT ISZERO PUSH2 0xF80 JUMPI PUSH2 0xF7F PUSH2 0x169D JUMP JUMPDEST JUMPDEST PUSH1 0x0 DUP4 ADD CALLDATALOAD PUSH8 0xFFFFFFFFFFFFFFFF DUP2 GT ISZERO PUSH2 0xF9E JUMPI PUSH2 0xF9D PUSH2 0x1698 JUMP JUMPDEST JUMPDEST PUSH2 0xFAA DUP6 DUP3 DUP7 ADD PUSH2 0xDE6 JUMP JUMPDEST SWAP3 POP POP PUSH1 0x20 DUP4 ADD CALLDATALOAD PUSH8 0xFFFFFFFFFFFFFFFF DUP2 GT ISZERO PUSH2 0xFCB JUMPI PUSH2 0xFCA PUSH2 0x1698 JUMP JUMPDEST JUMPDEST PUSH2 0xFD7 DUP6 DUP3 DUP7 ADD PUSH2 0xDE6 JUMP JUMPDEST SWAP2 POP POP SWAP3 POP SWAP3 SWAP1 POP JUMP JUMPDEST PUSH1 0x0 PUSH1 0x20 DUP3 DUP5 SUB SLT ISZERO PUSH2 0xFF7 JUMPI PUSH2 0xFF6 PUSH2 0x169D JUMP JUMPDEST JUMPDEST PUSH1 0x0 DUP3 ADD CALLDATALOAD PUSH8 0xFFFFFFFFFFFFFFFF DUP2 GT ISZERO PUSH2 0x1015 JUMPI PUSH2 0x1014 PUSH2 0x1698 JUMP JUMPDEST JUMPDEST PUSH2 0x1021 DUP5 DUP3 DUP6 ADD PUSH2 0xE14 JUMP JUMPDEST SWAP2 POP POP SWAP3 SWAP2 POP POP JUMP JUMPDEST PUSH2 0x1033 DUP2 PUSH2 0x14F5 JUMP JUMPDEST DUP3 MSTORE POP POP JUMP JUMPDEST PUSH2 0x1042 DUP2 PUSH2 0x1507 JUMP JUMPDEST DUP3 MSTORE POP POP JUMP JUMPDEST PUSH2 0x1059 PUSH2 0x1054 DUP3 PUSH2 0x1507 JUMP JUMPDEST PUSH2 0x15ED JUMP JUMPDEST DUP3 MSTORE POP POP JUMP JUMPDEST PUSH1 0x0 PUSH2 0x106A DUP3 PUSH2 0x14CE JUMP JUMPDEST PUSH2 0x1074 DUP2 DUP6 PUSH2 0x14D9 JUMP JUMPDEST SWAP4 POP PUSH2 0x1084 DUP2 DUP6 PUSH1 0x20 DUP7 ADD PUSH2 0x1557 JUMP JUMPDEST PUSH2 0x108D DUP2 PUSH2 0x16A2 JUMP JUMPDEST DUP5 ADD SWAP2 POP POP SWAP3 SWAP2 POP POP JUMP JUMPDEST PUSH1 0x0 PUSH2 0x10A3 DUP3 PUSH2 0x14CE JUMP JUMPDEST PUSH2 0x10AD DUP2 DUP6 PUSH2 0x14EA JUMP JUMPDEST SWAP4 POP PUSH2 0x10BD DUP2 DUP6 PUSH1 0x20 DUP7 ADD PUSH2 0x1557 JUMP JUMPDEST DUP1 DUP5 ADD SWAP2 POP POP SWAP3 SWAP2 POP POP JUMP JUMPDEST PUSH1 0x0 PUSH2 0x10D6 PUSH1 0x18 DUP4 PUSH2 0x14D9 JUMP JUMPDEST SWAP2 POP PUSH2 0x10E1 DUP3 PUSH2 0x16B3 JUMP JUMPDEST PUSH1 0x20 DUP3 ADD SWAP1 POP SWAP2 SWAP1 POP JUMP JUMPDEST PUSH1 0x0 PUSH2 0x10F9 PUSH1 0x1F DUP4 PUSH2 0x14D9 JUMP JUMPDEST SWAP2 POP PUSH2 0x1104 DUP3 PUSH2 0x16DC JUMP JUMPDEST PUSH1 0x20 DUP3 ADD SWAP1 POP SWAP2 SWAP1 POP JUMP JUMPDEST PUSH1 0x0 PUSH2 0x111C PUSH1 0x33 DUP4 PUSH2 0x14D9 JUMP JUMPDEST SWAP2 POP PUSH2 0x1127 DUP3 PUSH2 0x1705 JUMP JUMPDEST PUSH1 0x40 DUP3 ADD SWAP1 POP SWAP2 SWAP1 POP JUMP JUMPDEST PUSH1 0x0 PUSH2 0x113F PUSH1 0x1C DUP4 PUSH2 0x14D9 JUMP JUMPDEST SWAP2 POP PUSH2 0x114A DUP3 PUSH2 0x1754 JUMP JUMPDEST PUSH1 0x20 DUP3 ADD SWAP1 POP SWAP2 SWAP1 POP JUMP JUMPDEST PUSH1 0x0 PUSH2 0x1162 PUSH1 0x26 DUP4 PUSH2 0x14D9 JUMP JUMPDEST SWAP2 POP PUSH2 0x116D DUP3 PUSH2 0x177D JUMP JUMPDEST PUSH1 0x40 DUP3 ADD SWAP1 POP SWAP2 SWAP1 POP JUMP JUMPDEST PUSH1 0x0 PUSH2 0x1185 PUSH1 0x2 DUP4 PUSH2 0x14EA JUMP JUMPDEST SWAP2 POP PUSH2 0x1190 DUP3 PUSH2 0x17CC JUMP JUMPDEST PUSH1 0x2 DUP3 ADD SWAP1 POP SWAP2 SWAP1 POP JUMP JUMPDEST PUSH1 0x0 PUSH2 0x11A8 PUSH1 0x22 DUP4 PUSH2 0x14D9 JUMP JUMPDEST SWAP2 POP PUSH2 0x11B3 DUP3 PUSH2 0x17F5 JUMP JUMPDEST PUSH1 0x40 DUP3 ADD SWAP1 POP SWAP2 SWAP1 POP JUMP JUMPDEST PUSH1 0x0 PUSH2 0x11CB PUSH1 0x20 DUP4 PUSH2 0x14D9 JUMP JUMPDEST SWAP2 POP PUSH2 0x11D6 DUP3 PUSH2 0x1844 JUMP JUMPDEST PUSH1 0x20 DUP3 ADD SWAP1 POP SWAP2 SWAP1 POP JUMP JUMPDEST PUSH2 0x11EA DUP2 PUSH2 0x1531 JUMP JUMPDEST DUP3 MSTORE POP POP JUMP JUMPDEST PUSH2 0x11F9 DUP2 PUSH2 0x153B JUMP JUMPDEST DUP3 MSTORE POP POP JUMP JUMPDEST PUSH1 0x0 PUSH2 0x120B DUP3 DUP5 PUSH2 0x1098 JUMP JUMPDEST SWAP2 POP DUP2 SWAP1 POP SWAP3 SWAP2 POP POP JUMP JUMPDEST PUSH1 0x0 PUSH2 0x1221 DUP3 PUSH2 0x1178 JUMP JUMPDEST SWAP2 POP PUSH2 0x122D DUP3 DUP6 PUSH2 0x1048 JUMP JUMPDEST PUSH1 0x20 DUP3 ADD SWAP2 POP PUSH2 0x123D DUP3 DUP5 PUSH2 0x1048 JUMP JUMPDEST PUSH1 0x20 DUP3 ADD SWAP2 POP DUP2 SWAP1 POP SWAP4 SWAP3 POP POP POP JUMP JUMPDEST PUSH1 0x0 PUSH1 0x20 DUP3 ADD SWAP1 POP PUSH2 0x1262 PUSH1 0x0 DUP4 ADD DUP5 PUSH2 0x102A JUMP JUMPDEST SWAP3 SWAP2 POP POP JUMP JUMPDEST PUSH1 0x0 PUSH1 0x80 DUP3 ADD SWAP1 POP PUSH2 0x127D PUSH1 0x0 DUP4 ADD DUP8 PUSH2 0x1039 JUMP JUMPDEST PUSH2 0x128A PUSH1 0x20 DUP4 ADD DUP7 PUSH2 0x1039 JUMP JUMPDEST PUSH2 0x1297 PUSH1 0x40 DUP4 ADD DUP6 PUSH2 0x1039 JUMP JUMPDEST PUSH2 0x12A4 PUSH1 0x60 DUP4 ADD DUP5 PUSH2 0x102A JUMP JUMPDEST SWAP6 SWAP5 POP POP POP POP POP JUMP JUMPDEST PUSH1 0x0 PUSH1 0xA0 DUP3 ADD SWAP1 POP PUSH2 0x12C2 PUSH1 0x0 DUP4 ADD DUP9 PUSH2 0x1039 JUMP JUMPDEST PUSH2 0x12CF PUSH1 0x20 DUP4 ADD DUP8 PUSH2 0x1039 JUMP JUMPDEST PUSH2 0x12DC PUSH1 0x40 DUP4 ADD DUP7 PUSH2 0x1039 JUMP JUMPDEST PUSH2 0x12E9 PUSH1 0x60 DUP4 ADD DUP6 PUSH2 0x11E1 JUMP JUMPDEST PUSH2 0x12F6 PUSH1 0x80 DUP4 ADD DUP5 PUSH2 0x102A JUMP JUMPDEST SWAP7 SWAP6 POP POP POP POP POP POP JUMP JUMPDEST PUSH1 0x0 PUSH1 0x80 DUP3 ADD SWAP1 POP PUSH2 0x1315 PUSH1 0x0 DUP4 ADD DUP8 PUSH2 0x1039 JUMP JUMPDEST PUSH2 0x1322 PUSH1 0x20 DUP4 ADD DUP7 PUSH2 0x11F0 JUMP JUMPDEST PUSH2 0x132F PUSH1 0x40 DUP4 ADD DUP6 PUSH2 0x1039 JUMP JUMPDEST PUSH2 0x133C PUSH1 0x60 DUP4 ADD DUP5 PUSH2 0x1039 JUMP JUMPDEST SWAP6 SWAP5 POP POP POP POP POP JUMP JUMPDEST PUSH1 0x0 PUSH1 0x20 DUP3 ADD SWAP1 POP DUP2 DUP2 SUB PUSH1 0x0 DUP4 ADD MSTORE PUSH2 0x135F DUP2 DUP5 PUSH2 0x105F JUMP JUMPDEST SWAP1 POP SWAP3 SWAP2 POP POP JUMP JUMPDEST PUSH1 0x0 PUSH1 0x20 DUP3 ADD SWAP1 POP DUP2 DUP2 SUB PUSH1 0x0 DUP4 ADD MSTORE PUSH2 0x1380 DUP2 PUSH2 0x10C9 JUMP JUMPDEST SWAP1 POP SWAP2 SWAP1 POP JUMP JUMPDEST PUSH1 0x0 PUSH1 0x20 DUP3 ADD SWAP1 POP DUP2 DUP2 SUB PUSH1 0x0 DUP4 ADD MSTORE PUSH2 0x13A0 DUP2 PUSH2 0x10EC JUMP JUMPDEST SWAP1 POP SWAP2 SWAP1 POP JUMP JUMPDEST PUSH1 0x0 PUSH1 0x20 DUP3 ADD SWAP1 POP DUP2 DUP2 SUB PUSH1 0x0 DUP4 ADD MSTORE PUSH2 0x13C0 DUP2 PUSH2 0x110F JUMP JUMPDEST SWAP1 POP SWAP2 SWAP1 POP JUMP JUMPDEST PUSH1 0x0 PUSH1 0x20 DUP3 ADD SWAP1 POP DUP2 DUP2 SUB PUSH1 0x0 DUP4 ADD MSTORE PUSH2 0x13E0 DUP2 PUSH2 0x1132 JUMP JUMPDEST SWAP1 POP SWAP2 SWAP1 POP JUMP JUMPDEST PUSH1 0x0 PUSH1 0x20 DUP3 ADD SWAP1 POP DUP2 DUP2 SUB PUSH1 0x0 DUP4 ADD MSTORE PUSH2 0x1400 DUP2 PUSH2 0x1155 JUMP JUMPDEST SWAP1 POP SWAP2 SWAP1 POP JUMP JUMPDEST PUSH1 0x0 PUSH1 0x20 DUP3 ADD SWAP1 POP DUP2 DUP2 SUB PUSH1 0x0 DUP4 ADD MSTORE PUSH2 0x1420 DUP2 PUSH2 0x119B JUMP JUMPDEST SWAP1 POP SWAP2 SWAP1 POP JUMP JUMPDEST PUSH1 0x0 PUSH1 0x20 DUP3 ADD SWAP1 POP DUP2 DUP2 SUB PUSH1 0x0 DUP4 ADD MSTORE PUSH2 0x1440 DUP2 PUSH2 0x11BE JUMP JUMPDEST SWAP1 POP SWAP2 SWAP1 POP JUMP JUMPDEST PUSH1 0x0 PUSH2 0x1451 PUSH2 0x1462 JUMP JUMPDEST SWAP1 POP PUSH2 0x145D DUP3 DUP3 PUSH2 0x15BC JUMP JUMPDEST SWAP2 SWAP1 POP JUMP JUMPDEST PUSH1 0x0 PUSH1 0x40 MLOAD SWAP1 POP SWAP1 JUMP JUMPDEST PUSH1 0x0 PUSH8 0xFFFFFFFFFFFFFFFF DUP3 GT ISZERO PUSH2 0x1487 JUMPI PUSH2 0x1486 PUSH2 0x1655 JUMP JUMPDEST JUMPDEST PUSH2 0x1490 DUP3 PUSH2 0x16A2 JUMP JUMPDEST SWAP1 POP PUSH1 0x20 DUP2 ADD SWAP1 POP SWAP2 SWAP1 POP JUMP JUMPDEST PUSH1 0x0 PUSH8 0xFFFFFFFFFFFFFFFF DUP3 GT ISZERO PUSH2 0x14B8 JUMPI PUSH2 0x14B7 PUSH2 0x1655 JUMP JUMPDEST JUMPDEST PUSH2 0x14C1 DUP3 PUSH2 0x16A2 JUMP JUMPDEST SWAP1 POP PUSH1 0x20 DUP2 ADD SWAP1 POP SWAP2 SWAP1 POP JUMP JUMPDEST PUSH1 0x0 DUP2 MLOAD SWAP1 POP SWAP2 SWAP1 POP JUMP JUMPDEST PUSH1 0x0 DUP3 DUP3 MSTORE PUSH1 0x20 DUP3 ADD SWAP1 POP SWAP3 SWAP2 POP POP JUMP JUMPDEST PUSH1 0x0 DUP2 SWAP1 POP SWAP3 SWAP2 POP POP JUMP JUMPDEST PUSH1 0x0 PUSH2 0x1500 DUP3 PUSH2 0x1511 JUMP JUMPDEST SWAP1 POP SWAP2 SWAP1 POP JUMP JUMPDEST PUSH1 0x0 DUP2 SWAP1 POP SWAP2 SWAP1 POP JUMP JUMPDEST PUSH1 0x0 PUSH20 0xFFFFFFFFFFFFFFFFFFFFFFFFFFFFFFFFFFFFFFFF DUP3 AND SWAP1 POP SWAP2 SWAP1 POP JUMP JUMPDEST PUSH1 0x0 DUP2 SWAP1 POP SWAP2 SWAP1 POP JUMP JUMPDEST PUSH1 0x0 PUSH1 0xFF DUP3 AND SWAP1 POP SWAP2 SWAP1 POP JUMP JUMPDEST DUP3 DUP2 DUP4 CALLDATACOPY PUSH1 0x0 DUP4 DUP4 ADD MSTORE POP POP POP JUMP JUMPDEST PUSH1 0x0 JUMPDEST DUP4 DUP2 LT ISZERO PUSH2 0x1575 JUMPI DUP1 DUP3 ADD MLOAD DUP2 DUP5 ADD MSTORE PUSH1 0x20 DUP2 ADD SWAP1 POP PUSH2 0x155A JUMP JUMPDEST DUP4 DUP2 GT ISZERO PUSH2 0x1584 JUMPI PUSH1 0x0 DUP5 DUP5 ADD MSTORE JUMPDEST POP POP POP POP JUMP JUMPDEST PUSH1 0x0 PUSH1 0x2 DUP3 DIV SWAP1 POP PUSH1 0x1 DUP3 AND DUP1 PUSH2 0x15A2 JUMPI PUSH1 0x7F DUP3 AND SWAP2 POP JUMPDEST PUSH1 0x20 DUP3 LT DUP2 EQ ISZERO PUSH2 0x15B6 JUMPI PUSH2 0x15B5 PUSH2 0x1626 JUMP JUMPDEST JUMPDEST POP SWAP2 SWAP1 POP JUMP JUMPDEST PUSH2 0x15C5 DUP3 PUSH2 0x16A2 JUMP JUMPDEST DUP2 ADD DUP2 DUP2 LT PUSH8 0xFFFFFFFFFFFFFFFF DUP3 GT OR ISZERO PUSH2 0x15E4 JUMPI PUSH2 0x15E3 PUSH2 0x1655 JUMP JUMPDEST JUMPDEST DUP1 PUSH1 0x40 MSTORE POP POP POP JUMP JUMPDEST PUSH1 0x0 DUP2 SWAP1 POP SWAP2 SWAP1 POP JUMP JUMPDEST PUSH32 0x4E487B7100000000000000000000000000000000000000000000000000000000 PUSH1 0x0 MSTORE PUSH1 0x21 PUSH1 0x4 MSTORE PUSH1 0x24 PUSH1 0x0 REVERT JUMPDEST PUSH32 0x4E487B7100000000000000000000000000000000000000000000000000000000 PUSH1 0x0 MSTORE PUSH1 0x22 PUSH1 0x4 MSTORE PUSH1 0x24 PUSH1 0x0 REVERT JUMPDEST PUSH32 0x4E487B7100000000000000000000000000000000000000000000000000000000 PUSH1 0x0 MSTORE PUSH1 0x41 PUSH1 0x4 MSTORE PUSH1 0x24 PUSH1 0x0 REVERT JUMPDEST PUSH1 0x0 DUP1 REVERT JUMPDEST PUSH1 0x0 DUP1 REVERT JUMPDEST PUSH1 0x0 DUP1 REVERT JUMPDEST PUSH1 0x0 DUP1 REVERT JUMPDEST PUSH1 0x0 DUP1 REVERT JUMPDEST PUSH1 0x0 DUP1 REVERT JUMPDEST PUSH1 0x0 PUSH1 0x1F NOT PUSH1 0x1F DUP4 ADD AND SWAP1 POP SWAP2 SWAP1 POP JUMP JUMPDEST PUSH32 0x45434453413A20696E76616C6964207369676E61747572650000000000000000 PUSH1 0x0 DUP3 ADD MSTORE POP JUMP JUMPDEST PUSH32 0x45434453413A20696E76616C6964207369676E6174757265206C656E67746800 PUSH1 0x0 DUP3 ADD MSTORE POP JUMP JUMPDEST PUSH32 0x496E636F72726563746C79207369676E6564206461746120736F757263652076 PUSH1 0x0 DUP3 ADD MSTORE PUSH32 0x6572696669636174696F6E207265717565737400000000000000000000000000 PUSH1 0x20 DUP3 ADD MSTORE POP JUMP JUMPDEST PUSH32 0x4461746120536F7572636520416C726561647920566572696669656400000000 PUSH1 0x0 DUP3 ADD MSTORE POP JUMP JUMPDEST PUSH32 0x4F776E61626C653A206E6577206F776E657220697320746865207A65726F2061 PUSH1 0x0 DUP3 ADD MSTORE PUSH32 0x6464726573730000000000000000000000000000000000000000000000000000 PUSH1 0x20 DUP3 ADD MSTORE POP JUMP JUMPDEST PUSH32 0x1901000000000000000000000000000000000000000000000000000000000000 PUSH1 0x0 DUP3 ADD MSTORE POP JUMP JUMPDEST PUSH32 0x45434453413A20696E76616C6964207369676E6174757265202773272076616C PUSH1 0x0 DUP3 ADD MSTORE PUSH32 0x7565000000000000000000000000000000000000000000000000000000000000 PUSH1 0x20 DUP3 ADD MSTORE POP JUMP JUMPDEST PUSH32 0x4F776E61626C653A2063616C6C6572206973206E6F7420746865206F776E6572 PUSH1 0x0 DUP3 ADD MSTORE POP JUMP JUMPDEST PUSH2 0x1876 DUP2 PUSH2 0x14F5 JUMP JUMPDEST DUP2 EQ PUSH2 0x1881 JUMPI PUSH1 0x0 DUP1 REVERT JUMPDEST POP JUMP INVALID LOG2 PUSH5 0x6970667358 0x22 SLT KECCAK256 EXTCODEHASH 0xC8 SWAP4 PUSH13 0xFA661B83A5A89EF600029E4C02 DUP13 COINBASE SDIV 0xC PUSH7 0x3F358A0C05C1C7 DUP10 0xC6 GASPRICE PUSH5 0x736F6C6343 STOP ADDMOD SMOD STOP CALLER "
				},
				"gasEstimates": {
					"creation": {
						"codeDepositCost": "1266000",
						"executionCost": "infinite",
						"totalCost": "infinite"
					},
					"external": {
						"add_name((string,string,address,bytes))": "infinite",
						"add_to_source_map(address,string)": "infinite",
						"getSigner((string,string,address,bytes))": "infinite",
						"owner()": "2522",
						"renounceOwnership()": "30465",
						"setRouterCreator(address)": "27030",
						"source_to_add_map(string,string)": "infinite",
						"transferOwnership(address)": "30813"
					}
				},
				"methodIdentifiers": {
					"add_name((string,string,address,bytes))": "b24a5e0d",
					"add_to_source_map(address,string)": "68dfffbd",
					"getSigner((string,string,address,bytes))": "30f89e29",
					"owner()": "8da5cb5b",
					"renounceOwnership()": "715018a6",
					"setRouterCreator(address)": "b2969a2e",
					"source_to_add_map(string,string)": "2dffb6ce",
					"transferOwnership(address)": "f2fde38b"
				}
			},
			"storageLayout": {
				"storage": [
					{
						"astId": 7,
						"contract": "contracts/DataOnboarder.sol:DataOnboarder",
						"label": "_owner",
						"offset": 0,
						"slot": "0",
						"type": "t_address"
					},
					{
						"astId": 1706,
						"contract": "contracts/DataOnboarder.sol:DataOnboarder",
						"label": "add_to_source_map",
						"offset": 0,
						"slot": "1",
						"type": "t_mapping(t_address,t_mapping(t_string_memory_ptr,t_string_storage))"
					},
					{
						"astId": 1712,
						"contract": "contracts/DataOnboarder.sol:DataOnboarder",
						"label": "source_to_add_map",
						"offset": 0,
						"slot": "2",
						"type": "t_mapping(t_string_memory_ptr,t_mapping(t_string_memory_ptr,t_address))"
					},
					{
						"astId": 1714,
						"contract": "contracts/DataOnboarder.sol:DataOnboarder",
						"label": "router_creator",
						"offset": 0,
						"slot": "3",
						"type": "t_address"
					}
				],
				"types": {
					"t_address": {
						"encoding": "inplace",
						"label": "address",
						"numberOfBytes": "20"
					},
					"t_mapping(t_address,t_mapping(t_string_memory_ptr,t_string_storage))": {
						"encoding": "mapping",
						"key": "t_address",
						"label": "mapping(address => mapping(string => string))",
						"numberOfBytes": "32",
						"value": "t_mapping(t_string_memory_ptr,t_string_storage)"
					},
					"t_mapping(t_string_memory_ptr,t_address)": {
						"encoding": "mapping",
						"key": "t_string_memory_ptr",
						"label": "mapping(string => address)",
						"numberOfBytes": "32",
						"value": "t_address"
					},
					"t_mapping(t_string_memory_ptr,t_mapping(t_string_memory_ptr,t_address))": {
						"encoding": "mapping",
						"key": "t_string_memory_ptr",
						"label": "mapping(string => mapping(string => address))",
						"numberOfBytes": "32",
						"value": "t_mapping(t_string_memory_ptr,t_address)"
					},
					"t_mapping(t_string_memory_ptr,t_string_storage)": {
						"encoding": "mapping",
						"key": "t_string_memory_ptr",
						"label": "mapping(string => string)",
						"numberOfBytes": "32",
						"value": "t_string_storage"
					},
					"t_string_memory_ptr": {
						"encoding": "bytes",
						"label": "string",
						"numberOfBytes": "32"
					},
					"t_string_storage": {
						"encoding": "bytes",
						"label": "string",
						"numberOfBytes": "32"
					}
				}
			},
			"userdoc": {
				"kind": "user",
				"methods": {},
				"version": 1
			}
		}
	}
}