{
	"contracts/Journal3Jobs.sol": {
		"Journal3Jobs": {
			"abi": [
				{
					"inputs": [
						{
							"internalType": "address",
							"name": "jou_address",
							"type": "address"
						},
						{
							"internalType": "address",
							"name": "skill_std",
							"type": "address"
						}
					],
					"stateMutability": "nonpayable",
					"type": "constructor"
				},
				{
					"anonymous": false,
					"inputs": [
						{
							"indexed": true,
							"internalType": "address",
							"name": "previousOwner",
							"type": "address"
						},
						{
							"indexed": true,
							"internalType": "address",
							"name": "newOwner",
							"type": "address"
						}
					],
					"name": "OwnershipTransferred",
					"type": "event"
				},
				{
					"anonymous": false,
					"inputs": [
						{
							"indexed": false,
							"internalType": "uint256",
							"name": "idx",
							"type": "uint256"
						},
						{
							"indexed": false,
							"internalType": "uint256",
							"name": "amount",
							"type": "uint256"
						}
					],
					"name": "staking_successful",
					"type": "event"
				},
				{
					"inputs": [
						{
							"internalType": "uint256",
							"name": "",
							"type": "uint256"
						}
					],
					"name": "all_jobs",
					"outputs": [
						{
							"internalType": "bytes32",
							"name": "metadata_ipfs",
							"type": "bytes32"
						},
						{
							"internalType": "uint256",
							"name": "jou_staked",
							"type": "uint256"
						},
						{
							"internalType": "bool",
							"name": "is_active",
							"type": "bool"
						},
						{
							"internalType": "address",
							"name": "closing_indexer",
							"type": "address"
						},
						{
							"internalType": "bool",
							"name": "gasless_experience",
							"type": "bool"
						},
						{
							"internalType": "uint256",
							"name": "root",
							"type": "uint256"
						}
					],
					"stateMutability": "view",
					"type": "function"
				},
				{
					"inputs": [
						{
							"internalType": "uint256",
							"name": "idx",
							"type": "uint256"
						}
					],
					"name": "apply_job",
					"outputs": [],
					"stateMutability": "nonpayable",
					"type": "function"
				},
				{
					"inputs": [],
					"name": "claim_loyalties",
					"outputs": [],
					"stateMutability": "nonpayable",
					"type": "function"
				},
				{
					"inputs": [
						{
							"internalType": "uint256",
							"name": "idx",
							"type": "uint256"
						}
					],
					"name": "close_job",
					"outputs": [
						{
							"internalType": "bool",
							"name": "",
							"type": "bool"
						}
					],
					"stateMutability": "nonpayable",
					"type": "function"
				},
				{
					"inputs": [
						{
							"internalType": "bytes32",
							"name": "metadata_ipfs",
							"type": "bytes32"
						},
						{
							"internalType": "uint256[]",
							"name": "qualifications",
							"type": "uint256[]"
						},
						{
							"internalType": "uint256[][]",
							"name": "qualification_filtering",
							"type": "uint256[][]"
						},
						{
							"components": [
								{
									"internalType": "uint256",
									"name": "checkpoint_addr",
									"type": "uint256"
								},
								{
									"internalType": "string",
									"name": "checkpoint_name",
									"type": "string"
								},
								{
									"internalType": "address[]",
									"name": "candidates",
									"type": "address[]"
								}
							],
							"internalType": "struct Checkpoints[]",
							"name": "checkpoints",
							"type": "tuple[]"
						},
						{
							"internalType": "uint256",
							"name": "checkpoint_size",
							"type": "uint256"
						},
						{
							"internalType": "uint256",
							"name": "qualifications_size",
							"type": "uint256"
						},
						{
							"internalType": "uint256",
							"name": "root",
							"type": "uint256"
						},
						{
							"internalType": "address",
							"name": "closing_indexer",
							"type": "address"
						}
					],
					"name": "createJob",
					"outputs": [
						{
							"internalType": "bool",
							"name": "",
							"type": "bool"
						}
					],
					"stateMutability": "nonpayable",
					"type": "function"
				},
				{
					"inputs": [],
					"name": "owner",
					"outputs": [
						{
							"internalType": "address",
							"name": "",
							"type": "address"
						}
					],
					"stateMutability": "view",
					"type": "function"
				},
				{
					"inputs": [],
					"name": "renounceOwnership",
					"outputs": [],
					"stateMutability": "nonpayable",
					"type": "function"
				},
				{
					"inputs": [
						{
							"internalType": "uint256",
							"name": "idx",
							"type": "uint256"
						},
						{
							"internalType": "uint256",
							"name": "amount",
							"type": "uint256"
						}
					],
					"name": "stake_jou_job",
					"outputs": [],
					"stateMutability": "nonpayable",
					"type": "function"
				},
				{
					"inputs": [
						{
							"internalType": "address",
							"name": "newOwner",
							"type": "address"
						}
					],
					"name": "transferOwnership",
					"outputs": [],
					"stateMutability": "nonpayable",
					"type": "function"
				}
			],
			"devdoc": {
				"kind": "dev",
				"methods": {
					"owner()": {
						"details": "Returns the address of the current owner."
					},
					"renounceOwnership()": {
						"details": "Leaves the contract without owner. It will not be possible to call `onlyOwner` functions anymore. Can only be called by the current owner. NOTE: Renouncing ownership will leave the contract without an owner, thereby removing any functionality that is only available to the owner."
					},
					"transferOwnership(address)": {
						"details": "Transfers ownership of the contract to a new account (`newOwner`). Can only be called by the current owner."
					}
				},
				"version": 1
			},
			"evm": {
				"assembly": "    /* \"contracts/Journal3Jobs.sol\":626:3985  contract Journal3Jobs is Ownable{\r... */\n  mstore(0x40, 0x80)\n    /* \"contracts/Journal3Jobs.sol\":888:1049  constructor(address jou_address, address skill_std){\r... */\n  callvalue\n  dup1\n  iszero\n  tag_1\n  jumpi\n  0x00\n  dup1\n  revert\ntag_1:\n  pop\n  mload(0x40)\n  sub(codesize, bytecodeSize)\n  dup1\n  bytecodeSize\n  dup4\n  codecopy\n  dup2\n  dup2\n  add\n  0x40\n  mstore\n  dup2\n  add\n  swap1\n  tag_2\n  swap2\n  swap1\n  tag_3\n  jump\t// in\ntag_2:\n    /* \"@openzeppelin/contracts/access/Ownable.sol\":936:968  _transferOwnership(_msgSender()) */\n  tag_7\n    /* \"@openzeppelin/contracts/access/Ownable.sol\":955:967  _msgSender() */\n  tag_8\n    /* \"@openzeppelin/contracts/access/Ownable.sol\":955:965  _msgSender */\n  shl(0x20, tag_9)\n    /* \"@openzeppelin/contracts/access/Ownable.sol\":955:967  _msgSender() */\n  0x20\n  shr\n  jump\t// in\ntag_8:\n    /* \"@openzeppelin/contracts/access/Ownable.sol\":936:954  _transferOwnership */\n  shl(0x20, tag_10)\n    /* \"@openzeppelin/contracts/access/Ownable.sol\":936:968  _transferOwnership(_msgSender()) */\n  0x20\n  shr\n  jump\t// in\ntag_7:\n    /* \"contracts/Journal3Jobs.sol\":960:961  0 */\n  0x00\n    /* \"contracts/Journal3Jobs.sol\":950:957  job_cnt */\n  0x01\n    /* \"contracts/Journal3Jobs.sol\":950:961  job_cnt = 0 */\n  dup2\n  swap1\n  sstore\n  pop\n    /* \"contracts/Journal3Jobs.sol\":985:996  jou_address */\n  dup2\n    /* \"contracts/Journal3Jobs.sol\":972:975  jou */\n  0x04\n  0x00\n    /* \"contracts/Journal3Jobs.sol\":972:997  jou = IERC20(jou_address) */\n  0x0100\n  exp\n  dup2\n  sload\n  dup2\n  0xffffffffffffffffffffffffffffffffffffffff\n  mul\n  not\n  and\n  swap1\n  dup4\n  0xffffffffffffffffffffffffffffffffffffffff\n  and\n  mul\n  or\n  swap1\n  sstore\n  pop\n    /* \"contracts/Journal3Jobs.sol\":1031:1040  skill_std */\n  dup1\n    /* \"contracts/Journal3Jobs.sol\":1008:1019  skills_repo */\n  0x05\n  0x00\n    /* \"contracts/Journal3Jobs.sol\":1008:1041  skills_repo = IERC1155(skill_std) */\n  0x0100\n  exp\n  dup2\n  sload\n  dup2\n  0xffffffffffffffffffffffffffffffffffffffff\n  mul\n  not\n  and\n  swap1\n  dup4\n  0xffffffffffffffffffffffffffffffffffffffff\n  and\n  mul\n  or\n  swap1\n  sstore\n  pop\n    /* \"contracts/Journal3Jobs.sol\":888:1049  constructor(address jou_address, address skill_std){\r... */\n  pop\n  pop\n    /* \"contracts/Journal3Jobs.sol\":626:3985  contract Journal3Jobs is Ownable{\r... */\n  jump(tag_12)\n    /* \"@openzeppelin/contracts/utils/Context.sol\":640:736  function _msgSender() internal view virtual returns (address) {... */\ntag_9:\n    /* \"@openzeppelin/contracts/utils/Context.sol\":693:700  address */\n  0x00\n    /* \"@openzeppelin/contracts/utils/Context.sol\":719:729  msg.sender */\n  caller\n    /* \"@openzeppelin/contracts/utils/Context.sol\":712:729  return msg.sender */\n  swap1\n  pop\n    /* \"@openzeppelin/contracts/utils/Context.sol\":640:736  function _msgSender() internal view virtual returns (address) {... */\n  swap1\n  jump\t// out\n    /* \"@openzeppelin/contracts/access/Ownable.sol\":2433:2620  function _transferOwnership(address newOwner) internal virtual {... */\ntag_10:\n    /* \"@openzeppelin/contracts/access/Ownable.sol\":2506:2522  address oldOwner */\n  0x00\n    /* \"@openzeppelin/contracts/access/Ownable.sol\":2525:2531  _owner */\n  dup1\n  0x00\n  swap1\n  sload\n  swap1\n  0x0100\n  exp\n  swap1\n  div\n  0xffffffffffffffffffffffffffffffffffffffff\n  and\n    /* \"@openzeppelin/contracts/access/Ownable.sol\":2506:2531  address oldOwner = _owner */\n  swap1\n  pop\n    /* \"@openzeppelin/contracts/access/Ownable.sol\":2550:2558  newOwner */\n  dup2\n    /* \"@openzeppelin/contracts/access/Ownable.sol\":2541:2547  _owner */\n  0x00\n  dup1\n    /* \"@openzeppelin/contracts/access/Ownable.sol\":2541:2558  _owner = newOwner */\n  0x0100\n  exp\n  dup2\n  sload\n  dup2\n  0xffffffffffffffffffffffffffffffffffffffff\n  mul\n  not\n  and\n  swap1\n  dup4\n  0xffffffffffffffffffffffffffffffffffffffff\n  and\n  mul\n  or\n  swap1\n  sstore\n  pop\n    /* \"@openzeppelin/contracts/access/Ownable.sol\":2604:2612  newOwner */\n  dup2\n    /* \"@openzeppelin/contracts/access/Ownable.sol\":2573:2613  OwnershipTransferred(oldOwner, newOwner) */\n  0xffffffffffffffffffffffffffffffffffffffff\n  and\n    /* \"@openzeppelin/contracts/access/Ownable.sol\":2594:2602  oldOwner */\n  dup2\n    /* \"@openzeppelin/contracts/access/Ownable.sol\":2573:2613  OwnershipTransferred(oldOwner, newOwner) */\n  0xffffffffffffffffffffffffffffffffffffffff\n  and\n  0x8be0079c531659141344cd1fd0a4f28419497f9722a3daafe3b4186f6b6457e0\n  mload(0x40)\n  mload(0x40)\n  dup1\n  swap2\n  sub\n  swap1\n  log3\n    /* \"@openzeppelin/contracts/access/Ownable.sol\":2496:2620  {... */\n  pop\n    /* \"@openzeppelin/contracts/access/Ownable.sol\":2433:2620  function _transferOwnership(address newOwner) internal virtual {... */\n  pop\n  jump\t// out\n    /* \"#utility.yul\":7:150   */\ntag_16:\n    /* \"#utility.yul\":64:69   */\n  0x00\n    /* \"#utility.yul\":95:101   */\n  dup2\n    /* \"#utility.yul\":89:102   */\n  mload\n    /* \"#utility.yul\":80:102   */\n  swap1\n  pop\n    /* \"#utility.yul\":111:144   */\n  tag_18\n    /* \"#utility.yul\":138:143   */\n  dup2\n    /* \"#utility.yul\":111:144   */\n  tag_19\n  jump\t// in\ntag_18:\n    /* \"#utility.yul\":7:150   */\n  swap3\n  swap2\n  pop\n  pop\n  jump\t// out\n    /* \"#utility.yul\":156:663   */\ntag_3:\n    /* \"#utility.yul\":235:241   */\n  0x00\n    /* \"#utility.yul\":243:249   */\n  dup1\n    /* \"#utility.yul\":292:294   */\n  0x40\n    /* \"#utility.yul\":280:289   */\n  dup4\n    /* \"#utility.yul\":271:278   */\n  dup6\n    /* \"#utility.yul\":267:290   */\n  sub\n    /* \"#utility.yul\":263:295   */\n  slt\n    /* \"#utility.yul\":260:379   */\n  iszero\n  tag_21\n  jumpi\n    /* \"#utility.yul\":298:377   */\n  tag_22\n  tag_23\n  jump\t// in\ntag_22:\n    /* \"#utility.yul\":260:379   */\ntag_21:\n    /* \"#utility.yul\":418:419   */\n  0x00\n    /* \"#utility.yul\":443:507   */\n  tag_24\n    /* \"#utility.yul\":499:506   */\n  dup6\n    /* \"#utility.yul\":490:496   */\n  dup3\n    /* \"#utility.yul\":479:488   */\n  dup7\n    /* \"#utility.yul\":475:497   */\n  add\n    /* \"#utility.yul\":443:507   */\n  tag_16\n  jump\t// in\ntag_24:\n    /* \"#utility.yul\":433:507   */\n  swap3\n  pop\n    /* \"#utility.yul\":389:517   */\n  pop\n    /* \"#utility.yul\":556:558   */\n  0x20\n    /* \"#utility.yul\":582:646   */\n  tag_25\n    /* \"#utility.yul\":638:645   */\n  dup6\n    /* \"#utility.yul\":629:635   */\n  dup3\n    /* \"#utility.yul\":618:627   */\n  dup7\n    /* \"#utility.yul\":614:636   */\n  add\n    /* \"#utility.yul\":582:646   */\n  tag_16\n  jump\t// in\ntag_25:\n    /* \"#utility.yul\":572:646   */\n  swap2\n  pop\n    /* \"#utility.yul\":527:656   */\n  pop\n    /* \"#utility.yul\":156:663   */\n  swap3\n  pop\n  swap3\n  swap1\n  pop\n  jump\t// out\n    /* \"#utility.yul\":750:846   */\ntag_28:\n    /* \"#utility.yul\":787:794   */\n  0x00\n    /* \"#utility.yul\":816:840   */\n  tag_30\n    /* \"#utility.yul\":834:839   */\n  dup3\n    /* \"#utility.yul\":816:840   */\n  tag_31\n  jump\t// in\ntag_30:\n    /* \"#utility.yul\":805:840   */\n  swap1\n  pop\n    /* \"#utility.yul\":750:846   */\n  swap2\n  swap1\n  pop\n  jump\t// out\n    /* \"#utility.yul\":852:978   */\ntag_31:\n    /* \"#utility.yul\":889:896   */\n  0x00\n    /* \"#utility.yul\":929:971   */\n  0xffffffffffffffffffffffffffffffffffffffff\n    /* \"#utility.yul\":922:927   */\n  dup3\n    /* \"#utility.yul\":918:972   */\n  and\n    /* \"#utility.yul\":907:972   */\n  swap1\n  pop\n    /* \"#utility.yul\":852:978   */\n  swap2\n  swap1\n  pop\n  jump\t// out\n    /* \"#utility.yul\":1107:1224   */\ntag_23:\n    /* \"#utility.yul\":1216:1217   */\n  0x00\n    /* \"#utility.yul\":1213:1214   */\n  dup1\n    /* \"#utility.yul\":1206:1218   */\n  revert\n    /* \"#utility.yul\":1230:1352   */\ntag_19:\n    /* \"#utility.yul\":1303:1327   */\n  tag_37\n    /* \"#utility.yul\":1321:1326   */\n  dup2\n    /* \"#utility.yul\":1303:1327   */\n  tag_28\n  jump\t// in\ntag_37:\n    /* \"#utility.yul\":1296:1301   */\n  dup2\n    /* \"#utility.yul\":1293:1328   */\n  eq\n    /* \"#utility.yul\":1283:1346   */\n  tag_38\n  jumpi\n    /* \"#utility.yul\":1342:1343   */\n  0x00\n    /* \"#utility.yul\":1339:1340   */\n  dup1\n    /* \"#utility.yul\":1332:1344   */\n  revert\n    /* \"#utility.yul\":1283:1346   */\ntag_38:\n    /* \"#utility.yul\":1230:1352   */\n  pop\n  jump\t// out\n    /* \"contracts/Journal3Jobs.sol\":626:3985  contract Journal3Jobs is Ownable{\r... */\ntag_12:\n  dataSize(sub_0)\n  dup1\n  dataOffset(sub_0)\n  0x00\n  codecopy\n  0x00\n  return\nstop\n\nsub_0: assembly {\n        /* \"contracts/Journal3Jobs.sol\":626:3985  contract Journal3Jobs is Ownable{\r... */\n      mstore(0x40, 0x80)\n      callvalue\n      dup1\n      iszero\n      tag_1\n      jumpi\n      0x00\n      dup1\n      revert\n    tag_1:\n      pop\n      jumpi(tag_2, lt(calldatasize, 0x04))\n      shr(0xe0, calldataload(0x00))\n      dup1\n      0xcd3c6e56\n      gt\n      tag_12\n      jumpi\n      dup1\n      0xcd3c6e56\n      eq\n      tag_7\n      jumpi\n      dup1\n      0xd9a4a8f4\n      eq\n      tag_8\n      jumpi\n      dup1\n      0xe6d46c8d\n      eq\n      tag_9\n      jumpi\n      dup1\n      0xeffbb95d\n      eq\n      tag_10\n      jumpi\n      dup1\n      0xf2fde38b\n      eq\n      tag_11\n      jumpi\n      jump(tag_2)\n    tag_12:\n      dup1\n      0x2d3ced17\n      eq\n      tag_3\n      jumpi\n      dup1\n      0x715018a6\n      eq\n      tag_4\n      jumpi\n      dup1\n      0x8da5cb5b\n      eq\n      tag_5\n      jumpi\n      dup1\n      0xb5ec25ae\n      eq\n      tag_6\n      jumpi\n    tag_2:\n      0x00\n      dup1\n      revert\n        /* \"contracts/Journal3Jobs.sol\":3813:3973  function claim_loyalties() public {\r... */\n    tag_3:\n      tag_13\n      tag_14\n      jump\t// in\n    tag_13:\n      stop\n        /* \"@openzeppelin/contracts/access/Ownable.sol\":1831:1932  function renounceOwnership() public virtual onlyOwner {... */\n    tag_4:\n      tag_15\n      tag_16\n      jump\t// in\n    tag_15:\n      stop\n        /* \"@openzeppelin/contracts/access/Ownable.sol\":1201:1286  function owner() public view virtual returns (address) {... */\n    tag_5:\n      tag_17\n      tag_18\n      jump\t// in\n    tag_17:\n      mload(0x40)\n      tag_19\n      swap2\n      swap1\n      tag_20\n      jump\t// in\n    tag_19:\n      mload(0x40)\n      dup1\n      swap2\n      sub\n      swap1\n      return\n        /* \"contracts/Journal3Jobs.sol\":2593:3479  function apply_job(uint idx) public {\r... */\n    tag_6:\n      tag_21\n      0x04\n      dup1\n      calldatasize\n      sub\n      dup2\n      add\n      swap1\n      tag_22\n      swap2\n      swap1\n      tag_23\n      jump\t// in\n    tag_22:\n      tag_24\n      jump\t// in\n    tag_21:\n      stop\n        /* \"contracts/Journal3Jobs.sol\":2088:2581  function stake_jou_job(uint idx, uint amount) public {\r... */\n    tag_7:\n      tag_25\n      0x04\n      dup1\n      calldatasize\n      sub\n      dup2\n      add\n      swap1\n      tag_26\n      swap2\n      swap1\n      tag_27\n      jump\t// in\n    tag_26:\n      tag_28\n      jump\t// in\n    tag_25:\n      stop\n        /* \"contracts/Journal3Jobs.sol\":1057:2080  function createJob(bytes32 metadata_ipfs, uint[] memory qualifications, uint[][] memory qualification_filtering, Checkpoints[] memory checkpoints, uint checkpoint_size, uint qualifications_size, uint root, address closing_indexer) public returns(bool){\r... */\n    tag_8:\n      tag_29\n      0x04\n      dup1\n      calldatasize\n      sub\n      dup2\n      add\n      swap1\n      tag_30\n      swap2\n      swap1\n      tag_31\n      jump\t// in\n    tag_30:\n      tag_32\n      jump\t// in\n    tag_29:\n      mload(0x40)\n      tag_33\n      swap2\n      swap1\n      tag_34\n      jump\t// in\n    tag_33:\n      mload(0x40)\n      dup1\n      swap2\n      sub\n      swap1\n      return\n        /* \"contracts/Journal3Jobs.sol\":3488:3805  function close_job(uint idx) public returns(bool) {\r... */\n    tag_9:\n      tag_35\n      0x04\n      dup1\n      calldatasize\n      sub\n      dup2\n      add\n      swap1\n      tag_36\n      swap2\n      swap1\n      tag_23\n      jump\t// in\n    tag_36:\n      tag_37\n      jump\t// in\n    tag_35:\n      mload(0x40)\n      tag_38\n      swap2\n      swap1\n      tag_34\n      jump\t// in\n    tag_38:\n      mload(0x40)\n      dup1\n      swap2\n      sub\n      swap1\n      return\n        /* \"contracts/Journal3Jobs.sol\":686:723  mapping (uint => Job) public all_jobs */\n    tag_10:\n      tag_39\n      0x04\n      dup1\n      calldatasize\n      sub\n      dup2\n      add\n      swap1\n      tag_40\n      swap2\n      swap1\n      tag_23\n      jump\t// in\n    tag_40:\n      tag_41\n      jump\t// in\n    tag_39:\n      mload(0x40)\n      tag_42\n      swap7\n      swap6\n      swap5\n      swap4\n      swap3\n      swap2\n      swap1\n      tag_43\n      jump\t// in\n    tag_42:\n      mload(0x40)\n      dup1\n      swap2\n      sub\n      swap1\n      return\n        /* \"@openzeppelin/contracts/access/Ownable.sol\":2081:2279  function transferOwnership(address newOwner) public virtual onlyOwner {... */\n    tag_11:\n      tag_44\n      0x04\n      dup1\n      calldatasize\n      sub\n      dup2\n      add\n      swap1\n      tag_45\n      swap2\n      swap1\n      tag_46\n      jump\t// in\n    tag_45:\n      tag_47\n      jump\t// in\n    tag_44:\n      stop\n        /* \"contracts/Journal3Jobs.sol\":3813:3973  function claim_loyalties() public {\r... */\n    tag_14:\n        /* \"contracts/Journal3Jobs.sol\":3858:3861  jou */\n      0x04\n      0x00\n      swap1\n      sload\n      swap1\n      0x0100\n      exp\n      swap1\n      div\n      0xffffffffffffffffffffffffffffffffffffffff\n      and\n        /* \"contracts/Journal3Jobs.sol\":3858:3870  jou.transfer */\n      0xffffffffffffffffffffffffffffffffffffffff\n      and\n      0xa9059cbb\n        /* \"contracts/Journal3Jobs.sol\":3871:3881  msg.sender */\n      caller\n        /* \"contracts/Journal3Jobs.sol\":3883:3904  skill_creator_rewards */\n      0x03\n        /* \"contracts/Journal3Jobs.sol\":3883:3916  skill_creator_rewards[msg.sender] */\n      0x00\n        /* \"contracts/Journal3Jobs.sol\":3905:3915  msg.sender */\n      caller\n        /* \"contracts/Journal3Jobs.sol\":3883:3916  skill_creator_rewards[msg.sender] */\n      0xffffffffffffffffffffffffffffffffffffffff\n      and\n      0xffffffffffffffffffffffffffffffffffffffff\n      and\n      dup2\n      mstore\n      0x20\n      add\n      swap1\n      dup2\n      mstore\n      0x20\n      add\n      0x00\n      keccak256\n      sload\n        /* \"contracts/Journal3Jobs.sol\":3858:3917  jou.transfer(msg.sender, skill_creator_rewards[msg.sender]) */\n      mload(0x40)\n      dup4\n      0xffffffff\n      and\n      0xe0\n      shl\n      dup2\n      mstore\n      0x04\n      add\n      tag_49\n      swap3\n      swap2\n      swap1\n      tag_50\n      jump\t// in\n    tag_49:\n      0x20\n      mload(0x40)\n      dup1\n      dup4\n      sub\n      dup2\n      0x00\n      dup8\n      dup1\n      extcodesize\n      iszero\n      dup1\n      iszero\n      tag_51\n      jumpi\n      0x00\n      dup1\n      revert\n    tag_51:\n      pop\n      gas\n      call\n      iszero\n      dup1\n      iszero\n      tag_53\n      jumpi\n      returndatasize\n      0x00\n      dup1\n      returndatacopy\n      revert(0x00, returndatasize)\n    tag_53:\n      pop\n      pop\n      pop\n      pop\n      mload(0x40)\n      returndatasize\n      not(0x1f)\n      0x1f\n      dup3\n      add\n      and\n      dup3\n      add\n      dup1\n      0x40\n      mstore\n      pop\n      dup2\n      add\n      swap1\n      tag_54\n      swap2\n      swap1\n      tag_55\n      jump\t// in\n    tag_54:\n      pop\n        /* \"contracts/Journal3Jobs.sol\":3964:3965  0 */\n      0x00\n        /* \"contracts/Journal3Jobs.sol\":3928:3949  skill_creator_rewards */\n      0x03\n        /* \"contracts/Journal3Jobs.sol\":3928:3961  skill_creator_rewards[msg.sender] */\n      0x00\n        /* \"contracts/Journal3Jobs.sol\":3950:3960  msg.sender */\n      caller\n        /* \"contracts/Journal3Jobs.sol\":3928:3961  skill_creator_rewards[msg.sender] */\n      0xffffffffffffffffffffffffffffffffffffffff\n      and\n      0xffffffffffffffffffffffffffffffffffffffff\n      and\n      dup2\n      mstore\n      0x20\n      add\n      swap1\n      dup2\n      mstore\n      0x20\n      add\n      0x00\n      keccak256\n        /* \"contracts/Journal3Jobs.sol\":3928:3965  skill_creator_rewards[msg.sender] = 0 */\n      dup2\n      swap1\n      sstore\n      pop\n        /* \"contracts/Journal3Jobs.sol\":3813:3973  function claim_loyalties() public {\r... */\n      jump\t// out\n        /* \"@openzeppelin/contracts/access/Ownable.sol\":1831:1932  function renounceOwnership() public virtual onlyOwner {... */\n    tag_16:\n        /* \"@openzeppelin/contracts/access/Ownable.sol\":1094:1107  _checkOwner() */\n      tag_57\n        /* \"@openzeppelin/contracts/access/Ownable.sol\":1094:1105  _checkOwner */\n      tag_58\n        /* \"@openzeppelin/contracts/access/Ownable.sol\":1094:1107  _checkOwner() */\n      jump\t// in\n    tag_57:\n        /* \"@openzeppelin/contracts/access/Ownable.sol\":1895:1925  _transferOwnership(address(0)) */\n      tag_60\n        /* \"@openzeppelin/contracts/access/Ownable.sol\":1922:1923  0 */\n      0x00\n        /* \"@openzeppelin/contracts/access/Ownable.sol\":1895:1913  _transferOwnership */\n      tag_61\n        /* \"@openzeppelin/contracts/access/Ownable.sol\":1895:1925  _transferOwnership(address(0)) */\n      jump\t// in\n    tag_60:\n        /* \"@openzeppelin/contracts/access/Ownable.sol\":1831:1932  function renounceOwnership() public virtual onlyOwner {... */\n      jump\t// out\n        /* \"@openzeppelin/contracts/access/Ownable.sol\":1201:1286  function owner() public view virtual returns (address) {... */\n    tag_18:\n        /* \"@openzeppelin/contracts/access/Ownable.sol\":1247:1254  address */\n      0x00\n        /* \"@openzeppelin/contracts/access/Ownable.sol\":1273:1279  _owner */\n      dup1\n      0x00\n      swap1\n      sload\n      swap1\n      0x0100\n      exp\n      swap1\n      div\n      0xffffffffffffffffffffffffffffffffffffffff\n      and\n        /* \"@openzeppelin/contracts/access/Ownable.sol\":1266:1279  return _owner */\n      swap1\n      pop\n        /* \"@openzeppelin/contracts/access/Ownable.sol\":1201:1286  function owner() public view virtual returns (address) {... */\n      swap1\n      jump\t// out\n        /* \"contracts/Journal3Jobs.sol\":2593:3479  function apply_job(uint idx) public {\r... */\n    tag_24:\n        /* \"contracts/Journal3Jobs.sol\":2673:2677  true */\n      0x01\n        /* \"contracts/Journal3Jobs.sol\":2648:2677  all_jobs[idx].is_active==true */\n      iszero\n      iszero\n        /* \"contracts/Journal3Jobs.sol\":2648:2656  all_jobs */\n      0x02\n        /* \"contracts/Journal3Jobs.sol\":2648:2661  all_jobs[idx] */\n      0x00\n        /* \"contracts/Journal3Jobs.sol\":2657:2660  idx */\n      dup4\n        /* \"contracts/Journal3Jobs.sol\":2648:2661  all_jobs[idx] */\n      dup2\n      mstore\n      0x20\n      add\n      swap1\n      dup2\n      mstore\n      0x20\n      add\n      0x00\n      keccak256\n        /* \"contracts/Journal3Jobs.sol\":2648:2671  all_jobs[idx].is_active */\n      0x04\n      add\n      0x00\n      swap1\n      sload\n      swap1\n      0x0100\n      exp\n      swap1\n      div\n      0xff\n      and\n        /* \"contracts/Journal3Jobs.sol\":2648:2677  all_jobs[idx].is_active==true */\n      iszero\n      iszero\n      eq\n        /* \"contracts/Journal3Jobs.sol\":2640:2701  require(all_jobs[idx].is_active==true, \"Job is not open yet\") */\n      tag_64\n      jumpi\n      mload(0x40)\n      0x08c379a000000000000000000000000000000000000000000000000000000000\n      dup2\n      mstore\n      0x04\n      add\n      tag_65\n      swap1\n      tag_66\n      jump\t// in\n    tag_65:\n      mload(0x40)\n      dup1\n      swap2\n      sub\n      swap1\n      revert\n    tag_64:\n        /* \"contracts/Journal3Jobs.sol\":2746:2747  0 */\n      0x00\n        /* \"contracts/Journal3Jobs.sol\":2720:2728  all_jobs */\n      0x02\n        /* \"contracts/Journal3Jobs.sol\":2720:2733  all_jobs[idx] */\n      0x00\n        /* \"contracts/Journal3Jobs.sol\":2729:2732  idx */\n      dup4\n        /* \"contracts/Journal3Jobs.sol\":2720:2733  all_jobs[idx] */\n      dup2\n      mstore\n      0x20\n      add\n      swap1\n      dup2\n      mstore\n      0x20\n      add\n      0x00\n      keccak256\n        /* \"contracts/Journal3Jobs.sol\":2720:2744  all_jobs[idx].jou_staked */\n      0x03\n      add\n      sload\n        /* \"contracts/Journal3Jobs.sol\":2720:2747  all_jobs[idx].jou_staked!=0 */\n      eq\n      iszero\n        /* \"contracts/Journal3Jobs.sol\":2712:2785  require(all_jobs[idx].jou_staked!=0, \"Job not accepting more applicants\") */\n      tag_67\n      jumpi\n      mload(0x40)\n      0x08c379a000000000000000000000000000000000000000000000000000000000\n      dup2\n      mstore\n      0x04\n      add\n      tag_68\n      swap1\n      tag_69\n      jump\t// in\n    tag_68:\n      mload(0x40)\n      dup1\n      swap2\n      sub\n      swap1\n      revert\n    tag_67:\n        /* \"contracts/Journal3Jobs.sol\":2798:2811  uint currnode */\n      0x00\n        /* \"contracts/Journal3Jobs.sol\":2814:2822  all_jobs */\n      0x02\n        /* \"contracts/Journal3Jobs.sol\":2814:2827  all_jobs[idx] */\n      0x00\n        /* \"contracts/Journal3Jobs.sol\":2823:2826  idx */\n      dup4\n        /* \"contracts/Journal3Jobs.sol\":2814:2827  all_jobs[idx] */\n      dup2\n      mstore\n      0x20\n      add\n      swap1\n      dup2\n      mstore\n      0x20\n      add\n      0x00\n      keccak256\n        /* \"contracts/Journal3Jobs.sol\":2814:2832  all_jobs[idx].root */\n      0x05\n      add\n      sload\n        /* \"contracts/Journal3Jobs.sol\":2798:2832  uint currnode = all_jobs[idx].root */\n      swap1\n      pop\n        /* \"contracts/Journal3Jobs.sol\":2853:3472  while (currnode!=0){\r... */\n    tag_70:\n        /* \"contracts/Journal3Jobs.sol\":2870:2871  0 */\n      0x00\n        /* \"contracts/Journal3Jobs.sol\":2860:2868  currnode */\n      dup2\n        /* \"contracts/Journal3Jobs.sol\":2860:2871  currnode!=0 */\n      eq\n        /* \"contracts/Journal3Jobs.sol\":2853:3472  while (currnode!=0){\r... */\n      tag_71\n      jumpi\n        /* \"contracts/Journal3Jobs.sol\":2936:2937  1 */\n      0x01\n        /* \"contracts/Journal3Jobs.sol\":2891:2902  skills_repo */\n      0x05\n      0x00\n      swap1\n      sload\n      swap1\n      0x0100\n      exp\n      swap1\n      div\n      0xffffffffffffffffffffffffffffffffffffffff\n      and\n        /* \"contracts/Journal3Jobs.sol\":2891:2912  skills_repo.balanceOf */\n      0xffffffffffffffffffffffffffffffffffffffff\n      and\n      0xfdd58e\n        /* \"contracts/Journal3Jobs.sol\":2913:2923  msg.sender */\n      caller\n        /* \"contracts/Journal3Jobs.sol\":2925:2933  currnode */\n      dup5\n        /* \"contracts/Journal3Jobs.sol\":2891:2934  skills_repo.balanceOf(msg.sender, currnode) */\n      mload(0x40)\n      dup4\n      0xffffffff\n      and\n      0xe0\n      shl\n      dup2\n      mstore\n      0x04\n      add\n      tag_72\n      swap3\n      swap2\n      swap1\n      tag_50\n      jump\t// in\n    tag_72:\n      0x20\n      mload(0x40)\n      dup1\n      dup4\n      sub\n      dup2\n      dup7\n      dup1\n      extcodesize\n      iszero\n      dup1\n      iszero\n      tag_73\n      jumpi\n      0x00\n      dup1\n      revert\n    tag_73:\n      pop\n      gas\n      staticcall\n      iszero\n      dup1\n      iszero\n      tag_75\n      jumpi\n      returndatasize\n      0x00\n      dup1\n      returndatacopy\n      revert(0x00, returndatasize)\n    tag_75:\n      pop\n      pop\n      pop\n      pop\n      mload(0x40)\n      returndatasize\n      not(0x1f)\n      0x1f\n      dup3\n      add\n      and\n      dup3\n      add\n      dup1\n      0x40\n      mstore\n      pop\n      dup2\n      add\n      swap1\n      tag_76\n      swap2\n      swap1\n      tag_77\n      jump\t// in\n    tag_76:\n        /* \"contracts/Journal3Jobs.sol\":2891:2937  skills_repo.balanceOf(msg.sender, currnode)==1 */\n      eq\n        /* \"contracts/Journal3Jobs.sol\":2887:3461  if (skills_repo.balanceOf(msg.sender, currnode)==1){\r... */\n      iszero\n      tag_78\n      jumpi\n        /* \"contracts/Journal3Jobs.sol\":2968:2976  all_jobs */\n      0x02\n        /* \"contracts/Journal3Jobs.sol\":2968:2981  all_jobs[idx] */\n      0x00\n        /* \"contracts/Journal3Jobs.sol\":2977:2980  idx */\n      dup4\n        /* \"contracts/Journal3Jobs.sol\":2968:2981  all_jobs[idx] */\n      dup2\n      mstore\n      0x20\n      add\n      swap1\n      dup2\n      mstore\n      0x20\n      add\n      0x00\n      keccak256\n        /* \"contracts/Journal3Jobs.sol\":2968:2996  all_jobs[idx].qualifications */\n      0x01\n      add\n        /* \"contracts/Journal3Jobs.sol\":2968:3006  all_jobs[idx].qualifications[currnode] */\n      0x00\n        /* \"contracts/Journal3Jobs.sol\":2997:3005  currnode */\n      dup3\n        /* \"contracts/Journal3Jobs.sol\":2968:3006  all_jobs[idx].qualifications[currnode] */\n      dup2\n      mstore\n      0x20\n      add\n      swap1\n      dup2\n      mstore\n      0x20\n      add\n      0x00\n      keccak256\n        /* \"contracts/Journal3Jobs.sol\":3007:3008  0 */\n      0x00\n        /* \"contracts/Journal3Jobs.sol\":2968:3009  all_jobs[idx].qualifications[currnode][0] */\n      dup2\n      sload\n      dup2\n      lt\n      tag_79\n      jumpi\n      tag_80\n      tag_81\n      jump\t// in\n    tag_80:\n    tag_79:\n      swap1\n      0x00\n      mstore\n      keccak256(0x00, 0x20)\n      add\n      sload\n        /* \"contracts/Journal3Jobs.sol\":2957:3009  currnode = all_jobs[idx].qualifications[currnode][0] */\n      swap1\n      pop\n        /* \"contracts/Journal3Jobs.sol\":3091:3099  currnode */\n      dup1\n        /* \"contracts/Journal3Jobs.sol\":3031:3039  all_jobs */\n      0x02\n        /* \"contracts/Journal3Jobs.sol\":3031:3044  all_jobs[idx] */\n      0x00\n        /* \"contracts/Journal3Jobs.sol\":3040:3043  idx */\n      dup5\n        /* \"contracts/Journal3Jobs.sol\":3031:3044  all_jobs[idx] */\n      dup2\n      mstore\n      0x20\n      add\n      swap1\n      dup2\n      mstore\n      0x20\n      add\n      0x00\n      keccak256\n        /* \"contracts/Journal3Jobs.sol\":3031:3063  all_jobs[idx].candidate_profiles */\n      0x02\n      add\n        /* \"contracts/Journal3Jobs.sol\":3031:3073  all_jobs[idx].candidate_profiles[currnode] */\n      0x00\n        /* \"contracts/Journal3Jobs.sol\":3064:3072  currnode */\n      dup4\n        /* \"contracts/Journal3Jobs.sol\":3031:3073  all_jobs[idx].candidate_profiles[currnode] */\n      dup2\n      mstore\n      0x20\n      add\n      swap1\n      dup2\n      mstore\n      0x20\n      add\n      0x00\n      keccak256\n        /* \"contracts/Journal3Jobs.sol\":3031:3089  all_jobs[idx].candidate_profiles[currnode].checkpoint_addr */\n      0x00\n      add\n      sload\n        /* \"contracts/Journal3Jobs.sol\":3031:3099  all_jobs[idx].candidate_profiles[currnode].checkpoint_addr==currnode */\n      eq\n        /* \"contracts/Journal3Jobs.sol\":3028:3213  if(all_jobs[idx].candidate_profiles[currnode].checkpoint_addr==currnode){\r... */\n      iszero\n      tag_83\n      jumpi\n        /* \"contracts/Journal3Jobs.sol\":3123:3131  all_jobs */\n      0x02\n        /* \"contracts/Journal3Jobs.sol\":3123:3136  all_jobs[idx] */\n      0x00\n        /* \"contracts/Journal3Jobs.sol\":3132:3135  idx */\n      dup4\n        /* \"contracts/Journal3Jobs.sol\":3123:3136  all_jobs[idx] */\n      dup2\n      mstore\n      0x20\n      add\n      swap1\n      dup2\n      mstore\n      0x20\n      add\n      0x00\n      keccak256\n        /* \"contracts/Journal3Jobs.sol\":3123:3155  all_jobs[idx].candidate_profiles */\n      0x02\n      add\n        /* \"contracts/Journal3Jobs.sol\":3123:3165  all_jobs[idx].candidate_profiles[currnode] */\n      0x00\n        /* \"contracts/Journal3Jobs.sol\":3156:3164  currnode */\n      dup3\n        /* \"contracts/Journal3Jobs.sol\":3123:3165  all_jobs[idx].candidate_profiles[currnode] */\n      dup2\n      mstore\n      0x20\n      add\n      swap1\n      dup2\n      mstore\n      0x20\n      add\n      0x00\n      keccak256\n        /* \"contracts/Journal3Jobs.sol\":3123:3176  all_jobs[idx].candidate_profiles[currnode].candidates */\n      0x02\n      add\n        /* \"contracts/Journal3Jobs.sol\":3182:3192  msg.sender */\n      caller\n        /* \"contracts/Journal3Jobs.sol\":3123:3193  all_jobs[idx].candidate_profiles[currnode].candidates.push(msg.sender) */\n      swap1\n      dup1\n      0x01\n      dup2\n      sload\n      add\n      dup1\n      dup3\n      sstore\n      dup1\n      swap2\n      pop\n      pop\n      0x01\n      swap1\n      sub\n      swap1\n      0x00\n      mstore\n      keccak256(0x00, 0x20)\n      add\n      0x00\n      swap1\n      swap2\n      swap1\n      swap2\n      swap1\n      swap2\n      0x0100\n      exp\n      dup2\n      sload\n      dup2\n      0xffffffffffffffffffffffffffffffffffffffff\n      mul\n      not\n      and\n      swap1\n      dup4\n      0xffffffffffffffffffffffffffffffffffffffff\n      and\n      mul\n      or\n      swap1\n      sstore\n      pop\n        /* \"contracts/Journal3Jobs.sol\":3028:3213  if(all_jobs[idx].candidate_profiles[currnode].checkpoint_addr==currnode){\r... */\n    tag_83:\n        /* \"contracts/Journal3Jobs.sol\":2887:3461  if (skills_repo.balanceOf(msg.sender, currnode)==1){\r... */\n      jump(tag_85)\n    tag_78:\n        /* \"contracts/Journal3Jobs.sol\":3404:3412  all_jobs */\n      0x02\n        /* \"contracts/Journal3Jobs.sol\":3404:3417  all_jobs[idx] */\n      0x00\n        /* \"contracts/Journal3Jobs.sol\":3413:3416  idx */\n      dup4\n        /* \"contracts/Journal3Jobs.sol\":3404:3417  all_jobs[idx] */\n      dup2\n      mstore\n      0x20\n      add\n      swap1\n      dup2\n      mstore\n      0x20\n      add\n      0x00\n      keccak256\n        /* \"contracts/Journal3Jobs.sol\":3404:3432  all_jobs[idx].qualifications */\n      0x01\n      add\n        /* \"contracts/Journal3Jobs.sol\":3404:3442  all_jobs[idx].qualifications[currnode] */\n      0x00\n        /* \"contracts/Journal3Jobs.sol\":3433:3441  currnode */\n      dup3\n        /* \"contracts/Journal3Jobs.sol\":3404:3442  all_jobs[idx].qualifications[currnode] */\n      dup2\n      mstore\n      0x20\n      add\n      swap1\n      dup2\n      mstore\n      0x20\n      add\n      0x00\n      keccak256\n        /* \"contracts/Journal3Jobs.sol\":3443:3444  1 */\n      0x01\n        /* \"contracts/Journal3Jobs.sol\":3404:3445  all_jobs[idx].qualifications[currnode][1] */\n      dup2\n      sload\n      dup2\n      lt\n      tag_86\n      jumpi\n      tag_87\n      tag_81\n      jump\t// in\n    tag_87:\n    tag_86:\n      swap1\n      0x00\n      mstore\n      keccak256(0x00, 0x20)\n      add\n      sload\n        /* \"contracts/Journal3Jobs.sol\":3393:3445  currnode = all_jobs[idx].qualifications[currnode][1] */\n      swap1\n      pop\n        /* \"contracts/Journal3Jobs.sol\":2887:3461  if (skills_repo.balanceOf(msg.sender, currnode)==1){\r... */\n    tag_85:\n        /* \"contracts/Journal3Jobs.sol\":2853:3472  while (currnode!=0){\r... */\n      jump(tag_70)\n    tag_71:\n        /* \"contracts/Journal3Jobs.sol\":2629:3479  {\r... */\n      pop\n        /* \"contracts/Journal3Jobs.sol\":2593:3479  function apply_job(uint idx) public {\r... */\n      pop\n      jump\t// out\n        /* \"contracts/Journal3Jobs.sol\":2088:2581  function stake_jou_job(uint idx, uint amount) public {\r... */\n    tag_28:\n        /* \"contracts/Journal3Jobs.sol\":2169:2170  0 */\n      0x00\n        /* \"contracts/Journal3Jobs.sol\":2160:2166  amount */\n      dup2\n        /* \"contracts/Journal3Jobs.sol\":2160:2170  amount > 0 */\n      gt\n        /* \"contracts/Journal3Jobs.sol\":2152:2197  require(amount > 0, \"InvalidAmountException\") */\n      tag_90\n      jumpi\n      mload(0x40)\n      0x08c379a000000000000000000000000000000000000000000000000000000000\n      dup2\n      mstore\n      0x04\n      add\n      tag_91\n      swap1\n      tag_92\n      jump\t// in\n    tag_91:\n      mload(0x40)\n      dup1\n      swap2\n      sub\n      swap1\n      revert\n    tag_90:\n        /* \"contracts/Journal3Jobs.sol\":2208:2225  uint256 allowance */\n      0x00\n        /* \"contracts/Journal3Jobs.sol\":2228:2231  jou */\n      0x04\n      0x00\n      swap1\n      sload\n      swap1\n      0x0100\n      exp\n      swap1\n      div\n      0xffffffffffffffffffffffffffffffffffffffff\n      and\n        /* \"contracts/Journal3Jobs.sol\":2228:2241  jou.allowance */\n      0xffffffffffffffffffffffffffffffffffffffff\n      and\n      0xdd62ed3e\n        /* \"contracts/Journal3Jobs.sol\":2242:2252  msg.sender */\n      caller\n        /* \"contracts/Journal3Jobs.sol\":2262:2266  this */\n      address\n        /* \"contracts/Journal3Jobs.sol\":2228:2268  jou.allowance(msg.sender, address(this)) */\n      mload(0x40)\n      dup4\n      0xffffffff\n      and\n      0xe0\n      shl\n      dup2\n      mstore\n      0x04\n      add\n      tag_93\n      swap3\n      swap2\n      swap1\n      tag_94\n      jump\t// in\n    tag_93:\n      0x20\n      mload(0x40)\n      dup1\n      dup4\n      sub\n      dup2\n      dup7\n      dup1\n      extcodesize\n      iszero\n      dup1\n      iszero\n      tag_95\n      jumpi\n      0x00\n      dup1\n      revert\n    tag_95:\n      pop\n      gas\n      staticcall\n      iszero\n      dup1\n      iszero\n      tag_97\n      jumpi\n      returndatasize\n      0x00\n      dup1\n      returndatacopy\n      revert(0x00, returndatasize)\n    tag_97:\n      pop\n      pop\n      pop\n      pop\n      mload(0x40)\n      returndatasize\n      not(0x1f)\n      0x1f\n      dup3\n      add\n      and\n      dup3\n      add\n      dup1\n      0x40\n      mstore\n      pop\n      dup2\n      add\n      swap1\n      tag_98\n      swap2\n      swap1\n      tag_77\n      jump\t// in\n    tag_98:\n        /* \"contracts/Journal3Jobs.sol\":2208:2268  uint256 allowance = jou.allowance(msg.sender, address(this)) */\n      swap1\n      pop\n        /* \"contracts/Journal3Jobs.sol\":2300:2306  amount */\n      dup2\n        /* \"contracts/Journal3Jobs.sol\":2287:2296  allowance */\n      dup2\n        /* \"contracts/Journal3Jobs.sol\":2287:2306  allowance >= amount */\n      lt\n      iszero\n        /* \"contracts/Journal3Jobs.sol\":2279:2329  require(allowance >= amount, \"AllowanceException\") */\n      tag_99\n      jumpi\n      mload(0x40)\n      0x08c379a000000000000000000000000000000000000000000000000000000000\n      dup2\n      mstore\n      0x04\n      add\n      tag_100\n      swap1\n      tag_101\n      jump\t// in\n    tag_100:\n      mload(0x40)\n      dup1\n      swap2\n      sub\n      swap1\n      revert\n    tag_99:\n        /* \"contracts/Journal3Jobs.sol\":2340:2343  jou */\n      0x04\n      0x00\n      swap1\n      sload\n      swap1\n      0x0100\n      exp\n      swap1\n      div\n      0xffffffffffffffffffffffffffffffffffffffff\n      and\n        /* \"contracts/Journal3Jobs.sol\":2340:2356  jou.transferFrom */\n      0xffffffffffffffffffffffffffffffffffffffff\n      and\n      0x23b872dd\n        /* \"contracts/Journal3Jobs.sol\":2357:2367  msg.sender */\n      caller\n        /* \"contracts/Journal3Jobs.sol\":2377:2381  this */\n      address\n        /* \"contracts/Journal3Jobs.sol\":2384:2390  amount */\n      dup6\n        /* \"contracts/Journal3Jobs.sol\":2340:2391  jou.transferFrom(msg.sender, address(this), amount) */\n      mload(0x40)\n      dup5\n      0xffffffff\n      and\n      0xe0\n      shl\n      dup2\n      mstore\n      0x04\n      add\n      tag_102\n      swap4\n      swap3\n      swap2\n      swap1\n      tag_103\n      jump\t// in\n    tag_102:\n      0x20\n      mload(0x40)\n      dup1\n      dup4\n      sub\n      dup2\n      0x00\n      dup8\n      dup1\n      extcodesize\n      iszero\n      dup1\n      iszero\n      tag_104\n      jumpi\n      0x00\n      dup1\n      revert\n    tag_104:\n      pop\n      gas\n      call\n      iszero\n      dup1\n      iszero\n      tag_106\n      jumpi\n      returndatasize\n      0x00\n      dup1\n      returndatacopy\n      revert(0x00, returndatasize)\n    tag_106:\n      pop\n      pop\n      pop\n      pop\n      mload(0x40)\n      returndatasize\n      not(0x1f)\n      0x1f\n      dup3\n      add\n      and\n      dup3\n      add\n      dup1\n      0x40\n      mstore\n      pop\n      dup2\n      add\n      swap1\n      tag_107\n      swap2\n      swap1\n      tag_55\n      jump\t// in\n    tag_107:\n      pop\n        /* \"contracts/Journal3Jobs.sol\":2410:2420  msg.sender */\n      caller\n        /* \"contracts/Journal3Jobs.sol\":2402:2430  payable(msg.sender).transfer */\n      0xffffffffffffffffffffffffffffffffffffffff\n      and\n        /* \"contracts/Journal3Jobs.sol\":2402:2438  payable(msg.sender).transfer(amount) */\n      0x08fc\n        /* \"contracts/Journal3Jobs.sol\":2431:2437  amount */\n      dup4\n        /* \"contracts/Journal3Jobs.sol\":2402:2438  payable(msg.sender).transfer(amount) */\n      swap1\n      dup2\n      iszero\n      mul\n      swap1\n      mload(0x40)\n      0x00\n      mload(0x40)\n      dup1\n      dup4\n      sub\n      dup2\n      dup6\n      dup9\n      dup9\n      call\n      swap4\n      pop\n      pop\n      pop\n      pop\n      iszero\n      dup1\n      iszero\n      tag_109\n      jumpi\n      returndatasize\n      0x00\n      dup1\n      returndatacopy\n      revert(0x00, returndatasize)\n    tag_109:\n      pop\n        /* \"contracts/Journal3Jobs.sol\":2477:2483  amount */\n      dup2\n        /* \"contracts/Journal3Jobs.sol\":2449:2457  all_jobs */\n      0x02\n        /* \"contracts/Journal3Jobs.sol\":2449:2462  all_jobs[idx] */\n      0x00\n        /* \"contracts/Journal3Jobs.sol\":2458:2461  idx */\n      dup6\n        /* \"contracts/Journal3Jobs.sol\":2449:2462  all_jobs[idx] */\n      dup2\n      mstore\n      0x20\n      add\n      swap1\n      dup2\n      mstore\n      0x20\n      add\n      0x00\n      keccak256\n        /* \"contracts/Journal3Jobs.sol\":2449:2473  all_jobs[idx].jou_staked */\n      0x03\n      add\n      0x00\n        /* \"contracts/Journal3Jobs.sol\":2449:2483  all_jobs[idx].jou_staked += amount */\n      dup3\n      dup3\n      sload\n      tag_110\n      swap2\n      swap1\n      tag_111\n      jump\t// in\n    tag_110:\n      swap3\n      pop\n      pop\n      dup2\n      swap1\n      sstore\n      pop\n        /* \"contracts/Journal3Jobs.sol\":2520:2524  true */\n      0x01\n        /* \"contracts/Journal3Jobs.sol\":2494:2502  all_jobs */\n      0x02\n        /* \"contracts/Journal3Jobs.sol\":2494:2507  all_jobs[idx] */\n      0x00\n        /* \"contracts/Journal3Jobs.sol\":2503:2506  idx */\n      dup6\n        /* \"contracts/Journal3Jobs.sol\":2494:2507  all_jobs[idx] */\n      dup2\n      mstore\n      0x20\n      add\n      swap1\n      dup2\n      mstore\n      0x20\n      add\n      0x00\n      keccak256\n        /* \"contracts/Journal3Jobs.sol\":2494:2517  all_jobs[idx].is_active */\n      0x04\n      add\n      0x00\n        /* \"contracts/Journal3Jobs.sol\":2494:2524  all_jobs[idx].is_active = true */\n      0x0100\n      exp\n      dup2\n      sload\n      dup2\n      0xff\n      mul\n      not\n      and\n      swap1\n      dup4\n      iszero\n      iszero\n      mul\n      or\n      swap1\n      sstore\n      pop\n        /* \"contracts/Journal3Jobs.sol\":2540:2571  staking_successful(idx, amount) */\n      0x21f9bb95ea07d82a536314fd89080112cda91fc68b6e0a77ced196a3a291e1c9\n        /* \"contracts/Journal3Jobs.sol\":2559:2562  idx */\n      dup4\n        /* \"contracts/Journal3Jobs.sol\":2564:2570  amount */\n      dup4\n        /* \"contracts/Journal3Jobs.sol\":2540:2571  staking_successful(idx, amount) */\n      mload(0x40)\n      tag_112\n      swap3\n      swap2\n      swap1\n      tag_113\n      jump\t// in\n    tag_112:\n      mload(0x40)\n      dup1\n      swap2\n      sub\n      swap1\n      log1\n        /* \"contracts/Journal3Jobs.sol\":2141:2581  {\r... */\n      pop\n        /* \"contracts/Journal3Jobs.sol\":2088:2581  function stake_jou_job(uint idx, uint amount) public {\r... */\n      pop\n      pop\n      jump\t// out\n        /* \"contracts/Journal3Jobs.sol\":1057:2080  function createJob(bytes32 metadata_ipfs, uint[] memory qualifications, uint[][] memory qualification_filtering, Checkpoints[] memory checkpoints, uint checkpoint_size, uint qualifications_size, uint root, address closing_indexer) public returns(bool){\r... */\n    tag_32:\n        /* \"contracts/Journal3Jobs.sol\":1303:1307  bool */\n      0x00\n        /* \"contracts/Journal3Jobs.sol\":1319:1338  Job storage tempJob */\n      dup1\n        /* \"contracts/Journal3Jobs.sol\":1341:1349  all_jobs */\n      0x02\n        /* \"contracts/Journal3Jobs.sol\":1341:1358  all_jobs[job_cnt] */\n      0x00\n        /* \"contracts/Journal3Jobs.sol\":1350:1357  job_cnt */\n      sload(0x01)\n        /* \"contracts/Journal3Jobs.sol\":1341:1358  all_jobs[job_cnt] */\n      dup2\n      mstore\n      0x20\n      add\n      swap1\n      dup2\n      mstore\n      0x20\n      add\n      0x00\n      keccak256\n        /* \"contracts/Journal3Jobs.sol\":1319:1358  Job storage tempJob = all_jobs[job_cnt] */\n      swap1\n      pop\n        /* \"contracts/Journal3Jobs.sol\":1393:1406  metadata_ipfs */\n      dup10\n        /* \"contracts/Journal3Jobs.sol\":1369:1376  tempJob */\n      dup2\n        /* \"contracts/Journal3Jobs.sol\":1369:1390  tempJob.metadata_ipfs */\n      0x00\n      add\n        /* \"contracts/Journal3Jobs.sol\":1369:1406  tempJob.metadata_ipfs = metadata_ipfs */\n      dup2\n      swap1\n      sstore\n      pop\n        /* \"contracts/Journal3Jobs.sol\":1442:1446  root */\n      dup4\n        /* \"contracts/Journal3Jobs.sol\":1427:1434  tempJob */\n      dup2\n        /* \"contracts/Journal3Jobs.sol\":1427:1439  tempJob.root */\n      0x05\n      add\n        /* \"contracts/Journal3Jobs.sol\":1427:1446  tempJob.root = root */\n      dup2\n      swap1\n      sstore\n      pop\n        /* \"contracts/Journal3Jobs.sol\":1464:1470  uint i */\n      0x00\n        /* \"contracts/Journal3Jobs.sol\":1459:1601  for (uint i=0; i < checkpoint_size; i++){\r... */\n    tag_115:\n        /* \"contracts/Journal3Jobs.sol\":1478:1493  checkpoint_size */\n      dup7\n        /* \"contracts/Journal3Jobs.sol\":1474:1475  i */\n      dup2\n        /* \"contracts/Journal3Jobs.sol\":1474:1493  i < checkpoint_size */\n      lt\n        /* \"contracts/Journal3Jobs.sol\":1459:1601  for (uint i=0; i < checkpoint_size; i++){\r... */\n      iszero\n      tag_116\n      jumpi\n        /* \"contracts/Journal3Jobs.sol\":1575:1586  checkpoints */\n      dup8\n        /* \"contracts/Journal3Jobs.sol\":1587:1588  i */\n      dup2\n        /* \"contracts/Journal3Jobs.sol\":1575:1589  checkpoints[i] */\n      dup2\n      mload\n      dup2\n      lt\n      tag_118\n      jumpi\n      tag_119\n      tag_81\n      jump\t// in\n    tag_119:\n    tag_118:\n      0x20\n      mul\n      0x20\n      add\n      add\n      mload\n        /* \"contracts/Journal3Jobs.sol\":1514:1521  tempJob */\n      dup3\n        /* \"contracts/Journal3Jobs.sol\":1514:1540  tempJob.candidate_profiles */\n      0x02\n      add\n        /* \"contracts/Journal3Jobs.sol\":1514:1572  tempJob.candidate_profiles[checkpoints[i].checkpoint_addr] */\n      0x00\n        /* \"contracts/Journal3Jobs.sol\":1541:1552  checkpoints */\n      dup11\n        /* \"contracts/Journal3Jobs.sol\":1553:1554  i */\n      dup5\n        /* \"contracts/Journal3Jobs.sol\":1541:1555  checkpoints[i] */\n      dup2\n      mload\n      dup2\n      lt\n      tag_120\n      jumpi\n      tag_121\n      tag_81\n      jump\t// in\n    tag_121:\n    tag_120:\n      0x20\n      mul\n      0x20\n      add\n      add\n      mload\n        /* \"contracts/Journal3Jobs.sol\":1541:1571  checkpoints[i].checkpoint_addr */\n      0x00\n      add\n      mload\n        /* \"contracts/Journal3Jobs.sol\":1514:1572  tempJob.candidate_profiles[checkpoints[i].checkpoint_addr] */\n      dup2\n      mstore\n      0x20\n      add\n      swap1\n      dup2\n      mstore\n      0x20\n      add\n      0x00\n      keccak256\n        /* \"contracts/Journal3Jobs.sol\":1514:1589  tempJob.candidate_profiles[checkpoints[i].checkpoint_addr] = checkpoints[i] */\n      0x00\n      dup3\n      add\n      mload\n      dup2\n      0x00\n      add\n      sstore\n      0x20\n      dup3\n      add\n      mload\n      dup2\n      0x01\n      add\n      swap1\n      dup1\n      mload\n      swap1\n      0x20\n      add\n      swap1\n      tag_122\n      swap3\n      swap2\n      swap1\n      tag_123\n      jump\t// in\n    tag_122:\n      pop\n      0x40\n      dup3\n      add\n      mload\n      dup2\n      0x02\n      add\n      swap1\n      dup1\n      mload\n      swap1\n      0x20\n      add\n      swap1\n      tag_124\n      swap3\n      swap2\n      swap1\n      tag_125\n      jump\t// in\n    tag_124:\n      pop\n      swap1\n      pop\n      pop\n        /* \"contracts/Journal3Jobs.sol\":1495:1498  i++ */\n      dup1\n      dup1\n      tag_126\n      swap1\n      tag_127\n      jump\t// in\n    tag_126:\n      swap2\n      pop\n      pop\n        /* \"contracts/Journal3Jobs.sol\":1459:1601  for (uint i=0; i < checkpoint_size; i++){\r... */\n      jump(tag_115)\n    tag_116:\n      pop\n        /* \"contracts/Journal3Jobs.sol\":1618:1624  uint i */\n      0x00\n        /* \"contracts/Journal3Jobs.sol\":1613:1904  for (uint i=0; i < qualifications_size; i++){\r... */\n    tag_128:\n        /* \"contracts/Journal3Jobs.sol\":1632:1651  qualifications_size */\n      dup6\n        /* \"contracts/Journal3Jobs.sol\":1628:1629  i */\n      dup2\n        /* \"contracts/Journal3Jobs.sol\":1628:1651  i < qualifications_size */\n      lt\n        /* \"contracts/Journal3Jobs.sol\":1613:1904  for (uint i=0; i < qualifications_size; i++){\r... */\n      iszero\n      tag_129\n      jumpi\n        /* \"contracts/Journal3Jobs.sol\":1676:1682  uint j */\n      0x00\n        /* \"contracts/Journal3Jobs.sol\":1672:1893  for(uint j=0; j < qualifications_size; j++){\r... */\n    tag_131:\n        /* \"contracts/Journal3Jobs.sol\":1690:1709  qualifications_size */\n      dup7\n        /* \"contracts/Journal3Jobs.sol\":1686:1687  j */\n      dup2\n        /* \"contracts/Journal3Jobs.sol\":1686:1709  j < qualifications_size */\n      lt\n        /* \"contracts/Journal3Jobs.sol\":1672:1893  for(uint j=0; j < qualifications_size; j++){\r... */\n      iszero\n      tag_132\n      jumpi\n        /* \"contracts/Journal3Jobs.sol\":1768:1769  1 */\n      0x01\n        /* \"contracts/Journal3Jobs.sol\":1737:1760  qualification_filtering */\n      dup11\n        /* \"contracts/Journal3Jobs.sol\":1761:1762  i */\n      dup4\n        /* \"contracts/Journal3Jobs.sol\":1737:1763  qualification_filtering[i] */\n      dup2\n      mload\n      dup2\n      lt\n      tag_134\n      jumpi\n      tag_135\n      tag_81\n      jump\t// in\n    tag_135:\n    tag_134:\n      0x20\n      mul\n      0x20\n      add\n      add\n      mload\n        /* \"contracts/Journal3Jobs.sol\":1764:1765  j */\n      dup3\n        /* \"contracts/Journal3Jobs.sol\":1737:1766  qualification_filtering[i][j] */\n      dup2\n      mload\n      dup2\n      lt\n      tag_136\n      jumpi\n      tag_137\n      tag_81\n      jump\t// in\n    tag_137:\n    tag_136:\n      0x20\n      mul\n      0x20\n      add\n      add\n      mload\n        /* \"contracts/Journal3Jobs.sol\":1737:1769  qualification_filtering[i][j]==1 */\n      eq\n        /* \"contracts/Journal3Jobs.sol\":1734:1878  if(qualification_filtering[i][j]==1){\r... */\n      iszero\n      tag_138\n      jumpi\n        /* \"contracts/Journal3Jobs.sol\":1793:1800  tempJob */\n      dup3\n        /* \"contracts/Journal3Jobs.sol\":1793:1815  tempJob.qualifications */\n      0x01\n      add\n        /* \"contracts/Journal3Jobs.sol\":1793:1834  tempJob.qualifications[qualifications[i]] */\n      0x00\n        /* \"contracts/Journal3Jobs.sol\":1816:1830  qualifications */\n      dup13\n        /* \"contracts/Journal3Jobs.sol\":1831:1832  i */\n      dup5\n        /* \"contracts/Journal3Jobs.sol\":1816:1833  qualifications[i] */\n      dup2\n      mload\n      dup2\n      lt\n      tag_139\n      jumpi\n      tag_140\n      tag_81\n      jump\t// in\n    tag_140:\n    tag_139:\n      0x20\n      mul\n      0x20\n      add\n      add\n      mload\n        /* \"contracts/Journal3Jobs.sol\":1793:1834  tempJob.qualifications[qualifications[i]] */\n      dup2\n      mstore\n      0x20\n      add\n      swap1\n      dup2\n      mstore\n      0x20\n      add\n      0x00\n      keccak256\n        /* \"contracts/Journal3Jobs.sol\":1840:1854  qualifications */\n      dup12\n        /* \"contracts/Journal3Jobs.sol\":1855:1856  j */\n      dup3\n        /* \"contracts/Journal3Jobs.sol\":1840:1857  qualifications[j] */\n      dup2\n      mload\n      dup2\n      lt\n      tag_141\n      jumpi\n      tag_142\n      tag_81\n      jump\t// in\n    tag_142:\n    tag_141:\n      0x20\n      mul\n      0x20\n      add\n      add\n      mload\n        /* \"contracts/Journal3Jobs.sol\":1793:1858  tempJob.qualifications[qualifications[i]].push(qualifications[j]) */\n      swap1\n      dup1\n      0x01\n      dup2\n      sload\n      add\n      dup1\n      dup3\n      sstore\n      dup1\n      swap2\n      pop\n      pop\n      0x01\n      swap1\n      sub\n      swap1\n      0x00\n      mstore\n      keccak256(0x00, 0x20)\n      add\n      0x00\n      swap1\n      swap2\n      swap1\n      swap2\n      swap1\n      swap2\n      pop\n      sstore\n        /* \"contracts/Journal3Jobs.sol\":1734:1878  if(qualification_filtering[i][j]==1){\r... */\n    tag_138:\n        /* \"contracts/Journal3Jobs.sol\":1711:1714  j++ */\n      dup1\n      dup1\n      tag_144\n      swap1\n      tag_127\n      jump\t// in\n    tag_144:\n      swap2\n      pop\n      pop\n        /* \"contracts/Journal3Jobs.sol\":1672:1893  for(uint j=0; j < qualifications_size; j++){\r... */\n      jump(tag_131)\n    tag_132:\n      pop\n        /* \"contracts/Journal3Jobs.sol\":1653:1656  i++ */\n      dup1\n      dup1\n      tag_145\n      swap1\n      tag_127\n      jump\t// in\n    tag_145:\n      swap2\n      pop\n      pop\n        /* \"contracts/Journal3Jobs.sol\":1613:1904  for (uint i=0; i < qualifications_size; i++){\r... */\n      jump(tag_128)\n    tag_129:\n      pop\n        /* \"contracts/Journal3Jobs.sol\":1934:1939  false */\n      0x00\n        /* \"contracts/Journal3Jobs.sol\":1914:1921  tempJob */\n      dup2\n        /* \"contracts/Journal3Jobs.sol\":1914:1931  tempJob.is_active */\n      0x04\n      add\n      0x00\n        /* \"contracts/Journal3Jobs.sol\":1914:1939  tempJob.is_active = false */\n      0x0100\n      exp\n      dup2\n      sload\n      dup2\n      0xff\n      mul\n      not\n      and\n      swap1\n      dup4\n      iszero\n      iszero\n      mul\n      or\n      swap1\n      sstore\n      pop\n        /* \"contracts/Journal3Jobs.sol\":1971:1972  0 */\n      0x00\n        /* \"contracts/Journal3Jobs.sol\":1950:1957  tempJob */\n      dup2\n        /* \"contracts/Journal3Jobs.sol\":1950:1968  tempJob.jou_staked */\n      0x03\n      add\n        /* \"contracts/Journal3Jobs.sol\":1950:1972  tempJob.jou_staked = 0 */\n      dup2\n      swap1\n      sstore\n      pop\n        /* \"contracts/Journal3Jobs.sol\":2009:2024  closing_indexer */\n      dup3\n        /* \"contracts/Journal3Jobs.sol\":1983:1990  tempJob */\n      dup2\n        /* \"contracts/Journal3Jobs.sol\":1983:2006  tempJob.closing_indexer */\n      0x04\n      add\n      0x01\n        /* \"contracts/Journal3Jobs.sol\":1983:2024  tempJob.closing_indexer = closing_indexer */\n      0x0100\n      exp\n      dup2\n      sload\n      dup2\n      0xffffffffffffffffffffffffffffffffffffffff\n      mul\n      not\n      and\n      swap1\n      dup4\n      0xffffffffffffffffffffffffffffffffffffffff\n      and\n      mul\n      or\n      swap1\n      sstore\n      pop\n        /* \"contracts/Journal3Jobs.sol\":2035:2042  job_cnt */\n      0x01\n      0x00\n        /* \"contracts/Journal3Jobs.sol\":2035:2044  job_cnt++ */\n      dup2\n      sload\n      dup1\n      swap3\n      swap2\n      swap1\n      tag_146\n      swap1\n      tag_127\n      jump\t// in\n    tag_146:\n      swap2\n      swap1\n      pop\n      sstore\n      pop\n        /* \"contracts/Journal3Jobs.sol\":2064:2068  true */\n      0x01\n        /* \"contracts/Journal3Jobs.sol\":2057:2068  return true */\n      swap2\n      pop\n      pop\n        /* \"contracts/Journal3Jobs.sol\":1057:2080  function createJob(bytes32 metadata_ipfs, uint[] memory qualifications, uint[][] memory qualification_filtering, Checkpoints[] memory checkpoints, uint checkpoint_size, uint qualifications_size, uint root, address closing_indexer) public returns(bool){\r... */\n      swap9\n      swap8\n      pop\n      pop\n      pop\n      pop\n      pop\n      pop\n      pop\n      pop\n      jump\t// out\n        /* \"contracts/Journal3Jobs.sol\":3488:3805  function close_job(uint idx) public returns(bool) {\r... */\n    tag_37:\n        /* \"contracts/Journal3Jobs.sol\":3532:3536  bool */\n      0x00\n        /* \"contracts/Journal3Jobs.sol\":3569:3576  owner() */\n      tag_148\n        /* \"contracts/Journal3Jobs.sol\":3569:3574  owner */\n      tag_18\n        /* \"contracts/Journal3Jobs.sol\":3569:3576  owner() */\n      jump\t// in\n    tag_148:\n        /* \"contracts/Journal3Jobs.sol\":3557:3576  msg.sender==owner() */\n      0xffffffffffffffffffffffffffffffffffffffff\n      and\n        /* \"contracts/Journal3Jobs.sol\":3557:3567  msg.sender */\n      caller\n        /* \"contracts/Journal3Jobs.sol\":3557:3576  msg.sender==owner() */\n      0xffffffffffffffffffffffffffffffffffffffff\n      and\n      eq\n        /* \"contracts/Journal3Jobs.sol\":3557:3621  msg.sender==owner()\t|| msg.sender==all_jobs[idx].closing_indexer */\n      dup1\n      tag_149\n      jumpi\n      pop\n        /* \"contracts/Journal3Jobs.sol\":3592:3600  all_jobs */\n      0x02\n        /* \"contracts/Journal3Jobs.sol\":3592:3605  all_jobs[idx] */\n      0x00\n        /* \"contracts/Journal3Jobs.sol\":3601:3604  idx */\n      dup4\n        /* \"contracts/Journal3Jobs.sol\":3592:3605  all_jobs[idx] */\n      dup2\n      mstore\n      0x20\n      add\n      swap1\n      dup2\n      mstore\n      0x20\n      add\n      0x00\n      keccak256\n        /* \"contracts/Journal3Jobs.sol\":3592:3621  all_jobs[idx].closing_indexer */\n      0x04\n      add\n      0x01\n      swap1\n      sload\n      swap1\n      0x0100\n      exp\n      swap1\n      div\n      0xffffffffffffffffffffffffffffffffffffffff\n      and\n        /* \"contracts/Journal3Jobs.sol\":3580:3621  msg.sender==all_jobs[idx].closing_indexer */\n      0xffffffffffffffffffffffffffffffffffffffff\n      and\n        /* \"contracts/Journal3Jobs.sol\":3580:3590  msg.sender */\n      caller\n        /* \"contracts/Journal3Jobs.sol\":3580:3621  msg.sender==all_jobs[idx].closing_indexer */\n      0xffffffffffffffffffffffffffffffffffffffff\n      and\n      eq\n        /* \"contracts/Journal3Jobs.sol\":3557:3621  msg.sender==owner()\t|| msg.sender==all_jobs[idx].closing_indexer */\n    tag_149:\n        /* \"contracts/Journal3Jobs.sol\":3549:3645  require(msg.sender==owner()\t|| msg.sender==all_jobs[idx].closing_indexer, \"Unauthorized Closer\") */\n      tag_150\n      jumpi\n      mload(0x40)\n      0x08c379a000000000000000000000000000000000000000000000000000000000\n      dup2\n      mstore\n      0x04\n      add\n      tag_151\n      swap1\n      tag_152\n      jump\t// in\n    tag_151:\n      mload(0x40)\n      dup1\n      swap2\n      sub\n      swap1\n      revert\n    tag_150:\n        /* \"contracts/Journal3Jobs.sol\":3686:3690  true */\n      0x01\n        /* \"contracts/Journal3Jobs.sol\":3659:3690  all_jobs[idx].is_active == true */\n      iszero\n      iszero\n        /* \"contracts/Journal3Jobs.sol\":3659:3667  all_jobs */\n      0x02\n        /* \"contracts/Journal3Jobs.sol\":3659:3672  all_jobs[idx] */\n      0x00\n        /* \"contracts/Journal3Jobs.sol\":3668:3671  idx */\n      dup5\n        /* \"contracts/Journal3Jobs.sol\":3659:3672  all_jobs[idx] */\n      dup2\n      mstore\n      0x20\n      add\n      swap1\n      dup2\n      mstore\n      0x20\n      add\n      0x00\n      keccak256\n        /* \"contracts/Journal3Jobs.sol\":3659:3682  all_jobs[idx].is_active */\n      0x04\n      add\n      0x00\n      swap1\n      sload\n      swap1\n      0x0100\n      exp\n      swap1\n      div\n      0xff\n      and\n        /* \"contracts/Journal3Jobs.sol\":3659:3690  all_jobs[idx].is_active == true */\n      iszero\n      iszero\n      eq\n        /* \"contracts/Journal3Jobs.sol\":3656:3775  if(all_jobs[idx].is_active == true){\r... */\n      iszero\n      tag_153\n      jumpi\n        /* \"contracts/Journal3Jobs.sol\":3732:3737  false */\n      0x00\n        /* \"contracts/Journal3Jobs.sol\":3706:3714  all_jobs */\n      0x02\n        /* \"contracts/Journal3Jobs.sol\":3706:3719  all_jobs[idx] */\n      0x00\n        /* \"contracts/Journal3Jobs.sol\":3715:3718  idx */\n      dup5\n        /* \"contracts/Journal3Jobs.sol\":3706:3719  all_jobs[idx] */\n      dup2\n      mstore\n      0x20\n      add\n      swap1\n      dup2\n      mstore\n      0x20\n      add\n      0x00\n      keccak256\n        /* \"contracts/Journal3Jobs.sol\":3706:3729  all_jobs[idx].is_active */\n      0x04\n      add\n      0x00\n        /* \"contracts/Journal3Jobs.sol\":3706:3737  all_jobs[idx].is_active = false */\n      0x0100\n      exp\n      dup2\n      sload\n      dup2\n      0xff\n      mul\n      not\n      and\n      swap1\n      dup4\n      iszero\n      iszero\n      mul\n      or\n      swap1\n      sstore\n      pop\n        /* \"contracts/Journal3Jobs.sol\":3759:3763  true */\n      0x01\n        /* \"contracts/Journal3Jobs.sol\":3752:3763  return true */\n      swap1\n      pop\n      jump(tag_147)\n        /* \"contracts/Journal3Jobs.sol\":3656:3775  if(all_jobs[idx].is_active == true){\r... */\n    tag_153:\n        /* \"contracts/Journal3Jobs.sol\":3792:3797  false */\n      0x00\n        /* \"contracts/Journal3Jobs.sol\":3785:3797  return false */\n      swap1\n      pop\n        /* \"contracts/Journal3Jobs.sol\":3488:3805  function close_job(uint idx) public returns(bool) {\r... */\n    tag_147:\n      swap2\n      swap1\n      pop\n      jump\t// out\n        /* \"contracts/Journal3Jobs.sol\":686:723  mapping (uint => Job) public all_jobs */\n    tag_41:\n      mstore(0x20, 0x02)\n      dup1\n      0x00\n      mstore\n      keccak256(0x00, 0x40)\n      0x00\n      swap2\n      pop\n      swap1\n      pop\n      dup1\n      0x00\n      add\n      sload\n      swap1\n      dup1\n      0x03\n      add\n      sload\n      swap1\n      dup1\n      0x04\n      add\n      0x00\n      swap1\n      sload\n      swap1\n      0x0100\n      exp\n      swap1\n      div\n      0xff\n      and\n      swap1\n      dup1\n      0x04\n      add\n      0x01\n      swap1\n      sload\n      swap1\n      0x0100\n      exp\n      swap1\n      div\n      0xffffffffffffffffffffffffffffffffffffffff\n      and\n      swap1\n      dup1\n      0x04\n      add\n      0x15\n      swap1\n      sload\n      swap1\n      0x0100\n      exp\n      swap1\n      div\n      0xff\n      and\n      swap1\n      dup1\n      0x05\n      add\n      sload\n      swap1\n      pop\n      dup7\n      jump\t// out\n        /* \"@openzeppelin/contracts/access/Ownable.sol\":2081:2279  function transferOwnership(address newOwner) public virtual onlyOwner {... */\n    tag_47:\n        /* \"@openzeppelin/contracts/access/Ownable.sol\":1094:1107  _checkOwner() */\n      tag_155\n        /* \"@openzeppelin/contracts/access/Ownable.sol\":1094:1105  _checkOwner */\n      tag_58\n        /* \"@openzeppelin/contracts/access/Ownable.sol\":1094:1107  _checkOwner() */\n      jump\t// in\n    tag_155:\n        /* \"@openzeppelin/contracts/access/Ownable.sol\":2189:2190  0 */\n      0x00\n        /* \"@openzeppelin/contracts/access/Ownable.sol\":2169:2191  newOwner != address(0) */\n      0xffffffffffffffffffffffffffffffffffffffff\n      and\n        /* \"@openzeppelin/contracts/access/Ownable.sol\":2169:2177  newOwner */\n      dup2\n        /* \"@openzeppelin/contracts/access/Ownable.sol\":2169:2191  newOwner != address(0) */\n      0xffffffffffffffffffffffffffffffffffffffff\n      and\n      eq\n      iszero\n        /* \"@openzeppelin/contracts/access/Ownable.sol\":2161:2234  require(newOwner != address(0), \"Ownable: new owner is the zero address\") */\n      tag_157\n      jumpi\n      mload(0x40)\n      0x08c379a000000000000000000000000000000000000000000000000000000000\n      dup2\n      mstore\n      0x04\n      add\n      tag_158\n      swap1\n      tag_159\n      jump\t// in\n    tag_158:\n      mload(0x40)\n      dup1\n      swap2\n      sub\n      swap1\n      revert\n    tag_157:\n        /* \"@openzeppelin/contracts/access/Ownable.sol\":2244:2272  _transferOwnership(newOwner) */\n      tag_160\n        /* \"@openzeppelin/contracts/access/Ownable.sol\":2263:2271  newOwner */\n      dup2\n        /* \"@openzeppelin/contracts/access/Ownable.sol\":2244:2262  _transferOwnership */\n      tag_61\n        /* \"@openzeppelin/contracts/access/Ownable.sol\":2244:2272  _transferOwnership(newOwner) */\n      jump\t// in\n    tag_160:\n        /* \"@openzeppelin/contracts/access/Ownable.sol\":2081:2279  function transferOwnership(address newOwner) public virtual onlyOwner {... */\n      pop\n      jump\t// out\n        /* \"@openzeppelin/contracts/access/Ownable.sol\":1359:1489  function _checkOwner() internal view virtual {... */\n    tag_58:\n        /* \"@openzeppelin/contracts/access/Ownable.sol\":1433:1445  _msgSender() */\n      tag_162\n        /* \"@openzeppelin/contracts/access/Ownable.sol\":1433:1443  _msgSender */\n      tag_163\n        /* \"@openzeppelin/contracts/access/Ownable.sol\":1433:1445  _msgSender() */\n      jump\t// in\n    tag_162:\n        /* \"@openzeppelin/contracts/access/Ownable.sol\":1422:1445  owner() == _msgSender() */\n      0xffffffffffffffffffffffffffffffffffffffff\n      and\n        /* \"@openzeppelin/contracts/access/Ownable.sol\":1422:1429  owner() */\n      tag_164\n        /* \"@openzeppelin/contracts/access/Ownable.sol\":1422:1427  owner */\n      tag_18\n        /* \"@openzeppelin/contracts/access/Ownable.sol\":1422:1429  owner() */\n      jump\t// in\n    tag_164:\n        /* \"@openzeppelin/contracts/access/Ownable.sol\":1422:1445  owner() == _msgSender() */\n      0xffffffffffffffffffffffffffffffffffffffff\n      and\n      eq\n        /* \"@openzeppelin/contracts/access/Ownable.sol\":1414:1482  require(owner() == _msgSender(), \"Ownable: caller is not the owner\") */\n      tag_165\n      jumpi\n      mload(0x40)\n      0x08c379a000000000000000000000000000000000000000000000000000000000\n      dup2\n      mstore\n      0x04\n      add\n      tag_166\n      swap1\n      tag_167\n      jump\t// in\n    tag_166:\n      mload(0x40)\n      dup1\n      swap2\n      sub\n      swap1\n      revert\n    tag_165:\n        /* \"@openzeppelin/contracts/access/Ownable.sol\":1359:1489  function _checkOwner() internal view virtual {... */\n      jump\t// out\n        /* \"@openzeppelin/contracts/access/Ownable.sol\":2433:2620  function _transferOwnership(address newOwner) internal virtual {... */\n    tag_61:\n        /* \"@openzeppelin/contracts/access/Ownable.sol\":2506:2522  address oldOwner */\n      0x00\n        /* \"@openzeppelin/contracts/access/Ownable.sol\":2525:2531  _owner */\n      dup1\n      0x00\n      swap1\n      sload\n      swap1\n      0x0100\n      exp\n      swap1\n      div\n      0xffffffffffffffffffffffffffffffffffffffff\n      and\n        /* \"@openzeppelin/contracts/access/Ownable.sol\":2506:2531  address oldOwner = _owner */\n      swap1\n      pop\n        /* \"@openzeppelin/contracts/access/Ownable.sol\":2550:2558  newOwner */\n      dup2\n        /* \"@openzeppelin/contracts/access/Ownable.sol\":2541:2547  _owner */\n      0x00\n      dup1\n        /* \"@openzeppelin/contracts/access/Ownable.sol\":2541:2558  _owner = newOwner */\n      0x0100\n      exp\n      dup2\n      sload\n      dup2\n      0xffffffffffffffffffffffffffffffffffffffff\n      mul\n      not\n      and\n      swap1\n      dup4\n      0xffffffffffffffffffffffffffffffffffffffff\n      and\n      mul\n      or\n      swap1\n      sstore\n      pop\n        /* \"@openzeppelin/contracts/access/Ownable.sol\":2604:2612  newOwner */\n      dup2\n        /* \"@openzeppelin/contracts/access/Ownable.sol\":2573:2613  OwnershipTransferred(oldOwner, newOwner) */\n      0xffffffffffffffffffffffffffffffffffffffff\n      and\n        /* \"@openzeppelin/contracts/access/Ownable.sol\":2594:2602  oldOwner */\n      dup2\n        /* \"@openzeppelin/contracts/access/Ownable.sol\":2573:2613  OwnershipTransferred(oldOwner, newOwner) */\n      0xffffffffffffffffffffffffffffffffffffffff\n      and\n      0x8be0079c531659141344cd1fd0a4f28419497f9722a3daafe3b4186f6b6457e0\n      mload(0x40)\n      mload(0x40)\n      dup1\n      swap2\n      sub\n      swap1\n      log3\n        /* \"@openzeppelin/contracts/access/Ownable.sol\":2496:2620  {... */\n      pop\n        /* \"@openzeppelin/contracts/access/Ownable.sol\":2433:2620  function _transferOwnership(address newOwner) internal virtual {... */\n      pop\n      jump\t// out\n        /* \"@openzeppelin/contracts/utils/Context.sol\":640:736  function _msgSender() internal view virtual returns (address) {... */\n    tag_163:\n        /* \"@openzeppelin/contracts/utils/Context.sol\":693:700  address */\n      0x00\n        /* \"@openzeppelin/contracts/utils/Context.sol\":719:729  msg.sender */\n      caller\n        /* \"@openzeppelin/contracts/utils/Context.sol\":712:729  return msg.sender */\n      swap1\n      pop\n        /* \"@openzeppelin/contracts/utils/Context.sol\":640:736  function _msgSender() internal view virtual returns (address) {... */\n      swap1\n      jump\t// out\n    tag_123:\n      dup3\n      dup1\n      sload\n      tag_170\n      swap1\n      tag_171\n      jump\t// in\n    tag_170:\n      swap1\n      0x00\n      mstore\n      keccak256(0x00, 0x20)\n      swap1\n      0x1f\n      add\n      0x20\n      swap1\n      div\n      dup2\n      add\n      swap3\n      dup3\n      tag_173\n      jumpi\n      0x00\n      dup6\n      sstore\n      jump(tag_172)\n    tag_173:\n      dup3\n      0x1f\n      lt\n      tag_174\n      jumpi\n      dup1\n      mload\n      not(0xff)\n      and\n      dup4\n      dup1\n      add\n      or\n      dup6\n      sstore\n      jump(tag_172)\n    tag_174:\n      dup3\n      dup1\n      add\n      0x01\n      add\n      dup6\n      sstore\n      dup3\n      iszero\n      tag_172\n      jumpi\n      swap2\n      dup3\n      add\n    tag_175:\n      dup3\n      dup2\n      gt\n      iszero\n      tag_176\n      jumpi\n      dup3\n      mload\n      dup3\n      sstore\n      swap2\n      0x20\n      add\n      swap2\n      swap1\n      0x01\n      add\n      swap1\n      jump(tag_175)\n    tag_176:\n    tag_172:\n      pop\n      swap1\n      pop\n      tag_177\n      swap2\n      swap1\n      tag_178\n      jump\t// in\n    tag_177:\n      pop\n      swap1\n      jump\t// out\n    tag_125:\n      dup3\n      dup1\n      sload\n      dup3\n      dup3\n      sstore\n      swap1\n      0x00\n      mstore\n      keccak256(0x00, 0x20)\n      swap1\n      dup2\n      add\n      swap3\n      dup3\n      iszero\n      tag_179\n      jumpi\n      swap2\n      0x20\n      mul\n      dup3\n      add\n    tag_180:\n      dup3\n      dup2\n      gt\n      iszero\n      tag_181\n      jumpi\n      dup3\n      mload\n      dup3\n      exp(0x0100, 0x00)\n      dup2\n      sload\n      dup2\n      0xffffffffffffffffffffffffffffffffffffffff\n      mul\n      not\n      and\n      swap1\n      dup4\n      0xffffffffffffffffffffffffffffffffffffffff\n      and\n      mul\n      or\n      swap1\n      sstore\n      pop\n      swap2\n      0x20\n      add\n      swap2\n      swap1\n      0x01\n      add\n      swap1\n      jump(tag_180)\n    tag_181:\n    tag_179:\n      pop\n      swap1\n      pop\n      tag_182\n      swap2\n      swap1\n      tag_178\n      jump\t// in\n    tag_182:\n      pop\n      swap1\n      jump\t// out\n    tag_178:\n    tag_183:\n      dup1\n      dup3\n      gt\n      iszero\n      tag_184\n      jumpi\n      0x00\n      dup2\n      0x00\n      swap1\n      sstore\n      pop\n      0x01\n      add\n      jump(tag_183)\n    tag_184:\n      pop\n      swap1\n      jump\t// out\n        /* \"#utility.yul\":24:746   */\n    tag_186:\n        /* \"#utility.yul\":120:125   */\n      0x00\n        /* \"#utility.yul\":145:226   */\n      tag_188\n        /* \"#utility.yul\":161:225   */\n      tag_189\n        /* \"#utility.yul\":218:224   */\n      dup5\n        /* \"#utility.yul\":161:225   */\n      tag_190\n      jump\t// in\n    tag_189:\n        /* \"#utility.yul\":145:226   */\n      tag_191\n      jump\t// in\n    tag_188:\n        /* \"#utility.yul\":136:226   */\n      swap1\n      pop\n        /* \"#utility.yul\":246:251   */\n      dup1\n        /* \"#utility.yul\":275:281   */\n      dup4\n        /* \"#utility.yul\":268:273   */\n      dup3\n        /* \"#utility.yul\":261:282   */\n      mstore\n        /* \"#utility.yul\":309:313   */\n      0x20\n        /* \"#utility.yul\":302:307   */\n      dup3\n        /* \"#utility.yul\":298:314   */\n      add\n        /* \"#utility.yul\":291:314   */\n      swap1\n      pop\n        /* \"#utility.yul\":335:341   */\n      dup3\n        /* \"#utility.yul\":385:388   */\n      dup6\n        /* \"#utility.yul\":377:381   */\n      0x20\n        /* \"#utility.yul\":369:375   */\n      dup7\n        /* \"#utility.yul\":365:382   */\n      mul\n        /* \"#utility.yul\":360:363   */\n      dup3\n        /* \"#utility.yul\":356:383   */\n      add\n        /* \"#utility.yul\":353:389   */\n      gt\n        /* \"#utility.yul\":350:493   */\n      iszero\n      tag_192\n      jumpi\n        /* \"#utility.yul\":404:483   */\n      tag_193\n      tag_194\n      jump\t// in\n    tag_193:\n        /* \"#utility.yul\":350:493   */\n    tag_192:\n        /* \"#utility.yul\":517:518   */\n      0x00\n        /* \"#utility.yul\":502:740   */\n    tag_195:\n        /* \"#utility.yul\":527:533   */\n      dup6\n        /* \"#utility.yul\":524:525   */\n      dup2\n        /* \"#utility.yul\":521:534   */\n      lt\n        /* \"#utility.yul\":502:740   */\n      iszero\n      tag_197\n      jumpi\n        /* \"#utility.yul\":595:598   */\n      dup2\n        /* \"#utility.yul\":624:661   */\n      tag_198\n        /* \"#utility.yul\":657:660   */\n      dup9\n        /* \"#utility.yul\":645:655   */\n      dup3\n        /* \"#utility.yul\":624:661   */\n      tag_199\n      jump\t// in\n    tag_198:\n        /* \"#utility.yul\":619:622   */\n      dup5\n        /* \"#utility.yul\":612:662   */\n      mstore\n        /* \"#utility.yul\":691:695   */\n      0x20\n        /* \"#utility.yul\":686:689   */\n      dup5\n        /* \"#utility.yul\":682:696   */\n      add\n        /* \"#utility.yul\":675:696   */\n      swap4\n      pop\n        /* \"#utility.yul\":725:729   */\n      0x20\n        /* \"#utility.yul\":720:723   */\n      dup4\n        /* \"#utility.yul\":716:730   */\n      add\n        /* \"#utility.yul\":709:730   */\n      swap3\n      pop\n        /* \"#utility.yul\":562:740   */\n      pop\n        /* \"#utility.yul\":549:550   */\n      0x01\n        /* \"#utility.yul\":546:547   */\n      dup2\n        /* \"#utility.yul\":542:551   */\n      add\n        /* \"#utility.yul\":537:551   */\n      swap1\n      pop\n        /* \"#utility.yul\":502:740   */\n      jump(tag_195)\n    tag_197:\n        /* \"#utility.yul\":506:520   */\n      pop\n        /* \"#utility.yul\":126:746   */\n      pop\n      pop\n        /* \"#utility.yul\":24:746   */\n      swap4\n      swap3\n      pop\n      pop\n      pop\n      jump\t// out\n        /* \"#utility.yul\":771:1773   */\n    tag_200:\n        /* \"#utility.yul\":892:897   */\n      0x00\n        /* \"#utility.yul\":917:1023   */\n      tag_202\n        /* \"#utility.yul\":933:1022   */\n      tag_203\n        /* \"#utility.yul\":1015:1021   */\n      dup5\n        /* \"#utility.yul\":933:1022   */\n      tag_204\n      jump\t// in\n    tag_203:\n        /* \"#utility.yul\":917:1023   */\n      tag_191\n      jump\t// in\n    tag_202:\n        /* \"#utility.yul\":908:1023   */\n      swap1\n      pop\n        /* \"#utility.yul\":1043:1048   */\n      dup1\n        /* \"#utility.yul\":1072:1078   */\n      dup4\n        /* \"#utility.yul\":1065:1070   */\n      dup3\n        /* \"#utility.yul\":1058:1079   */\n      mstore\n        /* \"#utility.yul\":1106:1110   */\n      0x20\n        /* \"#utility.yul\":1099:1104   */\n      dup3\n        /* \"#utility.yul\":1095:1111   */\n      add\n        /* \"#utility.yul\":1088:1111   */\n      swap1\n      pop\n        /* \"#utility.yul\":1132:1138   */\n      dup3\n        /* \"#utility.yul\":1182:1185   */\n      dup6\n        /* \"#utility.yul\":1174:1178   */\n      0x20\n        /* \"#utility.yul\":1166:1172   */\n      dup7\n        /* \"#utility.yul\":1162:1179   */\n      mul\n        /* \"#utility.yul\":1157:1160   */\n      dup3\n        /* \"#utility.yul\":1153:1180   */\n      add\n        /* \"#utility.yul\":1150:1186   */\n      gt\n        /* \"#utility.yul\":1147:1290   */\n      iszero\n      tag_205\n      jumpi\n        /* \"#utility.yul\":1201:1280   */\n      tag_206\n      tag_194\n      jump\t// in\n    tag_206:\n        /* \"#utility.yul\":1147:1290   */\n    tag_205:\n        /* \"#utility.yul\":1314:1315   */\n      0x00\n        /* \"#utility.yul\":1299:1767   */\n    tag_207:\n        /* \"#utility.yul\":1324:1330   */\n      dup6\n        /* \"#utility.yul\":1321:1322   */\n      dup2\n        /* \"#utility.yul\":1318:1331   */\n      lt\n        /* \"#utility.yul\":1299:1767   */\n      iszero\n      tag_209\n      jumpi\n        /* \"#utility.yul\":1406:1409   */\n      dup2\n        /* \"#utility.yul\":1393:1410   */\n      calldataload\n        /* \"#utility.yul\":1442:1460   */\n      0xffffffffffffffff\n        /* \"#utility.yul\":1429:1440   */\n      dup2\n        /* \"#utility.yul\":1426:1461   */\n      gt\n        /* \"#utility.yul\":1423:1545   */\n      iszero\n      tag_210\n      jumpi\n        /* \"#utility.yul\":1464:1543   */\n      tag_211\n      tag_212\n      jump\t// in\n    tag_211:\n        /* \"#utility.yul\":1423:1545   */\n    tag_210:\n        /* \"#utility.yul\":1588:1599   */\n      dup1\n        /* \"#utility.yul\":1580:1586   */\n      dup7\n        /* \"#utility.yul\":1576:1600   */\n      add\n        /* \"#utility.yul\":1626:1688   */\n      tag_213\n        /* \"#utility.yul\":1684:1687   */\n      dup10\n        /* \"#utility.yul\":1672:1682   */\n      dup3\n        /* \"#utility.yul\":1626:1688   */\n      tag_214\n      jump\t// in\n    tag_213:\n        /* \"#utility.yul\":1621:1624   */\n      dup6\n        /* \"#utility.yul\":1614:1689   */\n      mstore\n        /* \"#utility.yul\":1718:1722   */\n      0x20\n        /* \"#utility.yul\":1713:1716   */\n      dup6\n        /* \"#utility.yul\":1709:1723   */\n      add\n        /* \"#utility.yul\":1702:1723   */\n      swap5\n      pop\n        /* \"#utility.yul\":1752:1756   */\n      0x20\n        /* \"#utility.yul\":1747:1750   */\n      dup5\n        /* \"#utility.yul\":1743:1757   */\n      add\n        /* \"#utility.yul\":1736:1757   */\n      swap4\n      pop\n        /* \"#utility.yul\":1359:1767   */\n      pop\n      pop\n        /* \"#utility.yul\":1346:1347   */\n      0x01\n        /* \"#utility.yul\":1343:1344   */\n      dup2\n        /* \"#utility.yul\":1339:1348   */\n      add\n        /* \"#utility.yul\":1334:1348   */\n      swap1\n      pop\n        /* \"#utility.yul\":1299:1767   */\n      jump(tag_207)\n    tag_209:\n        /* \"#utility.yul\":1303:1317   */\n      pop\n        /* \"#utility.yul\":898:1773   */\n      pop\n      pop\n        /* \"#utility.yul\":771:1773   */\n      swap4\n      swap3\n      pop\n      pop\n      pop\n      jump\t// out\n        /* \"#utility.yul\":1807:2818   */\n    tag_215:\n        /* \"#utility.yul\":1931:1936   */\n      0x00\n        /* \"#utility.yul\":1956:2065   */\n      tag_217\n        /* \"#utility.yul\":1972:2064   */\n      tag_218\n        /* \"#utility.yul\":2057:2063   */\n      dup5\n        /* \"#utility.yul\":1972:2064   */\n      tag_219\n      jump\t// in\n    tag_218:\n        /* \"#utility.yul\":1956:2065   */\n      tag_191\n      jump\t// in\n    tag_217:\n        /* \"#utility.yul\":1947:2065   */\n      swap1\n      pop\n        /* \"#utility.yul\":2085:2090   */\n      dup1\n        /* \"#utility.yul\":2114:2120   */\n      dup4\n        /* \"#utility.yul\":2107:2112   */\n      dup3\n        /* \"#utility.yul\":2100:2121   */\n      mstore\n        /* \"#utility.yul\":2148:2152   */\n      0x20\n        /* \"#utility.yul\":2141:2146   */\n      dup3\n        /* \"#utility.yul\":2137:2153   */\n      add\n        /* \"#utility.yul\":2130:2153   */\n      swap1\n      pop\n        /* \"#utility.yul\":2174:2180   */\n      dup3\n        /* \"#utility.yul\":2224:2227   */\n      dup6\n        /* \"#utility.yul\":2216:2220   */\n      0x20\n        /* \"#utility.yul\":2208:2214   */\n      dup7\n        /* \"#utility.yul\":2204:2221   */\n      mul\n        /* \"#utility.yul\":2199:2202   */\n      dup3\n        /* \"#utility.yul\":2195:2222   */\n      add\n        /* \"#utility.yul\":2192:2228   */\n      gt\n        /* \"#utility.yul\":2189:2332   */\n      iszero\n      tag_220\n      jumpi\n        /* \"#utility.yul\":2243:2322   */\n      tag_221\n      tag_194\n      jump\t// in\n    tag_221:\n        /* \"#utility.yul\":2189:2332   */\n    tag_220:\n        /* \"#utility.yul\":2356:2357   */\n      0x00\n        /* \"#utility.yul\":2341:2812   */\n    tag_222:\n        /* \"#utility.yul\":2366:2372   */\n      dup6\n        /* \"#utility.yul\":2363:2364   */\n      dup2\n        /* \"#utility.yul\":2360:2373   */\n      lt\n        /* \"#utility.yul\":2341:2812   */\n      iszero\n      tag_224\n      jumpi\n        /* \"#utility.yul\":2448:2451   */\n      dup2\n        /* \"#utility.yul\":2435:2452   */\n      calldataload\n        /* \"#utility.yul\":2484:2502   */\n      0xffffffffffffffff\n        /* \"#utility.yul\":2471:2482   */\n      dup2\n        /* \"#utility.yul\":2468:2503   */\n      gt\n        /* \"#utility.yul\":2465:2587   */\n      iszero\n      tag_225\n      jumpi\n        /* \"#utility.yul\":2506:2585   */\n      tag_226\n      tag_212\n      jump\t// in\n    tag_226:\n        /* \"#utility.yul\":2465:2587   */\n    tag_225:\n        /* \"#utility.yul\":2630:2641   */\n      dup1\n        /* \"#utility.yul\":2622:2628   */\n      dup7\n        /* \"#utility.yul\":2618:2642   */\n      add\n        /* \"#utility.yul\":2668:2733   */\n      tag_227\n        /* \"#utility.yul\":2729:2732   */\n      dup10\n        /* \"#utility.yul\":2717:2727   */\n      dup3\n        /* \"#utility.yul\":2668:2733   */\n      tag_228\n      jump\t// in\n    tag_227:\n        /* \"#utility.yul\":2663:2666   */\n      dup6\n        /* \"#utility.yul\":2656:2734   */\n      mstore\n        /* \"#utility.yul\":2763:2767   */\n      0x20\n        /* \"#utility.yul\":2758:2761   */\n      dup6\n        /* \"#utility.yul\":2754:2768   */\n      add\n        /* \"#utility.yul\":2747:2768   */\n      swap5\n      pop\n        /* \"#utility.yul\":2797:2801   */\n      0x20\n        /* \"#utility.yul\":2792:2795   */\n      dup5\n        /* \"#utility.yul\":2788:2802   */\n      add\n        /* \"#utility.yul\":2781:2802   */\n      swap4\n      pop\n        /* \"#utility.yul\":2401:2812   */\n      pop\n      pop\n        /* \"#utility.yul\":2388:2389   */\n      0x01\n        /* \"#utility.yul\":2385:2386   */\n      dup2\n        /* \"#utility.yul\":2381:2390   */\n      add\n        /* \"#utility.yul\":2376:2390   */\n      swap1\n      pop\n        /* \"#utility.yul\":2341:2812   */\n      jump(tag_222)\n    tag_224:\n        /* \"#utility.yul\":2345:2359   */\n      pop\n        /* \"#utility.yul\":1937:2818   */\n      pop\n      pop\n        /* \"#utility.yul\":1807:2818   */\n      swap4\n      swap3\n      pop\n      pop\n      pop\n      jump\t// out\n        /* \"#utility.yul\":2841:3563   */\n    tag_229:\n        /* \"#utility.yul\":2937:2942   */\n      0x00\n        /* \"#utility.yul\":2962:3043   */\n      tag_231\n        /* \"#utility.yul\":2978:3042   */\n      tag_232\n        /* \"#utility.yul\":3035:3041   */\n      dup5\n        /* \"#utility.yul\":2978:3042   */\n      tag_233\n      jump\t// in\n    tag_232:\n        /* \"#utility.yul\":2962:3043   */\n      tag_191\n      jump\t// in\n    tag_231:\n        /* \"#utility.yul\":2953:3043   */\n      swap1\n      pop\n        /* \"#utility.yul\":3063:3068   */\n      dup1\n        /* \"#utility.yul\":3092:3098   */\n      dup4\n        /* \"#utility.yul\":3085:3090   */\n      dup3\n        /* \"#utility.yul\":3078:3099   */\n      mstore\n        /* \"#utility.yul\":3126:3130   */\n      0x20\n        /* \"#utility.yul\":3119:3124   */\n      dup3\n        /* \"#utility.yul\":3115:3131   */\n      add\n        /* \"#utility.yul\":3108:3131   */\n      swap1\n      pop\n        /* \"#utility.yul\":3152:3158   */\n      dup3\n        /* \"#utility.yul\":3202:3205   */\n      dup6\n        /* \"#utility.yul\":3194:3198   */\n      0x20\n        /* \"#utility.yul\":3186:3192   */\n      dup7\n        /* \"#utility.yul\":3182:3199   */\n      mul\n        /* \"#utility.yul\":3177:3180   */\n      dup3\n        /* \"#utility.yul\":3173:3200   */\n      add\n        /* \"#utility.yul\":3170:3206   */\n      gt\n        /* \"#utility.yul\":3167:3310   */\n      iszero\n      tag_234\n      jumpi\n        /* \"#utility.yul\":3221:3300   */\n      tag_235\n      tag_194\n      jump\t// in\n    tag_235:\n        /* \"#utility.yul\":3167:3310   */\n    tag_234:\n        /* \"#utility.yul\":3334:3335   */\n      0x00\n        /* \"#utility.yul\":3319:3557   */\n    tag_236:\n        /* \"#utility.yul\":3344:3350   */\n      dup6\n        /* \"#utility.yul\":3341:3342   */\n      dup2\n        /* \"#utility.yul\":3338:3351   */\n      lt\n        /* \"#utility.yul\":3319:3557   */\n      iszero\n      tag_238\n      jumpi\n        /* \"#utility.yul\":3412:3415   */\n      dup2\n        /* \"#utility.yul\":3441:3478   */\n      tag_239\n        /* \"#utility.yul\":3474:3477   */\n      dup9\n        /* \"#utility.yul\":3462:3472   */\n      dup3\n        /* \"#utility.yul\":3441:3478   */\n      tag_240\n      jump\t// in\n    tag_239:\n        /* \"#utility.yul\":3436:3439   */\n      dup5\n        /* \"#utility.yul\":3429:3479   */\n      mstore\n        /* \"#utility.yul\":3508:3512   */\n      0x20\n        /* \"#utility.yul\":3503:3506   */\n      dup5\n        /* \"#utility.yul\":3499:3513   */\n      add\n        /* \"#utility.yul\":3492:3513   */\n      swap4\n      pop\n        /* \"#utility.yul\":3542:3546   */\n      0x20\n        /* \"#utility.yul\":3537:3540   */\n      dup4\n        /* \"#utility.yul\":3533:3547   */\n      add\n        /* \"#utility.yul\":3526:3547   */\n      swap3\n      pop\n        /* \"#utility.yul\":3379:3557   */\n      pop\n        /* \"#utility.yul\":3366:3367   */\n      0x01\n        /* \"#utility.yul\":3363:3364   */\n      dup2\n        /* \"#utility.yul\":3359:3368   */\n      add\n        /* \"#utility.yul\":3354:3368   */\n      swap1\n      pop\n        /* \"#utility.yul\":3319:3557   */\n      jump(tag_236)\n    tag_238:\n        /* \"#utility.yul\":3323:3337   */\n      pop\n        /* \"#utility.yul\":2943:3563   */\n      pop\n      pop\n        /* \"#utility.yul\":2841:3563   */\n      swap4\n      swap3\n      pop\n      pop\n      pop\n      jump\t// out\n        /* \"#utility.yul\":3569:3981   */\n    tag_241:\n        /* \"#utility.yul\":3647:3652   */\n      0x00\n        /* \"#utility.yul\":3672:3738   */\n      tag_243\n        /* \"#utility.yul\":3688:3737   */\n      tag_244\n        /* \"#utility.yul\":3730:3736   */\n      dup5\n        /* \"#utility.yul\":3688:3737   */\n      tag_245\n      jump\t// in\n    tag_244:\n        /* \"#utility.yul\":3672:3738   */\n      tag_191\n      jump\t// in\n    tag_243:\n        /* \"#utility.yul\":3663:3738   */\n      swap1\n      pop\n        /* \"#utility.yul\":3761:3767   */\n      dup3\n        /* \"#utility.yul\":3754:3759   */\n      dup2\n        /* \"#utility.yul\":3747:3768   */\n      mstore\n        /* \"#utility.yul\":3799:3803   */\n      0x20\n        /* \"#utility.yul\":3792:3797   */\n      dup2\n        /* \"#utility.yul\":3788:3804   */\n      add\n        /* \"#utility.yul\":3837:3840   */\n      dup5\n        /* \"#utility.yul\":3828:3834   */\n      dup5\n        /* \"#utility.yul\":3823:3826   */\n      dup5\n        /* \"#utility.yul\":3819:3835   */\n      add\n        /* \"#utility.yul\":3816:3841   */\n      gt\n        /* \"#utility.yul\":3813:3925   */\n      iszero\n      tag_246\n      jumpi\n        /* \"#utility.yul\":3844:3923   */\n      tag_247\n      tag_248\n      jump\t// in\n    tag_247:\n        /* \"#utility.yul\":3813:3925   */\n    tag_246:\n        /* \"#utility.yul\":3934:3975   */\n      tag_249\n        /* \"#utility.yul\":3968:3974   */\n      dup5\n        /* \"#utility.yul\":3963:3966   */\n      dup3\n        /* \"#utility.yul\":3958:3961   */\n      dup6\n        /* \"#utility.yul\":3934:3975   */\n      tag_250\n      jump\t// in\n    tag_249:\n        /* \"#utility.yul\":3653:3981   */\n      pop\n        /* \"#utility.yul\":3569:3981   */\n      swap4\n      swap3\n      pop\n      pop\n      pop\n      jump\t// out\n        /* \"#utility.yul\":3987:4126   */\n    tag_199:\n        /* \"#utility.yul\":4033:4038   */\n      0x00\n        /* \"#utility.yul\":4071:4077   */\n      dup2\n        /* \"#utility.yul\":4058:4078   */\n      calldataload\n        /* \"#utility.yul\":4049:4078   */\n      swap1\n      pop\n        /* \"#utility.yul\":4087:4120   */\n      tag_252\n        /* \"#utility.yul\":4114:4119   */\n      dup2\n        /* \"#utility.yul\":4087:4120   */\n      tag_253\n      jump\t// in\n    tag_252:\n        /* \"#utility.yul\":3987:4126   */\n      swap3\n      swap2\n      pop\n      pop\n      jump\t// out\n        /* \"#utility.yul\":4149:4519   */\n    tag_254:\n        /* \"#utility.yul\":4220:4225   */\n      0x00\n        /* \"#utility.yul\":4269:4272   */\n      dup3\n        /* \"#utility.yul\":4262:4266   */\n      0x1f\n        /* \"#utility.yul\":4254:4260   */\n      dup4\n        /* \"#utility.yul\":4250:4267   */\n      add\n        /* \"#utility.yul\":4246:4273   */\n      slt\n        /* \"#utility.yul\":4236:4358   */\n      tag_256\n      jumpi\n        /* \"#utility.yul\":4277:4356   */\n      tag_257\n      tag_212\n      jump\t// in\n    tag_257:\n        /* \"#utility.yul\":4236:4358   */\n    tag_256:\n        /* \"#utility.yul\":4394:4400   */\n      dup2\n        /* \"#utility.yul\":4381:4401   */\n      calldataload\n        /* \"#utility.yul\":4419:4513   */\n      tag_258\n        /* \"#utility.yul\":4509:4512   */\n      dup5\n        /* \"#utility.yul\":4501:4507   */\n      dup3\n        /* \"#utility.yul\":4494:4498   */\n      0x20\n        /* \"#utility.yul\":4486:4492   */\n      dup7\n        /* \"#utility.yul\":4482:4499   */\n      add\n        /* \"#utility.yul\":4419:4513   */\n      tag_186\n      jump\t// in\n    tag_258:\n        /* \"#utility.yul\":4410:4513   */\n      swap2\n      pop\n        /* \"#utility.yul\":4226:4519   */\n      pop\n        /* \"#utility.yul\":4149:4519   */\n      swap3\n      swap2\n      pop\n      pop\n      jump\t// out\n        /* \"#utility.yul\":4544:4964   */\n    tag_259:\n        /* \"#utility.yul\":4640:4645   */\n      0x00\n        /* \"#utility.yul\":4689:4692   */\n      dup3\n        /* \"#utility.yul\":4682:4686   */\n      0x1f\n        /* \"#utility.yul\":4674:4680   */\n      dup4\n        /* \"#utility.yul\":4670:4687   */\n      add\n        /* \"#utility.yul\":4666:4693   */\n      slt\n        /* \"#utility.yul\":4656:4778   */\n      tag_261\n      jumpi\n        /* \"#utility.yul\":4697:4776   */\n      tag_262\n      tag_212\n      jump\t// in\n    tag_262:\n        /* \"#utility.yul\":4656:4778   */\n    tag_261:\n        /* \"#utility.yul\":4814:4820   */\n      dup2\n        /* \"#utility.yul\":4801:4821   */\n      calldataload\n        /* \"#utility.yul\":4839:4958   */\n      tag_263\n        /* \"#utility.yul\":4954:4957   */\n      dup5\n        /* \"#utility.yul\":4946:4952   */\n      dup3\n        /* \"#utility.yul\":4939:4943   */\n      0x20\n        /* \"#utility.yul\":4931:4937   */\n      dup7\n        /* \"#utility.yul\":4927:4944   */\n      add\n        /* \"#utility.yul\":4839:4958   */\n      tag_200\n      jump\t// in\n    tag_263:\n        /* \"#utility.yul\":4830:4958   */\n      swap2\n      pop\n        /* \"#utility.yul\":4646:4964   */\n      pop\n        /* \"#utility.yul\":4544:4964   */\n      swap3\n      swap2\n      pop\n      pop\n      jump\t// out\n        /* \"#utility.yul\":4998:5424   */\n    tag_264:\n        /* \"#utility.yul\":5097:5102   */\n      0x00\n        /* \"#utility.yul\":5146:5149   */\n      dup3\n        /* \"#utility.yul\":5139:5143   */\n      0x1f\n        /* \"#utility.yul\":5131:5137   */\n      dup4\n        /* \"#utility.yul\":5127:5144   */\n      add\n        /* \"#utility.yul\":5123:5150   */\n      slt\n        /* \"#utility.yul\":5113:5235   */\n      tag_266\n      jumpi\n        /* \"#utility.yul\":5154:5233   */\n      tag_267\n      tag_212\n      jump\t// in\n    tag_267:\n        /* \"#utility.yul\":5113:5235   */\n    tag_266:\n        /* \"#utility.yul\":5271:5277   */\n      dup2\n        /* \"#utility.yul\":5258:5278   */\n      calldataload\n        /* \"#utility.yul\":5296:5418   */\n      tag_268\n        /* \"#utility.yul\":5414:5417   */\n      dup5\n        /* \"#utility.yul\":5406:5412   */\n      dup3\n        /* \"#utility.yul\":5399:5403   */\n      0x20\n        /* \"#utility.yul\":5391:5397   */\n      dup7\n        /* \"#utility.yul\":5387:5404   */\n      add\n        /* \"#utility.yul\":5296:5418   */\n      tag_215\n      jump\t// in\n    tag_268:\n        /* \"#utility.yul\":5287:5418   */\n      swap2\n      pop\n        /* \"#utility.yul\":5103:5424   */\n      pop\n        /* \"#utility.yul\":4998:5424   */\n      swap3\n      swap2\n      pop\n      pop\n      jump\t// out\n        /* \"#utility.yul\":5447:5817   */\n    tag_214:\n        /* \"#utility.yul\":5518:5523   */\n      0x00\n        /* \"#utility.yul\":5567:5570   */\n      dup3\n        /* \"#utility.yul\":5560:5564   */\n      0x1f\n        /* \"#utility.yul\":5552:5558   */\n      dup4\n        /* \"#utility.yul\":5548:5565   */\n      add\n        /* \"#utility.yul\":5544:5571   */\n      slt\n        /* \"#utility.yul\":5534:5656   */\n      tag_270\n      jumpi\n        /* \"#utility.yul\":5575:5654   */\n      tag_271\n      tag_212\n      jump\t// in\n    tag_271:\n        /* \"#utility.yul\":5534:5656   */\n    tag_270:\n        /* \"#utility.yul\":5692:5698   */\n      dup2\n        /* \"#utility.yul\":5679:5699   */\n      calldataload\n        /* \"#utility.yul\":5717:5811   */\n      tag_272\n        /* \"#utility.yul\":5807:5810   */\n      dup5\n        /* \"#utility.yul\":5799:5805   */\n      dup3\n        /* \"#utility.yul\":5792:5796   */\n      0x20\n        /* \"#utility.yul\":5784:5790   */\n      dup7\n        /* \"#utility.yul\":5780:5797   */\n      add\n        /* \"#utility.yul\":5717:5811   */\n      tag_229\n      jump\t// in\n    tag_272:\n        /* \"#utility.yul\":5708:5811   */\n      swap2\n      pop\n        /* \"#utility.yul\":5524:5817   */\n      pop\n        /* \"#utility.yul\":5447:5817   */\n      swap3\n      swap2\n      pop\n      pop\n      jump\t// out\n        /* \"#utility.yul\":5823:5960   */\n    tag_273:\n        /* \"#utility.yul\":5877:5882   */\n      0x00\n        /* \"#utility.yul\":5908:5914   */\n      dup2\n        /* \"#utility.yul\":5902:5915   */\n      mload\n        /* \"#utility.yul\":5893:5915   */\n      swap1\n      pop\n        /* \"#utility.yul\":5924:5954   */\n      tag_275\n        /* \"#utility.yul\":5948:5953   */\n      dup2\n        /* \"#utility.yul\":5924:5954   */\n      tag_276\n      jump\t// in\n    tag_275:\n        /* \"#utility.yul\":5823:5960   */\n      swap3\n      swap2\n      pop\n      pop\n      jump\t// out\n        /* \"#utility.yul\":5966:6105   */\n    tag_277:\n        /* \"#utility.yul\":6012:6017   */\n      0x00\n        /* \"#utility.yul\":6050:6056   */\n      dup2\n        /* \"#utility.yul\":6037:6057   */\n      calldataload\n        /* \"#utility.yul\":6028:6057   */\n      swap1\n      pop\n        /* \"#utility.yul\":6066:6099   */\n      tag_279\n        /* \"#utility.yul\":6093:6098   */\n      dup2\n        /* \"#utility.yul\":6066:6099   */\n      tag_280\n      jump\t// in\n    tag_279:\n        /* \"#utility.yul\":5966:6105   */\n      swap3\n      swap2\n      pop\n      pop\n      jump\t// out\n        /* \"#utility.yul\":6125:6465   */\n    tag_281:\n        /* \"#utility.yul\":6181:6186   */\n      0x00\n        /* \"#utility.yul\":6230:6233   */\n      dup3\n        /* \"#utility.yul\":6223:6227   */\n      0x1f\n        /* \"#utility.yul\":6215:6221   */\n      dup4\n        /* \"#utility.yul\":6211:6228   */\n      add\n        /* \"#utility.yul\":6207:6234   */\n      slt\n        /* \"#utility.yul\":6197:6319   */\n      tag_283\n      jumpi\n        /* \"#utility.yul\":6238:6317   */\n      tag_284\n      tag_212\n      jump\t// in\n    tag_284:\n        /* \"#utility.yul\":6197:6319   */\n    tag_283:\n        /* \"#utility.yul\":6355:6361   */\n      dup2\n        /* \"#utility.yul\":6342:6362   */\n      calldataload\n        /* \"#utility.yul\":6380:6459   */\n      tag_285\n        /* \"#utility.yul\":6455:6458   */\n      dup5\n        /* \"#utility.yul\":6447:6453   */\n      dup3\n        /* \"#utility.yul\":6440:6444   */\n      0x20\n        /* \"#utility.yul\":6432:6438   */\n      dup7\n        /* \"#utility.yul\":6428:6445   */\n      add\n        /* \"#utility.yul\":6380:6459   */\n      tag_241\n      jump\t// in\n    tag_285:\n        /* \"#utility.yul\":6371:6459   */\n      swap2\n      pop\n        /* \"#utility.yul\":6187:6465   */\n      pop\n        /* \"#utility.yul\":6125:6465   */\n      swap3\n      swap2\n      pop\n      pop\n      jump\t// out\n        /* \"#utility.yul\":6497:7618   */\n    tag_228:\n        /* \"#utility.yul\":6574:6579   */\n      0x00\n        /* \"#utility.yul\":6618:6622   */\n      0x60\n        /* \"#utility.yul\":6606:6615   */\n      dup3\n        /* \"#utility.yul\":6601:6604   */\n      dup5\n        /* \"#utility.yul\":6597:6616   */\n      sub\n        /* \"#utility.yul\":6593:6623   */\n      slt\n        /* \"#utility.yul\":6590:6707   */\n      iszero\n      tag_287\n      jumpi\n        /* \"#utility.yul\":6626:6705   */\n      tag_288\n      tag_289\n      jump\t// in\n    tag_288:\n        /* \"#utility.yul\":6590:6707   */\n    tag_287:\n        /* \"#utility.yul\":6725:6746   */\n      tag_290\n        /* \"#utility.yul\":6741:6745   */\n      0x60\n        /* \"#utility.yul\":6725:6746   */\n      tag_191\n      jump\t// in\n    tag_290:\n        /* \"#utility.yul\":6716:6746   */\n      swap1\n      pop\n        /* \"#utility.yul\":6816:6817   */\n      0x00\n        /* \"#utility.yul\":6856:6905   */\n      tag_291\n        /* \"#utility.yul\":6901:6904   */\n      dup5\n        /* \"#utility.yul\":6892:6898   */\n      dup3\n        /* \"#utility.yul\":6881:6890   */\n      dup6\n        /* \"#utility.yul\":6877:6899   */\n      add\n        /* \"#utility.yul\":6856:6905   */\n      tag_240\n      jump\t// in\n    tag_291:\n        /* \"#utility.yul\":6849:6853   */\n      0x00\n        /* \"#utility.yul\":6842:6847   */\n      dup4\n        /* \"#utility.yul\":6838:6854   */\n      add\n        /* \"#utility.yul\":6831:6906   */\n      mstore\n        /* \"#utility.yul\":6756:6917   */\n      pop\n        /* \"#utility.yul\":7015:7017   */\n      0x20\n        /* \"#utility.yul\":7004:7013   */\n      dup3\n        /* \"#utility.yul\":7000:7018   */\n      add\n        /* \"#utility.yul\":6987:7019   */\n      calldataload\n        /* \"#utility.yul\":7046:7064   */\n      0xffffffffffffffff\n        /* \"#utility.yul\":7038:7044   */\n      dup2\n        /* \"#utility.yul\":7035:7065   */\n      gt\n        /* \"#utility.yul\":7032:7149   */\n      iszero\n      tag_292\n      jumpi\n        /* \"#utility.yul\":7068:7147   */\n      tag_293\n      tag_294\n      jump\t// in\n    tag_293:\n        /* \"#utility.yul\":7032:7149   */\n    tag_292:\n        /* \"#utility.yul\":7188:7247   */\n      tag_295\n        /* \"#utility.yul\":7243:7246   */\n      dup5\n        /* \"#utility.yul\":7234:7240   */\n      dup3\n        /* \"#utility.yul\":7223:7232   */\n      dup6\n        /* \"#utility.yul\":7219:7241   */\n      add\n        /* \"#utility.yul\":7188:7247   */\n      tag_281\n      jump\t// in\n    tag_295:\n        /* \"#utility.yul\":7181:7185   */\n      0x20\n        /* \"#utility.yul\":7174:7179   */\n      dup4\n        /* \"#utility.yul\":7170:7186   */\n      add\n        /* \"#utility.yul\":7163:7248   */\n      mstore\n        /* \"#utility.yul\":6927:7259   */\n      pop\n        /* \"#utility.yul\":7352:7354   */\n      0x40\n        /* \"#utility.yul\":7341:7350   */\n      dup3\n        /* \"#utility.yul\":7337:7355   */\n      add\n        /* \"#utility.yul\":7324:7356   */\n      calldataload\n        /* \"#utility.yul\":7383:7401   */\n      0xffffffffffffffff\n        /* \"#utility.yul\":7375:7381   */\n      dup2\n        /* \"#utility.yul\":7372:7402   */\n      gt\n        /* \"#utility.yul\":7369:7486   */\n      iszero\n      tag_296\n      jumpi\n        /* \"#utility.yul\":7405:7484   */\n      tag_297\n      tag_294\n      jump\t// in\n    tag_297:\n        /* \"#utility.yul\":7369:7486   */\n    tag_296:\n        /* \"#utility.yul\":7525:7599   */\n      tag_298\n        /* \"#utility.yul\":7595:7598   */\n      dup5\n        /* \"#utility.yul\":7586:7592   */\n      dup3\n        /* \"#utility.yul\":7575:7584   */\n      dup6\n        /* \"#utility.yul\":7571:7593   */\n      add\n        /* \"#utility.yul\":7525:7599   */\n      tag_254\n      jump\t// in\n    tag_298:\n        /* \"#utility.yul\":7518:7522   */\n      0x40\n        /* \"#utility.yul\":7511:7516   */\n      dup4\n        /* \"#utility.yul\":7507:7523   */\n      add\n        /* \"#utility.yul\":7500:7600   */\n      mstore\n        /* \"#utility.yul\":7269:7611   */\n      pop\n        /* \"#utility.yul\":6497:7618   */\n      swap3\n      swap2\n      pop\n      pop\n      jump\t// out\n        /* \"#utility.yul\":7624:7763   */\n    tag_240:\n        /* \"#utility.yul\":7670:7675   */\n      0x00\n        /* \"#utility.yul\":7708:7714   */\n      dup2\n        /* \"#utility.yul\":7695:7715   */\n      calldataload\n        /* \"#utility.yul\":7686:7715   */\n      swap1\n      pop\n        /* \"#utility.yul\":7724:7757   */\n      tag_300\n        /* \"#utility.yul\":7751:7756   */\n      dup2\n        /* \"#utility.yul\":7724:7757   */\n      tag_301\n      jump\t// in\n    tag_300:\n        /* \"#utility.yul\":7624:7763   */\n      swap3\n      swap2\n      pop\n      pop\n      jump\t// out\n        /* \"#utility.yul\":7769:7912   */\n    tag_302:\n        /* \"#utility.yul\":7826:7831   */\n      0x00\n        /* \"#utility.yul\":7857:7863   */\n      dup2\n        /* \"#utility.yul\":7851:7864   */\n      mload\n        /* \"#utility.yul\":7842:7864   */\n      swap1\n      pop\n        /* \"#utility.yul\":7873:7906   */\n      tag_304\n        /* \"#utility.yul\":7900:7905   */\n      dup2\n        /* \"#utility.yul\":7873:7906   */\n      tag_301\n      jump\t// in\n    tag_304:\n        /* \"#utility.yul\":7769:7912   */\n      swap3\n      swap2\n      pop\n      pop\n      jump\t// out\n        /* \"#utility.yul\":7918:8247   */\n    tag_46:\n        /* \"#utility.yul\":7977:7983   */\n      0x00\n        /* \"#utility.yul\":8026:8028   */\n      0x20\n        /* \"#utility.yul\":8014:8023   */\n      dup3\n        /* \"#utility.yul\":8005:8012   */\n      dup5\n        /* \"#utility.yul\":8001:8024   */\n      sub\n        /* \"#utility.yul\":7997:8029   */\n      slt\n        /* \"#utility.yul\":7994:8113   */\n      iszero\n      tag_306\n      jumpi\n        /* \"#utility.yul\":8032:8111   */\n      tag_307\n      tag_308\n      jump\t// in\n    tag_307:\n        /* \"#utility.yul\":7994:8113   */\n    tag_306:\n        /* \"#utility.yul\":8152:8153   */\n      0x00\n        /* \"#utility.yul\":8177:8230   */\n      tag_309\n        /* \"#utility.yul\":8222:8229   */\n      dup5\n        /* \"#utility.yul\":8213:8219   */\n      dup3\n        /* \"#utility.yul\":8202:8211   */\n      dup6\n        /* \"#utility.yul\":8198:8220   */\n      add\n        /* \"#utility.yul\":8177:8230   */\n      tag_199\n      jump\t// in\n    tag_309:\n        /* \"#utility.yul\":8167:8230   */\n      swap2\n      pop\n        /* \"#utility.yul\":8123:8240   */\n      pop\n        /* \"#utility.yul\":7918:8247   */\n      swap3\n      swap2\n      pop\n      pop\n      jump\t// out\n        /* \"#utility.yul\":8253:8598   */\n    tag_55:\n        /* \"#utility.yul\":8320:8326   */\n      0x00\n        /* \"#utility.yul\":8369:8371   */\n      0x20\n        /* \"#utility.yul\":8357:8366   */\n      dup3\n        /* \"#utility.yul\":8348:8355   */\n      dup5\n        /* \"#utility.yul\":8344:8367   */\n      sub\n        /* \"#utility.yul\":8340:8372   */\n      slt\n        /* \"#utility.yul\":8337:8456   */\n      iszero\n      tag_311\n      jumpi\n        /* \"#utility.yul\":8375:8454   */\n      tag_312\n      tag_308\n      jump\t// in\n    tag_312:\n        /* \"#utility.yul\":8337:8456   */\n    tag_311:\n        /* \"#utility.yul\":8495:8496   */\n      0x00\n        /* \"#utility.yul\":8520:8581   */\n      tag_313\n        /* \"#utility.yul\":8573:8580   */\n      dup5\n        /* \"#utility.yul\":8564:8570   */\n      dup3\n        /* \"#utility.yul\":8553:8562   */\n      dup6\n        /* \"#utility.yul\":8549:8571   */\n      add\n        /* \"#utility.yul\":8520:8581   */\n      tag_273\n      jump\t// in\n    tag_313:\n        /* \"#utility.yul\":8510:8581   */\n      swap2\n      pop\n        /* \"#utility.yul\":8466:8591   */\n      pop\n        /* \"#utility.yul\":8253:8598   */\n      swap3\n      swap2\n      pop\n      pop\n      jump\t// out\n        /* \"#utility.yul\":8604:10689   */\n    tag_31:\n        /* \"#utility.yul\":8854:8860   */\n      0x00\n        /* \"#utility.yul\":8862:8868   */\n      dup1\n        /* \"#utility.yul\":8870:8876   */\n      0x00\n        /* \"#utility.yul\":8878:8884   */\n      dup1\n        /* \"#utility.yul\":8886:8892   */\n      0x00\n        /* \"#utility.yul\":8894:8900   */\n      dup1\n        /* \"#utility.yul\":8902:8908   */\n      0x00\n        /* \"#utility.yul\":8910:8916   */\n      dup1\n        /* \"#utility.yul\":8959:8962   */\n      0x0100\n        /* \"#utility.yul\":8947:8956   */\n      dup10\n        /* \"#utility.yul\":8938:8945   */\n      dup12\n        /* \"#utility.yul\":8934:8957   */\n      sub\n        /* \"#utility.yul\":8930:8963   */\n      slt\n        /* \"#utility.yul\":8927:9047   */\n      iszero\n      tag_315\n      jumpi\n        /* \"#utility.yul\":8966:9045   */\n      tag_316\n      tag_308\n      jump\t// in\n    tag_316:\n        /* \"#utility.yul\":8927:9047   */\n    tag_315:\n        /* \"#utility.yul\":9086:9087   */\n      0x00\n        /* \"#utility.yul\":9111:9164   */\n      tag_317\n        /* \"#utility.yul\":9156:9163   */\n      dup12\n        /* \"#utility.yul\":9147:9153   */\n      dup3\n        /* \"#utility.yul\":9136:9145   */\n      dup13\n        /* \"#utility.yul\":9132:9154   */\n      add\n        /* \"#utility.yul\":9111:9164   */\n      tag_277\n      jump\t// in\n    tag_317:\n        /* \"#utility.yul\":9101:9164   */\n      swap9\n      pop\n        /* \"#utility.yul\":9057:9174   */\n      pop\n        /* \"#utility.yul\":9241:9243   */\n      0x20\n        /* \"#utility.yul\":9230:9239   */\n      dup10\n        /* \"#utility.yul\":9226:9244   */\n      add\n        /* \"#utility.yul\":9213:9245   */\n      calldataload\n        /* \"#utility.yul\":9272:9290   */\n      0xffffffffffffffff\n        /* \"#utility.yul\":9264:9270   */\n      dup2\n        /* \"#utility.yul\":9261:9291   */\n      gt\n        /* \"#utility.yul\":9258:9375   */\n      iszero\n      tag_318\n      jumpi\n        /* \"#utility.yul\":9294:9373   */\n      tag_319\n      tag_320\n      jump\t// in\n    tag_319:\n        /* \"#utility.yul\":9258:9375   */\n    tag_318:\n        /* \"#utility.yul\":9399:9477   */\n      tag_321\n        /* \"#utility.yul\":9469:9476   */\n      dup12\n        /* \"#utility.yul\":9460:9466   */\n      dup3\n        /* \"#utility.yul\":9449:9458   */\n      dup13\n        /* \"#utility.yul\":9445:9467   */\n      add\n        /* \"#utility.yul\":9399:9477   */\n      tag_214\n      jump\t// in\n    tag_321:\n        /* \"#utility.yul\":9389:9477   */\n      swap8\n      pop\n        /* \"#utility.yul\":9184:9487   */\n      pop\n        /* \"#utility.yul\":9554:9556   */\n      0x40\n        /* \"#utility.yul\":9543:9552   */\n      dup10\n        /* \"#utility.yul\":9539:9557   */\n      add\n        /* \"#utility.yul\":9526:9558   */\n      calldataload\n        /* \"#utility.yul\":9585:9603   */\n      0xffffffffffffffff\n        /* \"#utility.yul\":9577:9583   */\n      dup2\n        /* \"#utility.yul\":9574:9604   */\n      gt\n        /* \"#utility.yul\":9571:9688   */\n      iszero\n      tag_322\n      jumpi\n        /* \"#utility.yul\":9607:9686   */\n      tag_323\n      tag_320\n      jump\t// in\n    tag_323:\n        /* \"#utility.yul\":9571:9688   */\n    tag_322:\n        /* \"#utility.yul\":9712:9815   */\n      tag_324\n        /* \"#utility.yul\":9807:9814   */\n      dup12\n        /* \"#utility.yul\":9798:9804   */\n      dup3\n        /* \"#utility.yul\":9787:9796   */\n      dup13\n        /* \"#utility.yul\":9783:9805   */\n      add\n        /* \"#utility.yul\":9712:9815   */\n      tag_259\n      jump\t// in\n    tag_324:\n        /* \"#utility.yul\":9702:9815   */\n      swap7\n      pop\n        /* \"#utility.yul\":9497:9825   */\n      pop\n        /* \"#utility.yul\":9892:9894   */\n      0x60\n        /* \"#utility.yul\":9881:9890   */\n      dup10\n        /* \"#utility.yul\":9877:9895   */\n      add\n        /* \"#utility.yul\":9864:9896   */\n      calldataload\n        /* \"#utility.yul\":9923:9941   */\n      0xffffffffffffffff\n        /* \"#utility.yul\":9915:9921   */\n      dup2\n        /* \"#utility.yul\":9912:9942   */\n      gt\n        /* \"#utility.yul\":9909:10026   */\n      iszero\n      tag_325\n      jumpi\n        /* \"#utility.yul\":9945:10024   */\n      tag_326\n      tag_320\n      jump\t// in\n    tag_326:\n        /* \"#utility.yul\":9909:10026   */\n    tag_325:\n        /* \"#utility.yul\":10050:10156   */\n      tag_327\n        /* \"#utility.yul\":10148:10155   */\n      dup12\n        /* \"#utility.yul\":10139:10145   */\n      dup3\n        /* \"#utility.yul\":10128:10137   */\n      dup13\n        /* \"#utility.yul\":10124:10146   */\n      add\n        /* \"#utility.yul\":10050:10156   */\n      tag_264\n      jump\t// in\n    tag_327:\n        /* \"#utility.yul\":10040:10156   */\n      swap6\n      pop\n        /* \"#utility.yul\":9835:10166   */\n      pop\n        /* \"#utility.yul\":10205:10208   */\n      0x80\n        /* \"#utility.yul\":10232:10285   */\n      tag_328\n        /* \"#utility.yul\":10277:10284   */\n      dup12\n        /* \"#utility.yul\":10268:10274   */\n      dup3\n        /* \"#utility.yul\":10257:10266   */\n      dup13\n        /* \"#utility.yul\":10253:10275   */\n      add\n        /* \"#utility.yul\":10232:10285   */\n      tag_240\n      jump\t// in\n    tag_328:\n        /* \"#utility.yul\":10222:10285   */\n      swap5\n      pop\n        /* \"#utility.yul\":10176:10295   */\n      pop\n        /* \"#utility.yul\":10334:10337   */\n      0xa0\n        /* \"#utility.yul\":10361:10414   */\n      tag_329\n        /* \"#utility.yul\":10406:10413   */\n      dup12\n        /* \"#utility.yul\":10397:10403   */\n      dup3\n        /* \"#utility.yul\":10386:10395   */\n      dup13\n        /* \"#utility.yul\":10382:10404   */\n      add\n        /* \"#utility.yul\":10361:10414   */\n      tag_240\n      jump\t// in\n    tag_329:\n        /* \"#utility.yul\":10351:10414   */\n      swap4\n      pop\n        /* \"#utility.yul\":10305:10424   */\n      pop\n        /* \"#utility.yul\":10463:10466   */\n      0xc0\n        /* \"#utility.yul\":10490:10543   */\n      tag_330\n        /* \"#utility.yul\":10535:10542   */\n      dup12\n        /* \"#utility.yul\":10526:10532   */\n      dup3\n        /* \"#utility.yul\":10515:10524   */\n      dup13\n        /* \"#utility.yul\":10511:10533   */\n      add\n        /* \"#utility.yul\":10490:10543   */\n      tag_240\n      jump\t// in\n    tag_330:\n        /* \"#utility.yul\":10480:10543   */\n      swap3\n      pop\n        /* \"#utility.yul\":10434:10553   */\n      pop\n        /* \"#utility.yul\":10592:10595   */\n      0xe0\n        /* \"#utility.yul\":10619:10672   */\n      tag_331\n        /* \"#utility.yul\":10664:10671   */\n      dup12\n        /* \"#utility.yul\":10655:10661   */\n      dup3\n        /* \"#utility.yul\":10644:10653   */\n      dup13\n        /* \"#utility.yul\":10640:10662   */\n      add\n        /* \"#utility.yul\":10619:10672   */\n      tag_199\n      jump\t// in\n    tag_331:\n        /* \"#utility.yul\":10609:10672   */\n      swap2\n      pop\n        /* \"#utility.yul\":10563:10682   */\n      pop\n        /* \"#utility.yul\":8604:10689   */\n      swap3\n      swap6\n      swap9\n      pop\n      swap3\n      swap6\n      swap9\n      swap1\n      swap4\n      swap7\n      pop\n      jump\t// out\n        /* \"#utility.yul\":10695:11024   */\n    tag_23:\n        /* \"#utility.yul\":10754:10760   */\n      0x00\n        /* \"#utility.yul\":10803:10805   */\n      0x20\n        /* \"#utility.yul\":10791:10800   */\n      dup3\n        /* \"#utility.yul\":10782:10789   */\n      dup5\n        /* \"#utility.yul\":10778:10801   */\n      sub\n        /* \"#utility.yul\":10774:10806   */\n      slt\n        /* \"#utility.yul\":10771:10890   */\n      iszero\n      tag_333\n      jumpi\n        /* \"#utility.yul\":10809:10888   */\n      tag_334\n      tag_308\n      jump\t// in\n    tag_334:\n        /* \"#utility.yul\":10771:10890   */\n    tag_333:\n        /* \"#utility.yul\":10929:10930   */\n      0x00\n        /* \"#utility.yul\":10954:11007   */\n      tag_335\n        /* \"#utility.yul\":10999:11006   */\n      dup5\n        /* \"#utility.yul\":10990:10996   */\n      dup3\n        /* \"#utility.yul\":10979:10988   */\n      dup6\n        /* \"#utility.yul\":10975:10997   */\n      add\n        /* \"#utility.yul\":10954:11007   */\n      tag_240\n      jump\t// in\n    tag_335:\n        /* \"#utility.yul\":10944:11007   */\n      swap2\n      pop\n        /* \"#utility.yul\":10900:11017   */\n      pop\n        /* \"#utility.yul\":10695:11024   */\n      swap3\n      swap2\n      pop\n      pop\n      jump\t// out\n        /* \"#utility.yul\":11030:11381   */\n    tag_77:\n        /* \"#utility.yul\":11100:11106   */\n      0x00\n        /* \"#utility.yul\":11149:11151   */\n      0x20\n        /* \"#utility.yul\":11137:11146   */\n      dup3\n        /* \"#utility.yul\":11128:11135   */\n      dup5\n        /* \"#utility.yul\":11124:11147   */\n      sub\n        /* \"#utility.yul\":11120:11152   */\n      slt\n        /* \"#utility.yul\":11117:11236   */\n      iszero\n      tag_337\n      jumpi\n        /* \"#utility.yul\":11155:11234   */\n      tag_338\n      tag_308\n      jump\t// in\n    tag_338:\n        /* \"#utility.yul\":11117:11236   */\n    tag_337:\n        /* \"#utility.yul\":11275:11276   */\n      0x00\n        /* \"#utility.yul\":11300:11364   */\n      tag_339\n        /* \"#utility.yul\":11356:11363   */\n      dup5\n        /* \"#utility.yul\":11347:11353   */\n      dup3\n        /* \"#utility.yul\":11336:11345   */\n      dup6\n        /* \"#utility.yul\":11332:11354   */\n      add\n        /* \"#utility.yul\":11300:11364   */\n      tag_302\n      jump\t// in\n    tag_339:\n        /* \"#utility.yul\":11290:11364   */\n      swap2\n      pop\n        /* \"#utility.yul\":11246:11374   */\n      pop\n        /* \"#utility.yul\":11030:11381   */\n      swap3\n      swap2\n      pop\n      pop\n      jump\t// out\n        /* \"#utility.yul\":11387:11861   */\n    tag_27:\n        /* \"#utility.yul\":11455:11461   */\n      0x00\n        /* \"#utility.yul\":11463:11469   */\n      dup1\n        /* \"#utility.yul\":11512:11514   */\n      0x40\n        /* \"#utility.yul\":11500:11509   */\n      dup4\n        /* \"#utility.yul\":11491:11498   */\n      dup6\n        /* \"#utility.yul\":11487:11510   */\n      sub\n        /* \"#utility.yul\":11483:11515   */\n      slt\n        /* \"#utility.yul\":11480:11599   */\n      iszero\n      tag_341\n      jumpi\n        /* \"#utility.yul\":11518:11597   */\n      tag_342\n      tag_308\n      jump\t// in\n    tag_342:\n        /* \"#utility.yul\":11480:11599   */\n    tag_341:\n        /* \"#utility.yul\":11638:11639   */\n      0x00\n        /* \"#utility.yul\":11663:11716   */\n      tag_343\n        /* \"#utility.yul\":11708:11715   */\n      dup6\n        /* \"#utility.yul\":11699:11705   */\n      dup3\n        /* \"#utility.yul\":11688:11697   */\n      dup7\n        /* \"#utility.yul\":11684:11706   */\n      add\n        /* \"#utility.yul\":11663:11716   */\n      tag_240\n      jump\t// in\n    tag_343:\n        /* \"#utility.yul\":11653:11716   */\n      swap3\n      pop\n        /* \"#utility.yul\":11609:11726   */\n      pop\n        /* \"#utility.yul\":11765:11767   */\n      0x20\n        /* \"#utility.yul\":11791:11844   */\n      tag_344\n        /* \"#utility.yul\":11836:11843   */\n      dup6\n        /* \"#utility.yul\":11827:11833   */\n      dup3\n        /* \"#utility.yul\":11816:11825   */\n      dup7\n        /* \"#utility.yul\":11812:11834   */\n      add\n        /* \"#utility.yul\":11791:11844   */\n      tag_240\n      jump\t// in\n    tag_344:\n        /* \"#utility.yul\":11781:11844   */\n      swap2\n      pop\n        /* \"#utility.yul\":11736:11854   */\n      pop\n        /* \"#utility.yul\":11387:11861   */\n      swap3\n      pop\n      swap3\n      swap1\n      pop\n      jump\t// out\n        /* \"#utility.yul\":11867:11985   */\n    tag_345:\n        /* \"#utility.yul\":11954:11978   */\n      tag_347\n        /* \"#utility.yul\":11972:11977   */\n      dup2\n        /* \"#utility.yul\":11954:11978   */\n      tag_348\n      jump\t// in\n    tag_347:\n        /* \"#utility.yul\":11949:11952   */\n      dup3\n        /* \"#utility.yul\":11942:11979   */\n      mstore\n        /* \"#utility.yul\":11867:11985   */\n      pop\n      pop\n      jump\t// out\n        /* \"#utility.yul\":11991:12100   */\n    tag_349:\n        /* \"#utility.yul\":12072:12093   */\n      tag_351\n        /* \"#utility.yul\":12087:12092   */\n      dup2\n        /* \"#utility.yul\":12072:12093   */\n      tag_352\n      jump\t// in\n    tag_351:\n        /* \"#utility.yul\":12067:12070   */\n      dup3\n        /* \"#utility.yul\":12060:12094   */\n      mstore\n        /* \"#utility.yul\":11991:12100   */\n      pop\n      pop\n      jump\t// out\n        /* \"#utility.yul\":12106:12224   */\n    tag_353:\n        /* \"#utility.yul\":12193:12217   */\n      tag_355\n        /* \"#utility.yul\":12211:12216   */\n      dup2\n        /* \"#utility.yul\":12193:12217   */\n      tag_356\n      jump\t// in\n    tag_355:\n        /* \"#utility.yul\":12188:12191   */\n      dup3\n        /* \"#utility.yul\":12181:12218   */\n      mstore\n        /* \"#utility.yul\":12106:12224   */\n      pop\n      pop\n      jump\t// out\n        /* \"#utility.yul\":12230:12596   */\n    tag_357:\n        /* \"#utility.yul\":12372:12375   */\n      0x00\n        /* \"#utility.yul\":12393:12460   */\n      tag_359\n        /* \"#utility.yul\":12457:12459   */\n      0x26\n        /* \"#utility.yul\":12452:12455   */\n      dup4\n        /* \"#utility.yul\":12393:12460   */\n      tag_360\n      jump\t// in\n    tag_359:\n        /* \"#utility.yul\":12386:12460   */\n      swap2\n      pop\n        /* \"#utility.yul\":12469:12562   */\n      tag_361\n        /* \"#utility.yul\":12558:12561   */\n      dup3\n        /* \"#utility.yul\":12469:12562   */\n      tag_362\n      jump\t// in\n    tag_361:\n        /* \"#utility.yul\":12587:12589   */\n      0x40\n        /* \"#utility.yul\":12582:12585   */\n      dup3\n        /* \"#utility.yul\":12578:12590   */\n      add\n        /* \"#utility.yul\":12571:12590   */\n      swap1\n      pop\n        /* \"#utility.yul\":12230:12596   */\n      swap2\n      swap1\n      pop\n      jump\t// out\n        /* \"#utility.yul\":12602:12968   */\n    tag_363:\n        /* \"#utility.yul\":12744:12747   */\n      0x00\n        /* \"#utility.yul\":12765:12832   */\n      tag_365\n        /* \"#utility.yul\":12829:12831   */\n      0x12\n        /* \"#utility.yul\":12824:12827   */\n      dup4\n        /* \"#utility.yul\":12765:12832   */\n      tag_360\n      jump\t// in\n    tag_365:\n        /* \"#utility.yul\":12758:12832   */\n      swap2\n      pop\n        /* \"#utility.yul\":12841:12934   */\n      tag_366\n        /* \"#utility.yul\":12930:12933   */\n      dup3\n        /* \"#utility.yul\":12841:12934   */\n      tag_367\n      jump\t// in\n    tag_366:\n        /* \"#utility.yul\":12959:12961   */\n      0x20\n        /* \"#utility.yul\":12954:12957   */\n      dup3\n        /* \"#utility.yul\":12950:12962   */\n      add\n        /* \"#utility.yul\":12943:12962   */\n      swap1\n      pop\n        /* \"#utility.yul\":12602:12968   */\n      swap2\n      swap1\n      pop\n      jump\t// out\n        /* \"#utility.yul\":12974:13340   */\n    tag_368:\n        /* \"#utility.yul\":13116:13119   */\n      0x00\n        /* \"#utility.yul\":13137:13204   */\n      tag_370\n        /* \"#utility.yul\":13201:13203   */\n      0x13\n        /* \"#utility.yul\":13196:13199   */\n      dup4\n        /* \"#utility.yul\":13137:13204   */\n      tag_360\n      jump\t// in\n    tag_370:\n        /* \"#utility.yul\":13130:13204   */\n      swap2\n      pop\n        /* \"#utility.yul\":13213:13306   */\n      tag_371\n        /* \"#utility.yul\":13302:13305   */\n      dup3\n        /* \"#utility.yul\":13213:13306   */\n      tag_372\n      jump\t// in\n    tag_371:\n        /* \"#utility.yul\":13331:13333   */\n      0x20\n        /* \"#utility.yul\":13326:13329   */\n      dup3\n        /* \"#utility.yul\":13322:13334   */\n      add\n        /* \"#utility.yul\":13315:13334   */\n      swap1\n      pop\n        /* \"#utility.yul\":12974:13340   */\n      swap2\n      swap1\n      pop\n      jump\t// out\n        /* \"#utility.yul\":13346:13712   */\n    tag_373:\n        /* \"#utility.yul\":13488:13491   */\n      0x00\n        /* \"#utility.yul\":13509:13576   */\n      tag_375\n        /* \"#utility.yul\":13573:13575   */\n      0x21\n        /* \"#utility.yul\":13568:13571   */\n      dup4\n        /* \"#utility.yul\":13509:13576   */\n      tag_360\n      jump\t// in\n    tag_375:\n        /* \"#utility.yul\":13502:13576   */\n      swap2\n      pop\n        /* \"#utility.yul\":13585:13678   */\n      tag_376\n        /* \"#utility.yul\":13674:13677   */\n      dup3\n        /* \"#utility.yul\":13585:13678   */\n      tag_377\n      jump\t// in\n    tag_376:\n        /* \"#utility.yul\":13703:13705   */\n      0x40\n        /* \"#utility.yul\":13698:13701   */\n      dup3\n        /* \"#utility.yul\":13694:13706   */\n      add\n        /* \"#utility.yul\":13687:13706   */\n      swap1\n      pop\n        /* \"#utility.yul\":13346:13712   */\n      swap2\n      swap1\n      pop\n      jump\t// out\n        /* \"#utility.yul\":13718:14084   */\n    tag_378:\n        /* \"#utility.yul\":13860:13863   */\n      0x00\n        /* \"#utility.yul\":13881:13948   */\n      tag_380\n        /* \"#utility.yul\":13945:13947   */\n      0x20\n        /* \"#utility.yul\":13940:13943   */\n      dup4\n        /* \"#utility.yul\":13881:13948   */\n      tag_360\n      jump\t// in\n    tag_380:\n        /* \"#utility.yul\":13874:13948   */\n      swap2\n      pop\n        /* \"#utility.yul\":13957:14050   */\n      tag_381\n        /* \"#utility.yul\":14046:14049   */\n      dup3\n        /* \"#utility.yul\":13957:14050   */\n      tag_382\n      jump\t// in\n    tag_381:\n        /* \"#utility.yul\":14075:14077   */\n      0x20\n        /* \"#utility.yul\":14070:14073   */\n      dup3\n        /* \"#utility.yul\":14066:14078   */\n      add\n        /* \"#utility.yul\":14059:14078   */\n      swap1\n      pop\n        /* \"#utility.yul\":13718:14084   */\n      swap2\n      swap1\n      pop\n      jump\t// out\n        /* \"#utility.yul\":14090:14456   */\n    tag_383:\n        /* \"#utility.yul\":14232:14235   */\n      0x00\n        /* \"#utility.yul\":14253:14320   */\n      tag_385\n        /* \"#utility.yul\":14317:14319   */\n      0x16\n        /* \"#utility.yul\":14312:14315   */\n      dup4\n        /* \"#utility.yul\":14253:14320   */\n      tag_360\n      jump\t// in\n    tag_385:\n        /* \"#utility.yul\":14246:14320   */\n      swap2\n      pop\n        /* \"#utility.yul\":14329:14422   */\n      tag_386\n        /* \"#utility.yul\":14418:14421   */\n      dup3\n        /* \"#utility.yul\":14329:14422   */\n      tag_387\n      jump\t// in\n    tag_386:\n        /* \"#utility.yul\":14447:14449   */\n      0x20\n        /* \"#utility.yul\":14442:14445   */\n      dup3\n        /* \"#utility.yul\":14438:14450   */\n      add\n        /* \"#utility.yul\":14431:14450   */\n      swap1\n      pop\n        /* \"#utility.yul\":14090:14456   */\n      swap2\n      swap1\n      pop\n      jump\t// out\n        /* \"#utility.yul\":14462:14828   */\n    tag_388:\n        /* \"#utility.yul\":14604:14607   */\n      0x00\n        /* \"#utility.yul\":14625:14692   */\n      tag_390\n        /* \"#utility.yul\":14689:14691   */\n      0x13\n        /* \"#utility.yul\":14684:14687   */\n      dup4\n        /* \"#utility.yul\":14625:14692   */\n      tag_360\n      jump\t// in\n    tag_390:\n        /* \"#utility.yul\":14618:14692   */\n      swap2\n      pop\n        /* \"#utility.yul\":14701:14794   */\n      tag_391\n        /* \"#utility.yul\":14790:14793   */\n      dup3\n        /* \"#utility.yul\":14701:14794   */\n      tag_392\n      jump\t// in\n    tag_391:\n        /* \"#utility.yul\":14819:14821   */\n      0x20\n        /* \"#utility.yul\":14814:14817   */\n      dup3\n        /* \"#utility.yul\":14810:14822   */\n      add\n        /* \"#utility.yul\":14803:14822   */\n      swap1\n      pop\n        /* \"#utility.yul\":14462:14828   */\n      swap2\n      swap1\n      pop\n      jump\t// out\n        /* \"#utility.yul\":14834:14952   */\n    tag_393:\n        /* \"#utility.yul\":14921:14945   */\n      tag_395\n        /* \"#utility.yul\":14939:14944   */\n      dup2\n        /* \"#utility.yul\":14921:14945   */\n      tag_396\n      jump\t// in\n    tag_395:\n        /* \"#utility.yul\":14916:14919   */\n      dup3\n        /* \"#utility.yul\":14909:14946   */\n      mstore\n        /* \"#utility.yul\":14834:14952   */\n      pop\n      pop\n      jump\t// out\n        /* \"#utility.yul\":14958:15180   */\n    tag_20:\n        /* \"#utility.yul\":15051:15055   */\n      0x00\n        /* \"#utility.yul\":15089:15091   */\n      0x20\n        /* \"#utility.yul\":15078:15087   */\n      dup3\n        /* \"#utility.yul\":15074:15092   */\n      add\n        /* \"#utility.yul\":15066:15092   */\n      swap1\n      pop\n        /* \"#utility.yul\":15102:15173   */\n      tag_398\n        /* \"#utility.yul\":15170:15171   */\n      0x00\n        /* \"#utility.yul\":15159:15168   */\n      dup4\n        /* \"#utility.yul\":15155:15172   */\n      add\n        /* \"#utility.yul\":15146:15152   */\n      dup5\n        /* \"#utility.yul\":15102:15173   */\n      tag_345\n      jump\t// in\n    tag_398:\n        /* \"#utility.yul\":14958:15180   */\n      swap3\n      swap2\n      pop\n      pop\n      jump\t// out\n        /* \"#utility.yul\":15186:15518   */\n    tag_94:\n        /* \"#utility.yul\":15307:15311   */\n      0x00\n        /* \"#utility.yul\":15345:15347   */\n      0x40\n        /* \"#utility.yul\":15334:15343   */\n      dup3\n        /* \"#utility.yul\":15330:15348   */\n      add\n        /* \"#utility.yul\":15322:15348   */\n      swap1\n      pop\n        /* \"#utility.yul\":15358:15429   */\n      tag_400\n        /* \"#utility.yul\":15426:15427   */\n      0x00\n        /* \"#utility.yul\":15415:15424   */\n      dup4\n        /* \"#utility.yul\":15411:15428   */\n      add\n        /* \"#utility.yul\":15402:15408   */\n      dup6\n        /* \"#utility.yul\":15358:15429   */\n      tag_345\n      jump\t// in\n    tag_400:\n        /* \"#utility.yul\":15439:15511   */\n      tag_401\n        /* \"#utility.yul\":15507:15509   */\n      0x20\n        /* \"#utility.yul\":15496:15505   */\n      dup4\n        /* \"#utility.yul\":15492:15510   */\n      add\n        /* \"#utility.yul\":15483:15489   */\n      dup5\n        /* \"#utility.yul\":15439:15511   */\n      tag_345\n      jump\t// in\n    tag_401:\n        /* \"#utility.yul\":15186:15518   */\n      swap4\n      swap3\n      pop\n      pop\n      pop\n      jump\t// out\n        /* \"#utility.yul\":15524:15966   */\n    tag_103:\n        /* \"#utility.yul\":15673:15677   */\n      0x00\n        /* \"#utility.yul\":15711:15713   */\n      0x60\n        /* \"#utility.yul\":15700:15709   */\n      dup3\n        /* \"#utility.yul\":15696:15714   */\n      add\n        /* \"#utility.yul\":15688:15714   */\n      swap1\n      pop\n        /* \"#utility.yul\":15724:15795   */\n      tag_403\n        /* \"#utility.yul\":15792:15793   */\n      0x00\n        /* \"#utility.yul\":15781:15790   */\n      dup4\n        /* \"#utility.yul\":15777:15794   */\n      add\n        /* \"#utility.yul\":15768:15774   */\n      dup7\n        /* \"#utility.yul\":15724:15795   */\n      tag_345\n      jump\t// in\n    tag_403:\n        /* \"#utility.yul\":15805:15877   */\n      tag_404\n        /* \"#utility.yul\":15873:15875   */\n      0x20\n        /* \"#utility.yul\":15862:15871   */\n      dup4\n        /* \"#utility.yul\":15858:15876   */\n      add\n        /* \"#utility.yul\":15849:15855   */\n      dup6\n        /* \"#utility.yul\":15805:15877   */\n      tag_345\n      jump\t// in\n    tag_404:\n        /* \"#utility.yul\":15887:15959   */\n      tag_405\n        /* \"#utility.yul\":15955:15957   */\n      0x40\n        /* \"#utility.yul\":15944:15953   */\n      dup4\n        /* \"#utility.yul\":15940:15958   */\n      add\n        /* \"#utility.yul\":15931:15937   */\n      dup5\n        /* \"#utility.yul\":15887:15959   */\n      tag_393\n      jump\t// in\n    tag_405:\n        /* \"#utility.yul\":15524:15966   */\n      swap5\n      swap4\n      pop\n      pop\n      pop\n      pop\n      jump\t// out\n        /* \"#utility.yul\":15972:16304   */\n    tag_50:\n        /* \"#utility.yul\":16093:16097   */\n      0x00\n        /* \"#utility.yul\":16131:16133   */\n      0x40\n        /* \"#utility.yul\":16120:16129   */\n      dup3\n        /* \"#utility.yul\":16116:16134   */\n      add\n        /* \"#utility.yul\":16108:16134   */\n      swap1\n      pop\n        /* \"#utility.yul\":16144:16215   */\n      tag_407\n        /* \"#utility.yul\":16212:16213   */\n      0x00\n        /* \"#utility.yul\":16201:16210   */\n      dup4\n        /* \"#utility.yul\":16197:16214   */\n      add\n        /* \"#utility.yul\":16188:16194   */\n      dup6\n        /* \"#utility.yul\":16144:16215   */\n      tag_345\n      jump\t// in\n    tag_407:\n        /* \"#utility.yul\":16225:16297   */\n      tag_408\n        /* \"#utility.yul\":16293:16295   */\n      0x20\n        /* \"#utility.yul\":16282:16291   */\n      dup4\n        /* \"#utility.yul\":16278:16296   */\n      add\n        /* \"#utility.yul\":16269:16275   */\n      dup5\n        /* \"#utility.yul\":16225:16297   */\n      tag_393\n      jump\t// in\n    tag_408:\n        /* \"#utility.yul\":15972:16304   */\n      swap4\n      swap3\n      pop\n      pop\n      pop\n      jump\t// out\n        /* \"#utility.yul\":16310:16520   */\n    tag_34:\n        /* \"#utility.yul\":16397:16401   */\n      0x00\n        /* \"#utility.yul\":16435:16437   */\n      0x20\n        /* \"#utility.yul\":16424:16433   */\n      dup3\n        /* \"#utility.yul\":16420:16438   */\n      add\n        /* \"#utility.yul\":16412:16438   */\n      swap1\n      pop\n        /* \"#utility.yul\":16448:16513   */\n      tag_410\n        /* \"#utility.yul\":16510:16511   */\n      0x00\n        /* \"#utility.yul\":16499:16508   */\n      dup4\n        /* \"#utility.yul\":16495:16512   */\n      add\n        /* \"#utility.yul\":16486:16492   */\n      dup5\n        /* \"#utility.yul\":16448:16513   */\n      tag_349\n      jump\t// in\n    tag_410:\n        /* \"#utility.yul\":16310:16520   */\n      swap3\n      swap2\n      pop\n      pop\n      jump\t// out\n        /* \"#utility.yul\":16526:17277   */\n    tag_43:\n        /* \"#utility.yul\":16747:16751   */\n      0x00\n        /* \"#utility.yul\":16785:16788   */\n      0xc0\n        /* \"#utility.yul\":16774:16783   */\n      dup3\n        /* \"#utility.yul\":16770:16789   */\n      add\n        /* \"#utility.yul\":16762:16789   */\n      swap1\n      pop\n        /* \"#utility.yul\":16799:16870   */\n      tag_412\n        /* \"#utility.yul\":16867:16868   */\n      0x00\n        /* \"#utility.yul\":16856:16865   */\n      dup4\n        /* \"#utility.yul\":16852:16869   */\n      add\n        /* \"#utility.yul\":16843:16849   */\n      dup10\n        /* \"#utility.yul\":16799:16870   */\n      tag_353\n      jump\t// in\n    tag_412:\n        /* \"#utility.yul\":16880:16952   */\n      tag_413\n        /* \"#utility.yul\":16948:16950   */\n      0x20\n        /* \"#utility.yul\":16937:16946   */\n      dup4\n        /* \"#utility.yul\":16933:16951   */\n      add\n        /* \"#utility.yul\":16924:16930   */\n      dup9\n        /* \"#utility.yul\":16880:16952   */\n      tag_393\n      jump\t// in\n    tag_413:\n        /* \"#utility.yul\":16962:17028   */\n      tag_414\n        /* \"#utility.yul\":17024:17026   */\n      0x40\n        /* \"#utility.yul\":17013:17022   */\n      dup4\n        /* \"#utility.yul\":17009:17027   */\n      add\n        /* \"#utility.yul\":17000:17006   */\n      dup8\n        /* \"#utility.yul\":16962:17028   */\n      tag_349\n      jump\t// in\n    tag_414:\n        /* \"#utility.yul\":17038:17110   */\n      tag_415\n        /* \"#utility.yul\":17106:17108   */\n      0x60\n        /* \"#utility.yul\":17095:17104   */\n      dup4\n        /* \"#utility.yul\":17091:17109   */\n      add\n        /* \"#utility.yul\":17082:17088   */\n      dup7\n        /* \"#utility.yul\":17038:17110   */\n      tag_345\n      jump\t// in\n    tag_415:\n        /* \"#utility.yul\":17120:17187   */\n      tag_416\n        /* \"#utility.yul\":17182:17185   */\n      0x80\n        /* \"#utility.yul\":17171:17180   */\n      dup4\n        /* \"#utility.yul\":17167:17186   */\n      add\n        /* \"#utility.yul\":17158:17164   */\n      dup6\n        /* \"#utility.yul\":17120:17187   */\n      tag_349\n      jump\t// in\n    tag_416:\n        /* \"#utility.yul\":17197:17270   */\n      tag_417\n        /* \"#utility.yul\":17265:17268   */\n      0xa0\n        /* \"#utility.yul\":17254:17263   */\n      dup4\n        /* \"#utility.yul\":17250:17269   */\n      add\n        /* \"#utility.yul\":17241:17247   */\n      dup5\n        /* \"#utility.yul\":17197:17270   */\n      tag_393\n      jump\t// in\n    tag_417:\n        /* \"#utility.yul\":16526:17277   */\n      swap8\n      swap7\n      pop\n      pop\n      pop\n      pop\n      pop\n      pop\n      pop\n      jump\t// out\n        /* \"#utility.yul\":17283:17702   */\n    tag_159:\n        /* \"#utility.yul\":17449:17453   */\n      0x00\n        /* \"#utility.yul\":17487:17489   */\n      0x20\n        /* \"#utility.yul\":17476:17485   */\n      dup3\n        /* \"#utility.yul\":17472:17490   */\n      add\n        /* \"#utility.yul\":17464:17490   */\n      swap1\n      pop\n        /* \"#utility.yul\":17536:17545   */\n      dup2\n        /* \"#utility.yul\":17530:17534   */\n      dup2\n        /* \"#utility.yul\":17526:17546   */\n      sub\n        /* \"#utility.yul\":17522:17523   */\n      0x00\n        /* \"#utility.yul\":17511:17520   */\n      dup4\n        /* \"#utility.yul\":17507:17524   */\n      add\n        /* \"#utility.yul\":17500:17547   */\n      mstore\n        /* \"#utility.yul\":17564:17695   */\n      tag_419\n        /* \"#utility.yul\":17690:17694   */\n      dup2\n        /* \"#utility.yul\":17564:17695   */\n      tag_357\n      jump\t// in\n    tag_419:\n        /* \"#utility.yul\":17556:17695   */\n      swap1\n      pop\n        /* \"#utility.yul\":17283:17702   */\n      swap2\n      swap1\n      pop\n      jump\t// out\n        /* \"#utility.yul\":17708:18127   */\n    tag_101:\n        /* \"#utility.yul\":17874:17878   */\n      0x00\n        /* \"#utility.yul\":17912:17914   */\n      0x20\n        /* \"#utility.yul\":17901:17910   */\n      dup3\n        /* \"#utility.yul\":17897:17915   */\n      add\n        /* \"#utility.yul\":17889:17915   */\n      swap1\n      pop\n        /* \"#utility.yul\":17961:17970   */\n      dup2\n        /* \"#utility.yul\":17955:17959   */\n      dup2\n        /* \"#utility.yul\":17951:17971   */\n      sub\n        /* \"#utility.yul\":17947:17948   */\n      0x00\n        /* \"#utility.yul\":17936:17945   */\n      dup4\n        /* \"#utility.yul\":17932:17949   */\n      add\n        /* \"#utility.yul\":17925:17972   */\n      mstore\n        /* \"#utility.yul\":17989:18120   */\n      tag_421\n        /* \"#utility.yul\":18115:18119   */\n      dup2\n        /* \"#utility.yul\":17989:18120   */\n      tag_363\n      jump\t// in\n    tag_421:\n        /* \"#utility.yul\":17981:18120   */\n      swap1\n      pop\n        /* \"#utility.yul\":17708:18127   */\n      swap2\n      swap1\n      pop\n      jump\t// out\n        /* \"#utility.yul\":18133:18552   */\n    tag_66:\n        /* \"#utility.yul\":18299:18303   */\n      0x00\n        /* \"#utility.yul\":18337:18339   */\n      0x20\n        /* \"#utility.yul\":18326:18335   */\n      dup3\n        /* \"#utility.yul\":18322:18340   */\n      add\n        /* \"#utility.yul\":18314:18340   */\n      swap1\n      pop\n        /* \"#utility.yul\":18386:18395   */\n      dup2\n        /* \"#utility.yul\":18380:18384   */\n      dup2\n        /* \"#utility.yul\":18376:18396   */\n      sub\n        /* \"#utility.yul\":18372:18373   */\n      0x00\n        /* \"#utility.yul\":18361:18370   */\n      dup4\n        /* \"#utility.yul\":18357:18374   */\n      add\n        /* \"#utility.yul\":18350:18397   */\n      mstore\n        /* \"#utility.yul\":18414:18545   */\n      tag_423\n        /* \"#utility.yul\":18540:18544   */\n      dup2\n        /* \"#utility.yul\":18414:18545   */\n      tag_368\n      jump\t// in\n    tag_423:\n        /* \"#utility.yul\":18406:18545   */\n      swap1\n      pop\n        /* \"#utility.yul\":18133:18552   */\n      swap2\n      swap1\n      pop\n      jump\t// out\n        /* \"#utility.yul\":18558:18977   */\n    tag_69:\n        /* \"#utility.yul\":18724:18728   */\n      0x00\n        /* \"#utility.yul\":18762:18764   */\n      0x20\n        /* \"#utility.yul\":18751:18760   */\n      dup3\n        /* \"#utility.yul\":18747:18765   */\n      add\n        /* \"#utility.yul\":18739:18765   */\n      swap1\n      pop\n        /* \"#utility.yul\":18811:18820   */\n      dup2\n        /* \"#utility.yul\":18805:18809   */\n      dup2\n        /* \"#utility.yul\":18801:18821   */\n      sub\n        /* \"#utility.yul\":18797:18798   */\n      0x00\n        /* \"#utility.yul\":18786:18795   */\n      dup4\n        /* \"#utility.yul\":18782:18799   */\n      add\n        /* \"#utility.yul\":18775:18822   */\n      mstore\n        /* \"#utility.yul\":18839:18970   */\n      tag_425\n        /* \"#utility.yul\":18965:18969   */\n      dup2\n        /* \"#utility.yul\":18839:18970   */\n      tag_373\n      jump\t// in\n    tag_425:\n        /* \"#utility.yul\":18831:18970   */\n      swap1\n      pop\n        /* \"#utility.yul\":18558:18977   */\n      swap2\n      swap1\n      pop\n      jump\t// out\n        /* \"#utility.yul\":18983:19402   */\n    tag_167:\n        /* \"#utility.yul\":19149:19153   */\n      0x00\n        /* \"#utility.yul\":19187:19189   */\n      0x20\n        /* \"#utility.yul\":19176:19185   */\n      dup3\n        /* \"#utility.yul\":19172:19190   */\n      add\n        /* \"#utility.yul\":19164:19190   */\n      swap1\n      pop\n        /* \"#utility.yul\":19236:19245   */\n      dup2\n        /* \"#utility.yul\":19230:19234   */\n      dup2\n        /* \"#utility.yul\":19226:19246   */\n      sub\n        /* \"#utility.yul\":19222:19223   */\n      0x00\n        /* \"#utility.yul\":19211:19220   */\n      dup4\n        /* \"#utility.yul\":19207:19224   */\n      add\n        /* \"#utility.yul\":19200:19247   */\n      mstore\n        /* \"#utility.yul\":19264:19395   */\n      tag_427\n        /* \"#utility.yul\":19390:19394   */\n      dup2\n        /* \"#utility.yul\":19264:19395   */\n      tag_378\n      jump\t// in\n    tag_427:\n        /* \"#utility.yul\":19256:19395   */\n      swap1\n      pop\n        /* \"#utility.yul\":18983:19402   */\n      swap2\n      swap1\n      pop\n      jump\t// out\n        /* \"#utility.yul\":19408:19827   */\n    tag_92:\n        /* \"#utility.yul\":19574:19578   */\n      0x00\n        /* \"#utility.yul\":19612:19614   */\n      0x20\n        /* \"#utility.yul\":19601:19610   */\n      dup3\n        /* \"#utility.yul\":19597:19615   */\n      add\n        /* \"#utility.yul\":19589:19615   */\n      swap1\n      pop\n        /* \"#utility.yul\":19661:19670   */\n      dup2\n        /* \"#utility.yul\":19655:19659   */\n      dup2\n        /* \"#utility.yul\":19651:19671   */\n      sub\n        /* \"#utility.yul\":19647:19648   */\n      0x00\n        /* \"#utility.yul\":19636:19645   */\n      dup4\n        /* \"#utility.yul\":19632:19649   */\n      add\n        /* \"#utility.yul\":19625:19672   */\n      mstore\n        /* \"#utility.yul\":19689:19820   */\n      tag_429\n        /* \"#utility.yul\":19815:19819   */\n      dup2\n        /* \"#utility.yul\":19689:19820   */\n      tag_383\n      jump\t// in\n    tag_429:\n        /* \"#utility.yul\":19681:19820   */\n      swap1\n      pop\n        /* \"#utility.yul\":19408:19827   */\n      swap2\n      swap1\n      pop\n      jump\t// out\n        /* \"#utility.yul\":19833:20252   */\n    tag_152:\n        /* \"#utility.yul\":19999:20003   */\n      0x00\n        /* \"#utility.yul\":20037:20039   */\n      0x20\n        /* \"#utility.yul\":20026:20035   */\n      dup3\n        /* \"#utility.yul\":20022:20040   */\n      add\n        /* \"#utility.yul\":20014:20040   */\n      swap1\n      pop\n        /* \"#utility.yul\":20086:20095   */\n      dup2\n        /* \"#utility.yul\":20080:20084   */\n      dup2\n        /* \"#utility.yul\":20076:20096   */\n      sub\n        /* \"#utility.yul\":20072:20073   */\n      0x00\n        /* \"#utility.yul\":20061:20070   */\n      dup4\n        /* \"#utility.yul\":20057:20074   */\n      add\n        /* \"#utility.yul\":20050:20097   */\n      mstore\n        /* \"#utility.yul\":20114:20245   */\n      tag_431\n        /* \"#utility.yul\":20240:20244   */\n      dup2\n        /* \"#utility.yul\":20114:20245   */\n      tag_388\n      jump\t// in\n    tag_431:\n        /* \"#utility.yul\":20106:20245   */\n      swap1\n      pop\n        /* \"#utility.yul\":19833:20252   */\n      swap2\n      swap1\n      pop\n      jump\t// out\n        /* \"#utility.yul\":20258:20590   */\n    tag_113:\n        /* \"#utility.yul\":20379:20383   */\n      0x00\n        /* \"#utility.yul\":20417:20419   */\n      0x40\n        /* \"#utility.yul\":20406:20415   */\n      dup3\n        /* \"#utility.yul\":20402:20420   */\n      add\n        /* \"#utility.yul\":20394:20420   */\n      swap1\n      pop\n        /* \"#utility.yul\":20430:20501   */\n      tag_433\n        /* \"#utility.yul\":20498:20499   */\n      0x00\n        /* \"#utility.yul\":20487:20496   */\n      dup4\n        /* \"#utility.yul\":20483:20500   */\n      add\n        /* \"#utility.yul\":20474:20480   */\n      dup6\n        /* \"#utility.yul\":20430:20501   */\n      tag_393\n      jump\t// in\n    tag_433:\n        /* \"#utility.yul\":20511:20583   */\n      tag_434\n        /* \"#utility.yul\":20579:20581   */\n      0x20\n        /* \"#utility.yul\":20568:20577   */\n      dup4\n        /* \"#utility.yul\":20564:20582   */\n      add\n        /* \"#utility.yul\":20555:20561   */\n      dup5\n        /* \"#utility.yul\":20511:20583   */\n      tag_393\n      jump\t// in\n    tag_434:\n        /* \"#utility.yul\":20258:20590   */\n      swap4\n      swap3\n      pop\n      pop\n      pop\n      jump\t// out\n        /* \"#utility.yul\":20596:20725   */\n    tag_191:\n        /* \"#utility.yul\":20630:20636   */\n      0x00\n        /* \"#utility.yul\":20657:20677   */\n      tag_436\n      tag_437\n      jump\t// in\n    tag_436:\n        /* \"#utility.yul\":20647:20677   */\n      swap1\n      pop\n        /* \"#utility.yul\":20686:20719   */\n      tag_438\n        /* \"#utility.yul\":20714:20718   */\n      dup3\n        /* \"#utility.yul\":20706:20712   */\n      dup3\n        /* \"#utility.yul\":20686:20719   */\n      tag_439\n      jump\t// in\n    tag_438:\n        /* \"#utility.yul\":20596:20725   */\n      swap2\n      swap1\n      pop\n      jump\t// out\n        /* \"#utility.yul\":20731:20806   */\n    tag_437:\n        /* \"#utility.yul\":20764:20770   */\n      0x00\n        /* \"#utility.yul\":20797:20799   */\n      0x40\n        /* \"#utility.yul\":20791:20800   */\n      mload\n        /* \"#utility.yul\":20781:20800   */\n      swap1\n      pop\n        /* \"#utility.yul\":20731:20806   */\n      swap1\n      jump\t// out\n        /* \"#utility.yul\":20812:21123   */\n    tag_190:\n        /* \"#utility.yul\":20889:20893   */\n      0x00\n        /* \"#utility.yul\":20979:20997   */\n      0xffffffffffffffff\n        /* \"#utility.yul\":20971:20977   */\n      dup3\n        /* \"#utility.yul\":20968:20998   */\n      gt\n        /* \"#utility.yul\":20965:21021   */\n      iszero\n      tag_442\n      jumpi\n        /* \"#utility.yul\":21001:21019   */\n      tag_443\n      tag_444\n      jump\t// in\n    tag_443:\n        /* \"#utility.yul\":20965:21021   */\n    tag_442:\n        /* \"#utility.yul\":21051:21055   */\n      0x20\n        /* \"#utility.yul\":21043:21049   */\n      dup3\n        /* \"#utility.yul\":21039:21056   */\n      mul\n        /* \"#utility.yul\":21031:21056   */\n      swap1\n      pop\n        /* \"#utility.yul\":21111:21115   */\n      0x20\n        /* \"#utility.yul\":21105:21109   */\n      dup2\n        /* \"#utility.yul\":21101:21116   */\n      add\n        /* \"#utility.yul\":21093:21116   */\n      swap1\n      pop\n        /* \"#utility.yul\":20812:21123   */\n      swap2\n      swap1\n      pop\n      jump\t// out\n        /* \"#utility.yul\":21129:21465   */\n    tag_204:\n        /* \"#utility.yul\":21231:21235   */\n      0x00\n        /* \"#utility.yul\":21321:21339   */\n      0xffffffffffffffff\n        /* \"#utility.yul\":21313:21319   */\n      dup3\n        /* \"#utility.yul\":21310:21340   */\n      gt\n        /* \"#utility.yul\":21307:21363   */\n      iszero\n      tag_446\n      jumpi\n        /* \"#utility.yul\":21343:21361   */\n      tag_447\n      tag_444\n      jump\t// in\n    tag_447:\n        /* \"#utility.yul\":21307:21363   */\n    tag_446:\n        /* \"#utility.yul\":21393:21397   */\n      0x20\n        /* \"#utility.yul\":21385:21391   */\n      dup3\n        /* \"#utility.yul\":21381:21398   */\n      mul\n        /* \"#utility.yul\":21373:21398   */\n      swap1\n      pop\n        /* \"#utility.yul\":21453:21457   */\n      0x20\n        /* \"#utility.yul\":21447:21451   */\n      dup2\n        /* \"#utility.yul\":21443:21458   */\n      add\n        /* \"#utility.yul\":21435:21458   */\n      swap1\n      pop\n        /* \"#utility.yul\":21129:21465   */\n      swap2\n      swap1\n      pop\n      jump\t// out\n        /* \"#utility.yul\":21471:21810   */\n    tag_219:\n        /* \"#utility.yul\":21576:21580   */\n      0x00\n        /* \"#utility.yul\":21666:21684   */\n      0xffffffffffffffff\n        /* \"#utility.yul\":21658:21664   */\n      dup3\n        /* \"#utility.yul\":21655:21685   */\n      gt\n        /* \"#utility.yul\":21652:21708   */\n      iszero\n      tag_449\n      jumpi\n        /* \"#utility.yul\":21688:21706   */\n      tag_450\n      tag_444\n      jump\t// in\n    tag_450:\n        /* \"#utility.yul\":21652:21708   */\n    tag_449:\n        /* \"#utility.yul\":21738:21742   */\n      0x20\n        /* \"#utility.yul\":21730:21736   */\n      dup3\n        /* \"#utility.yul\":21726:21743   */\n      mul\n        /* \"#utility.yul\":21718:21743   */\n      swap1\n      pop\n        /* \"#utility.yul\":21798:21802   */\n      0x20\n        /* \"#utility.yul\":21792:21796   */\n      dup2\n        /* \"#utility.yul\":21788:21803   */\n      add\n        /* \"#utility.yul\":21780:21803   */\n      swap1\n      pop\n        /* \"#utility.yul\":21471:21810   */\n      swap2\n      swap1\n      pop\n      jump\t// out\n        /* \"#utility.yul\":21816:22127   */\n    tag_233:\n        /* \"#utility.yul\":21893:21897   */\n      0x00\n        /* \"#utility.yul\":21983:22001   */\n      0xffffffffffffffff\n        /* \"#utility.yul\":21975:21981   */\n      dup3\n        /* \"#utility.yul\":21972:22002   */\n      gt\n        /* \"#utility.yul\":21969:22025   */\n      iszero\n      tag_452\n      jumpi\n        /* \"#utility.yul\":22005:22023   */\n      tag_453\n      tag_444\n      jump\t// in\n    tag_453:\n        /* \"#utility.yul\":21969:22025   */\n    tag_452:\n        /* \"#utility.yul\":22055:22059   */\n      0x20\n        /* \"#utility.yul\":22047:22053   */\n      dup3\n        /* \"#utility.yul\":22043:22060   */\n      mul\n        /* \"#utility.yul\":22035:22060   */\n      swap1\n      pop\n        /* \"#utility.yul\":22115:22119   */\n      0x20\n        /* \"#utility.yul\":22109:22113   */\n      dup2\n        /* \"#utility.yul\":22105:22120   */\n      add\n        /* \"#utility.yul\":22097:22120   */\n      swap1\n      pop\n        /* \"#utility.yul\":21816:22127   */\n      swap2\n      swap1\n      pop\n      jump\t// out\n        /* \"#utility.yul\":22133:22441   */\n    tag_245:\n        /* \"#utility.yul\":22195:22199   */\n      0x00\n        /* \"#utility.yul\":22285:22303   */\n      0xffffffffffffffff\n        /* \"#utility.yul\":22277:22283   */\n      dup3\n        /* \"#utility.yul\":22274:22304   */\n      gt\n        /* \"#utility.yul\":22271:22327   */\n      iszero\n      tag_455\n      jumpi\n        /* \"#utility.yul\":22307:22325   */\n      tag_456\n      tag_444\n      jump\t// in\n    tag_456:\n        /* \"#utility.yul\":22271:22327   */\n    tag_455:\n        /* \"#utility.yul\":22345:22374   */\n      tag_457\n        /* \"#utility.yul\":22367:22373   */\n      dup3\n        /* \"#utility.yul\":22345:22374   */\n      tag_458\n      jump\t// in\n    tag_457:\n        /* \"#utility.yul\":22337:22374   */\n      swap1\n      pop\n        /* \"#utility.yul\":22429:22433   */\n      0x20\n        /* \"#utility.yul\":22423:22427   */\n      dup2\n        /* \"#utility.yul\":22419:22434   */\n      add\n        /* \"#utility.yul\":22411:22434   */\n      swap1\n      pop\n        /* \"#utility.yul\":22133:22441   */\n      swap2\n      swap1\n      pop\n      jump\t// out\n        /* \"#utility.yul\":22447:22616   */\n    tag_360:\n        /* \"#utility.yul\":22531:22542   */\n      0x00\n        /* \"#utility.yul\":22565:22571   */\n      dup3\n        /* \"#utility.yul\":22560:22563   */\n      dup3\n        /* \"#utility.yul\":22553:22572   */\n      mstore\n        /* \"#utility.yul\":22605:22609   */\n      0x20\n        /* \"#utility.yul\":22600:22603   */\n      dup3\n        /* \"#utility.yul\":22596:22610   */\n      add\n        /* \"#utility.yul\":22581:22610   */\n      swap1\n      pop\n        /* \"#utility.yul\":22447:22616   */\n      swap3\n      swap2\n      pop\n      pop\n      jump\t// out\n        /* \"#utility.yul\":22622:22927   */\n    tag_111:\n        /* \"#utility.yul\":22662:22665   */\n      0x00\n        /* \"#utility.yul\":22681:22701   */\n      tag_461\n        /* \"#utility.yul\":22699:22700   */\n      dup3\n        /* \"#utility.yul\":22681:22701   */\n      tag_396\n      jump\t// in\n    tag_461:\n        /* \"#utility.yul\":22676:22701   */\n      swap2\n      pop\n        /* \"#utility.yul\":22715:22735   */\n      tag_462\n        /* \"#utility.yul\":22733:22734   */\n      dup4\n        /* \"#utility.yul\":22715:22735   */\n      tag_396\n      jump\t// in\n    tag_462:\n        /* \"#utility.yul\":22710:22735   */\n      swap3\n      pop\n        /* \"#utility.yul\":22869:22870   */\n      dup3\n        /* \"#utility.yul\":22801:22867   */\n      0xffffffffffffffffffffffffffffffffffffffffffffffffffffffffffffffff\n        /* \"#utility.yul\":22797:22871   */\n      sub\n        /* \"#utility.yul\":22794:22795   */\n      dup3\n        /* \"#utility.yul\":22791:22872   */\n      gt\n        /* \"#utility.yul\":22788:22895   */\n      iszero\n      tag_463\n      jumpi\n        /* \"#utility.yul\":22875:22893   */\n      tag_464\n      tag_465\n      jump\t// in\n    tag_464:\n        /* \"#utility.yul\":22788:22895   */\n    tag_463:\n        /* \"#utility.yul\":22919:22920   */\n      dup3\n        /* \"#utility.yul\":22916:22917   */\n      dup3\n        /* \"#utility.yul\":22912:22921   */\n      add\n        /* \"#utility.yul\":22905:22921   */\n      swap1\n      pop\n        /* \"#utility.yul\":22622:22927   */\n      swap3\n      swap2\n      pop\n      pop\n      jump\t// out\n        /* \"#utility.yul\":22933:23029   */\n    tag_348:\n        /* \"#utility.yul\":22970:22977   */\n      0x00\n        /* \"#utility.yul\":22999:23023   */\n      tag_467\n        /* \"#utility.yul\":23017:23022   */\n      dup3\n        /* \"#utility.yul\":22999:23023   */\n      tag_468\n      jump\t// in\n    tag_467:\n        /* \"#utility.yul\":22988:23023   */\n      swap1\n      pop\n        /* \"#utility.yul\":22933:23029   */\n      swap2\n      swap1\n      pop\n      jump\t// out\n        /* \"#utility.yul\":23035:23125   */\n    tag_352:\n        /* \"#utility.yul\":23069:23076   */\n      0x00\n        /* \"#utility.yul\":23112:23117   */\n      dup2\n        /* \"#utility.yul\":23105:23118   */\n      iszero\n        /* \"#utility.yul\":23098:23119   */\n      iszero\n        /* \"#utility.yul\":23087:23119   */\n      swap1\n      pop\n        /* \"#utility.yul\":23035:23125   */\n      swap2\n      swap1\n      pop\n      jump\t// out\n        /* \"#utility.yul\":23131:23208   */\n    tag_356:\n        /* \"#utility.yul\":23168:23175   */\n      0x00\n        /* \"#utility.yul\":23197:23202   */\n      dup2\n        /* \"#utility.yul\":23186:23202   */\n      swap1\n      pop\n        /* \"#utility.yul\":23131:23208   */\n      swap2\n      swap1\n      pop\n      jump\t// out\n        /* \"#utility.yul\":23214:23340   */\n    tag_468:\n        /* \"#utility.yul\":23251:23258   */\n      0x00\n        /* \"#utility.yul\":23291:23333   */\n      0xffffffffffffffffffffffffffffffffffffffff\n        /* \"#utility.yul\":23284:23289   */\n      dup3\n        /* \"#utility.yul\":23280:23334   */\n      and\n        /* \"#utility.yul\":23269:23334   */\n      swap1\n      pop\n        /* \"#utility.yul\":23214:23340   */\n      swap2\n      swap1\n      pop\n      jump\t// out\n        /* \"#utility.yul\":23346:23423   */\n    tag_396:\n        /* \"#utility.yul\":23383:23390   */\n      0x00\n        /* \"#utility.yul\":23412:23417   */\n      dup2\n        /* \"#utility.yul\":23401:23417   */\n      swap1\n      pop\n        /* \"#utility.yul\":23346:23423   */\n      swap2\n      swap1\n      pop\n      jump\t// out\n        /* \"#utility.yul\":23429:23583   */\n    tag_250:\n        /* \"#utility.yul\":23513:23519   */\n      dup3\n        /* \"#utility.yul\":23508:23511   */\n      dup2\n        /* \"#utility.yul\":23503:23506   */\n      dup4\n        /* \"#utility.yul\":23490:23520   */\n      calldatacopy\n        /* \"#utility.yul\":23575:23576   */\n      0x00\n        /* \"#utility.yul\":23566:23572   */\n      dup4\n        /* \"#utility.yul\":23561:23564   */\n      dup4\n        /* \"#utility.yul\":23557:23573   */\n      add\n        /* \"#utility.yul\":23550:23577   */\n      mstore\n        /* \"#utility.yul\":23429:23583   */\n      pop\n      pop\n      pop\n      jump\t// out\n        /* \"#utility.yul\":23589:23909   */\n    tag_171:\n        /* \"#utility.yul\":23633:23639   */\n      0x00\n        /* \"#utility.yul\":23670:23671   */\n      0x02\n        /* \"#utility.yul\":23664:23668   */\n      dup3\n        /* \"#utility.yul\":23660:23672   */\n      div\n        /* \"#utility.yul\":23650:23672   */\n      swap1\n      pop\n        /* \"#utility.yul\":23717:23718   */\n      0x01\n        /* \"#utility.yul\":23711:23715   */\n      dup3\n        /* \"#utility.yul\":23707:23719   */\n      and\n        /* \"#utility.yul\":23738:23756   */\n      dup1\n        /* \"#utility.yul\":23728:23809   */\n      tag_475\n      jumpi\n        /* \"#utility.yul\":23794:23798   */\n      0x7f\n        /* \"#utility.yul\":23786:23792   */\n      dup3\n        /* \"#utility.yul\":23782:23799   */\n      and\n        /* \"#utility.yul\":23772:23799   */\n      swap2\n      pop\n        /* \"#utility.yul\":23728:23809   */\n    tag_475:\n        /* \"#utility.yul\":23856:23858   */\n      0x20\n        /* \"#utility.yul\":23848:23854   */\n      dup3\n        /* \"#utility.yul\":23845:23859   */\n      lt\n        /* \"#utility.yul\":23825:23843   */\n      dup2\n        /* \"#utility.yul\":23822:23860   */\n      eq\n        /* \"#utility.yul\":23819:23903   */\n      iszero\n      tag_476\n      jumpi\n        /* \"#utility.yul\":23875:23893   */\n      tag_477\n      tag_478\n      jump\t// in\n    tag_477:\n        /* \"#utility.yul\":23819:23903   */\n    tag_476:\n        /* \"#utility.yul\":23640:23909   */\n      pop\n        /* \"#utility.yul\":23589:23909   */\n      swap2\n      swap1\n      pop\n      jump\t// out\n        /* \"#utility.yul\":23915:24196   */\n    tag_439:\n        /* \"#utility.yul\":23998:24025   */\n      tag_480\n        /* \"#utility.yul\":24020:24024   */\n      dup3\n        /* \"#utility.yul\":23998:24025   */\n      tag_458\n      jump\t// in\n    tag_480:\n        /* \"#utility.yul\":23990:23996   */\n      dup2\n        /* \"#utility.yul\":23986:24026   */\n      add\n        /* \"#utility.yul\":24128:24134   */\n      dup2\n        /* \"#utility.yul\":24116:24126   */\n      dup2\n        /* \"#utility.yul\":24113:24135   */\n      lt\n        /* \"#utility.yul\":24092:24110   */\n      0xffffffffffffffff\n        /* \"#utility.yul\":24080:24090   */\n      dup3\n        /* \"#utility.yul\":24077:24111   */\n      gt\n        /* \"#utility.yul\":24074:24136   */\n      or\n        /* \"#utility.yul\":24071:24159   */\n      iszero\n      tag_481\n      jumpi\n        /* \"#utility.yul\":24139:24157   */\n      tag_482\n      tag_444\n      jump\t// in\n    tag_482:\n        /* \"#utility.yul\":24071:24159   */\n    tag_481:\n        /* \"#utility.yul\":24179:24189   */\n      dup1\n        /* \"#utility.yul\":24175:24177   */\n      0x40\n        /* \"#utility.yul\":24168:24190   */\n      mstore\n        /* \"#utility.yul\":23958:24196   */\n      pop\n        /* \"#utility.yul\":23915:24196   */\n      pop\n      pop\n      jump\t// out\n        /* \"#utility.yul\":24202:24435   */\n    tag_127:\n        /* \"#utility.yul\":24241:24244   */\n      0x00\n        /* \"#utility.yul\":24264:24288   */\n      tag_484\n        /* \"#utility.yul\":24282:24287   */\n      dup3\n        /* \"#utility.yul\":24264:24288   */\n      tag_396\n      jump\t// in\n    tag_484:\n        /* \"#utility.yul\":24255:24288   */\n      swap2\n      pop\n        /* \"#utility.yul\":24310:24376   */\n      0xffffffffffffffffffffffffffffffffffffffffffffffffffffffffffffffff\n        /* \"#utility.yul\":24303:24308   */\n      dup3\n        /* \"#utility.yul\":24300:24377   */\n      eq\n        /* \"#utility.yul\":24297:24400   */\n      iszero\n      tag_485\n      jumpi\n        /* \"#utility.yul\":24380:24398   */\n      tag_486\n      tag_465\n      jump\t// in\n    tag_486:\n        /* \"#utility.yul\":24297:24400   */\n    tag_485:\n        /* \"#utility.yul\":24427:24428   */\n      0x01\n        /* \"#utility.yul\":24420:24425   */\n      dup3\n        /* \"#utility.yul\":24416:24429   */\n      add\n        /* \"#utility.yul\":24409:24429   */\n      swap1\n      pop\n        /* \"#utility.yul\":24202:24435   */\n      swap2\n      swap1\n      pop\n      jump\t// out\n        /* \"#utility.yul\":24441:24621   */\n    tag_465:\n        /* \"#utility.yul\":24489:24566   */\n      0x4e487b7100000000000000000000000000000000000000000000000000000000\n        /* \"#utility.yul\":24486:24487   */\n      0x00\n        /* \"#utility.yul\":24479:24567   */\n      mstore\n        /* \"#utility.yul\":24586:24590   */\n      0x11\n        /* \"#utility.yul\":24583:24584   */\n      0x04\n        /* \"#utility.yul\":24576:24591   */\n      mstore\n        /* \"#utility.yul\":24610:24614   */\n      0x24\n        /* \"#utility.yul\":24607:24608   */\n      0x00\n        /* \"#utility.yul\":24600:24615   */\n      revert\n        /* \"#utility.yul\":24627:24807   */\n    tag_478:\n        /* \"#utility.yul\":24675:24752   */\n      0x4e487b7100000000000000000000000000000000000000000000000000000000\n        /* \"#utility.yul\":24672:24673   */\n      0x00\n        /* \"#utility.yul\":24665:24753   */\n      mstore\n        /* \"#utility.yul\":24772:24776   */\n      0x22\n        /* \"#utility.yul\":24769:24770   */\n      0x04\n        /* \"#utility.yul\":24762:24777   */\n      mstore\n        /* \"#utility.yul\":24796:24800   */\n      0x24\n        /* \"#utility.yul\":24793:24794   */\n      0x00\n        /* \"#utility.yul\":24786:24801   */\n      revert\n        /* \"#utility.yul\":24813:24993   */\n    tag_81:\n        /* \"#utility.yul\":24861:24938   */\n      0x4e487b7100000000000000000000000000000000000000000000000000000000\n        /* \"#utility.yul\":24858:24859   */\n      0x00\n        /* \"#utility.yul\":24851:24939   */\n      mstore\n        /* \"#utility.yul\":24958:24962   */\n      0x32\n        /* \"#utility.yul\":24955:24956   */\n      0x04\n        /* \"#utility.yul\":24948:24963   */\n      mstore\n        /* \"#utility.yul\":24982:24986   */\n      0x24\n        /* \"#utility.yul\":24979:24980   */\n      0x00\n        /* \"#utility.yul\":24972:24987   */\n      revert\n        /* \"#utility.yul\":24999:25179   */\n    tag_444:\n        /* \"#utility.yul\":25047:25124   */\n      0x4e487b7100000000000000000000000000000000000000000000000000000000\n        /* \"#utility.yul\":25044:25045   */\n      0x00\n        /* \"#utility.yul\":25037:25125   */\n      mstore\n        /* \"#utility.yul\":25144:25148   */\n      0x41\n        /* \"#utility.yul\":25141:25142   */\n      0x04\n        /* \"#utility.yul\":25134:25149   */\n      mstore\n        /* \"#utility.yul\":25168:25172   */\n      0x24\n        /* \"#utility.yul\":25165:25166   */\n      0x00\n        /* \"#utility.yul\":25158:25173   */\n      revert\n        /* \"#utility.yul\":25185:25302   */\n    tag_212:\n        /* \"#utility.yul\":25294:25295   */\n      0x00\n        /* \"#utility.yul\":25291:25292   */\n      dup1\n        /* \"#utility.yul\":25284:25296   */\n      revert\n        /* \"#utility.yul\":25308:25425   */\n    tag_289:\n        /* \"#utility.yul\":25417:25418   */\n      0x00\n        /* \"#utility.yul\":25414:25415   */\n      dup1\n        /* \"#utility.yul\":25407:25419   */\n      revert\n        /* \"#utility.yul\":25431:25548   */\n    tag_294:\n        /* \"#utility.yul\":25540:25541   */\n      0x00\n        /* \"#utility.yul\":25537:25538   */\n      dup1\n        /* \"#utility.yul\":25530:25542   */\n      revert\n        /* \"#utility.yul\":25554:25671   */\n    tag_194:\n        /* \"#utility.yul\":25663:25664   */\n      0x00\n        /* \"#utility.yul\":25660:25661   */\n      dup1\n        /* \"#utility.yul\":25653:25665   */\n      revert\n        /* \"#utility.yul\":25677:25794   */\n    tag_248:\n        /* \"#utility.yul\":25786:25787   */\n      0x00\n        /* \"#utility.yul\":25783:25784   */\n      dup1\n        /* \"#utility.yul\":25776:25788   */\n      revert\n        /* \"#utility.yul\":25800:25917   */\n    tag_320:\n        /* \"#utility.yul\":25909:25910   */\n      0x00\n        /* \"#utility.yul\":25906:25907   */\n      dup1\n        /* \"#utility.yul\":25899:25911   */\n      revert\n        /* \"#utility.yul\":25923:26040   */\n    tag_308:\n        /* \"#utility.yul\":26032:26033   */\n      0x00\n        /* \"#utility.yul\":26029:26030   */\n      dup1\n        /* \"#utility.yul\":26022:26034   */\n      revert\n        /* \"#utility.yul\":26046:26148   */\n    tag_458:\n        /* \"#utility.yul\":26087:26093   */\n      0x00\n        /* \"#utility.yul\":26138:26140   */\n      0x1f\n        /* \"#utility.yul\":26134:26141   */\n      not\n        /* \"#utility.yul\":26129:26131   */\n      0x1f\n        /* \"#utility.yul\":26122:26127   */\n      dup4\n        /* \"#utility.yul\":26118:26132   */\n      add\n        /* \"#utility.yul\":26114:26142   */\n      and\n        /* \"#utility.yul\":26104:26142   */\n      swap1\n      pop\n        /* \"#utility.yul\":26046:26148   */\n      swap2\n      swap1\n      pop\n      jump\t// out\n        /* \"#utility.yul\":26154:26379   */\n    tag_362:\n        /* \"#utility.yul\":26294:26328   */\n      0x4f776e61626c653a206e6577206f776e657220697320746865207a65726f2061\n        /* \"#utility.yul\":26290:26291   */\n      0x00\n        /* \"#utility.yul\":26282:26288   */\n      dup3\n        /* \"#utility.yul\":26278:26292   */\n      add\n        /* \"#utility.yul\":26271:26329   */\n      mstore\n        /* \"#utility.yul\":26363:26371   */\n      0x6464726573730000000000000000000000000000000000000000000000000000\n        /* \"#utility.yul\":26358:26360   */\n      0x20\n        /* \"#utility.yul\":26350:26356   */\n      dup3\n        /* \"#utility.yul\":26346:26361   */\n      add\n        /* \"#utility.yul\":26339:26372   */\n      mstore\n        /* \"#utility.yul\":26154:26379   */\n      pop\n      jump\t// out\n        /* \"#utility.yul\":26385:26553   */\n    tag_367:\n        /* \"#utility.yul\":26525:26545   */\n      0x416c6c6f77616e6365457863657074696f6e0000000000000000000000000000\n        /* \"#utility.yul\":26521:26522   */\n      0x00\n        /* \"#utility.yul\":26513:26519   */\n      dup3\n        /* \"#utility.yul\":26509:26523   */\n      add\n        /* \"#utility.yul\":26502:26546   */\n      mstore\n        /* \"#utility.yul\":26385:26553   */\n      pop\n      jump\t// out\n        /* \"#utility.yul\":26559:26728   */\n    tag_372:\n        /* \"#utility.yul\":26699:26720   */\n      0x4a6f62206973206e6f74206f70656e2079657400000000000000000000000000\n        /* \"#utility.yul\":26695:26696   */\n      0x00\n        /* \"#utility.yul\":26687:26693   */\n      dup3\n        /* \"#utility.yul\":26683:26697   */\n      add\n        /* \"#utility.yul\":26676:26721   */\n      mstore\n        /* \"#utility.yul\":26559:26728   */\n      pop\n      jump\t// out\n        /* \"#utility.yul\":26734:26954   */\n    tag_377:\n        /* \"#utility.yul\":26874:26908   */\n      0x4a6f62206e6f7420616363657074696e67206d6f7265206170706c6963616e74\n        /* \"#utility.yul\":26870:26871   */\n      0x00\n        /* \"#utility.yul\":26862:26868   */\n      dup3\n        /* \"#utility.yul\":26858:26872   */\n      add\n        /* \"#utility.yul\":26851:26909   */\n      mstore\n        /* \"#utility.yul\":26943:26946   */\n      0x7300000000000000000000000000000000000000000000000000000000000000\n        /* \"#utility.yul\":26938:26940   */\n      0x20\n        /* \"#utility.yul\":26930:26936   */\n      dup3\n        /* \"#utility.yul\":26926:26941   */\n      add\n        /* \"#utility.yul\":26919:26947   */\n      mstore\n        /* \"#utility.yul\":26734:26954   */\n      pop\n      jump\t// out\n        /* \"#utility.yul\":26960:27142   */\n    tag_382:\n        /* \"#utility.yul\":27100:27134   */\n      0x4f776e61626c653a2063616c6c6572206973206e6f7420746865206f776e6572\n        /* \"#utility.yul\":27096:27097   */\n      0x00\n        /* \"#utility.yul\":27088:27094   */\n      dup3\n        /* \"#utility.yul\":27084:27098   */\n      add\n        /* \"#utility.yul\":27077:27135   */\n      mstore\n        /* \"#utility.yul\":26960:27142   */\n      pop\n      jump\t// out\n        /* \"#utility.yul\":27148:27320   */\n    tag_387:\n        /* \"#utility.yul\":27288:27312   */\n      0x496e76616c6964416d6f756e74457863657074696f6e00000000000000000000\n        /* \"#utility.yul\":27284:27285   */\n      0x00\n        /* \"#utility.yul\":27276:27282   */\n      dup3\n        /* \"#utility.yul\":27272:27286   */\n      add\n        /* \"#utility.yul\":27265:27313   */\n      mstore\n        /* \"#utility.yul\":27148:27320   */\n      pop\n      jump\t// out\n        /* \"#utility.yul\":27326:27495   */\n    tag_392:\n        /* \"#utility.yul\":27466:27487   */\n      0x556e617574686f72697a656420436c6f73657200000000000000000000000000\n        /* \"#utility.yul\":27462:27463   */\n      0x00\n        /* \"#utility.yul\":27454:27460   */\n      dup3\n        /* \"#utility.yul\":27450:27464   */\n      add\n        /* \"#utility.yul\":27443:27488   */\n      mstore\n        /* \"#utility.yul\":27326:27495   */\n      pop\n      jump\t// out\n        /* \"#utility.yul\":27501:27623   */\n    tag_253:\n        /* \"#utility.yul\":27574:27598   */\n      tag_507\n        /* \"#utility.yul\":27592:27597   */\n      dup2\n        /* \"#utility.yul\":27574:27598   */\n      tag_348\n      jump\t// in\n    tag_507:\n        /* \"#utility.yul\":27567:27572   */\n      dup2\n        /* \"#utility.yul\":27564:27599   */\n      eq\n        /* \"#utility.yul\":27554:27617   */\n      tag_508\n      jumpi\n        /* \"#utility.yul\":27613:27614   */\n      0x00\n        /* \"#utility.yul\":27610:27611   */\n      dup1\n        /* \"#utility.yul\":27603:27615   */\n      revert\n        /* \"#utility.yul\":27554:27617   */\n    tag_508:\n        /* \"#utility.yul\":27501:27623   */\n      pop\n      jump\t// out\n        /* \"#utility.yul\":27629:27745   */\n    tag_276:\n        /* \"#utility.yul\":27699:27720   */\n      tag_510\n        /* \"#utility.yul\":27714:27719   */\n      dup2\n        /* \"#utility.yul\":27699:27720   */\n      tag_352\n      jump\t// in\n    tag_510:\n        /* \"#utility.yul\":27692:27697   */\n      dup2\n        /* \"#utility.yul\":27689:27721   */\n      eq\n        /* \"#utility.yul\":27679:27739   */\n      tag_511\n      jumpi\n        /* \"#utility.yul\":27735:27736   */\n      0x00\n        /* \"#utility.yul\":27732:27733   */\n      dup1\n        /* \"#utility.yul\":27725:27737   */\n      revert\n        /* \"#utility.yul\":27679:27739   */\n    tag_511:\n        /* \"#utility.yul\":27629:27745   */\n      pop\n      jump\t// out\n        /* \"#utility.yul\":27751:27873   */\n    tag_280:\n        /* \"#utility.yul\":27824:27848   */\n      tag_513\n        /* \"#utility.yul\":27842:27847   */\n      dup2\n        /* \"#utility.yul\":27824:27848   */\n      tag_356\n      jump\t// in\n    tag_513:\n        /* \"#utility.yul\":27817:27822   */\n      dup2\n        /* \"#utility.yul\":27814:27849   */\n      eq\n        /* \"#utility.yul\":27804:27867   */\n      tag_514\n      jumpi\n        /* \"#utility.yul\":27863:27864   */\n      0x00\n        /* \"#utility.yul\":27860:27861   */\n      dup1\n        /* \"#utility.yul\":27853:27865   */\n      revert\n        /* \"#utility.yul\":27804:27867   */\n    tag_514:\n        /* \"#utility.yul\":27751:27873   */\n      pop\n      jump\t// out\n        /* \"#utility.yul\":27879:28001   */\n    tag_301:\n        /* \"#utility.yul\":27952:27976   */\n      tag_516\n        /* \"#utility.yul\":27970:27975   */\n      dup2\n        /* \"#utility.yul\":27952:27976   */\n      tag_396\n      jump\t// in\n    tag_516:\n        /* \"#utility.yul\":27945:27950   */\n      dup2\n        /* \"#utility.yul\":27942:27977   */\n      eq\n        /* \"#utility.yul\":27932:27995   */\n      tag_517\n      jumpi\n        /* \"#utility.yul\":27991:27992   */\n      0x00\n        /* \"#utility.yul\":27988:27989   */\n      dup1\n        /* \"#utility.yul\":27981:27993   */\n      revert\n        /* \"#utility.yul\":27932:27995   */\n    tag_517:\n        /* \"#utility.yul\":27879:28001   */\n      pop\n      jump\t// out\n\n    auxdata: 0xa264697066735822122024c284a60a90e4b297e4bb6568b4a21c051193e63185a102fafed673fefae45864736f6c63430008070033\n}\n",
				"bytecode": {
					"linkReferences": {},
					"object": "60806040523480156200001157600080fd5b506040516200216a3803806200216a8339818101604052810190620000379190620001cc565b620000576200004b620000e960201b60201c565b620000f160201b60201c565b600060018190555081600460006101000a81548173ffffffffffffffffffffffffffffffffffffffff021916908373ffffffffffffffffffffffffffffffffffffffff16021790555080600560006101000a81548173ffffffffffffffffffffffffffffffffffffffff021916908373ffffffffffffffffffffffffffffffffffffffff160217905550505062000266565b600033905090565b60008060009054906101000a900473ffffffffffffffffffffffffffffffffffffffff169050816000806101000a81548173ffffffffffffffffffffffffffffffffffffffff021916908373ffffffffffffffffffffffffffffffffffffffff1602179055508173ffffffffffffffffffffffffffffffffffffffff168173ffffffffffffffffffffffffffffffffffffffff167f8be0079c531659141344cd1fd0a4f28419497f9722a3daafe3b4186f6b6457e060405160405180910390a35050565b600081519050620001c6816200024c565b92915050565b60008060408385031215620001e657620001e562000247565b5b6000620001f685828601620001b5565b92505060206200020985828601620001b5565b9150509250929050565b6000620002208262000227565b9050919050565b600073ffffffffffffffffffffffffffffffffffffffff82169050919050565b600080fd5b620002578162000213565b81146200026357600080fd5b50565b611ef480620002766000396000f3fe608060405234801561001057600080fd5b50600436106100935760003560e01c8063cd3c6e5611610066578063cd3c6e56146100e6578063d9a4a8f414610102578063e6d46c8d14610132578063effbb95d14610162578063f2fde38b1461019757610093565b80632d3ced1714610098578063715018a6146100a25780638da5cb5b146100ac578063b5ec25ae146100ca575b600080fd5b6100a06101b3565b005b6100aa6102e9565b005b6100b46102fd565b6040516100c19190611764565b60405180910390f35b6100e460048036038101906100df9190611599565b610326565b005b61010060048036038101906100fb91906115f3565b61061d565b005b61011c6004803603810190610117919061148f565b6108e7565b6040516101299190611808565b60405180910390f35b61014c60048036038101906101479190611599565b610b46565b6040516101599190611808565b60405180910390f35b61017c60048036038101906101779190611599565b610c9b565b60405161018e96959493929190611823565b60405180910390f35b6101b160048036038101906101ac9190611435565b610d11565b005b600460009054906101000a900473ffffffffffffffffffffffffffffffffffffffff1673ffffffffffffffffffffffffffffffffffffffff1663a9059cbb33600360003373ffffffffffffffffffffffffffffffffffffffff1673ffffffffffffffffffffffffffffffffffffffff168152602001908152602001600020546040518363ffffffff1660e01b815260040161024f9291906117df565b602060405180830381600087803b15801561026957600080fd5b505af115801561027d573d6000803e3d6000fd5b505050506040513d601f19601f820116820180604052508101906102a19190611462565b506000600360003373ffffffffffffffffffffffffffffffffffffffff1673ffffffffffffffffffffffffffffffffffffffff16815260200190815260200160002081905550565b6102f1610d95565b6102fb6000610e13565b565b60008060009054906101000a900473ffffffffffffffffffffffffffffffffffffffff16905090565b600115156002600083815260200190815260200160002060040160009054906101000a900460ff16151514610390576040517f08c379a0000000000000000000000000000000000000000000000000000000008152600401610387906118c4565b60405180910390fd5b6000600260008381526020019081526020016000206003015414156103ea576040517f08c379a00000000000000000000000000000000000000000000000000000000081526004016103e1906118e4565b60405180910390fd5b6000600260008381526020019081526020016000206005015490505b60008114610619576001600560009054906101000a900473ffffffffffffffffffffffffffffffffffffffff1673ffffffffffffffffffffffffffffffffffffffff1662fdd58e33846040518363ffffffff1660e01b815260040161046c9291906117df565b60206040518083038186803b15801561048457600080fd5b505afa158015610498573d6000803e3d6000fd5b505050506040513d601f19601f820116820180604052508101906104bc91906115c6565b14156105cc576002600083815260200190815260200160002060010160008281526020019081526020016000206000815481106104fc576104fb611c65565b5b90600052602060002001549050806002600084815260200190815260200160002060020160008381526020019081526020016000206000015414156105c757600260008381526020019081526020016000206002016000828152602001908152602001600020600201339080600181540180825580915050600190039060005260206000200160009091909190916101000a81548173ffffffffffffffffffffffffffffffffffffffff021916908373ffffffffffffffffffffffffffffffffffffffff1602179055505b610614565b60026000838152602001908152602001600020600101600082815260200190815260200160002060018154811061060657610605611c65565b5b906000526020600020015490505b610406565b5050565b60008111610660576040517f08c379a000000000000000000000000000000000000000000000000000000000815260040161065790611924565b60405180910390fd5b6000600460009054906101000a900473ffffffffffffffffffffffffffffffffffffffff1673ffffffffffffffffffffffffffffffffffffffff1663dd62ed3e33306040518363ffffffff1660e01b81526004016106bf92919061177f565b60206040518083038186803b1580156106d757600080fd5b505afa1580156106eb573d6000803e3d6000fd5b505050506040513d601f19601f8201168201806040525081019061070f91906115c6565b905081811015610754576040517f08c379a000000000000000000000000000000000000000000000000000000000815260040161074b906118a4565b60405180910390fd5b600460009054906101000a900473ffffffffffffffffffffffffffffffffffffffff1673ffffffffffffffffffffffffffffffffffffffff166323b872dd3330856040518463ffffffff1660e01b81526004016107b3939291906117a8565b602060405180830381600087803b1580156107cd57600080fd5b505af11580156107e1573d6000803e3d6000fd5b505050506040513d601f19601f820116820180604052508101906108059190611462565b503373ffffffffffffffffffffffffffffffffffffffff166108fc839081150290604051600060405180830381858888f1935050505015801561084c573d6000803e3d6000fd5b50816002600085815260200190815260200160002060030160008282546108739190611aa4565b9250508190555060016002600085815260200190815260200160002060040160006101000a81548160ff0219169083151502179055507f21f9bb95ea07d82a536314fd89080112cda91fc68b6e0a77ced196a3a291e1c983836040516108da929190611964565b60405180910390a1505050565b600080600260006001548152602001908152602001600020905089816000018190555083816005018190555060005b868110156109c65787818151811061093157610930611c65565b5b60200260200101518260020160008a848151811061095257610951611c65565b5b6020026020010151600001518152602001908152602001600020600082015181600001556020820151816001019080519060200190610992929190610edf565b5060408201518160020190805190602001906109af929190610f65565b5090505080806109be90611bbe565b915050610916565b5060005b85811015610ab25760005b86811015610a9e5760018a83815181106109f2576109f1611c65565b5b60200260200101518281518110610a0c57610a0b611c65565b5b60200260200101511415610a8b578260010160008c8481518110610a3357610a32611c65565b5b602002602001015181526020019081526020016000208b8281518110610a5c57610a5b611c65565b5b602002602001015190806001815401808255809150506001900390600052602060002001600090919091909150555b8080610a9690611bbe565b9150506109d5565b508080610aaa90611bbe565b9150506109ca565b5060008160040160006101000a81548160ff02191690831515021790555060008160030181905550828160040160016101000a81548173ffffffffffffffffffffffffffffffffffffffff021916908373ffffffffffffffffffffffffffffffffffffffff16021790555060016000815480929190610b3090611bbe565b9190505550600191505098975050505050505050565b6000610b506102fd565b73ffffffffffffffffffffffffffffffffffffffff163373ffffffffffffffffffffffffffffffffffffffff161480610bea57506002600083815260200190815260200160002060040160019054906101000a900473ffffffffffffffffffffffffffffffffffffffff1673ffffffffffffffffffffffffffffffffffffffff163373ffffffffffffffffffffffffffffffffffffffff16145b610c29576040517f08c379a0000000000000000000000000000000000000000000000000000000008152600401610c2090611944565b60405180910390fd5b600115156002600084815260200190815260200160002060040160009054906101000a900460ff1615151415610c915760006002600084815260200190815260200160002060040160006101000a81548160ff02191690831515021790555060019050610c96565b600090505b919050565b60026020528060005260406000206000915090508060000154908060030154908060040160009054906101000a900460ff16908060040160019054906101000a900473ffffffffffffffffffffffffffffffffffffffff16908060040160159054906101000a900460ff16908060050154905086565b610d19610d95565b600073ffffffffffffffffffffffffffffffffffffffff168173ffffffffffffffffffffffffffffffffffffffff161415610d89576040517f08c379a0000000000000000000000000000000000000000000000000000000008152600401610d8090611884565b60405180910390fd5b610d9281610e13565b50565b610d9d610ed7565b73ffffffffffffffffffffffffffffffffffffffff16610dbb6102fd565b73ffffffffffffffffffffffffffffffffffffffff1614610e11576040517f08c379a0000000000000000000000000000000000000000000000000000000008152600401610e0890611904565b60405180910390fd5b565b60008060009054906101000a900473ffffffffffffffffffffffffffffffffffffffff169050816000806101000a81548173ffffffffffffffffffffffffffffffffffffffff021916908373ffffffffffffffffffffffffffffffffffffffff1602179055508173ffffffffffffffffffffffffffffffffffffffff168173ffffffffffffffffffffffffffffffffffffffff167f8be0079c531659141344cd1fd0a4f28419497f9722a3daafe3b4186f6b6457e060405160405180910390a35050565b600033905090565b828054610eeb90611b5b565b90600052602060002090601f016020900481019282610f0d5760008555610f54565b82601f10610f2657805160ff1916838001178555610f54565b82800160010185558215610f54579182015b82811115610f53578251825591602001919060010190610f38565b5b509050610f619190610fef565b5090565b828054828255906000526020600020908101928215610fde579160200282015b82811115610fdd5782518260006101000a81548173ffffffffffffffffffffffffffffffffffffffff021916908373ffffffffffffffffffffffffffffffffffffffff16021790555091602001919060010190610f85565b5b509050610feb9190610fef565b5090565b5b80821115611008576000816000905550600101610ff0565b5090565b600061101f61101a846119b2565b61198d565b9050808382526020820190508285602086028201111561104257611041611cd2565b5b60005b858110156110725781611058888261124a565b845260208401935060208301925050600181019050611045565b5050509392505050565b600061108f61108a846119de565b61198d565b905080838252602082019050828560208602820111156110b2576110b1611cd2565b5b60005b8581101561110057813567ffffffffffffffff8111156110d8576110d7611cc3565b5b8086016110e589826112e9565b855260208501945060208401935050506001810190506110b5565b5050509392505050565b600061111d61111884611a0a565b61198d565b905080838252602082019050828560208602820111156111405761113f611cd2565b5b60005b8581101561118e57813567ffffffffffffffff81111561116657611165611cc3565b5b808601611173898261136f565b85526020850194506020840193505050600181019050611143565b5050509392505050565b60006111ab6111a684611a36565b61198d565b905080838252602082019050828560208602820111156111ce576111cd611cd2565b5b60005b858110156111fe57816111e4888261140b565b8452602084019350602083019250506001810190506111d1565b5050509392505050565b600061121b61121684611a62565b61198d565b90508281526020810184848401111561123757611236611cd7565b5b611242848285611b4c565b509392505050565b60008135905061125981611e62565b92915050565b600082601f83011261127457611273611cc3565b5b813561128484826020860161100c565b91505092915050565b600082601f8301126112a2576112a1611cc3565b5b81356112b284826020860161107c565b91505092915050565b600082601f8301126112d0576112cf611cc3565b5b81356112e084826020860161110a565b91505092915050565b600082601f8301126112fe576112fd611cc3565b5b813561130e848260208601611198565b91505092915050565b60008151905061132681611e79565b92915050565b60008135905061133b81611e90565b92915050565b600082601f83011261135657611355611cc3565b5b8135611366848260208601611208565b91505092915050565b60006060828403121561138557611384611cc8565b5b61138f606061198d565b9050600061139f8482850161140b565b600083015250602082013567ffffffffffffffff8111156113c3576113c2611ccd565b5b6113cf84828501611341565b602083015250604082013567ffffffffffffffff8111156113f3576113f2611ccd565b5b6113ff8482850161125f565b60408301525092915050565b60008135905061141a81611ea7565b92915050565b60008151905061142f81611ea7565b92915050565b60006020828403121561144b5761144a611ce1565b5b60006114598482850161124a565b91505092915050565b60006020828403121561147857611477611ce1565b5b600061148684828501611317565b91505092915050565b600080600080600080600080610100898b0312156114b0576114af611ce1565b5b60006114be8b828c0161132c565b985050602089013567ffffffffffffffff8111156114df576114de611cdc565b5b6114eb8b828c016112e9565b975050604089013567ffffffffffffffff81111561150c5761150b611cdc565b5b6115188b828c0161128d565b965050606089013567ffffffffffffffff81111561153957611538611cdc565b5b6115458b828c016112bb565b95505060806115568b828c0161140b565b94505060a06115678b828c0161140b565b93505060c06115788b828c0161140b565b92505060e06115898b828c0161124a565b9150509295985092959890939650565b6000602082840312156115af576115ae611ce1565b5b60006115bd8482850161140b565b91505092915050565b6000602082840312156115dc576115db611ce1565b5b60006115ea84828501611420565b91505092915050565b6000806040838503121561160a57611609611ce1565b5b60006116188582860161140b565b92505060206116298582860161140b565b9150509250929050565b61163c81611afa565b82525050565b61164b81611b0c565b82525050565b61165a81611b18565b82525050565b600061166d602683611a93565b915061167882611cf7565b604082019050919050565b6000611690601283611a93565b915061169b82611d46565b602082019050919050565b60006116b3601383611a93565b91506116be82611d6f565b602082019050919050565b60006116d6602183611a93565b91506116e182611d98565b604082019050919050565b60006116f9602083611a93565b915061170482611de7565b602082019050919050565b600061171c601683611a93565b915061172782611e10565b602082019050919050565b600061173f601383611a93565b915061174a82611e39565b602082019050919050565b61175e81611b42565b82525050565b60006020820190506117796000830184611633565b92915050565b60006040820190506117946000830185611633565b6117a16020830184611633565b9392505050565b60006060820190506117bd6000830186611633565b6117ca6020830185611633565b6117d76040830184611755565b949350505050565b60006040820190506117f46000830185611633565b6118016020830184611755565b9392505050565b600060208201905061181d6000830184611642565b92915050565b600060c0820190506118386000830189611651565b6118456020830188611755565b6118526040830187611642565b61185f6060830186611633565b61186c6080830185611642565b61187960a0830184611755565b979650505050505050565b6000602082019050818103600083015261189d81611660565b9050919050565b600060208201905081810360008301526118bd81611683565b9050919050565b600060208201905081810360008301526118dd816116a6565b9050919050565b600060208201905081810360008301526118fd816116c9565b9050919050565b6000602082019050818103600083015261191d816116ec565b9050919050565b6000602082019050818103600083015261193d8161170f565b9050919050565b6000602082019050818103600083015261195d81611732565b9050919050565b60006040820190506119796000830185611755565b6119866020830184611755565b9392505050565b60006119976119a8565b90506119a38282611b8d565b919050565b6000604051905090565b600067ffffffffffffffff8211156119cd576119cc611c94565b5b602082029050602081019050919050565b600067ffffffffffffffff8211156119f9576119f8611c94565b5b602082029050602081019050919050565b600067ffffffffffffffff821115611a2557611a24611c94565b5b602082029050602081019050919050565b600067ffffffffffffffff821115611a5157611a50611c94565b5b602082029050602081019050919050565b600067ffffffffffffffff821115611a7d57611a7c611c94565b5b611a8682611ce6565b9050602081019050919050565b600082825260208201905092915050565b6000611aaf82611b42565b9150611aba83611b42565b9250827fffffffffffffffffffffffffffffffffffffffffffffffffffffffffffffffff03821115611aef57611aee611c07565b5b828201905092915050565b6000611b0582611b22565b9050919050565b60008115159050919050565b6000819050919050565b600073ffffffffffffffffffffffffffffffffffffffff82169050919050565b6000819050919050565b82818337600083830152505050565b60006002820490506001821680611b7357607f821691505b60208210811415611b8757611b86611c36565b5b50919050565b611b9682611ce6565b810181811067ffffffffffffffff82111715611bb557611bb4611c94565b5b80604052505050565b6000611bc982611b42565b91507fffffffffffffffffffffffffffffffffffffffffffffffffffffffffffffffff821415611bfc57611bfb611c07565b5b600182019050919050565b7f4e487b7100000000000000000000000000000000000000000000000000000000600052601160045260246000fd5b7f4e487b7100000000000000000000000000000000000000000000000000000000600052602260045260246000fd5b7f4e487b7100000000000000000000000000000000000000000000000000000000600052603260045260246000fd5b7f4e487b7100000000000000000000000000000000000000000000000000000000600052604160045260246000fd5b600080fd5b600080fd5b600080fd5b600080fd5b600080fd5b600080fd5b600080fd5b6000601f19601f8301169050919050565b7f4f776e61626c653a206e6577206f776e657220697320746865207a65726f206160008201527f6464726573730000000000000000000000000000000000000000000000000000602082015250565b7f416c6c6f77616e6365457863657074696f6e0000000000000000000000000000600082015250565b7f4a6f62206973206e6f74206f70656e2079657400000000000000000000000000600082015250565b7f4a6f62206e6f7420616363657074696e67206d6f7265206170706c6963616e7460008201527f7300000000000000000000000000000000000000000000000000000000000000602082015250565b7f4f776e61626c653a2063616c6c6572206973206e6f7420746865206f776e6572600082015250565b7f496e76616c6964416d6f756e74457863657074696f6e00000000000000000000600082015250565b7f556e617574686f72697a656420436c6f73657200000000000000000000000000600082015250565b611e6b81611afa565b8114611e7657600080fd5b50565b611e8281611b0c565b8114611e8d57600080fd5b50565b611e9981611b18565b8114611ea457600080fd5b50565b611eb081611b42565b8114611ebb57600080fd5b5056fea264697066735822122024c284a60a90e4b297e4bb6568b4a21c051193e63185a102fafed673fefae45864736f6c63430008070033",
					"opcodes": "PUSH1 0x80 PUSH1 0x40 MSTORE CALLVALUE DUP1 ISZERO PUSH3 0x11 JUMPI PUSH1 0x0 DUP1 REVERT JUMPDEST POP PUSH1 0x40 MLOAD PUSH3 0x216A CODESIZE SUB DUP1 PUSH3 0x216A DUP4 CODECOPY DUP2 DUP2 ADD PUSH1 0x40 MSTORE DUP2 ADD SWAP1 PUSH3 0x37 SWAP2 SWAP1 PUSH3 0x1CC JUMP JUMPDEST PUSH3 0x57 PUSH3 0x4B PUSH3 0xE9 PUSH1 0x20 SHL PUSH1 0x20 SHR JUMP JUMPDEST PUSH3 0xF1 PUSH1 0x20 SHL PUSH1 0x20 SHR JUMP JUMPDEST PUSH1 0x0 PUSH1 0x1 DUP2 SWAP1 SSTORE POP DUP2 PUSH1 0x4 PUSH1 0x0 PUSH2 0x100 EXP DUP2 SLOAD DUP2 PUSH20 0xFFFFFFFFFFFFFFFFFFFFFFFFFFFFFFFFFFFFFFFF MUL NOT AND SWAP1 DUP4 PUSH20 0xFFFFFFFFFFFFFFFFFFFFFFFFFFFFFFFFFFFFFFFF AND MUL OR SWAP1 SSTORE POP DUP1 PUSH1 0x5 PUSH1 0x0 PUSH2 0x100 EXP DUP2 SLOAD DUP2 PUSH20 0xFFFFFFFFFFFFFFFFFFFFFFFFFFFFFFFFFFFFFFFF MUL NOT AND SWAP1 DUP4 PUSH20 0xFFFFFFFFFFFFFFFFFFFFFFFFFFFFFFFFFFFFFFFF AND MUL OR SWAP1 SSTORE POP POP POP PUSH3 0x266 JUMP JUMPDEST PUSH1 0x0 CALLER SWAP1 POP SWAP1 JUMP JUMPDEST PUSH1 0x0 DUP1 PUSH1 0x0 SWAP1 SLOAD SWAP1 PUSH2 0x100 EXP SWAP1 DIV PUSH20 0xFFFFFFFFFFFFFFFFFFFFFFFFFFFFFFFFFFFFFFFF AND SWAP1 POP DUP2 PUSH1 0x0 DUP1 PUSH2 0x100 EXP DUP2 SLOAD DUP2 PUSH20 0xFFFFFFFFFFFFFFFFFFFFFFFFFFFFFFFFFFFFFFFF MUL NOT AND SWAP1 DUP4 PUSH20 0xFFFFFFFFFFFFFFFFFFFFFFFFFFFFFFFFFFFFFFFF AND MUL OR SWAP1 SSTORE POP DUP2 PUSH20 0xFFFFFFFFFFFFFFFFFFFFFFFFFFFFFFFFFFFFFFFF AND DUP2 PUSH20 0xFFFFFFFFFFFFFFFFFFFFFFFFFFFFFFFFFFFFFFFF AND PUSH32 0x8BE0079C531659141344CD1FD0A4F28419497F9722A3DAAFE3B4186F6B6457E0 PUSH1 0x40 MLOAD PUSH1 0x40 MLOAD DUP1 SWAP2 SUB SWAP1 LOG3 POP POP JUMP JUMPDEST PUSH1 0x0 DUP2 MLOAD SWAP1 POP PUSH3 0x1C6 DUP2 PUSH3 0x24C JUMP JUMPDEST SWAP3 SWAP2 POP POP JUMP JUMPDEST PUSH1 0x0 DUP1 PUSH1 0x40 DUP4 DUP6 SUB SLT ISZERO PUSH3 0x1E6 JUMPI PUSH3 0x1E5 PUSH3 0x247 JUMP JUMPDEST JUMPDEST PUSH1 0x0 PUSH3 0x1F6 DUP6 DUP3 DUP7 ADD PUSH3 0x1B5 JUMP JUMPDEST SWAP3 POP POP PUSH1 0x20 PUSH3 0x209 DUP6 DUP3 DUP7 ADD PUSH3 0x1B5 JUMP JUMPDEST SWAP2 POP POP SWAP3 POP SWAP3 SWAP1 POP JUMP JUMPDEST PUSH1 0x0 PUSH3 0x220 DUP3 PUSH3 0x227 JUMP JUMPDEST SWAP1 POP SWAP2 SWAP1 POP JUMP JUMPDEST PUSH1 0x0 PUSH20 0xFFFFFFFFFFFFFFFFFFFFFFFFFFFFFFFFFFFFFFFF DUP3 AND SWAP1 POP SWAP2 SWAP1 POP JUMP JUMPDEST PUSH1 0x0 DUP1 REVERT JUMPDEST PUSH3 0x257 DUP2 PUSH3 0x213 JUMP JUMPDEST DUP2 EQ PUSH3 0x263 JUMPI PUSH1 0x0 DUP1 REVERT JUMPDEST POP JUMP JUMPDEST PUSH2 0x1EF4 DUP1 PUSH3 0x276 PUSH1 0x0 CODECOPY PUSH1 0x0 RETURN INVALID PUSH1 0x80 PUSH1 0x40 MSTORE CALLVALUE DUP1 ISZERO PUSH2 0x10 JUMPI PUSH1 0x0 DUP1 REVERT JUMPDEST POP PUSH1 0x4 CALLDATASIZE LT PUSH2 0x93 JUMPI PUSH1 0x0 CALLDATALOAD PUSH1 0xE0 SHR DUP1 PUSH4 0xCD3C6E56 GT PUSH2 0x66 JUMPI DUP1 PUSH4 0xCD3C6E56 EQ PUSH2 0xE6 JUMPI DUP1 PUSH4 0xD9A4A8F4 EQ PUSH2 0x102 JUMPI DUP1 PUSH4 0xE6D46C8D EQ PUSH2 0x132 JUMPI DUP1 PUSH4 0xEFFBB95D EQ PUSH2 0x162 JUMPI DUP1 PUSH4 0xF2FDE38B EQ PUSH2 0x197 JUMPI PUSH2 0x93 JUMP JUMPDEST DUP1 PUSH4 0x2D3CED17 EQ PUSH2 0x98 JUMPI DUP1 PUSH4 0x715018A6 EQ PUSH2 0xA2 JUMPI DUP1 PUSH4 0x8DA5CB5B EQ PUSH2 0xAC JUMPI DUP1 PUSH4 0xB5EC25AE EQ PUSH2 0xCA JUMPI JUMPDEST PUSH1 0x0 DUP1 REVERT JUMPDEST PUSH2 0xA0 PUSH2 0x1B3 JUMP JUMPDEST STOP JUMPDEST PUSH2 0xAA PUSH2 0x2E9 JUMP JUMPDEST STOP JUMPDEST PUSH2 0xB4 PUSH2 0x2FD JUMP JUMPDEST PUSH1 0x40 MLOAD PUSH2 0xC1 SWAP2 SWAP1 PUSH2 0x1764 JUMP JUMPDEST PUSH1 0x40 MLOAD DUP1 SWAP2 SUB SWAP1 RETURN JUMPDEST PUSH2 0xE4 PUSH1 0x4 DUP1 CALLDATASIZE SUB DUP2 ADD SWAP1 PUSH2 0xDF SWAP2 SWAP1 PUSH2 0x1599 JUMP JUMPDEST PUSH2 0x326 JUMP JUMPDEST STOP JUMPDEST PUSH2 0x100 PUSH1 0x4 DUP1 CALLDATASIZE SUB DUP2 ADD SWAP1 PUSH2 0xFB SWAP2 SWAP1 PUSH2 0x15F3 JUMP JUMPDEST PUSH2 0x61D JUMP JUMPDEST STOP JUMPDEST PUSH2 0x11C PUSH1 0x4 DUP1 CALLDATASIZE SUB DUP2 ADD SWAP1 PUSH2 0x117 SWAP2 SWAP1 PUSH2 0x148F JUMP JUMPDEST PUSH2 0x8E7 JUMP JUMPDEST PUSH1 0x40 MLOAD PUSH2 0x129 SWAP2 SWAP1 PUSH2 0x1808 JUMP JUMPDEST PUSH1 0x40 MLOAD DUP1 SWAP2 SUB SWAP1 RETURN JUMPDEST PUSH2 0x14C PUSH1 0x4 DUP1 CALLDATASIZE SUB DUP2 ADD SWAP1 PUSH2 0x147 SWAP2 SWAP1 PUSH2 0x1599 JUMP JUMPDEST PUSH2 0xB46 JUMP JUMPDEST PUSH1 0x40 MLOAD PUSH2 0x159 SWAP2 SWAP1 PUSH2 0x1808 JUMP JUMPDEST PUSH1 0x40 MLOAD DUP1 SWAP2 SUB SWAP1 RETURN JUMPDEST PUSH2 0x17C PUSH1 0x4 DUP1 CALLDATASIZE SUB DUP2 ADD SWAP1 PUSH2 0x177 SWAP2 SWAP1 PUSH2 0x1599 JUMP JUMPDEST PUSH2 0xC9B JUMP JUMPDEST PUSH1 0x40 MLOAD PUSH2 0x18E SWAP7 SWAP6 SWAP5 SWAP4 SWAP3 SWAP2 SWAP1 PUSH2 0x1823 JUMP JUMPDEST PUSH1 0x40 MLOAD DUP1 SWAP2 SUB SWAP1 RETURN JUMPDEST PUSH2 0x1B1 PUSH1 0x4 DUP1 CALLDATASIZE SUB DUP2 ADD SWAP1 PUSH2 0x1AC SWAP2 SWAP1 PUSH2 0x1435 JUMP JUMPDEST PUSH2 0xD11 JUMP JUMPDEST STOP JUMPDEST PUSH1 0x4 PUSH1 0x0 SWAP1 SLOAD SWAP1 PUSH2 0x100 EXP SWAP1 DIV PUSH20 0xFFFFFFFFFFFFFFFFFFFFFFFFFFFFFFFFFFFFFFFF AND PUSH20 0xFFFFFFFFFFFFFFFFFFFFFFFFFFFFFFFFFFFFFFFF AND PUSH4 0xA9059CBB CALLER PUSH1 0x3 PUSH1 0x0 CALLER PUSH20 0xFFFFFFFFFFFFFFFFFFFFFFFFFFFFFFFFFFFFFFFF AND PUSH20 0xFFFFFFFFFFFFFFFFFFFFFFFFFFFFFFFFFFFFFFFF AND DUP2 MSTORE PUSH1 0x20 ADD SWAP1 DUP2 MSTORE PUSH1 0x20 ADD PUSH1 0x0 KECCAK256 SLOAD PUSH1 0x40 MLOAD DUP4 PUSH4 0xFFFFFFFF AND PUSH1 0xE0 SHL DUP2 MSTORE PUSH1 0x4 ADD PUSH2 0x24F SWAP3 SWAP2 SWAP1 PUSH2 0x17DF JUMP JUMPDEST PUSH1 0x20 PUSH1 0x40 MLOAD DUP1 DUP4 SUB DUP2 PUSH1 0x0 DUP8 DUP1 EXTCODESIZE ISZERO DUP1 ISZERO PUSH2 0x269 JUMPI PUSH1 0x0 DUP1 REVERT JUMPDEST POP GAS CALL ISZERO DUP1 ISZERO PUSH2 0x27D JUMPI RETURNDATASIZE PUSH1 0x0 DUP1 RETURNDATACOPY RETURNDATASIZE PUSH1 0x0 REVERT JUMPDEST POP POP POP POP PUSH1 0x40 MLOAD RETURNDATASIZE PUSH1 0x1F NOT PUSH1 0x1F DUP3 ADD AND DUP3 ADD DUP1 PUSH1 0x40 MSTORE POP DUP2 ADD SWAP1 PUSH2 0x2A1 SWAP2 SWAP1 PUSH2 0x1462 JUMP JUMPDEST POP PUSH1 0x0 PUSH1 0x3 PUSH1 0x0 CALLER PUSH20 0xFFFFFFFFFFFFFFFFFFFFFFFFFFFFFFFFFFFFFFFF AND PUSH20 0xFFFFFFFFFFFFFFFFFFFFFFFFFFFFFFFFFFFFFFFF AND DUP2 MSTORE PUSH1 0x20 ADD SWAP1 DUP2 MSTORE PUSH1 0x20 ADD PUSH1 0x0 KECCAK256 DUP2 SWAP1 SSTORE POP JUMP JUMPDEST PUSH2 0x2F1 PUSH2 0xD95 JUMP JUMPDEST PUSH2 0x2FB PUSH1 0x0 PUSH2 0xE13 JUMP JUMPDEST JUMP JUMPDEST PUSH1 0x0 DUP1 PUSH1 0x0 SWAP1 SLOAD SWAP1 PUSH2 0x100 EXP SWAP1 DIV PUSH20 0xFFFFFFFFFFFFFFFFFFFFFFFFFFFFFFFFFFFFFFFF AND SWAP1 POP SWAP1 JUMP JUMPDEST PUSH1 0x1 ISZERO ISZERO PUSH1 0x2 PUSH1 0x0 DUP4 DUP2 MSTORE PUSH1 0x20 ADD SWAP1 DUP2 MSTORE PUSH1 0x20 ADD PUSH1 0x0 KECCAK256 PUSH1 0x4 ADD PUSH1 0x0 SWAP1 SLOAD SWAP1 PUSH2 0x100 EXP SWAP1 DIV PUSH1 0xFF AND ISZERO ISZERO EQ PUSH2 0x390 JUMPI PUSH1 0x40 MLOAD PUSH32 0x8C379A000000000000000000000000000000000000000000000000000000000 DUP2 MSTORE PUSH1 0x4 ADD PUSH2 0x387 SWAP1 PUSH2 0x18C4 JUMP JUMPDEST PUSH1 0x40 MLOAD DUP1 SWAP2 SUB SWAP1 REVERT JUMPDEST PUSH1 0x0 PUSH1 0x2 PUSH1 0x0 DUP4 DUP2 MSTORE PUSH1 0x20 ADD SWAP1 DUP2 MSTORE PUSH1 0x20 ADD PUSH1 0x0 KECCAK256 PUSH1 0x3 ADD SLOAD EQ ISZERO PUSH2 0x3EA JUMPI PUSH1 0x40 MLOAD PUSH32 0x8C379A000000000000000000000000000000000000000000000000000000000 DUP2 MSTORE PUSH1 0x4 ADD PUSH2 0x3E1 SWAP1 PUSH2 0x18E4 JUMP JUMPDEST PUSH1 0x40 MLOAD DUP1 SWAP2 SUB SWAP1 REVERT JUMPDEST PUSH1 0x0 PUSH1 0x2 PUSH1 0x0 DUP4 DUP2 MSTORE PUSH1 0x20 ADD SWAP1 DUP2 MSTORE PUSH1 0x20 ADD PUSH1 0x0 KECCAK256 PUSH1 0x5 ADD SLOAD SWAP1 POP JUMPDEST PUSH1 0x0 DUP2 EQ PUSH2 0x619 JUMPI PUSH1 0x1 PUSH1 0x5 PUSH1 0x0 SWAP1 SLOAD SWAP1 PUSH2 0x100 EXP SWAP1 DIV PUSH20 0xFFFFFFFFFFFFFFFFFFFFFFFFFFFFFFFFFFFFFFFF AND PUSH20 0xFFFFFFFFFFFFFFFFFFFFFFFFFFFFFFFFFFFFFFFF AND PUSH3 0xFDD58E CALLER DUP5 PUSH1 0x40 MLOAD DUP4 PUSH4 0xFFFFFFFF AND PUSH1 0xE0 SHL DUP2 MSTORE PUSH1 0x4 ADD PUSH2 0x46C SWAP3 SWAP2 SWAP1 PUSH2 0x17DF JUMP JUMPDEST PUSH1 0x20 PUSH1 0x40 MLOAD DUP1 DUP4 SUB DUP2 DUP7 DUP1 EXTCODESIZE ISZERO DUP1 ISZERO PUSH2 0x484 JUMPI PUSH1 0x0 DUP1 REVERT JUMPDEST POP GAS STATICCALL ISZERO DUP1 ISZERO PUSH2 0x498 JUMPI RETURNDATASIZE PUSH1 0x0 DUP1 RETURNDATACOPY RETURNDATASIZE PUSH1 0x0 REVERT JUMPDEST POP POP POP POP PUSH1 0x40 MLOAD RETURNDATASIZE PUSH1 0x1F NOT PUSH1 0x1F DUP3 ADD AND DUP3 ADD DUP1 PUSH1 0x40 MSTORE POP DUP2 ADD SWAP1 PUSH2 0x4BC SWAP2 SWAP1 PUSH2 0x15C6 JUMP JUMPDEST EQ ISZERO PUSH2 0x5CC JUMPI PUSH1 0x2 PUSH1 0x0 DUP4 DUP2 MSTORE PUSH1 0x20 ADD SWAP1 DUP2 MSTORE PUSH1 0x20 ADD PUSH1 0x0 KECCAK256 PUSH1 0x1 ADD PUSH1 0x0 DUP3 DUP2 MSTORE PUSH1 0x20 ADD SWAP1 DUP2 MSTORE PUSH1 0x20 ADD PUSH1 0x0 KECCAK256 PUSH1 0x0 DUP2 SLOAD DUP2 LT PUSH2 0x4FC JUMPI PUSH2 0x4FB PUSH2 0x1C65 JUMP JUMPDEST JUMPDEST SWAP1 PUSH1 0x0 MSTORE PUSH1 0x20 PUSH1 0x0 KECCAK256 ADD SLOAD SWAP1 POP DUP1 PUSH1 0x2 PUSH1 0x0 DUP5 DUP2 MSTORE PUSH1 0x20 ADD SWAP1 DUP2 MSTORE PUSH1 0x20 ADD PUSH1 0x0 KECCAK256 PUSH1 0x2 ADD PUSH1 0x0 DUP4 DUP2 MSTORE PUSH1 0x20 ADD SWAP1 DUP2 MSTORE PUSH1 0x20 ADD PUSH1 0x0 KECCAK256 PUSH1 0x0 ADD SLOAD EQ ISZERO PUSH2 0x5C7 JUMPI PUSH1 0x2 PUSH1 0x0 DUP4 DUP2 MSTORE PUSH1 0x20 ADD SWAP1 DUP2 MSTORE PUSH1 0x20 ADD PUSH1 0x0 KECCAK256 PUSH1 0x2 ADD PUSH1 0x0 DUP3 DUP2 MSTORE PUSH1 0x20 ADD SWAP1 DUP2 MSTORE PUSH1 0x20 ADD PUSH1 0x0 KECCAK256 PUSH1 0x2 ADD CALLER SWAP1 DUP1 PUSH1 0x1 DUP2 SLOAD ADD DUP1 DUP3 SSTORE DUP1 SWAP2 POP POP PUSH1 0x1 SWAP1 SUB SWAP1 PUSH1 0x0 MSTORE PUSH1 0x20 PUSH1 0x0 KECCAK256 ADD PUSH1 0x0 SWAP1 SWAP2 SWAP1 SWAP2 SWAP1 SWAP2 PUSH2 0x100 EXP DUP2 SLOAD DUP2 PUSH20 0xFFFFFFFFFFFFFFFFFFFFFFFFFFFFFFFFFFFFFFFF MUL NOT AND SWAP1 DUP4 PUSH20 0xFFFFFFFFFFFFFFFFFFFFFFFFFFFFFFFFFFFFFFFF AND MUL OR SWAP1 SSTORE POP JUMPDEST PUSH2 0x614 JUMP JUMPDEST PUSH1 0x2 PUSH1 0x0 DUP4 DUP2 MSTORE PUSH1 0x20 ADD SWAP1 DUP2 MSTORE PUSH1 0x20 ADD PUSH1 0x0 KECCAK256 PUSH1 0x1 ADD PUSH1 0x0 DUP3 DUP2 MSTORE PUSH1 0x20 ADD SWAP1 DUP2 MSTORE PUSH1 0x20 ADD PUSH1 0x0 KECCAK256 PUSH1 0x1 DUP2 SLOAD DUP2 LT PUSH2 0x606 JUMPI PUSH2 0x605 PUSH2 0x1C65 JUMP JUMPDEST JUMPDEST SWAP1 PUSH1 0x0 MSTORE PUSH1 0x20 PUSH1 0x0 KECCAK256 ADD SLOAD SWAP1 POP JUMPDEST PUSH2 0x406 JUMP JUMPDEST POP POP JUMP JUMPDEST PUSH1 0x0 DUP2 GT PUSH2 0x660 JUMPI PUSH1 0x40 MLOAD PUSH32 0x8C379A000000000000000000000000000000000000000000000000000000000 DUP2 MSTORE PUSH1 0x4 ADD PUSH2 0x657 SWAP1 PUSH2 0x1924 JUMP JUMPDEST PUSH1 0x40 MLOAD DUP1 SWAP2 SUB SWAP1 REVERT JUMPDEST PUSH1 0x0 PUSH1 0x4 PUSH1 0x0 SWAP1 SLOAD SWAP1 PUSH2 0x100 EXP SWAP1 DIV PUSH20 0xFFFFFFFFFFFFFFFFFFFFFFFFFFFFFFFFFFFFFFFF AND PUSH20 0xFFFFFFFFFFFFFFFFFFFFFFFFFFFFFFFFFFFFFFFF AND PUSH4 0xDD62ED3E CALLER ADDRESS PUSH1 0x40 MLOAD DUP4 PUSH4 0xFFFFFFFF AND PUSH1 0xE0 SHL DUP2 MSTORE PUSH1 0x4 ADD PUSH2 0x6BF SWAP3 SWAP2 SWAP1 PUSH2 0x177F JUMP JUMPDEST PUSH1 0x20 PUSH1 0x40 MLOAD DUP1 DUP4 SUB DUP2 DUP7 DUP1 EXTCODESIZE ISZERO DUP1 ISZERO PUSH2 0x6D7 JUMPI PUSH1 0x0 DUP1 REVERT JUMPDEST POP GAS STATICCALL ISZERO DUP1 ISZERO PUSH2 0x6EB JUMPI RETURNDATASIZE PUSH1 0x0 DUP1 RETURNDATACOPY RETURNDATASIZE PUSH1 0x0 REVERT JUMPDEST POP POP POP POP PUSH1 0x40 MLOAD RETURNDATASIZE PUSH1 0x1F NOT PUSH1 0x1F DUP3 ADD AND DUP3 ADD DUP1 PUSH1 0x40 MSTORE POP DUP2 ADD SWAP1 PUSH2 0x70F SWAP2 SWAP1 PUSH2 0x15C6 JUMP JUMPDEST SWAP1 POP DUP2 DUP2 LT ISZERO PUSH2 0x754 JUMPI PUSH1 0x40 MLOAD PUSH32 0x8C379A000000000000000000000000000000000000000000000000000000000 DUP2 MSTORE PUSH1 0x4 ADD PUSH2 0x74B SWAP1 PUSH2 0x18A4 JUMP JUMPDEST PUSH1 0x40 MLOAD DUP1 SWAP2 SUB SWAP1 REVERT JUMPDEST PUSH1 0x4 PUSH1 0x0 SWAP1 SLOAD SWAP1 PUSH2 0x100 EXP SWAP1 DIV PUSH20 0xFFFFFFFFFFFFFFFFFFFFFFFFFFFFFFFFFFFFFFFF AND PUSH20 0xFFFFFFFFFFFFFFFFFFFFFFFFFFFFFFFFFFFFFFFF AND PUSH4 0x23B872DD CALLER ADDRESS DUP6 PUSH1 0x40 MLOAD DUP5 PUSH4 0xFFFFFFFF AND PUSH1 0xE0 SHL DUP2 MSTORE PUSH1 0x4 ADD PUSH2 0x7B3 SWAP4 SWAP3 SWAP2 SWAP1 PUSH2 0x17A8 JUMP JUMPDEST PUSH1 0x20 PUSH1 0x40 MLOAD DUP1 DUP4 SUB DUP2 PUSH1 0x0 DUP8 DUP1 EXTCODESIZE ISZERO DUP1 ISZERO PUSH2 0x7CD JUMPI PUSH1 0x0 DUP1 REVERT JUMPDEST POP GAS CALL ISZERO DUP1 ISZERO PUSH2 0x7E1 JUMPI RETURNDATASIZE PUSH1 0x0 DUP1 RETURNDATACOPY RETURNDATASIZE PUSH1 0x0 REVERT JUMPDEST POP POP POP POP PUSH1 0x40 MLOAD RETURNDATASIZE PUSH1 0x1F NOT PUSH1 0x1F DUP3 ADD AND DUP3 ADD DUP1 PUSH1 0x40 MSTORE POP DUP2 ADD SWAP1 PUSH2 0x805 SWAP2 SWAP1 PUSH2 0x1462 JUMP JUMPDEST POP CALLER PUSH20 0xFFFFFFFFFFFFFFFFFFFFFFFFFFFFFFFFFFFFFFFF AND PUSH2 0x8FC DUP4 SWAP1 DUP2 ISZERO MUL SWAP1 PUSH1 0x40 MLOAD PUSH1 0x0 PUSH1 0x40 MLOAD DUP1 DUP4 SUB DUP2 DUP6 DUP9 DUP9 CALL SWAP4 POP POP POP POP ISZERO DUP1 ISZERO PUSH2 0x84C JUMPI RETURNDATASIZE PUSH1 0x0 DUP1 RETURNDATACOPY RETURNDATASIZE PUSH1 0x0 REVERT JUMPDEST POP DUP2 PUSH1 0x2 PUSH1 0x0 DUP6 DUP2 MSTORE PUSH1 0x20 ADD SWAP1 DUP2 MSTORE PUSH1 0x20 ADD PUSH1 0x0 KECCAK256 PUSH1 0x3 ADD PUSH1 0x0 DUP3 DUP3 SLOAD PUSH2 0x873 SWAP2 SWAP1 PUSH2 0x1AA4 JUMP JUMPDEST SWAP3 POP POP DUP2 SWAP1 SSTORE POP PUSH1 0x1 PUSH1 0x2 PUSH1 0x0 DUP6 DUP2 MSTORE PUSH1 0x20 ADD SWAP1 DUP2 MSTORE PUSH1 0x20 ADD PUSH1 0x0 KECCAK256 PUSH1 0x4 ADD PUSH1 0x0 PUSH2 0x100 EXP DUP2 SLOAD DUP2 PUSH1 0xFF MUL NOT AND SWAP1 DUP4 ISZERO ISZERO MUL OR SWAP1 SSTORE POP PUSH32 0x21F9BB95EA07D82A536314FD89080112CDA91FC68B6E0A77CED196A3A291E1C9 DUP4 DUP4 PUSH1 0x40 MLOAD PUSH2 0x8DA SWAP3 SWAP2 SWAP1 PUSH2 0x1964 JUMP JUMPDEST PUSH1 0x40 MLOAD DUP1 SWAP2 SUB SWAP1 LOG1 POP POP POP JUMP JUMPDEST PUSH1 0x0 DUP1 PUSH1 0x2 PUSH1 0x0 PUSH1 0x1 SLOAD DUP2 MSTORE PUSH1 0x20 ADD SWAP1 DUP2 MSTORE PUSH1 0x20 ADD PUSH1 0x0 KECCAK256 SWAP1 POP DUP10 DUP2 PUSH1 0x0 ADD DUP2 SWAP1 SSTORE POP DUP4 DUP2 PUSH1 0x5 ADD DUP2 SWAP1 SSTORE POP PUSH1 0x0 JUMPDEST DUP7 DUP2 LT ISZERO PUSH2 0x9C6 JUMPI DUP8 DUP2 DUP2 MLOAD DUP2 LT PUSH2 0x931 JUMPI PUSH2 0x930 PUSH2 0x1C65 JUMP JUMPDEST JUMPDEST PUSH1 0x20 MUL PUSH1 0x20 ADD ADD MLOAD DUP3 PUSH1 0x2 ADD PUSH1 0x0 DUP11 DUP5 DUP2 MLOAD DUP2 LT PUSH2 0x952 JUMPI PUSH2 0x951 PUSH2 0x1C65 JUMP JUMPDEST JUMPDEST PUSH1 0x20 MUL PUSH1 0x20 ADD ADD MLOAD PUSH1 0x0 ADD MLOAD DUP2 MSTORE PUSH1 0x20 ADD SWAP1 DUP2 MSTORE PUSH1 0x20 ADD PUSH1 0x0 KECCAK256 PUSH1 0x0 DUP3 ADD MLOAD DUP2 PUSH1 0x0 ADD SSTORE PUSH1 0x20 DUP3 ADD MLOAD DUP2 PUSH1 0x1 ADD SWAP1 DUP1 MLOAD SWAP1 PUSH1 0x20 ADD SWAP1 PUSH2 0x992 SWAP3 SWAP2 SWAP1 PUSH2 0xEDF JUMP JUMPDEST POP PUSH1 0x40 DUP3 ADD MLOAD DUP2 PUSH1 0x2 ADD SWAP1 DUP1 MLOAD SWAP1 PUSH1 0x20 ADD SWAP1 PUSH2 0x9AF SWAP3 SWAP2 SWAP1 PUSH2 0xF65 JUMP JUMPDEST POP SWAP1 POP POP DUP1 DUP1 PUSH2 0x9BE SWAP1 PUSH2 0x1BBE JUMP JUMPDEST SWAP2 POP POP PUSH2 0x916 JUMP JUMPDEST POP PUSH1 0x0 JUMPDEST DUP6 DUP2 LT ISZERO PUSH2 0xAB2 JUMPI PUSH1 0x0 JUMPDEST DUP7 DUP2 LT ISZERO PUSH2 0xA9E JUMPI PUSH1 0x1 DUP11 DUP4 DUP2 MLOAD DUP2 LT PUSH2 0x9F2 JUMPI PUSH2 0x9F1 PUSH2 0x1C65 JUMP JUMPDEST JUMPDEST PUSH1 0x20 MUL PUSH1 0x20 ADD ADD MLOAD DUP3 DUP2 MLOAD DUP2 LT PUSH2 0xA0C JUMPI PUSH2 0xA0B PUSH2 0x1C65 JUMP JUMPDEST JUMPDEST PUSH1 0x20 MUL PUSH1 0x20 ADD ADD MLOAD EQ ISZERO PUSH2 0xA8B JUMPI DUP3 PUSH1 0x1 ADD PUSH1 0x0 DUP13 DUP5 DUP2 MLOAD DUP2 LT PUSH2 0xA33 JUMPI PUSH2 0xA32 PUSH2 0x1C65 JUMP JUMPDEST JUMPDEST PUSH1 0x20 MUL PUSH1 0x20 ADD ADD MLOAD DUP2 MSTORE PUSH1 0x20 ADD SWAP1 DUP2 MSTORE PUSH1 0x20 ADD PUSH1 0x0 KECCAK256 DUP12 DUP3 DUP2 MLOAD DUP2 LT PUSH2 0xA5C JUMPI PUSH2 0xA5B PUSH2 0x1C65 JUMP JUMPDEST JUMPDEST PUSH1 0x20 MUL PUSH1 0x20 ADD ADD MLOAD SWAP1 DUP1 PUSH1 0x1 DUP2 SLOAD ADD DUP1 DUP3 SSTORE DUP1 SWAP2 POP POP PUSH1 0x1 SWAP1 SUB SWAP1 PUSH1 0x0 MSTORE PUSH1 0x20 PUSH1 0x0 KECCAK256 ADD PUSH1 0x0 SWAP1 SWAP2 SWAP1 SWAP2 SWAP1 SWAP2 POP SSTORE JUMPDEST DUP1 DUP1 PUSH2 0xA96 SWAP1 PUSH2 0x1BBE JUMP JUMPDEST SWAP2 POP POP PUSH2 0x9D5 JUMP JUMPDEST POP DUP1 DUP1 PUSH2 0xAAA SWAP1 PUSH2 0x1BBE JUMP JUMPDEST SWAP2 POP POP PUSH2 0x9CA JUMP JUMPDEST POP PUSH1 0x0 DUP2 PUSH1 0x4 ADD PUSH1 0x0 PUSH2 0x100 EXP DUP2 SLOAD DUP2 PUSH1 0xFF MUL NOT AND SWAP1 DUP4 ISZERO ISZERO MUL OR SWAP1 SSTORE POP PUSH1 0x0 DUP2 PUSH1 0x3 ADD DUP2 SWAP1 SSTORE POP DUP3 DUP2 PUSH1 0x4 ADD PUSH1 0x1 PUSH2 0x100 EXP DUP2 SLOAD DUP2 PUSH20 0xFFFFFFFFFFFFFFFFFFFFFFFFFFFFFFFFFFFFFFFF MUL NOT AND SWAP1 DUP4 PUSH20 0xFFFFFFFFFFFFFFFFFFFFFFFFFFFFFFFFFFFFFFFF AND MUL OR SWAP1 SSTORE POP PUSH1 0x1 PUSH1 0x0 DUP2 SLOAD DUP1 SWAP3 SWAP2 SWAP1 PUSH2 0xB30 SWAP1 PUSH2 0x1BBE JUMP JUMPDEST SWAP2 SWAP1 POP SSTORE POP PUSH1 0x1 SWAP2 POP POP SWAP9 SWAP8 POP POP POP POP POP POP POP POP JUMP JUMPDEST PUSH1 0x0 PUSH2 0xB50 PUSH2 0x2FD JUMP JUMPDEST PUSH20 0xFFFFFFFFFFFFFFFFFFFFFFFFFFFFFFFFFFFFFFFF AND CALLER PUSH20 0xFFFFFFFFFFFFFFFFFFFFFFFFFFFFFFFFFFFFFFFF AND EQ DUP1 PUSH2 0xBEA JUMPI POP PUSH1 0x2 PUSH1 0x0 DUP4 DUP2 MSTORE PUSH1 0x20 ADD SWAP1 DUP2 MSTORE PUSH1 0x20 ADD PUSH1 0x0 KECCAK256 PUSH1 0x4 ADD PUSH1 0x1 SWAP1 SLOAD SWAP1 PUSH2 0x100 EXP SWAP1 DIV PUSH20 0xFFFFFFFFFFFFFFFFFFFFFFFFFFFFFFFFFFFFFFFF AND PUSH20 0xFFFFFFFFFFFFFFFFFFFFFFFFFFFFFFFFFFFFFFFF AND CALLER PUSH20 0xFFFFFFFFFFFFFFFFFFFFFFFFFFFFFFFFFFFFFFFF AND EQ JUMPDEST PUSH2 0xC29 JUMPI PUSH1 0x40 MLOAD PUSH32 0x8C379A000000000000000000000000000000000000000000000000000000000 DUP2 MSTORE PUSH1 0x4 ADD PUSH2 0xC20 SWAP1 PUSH2 0x1944 JUMP JUMPDEST PUSH1 0x40 MLOAD DUP1 SWAP2 SUB SWAP1 REVERT JUMPDEST PUSH1 0x1 ISZERO ISZERO PUSH1 0x2 PUSH1 0x0 DUP5 DUP2 MSTORE PUSH1 0x20 ADD SWAP1 DUP2 MSTORE PUSH1 0x20 ADD PUSH1 0x0 KECCAK256 PUSH1 0x4 ADD PUSH1 0x0 SWAP1 SLOAD SWAP1 PUSH2 0x100 EXP SWAP1 DIV PUSH1 0xFF AND ISZERO ISZERO EQ ISZERO PUSH2 0xC91 JUMPI PUSH1 0x0 PUSH1 0x2 PUSH1 0x0 DUP5 DUP2 MSTORE PUSH1 0x20 ADD SWAP1 DUP2 MSTORE PUSH1 0x20 ADD PUSH1 0x0 KECCAK256 PUSH1 0x4 ADD PUSH1 0x0 PUSH2 0x100 EXP DUP2 SLOAD DUP2 PUSH1 0xFF MUL NOT AND SWAP1 DUP4 ISZERO ISZERO MUL OR SWAP1 SSTORE POP PUSH1 0x1 SWAP1 POP PUSH2 0xC96 JUMP JUMPDEST PUSH1 0x0 SWAP1 POP JUMPDEST SWAP2 SWAP1 POP JUMP JUMPDEST PUSH1 0x2 PUSH1 0x20 MSTORE DUP1 PUSH1 0x0 MSTORE PUSH1 0x40 PUSH1 0x0 KECCAK256 PUSH1 0x0 SWAP2 POP SWAP1 POP DUP1 PUSH1 0x0 ADD SLOAD SWAP1 DUP1 PUSH1 0x3 ADD SLOAD SWAP1 DUP1 PUSH1 0x4 ADD PUSH1 0x0 SWAP1 SLOAD SWAP1 PUSH2 0x100 EXP SWAP1 DIV PUSH1 0xFF AND SWAP1 DUP1 PUSH1 0x4 ADD PUSH1 0x1 SWAP1 SLOAD SWAP1 PUSH2 0x100 EXP SWAP1 DIV PUSH20 0xFFFFFFFFFFFFFFFFFFFFFFFFFFFFFFFFFFFFFFFF AND SWAP1 DUP1 PUSH1 0x4 ADD PUSH1 0x15 SWAP1 SLOAD SWAP1 PUSH2 0x100 EXP SWAP1 DIV PUSH1 0xFF AND SWAP1 DUP1 PUSH1 0x5 ADD SLOAD SWAP1 POP DUP7 JUMP JUMPDEST PUSH2 0xD19 PUSH2 0xD95 JUMP JUMPDEST PUSH1 0x0 PUSH20 0xFFFFFFFFFFFFFFFFFFFFFFFFFFFFFFFFFFFFFFFF AND DUP2 PUSH20 0xFFFFFFFFFFFFFFFFFFFFFFFFFFFFFFFFFFFFFFFF AND EQ ISZERO PUSH2 0xD89 JUMPI PUSH1 0x40 MLOAD PUSH32 0x8C379A000000000000000000000000000000000000000000000000000000000 DUP2 MSTORE PUSH1 0x4 ADD PUSH2 0xD80 SWAP1 PUSH2 0x1884 JUMP JUMPDEST PUSH1 0x40 MLOAD DUP1 SWAP2 SUB SWAP1 REVERT JUMPDEST PUSH2 0xD92 DUP2 PUSH2 0xE13 JUMP JUMPDEST POP JUMP JUMPDEST PUSH2 0xD9D PUSH2 0xED7 JUMP JUMPDEST PUSH20 0xFFFFFFFFFFFFFFFFFFFFFFFFFFFFFFFFFFFFFFFF AND PUSH2 0xDBB PUSH2 0x2FD JUMP JUMPDEST PUSH20 0xFFFFFFFFFFFFFFFFFFFFFFFFFFFFFFFFFFFFFFFF AND EQ PUSH2 0xE11 JUMPI PUSH1 0x40 MLOAD PUSH32 0x8C379A000000000000000000000000000000000000000000000000000000000 DUP2 MSTORE PUSH1 0x4 ADD PUSH2 0xE08 SWAP1 PUSH2 0x1904 JUMP JUMPDEST PUSH1 0x40 MLOAD DUP1 SWAP2 SUB SWAP1 REVERT JUMPDEST JUMP JUMPDEST PUSH1 0x0 DUP1 PUSH1 0x0 SWAP1 SLOAD SWAP1 PUSH2 0x100 EXP SWAP1 DIV PUSH20 0xFFFFFFFFFFFFFFFFFFFFFFFFFFFFFFFFFFFFFFFF AND SWAP1 POP DUP2 PUSH1 0x0 DUP1 PUSH2 0x100 EXP DUP2 SLOAD DUP2 PUSH20 0xFFFFFFFFFFFFFFFFFFFFFFFFFFFFFFFFFFFFFFFF MUL NOT AND SWAP1 DUP4 PUSH20 0xFFFFFFFFFFFFFFFFFFFFFFFFFFFFFFFFFFFFFFFF AND MUL OR SWAP1 SSTORE POP DUP2 PUSH20 0xFFFFFFFFFFFFFFFFFFFFFFFFFFFFFFFFFFFFFFFF AND DUP2 PUSH20 0xFFFFFFFFFFFFFFFFFFFFFFFFFFFFFFFFFFFFFFFF AND PUSH32 0x8BE0079C531659141344CD1FD0A4F28419497F9722A3DAAFE3B4186F6B6457E0 PUSH1 0x40 MLOAD PUSH1 0x40 MLOAD DUP1 SWAP2 SUB SWAP1 LOG3 POP POP JUMP JUMPDEST PUSH1 0x0 CALLER SWAP1 POP SWAP1 JUMP JUMPDEST DUP3 DUP1 SLOAD PUSH2 0xEEB SWAP1 PUSH2 0x1B5B JUMP JUMPDEST SWAP1 PUSH1 0x0 MSTORE PUSH1 0x20 PUSH1 0x0 KECCAK256 SWAP1 PUSH1 0x1F ADD PUSH1 0x20 SWAP1 DIV DUP2 ADD SWAP3 DUP3 PUSH2 0xF0D JUMPI PUSH1 0x0 DUP6 SSTORE PUSH2 0xF54 JUMP JUMPDEST DUP3 PUSH1 0x1F LT PUSH2 0xF26 JUMPI DUP1 MLOAD PUSH1 0xFF NOT AND DUP4 DUP1 ADD OR DUP6 SSTORE PUSH2 0xF54 JUMP JUMPDEST DUP3 DUP1 ADD PUSH1 0x1 ADD DUP6 SSTORE DUP3 ISZERO PUSH2 0xF54 JUMPI SWAP2 DUP3 ADD JUMPDEST DUP3 DUP2 GT ISZERO PUSH2 0xF53 JUMPI DUP3 MLOAD DUP3 SSTORE SWAP2 PUSH1 0x20 ADD SWAP2 SWAP1 PUSH1 0x1 ADD SWAP1 PUSH2 0xF38 JUMP JUMPDEST JUMPDEST POP SWAP1 POP PUSH2 0xF61 SWAP2 SWAP1 PUSH2 0xFEF JUMP JUMPDEST POP SWAP1 JUMP JUMPDEST DUP3 DUP1 SLOAD DUP3 DUP3 SSTORE SWAP1 PUSH1 0x0 MSTORE PUSH1 0x20 PUSH1 0x0 KECCAK256 SWAP1 DUP2 ADD SWAP3 DUP3 ISZERO PUSH2 0xFDE JUMPI SWAP2 PUSH1 0x20 MUL DUP3 ADD JUMPDEST DUP3 DUP2 GT ISZERO PUSH2 0xFDD JUMPI DUP3 MLOAD DUP3 PUSH1 0x0 PUSH2 0x100 EXP DUP2 SLOAD DUP2 PUSH20 0xFFFFFFFFFFFFFFFFFFFFFFFFFFFFFFFFFFFFFFFF MUL NOT AND SWAP1 DUP4 PUSH20 0xFFFFFFFFFFFFFFFFFFFFFFFFFFFFFFFFFFFFFFFF AND MUL OR SWAP1 SSTORE POP SWAP2 PUSH1 0x20 ADD SWAP2 SWAP1 PUSH1 0x1 ADD SWAP1 PUSH2 0xF85 JUMP JUMPDEST JUMPDEST POP SWAP1 POP PUSH2 0xFEB SWAP2 SWAP1 PUSH2 0xFEF JUMP JUMPDEST POP SWAP1 JUMP JUMPDEST JUMPDEST DUP1 DUP3 GT ISZERO PUSH2 0x1008 JUMPI PUSH1 0x0 DUP2 PUSH1 0x0 SWAP1 SSTORE POP PUSH1 0x1 ADD PUSH2 0xFF0 JUMP JUMPDEST POP SWAP1 JUMP JUMPDEST PUSH1 0x0 PUSH2 0x101F PUSH2 0x101A DUP5 PUSH2 0x19B2 JUMP JUMPDEST PUSH2 0x198D JUMP JUMPDEST SWAP1 POP DUP1 DUP4 DUP3 MSTORE PUSH1 0x20 DUP3 ADD SWAP1 POP DUP3 DUP6 PUSH1 0x20 DUP7 MUL DUP3 ADD GT ISZERO PUSH2 0x1042 JUMPI PUSH2 0x1041 PUSH2 0x1CD2 JUMP JUMPDEST JUMPDEST PUSH1 0x0 JUMPDEST DUP6 DUP2 LT ISZERO PUSH2 0x1072 JUMPI DUP2 PUSH2 0x1058 DUP9 DUP3 PUSH2 0x124A JUMP JUMPDEST DUP5 MSTORE PUSH1 0x20 DUP5 ADD SWAP4 POP PUSH1 0x20 DUP4 ADD SWAP3 POP POP PUSH1 0x1 DUP2 ADD SWAP1 POP PUSH2 0x1045 JUMP JUMPDEST POP POP POP SWAP4 SWAP3 POP POP POP JUMP JUMPDEST PUSH1 0x0 PUSH2 0x108F PUSH2 0x108A DUP5 PUSH2 0x19DE JUMP JUMPDEST PUSH2 0x198D JUMP JUMPDEST SWAP1 POP DUP1 DUP4 DUP3 MSTORE PUSH1 0x20 DUP3 ADD SWAP1 POP DUP3 DUP6 PUSH1 0x20 DUP7 MUL DUP3 ADD GT ISZERO PUSH2 0x10B2 JUMPI PUSH2 0x10B1 PUSH2 0x1CD2 JUMP JUMPDEST JUMPDEST PUSH1 0x0 JUMPDEST DUP6 DUP2 LT ISZERO PUSH2 0x1100 JUMPI DUP2 CALLDATALOAD PUSH8 0xFFFFFFFFFFFFFFFF DUP2 GT ISZERO PUSH2 0x10D8 JUMPI PUSH2 0x10D7 PUSH2 0x1CC3 JUMP JUMPDEST JUMPDEST DUP1 DUP7 ADD PUSH2 0x10E5 DUP10 DUP3 PUSH2 0x12E9 JUMP JUMPDEST DUP6 MSTORE PUSH1 0x20 DUP6 ADD SWAP5 POP PUSH1 0x20 DUP5 ADD SWAP4 POP POP POP PUSH1 0x1 DUP2 ADD SWAP1 POP PUSH2 0x10B5 JUMP JUMPDEST POP POP POP SWAP4 SWAP3 POP POP POP JUMP JUMPDEST PUSH1 0x0 PUSH2 0x111D PUSH2 0x1118 DUP5 PUSH2 0x1A0A JUMP JUMPDEST PUSH2 0x198D JUMP JUMPDEST SWAP1 POP DUP1 DUP4 DUP3 MSTORE PUSH1 0x20 DUP3 ADD SWAP1 POP DUP3 DUP6 PUSH1 0x20 DUP7 MUL DUP3 ADD GT ISZERO PUSH2 0x1140 JUMPI PUSH2 0x113F PUSH2 0x1CD2 JUMP JUMPDEST JUMPDEST PUSH1 0x0 JUMPDEST DUP6 DUP2 LT ISZERO PUSH2 0x118E JUMPI DUP2 CALLDATALOAD PUSH8 0xFFFFFFFFFFFFFFFF DUP2 GT ISZERO PUSH2 0x1166 JUMPI PUSH2 0x1165 PUSH2 0x1CC3 JUMP JUMPDEST JUMPDEST DUP1 DUP7 ADD PUSH2 0x1173 DUP10 DUP3 PUSH2 0x136F JUMP JUMPDEST DUP6 MSTORE PUSH1 0x20 DUP6 ADD SWAP5 POP PUSH1 0x20 DUP5 ADD SWAP4 POP POP POP PUSH1 0x1 DUP2 ADD SWAP1 POP PUSH2 0x1143 JUMP JUMPDEST POP POP POP SWAP4 SWAP3 POP POP POP JUMP JUMPDEST PUSH1 0x0 PUSH2 0x11AB PUSH2 0x11A6 DUP5 PUSH2 0x1A36 JUMP JUMPDEST PUSH2 0x198D JUMP JUMPDEST SWAP1 POP DUP1 DUP4 DUP3 MSTORE PUSH1 0x20 DUP3 ADD SWAP1 POP DUP3 DUP6 PUSH1 0x20 DUP7 MUL DUP3 ADD GT ISZERO PUSH2 0x11CE JUMPI PUSH2 0x11CD PUSH2 0x1CD2 JUMP JUMPDEST JUMPDEST PUSH1 0x0 JUMPDEST DUP6 DUP2 LT ISZERO PUSH2 0x11FE JUMPI DUP2 PUSH2 0x11E4 DUP9 DUP3 PUSH2 0x140B JUMP JUMPDEST DUP5 MSTORE PUSH1 0x20 DUP5 ADD SWAP4 POP PUSH1 0x20 DUP4 ADD SWAP3 POP POP PUSH1 0x1 DUP2 ADD SWAP1 POP PUSH2 0x11D1 JUMP JUMPDEST POP POP POP SWAP4 SWAP3 POP POP POP JUMP JUMPDEST PUSH1 0x0 PUSH2 0x121B PUSH2 0x1216 DUP5 PUSH2 0x1A62 JUMP JUMPDEST PUSH2 0x198D JUMP JUMPDEST SWAP1 POP DUP3 DUP2 MSTORE PUSH1 0x20 DUP2 ADD DUP5 DUP5 DUP5 ADD GT ISZERO PUSH2 0x1237 JUMPI PUSH2 0x1236 PUSH2 0x1CD7 JUMP JUMPDEST JUMPDEST PUSH2 0x1242 DUP5 DUP3 DUP6 PUSH2 0x1B4C JUMP JUMPDEST POP SWAP4 SWAP3 POP POP POP JUMP JUMPDEST PUSH1 0x0 DUP2 CALLDATALOAD SWAP1 POP PUSH2 0x1259 DUP2 PUSH2 0x1E62 JUMP JUMPDEST SWAP3 SWAP2 POP POP JUMP JUMPDEST PUSH1 0x0 DUP3 PUSH1 0x1F DUP4 ADD SLT PUSH2 0x1274 JUMPI PUSH2 0x1273 PUSH2 0x1CC3 JUMP JUMPDEST JUMPDEST DUP2 CALLDATALOAD PUSH2 0x1284 DUP5 DUP3 PUSH1 0x20 DUP7 ADD PUSH2 0x100C JUMP JUMPDEST SWAP2 POP POP SWAP3 SWAP2 POP POP JUMP JUMPDEST PUSH1 0x0 DUP3 PUSH1 0x1F DUP4 ADD SLT PUSH2 0x12A2 JUMPI PUSH2 0x12A1 PUSH2 0x1CC3 JUMP JUMPDEST JUMPDEST DUP2 CALLDATALOAD PUSH2 0x12B2 DUP5 DUP3 PUSH1 0x20 DUP7 ADD PUSH2 0x107C JUMP JUMPDEST SWAP2 POP POP SWAP3 SWAP2 POP POP JUMP JUMPDEST PUSH1 0x0 DUP3 PUSH1 0x1F DUP4 ADD SLT PUSH2 0x12D0 JUMPI PUSH2 0x12CF PUSH2 0x1CC3 JUMP JUMPDEST JUMPDEST DUP2 CALLDATALOAD PUSH2 0x12E0 DUP5 DUP3 PUSH1 0x20 DUP7 ADD PUSH2 0x110A JUMP JUMPDEST SWAP2 POP POP SWAP3 SWAP2 POP POP JUMP JUMPDEST PUSH1 0x0 DUP3 PUSH1 0x1F DUP4 ADD SLT PUSH2 0x12FE JUMPI PUSH2 0x12FD PUSH2 0x1CC3 JUMP JUMPDEST JUMPDEST DUP2 CALLDATALOAD PUSH2 0x130E DUP5 DUP3 PUSH1 0x20 DUP7 ADD PUSH2 0x1198 JUMP JUMPDEST SWAP2 POP POP SWAP3 SWAP2 POP POP JUMP JUMPDEST PUSH1 0x0 DUP2 MLOAD SWAP1 POP PUSH2 0x1326 DUP2 PUSH2 0x1E79 JUMP JUMPDEST SWAP3 SWAP2 POP POP JUMP JUMPDEST PUSH1 0x0 DUP2 CALLDATALOAD SWAP1 POP PUSH2 0x133B DUP2 PUSH2 0x1E90 JUMP JUMPDEST SWAP3 SWAP2 POP POP JUMP JUMPDEST PUSH1 0x0 DUP3 PUSH1 0x1F DUP4 ADD SLT PUSH2 0x1356 JUMPI PUSH2 0x1355 PUSH2 0x1CC3 JUMP JUMPDEST JUMPDEST DUP2 CALLDATALOAD PUSH2 0x1366 DUP5 DUP3 PUSH1 0x20 DUP7 ADD PUSH2 0x1208 JUMP JUMPDEST SWAP2 POP POP SWAP3 SWAP2 POP POP JUMP JUMPDEST PUSH1 0x0 PUSH1 0x60 DUP3 DUP5 SUB SLT ISZERO PUSH2 0x1385 JUMPI PUSH2 0x1384 PUSH2 0x1CC8 JUMP JUMPDEST JUMPDEST PUSH2 0x138F PUSH1 0x60 PUSH2 0x198D JUMP JUMPDEST SWAP1 POP PUSH1 0x0 PUSH2 0x139F DUP5 DUP3 DUP6 ADD PUSH2 0x140B JUMP JUMPDEST PUSH1 0x0 DUP4 ADD MSTORE POP PUSH1 0x20 DUP3 ADD CALLDATALOAD PUSH8 0xFFFFFFFFFFFFFFFF DUP2 GT ISZERO PUSH2 0x13C3 JUMPI PUSH2 0x13C2 PUSH2 0x1CCD JUMP JUMPDEST JUMPDEST PUSH2 0x13CF DUP5 DUP3 DUP6 ADD PUSH2 0x1341 JUMP JUMPDEST PUSH1 0x20 DUP4 ADD MSTORE POP PUSH1 0x40 DUP3 ADD CALLDATALOAD PUSH8 0xFFFFFFFFFFFFFFFF DUP2 GT ISZERO PUSH2 0x13F3 JUMPI PUSH2 0x13F2 PUSH2 0x1CCD JUMP JUMPDEST JUMPDEST PUSH2 0x13FF DUP5 DUP3 DUP6 ADD PUSH2 0x125F JUMP JUMPDEST PUSH1 0x40 DUP4 ADD MSTORE POP SWAP3 SWAP2 POP POP JUMP JUMPDEST PUSH1 0x0 DUP2 CALLDATALOAD SWAP1 POP PUSH2 0x141A DUP2 PUSH2 0x1EA7 JUMP JUMPDEST SWAP3 SWAP2 POP POP JUMP JUMPDEST PUSH1 0x0 DUP2 MLOAD SWAP1 POP PUSH2 0x142F DUP2 PUSH2 0x1EA7 JUMP JUMPDEST SWAP3 SWAP2 POP POP JUMP JUMPDEST PUSH1 0x0 PUSH1 0x20 DUP3 DUP5 SUB SLT ISZERO PUSH2 0x144B JUMPI PUSH2 0x144A PUSH2 0x1CE1 JUMP JUMPDEST JUMPDEST PUSH1 0x0 PUSH2 0x1459 DUP5 DUP3 DUP6 ADD PUSH2 0x124A JUMP JUMPDEST SWAP2 POP POP SWAP3 SWAP2 POP POP JUMP JUMPDEST PUSH1 0x0 PUSH1 0x20 DUP3 DUP5 SUB SLT ISZERO PUSH2 0x1478 JUMPI PUSH2 0x1477 PUSH2 0x1CE1 JUMP JUMPDEST JUMPDEST PUSH1 0x0 PUSH2 0x1486 DUP5 DUP3 DUP6 ADD PUSH2 0x1317 JUMP JUMPDEST SWAP2 POP POP SWAP3 SWAP2 POP POP JUMP JUMPDEST PUSH1 0x0 DUP1 PUSH1 0x0 DUP1 PUSH1 0x0 DUP1 PUSH1 0x0 DUP1 PUSH2 0x100 DUP10 DUP12 SUB SLT ISZERO PUSH2 0x14B0 JUMPI PUSH2 0x14AF PUSH2 0x1CE1 JUMP JUMPDEST JUMPDEST PUSH1 0x0 PUSH2 0x14BE DUP12 DUP3 DUP13 ADD PUSH2 0x132C JUMP JUMPDEST SWAP9 POP POP PUSH1 0x20 DUP10 ADD CALLDATALOAD PUSH8 0xFFFFFFFFFFFFFFFF DUP2 GT ISZERO PUSH2 0x14DF JUMPI PUSH2 0x14DE PUSH2 0x1CDC JUMP JUMPDEST JUMPDEST PUSH2 0x14EB DUP12 DUP3 DUP13 ADD PUSH2 0x12E9 JUMP JUMPDEST SWAP8 POP POP PUSH1 0x40 DUP10 ADD CALLDATALOAD PUSH8 0xFFFFFFFFFFFFFFFF DUP2 GT ISZERO PUSH2 0x150C JUMPI PUSH2 0x150B PUSH2 0x1CDC JUMP JUMPDEST JUMPDEST PUSH2 0x1518 DUP12 DUP3 DUP13 ADD PUSH2 0x128D JUMP JUMPDEST SWAP7 POP POP PUSH1 0x60 DUP10 ADD CALLDATALOAD PUSH8 0xFFFFFFFFFFFFFFFF DUP2 GT ISZERO PUSH2 0x1539 JUMPI PUSH2 0x1538 PUSH2 0x1CDC JUMP JUMPDEST JUMPDEST PUSH2 0x1545 DUP12 DUP3 DUP13 ADD PUSH2 0x12BB JUMP JUMPDEST SWAP6 POP POP PUSH1 0x80 PUSH2 0x1556 DUP12 DUP3 DUP13 ADD PUSH2 0x140B JUMP JUMPDEST SWAP5 POP POP PUSH1 0xA0 PUSH2 0x1567 DUP12 DUP3 DUP13 ADD PUSH2 0x140B JUMP JUMPDEST SWAP4 POP POP PUSH1 0xC0 PUSH2 0x1578 DUP12 DUP3 DUP13 ADD PUSH2 0x140B JUMP JUMPDEST SWAP3 POP POP PUSH1 0xE0 PUSH2 0x1589 DUP12 DUP3 DUP13 ADD PUSH2 0x124A JUMP JUMPDEST SWAP2 POP POP SWAP3 SWAP6 SWAP9 POP SWAP3 SWAP6 SWAP9 SWAP1 SWAP4 SWAP7 POP JUMP JUMPDEST PUSH1 0x0 PUSH1 0x20 DUP3 DUP5 SUB SLT ISZERO PUSH2 0x15AF JUMPI PUSH2 0x15AE PUSH2 0x1CE1 JUMP JUMPDEST JUMPDEST PUSH1 0x0 PUSH2 0x15BD DUP5 DUP3 DUP6 ADD PUSH2 0x140B JUMP JUMPDEST SWAP2 POP POP SWAP3 SWAP2 POP POP JUMP JUMPDEST PUSH1 0x0 PUSH1 0x20 DUP3 DUP5 SUB SLT ISZERO PUSH2 0x15DC JUMPI PUSH2 0x15DB PUSH2 0x1CE1 JUMP JUMPDEST JUMPDEST PUSH1 0x0 PUSH2 0x15EA DUP5 DUP3 DUP6 ADD PUSH2 0x1420 JUMP JUMPDEST SWAP2 POP POP SWAP3 SWAP2 POP POP JUMP JUMPDEST PUSH1 0x0 DUP1 PUSH1 0x40 DUP4 DUP6 SUB SLT ISZERO PUSH2 0x160A JUMPI PUSH2 0x1609 PUSH2 0x1CE1 JUMP JUMPDEST JUMPDEST PUSH1 0x0 PUSH2 0x1618 DUP6 DUP3 DUP7 ADD PUSH2 0x140B JUMP JUMPDEST SWAP3 POP POP PUSH1 0x20 PUSH2 0x1629 DUP6 DUP3 DUP7 ADD PUSH2 0x140B JUMP JUMPDEST SWAP2 POP POP SWAP3 POP SWAP3 SWAP1 POP JUMP JUMPDEST PUSH2 0x163C DUP2 PUSH2 0x1AFA JUMP JUMPDEST DUP3 MSTORE POP POP JUMP JUMPDEST PUSH2 0x164B DUP2 PUSH2 0x1B0C JUMP JUMPDEST DUP3 MSTORE POP POP JUMP JUMPDEST PUSH2 0x165A DUP2 PUSH2 0x1B18 JUMP JUMPDEST DUP3 MSTORE POP POP JUMP JUMPDEST PUSH1 0x0 PUSH2 0x166D PUSH1 0x26 DUP4 PUSH2 0x1A93 JUMP JUMPDEST SWAP2 POP PUSH2 0x1678 DUP3 PUSH2 0x1CF7 JUMP JUMPDEST PUSH1 0x40 DUP3 ADD SWAP1 POP SWAP2 SWAP1 POP JUMP JUMPDEST PUSH1 0x0 PUSH2 0x1690 PUSH1 0x12 DUP4 PUSH2 0x1A93 JUMP JUMPDEST SWAP2 POP PUSH2 0x169B DUP3 PUSH2 0x1D46 JUMP JUMPDEST PUSH1 0x20 DUP3 ADD SWAP1 POP SWAP2 SWAP1 POP JUMP JUMPDEST PUSH1 0x0 PUSH2 0x16B3 PUSH1 0x13 DUP4 PUSH2 0x1A93 JUMP JUMPDEST SWAP2 POP PUSH2 0x16BE DUP3 PUSH2 0x1D6F JUMP JUMPDEST PUSH1 0x20 DUP3 ADD SWAP1 POP SWAP2 SWAP1 POP JUMP JUMPDEST PUSH1 0x0 PUSH2 0x16D6 PUSH1 0x21 DUP4 PUSH2 0x1A93 JUMP JUMPDEST SWAP2 POP PUSH2 0x16E1 DUP3 PUSH2 0x1D98 JUMP JUMPDEST PUSH1 0x40 DUP3 ADD SWAP1 POP SWAP2 SWAP1 POP JUMP JUMPDEST PUSH1 0x0 PUSH2 0x16F9 PUSH1 0x20 DUP4 PUSH2 0x1A93 JUMP JUMPDEST SWAP2 POP PUSH2 0x1704 DUP3 PUSH2 0x1DE7 JUMP JUMPDEST PUSH1 0x20 DUP3 ADD SWAP1 POP SWAP2 SWAP1 POP JUMP JUMPDEST PUSH1 0x0 PUSH2 0x171C PUSH1 0x16 DUP4 PUSH2 0x1A93 JUMP JUMPDEST SWAP2 POP PUSH2 0x1727 DUP3 PUSH2 0x1E10 JUMP JUMPDEST PUSH1 0x20 DUP3 ADD SWAP1 POP SWAP2 SWAP1 POP JUMP JUMPDEST PUSH1 0x0 PUSH2 0x173F PUSH1 0x13 DUP4 PUSH2 0x1A93 JUMP JUMPDEST SWAP2 POP PUSH2 0x174A DUP3 PUSH2 0x1E39 JUMP JUMPDEST PUSH1 0x20 DUP3 ADD SWAP1 POP SWAP2 SWAP1 POP JUMP JUMPDEST PUSH2 0x175E DUP2 PUSH2 0x1B42 JUMP JUMPDEST DUP3 MSTORE POP POP JUMP JUMPDEST PUSH1 0x0 PUSH1 0x20 DUP3 ADD SWAP1 POP PUSH2 0x1779 PUSH1 0x0 DUP4 ADD DUP5 PUSH2 0x1633 JUMP JUMPDEST SWAP3 SWAP2 POP POP JUMP JUMPDEST PUSH1 0x0 PUSH1 0x40 DUP3 ADD SWAP1 POP PUSH2 0x1794 PUSH1 0x0 DUP4 ADD DUP6 PUSH2 0x1633 JUMP JUMPDEST PUSH2 0x17A1 PUSH1 0x20 DUP4 ADD DUP5 PUSH2 0x1633 JUMP JUMPDEST SWAP4 SWAP3 POP POP POP JUMP JUMPDEST PUSH1 0x0 PUSH1 0x60 DUP3 ADD SWAP1 POP PUSH2 0x17BD PUSH1 0x0 DUP4 ADD DUP7 PUSH2 0x1633 JUMP JUMPDEST PUSH2 0x17CA PUSH1 0x20 DUP4 ADD DUP6 PUSH2 0x1633 JUMP JUMPDEST PUSH2 0x17D7 PUSH1 0x40 DUP4 ADD DUP5 PUSH2 0x1755 JUMP JUMPDEST SWAP5 SWAP4 POP POP POP POP JUMP JUMPDEST PUSH1 0x0 PUSH1 0x40 DUP3 ADD SWAP1 POP PUSH2 0x17F4 PUSH1 0x0 DUP4 ADD DUP6 PUSH2 0x1633 JUMP JUMPDEST PUSH2 0x1801 PUSH1 0x20 DUP4 ADD DUP5 PUSH2 0x1755 JUMP JUMPDEST SWAP4 SWAP3 POP POP POP JUMP JUMPDEST PUSH1 0x0 PUSH1 0x20 DUP3 ADD SWAP1 POP PUSH2 0x181D PUSH1 0x0 DUP4 ADD DUP5 PUSH2 0x1642 JUMP JUMPDEST SWAP3 SWAP2 POP POP JUMP JUMPDEST PUSH1 0x0 PUSH1 0xC0 DUP3 ADD SWAP1 POP PUSH2 0x1838 PUSH1 0x0 DUP4 ADD DUP10 PUSH2 0x1651 JUMP JUMPDEST PUSH2 0x1845 PUSH1 0x20 DUP4 ADD DUP9 PUSH2 0x1755 JUMP JUMPDEST PUSH2 0x1852 PUSH1 0x40 DUP4 ADD DUP8 PUSH2 0x1642 JUMP JUMPDEST PUSH2 0x185F PUSH1 0x60 DUP4 ADD DUP7 PUSH2 0x1633 JUMP JUMPDEST PUSH2 0x186C PUSH1 0x80 DUP4 ADD DUP6 PUSH2 0x1642 JUMP JUMPDEST PUSH2 0x1879 PUSH1 0xA0 DUP4 ADD DUP5 PUSH2 0x1755 JUMP JUMPDEST SWAP8 SWAP7 POP POP POP POP POP POP POP JUMP JUMPDEST PUSH1 0x0 PUSH1 0x20 DUP3 ADD SWAP1 POP DUP2 DUP2 SUB PUSH1 0x0 DUP4 ADD MSTORE PUSH2 0x189D DUP2 PUSH2 0x1660 JUMP JUMPDEST SWAP1 POP SWAP2 SWAP1 POP JUMP JUMPDEST PUSH1 0x0 PUSH1 0x20 DUP3 ADD SWAP1 POP DUP2 DUP2 SUB PUSH1 0x0 DUP4 ADD MSTORE PUSH2 0x18BD DUP2 PUSH2 0x1683 JUMP JUMPDEST SWAP1 POP SWAP2 SWAP1 POP JUMP JUMPDEST PUSH1 0x0 PUSH1 0x20 DUP3 ADD SWAP1 POP DUP2 DUP2 SUB PUSH1 0x0 DUP4 ADD MSTORE PUSH2 0x18DD DUP2 PUSH2 0x16A6 JUMP JUMPDEST SWAP1 POP SWAP2 SWAP1 POP JUMP JUMPDEST PUSH1 0x0 PUSH1 0x20 DUP3 ADD SWAP1 POP DUP2 DUP2 SUB PUSH1 0x0 DUP4 ADD MSTORE PUSH2 0x18FD DUP2 PUSH2 0x16C9 JUMP JUMPDEST SWAP1 POP SWAP2 SWAP1 POP JUMP JUMPDEST PUSH1 0x0 PUSH1 0x20 DUP3 ADD SWAP1 POP DUP2 DUP2 SUB PUSH1 0x0 DUP4 ADD MSTORE PUSH2 0x191D DUP2 PUSH2 0x16EC JUMP JUMPDEST SWAP1 POP SWAP2 SWAP1 POP JUMP JUMPDEST PUSH1 0x0 PUSH1 0x20 DUP3 ADD SWAP1 POP DUP2 DUP2 SUB PUSH1 0x0 DUP4 ADD MSTORE PUSH2 0x193D DUP2 PUSH2 0x170F JUMP JUMPDEST SWAP1 POP SWAP2 SWAP1 POP JUMP JUMPDEST PUSH1 0x0 PUSH1 0x20 DUP3 ADD SWAP1 POP DUP2 DUP2 SUB PUSH1 0x0 DUP4 ADD MSTORE PUSH2 0x195D DUP2 PUSH2 0x1732 JUMP JUMPDEST SWAP1 POP SWAP2 SWAP1 POP JUMP JUMPDEST PUSH1 0x0 PUSH1 0x40 DUP3 ADD SWAP1 POP PUSH2 0x1979 PUSH1 0x0 DUP4 ADD DUP6 PUSH2 0x1755 JUMP JUMPDEST PUSH2 0x1986 PUSH1 0x20 DUP4 ADD DUP5 PUSH2 0x1755 JUMP JUMPDEST SWAP4 SWAP3 POP POP POP JUMP JUMPDEST PUSH1 0x0 PUSH2 0x1997 PUSH2 0x19A8 JUMP JUMPDEST SWAP1 POP PUSH2 0x19A3 DUP3 DUP3 PUSH2 0x1B8D JUMP JUMPDEST SWAP2 SWAP1 POP JUMP JUMPDEST PUSH1 0x0 PUSH1 0x40 MLOAD SWAP1 POP SWAP1 JUMP JUMPDEST PUSH1 0x0 PUSH8 0xFFFFFFFFFFFFFFFF DUP3 GT ISZERO PUSH2 0x19CD JUMPI PUSH2 0x19CC PUSH2 0x1C94 JUMP JUMPDEST JUMPDEST PUSH1 0x20 DUP3 MUL SWAP1 POP PUSH1 0x20 DUP2 ADD SWAP1 POP SWAP2 SWAP1 POP JUMP JUMPDEST PUSH1 0x0 PUSH8 0xFFFFFFFFFFFFFFFF DUP3 GT ISZERO PUSH2 0x19F9 JUMPI PUSH2 0x19F8 PUSH2 0x1C94 JUMP JUMPDEST JUMPDEST PUSH1 0x20 DUP3 MUL SWAP1 POP PUSH1 0x20 DUP2 ADD SWAP1 POP SWAP2 SWAP1 POP JUMP JUMPDEST PUSH1 0x0 PUSH8 0xFFFFFFFFFFFFFFFF DUP3 GT ISZERO PUSH2 0x1A25 JUMPI PUSH2 0x1A24 PUSH2 0x1C94 JUMP JUMPDEST JUMPDEST PUSH1 0x20 DUP3 MUL SWAP1 POP PUSH1 0x20 DUP2 ADD SWAP1 POP SWAP2 SWAP1 POP JUMP JUMPDEST PUSH1 0x0 PUSH8 0xFFFFFFFFFFFFFFFF DUP3 GT ISZERO PUSH2 0x1A51 JUMPI PUSH2 0x1A50 PUSH2 0x1C94 JUMP JUMPDEST JUMPDEST PUSH1 0x20 DUP3 MUL SWAP1 POP PUSH1 0x20 DUP2 ADD SWAP1 POP SWAP2 SWAP1 POP JUMP JUMPDEST PUSH1 0x0 PUSH8 0xFFFFFFFFFFFFFFFF DUP3 GT ISZERO PUSH2 0x1A7D JUMPI PUSH2 0x1A7C PUSH2 0x1C94 JUMP JUMPDEST JUMPDEST PUSH2 0x1A86 DUP3 PUSH2 0x1CE6 JUMP JUMPDEST SWAP1 POP PUSH1 0x20 DUP2 ADD SWAP1 POP SWAP2 SWAP1 POP JUMP JUMPDEST PUSH1 0x0 DUP3 DUP3 MSTORE PUSH1 0x20 DUP3 ADD SWAP1 POP SWAP3 SWAP2 POP POP JUMP JUMPDEST PUSH1 0x0 PUSH2 0x1AAF DUP3 PUSH2 0x1B42 JUMP JUMPDEST SWAP2 POP PUSH2 0x1ABA DUP4 PUSH2 0x1B42 JUMP JUMPDEST SWAP3 POP DUP3 PUSH32 0xFFFFFFFFFFFFFFFFFFFFFFFFFFFFFFFFFFFFFFFFFFFFFFFFFFFFFFFFFFFFFFFF SUB DUP3 GT ISZERO PUSH2 0x1AEF JUMPI PUSH2 0x1AEE PUSH2 0x1C07 JUMP JUMPDEST JUMPDEST DUP3 DUP3 ADD SWAP1 POP SWAP3 SWAP2 POP POP JUMP JUMPDEST PUSH1 0x0 PUSH2 0x1B05 DUP3 PUSH2 0x1B22 JUMP JUMPDEST SWAP1 POP SWAP2 SWAP1 POP JUMP JUMPDEST PUSH1 0x0 DUP2 ISZERO ISZERO SWAP1 POP SWAP2 SWAP1 POP JUMP JUMPDEST PUSH1 0x0 DUP2 SWAP1 POP SWAP2 SWAP1 POP JUMP JUMPDEST PUSH1 0x0 PUSH20 0xFFFFFFFFFFFFFFFFFFFFFFFFFFFFFFFFFFFFFFFF DUP3 AND SWAP1 POP SWAP2 SWAP1 POP JUMP JUMPDEST PUSH1 0x0 DUP2 SWAP1 POP SWAP2 SWAP1 POP JUMP JUMPDEST DUP3 DUP2 DUP4 CALLDATACOPY PUSH1 0x0 DUP4 DUP4 ADD MSTORE POP POP POP JUMP JUMPDEST PUSH1 0x0 PUSH1 0x2 DUP3 DIV SWAP1 POP PUSH1 0x1 DUP3 AND DUP1 PUSH2 0x1B73 JUMPI PUSH1 0x7F DUP3 AND SWAP2 POP JUMPDEST PUSH1 0x20 DUP3 LT DUP2 EQ ISZERO PUSH2 0x1B87 JUMPI PUSH2 0x1B86 PUSH2 0x1C36 JUMP JUMPDEST JUMPDEST POP SWAP2 SWAP1 POP JUMP JUMPDEST PUSH2 0x1B96 DUP3 PUSH2 0x1CE6 JUMP JUMPDEST DUP2 ADD DUP2 DUP2 LT PUSH8 0xFFFFFFFFFFFFFFFF DUP3 GT OR ISZERO PUSH2 0x1BB5 JUMPI PUSH2 0x1BB4 PUSH2 0x1C94 JUMP JUMPDEST JUMPDEST DUP1 PUSH1 0x40 MSTORE POP POP POP JUMP JUMPDEST PUSH1 0x0 PUSH2 0x1BC9 DUP3 PUSH2 0x1B42 JUMP JUMPDEST SWAP2 POP PUSH32 0xFFFFFFFFFFFFFFFFFFFFFFFFFFFFFFFFFFFFFFFFFFFFFFFFFFFFFFFFFFFFFFFF DUP3 EQ ISZERO PUSH2 0x1BFC JUMPI PUSH2 0x1BFB PUSH2 0x1C07 JUMP JUMPDEST JUMPDEST PUSH1 0x1 DUP3 ADD SWAP1 POP SWAP2 SWAP1 POP JUMP JUMPDEST PUSH32 0x4E487B7100000000000000000000000000000000000000000000000000000000 PUSH1 0x0 MSTORE PUSH1 0x11 PUSH1 0x4 MSTORE PUSH1 0x24 PUSH1 0x0 REVERT JUMPDEST PUSH32 0x4E487B7100000000000000000000000000000000000000000000000000000000 PUSH1 0x0 MSTORE PUSH1 0x22 PUSH1 0x4 MSTORE PUSH1 0x24 PUSH1 0x0 REVERT JUMPDEST PUSH32 0x4E487B7100000000000000000000000000000000000000000000000000000000 PUSH1 0x0 MSTORE PUSH1 0x32 PUSH1 0x4 MSTORE PUSH1 0x24 PUSH1 0x0 REVERT JUMPDEST PUSH32 0x4E487B7100000000000000000000000000000000000000000000000000000000 PUSH1 0x0 MSTORE PUSH1 0x41 PUSH1 0x4 MSTORE PUSH1 0x24 PUSH1 0x0 REVERT JUMPDEST PUSH1 0x0 DUP1 REVERT JUMPDEST PUSH1 0x0 DUP1 REVERT JUMPDEST PUSH1 0x0 DUP1 REVERT JUMPDEST PUSH1 0x0 DUP1 REVERT JUMPDEST PUSH1 0x0 DUP1 REVERT JUMPDEST PUSH1 0x0 DUP1 REVERT JUMPDEST PUSH1 0x0 DUP1 REVERT JUMPDEST PUSH1 0x0 PUSH1 0x1F NOT PUSH1 0x1F DUP4 ADD AND SWAP1 POP SWAP2 SWAP1 POP JUMP JUMPDEST PUSH32 0x4F776E61626C653A206E6577206F776E657220697320746865207A65726F2061 PUSH1 0x0 DUP3 ADD MSTORE PUSH32 0x6464726573730000000000000000000000000000000000000000000000000000 PUSH1 0x20 DUP3 ADD MSTORE POP JUMP JUMPDEST PUSH32 0x416C6C6F77616E6365457863657074696F6E0000000000000000000000000000 PUSH1 0x0 DUP3 ADD MSTORE POP JUMP JUMPDEST PUSH32 0x4A6F62206973206E6F74206F70656E2079657400000000000000000000000000 PUSH1 0x0 DUP3 ADD MSTORE POP JUMP JUMPDEST PUSH32 0x4A6F62206E6F7420616363657074696E67206D6F7265206170706C6963616E74 PUSH1 0x0 DUP3 ADD MSTORE PUSH32 0x7300000000000000000000000000000000000000000000000000000000000000 PUSH1 0x20 DUP3 ADD MSTORE POP JUMP JUMPDEST PUSH32 0x4F776E61626C653A2063616C6C6572206973206E6F7420746865206F776E6572 PUSH1 0x0 DUP3 ADD MSTORE POP JUMP JUMPDEST PUSH32 0x496E76616C6964416D6F756E74457863657074696F6E00000000000000000000 PUSH1 0x0 DUP3 ADD MSTORE POP JUMP JUMPDEST PUSH32 0x556E617574686F72697A656420436C6F73657200000000000000000000000000 PUSH1 0x0 DUP3 ADD MSTORE POP JUMP JUMPDEST PUSH2 0x1E6B DUP2 PUSH2 0x1AFA JUMP JUMPDEST DUP2 EQ PUSH2 0x1E76 JUMPI PUSH1 0x0 DUP1 REVERT JUMPDEST POP JUMP JUMPDEST PUSH2 0x1E82 DUP2 PUSH2 0x1B0C JUMP JUMPDEST DUP2 EQ PUSH2 0x1E8D JUMPI PUSH1 0x0 DUP1 REVERT JUMPDEST POP JUMP JUMPDEST PUSH2 0x1E99 DUP2 PUSH2 0x1B18 JUMP JUMPDEST DUP2 EQ PUSH2 0x1EA4 JUMPI PUSH1 0x0 DUP1 REVERT JUMPDEST POP JUMP JUMPDEST PUSH2 0x1EB0 DUP2 PUSH2 0x1B42 JUMP JUMPDEST DUP2 EQ PUSH2 0x1EBB JUMPI PUSH1 0x0 DUP1 REVERT JUMPDEST POP JUMP INVALID LOG2 PUSH5 0x6970667358 0x22 SLT KECCAK256 0x24 0xC2 DUP5 0xA6 EXP SWAP1 0xE4 0xB2 SWAP8 0xE4 0xBB PUSH6 0x68B4A21C0511 SWAP4 0xE6 BALANCE DUP6 LOG1 MUL STATICCALL INVALID 0xD6 PUSH20 0xFEFAE45864736F6C634300080700330000000000 "
				},
				"gasEstimates": {
					"creation": {
						"codeDepositCost": "1584800",
						"executionCost": "infinite",
						"totalCost": "infinite"
					},
					"external": {
						"all_jobs(uint256)": "infinite",
						"apply_job(uint256)": "infinite",
						"claim_loyalties()": "infinite",
						"close_job(uint256)": "31786",
						"createJob(bytes32,uint256[],uint256[][],(uint256,string,address[])[],uint256,uint256,uint256,address)": "infinite",
						"owner()": "2567",
						"renounceOwnership()": "30421",
						"stake_jou_job(uint256,uint256)": "infinite",
						"transferOwnership(address)": "30835"
					}
				},
				"methodIdentifiers": {
					"all_jobs(uint256)": "effbb95d",
					"apply_job(uint256)": "b5ec25ae",
					"claim_loyalties()": "2d3ced17",
					"close_job(uint256)": "e6d46c8d",
					"createJob(bytes32,uint256[],uint256[][],(uint256,string,address[])[],uint256,uint256,uint256,address)": "d9a4a8f4",
					"owner()": "8da5cb5b",
					"renounceOwnership()": "715018a6",
					"stake_jou_job(uint256,uint256)": "cd3c6e56",
					"transferOwnership(address)": "f2fde38b"
				}
			},
			"storageLayout": {
				"storage": [
					{
						"astId": 7,
						"contract": "contracts/Journal3Jobs.sol:Journal3Jobs",
						"label": "_owner",
						"offset": 0,
						"slot": "0",
						"type": "t_address"
					},
					{
						"astId": 386,
						"contract": "contracts/Journal3Jobs.sol:Journal3Jobs",
						"label": "job_cnt",
						"offset": 0,
						"slot": "1",
						"type": "t_uint256"
					},
					{
						"astId": 391,
						"contract": "contracts/Journal3Jobs.sol:Journal3Jobs",
						"label": "all_jobs",
						"offset": 0,
						"slot": "2",
						"type": "t_mapping(t_uint256,t_struct(Job)382_storage)"
					},
					{
						"astId": 395,
						"contract": "contracts/Journal3Jobs.sol:Journal3Jobs",
						"label": "skill_creator_rewards",
						"offset": 0,
						"slot": "3",
						"type": "t_mapping(t_address,t_uint256)"
					},
					{
						"astId": 404,
						"contract": "contracts/Journal3Jobs.sol:Journal3Jobs",
						"label": "jou",
						"offset": 0,
						"slot": "4",
						"type": "t_contract(IERC20)312"
					},
					{
						"astId": 407,
						"contract": "contracts/Journal3Jobs.sol:Journal3Jobs",
						"label": "skills_repo",
						"offset": 0,
						"slot": "5",
						"type": "t_contract(IERC1155)234"
					}
				],
				"types": {
					"t_address": {
						"encoding": "inplace",
						"label": "address",
						"numberOfBytes": "20"
					},
					"t_array(t_address)dyn_storage": {
						"base": "t_address",
						"encoding": "dynamic_array",
						"label": "address[]",
						"numberOfBytes": "32"
					},
					"t_array(t_uint256)dyn_storage": {
						"base": "t_uint256",
						"encoding": "dynamic_array",
						"label": "uint256[]",
						"numberOfBytes": "32"
					},
					"t_bool": {
						"encoding": "inplace",
						"label": "bool",
						"numberOfBytes": "1"
					},
					"t_bytes32": {
						"encoding": "inplace",
						"label": "bytes32",
						"numberOfBytes": "32"
					},
					"t_contract(IERC1155)234": {
						"encoding": "inplace",
						"label": "contract IERC1155",
						"numberOfBytes": "20"
					},
					"t_contract(IERC20)312": {
						"encoding": "inplace",
						"label": "contract IERC20",
						"numberOfBytes": "20"
					},
					"t_mapping(t_address,t_uint256)": {
						"encoding": "mapping",
						"key": "t_address",
						"label": "mapping(address => uint256)",
						"numberOfBytes": "32",
						"value": "t_uint256"
					},
					"t_mapping(t_uint256,t_array(t_uint256)dyn_storage)": {
						"encoding": "mapping",
						"key": "t_uint256",
						"label": "mapping(uint256 => uint256[])",
						"numberOfBytes": "32",
						"value": "t_array(t_uint256)dyn_storage"
					},
					"t_mapping(t_uint256,t_struct(Checkpoints)359_storage)": {
						"encoding": "mapping",
						"key": "t_uint256",
						"label": "mapping(uint256 => struct Checkpoints)",
						"numberOfBytes": "32",
						"value": "t_struct(Checkpoints)359_storage"
					},
					"t_mapping(t_uint256,t_struct(Job)382_storage)": {
						"encoding": "mapping",
						"key": "t_uint256",
						"label": "mapping(uint256 => struct Job)",
						"numberOfBytes": "32",
						"value": "t_struct(Job)382_storage"
					},
					"t_string_storage": {
						"encoding": "bytes",
						"label": "string",
						"numberOfBytes": "32"
					},
					"t_struct(Checkpoints)359_storage": {
						"encoding": "inplace",
						"label": "struct Checkpoints",
						"members": [
							{
								"astId": 353,
								"contract": "contracts/Journal3Jobs.sol:Journal3Jobs",
								"label": "checkpoint_addr",
								"offset": 0,
								"slot": "0",
								"type": "t_uint256"
							},
							{
								"astId": 355,
								"contract": "contracts/Journal3Jobs.sol:Journal3Jobs",
								"label": "checkpoint_name",
								"offset": 0,
								"slot": "1",
								"type": "t_string_storage"
							},
							{
								"astId": 358,
								"contract": "contracts/Journal3Jobs.sol:Journal3Jobs",
								"label": "candidates",
								"offset": 0,
								"slot": "2",
								"type": "t_array(t_address)dyn_storage"
							}
						],
						"numberOfBytes": "96"
					},
					"t_struct(Job)382_storage": {
						"encoding": "inplace",
						"label": "struct Job",
						"members": [
							{
								"astId": 361,
								"contract": "contracts/Journal3Jobs.sol:Journal3Jobs",
								"label": "metadata_ipfs",
								"offset": 0,
								"slot": "0",
								"type": "t_bytes32"
							},
							{
								"astId": 366,
								"contract": "contracts/Journal3Jobs.sol:Journal3Jobs",
								"label": "qualifications",
								"offset": 0,
								"slot": "1",
								"type": "t_mapping(t_uint256,t_array(t_uint256)dyn_storage)"
							},
							{
								"astId": 371,
								"contract": "contracts/Journal3Jobs.sol:Journal3Jobs",
								"label": "candidate_profiles",
								"offset": 0,
								"slot": "2",
								"type": "t_mapping(t_uint256,t_struct(Checkpoints)359_storage)"
							},
							{
								"astId": 373,
								"contract": "contracts/Journal3Jobs.sol:Journal3Jobs",
								"label": "jou_staked",
								"offset": 0,
								"slot": "3",
								"type": "t_uint256"
							},
							{
								"astId": 375,
								"contract": "contracts/Journal3Jobs.sol:Journal3Jobs",
								"label": "is_active",
								"offset": 0,
								"slot": "4",
								"type": "t_bool"
							},
							{
								"astId": 377,
								"contract": "contracts/Journal3Jobs.sol:Journal3Jobs",
								"label": "closing_indexer",
								"offset": 1,
								"slot": "4",
								"type": "t_address"
							},
							{
								"astId": 379,
								"contract": "contracts/Journal3Jobs.sol:Journal3Jobs",
								"label": "gasless_experience",
								"offset": 21,
								"slot": "4",
								"type": "t_bool"
							},
							{
								"astId": 381,
								"contract": "contracts/Journal3Jobs.sol:Journal3Jobs",
								"label": "root",
								"offset": 0,
								"slot": "5",
								"type": "t_uint256"
							}
						],
						"numberOfBytes": "192"
					},
					"t_uint256": {
						"encoding": "inplace",
						"label": "uint256",
						"numberOfBytes": "32"
					}
				}
			},
			"userdoc": {
				"kind": "user",
				"methods": {},
				"version": 1
			}
		}
	}
}