{
	"contracts/DataOnboarderSigner.sol": {
		"DataOnboarderSigner": {
			"abi": [
				{
					"inputs": [
						{
							"internalType": "string",
							"name": "SIGNING_DOMAIN",
							"type": "string"
						},
						{
							"internalType": "string",
							"name": "SIGNATURE_VERSION",
							"type": "string"
						}
					],
					"stateMutability": "nonpayable",
					"type": "constructor"
				},
				{
					"inputs": [
						{
							"components": [
								{
									"internalType": "string",
									"name": "profile_uid",
									"type": "string"
								},
								{
									"internalType": "string",
									"name": "platform_name",
									"type": "string"
								},
								{
									"internalType": "address",
									"name": "corresponding_pubkey",
									"type": "address"
								},
								{
									"internalType": "bytes",
									"name": "signature",
									"type": "bytes"
								}
							],
							"internalType": "struct DataOnboarderSigner.DataSourceLink",
							"name": "result",
							"type": "tuple"
						}
					],
					"name": "getSigner",
					"outputs": [
						{
							"internalType": "address",
							"name": "",
							"type": "address"
						}
					],
					"stateMutability": "view",
					"type": "function"
				}
			],
			"devdoc": {
				"kind": "dev",
				"methods": {},
				"version": 1
			},
			"evm": {
				"assembly": "    /* \"contracts/DataOnboarderSigner.sol\":147:1334  contract DataOnboarderSigner is EIP712{\r... */\n  mstore(0x40, 0x0140)\n    /* \"contracts/DataOnboarderSigner.sol\":360:493  constructor(string memory SIGNING_DOMAIN,string memory SIGNATURE_VERSION) EIP712(SIGNING_DOMAIN, SIGNATURE_VERSION){\r... */\n  callvalue\n  dup1\n  iszero\n  tag_1\n  jumpi\n  0x00\n  dup1\n  revert\ntag_1:\n  pop\n  mload(0x40)\n  sub(codesize, bytecodeSize)\n  dup1\n  bytecodeSize\n  dup4\n  codecopy\n  dup2\n  dup2\n  add\n  0x40\n  mstore\n  dup2\n  add\n  swap1\n  tag_2\n  swap2\n  swap1\n  tag_3\n  jump\t// in\ntag_2:\n    /* \"contracts/DataOnboarderSigner.sol\":441:455  SIGNING_DOMAIN */\n  dup2\n    /* \"contracts/DataOnboarderSigner.sol\":457:474  SIGNATURE_VERSION */\n  dup2\n    /* \"@openzeppelin/contracts/utils/cryptography/EIP712.sol\":2529:2547  bytes32 hashedName */\n  0x00\n    /* \"@openzeppelin/contracts/utils/cryptography/EIP712.sol\":2566:2570  name */\n  dup3\n    /* \"@openzeppelin/contracts/utils/cryptography/EIP712.sol\":2550:2572  keccak256(bytes(name)) */\n  dup1\n  mload\n  swap1\n  0x20\n  add\n  keccak256\n    /* \"@openzeppelin/contracts/utils/cryptography/EIP712.sol\":2529:2572  bytes32 hashedName = keccak256(bytes(name)) */\n  swap1\n  pop\n    /* \"@openzeppelin/contracts/utils/cryptography/EIP712.sol\":2582:2603  bytes32 hashedVersion */\n  0x00\n    /* \"@openzeppelin/contracts/utils/cryptography/EIP712.sol\":2622:2629  version */\n  dup3\n    /* \"@openzeppelin/contracts/utils/cryptography/EIP712.sol\":2606:2631  keccak256(bytes(version)) */\n  dup1\n  mload\n  swap1\n  0x20\n  add\n  keccak256\n    /* \"@openzeppelin/contracts/utils/cryptography/EIP712.sol\":2582:2631  bytes32 hashedVersion = keccak256(bytes(version)) */\n  swap1\n  pop\n    /* \"@openzeppelin/contracts/utils/cryptography/EIP712.sol\":2641:2657  bytes32 typeHash */\n  0x00\n    /* \"@openzeppelin/contracts/utils/cryptography/EIP712.sol\":2660:2777  keccak256(... */\n  0x8b73c3c69bb8fe3d512ecc4cf759cc79239f7b179b0ffacaa9a75d522b39400f\n    /* \"@openzeppelin/contracts/utils/cryptography/EIP712.sol\":2641:2777  bytes32 typeHash = keccak256(... */\n  swap1\n  pop\n    /* \"@openzeppelin/contracts/utils/cryptography/EIP712.sol\":2802:2812  hashedName */\n  dup3\n    /* \"@openzeppelin/contracts/utils/cryptography/EIP712.sol\":2787:2812  _HASHED_NAME = hashedName */\n  0xe0\n  dup2\n  dup2\n  mstore\n  pop\n  pop\n    /* \"@openzeppelin/contracts/utils/cryptography/EIP712.sol\":2840:2853  hashedVersion */\n  dup2\n    /* \"@openzeppelin/contracts/utils/cryptography/EIP712.sol\":2822:2853  _HASHED_VERSION = hashedVersion */\n  0x0100\n  dup2\n  dup2\n  mstore\n  pop\n  pop\n    /* \"@openzeppelin/contracts/utils/cryptography/EIP712.sol\":2882:2895  block.chainid */\n  chainid\n    /* \"@openzeppelin/contracts/utils/cryptography/EIP712.sol\":2863:2895  _CACHED_CHAIN_ID = block.chainid */\n  0xa0\n  dup2\n  dup2\n  mstore\n  pop\n  pop\n    /* \"@openzeppelin/contracts/utils/cryptography/EIP712.sol\":2932:2990  _buildDomainSeparator(typeHash, hashedName, hashedVersion) */\n  tag_7\n    /* \"@openzeppelin/contracts/utils/cryptography/EIP712.sol\":2954:2962  typeHash */\n  dup2\n    /* \"@openzeppelin/contracts/utils/cryptography/EIP712.sol\":2964:2974  hashedName */\n  dup5\n    /* \"@openzeppelin/contracts/utils/cryptography/EIP712.sol\":2976:2989  hashedVersion */\n  dup5\n    /* \"@openzeppelin/contracts/utils/cryptography/EIP712.sol\":2932:2953  _buildDomainSeparator */\n  shl(0x20, tag_8)\n    /* \"@openzeppelin/contracts/utils/cryptography/EIP712.sol\":2932:2990  _buildDomainSeparator(typeHash, hashedName, hashedVersion) */\n  0x20\n  shr\n  jump\t// in\ntag_7:\n    /* \"@openzeppelin/contracts/utils/cryptography/EIP712.sol\":2905:2990  _CACHED_DOMAIN_SEPARATOR = _buildDomainSeparator(typeHash, hashedName, hashedVersion) */\n  0x80\n  dup2\n  dup2\n  mstore\n  pop\n  pop\n    /* \"@openzeppelin/contracts/utils/cryptography/EIP712.sol\":3023:3027  this */\n  address\n    /* \"@openzeppelin/contracts/utils/cryptography/EIP712.sol\":3000:3028  _CACHED_THIS = address(this) */\n  0xffffffffffffffffffffffffffffffffffffffff\n  and\n  0xc0\n  dup2\n  0xffffffffffffffffffffffffffffffffffffffff\n  and\n  0x60\n  shl\n  dup2\n  mstore\n  pop\n  pop\n    /* \"@openzeppelin/contracts/utils/cryptography/EIP712.sol\":3051:3059  typeHash */\n  dup1\n    /* \"@openzeppelin/contracts/utils/cryptography/EIP712.sol\":3038:3059  _TYPE_HASH = typeHash */\n  0x0120\n  dup2\n  dup2\n  mstore\n  pop\n  pop\n    /* \"@openzeppelin/contracts/utils/cryptography/EIP712.sol\":2519:3066  {... */\n  pop\n  pop\n  pop\n    /* \"@openzeppelin/contracts/utils/cryptography/EIP712.sol\":2464:3066  constructor(string memory name, string memory version) {... */\n  pop\n  pop\n    /* \"contracts/DataOnboarderSigner.sol\":360:493  constructor(string memory SIGNING_DOMAIN,string memory SIGNATURE_VERSION) EIP712(SIGNING_DOMAIN, SIGNATURE_VERSION){\r... */\n  pop\n  pop\n    /* \"contracts/DataOnboarderSigner.sol\":147:1334  contract DataOnboarderSigner is EIP712{\r... */\n  jump(tag_10)\n    /* \"@openzeppelin/contracts/utils/cryptography/EIP712.sol\":3466:3723  function _buildDomainSeparator(... */\ntag_8:\n    /* \"@openzeppelin/contracts/utils/cryptography/EIP712.sol\":3606:3613  bytes32 */\n  0x00\n    /* \"@openzeppelin/contracts/utils/cryptography/EIP712.sol\":3653:3661  typeHash */\n  dup4\n    /* \"@openzeppelin/contracts/utils/cryptography/EIP712.sol\":3663:3671  nameHash */\n  dup4\n    /* \"@openzeppelin/contracts/utils/cryptography/EIP712.sol\":3673:3684  versionHash */\n  dup4\n    /* \"@openzeppelin/contracts/utils/cryptography/EIP712.sol\":3686:3699  block.chainid */\n  chainid\n    /* \"@openzeppelin/contracts/utils/cryptography/EIP712.sol\":3709:3713  this */\n  address\n    /* \"@openzeppelin/contracts/utils/cryptography/EIP712.sol\":3642:3715  abi.encode(typeHash, nameHash, versionHash, block.chainid, address(this)) */\n  add(0x20, mload(0x40))\n  tag_12\n  swap6\n  swap5\n  swap4\n  swap3\n  swap2\n  swap1\n  tag_13\n  jump\t// in\ntag_12:\n  mload(0x40)\n  0x20\n  dup2\n  dup4\n  sub\n  sub\n  dup2\n  mstore\n  swap1\n  0x40\n  mstore\n    /* \"@openzeppelin/contracts/utils/cryptography/EIP712.sol\":3632:3716  keccak256(abi.encode(typeHash, nameHash, versionHash, block.chainid, address(this))) */\n  dup1\n  mload\n  swap1\n  0x20\n  add\n  keccak256\n    /* \"@openzeppelin/contracts/utils/cryptography/EIP712.sol\":3625:3716  return keccak256(abi.encode(typeHash, nameHash, versionHash, block.chainid, address(this))) */\n  swap1\n  pop\n    /* \"@openzeppelin/contracts/utils/cryptography/EIP712.sol\":3466:3723  function _buildDomainSeparator(... */\n  swap4\n  swap3\n  pop\n  pop\n  pop\n  jump\t// out\n    /* \"#utility.yul\":7:428   */\ntag_15:\n    /* \"#utility.yul\":96:101   */\n  0x00\n    /* \"#utility.yul\":121:187   */\n  tag_17\n    /* \"#utility.yul\":137:186   */\n  tag_18\n    /* \"#utility.yul\":179:185   */\n  dup5\n    /* \"#utility.yul\":137:186   */\n  tag_19\n  jump\t// in\ntag_18:\n    /* \"#utility.yul\":121:187   */\n  tag_20\n  jump\t// in\ntag_17:\n    /* \"#utility.yul\":112:187   */\n  swap1\n  pop\n    /* \"#utility.yul\":210:216   */\n  dup3\n    /* \"#utility.yul\":203:208   */\n  dup2\n    /* \"#utility.yul\":196:217   */\n  mstore\n    /* \"#utility.yul\":248:252   */\n  0x20\n    /* \"#utility.yul\":241:246   */\n  dup2\n    /* \"#utility.yul\":237:253   */\n  add\n    /* \"#utility.yul\":286:289   */\n  dup5\n    /* \"#utility.yul\":277:283   */\n  dup5\n    /* \"#utility.yul\":272:275   */\n  dup5\n    /* \"#utility.yul\":268:284   */\n  add\n    /* \"#utility.yul\":265:290   */\n  gt\n    /* \"#utility.yul\":262:374   */\n  iszero\n  tag_21\n  jumpi\n    /* \"#utility.yul\":293:372   */\n  tag_22\n  tag_23\n  jump\t// in\ntag_22:\n    /* \"#utility.yul\":262:374   */\ntag_21:\n    /* \"#utility.yul\":383:422   */\n  tag_24\n    /* \"#utility.yul\":415:421   */\n  dup5\n    /* \"#utility.yul\":410:413   */\n  dup3\n    /* \"#utility.yul\":405:408   */\n  dup6\n    /* \"#utility.yul\":383:422   */\n  tag_25\n  jump\t// in\ntag_24:\n    /* \"#utility.yul\":102:428   */\n  pop\n    /* \"#utility.yul\":7:428   */\n  swap4\n  swap3\n  pop\n  pop\n  pop\n  jump\t// out\n    /* \"#utility.yul\":448:803   */\ntag_26:\n    /* \"#utility.yul\":515:520   */\n  0x00\n    /* \"#utility.yul\":564:567   */\n  dup3\n    /* \"#utility.yul\":557:561   */\n  0x1f\n    /* \"#utility.yul\":549:555   */\n  dup4\n    /* \"#utility.yul\":545:562   */\n  add\n    /* \"#utility.yul\":541:568   */\n  slt\n    /* \"#utility.yul\":531:653   */\n  tag_28\n  jumpi\n    /* \"#utility.yul\":572:651   */\n  tag_29\n  tag_30\n  jump\t// in\ntag_29:\n    /* \"#utility.yul\":531:653   */\ntag_28:\n    /* \"#utility.yul\":682:688   */\n  dup2\n    /* \"#utility.yul\":676:689   */\n  mload\n    /* \"#utility.yul\":707:797   */\n  tag_31\n    /* \"#utility.yul\":793:796   */\n  dup5\n    /* \"#utility.yul\":785:791   */\n  dup3\n    /* \"#utility.yul\":778:782   */\n  0x20\n    /* \"#utility.yul\":770:776   */\n  dup7\n    /* \"#utility.yul\":766:783   */\n  add\n    /* \"#utility.yul\":707:797   */\n  tag_15\n  jump\t// in\ntag_31:\n    /* \"#utility.yul\":698:797   */\n  swap2\n  pop\n    /* \"#utility.yul\":521:803   */\n  pop\n    /* \"#utility.yul\":448:803   */\n  swap3\n  swap2\n  pop\n  pop\n  jump\t// out\n    /* \"#utility.yul\":809:1662   */\ntag_3:\n    /* \"#utility.yul\":908:914   */\n  0x00\n    /* \"#utility.yul\":916:922   */\n  dup1\n    /* \"#utility.yul\":965:967   */\n  0x40\n    /* \"#utility.yul\":953:962   */\n  dup4\n    /* \"#utility.yul\":944:951   */\n  dup6\n    /* \"#utility.yul\":940:963   */\n  sub\n    /* \"#utility.yul\":936:968   */\n  slt\n    /* \"#utility.yul\":933:1052   */\n  iszero\n  tag_33\n  jumpi\n    /* \"#utility.yul\":971:1050   */\n  tag_34\n  tag_35\n  jump\t// in\ntag_34:\n    /* \"#utility.yul\":933:1052   */\ntag_33:\n    /* \"#utility.yul\":1112:1113   */\n  0x00\n    /* \"#utility.yul\":1101:1110   */\n  dup4\n    /* \"#utility.yul\":1097:1114   */\n  add\n    /* \"#utility.yul\":1091:1115   */\n  mload\n    /* \"#utility.yul\":1142:1160   */\n  0xffffffffffffffff\n    /* \"#utility.yul\":1134:1140   */\n  dup2\n    /* \"#utility.yul\":1131:1161   */\n  gt\n    /* \"#utility.yul\":1128:1245   */\n  iszero\n  tag_36\n  jumpi\n    /* \"#utility.yul\":1164:1243   */\n  tag_37\n  tag_38\n  jump\t// in\ntag_37:\n    /* \"#utility.yul\":1128:1245   */\ntag_36:\n    /* \"#utility.yul\":1269:1343   */\n  tag_39\n    /* \"#utility.yul\":1335:1342   */\n  dup6\n    /* \"#utility.yul\":1326:1332   */\n  dup3\n    /* \"#utility.yul\":1315:1324   */\n  dup7\n    /* \"#utility.yul\":1311:1333   */\n  add\n    /* \"#utility.yul\":1269:1343   */\n  tag_26\n  jump\t// in\ntag_39:\n    /* \"#utility.yul\":1259:1343   */\n  swap3\n  pop\n    /* \"#utility.yul\":1062:1353   */\n  pop\n    /* \"#utility.yul\":1413:1415   */\n  0x20\n    /* \"#utility.yul\":1402:1411   */\n  dup4\n    /* \"#utility.yul\":1398:1416   */\n  add\n    /* \"#utility.yul\":1392:1417   */\n  mload\n    /* \"#utility.yul\":1444:1462   */\n  0xffffffffffffffff\n    /* \"#utility.yul\":1436:1442   */\n  dup2\n    /* \"#utility.yul\":1433:1463   */\n  gt\n    /* \"#utility.yul\":1430:1547   */\n  iszero\n  tag_40\n  jumpi\n    /* \"#utility.yul\":1466:1545   */\n  tag_41\n  tag_38\n  jump\t// in\ntag_41:\n    /* \"#utility.yul\":1430:1547   */\ntag_40:\n    /* \"#utility.yul\":1571:1645   */\n  tag_42\n    /* \"#utility.yul\":1637:1644   */\n  dup6\n    /* \"#utility.yul\":1628:1634   */\n  dup3\n    /* \"#utility.yul\":1617:1626   */\n  dup7\n    /* \"#utility.yul\":1613:1635   */\n  add\n    /* \"#utility.yul\":1571:1645   */\n  tag_26\n  jump\t// in\ntag_42:\n    /* \"#utility.yul\":1561:1645   */\n  swap2\n  pop\n    /* \"#utility.yul\":1363:1655   */\n  pop\n    /* \"#utility.yul\":809:1662   */\n  swap3\n  pop\n  swap3\n  swap1\n  pop\n  jump\t// out\n    /* \"#utility.yul\":1668:1786   */\ntag_43:\n    /* \"#utility.yul\":1755:1779   */\n  tag_45\n    /* \"#utility.yul\":1773:1778   */\n  dup2\n    /* \"#utility.yul\":1755:1779   */\n  tag_46\n  jump\t// in\ntag_45:\n    /* \"#utility.yul\":1750:1753   */\n  dup3\n    /* \"#utility.yul\":1743:1780   */\n  mstore\n    /* \"#utility.yul\":1668:1786   */\n  pop\n  pop\n  jump\t// out\n    /* \"#utility.yul\":1792:1910   */\ntag_47:\n    /* \"#utility.yul\":1879:1903   */\n  tag_49\n    /* \"#utility.yul\":1897:1902   */\n  dup2\n    /* \"#utility.yul\":1879:1903   */\n  tag_50\n  jump\t// in\ntag_49:\n    /* \"#utility.yul\":1874:1877   */\n  dup3\n    /* \"#utility.yul\":1867:1904   */\n  mstore\n    /* \"#utility.yul\":1792:1910   */\n  pop\n  pop\n  jump\t// out\n    /* \"#utility.yul\":1916:2034   */\ntag_51:\n    /* \"#utility.yul\":2003:2027   */\n  tag_53\n    /* \"#utility.yul\":2021:2026   */\n  dup2\n    /* \"#utility.yul\":2003:2027   */\n  tag_54\n  jump\t// in\ntag_53:\n    /* \"#utility.yul\":1998:2001   */\n  dup3\n    /* \"#utility.yul\":1991:2028   */\n  mstore\n    /* \"#utility.yul\":1916:2034   */\n  pop\n  pop\n  jump\t// out\n    /* \"#utility.yul\":2040:2704   */\ntag_13:\n    /* \"#utility.yul\":2245:2249   */\n  0x00\n    /* \"#utility.yul\":2283:2286   */\n  0xa0\n    /* \"#utility.yul\":2272:2281   */\n  dup3\n    /* \"#utility.yul\":2268:2287   */\n  add\n    /* \"#utility.yul\":2260:2287   */\n  swap1\n  pop\n    /* \"#utility.yul\":2297:2368   */\n  tag_56\n    /* \"#utility.yul\":2365:2366   */\n  0x00\n    /* \"#utility.yul\":2354:2363   */\n  dup4\n    /* \"#utility.yul\":2350:2367   */\n  add\n    /* \"#utility.yul\":2341:2347   */\n  dup9\n    /* \"#utility.yul\":2297:2368   */\n  tag_47\n  jump\t// in\ntag_56:\n    /* \"#utility.yul\":2378:2450   */\n  tag_57\n    /* \"#utility.yul\":2446:2448   */\n  0x20\n    /* \"#utility.yul\":2435:2444   */\n  dup4\n    /* \"#utility.yul\":2431:2449   */\n  add\n    /* \"#utility.yul\":2422:2428   */\n  dup8\n    /* \"#utility.yul\":2378:2450   */\n  tag_47\n  jump\t// in\ntag_57:\n    /* \"#utility.yul\":2460:2532   */\n  tag_58\n    /* \"#utility.yul\":2528:2530   */\n  0x40\n    /* \"#utility.yul\":2517:2526   */\n  dup4\n    /* \"#utility.yul\":2513:2531   */\n  add\n    /* \"#utility.yul\":2504:2510   */\n  dup7\n    /* \"#utility.yul\":2460:2532   */\n  tag_47\n  jump\t// in\ntag_58:\n    /* \"#utility.yul\":2542:2614   */\n  tag_59\n    /* \"#utility.yul\":2610:2612   */\n  0x60\n    /* \"#utility.yul\":2599:2608   */\n  dup4\n    /* \"#utility.yul\":2595:2613   */\n  add\n    /* \"#utility.yul\":2586:2592   */\n  dup6\n    /* \"#utility.yul\":2542:2614   */\n  tag_51\n  jump\t// in\ntag_59:\n    /* \"#utility.yul\":2624:2697   */\n  tag_60\n    /* \"#utility.yul\":2692:2695   */\n  0x80\n    /* \"#utility.yul\":2681:2690   */\n  dup4\n    /* \"#utility.yul\":2677:2696   */\n  add\n    /* \"#utility.yul\":2668:2674   */\n  dup5\n    /* \"#utility.yul\":2624:2697   */\n  tag_43\n  jump\t// in\ntag_60:\n    /* \"#utility.yul\":2040:2704   */\n  swap7\n  swap6\n  pop\n  pop\n  pop\n  pop\n  pop\n  pop\n  jump\t// out\n    /* \"#utility.yul\":2710:2839   */\ntag_20:\n    /* \"#utility.yul\":2744:2750   */\n  0x00\n    /* \"#utility.yul\":2771:2791   */\n  tag_62\n  tag_63\n  jump\t// in\ntag_62:\n    /* \"#utility.yul\":2761:2791   */\n  swap1\n  pop\n    /* \"#utility.yul\":2800:2833   */\n  tag_64\n    /* \"#utility.yul\":2828:2832   */\n  dup3\n    /* \"#utility.yul\":2820:2826   */\n  dup3\n    /* \"#utility.yul\":2800:2833   */\n  tag_65\n  jump\t// in\ntag_64:\n    /* \"#utility.yul\":2710:2839   */\n  swap2\n  swap1\n  pop\n  jump\t// out\n    /* \"#utility.yul\":2845:2920   */\ntag_63:\n    /* \"#utility.yul\":2878:2884   */\n  0x00\n    /* \"#utility.yul\":2911:2913   */\n  0x40\n    /* \"#utility.yul\":2905:2914   */\n  mload\n    /* \"#utility.yul\":2895:2914   */\n  swap1\n  pop\n    /* \"#utility.yul\":2845:2920   */\n  swap1\n  jump\t// out\n    /* \"#utility.yul\":2926:3234   */\ntag_19:\n    /* \"#utility.yul\":2988:2992   */\n  0x00\n    /* \"#utility.yul\":3078:3096   */\n  0xffffffffffffffff\n    /* \"#utility.yul\":3070:3076   */\n  dup3\n    /* \"#utility.yul\":3067:3097   */\n  gt\n    /* \"#utility.yul\":3064:3120   */\n  iszero\n  tag_68\n  jumpi\n    /* \"#utility.yul\":3100:3118   */\n  tag_69\n  tag_70\n  jump\t// in\ntag_69:\n    /* \"#utility.yul\":3064:3120   */\ntag_68:\n    /* \"#utility.yul\":3138:3167   */\n  tag_71\n    /* \"#utility.yul\":3160:3166   */\n  dup3\n    /* \"#utility.yul\":3138:3167   */\n  tag_72\n  jump\t// in\ntag_71:\n    /* \"#utility.yul\":3130:3167   */\n  swap1\n  pop\n    /* \"#utility.yul\":3222:3226   */\n  0x20\n    /* \"#utility.yul\":3216:3220   */\n  dup2\n    /* \"#utility.yul\":3212:3227   */\n  add\n    /* \"#utility.yul\":3204:3227   */\n  swap1\n  pop\n    /* \"#utility.yul\":2926:3234   */\n  swap2\n  swap1\n  pop\n  jump\t// out\n    /* \"#utility.yul\":3240:3336   */\ntag_46:\n    /* \"#utility.yul\":3277:3284   */\n  0x00\n    /* \"#utility.yul\":3306:3330   */\n  tag_74\n    /* \"#utility.yul\":3324:3329   */\n  dup3\n    /* \"#utility.yul\":3306:3330   */\n  tag_75\n  jump\t// in\ntag_74:\n    /* \"#utility.yul\":3295:3330   */\n  swap1\n  pop\n    /* \"#utility.yul\":3240:3336   */\n  swap2\n  swap1\n  pop\n  jump\t// out\n    /* \"#utility.yul\":3342:3419   */\ntag_50:\n    /* \"#utility.yul\":3379:3386   */\n  0x00\n    /* \"#utility.yul\":3408:3413   */\n  dup2\n    /* \"#utility.yul\":3397:3413   */\n  swap1\n  pop\n    /* \"#utility.yul\":3342:3419   */\n  swap2\n  swap1\n  pop\n  jump\t// out\n    /* \"#utility.yul\":3425:3551   */\ntag_75:\n    /* \"#utility.yul\":3462:3469   */\n  0x00\n    /* \"#utility.yul\":3502:3544   */\n  0xffffffffffffffffffffffffffffffffffffffff\n    /* \"#utility.yul\":3495:3500   */\n  dup3\n    /* \"#utility.yul\":3491:3545   */\n  and\n    /* \"#utility.yul\":3480:3545   */\n  swap1\n  pop\n    /* \"#utility.yul\":3425:3551   */\n  swap2\n  swap1\n  pop\n  jump\t// out\n    /* \"#utility.yul\":3557:3634   */\ntag_54:\n    /* \"#utility.yul\":3594:3601   */\n  0x00\n    /* \"#utility.yul\":3623:3628   */\n  dup2\n    /* \"#utility.yul\":3612:3628   */\n  swap1\n  pop\n    /* \"#utility.yul\":3557:3634   */\n  swap2\n  swap1\n  pop\n  jump\t// out\n    /* \"#utility.yul\":3640:3947   */\ntag_25:\n    /* \"#utility.yul\":3708:3709   */\n  0x00\n    /* \"#utility.yul\":3718:3831   */\ntag_80:\n    /* \"#utility.yul\":3732:3738   */\n  dup4\n    /* \"#utility.yul\":3729:3730   */\n  dup2\n    /* \"#utility.yul\":3726:3739   */\n  lt\n    /* \"#utility.yul\":3718:3831   */\n  iszero\n  tag_82\n  jumpi\n    /* \"#utility.yul\":3817:3818   */\n  dup1\n    /* \"#utility.yul\":3812:3815   */\n  dup3\n    /* \"#utility.yul\":3808:3819   */\n  add\n    /* \"#utility.yul\":3802:3820   */\n  mload\n    /* \"#utility.yul\":3798:3799   */\n  dup2\n    /* \"#utility.yul\":3793:3796   */\n  dup5\n    /* \"#utility.yul\":3789:3800   */\n  add\n    /* \"#utility.yul\":3782:3821   */\n  mstore\n    /* \"#utility.yul\":3754:3756   */\n  0x20\n    /* \"#utility.yul\":3751:3752   */\n  dup2\n    /* \"#utility.yul\":3747:3757   */\n  add\n    /* \"#utility.yul\":3742:3757   */\n  swap1\n  pop\n    /* \"#utility.yul\":3718:3831   */\n  jump(tag_80)\ntag_82:\n    /* \"#utility.yul\":3849:3855   */\n  dup4\n    /* \"#utility.yul\":3846:3847   */\n  dup2\n    /* \"#utility.yul\":3843:3856   */\n  gt\n    /* \"#utility.yul\":3840:3941   */\n  iszero\n  tag_83\n  jumpi\n    /* \"#utility.yul\":3929:3930   */\n  0x00\n    /* \"#utility.yul\":3920:3926   */\n  dup5\n    /* \"#utility.yul\":3915:3918   */\n  dup5\n    /* \"#utility.yul\":3911:3927   */\n  add\n    /* \"#utility.yul\":3904:3931   */\n  mstore\n    /* \"#utility.yul\":3840:3941   */\ntag_83:\n    /* \"#utility.yul\":3689:3947   */\n  pop\n    /* \"#utility.yul\":3640:3947   */\n  pop\n  pop\n  pop\n  jump\t// out\n    /* \"#utility.yul\":3953:4234   */\ntag_65:\n    /* \"#utility.yul\":4036:4063   */\n  tag_85\n    /* \"#utility.yul\":4058:4062   */\n  dup3\n    /* \"#utility.yul\":4036:4063   */\n  tag_72\n  jump\t// in\ntag_85:\n    /* \"#utility.yul\":4028:4034   */\n  dup2\n    /* \"#utility.yul\":4024:4064   */\n  add\n    /* \"#utility.yul\":4166:4172   */\n  dup2\n    /* \"#utility.yul\":4154:4164   */\n  dup2\n    /* \"#utility.yul\":4151:4173   */\n  lt\n    /* \"#utility.yul\":4130:4148   */\n  0xffffffffffffffff\n    /* \"#utility.yul\":4118:4128   */\n  dup3\n    /* \"#utility.yul\":4115:4149   */\n  gt\n    /* \"#utility.yul\":4112:4174   */\n  or\n    /* \"#utility.yul\":4109:4197   */\n  iszero\n  tag_86\n  jumpi\n    /* \"#utility.yul\":4177:4195   */\n  tag_87\n  tag_70\n  jump\t// in\ntag_87:\n    /* \"#utility.yul\":4109:4197   */\ntag_86:\n    /* \"#utility.yul\":4217:4227   */\n  dup1\n    /* \"#utility.yul\":4213:4215   */\n  0x40\n    /* \"#utility.yul\":4206:4228   */\n  mstore\n    /* \"#utility.yul\":3996:4234   */\n  pop\n    /* \"#utility.yul\":3953:4234   */\n  pop\n  pop\n  jump\t// out\n    /* \"#utility.yul\":4240:4420   */\ntag_70:\n    /* \"#utility.yul\":4288:4365   */\n  0x4e487b7100000000000000000000000000000000000000000000000000000000\n    /* \"#utility.yul\":4285:4286   */\n  0x00\n    /* \"#utility.yul\":4278:4366   */\n  mstore\n    /* \"#utility.yul\":4385:4389   */\n  0x41\n    /* \"#utility.yul\":4382:4383   */\n  0x04\n    /* \"#utility.yul\":4375:4390   */\n  mstore\n    /* \"#utility.yul\":4409:4413   */\n  0x24\n    /* \"#utility.yul\":4406:4407   */\n  0x00\n    /* \"#utility.yul\":4399:4414   */\n  revert\n    /* \"#utility.yul\":4426:4543   */\ntag_30:\n    /* \"#utility.yul\":4535:4536   */\n  0x00\n    /* \"#utility.yul\":4532:4533   */\n  dup1\n    /* \"#utility.yul\":4525:4537   */\n  revert\n    /* \"#utility.yul\":4549:4666   */\ntag_23:\n    /* \"#utility.yul\":4658:4659   */\n  0x00\n    /* \"#utility.yul\":4655:4656   */\n  dup1\n    /* \"#utility.yul\":4648:4660   */\n  revert\n    /* \"#utility.yul\":4672:4789   */\ntag_38:\n    /* \"#utility.yul\":4781:4782   */\n  0x00\n    /* \"#utility.yul\":4778:4779   */\n  dup1\n    /* \"#utility.yul\":4771:4783   */\n  revert\n    /* \"#utility.yul\":4795:4912   */\ntag_35:\n    /* \"#utility.yul\":4904:4905   */\n  0x00\n    /* \"#utility.yul\":4901:4902   */\n  dup1\n    /* \"#utility.yul\":4894:4906   */\n  revert\n    /* \"#utility.yul\":4918:5020   */\ntag_72:\n    /* \"#utility.yul\":4959:4965   */\n  0x00\n    /* \"#utility.yul\":5010:5012   */\n  0x1f\n    /* \"#utility.yul\":5006:5013   */\n  not\n    /* \"#utility.yul\":5001:5003   */\n  0x1f\n    /* \"#utility.yul\":4994:4999   */\n  dup4\n    /* \"#utility.yul\":4990:5004   */\n  add\n    /* \"#utility.yul\":4986:5014   */\n  and\n    /* \"#utility.yul\":4976:5014   */\n  swap1\n  pop\n    /* \"#utility.yul\":4918:5020   */\n  swap2\n  swap1\n  pop\n  jump\t// out\n    /* \"contracts/DataOnboarderSigner.sol\":147:1334  contract DataOnboarderSigner is EIP712{\r... */\ntag_10:\n  mload(0x80)\n  mload(0xa0)\n  shr(0x60, mload(0xc0))\n  mload(0xe0)\n  mload(0x0100)\n  mload(0x0120)\n  codecopy(0x00, dataOffset(sub_0), dataSize(sub_0))\n  0x00\n  assignImmutable(\"0x5a93a2dc92091af230683d15d3257a435cf66aed689fda6017f4307513f6d5be\")\n  0x00\n  assignImmutable(\"0x742923de7bc50464937906bfe030fa4efb91e6a4573564a32c624c34f00beca2\")\n  0x00\n  assignImmutable(\"0x92301b0fbe71398b074974cbaad6952dd587c7bfe6c03904031cb0a6440991dd\")\n  0x00\n  assignImmutable(\"0x2594dabed871cb83b92f0316c3cfb3f11c31e831a3dfe02ed619a85d0029a787\")\n  0x00\n  assignImmutable(\"0x90741adfcf45070d86c76a8bfeeec0f65f9ebb67d2d5d664dfa749bf949a2454\")\n  0x00\n  assignImmutable(\"0x1918487e7c9afa9bc01d75bdd43c69c329a1c948229a99b49e14ce6b7dcc6ff5\")\n  return(0x00, dataSize(sub_0))\nstop\n\nsub_0: assembly {\n        /* \"contracts/DataOnboarderSigner.sol\":147:1334  contract DataOnboarderSigner is EIP712{\r... */\n      mstore(0x40, 0x80)\n      callvalue\n      dup1\n      iszero\n      tag_1\n      jumpi\n      0x00\n      dup1\n      revert\n    tag_1:\n      pop\n      jumpi(tag_2, lt(calldatasize, 0x04))\n      shr(0xe0, calldataload(0x00))\n      dup1\n      0x30f89e29\n      eq\n      tag_3\n      jumpi\n    tag_2:\n      0x00\n      dup1\n      revert\n        /* \"contracts/DataOnboarderSigner.sol\":501:619  function getSigner(DataSourceLink memory result) public view returns(address){\r... */\n    tag_3:\n      tag_4\n      0x04\n      dup1\n      calldatasize\n      sub\n      dup2\n      add\n      swap1\n      tag_5\n      swap2\n      swap1\n      tag_6\n      jump\t// in\n    tag_5:\n      tag_7\n      jump\t// in\n    tag_4:\n      mload(0x40)\n      tag_8\n      swap2\n      swap1\n      tag_9\n      jump\t// in\n    tag_8:\n      mload(0x40)\n      dup1\n      swap2\n      sub\n      swap1\n      return\n    tag_7:\n        /* \"contracts/DataOnboarderSigner.sol\":570:577  address */\n      0x00\n        /* \"contracts/DataOnboarderSigner.sol\":596:611  _verify(result) */\n      tag_11\n        /* \"contracts/DataOnboarderSigner.sol\":604:610  result */\n      dup3\n        /* \"contracts/DataOnboarderSigner.sol\":596:603  _verify */\n      tag_12\n        /* \"contracts/DataOnboarderSigner.sol\":596:611  _verify(result) */\n      jump\t// in\n    tag_11:\n        /* \"contracts/DataOnboarderSigner.sol\":589:611  return _verify(result) */\n      swap1\n      pop\n        /* \"contracts/DataOnboarderSigner.sol\":501:619  function getSigner(DataSourceLink memory result) public view returns(address){\r... */\n      swap2\n      swap1\n      pop\n      jump\t// out\n        /* \"contracts/DataOnboarderSigner.sol\":1144:1329  function _verify(DataSourceLink memory result) internal view returns (address) {\r... */\n    tag_12:\n        /* \"contracts/DataOnboarderSigner.sol\":1214:1221  address */\n      0x00\n        /* \"contracts/DataOnboarderSigner.sol\":1234:1248  bytes32 digest */\n      dup1\n        /* \"contracts/DataOnboarderSigner.sol\":1251:1264  _hash(result) */\n      tag_14\n        /* \"contracts/DataOnboarderSigner.sol\":1257:1263  result */\n      dup4\n        /* \"contracts/DataOnboarderSigner.sol\":1251:1256  _hash */\n      tag_15\n        /* \"contracts/DataOnboarderSigner.sol\":1251:1264  _hash(result) */\n      jump\t// in\n    tag_14:\n        /* \"contracts/DataOnboarderSigner.sol\":1234:1264  bytes32 digest = _hash(result) */\n      swap1\n      pop\n        /* \"contracts/DataOnboarderSigner.sol\":1282:1321  ECDSA.recover(digest, result.signature) */\n      tag_16\n        /* \"contracts/DataOnboarderSigner.sol\":1296:1302  digest */\n      dup2\n        /* \"contracts/DataOnboarderSigner.sol\":1304:1310  result */\n      dup5\n        /* \"contracts/DataOnboarderSigner.sol\":1304:1320  result.signature */\n      0x60\n      add\n      mload\n        /* \"contracts/DataOnboarderSigner.sol\":1282:1295  ECDSA.recover */\n      tag_17\n        /* \"contracts/DataOnboarderSigner.sol\":1282:1321  ECDSA.recover(digest, result.signature) */\n      jump\t// in\n    tag_16:\n        /* \"contracts/DataOnboarderSigner.sol\":1275:1321  return ECDSA.recover(digest, result.signature) */\n      swap2\n      pop\n      pop\n        /* \"contracts/DataOnboarderSigner.sol\":1144:1329  function _verify(DataSourceLink memory result) internal view returns (address) {\r... */\n      swap2\n      swap1\n      pop\n      jump\t// out\n        /* \"contracts/DataOnboarderSigner.sol\":629:1136  function _hash(DataSourceLink memory result) internal view returns (bytes32) {\r... */\n    tag_15:\n        /* \"contracts/DataOnboarderSigner.sol\":697:704  bytes32 */\n      0x00\n        /* \"contracts/DataOnboarderSigner.sol\":724:1128  _hashTypedDataV4(\r... */\n      tag_19\n        /* \"contracts/DataOnboarderSigner.sol\":816:913  keccak256(\"DataSourceLink(string profile_uid,string platform_name,address corresponding_pubkey)\") */\n      0x9980e35fd3e98fb83ed8ba021944828eb14149855296a1d36bc6313f56ef5aa6\n        /* \"contracts/DataOnboarderSigner.sol\":952:958  result */\n      dup4\n        /* \"contracts/DataOnboarderSigner.sol\":952:970  result.profile_uid */\n      0x00\n      add\n      mload\n        /* \"contracts/DataOnboarderSigner.sol\":936:972  keccak256(bytes(result.profile_uid)) */\n      dup1\n      mload\n      swap1\n      0x20\n      add\n      keccak256\n        /* \"contracts/DataOnboarderSigner.sol\":1011:1017  result */\n      dup5\n        /* \"contracts/DataOnboarderSigner.sol\":1011:1031  result.platform_name */\n      0x20\n      add\n      mload\n        /* \"contracts/DataOnboarderSigner.sol\":995:1033  keccak256(bytes(result.platform_name)) */\n      dup1\n      mload\n      swap1\n      0x20\n      add\n      keccak256\n        /* \"contracts/DataOnboarderSigner.sol\":1056:1062  result */\n      dup6\n        /* \"contracts/DataOnboarderSigner.sol\":1056:1083  result.corresponding_pubkey */\n      0x40\n      add\n      mload\n        /* \"contracts/DataOnboarderSigner.sol\":783:1102  abi.encode(\r... */\n      add(0x20, mload(0x40))\n      tag_20\n      swap5\n      swap4\n      swap3\n      swap2\n      swap1\n      tag_21\n      jump\t// in\n    tag_20:\n      mload(0x40)\n      0x20\n      dup2\n      dup4\n      sub\n      sub\n      dup2\n      mstore\n      swap1\n      0x40\n      mstore\n        /* \"contracts/DataOnboarderSigner.sol\":755:1117  keccak256(\r... */\n      dup1\n      mload\n      swap1\n      0x20\n      add\n      keccak256\n        /* \"contracts/DataOnboarderSigner.sol\":724:740  _hashTypedDataV4 */\n      tag_22\n        /* \"contracts/DataOnboarderSigner.sol\":724:1128  _hashTypedDataV4(\r... */\n      jump\t// in\n    tag_19:\n        /* \"contracts/DataOnboarderSigner.sol\":717:1128  return _hashTypedDataV4(\r... */\n      swap1\n      pop\n        /* \"contracts/DataOnboarderSigner.sol\":629:1136  function _hash(DataSourceLink memory result) internal view returns (bytes32) {\r... */\n      swap2\n      swap1\n      pop\n      jump\t// out\n        /* \"@openzeppelin/contracts/utils/cryptography/ECDSA.sol\":3661:3888  function recover(bytes32 hash, bytes memory signature) internal pure returns (address) {... */\n    tag_17:\n        /* \"@openzeppelin/contracts/utils/cryptography/ECDSA.sol\":3739:3746  address */\n      0x00\n        /* \"@openzeppelin/contracts/utils/cryptography/ECDSA.sol\":3759:3776  address recovered */\n      dup1\n        /* \"@openzeppelin/contracts/utils/cryptography/ECDSA.sol\":3778:3796  RecoverError error */\n      0x00\n        /* \"@openzeppelin/contracts/utils/cryptography/ECDSA.sol\":3800:3827  tryRecover(hash, signature) */\n      tag_24\n        /* \"@openzeppelin/contracts/utils/cryptography/ECDSA.sol\":3811:3815  hash */\n      dup6\n        /* \"@openzeppelin/contracts/utils/cryptography/ECDSA.sol\":3817:3826  signature */\n      dup6\n        /* \"@openzeppelin/contracts/utils/cryptography/ECDSA.sol\":3800:3810  tryRecover */\n      tag_25\n        /* \"@openzeppelin/contracts/utils/cryptography/ECDSA.sol\":3800:3827  tryRecover(hash, signature) */\n      jump\t// in\n    tag_24:\n        /* \"@openzeppelin/contracts/utils/cryptography/ECDSA.sol\":3758:3827  (address recovered, RecoverError error) = tryRecover(hash, signature) */\n      swap2\n      pop\n      swap2\n      pop\n        /* \"@openzeppelin/contracts/utils/cryptography/ECDSA.sol\":3837:3855  _throwError(error) */\n      tag_26\n        /* \"@openzeppelin/contracts/utils/cryptography/ECDSA.sol\":3849:3854  error */\n      dup2\n        /* \"@openzeppelin/contracts/utils/cryptography/ECDSA.sol\":3837:3848  _throwError */\n      tag_27\n        /* \"@openzeppelin/contracts/utils/cryptography/ECDSA.sol\":3837:3855  _throwError(error) */\n      jump\t// in\n    tag_26:\n        /* \"@openzeppelin/contracts/utils/cryptography/ECDSA.sol\":3872:3881  recovered */\n      dup2\n        /* \"@openzeppelin/contracts/utils/cryptography/ECDSA.sol\":3865:3881  return recovered */\n      swap3\n      pop\n      pop\n      pop\n        /* \"@openzeppelin/contracts/utils/cryptography/ECDSA.sol\":3661:3888  function recover(bytes32 hash, bytes memory signature) internal pure returns (address) {... */\n      swap3\n      swap2\n      pop\n      pop\n      jump\t// out\n        /* \"@openzeppelin/contracts/utils/cryptography/EIP712.sol\":4348:4513  function _hashTypedDataV4(bytes32 structHash) internal view virtual returns (bytes32) {... */\n    tag_22:\n        /* \"@openzeppelin/contracts/utils/cryptography/EIP712.sol\":4425:4432  bytes32 */\n      0x00\n        /* \"@openzeppelin/contracts/utils/cryptography/EIP712.sol\":4451:4506  ECDSA.toTypedDataHash(_domainSeparatorV4(), structHash) */\n      tag_29\n        /* \"@openzeppelin/contracts/utils/cryptography/EIP712.sol\":4473:4493  _domainSeparatorV4() */\n      tag_30\n        /* \"@openzeppelin/contracts/utils/cryptography/EIP712.sol\":4473:4491  _domainSeparatorV4 */\n      tag_31\n        /* \"@openzeppelin/contracts/utils/cryptography/EIP712.sol\":4473:4493  _domainSeparatorV4() */\n      jump\t// in\n    tag_30:\n        /* \"@openzeppelin/contracts/utils/cryptography/EIP712.sol\":4495:4505  structHash */\n      dup4\n        /* \"@openzeppelin/contracts/utils/cryptography/EIP712.sol\":4451:4472  ECDSA.toTypedDataHash */\n      tag_32\n        /* \"@openzeppelin/contracts/utils/cryptography/EIP712.sol\":4451:4506  ECDSA.toTypedDataHash(_domainSeparatorV4(), structHash) */\n      jump\t// in\n    tag_29:\n        /* \"@openzeppelin/contracts/utils/cryptography/EIP712.sol\":4444:4506  return ECDSA.toTypedDataHash(_domainSeparatorV4(), structHash) */\n      swap1\n      pop\n        /* \"@openzeppelin/contracts/utils/cryptography/EIP712.sol\":4348:4513  function _hashTypedDataV4(bytes32 structHash) internal view virtual returns (bytes32) {... */\n      swap2\n      swap1\n      pop\n      jump\t// out\n        /* \"@openzeppelin/contracts/utils/cryptography/ECDSA.sol\":2145:2875  function tryRecover(bytes32 hash, bytes memory signature) internal pure returns (address, RecoverError) {... */\n    tag_25:\n        /* \"@openzeppelin/contracts/utils/cryptography/ECDSA.sol\":2226:2233  address */\n      0x00\n        /* \"@openzeppelin/contracts/utils/cryptography/ECDSA.sol\":2235:2247  RecoverError */\n      dup1\n        /* \"@openzeppelin/contracts/utils/cryptography/ECDSA.sol\":2283:2285  65 */\n      0x41\n        /* \"@openzeppelin/contracts/utils/cryptography/ECDSA.sol\":2263:2272  signature */\n      dup4\n        /* \"@openzeppelin/contracts/utils/cryptography/ECDSA.sol\":2263:2279  signature.length */\n      mload\n        /* \"@openzeppelin/contracts/utils/cryptography/ECDSA.sol\":2263:2285  signature.length == 65 */\n      eq\n        /* \"@openzeppelin/contracts/utils/cryptography/ECDSA.sol\":2259:2869  if (signature.length == 65) {... */\n      iszero\n      tag_34\n      jumpi\n        /* \"@openzeppelin/contracts/utils/cryptography/ECDSA.sol\":2301:2310  bytes32 r */\n      0x00\n        /* \"@openzeppelin/contracts/utils/cryptography/ECDSA.sol\":2324:2333  bytes32 s */\n      dup1\n        /* \"@openzeppelin/contracts/utils/cryptography/ECDSA.sol\":2347:2354  uint8 v */\n      0x00\n        /* \"@openzeppelin/contracts/utils/cryptography/ECDSA.sol\":2599:2603  0x20 */\n      0x20\n        /* \"@openzeppelin/contracts/utils/cryptography/ECDSA.sol\":2588:2597  signature */\n      dup7\n        /* \"@openzeppelin/contracts/utils/cryptography/ECDSA.sol\":2584:2604  add(signature, 0x20) */\n      add\n        /* \"@openzeppelin/contracts/utils/cryptography/ECDSA.sol\":2578:2605  mload(add(signature, 0x20)) */\n      mload\n        /* \"@openzeppelin/contracts/utils/cryptography/ECDSA.sol\":2573:2605  r := mload(add(signature, 0x20)) */\n      swap3\n      pop\n        /* \"@openzeppelin/contracts/utils/cryptography/ECDSA.sol\":2648:2652  0x40 */\n      0x40\n        /* \"@openzeppelin/contracts/utils/cryptography/ECDSA.sol\":2637:2646  signature */\n      dup7\n        /* \"@openzeppelin/contracts/utils/cryptography/ECDSA.sol\":2633:2653  add(signature, 0x40) */\n      add\n        /* \"@openzeppelin/contracts/utils/cryptography/ECDSA.sol\":2627:2654  mload(add(signature, 0x40)) */\n      mload\n        /* \"@openzeppelin/contracts/utils/cryptography/ECDSA.sol\":2622:2654  s := mload(add(signature, 0x40)) */\n      swap2\n      pop\n        /* \"@openzeppelin/contracts/utils/cryptography/ECDSA.sol\":2705:2709  0x60 */\n      0x60\n        /* \"@openzeppelin/contracts/utils/cryptography/ECDSA.sol\":2694:2703  signature */\n      dup7\n        /* \"@openzeppelin/contracts/utils/cryptography/ECDSA.sol\":2690:2710  add(signature, 0x60) */\n      add\n        /* \"@openzeppelin/contracts/utils/cryptography/ECDSA.sol\":2684:2711  mload(add(signature, 0x60)) */\n      mload\n        /* \"@openzeppelin/contracts/utils/cryptography/ECDSA.sol\":2681:2682  0 */\n      0x00\n        /* \"@openzeppelin/contracts/utils/cryptography/ECDSA.sol\":2676:2712  byte(0, mload(add(signature, 0x60))) */\n      byte\n        /* \"@openzeppelin/contracts/utils/cryptography/ECDSA.sol\":2671:2712  v := byte(0, mload(add(signature, 0x60))) */\n      swap1\n      pop\n        /* \"@openzeppelin/contracts/utils/cryptography/ECDSA.sol\":2746:2771  tryRecover(hash, v, r, s) */\n      tag_35\n        /* \"@openzeppelin/contracts/utils/cryptography/ECDSA.sol\":2757:2761  hash */\n      dup8\n        /* \"@openzeppelin/contracts/utils/cryptography/ECDSA.sol\":2763:2764  v */\n      dup3\n        /* \"@openzeppelin/contracts/utils/cryptography/ECDSA.sol\":2766:2767  r */\n      dup6\n        /* \"@openzeppelin/contracts/utils/cryptography/ECDSA.sol\":2769:2770  s */\n      dup6\n        /* \"@openzeppelin/contracts/utils/cryptography/ECDSA.sol\":2746:2756  tryRecover */\n      tag_36\n        /* \"@openzeppelin/contracts/utils/cryptography/ECDSA.sol\":2746:2771  tryRecover(hash, v, r, s) */\n      jump\t// in\n    tag_35:\n        /* \"@openzeppelin/contracts/utils/cryptography/ECDSA.sol\":2739:2771  return tryRecover(hash, v, r, s) */\n      swap5\n      pop\n      swap5\n      pop\n      pop\n      pop\n      pop\n      jump(tag_33)\n        /* \"@openzeppelin/contracts/utils/cryptography/ECDSA.sol\":2259:2869  if (signature.length == 65) {... */\n    tag_34:\n        /* \"@openzeppelin/contracts/utils/cryptography/ECDSA.sol\":2818:2819  0 */\n      0x00\n        /* \"@openzeppelin/contracts/utils/cryptography/ECDSA.sol\":2822:2857  RecoverError.InvalidSignatureLength */\n      0x02\n        /* \"@openzeppelin/contracts/utils/cryptography/ECDSA.sol\":2802:2858  return (address(0), RecoverError.InvalidSignatureLength) */\n      swap2\n      pop\n      swap2\n      pop\n        /* \"@openzeppelin/contracts/utils/cryptography/ECDSA.sol\":2145:2875  function tryRecover(bytes32 hash, bytes memory signature) internal pure returns (address, RecoverError) {... */\n    tag_33:\n      swap3\n      pop\n      swap3\n      swap1\n      pop\n      jump\t// out\n        /* \"@openzeppelin/contracts/utils/cryptography/ECDSA.sol\":570:1081  function _throwError(RecoverError error) private pure {... */\n    tag_27:\n        /* \"@openzeppelin/contracts/utils/cryptography/ECDSA.sol\":647:667  RecoverError.NoError */\n      0x00\n        /* \"@openzeppelin/contracts/utils/cryptography/ECDSA.sol\":638:667  error == RecoverError.NoError */\n      0x04\n      dup2\n      gt\n      iszero\n      tag_39\n      jumpi\n      tag_40\n      tag_41\n      jump\t// in\n    tag_40:\n    tag_39:\n        /* \"@openzeppelin/contracts/utils/cryptography/ECDSA.sol\":638:643  error */\n      dup2\n        /* \"@openzeppelin/contracts/utils/cryptography/ECDSA.sol\":638:667  error == RecoverError.NoError */\n      0x04\n      dup2\n      gt\n      iszero\n      tag_42\n      jumpi\n      tag_43\n      tag_41\n      jump\t// in\n    tag_43:\n    tag_42:\n      eq\n        /* \"@openzeppelin/contracts/utils/cryptography/ECDSA.sol\":634:1075  if (error == RecoverError.NoError) {... */\n      iszero\n      tag_44\n      jumpi\n        /* \"@openzeppelin/contracts/utils/cryptography/ECDSA.sol\":683:690  return; */\n      jump(tag_38)\n        /* \"@openzeppelin/contracts/utils/cryptography/ECDSA.sol\":634:1075  if (error == RecoverError.NoError) {... */\n    tag_44:\n        /* \"@openzeppelin/contracts/utils/cryptography/ECDSA.sol\":743:772  RecoverError.InvalidSignature */\n      0x01\n        /* \"@openzeppelin/contracts/utils/cryptography/ECDSA.sol\":734:772  error == RecoverError.InvalidSignature */\n      0x04\n      dup2\n      gt\n      iszero\n      tag_46\n      jumpi\n      tag_47\n      tag_41\n      jump\t// in\n    tag_47:\n    tag_46:\n        /* \"@openzeppelin/contracts/utils/cryptography/ECDSA.sol\":734:739  error */\n      dup2\n        /* \"@openzeppelin/contracts/utils/cryptography/ECDSA.sol\":734:772  error == RecoverError.InvalidSignature */\n      0x04\n      dup2\n      gt\n      iszero\n      tag_48\n      jumpi\n      tag_49\n      tag_41\n      jump\t// in\n    tag_49:\n    tag_48:\n      eq\n        /* \"@openzeppelin/contracts/utils/cryptography/ECDSA.sol\":730:1075  if (error == RecoverError.InvalidSignature) {... */\n      iszero\n      tag_50\n      jumpi\n        /* \"@openzeppelin/contracts/utils/cryptography/ECDSA.sol\":788:822  revert(\"ECDSA: invalid signature\") */\n      mload(0x40)\n      0x08c379a000000000000000000000000000000000000000000000000000000000\n      dup2\n      mstore\n      0x04\n      add\n      tag_51\n      swap1\n      tag_52\n      jump\t// in\n    tag_51:\n      mload(0x40)\n      dup1\n      swap2\n      sub\n      swap1\n      revert\n        /* \"@openzeppelin/contracts/utils/cryptography/ECDSA.sol\":730:1075  if (error == RecoverError.InvalidSignature) {... */\n    tag_50:\n        /* \"@openzeppelin/contracts/utils/cryptography/ECDSA.sol\":852:887  RecoverError.InvalidSignatureLength */\n      0x02\n        /* \"@openzeppelin/contracts/utils/cryptography/ECDSA.sol\":843:887  error == RecoverError.InvalidSignatureLength */\n      0x04\n      dup2\n      gt\n      iszero\n      tag_54\n      jumpi\n      tag_55\n      tag_41\n      jump\t// in\n    tag_55:\n    tag_54:\n        /* \"@openzeppelin/contracts/utils/cryptography/ECDSA.sol\":843:848  error */\n      dup2\n        /* \"@openzeppelin/contracts/utils/cryptography/ECDSA.sol\":843:887  error == RecoverError.InvalidSignatureLength */\n      0x04\n      dup2\n      gt\n      iszero\n      tag_56\n      jumpi\n      tag_57\n      tag_41\n      jump\t// in\n    tag_57:\n    tag_56:\n      eq\n        /* \"@openzeppelin/contracts/utils/cryptography/ECDSA.sol\":839:1075  if (error == RecoverError.InvalidSignatureLength) {... */\n      iszero\n      tag_58\n      jumpi\n        /* \"@openzeppelin/contracts/utils/cryptography/ECDSA.sol\":903:944  revert(\"ECDSA: invalid signature length\") */\n      mload(0x40)\n      0x08c379a000000000000000000000000000000000000000000000000000000000\n      dup2\n      mstore\n      0x04\n      add\n      tag_59\n      swap1\n      tag_60\n      jump\t// in\n    tag_59:\n      mload(0x40)\n      dup1\n      swap2\n      sub\n      swap1\n      revert\n        /* \"@openzeppelin/contracts/utils/cryptography/ECDSA.sol\":839:1075  if (error == RecoverError.InvalidSignatureLength) {... */\n    tag_58:\n        /* \"@openzeppelin/contracts/utils/cryptography/ECDSA.sol\":974:1004  RecoverError.InvalidSignatureS */\n      0x03\n        /* \"@openzeppelin/contracts/utils/cryptography/ECDSA.sol\":965:1004  error == RecoverError.InvalidSignatureS */\n      0x04\n      dup2\n      gt\n      iszero\n      tag_62\n      jumpi\n      tag_63\n      tag_41\n      jump\t// in\n    tag_63:\n    tag_62:\n        /* \"@openzeppelin/contracts/utils/cryptography/ECDSA.sol\":965:970  error */\n      dup2\n        /* \"@openzeppelin/contracts/utils/cryptography/ECDSA.sol\":965:1004  error == RecoverError.InvalidSignatureS */\n      0x04\n      dup2\n      gt\n      iszero\n      tag_64\n      jumpi\n      tag_65\n      tag_41\n      jump\t// in\n    tag_65:\n    tag_64:\n      eq\n        /* \"@openzeppelin/contracts/utils/cryptography/ECDSA.sol\":961:1075  if (error == RecoverError.InvalidSignatureS) {... */\n      iszero\n      tag_66\n      jumpi\n        /* \"@openzeppelin/contracts/utils/cryptography/ECDSA.sol\":1020:1064  revert(\"ECDSA: invalid signature 's' value\") */\n      mload(0x40)\n      0x08c379a000000000000000000000000000000000000000000000000000000000\n      dup2\n      mstore\n      0x04\n      add\n      tag_67\n      swap1\n      tag_68\n      jump\t// in\n    tag_67:\n      mload(0x40)\n      dup1\n      swap2\n      sub\n      swap1\n      revert\n        /* \"@openzeppelin/contracts/utils/cryptography/ECDSA.sol\":961:1075  if (error == RecoverError.InvalidSignatureS) {... */\n    tag_66:\n        /* \"@openzeppelin/contracts/utils/cryptography/ECDSA.sol\":570:1081  function _throwError(RecoverError error) private pure {... */\n    tag_38:\n      pop\n      jump\t// out\n        /* \"@openzeppelin/contracts/utils/cryptography/EIP712.sol\":3152:3460  function _domainSeparatorV4() internal view returns (bytes32) {... */\n    tag_31:\n        /* \"@openzeppelin/contracts/utils/cryptography/EIP712.sol\":3205:3212  bytes32 */\n      0x00\n        /* \"@openzeppelin/contracts/utils/cryptography/EIP712.sol\":3245:3257  _CACHED_THIS */\n      immutable(\"0x2594dabed871cb83b92f0316c3cfb3f11c31e831a3dfe02ed619a85d0029a787\")\n        /* \"@openzeppelin/contracts/utils/cryptography/EIP712.sol\":3228:3257  address(this) == _CACHED_THIS */\n      0xffffffffffffffffffffffffffffffffffffffff\n      and\n        /* \"@openzeppelin/contracts/utils/cryptography/EIP712.sol\":3236:3240  this */\n      address\n        /* \"@openzeppelin/contracts/utils/cryptography/EIP712.sol\":3228:3257  address(this) == _CACHED_THIS */\n      0xffffffffffffffffffffffffffffffffffffffff\n      and\n      eq\n        /* \"@openzeppelin/contracts/utils/cryptography/EIP712.sol\":3228:3294  address(this) == _CACHED_THIS && block.chainid == _CACHED_CHAIN_ID */\n      dup1\n      iszero\n      tag_70\n      jumpi\n      pop\n        /* \"@openzeppelin/contracts/utils/cryptography/EIP712.sol\":3278:3294  _CACHED_CHAIN_ID */\n      immutable(\"0x90741adfcf45070d86c76a8bfeeec0f65f9ebb67d2d5d664dfa749bf949a2454\")\n        /* \"@openzeppelin/contracts/utils/cryptography/EIP712.sol\":3261:3274  block.chainid */\n      chainid\n        /* \"@openzeppelin/contracts/utils/cryptography/EIP712.sol\":3261:3294  block.chainid == _CACHED_CHAIN_ID */\n      eq\n        /* \"@openzeppelin/contracts/utils/cryptography/EIP712.sol\":3228:3294  address(this) == _CACHED_THIS && block.chainid == _CACHED_CHAIN_ID */\n    tag_70:\n        /* \"@openzeppelin/contracts/utils/cryptography/EIP712.sol\":3224:3454  if (address(this) == _CACHED_THIS && block.chainid == _CACHED_CHAIN_ID) {... */\n      iszero\n      tag_71\n      jumpi\n        /* \"@openzeppelin/contracts/utils/cryptography/EIP712.sol\":3317:3341  _CACHED_DOMAIN_SEPARATOR */\n      immutable(\"0x1918487e7c9afa9bc01d75bdd43c69c329a1c948229a99b49e14ce6b7dcc6ff5\")\n        /* \"@openzeppelin/contracts/utils/cryptography/EIP712.sol\":3310:3341  return _CACHED_DOMAIN_SEPARATOR */\n      swap1\n      pop\n      jump(tag_69)\n        /* \"@openzeppelin/contracts/utils/cryptography/EIP712.sol\":3224:3454  if (address(this) == _CACHED_THIS && block.chainid == _CACHED_CHAIN_ID) {... */\n    tag_71:\n        /* \"@openzeppelin/contracts/utils/cryptography/EIP712.sol\":3379:3443  _buildDomainSeparator(_TYPE_HASH, _HASHED_NAME, _HASHED_VERSION) */\n      tag_73\n        /* \"@openzeppelin/contracts/utils/cryptography/EIP712.sol\":3401:3411  _TYPE_HASH */\n      immutable(\"0x5a93a2dc92091af230683d15d3257a435cf66aed689fda6017f4307513f6d5be\")\n        /* \"@openzeppelin/contracts/utils/cryptography/EIP712.sol\":3413:3425  _HASHED_NAME */\n      immutable(\"0x92301b0fbe71398b074974cbaad6952dd587c7bfe6c03904031cb0a6440991dd\")\n        /* \"@openzeppelin/contracts/utils/cryptography/EIP712.sol\":3427:3442  _HASHED_VERSION */\n      immutable(\"0x742923de7bc50464937906bfe030fa4efb91e6a4573564a32c624c34f00beca2\")\n        /* \"@openzeppelin/contracts/utils/cryptography/EIP712.sol\":3379:3400  _buildDomainSeparator */\n      tag_74\n        /* \"@openzeppelin/contracts/utils/cryptography/EIP712.sol\":3379:3443  _buildDomainSeparator(_TYPE_HASH, _HASHED_NAME, _HASHED_VERSION) */\n      jump\t// in\n    tag_73:\n        /* \"@openzeppelin/contracts/utils/cryptography/EIP712.sol\":3372:3443  return _buildDomainSeparator(_TYPE_HASH, _HASHED_NAME, _HASHED_VERSION) */\n      swap1\n      pop\n        /* \"@openzeppelin/contracts/utils/cryptography/EIP712.sol\":3152:3460  function _domainSeparatorV4() internal view returns (bytes32) {... */\n    tag_69:\n      swap1\n      jump\t// out\n        /* \"@openzeppelin/contracts/utils/cryptography/ECDSA.sol\":8341:8535  function toTypedDataHash(bytes32 domainSeparator, bytes32 structHash) internal pure returns (bytes32) {... */\n    tag_32:\n        /* \"@openzeppelin/contracts/utils/cryptography/ECDSA.sol\":8434:8441  bytes32 */\n      0x00\n        /* \"@openzeppelin/contracts/utils/cryptography/ECDSA.sol\":8499:8514  domainSeparator */\n      dup3\n        /* \"@openzeppelin/contracts/utils/cryptography/ECDSA.sol\":8516:8526  structHash */\n      dup3\n        /* \"@openzeppelin/contracts/utils/cryptography/ECDSA.sol\":8470:8527  abi.encodePacked(\"\\x19\\x01\", domainSeparator, structHash) */\n      add(0x20, mload(0x40))\n      tag_76\n      swap3\n      swap2\n      swap1\n      tag_77\n      jump\t// in\n    tag_76:\n      mload(0x40)\n      0x20\n      dup2\n      dup4\n      sub\n      sub\n      dup2\n      mstore\n      swap1\n      0x40\n      mstore\n        /* \"@openzeppelin/contracts/utils/cryptography/ECDSA.sol\":8460:8528  keccak256(abi.encodePacked(\"\\x19\\x01\", domainSeparator, structHash)) */\n      dup1\n      mload\n      swap1\n      0x20\n      add\n      keccak256\n        /* \"@openzeppelin/contracts/utils/cryptography/ECDSA.sol\":8453:8528  return keccak256(abi.encodePacked(\"\\x19\\x01\", domainSeparator, structHash)) */\n      swap1\n      pop\n        /* \"@openzeppelin/contracts/utils/cryptography/ECDSA.sol\":8341:8535  function toTypedDataHash(bytes32 domainSeparator, bytes32 structHash) internal pure returns (bytes32) {... */\n      swap3\n      swap2\n      pop\n      pop\n      jump\t// out\n        /* \"@openzeppelin/contracts/utils/cryptography/ECDSA.sol\":5069:6563  function tryRecover(... */\n    tag_36:\n        /* \"@openzeppelin/contracts/utils/cryptography/ECDSA.sol\":5195:5202  address */\n      0x00\n        /* \"@openzeppelin/contracts/utils/cryptography/ECDSA.sol\":5204:5216  RecoverError */\n      dup1\n        /* \"@openzeppelin/contracts/utils/cryptography/ECDSA.sol\":6119:6185  0x7FFFFFFFFFFFFFFFFFFFFFFFFFFFFFFF5D576E7357A4501DDFE92F46681B20A0 */\n      0x7fffffffffffffffffffffffffffffff5d576e7357a4501ddfe92f46681b20a0\n        /* \"@openzeppelin/contracts/utils/cryptography/ECDSA.sol\":6114:6115  s */\n      dup4\n        /* \"@openzeppelin/contracts/utils/cryptography/ECDSA.sol\":6106:6116  uint256(s) */\n      0x00\n      shr\n        /* \"@openzeppelin/contracts/utils/cryptography/ECDSA.sol\":6106:6185  uint256(s) > 0x7FFFFFFFFFFFFFFFFFFFFFFFFFFFFFFF5D576E7357A4501DDFE92F46681B20A0 */\n      gt\n        /* \"@openzeppelin/contracts/utils/cryptography/ECDSA.sol\":6102:6263  if (uint256(s) > 0x7FFFFFFFFFFFFFFFFFFFFFFFFFFFFFFF5D576E7357A4501DDFE92F46681B20A0) {... */\n      iszero\n      tag_79\n      jumpi\n        /* \"@openzeppelin/contracts/utils/cryptography/ECDSA.sol\":6217:6218  0 */\n      0x00\n        /* \"@openzeppelin/contracts/utils/cryptography/ECDSA.sol\":6221:6251  RecoverError.InvalidSignatureS */\n      0x03\n        /* \"@openzeppelin/contracts/utils/cryptography/ECDSA.sol\":6201:6252  return (address(0), RecoverError.InvalidSignatureS) */\n      swap2\n      pop\n      swap2\n      pop\n      jump(tag_78)\n        /* \"@openzeppelin/contracts/utils/cryptography/ECDSA.sol\":6102:6263  if (uint256(s) > 0x7FFFFFFFFFFFFFFFFFFFFFFFFFFFFFFF5D576E7357A4501DDFE92F46681B20A0) {... */\n    tag_79:\n        /* \"@openzeppelin/contracts/utils/cryptography/ECDSA.sol\":6357:6371  address signer */\n      0x00\n        /* \"@openzeppelin/contracts/utils/cryptography/ECDSA.sol\":6374:6398  ecrecover(hash, v, r, s) */\n      0x01\n        /* \"@openzeppelin/contracts/utils/cryptography/ECDSA.sol\":6384:6388  hash */\n      dup8\n        /* \"@openzeppelin/contracts/utils/cryptography/ECDSA.sol\":6390:6391  v */\n      dup8\n        /* \"@openzeppelin/contracts/utils/cryptography/ECDSA.sol\":6393:6394  r */\n      dup8\n        /* \"@openzeppelin/contracts/utils/cryptography/ECDSA.sol\":6396:6397  s */\n      dup8\n        /* \"@openzeppelin/contracts/utils/cryptography/ECDSA.sol\":6374:6398  ecrecover(hash, v, r, s) */\n      mload(0x40)\n      0x00\n      dup2\n      mstore\n      0x20\n      add\n      0x40\n      mstore\n      mload(0x40)\n      tag_80\n      swap5\n      swap4\n      swap3\n      swap2\n      swap1\n      tag_81\n      jump\t// in\n    tag_80:\n      0x20\n      mload(0x40)\n      0x20\n      dup2\n      sub\n      swap1\n      dup1\n      dup5\n      sub\n      swap1\n      dup6\n      gas\n      staticcall\n      iszero\n      dup1\n      iszero\n      tag_83\n      jumpi\n      returndatasize\n      0x00\n      dup1\n      returndatacopy\n      revert(0x00, returndatasize)\n    tag_83:\n      pop\n      pop\n      pop\n      mload(sub(mload(0x40), 0x20))\n        /* \"@openzeppelin/contracts/utils/cryptography/ECDSA.sol\":6357:6398  address signer = ecrecover(hash, v, r, s) */\n      swap1\n      pop\n        /* \"@openzeppelin/contracts/utils/cryptography/ECDSA.sol\":6430:6431  0 */\n      0x00\n        /* \"@openzeppelin/contracts/utils/cryptography/ECDSA.sol\":6412:6432  signer == address(0) */\n      0xffffffffffffffffffffffffffffffffffffffff\n      and\n        /* \"@openzeppelin/contracts/utils/cryptography/ECDSA.sol\":6412:6418  signer */\n      dup2\n        /* \"@openzeppelin/contracts/utils/cryptography/ECDSA.sol\":6412:6432  signer == address(0) */\n      0xffffffffffffffffffffffffffffffffffffffff\n      and\n      eq\n        /* \"@openzeppelin/contracts/utils/cryptography/ECDSA.sol\":6408:6509  if (signer == address(0)) {... */\n      iszero\n      tag_84\n      jumpi\n        /* \"@openzeppelin/contracts/utils/cryptography/ECDSA.sol\":6464:6465  0 */\n      0x00\n        /* \"@openzeppelin/contracts/utils/cryptography/ECDSA.sol\":6468:6497  RecoverError.InvalidSignature */\n      0x01\n        /* \"@openzeppelin/contracts/utils/cryptography/ECDSA.sol\":6448:6498  return (address(0), RecoverError.InvalidSignature) */\n      swap3\n      pop\n      swap3\n      pop\n      pop\n      jump(tag_78)\n        /* \"@openzeppelin/contracts/utils/cryptography/ECDSA.sol\":6408:6509  if (signer == address(0)) {... */\n    tag_84:\n        /* \"@openzeppelin/contracts/utils/cryptography/ECDSA.sol\":6527:6533  signer */\n      dup1\n        /* \"@openzeppelin/contracts/utils/cryptography/ECDSA.sol\":6535:6555  RecoverError.NoError */\n      0x00\n        /* \"@openzeppelin/contracts/utils/cryptography/ECDSA.sol\":6519:6556  return (signer, RecoverError.NoError) */\n      swap3\n      pop\n      swap3\n      pop\n      pop\n        /* \"@openzeppelin/contracts/utils/cryptography/ECDSA.sol\":5069:6563  function tryRecover(... */\n    tag_78:\n      swap5\n      pop\n      swap5\n      swap3\n      pop\n      pop\n      pop\n      jump\t// out\n        /* \"@openzeppelin/contracts/utils/cryptography/EIP712.sol\":3466:3723  function _buildDomainSeparator(... */\n    tag_74:\n        /* \"@openzeppelin/contracts/utils/cryptography/EIP712.sol\":3606:3613  bytes32 */\n      0x00\n        /* \"@openzeppelin/contracts/utils/cryptography/EIP712.sol\":3653:3661  typeHash */\n      dup4\n        /* \"@openzeppelin/contracts/utils/cryptography/EIP712.sol\":3663:3671  nameHash */\n      dup4\n        /* \"@openzeppelin/contracts/utils/cryptography/EIP712.sol\":3673:3684  versionHash */\n      dup4\n        /* \"@openzeppelin/contracts/utils/cryptography/EIP712.sol\":3686:3699  block.chainid */\n      chainid\n        /* \"@openzeppelin/contracts/utils/cryptography/EIP712.sol\":3709:3713  this */\n      address\n        /* \"@openzeppelin/contracts/utils/cryptography/EIP712.sol\":3642:3715  abi.encode(typeHash, nameHash, versionHash, block.chainid, address(this)) */\n      add(0x20, mload(0x40))\n      tag_86\n      swap6\n      swap5\n      swap4\n      swap3\n      swap2\n      swap1\n      tag_87\n      jump\t// in\n    tag_86:\n      mload(0x40)\n      0x20\n      dup2\n      dup4\n      sub\n      sub\n      dup2\n      mstore\n      swap1\n      0x40\n      mstore\n        /* \"@openzeppelin/contracts/utils/cryptography/EIP712.sol\":3632:3716  keccak256(abi.encode(typeHash, nameHash, versionHash, block.chainid, address(this))) */\n      dup1\n      mload\n      swap1\n      0x20\n      add\n      keccak256\n        /* \"@openzeppelin/contracts/utils/cryptography/EIP712.sol\":3625:3716  return keccak256(abi.encode(typeHash, nameHash, versionHash, block.chainid, address(this))) */\n      swap1\n      pop\n        /* \"@openzeppelin/contracts/utils/cryptography/EIP712.sol\":3466:3723  function _buildDomainSeparator(... */\n      swap4\n      swap3\n      pop\n      pop\n      pop\n      jump\t// out\n        /* \"#utility.yul\":7:417   */\n    tag_89:\n        /* \"#utility.yul\":84:89   */\n      0x00\n        /* \"#utility.yul\":109:174   */\n      tag_91\n        /* \"#utility.yul\":125:173   */\n      tag_92\n        /* \"#utility.yul\":166:172   */\n      dup5\n        /* \"#utility.yul\":125:173   */\n      tag_93\n      jump\t// in\n    tag_92:\n        /* \"#utility.yul\":109:174   */\n      tag_94\n      jump\t// in\n    tag_91:\n        /* \"#utility.yul\":100:174   */\n      swap1\n      pop\n        /* \"#utility.yul\":197:203   */\n      dup3\n        /* \"#utility.yul\":190:195   */\n      dup2\n        /* \"#utility.yul\":183:204   */\n      mstore\n        /* \"#utility.yul\":235:239   */\n      0x20\n        /* \"#utility.yul\":228:233   */\n      dup2\n        /* \"#utility.yul\":224:240   */\n      add\n        /* \"#utility.yul\":273:276   */\n      dup5\n        /* \"#utility.yul\":264:270   */\n      dup5\n        /* \"#utility.yul\":259:262   */\n      dup5\n        /* \"#utility.yul\":255:271   */\n      add\n        /* \"#utility.yul\":252:277   */\n      gt\n        /* \"#utility.yul\":249:361   */\n      iszero\n      tag_95\n      jumpi\n        /* \"#utility.yul\":280:359   */\n      tag_96\n      tag_97\n      jump\t// in\n    tag_96:\n        /* \"#utility.yul\":249:361   */\n    tag_95:\n        /* \"#utility.yul\":370:411   */\n      tag_98\n        /* \"#utility.yul\":404:410   */\n      dup5\n        /* \"#utility.yul\":399:402   */\n      dup3\n        /* \"#utility.yul\":394:397   */\n      dup6\n        /* \"#utility.yul\":370:411   */\n      tag_99\n      jump\t// in\n    tag_98:\n        /* \"#utility.yul\":90:417   */\n      pop\n        /* \"#utility.yul\":7:417   */\n      swap4\n      swap3\n      pop\n      pop\n      pop\n      jump\t// out\n        /* \"#utility.yul\":423:835   */\n    tag_100:\n        /* \"#utility.yul\":501:506   */\n      0x00\n        /* \"#utility.yul\":526:592   */\n      tag_102\n        /* \"#utility.yul\":542:591   */\n      tag_103\n        /* \"#utility.yul\":584:590   */\n      dup5\n        /* \"#utility.yul\":542:591   */\n      tag_104\n      jump\t// in\n    tag_103:\n        /* \"#utility.yul\":526:592   */\n      tag_94\n      jump\t// in\n    tag_102:\n        /* \"#utility.yul\":517:592   */\n      swap1\n      pop\n        /* \"#utility.yul\":615:621   */\n      dup3\n        /* \"#utility.yul\":608:613   */\n      dup2\n        /* \"#utility.yul\":601:622   */\n      mstore\n        /* \"#utility.yul\":653:657   */\n      0x20\n        /* \"#utility.yul\":646:651   */\n      dup2\n        /* \"#utility.yul\":642:658   */\n      add\n        /* \"#utility.yul\":691:694   */\n      dup5\n        /* \"#utility.yul\":682:688   */\n      dup5\n        /* \"#utility.yul\":677:680   */\n      dup5\n        /* \"#utility.yul\":673:689   */\n      add\n        /* \"#utility.yul\":670:695   */\n      gt\n        /* \"#utility.yul\":667:779   */\n      iszero\n      tag_105\n      jumpi\n        /* \"#utility.yul\":698:777   */\n      tag_106\n      tag_97\n      jump\t// in\n    tag_106:\n        /* \"#utility.yul\":667:779   */\n    tag_105:\n        /* \"#utility.yul\":788:829   */\n      tag_107\n        /* \"#utility.yul\":822:828   */\n      dup5\n        /* \"#utility.yul\":817:820   */\n      dup3\n        /* \"#utility.yul\":812:815   */\n      dup6\n        /* \"#utility.yul\":788:829   */\n      tag_99\n      jump\t// in\n    tag_107:\n        /* \"#utility.yul\":507:835   */\n      pop\n        /* \"#utility.yul\":423:835   */\n      swap4\n      swap3\n      pop\n      pop\n      pop\n      jump\t// out\n        /* \"#utility.yul\":841:980   */\n    tag_108:\n        /* \"#utility.yul\":887:892   */\n      0x00\n        /* \"#utility.yul\":925:931   */\n      dup2\n        /* \"#utility.yul\":912:932   */\n      calldataload\n        /* \"#utility.yul\":903:932   */\n      swap1\n      pop\n        /* \"#utility.yul\":941:974   */\n      tag_110\n        /* \"#utility.yul\":968:973   */\n      dup2\n        /* \"#utility.yul\":941:974   */\n      tag_111\n      jump\t// in\n    tag_110:\n        /* \"#utility.yul\":841:980   */\n      swap3\n      swap2\n      pop\n      pop\n      jump\t// out\n        /* \"#utility.yul\":999:1337   */\n    tag_112:\n        /* \"#utility.yul\":1054:1059   */\n      0x00\n        /* \"#utility.yul\":1103:1106   */\n      dup3\n        /* \"#utility.yul\":1096:1100   */\n      0x1f\n        /* \"#utility.yul\":1088:1094   */\n      dup4\n        /* \"#utility.yul\":1084:1101   */\n      add\n        /* \"#utility.yul\":1080:1107   */\n      slt\n        /* \"#utility.yul\":1070:1192   */\n      tag_114\n      jumpi\n        /* \"#utility.yul\":1111:1190   */\n      tag_115\n      tag_116\n      jump\t// in\n    tag_115:\n        /* \"#utility.yul\":1070:1192   */\n    tag_114:\n        /* \"#utility.yul\":1228:1234   */\n      dup2\n        /* \"#utility.yul\":1215:1235   */\n      calldataload\n        /* \"#utility.yul\":1253:1331   */\n      tag_117\n        /* \"#utility.yul\":1327:1330   */\n      dup5\n        /* \"#utility.yul\":1319:1325   */\n      dup3\n        /* \"#utility.yul\":1312:1316   */\n      0x20\n        /* \"#utility.yul\":1304:1310   */\n      dup7\n        /* \"#utility.yul\":1300:1317   */\n      add\n        /* \"#utility.yul\":1253:1331   */\n      tag_89\n      jump\t// in\n    tag_117:\n        /* \"#utility.yul\":1244:1331   */\n      swap2\n      pop\n        /* \"#utility.yul\":1060:1337   */\n      pop\n        /* \"#utility.yul\":999:1337   */\n      swap3\n      swap2\n      pop\n      pop\n      jump\t// out\n        /* \"#utility.yul\":1357:1697   */\n    tag_118:\n        /* \"#utility.yul\":1413:1418   */\n      0x00\n        /* \"#utility.yul\":1462:1465   */\n      dup3\n        /* \"#utility.yul\":1455:1459   */\n      0x1f\n        /* \"#utility.yul\":1447:1453   */\n      dup4\n        /* \"#utility.yul\":1443:1460   */\n      add\n        /* \"#utility.yul\":1439:1466   */\n      slt\n        /* \"#utility.yul\":1429:1551   */\n      tag_120\n      jumpi\n        /* \"#utility.yul\":1470:1549   */\n      tag_121\n      tag_116\n      jump\t// in\n    tag_121:\n        /* \"#utility.yul\":1429:1551   */\n    tag_120:\n        /* \"#utility.yul\":1587:1593   */\n      dup2\n        /* \"#utility.yul\":1574:1594   */\n      calldataload\n        /* \"#utility.yul\":1612:1691   */\n      tag_122\n        /* \"#utility.yul\":1687:1690   */\n      dup5\n        /* \"#utility.yul\":1679:1685   */\n      dup3\n        /* \"#utility.yul\":1672:1676   */\n      0x20\n        /* \"#utility.yul\":1664:1670   */\n      dup7\n        /* \"#utility.yul\":1660:1677   */\n      add\n        /* \"#utility.yul\":1612:1691   */\n      tag_100\n      jump\t// in\n    tag_122:\n        /* \"#utility.yul\":1603:1691   */\n      swap2\n      pop\n        /* \"#utility.yul\":1419:1697   */\n      pop\n        /* \"#utility.yul\":1357:1697   */\n      swap3\n      swap2\n      pop\n      pop\n      jump\t// out\n        /* \"#utility.yul\":1752:3201   */\n    tag_123:\n        /* \"#utility.yul\":1833:1838   */\n      0x00\n        /* \"#utility.yul\":1877:1881   */\n      0x80\n        /* \"#utility.yul\":1865:1874   */\n      dup3\n        /* \"#utility.yul\":1860:1863   */\n      dup5\n        /* \"#utility.yul\":1856:1875   */\n      sub\n        /* \"#utility.yul\":1852:1882   */\n      slt\n        /* \"#utility.yul\":1849:1966   */\n      iszero\n      tag_125\n      jumpi\n        /* \"#utility.yul\":1885:1964   */\n      tag_126\n      tag_127\n      jump\t// in\n    tag_126:\n        /* \"#utility.yul\":1849:1966   */\n    tag_125:\n        /* \"#utility.yul\":1984:2005   */\n      tag_128\n        /* \"#utility.yul\":2000:2004   */\n      0x80\n        /* \"#utility.yul\":1984:2005   */\n      tag_94\n      jump\t// in\n    tag_128:\n        /* \"#utility.yul\":1975:2005   */\n      swap1\n      pop\n        /* \"#utility.yul\":2099:2100   */\n      0x00\n        /* \"#utility.yul\":2088:2097   */\n      dup3\n        /* \"#utility.yul\":2084:2101   */\n      add\n        /* \"#utility.yul\":2071:2102   */\n      calldataload\n        /* \"#utility.yul\":2129:2147   */\n      0xffffffffffffffff\n        /* \"#utility.yul\":2121:2127   */\n      dup2\n        /* \"#utility.yul\":2118:2148   */\n      gt\n        /* \"#utility.yul\":2115:2232   */\n      iszero\n      tag_129\n      jumpi\n        /* \"#utility.yul\":2151:2230   */\n      tag_130\n      tag_131\n      jump\t// in\n    tag_130:\n        /* \"#utility.yul\":2115:2232   */\n    tag_129:\n        /* \"#utility.yul\":2271:2330   */\n      tag_132\n        /* \"#utility.yul\":2326:2329   */\n      dup5\n        /* \"#utility.yul\":2317:2323   */\n      dup3\n        /* \"#utility.yul\":2306:2315   */\n      dup6\n        /* \"#utility.yul\":2302:2324   */\n      add\n        /* \"#utility.yul\":2271:2330   */\n      tag_118\n      jump\t// in\n    tag_132:\n        /* \"#utility.yul\":2264:2268   */\n      0x00\n        /* \"#utility.yul\":2257:2262   */\n      dup4\n        /* \"#utility.yul\":2253:2269   */\n      add\n        /* \"#utility.yul\":2246:2331   */\n      mstore\n        /* \"#utility.yul\":2015:2342   */\n      pop\n        /* \"#utility.yul\":2438:2440   */\n      0x20\n        /* \"#utility.yul\":2427:2436   */\n      dup3\n        /* \"#utility.yul\":2423:2441   */\n      add\n        /* \"#utility.yul\":2410:2442   */\n      calldataload\n        /* \"#utility.yul\":2469:2487   */\n      0xffffffffffffffff\n        /* \"#utility.yul\":2461:2467   */\n      dup2\n        /* \"#utility.yul\":2458:2488   */\n      gt\n        /* \"#utility.yul\":2455:2572   */\n      iszero\n      tag_133\n      jumpi\n        /* \"#utility.yul\":2491:2570   */\n      tag_134\n      tag_131\n      jump\t// in\n    tag_134:\n        /* \"#utility.yul\":2455:2572   */\n    tag_133:\n        /* \"#utility.yul\":2611:2670   */\n      tag_135\n        /* \"#utility.yul\":2666:2669   */\n      dup5\n        /* \"#utility.yul\":2657:2663   */\n      dup3\n        /* \"#utility.yul\":2646:2655   */\n      dup6\n        /* \"#utility.yul\":2642:2664   */\n      add\n        /* \"#utility.yul\":2611:2670   */\n      tag_118\n      jump\t// in\n    tag_135:\n        /* \"#utility.yul\":2604:2608   */\n      0x20\n        /* \"#utility.yul\":2597:2602   */\n      dup4\n        /* \"#utility.yul\":2593:2609   */\n      add\n        /* \"#utility.yul\":2586:2671   */\n      mstore\n        /* \"#utility.yul\":2352:2682   */\n      pop\n        /* \"#utility.yul\":2757:2759   */\n      0x40\n        /* \"#utility.yul\":2798:2847   */\n      tag_136\n        /* \"#utility.yul\":2843:2846   */\n      dup5\n        /* \"#utility.yul\":2834:2840   */\n      dup3\n        /* \"#utility.yul\":2823:2832   */\n      dup6\n        /* \"#utility.yul\":2819:2841   */\n      add\n        /* \"#utility.yul\":2798:2847   */\n      tag_108\n      jump\t// in\n    tag_136:\n        /* \"#utility.yul\":2791:2795   */\n      0x40\n        /* \"#utility.yul\":2784:2789   */\n      dup4\n        /* \"#utility.yul\":2780:2796   */\n      add\n        /* \"#utility.yul\":2773:2848   */\n      mstore\n        /* \"#utility.yul\":2692:2859   */\n      pop\n        /* \"#utility.yul\":2951:2953   */\n      0x60\n        /* \"#utility.yul\":2940:2949   */\n      dup3\n        /* \"#utility.yul\":2936:2954   */\n      add\n        /* \"#utility.yul\":2923:2955   */\n      calldataload\n        /* \"#utility.yul\":2982:3000   */\n      0xffffffffffffffff\n        /* \"#utility.yul\":2974:2980   */\n      dup2\n        /* \"#utility.yul\":2971:3001   */\n      gt\n        /* \"#utility.yul\":2968:3085   */\n      iszero\n      tag_137\n      jumpi\n        /* \"#utility.yul\":3004:3083   */\n      tag_138\n      tag_131\n      jump\t// in\n    tag_138:\n        /* \"#utility.yul\":2968:3085   */\n    tag_137:\n        /* \"#utility.yul\":3124:3182   */\n      tag_139\n        /* \"#utility.yul\":3178:3181   */\n      dup5\n        /* \"#utility.yul\":3169:3175   */\n      dup3\n        /* \"#utility.yul\":3158:3167   */\n      dup6\n        /* \"#utility.yul\":3154:3176   */\n      add\n        /* \"#utility.yul\":3124:3182   */\n      tag_112\n      jump\t// in\n    tag_139:\n        /* \"#utility.yul\":3117:3121   */\n      0x60\n        /* \"#utility.yul\":3110:3115   */\n      dup4\n        /* \"#utility.yul\":3106:3122   */\n      add\n        /* \"#utility.yul\":3099:3183   */\n      mstore\n        /* \"#utility.yul\":2869:3194   */\n      pop\n        /* \"#utility.yul\":1752:3201   */\n      swap3\n      swap2\n      pop\n      pop\n      jump\t// out\n        /* \"#utility.yul\":3207:3760   */\n    tag_6:\n        /* \"#utility.yul\":3298:3304   */\n      0x00\n        /* \"#utility.yul\":3347:3349   */\n      0x20\n        /* \"#utility.yul\":3335:3344   */\n      dup3\n        /* \"#utility.yul\":3326:3333   */\n      dup5\n        /* \"#utility.yul\":3322:3345   */\n      sub\n        /* \"#utility.yul\":3318:3350   */\n      slt\n        /* \"#utility.yul\":3315:3434   */\n      iszero\n      tag_141\n      jumpi\n        /* \"#utility.yul\":3353:3432   */\n      tag_142\n      tag_143\n      jump\t// in\n    tag_142:\n        /* \"#utility.yul\":3315:3434   */\n    tag_141:\n        /* \"#utility.yul\":3501:3502   */\n      0x00\n        /* \"#utility.yul\":3490:3499   */\n      dup3\n        /* \"#utility.yul\":3486:3503   */\n      add\n        /* \"#utility.yul\":3473:3504   */\n      calldataload\n        /* \"#utility.yul\":3531:3549   */\n      0xffffffffffffffff\n        /* \"#utility.yul\":3523:3529   */\n      dup2\n        /* \"#utility.yul\":3520:3550   */\n      gt\n        /* \"#utility.yul\":3517:3634   */\n      iszero\n      tag_144\n      jumpi\n        /* \"#utility.yul\":3553:3632   */\n      tag_145\n      tag_146\n      jump\t// in\n    tag_145:\n        /* \"#utility.yul\":3517:3634   */\n    tag_144:\n        /* \"#utility.yul\":3658:3743   */\n      tag_147\n        /* \"#utility.yul\":3735:3742   */\n      dup5\n        /* \"#utility.yul\":3726:3732   */\n      dup3\n        /* \"#utility.yul\":3715:3724   */\n      dup6\n        /* \"#utility.yul\":3711:3733   */\n      add\n        /* \"#utility.yul\":3658:3743   */\n      tag_123\n      jump\t// in\n    tag_147:\n        /* \"#utility.yul\":3648:3743   */\n      swap2\n      pop\n        /* \"#utility.yul\":3444:3753   */\n      pop\n        /* \"#utility.yul\":3207:3760   */\n      swap3\n      swap2\n      pop\n      pop\n      jump\t// out\n        /* \"#utility.yul\":3766:3884   */\n    tag_148:\n        /* \"#utility.yul\":3853:3877   */\n      tag_150\n        /* \"#utility.yul\":3871:3876   */\n      dup2\n        /* \"#utility.yul\":3853:3877   */\n      tag_151\n      jump\t// in\n    tag_150:\n        /* \"#utility.yul\":3848:3851   */\n      dup3\n        /* \"#utility.yul\":3841:3878   */\n      mstore\n        /* \"#utility.yul\":3766:3884   */\n      pop\n      pop\n      jump\t// out\n        /* \"#utility.yul\":3890:4008   */\n    tag_152:\n        /* \"#utility.yul\":3977:4001   */\n      tag_154\n        /* \"#utility.yul\":3995:4000   */\n      dup2\n        /* \"#utility.yul\":3977:4001   */\n      tag_155\n      jump\t// in\n    tag_154:\n        /* \"#utility.yul\":3972:3975   */\n      dup3\n        /* \"#utility.yul\":3965:4002   */\n      mstore\n        /* \"#utility.yul\":3890:4008   */\n      pop\n      pop\n      jump\t// out\n        /* \"#utility.yul\":4014:4171   */\n    tag_156:\n        /* \"#utility.yul\":4119:4164   */\n      tag_158\n        /* \"#utility.yul\":4139:4163   */\n      tag_159\n        /* \"#utility.yul\":4157:4162   */\n      dup3\n        /* \"#utility.yul\":4139:4163   */\n      tag_155\n      jump\t// in\n    tag_159:\n        /* \"#utility.yul\":4119:4164   */\n      tag_160\n      jump\t// in\n    tag_158:\n        /* \"#utility.yul\":4114:4117   */\n      dup3\n        /* \"#utility.yul\":4107:4165   */\n      mstore\n        /* \"#utility.yul\":4014:4171   */\n      pop\n      pop\n      jump\t// out\n        /* \"#utility.yul\":4177:4543   */\n    tag_161:\n        /* \"#utility.yul\":4319:4322   */\n      0x00\n        /* \"#utility.yul\":4340:4407   */\n      tag_163\n        /* \"#utility.yul\":4404:4406   */\n      0x18\n        /* \"#utility.yul\":4399:4402   */\n      dup4\n        /* \"#utility.yul\":4340:4407   */\n      tag_164\n      jump\t// in\n    tag_163:\n        /* \"#utility.yul\":4333:4407   */\n      swap2\n      pop\n        /* \"#utility.yul\":4416:4509   */\n      tag_165\n        /* \"#utility.yul\":4505:4508   */\n      dup3\n        /* \"#utility.yul\":4416:4509   */\n      tag_166\n      jump\t// in\n    tag_165:\n        /* \"#utility.yul\":4534:4536   */\n      0x20\n        /* \"#utility.yul\":4529:4532   */\n      dup3\n        /* \"#utility.yul\":4525:4537   */\n      add\n        /* \"#utility.yul\":4518:4537   */\n      swap1\n      pop\n        /* \"#utility.yul\":4177:4543   */\n      swap2\n      swap1\n      pop\n      jump\t// out\n        /* \"#utility.yul\":4549:4915   */\n    tag_167:\n        /* \"#utility.yul\":4691:4694   */\n      0x00\n        /* \"#utility.yul\":4712:4779   */\n      tag_169\n        /* \"#utility.yul\":4776:4778   */\n      0x1f\n        /* \"#utility.yul\":4771:4774   */\n      dup4\n        /* \"#utility.yul\":4712:4779   */\n      tag_164\n      jump\t// in\n    tag_169:\n        /* \"#utility.yul\":4705:4779   */\n      swap2\n      pop\n        /* \"#utility.yul\":4788:4881   */\n      tag_170\n        /* \"#utility.yul\":4877:4880   */\n      dup3\n        /* \"#utility.yul\":4788:4881   */\n      tag_171\n      jump\t// in\n    tag_170:\n        /* \"#utility.yul\":4906:4908   */\n      0x20\n        /* \"#utility.yul\":4901:4904   */\n      dup3\n        /* \"#utility.yul\":4897:4909   */\n      add\n        /* \"#utility.yul\":4890:4909   */\n      swap1\n      pop\n        /* \"#utility.yul\":4549:4915   */\n      swap2\n      swap1\n      pop\n      jump\t// out\n        /* \"#utility.yul\":4921:5321   */\n    tag_172:\n        /* \"#utility.yul\":5081:5084   */\n      0x00\n        /* \"#utility.yul\":5102:5186   */\n      tag_174\n        /* \"#utility.yul\":5184:5185   */\n      0x02\n        /* \"#utility.yul\":5179:5182   */\n      dup4\n        /* \"#utility.yul\":5102:5186   */\n      tag_175\n      jump\t// in\n    tag_174:\n        /* \"#utility.yul\":5095:5186   */\n      swap2\n      pop\n        /* \"#utility.yul\":5195:5288   */\n      tag_176\n        /* \"#utility.yul\":5284:5287   */\n      dup3\n        /* \"#utility.yul\":5195:5288   */\n      tag_177\n      jump\t// in\n    tag_176:\n        /* \"#utility.yul\":5313:5314   */\n      0x02\n        /* \"#utility.yul\":5308:5311   */\n      dup3\n        /* \"#utility.yul\":5304:5315   */\n      add\n        /* \"#utility.yul\":5297:5315   */\n      swap1\n      pop\n        /* \"#utility.yul\":4921:5321   */\n      swap2\n      swap1\n      pop\n      jump\t// out\n        /* \"#utility.yul\":5327:5693   */\n    tag_178:\n        /* \"#utility.yul\":5469:5472   */\n      0x00\n        /* \"#utility.yul\":5490:5557   */\n      tag_180\n        /* \"#utility.yul\":5554:5556   */\n      0x22\n        /* \"#utility.yul\":5549:5552   */\n      dup4\n        /* \"#utility.yul\":5490:5557   */\n      tag_164\n      jump\t// in\n    tag_180:\n        /* \"#utility.yul\":5483:5557   */\n      swap2\n      pop\n        /* \"#utility.yul\":5566:5659   */\n      tag_181\n        /* \"#utility.yul\":5655:5658   */\n      dup3\n        /* \"#utility.yul\":5566:5659   */\n      tag_182\n      jump\t// in\n    tag_181:\n        /* \"#utility.yul\":5684:5686   */\n      0x40\n        /* \"#utility.yul\":5679:5682   */\n      dup3\n        /* \"#utility.yul\":5675:5687   */\n      add\n        /* \"#utility.yul\":5668:5687   */\n      swap1\n      pop\n        /* \"#utility.yul\":5327:5693   */\n      swap2\n      swap1\n      pop\n      jump\t// out\n        /* \"#utility.yul\":5699:5817   */\n    tag_183:\n        /* \"#utility.yul\":5786:5810   */\n      tag_185\n        /* \"#utility.yul\":5804:5809   */\n      dup2\n        /* \"#utility.yul\":5786:5810   */\n      tag_186\n      jump\t// in\n    tag_185:\n        /* \"#utility.yul\":5781:5784   */\n      dup3\n        /* \"#utility.yul\":5774:5811   */\n      mstore\n        /* \"#utility.yul\":5699:5817   */\n      pop\n      pop\n      jump\t// out\n        /* \"#utility.yul\":5823:5935   */\n    tag_187:\n        /* \"#utility.yul\":5906:5928   */\n      tag_189\n        /* \"#utility.yul\":5922:5927   */\n      dup2\n        /* \"#utility.yul\":5906:5928   */\n      tag_190\n      jump\t// in\n    tag_189:\n        /* \"#utility.yul\":5901:5904   */\n      dup3\n        /* \"#utility.yul\":5894:5929   */\n      mstore\n        /* \"#utility.yul\":5823:5935   */\n      pop\n      pop\n      jump\t// out\n        /* \"#utility.yul\":5941:6604   */\n    tag_77:\n        /* \"#utility.yul\":6182:6185   */\n      0x00\n        /* \"#utility.yul\":6204:6352   */\n      tag_192\n        /* \"#utility.yul\":6348:6351   */\n      dup3\n        /* \"#utility.yul\":6204:6352   */\n      tag_172\n      jump\t// in\n    tag_192:\n        /* \"#utility.yul\":6197:6352   */\n      swap2\n      pop\n        /* \"#utility.yul\":6362:6437   */\n      tag_193\n        /* \"#utility.yul\":6433:6436   */\n      dup3\n        /* \"#utility.yul\":6424:6430   */\n      dup6\n        /* \"#utility.yul\":6362:6437   */\n      tag_156\n      jump\t// in\n    tag_193:\n        /* \"#utility.yul\":6462:6464   */\n      0x20\n        /* \"#utility.yul\":6457:6460   */\n      dup3\n        /* \"#utility.yul\":6453:6465   */\n      add\n        /* \"#utility.yul\":6446:6465   */\n      swap2\n      pop\n        /* \"#utility.yul\":6475:6550   */\n      tag_194\n        /* \"#utility.yul\":6546:6549   */\n      dup3\n        /* \"#utility.yul\":6537:6543   */\n      dup5\n        /* \"#utility.yul\":6475:6550   */\n      tag_156\n      jump\t// in\n    tag_194:\n        /* \"#utility.yul\":6575:6577   */\n      0x20\n        /* \"#utility.yul\":6570:6573   */\n      dup3\n        /* \"#utility.yul\":6566:6578   */\n      add\n        /* \"#utility.yul\":6559:6578   */\n      swap2\n      pop\n        /* \"#utility.yul\":6595:6598   */\n      dup2\n        /* \"#utility.yul\":6588:6598   */\n      swap1\n      pop\n        /* \"#utility.yul\":5941:6604   */\n      swap4\n      swap3\n      pop\n      pop\n      pop\n      jump\t// out\n        /* \"#utility.yul\":6610:6832   */\n    tag_9:\n        /* \"#utility.yul\":6703:6707   */\n      0x00\n        /* \"#utility.yul\":6741:6743   */\n      0x20\n        /* \"#utility.yul\":6730:6739   */\n      dup3\n        /* \"#utility.yul\":6726:6744   */\n      add\n        /* \"#utility.yul\":6718:6744   */\n      swap1\n      pop\n        /* \"#utility.yul\":6754:6825   */\n      tag_196\n        /* \"#utility.yul\":6822:6823   */\n      0x00\n        /* \"#utility.yul\":6811:6820   */\n      dup4\n        /* \"#utility.yul\":6807:6824   */\n      add\n        /* \"#utility.yul\":6798:6804   */\n      dup5\n        /* \"#utility.yul\":6754:6825   */\n      tag_148\n      jump\t// in\n    tag_196:\n        /* \"#utility.yul\":6610:6832   */\n      swap3\n      swap2\n      pop\n      pop\n      jump\t// out\n        /* \"#utility.yul\":6838:7391   */\n    tag_21:\n        /* \"#utility.yul\":7015:7019   */\n      0x00\n        /* \"#utility.yul\":7053:7056   */\n      0x80\n        /* \"#utility.yul\":7042:7051   */\n      dup3\n        /* \"#utility.yul\":7038:7057   */\n      add\n        /* \"#utility.yul\":7030:7057   */\n      swap1\n      pop\n        /* \"#utility.yul\":7067:7138   */\n      tag_198\n        /* \"#utility.yul\":7135:7136   */\n      0x00\n        /* \"#utility.yul\":7124:7133   */\n      dup4\n        /* \"#utility.yul\":7120:7137   */\n      add\n        /* \"#utility.yul\":7111:7117   */\n      dup8\n        /* \"#utility.yul\":7067:7138   */\n      tag_152\n      jump\t// in\n    tag_198:\n        /* \"#utility.yul\":7148:7220   */\n      tag_199\n        /* \"#utility.yul\":7216:7218   */\n      0x20\n        /* \"#utility.yul\":7205:7214   */\n      dup4\n        /* \"#utility.yul\":7201:7219   */\n      add\n        /* \"#utility.yul\":7192:7198   */\n      dup7\n        /* \"#utility.yul\":7148:7220   */\n      tag_152\n      jump\t// in\n    tag_199:\n        /* \"#utility.yul\":7230:7302   */\n      tag_200\n        /* \"#utility.yul\":7298:7300   */\n      0x40\n        /* \"#utility.yul\":7287:7296   */\n      dup4\n        /* \"#utility.yul\":7283:7301   */\n      add\n        /* \"#utility.yul\":7274:7280   */\n      dup6\n        /* \"#utility.yul\":7230:7302   */\n      tag_152\n      jump\t// in\n    tag_200:\n        /* \"#utility.yul\":7312:7384   */\n      tag_201\n        /* \"#utility.yul\":7380:7382   */\n      0x60\n        /* \"#utility.yul\":7369:7378   */\n      dup4\n        /* \"#utility.yul\":7365:7383   */\n      add\n        /* \"#utility.yul\":7356:7362   */\n      dup5\n        /* \"#utility.yul\":7312:7384   */\n      tag_148\n      jump\t// in\n    tag_201:\n        /* \"#utility.yul\":6838:7391   */\n      swap6\n      swap5\n      pop\n      pop\n      pop\n      pop\n      pop\n      jump\t// out\n        /* \"#utility.yul\":7397:8061   */\n    tag_87:\n        /* \"#utility.yul\":7602:7606   */\n      0x00\n        /* \"#utility.yul\":7640:7643   */\n      0xa0\n        /* \"#utility.yul\":7629:7638   */\n      dup3\n        /* \"#utility.yul\":7625:7644   */\n      add\n        /* \"#utility.yul\":7617:7644   */\n      swap1\n      pop\n        /* \"#utility.yul\":7654:7725   */\n      tag_203\n        /* \"#utility.yul\":7722:7723   */\n      0x00\n        /* \"#utility.yul\":7711:7720   */\n      dup4\n        /* \"#utility.yul\":7707:7724   */\n      add\n        /* \"#utility.yul\":7698:7704   */\n      dup9\n        /* \"#utility.yul\":7654:7725   */\n      tag_152\n      jump\t// in\n    tag_203:\n        /* \"#utility.yul\":7735:7807   */\n      tag_204\n        /* \"#utility.yul\":7803:7805   */\n      0x20\n        /* \"#utility.yul\":7792:7801   */\n      dup4\n        /* \"#utility.yul\":7788:7806   */\n      add\n        /* \"#utility.yul\":7779:7785   */\n      dup8\n        /* \"#utility.yul\":7735:7807   */\n      tag_152\n      jump\t// in\n    tag_204:\n        /* \"#utility.yul\":7817:7889   */\n      tag_205\n        /* \"#utility.yul\":7885:7887   */\n      0x40\n        /* \"#utility.yul\":7874:7883   */\n      dup4\n        /* \"#utility.yul\":7870:7888   */\n      add\n        /* \"#utility.yul\":7861:7867   */\n      dup7\n        /* \"#utility.yul\":7817:7889   */\n      tag_152\n      jump\t// in\n    tag_205:\n        /* \"#utility.yul\":7899:7971   */\n      tag_206\n        /* \"#utility.yul\":7967:7969   */\n      0x60\n        /* \"#utility.yul\":7956:7965   */\n      dup4\n        /* \"#utility.yul\":7952:7970   */\n      add\n        /* \"#utility.yul\":7943:7949   */\n      dup6\n        /* \"#utility.yul\":7899:7971   */\n      tag_183\n      jump\t// in\n    tag_206:\n        /* \"#utility.yul\":7981:8054   */\n      tag_207\n        /* \"#utility.yul\":8049:8052   */\n      0x80\n        /* \"#utility.yul\":8038:8047   */\n      dup4\n        /* \"#utility.yul\":8034:8053   */\n      add\n        /* \"#utility.yul\":8025:8031   */\n      dup5\n        /* \"#utility.yul\":7981:8054   */\n      tag_148\n      jump\t// in\n    tag_207:\n        /* \"#utility.yul\":7397:8061   */\n      swap7\n      swap6\n      pop\n      pop\n      pop\n      pop\n      pop\n      pop\n      jump\t// out\n        /* \"#utility.yul\":8067:8612   */\n    tag_81:\n        /* \"#utility.yul\":8240:8244   */\n      0x00\n        /* \"#utility.yul\":8278:8281   */\n      0x80\n        /* \"#utility.yul\":8267:8276   */\n      dup3\n        /* \"#utility.yul\":8263:8282   */\n      add\n        /* \"#utility.yul\":8255:8282   */\n      swap1\n      pop\n        /* \"#utility.yul\":8292:8363   */\n      tag_209\n        /* \"#utility.yul\":8360:8361   */\n      0x00\n        /* \"#utility.yul\":8349:8358   */\n      dup4\n        /* \"#utility.yul\":8345:8362   */\n      add\n        /* \"#utility.yul\":8336:8342   */\n      dup8\n        /* \"#utility.yul\":8292:8363   */\n      tag_152\n      jump\t// in\n    tag_209:\n        /* \"#utility.yul\":8373:8441   */\n      tag_210\n        /* \"#utility.yul\":8437:8439   */\n      0x20\n        /* \"#utility.yul\":8426:8435   */\n      dup4\n        /* \"#utility.yul\":8422:8440   */\n      add\n        /* \"#utility.yul\":8413:8419   */\n      dup7\n        /* \"#utility.yul\":8373:8441   */\n      tag_187\n      jump\t// in\n    tag_210:\n        /* \"#utility.yul\":8451:8523   */\n      tag_211\n        /* \"#utility.yul\":8519:8521   */\n      0x40\n        /* \"#utility.yul\":8508:8517   */\n      dup4\n        /* \"#utility.yul\":8504:8522   */\n      add\n        /* \"#utility.yul\":8495:8501   */\n      dup6\n        /* \"#utility.yul\":8451:8523   */\n      tag_152\n      jump\t// in\n    tag_211:\n        /* \"#utility.yul\":8533:8605   */\n      tag_212\n        /* \"#utility.yul\":8601:8603   */\n      0x60\n        /* \"#utility.yul\":8590:8599   */\n      dup4\n        /* \"#utility.yul\":8586:8604   */\n      add\n        /* \"#utility.yul\":8577:8583   */\n      dup5\n        /* \"#utility.yul\":8533:8605   */\n      tag_152\n      jump\t// in\n    tag_212:\n        /* \"#utility.yul\":8067:8612   */\n      swap6\n      swap5\n      pop\n      pop\n      pop\n      pop\n      pop\n      jump\t// out\n        /* \"#utility.yul\":8618:9037   */\n    tag_52:\n        /* \"#utility.yul\":8784:8788   */\n      0x00\n        /* \"#utility.yul\":8822:8824   */\n      0x20\n        /* \"#utility.yul\":8811:8820   */\n      dup3\n        /* \"#utility.yul\":8807:8825   */\n      add\n        /* \"#utility.yul\":8799:8825   */\n      swap1\n      pop\n        /* \"#utility.yul\":8871:8880   */\n      dup2\n        /* \"#utility.yul\":8865:8869   */\n      dup2\n        /* \"#utility.yul\":8861:8881   */\n      sub\n        /* \"#utility.yul\":8857:8858   */\n      0x00\n        /* \"#utility.yul\":8846:8855   */\n      dup4\n        /* \"#utility.yul\":8842:8859   */\n      add\n        /* \"#utility.yul\":8835:8882   */\n      mstore\n        /* \"#utility.yul\":8899:9030   */\n      tag_214\n        /* \"#utility.yul\":9025:9029   */\n      dup2\n        /* \"#utility.yul\":8899:9030   */\n      tag_161\n      jump\t// in\n    tag_214:\n        /* \"#utility.yul\":8891:9030   */\n      swap1\n      pop\n        /* \"#utility.yul\":8618:9037   */\n      swap2\n      swap1\n      pop\n      jump\t// out\n        /* \"#utility.yul\":9043:9462   */\n    tag_60:\n        /* \"#utility.yul\":9209:9213   */\n      0x00\n        /* \"#utility.yul\":9247:9249   */\n      0x20\n        /* \"#utility.yul\":9236:9245   */\n      dup3\n        /* \"#utility.yul\":9232:9250   */\n      add\n        /* \"#utility.yul\":9224:9250   */\n      swap1\n      pop\n        /* \"#utility.yul\":9296:9305   */\n      dup2\n        /* \"#utility.yul\":9290:9294   */\n      dup2\n        /* \"#utility.yul\":9286:9306   */\n      sub\n        /* \"#utility.yul\":9282:9283   */\n      0x00\n        /* \"#utility.yul\":9271:9280   */\n      dup4\n        /* \"#utility.yul\":9267:9284   */\n      add\n        /* \"#utility.yul\":9260:9307   */\n      mstore\n        /* \"#utility.yul\":9324:9455   */\n      tag_216\n        /* \"#utility.yul\":9450:9454   */\n      dup2\n        /* \"#utility.yul\":9324:9455   */\n      tag_167\n      jump\t// in\n    tag_216:\n        /* \"#utility.yul\":9316:9455   */\n      swap1\n      pop\n        /* \"#utility.yul\":9043:9462   */\n      swap2\n      swap1\n      pop\n      jump\t// out\n        /* \"#utility.yul\":9468:9887   */\n    tag_68:\n        /* \"#utility.yul\":9634:9638   */\n      0x00\n        /* \"#utility.yul\":9672:9674   */\n      0x20\n        /* \"#utility.yul\":9661:9670   */\n      dup3\n        /* \"#utility.yul\":9657:9675   */\n      add\n        /* \"#utility.yul\":9649:9675   */\n      swap1\n      pop\n        /* \"#utility.yul\":9721:9730   */\n      dup2\n        /* \"#utility.yul\":9715:9719   */\n      dup2\n        /* \"#utility.yul\":9711:9731   */\n      sub\n        /* \"#utility.yul\":9707:9708   */\n      0x00\n        /* \"#utility.yul\":9696:9705   */\n      dup4\n        /* \"#utility.yul\":9692:9709   */\n      add\n        /* \"#utility.yul\":9685:9732   */\n      mstore\n        /* \"#utility.yul\":9749:9880   */\n      tag_218\n        /* \"#utility.yul\":9875:9879   */\n      dup2\n        /* \"#utility.yul\":9749:9880   */\n      tag_178\n      jump\t// in\n    tag_218:\n        /* \"#utility.yul\":9741:9880   */\n      swap1\n      pop\n        /* \"#utility.yul\":9468:9887   */\n      swap2\n      swap1\n      pop\n      jump\t// out\n        /* \"#utility.yul\":9893:10022   */\n    tag_94:\n        /* \"#utility.yul\":9927:9933   */\n      0x00\n        /* \"#utility.yul\":9954:9974   */\n      tag_220\n      tag_221\n      jump\t// in\n    tag_220:\n        /* \"#utility.yul\":9944:9974   */\n      swap1\n      pop\n        /* \"#utility.yul\":9983:10016   */\n      tag_222\n        /* \"#utility.yul\":10011:10015   */\n      dup3\n        /* \"#utility.yul\":10003:10009   */\n      dup3\n        /* \"#utility.yul\":9983:10016   */\n      tag_223\n      jump\t// in\n    tag_222:\n        /* \"#utility.yul\":9893:10022   */\n      swap2\n      swap1\n      pop\n      jump\t// out\n        /* \"#utility.yul\":10028:10103   */\n    tag_221:\n        /* \"#utility.yul\":10061:10067   */\n      0x00\n        /* \"#utility.yul\":10094:10096   */\n      0x40\n        /* \"#utility.yul\":10088:10097   */\n      mload\n        /* \"#utility.yul\":10078:10097   */\n      swap1\n      pop\n        /* \"#utility.yul\":10028:10103   */\n      swap1\n      jump\t// out\n        /* \"#utility.yul\":10109:10416   */\n    tag_93:\n        /* \"#utility.yul\":10170:10174   */\n      0x00\n        /* \"#utility.yul\":10260:10278   */\n      0xffffffffffffffff\n        /* \"#utility.yul\":10252:10258   */\n      dup3\n        /* \"#utility.yul\":10249:10279   */\n      gt\n        /* \"#utility.yul\":10246:10302   */\n      iszero\n      tag_226\n      jumpi\n        /* \"#utility.yul\":10282:10300   */\n      tag_227\n      tag_228\n      jump\t// in\n    tag_227:\n        /* \"#utility.yul\":10246:10302   */\n    tag_226:\n        /* \"#utility.yul\":10320:10349   */\n      tag_229\n        /* \"#utility.yul\":10342:10348   */\n      dup3\n        /* \"#utility.yul\":10320:10349   */\n      tag_230\n      jump\t// in\n    tag_229:\n        /* \"#utility.yul\":10312:10349   */\n      swap1\n      pop\n        /* \"#utility.yul\":10404:10408   */\n      0x20\n        /* \"#utility.yul\":10398:10402   */\n      dup2\n        /* \"#utility.yul\":10394:10409   */\n      add\n        /* \"#utility.yul\":10386:10409   */\n      swap1\n      pop\n        /* \"#utility.yul\":10109:10416   */\n      swap2\n      swap1\n      pop\n      jump\t// out\n        /* \"#utility.yul\":10422:10730   */\n    tag_104:\n        /* \"#utility.yul\":10484:10488   */\n      0x00\n        /* \"#utility.yul\":10574:10592   */\n      0xffffffffffffffff\n        /* \"#utility.yul\":10566:10572   */\n      dup3\n        /* \"#utility.yul\":10563:10593   */\n      gt\n        /* \"#utility.yul\":10560:10616   */\n      iszero\n      tag_232\n      jumpi\n        /* \"#utility.yul\":10596:10614   */\n      tag_233\n      tag_228\n      jump\t// in\n    tag_233:\n        /* \"#utility.yul\":10560:10616   */\n    tag_232:\n        /* \"#utility.yul\":10634:10663   */\n      tag_234\n        /* \"#utility.yul\":10656:10662   */\n      dup3\n        /* \"#utility.yul\":10634:10663   */\n      tag_230\n      jump\t// in\n    tag_234:\n        /* \"#utility.yul\":10626:10663   */\n      swap1\n      pop\n        /* \"#utility.yul\":10718:10722   */\n      0x20\n        /* \"#utility.yul\":10712:10716   */\n      dup2\n        /* \"#utility.yul\":10708:10723   */\n      add\n        /* \"#utility.yul\":10700:10723   */\n      swap1\n      pop\n        /* \"#utility.yul\":10422:10730   */\n      swap2\n      swap1\n      pop\n      jump\t// out\n        /* \"#utility.yul\":10736:10905   */\n    tag_164:\n        /* \"#utility.yul\":10820:10831   */\n      0x00\n        /* \"#utility.yul\":10854:10860   */\n      dup3\n        /* \"#utility.yul\":10849:10852   */\n      dup3\n        /* \"#utility.yul\":10842:10861   */\n      mstore\n        /* \"#utility.yul\":10894:10898   */\n      0x20\n        /* \"#utility.yul\":10889:10892   */\n      dup3\n        /* \"#utility.yul\":10885:10899   */\n      add\n        /* \"#utility.yul\":10870:10899   */\n      swap1\n      pop\n        /* \"#utility.yul\":10736:10905   */\n      swap3\n      swap2\n      pop\n      pop\n      jump\t// out\n        /* \"#utility.yul\":10911:11059   */\n    tag_175:\n        /* \"#utility.yul\":11013:11024   */\n      0x00\n        /* \"#utility.yul\":11050:11053   */\n      dup2\n        /* \"#utility.yul\":11035:11053   */\n      swap1\n      pop\n        /* \"#utility.yul\":10911:11059   */\n      swap3\n      swap2\n      pop\n      pop\n      jump\t// out\n        /* \"#utility.yul\":11065:11161   */\n    tag_151:\n        /* \"#utility.yul\":11102:11109   */\n      0x00\n        /* \"#utility.yul\":11131:11155   */\n      tag_238\n        /* \"#utility.yul\":11149:11154   */\n      dup3\n        /* \"#utility.yul\":11131:11155   */\n      tag_239\n      jump\t// in\n    tag_238:\n        /* \"#utility.yul\":11120:11155   */\n      swap1\n      pop\n        /* \"#utility.yul\":11065:11161   */\n      swap2\n      swap1\n      pop\n      jump\t// out\n        /* \"#utility.yul\":11167:11244   */\n    tag_155:\n        /* \"#utility.yul\":11204:11211   */\n      0x00\n        /* \"#utility.yul\":11233:11238   */\n      dup2\n        /* \"#utility.yul\":11222:11238   */\n      swap1\n      pop\n        /* \"#utility.yul\":11167:11244   */\n      swap2\n      swap1\n      pop\n      jump\t// out\n        /* \"#utility.yul\":11250:11376   */\n    tag_239:\n        /* \"#utility.yul\":11287:11294   */\n      0x00\n        /* \"#utility.yul\":11327:11369   */\n      0xffffffffffffffffffffffffffffffffffffffff\n        /* \"#utility.yul\":11320:11325   */\n      dup3\n        /* \"#utility.yul\":11316:11370   */\n      and\n        /* \"#utility.yul\":11305:11370   */\n      swap1\n      pop\n        /* \"#utility.yul\":11250:11376   */\n      swap2\n      swap1\n      pop\n      jump\t// out\n        /* \"#utility.yul\":11382:11459   */\n    tag_186:\n        /* \"#utility.yul\":11419:11426   */\n      0x00\n        /* \"#utility.yul\":11448:11453   */\n      dup2\n        /* \"#utility.yul\":11437:11453   */\n      swap1\n      pop\n        /* \"#utility.yul\":11382:11459   */\n      swap2\n      swap1\n      pop\n      jump\t// out\n        /* \"#utility.yul\":11465:11551   */\n    tag_190:\n        /* \"#utility.yul\":11500:11507   */\n      0x00\n        /* \"#utility.yul\":11540:11544   */\n      0xff\n        /* \"#utility.yul\":11533:11538   */\n      dup3\n        /* \"#utility.yul\":11529:11545   */\n      and\n        /* \"#utility.yul\":11518:11545   */\n      swap1\n      pop\n        /* \"#utility.yul\":11465:11551   */\n      swap2\n      swap1\n      pop\n      jump\t// out\n        /* \"#utility.yul\":11557:11711   */\n    tag_99:\n        /* \"#utility.yul\":11641:11647   */\n      dup3\n        /* \"#utility.yul\":11636:11639   */\n      dup2\n        /* \"#utility.yul\":11631:11634   */\n      dup4\n        /* \"#utility.yul\":11618:11648   */\n      calldatacopy\n        /* \"#utility.yul\":11703:11704   */\n      0x00\n        /* \"#utility.yul\":11694:11700   */\n      dup4\n        /* \"#utility.yul\":11689:11692   */\n      dup4\n        /* \"#utility.yul\":11685:11701   */\n      add\n        /* \"#utility.yul\":11678:11705   */\n      mstore\n        /* \"#utility.yul\":11557:11711   */\n      pop\n      pop\n      pop\n      jump\t// out\n        /* \"#utility.yul\":11717:11998   */\n    tag_223:\n        /* \"#utility.yul\":11800:11827   */\n      tag_246\n        /* \"#utility.yul\":11822:11826   */\n      dup3\n        /* \"#utility.yul\":11800:11827   */\n      tag_230\n      jump\t// in\n    tag_246:\n        /* \"#utility.yul\":11792:11798   */\n      dup2\n        /* \"#utility.yul\":11788:11828   */\n      add\n        /* \"#utility.yul\":11930:11936   */\n      dup2\n        /* \"#utility.yul\":11918:11928   */\n      dup2\n        /* \"#utility.yul\":11915:11937   */\n      lt\n        /* \"#utility.yul\":11894:11912   */\n      0xffffffffffffffff\n        /* \"#utility.yul\":11882:11892   */\n      dup3\n        /* \"#utility.yul\":11879:11913   */\n      gt\n        /* \"#utility.yul\":11876:11938   */\n      or\n        /* \"#utility.yul\":11873:11961   */\n      iszero\n      tag_247\n      jumpi\n        /* \"#utility.yul\":11941:11959   */\n      tag_248\n      tag_228\n      jump\t// in\n    tag_248:\n        /* \"#utility.yul\":11873:11961   */\n    tag_247:\n        /* \"#utility.yul\":11981:11991   */\n      dup1\n        /* \"#utility.yul\":11977:11979   */\n      0x40\n        /* \"#utility.yul\":11970:11992   */\n      mstore\n        /* \"#utility.yul\":11760:11998   */\n      pop\n        /* \"#utility.yul\":11717:11998   */\n      pop\n      pop\n      jump\t// out\n        /* \"#utility.yul\":12004:12083   */\n    tag_160:\n        /* \"#utility.yul\":12043:12050   */\n      0x00\n        /* \"#utility.yul\":12072:12077   */\n      dup2\n        /* \"#utility.yul\":12061:12077   */\n      swap1\n      pop\n        /* \"#utility.yul\":12004:12083   */\n      swap2\n      swap1\n      pop\n      jump\t// out\n        /* \"#utility.yul\":12089:12269   */\n    tag_41:\n        /* \"#utility.yul\":12137:12214   */\n      0x4e487b7100000000000000000000000000000000000000000000000000000000\n        /* \"#utility.yul\":12134:12135   */\n      0x00\n        /* \"#utility.yul\":12127:12215   */\n      mstore\n        /* \"#utility.yul\":12234:12238   */\n      0x21\n        /* \"#utility.yul\":12231:12232   */\n      0x04\n        /* \"#utility.yul\":12224:12239   */\n      mstore\n        /* \"#utility.yul\":12258:12262   */\n      0x24\n        /* \"#utility.yul\":12255:12256   */\n      0x00\n        /* \"#utility.yul\":12248:12263   */\n      revert\n        /* \"#utility.yul\":12275:12455   */\n    tag_228:\n        /* \"#utility.yul\":12323:12400   */\n      0x4e487b7100000000000000000000000000000000000000000000000000000000\n        /* \"#utility.yul\":12320:12321   */\n      0x00\n        /* \"#utility.yul\":12313:12401   */\n      mstore\n        /* \"#utility.yul\":12420:12424   */\n      0x41\n        /* \"#utility.yul\":12417:12418   */\n      0x04\n        /* \"#utility.yul\":12410:12425   */\n      mstore\n        /* \"#utility.yul\":12444:12448   */\n      0x24\n        /* \"#utility.yul\":12441:12442   */\n      0x00\n        /* \"#utility.yul\":12434:12449   */\n      revert\n        /* \"#utility.yul\":12461:12578   */\n    tag_116:\n        /* \"#utility.yul\":12570:12571   */\n      0x00\n        /* \"#utility.yul\":12567:12568   */\n      dup1\n        /* \"#utility.yul\":12560:12572   */\n      revert\n        /* \"#utility.yul\":12584:12701   */\n    tag_127:\n        /* \"#utility.yul\":12693:12694   */\n      0x00\n        /* \"#utility.yul\":12690:12691   */\n      dup1\n        /* \"#utility.yul\":12683:12695   */\n      revert\n        /* \"#utility.yul\":12707:12824   */\n    tag_131:\n        /* \"#utility.yul\":12816:12817   */\n      0x00\n        /* \"#utility.yul\":12813:12814   */\n      dup1\n        /* \"#utility.yul\":12806:12818   */\n      revert\n        /* \"#utility.yul\":12830:12947   */\n    tag_97:\n        /* \"#utility.yul\":12939:12940   */\n      0x00\n        /* \"#utility.yul\":12936:12937   */\n      dup1\n        /* \"#utility.yul\":12929:12941   */\n      revert\n        /* \"#utility.yul\":12953:13070   */\n    tag_146:\n        /* \"#utility.yul\":13062:13063   */\n      0x00\n        /* \"#utility.yul\":13059:13060   */\n      dup1\n        /* \"#utility.yul\":13052:13064   */\n      revert\n        /* \"#utility.yul\":13076:13193   */\n    tag_143:\n        /* \"#utility.yul\":13185:13186   */\n      0x00\n        /* \"#utility.yul\":13182:13183   */\n      dup1\n        /* \"#utility.yul\":13175:13187   */\n      revert\n        /* \"#utility.yul\":13199:13301   */\n    tag_230:\n        /* \"#utility.yul\":13240:13246   */\n      0x00\n        /* \"#utility.yul\":13291:13293   */\n      0x1f\n        /* \"#utility.yul\":13287:13294   */\n      not\n        /* \"#utility.yul\":13282:13284   */\n      0x1f\n        /* \"#utility.yul\":13275:13280   */\n      dup4\n        /* \"#utility.yul\":13271:13285   */\n      add\n        /* \"#utility.yul\":13267:13295   */\n      and\n        /* \"#utility.yul\":13257:13295   */\n      swap1\n      pop\n        /* \"#utility.yul\":13199:13301   */\n      swap2\n      swap1\n      pop\n      jump\t// out\n        /* \"#utility.yul\":13307:13481   */\n    tag_166:\n        /* \"#utility.yul\":13447:13473   */\n      0x45434453413a20696e76616c6964207369676e61747572650000000000000000\n        /* \"#utility.yul\":13443:13444   */\n      0x00\n        /* \"#utility.yul\":13435:13441   */\n      dup3\n        /* \"#utility.yul\":13431:13445   */\n      add\n        /* \"#utility.yul\":13424:13474   */\n      mstore\n        /* \"#utility.yul\":13307:13481   */\n      pop\n      jump\t// out\n        /* \"#utility.yul\":13487:13668   */\n    tag_171:\n        /* \"#utility.yul\":13627:13660   */\n      0x45434453413a20696e76616c6964207369676e6174757265206c656e67746800\n        /* \"#utility.yul\":13623:13624   */\n      0x00\n        /* \"#utility.yul\":13615:13621   */\n      dup3\n        /* \"#utility.yul\":13611:13625   */\n      add\n        /* \"#utility.yul\":13604:13661   */\n      mstore\n        /* \"#utility.yul\":13487:13668   */\n      pop\n      jump\t// out\n        /* \"#utility.yul\":13674:13888   */\n    tag_177:\n        /* \"#utility.yul\":13814:13880   */\n      0x1901000000000000000000000000000000000000000000000000000000000000\n        /* \"#utility.yul\":13810:13811   */\n      0x00\n        /* \"#utility.yul\":13802:13808   */\n      dup3\n        /* \"#utility.yul\":13798:13812   */\n      add\n        /* \"#utility.yul\":13791:13881   */\n      mstore\n        /* \"#utility.yul\":13674:13888   */\n      pop\n      jump\t// out\n        /* \"#utility.yul\":13894:14115   */\n    tag_182:\n        /* \"#utility.yul\":14034:14068   */\n      0x45434453413a20696e76616c6964207369676e6174757265202773272076616c\n        /* \"#utility.yul\":14030:14031   */\n      0x00\n        /* \"#utility.yul\":14022:14028   */\n      dup3\n        /* \"#utility.yul\":14018:14032   */\n      add\n        /* \"#utility.yul\":14011:14069   */\n      mstore\n        /* \"#utility.yul\":14103:14107   */\n      0x7565000000000000000000000000000000000000000000000000000000000000\n        /* \"#utility.yul\":14098:14100   */\n      0x20\n        /* \"#utility.yul\":14090:14096   */\n      dup3\n        /* \"#utility.yul\":14086:14101   */\n      add\n        /* \"#utility.yul\":14079:14108   */\n      mstore\n        /* \"#utility.yul\":13894:14115   */\n      pop\n      jump\t// out\n        /* \"#utility.yul\":14121:14243   */\n    tag_111:\n        /* \"#utility.yul\":14194:14218   */\n      tag_264\n        /* \"#utility.yul\":14212:14217   */\n      dup2\n        /* \"#utility.yul\":14194:14218   */\n      tag_151\n      jump\t// in\n    tag_264:\n        /* \"#utility.yul\":14187:14192   */\n      dup2\n        /* \"#utility.yul\":14184:14219   */\n      eq\n        /* \"#utility.yul\":14174:14237   */\n      tag_265\n      jumpi\n        /* \"#utility.yul\":14233:14234   */\n      0x00\n        /* \"#utility.yul\":14230:14231   */\n      dup1\n        /* \"#utility.yul\":14223:14235   */\n      revert\n        /* \"#utility.yul\":14174:14237   */\n    tag_265:\n        /* \"#utility.yul\":14121:14243   */\n      pop\n      jump\t// out\n\n    auxdata: 0xa2646970667358221220cea85e36adfa4af8daf0dcadf5cd36f71e19f9b9182ab612ed535a195638231064736f6c63430008070033\n}\n",
				"bytecode": {
					"linkReferences": {},
					"object": "6101406040523480156200001257600080fd5b5060405162001155380380620011558339818101604052810190620000389190620001b1565b818160008280519060200120905060008280519060200120905060007f8b73c3c69bb8fe3d512ecc4cf759cc79239f7b179b0ffacaa9a75d522b39400f90508260e081815250508161010081815250504660a08181525050620000a3818484620000f760201b60201c565b608081815250503073ffffffffffffffffffffffffffffffffffffffff1660c08173ffffffffffffffffffffffffffffffffffffffff1660601b81525050806101208181525050505050505050506200042d565b600083838346306040516020016200011495949392919062000269565b6040516020818303038152906040528051906020012090509392505050565b60006200014a6200014484620002ef565b620002c6565b9050828152602081018484840111156200016957620001686200040d565b5b620001768482856200036d565b509392505050565b600082601f83011262000196576200019562000408565b5b8151620001a884826020860162000133565b91505092915050565b60008060408385031215620001cb57620001ca62000417565b5b600083015167ffffffffffffffff811115620001ec57620001eb62000412565b5b620001fa858286016200017e565b925050602083015167ffffffffffffffff8111156200021e576200021d62000412565b5b6200022c858286016200017e565b9150509250929050565b620002418162000325565b82525050565b620002528162000339565b82525050565b620002638162000363565b82525050565b600060a08201905062000280600083018862000247565b6200028f602083018762000247565b6200029e604083018662000247565b620002ad606083018562000258565b620002bc608083018462000236565b9695505050505050565b6000620002d2620002e5565b9050620002e08282620003a3565b919050565b6000604051905090565b600067ffffffffffffffff8211156200030d576200030c620003d9565b5b62000318826200041c565b9050602081019050919050565b6000620003328262000343565b9050919050565b6000819050919050565b600073ffffffffffffffffffffffffffffffffffffffff82169050919050565b6000819050919050565b60005b838110156200038d57808201518184015260208101905062000370565b838111156200039d576000848401525b50505050565b620003ae826200041c565b810181811067ffffffffffffffff82111715620003d057620003cf620003d9565b5b80604052505050565b7f4e487b7100000000000000000000000000000000000000000000000000000000600052604160045260246000fd5b600080fd5b600080fd5b600080fd5b600080fd5b6000601f19601f8301169050919050565b60805160a05160c05160601c60e0516101005161012051610cd56200048060003960006103bd015260006103ff015260006103de0152600061031301526000610369015260006103920152610cd56000f3fe608060405234801561001057600080fd5b506004361061002b5760003560e01c806330f89e2914610030575b600080fd5b61004a6004803603810190610045919061073a565b610060565b6040516100579190610899565b60405180910390f35b600061006b82610072565b9050919050565b60008061007e83610096565b905061008e81846060015161010e565b915050919050565b60006101077f9980e35fd3e98fb83ed8ba021944828eb14149855296a1d36bc6313f56ef5aa683600001518051906020012084602001518051906020012085604001516040516020016100ec94939291906108b4565b60405160208183030381529060405280519060200120610135565b9050919050565b600080600061011d858561014f565b9150915061012a816101a1565b819250505092915050565b600061014861014261030f565b83610429565b9050919050565b6000806041835114156101915760008060006020860151925060408601519150606086015160001a90506101858782858561045c565b9450945050505061019a565b60006002915091505b9250929050565b600060048111156101b5576101b4610b31565b5b8160048111156101c8576101c7610b31565b5b14156101d35761030c565b600160048111156101e7576101e6610b31565b5b8160048111156101fa576101f9610b31565b5b141561023b576040517f08c379a000000000000000000000000000000000000000000000000000000000815260040161023290610991565b60405180910390fd5b6002600481111561024f5761024e610b31565b5b81600481111561026257610261610b31565b5b14156102a3576040517f08c379a000000000000000000000000000000000000000000000000000000000815260040161029a906109b1565b60405180910390fd5b600360048111156102b7576102b6610b31565b5b8160048111156102ca576102c9610b31565b5b141561030b576040517f08c379a0000000000000000000000000000000000000000000000000000000008152600401610302906109d1565b60405180910390fd5b5b50565b60007f000000000000000000000000000000000000000000000000000000000000000073ffffffffffffffffffffffffffffffffffffffff163073ffffffffffffffffffffffffffffffffffffffff1614801561038b57507f000000000000000000000000000000000000000000000000000000000000000046145b156103b8577f00000000000000000000000000000000000000000000000000000000000000009050610426565b6104237f00000000000000000000000000000000000000000000000000000000000000007f00000000000000000000000000000000000000000000000000000000000000007f000000000000000000000000000000000000000000000000000000000000000061053f565b90505b90565b6000828260405160200161043e929190610862565b60405160208183030381529060405280519060200120905092915050565b6000807f7fffffffffffffffffffffffffffffff5d576e7357a4501ddfe92f46681b20a08360001c1115610497576000600391509150610536565b6000600187878787604051600081526020016040526040516104bc949392919061094c565b6020604051602081039080840390855afa1580156104de573d6000803e3d6000fd5b505050602060405103519050600073ffffffffffffffffffffffffffffffffffffffff168173ffffffffffffffffffffffffffffffffffffffff16141561052d57600060019250925050610536565b80600092509250505b94509492505050565b6000838383463060405160200161055a9594939291906108f9565b6040516020818303038152906040528051906020012090509392505050565b600061058c61058784610a16565b6109f1565b9050828152602081018484840111156105a8576105a7610b9e565b5b6105b3848285610ae7565b509392505050565b60006105ce6105c984610a47565b6109f1565b9050828152602081018484840111156105ea576105e9610b9e565b5b6105f5848285610ae7565b509392505050565b60008135905061060c81610c88565b92915050565b600082601f83011261062757610626610b8f565b5b8135610637848260208601610579565b91505092915050565b600082601f83011261065557610654610b8f565b5b81356106658482602086016105bb565b91505092915050565b60006080828403121561068457610683610b94565b5b61068e60806109f1565b9050600082013567ffffffffffffffff8111156106ae576106ad610b99565b5b6106ba84828501610640565b600083015250602082013567ffffffffffffffff8111156106de576106dd610b99565b5b6106ea84828501610640565b60208301525060406106fe848285016105fd565b604083015250606082013567ffffffffffffffff81111561072257610721610b99565b5b61072e84828501610612565b60608301525092915050565b6000602082840312156107505761074f610ba8565b5b600082013567ffffffffffffffff81111561076e5761076d610ba3565b5b61077a8482850161066e565b91505092915050565b61078c81610a94565b82525050565b61079b81610aa6565b82525050565b6107b26107ad82610aa6565b610b27565b82525050565b60006107c5601883610a78565b91506107d082610bbe565b602082019050919050565b60006107e8601f83610a78565b91506107f382610be7565b602082019050919050565b600061080b600283610a89565b915061081682610c10565b600282019050919050565b600061082e602283610a78565b915061083982610c39565b604082019050919050565b61084d81610ad0565b82525050565b61085c81610ada565b82525050565b600061086d826107fe565b915061087982856107a1565b60208201915061088982846107a1565b6020820191508190509392505050565b60006020820190506108ae6000830184610783565b92915050565b60006080820190506108c96000830187610792565b6108d66020830186610792565b6108e36040830185610792565b6108f06060830184610783565b95945050505050565b600060a08201905061090e6000830188610792565b61091b6020830187610792565b6109286040830186610792565b6109356060830185610844565b6109426080830184610783565b9695505050505050565b60006080820190506109616000830187610792565b61096e6020830186610853565b61097b6040830185610792565b6109886060830184610792565b95945050505050565b600060208201905081810360008301526109aa816107b8565b9050919050565b600060208201905081810360008301526109ca816107db565b9050919050565b600060208201905081810360008301526109ea81610821565b9050919050565b60006109fb610a0c565b9050610a078282610af6565b919050565b6000604051905090565b600067ffffffffffffffff821115610a3157610a30610b60565b5b610a3a82610bad565b9050602081019050919050565b600067ffffffffffffffff821115610a6257610a61610b60565b5b610a6b82610bad565b9050602081019050919050565b600082825260208201905092915050565b600081905092915050565b6000610a9f82610ab0565b9050919050565b6000819050919050565b600073ffffffffffffffffffffffffffffffffffffffff82169050919050565b6000819050919050565b600060ff82169050919050565b82818337600083830152505050565b610aff82610bad565b810181811067ffffffffffffffff82111715610b1e57610b1d610b60565b5b80604052505050565b6000819050919050565b7f4e487b7100000000000000000000000000000000000000000000000000000000600052602160045260246000fd5b7f4e487b7100000000000000000000000000000000000000000000000000000000600052604160045260246000fd5b600080fd5b600080fd5b600080fd5b600080fd5b600080fd5b600080fd5b6000601f19601f8301169050919050565b7f45434453413a20696e76616c6964207369676e61747572650000000000000000600082015250565b7f45434453413a20696e76616c6964207369676e6174757265206c656e67746800600082015250565b7f1901000000000000000000000000000000000000000000000000000000000000600082015250565b7f45434453413a20696e76616c6964207369676e6174757265202773272076616c60008201527f7565000000000000000000000000000000000000000000000000000000000000602082015250565b610c9181610a94565b8114610c9c57600080fd5b5056fea2646970667358221220cea85e36adfa4af8daf0dcadf5cd36f71e19f9b9182ab612ed535a195638231064736f6c63430008070033",
					"opcodes": "PUSH2 0x140 PUSH1 0x40 MSTORE CALLVALUE DUP1 ISZERO PUSH3 0x12 JUMPI PUSH1 0x0 DUP1 REVERT JUMPDEST POP PUSH1 0x40 MLOAD PUSH3 0x1155 CODESIZE SUB DUP1 PUSH3 0x1155 DUP4 CODECOPY DUP2 DUP2 ADD PUSH1 0x40 MSTORE DUP2 ADD SWAP1 PUSH3 0x38 SWAP2 SWAP1 PUSH3 0x1B1 JUMP JUMPDEST DUP2 DUP2 PUSH1 0x0 DUP3 DUP1 MLOAD SWAP1 PUSH1 0x20 ADD KECCAK256 SWAP1 POP PUSH1 0x0 DUP3 DUP1 MLOAD SWAP1 PUSH1 0x20 ADD KECCAK256 SWAP1 POP PUSH1 0x0 PUSH32 0x8B73C3C69BB8FE3D512ECC4CF759CC79239F7B179B0FFACAA9A75D522B39400F SWAP1 POP DUP3 PUSH1 0xE0 DUP2 DUP2 MSTORE POP POP DUP2 PUSH2 0x100 DUP2 DUP2 MSTORE POP POP CHAINID PUSH1 0xA0 DUP2 DUP2 MSTORE POP POP PUSH3 0xA3 DUP2 DUP5 DUP5 PUSH3 0xF7 PUSH1 0x20 SHL PUSH1 0x20 SHR JUMP JUMPDEST PUSH1 0x80 DUP2 DUP2 MSTORE POP POP ADDRESS PUSH20 0xFFFFFFFFFFFFFFFFFFFFFFFFFFFFFFFFFFFFFFFF AND PUSH1 0xC0 DUP2 PUSH20 0xFFFFFFFFFFFFFFFFFFFFFFFFFFFFFFFFFFFFFFFF AND PUSH1 0x60 SHL DUP2 MSTORE POP POP DUP1 PUSH2 0x120 DUP2 DUP2 MSTORE POP POP POP POP POP POP POP POP POP PUSH3 0x42D JUMP JUMPDEST PUSH1 0x0 DUP4 DUP4 DUP4 CHAINID ADDRESS PUSH1 0x40 MLOAD PUSH1 0x20 ADD PUSH3 0x114 SWAP6 SWAP5 SWAP4 SWAP3 SWAP2 SWAP1 PUSH3 0x269 JUMP JUMPDEST PUSH1 0x40 MLOAD PUSH1 0x20 DUP2 DUP4 SUB SUB DUP2 MSTORE SWAP1 PUSH1 0x40 MSTORE DUP1 MLOAD SWAP1 PUSH1 0x20 ADD KECCAK256 SWAP1 POP SWAP4 SWAP3 POP POP POP JUMP JUMPDEST PUSH1 0x0 PUSH3 0x14A PUSH3 0x144 DUP5 PUSH3 0x2EF JUMP JUMPDEST PUSH3 0x2C6 JUMP JUMPDEST SWAP1 POP DUP3 DUP2 MSTORE PUSH1 0x20 DUP2 ADD DUP5 DUP5 DUP5 ADD GT ISZERO PUSH3 0x169 JUMPI PUSH3 0x168 PUSH3 0x40D JUMP JUMPDEST JUMPDEST PUSH3 0x176 DUP5 DUP3 DUP6 PUSH3 0x36D JUMP JUMPDEST POP SWAP4 SWAP3 POP POP POP JUMP JUMPDEST PUSH1 0x0 DUP3 PUSH1 0x1F DUP4 ADD SLT PUSH3 0x196 JUMPI PUSH3 0x195 PUSH3 0x408 JUMP JUMPDEST JUMPDEST DUP2 MLOAD PUSH3 0x1A8 DUP5 DUP3 PUSH1 0x20 DUP7 ADD PUSH3 0x133 JUMP JUMPDEST SWAP2 POP POP SWAP3 SWAP2 POP POP JUMP JUMPDEST PUSH1 0x0 DUP1 PUSH1 0x40 DUP4 DUP6 SUB SLT ISZERO PUSH3 0x1CB JUMPI PUSH3 0x1CA PUSH3 0x417 JUMP JUMPDEST JUMPDEST PUSH1 0x0 DUP4 ADD MLOAD PUSH8 0xFFFFFFFFFFFFFFFF DUP2 GT ISZERO PUSH3 0x1EC JUMPI PUSH3 0x1EB PUSH3 0x412 JUMP JUMPDEST JUMPDEST PUSH3 0x1FA DUP6 DUP3 DUP7 ADD PUSH3 0x17E JUMP JUMPDEST SWAP3 POP POP PUSH1 0x20 DUP4 ADD MLOAD PUSH8 0xFFFFFFFFFFFFFFFF DUP2 GT ISZERO PUSH3 0x21E JUMPI PUSH3 0x21D PUSH3 0x412 JUMP JUMPDEST JUMPDEST PUSH3 0x22C DUP6 DUP3 DUP7 ADD PUSH3 0x17E JUMP JUMPDEST SWAP2 POP POP SWAP3 POP SWAP3 SWAP1 POP JUMP JUMPDEST PUSH3 0x241 DUP2 PUSH3 0x325 JUMP JUMPDEST DUP3 MSTORE POP POP JUMP JUMPDEST PUSH3 0x252 DUP2 PUSH3 0x339 JUMP JUMPDEST DUP3 MSTORE POP POP JUMP JUMPDEST PUSH3 0x263 DUP2 PUSH3 0x363 JUMP JUMPDEST DUP3 MSTORE POP POP JUMP JUMPDEST PUSH1 0x0 PUSH1 0xA0 DUP3 ADD SWAP1 POP PUSH3 0x280 PUSH1 0x0 DUP4 ADD DUP9 PUSH3 0x247 JUMP JUMPDEST PUSH3 0x28F PUSH1 0x20 DUP4 ADD DUP8 PUSH3 0x247 JUMP JUMPDEST PUSH3 0x29E PUSH1 0x40 DUP4 ADD DUP7 PUSH3 0x247 JUMP JUMPDEST PUSH3 0x2AD PUSH1 0x60 DUP4 ADD DUP6 PUSH3 0x258 JUMP JUMPDEST PUSH3 0x2BC PUSH1 0x80 DUP4 ADD DUP5 PUSH3 0x236 JUMP JUMPDEST SWAP7 SWAP6 POP POP POP POP POP POP JUMP JUMPDEST PUSH1 0x0 PUSH3 0x2D2 PUSH3 0x2E5 JUMP JUMPDEST SWAP1 POP PUSH3 0x2E0 DUP3 DUP3 PUSH3 0x3A3 JUMP JUMPDEST SWAP2 SWAP1 POP JUMP JUMPDEST PUSH1 0x0 PUSH1 0x40 MLOAD SWAP1 POP SWAP1 JUMP JUMPDEST PUSH1 0x0 PUSH8 0xFFFFFFFFFFFFFFFF DUP3 GT ISZERO PUSH3 0x30D JUMPI PUSH3 0x30C PUSH3 0x3D9 JUMP JUMPDEST JUMPDEST PUSH3 0x318 DUP3 PUSH3 0x41C JUMP JUMPDEST SWAP1 POP PUSH1 0x20 DUP2 ADD SWAP1 POP SWAP2 SWAP1 POP JUMP JUMPDEST PUSH1 0x0 PUSH3 0x332 DUP3 PUSH3 0x343 JUMP JUMPDEST SWAP1 POP SWAP2 SWAP1 POP JUMP JUMPDEST PUSH1 0x0 DUP2 SWAP1 POP SWAP2 SWAP1 POP JUMP JUMPDEST PUSH1 0x0 PUSH20 0xFFFFFFFFFFFFFFFFFFFFFFFFFFFFFFFFFFFFFFFF DUP3 AND SWAP1 POP SWAP2 SWAP1 POP JUMP JUMPDEST PUSH1 0x0 DUP2 SWAP1 POP SWAP2 SWAP1 POP JUMP JUMPDEST PUSH1 0x0 JUMPDEST DUP4 DUP2 LT ISZERO PUSH3 0x38D JUMPI DUP1 DUP3 ADD MLOAD DUP2 DUP5 ADD MSTORE PUSH1 0x20 DUP2 ADD SWAP1 POP PUSH3 0x370 JUMP JUMPDEST DUP4 DUP2 GT ISZERO PUSH3 0x39D JUMPI PUSH1 0x0 DUP5 DUP5 ADD MSTORE JUMPDEST POP POP POP POP JUMP JUMPDEST PUSH3 0x3AE DUP3 PUSH3 0x41C JUMP JUMPDEST DUP2 ADD DUP2 DUP2 LT PUSH8 0xFFFFFFFFFFFFFFFF DUP3 GT OR ISZERO PUSH3 0x3D0 JUMPI PUSH3 0x3CF PUSH3 0x3D9 JUMP JUMPDEST JUMPDEST DUP1 PUSH1 0x40 MSTORE POP POP POP JUMP JUMPDEST PUSH32 0x4E487B7100000000000000000000000000000000000000000000000000000000 PUSH1 0x0 MSTORE PUSH1 0x41 PUSH1 0x4 MSTORE PUSH1 0x24 PUSH1 0x0 REVERT JUMPDEST PUSH1 0x0 DUP1 REVERT JUMPDEST PUSH1 0x0 DUP1 REVERT JUMPDEST PUSH1 0x0 DUP1 REVERT JUMPDEST PUSH1 0x0 DUP1 REVERT JUMPDEST PUSH1 0x0 PUSH1 0x1F NOT PUSH1 0x1F DUP4 ADD AND SWAP1 POP SWAP2 SWAP1 POP JUMP JUMPDEST PUSH1 0x80 MLOAD PUSH1 0xA0 MLOAD PUSH1 0xC0 MLOAD PUSH1 0x60 SHR PUSH1 0xE0 MLOAD PUSH2 0x100 MLOAD PUSH2 0x120 MLOAD PUSH2 0xCD5 PUSH3 0x480 PUSH1 0x0 CODECOPY PUSH1 0x0 PUSH2 0x3BD ADD MSTORE PUSH1 0x0 PUSH2 0x3FF ADD MSTORE PUSH1 0x0 PUSH2 0x3DE ADD MSTORE PUSH1 0x0 PUSH2 0x313 ADD MSTORE PUSH1 0x0 PUSH2 0x369 ADD MSTORE PUSH1 0x0 PUSH2 0x392 ADD MSTORE PUSH2 0xCD5 PUSH1 0x0 RETURN INVALID PUSH1 0x80 PUSH1 0x40 MSTORE CALLVALUE DUP1 ISZERO PUSH2 0x10 JUMPI PUSH1 0x0 DUP1 REVERT JUMPDEST POP PUSH1 0x4 CALLDATASIZE LT PUSH2 0x2B JUMPI PUSH1 0x0 CALLDATALOAD PUSH1 0xE0 SHR DUP1 PUSH4 0x30F89E29 EQ PUSH2 0x30 JUMPI JUMPDEST PUSH1 0x0 DUP1 REVERT JUMPDEST PUSH2 0x4A PUSH1 0x4 DUP1 CALLDATASIZE SUB DUP2 ADD SWAP1 PUSH2 0x45 SWAP2 SWAP1 PUSH2 0x73A JUMP JUMPDEST PUSH2 0x60 JUMP JUMPDEST PUSH1 0x40 MLOAD PUSH2 0x57 SWAP2 SWAP1 PUSH2 0x899 JUMP JUMPDEST PUSH1 0x40 MLOAD DUP1 SWAP2 SUB SWAP1 RETURN JUMPDEST PUSH1 0x0 PUSH2 0x6B DUP3 PUSH2 0x72 JUMP JUMPDEST SWAP1 POP SWAP2 SWAP1 POP JUMP JUMPDEST PUSH1 0x0 DUP1 PUSH2 0x7E DUP4 PUSH2 0x96 JUMP JUMPDEST SWAP1 POP PUSH2 0x8E DUP2 DUP5 PUSH1 0x60 ADD MLOAD PUSH2 0x10E JUMP JUMPDEST SWAP2 POP POP SWAP2 SWAP1 POP JUMP JUMPDEST PUSH1 0x0 PUSH2 0x107 PUSH32 0x9980E35FD3E98FB83ED8BA021944828EB14149855296A1D36BC6313F56EF5AA6 DUP4 PUSH1 0x0 ADD MLOAD DUP1 MLOAD SWAP1 PUSH1 0x20 ADD KECCAK256 DUP5 PUSH1 0x20 ADD MLOAD DUP1 MLOAD SWAP1 PUSH1 0x20 ADD KECCAK256 DUP6 PUSH1 0x40 ADD MLOAD PUSH1 0x40 MLOAD PUSH1 0x20 ADD PUSH2 0xEC SWAP5 SWAP4 SWAP3 SWAP2 SWAP1 PUSH2 0x8B4 JUMP JUMPDEST PUSH1 0x40 MLOAD PUSH1 0x20 DUP2 DUP4 SUB SUB DUP2 MSTORE SWAP1 PUSH1 0x40 MSTORE DUP1 MLOAD SWAP1 PUSH1 0x20 ADD KECCAK256 PUSH2 0x135 JUMP JUMPDEST SWAP1 POP SWAP2 SWAP1 POP JUMP JUMPDEST PUSH1 0x0 DUP1 PUSH1 0x0 PUSH2 0x11D DUP6 DUP6 PUSH2 0x14F JUMP JUMPDEST SWAP2 POP SWAP2 POP PUSH2 0x12A DUP2 PUSH2 0x1A1 JUMP JUMPDEST DUP2 SWAP3 POP POP POP SWAP3 SWAP2 POP POP JUMP JUMPDEST PUSH1 0x0 PUSH2 0x148 PUSH2 0x142 PUSH2 0x30F JUMP JUMPDEST DUP4 PUSH2 0x429 JUMP JUMPDEST SWAP1 POP SWAP2 SWAP1 POP JUMP JUMPDEST PUSH1 0x0 DUP1 PUSH1 0x41 DUP4 MLOAD EQ ISZERO PUSH2 0x191 JUMPI PUSH1 0x0 DUP1 PUSH1 0x0 PUSH1 0x20 DUP7 ADD MLOAD SWAP3 POP PUSH1 0x40 DUP7 ADD MLOAD SWAP2 POP PUSH1 0x60 DUP7 ADD MLOAD PUSH1 0x0 BYTE SWAP1 POP PUSH2 0x185 DUP8 DUP3 DUP6 DUP6 PUSH2 0x45C JUMP JUMPDEST SWAP5 POP SWAP5 POP POP POP POP PUSH2 0x19A JUMP JUMPDEST PUSH1 0x0 PUSH1 0x2 SWAP2 POP SWAP2 POP JUMPDEST SWAP3 POP SWAP3 SWAP1 POP JUMP JUMPDEST PUSH1 0x0 PUSH1 0x4 DUP2 GT ISZERO PUSH2 0x1B5 JUMPI PUSH2 0x1B4 PUSH2 0xB31 JUMP JUMPDEST JUMPDEST DUP2 PUSH1 0x4 DUP2 GT ISZERO PUSH2 0x1C8 JUMPI PUSH2 0x1C7 PUSH2 0xB31 JUMP JUMPDEST JUMPDEST EQ ISZERO PUSH2 0x1D3 JUMPI PUSH2 0x30C JUMP JUMPDEST PUSH1 0x1 PUSH1 0x4 DUP2 GT ISZERO PUSH2 0x1E7 JUMPI PUSH2 0x1E6 PUSH2 0xB31 JUMP JUMPDEST JUMPDEST DUP2 PUSH1 0x4 DUP2 GT ISZERO PUSH2 0x1FA JUMPI PUSH2 0x1F9 PUSH2 0xB31 JUMP JUMPDEST JUMPDEST EQ ISZERO PUSH2 0x23B JUMPI PUSH1 0x40 MLOAD PUSH32 0x8C379A000000000000000000000000000000000000000000000000000000000 DUP2 MSTORE PUSH1 0x4 ADD PUSH2 0x232 SWAP1 PUSH2 0x991 JUMP JUMPDEST PUSH1 0x40 MLOAD DUP1 SWAP2 SUB SWAP1 REVERT JUMPDEST PUSH1 0x2 PUSH1 0x4 DUP2 GT ISZERO PUSH2 0x24F JUMPI PUSH2 0x24E PUSH2 0xB31 JUMP JUMPDEST JUMPDEST DUP2 PUSH1 0x4 DUP2 GT ISZERO PUSH2 0x262 JUMPI PUSH2 0x261 PUSH2 0xB31 JUMP JUMPDEST JUMPDEST EQ ISZERO PUSH2 0x2A3 JUMPI PUSH1 0x40 MLOAD PUSH32 0x8C379A000000000000000000000000000000000000000000000000000000000 DUP2 MSTORE PUSH1 0x4 ADD PUSH2 0x29A SWAP1 PUSH2 0x9B1 JUMP JUMPDEST PUSH1 0x40 MLOAD DUP1 SWAP2 SUB SWAP1 REVERT JUMPDEST PUSH1 0x3 PUSH1 0x4 DUP2 GT ISZERO PUSH2 0x2B7 JUMPI PUSH2 0x2B6 PUSH2 0xB31 JUMP JUMPDEST JUMPDEST DUP2 PUSH1 0x4 DUP2 GT ISZERO PUSH2 0x2CA JUMPI PUSH2 0x2C9 PUSH2 0xB31 JUMP JUMPDEST JUMPDEST EQ ISZERO PUSH2 0x30B JUMPI PUSH1 0x40 MLOAD PUSH32 0x8C379A000000000000000000000000000000000000000000000000000000000 DUP2 MSTORE PUSH1 0x4 ADD PUSH2 0x302 SWAP1 PUSH2 0x9D1 JUMP JUMPDEST PUSH1 0x40 MLOAD DUP1 SWAP2 SUB SWAP1 REVERT JUMPDEST JUMPDEST POP JUMP JUMPDEST PUSH1 0x0 PUSH32 0x0 PUSH20 0xFFFFFFFFFFFFFFFFFFFFFFFFFFFFFFFFFFFFFFFF AND ADDRESS PUSH20 0xFFFFFFFFFFFFFFFFFFFFFFFFFFFFFFFFFFFFFFFF AND EQ DUP1 ISZERO PUSH2 0x38B JUMPI POP PUSH32 0x0 CHAINID EQ JUMPDEST ISZERO PUSH2 0x3B8 JUMPI PUSH32 0x0 SWAP1 POP PUSH2 0x426 JUMP JUMPDEST PUSH2 0x423 PUSH32 0x0 PUSH32 0x0 PUSH32 0x0 PUSH2 0x53F JUMP JUMPDEST SWAP1 POP JUMPDEST SWAP1 JUMP JUMPDEST PUSH1 0x0 DUP3 DUP3 PUSH1 0x40 MLOAD PUSH1 0x20 ADD PUSH2 0x43E SWAP3 SWAP2 SWAP1 PUSH2 0x862 JUMP JUMPDEST PUSH1 0x40 MLOAD PUSH1 0x20 DUP2 DUP4 SUB SUB DUP2 MSTORE SWAP1 PUSH1 0x40 MSTORE DUP1 MLOAD SWAP1 PUSH1 0x20 ADD KECCAK256 SWAP1 POP SWAP3 SWAP2 POP POP JUMP JUMPDEST PUSH1 0x0 DUP1 PUSH32 0x7FFFFFFFFFFFFFFFFFFFFFFFFFFFFFFF5D576E7357A4501DDFE92F46681B20A0 DUP4 PUSH1 0x0 SHR GT ISZERO PUSH2 0x497 JUMPI PUSH1 0x0 PUSH1 0x3 SWAP2 POP SWAP2 POP PUSH2 0x536 JUMP JUMPDEST PUSH1 0x0 PUSH1 0x1 DUP8 DUP8 DUP8 DUP8 PUSH1 0x40 MLOAD PUSH1 0x0 DUP2 MSTORE PUSH1 0x20 ADD PUSH1 0x40 MSTORE PUSH1 0x40 MLOAD PUSH2 0x4BC SWAP5 SWAP4 SWAP3 SWAP2 SWAP1 PUSH2 0x94C JUMP JUMPDEST PUSH1 0x20 PUSH1 0x40 MLOAD PUSH1 0x20 DUP2 SUB SWAP1 DUP1 DUP5 SUB SWAP1 DUP6 GAS STATICCALL ISZERO DUP1 ISZERO PUSH2 0x4DE JUMPI RETURNDATASIZE PUSH1 0x0 DUP1 RETURNDATACOPY RETURNDATASIZE PUSH1 0x0 REVERT JUMPDEST POP POP POP PUSH1 0x20 PUSH1 0x40 MLOAD SUB MLOAD SWAP1 POP PUSH1 0x0 PUSH20 0xFFFFFFFFFFFFFFFFFFFFFFFFFFFFFFFFFFFFFFFF AND DUP2 PUSH20 0xFFFFFFFFFFFFFFFFFFFFFFFFFFFFFFFFFFFFFFFF AND EQ ISZERO PUSH2 0x52D JUMPI PUSH1 0x0 PUSH1 0x1 SWAP3 POP SWAP3 POP POP PUSH2 0x536 JUMP JUMPDEST DUP1 PUSH1 0x0 SWAP3 POP SWAP3 POP POP JUMPDEST SWAP5 POP SWAP5 SWAP3 POP POP POP JUMP JUMPDEST PUSH1 0x0 DUP4 DUP4 DUP4 CHAINID ADDRESS PUSH1 0x40 MLOAD PUSH1 0x20 ADD PUSH2 0x55A SWAP6 SWAP5 SWAP4 SWAP3 SWAP2 SWAP1 PUSH2 0x8F9 JUMP JUMPDEST PUSH1 0x40 MLOAD PUSH1 0x20 DUP2 DUP4 SUB SUB DUP2 MSTORE SWAP1 PUSH1 0x40 MSTORE DUP1 MLOAD SWAP1 PUSH1 0x20 ADD KECCAK256 SWAP1 POP SWAP4 SWAP3 POP POP POP JUMP JUMPDEST PUSH1 0x0 PUSH2 0x58C PUSH2 0x587 DUP5 PUSH2 0xA16 JUMP JUMPDEST PUSH2 0x9F1 JUMP JUMPDEST SWAP1 POP DUP3 DUP2 MSTORE PUSH1 0x20 DUP2 ADD DUP5 DUP5 DUP5 ADD GT ISZERO PUSH2 0x5A8 JUMPI PUSH2 0x5A7 PUSH2 0xB9E JUMP JUMPDEST JUMPDEST PUSH2 0x5B3 DUP5 DUP3 DUP6 PUSH2 0xAE7 JUMP JUMPDEST POP SWAP4 SWAP3 POP POP POP JUMP JUMPDEST PUSH1 0x0 PUSH2 0x5CE PUSH2 0x5C9 DUP5 PUSH2 0xA47 JUMP JUMPDEST PUSH2 0x9F1 JUMP JUMPDEST SWAP1 POP DUP3 DUP2 MSTORE PUSH1 0x20 DUP2 ADD DUP5 DUP5 DUP5 ADD GT ISZERO PUSH2 0x5EA JUMPI PUSH2 0x5E9 PUSH2 0xB9E JUMP JUMPDEST JUMPDEST PUSH2 0x5F5 DUP5 DUP3 DUP6 PUSH2 0xAE7 JUMP JUMPDEST POP SWAP4 SWAP3 POP POP POP JUMP JUMPDEST PUSH1 0x0 DUP2 CALLDATALOAD SWAP1 POP PUSH2 0x60C DUP2 PUSH2 0xC88 JUMP JUMPDEST SWAP3 SWAP2 POP POP JUMP JUMPDEST PUSH1 0x0 DUP3 PUSH1 0x1F DUP4 ADD SLT PUSH2 0x627 JUMPI PUSH2 0x626 PUSH2 0xB8F JUMP JUMPDEST JUMPDEST DUP2 CALLDATALOAD PUSH2 0x637 DUP5 DUP3 PUSH1 0x20 DUP7 ADD PUSH2 0x579 JUMP JUMPDEST SWAP2 POP POP SWAP3 SWAP2 POP POP JUMP JUMPDEST PUSH1 0x0 DUP3 PUSH1 0x1F DUP4 ADD SLT PUSH2 0x655 JUMPI PUSH2 0x654 PUSH2 0xB8F JUMP JUMPDEST JUMPDEST DUP2 CALLDATALOAD PUSH2 0x665 DUP5 DUP3 PUSH1 0x20 DUP7 ADD PUSH2 0x5BB JUMP JUMPDEST SWAP2 POP POP SWAP3 SWAP2 POP POP JUMP JUMPDEST PUSH1 0x0 PUSH1 0x80 DUP3 DUP5 SUB SLT ISZERO PUSH2 0x684 JUMPI PUSH2 0x683 PUSH2 0xB94 JUMP JUMPDEST JUMPDEST PUSH2 0x68E PUSH1 0x80 PUSH2 0x9F1 JUMP JUMPDEST SWAP1 POP PUSH1 0x0 DUP3 ADD CALLDATALOAD PUSH8 0xFFFFFFFFFFFFFFFF DUP2 GT ISZERO PUSH2 0x6AE JUMPI PUSH2 0x6AD PUSH2 0xB99 JUMP JUMPDEST JUMPDEST PUSH2 0x6BA DUP5 DUP3 DUP6 ADD PUSH2 0x640 JUMP JUMPDEST PUSH1 0x0 DUP4 ADD MSTORE POP PUSH1 0x20 DUP3 ADD CALLDATALOAD PUSH8 0xFFFFFFFFFFFFFFFF DUP2 GT ISZERO PUSH2 0x6DE JUMPI PUSH2 0x6DD PUSH2 0xB99 JUMP JUMPDEST JUMPDEST PUSH2 0x6EA DUP5 DUP3 DUP6 ADD PUSH2 0x640 JUMP JUMPDEST PUSH1 0x20 DUP4 ADD MSTORE POP PUSH1 0x40 PUSH2 0x6FE DUP5 DUP3 DUP6 ADD PUSH2 0x5FD JUMP JUMPDEST PUSH1 0x40 DUP4 ADD MSTORE POP PUSH1 0x60 DUP3 ADD CALLDATALOAD PUSH8 0xFFFFFFFFFFFFFFFF DUP2 GT ISZERO PUSH2 0x722 JUMPI PUSH2 0x721 PUSH2 0xB99 JUMP JUMPDEST JUMPDEST PUSH2 0x72E DUP5 DUP3 DUP6 ADD PUSH2 0x612 JUMP JUMPDEST PUSH1 0x60 DUP4 ADD MSTORE POP SWAP3 SWAP2 POP POP JUMP JUMPDEST PUSH1 0x0 PUSH1 0x20 DUP3 DUP5 SUB SLT ISZERO PUSH2 0x750 JUMPI PUSH2 0x74F PUSH2 0xBA8 JUMP JUMPDEST JUMPDEST PUSH1 0x0 DUP3 ADD CALLDATALOAD PUSH8 0xFFFFFFFFFFFFFFFF DUP2 GT ISZERO PUSH2 0x76E JUMPI PUSH2 0x76D PUSH2 0xBA3 JUMP JUMPDEST JUMPDEST PUSH2 0x77A DUP5 DUP3 DUP6 ADD PUSH2 0x66E JUMP JUMPDEST SWAP2 POP POP SWAP3 SWAP2 POP POP JUMP JUMPDEST PUSH2 0x78C DUP2 PUSH2 0xA94 JUMP JUMPDEST DUP3 MSTORE POP POP JUMP JUMPDEST PUSH2 0x79B DUP2 PUSH2 0xAA6 JUMP JUMPDEST DUP3 MSTORE POP POP JUMP JUMPDEST PUSH2 0x7B2 PUSH2 0x7AD DUP3 PUSH2 0xAA6 JUMP JUMPDEST PUSH2 0xB27 JUMP JUMPDEST DUP3 MSTORE POP POP JUMP JUMPDEST PUSH1 0x0 PUSH2 0x7C5 PUSH1 0x18 DUP4 PUSH2 0xA78 JUMP JUMPDEST SWAP2 POP PUSH2 0x7D0 DUP3 PUSH2 0xBBE JUMP JUMPDEST PUSH1 0x20 DUP3 ADD SWAP1 POP SWAP2 SWAP1 POP JUMP JUMPDEST PUSH1 0x0 PUSH2 0x7E8 PUSH1 0x1F DUP4 PUSH2 0xA78 JUMP JUMPDEST SWAP2 POP PUSH2 0x7F3 DUP3 PUSH2 0xBE7 JUMP JUMPDEST PUSH1 0x20 DUP3 ADD SWAP1 POP SWAP2 SWAP1 POP JUMP JUMPDEST PUSH1 0x0 PUSH2 0x80B PUSH1 0x2 DUP4 PUSH2 0xA89 JUMP JUMPDEST SWAP2 POP PUSH2 0x816 DUP3 PUSH2 0xC10 JUMP JUMPDEST PUSH1 0x2 DUP3 ADD SWAP1 POP SWAP2 SWAP1 POP JUMP JUMPDEST PUSH1 0x0 PUSH2 0x82E PUSH1 0x22 DUP4 PUSH2 0xA78 JUMP JUMPDEST SWAP2 POP PUSH2 0x839 DUP3 PUSH2 0xC39 JUMP JUMPDEST PUSH1 0x40 DUP3 ADD SWAP1 POP SWAP2 SWAP1 POP JUMP JUMPDEST PUSH2 0x84D DUP2 PUSH2 0xAD0 JUMP JUMPDEST DUP3 MSTORE POP POP JUMP JUMPDEST PUSH2 0x85C DUP2 PUSH2 0xADA JUMP JUMPDEST DUP3 MSTORE POP POP JUMP JUMPDEST PUSH1 0x0 PUSH2 0x86D DUP3 PUSH2 0x7FE JUMP JUMPDEST SWAP2 POP PUSH2 0x879 DUP3 DUP6 PUSH2 0x7A1 JUMP JUMPDEST PUSH1 0x20 DUP3 ADD SWAP2 POP PUSH2 0x889 DUP3 DUP5 PUSH2 0x7A1 JUMP JUMPDEST PUSH1 0x20 DUP3 ADD SWAP2 POP DUP2 SWAP1 POP SWAP4 SWAP3 POP POP POP JUMP JUMPDEST PUSH1 0x0 PUSH1 0x20 DUP3 ADD SWAP1 POP PUSH2 0x8AE PUSH1 0x0 DUP4 ADD DUP5 PUSH2 0x783 JUMP JUMPDEST SWAP3 SWAP2 POP POP JUMP JUMPDEST PUSH1 0x0 PUSH1 0x80 DUP3 ADD SWAP1 POP PUSH2 0x8C9 PUSH1 0x0 DUP4 ADD DUP8 PUSH2 0x792 JUMP JUMPDEST PUSH2 0x8D6 PUSH1 0x20 DUP4 ADD DUP7 PUSH2 0x792 JUMP JUMPDEST PUSH2 0x8E3 PUSH1 0x40 DUP4 ADD DUP6 PUSH2 0x792 JUMP JUMPDEST PUSH2 0x8F0 PUSH1 0x60 DUP4 ADD DUP5 PUSH2 0x783 JUMP JUMPDEST SWAP6 SWAP5 POP POP POP POP POP JUMP JUMPDEST PUSH1 0x0 PUSH1 0xA0 DUP3 ADD SWAP1 POP PUSH2 0x90E PUSH1 0x0 DUP4 ADD DUP9 PUSH2 0x792 JUMP JUMPDEST PUSH2 0x91B PUSH1 0x20 DUP4 ADD DUP8 PUSH2 0x792 JUMP JUMPDEST PUSH2 0x928 PUSH1 0x40 DUP4 ADD DUP7 PUSH2 0x792 JUMP JUMPDEST PUSH2 0x935 PUSH1 0x60 DUP4 ADD DUP6 PUSH2 0x844 JUMP JUMPDEST PUSH2 0x942 PUSH1 0x80 DUP4 ADD DUP5 PUSH2 0x783 JUMP JUMPDEST SWAP7 SWAP6 POP POP POP POP POP POP JUMP JUMPDEST PUSH1 0x0 PUSH1 0x80 DUP3 ADD SWAP1 POP PUSH2 0x961 PUSH1 0x0 DUP4 ADD DUP8 PUSH2 0x792 JUMP JUMPDEST PUSH2 0x96E PUSH1 0x20 DUP4 ADD DUP7 PUSH2 0x853 JUMP JUMPDEST PUSH2 0x97B PUSH1 0x40 DUP4 ADD DUP6 PUSH2 0x792 JUMP JUMPDEST PUSH2 0x988 PUSH1 0x60 DUP4 ADD DUP5 PUSH2 0x792 JUMP JUMPDEST SWAP6 SWAP5 POP POP POP POP POP JUMP JUMPDEST PUSH1 0x0 PUSH1 0x20 DUP3 ADD SWAP1 POP DUP2 DUP2 SUB PUSH1 0x0 DUP4 ADD MSTORE PUSH2 0x9AA DUP2 PUSH2 0x7B8 JUMP JUMPDEST SWAP1 POP SWAP2 SWAP1 POP JUMP JUMPDEST PUSH1 0x0 PUSH1 0x20 DUP3 ADD SWAP1 POP DUP2 DUP2 SUB PUSH1 0x0 DUP4 ADD MSTORE PUSH2 0x9CA DUP2 PUSH2 0x7DB JUMP JUMPDEST SWAP1 POP SWAP2 SWAP1 POP JUMP JUMPDEST PUSH1 0x0 PUSH1 0x20 DUP3 ADD SWAP1 POP DUP2 DUP2 SUB PUSH1 0x0 DUP4 ADD MSTORE PUSH2 0x9EA DUP2 PUSH2 0x821 JUMP JUMPDEST SWAP1 POP SWAP2 SWAP1 POP JUMP JUMPDEST PUSH1 0x0 PUSH2 0x9FB PUSH2 0xA0C JUMP JUMPDEST SWAP1 POP PUSH2 0xA07 DUP3 DUP3 PUSH2 0xAF6 JUMP JUMPDEST SWAP2 SWAP1 POP JUMP JUMPDEST PUSH1 0x0 PUSH1 0x40 MLOAD SWAP1 POP SWAP1 JUMP JUMPDEST PUSH1 0x0 PUSH8 0xFFFFFFFFFFFFFFFF DUP3 GT ISZERO PUSH2 0xA31 JUMPI PUSH2 0xA30 PUSH2 0xB60 JUMP JUMPDEST JUMPDEST PUSH2 0xA3A DUP3 PUSH2 0xBAD JUMP JUMPDEST SWAP1 POP PUSH1 0x20 DUP2 ADD SWAP1 POP SWAP2 SWAP1 POP JUMP JUMPDEST PUSH1 0x0 PUSH8 0xFFFFFFFFFFFFFFFF DUP3 GT ISZERO PUSH2 0xA62 JUMPI PUSH2 0xA61 PUSH2 0xB60 JUMP JUMPDEST JUMPDEST PUSH2 0xA6B DUP3 PUSH2 0xBAD JUMP JUMPDEST SWAP1 POP PUSH1 0x20 DUP2 ADD SWAP1 POP SWAP2 SWAP1 POP JUMP JUMPDEST PUSH1 0x0 DUP3 DUP3 MSTORE PUSH1 0x20 DUP3 ADD SWAP1 POP SWAP3 SWAP2 POP POP JUMP JUMPDEST PUSH1 0x0 DUP2 SWAP1 POP SWAP3 SWAP2 POP POP JUMP JUMPDEST PUSH1 0x0 PUSH2 0xA9F DUP3 PUSH2 0xAB0 JUMP JUMPDEST SWAP1 POP SWAP2 SWAP1 POP JUMP JUMPDEST PUSH1 0x0 DUP2 SWAP1 POP SWAP2 SWAP1 POP JUMP JUMPDEST PUSH1 0x0 PUSH20 0xFFFFFFFFFFFFFFFFFFFFFFFFFFFFFFFFFFFFFFFF DUP3 AND SWAP1 POP SWAP2 SWAP1 POP JUMP JUMPDEST PUSH1 0x0 DUP2 SWAP1 POP SWAP2 SWAP1 POP JUMP JUMPDEST PUSH1 0x0 PUSH1 0xFF DUP3 AND SWAP1 POP SWAP2 SWAP1 POP JUMP JUMPDEST DUP3 DUP2 DUP4 CALLDATACOPY PUSH1 0x0 DUP4 DUP4 ADD MSTORE POP POP POP JUMP JUMPDEST PUSH2 0xAFF DUP3 PUSH2 0xBAD JUMP JUMPDEST DUP2 ADD DUP2 DUP2 LT PUSH8 0xFFFFFFFFFFFFFFFF DUP3 GT OR ISZERO PUSH2 0xB1E JUMPI PUSH2 0xB1D PUSH2 0xB60 JUMP JUMPDEST JUMPDEST DUP1 PUSH1 0x40 MSTORE POP POP POP JUMP JUMPDEST PUSH1 0x0 DUP2 SWAP1 POP SWAP2 SWAP1 POP JUMP JUMPDEST PUSH32 0x4E487B7100000000000000000000000000000000000000000000000000000000 PUSH1 0x0 MSTORE PUSH1 0x21 PUSH1 0x4 MSTORE PUSH1 0x24 PUSH1 0x0 REVERT JUMPDEST PUSH32 0x4E487B7100000000000000000000000000000000000000000000000000000000 PUSH1 0x0 MSTORE PUSH1 0x41 PUSH1 0x4 MSTORE PUSH1 0x24 PUSH1 0x0 REVERT JUMPDEST PUSH1 0x0 DUP1 REVERT JUMPDEST PUSH1 0x0 DUP1 REVERT JUMPDEST PUSH1 0x0 DUP1 REVERT JUMPDEST PUSH1 0x0 DUP1 REVERT JUMPDEST PUSH1 0x0 DUP1 REVERT JUMPDEST PUSH1 0x0 DUP1 REVERT JUMPDEST PUSH1 0x0 PUSH1 0x1F NOT PUSH1 0x1F DUP4 ADD AND SWAP1 POP SWAP2 SWAP1 POP JUMP JUMPDEST PUSH32 0x45434453413A20696E76616C6964207369676E61747572650000000000000000 PUSH1 0x0 DUP3 ADD MSTORE POP JUMP JUMPDEST PUSH32 0x45434453413A20696E76616C6964207369676E6174757265206C656E67746800 PUSH1 0x0 DUP3 ADD MSTORE POP JUMP JUMPDEST PUSH32 0x1901000000000000000000000000000000000000000000000000000000000000 PUSH1 0x0 DUP3 ADD MSTORE POP JUMP JUMPDEST PUSH32 0x45434453413A20696E76616C6964207369676E6174757265202773272076616C PUSH1 0x0 DUP3 ADD MSTORE PUSH32 0x7565000000000000000000000000000000000000000000000000000000000000 PUSH1 0x20 DUP3 ADD MSTORE POP JUMP JUMPDEST PUSH2 0xC91 DUP2 PUSH2 0xA94 JUMP JUMPDEST DUP2 EQ PUSH2 0xC9C JUMPI PUSH1 0x0 DUP1 REVERT JUMPDEST POP JUMP INVALID LOG2 PUSH5 0x6970667358 0x22 SLT KECCAK256 0xCE 0xA8 0x5E CALLDATASIZE 0xAD STATICCALL 0x4A 0xF8 0xDA CREATE 0xDC 0xAD CREATE2 0xCD CALLDATASIZE 0xF7 0x1E NOT 0xF9 0xB9 XOR 0x2A 0xB6 SLT 0xED MSTORE8 GAS NOT JUMP CODESIZE 0x23 LT PUSH5 0x736F6C6343 STOP ADDMOD SMOD STOP CALLER "
				},
				"gasEstimates": {
					"creation": {
						"codeDepositCost": "657000",
						"executionCost": "infinite",
						"totalCost": "infinite"
					},
					"external": {
						"getSigner((string,string,address,bytes))": "infinite"
					},
					"internal": {
						"_hash(struct DataOnboarderSigner.DataSourceLink memory)": "infinite",
						"_verify(struct DataOnboarderSigner.DataSourceLink memory)": "infinite"
					}
				},
				"methodIdentifiers": {
					"getSigner((string,string,address,bytes))": "30f89e29"
				}
			},
			"storageLayout": {
				"storage": [],
				"types": null
			},
			"userdoc": {
				"kind": "user",
				"methods": {},
				"version": 1
			}
		}
	}
}