{
	"contracts/KaggleDataOracle.sol": {
		"KaggleDataOracle": {
			"abi": [
				{
					"inputs": [
						{
							"internalType": "address",
							"name": "_tokenAddress",
							"type": "address"
						}
					],
					"stateMutability": "nonpayable",
					"type": "constructor"
				},
				{
					"anonymous": false,
					"inputs": [
						{
							"indexed": true,
							"internalType": "address",
							"name": "previousOwner",
							"type": "address"
						},
						{
							"indexed": true,
							"internalType": "address",
							"name": "newOwner",
							"type": "address"
						}
					],
					"name": "OwnershipTransferred",
					"type": "event"
				},
				{
					"inputs": [
						{
							"internalType": "address",
							"name": "job_seker_addr",
							"type": "address"
						},
						{
							"internalType": "string",
							"name": "dp_label",
							"type": "string"
						}
					],
					"name": "fetch_dp_value",
					"outputs": [
						{
							"internalType": "string",
							"name": "",
							"type": "string"
						}
					],
					"stateMutability": "view",
					"type": "function"
				},
				{
					"inputs": [
						{
							"internalType": "address",
							"name": "ad",
							"type": "address"
						},
						{
							"internalType": "string",
							"name": "v2",
							"type": "string"
						},
						{
							"internalType": "string",
							"name": "v3",
							"type": "string"
						}
					],
					"name": "getStakeValue",
					"outputs": [
						{
							"internalType": "uint256",
							"name": "",
							"type": "uint256"
						}
					],
					"stateMutability": "view",
					"type": "function"
				},
				{
					"inputs": [
						{
							"internalType": "address",
							"name": "",
							"type": "address"
						},
						{
							"internalType": "string",
							"name": "",
							"type": "string"
						}
					],
					"name": "mostFavoredDataOracle",
					"outputs": [
						{
							"internalType": "string",
							"name": "attributeValue",
							"type": "string"
						},
						{
							"internalType": "uint256",
							"name": "stakedAmount",
							"type": "uint256"
						}
					],
					"stateMutability": "view",
					"type": "function"
				},
				{
					"inputs": [],
					"name": "owner",
					"outputs": [
						{
							"internalType": "address",
							"name": "",
							"type": "address"
						}
					],
					"stateMutability": "view",
					"type": "function"
				},
				{
					"inputs": [
						{
							"internalType": "address",
							"name": "",
							"type": "address"
						}
					],
					"name": "rawDataStore",
					"outputs": [
						{
							"internalType": "bytes32",
							"name": "ipfs",
							"type": "bytes32"
						},
						{
							"internalType": "bool",
							"name": "isActive",
							"type": "bool"
						},
						{
							"internalType": "address",
							"name": "verifiedBy",
							"type": "address"
						}
					],
					"stateMutability": "view",
					"type": "function"
				},
				{
					"inputs": [],
					"name": "renounceOwnership",
					"outputs": [],
					"stateMutability": "nonpayable",
					"type": "function"
				},
				{
					"inputs": [],
					"name": "return_self_addr",
					"outputs": [
						{
							"internalType": "address",
							"name": "",
							"type": "address"
						}
					],
					"stateMutability": "view",
					"type": "function"
				},
				{
					"inputs": [
						{
							"internalType": "address",
							"name": "ad",
							"type": "address"
						},
						{
							"internalType": "bytes32",
							"name": "ipfs",
							"type": "bytes32"
						},
						{
							"internalType": "bool",
							"name": "isActive",
							"type": "bool"
						}
					],
					"name": "setRawData",
					"outputs": [],
					"stateMutability": "nonpayable",
					"type": "function"
				},
				{
					"inputs": [],
					"name": "token",
					"outputs": [
						{
							"internalType": "contract IERC20",
							"name": "",
							"type": "address"
						}
					],
					"stateMutability": "view",
					"type": "function"
				},
				{
					"inputs": [
						{
							"internalType": "address",
							"name": "newOwner",
							"type": "address"
						}
					],
					"name": "transferOwnership",
					"outputs": [],
					"stateMutability": "nonpayable",
					"type": "function"
				},
				{
					"inputs": [
						{
							"internalType": "address",
							"name": "",
							"type": "address"
						},
						{
							"internalType": "string",
							"name": "",
							"type": "string"
						},
						{
							"internalType": "string",
							"name": "",
							"type": "string"
						}
					],
					"name": "userDataOracle",
					"outputs": [
						{
							"internalType": "uint256",
							"name": "",
							"type": "uint256"
						}
					],
					"stateMutability": "view",
					"type": "function"
				},
				{
					"inputs": [
						{
							"internalType": "address",
							"name": "ad",
							"type": "address"
						},
						{
							"internalType": "string",
							"name": "v2",
							"type": "string"
						},
						{
							"internalType": "string",
							"name": "v3",
							"type": "string"
						},
						{
							"internalType": "uint256",
							"name": "val",
							"type": "uint256"
						}
					],
					"name": "validateDataPoint",
					"outputs": [],
					"stateMutability": "nonpayable",
					"type": "function"
				},
				{
					"inputs": [
						{
							"internalType": "address",
							"name": "",
							"type": "address"
						},
						{
							"internalType": "address",
							"name": "",
							"type": "address"
						},
						{
							"internalType": "string",
							"name": "",
							"type": "string"
						},
						{
							"internalType": "string",
							"name": "",
							"type": "string"
						}
					],
					"name": "validatorSplits",
					"outputs": [
						{
							"internalType": "uint256",
							"name": "",
							"type": "uint256"
						}
					],
					"stateMutability": "view",
					"type": "function"
				},
				{
					"inputs": [
						{
							"internalType": "address",
							"name": "ad",
							"type": "address"
						},
						{
							"internalType": "string",
							"name": "v2",
							"type": "string"
						},
						{
							"internalType": "string",
							"name": "v3",
							"type": "string"
						},
						{
							"internalType": "uint256",
							"name": "val",
							"type": "uint256"
						}
					],
					"name": "withdrawMoney",
					"outputs": [],
					"stateMutability": "nonpayable",
					"type": "function"
				}
			],
			"devdoc": {
				"kind": "dev",
				"methods": {
					"owner()": {
						"details": "Returns the address of the current owner."
					},
					"renounceOwnership()": {
						"details": "Leaves the contract without owner. It will not be possible to call `onlyOwner` functions anymore. Can only be called by the current owner. NOTE: Renouncing ownership will leave the contract without an owner, thereby removing any functionality that is only available to the owner."
					},
					"transferOwnership(address)": {
						"details": "Transfers ownership of the contract to a new account (`newOwner`). Can only be called by the current owner."
					}
				},
				"version": 1
			},
			"evm": {
				"assembly": "    /* \"contracts/KaggleDataOracle.sol\":182:2820  contract KaggleDataOracle is Ownable{\r... */\n  mstore(0x40, 0x80)\n    /* \"contracts/KaggleDataOracle.sol\":1165:1250  constructor(address _tokenAddress) {\r... */\n  callvalue\n  dup1\n  iszero\n  tag_1\n  jumpi\n  0x00\n  dup1\n  revert\ntag_1:\n  pop\n  mload(0x40)\n  sub(codesize, bytecodeSize)\n  dup1\n  bytecodeSize\n  dup4\n  codecopy\n  dup2\n  dup2\n  add\n  0x40\n  mstore\n  dup2\n  add\n  swap1\n  tag_2\n  swap2\n  swap1\n  tag_3\n  jump\t// in\ntag_2:\n    /* \"@openzeppelin/contracts/access/Ownable.sol\":936:968  _transferOwnership(_msgSender()) */\n  tag_7\n    /* \"@openzeppelin/contracts/access/Ownable.sol\":955:967  _msgSender() */\n  tag_8\n    /* \"@openzeppelin/contracts/access/Ownable.sol\":955:965  _msgSender */\n  shl(0x20, tag_9)\n    /* \"@openzeppelin/contracts/access/Ownable.sol\":955:967  _msgSender() */\n  0x20\n  shr\n  jump\t// in\ntag_8:\n    /* \"@openzeppelin/contracts/access/Ownable.sol\":936:954  _transferOwnership */\n  shl(0x20, tag_10)\n    /* \"@openzeppelin/contracts/access/Ownable.sol\":936:968  _transferOwnership(_msgSender()) */\n  0x20\n  shr\n  jump\t// in\ntag_7:\n    /* \"contracts/KaggleDataOracle.sol\":1228:1241  _tokenAddress */\n  dup1\n    /* \"contracts/KaggleDataOracle.sol\":1213:1218  token */\n  0x05\n  0x00\n    /* \"contracts/KaggleDataOracle.sol\":1213:1242  token = IERC20(_tokenAddress) */\n  0x0100\n  exp\n  dup2\n  sload\n  dup2\n  0xffffffffffffffffffffffffffffffffffffffff\n  mul\n  not\n  and\n  swap1\n  dup4\n  0xffffffffffffffffffffffffffffffffffffffff\n  and\n  mul\n  or\n  swap1\n  sstore\n  pop\n    /* \"contracts/KaggleDataOracle.sol\":1165:1250  constructor(address _tokenAddress) {\r... */\n  pop\n    /* \"contracts/KaggleDataOracle.sol\":182:2820  contract KaggleDataOracle is Ownable{\r... */\n  jump(tag_12)\n    /* \"@openzeppelin/contracts/utils/Context.sol\":640:736  function _msgSender() internal view virtual returns (address) {... */\ntag_9:\n    /* \"@openzeppelin/contracts/utils/Context.sol\":693:700  address */\n  0x00\n    /* \"@openzeppelin/contracts/utils/Context.sol\":719:729  msg.sender */\n  caller\n    /* \"@openzeppelin/contracts/utils/Context.sol\":712:729  return msg.sender */\n  swap1\n  pop\n    /* \"@openzeppelin/contracts/utils/Context.sol\":640:736  function _msgSender() internal view virtual returns (address) {... */\n  swap1\n  jump\t// out\n    /* \"@openzeppelin/contracts/access/Ownable.sol\":2433:2620  function _transferOwnership(address newOwner) internal virtual {... */\ntag_10:\n    /* \"@openzeppelin/contracts/access/Ownable.sol\":2506:2522  address oldOwner */\n  0x00\n    /* \"@openzeppelin/contracts/access/Ownable.sol\":2525:2531  _owner */\n  dup1\n  0x00\n  swap1\n  sload\n  swap1\n  0x0100\n  exp\n  swap1\n  div\n  0xffffffffffffffffffffffffffffffffffffffff\n  and\n    /* \"@openzeppelin/contracts/access/Ownable.sol\":2506:2531  address oldOwner = _owner */\n  swap1\n  pop\n    /* \"@openzeppelin/contracts/access/Ownable.sol\":2550:2558  newOwner */\n  dup2\n    /* \"@openzeppelin/contracts/access/Ownable.sol\":2541:2547  _owner */\n  0x00\n  dup1\n    /* \"@openzeppelin/contracts/access/Ownable.sol\":2541:2558  _owner = newOwner */\n  0x0100\n  exp\n  dup2\n  sload\n  dup2\n  0xffffffffffffffffffffffffffffffffffffffff\n  mul\n  not\n  and\n  swap1\n  dup4\n  0xffffffffffffffffffffffffffffffffffffffff\n  and\n  mul\n  or\n  swap1\n  sstore\n  pop\n    /* \"@openzeppelin/contracts/access/Ownable.sol\":2604:2612  newOwner */\n  dup2\n    /* \"@openzeppelin/contracts/access/Ownable.sol\":2573:2613  OwnershipTransferred(oldOwner, newOwner) */\n  0xffffffffffffffffffffffffffffffffffffffff\n  and\n    /* \"@openzeppelin/contracts/access/Ownable.sol\":2594:2602  oldOwner */\n  dup2\n    /* \"@openzeppelin/contracts/access/Ownable.sol\":2573:2613  OwnershipTransferred(oldOwner, newOwner) */\n  0xffffffffffffffffffffffffffffffffffffffff\n  and\n  0x8be0079c531659141344cd1fd0a4f28419497f9722a3daafe3b4186f6b6457e0\n  mload(0x40)\n  mload(0x40)\n  dup1\n  swap2\n  sub\n  swap1\n  log3\n    /* \"@openzeppelin/contracts/access/Ownable.sol\":2496:2620  {... */\n  pop\n    /* \"@openzeppelin/contracts/access/Ownable.sol\":2433:2620  function _transferOwnership(address newOwner) internal virtual {... */\n  pop\n  jump\t// out\n    /* \"#utility.yul\":7:150   */\ntag_16:\n    /* \"#utility.yul\":64:69   */\n  0x00\n    /* \"#utility.yul\":95:101   */\n  dup2\n    /* \"#utility.yul\":89:102   */\n  mload\n    /* \"#utility.yul\":80:102   */\n  swap1\n  pop\n    /* \"#utility.yul\":111:144   */\n  tag_18\n    /* \"#utility.yul\":138:143   */\n  dup2\n    /* \"#utility.yul\":111:144   */\n  tag_19\n  jump\t// in\ntag_18:\n    /* \"#utility.yul\":7:150   */\n  swap3\n  swap2\n  pop\n  pop\n  jump\t// out\n    /* \"#utility.yul\":156:507   */\ntag_3:\n    /* \"#utility.yul\":226:232   */\n  0x00\n    /* \"#utility.yul\":275:277   */\n  0x20\n    /* \"#utility.yul\":263:272   */\n  dup3\n    /* \"#utility.yul\":254:261   */\n  dup5\n    /* \"#utility.yul\":250:273   */\n  sub\n    /* \"#utility.yul\":246:278   */\n  slt\n    /* \"#utility.yul\":243:362   */\n  iszero\n  tag_21\n  jumpi\n    /* \"#utility.yul\":281:360   */\n  tag_22\n  tag_23\n  jump\t// in\ntag_22:\n    /* \"#utility.yul\":243:362   */\ntag_21:\n    /* \"#utility.yul\":401:402   */\n  0x00\n    /* \"#utility.yul\":426:490   */\n  tag_24\n    /* \"#utility.yul\":482:489   */\n  dup5\n    /* \"#utility.yul\":473:479   */\n  dup3\n    /* \"#utility.yul\":462:471   */\n  dup6\n    /* \"#utility.yul\":458:480   */\n  add\n    /* \"#utility.yul\":426:490   */\n  tag_16\n  jump\t// in\ntag_24:\n    /* \"#utility.yul\":416:490   */\n  swap2\n  pop\n    /* \"#utility.yul\":372:500   */\n  pop\n    /* \"#utility.yul\":156:507   */\n  swap3\n  swap2\n  pop\n  pop\n  jump\t// out\n    /* \"#utility.yul\":594:690   */\ntag_27:\n    /* \"#utility.yul\":631:638   */\n  0x00\n    /* \"#utility.yul\":660:684   */\n  tag_29\n    /* \"#utility.yul\":678:683   */\n  dup3\n    /* \"#utility.yul\":660:684   */\n  tag_30\n  jump\t// in\ntag_29:\n    /* \"#utility.yul\":649:684   */\n  swap1\n  pop\n    /* \"#utility.yul\":594:690   */\n  swap2\n  swap1\n  pop\n  jump\t// out\n    /* \"#utility.yul\":696:822   */\ntag_30:\n    /* \"#utility.yul\":733:740   */\n  0x00\n    /* \"#utility.yul\":773:815   */\n  0xffffffffffffffffffffffffffffffffffffffff\n    /* \"#utility.yul\":766:771   */\n  dup3\n    /* \"#utility.yul\":762:816   */\n  and\n    /* \"#utility.yul\":751:816   */\n  swap1\n  pop\n    /* \"#utility.yul\":696:822   */\n  swap2\n  swap1\n  pop\n  jump\t// out\n    /* \"#utility.yul\":951:1068   */\ntag_23:\n    /* \"#utility.yul\":1060:1061   */\n  0x00\n    /* \"#utility.yul\":1057:1058   */\n  dup1\n    /* \"#utility.yul\":1050:1062   */\n  revert\n    /* \"#utility.yul\":1074:1196   */\ntag_19:\n    /* \"#utility.yul\":1147:1171   */\n  tag_36\n    /* \"#utility.yul\":1165:1170   */\n  dup2\n    /* \"#utility.yul\":1147:1171   */\n  tag_27\n  jump\t// in\ntag_36:\n    /* \"#utility.yul\":1140:1145   */\n  dup2\n    /* \"#utility.yul\":1137:1172   */\n  eq\n    /* \"#utility.yul\":1127:1190   */\n  tag_37\n  jumpi\n    /* \"#utility.yul\":1186:1187   */\n  0x00\n    /* \"#utility.yul\":1183:1184   */\n  dup1\n    /* \"#utility.yul\":1176:1188   */\n  revert\n    /* \"#utility.yul\":1127:1190   */\ntag_37:\n    /* \"#utility.yul\":1074:1196   */\n  pop\n  jump\t// out\n    /* \"contracts/KaggleDataOracle.sol\":182:2820  contract KaggleDataOracle is Ownable{\r... */\ntag_12:\n  dataSize(sub_0)\n  dup1\n  dataOffset(sub_0)\n  0x00\n  codecopy\n  0x00\n  return\nstop\n\nsub_0: assembly {\n        /* \"contracts/KaggleDataOracle.sol\":182:2820  contract KaggleDataOracle is Ownable{\r... */\n      mstore(0x40, 0x80)\n      callvalue\n      dup1\n      iszero\n      tag_1\n      jumpi\n      0x00\n      dup1\n      revert\n    tag_1:\n      pop\n      jumpi(tag_2, lt(calldatasize, 0x04))\n      shr(0xe0, calldataload(0x00))\n      dup1\n      0x9cc6f67d\n      gt\n      tag_17\n      jumpi\n      dup1\n      0xe2f2c1a5\n      gt\n      tag_18\n      jumpi\n      dup1\n      0xe2f2c1a5\n      eq\n      tag_13\n      jumpi\n      dup1\n      0xe6d56846\n      eq\n      tag_14\n      jumpi\n      dup1\n      0xf2fde38b\n      eq\n      tag_15\n      jumpi\n      dup1\n      0xfc0c546a\n      eq\n      tag_16\n      jumpi\n      jump(tag_2)\n    tag_18:\n      dup1\n      0x9cc6f67d\n      eq\n      tag_10\n      jumpi\n      dup1\n      0xbf85f3ed\n      eq\n      tag_11\n      jumpi\n      dup1\n      0xde7f6b9e\n      eq\n      tag_12\n      jumpi\n      jump(tag_2)\n    tag_17:\n      dup1\n      0x7c360c94\n      gt\n      tag_19\n      jumpi\n      dup1\n      0x7c360c94\n      eq\n      tag_6\n      jumpi\n      dup1\n      0x848c3c5a\n      eq\n      tag_7\n      jumpi\n      dup1\n      0x8da5cb5b\n      eq\n      tag_8\n      jumpi\n      dup1\n      0x94728f57\n      eq\n      tag_9\n      jumpi\n      jump(tag_2)\n    tag_19:\n      dup1\n      0x0c3a9008\n      eq\n      tag_3\n      jumpi\n      dup1\n      0x4f605504\n      eq\n      tag_4\n      jumpi\n      dup1\n      0x715018a6\n      eq\n      tag_5\n      jumpi\n    tag_2:\n      0x00\n      dup1\n      revert\n        /* \"contracts/KaggleDataOracle.sol\":915:961  mapping (address=>RawData) public rawDataStore */\n    tag_3:\n      tag_20\n      0x04\n      dup1\n      calldatasize\n      sub\n      dup2\n      add\n      swap1\n      tag_21\n      swap2\n      swap1\n      tag_22\n      jump\t// in\n    tag_21:\n      tag_23\n      jump\t// in\n    tag_20:\n      mload(0x40)\n      tag_24\n      swap4\n      swap3\n      swap2\n      swap1\n      tag_25\n      jump\t// in\n    tag_24:\n      mload(0x40)\n      dup1\n      swap2\n      sub\n      swap1\n      return\n        /* \"contracts/KaggleDataOracle.sol\":1262:1507  function setRawData(address ad,bytes32 ipfs, bool isActive) public {\r... */\n    tag_4:\n      tag_26\n      0x04\n      dup1\n      calldatasize\n      sub\n      dup2\n      add\n      swap1\n      tag_27\n      swap2\n      swap1\n      tag_28\n      jump\t// in\n    tag_27:\n      tag_29\n      jump\t// in\n    tag_26:\n      stop\n        /* \"@openzeppelin/contracts/access/Ownable.sol\":1831:1932  function renounceOwnership() public virtual onlyOwner {... */\n    tag_5:\n      tag_30\n      tag_31\n      jump\t// in\n    tag_30:\n      stop\n        /* \"contracts/KaggleDataOracle.sol\":1522:2094  function validateDataPoint( address ad,  string memory v2, string memory v3, uint val) public {\r... */\n    tag_6:\n      tag_32\n      0x04\n      dup1\n      calldatasize\n      sub\n      dup2\n      add\n      swap1\n      tag_33\n      swap2\n      swap1\n      tag_34\n      jump\t// in\n    tag_33:\n      tag_35\n      jump\t// in\n    tag_32:\n      stop\n        /* \"contracts/KaggleDataOracle.sol\":2520:2615  function return_self_addr() public view returns(address){\r... */\n    tag_7:\n      tag_36\n      tag_37\n      jump\t// in\n    tag_36:\n      mload(0x40)\n      tag_38\n      swap2\n      swap1\n      tag_39\n      jump\t// in\n    tag_38:\n      mload(0x40)\n      dup1\n      swap2\n      sub\n      swap1\n      return\n        /* \"@openzeppelin/contracts/access/Ownable.sol\":1201:1286  function owner() public view virtual returns (address) {... */\n    tag_8:\n      tag_40\n      tag_41\n      jump\t// in\n    tag_40:\n      mload(0x40)\n      tag_42\n      swap2\n      swap1\n      tag_39\n      jump\t// in\n    tag_42:\n      mload(0x40)\n      dup1\n      swap2\n      sub\n      swap1\n      return\n        /* \"contracts/KaggleDataOracle.sol\":2109:2514  function withdrawMoney(address ad,  string memory v2, string memory v3, uint val) public{\r... */\n    tag_9:\n      tag_43\n      0x04\n      dup1\n      calldatasize\n      sub\n      dup2\n      add\n      swap1\n      tag_44\n      swap2\n      swap1\n      tag_34\n      jump\t// in\n    tag_44:\n      tag_45\n      jump\t// in\n    tag_43:\n      stop\n        /* \"contracts/KaggleDataOracle.sol\":718:816  mapping (address=>mapping(address=>mapping(string=>mapping(string=>uint)))) public validatorSplits */\n    tag_10:\n      tag_46\n      0x04\n      dup1\n      calldatasize\n      sub\n      dup2\n      add\n      swap1\n      tag_47\n      swap2\n      swap1\n      tag_48\n      jump\t// in\n    tag_47:\n      tag_49\n      jump\t// in\n    tag_46:\n      mload(0x40)\n      tag_50\n      swap2\n      swap1\n      tag_51\n      jump\t// in\n    tag_50:\n      mload(0x40)\n      dup1\n      swap2\n      sub\n      swap1\n      return\n        /* \"contracts/KaggleDataOracle.sol\":835:908  mapping (address=>mapping(string=>MaxValue)) public mostFavoredDataOracle */\n    tag_11:\n      tag_52\n      0x04\n      dup1\n      calldatasize\n      sub\n      dup2\n      add\n      swap1\n      tag_53\n      swap2\n      swap1\n      tag_54\n      jump\t// in\n    tag_53:\n      tag_55\n      jump\t// in\n    tag_52:\n      mload(0x40)\n      tag_56\n      swap3\n      swap2\n      swap1\n      tag_57\n      jump\t// in\n    tag_56:\n      mload(0x40)\n      dup1\n      swap2\n      sub\n      swap1\n      return\n        /* \"contracts/KaggleDataOracle.sol\":507:588  mapping (address => mapping(string=>mapping(string=>uint))) public userDataOracle */\n    tag_12:\n      tag_58\n      0x04\n      dup1\n      calldatasize\n      sub\n      dup2\n      add\n      swap1\n      tag_59\n      swap2\n      swap1\n      tag_60\n      jump\t// in\n    tag_59:\n      tag_61\n      jump\t// in\n    tag_58:\n      mload(0x40)\n      tag_62\n      swap2\n      swap1\n      tag_51\n      jump\t// in\n    tag_62:\n      mload(0x40)\n      dup1\n      swap2\n      sub\n      swap1\n      return\n        /* \"contracts/KaggleDataOracle.sol\":2621:2817  function fetch_dp_value(address job_seker_addr, string memory dp_label) external view returns(string memory){\r... */\n    tag_13:\n      tag_63\n      0x04\n      dup1\n      calldatasize\n      sub\n      dup2\n      add\n      swap1\n      tag_64\n      swap2\n      swap1\n      tag_54\n      jump\t// in\n    tag_64:\n      tag_65\n      jump\t// in\n    tag_63:\n      mload(0x40)\n      tag_66\n      swap2\n      swap1\n      tag_67\n      jump\t// in\n    tag_66:\n      mload(0x40)\n      dup1\n      swap2\n      sub\n      swap1\n      return\n        /* \"contracts/KaggleDataOracle.sol\":1003:1148  function getStakeValue(address ad,string memory v2,string memory v3)public view returns(uint){\r... */\n    tag_14:\n      tag_68\n      0x04\n      dup1\n      calldatasize\n      sub\n      dup2\n      add\n      swap1\n      tag_69\n      swap2\n      swap1\n      tag_60\n      jump\t// in\n    tag_69:\n      tag_70\n      jump\t// in\n    tag_68:\n      mload(0x40)\n      tag_71\n      swap2\n      swap1\n      tag_51\n      jump\t// in\n    tag_71:\n      mload(0x40)\n      dup1\n      swap2\n      sub\n      swap1\n      return\n        /* \"@openzeppelin/contracts/access/Ownable.sol\":2081:2279  function transferOwnership(address newOwner) public virtual onlyOwner {... */\n    tag_15:\n      tag_72\n      0x04\n      dup1\n      calldatasize\n      sub\n      dup2\n      add\n      swap1\n      tag_73\n      swap2\n      swap1\n      tag_22\n      jump\t// in\n    tag_73:\n      tag_74\n      jump\t// in\n    tag_72:\n      stop\n        /* \"contracts/KaggleDataOracle.sol\":968:987  IERC20 public token */\n    tag_16:\n      tag_75\n      tag_76\n      jump\t// in\n    tag_75:\n      mload(0x40)\n      tag_77\n      swap2\n      swap1\n      tag_78\n      jump\t// in\n    tag_77:\n      mload(0x40)\n      dup1\n      swap2\n      sub\n      swap1\n      return\n        /* \"contracts/KaggleDataOracle.sol\":915:961  mapping (address=>RawData) public rawDataStore */\n    tag_23:\n      mstore(0x20, 0x04)\n      dup1\n      0x00\n      mstore\n      keccak256(0x00, 0x40)\n      0x00\n      swap2\n      pop\n      swap1\n      pop\n      dup1\n      0x00\n      add\n      sload\n      swap1\n      dup1\n      0x01\n      add\n      0x00\n      swap1\n      sload\n      swap1\n      0x0100\n      exp\n      swap1\n      div\n      0xff\n      and\n      swap1\n      dup1\n      0x01\n      add\n      0x01\n      swap1\n      sload\n      swap1\n      0x0100\n      exp\n      swap1\n      div\n      0xffffffffffffffffffffffffffffffffffffffff\n      and\n      swap1\n      pop\n      dup4\n      jump\t// out\n        /* \"contracts/KaggleDataOracle.sol\":1262:1507  function setRawData(address ad,bytes32 ipfs, bool isActive) public {\r... */\n    tag_29:\n        /* \"contracts/KaggleDataOracle.sol\":1453:1486  RawData(ipfs,isActive,msg.sender) */\n      mload(0x40)\n      dup1\n      0x60\n      add\n      0x40\n      mstore\n      dup1\n        /* \"contracts/KaggleDataOracle.sol\":1461:1465  ipfs */\n      dup4\n        /* \"contracts/KaggleDataOracle.sol\":1453:1486  RawData(ipfs,isActive,msg.sender) */\n      dup2\n      mstore\n      0x20\n      add\n        /* \"contracts/KaggleDataOracle.sol\":1466:1474  isActive */\n      dup3\n        /* \"contracts/KaggleDataOracle.sol\":1453:1486  RawData(ipfs,isActive,msg.sender) */\n      iszero\n      iszero\n      dup2\n      mstore\n      0x20\n      add\n        /* \"contracts/KaggleDataOracle.sol\":1475:1485  msg.sender */\n      caller\n        /* \"contracts/KaggleDataOracle.sol\":1453:1486  RawData(ipfs,isActive,msg.sender) */\n      0xffffffffffffffffffffffffffffffffffffffff\n      and\n      dup2\n      mstore\n      pop\n        /* \"contracts/KaggleDataOracle.sol\":1434:1446  rawDataStore */\n      0x04\n        /* \"contracts/KaggleDataOracle.sol\":1434:1450  rawDataStore[ad] */\n      0x00\n        /* \"contracts/KaggleDataOracle.sol\":1447:1449  ad */\n      dup6\n        /* \"contracts/KaggleDataOracle.sol\":1434:1450  rawDataStore[ad] */\n      0xffffffffffffffffffffffffffffffffffffffff\n      and\n      0xffffffffffffffffffffffffffffffffffffffff\n      and\n      dup2\n      mstore\n      0x20\n      add\n      swap1\n      dup2\n      mstore\n      0x20\n      add\n      0x00\n      keccak256\n        /* \"contracts/KaggleDataOracle.sol\":1434:1486  rawDataStore[ad] = RawData(ipfs,isActive,msg.sender) */\n      0x00\n      dup3\n      add\n      mload\n      dup2\n      0x00\n      add\n      sstore\n      0x20\n      dup3\n      add\n      mload\n      dup2\n      0x01\n      add\n      exp(0x0100, 0x00)\n      dup2\n      sload\n      dup2\n      0xff\n      mul\n      not\n      and\n      swap1\n      dup4\n      iszero\n      iszero\n      mul\n      or\n      swap1\n      sstore\n      pop\n      0x40\n      dup3\n      add\n      mload\n      dup2\n      0x01\n      add\n      exp(0x0100, 0x01)\n      dup2\n      sload\n      dup2\n      0xffffffffffffffffffffffffffffffffffffffff\n      mul\n      not\n      and\n      swap1\n      dup4\n      0xffffffffffffffffffffffffffffffffffffffff\n      and\n      mul\n      or\n      swap1\n      sstore\n      pop\n      swap1\n      pop\n      pop\n        /* \"contracts/KaggleDataOracle.sol\":1262:1507  function setRawData(address ad,bytes32 ipfs, bool isActive) public {\r... */\n      pop\n      pop\n      pop\n      jump\t// out\n        /* \"@openzeppelin/contracts/access/Ownable.sol\":1831:1932  function renounceOwnership() public virtual onlyOwner {... */\n    tag_31:\n        /* \"@openzeppelin/contracts/access/Ownable.sol\":1094:1107  _checkOwner() */\n      tag_81\n        /* \"@openzeppelin/contracts/access/Ownable.sol\":1094:1105  _checkOwner */\n      tag_82\n        /* \"@openzeppelin/contracts/access/Ownable.sol\":1094:1107  _checkOwner() */\n      jump\t// in\n    tag_81:\n        /* \"@openzeppelin/contracts/access/Ownable.sol\":1895:1925  _transferOwnership(address(0)) */\n      tag_84\n        /* \"@openzeppelin/contracts/access/Ownable.sol\":1922:1923  0 */\n      0x00\n        /* \"@openzeppelin/contracts/access/Ownable.sol\":1895:1913  _transferOwnership */\n      tag_85\n        /* \"@openzeppelin/contracts/access/Ownable.sol\":1895:1925  _transferOwnership(address(0)) */\n      jump\t// in\n    tag_84:\n        /* \"@openzeppelin/contracts/access/Ownable.sol\":1831:1932  function renounceOwnership() public virtual onlyOwner {... */\n      jump\t// out\n        /* \"contracts/KaggleDataOracle.sol\":1522:2094  function validateDataPoint( address ad,  string memory v2, string memory v3, uint val) public {\r... */\n    tag_35:\n        /* \"contracts/KaggleDataOracle.sol\":1663:1667  true */\n      0x01\n        /* \"contracts/KaggleDataOracle.sol\":1635:1667  rawDataStore[ad].isActive ==true */\n      iszero\n      iszero\n        /* \"contracts/KaggleDataOracle.sol\":1635:1647  rawDataStore */\n      0x04\n        /* \"contracts/KaggleDataOracle.sol\":1635:1651  rawDataStore[ad] */\n      0x00\n        /* \"contracts/KaggleDataOracle.sol\":1648:1650  ad */\n      dup7\n        /* \"contracts/KaggleDataOracle.sol\":1635:1651  rawDataStore[ad] */\n      0xffffffffffffffffffffffffffffffffffffffff\n      and\n      0xffffffffffffffffffffffffffffffffffffffff\n      and\n      dup2\n      mstore\n      0x20\n      add\n      swap1\n      dup2\n      mstore\n      0x20\n      add\n      0x00\n      keccak256\n        /* \"contracts/KaggleDataOracle.sol\":1635:1660  rawDataStore[ad].isActive */\n      0x01\n      add\n      0x00\n      swap1\n      sload\n      swap1\n      0x0100\n      exp\n      swap1\n      div\n      0xff\n      and\n        /* \"contracts/KaggleDataOracle.sol\":1635:1667  rawDataStore[ad].isActive ==true */\n      iszero\n      iszero\n      eq\n        /* \"contracts/KaggleDataOracle.sol\":1627:1693  require(rawDataStore[ad].isActive ==true , \"Raw Data not stored!\") */\n      tag_87\n      jumpi\n      mload(0x40)\n      0x08c379a000000000000000000000000000000000000000000000000000000000\n      dup2\n      mstore\n      0x04\n      add\n      tag_88\n      swap1\n      tag_89\n      jump\t// in\n    tag_88:\n      mload(0x40)\n      dup1\n      swap2\n      sub\n      swap1\n      revert\n    tag_87:\n        /* \"contracts/KaggleDataOracle.sol\":1716:1717  0 */\n      0x00\n        /* \"contracts/KaggleDataOracle.sol\":1712:1715  val */\n      dup2\n        /* \"contracts/KaggleDataOracle.sol\":1712:1717  val>0 */\n      gt\n        /* \"contracts/KaggleDataOracle.sol\":1704:1749  require(val>0,\"Value must be greator than 0\") */\n      tag_90\n      jumpi\n      mload(0x40)\n      0x08c379a000000000000000000000000000000000000000000000000000000000\n      dup2\n      mstore\n      0x04\n      add\n      tag_91\n      swap1\n      tag_92\n      jump\t// in\n    tag_91:\n      mload(0x40)\n      dup1\n      swap2\n      sub\n      swap1\n      revert\n    tag_90:\n        /* \"contracts/KaggleDataOracle.sol\":1760:1765  token */\n      0x05\n      0x00\n      swap1\n      sload\n      swap1\n      0x0100\n      exp\n      swap1\n      div\n      0xffffffffffffffffffffffffffffffffffffffff\n      and\n        /* \"contracts/KaggleDataOracle.sol\":1760:1778  token.transferFrom */\n      0xffffffffffffffffffffffffffffffffffffffff\n      and\n      0x23b872dd\n        /* \"contracts/KaggleDataOracle.sol\":1779:1789  msg.sender */\n      caller\n        /* \"contracts/KaggleDataOracle.sol\":1798:1802  this */\n      address\n        /* \"contracts/KaggleDataOracle.sol\":1804:1807  val */\n      dup5\n        /* \"contracts/KaggleDataOracle.sol\":1760:1808  token.transferFrom(msg.sender,address(this),val) */\n      mload(0x40)\n      dup5\n      0xffffffff\n      and\n      0xe0\n      shl\n      dup2\n      mstore\n      0x04\n      add\n      tag_93\n      swap4\n      swap3\n      swap2\n      swap1\n      tag_94\n      jump\t// in\n    tag_93:\n      0x20\n      mload(0x40)\n      dup1\n      dup4\n      sub\n      dup2\n      0x00\n      dup8\n      dup1\n      extcodesize\n      iszero\n      dup1\n      iszero\n      tag_95\n      jumpi\n      0x00\n      dup1\n      revert\n    tag_95:\n      pop\n      gas\n      call\n      iszero\n      dup1\n      iszero\n      tag_97\n      jumpi\n      returndatasize\n      0x00\n      dup1\n      returndatacopy\n      revert(0x00, returndatasize)\n    tag_97:\n      pop\n      pop\n      pop\n      pop\n      mload(0x40)\n      returndatasize\n      not(0x1f)\n      0x1f\n      dup3\n      add\n      and\n      dup3\n      add\n      dup1\n      0x40\n      mstore\n      pop\n      dup2\n      add\n      swap1\n      tag_98\n      swap2\n      swap1\n      tag_99\n      jump\t// in\n    tag_98:\n      pop\n        /* \"contracts/KaggleDataOracle.sol\":1847:1850  val */\n      dup1\n        /* \"contracts/KaggleDataOracle.sol\":1819:1833  userDataOracle */\n      0x01\n        /* \"contracts/KaggleDataOracle.sol\":1819:1837  userDataOracle[ad] */\n      0x00\n        /* \"contracts/KaggleDataOracle.sol\":1834:1836  ad */\n      dup7\n        /* \"contracts/KaggleDataOracle.sol\":1819:1837  userDataOracle[ad] */\n      0xffffffffffffffffffffffffffffffffffffffff\n      and\n      0xffffffffffffffffffffffffffffffffffffffff\n      and\n      dup2\n      mstore\n      0x20\n      add\n      swap1\n      dup2\n      mstore\n      0x20\n      add\n      0x00\n      keccak256\n        /* \"contracts/KaggleDataOracle.sol\":1838:1840  v2 */\n      dup5\n        /* \"contracts/KaggleDataOracle.sol\":1819:1841  userDataOracle[ad][v2] */\n      mload(0x40)\n      tag_100\n      swap2\n      swap1\n      tag_101\n      jump\t// in\n    tag_100:\n      swap1\n      dup2\n      mstore\n      0x20\n      add\n      mload(0x40)\n      dup1\n      swap2\n      sub\n      swap1\n      keccak256\n        /* \"contracts/KaggleDataOracle.sol\":1842:1844  v3 */\n      dup4\n        /* \"contracts/KaggleDataOracle.sol\":1819:1845  userDataOracle[ad][v2][v3] */\n      mload(0x40)\n      tag_102\n      swap2\n      swap1\n      tag_101\n      jump\t// in\n    tag_102:\n      swap1\n      dup2\n      mstore\n      0x20\n      add\n      mload(0x40)\n      dup1\n      swap2\n      sub\n      swap1\n      keccak256\n      0x00\n        /* \"contracts/KaggleDataOracle.sol\":1819:1850  userDataOracle[ad][v2][v3]+=val */\n      dup3\n      dup3\n      sload\n      tag_103\n      swap2\n      swap1\n      tag_104\n      jump\t// in\n    tag_103:\n      swap3\n      pop\n      pop\n      dup2\n      swap1\n      sstore\n      pop\n        /* \"contracts/KaggleDataOracle.sol\":1902:1905  val */\n      dup1\n        /* \"contracts/KaggleDataOracle.sol\":1861:1876  validatorSplits */\n      0x02\n        /* \"contracts/KaggleDataOracle.sol\":1861:1888  validatorSplits[msg.sender] */\n      0x00\n        /* \"contracts/KaggleDataOracle.sol\":1877:1887  msg.sender */\n      caller\n        /* \"contracts/KaggleDataOracle.sol\":1861:1888  validatorSplits[msg.sender] */\n      0xffffffffffffffffffffffffffffffffffffffff\n      and\n      0xffffffffffffffffffffffffffffffffffffffff\n      and\n      dup2\n      mstore\n      0x20\n      add\n      swap1\n      dup2\n      mstore\n      0x20\n      add\n      0x00\n      keccak256\n        /* \"contracts/KaggleDataOracle.sol\":1861:1892  validatorSplits[msg.sender][ad] */\n      0x00\n        /* \"contracts/KaggleDataOracle.sol\":1889:1891  ad */\n      dup7\n        /* \"contracts/KaggleDataOracle.sol\":1861:1892  validatorSplits[msg.sender][ad] */\n      0xffffffffffffffffffffffffffffffffffffffff\n      and\n      0xffffffffffffffffffffffffffffffffffffffff\n      and\n      dup2\n      mstore\n      0x20\n      add\n      swap1\n      dup2\n      mstore\n      0x20\n      add\n      0x00\n      keccak256\n        /* \"contracts/KaggleDataOracle.sol\":1893:1895  v2 */\n      dup5\n        /* \"contracts/KaggleDataOracle.sol\":1861:1896  validatorSplits[msg.sender][ad][v2] */\n      mload(0x40)\n      tag_105\n      swap2\n      swap1\n      tag_101\n      jump\t// in\n    tag_105:\n      swap1\n      dup2\n      mstore\n      0x20\n      add\n      mload(0x40)\n      dup1\n      swap2\n      sub\n      swap1\n      keccak256\n        /* \"contracts/KaggleDataOracle.sol\":1897:1899  v3 */\n      dup4\n        /* \"contracts/KaggleDataOracle.sol\":1861:1900  validatorSplits[msg.sender][ad][v2][v3] */\n      mload(0x40)\n      tag_106\n      swap2\n      swap1\n      tag_101\n      jump\t// in\n    tag_106:\n      swap1\n      dup2\n      mstore\n      0x20\n      add\n      mload(0x40)\n      dup1\n      swap2\n      sub\n      swap1\n      keccak256\n      0x00\n        /* \"contracts/KaggleDataOracle.sol\":1861:1905  validatorSplits[msg.sender][ad][v2][v3]+=val */\n      dup3\n      dup3\n      sload\n      tag_107\n      swap2\n      swap1\n      tag_104\n      jump\t// in\n    tag_107:\n      swap3\n      pop\n      pop\n      dup2\n      swap1\n      sstore\n      pop\n        /* \"contracts/KaggleDataOracle.sol\":1962:1976  userDataOracle */\n      0x01\n        /* \"contracts/KaggleDataOracle.sol\":1962:1980  userDataOracle[ad] */\n      0x00\n        /* \"contracts/KaggleDataOracle.sol\":1977:1979  ad */\n      dup6\n        /* \"contracts/KaggleDataOracle.sol\":1962:1980  userDataOracle[ad] */\n      0xffffffffffffffffffffffffffffffffffffffff\n      and\n      0xffffffffffffffffffffffffffffffffffffffff\n      and\n      dup2\n      mstore\n      0x20\n      add\n      swap1\n      dup2\n      mstore\n      0x20\n      add\n      0x00\n      keccak256\n        /* \"contracts/KaggleDataOracle.sol\":1981:1983  v2 */\n      dup4\n        /* \"contracts/KaggleDataOracle.sol\":1962:1984  userDataOracle[ad][v2] */\n      mload(0x40)\n      tag_108\n      swap2\n      swap1\n      tag_101\n      jump\t// in\n    tag_108:\n      swap1\n      dup2\n      mstore\n      0x20\n      add\n      mload(0x40)\n      dup1\n      swap2\n      sub\n      swap1\n      keccak256\n        /* \"contracts/KaggleDataOracle.sol\":1985:1987  v3 */\n      dup3\n        /* \"contracts/KaggleDataOracle.sol\":1962:1988  userDataOracle[ad][v2][v3] */\n      mload(0x40)\n      tag_109\n      swap2\n      swap1\n      tag_101\n      jump\t// in\n    tag_109:\n      swap1\n      dup2\n      mstore\n      0x20\n      add\n      mload(0x40)\n      dup1\n      swap2\n      sub\n      swap1\n      keccak256\n      sload\n        /* \"contracts/KaggleDataOracle.sol\":1919:1940  mostFavoredDataOracle */\n      0x03\n        /* \"contracts/KaggleDataOracle.sol\":1919:1944  mostFavoredDataOracle[ad] */\n      0x00\n        /* \"contracts/KaggleDataOracle.sol\":1941:1943  ad */\n      dup7\n        /* \"contracts/KaggleDataOracle.sol\":1919:1944  mostFavoredDataOracle[ad] */\n      0xffffffffffffffffffffffffffffffffffffffff\n      and\n      0xffffffffffffffffffffffffffffffffffffffff\n      and\n      dup2\n      mstore\n      0x20\n      add\n      swap1\n      dup2\n      mstore\n      0x20\n      add\n      0x00\n      keccak256\n        /* \"contracts/KaggleDataOracle.sol\":1945:1947  v2 */\n      dup5\n        /* \"contracts/KaggleDataOracle.sol\":1919:1948  mostFavoredDataOracle[ad][v2] */\n      mload(0x40)\n      tag_110\n      swap2\n      swap1\n      tag_101\n      jump\t// in\n    tag_110:\n      swap1\n      dup2\n      mstore\n      0x20\n      add\n      mload(0x40)\n      dup1\n      swap2\n      sub\n      swap1\n      keccak256\n        /* \"contracts/KaggleDataOracle.sol\":1919:1961  mostFavoredDataOracle[ad][v2].stakedAmount */\n      0x01\n      add\n      sload\n        /* \"contracts/KaggleDataOracle.sol\":1919:1988  mostFavoredDataOracle[ad][v2].stakedAmount>userDataOracle[ad][v2][v3] */\n      gt\n        /* \"contracts/KaggleDataOracle.sol\":1916:2087  if(mostFavoredDataOracle[ad][v2].stakedAmount>userDataOracle[ad][v2][v3]){\r... */\n      iszero\n      tag_111\n      jumpi\n        /* \"contracts/KaggleDataOracle.sol\":2036:2075  MaxValue(v3,userDataOracle[ad][v2][v3]) */\n      mload(0x40)\n      dup1\n      0x40\n      add\n      0x40\n      mstore\n      dup1\n        /* \"contracts/KaggleDataOracle.sol\":2045:2047  v3 */\n      dup4\n        /* \"contracts/KaggleDataOracle.sol\":2036:2075  MaxValue(v3,userDataOracle[ad][v2][v3]) */\n      dup2\n      mstore\n      0x20\n      add\n        /* \"contracts/KaggleDataOracle.sol\":2048:2062  userDataOracle */\n      0x01\n        /* \"contracts/KaggleDataOracle.sol\":2048:2066  userDataOracle[ad] */\n      0x00\n        /* \"contracts/KaggleDataOracle.sol\":2063:2065  ad */\n      dup8\n        /* \"contracts/KaggleDataOracle.sol\":2048:2066  userDataOracle[ad] */\n      0xffffffffffffffffffffffffffffffffffffffff\n      and\n      0xffffffffffffffffffffffffffffffffffffffff\n      and\n      dup2\n      mstore\n      0x20\n      add\n      swap1\n      dup2\n      mstore\n      0x20\n      add\n      0x00\n      keccak256\n        /* \"contracts/KaggleDataOracle.sol\":2067:2069  v2 */\n      dup6\n        /* \"contracts/KaggleDataOracle.sol\":2048:2070  userDataOracle[ad][v2] */\n      mload(0x40)\n      tag_112\n      swap2\n      swap1\n      tag_101\n      jump\t// in\n    tag_112:\n      swap1\n      dup2\n      mstore\n      0x20\n      add\n      mload(0x40)\n      dup1\n      swap2\n      sub\n      swap1\n      keccak256\n        /* \"contracts/KaggleDataOracle.sol\":2071:2073  v3 */\n      dup5\n        /* \"contracts/KaggleDataOracle.sol\":2048:2074  userDataOracle[ad][v2][v3] */\n      mload(0x40)\n      tag_113\n      swap2\n      swap1\n      tag_101\n      jump\t// in\n    tag_113:\n      swap1\n      dup2\n      mstore\n      0x20\n      add\n      mload(0x40)\n      dup1\n      swap2\n      sub\n      swap1\n      keccak256\n      sload\n        /* \"contracts/KaggleDataOracle.sol\":2036:2075  MaxValue(v3,userDataOracle[ad][v2][v3]) */\n      dup2\n      mstore\n      pop\n        /* \"contracts/KaggleDataOracle.sol\":2004:2025  mostFavoredDataOracle */\n      0x03\n        /* \"contracts/KaggleDataOracle.sol\":2004:2029  mostFavoredDataOracle[ad] */\n      0x00\n        /* \"contracts/KaggleDataOracle.sol\":2026:2028  ad */\n      dup7\n        /* \"contracts/KaggleDataOracle.sol\":2004:2029  mostFavoredDataOracle[ad] */\n      0xffffffffffffffffffffffffffffffffffffffff\n      and\n      0xffffffffffffffffffffffffffffffffffffffff\n      and\n      dup2\n      mstore\n      0x20\n      add\n      swap1\n      dup2\n      mstore\n      0x20\n      add\n      0x00\n      keccak256\n        /* \"contracts/KaggleDataOracle.sol\":2030:2032  v2 */\n      dup5\n        /* \"contracts/KaggleDataOracle.sol\":2004:2033  mostFavoredDataOracle[ad][v2] */\n      mload(0x40)\n      tag_114\n      swap2\n      swap1\n      tag_101\n      jump\t// in\n    tag_114:\n      swap1\n      dup2\n      mstore\n      0x20\n      add\n      mload(0x40)\n      dup1\n      swap2\n      sub\n      swap1\n      keccak256\n        /* \"contracts/KaggleDataOracle.sol\":2004:2075  mostFavoredDataOracle[ad][v2] = MaxValue(v3,userDataOracle[ad][v2][v3]) */\n      0x00\n      dup3\n      add\n      mload\n      dup2\n      0x00\n      add\n      swap1\n      dup1\n      mload\n      swap1\n      0x20\n      add\n      swap1\n      tag_115\n      swap3\n      swap2\n      swap1\n      tag_116\n      jump\t// in\n    tag_115:\n      pop\n      0x20\n      dup3\n      add\n      mload\n      dup2\n      0x01\n      add\n      sstore\n      swap1\n      pop\n      pop\n        /* \"contracts/KaggleDataOracle.sol\":1916:2087  if(mostFavoredDataOracle[ad][v2].stakedAmount>userDataOracle[ad][v2][v3]){\r... */\n    tag_111:\n        /* \"contracts/KaggleDataOracle.sol\":1522:2094  function validateDataPoint( address ad,  string memory v2, string memory v3, uint val) public {\r... */\n      pop\n      pop\n      pop\n      pop\n      jump\t// out\n        /* \"contracts/KaggleDataOracle.sol\":2520:2615  function return_self_addr() public view returns(address){\r... */\n    tag_37:\n        /* \"contracts/KaggleDataOracle.sol\":2568:2575  address */\n      0x00\n        /* \"contracts/KaggleDataOracle.sol\":2602:2606  this */\n      address\n        /* \"contracts/KaggleDataOracle.sol\":2587:2607  return address(this) */\n      swap1\n      pop\n        /* \"contracts/KaggleDataOracle.sol\":2520:2615  function return_self_addr() public view returns(address){\r... */\n      swap1\n      jump\t// out\n        /* \"@openzeppelin/contracts/access/Ownable.sol\":1201:1286  function owner() public view virtual returns (address) {... */\n    tag_41:\n        /* \"@openzeppelin/contracts/access/Ownable.sol\":1247:1254  address */\n      0x00\n        /* \"@openzeppelin/contracts/access/Ownable.sol\":1273:1279  _owner */\n      dup1\n      0x00\n      swap1\n      sload\n      swap1\n      0x0100\n      exp\n      swap1\n      div\n      0xffffffffffffffffffffffffffffffffffffffff\n      and\n        /* \"@openzeppelin/contracts/access/Ownable.sol\":1266:1279  return _owner */\n      swap1\n      pop\n        /* \"@openzeppelin/contracts/access/Ownable.sol\":1201:1286  function owner() public view virtual returns (address) {... */\n      swap1\n      jump\t// out\n        /* \"contracts/KaggleDataOracle.sol\":2109:2514  function withdrawMoney(address ad,  string memory v2, string memory v3, uint val) public{\r... */\n    tag_45:\n        /* \"contracts/KaggleDataOracle.sol\":2257:2260  val */\n      dup1\n        /* \"contracts/KaggleDataOracle.sol\":2216:2231  validatorSplits */\n      0x02\n        /* \"contracts/KaggleDataOracle.sol\":2216:2243  validatorSplits[msg.sender] */\n      0x00\n        /* \"contracts/KaggleDataOracle.sol\":2232:2242  msg.sender */\n      caller\n        /* \"contracts/KaggleDataOracle.sol\":2216:2243  validatorSplits[msg.sender] */\n      0xffffffffffffffffffffffffffffffffffffffff\n      and\n      0xffffffffffffffffffffffffffffffffffffffff\n      and\n      dup2\n      mstore\n      0x20\n      add\n      swap1\n      dup2\n      mstore\n      0x20\n      add\n      0x00\n      keccak256\n        /* \"contracts/KaggleDataOracle.sol\":2216:2247  validatorSplits[msg.sender][ad] */\n      0x00\n        /* \"contracts/KaggleDataOracle.sol\":2244:2246  ad */\n      dup7\n        /* \"contracts/KaggleDataOracle.sol\":2216:2247  validatorSplits[msg.sender][ad] */\n      0xffffffffffffffffffffffffffffffffffffffff\n      and\n      0xffffffffffffffffffffffffffffffffffffffff\n      and\n      dup2\n      mstore\n      0x20\n      add\n      swap1\n      dup2\n      mstore\n      0x20\n      add\n      0x00\n      keccak256\n        /* \"contracts/KaggleDataOracle.sol\":2248:2250  v2 */\n      dup5\n        /* \"contracts/KaggleDataOracle.sol\":2216:2251  validatorSplits[msg.sender][ad][v2] */\n      mload(0x40)\n      tag_120\n      swap2\n      swap1\n      tag_101\n      jump\t// in\n    tag_120:\n      swap1\n      dup2\n      mstore\n      0x20\n      add\n      mload(0x40)\n      dup1\n      swap2\n      sub\n      swap1\n      keccak256\n        /* \"contracts/KaggleDataOracle.sol\":2252:2254  v3 */\n      dup4\n        /* \"contracts/KaggleDataOracle.sol\":2216:2255  validatorSplits[msg.sender][ad][v2][v3] */\n      mload(0x40)\n      tag_121\n      swap2\n      swap1\n      tag_101\n      jump\t// in\n    tag_121:\n      swap1\n      dup2\n      mstore\n      0x20\n      add\n      mload(0x40)\n      dup1\n      swap2\n      sub\n      swap1\n      keccak256\n      sload\n        /* \"contracts/KaggleDataOracle.sol\":2216:2260  validatorSplits[msg.sender][ad][v2][v3]>=val */\n      lt\n      iszero\n        /* \"contracts/KaggleDataOracle.sol\":2208:2286  require(validatorSplits[msg.sender][ad][v2][v3]>=val,\"Amount Exceeds Balance\") */\n      tag_122\n      jumpi\n      mload(0x40)\n      0x08c379a000000000000000000000000000000000000000000000000000000000\n      dup2\n      mstore\n      0x04\n      add\n      tag_123\n      swap1\n      tag_124\n      jump\t// in\n    tag_123:\n      mload(0x40)\n      dup1\n      swap2\n      sub\n      swap1\n      revert\n    tag_122:\n        /* \"contracts/KaggleDataOracle.sol\":2333:2336  val */\n      dup1\n        /* \"contracts/KaggleDataOracle.sol\":2305:2319  userDataOracle */\n      0x01\n        /* \"contracts/KaggleDataOracle.sol\":2305:2323  userDataOracle[ad] */\n      0x00\n        /* \"contracts/KaggleDataOracle.sol\":2320:2322  ad */\n      dup7\n        /* \"contracts/KaggleDataOracle.sol\":2305:2323  userDataOracle[ad] */\n      0xffffffffffffffffffffffffffffffffffffffff\n      and\n      0xffffffffffffffffffffffffffffffffffffffff\n      and\n      dup2\n      mstore\n      0x20\n      add\n      swap1\n      dup2\n      mstore\n      0x20\n      add\n      0x00\n      keccak256\n        /* \"contracts/KaggleDataOracle.sol\":2324:2326  v2 */\n      dup5\n        /* \"contracts/KaggleDataOracle.sol\":2305:2327  userDataOracle[ad][v2] */\n      mload(0x40)\n      tag_125\n      swap2\n      swap1\n      tag_101\n      jump\t// in\n    tag_125:\n      swap1\n      dup2\n      mstore\n      0x20\n      add\n      mload(0x40)\n      dup1\n      swap2\n      sub\n      swap1\n      keccak256\n        /* \"contracts/KaggleDataOracle.sol\":2328:2330  v3 */\n      dup4\n        /* \"contracts/KaggleDataOracle.sol\":2305:2331  userDataOracle[ad][v2][v3] */\n      mload(0x40)\n      tag_126\n      swap2\n      swap1\n      tag_101\n      jump\t// in\n    tag_126:\n      swap1\n      dup2\n      mstore\n      0x20\n      add\n      mload(0x40)\n      dup1\n      swap2\n      sub\n      swap1\n      keccak256\n      sload\n        /* \"contracts/KaggleDataOracle.sol\":2305:2336  userDataOracle[ad][v2][v3]>=val */\n      lt\n      iszero\n        /* \"contracts/KaggleDataOracle.sol\":2297:2368  require(userDataOracle[ad][v2][v3]>=val,\"Amount Exceeds Total Balance\") */\n      tag_127\n      jumpi\n      mload(0x40)\n      0x08c379a000000000000000000000000000000000000000000000000000000000\n      dup2\n      mstore\n      0x04\n      add\n      tag_128\n      swap1\n      tag_129\n      jump\t// in\n    tag_128:\n      mload(0x40)\n      dup1\n      swap2\n      sub\n      swap1\n      revert\n    tag_127:\n        /* \"contracts/KaggleDataOracle.sol\":2379:2384  token */\n      0x05\n      0x00\n      swap1\n      sload\n      swap1\n      0x0100\n      exp\n      swap1\n      div\n      0xffffffffffffffffffffffffffffffffffffffff\n      and\n        /* \"contracts/KaggleDataOracle.sol\":2379:2393  token.transfer */\n      0xffffffffffffffffffffffffffffffffffffffff\n      and\n      0xa9059cbb\n        /* \"contracts/KaggleDataOracle.sol\":2394:2404  msg.sender */\n      caller\n        /* \"contracts/KaggleDataOracle.sol\":2405:2408  val */\n      dup4\n        /* \"contracts/KaggleDataOracle.sol\":2379:2409  token.transfer(msg.sender,val) */\n      mload(0x40)\n      dup4\n      0xffffffff\n      and\n      0xe0\n      shl\n      dup2\n      mstore\n      0x04\n      add\n      tag_130\n      swap3\n      swap2\n      swap1\n      tag_131\n      jump\t// in\n    tag_130:\n      0x20\n      mload(0x40)\n      dup1\n      dup4\n      sub\n      dup2\n      0x00\n      dup8\n      dup1\n      extcodesize\n      iszero\n      dup1\n      iszero\n      tag_132\n      jumpi\n      0x00\n      dup1\n      revert\n    tag_132:\n      pop\n      gas\n      call\n      iszero\n      dup1\n      iszero\n      tag_134\n      jumpi\n      returndatasize\n      0x00\n      dup1\n      returndatacopy\n      revert(0x00, returndatasize)\n    tag_134:\n      pop\n      pop\n      pop\n      pop\n      mload(0x40)\n      returndatasize\n      not(0x1f)\n      0x1f\n      dup3\n      add\n      and\n      dup3\n      add\n      dup1\n      0x40\n      mstore\n      pop\n      dup2\n      add\n      swap1\n      tag_135\n      swap2\n      swap1\n      tag_99\n      jump\t// in\n    tag_135:\n      pop\n        /* \"contracts/KaggleDataOracle.sol\":2448:2451  val */\n      dup1\n        /* \"contracts/KaggleDataOracle.sol\":2420:2434  userDataOracle */\n      0x01\n        /* \"contracts/KaggleDataOracle.sol\":2420:2438  userDataOracle[ad] */\n      0x00\n        /* \"contracts/KaggleDataOracle.sol\":2435:2437  ad */\n      dup7\n        /* \"contracts/KaggleDataOracle.sol\":2420:2438  userDataOracle[ad] */\n      0xffffffffffffffffffffffffffffffffffffffff\n      and\n      0xffffffffffffffffffffffffffffffffffffffff\n      and\n      dup2\n      mstore\n      0x20\n      add\n      swap1\n      dup2\n      mstore\n      0x20\n      add\n      0x00\n      keccak256\n        /* \"contracts/KaggleDataOracle.sol\":2439:2441  v2 */\n      dup5\n        /* \"contracts/KaggleDataOracle.sol\":2420:2442  userDataOracle[ad][v2] */\n      mload(0x40)\n      tag_136\n      swap2\n      swap1\n      tag_101\n      jump\t// in\n    tag_136:\n      swap1\n      dup2\n      mstore\n      0x20\n      add\n      mload(0x40)\n      dup1\n      swap2\n      sub\n      swap1\n      keccak256\n        /* \"contracts/KaggleDataOracle.sol\":2443:2445  v3 */\n      dup4\n        /* \"contracts/KaggleDataOracle.sol\":2420:2446  userDataOracle[ad][v2][v3] */\n      mload(0x40)\n      tag_137\n      swap2\n      swap1\n      tag_101\n      jump\t// in\n    tag_137:\n      swap1\n      dup2\n      mstore\n      0x20\n      add\n      mload(0x40)\n      dup1\n      swap2\n      sub\n      swap1\n      keccak256\n      0x00\n        /* \"contracts/KaggleDataOracle.sol\":2420:2451  userDataOracle[ad][v2][v3]-=val */\n      dup3\n      dup3\n      sload\n      tag_138\n      swap2\n      swap1\n      tag_139\n      jump\t// in\n    tag_138:\n      swap3\n      pop\n      pop\n      dup2\n      swap1\n      sstore\n      pop\n        /* \"contracts/KaggleDataOracle.sol\":2503:2506  val */\n      dup1\n        /* \"contracts/KaggleDataOracle.sol\":2462:2477  validatorSplits */\n      0x02\n        /* \"contracts/KaggleDataOracle.sol\":2462:2489  validatorSplits[msg.sender] */\n      0x00\n        /* \"contracts/KaggleDataOracle.sol\":2478:2488  msg.sender */\n      caller\n        /* \"contracts/KaggleDataOracle.sol\":2462:2489  validatorSplits[msg.sender] */\n      0xffffffffffffffffffffffffffffffffffffffff\n      and\n      0xffffffffffffffffffffffffffffffffffffffff\n      and\n      dup2\n      mstore\n      0x20\n      add\n      swap1\n      dup2\n      mstore\n      0x20\n      add\n      0x00\n      keccak256\n        /* \"contracts/KaggleDataOracle.sol\":2462:2493  validatorSplits[msg.sender][ad] */\n      0x00\n        /* \"contracts/KaggleDataOracle.sol\":2490:2492  ad */\n      dup7\n        /* \"contracts/KaggleDataOracle.sol\":2462:2493  validatorSplits[msg.sender][ad] */\n      0xffffffffffffffffffffffffffffffffffffffff\n      and\n      0xffffffffffffffffffffffffffffffffffffffff\n      and\n      dup2\n      mstore\n      0x20\n      add\n      swap1\n      dup2\n      mstore\n      0x20\n      add\n      0x00\n      keccak256\n        /* \"contracts/KaggleDataOracle.sol\":2494:2496  v2 */\n      dup5\n        /* \"contracts/KaggleDataOracle.sol\":2462:2497  validatorSplits[msg.sender][ad][v2] */\n      mload(0x40)\n      tag_140\n      swap2\n      swap1\n      tag_101\n      jump\t// in\n    tag_140:\n      swap1\n      dup2\n      mstore\n      0x20\n      add\n      mload(0x40)\n      dup1\n      swap2\n      sub\n      swap1\n      keccak256\n        /* \"contracts/KaggleDataOracle.sol\":2498:2500  v3 */\n      dup4\n        /* \"contracts/KaggleDataOracle.sol\":2462:2501  validatorSplits[msg.sender][ad][v2][v3] */\n      mload(0x40)\n      tag_141\n      swap2\n      swap1\n      tag_101\n      jump\t// in\n    tag_141:\n      swap1\n      dup2\n      mstore\n      0x20\n      add\n      mload(0x40)\n      dup1\n      swap2\n      sub\n      swap1\n      keccak256\n      0x00\n        /* \"contracts/KaggleDataOracle.sol\":2462:2506  validatorSplits[msg.sender][ad][v2][v3]-=val */\n      dup3\n      dup3\n      sload\n      tag_142\n      swap2\n      swap1\n      tag_139\n      jump\t// in\n    tag_142:\n      swap3\n      pop\n      pop\n      dup2\n      swap1\n      sstore\n      pop\n        /* \"contracts/KaggleDataOracle.sol\":2109:2514  function withdrawMoney(address ad,  string memory v2, string memory v3, uint val) public{\r... */\n      pop\n      pop\n      pop\n      pop\n      jump\t// out\n        /* \"contracts/KaggleDataOracle.sol\":718:816  mapping (address=>mapping(address=>mapping(string=>mapping(string=>uint)))) public validatorSplits */\n    tag_49:\n      mstore(0x20, 0x02)\n      dup4\n      0x00\n      mstore\n      mstore(0x20, keccak256(0x00, 0x40))\n      dup3\n      0x00\n      mstore\n      keccak256(0x00, 0x40)\n      dup3\n      dup1\n      mload\n      0x20\n      dup2\n      add\n      dup3\n      add\n      dup1\n      mload\n      dup5\n      dup3\n      mstore\n      0x20\n      dup4\n      add\n      0x20\n      dup6\n      add\n      keccak256\n      dup2\n      dup4\n      mstore\n      dup1\n      swap6\n      pop\n      pop\n      pop\n      pop\n      pop\n      pop\n      dup2\n      dup1\n      mload\n      0x20\n      dup2\n      add\n      dup3\n      add\n      dup1\n      mload\n      dup5\n      dup3\n      mstore\n      0x20\n      dup4\n      add\n      0x20\n      dup6\n      add\n      keccak256\n      dup2\n      dup4\n      mstore\n      dup1\n      swap6\n      pop\n      pop\n      pop\n      pop\n      pop\n      pop\n      0x00\n      swap4\n      pop\n      swap4\n      pop\n      pop\n      pop\n      pop\n      sload\n      dup2\n      jump\t// out\n        /* \"contracts/KaggleDataOracle.sol\":835:908  mapping (address=>mapping(string=>MaxValue)) public mostFavoredDataOracle */\n    tag_55:\n      mstore(0x20, 0x03)\n      dup2\n      0x00\n      mstore\n      keccak256(0x00, 0x40)\n      dup2\n      dup1\n      mload\n      0x20\n      dup2\n      add\n      dup3\n      add\n      dup1\n      mload\n      dup5\n      dup3\n      mstore\n      0x20\n      dup4\n      add\n      0x20\n      dup6\n      add\n      keccak256\n      dup2\n      dup4\n      mstore\n      dup1\n      swap6\n      pop\n      pop\n      pop\n      pop\n      pop\n      pop\n      0x00\n      swap2\n      pop\n      swap2\n      pop\n      pop\n      dup1\n      0x00\n      add\n      dup1\n      sload\n      tag_143\n      swap1\n      tag_144\n      jump\t// in\n    tag_143:\n      dup1\n      0x1f\n      add\n      0x20\n      dup1\n      swap2\n      div\n      mul\n      0x20\n      add\n      mload(0x40)\n      swap1\n      dup2\n      add\n      0x40\n      mstore\n      dup1\n      swap3\n      swap2\n      swap1\n      dup2\n      dup2\n      mstore\n      0x20\n      add\n      dup3\n      dup1\n      sload\n      tag_145\n      swap1\n      tag_144\n      jump\t// in\n    tag_145:\n      dup1\n      iszero\n      tag_146\n      jumpi\n      dup1\n      0x1f\n      lt\n      tag_147\n      jumpi\n      0x0100\n      dup1\n      dup4\n      sload\n      div\n      mul\n      dup4\n      mstore\n      swap2\n      0x20\n      add\n      swap2\n      jump(tag_146)\n    tag_147:\n      dup3\n      add\n      swap2\n      swap1\n      0x00\n      mstore\n      keccak256(0x00, 0x20)\n      swap1\n    tag_148:\n      dup2\n      sload\n      dup2\n      mstore\n      swap1\n      0x01\n      add\n      swap1\n      0x20\n      add\n      dup1\n      dup4\n      gt\n      tag_148\n      jumpi\n      dup3\n      swap1\n      sub\n      0x1f\n      and\n      dup3\n      add\n      swap2\n    tag_146:\n      pop\n      pop\n      pop\n      pop\n      pop\n      swap1\n      dup1\n      0x01\n      add\n      sload\n      swap1\n      pop\n      dup3\n      jump\t// out\n        /* \"contracts/KaggleDataOracle.sol\":507:588  mapping (address => mapping(string=>mapping(string=>uint))) public userDataOracle */\n    tag_61:\n      mstore(0x20, 0x01)\n      dup3\n      0x00\n      mstore\n      keccak256(0x00, 0x40)\n      dup3\n      dup1\n      mload\n      0x20\n      dup2\n      add\n      dup3\n      add\n      dup1\n      mload\n      dup5\n      dup3\n      mstore\n      0x20\n      dup4\n      add\n      0x20\n      dup6\n      add\n      keccak256\n      dup2\n      dup4\n      mstore\n      dup1\n      swap6\n      pop\n      pop\n      pop\n      pop\n      pop\n      pop\n      dup2\n      dup1\n      mload\n      0x20\n      dup2\n      add\n      dup3\n      add\n      dup1\n      mload\n      dup5\n      dup3\n      mstore\n      0x20\n      dup4\n      add\n      0x20\n      dup6\n      add\n      keccak256\n      dup2\n      dup4\n      mstore\n      dup1\n      swap6\n      pop\n      pop\n      pop\n      pop\n      pop\n      pop\n      0x00\n      swap3\n      pop\n      swap3\n      pop\n      pop\n      pop\n      sload\n      dup2\n      jump\t// out\n        /* \"contracts/KaggleDataOracle.sol\":2621:2817  function fetch_dp_value(address job_seker_addr, string memory dp_label) external view returns(string memory){\r... */\n    tag_65:\n        /* \"contracts/KaggleDataOracle.sol\":2715:2728  string memory */\n      0x60\n        /* \"contracts/KaggleDataOracle.sol\":2747:2768  mostFavoredDataOracle */\n      0x03\n        /* \"contracts/KaggleDataOracle.sol\":2747:2784  mostFavoredDataOracle[job_seker_addr] */\n      0x00\n        /* \"contracts/KaggleDataOracle.sol\":2769:2783  job_seker_addr */\n      dup5\n        /* \"contracts/KaggleDataOracle.sol\":2747:2784  mostFavoredDataOracle[job_seker_addr] */\n      0xffffffffffffffffffffffffffffffffffffffff\n      and\n      0xffffffffffffffffffffffffffffffffffffffff\n      and\n      dup2\n      mstore\n      0x20\n      add\n      swap1\n      dup2\n      mstore\n      0x20\n      add\n      0x00\n      keccak256\n        /* \"contracts/KaggleDataOracle.sol\":2785:2793  dp_label */\n      dup3\n        /* \"contracts/KaggleDataOracle.sol\":2747:2794  mostFavoredDataOracle[job_seker_addr][dp_label] */\n      mload(0x40)\n      tag_150\n      swap2\n      swap1\n      tag_101\n      jump\t// in\n    tag_150:\n      swap1\n      dup2\n      mstore\n      0x20\n      add\n      mload(0x40)\n      dup1\n      swap2\n      sub\n      swap1\n      keccak256\n        /* \"contracts/KaggleDataOracle.sol\":2747:2809  mostFavoredDataOracle[job_seker_addr][dp_label].attributeValue */\n      0x00\n      add\n        /* \"contracts/KaggleDataOracle.sol\":2740:2809  return mostFavoredDataOracle[job_seker_addr][dp_label].attributeValue */\n      dup1\n      sload\n      tag_151\n      swap1\n      tag_144\n      jump\t// in\n    tag_151:\n      dup1\n      0x1f\n      add\n      0x20\n      dup1\n      swap2\n      div\n      mul\n      0x20\n      add\n      mload(0x40)\n      swap1\n      dup2\n      add\n      0x40\n      mstore\n      dup1\n      swap3\n      swap2\n      swap1\n      dup2\n      dup2\n      mstore\n      0x20\n      add\n      dup3\n      dup1\n      sload\n      tag_152\n      swap1\n      tag_144\n      jump\t// in\n    tag_152:\n      dup1\n      iszero\n      tag_153\n      jumpi\n      dup1\n      0x1f\n      lt\n      tag_154\n      jumpi\n      0x0100\n      dup1\n      dup4\n      sload\n      div\n      mul\n      dup4\n      mstore\n      swap2\n      0x20\n      add\n      swap2\n      jump(tag_153)\n    tag_154:\n      dup3\n      add\n      swap2\n      swap1\n      0x00\n      mstore\n      keccak256(0x00, 0x20)\n      swap1\n    tag_155:\n      dup2\n      sload\n      dup2\n      mstore\n      swap1\n      0x01\n      add\n      swap1\n      0x20\n      add\n      dup1\n      dup4\n      gt\n      tag_155\n      jumpi\n      dup3\n      swap1\n      sub\n      0x1f\n      and\n      dup3\n      add\n      swap2\n    tag_153:\n      pop\n      pop\n      pop\n      pop\n      pop\n      swap1\n      pop\n        /* \"contracts/KaggleDataOracle.sol\":2621:2817  function fetch_dp_value(address job_seker_addr, string memory dp_label) external view returns(string memory){\r... */\n      swap3\n      swap2\n      pop\n      pop\n      jump\t// out\n        /* \"contracts/KaggleDataOracle.sol\":1003:1148  function getStakeValue(address ad,string memory v2,string memory v3)public view returns(uint){\r... */\n    tag_70:\n        /* \"contracts/KaggleDataOracle.sol\":1091:1095  uint */\n      0x00\n        /* \"contracts/KaggleDataOracle.sol\":1114:1128  userDataOracle */\n      0x01\n        /* \"contracts/KaggleDataOracle.sol\":1114:1132  userDataOracle[ad] */\n      0x00\n        /* \"contracts/KaggleDataOracle.sol\":1129:1131  ad */\n      dup6\n        /* \"contracts/KaggleDataOracle.sol\":1114:1132  userDataOracle[ad] */\n      0xffffffffffffffffffffffffffffffffffffffff\n      and\n      0xffffffffffffffffffffffffffffffffffffffff\n      and\n      dup2\n      mstore\n      0x20\n      add\n      swap1\n      dup2\n      mstore\n      0x20\n      add\n      0x00\n      keccak256\n        /* \"contracts/KaggleDataOracle.sol\":1133:1135  v2 */\n      dup4\n        /* \"contracts/KaggleDataOracle.sol\":1114:1136  userDataOracle[ad][v2] */\n      mload(0x40)\n      tag_157\n      swap2\n      swap1\n      tag_101\n      jump\t// in\n    tag_157:\n      swap1\n      dup2\n      mstore\n      0x20\n      add\n      mload(0x40)\n      dup1\n      swap2\n      sub\n      swap1\n      keccak256\n        /* \"contracts/KaggleDataOracle.sol\":1137:1139  v3 */\n      dup3\n        /* \"contracts/KaggleDataOracle.sol\":1114:1140  userDataOracle[ad][v2][v3] */\n      mload(0x40)\n      tag_158\n      swap2\n      swap1\n      tag_101\n      jump\t// in\n    tag_158:\n      swap1\n      dup2\n      mstore\n      0x20\n      add\n      mload(0x40)\n      dup1\n      swap2\n      sub\n      swap1\n      keccak256\n      sload\n        /* \"contracts/KaggleDataOracle.sol\":1107:1140  return userDataOracle[ad][v2][v3] */\n      swap1\n      pop\n        /* \"contracts/KaggleDataOracle.sol\":1003:1148  function getStakeValue(address ad,string memory v2,string memory v3)public view returns(uint){\r... */\n      swap4\n      swap3\n      pop\n      pop\n      pop\n      jump\t// out\n        /* \"@openzeppelin/contracts/access/Ownable.sol\":2081:2279  function transferOwnership(address newOwner) public virtual onlyOwner {... */\n    tag_74:\n        /* \"@openzeppelin/contracts/access/Ownable.sol\":1094:1107  _checkOwner() */\n      tag_160\n        /* \"@openzeppelin/contracts/access/Ownable.sol\":1094:1105  _checkOwner */\n      tag_82\n        /* \"@openzeppelin/contracts/access/Ownable.sol\":1094:1107  _checkOwner() */\n      jump\t// in\n    tag_160:\n        /* \"@openzeppelin/contracts/access/Ownable.sol\":2189:2190  0 */\n      0x00\n        /* \"@openzeppelin/contracts/access/Ownable.sol\":2169:2191  newOwner != address(0) */\n      0xffffffffffffffffffffffffffffffffffffffff\n      and\n        /* \"@openzeppelin/contracts/access/Ownable.sol\":2169:2177  newOwner */\n      dup2\n        /* \"@openzeppelin/contracts/access/Ownable.sol\":2169:2191  newOwner != address(0) */\n      0xffffffffffffffffffffffffffffffffffffffff\n      and\n      eq\n      iszero\n        /* \"@openzeppelin/contracts/access/Ownable.sol\":2161:2234  require(newOwner != address(0), \"Ownable: new owner is the zero address\") */\n      tag_162\n      jumpi\n      mload(0x40)\n      0x08c379a000000000000000000000000000000000000000000000000000000000\n      dup2\n      mstore\n      0x04\n      add\n      tag_163\n      swap1\n      tag_164\n      jump\t// in\n    tag_163:\n      mload(0x40)\n      dup1\n      swap2\n      sub\n      swap1\n      revert\n    tag_162:\n        /* \"@openzeppelin/contracts/access/Ownable.sol\":2244:2272  _transferOwnership(newOwner) */\n      tag_165\n        /* \"@openzeppelin/contracts/access/Ownable.sol\":2263:2271  newOwner */\n      dup2\n        /* \"@openzeppelin/contracts/access/Ownable.sol\":2244:2262  _transferOwnership */\n      tag_85\n        /* \"@openzeppelin/contracts/access/Ownable.sol\":2244:2272  _transferOwnership(newOwner) */\n      jump\t// in\n    tag_165:\n        /* \"@openzeppelin/contracts/access/Ownable.sol\":2081:2279  function transferOwnership(address newOwner) public virtual onlyOwner {... */\n      pop\n      jump\t// out\n        /* \"contracts/KaggleDataOracle.sol\":968:987  IERC20 public token */\n    tag_76:\n      0x05\n      0x00\n      swap1\n      sload\n      swap1\n      0x0100\n      exp\n      swap1\n      div\n      0xffffffffffffffffffffffffffffffffffffffff\n      and\n      dup2\n      jump\t// out\n        /* \"@openzeppelin/contracts/access/Ownable.sol\":1359:1489  function _checkOwner() internal view virtual {... */\n    tag_82:\n        /* \"@openzeppelin/contracts/access/Ownable.sol\":1433:1445  _msgSender() */\n      tag_167\n        /* \"@openzeppelin/contracts/access/Ownable.sol\":1433:1443  _msgSender */\n      tag_168\n        /* \"@openzeppelin/contracts/access/Ownable.sol\":1433:1445  _msgSender() */\n      jump\t// in\n    tag_167:\n        /* \"@openzeppelin/contracts/access/Ownable.sol\":1422:1445  owner() == _msgSender() */\n      0xffffffffffffffffffffffffffffffffffffffff\n      and\n        /* \"@openzeppelin/contracts/access/Ownable.sol\":1422:1429  owner() */\n      tag_169\n        /* \"@openzeppelin/contracts/access/Ownable.sol\":1422:1427  owner */\n      tag_41\n        /* \"@openzeppelin/contracts/access/Ownable.sol\":1422:1429  owner() */\n      jump\t// in\n    tag_169:\n        /* \"@openzeppelin/contracts/access/Ownable.sol\":1422:1445  owner() == _msgSender() */\n      0xffffffffffffffffffffffffffffffffffffffff\n      and\n      eq\n        /* \"@openzeppelin/contracts/access/Ownable.sol\":1414:1482  require(owner() == _msgSender(), \"Ownable: caller is not the owner\") */\n      tag_170\n      jumpi\n      mload(0x40)\n      0x08c379a000000000000000000000000000000000000000000000000000000000\n      dup2\n      mstore\n      0x04\n      add\n      tag_171\n      swap1\n      tag_172\n      jump\t// in\n    tag_171:\n      mload(0x40)\n      dup1\n      swap2\n      sub\n      swap1\n      revert\n    tag_170:\n        /* \"@openzeppelin/contracts/access/Ownable.sol\":1359:1489  function _checkOwner() internal view virtual {... */\n      jump\t// out\n        /* \"@openzeppelin/contracts/access/Ownable.sol\":2433:2620  function _transferOwnership(address newOwner) internal virtual {... */\n    tag_85:\n        /* \"@openzeppelin/contracts/access/Ownable.sol\":2506:2522  address oldOwner */\n      0x00\n        /* \"@openzeppelin/contracts/access/Ownable.sol\":2525:2531  _owner */\n      dup1\n      0x00\n      swap1\n      sload\n      swap1\n      0x0100\n      exp\n      swap1\n      div\n      0xffffffffffffffffffffffffffffffffffffffff\n      and\n        /* \"@openzeppelin/contracts/access/Ownable.sol\":2506:2531  address oldOwner = _owner */\n      swap1\n      pop\n        /* \"@openzeppelin/contracts/access/Ownable.sol\":2550:2558  newOwner */\n      dup2\n        /* \"@openzeppelin/contracts/access/Ownable.sol\":2541:2547  _owner */\n      0x00\n      dup1\n        /* \"@openzeppelin/contracts/access/Ownable.sol\":2541:2558  _owner = newOwner */\n      0x0100\n      exp\n      dup2\n      sload\n      dup2\n      0xffffffffffffffffffffffffffffffffffffffff\n      mul\n      not\n      and\n      swap1\n      dup4\n      0xffffffffffffffffffffffffffffffffffffffff\n      and\n      mul\n      or\n      swap1\n      sstore\n      pop\n        /* \"@openzeppelin/contracts/access/Ownable.sol\":2604:2612  newOwner */\n      dup2\n        /* \"@openzeppelin/contracts/access/Ownable.sol\":2573:2613  OwnershipTransferred(oldOwner, newOwner) */\n      0xffffffffffffffffffffffffffffffffffffffff\n      and\n        /* \"@openzeppelin/contracts/access/Ownable.sol\":2594:2602  oldOwner */\n      dup2\n        /* \"@openzeppelin/contracts/access/Ownable.sol\":2573:2613  OwnershipTransferred(oldOwner, newOwner) */\n      0xffffffffffffffffffffffffffffffffffffffff\n      and\n      0x8be0079c531659141344cd1fd0a4f28419497f9722a3daafe3b4186f6b6457e0\n      mload(0x40)\n      mload(0x40)\n      dup1\n      swap2\n      sub\n      swap1\n      log3\n        /* \"@openzeppelin/contracts/access/Ownable.sol\":2496:2620  {... */\n      pop\n        /* \"@openzeppelin/contracts/access/Ownable.sol\":2433:2620  function _transferOwnership(address newOwner) internal virtual {... */\n      pop\n      jump\t// out\n        /* \"@openzeppelin/contracts/utils/Context.sol\":640:736  function _msgSender() internal view virtual returns (address) {... */\n    tag_168:\n        /* \"@openzeppelin/contracts/utils/Context.sol\":693:700  address */\n      0x00\n        /* \"@openzeppelin/contracts/utils/Context.sol\":719:729  msg.sender */\n      caller\n        /* \"@openzeppelin/contracts/utils/Context.sol\":712:729  return msg.sender */\n      swap1\n      pop\n        /* \"@openzeppelin/contracts/utils/Context.sol\":640:736  function _msgSender() internal view virtual returns (address) {... */\n      swap1\n      jump\t// out\n    tag_116:\n      dup3\n      dup1\n      sload\n      tag_175\n      swap1\n      tag_144\n      jump\t// in\n    tag_175:\n      swap1\n      0x00\n      mstore\n      keccak256(0x00, 0x20)\n      swap1\n      0x1f\n      add\n      0x20\n      swap1\n      div\n      dup2\n      add\n      swap3\n      dup3\n      tag_177\n      jumpi\n      0x00\n      dup6\n      sstore\n      jump(tag_176)\n    tag_177:\n      dup3\n      0x1f\n      lt\n      tag_178\n      jumpi\n      dup1\n      mload\n      not(0xff)\n      and\n      dup4\n      dup1\n      add\n      or\n      dup6\n      sstore\n      jump(tag_176)\n    tag_178:\n      dup3\n      dup1\n      add\n      0x01\n      add\n      dup6\n      sstore\n      dup3\n      iszero\n      tag_176\n      jumpi\n      swap2\n      dup3\n      add\n    tag_179:\n      dup3\n      dup2\n      gt\n      iszero\n      tag_180\n      jumpi\n      dup3\n      mload\n      dup3\n      sstore\n      swap2\n      0x20\n      add\n      swap2\n      swap1\n      0x01\n      add\n      swap1\n      jump(tag_179)\n    tag_180:\n    tag_176:\n      pop\n      swap1\n      pop\n      tag_181\n      swap2\n      swap1\n      tag_182\n      jump\t// in\n    tag_181:\n      pop\n      swap1\n      jump\t// out\n    tag_182:\n    tag_183:\n      dup1\n      dup3\n      gt\n      iszero\n      tag_184\n      jumpi\n      0x00\n      dup2\n      0x00\n      swap1\n      sstore\n      pop\n      0x01\n      add\n      jump(tag_183)\n    tag_184:\n      pop\n      swap1\n      jump\t// out\n        /* \"#utility.yul\":7:419   */\n    tag_186:\n        /* \"#utility.yul\":85:90   */\n      0x00\n        /* \"#utility.yul\":110:176   */\n      tag_188\n        /* \"#utility.yul\":126:175   */\n      tag_189\n        /* \"#utility.yul\":168:174   */\n      dup5\n        /* \"#utility.yul\":126:175   */\n      tag_190\n      jump\t// in\n    tag_189:\n        /* \"#utility.yul\":110:176   */\n      tag_191\n      jump\t// in\n    tag_188:\n        /* \"#utility.yul\":101:176   */\n      swap1\n      pop\n        /* \"#utility.yul\":199:205   */\n      dup3\n        /* \"#utility.yul\":192:197   */\n      dup2\n        /* \"#utility.yul\":185:206   */\n      mstore\n        /* \"#utility.yul\":237:241   */\n      0x20\n        /* \"#utility.yul\":230:235   */\n      dup2\n        /* \"#utility.yul\":226:242   */\n      add\n        /* \"#utility.yul\":275:278   */\n      dup5\n        /* \"#utility.yul\":266:272   */\n      dup5\n        /* \"#utility.yul\":261:264   */\n      dup5\n        /* \"#utility.yul\":257:273   */\n      add\n        /* \"#utility.yul\":254:279   */\n      gt\n        /* \"#utility.yul\":251:363   */\n      iszero\n      tag_192\n      jumpi\n        /* \"#utility.yul\":282:361   */\n      tag_193\n      tag_194\n      jump\t// in\n    tag_193:\n        /* \"#utility.yul\":251:363   */\n    tag_192:\n        /* \"#utility.yul\":372:413   */\n      tag_195\n        /* \"#utility.yul\":406:412   */\n      dup5\n        /* \"#utility.yul\":401:404   */\n      dup3\n        /* \"#utility.yul\":396:399   */\n      dup6\n        /* \"#utility.yul\":372:413   */\n      tag_196\n      jump\t// in\n    tag_195:\n        /* \"#utility.yul\":91:419   */\n      pop\n        /* \"#utility.yul\":7:419   */\n      swap4\n      swap3\n      pop\n      pop\n      pop\n      jump\t// out\n        /* \"#utility.yul\":425:564   */\n    tag_197:\n        /* \"#utility.yul\":471:476   */\n      0x00\n        /* \"#utility.yul\":509:515   */\n      dup2\n        /* \"#utility.yul\":496:516   */\n      calldataload\n        /* \"#utility.yul\":487:516   */\n      swap1\n      pop\n        /* \"#utility.yul\":525:558   */\n      tag_199\n        /* \"#utility.yul\":552:557   */\n      dup2\n        /* \"#utility.yul\":525:558   */\n      tag_200\n      jump\t// in\n    tag_199:\n        /* \"#utility.yul\":425:564   */\n      swap3\n      swap2\n      pop\n      pop\n      jump\t// out\n        /* \"#utility.yul\":570:703   */\n    tag_201:\n        /* \"#utility.yul\":613:618   */\n      0x00\n        /* \"#utility.yul\":651:657   */\n      dup2\n        /* \"#utility.yul\":638:658   */\n      calldataload\n        /* \"#utility.yul\":629:658   */\n      swap1\n      pop\n        /* \"#utility.yul\":667:697   */\n      tag_203\n        /* \"#utility.yul\":691:696   */\n      dup2\n        /* \"#utility.yul\":667:697   */\n      tag_204\n      jump\t// in\n    tag_203:\n        /* \"#utility.yul\":570:703   */\n      swap3\n      swap2\n      pop\n      pop\n      jump\t// out\n        /* \"#utility.yul\":709:846   */\n    tag_205:\n        /* \"#utility.yul\":763:768   */\n      0x00\n        /* \"#utility.yul\":794:800   */\n      dup2\n        /* \"#utility.yul\":788:801   */\n      mload\n        /* \"#utility.yul\":779:801   */\n      swap1\n      pop\n        /* \"#utility.yul\":810:840   */\n      tag_207\n        /* \"#utility.yul\":834:839   */\n      dup2\n        /* \"#utility.yul\":810:840   */\n      tag_204\n      jump\t// in\n    tag_207:\n        /* \"#utility.yul\":709:846   */\n      swap3\n      swap2\n      pop\n      pop\n      jump\t// out\n        /* \"#utility.yul\":852:991   */\n    tag_208:\n        /* \"#utility.yul\":898:903   */\n      0x00\n        /* \"#utility.yul\":936:942   */\n      dup2\n        /* \"#utility.yul\":923:943   */\n      calldataload\n        /* \"#utility.yul\":914:943   */\n      swap1\n      pop\n        /* \"#utility.yul\":952:985   */\n      tag_210\n        /* \"#utility.yul\":979:984   */\n      dup2\n        /* \"#utility.yul\":952:985   */\n      tag_211\n      jump\t// in\n    tag_210:\n        /* \"#utility.yul\":852:991   */\n      swap3\n      swap2\n      pop\n      pop\n      jump\t// out\n        /* \"#utility.yul\":1011:1351   */\n    tag_212:\n        /* \"#utility.yul\":1067:1072   */\n      0x00\n        /* \"#utility.yul\":1116:1119   */\n      dup3\n        /* \"#utility.yul\":1109:1113   */\n      0x1f\n        /* \"#utility.yul\":1101:1107   */\n      dup4\n        /* \"#utility.yul\":1097:1114   */\n      add\n        /* \"#utility.yul\":1093:1120   */\n      slt\n        /* \"#utility.yul\":1083:1205   */\n      tag_214\n      jumpi\n        /* \"#utility.yul\":1124:1203   */\n      tag_215\n      tag_216\n      jump\t// in\n    tag_215:\n        /* \"#utility.yul\":1083:1205   */\n    tag_214:\n        /* \"#utility.yul\":1241:1247   */\n      dup2\n        /* \"#utility.yul\":1228:1248   */\n      calldataload\n        /* \"#utility.yul\":1266:1345   */\n      tag_217\n        /* \"#utility.yul\":1341:1344   */\n      dup5\n        /* \"#utility.yul\":1333:1339   */\n      dup3\n        /* \"#utility.yul\":1326:1330   */\n      0x20\n        /* \"#utility.yul\":1318:1324   */\n      dup7\n        /* \"#utility.yul\":1314:1331   */\n      add\n        /* \"#utility.yul\":1266:1345   */\n      tag_186\n      jump\t// in\n    tag_217:\n        /* \"#utility.yul\":1257:1345   */\n      swap2\n      pop\n        /* \"#utility.yul\":1073:1351   */\n      pop\n        /* \"#utility.yul\":1011:1351   */\n      swap3\n      swap2\n      pop\n      pop\n      jump\t// out\n        /* \"#utility.yul\":1357:1496   */\n    tag_218:\n        /* \"#utility.yul\":1403:1408   */\n      0x00\n        /* \"#utility.yul\":1441:1447   */\n      dup2\n        /* \"#utility.yul\":1428:1448   */\n      calldataload\n        /* \"#utility.yul\":1419:1448   */\n      swap1\n      pop\n        /* \"#utility.yul\":1457:1490   */\n      tag_220\n        /* \"#utility.yul\":1484:1489   */\n      dup2\n        /* \"#utility.yul\":1457:1490   */\n      tag_221\n      jump\t// in\n    tag_220:\n        /* \"#utility.yul\":1357:1496   */\n      swap3\n      swap2\n      pop\n      pop\n      jump\t// out\n        /* \"#utility.yul\":1502:1831   */\n    tag_22:\n        /* \"#utility.yul\":1561:1567   */\n      0x00\n        /* \"#utility.yul\":1610:1612   */\n      0x20\n        /* \"#utility.yul\":1598:1607   */\n      dup3\n        /* \"#utility.yul\":1589:1596   */\n      dup5\n        /* \"#utility.yul\":1585:1608   */\n      sub\n        /* \"#utility.yul\":1581:1613   */\n      slt\n        /* \"#utility.yul\":1578:1697   */\n      iszero\n      tag_223\n      jumpi\n        /* \"#utility.yul\":1616:1695   */\n      tag_224\n      tag_225\n      jump\t// in\n    tag_224:\n        /* \"#utility.yul\":1578:1697   */\n    tag_223:\n        /* \"#utility.yul\":1736:1737   */\n      0x00\n        /* \"#utility.yul\":1761:1814   */\n      tag_226\n        /* \"#utility.yul\":1806:1813   */\n      dup5\n        /* \"#utility.yul\":1797:1803   */\n      dup3\n        /* \"#utility.yul\":1786:1795   */\n      dup6\n        /* \"#utility.yul\":1782:1804   */\n      add\n        /* \"#utility.yul\":1761:1814   */\n      tag_197\n      jump\t// in\n    tag_226:\n        /* \"#utility.yul\":1751:1814   */\n      swap2\n      pop\n        /* \"#utility.yul\":1707:1824   */\n      pop\n        /* \"#utility.yul\":1502:1831   */\n      swap3\n      swap2\n      pop\n      pop\n      jump\t// out\n        /* \"#utility.yul\":1837:2962   */\n    tag_48:\n        /* \"#utility.yul\":1943:1949   */\n      0x00\n        /* \"#utility.yul\":1951:1957   */\n      dup1\n        /* \"#utility.yul\":1959:1965   */\n      0x00\n        /* \"#utility.yul\":1967:1973   */\n      dup1\n        /* \"#utility.yul\":2016:2019   */\n      0x80\n        /* \"#utility.yul\":2004:2013   */\n      dup6\n        /* \"#utility.yul\":1995:2002   */\n      dup8\n        /* \"#utility.yul\":1991:2014   */\n      sub\n        /* \"#utility.yul\":1987:2020   */\n      slt\n        /* \"#utility.yul\":1984:2104   */\n      iszero\n      tag_228\n      jumpi\n        /* \"#utility.yul\":2023:2102   */\n      tag_229\n      tag_225\n      jump\t// in\n    tag_229:\n        /* \"#utility.yul\":1984:2104   */\n    tag_228:\n        /* \"#utility.yul\":2143:2144   */\n      0x00\n        /* \"#utility.yul\":2168:2221   */\n      tag_230\n        /* \"#utility.yul\":2213:2220   */\n      dup8\n        /* \"#utility.yul\":2204:2210   */\n      dup3\n        /* \"#utility.yul\":2193:2202   */\n      dup9\n        /* \"#utility.yul\":2189:2211   */\n      add\n        /* \"#utility.yul\":2168:2221   */\n      tag_197\n      jump\t// in\n    tag_230:\n        /* \"#utility.yul\":2158:2221   */\n      swap5\n      pop\n        /* \"#utility.yul\":2114:2231   */\n      pop\n        /* \"#utility.yul\":2270:2272   */\n      0x20\n        /* \"#utility.yul\":2296:2349   */\n      tag_231\n        /* \"#utility.yul\":2341:2348   */\n      dup8\n        /* \"#utility.yul\":2332:2338   */\n      dup3\n        /* \"#utility.yul\":2321:2330   */\n      dup9\n        /* \"#utility.yul\":2317:2339   */\n      add\n        /* \"#utility.yul\":2296:2349   */\n      tag_197\n      jump\t// in\n    tag_231:\n        /* \"#utility.yul\":2286:2349   */\n      swap4\n      pop\n        /* \"#utility.yul\":2241:2359   */\n      pop\n        /* \"#utility.yul\":2426:2428   */\n      0x40\n        /* \"#utility.yul\":2415:2424   */\n      dup6\n        /* \"#utility.yul\":2411:2429   */\n      add\n        /* \"#utility.yul\":2398:2430   */\n      calldataload\n        /* \"#utility.yul\":2457:2475   */\n      0xffffffffffffffff\n        /* \"#utility.yul\":2449:2455   */\n      dup2\n        /* \"#utility.yul\":2446:2476   */\n      gt\n        /* \"#utility.yul\":2443:2560   */\n      iszero\n      tag_232\n      jumpi\n        /* \"#utility.yul\":2479:2558   */\n      tag_233\n      tag_234\n      jump\t// in\n    tag_233:\n        /* \"#utility.yul\":2443:2560   */\n    tag_232:\n        /* \"#utility.yul\":2584:2647   */\n      tag_235\n        /* \"#utility.yul\":2639:2646   */\n      dup8\n        /* \"#utility.yul\":2630:2636   */\n      dup3\n        /* \"#utility.yul\":2619:2628   */\n      dup9\n        /* \"#utility.yul\":2615:2637   */\n      add\n        /* \"#utility.yul\":2584:2647   */\n      tag_212\n      jump\t// in\n    tag_235:\n        /* \"#utility.yul\":2574:2647   */\n      swap3\n      pop\n        /* \"#utility.yul\":2369:2657   */\n      pop\n        /* \"#utility.yul\":2724:2726   */\n      0x60\n        /* \"#utility.yul\":2713:2722   */\n      dup6\n        /* \"#utility.yul\":2709:2727   */\n      add\n        /* \"#utility.yul\":2696:2728   */\n      calldataload\n        /* \"#utility.yul\":2755:2773   */\n      0xffffffffffffffff\n        /* \"#utility.yul\":2747:2753   */\n      dup2\n        /* \"#utility.yul\":2744:2774   */\n      gt\n        /* \"#utility.yul\":2741:2858   */\n      iszero\n      tag_236\n      jumpi\n        /* \"#utility.yul\":2777:2856   */\n      tag_237\n      tag_234\n      jump\t// in\n    tag_237:\n        /* \"#utility.yul\":2741:2858   */\n    tag_236:\n        /* \"#utility.yul\":2882:2945   */\n      tag_238\n        /* \"#utility.yul\":2937:2944   */\n      dup8\n        /* \"#utility.yul\":2928:2934   */\n      dup3\n        /* \"#utility.yul\":2917:2926   */\n      dup9\n        /* \"#utility.yul\":2913:2935   */\n      add\n        /* \"#utility.yul\":2882:2945   */\n      tag_212\n      jump\t// in\n    tag_238:\n        /* \"#utility.yul\":2872:2945   */\n      swap2\n      pop\n        /* \"#utility.yul\":2667:2955   */\n      pop\n        /* \"#utility.yul\":1837:2962   */\n      swap3\n      swap6\n      swap2\n      swap5\n      pop\n      swap3\n      pop\n      jump\t// out\n        /* \"#utility.yul\":2968:3581   */\n    tag_28:\n        /* \"#utility.yul\":3042:3048   */\n      0x00\n        /* \"#utility.yul\":3050:3056   */\n      dup1\n        /* \"#utility.yul\":3058:3064   */\n      0x00\n        /* \"#utility.yul\":3107:3109   */\n      0x60\n        /* \"#utility.yul\":3095:3104   */\n      dup5\n        /* \"#utility.yul\":3086:3093   */\n      dup7\n        /* \"#utility.yul\":3082:3105   */\n      sub\n        /* \"#utility.yul\":3078:3110   */\n      slt\n        /* \"#utility.yul\":3075:3194   */\n      iszero\n      tag_240\n      jumpi\n        /* \"#utility.yul\":3113:3192   */\n      tag_241\n      tag_225\n      jump\t// in\n    tag_241:\n        /* \"#utility.yul\":3075:3194   */\n    tag_240:\n        /* \"#utility.yul\":3233:3234   */\n      0x00\n        /* \"#utility.yul\":3258:3311   */\n      tag_242\n        /* \"#utility.yul\":3303:3310   */\n      dup7\n        /* \"#utility.yul\":3294:3300   */\n      dup3\n        /* \"#utility.yul\":3283:3292   */\n      dup8\n        /* \"#utility.yul\":3279:3301   */\n      add\n        /* \"#utility.yul\":3258:3311   */\n      tag_197\n      jump\t// in\n    tag_242:\n        /* \"#utility.yul\":3248:3311   */\n      swap4\n      pop\n        /* \"#utility.yul\":3204:3321   */\n      pop\n        /* \"#utility.yul\":3360:3362   */\n      0x20\n        /* \"#utility.yul\":3386:3439   */\n      tag_243\n        /* \"#utility.yul\":3431:3438   */\n      dup7\n        /* \"#utility.yul\":3422:3428   */\n      dup3\n        /* \"#utility.yul\":3411:3420   */\n      dup8\n        /* \"#utility.yul\":3407:3429   */\n      add\n        /* \"#utility.yul\":3386:3439   */\n      tag_208\n      jump\t// in\n    tag_243:\n        /* \"#utility.yul\":3376:3439   */\n      swap3\n      pop\n        /* \"#utility.yul\":3331:3449   */\n      pop\n        /* \"#utility.yul\":3488:3490   */\n      0x40\n        /* \"#utility.yul\":3514:3564   */\n      tag_244\n        /* \"#utility.yul\":3556:3563   */\n      dup7\n        /* \"#utility.yul\":3547:3553   */\n      dup3\n        /* \"#utility.yul\":3536:3545   */\n      dup8\n        /* \"#utility.yul\":3532:3554   */\n      add\n        /* \"#utility.yul\":3514:3564   */\n      tag_201\n      jump\t// in\n    tag_244:\n        /* \"#utility.yul\":3504:3564   */\n      swap2\n      pop\n        /* \"#utility.yul\":3459:3574   */\n      pop\n        /* \"#utility.yul\":2968:3581   */\n      swap3\n      pop\n      swap3\n      pop\n      swap3\n      jump\t// out\n        /* \"#utility.yul\":3587:4241   */\n    tag_54:\n        /* \"#utility.yul\":3665:3671   */\n      0x00\n        /* \"#utility.yul\":3673:3679   */\n      dup1\n        /* \"#utility.yul\":3722:3724   */\n      0x40\n        /* \"#utility.yul\":3710:3719   */\n      dup4\n        /* \"#utility.yul\":3701:3708   */\n      dup6\n        /* \"#utility.yul\":3697:3720   */\n      sub\n        /* \"#utility.yul\":3693:3725   */\n      slt\n        /* \"#utility.yul\":3690:3809   */\n      iszero\n      tag_246\n      jumpi\n        /* \"#utility.yul\":3728:3807   */\n      tag_247\n      tag_225\n      jump\t// in\n    tag_247:\n        /* \"#utility.yul\":3690:3809   */\n    tag_246:\n        /* \"#utility.yul\":3848:3849   */\n      0x00\n        /* \"#utility.yul\":3873:3926   */\n      tag_248\n        /* \"#utility.yul\":3918:3925   */\n      dup6\n        /* \"#utility.yul\":3909:3915   */\n      dup3\n        /* \"#utility.yul\":3898:3907   */\n      dup7\n        /* \"#utility.yul\":3894:3916   */\n      add\n        /* \"#utility.yul\":3873:3926   */\n      tag_197\n      jump\t// in\n    tag_248:\n        /* \"#utility.yul\":3863:3926   */\n      swap3\n      pop\n        /* \"#utility.yul\":3819:3936   */\n      pop\n        /* \"#utility.yul\":4003:4005   */\n      0x20\n        /* \"#utility.yul\":3992:4001   */\n      dup4\n        /* \"#utility.yul\":3988:4006   */\n      add\n        /* \"#utility.yul\":3975:4007   */\n      calldataload\n        /* \"#utility.yul\":4034:4052   */\n      0xffffffffffffffff\n        /* \"#utility.yul\":4026:4032   */\n      dup2\n        /* \"#utility.yul\":4023:4053   */\n      gt\n        /* \"#utility.yul\":4020:4137   */\n      iszero\n      tag_249\n      jumpi\n        /* \"#utility.yul\":4056:4135   */\n      tag_250\n      tag_234\n      jump\t// in\n    tag_250:\n        /* \"#utility.yul\":4020:4137   */\n    tag_249:\n        /* \"#utility.yul\":4161:4224   */\n      tag_251\n        /* \"#utility.yul\":4216:4223   */\n      dup6\n        /* \"#utility.yul\":4207:4213   */\n      dup3\n        /* \"#utility.yul\":4196:4205   */\n      dup7\n        /* \"#utility.yul\":4192:4214   */\n      add\n        /* \"#utility.yul\":4161:4224   */\n      tag_212\n      jump\t// in\n    tag_251:\n        /* \"#utility.yul\":4151:4224   */\n      swap2\n      pop\n        /* \"#utility.yul\":3946:4234   */\n      pop\n        /* \"#utility.yul\":3587:4241   */\n      swap3\n      pop\n      swap3\n      swap1\n      pop\n      jump\t// out\n        /* \"#utility.yul\":4247:5226   */\n    tag_60:\n        /* \"#utility.yul\":4344:4350   */\n      0x00\n        /* \"#utility.yul\":4352:4358   */\n      dup1\n        /* \"#utility.yul\":4360:4366   */\n      0x00\n        /* \"#utility.yul\":4409:4411   */\n      0x60\n        /* \"#utility.yul\":4397:4406   */\n      dup5\n        /* \"#utility.yul\":4388:4395   */\n      dup7\n        /* \"#utility.yul\":4384:4407   */\n      sub\n        /* \"#utility.yul\":4380:4412   */\n      slt\n        /* \"#utility.yul\":4377:4496   */\n      iszero\n      tag_253\n      jumpi\n        /* \"#utility.yul\":4415:4494   */\n      tag_254\n      tag_225\n      jump\t// in\n    tag_254:\n        /* \"#utility.yul\":4377:4496   */\n    tag_253:\n        /* \"#utility.yul\":4535:4536   */\n      0x00\n        /* \"#utility.yul\":4560:4613   */\n      tag_255\n        /* \"#utility.yul\":4605:4612   */\n      dup7\n        /* \"#utility.yul\":4596:4602   */\n      dup3\n        /* \"#utility.yul\":4585:4594   */\n      dup8\n        /* \"#utility.yul\":4581:4603   */\n      add\n        /* \"#utility.yul\":4560:4613   */\n      tag_197\n      jump\t// in\n    tag_255:\n        /* \"#utility.yul\":4550:4613   */\n      swap4\n      pop\n        /* \"#utility.yul\":4506:4623   */\n      pop\n        /* \"#utility.yul\":4690:4692   */\n      0x20\n        /* \"#utility.yul\":4679:4688   */\n      dup5\n        /* \"#utility.yul\":4675:4693   */\n      add\n        /* \"#utility.yul\":4662:4694   */\n      calldataload\n        /* \"#utility.yul\":4721:4739   */\n      0xffffffffffffffff\n        /* \"#utility.yul\":4713:4719   */\n      dup2\n        /* \"#utility.yul\":4710:4740   */\n      gt\n        /* \"#utility.yul\":4707:4824   */\n      iszero\n      tag_256\n      jumpi\n        /* \"#utility.yul\":4743:4822   */\n      tag_257\n      tag_234\n      jump\t// in\n    tag_257:\n        /* \"#utility.yul\":4707:4824   */\n    tag_256:\n        /* \"#utility.yul\":4848:4911   */\n      tag_258\n        /* \"#utility.yul\":4903:4910   */\n      dup7\n        /* \"#utility.yul\":4894:4900   */\n      dup3\n        /* \"#utility.yul\":4883:4892   */\n      dup8\n        /* \"#utility.yul\":4879:4901   */\n      add\n        /* \"#utility.yul\":4848:4911   */\n      tag_212\n      jump\t// in\n    tag_258:\n        /* \"#utility.yul\":4838:4911   */\n      swap3\n      pop\n        /* \"#utility.yul\":4633:4921   */\n      pop\n        /* \"#utility.yul\":4988:4990   */\n      0x40\n        /* \"#utility.yul\":4977:4986   */\n      dup5\n        /* \"#utility.yul\":4973:4991   */\n      add\n        /* \"#utility.yul\":4960:4992   */\n      calldataload\n        /* \"#utility.yul\":5019:5037   */\n      0xffffffffffffffff\n        /* \"#utility.yul\":5011:5017   */\n      dup2\n        /* \"#utility.yul\":5008:5038   */\n      gt\n        /* \"#utility.yul\":5005:5122   */\n      iszero\n      tag_259\n      jumpi\n        /* \"#utility.yul\":5041:5120   */\n      tag_260\n      tag_234\n      jump\t// in\n    tag_260:\n        /* \"#utility.yul\":5005:5122   */\n    tag_259:\n        /* \"#utility.yul\":5146:5209   */\n      tag_261\n        /* \"#utility.yul\":5201:5208   */\n      dup7\n        /* \"#utility.yul\":5192:5198   */\n      dup3\n        /* \"#utility.yul\":5181:5190   */\n      dup8\n        /* \"#utility.yul\":5177:5199   */\n      add\n        /* \"#utility.yul\":5146:5209   */\n      tag_212\n      jump\t// in\n    tag_261:\n        /* \"#utility.yul\":5136:5209   */\n      swap2\n      pop\n        /* \"#utility.yul\":4931:5219   */\n      pop\n        /* \"#utility.yul\":4247:5226   */\n      swap3\n      pop\n      swap3\n      pop\n      swap3\n      jump\t// out\n        /* \"#utility.yul\":5232:6357   */\n    tag_34:\n        /* \"#utility.yul\":5338:5344   */\n      0x00\n        /* \"#utility.yul\":5346:5352   */\n      dup1\n        /* \"#utility.yul\":5354:5360   */\n      0x00\n        /* \"#utility.yul\":5362:5368   */\n      dup1\n        /* \"#utility.yul\":5411:5414   */\n      0x80\n        /* \"#utility.yul\":5399:5408   */\n      dup6\n        /* \"#utility.yul\":5390:5397   */\n      dup8\n        /* \"#utility.yul\":5386:5409   */\n      sub\n        /* \"#utility.yul\":5382:5415   */\n      slt\n        /* \"#utility.yul\":5379:5499   */\n      iszero\n      tag_263\n      jumpi\n        /* \"#utility.yul\":5418:5497   */\n      tag_264\n      tag_225\n      jump\t// in\n    tag_264:\n        /* \"#utility.yul\":5379:5499   */\n    tag_263:\n        /* \"#utility.yul\":5538:5539   */\n      0x00\n        /* \"#utility.yul\":5563:5616   */\n      tag_265\n        /* \"#utility.yul\":5608:5615   */\n      dup8\n        /* \"#utility.yul\":5599:5605   */\n      dup3\n        /* \"#utility.yul\":5588:5597   */\n      dup9\n        /* \"#utility.yul\":5584:5606   */\n      add\n        /* \"#utility.yul\":5563:5616   */\n      tag_197\n      jump\t// in\n    tag_265:\n        /* \"#utility.yul\":5553:5616   */\n      swap5\n      pop\n        /* \"#utility.yul\":5509:5626   */\n      pop\n        /* \"#utility.yul\":5693:5695   */\n      0x20\n        /* \"#utility.yul\":5682:5691   */\n      dup6\n        /* \"#utility.yul\":5678:5696   */\n      add\n        /* \"#utility.yul\":5665:5697   */\n      calldataload\n        /* \"#utility.yul\":5724:5742   */\n      0xffffffffffffffff\n        /* \"#utility.yul\":5716:5722   */\n      dup2\n        /* \"#utility.yul\":5713:5743   */\n      gt\n        /* \"#utility.yul\":5710:5827   */\n      iszero\n      tag_266\n      jumpi\n        /* \"#utility.yul\":5746:5825   */\n      tag_267\n      tag_234\n      jump\t// in\n    tag_267:\n        /* \"#utility.yul\":5710:5827   */\n    tag_266:\n        /* \"#utility.yul\":5851:5914   */\n      tag_268\n        /* \"#utility.yul\":5906:5913   */\n      dup8\n        /* \"#utility.yul\":5897:5903   */\n      dup3\n        /* \"#utility.yul\":5886:5895   */\n      dup9\n        /* \"#utility.yul\":5882:5904   */\n      add\n        /* \"#utility.yul\":5851:5914   */\n      tag_212\n      jump\t// in\n    tag_268:\n        /* \"#utility.yul\":5841:5914   */\n      swap4\n      pop\n        /* \"#utility.yul\":5636:5924   */\n      pop\n        /* \"#utility.yul\":5991:5993   */\n      0x40\n        /* \"#utility.yul\":5980:5989   */\n      dup6\n        /* \"#utility.yul\":5976:5994   */\n      add\n        /* \"#utility.yul\":5963:5995   */\n      calldataload\n        /* \"#utility.yul\":6022:6040   */\n      0xffffffffffffffff\n        /* \"#utility.yul\":6014:6020   */\n      dup2\n        /* \"#utility.yul\":6011:6041   */\n      gt\n        /* \"#utility.yul\":6008:6125   */\n      iszero\n      tag_269\n      jumpi\n        /* \"#utility.yul\":6044:6123   */\n      tag_270\n      tag_234\n      jump\t// in\n    tag_270:\n        /* \"#utility.yul\":6008:6125   */\n    tag_269:\n        /* \"#utility.yul\":6149:6212   */\n      tag_271\n        /* \"#utility.yul\":6204:6211   */\n      dup8\n        /* \"#utility.yul\":6195:6201   */\n      dup3\n        /* \"#utility.yul\":6184:6193   */\n      dup9\n        /* \"#utility.yul\":6180:6202   */\n      add\n        /* \"#utility.yul\":6149:6212   */\n      tag_212\n      jump\t// in\n    tag_271:\n        /* \"#utility.yul\":6139:6212   */\n      swap3\n      pop\n        /* \"#utility.yul\":5934:6222   */\n      pop\n        /* \"#utility.yul\":6261:6263   */\n      0x60\n        /* \"#utility.yul\":6287:6340   */\n      tag_272\n        /* \"#utility.yul\":6332:6339   */\n      dup8\n        /* \"#utility.yul\":6323:6329   */\n      dup3\n        /* \"#utility.yul\":6312:6321   */\n      dup9\n        /* \"#utility.yul\":6308:6330   */\n      add\n        /* \"#utility.yul\":6287:6340   */\n      tag_218\n      jump\t// in\n    tag_272:\n        /* \"#utility.yul\":6277:6340   */\n      swap2\n      pop\n        /* \"#utility.yul\":6232:6350   */\n      pop\n        /* \"#utility.yul\":5232:6357   */\n      swap3\n      swap6\n      swap2\n      swap5\n      pop\n      swap3\n      pop\n      jump\t// out\n        /* \"#utility.yul\":6363:6708   */\n    tag_99:\n        /* \"#utility.yul\":6430:6436   */\n      0x00\n        /* \"#utility.yul\":6479:6481   */\n      0x20\n        /* \"#utility.yul\":6467:6476   */\n      dup3\n        /* \"#utility.yul\":6458:6465   */\n      dup5\n        /* \"#utility.yul\":6454:6477   */\n      sub\n        /* \"#utility.yul\":6450:6482   */\n      slt\n        /* \"#utility.yul\":6447:6566   */\n      iszero\n      tag_274\n      jumpi\n        /* \"#utility.yul\":6485:6564   */\n      tag_275\n      tag_225\n      jump\t// in\n    tag_275:\n        /* \"#utility.yul\":6447:6566   */\n    tag_274:\n        /* \"#utility.yul\":6605:6606   */\n      0x00\n        /* \"#utility.yul\":6630:6691   */\n      tag_276\n        /* \"#utility.yul\":6683:6690   */\n      dup5\n        /* \"#utility.yul\":6674:6680   */\n      dup3\n        /* \"#utility.yul\":6663:6672   */\n      dup6\n        /* \"#utility.yul\":6659:6681   */\n      add\n        /* \"#utility.yul\":6630:6691   */\n      tag_205\n      jump\t// in\n    tag_276:\n        /* \"#utility.yul\":6620:6691   */\n      swap2\n      pop\n        /* \"#utility.yul\":6576:6701   */\n      pop\n        /* \"#utility.yul\":6363:6708   */\n      swap3\n      swap2\n      pop\n      pop\n      jump\t// out\n        /* \"#utility.yul\":6714:6832   */\n    tag_277:\n        /* \"#utility.yul\":6801:6825   */\n      tag_279\n        /* \"#utility.yul\":6819:6824   */\n      dup2\n        /* \"#utility.yul\":6801:6825   */\n      tag_280\n      jump\t// in\n    tag_279:\n        /* \"#utility.yul\":6796:6799   */\n      dup3\n        /* \"#utility.yul\":6789:6826   */\n      mstore\n        /* \"#utility.yul\":6714:6832   */\n      pop\n      pop\n      jump\t// out\n        /* \"#utility.yul\":6838:6947   */\n    tag_281:\n        /* \"#utility.yul\":6919:6940   */\n      tag_283\n        /* \"#utility.yul\":6934:6939   */\n      dup2\n        /* \"#utility.yul\":6919:6940   */\n      tag_284\n      jump\t// in\n    tag_283:\n        /* \"#utility.yul\":6914:6917   */\n      dup3\n        /* \"#utility.yul\":6907:6941   */\n      mstore\n        /* \"#utility.yul\":6838:6947   */\n      pop\n      pop\n      jump\t// out\n        /* \"#utility.yul\":6953:7071   */\n    tag_285:\n        /* \"#utility.yul\":7040:7064   */\n      tag_287\n        /* \"#utility.yul\":7058:7063   */\n      dup2\n        /* \"#utility.yul\":7040:7064   */\n      tag_288\n      jump\t// in\n    tag_287:\n        /* \"#utility.yul\":7035:7038   */\n      dup3\n        /* \"#utility.yul\":7028:7065   */\n      mstore\n        /* \"#utility.yul\":6953:7071   */\n      pop\n      pop\n      jump\t// out\n        /* \"#utility.yul\":7077:7236   */\n    tag_289:\n        /* \"#utility.yul\":7178:7229   */\n      tag_291\n        /* \"#utility.yul\":7223:7228   */\n      dup2\n        /* \"#utility.yul\":7178:7229   */\n      tag_292\n      jump\t// in\n    tag_291:\n        /* \"#utility.yul\":7173:7176   */\n      dup3\n        /* \"#utility.yul\":7166:7230   */\n      mstore\n        /* \"#utility.yul\":7077:7236   */\n      pop\n      pop\n      jump\t// out\n        /* \"#utility.yul\":7242:7606   */\n    tag_293:\n        /* \"#utility.yul\":7330:7333   */\n      0x00\n        /* \"#utility.yul\":7358:7397   */\n      tag_295\n        /* \"#utility.yul\":7391:7396   */\n      dup3\n        /* \"#utility.yul\":7358:7397   */\n      tag_296\n      jump\t// in\n    tag_295:\n        /* \"#utility.yul\":7413:7484   */\n      tag_297\n        /* \"#utility.yul\":7477:7483   */\n      dup2\n        /* \"#utility.yul\":7472:7475   */\n      dup6\n        /* \"#utility.yul\":7413:7484   */\n      tag_298\n      jump\t// in\n    tag_297:\n        /* \"#utility.yul\":7406:7484   */\n      swap4\n      pop\n        /* \"#utility.yul\":7493:7545   */\n      tag_299\n        /* \"#utility.yul\":7538:7544   */\n      dup2\n        /* \"#utility.yul\":7533:7536   */\n      dup6\n        /* \"#utility.yul\":7526:7530   */\n      0x20\n        /* \"#utility.yul\":7519:7524   */\n      dup7\n        /* \"#utility.yul\":7515:7531   */\n      add\n        /* \"#utility.yul\":7493:7545   */\n      tag_300\n      jump\t// in\n    tag_299:\n        /* \"#utility.yul\":7570:7599   */\n      tag_301\n        /* \"#utility.yul\":7592:7598   */\n      dup2\n        /* \"#utility.yul\":7570:7599   */\n      tag_302\n      jump\t// in\n    tag_301:\n        /* \"#utility.yul\":7565:7568   */\n      dup5\n        /* \"#utility.yul\":7561:7600   */\n      add\n        /* \"#utility.yul\":7554:7600   */\n      swap2\n      pop\n        /* \"#utility.yul\":7334:7606   */\n      pop\n        /* \"#utility.yul\":7242:7606   */\n      swap3\n      swap2\n      pop\n      pop\n      jump\t// out\n        /* \"#utility.yul\":7612:7989   */\n    tag_303:\n        /* \"#utility.yul\":7718:7721   */\n      0x00\n        /* \"#utility.yul\":7746:7785   */\n      tag_305\n        /* \"#utility.yul\":7779:7784   */\n      dup3\n        /* \"#utility.yul\":7746:7785   */\n      tag_296\n      jump\t// in\n    tag_305:\n        /* \"#utility.yul\":7801:7890   */\n      tag_306\n        /* \"#utility.yul\":7883:7889   */\n      dup2\n        /* \"#utility.yul\":7878:7881   */\n      dup6\n        /* \"#utility.yul\":7801:7890   */\n      tag_307\n      jump\t// in\n    tag_306:\n        /* \"#utility.yul\":7794:7890   */\n      swap4\n      pop\n        /* \"#utility.yul\":7899:7951   */\n      tag_308\n        /* \"#utility.yul\":7944:7950   */\n      dup2\n        /* \"#utility.yul\":7939:7942   */\n      dup6\n        /* \"#utility.yul\":7932:7936   */\n      0x20\n        /* \"#utility.yul\":7925:7930   */\n      dup7\n        /* \"#utility.yul\":7921:7937   */\n      add\n        /* \"#utility.yul\":7899:7951   */\n      tag_300\n      jump\t// in\n    tag_308:\n        /* \"#utility.yul\":7976:7982   */\n      dup1\n        /* \"#utility.yul\":7971:7974   */\n      dup5\n        /* \"#utility.yul\":7967:7983   */\n      add\n        /* \"#utility.yul\":7960:7983   */\n      swap2\n      pop\n        /* \"#utility.yul\":7722:7989   */\n      pop\n        /* \"#utility.yul\":7612:7989   */\n      swap3\n      swap2\n      pop\n      pop\n      jump\t// out\n        /* \"#utility.yul\":7995:8361   */\n    tag_309:\n        /* \"#utility.yul\":8137:8140   */\n      0x00\n        /* \"#utility.yul\":8158:8225   */\n      tag_311\n        /* \"#utility.yul\":8222:8224   */\n      0x26\n        /* \"#utility.yul\":8217:8220   */\n      dup4\n        /* \"#utility.yul\":8158:8225   */\n      tag_298\n      jump\t// in\n    tag_311:\n        /* \"#utility.yul\":8151:8225   */\n      swap2\n      pop\n        /* \"#utility.yul\":8234:8327   */\n      tag_312\n        /* \"#utility.yul\":8323:8326   */\n      dup3\n        /* \"#utility.yul\":8234:8327   */\n      tag_313\n      jump\t// in\n    tag_312:\n        /* \"#utility.yul\":8352:8354   */\n      0x40\n        /* \"#utility.yul\":8347:8350   */\n      dup3\n        /* \"#utility.yul\":8343:8355   */\n      add\n        /* \"#utility.yul\":8336:8355   */\n      swap1\n      pop\n        /* \"#utility.yul\":7995:8361   */\n      swap2\n      swap1\n      pop\n      jump\t// out\n        /* \"#utility.yul\":8367:8733   */\n    tag_314:\n        /* \"#utility.yul\":8509:8512   */\n      0x00\n        /* \"#utility.yul\":8530:8597   */\n      tag_316\n        /* \"#utility.yul\":8594:8596   */\n      0x20\n        /* \"#utility.yul\":8589:8592   */\n      dup4\n        /* \"#utility.yul\":8530:8597   */\n      tag_298\n      jump\t// in\n    tag_316:\n        /* \"#utility.yul\":8523:8597   */\n      swap2\n      pop\n        /* \"#utility.yul\":8606:8699   */\n      tag_317\n        /* \"#utility.yul\":8695:8698   */\n      dup3\n        /* \"#utility.yul\":8606:8699   */\n      tag_318\n      jump\t// in\n    tag_317:\n        /* \"#utility.yul\":8724:8726   */\n      0x20\n        /* \"#utility.yul\":8719:8722   */\n      dup3\n        /* \"#utility.yul\":8715:8727   */\n      add\n        /* \"#utility.yul\":8708:8727   */\n      swap1\n      pop\n        /* \"#utility.yul\":8367:8733   */\n      swap2\n      swap1\n      pop\n      jump\t// out\n        /* \"#utility.yul\":8739:9105   */\n    tag_319:\n        /* \"#utility.yul\":8881:8884   */\n      0x00\n        /* \"#utility.yul\":8902:8969   */\n      tag_321\n        /* \"#utility.yul\":8966:8968   */\n      0x16\n        /* \"#utility.yul\":8961:8964   */\n      dup4\n        /* \"#utility.yul\":8902:8969   */\n      tag_298\n      jump\t// in\n    tag_321:\n        /* \"#utility.yul\":8895:8969   */\n      swap2\n      pop\n        /* \"#utility.yul\":8978:9071   */\n      tag_322\n        /* \"#utility.yul\":9067:9070   */\n      dup3\n        /* \"#utility.yul\":8978:9071   */\n      tag_323\n      jump\t// in\n    tag_322:\n        /* \"#utility.yul\":9096:9098   */\n      0x20\n        /* \"#utility.yul\":9091:9094   */\n      dup3\n        /* \"#utility.yul\":9087:9099   */\n      add\n        /* \"#utility.yul\":9080:9099   */\n      swap1\n      pop\n        /* \"#utility.yul\":8739:9105   */\n      swap2\n      swap1\n      pop\n      jump\t// out\n        /* \"#utility.yul\":9111:9477   */\n    tag_324:\n        /* \"#utility.yul\":9253:9256   */\n      0x00\n        /* \"#utility.yul\":9274:9341   */\n      tag_326\n        /* \"#utility.yul\":9338:9340   */\n      0x1c\n        /* \"#utility.yul\":9333:9336   */\n      dup4\n        /* \"#utility.yul\":9274:9341   */\n      tag_298\n      jump\t// in\n    tag_326:\n        /* \"#utility.yul\":9267:9341   */\n      swap2\n      pop\n        /* \"#utility.yul\":9350:9443   */\n      tag_327\n        /* \"#utility.yul\":9439:9442   */\n      dup3\n        /* \"#utility.yul\":9350:9443   */\n      tag_328\n      jump\t// in\n    tag_327:\n        /* \"#utility.yul\":9468:9470   */\n      0x20\n        /* \"#utility.yul\":9463:9466   */\n      dup3\n        /* \"#utility.yul\":9459:9471   */\n      add\n        /* \"#utility.yul\":9452:9471   */\n      swap1\n      pop\n        /* \"#utility.yul\":9111:9477   */\n      swap2\n      swap1\n      pop\n      jump\t// out\n        /* \"#utility.yul\":9483:9849   */\n    tag_329:\n        /* \"#utility.yul\":9625:9628   */\n      0x00\n        /* \"#utility.yul\":9646:9713   */\n      tag_331\n        /* \"#utility.yul\":9710:9712   */\n      0x14\n        /* \"#utility.yul\":9705:9708   */\n      dup4\n        /* \"#utility.yul\":9646:9713   */\n      tag_298\n      jump\t// in\n    tag_331:\n        /* \"#utility.yul\":9639:9713   */\n      swap2\n      pop\n        /* \"#utility.yul\":9722:9815   */\n      tag_332\n        /* \"#utility.yul\":9811:9814   */\n      dup3\n        /* \"#utility.yul\":9722:9815   */\n      tag_333\n      jump\t// in\n    tag_332:\n        /* \"#utility.yul\":9840:9842   */\n      0x20\n        /* \"#utility.yul\":9835:9838   */\n      dup3\n        /* \"#utility.yul\":9831:9843   */\n      add\n        /* \"#utility.yul\":9824:9843   */\n      swap1\n      pop\n        /* \"#utility.yul\":9483:9849   */\n      swap2\n      swap1\n      pop\n      jump\t// out\n        /* \"#utility.yul\":9855:10221   */\n    tag_334:\n        /* \"#utility.yul\":9997:10000   */\n      0x00\n        /* \"#utility.yul\":10018:10085   */\n      tag_336\n        /* \"#utility.yul\":10082:10084   */\n      0x1c\n        /* \"#utility.yul\":10077:10080   */\n      dup4\n        /* \"#utility.yul\":10018:10085   */\n      tag_298\n      jump\t// in\n    tag_336:\n        /* \"#utility.yul\":10011:10085   */\n      swap2\n      pop\n        /* \"#utility.yul\":10094:10187   */\n      tag_337\n        /* \"#utility.yul\":10183:10186   */\n      dup3\n        /* \"#utility.yul\":10094:10187   */\n      tag_338\n      jump\t// in\n    tag_337:\n        /* \"#utility.yul\":10212:10214   */\n      0x20\n        /* \"#utility.yul\":10207:10210   */\n      dup3\n        /* \"#utility.yul\":10203:10215   */\n      add\n        /* \"#utility.yul\":10196:10215   */\n      swap1\n      pop\n        /* \"#utility.yul\":9855:10221   */\n      swap2\n      swap1\n      pop\n      jump\t// out\n        /* \"#utility.yul\":10227:10345   */\n    tag_339:\n        /* \"#utility.yul\":10314:10338   */\n      tag_341\n        /* \"#utility.yul\":10332:10337   */\n      dup2\n        /* \"#utility.yul\":10314:10338   */\n      tag_342\n      jump\t// in\n    tag_341:\n        /* \"#utility.yul\":10309:10312   */\n      dup3\n        /* \"#utility.yul\":10302:10339   */\n      mstore\n        /* \"#utility.yul\":10227:10345   */\n      pop\n      pop\n      jump\t// out\n        /* \"#utility.yul\":10351:10626   */\n    tag_101:\n        /* \"#utility.yul\":10483:10486   */\n      0x00\n        /* \"#utility.yul\":10505:10600   */\n      tag_344\n        /* \"#utility.yul\":10596:10599   */\n      dup3\n        /* \"#utility.yul\":10587:10593   */\n      dup5\n        /* \"#utility.yul\":10505:10600   */\n      tag_303\n      jump\t// in\n    tag_344:\n        /* \"#utility.yul\":10498:10600   */\n      swap2\n      pop\n        /* \"#utility.yul\":10617:10620   */\n      dup2\n        /* \"#utility.yul\":10610:10620   */\n      swap1\n      pop\n        /* \"#utility.yul\":10351:10626   */\n      swap3\n      swap2\n      pop\n      pop\n      jump\t// out\n        /* \"#utility.yul\":10632:10854   */\n    tag_39:\n        /* \"#utility.yul\":10725:10729   */\n      0x00\n        /* \"#utility.yul\":10763:10765   */\n      0x20\n        /* \"#utility.yul\":10752:10761   */\n      dup3\n        /* \"#utility.yul\":10748:10766   */\n      add\n        /* \"#utility.yul\":10740:10766   */\n      swap1\n      pop\n        /* \"#utility.yul\":10776:10847   */\n      tag_346\n        /* \"#utility.yul\":10844:10845   */\n      0x00\n        /* \"#utility.yul\":10833:10842   */\n      dup4\n        /* \"#utility.yul\":10829:10846   */\n      add\n        /* \"#utility.yul\":10820:10826   */\n      dup5\n        /* \"#utility.yul\":10776:10847   */\n      tag_277\n      jump\t// in\n    tag_346:\n        /* \"#utility.yul\":10632:10854   */\n      swap3\n      swap2\n      pop\n      pop\n      jump\t// out\n        /* \"#utility.yul\":10860:11302   */\n    tag_94:\n        /* \"#utility.yul\":11009:11013   */\n      0x00\n        /* \"#utility.yul\":11047:11049   */\n      0x60\n        /* \"#utility.yul\":11036:11045   */\n      dup3\n        /* \"#utility.yul\":11032:11050   */\n      add\n        /* \"#utility.yul\":11024:11050   */\n      swap1\n      pop\n        /* \"#utility.yul\":11060:11131   */\n      tag_348\n        /* \"#utility.yul\":11128:11129   */\n      0x00\n        /* \"#utility.yul\":11117:11126   */\n      dup4\n        /* \"#utility.yul\":11113:11130   */\n      add\n        /* \"#utility.yul\":11104:11110   */\n      dup7\n        /* \"#utility.yul\":11060:11131   */\n      tag_277\n      jump\t// in\n    tag_348:\n        /* \"#utility.yul\":11141:11213   */\n      tag_349\n        /* \"#utility.yul\":11209:11211   */\n      0x20\n        /* \"#utility.yul\":11198:11207   */\n      dup4\n        /* \"#utility.yul\":11194:11212   */\n      add\n        /* \"#utility.yul\":11185:11191   */\n      dup6\n        /* \"#utility.yul\":11141:11213   */\n      tag_277\n      jump\t// in\n    tag_349:\n        /* \"#utility.yul\":11223:11295   */\n      tag_350\n        /* \"#utility.yul\":11291:11293   */\n      0x40\n        /* \"#utility.yul\":11280:11289   */\n      dup4\n        /* \"#utility.yul\":11276:11294   */\n      add\n        /* \"#utility.yul\":11267:11273   */\n      dup5\n        /* \"#utility.yul\":11223:11295   */\n      tag_339\n      jump\t// in\n    tag_350:\n        /* \"#utility.yul\":10860:11302   */\n      swap5\n      swap4\n      pop\n      pop\n      pop\n      pop\n      jump\t// out\n        /* \"#utility.yul\":11308:11640   */\n    tag_131:\n        /* \"#utility.yul\":11429:11433   */\n      0x00\n        /* \"#utility.yul\":11467:11469   */\n      0x40\n        /* \"#utility.yul\":11456:11465   */\n      dup3\n        /* \"#utility.yul\":11452:11470   */\n      add\n        /* \"#utility.yul\":11444:11470   */\n      swap1\n      pop\n        /* \"#utility.yul\":11480:11551   */\n      tag_352\n        /* \"#utility.yul\":11548:11549   */\n      0x00\n        /* \"#utility.yul\":11537:11546   */\n      dup4\n        /* \"#utility.yul\":11533:11550   */\n      add\n        /* \"#utility.yul\":11524:11530   */\n      dup6\n        /* \"#utility.yul\":11480:11551   */\n      tag_277\n      jump\t// in\n    tag_352:\n        /* \"#utility.yul\":11561:11633   */\n      tag_353\n        /* \"#utility.yul\":11629:11631   */\n      0x20\n        /* \"#utility.yul\":11618:11627   */\n      dup4\n        /* \"#utility.yul\":11614:11632   */\n      add\n        /* \"#utility.yul\":11605:11611   */\n      dup5\n        /* \"#utility.yul\":11561:11633   */\n      tag_339\n      jump\t// in\n    tag_353:\n        /* \"#utility.yul\":11308:11640   */\n      swap4\n      swap3\n      pop\n      pop\n      pop\n      jump\t// out\n        /* \"#utility.yul\":11646:12076   */\n    tag_25:\n        /* \"#utility.yul\":11789:11793   */\n      0x00\n        /* \"#utility.yul\":11827:11829   */\n      0x60\n        /* \"#utility.yul\":11816:11825   */\n      dup3\n        /* \"#utility.yul\":11812:11830   */\n      add\n        /* \"#utility.yul\":11804:11830   */\n      swap1\n      pop\n        /* \"#utility.yul\":11840:11911   */\n      tag_355\n        /* \"#utility.yul\":11908:11909   */\n      0x00\n        /* \"#utility.yul\":11897:11906   */\n      dup4\n        /* \"#utility.yul\":11893:11910   */\n      add\n        /* \"#utility.yul\":11884:11890   */\n      dup7\n        /* \"#utility.yul\":11840:11911   */\n      tag_285\n      jump\t// in\n    tag_355:\n        /* \"#utility.yul\":11921:11987   */\n      tag_356\n        /* \"#utility.yul\":11983:11985   */\n      0x20\n        /* \"#utility.yul\":11972:11981   */\n      dup4\n        /* \"#utility.yul\":11968:11986   */\n      add\n        /* \"#utility.yul\":11959:11965   */\n      dup6\n        /* \"#utility.yul\":11921:11987   */\n      tag_281\n      jump\t// in\n    tag_356:\n        /* \"#utility.yul\":11997:12069   */\n      tag_357\n        /* \"#utility.yul\":12065:12067   */\n      0x40\n        /* \"#utility.yul\":12054:12063   */\n      dup4\n        /* \"#utility.yul\":12050:12068   */\n      add\n        /* \"#utility.yul\":12041:12047   */\n      dup5\n        /* \"#utility.yul\":11997:12069   */\n      tag_277\n      jump\t// in\n    tag_357:\n        /* \"#utility.yul\":11646:12076   */\n      swap5\n      swap4\n      pop\n      pop\n      pop\n      pop\n      jump\t// out\n        /* \"#utility.yul\":12082:12332   */\n    tag_78:\n        /* \"#utility.yul\":12189:12193   */\n      0x00\n        /* \"#utility.yul\":12227:12229   */\n      0x20\n        /* \"#utility.yul\":12216:12225   */\n      dup3\n        /* \"#utility.yul\":12212:12230   */\n      add\n        /* \"#utility.yul\":12204:12230   */\n      swap1\n      pop\n        /* \"#utility.yul\":12240:12325   */\n      tag_359\n        /* \"#utility.yul\":12322:12323   */\n      0x00\n        /* \"#utility.yul\":12311:12320   */\n      dup4\n        /* \"#utility.yul\":12307:12324   */\n      add\n        /* \"#utility.yul\":12298:12304   */\n      dup5\n        /* \"#utility.yul\":12240:12325   */\n      tag_289\n      jump\t// in\n    tag_359:\n        /* \"#utility.yul\":12082:12332   */\n      swap3\n      swap2\n      pop\n      pop\n      jump\t// out\n        /* \"#utility.yul\":12338:12651   */\n    tag_67:\n        /* \"#utility.yul\":12451:12455   */\n      0x00\n        /* \"#utility.yul\":12489:12491   */\n      0x20\n        /* \"#utility.yul\":12478:12487   */\n      dup3\n        /* \"#utility.yul\":12474:12492   */\n      add\n        /* \"#utility.yul\":12466:12492   */\n      swap1\n      pop\n        /* \"#utility.yul\":12538:12547   */\n      dup2\n        /* \"#utility.yul\":12532:12536   */\n      dup2\n        /* \"#utility.yul\":12528:12548   */\n      sub\n        /* \"#utility.yul\":12524:12525   */\n      0x00\n        /* \"#utility.yul\":12513:12522   */\n      dup4\n        /* \"#utility.yul\":12509:12526   */\n      add\n        /* \"#utility.yul\":12502:12549   */\n      mstore\n        /* \"#utility.yul\":12566:12644   */\n      tag_361\n        /* \"#utility.yul\":12639:12643   */\n      dup2\n        /* \"#utility.yul\":12630:12636   */\n      dup5\n        /* \"#utility.yul\":12566:12644   */\n      tag_293\n      jump\t// in\n    tag_361:\n        /* \"#utility.yul\":12558:12644   */\n      swap1\n      pop\n        /* \"#utility.yul\":12338:12651   */\n      swap3\n      swap2\n      pop\n      pop\n      jump\t// out\n        /* \"#utility.yul\":12657:13080   */\n    tag_57:\n        /* \"#utility.yul\":12798:12802   */\n      0x00\n        /* \"#utility.yul\":12836:12838   */\n      0x40\n        /* \"#utility.yul\":12825:12834   */\n      dup3\n        /* \"#utility.yul\":12821:12839   */\n      add\n        /* \"#utility.yul\":12813:12839   */\n      swap1\n      pop\n        /* \"#utility.yul\":12885:12894   */\n      dup2\n        /* \"#utility.yul\":12879:12883   */\n      dup2\n        /* \"#utility.yul\":12875:12895   */\n      sub\n        /* \"#utility.yul\":12871:12872   */\n      0x00\n        /* \"#utility.yul\":12860:12869   */\n      dup4\n        /* \"#utility.yul\":12856:12873   */\n      add\n        /* \"#utility.yul\":12849:12896   */\n      mstore\n        /* \"#utility.yul\":12913:12991   */\n      tag_363\n        /* \"#utility.yul\":12986:12990   */\n      dup2\n        /* \"#utility.yul\":12977:12983   */\n      dup6\n        /* \"#utility.yul\":12913:12991   */\n      tag_293\n      jump\t// in\n    tag_363:\n        /* \"#utility.yul\":12905:12991   */\n      swap1\n      pop\n        /* \"#utility.yul\":13001:13073   */\n      tag_364\n        /* \"#utility.yul\":13069:13071   */\n      0x20\n        /* \"#utility.yul\":13058:13067   */\n      dup4\n        /* \"#utility.yul\":13054:13072   */\n      add\n        /* \"#utility.yul\":13045:13051   */\n      dup5\n        /* \"#utility.yul\":13001:13073   */\n      tag_339\n      jump\t// in\n    tag_364:\n        /* \"#utility.yul\":12657:13080   */\n      swap4\n      swap3\n      pop\n      pop\n      pop\n      jump\t// out\n        /* \"#utility.yul\":13086:13505   */\n    tag_164:\n        /* \"#utility.yul\":13252:13256   */\n      0x00\n        /* \"#utility.yul\":13290:13292   */\n      0x20\n        /* \"#utility.yul\":13279:13288   */\n      dup3\n        /* \"#utility.yul\":13275:13293   */\n      add\n        /* \"#utility.yul\":13267:13293   */\n      swap1\n      pop\n        /* \"#utility.yul\":13339:13348   */\n      dup2\n        /* \"#utility.yul\":13333:13337   */\n      dup2\n        /* \"#utility.yul\":13329:13349   */\n      sub\n        /* \"#utility.yul\":13325:13326   */\n      0x00\n        /* \"#utility.yul\":13314:13323   */\n      dup4\n        /* \"#utility.yul\":13310:13327   */\n      add\n        /* \"#utility.yul\":13303:13350   */\n      mstore\n        /* \"#utility.yul\":13367:13498   */\n      tag_366\n        /* \"#utility.yul\":13493:13497   */\n      dup2\n        /* \"#utility.yul\":13367:13498   */\n      tag_309\n      jump\t// in\n    tag_366:\n        /* \"#utility.yul\":13359:13498   */\n      swap1\n      pop\n        /* \"#utility.yul\":13086:13505   */\n      swap2\n      swap1\n      pop\n      jump\t// out\n        /* \"#utility.yul\":13511:13930   */\n    tag_172:\n        /* \"#utility.yul\":13677:13681   */\n      0x00\n        /* \"#utility.yul\":13715:13717   */\n      0x20\n        /* \"#utility.yul\":13704:13713   */\n      dup3\n        /* \"#utility.yul\":13700:13718   */\n      add\n        /* \"#utility.yul\":13692:13718   */\n      swap1\n      pop\n        /* \"#utility.yul\":13764:13773   */\n      dup2\n        /* \"#utility.yul\":13758:13762   */\n      dup2\n        /* \"#utility.yul\":13754:13774   */\n      sub\n        /* \"#utility.yul\":13750:13751   */\n      0x00\n        /* \"#utility.yul\":13739:13748   */\n      dup4\n        /* \"#utility.yul\":13735:13752   */\n      add\n        /* \"#utility.yul\":13728:13775   */\n      mstore\n        /* \"#utility.yul\":13792:13923   */\n      tag_368\n        /* \"#utility.yul\":13918:13922   */\n      dup2\n        /* \"#utility.yul\":13792:13923   */\n      tag_314\n      jump\t// in\n    tag_368:\n        /* \"#utility.yul\":13784:13923   */\n      swap1\n      pop\n        /* \"#utility.yul\":13511:13930   */\n      swap2\n      swap1\n      pop\n      jump\t// out\n        /* \"#utility.yul\":13936:14355   */\n    tag_124:\n        /* \"#utility.yul\":14102:14106   */\n      0x00\n        /* \"#utility.yul\":14140:14142   */\n      0x20\n        /* \"#utility.yul\":14129:14138   */\n      dup3\n        /* \"#utility.yul\":14125:14143   */\n      add\n        /* \"#utility.yul\":14117:14143   */\n      swap1\n      pop\n        /* \"#utility.yul\":14189:14198   */\n      dup2\n        /* \"#utility.yul\":14183:14187   */\n      dup2\n        /* \"#utility.yul\":14179:14199   */\n      sub\n        /* \"#utility.yul\":14175:14176   */\n      0x00\n        /* \"#utility.yul\":14164:14173   */\n      dup4\n        /* \"#utility.yul\":14160:14177   */\n      add\n        /* \"#utility.yul\":14153:14200   */\n      mstore\n        /* \"#utility.yul\":14217:14348   */\n      tag_370\n        /* \"#utility.yul\":14343:14347   */\n      dup2\n        /* \"#utility.yul\":14217:14348   */\n      tag_319\n      jump\t// in\n    tag_370:\n        /* \"#utility.yul\":14209:14348   */\n      swap1\n      pop\n        /* \"#utility.yul\":13936:14355   */\n      swap2\n      swap1\n      pop\n      jump\t// out\n        /* \"#utility.yul\":14361:14780   */\n    tag_129:\n        /* \"#utility.yul\":14527:14531   */\n      0x00\n        /* \"#utility.yul\":14565:14567   */\n      0x20\n        /* \"#utility.yul\":14554:14563   */\n      dup3\n        /* \"#utility.yul\":14550:14568   */\n      add\n        /* \"#utility.yul\":14542:14568   */\n      swap1\n      pop\n        /* \"#utility.yul\":14614:14623   */\n      dup2\n        /* \"#utility.yul\":14608:14612   */\n      dup2\n        /* \"#utility.yul\":14604:14624   */\n      sub\n        /* \"#utility.yul\":14600:14601   */\n      0x00\n        /* \"#utility.yul\":14589:14598   */\n      dup4\n        /* \"#utility.yul\":14585:14602   */\n      add\n        /* \"#utility.yul\":14578:14625   */\n      mstore\n        /* \"#utility.yul\":14642:14773   */\n      tag_372\n        /* \"#utility.yul\":14768:14772   */\n      dup2\n        /* \"#utility.yul\":14642:14773   */\n      tag_324\n      jump\t// in\n    tag_372:\n        /* \"#utility.yul\":14634:14773   */\n      swap1\n      pop\n        /* \"#utility.yul\":14361:14780   */\n      swap2\n      swap1\n      pop\n      jump\t// out\n        /* \"#utility.yul\":14786:15205   */\n    tag_89:\n        /* \"#utility.yul\":14952:14956   */\n      0x00\n        /* \"#utility.yul\":14990:14992   */\n      0x20\n        /* \"#utility.yul\":14979:14988   */\n      dup3\n        /* \"#utility.yul\":14975:14993   */\n      add\n        /* \"#utility.yul\":14967:14993   */\n      swap1\n      pop\n        /* \"#utility.yul\":15039:15048   */\n      dup2\n        /* \"#utility.yul\":15033:15037   */\n      dup2\n        /* \"#utility.yul\":15029:15049   */\n      sub\n        /* \"#utility.yul\":15025:15026   */\n      0x00\n        /* \"#utility.yul\":15014:15023   */\n      dup4\n        /* \"#utility.yul\":15010:15027   */\n      add\n        /* \"#utility.yul\":15003:15050   */\n      mstore\n        /* \"#utility.yul\":15067:15198   */\n      tag_374\n        /* \"#utility.yul\":15193:15197   */\n      dup2\n        /* \"#utility.yul\":15067:15198   */\n      tag_329\n      jump\t// in\n    tag_374:\n        /* \"#utility.yul\":15059:15198   */\n      swap1\n      pop\n        /* \"#utility.yul\":14786:15205   */\n      swap2\n      swap1\n      pop\n      jump\t// out\n        /* \"#utility.yul\":15211:15630   */\n    tag_92:\n        /* \"#utility.yul\":15377:15381   */\n      0x00\n        /* \"#utility.yul\":15415:15417   */\n      0x20\n        /* \"#utility.yul\":15404:15413   */\n      dup3\n        /* \"#utility.yul\":15400:15418   */\n      add\n        /* \"#utility.yul\":15392:15418   */\n      swap1\n      pop\n        /* \"#utility.yul\":15464:15473   */\n      dup2\n        /* \"#utility.yul\":15458:15462   */\n      dup2\n        /* \"#utility.yul\":15454:15474   */\n      sub\n        /* \"#utility.yul\":15450:15451   */\n      0x00\n        /* \"#utility.yul\":15439:15448   */\n      dup4\n        /* \"#utility.yul\":15435:15452   */\n      add\n        /* \"#utility.yul\":15428:15475   */\n      mstore\n        /* \"#utility.yul\":15492:15623   */\n      tag_376\n        /* \"#utility.yul\":15618:15622   */\n      dup2\n        /* \"#utility.yul\":15492:15623   */\n      tag_334\n      jump\t// in\n    tag_376:\n        /* \"#utility.yul\":15484:15623   */\n      swap1\n      pop\n        /* \"#utility.yul\":15211:15630   */\n      swap2\n      swap1\n      pop\n      jump\t// out\n        /* \"#utility.yul\":15636:15858   */\n    tag_51:\n        /* \"#utility.yul\":15729:15733   */\n      0x00\n        /* \"#utility.yul\":15767:15769   */\n      0x20\n        /* \"#utility.yul\":15756:15765   */\n      dup3\n        /* \"#utility.yul\":15752:15770   */\n      add\n        /* \"#utility.yul\":15744:15770   */\n      swap1\n      pop\n        /* \"#utility.yul\":15780:15851   */\n      tag_378\n        /* \"#utility.yul\":15848:15849   */\n      0x00\n        /* \"#utility.yul\":15837:15846   */\n      dup4\n        /* \"#utility.yul\":15833:15850   */\n      add\n        /* \"#utility.yul\":15824:15830   */\n      dup5\n        /* \"#utility.yul\":15780:15851   */\n      tag_339\n      jump\t// in\n    tag_378:\n        /* \"#utility.yul\":15636:15858   */\n      swap3\n      swap2\n      pop\n      pop\n      jump\t// out\n        /* \"#utility.yul\":15864:15993   */\n    tag_191:\n        /* \"#utility.yul\":15898:15904   */\n      0x00\n        /* \"#utility.yul\":15925:15945   */\n      tag_380\n      tag_381\n      jump\t// in\n    tag_380:\n        /* \"#utility.yul\":15915:15945   */\n      swap1\n      pop\n        /* \"#utility.yul\":15954:15987   */\n      tag_382\n        /* \"#utility.yul\":15982:15986   */\n      dup3\n        /* \"#utility.yul\":15974:15980   */\n      dup3\n        /* \"#utility.yul\":15954:15987   */\n      tag_383\n      jump\t// in\n    tag_382:\n        /* \"#utility.yul\":15864:15993   */\n      swap2\n      swap1\n      pop\n      jump\t// out\n        /* \"#utility.yul\":15999:16074   */\n    tag_381:\n        /* \"#utility.yul\":16032:16038   */\n      0x00\n        /* \"#utility.yul\":16065:16067   */\n      0x40\n        /* \"#utility.yul\":16059:16068   */\n      mload\n        /* \"#utility.yul\":16049:16068   */\n      swap1\n      pop\n        /* \"#utility.yul\":15999:16074   */\n      swap1\n      jump\t// out\n        /* \"#utility.yul\":16080:16388   */\n    tag_190:\n        /* \"#utility.yul\":16142:16146   */\n      0x00\n        /* \"#utility.yul\":16232:16250   */\n      0xffffffffffffffff\n        /* \"#utility.yul\":16224:16230   */\n      dup3\n        /* \"#utility.yul\":16221:16251   */\n      gt\n        /* \"#utility.yul\":16218:16274   */\n      iszero\n      tag_386\n      jumpi\n        /* \"#utility.yul\":16254:16272   */\n      tag_387\n      tag_388\n      jump\t// in\n    tag_387:\n        /* \"#utility.yul\":16218:16274   */\n    tag_386:\n        /* \"#utility.yul\":16292:16321   */\n      tag_389\n        /* \"#utility.yul\":16314:16320   */\n      dup3\n        /* \"#utility.yul\":16292:16321   */\n      tag_302\n      jump\t// in\n    tag_389:\n        /* \"#utility.yul\":16284:16321   */\n      swap1\n      pop\n        /* \"#utility.yul\":16376:16380   */\n      0x20\n        /* \"#utility.yul\":16370:16374   */\n      dup2\n        /* \"#utility.yul\":16366:16381   */\n      add\n        /* \"#utility.yul\":16358:16381   */\n      swap1\n      pop\n        /* \"#utility.yul\":16080:16388   */\n      swap2\n      swap1\n      pop\n      jump\t// out\n        /* \"#utility.yul\":16394:16493   */\n    tag_296:\n        /* \"#utility.yul\":16446:16452   */\n      0x00\n        /* \"#utility.yul\":16480:16485   */\n      dup2\n        /* \"#utility.yul\":16474:16486   */\n      mload\n        /* \"#utility.yul\":16464:16486   */\n      swap1\n      pop\n        /* \"#utility.yul\":16394:16493   */\n      swap2\n      swap1\n      pop\n      jump\t// out\n        /* \"#utility.yul\":16499:16668   */\n    tag_298:\n        /* \"#utility.yul\":16583:16594   */\n      0x00\n        /* \"#utility.yul\":16617:16623   */\n      dup3\n        /* \"#utility.yul\":16612:16615   */\n      dup3\n        /* \"#utility.yul\":16605:16624   */\n      mstore\n        /* \"#utility.yul\":16657:16661   */\n      0x20\n        /* \"#utility.yul\":16652:16655   */\n      dup3\n        /* \"#utility.yul\":16648:16662   */\n      add\n        /* \"#utility.yul\":16633:16662   */\n      swap1\n      pop\n        /* \"#utility.yul\":16499:16668   */\n      swap3\n      swap2\n      pop\n      pop\n      jump\t// out\n        /* \"#utility.yul\":16674:16822   */\n    tag_307:\n        /* \"#utility.yul\":16776:16787   */\n      0x00\n        /* \"#utility.yul\":16813:16816   */\n      dup2\n        /* \"#utility.yul\":16798:16816   */\n      swap1\n      pop\n        /* \"#utility.yul\":16674:16822   */\n      swap3\n      swap2\n      pop\n      pop\n      jump\t// out\n        /* \"#utility.yul\":16828:17133   */\n    tag_104:\n        /* \"#utility.yul\":16868:16871   */\n      0x00\n        /* \"#utility.yul\":16887:16907   */\n      tag_394\n        /* \"#utility.yul\":16905:16906   */\n      dup3\n        /* \"#utility.yul\":16887:16907   */\n      tag_342\n      jump\t// in\n    tag_394:\n        /* \"#utility.yul\":16882:16907   */\n      swap2\n      pop\n        /* \"#utility.yul\":16921:16941   */\n      tag_395\n        /* \"#utility.yul\":16939:16940   */\n      dup4\n        /* \"#utility.yul\":16921:16941   */\n      tag_342\n      jump\t// in\n    tag_395:\n        /* \"#utility.yul\":16916:16941   */\n      swap3\n      pop\n        /* \"#utility.yul\":17075:17076   */\n      dup3\n        /* \"#utility.yul\":17007:17073   */\n      0xffffffffffffffffffffffffffffffffffffffffffffffffffffffffffffffff\n        /* \"#utility.yul\":17003:17077   */\n      sub\n        /* \"#utility.yul\":17000:17001   */\n      dup3\n        /* \"#utility.yul\":16997:17078   */\n      gt\n        /* \"#utility.yul\":16994:17101   */\n      iszero\n      tag_396\n      jumpi\n        /* \"#utility.yul\":17081:17099   */\n      tag_397\n      tag_398\n      jump\t// in\n    tag_397:\n        /* \"#utility.yul\":16994:17101   */\n    tag_396:\n        /* \"#utility.yul\":17125:17126   */\n      dup3\n        /* \"#utility.yul\":17122:17123   */\n      dup3\n        /* \"#utility.yul\":17118:17127   */\n      add\n        /* \"#utility.yul\":17111:17127   */\n      swap1\n      pop\n        /* \"#utility.yul\":16828:17133   */\n      swap3\n      swap2\n      pop\n      pop\n      jump\t// out\n        /* \"#utility.yul\":17139:17330   */\n    tag_139:\n        /* \"#utility.yul\":17179:17183   */\n      0x00\n        /* \"#utility.yul\":17199:17219   */\n      tag_400\n        /* \"#utility.yul\":17217:17218   */\n      dup3\n        /* \"#utility.yul\":17199:17219   */\n      tag_342\n      jump\t// in\n    tag_400:\n        /* \"#utility.yul\":17194:17219   */\n      swap2\n      pop\n        /* \"#utility.yul\":17233:17253   */\n      tag_401\n        /* \"#utility.yul\":17251:17252   */\n      dup4\n        /* \"#utility.yul\":17233:17253   */\n      tag_342\n      jump\t// in\n    tag_401:\n        /* \"#utility.yul\":17228:17253   */\n      swap3\n      pop\n        /* \"#utility.yul\":17272:17273   */\n      dup3\n        /* \"#utility.yul\":17269:17270   */\n      dup3\n        /* \"#utility.yul\":17266:17274   */\n      lt\n        /* \"#utility.yul\":17263:17297   */\n      iszero\n      tag_402\n      jumpi\n        /* \"#utility.yul\":17277:17295   */\n      tag_403\n      tag_398\n      jump\t// in\n    tag_403:\n        /* \"#utility.yul\":17263:17297   */\n    tag_402:\n        /* \"#utility.yul\":17322:17323   */\n      dup3\n        /* \"#utility.yul\":17319:17320   */\n      dup3\n        /* \"#utility.yul\":17315:17324   */\n      sub\n        /* \"#utility.yul\":17307:17324   */\n      swap1\n      pop\n        /* \"#utility.yul\":17139:17330   */\n      swap3\n      swap2\n      pop\n      pop\n      jump\t// out\n        /* \"#utility.yul\":17336:17432   */\n    tag_280:\n        /* \"#utility.yul\":17373:17380   */\n      0x00\n        /* \"#utility.yul\":17402:17426   */\n      tag_405\n        /* \"#utility.yul\":17420:17425   */\n      dup3\n        /* \"#utility.yul\":17402:17426   */\n      tag_406\n      jump\t// in\n    tag_405:\n        /* \"#utility.yul\":17391:17426   */\n      swap1\n      pop\n        /* \"#utility.yul\":17336:17432   */\n      swap2\n      swap1\n      pop\n      jump\t// out\n        /* \"#utility.yul\":17438:17528   */\n    tag_284:\n        /* \"#utility.yul\":17472:17479   */\n      0x00\n        /* \"#utility.yul\":17515:17520   */\n      dup2\n        /* \"#utility.yul\":17508:17521   */\n      iszero\n        /* \"#utility.yul\":17501:17522   */\n      iszero\n        /* \"#utility.yul\":17490:17522   */\n      swap1\n      pop\n        /* \"#utility.yul\":17438:17528   */\n      swap2\n      swap1\n      pop\n      jump\t// out\n        /* \"#utility.yul\":17534:17611   */\n    tag_288:\n        /* \"#utility.yul\":17571:17578   */\n      0x00\n        /* \"#utility.yul\":17600:17605   */\n      dup2\n        /* \"#utility.yul\":17589:17605   */\n      swap1\n      pop\n        /* \"#utility.yul\":17534:17611   */\n      swap2\n      swap1\n      pop\n      jump\t// out\n        /* \"#utility.yul\":17617:17743   */\n    tag_406:\n        /* \"#utility.yul\":17654:17661   */\n      0x00\n        /* \"#utility.yul\":17694:17736   */\n      0xffffffffffffffffffffffffffffffffffffffff\n        /* \"#utility.yul\":17687:17692   */\n      dup3\n        /* \"#utility.yul\":17683:17737   */\n      and\n        /* \"#utility.yul\":17672:17737   */\n      swap1\n      pop\n        /* \"#utility.yul\":17617:17743   */\n      swap2\n      swap1\n      pop\n      jump\t// out\n        /* \"#utility.yul\":17749:17826   */\n    tag_342:\n        /* \"#utility.yul\":17786:17793   */\n      0x00\n        /* \"#utility.yul\":17815:17820   */\n      dup2\n        /* \"#utility.yul\":17804:17820   */\n      swap1\n      pop\n        /* \"#utility.yul\":17749:17826   */\n      swap2\n      swap1\n      pop\n      jump\t// out\n        /* \"#utility.yul\":17832:17972   */\n    tag_292:\n        /* \"#utility.yul\":17896:17905   */\n      0x00\n        /* \"#utility.yul\":17929:17966   */\n      tag_412\n        /* \"#utility.yul\":17960:17965   */\n      dup3\n        /* \"#utility.yul\":17929:17966   */\n      tag_413\n      jump\t// in\n    tag_412:\n        /* \"#utility.yul\":17916:17966   */\n      swap1\n      pop\n        /* \"#utility.yul\":17832:17972   */\n      swap2\n      swap1\n      pop\n      jump\t// out\n        /* \"#utility.yul\":17978:18104   */\n    tag_413:\n        /* \"#utility.yul\":18028:18037   */\n      0x00\n        /* \"#utility.yul\":18061:18098   */\n      tag_415\n        /* \"#utility.yul\":18092:18097   */\n      dup3\n        /* \"#utility.yul\":18061:18098   */\n      tag_416\n      jump\t// in\n    tag_415:\n        /* \"#utility.yul\":18048:18098   */\n      swap1\n      pop\n        /* \"#utility.yul\":17978:18104   */\n      swap2\n      swap1\n      pop\n      jump\t// out\n        /* \"#utility.yul\":18110:18223   */\n    tag_416:\n        /* \"#utility.yul\":18160:18169   */\n      0x00\n        /* \"#utility.yul\":18193:18217   */\n      tag_418\n        /* \"#utility.yul\":18211:18216   */\n      dup3\n        /* \"#utility.yul\":18193:18217   */\n      tag_406\n      jump\t// in\n    tag_418:\n        /* \"#utility.yul\":18180:18217   */\n      swap1\n      pop\n        /* \"#utility.yul\":18110:18223   */\n      swap2\n      swap1\n      pop\n      jump\t// out\n        /* \"#utility.yul\":18229:18383   */\n    tag_196:\n        /* \"#utility.yul\":18313:18319   */\n      dup3\n        /* \"#utility.yul\":18308:18311   */\n      dup2\n        /* \"#utility.yul\":18303:18306   */\n      dup4\n        /* \"#utility.yul\":18290:18320   */\n      calldatacopy\n        /* \"#utility.yul\":18375:18376   */\n      0x00\n        /* \"#utility.yul\":18366:18372   */\n      dup4\n        /* \"#utility.yul\":18361:18364   */\n      dup4\n        /* \"#utility.yul\":18357:18373   */\n      add\n        /* \"#utility.yul\":18350:18377   */\n      mstore\n        /* \"#utility.yul\":18229:18383   */\n      pop\n      pop\n      pop\n      jump\t// out\n        /* \"#utility.yul\":18389:18696   */\n    tag_300:\n        /* \"#utility.yul\":18457:18458   */\n      0x00\n        /* \"#utility.yul\":18467:18580   */\n    tag_421:\n        /* \"#utility.yul\":18481:18487   */\n      dup4\n        /* \"#utility.yul\":18478:18479   */\n      dup2\n        /* \"#utility.yul\":18475:18488   */\n      lt\n        /* \"#utility.yul\":18467:18580   */\n      iszero\n      tag_423\n      jumpi\n        /* \"#utility.yul\":18566:18567   */\n      dup1\n        /* \"#utility.yul\":18561:18564   */\n      dup3\n        /* \"#utility.yul\":18557:18568   */\n      add\n        /* \"#utility.yul\":18551:18569   */\n      mload\n        /* \"#utility.yul\":18547:18548   */\n      dup2\n        /* \"#utility.yul\":18542:18545   */\n      dup5\n        /* \"#utility.yul\":18538:18549   */\n      add\n        /* \"#utility.yul\":18531:18570   */\n      mstore\n        /* \"#utility.yul\":18503:18505   */\n      0x20\n        /* \"#utility.yul\":18500:18501   */\n      dup2\n        /* \"#utility.yul\":18496:18506   */\n      add\n        /* \"#utility.yul\":18491:18506   */\n      swap1\n      pop\n        /* \"#utility.yul\":18467:18580   */\n      jump(tag_421)\n    tag_423:\n        /* \"#utility.yul\":18598:18604   */\n      dup4\n        /* \"#utility.yul\":18595:18596   */\n      dup2\n        /* \"#utility.yul\":18592:18605   */\n      gt\n        /* \"#utility.yul\":18589:18690   */\n      iszero\n      tag_424\n      jumpi\n        /* \"#utility.yul\":18678:18679   */\n      0x00\n        /* \"#utility.yul\":18669:18675   */\n      dup5\n        /* \"#utility.yul\":18664:18667   */\n      dup5\n        /* \"#utility.yul\":18660:18676   */\n      add\n        /* \"#utility.yul\":18653:18680   */\n      mstore\n        /* \"#utility.yul\":18589:18690   */\n    tag_424:\n        /* \"#utility.yul\":18438:18696   */\n      pop\n        /* \"#utility.yul\":18389:18696   */\n      pop\n      pop\n      pop\n      jump\t// out\n        /* \"#utility.yul\":18702:19022   */\n    tag_144:\n        /* \"#utility.yul\":18746:18752   */\n      0x00\n        /* \"#utility.yul\":18783:18784   */\n      0x02\n        /* \"#utility.yul\":18777:18781   */\n      dup3\n        /* \"#utility.yul\":18773:18785   */\n      div\n        /* \"#utility.yul\":18763:18785   */\n      swap1\n      pop\n        /* \"#utility.yul\":18830:18831   */\n      0x01\n        /* \"#utility.yul\":18824:18828   */\n      dup3\n        /* \"#utility.yul\":18820:18832   */\n      and\n        /* \"#utility.yul\":18851:18869   */\n      dup1\n        /* \"#utility.yul\":18841:18922   */\n      tag_426\n      jumpi\n        /* \"#utility.yul\":18907:18911   */\n      0x7f\n        /* \"#utility.yul\":18899:18905   */\n      dup3\n        /* \"#utility.yul\":18895:18912   */\n      and\n        /* \"#utility.yul\":18885:18912   */\n      swap2\n      pop\n        /* \"#utility.yul\":18841:18922   */\n    tag_426:\n        /* \"#utility.yul\":18969:18971   */\n      0x20\n        /* \"#utility.yul\":18961:18967   */\n      dup3\n        /* \"#utility.yul\":18958:18972   */\n      lt\n        /* \"#utility.yul\":18938:18956   */\n      dup2\n        /* \"#utility.yul\":18935:18973   */\n      eq\n        /* \"#utility.yul\":18932:19016   */\n      iszero\n      tag_427\n      jumpi\n        /* \"#utility.yul\":18988:19006   */\n      tag_428\n      tag_429\n      jump\t// in\n    tag_428:\n        /* \"#utility.yul\":18932:19016   */\n    tag_427:\n        /* \"#utility.yul\":18753:19022   */\n      pop\n        /* \"#utility.yul\":18702:19022   */\n      swap2\n      swap1\n      pop\n      jump\t// out\n        /* \"#utility.yul\":19028:19309   */\n    tag_383:\n        /* \"#utility.yul\":19111:19138   */\n      tag_431\n        /* \"#utility.yul\":19133:19137   */\n      dup3\n        /* \"#utility.yul\":19111:19138   */\n      tag_302\n      jump\t// in\n    tag_431:\n        /* \"#utility.yul\":19103:19109   */\n      dup2\n        /* \"#utility.yul\":19099:19139   */\n      add\n        /* \"#utility.yul\":19241:19247   */\n      dup2\n        /* \"#utility.yul\":19229:19239   */\n      dup2\n        /* \"#utility.yul\":19226:19248   */\n      lt\n        /* \"#utility.yul\":19205:19223   */\n      0xffffffffffffffff\n        /* \"#utility.yul\":19193:19203   */\n      dup3\n        /* \"#utility.yul\":19190:19224   */\n      gt\n        /* \"#utility.yul\":19187:19249   */\n      or\n        /* \"#utility.yul\":19184:19272   */\n      iszero\n      tag_432\n      jumpi\n        /* \"#utility.yul\":19252:19270   */\n      tag_433\n      tag_388\n      jump\t// in\n    tag_433:\n        /* \"#utility.yul\":19184:19272   */\n    tag_432:\n        /* \"#utility.yul\":19292:19302   */\n      dup1\n        /* \"#utility.yul\":19288:19290   */\n      0x40\n        /* \"#utility.yul\":19281:19303   */\n      mstore\n        /* \"#utility.yul\":19071:19309   */\n      pop\n        /* \"#utility.yul\":19028:19309   */\n      pop\n      pop\n      jump\t// out\n        /* \"#utility.yul\":19315:19495   */\n    tag_398:\n        /* \"#utility.yul\":19363:19440   */\n      0x4e487b7100000000000000000000000000000000000000000000000000000000\n        /* \"#utility.yul\":19360:19361   */\n      0x00\n        /* \"#utility.yul\":19353:19441   */\n      mstore\n        /* \"#utility.yul\":19460:19464   */\n      0x11\n        /* \"#utility.yul\":19457:19458   */\n      0x04\n        /* \"#utility.yul\":19450:19465   */\n      mstore\n        /* \"#utility.yul\":19484:19488   */\n      0x24\n        /* \"#utility.yul\":19481:19482   */\n      0x00\n        /* \"#utility.yul\":19474:19489   */\n      revert\n        /* \"#utility.yul\":19501:19681   */\n    tag_429:\n        /* \"#utility.yul\":19549:19626   */\n      0x4e487b7100000000000000000000000000000000000000000000000000000000\n        /* \"#utility.yul\":19546:19547   */\n      0x00\n        /* \"#utility.yul\":19539:19627   */\n      mstore\n        /* \"#utility.yul\":19646:19650   */\n      0x22\n        /* \"#utility.yul\":19643:19644   */\n      0x04\n        /* \"#utility.yul\":19636:19651   */\n      mstore\n        /* \"#utility.yul\":19670:19674   */\n      0x24\n        /* \"#utility.yul\":19667:19668   */\n      0x00\n        /* \"#utility.yul\":19660:19675   */\n      revert\n        /* \"#utility.yul\":19687:19867   */\n    tag_388:\n        /* \"#utility.yul\":19735:19812   */\n      0x4e487b7100000000000000000000000000000000000000000000000000000000\n        /* \"#utility.yul\":19732:19733   */\n      0x00\n        /* \"#utility.yul\":19725:19813   */\n      mstore\n        /* \"#utility.yul\":19832:19836   */\n      0x41\n        /* \"#utility.yul\":19829:19830   */\n      0x04\n        /* \"#utility.yul\":19822:19837   */\n      mstore\n        /* \"#utility.yul\":19856:19860   */\n      0x24\n        /* \"#utility.yul\":19853:19854   */\n      0x00\n        /* \"#utility.yul\":19846:19861   */\n      revert\n        /* \"#utility.yul\":19873:19990   */\n    tag_216:\n        /* \"#utility.yul\":19982:19983   */\n      0x00\n        /* \"#utility.yul\":19979:19980   */\n      dup1\n        /* \"#utility.yul\":19972:19984   */\n      revert\n        /* \"#utility.yul\":19996:20113   */\n    tag_194:\n        /* \"#utility.yul\":20105:20106   */\n      0x00\n        /* \"#utility.yul\":20102:20103   */\n      dup1\n        /* \"#utility.yul\":20095:20107   */\n      revert\n        /* \"#utility.yul\":20119:20236   */\n    tag_234:\n        /* \"#utility.yul\":20228:20229   */\n      0x00\n        /* \"#utility.yul\":20225:20226   */\n      dup1\n        /* \"#utility.yul\":20218:20230   */\n      revert\n        /* \"#utility.yul\":20242:20359   */\n    tag_225:\n        /* \"#utility.yul\":20351:20352   */\n      0x00\n        /* \"#utility.yul\":20348:20349   */\n      dup1\n        /* \"#utility.yul\":20341:20353   */\n      revert\n        /* \"#utility.yul\":20365:20467   */\n    tag_302:\n        /* \"#utility.yul\":20406:20412   */\n      0x00\n        /* \"#utility.yul\":20457:20459   */\n      0x1f\n        /* \"#utility.yul\":20453:20460   */\n      not\n        /* \"#utility.yul\":20448:20450   */\n      0x1f\n        /* \"#utility.yul\":20441:20446   */\n      dup4\n        /* \"#utility.yul\":20437:20451   */\n      add\n        /* \"#utility.yul\":20433:20461   */\n      and\n        /* \"#utility.yul\":20423:20461   */\n      swap1\n      pop\n        /* \"#utility.yul\":20365:20467   */\n      swap2\n      swap1\n      pop\n      jump\t// out\n        /* \"#utility.yul\":20473:20698   */\n    tag_313:\n        /* \"#utility.yul\":20613:20647   */\n      0x4f776e61626c653a206e6577206f776e657220697320746865207a65726f2061\n        /* \"#utility.yul\":20609:20610   */\n      0x00\n        /* \"#utility.yul\":20601:20607   */\n      dup3\n        /* \"#utility.yul\":20597:20611   */\n      add\n        /* \"#utility.yul\":20590:20648   */\n      mstore\n        /* \"#utility.yul\":20682:20690   */\n      0x6464726573730000000000000000000000000000000000000000000000000000\n        /* \"#utility.yul\":20677:20679   */\n      0x20\n        /* \"#utility.yul\":20669:20675   */\n      dup3\n        /* \"#utility.yul\":20665:20680   */\n      add\n        /* \"#utility.yul\":20658:20691   */\n      mstore\n        /* \"#utility.yul\":20473:20698   */\n      pop\n      jump\t// out\n        /* \"#utility.yul\":20704:20886   */\n    tag_318:\n        /* \"#utility.yul\":20844:20878   */\n      0x4f776e61626c653a2063616c6c6572206973206e6f7420746865206f776e6572\n        /* \"#utility.yul\":20840:20841   */\n      0x00\n        /* \"#utility.yul\":20832:20838   */\n      dup3\n        /* \"#utility.yul\":20828:20842   */\n      add\n        /* \"#utility.yul\":20821:20879   */\n      mstore\n        /* \"#utility.yul\":20704:20886   */\n      pop\n      jump\t// out\n        /* \"#utility.yul\":20892:21064   */\n    tag_323:\n        /* \"#utility.yul\":21032:21056   */\n      0x416d6f756e7420457863656564732042616c616e636500000000000000000000\n        /* \"#utility.yul\":21028:21029   */\n      0x00\n        /* \"#utility.yul\":21020:21026   */\n      dup3\n        /* \"#utility.yul\":21016:21030   */\n      add\n        /* \"#utility.yul\":21009:21057   */\n      mstore\n        /* \"#utility.yul\":20892:21064   */\n      pop\n      jump\t// out\n        /* \"#utility.yul\":21070:21248   */\n    tag_328:\n        /* \"#utility.yul\":21210:21240   */\n      0x416d6f756e74204578636565647320546f74616c2042616c616e636500000000\n        /* \"#utility.yul\":21206:21207   */\n      0x00\n        /* \"#utility.yul\":21198:21204   */\n      dup3\n        /* \"#utility.yul\":21194:21208   */\n      add\n        /* \"#utility.yul\":21187:21241   */\n      mstore\n        /* \"#utility.yul\":21070:21248   */\n      pop\n      jump\t// out\n        /* \"#utility.yul\":21254:21424   */\n    tag_333:\n        /* \"#utility.yul\":21394:21416   */\n      0x5261772044617461206e6f742073746f72656421000000000000000000000000\n        /* \"#utility.yul\":21390:21391   */\n      0x00\n        /* \"#utility.yul\":21382:21388   */\n      dup3\n        /* \"#utility.yul\":21378:21392   */\n      add\n        /* \"#utility.yul\":21371:21417   */\n      mstore\n        /* \"#utility.yul\":21254:21424   */\n      pop\n      jump\t// out\n        /* \"#utility.yul\":21430:21608   */\n    tag_338:\n        /* \"#utility.yul\":21570:21600   */\n      0x56616c7565206d7573742062652067726561746f72207468616e203000000000\n        /* \"#utility.yul\":21566:21567   */\n      0x00\n        /* \"#utility.yul\":21558:21564   */\n      dup3\n        /* \"#utility.yul\":21554:21568   */\n      add\n        /* \"#utility.yul\":21547:21601   */\n      mstore\n        /* \"#utility.yul\":21430:21608   */\n      pop\n      jump\t// out\n        /* \"#utility.yul\":21614:21736   */\n    tag_200:\n        /* \"#utility.yul\":21687:21711   */\n      tag_449\n        /* \"#utility.yul\":21705:21710   */\n      dup2\n        /* \"#utility.yul\":21687:21711   */\n      tag_280\n      jump\t// in\n    tag_449:\n        /* \"#utility.yul\":21680:21685   */\n      dup2\n        /* \"#utility.yul\":21677:21712   */\n      eq\n        /* \"#utility.yul\":21667:21730   */\n      tag_450\n      jumpi\n        /* \"#utility.yul\":21726:21727   */\n      0x00\n        /* \"#utility.yul\":21723:21724   */\n      dup1\n        /* \"#utility.yul\":21716:21728   */\n      revert\n        /* \"#utility.yul\":21667:21730   */\n    tag_450:\n        /* \"#utility.yul\":21614:21736   */\n      pop\n      jump\t// out\n        /* \"#utility.yul\":21742:21858   */\n    tag_204:\n        /* \"#utility.yul\":21812:21833   */\n      tag_452\n        /* \"#utility.yul\":21827:21832   */\n      dup2\n        /* \"#utility.yul\":21812:21833   */\n      tag_284\n      jump\t// in\n    tag_452:\n        /* \"#utility.yul\":21805:21810   */\n      dup2\n        /* \"#utility.yul\":21802:21834   */\n      eq\n        /* \"#utility.yul\":21792:21852   */\n      tag_453\n      jumpi\n        /* \"#utility.yul\":21848:21849   */\n      0x00\n        /* \"#utility.yul\":21845:21846   */\n      dup1\n        /* \"#utility.yul\":21838:21850   */\n      revert\n        /* \"#utility.yul\":21792:21852   */\n    tag_453:\n        /* \"#utility.yul\":21742:21858   */\n      pop\n      jump\t// out\n        /* \"#utility.yul\":21864:21986   */\n    tag_211:\n        /* \"#utility.yul\":21937:21961   */\n      tag_455\n        /* \"#utility.yul\":21955:21960   */\n      dup2\n        /* \"#utility.yul\":21937:21961   */\n      tag_288\n      jump\t// in\n    tag_455:\n        /* \"#utility.yul\":21930:21935   */\n      dup2\n        /* \"#utility.yul\":21927:21962   */\n      eq\n        /* \"#utility.yul\":21917:21980   */\n      tag_456\n      jumpi\n        /* \"#utility.yul\":21976:21977   */\n      0x00\n        /* \"#utility.yul\":21973:21974   */\n      dup1\n        /* \"#utility.yul\":21966:21978   */\n      revert\n        /* \"#utility.yul\":21917:21980   */\n    tag_456:\n        /* \"#utility.yul\":21864:21986   */\n      pop\n      jump\t// out\n        /* \"#utility.yul\":21992:22114   */\n    tag_221:\n        /* \"#utility.yul\":22065:22089   */\n      tag_458\n        /* \"#utility.yul\":22083:22088   */\n      dup2\n        /* \"#utility.yul\":22065:22089   */\n      tag_342\n      jump\t// in\n    tag_458:\n        /* \"#utility.yul\":22058:22063   */\n      dup2\n        /* \"#utility.yul\":22055:22090   */\n      eq\n        /* \"#utility.yul\":22045:22108   */\n      tag_459\n      jumpi\n        /* \"#utility.yul\":22104:22105   */\n      0x00\n        /* \"#utility.yul\":22101:22102   */\n      dup1\n        /* \"#utility.yul\":22094:22106   */\n      revert\n        /* \"#utility.yul\":22045:22108   */\n    tag_459:\n        /* \"#utility.yul\":21992:22114   */\n      pop\n      jump\t// out\n\n    auxdata: 0xa264697066735822122030112bf0a5da7808fe2bb32f850e96c27944081dfb0a7b061ea53f05c8a910b664736f6c63430008070033\n}\n",
				"bytecode": {
					"linkReferences": {},
					"object": "60806040523480156200001157600080fd5b506040516200209738038062002097833981810160405281019062000037919062000182565b620000576200004b6200009f60201b60201c565b620000a760201b60201c565b80600560006101000a81548173ffffffffffffffffffffffffffffffffffffffff021916908373ffffffffffffffffffffffffffffffffffffffff1602179055505062000207565b600033905090565b60008060009054906101000a900473ffffffffffffffffffffffffffffffffffffffff169050816000806101000a81548173ffffffffffffffffffffffffffffffffffffffff021916908373ffffffffffffffffffffffffffffffffffffffff1602179055508173ffffffffffffffffffffffffffffffffffffffff168173ffffffffffffffffffffffffffffffffffffffff167f8be0079c531659141344cd1fd0a4f28419497f9722a3daafe3b4186f6b6457e060405160405180910390a35050565b6000815190506200017c81620001ed565b92915050565b6000602082840312156200019b576200019a620001e8565b5b6000620001ab848285016200016b565b91505092915050565b6000620001c182620001c8565b9050919050565b600073ffffffffffffffffffffffffffffffffffffffff82169050919050565b600080fd5b620001f881620001b4565b81146200020457600080fd5b50565b611e8080620002176000396000f3fe608060405234801561001057600080fd5b50600436106100ea5760003560e01c80639cc6f67d1161008c578063e2f2c1a511610066578063e2f2c1a51461024c578063e6d568461461027c578063f2fde38b146102ac578063fc0c546a146102c8576100ea565b80639cc6f67d146101bb578063bf85f3ed146101eb578063de7f6b9e1461021c576100ea565b80637c360c94116100c85780637c360c9414610147578063848c3c5a146101635780638da5cb5b1461018157806394728f571461019f576100ea565b80630c3a9008146100ef5780634f60550414610121578063715018a61461013d575b600080fd5b61010960048036038101906101049190611382565b6102e6565b6040516101189392919061186d565b60405180910390f35b61013b6004803603810190610136919061144e565b61033d565b005b610145610428565b005b610161600480360381019061015c9190611588565b61043c565b005b61016b610915565b60405161017891906117f2565b60405180910390f35b61018961091d565b60405161019691906117f2565b60405180910390f35b6101b960048036038101906101b49190611588565b610946565b005b6101d560048036038101906101d091906113af565b610d06565b6040516101e291906119d1565b60405180910390f35b610205600480360381019061020091906114a1565b610d71565b6040516102139291906118e1565b60405180910390f35b610236600480360381019061023191906114fd565b610e40565b60405161024391906119d1565b60405180910390f35b610266600480360381019061026191906114a1565b610e9e565b60405161027391906118bf565b60405180910390f35b610296600480360381019061029191906114fd565b610f8f565b6040516102a391906119d1565b60405180910390f35b6102c660048036038101906102c19190611382565b611012565b005b6102d0611096565b6040516102dd91906118a4565b60405180910390f35b60046020528060005260406000206000915090508060000154908060010160009054906101000a900460ff16908060010160019054906101000a900473ffffffffffffffffffffffffffffffffffffffff16905083565b604051806060016040528083815260200182151581526020013373ffffffffffffffffffffffffffffffffffffffff16815250600460008573ffffffffffffffffffffffffffffffffffffffff1673ffffffffffffffffffffffffffffffffffffffff1681526020019081526020016000206000820151816000015560208201518160010160006101000a81548160ff02191690831515021790555060408201518160010160016101000a81548173ffffffffffffffffffffffffffffffffffffffff021916908373ffffffffffffffffffffffffffffffffffffffff160217905550905050505050565b6104306110bc565b61043a600061113a565b565b60011515600460008673ffffffffffffffffffffffffffffffffffffffff1673ffffffffffffffffffffffffffffffffffffffff16815260200190815260200160002060010160009054906101000a900460ff161515146104d2576040517f08c379a00000000000000000000000000000000000000000000000000000000081526004016104c990611991565b60405180910390fd5b60008111610515576040517f08c379a000000000000000000000000000000000000000000000000000000000815260040161050c906119b1565b60405180910390fd5b600560009054906101000a900473ffffffffffffffffffffffffffffffffffffffff1673ffffffffffffffffffffffffffffffffffffffff166323b872dd3330846040518463ffffffff1660e01b81526004016105749392919061180d565b602060405180830381600087803b15801561058e57600080fd5b505af11580156105a2573d6000803e3d6000fd5b505050506040513d601f19601f820116820180604052508101906105c69190611627565b5080600160008673ffffffffffffffffffffffffffffffffffffffff1673ffffffffffffffffffffffffffffffffffffffff1681526020019081526020016000208460405161061591906117db565b90815260200160405180910390208360405161063191906117db565b9081526020016040518091039020600082825461064e9190611a69565b9250508190555080600260003373ffffffffffffffffffffffffffffffffffffffff1673ffffffffffffffffffffffffffffffffffffffff16815260200190815260200160002060008673ffffffffffffffffffffffffffffffffffffffff1673ffffffffffffffffffffffffffffffffffffffff168152602001908152602001600020846040516106e091906117db565b9081526020016040518091039020836040516106fc91906117db565b908152602001604051809103902060008282546107199190611a69565b92505081905550600160008573ffffffffffffffffffffffffffffffffffffffff1673ffffffffffffffffffffffffffffffffffffffff1681526020019081526020016000208360405161076d91906117db565b90815260200160405180910390208260405161078991906117db565b908152602001604051809103902054600360008673ffffffffffffffffffffffffffffffffffffffff1673ffffffffffffffffffffffffffffffffffffffff168152602001908152602001600020846040516107e591906117db565b908152602001604051809103902060010154111561090f576040518060400160405280838152602001600160008773ffffffffffffffffffffffffffffffffffffffff1673ffffffffffffffffffffffffffffffffffffffff1681526020019081526020016000208560405161085b91906117db565b90815260200160405180910390208460405161087791906117db565b908152602001604051809103902054815250600360008673ffffffffffffffffffffffffffffffffffffffff1673ffffffffffffffffffffffffffffffffffffffff168152602001908152602001600020846040516108d691906117db565b90815260200160405180910390206000820151816000019080519060200190610900929190611206565b50602082015181600101559050505b50505050565b600030905090565b60008060009054906101000a900473ffffffffffffffffffffffffffffffffffffffff16905090565b80600260003373ffffffffffffffffffffffffffffffffffffffff1673ffffffffffffffffffffffffffffffffffffffff16815260200190815260200160002060008673ffffffffffffffffffffffffffffffffffffffff1673ffffffffffffffffffffffffffffffffffffffff168152602001908152602001600020846040516109d191906117db565b9081526020016040518091039020836040516109ed91906117db565b9081526020016040518091039020541015610a3d576040517f08c379a0000000000000000000000000000000000000000000000000000000008152600401610a3490611951565b60405180910390fd5b80600160008673ffffffffffffffffffffffffffffffffffffffff1673ffffffffffffffffffffffffffffffffffffffff16815260200190815260200160002084604051610a8b91906117db565b908152602001604051809103902083604051610aa791906117db565b9081526020016040518091039020541015610af7576040517f08c379a0000000000000000000000000000000000000000000000000000000008152600401610aee90611971565b60405180910390fd5b600560009054906101000a900473ffffffffffffffffffffffffffffffffffffffff1673ffffffffffffffffffffffffffffffffffffffff1663a9059cbb33836040518363ffffffff1660e01b8152600401610b54929190611844565b602060405180830381600087803b158015610b6e57600080fd5b505af1158015610b82573d6000803e3d6000fd5b505050506040513d601f19601f82011682018060405250810190610ba69190611627565b5080600160008673ffffffffffffffffffffffffffffffffffffffff1673ffffffffffffffffffffffffffffffffffffffff16815260200190815260200160002084604051610bf591906117db565b908152602001604051809103902083604051610c1191906117db565b90815260200160405180910390206000828254610c2e9190611abf565b9250508190555080600260003373ffffffffffffffffffffffffffffffffffffffff1673ffffffffffffffffffffffffffffffffffffffff16815260200190815260200160002060008673ffffffffffffffffffffffffffffffffffffffff1673ffffffffffffffffffffffffffffffffffffffff16815260200190815260200160002084604051610cc091906117db565b908152602001604051809103902083604051610cdc91906117db565b90815260200160405180910390206000828254610cf99190611abf565b9250508190555050505050565b600260205283600052604060002060205282600052604060002082805160208101820180518482526020830160208501208183528095505050505050818051602081018201805184825260208301602085012081835280955050505050506000935093505050505481565b60036020528160005260406000208180516020810182018051848252602083016020850120818352809550505050505060009150915050806000018054610db790611bbd565b80601f0160208091040260200160405190810160405280929190818152602001828054610de390611bbd565b8015610e305780601f10610e0557610100808354040283529160200191610e30565b820191906000526020600020905b815481529060010190602001808311610e1357829003601f168201915b5050505050908060010154905082565b6001602052826000526040600020828051602081018201805184825260208301602085012081835280955050505050508180516020810182018051848252602083016020850120818352809550505050505060009250925050505481565b6060600360008473ffffffffffffffffffffffffffffffffffffffff1673ffffffffffffffffffffffffffffffffffffffff16815260200190815260200160002082604051610eed91906117db565b90815260200160405180910390206000018054610f0990611bbd565b80601f0160208091040260200160405190810160405280929190818152602001828054610f3590611bbd565b8015610f825780601f10610f5757610100808354040283529160200191610f82565b820191906000526020600020905b815481529060010190602001808311610f6557829003601f168201915b5050505050905092915050565b6000600160008573ffffffffffffffffffffffffffffffffffffffff1673ffffffffffffffffffffffffffffffffffffffff16815260200190815260200160002083604051610fde91906117db565b908152602001604051809103902082604051610ffa91906117db565b90815260200160405180910390205490509392505050565b61101a6110bc565b600073ffffffffffffffffffffffffffffffffffffffff168173ffffffffffffffffffffffffffffffffffffffff16141561108a576040517f08c379a000000000000000000000000000000000000000000000000000000000815260040161108190611911565b60405180910390fd5b6110938161113a565b50565b600560009054906101000a900473ffffffffffffffffffffffffffffffffffffffff1681565b6110c46111fe565b73ffffffffffffffffffffffffffffffffffffffff166110e261091d565b73ffffffffffffffffffffffffffffffffffffffff1614611138576040517f08c379a000000000000000000000000000000000000000000000000000000000815260040161112f90611931565b60405180910390fd5b565b60008060009054906101000a900473ffffffffffffffffffffffffffffffffffffffff169050816000806101000a81548173ffffffffffffffffffffffffffffffffffffffff021916908373ffffffffffffffffffffffffffffffffffffffff1602179055508173ffffffffffffffffffffffffffffffffffffffff168173ffffffffffffffffffffffffffffffffffffffff167f8be0079c531659141344cd1fd0a4f28419497f9722a3daafe3b4186f6b6457e060405160405180910390a35050565b600033905090565b82805461121290611bbd565b90600052602060002090601f016020900481019282611234576000855561127b565b82601f1061124d57805160ff191683800117855561127b565b8280016001018555821561127b579182015b8281111561127a57825182559160200191906001019061125f565b5b509050611288919061128c565b5090565b5b808211156112a557600081600090555060010161128d565b5090565b60006112bc6112b784611a11565b6119ec565b9050828152602081018484840111156112d8576112d7611cb2565b5b6112e3848285611b7b565b509392505050565b6000813590506112fa81611dee565b92915050565b60008135905061130f81611e05565b92915050565b60008151905061132481611e05565b92915050565b60008135905061133981611e1c565b92915050565b600082601f83011261135457611353611cad565b5b81356113648482602086016112a9565b91505092915050565b60008135905061137c81611e33565b92915050565b60006020828403121561139857611397611cbc565b5b60006113a6848285016112eb565b91505092915050565b600080600080608085870312156113c9576113c8611cbc565b5b60006113d7878288016112eb565b94505060206113e8878288016112eb565b935050604085013567ffffffffffffffff81111561140957611408611cb7565b5b6114158782880161133f565b925050606085013567ffffffffffffffff81111561143657611435611cb7565b5b6114428782880161133f565b91505092959194509250565b60008060006060848603121561146757611466611cbc565b5b6000611475868287016112eb565b93505060206114868682870161132a565b925050604061149786828701611300565b9150509250925092565b600080604083850312156114b8576114b7611cbc565b5b60006114c6858286016112eb565b925050602083013567ffffffffffffffff8111156114e7576114e6611cb7565b5b6114f38582860161133f565b9150509250929050565b60008060006060848603121561151657611515611cbc565b5b6000611524868287016112eb565b935050602084013567ffffffffffffffff81111561154557611544611cb7565b5b6115518682870161133f565b925050604084013567ffffffffffffffff81111561157257611571611cb7565b5b61157e8682870161133f565b9150509250925092565b600080600080608085870312156115a2576115a1611cbc565b5b60006115b0878288016112eb565b945050602085013567ffffffffffffffff8111156115d1576115d0611cb7565b5b6115dd8782880161133f565b935050604085013567ffffffffffffffff8111156115fe576115fd611cb7565b5b61160a8782880161133f565b925050606061161b8782880161136d565b91505092959194509250565b60006020828403121561163d5761163c611cbc565b5b600061164b84828501611315565b91505092915050565b61165d81611af3565b82525050565b61166c81611b05565b82525050565b61167b81611b11565b82525050565b61168a81611b45565b82525050565b600061169b82611a42565b6116a58185611a4d565b93506116b5818560208601611b8a565b6116be81611cc1565b840191505092915050565b60006116d482611a42565b6116de8185611a5e565b93506116ee818560208601611b8a565b80840191505092915050565b6000611707602683611a4d565b915061171282611cd2565b604082019050919050565b600061172a602083611a4d565b915061173582611d21565b602082019050919050565b600061174d601683611a4d565b915061175882611d4a565b602082019050919050565b6000611770601c83611a4d565b915061177b82611d73565b602082019050919050565b6000611793601483611a4d565b915061179e82611d9c565b602082019050919050565b60006117b6601c83611a4d565b91506117c182611dc5565b602082019050919050565b6117d581611b3b565b82525050565b60006117e782846116c9565b915081905092915050565b60006020820190506118076000830184611654565b92915050565b60006060820190506118226000830186611654565b61182f6020830185611654565b61183c60408301846117cc565b949350505050565b60006040820190506118596000830185611654565b61186660208301846117cc565b9392505050565b60006060820190506118826000830186611672565b61188f6020830185611663565b61189c6040830184611654565b949350505050565b60006020820190506118b96000830184611681565b92915050565b600060208201905081810360008301526118d98184611690565b905092915050565b600060408201905081810360008301526118fb8185611690565b905061190a60208301846117cc565b9392505050565b6000602082019050818103600083015261192a816116fa565b9050919050565b6000602082019050818103600083015261194a8161171d565b9050919050565b6000602082019050818103600083015261196a81611740565b9050919050565b6000602082019050818103600083015261198a81611763565b9050919050565b600060208201905081810360008301526119aa81611786565b9050919050565b600060208201905081810360008301526119ca816117a9565b9050919050565b60006020820190506119e660008301846117cc565b92915050565b60006119f6611a07565b9050611a028282611bef565b919050565b6000604051905090565b600067ffffffffffffffff821115611a2c57611a2b611c7e565b5b611a3582611cc1565b9050602081019050919050565b600081519050919050565b600082825260208201905092915050565b600081905092915050565b6000611a7482611b3b565b9150611a7f83611b3b565b9250827fffffffffffffffffffffffffffffffffffffffffffffffffffffffffffffffff03821115611ab457611ab3611c20565b5b828201905092915050565b6000611aca82611b3b565b9150611ad583611b3b565b925082821015611ae857611ae7611c20565b5b828203905092915050565b6000611afe82611b1b565b9050919050565b60008115159050919050565b6000819050919050565b600073ffffffffffffffffffffffffffffffffffffffff82169050919050565b6000819050919050565b6000611b5082611b57565b9050919050565b6000611b6282611b69565b9050919050565b6000611b7482611b1b565b9050919050565b82818337600083830152505050565b60005b83811015611ba8578082015181840152602081019050611b8d565b83811115611bb7576000848401525b50505050565b60006002820490506001821680611bd557607f821691505b60208210811415611be957611be8611c4f565b5b50919050565b611bf882611cc1565b810181811067ffffffffffffffff82111715611c1757611c16611c7e565b5b80604052505050565b7f4e487b7100000000000000000000000000000000000000000000000000000000600052601160045260246000fd5b7f4e487b7100000000000000000000000000000000000000000000000000000000600052602260045260246000fd5b7f4e487b7100000000000000000000000000000000000000000000000000000000600052604160045260246000fd5b600080fd5b600080fd5b600080fd5b600080fd5b6000601f19601f8301169050919050565b7f4f776e61626c653a206e6577206f776e657220697320746865207a65726f206160008201527f6464726573730000000000000000000000000000000000000000000000000000602082015250565b7f4f776e61626c653a2063616c6c6572206973206e6f7420746865206f776e6572600082015250565b7f416d6f756e7420457863656564732042616c616e636500000000000000000000600082015250565b7f416d6f756e74204578636565647320546f74616c2042616c616e636500000000600082015250565b7f5261772044617461206e6f742073746f72656421000000000000000000000000600082015250565b7f56616c7565206d7573742062652067726561746f72207468616e203000000000600082015250565b611df781611af3565b8114611e0257600080fd5b50565b611e0e81611b05565b8114611e1957600080fd5b50565b611e2581611b11565b8114611e3057600080fd5b50565b611e3c81611b3b565b8114611e4757600080fd5b5056fea264697066735822122030112bf0a5da7808fe2bb32f850e96c27944081dfb0a7b061ea53f05c8a910b664736f6c63430008070033",
					"opcodes": "PUSH1 0x80 PUSH1 0x40 MSTORE CALLVALUE DUP1 ISZERO PUSH3 0x11 JUMPI PUSH1 0x0 DUP1 REVERT JUMPDEST POP PUSH1 0x40 MLOAD PUSH3 0x2097 CODESIZE SUB DUP1 PUSH3 0x2097 DUP4 CODECOPY DUP2 DUP2 ADD PUSH1 0x40 MSTORE DUP2 ADD SWAP1 PUSH3 0x37 SWAP2 SWAP1 PUSH3 0x182 JUMP JUMPDEST PUSH3 0x57 PUSH3 0x4B PUSH3 0x9F PUSH1 0x20 SHL PUSH1 0x20 SHR JUMP JUMPDEST PUSH3 0xA7 PUSH1 0x20 SHL PUSH1 0x20 SHR JUMP JUMPDEST DUP1 PUSH1 0x5 PUSH1 0x0 PUSH2 0x100 EXP DUP2 SLOAD DUP2 PUSH20 0xFFFFFFFFFFFFFFFFFFFFFFFFFFFFFFFFFFFFFFFF MUL NOT AND SWAP1 DUP4 PUSH20 0xFFFFFFFFFFFFFFFFFFFFFFFFFFFFFFFFFFFFFFFF AND MUL OR SWAP1 SSTORE POP POP PUSH3 0x207 JUMP JUMPDEST PUSH1 0x0 CALLER SWAP1 POP SWAP1 JUMP JUMPDEST PUSH1 0x0 DUP1 PUSH1 0x0 SWAP1 SLOAD SWAP1 PUSH2 0x100 EXP SWAP1 DIV PUSH20 0xFFFFFFFFFFFFFFFFFFFFFFFFFFFFFFFFFFFFFFFF AND SWAP1 POP DUP2 PUSH1 0x0 DUP1 PUSH2 0x100 EXP DUP2 SLOAD DUP2 PUSH20 0xFFFFFFFFFFFFFFFFFFFFFFFFFFFFFFFFFFFFFFFF MUL NOT AND SWAP1 DUP4 PUSH20 0xFFFFFFFFFFFFFFFFFFFFFFFFFFFFFFFFFFFFFFFF AND MUL OR SWAP1 SSTORE POP DUP2 PUSH20 0xFFFFFFFFFFFFFFFFFFFFFFFFFFFFFFFFFFFFFFFF AND DUP2 PUSH20 0xFFFFFFFFFFFFFFFFFFFFFFFFFFFFFFFFFFFFFFFF AND PUSH32 0x8BE0079C531659141344CD1FD0A4F28419497F9722A3DAAFE3B4186F6B6457E0 PUSH1 0x40 MLOAD PUSH1 0x40 MLOAD DUP1 SWAP2 SUB SWAP1 LOG3 POP POP JUMP JUMPDEST PUSH1 0x0 DUP2 MLOAD SWAP1 POP PUSH3 0x17C DUP2 PUSH3 0x1ED JUMP JUMPDEST SWAP3 SWAP2 POP POP JUMP JUMPDEST PUSH1 0x0 PUSH1 0x20 DUP3 DUP5 SUB SLT ISZERO PUSH3 0x19B JUMPI PUSH3 0x19A PUSH3 0x1E8 JUMP JUMPDEST JUMPDEST PUSH1 0x0 PUSH3 0x1AB DUP5 DUP3 DUP6 ADD PUSH3 0x16B JUMP JUMPDEST SWAP2 POP POP SWAP3 SWAP2 POP POP JUMP JUMPDEST PUSH1 0x0 PUSH3 0x1C1 DUP3 PUSH3 0x1C8 JUMP JUMPDEST SWAP1 POP SWAP2 SWAP1 POP JUMP JUMPDEST PUSH1 0x0 PUSH20 0xFFFFFFFFFFFFFFFFFFFFFFFFFFFFFFFFFFFFFFFF DUP3 AND SWAP1 POP SWAP2 SWAP1 POP JUMP JUMPDEST PUSH1 0x0 DUP1 REVERT JUMPDEST PUSH3 0x1F8 DUP2 PUSH3 0x1B4 JUMP JUMPDEST DUP2 EQ PUSH3 0x204 JUMPI PUSH1 0x0 DUP1 REVERT JUMPDEST POP JUMP JUMPDEST PUSH2 0x1E80 DUP1 PUSH3 0x217 PUSH1 0x0 CODECOPY PUSH1 0x0 RETURN INVALID PUSH1 0x80 PUSH1 0x40 MSTORE CALLVALUE DUP1 ISZERO PUSH2 0x10 JUMPI PUSH1 0x0 DUP1 REVERT JUMPDEST POP PUSH1 0x4 CALLDATASIZE LT PUSH2 0xEA JUMPI PUSH1 0x0 CALLDATALOAD PUSH1 0xE0 SHR DUP1 PUSH4 0x9CC6F67D GT PUSH2 0x8C JUMPI DUP1 PUSH4 0xE2F2C1A5 GT PUSH2 0x66 JUMPI DUP1 PUSH4 0xE2F2C1A5 EQ PUSH2 0x24C JUMPI DUP1 PUSH4 0xE6D56846 EQ PUSH2 0x27C JUMPI DUP1 PUSH4 0xF2FDE38B EQ PUSH2 0x2AC JUMPI DUP1 PUSH4 0xFC0C546A EQ PUSH2 0x2C8 JUMPI PUSH2 0xEA JUMP JUMPDEST DUP1 PUSH4 0x9CC6F67D EQ PUSH2 0x1BB JUMPI DUP1 PUSH4 0xBF85F3ED EQ PUSH2 0x1EB JUMPI DUP1 PUSH4 0xDE7F6B9E EQ PUSH2 0x21C JUMPI PUSH2 0xEA JUMP JUMPDEST DUP1 PUSH4 0x7C360C94 GT PUSH2 0xC8 JUMPI DUP1 PUSH4 0x7C360C94 EQ PUSH2 0x147 JUMPI DUP1 PUSH4 0x848C3C5A EQ PUSH2 0x163 JUMPI DUP1 PUSH4 0x8DA5CB5B EQ PUSH2 0x181 JUMPI DUP1 PUSH4 0x94728F57 EQ PUSH2 0x19F JUMPI PUSH2 0xEA JUMP JUMPDEST DUP1 PUSH4 0xC3A9008 EQ PUSH2 0xEF JUMPI DUP1 PUSH4 0x4F605504 EQ PUSH2 0x121 JUMPI DUP1 PUSH4 0x715018A6 EQ PUSH2 0x13D JUMPI JUMPDEST PUSH1 0x0 DUP1 REVERT JUMPDEST PUSH2 0x109 PUSH1 0x4 DUP1 CALLDATASIZE SUB DUP2 ADD SWAP1 PUSH2 0x104 SWAP2 SWAP1 PUSH2 0x1382 JUMP JUMPDEST PUSH2 0x2E6 JUMP JUMPDEST PUSH1 0x40 MLOAD PUSH2 0x118 SWAP4 SWAP3 SWAP2 SWAP1 PUSH2 0x186D JUMP JUMPDEST PUSH1 0x40 MLOAD DUP1 SWAP2 SUB SWAP1 RETURN JUMPDEST PUSH2 0x13B PUSH1 0x4 DUP1 CALLDATASIZE SUB DUP2 ADD SWAP1 PUSH2 0x136 SWAP2 SWAP1 PUSH2 0x144E JUMP JUMPDEST PUSH2 0x33D JUMP JUMPDEST STOP JUMPDEST PUSH2 0x145 PUSH2 0x428 JUMP JUMPDEST STOP JUMPDEST PUSH2 0x161 PUSH1 0x4 DUP1 CALLDATASIZE SUB DUP2 ADD SWAP1 PUSH2 0x15C SWAP2 SWAP1 PUSH2 0x1588 JUMP JUMPDEST PUSH2 0x43C JUMP JUMPDEST STOP JUMPDEST PUSH2 0x16B PUSH2 0x915 JUMP JUMPDEST PUSH1 0x40 MLOAD PUSH2 0x178 SWAP2 SWAP1 PUSH2 0x17F2 JUMP JUMPDEST PUSH1 0x40 MLOAD DUP1 SWAP2 SUB SWAP1 RETURN JUMPDEST PUSH2 0x189 PUSH2 0x91D JUMP JUMPDEST PUSH1 0x40 MLOAD PUSH2 0x196 SWAP2 SWAP1 PUSH2 0x17F2 JUMP JUMPDEST PUSH1 0x40 MLOAD DUP1 SWAP2 SUB SWAP1 RETURN JUMPDEST PUSH2 0x1B9 PUSH1 0x4 DUP1 CALLDATASIZE SUB DUP2 ADD SWAP1 PUSH2 0x1B4 SWAP2 SWAP1 PUSH2 0x1588 JUMP JUMPDEST PUSH2 0x946 JUMP JUMPDEST STOP JUMPDEST PUSH2 0x1D5 PUSH1 0x4 DUP1 CALLDATASIZE SUB DUP2 ADD SWAP1 PUSH2 0x1D0 SWAP2 SWAP1 PUSH2 0x13AF JUMP JUMPDEST PUSH2 0xD06 JUMP JUMPDEST PUSH1 0x40 MLOAD PUSH2 0x1E2 SWAP2 SWAP1 PUSH2 0x19D1 JUMP JUMPDEST PUSH1 0x40 MLOAD DUP1 SWAP2 SUB SWAP1 RETURN JUMPDEST PUSH2 0x205 PUSH1 0x4 DUP1 CALLDATASIZE SUB DUP2 ADD SWAP1 PUSH2 0x200 SWAP2 SWAP1 PUSH2 0x14A1 JUMP JUMPDEST PUSH2 0xD71 JUMP JUMPDEST PUSH1 0x40 MLOAD PUSH2 0x213 SWAP3 SWAP2 SWAP1 PUSH2 0x18E1 JUMP JUMPDEST PUSH1 0x40 MLOAD DUP1 SWAP2 SUB SWAP1 RETURN JUMPDEST PUSH2 0x236 PUSH1 0x4 DUP1 CALLDATASIZE SUB DUP2 ADD SWAP1 PUSH2 0x231 SWAP2 SWAP1 PUSH2 0x14FD JUMP JUMPDEST PUSH2 0xE40 JUMP JUMPDEST PUSH1 0x40 MLOAD PUSH2 0x243 SWAP2 SWAP1 PUSH2 0x19D1 JUMP JUMPDEST PUSH1 0x40 MLOAD DUP1 SWAP2 SUB SWAP1 RETURN JUMPDEST PUSH2 0x266 PUSH1 0x4 DUP1 CALLDATASIZE SUB DUP2 ADD SWAP1 PUSH2 0x261 SWAP2 SWAP1 PUSH2 0x14A1 JUMP JUMPDEST PUSH2 0xE9E JUMP JUMPDEST PUSH1 0x40 MLOAD PUSH2 0x273 SWAP2 SWAP1 PUSH2 0x18BF JUMP JUMPDEST PUSH1 0x40 MLOAD DUP1 SWAP2 SUB SWAP1 RETURN JUMPDEST PUSH2 0x296 PUSH1 0x4 DUP1 CALLDATASIZE SUB DUP2 ADD SWAP1 PUSH2 0x291 SWAP2 SWAP1 PUSH2 0x14FD JUMP JUMPDEST PUSH2 0xF8F JUMP JUMPDEST PUSH1 0x40 MLOAD PUSH2 0x2A3 SWAP2 SWAP1 PUSH2 0x19D1 JUMP JUMPDEST PUSH1 0x40 MLOAD DUP1 SWAP2 SUB SWAP1 RETURN JUMPDEST PUSH2 0x2C6 PUSH1 0x4 DUP1 CALLDATASIZE SUB DUP2 ADD SWAP1 PUSH2 0x2C1 SWAP2 SWAP1 PUSH2 0x1382 JUMP JUMPDEST PUSH2 0x1012 JUMP JUMPDEST STOP JUMPDEST PUSH2 0x2D0 PUSH2 0x1096 JUMP JUMPDEST PUSH1 0x40 MLOAD PUSH2 0x2DD SWAP2 SWAP1 PUSH2 0x18A4 JUMP JUMPDEST PUSH1 0x40 MLOAD DUP1 SWAP2 SUB SWAP1 RETURN JUMPDEST PUSH1 0x4 PUSH1 0x20 MSTORE DUP1 PUSH1 0x0 MSTORE PUSH1 0x40 PUSH1 0x0 KECCAK256 PUSH1 0x0 SWAP2 POP SWAP1 POP DUP1 PUSH1 0x0 ADD SLOAD SWAP1 DUP1 PUSH1 0x1 ADD PUSH1 0x0 SWAP1 SLOAD SWAP1 PUSH2 0x100 EXP SWAP1 DIV PUSH1 0xFF AND SWAP1 DUP1 PUSH1 0x1 ADD PUSH1 0x1 SWAP1 SLOAD SWAP1 PUSH2 0x100 EXP SWAP1 DIV PUSH20 0xFFFFFFFFFFFFFFFFFFFFFFFFFFFFFFFFFFFFFFFF AND SWAP1 POP DUP4 JUMP JUMPDEST PUSH1 0x40 MLOAD DUP1 PUSH1 0x60 ADD PUSH1 0x40 MSTORE DUP1 DUP4 DUP2 MSTORE PUSH1 0x20 ADD DUP3 ISZERO ISZERO DUP2 MSTORE PUSH1 0x20 ADD CALLER PUSH20 0xFFFFFFFFFFFFFFFFFFFFFFFFFFFFFFFFFFFFFFFF AND DUP2 MSTORE POP PUSH1 0x4 PUSH1 0x0 DUP6 PUSH20 0xFFFFFFFFFFFFFFFFFFFFFFFFFFFFFFFFFFFFFFFF AND PUSH20 0xFFFFFFFFFFFFFFFFFFFFFFFFFFFFFFFFFFFFFFFF AND DUP2 MSTORE PUSH1 0x20 ADD SWAP1 DUP2 MSTORE PUSH1 0x20 ADD PUSH1 0x0 KECCAK256 PUSH1 0x0 DUP3 ADD MLOAD DUP2 PUSH1 0x0 ADD SSTORE PUSH1 0x20 DUP3 ADD MLOAD DUP2 PUSH1 0x1 ADD PUSH1 0x0 PUSH2 0x100 EXP DUP2 SLOAD DUP2 PUSH1 0xFF MUL NOT AND SWAP1 DUP4 ISZERO ISZERO MUL OR SWAP1 SSTORE POP PUSH1 0x40 DUP3 ADD MLOAD DUP2 PUSH1 0x1 ADD PUSH1 0x1 PUSH2 0x100 EXP DUP2 SLOAD DUP2 PUSH20 0xFFFFFFFFFFFFFFFFFFFFFFFFFFFFFFFFFFFFFFFF MUL NOT AND SWAP1 DUP4 PUSH20 0xFFFFFFFFFFFFFFFFFFFFFFFFFFFFFFFFFFFFFFFF AND MUL OR SWAP1 SSTORE POP SWAP1 POP POP POP POP POP JUMP JUMPDEST PUSH2 0x430 PUSH2 0x10BC JUMP JUMPDEST PUSH2 0x43A PUSH1 0x0 PUSH2 0x113A JUMP JUMPDEST JUMP JUMPDEST PUSH1 0x1 ISZERO ISZERO PUSH1 0x4 PUSH1 0x0 DUP7 PUSH20 0xFFFFFFFFFFFFFFFFFFFFFFFFFFFFFFFFFFFFFFFF AND PUSH20 0xFFFFFFFFFFFFFFFFFFFFFFFFFFFFFFFFFFFFFFFF AND DUP2 MSTORE PUSH1 0x20 ADD SWAP1 DUP2 MSTORE PUSH1 0x20 ADD PUSH1 0x0 KECCAK256 PUSH1 0x1 ADD PUSH1 0x0 SWAP1 SLOAD SWAP1 PUSH2 0x100 EXP SWAP1 DIV PUSH1 0xFF AND ISZERO ISZERO EQ PUSH2 0x4D2 JUMPI PUSH1 0x40 MLOAD PUSH32 0x8C379A000000000000000000000000000000000000000000000000000000000 DUP2 MSTORE PUSH1 0x4 ADD PUSH2 0x4C9 SWAP1 PUSH2 0x1991 JUMP JUMPDEST PUSH1 0x40 MLOAD DUP1 SWAP2 SUB SWAP1 REVERT JUMPDEST PUSH1 0x0 DUP2 GT PUSH2 0x515 JUMPI PUSH1 0x40 MLOAD PUSH32 0x8C379A000000000000000000000000000000000000000000000000000000000 DUP2 MSTORE PUSH1 0x4 ADD PUSH2 0x50C SWAP1 PUSH2 0x19B1 JUMP JUMPDEST PUSH1 0x40 MLOAD DUP1 SWAP2 SUB SWAP1 REVERT JUMPDEST PUSH1 0x5 PUSH1 0x0 SWAP1 SLOAD SWAP1 PUSH2 0x100 EXP SWAP1 DIV PUSH20 0xFFFFFFFFFFFFFFFFFFFFFFFFFFFFFFFFFFFFFFFF AND PUSH20 0xFFFFFFFFFFFFFFFFFFFFFFFFFFFFFFFFFFFFFFFF AND PUSH4 0x23B872DD CALLER ADDRESS DUP5 PUSH1 0x40 MLOAD DUP5 PUSH4 0xFFFFFFFF AND PUSH1 0xE0 SHL DUP2 MSTORE PUSH1 0x4 ADD PUSH2 0x574 SWAP4 SWAP3 SWAP2 SWAP1 PUSH2 0x180D JUMP JUMPDEST PUSH1 0x20 PUSH1 0x40 MLOAD DUP1 DUP4 SUB DUP2 PUSH1 0x0 DUP8 DUP1 EXTCODESIZE ISZERO DUP1 ISZERO PUSH2 0x58E JUMPI PUSH1 0x0 DUP1 REVERT JUMPDEST POP GAS CALL ISZERO DUP1 ISZERO PUSH2 0x5A2 JUMPI RETURNDATASIZE PUSH1 0x0 DUP1 RETURNDATACOPY RETURNDATASIZE PUSH1 0x0 REVERT JUMPDEST POP POP POP POP PUSH1 0x40 MLOAD RETURNDATASIZE PUSH1 0x1F NOT PUSH1 0x1F DUP3 ADD AND DUP3 ADD DUP1 PUSH1 0x40 MSTORE POP DUP2 ADD SWAP1 PUSH2 0x5C6 SWAP2 SWAP1 PUSH2 0x1627 JUMP JUMPDEST POP DUP1 PUSH1 0x1 PUSH1 0x0 DUP7 PUSH20 0xFFFFFFFFFFFFFFFFFFFFFFFFFFFFFFFFFFFFFFFF AND PUSH20 0xFFFFFFFFFFFFFFFFFFFFFFFFFFFFFFFFFFFFFFFF AND DUP2 MSTORE PUSH1 0x20 ADD SWAP1 DUP2 MSTORE PUSH1 0x20 ADD PUSH1 0x0 KECCAK256 DUP5 PUSH1 0x40 MLOAD PUSH2 0x615 SWAP2 SWAP1 PUSH2 0x17DB JUMP JUMPDEST SWAP1 DUP2 MSTORE PUSH1 0x20 ADD PUSH1 0x40 MLOAD DUP1 SWAP2 SUB SWAP1 KECCAK256 DUP4 PUSH1 0x40 MLOAD PUSH2 0x631 SWAP2 SWAP1 PUSH2 0x17DB JUMP JUMPDEST SWAP1 DUP2 MSTORE PUSH1 0x20 ADD PUSH1 0x40 MLOAD DUP1 SWAP2 SUB SWAP1 KECCAK256 PUSH1 0x0 DUP3 DUP3 SLOAD PUSH2 0x64E SWAP2 SWAP1 PUSH2 0x1A69 JUMP JUMPDEST SWAP3 POP POP DUP2 SWAP1 SSTORE POP DUP1 PUSH1 0x2 PUSH1 0x0 CALLER PUSH20 0xFFFFFFFFFFFFFFFFFFFFFFFFFFFFFFFFFFFFFFFF AND PUSH20 0xFFFFFFFFFFFFFFFFFFFFFFFFFFFFFFFFFFFFFFFF AND DUP2 MSTORE PUSH1 0x20 ADD SWAP1 DUP2 MSTORE PUSH1 0x20 ADD PUSH1 0x0 KECCAK256 PUSH1 0x0 DUP7 PUSH20 0xFFFFFFFFFFFFFFFFFFFFFFFFFFFFFFFFFFFFFFFF AND PUSH20 0xFFFFFFFFFFFFFFFFFFFFFFFFFFFFFFFFFFFFFFFF AND DUP2 MSTORE PUSH1 0x20 ADD SWAP1 DUP2 MSTORE PUSH1 0x20 ADD PUSH1 0x0 KECCAK256 DUP5 PUSH1 0x40 MLOAD PUSH2 0x6E0 SWAP2 SWAP1 PUSH2 0x17DB JUMP JUMPDEST SWAP1 DUP2 MSTORE PUSH1 0x20 ADD PUSH1 0x40 MLOAD DUP1 SWAP2 SUB SWAP1 KECCAK256 DUP4 PUSH1 0x40 MLOAD PUSH2 0x6FC SWAP2 SWAP1 PUSH2 0x17DB JUMP JUMPDEST SWAP1 DUP2 MSTORE PUSH1 0x20 ADD PUSH1 0x40 MLOAD DUP1 SWAP2 SUB SWAP1 KECCAK256 PUSH1 0x0 DUP3 DUP3 SLOAD PUSH2 0x719 SWAP2 SWAP1 PUSH2 0x1A69 JUMP JUMPDEST SWAP3 POP POP DUP2 SWAP1 SSTORE POP PUSH1 0x1 PUSH1 0x0 DUP6 PUSH20 0xFFFFFFFFFFFFFFFFFFFFFFFFFFFFFFFFFFFFFFFF AND PUSH20 0xFFFFFFFFFFFFFFFFFFFFFFFFFFFFFFFFFFFFFFFF AND DUP2 MSTORE PUSH1 0x20 ADD SWAP1 DUP2 MSTORE PUSH1 0x20 ADD PUSH1 0x0 KECCAK256 DUP4 PUSH1 0x40 MLOAD PUSH2 0x76D SWAP2 SWAP1 PUSH2 0x17DB JUMP JUMPDEST SWAP1 DUP2 MSTORE PUSH1 0x20 ADD PUSH1 0x40 MLOAD DUP1 SWAP2 SUB SWAP1 KECCAK256 DUP3 PUSH1 0x40 MLOAD PUSH2 0x789 SWAP2 SWAP1 PUSH2 0x17DB JUMP JUMPDEST SWAP1 DUP2 MSTORE PUSH1 0x20 ADD PUSH1 0x40 MLOAD DUP1 SWAP2 SUB SWAP1 KECCAK256 SLOAD PUSH1 0x3 PUSH1 0x0 DUP7 PUSH20 0xFFFFFFFFFFFFFFFFFFFFFFFFFFFFFFFFFFFFFFFF AND PUSH20 0xFFFFFFFFFFFFFFFFFFFFFFFFFFFFFFFFFFFFFFFF AND DUP2 MSTORE PUSH1 0x20 ADD SWAP1 DUP2 MSTORE PUSH1 0x20 ADD PUSH1 0x0 KECCAK256 DUP5 PUSH1 0x40 MLOAD PUSH2 0x7E5 SWAP2 SWAP1 PUSH2 0x17DB JUMP JUMPDEST SWAP1 DUP2 MSTORE PUSH1 0x20 ADD PUSH1 0x40 MLOAD DUP1 SWAP2 SUB SWAP1 KECCAK256 PUSH1 0x1 ADD SLOAD GT ISZERO PUSH2 0x90F JUMPI PUSH1 0x40 MLOAD DUP1 PUSH1 0x40 ADD PUSH1 0x40 MSTORE DUP1 DUP4 DUP2 MSTORE PUSH1 0x20 ADD PUSH1 0x1 PUSH1 0x0 DUP8 PUSH20 0xFFFFFFFFFFFFFFFFFFFFFFFFFFFFFFFFFFFFFFFF AND PUSH20 0xFFFFFFFFFFFFFFFFFFFFFFFFFFFFFFFFFFFFFFFF AND DUP2 MSTORE PUSH1 0x20 ADD SWAP1 DUP2 MSTORE PUSH1 0x20 ADD PUSH1 0x0 KECCAK256 DUP6 PUSH1 0x40 MLOAD PUSH2 0x85B SWAP2 SWAP1 PUSH2 0x17DB JUMP JUMPDEST SWAP1 DUP2 MSTORE PUSH1 0x20 ADD PUSH1 0x40 MLOAD DUP1 SWAP2 SUB SWAP1 KECCAK256 DUP5 PUSH1 0x40 MLOAD PUSH2 0x877 SWAP2 SWAP1 PUSH2 0x17DB JUMP JUMPDEST SWAP1 DUP2 MSTORE PUSH1 0x20 ADD PUSH1 0x40 MLOAD DUP1 SWAP2 SUB SWAP1 KECCAK256 SLOAD DUP2 MSTORE POP PUSH1 0x3 PUSH1 0x0 DUP7 PUSH20 0xFFFFFFFFFFFFFFFFFFFFFFFFFFFFFFFFFFFFFFFF AND PUSH20 0xFFFFFFFFFFFFFFFFFFFFFFFFFFFFFFFFFFFFFFFF AND DUP2 MSTORE PUSH1 0x20 ADD SWAP1 DUP2 MSTORE PUSH1 0x20 ADD PUSH1 0x0 KECCAK256 DUP5 PUSH1 0x40 MLOAD PUSH2 0x8D6 SWAP2 SWAP1 PUSH2 0x17DB JUMP JUMPDEST SWAP1 DUP2 MSTORE PUSH1 0x20 ADD PUSH1 0x40 MLOAD DUP1 SWAP2 SUB SWAP1 KECCAK256 PUSH1 0x0 DUP3 ADD MLOAD DUP2 PUSH1 0x0 ADD SWAP1 DUP1 MLOAD SWAP1 PUSH1 0x20 ADD SWAP1 PUSH2 0x900 SWAP3 SWAP2 SWAP1 PUSH2 0x1206 JUMP JUMPDEST POP PUSH1 0x20 DUP3 ADD MLOAD DUP2 PUSH1 0x1 ADD SSTORE SWAP1 POP POP JUMPDEST POP POP POP POP JUMP JUMPDEST PUSH1 0x0 ADDRESS SWAP1 POP SWAP1 JUMP JUMPDEST PUSH1 0x0 DUP1 PUSH1 0x0 SWAP1 SLOAD SWAP1 PUSH2 0x100 EXP SWAP1 DIV PUSH20 0xFFFFFFFFFFFFFFFFFFFFFFFFFFFFFFFFFFFFFFFF AND SWAP1 POP SWAP1 JUMP JUMPDEST DUP1 PUSH1 0x2 PUSH1 0x0 CALLER PUSH20 0xFFFFFFFFFFFFFFFFFFFFFFFFFFFFFFFFFFFFFFFF AND PUSH20 0xFFFFFFFFFFFFFFFFFFFFFFFFFFFFFFFFFFFFFFFF AND DUP2 MSTORE PUSH1 0x20 ADD SWAP1 DUP2 MSTORE PUSH1 0x20 ADD PUSH1 0x0 KECCAK256 PUSH1 0x0 DUP7 PUSH20 0xFFFFFFFFFFFFFFFFFFFFFFFFFFFFFFFFFFFFFFFF AND PUSH20 0xFFFFFFFFFFFFFFFFFFFFFFFFFFFFFFFFFFFFFFFF AND DUP2 MSTORE PUSH1 0x20 ADD SWAP1 DUP2 MSTORE PUSH1 0x20 ADD PUSH1 0x0 KECCAK256 DUP5 PUSH1 0x40 MLOAD PUSH2 0x9D1 SWAP2 SWAP1 PUSH2 0x17DB JUMP JUMPDEST SWAP1 DUP2 MSTORE PUSH1 0x20 ADD PUSH1 0x40 MLOAD DUP1 SWAP2 SUB SWAP1 KECCAK256 DUP4 PUSH1 0x40 MLOAD PUSH2 0x9ED SWAP2 SWAP1 PUSH2 0x17DB JUMP JUMPDEST SWAP1 DUP2 MSTORE PUSH1 0x20 ADD PUSH1 0x40 MLOAD DUP1 SWAP2 SUB SWAP1 KECCAK256 SLOAD LT ISZERO PUSH2 0xA3D JUMPI PUSH1 0x40 MLOAD PUSH32 0x8C379A000000000000000000000000000000000000000000000000000000000 DUP2 MSTORE PUSH1 0x4 ADD PUSH2 0xA34 SWAP1 PUSH2 0x1951 JUMP JUMPDEST PUSH1 0x40 MLOAD DUP1 SWAP2 SUB SWAP1 REVERT JUMPDEST DUP1 PUSH1 0x1 PUSH1 0x0 DUP7 PUSH20 0xFFFFFFFFFFFFFFFFFFFFFFFFFFFFFFFFFFFFFFFF AND PUSH20 0xFFFFFFFFFFFFFFFFFFFFFFFFFFFFFFFFFFFFFFFF AND DUP2 MSTORE PUSH1 0x20 ADD SWAP1 DUP2 MSTORE PUSH1 0x20 ADD PUSH1 0x0 KECCAK256 DUP5 PUSH1 0x40 MLOAD PUSH2 0xA8B SWAP2 SWAP1 PUSH2 0x17DB JUMP JUMPDEST SWAP1 DUP2 MSTORE PUSH1 0x20 ADD PUSH1 0x40 MLOAD DUP1 SWAP2 SUB SWAP1 KECCAK256 DUP4 PUSH1 0x40 MLOAD PUSH2 0xAA7 SWAP2 SWAP1 PUSH2 0x17DB JUMP JUMPDEST SWAP1 DUP2 MSTORE PUSH1 0x20 ADD PUSH1 0x40 MLOAD DUP1 SWAP2 SUB SWAP1 KECCAK256 SLOAD LT ISZERO PUSH2 0xAF7 JUMPI PUSH1 0x40 MLOAD PUSH32 0x8C379A000000000000000000000000000000000000000000000000000000000 DUP2 MSTORE PUSH1 0x4 ADD PUSH2 0xAEE SWAP1 PUSH2 0x1971 JUMP JUMPDEST PUSH1 0x40 MLOAD DUP1 SWAP2 SUB SWAP1 REVERT JUMPDEST PUSH1 0x5 PUSH1 0x0 SWAP1 SLOAD SWAP1 PUSH2 0x100 EXP SWAP1 DIV PUSH20 0xFFFFFFFFFFFFFFFFFFFFFFFFFFFFFFFFFFFFFFFF AND PUSH20 0xFFFFFFFFFFFFFFFFFFFFFFFFFFFFFFFFFFFFFFFF AND PUSH4 0xA9059CBB CALLER DUP4 PUSH1 0x40 MLOAD DUP4 PUSH4 0xFFFFFFFF AND PUSH1 0xE0 SHL DUP2 MSTORE PUSH1 0x4 ADD PUSH2 0xB54 SWAP3 SWAP2 SWAP1 PUSH2 0x1844 JUMP JUMPDEST PUSH1 0x20 PUSH1 0x40 MLOAD DUP1 DUP4 SUB DUP2 PUSH1 0x0 DUP8 DUP1 EXTCODESIZE ISZERO DUP1 ISZERO PUSH2 0xB6E JUMPI PUSH1 0x0 DUP1 REVERT JUMPDEST POP GAS CALL ISZERO DUP1 ISZERO PUSH2 0xB82 JUMPI RETURNDATASIZE PUSH1 0x0 DUP1 RETURNDATACOPY RETURNDATASIZE PUSH1 0x0 REVERT JUMPDEST POP POP POP POP PUSH1 0x40 MLOAD RETURNDATASIZE PUSH1 0x1F NOT PUSH1 0x1F DUP3 ADD AND DUP3 ADD DUP1 PUSH1 0x40 MSTORE POP DUP2 ADD SWAP1 PUSH2 0xBA6 SWAP2 SWAP1 PUSH2 0x1627 JUMP JUMPDEST POP DUP1 PUSH1 0x1 PUSH1 0x0 DUP7 PUSH20 0xFFFFFFFFFFFFFFFFFFFFFFFFFFFFFFFFFFFFFFFF AND PUSH20 0xFFFFFFFFFFFFFFFFFFFFFFFFFFFFFFFFFFFFFFFF AND DUP2 MSTORE PUSH1 0x20 ADD SWAP1 DUP2 MSTORE PUSH1 0x20 ADD PUSH1 0x0 KECCAK256 DUP5 PUSH1 0x40 MLOAD PUSH2 0xBF5 SWAP2 SWAP1 PUSH2 0x17DB JUMP JUMPDEST SWAP1 DUP2 MSTORE PUSH1 0x20 ADD PUSH1 0x40 MLOAD DUP1 SWAP2 SUB SWAP1 KECCAK256 DUP4 PUSH1 0x40 MLOAD PUSH2 0xC11 SWAP2 SWAP1 PUSH2 0x17DB JUMP JUMPDEST SWAP1 DUP2 MSTORE PUSH1 0x20 ADD PUSH1 0x40 MLOAD DUP1 SWAP2 SUB SWAP1 KECCAK256 PUSH1 0x0 DUP3 DUP3 SLOAD PUSH2 0xC2E SWAP2 SWAP1 PUSH2 0x1ABF JUMP JUMPDEST SWAP3 POP POP DUP2 SWAP1 SSTORE POP DUP1 PUSH1 0x2 PUSH1 0x0 CALLER PUSH20 0xFFFFFFFFFFFFFFFFFFFFFFFFFFFFFFFFFFFFFFFF AND PUSH20 0xFFFFFFFFFFFFFFFFFFFFFFFFFFFFFFFFFFFFFFFF AND DUP2 MSTORE PUSH1 0x20 ADD SWAP1 DUP2 MSTORE PUSH1 0x20 ADD PUSH1 0x0 KECCAK256 PUSH1 0x0 DUP7 PUSH20 0xFFFFFFFFFFFFFFFFFFFFFFFFFFFFFFFFFFFFFFFF AND PUSH20 0xFFFFFFFFFFFFFFFFFFFFFFFFFFFFFFFFFFFFFFFF AND DUP2 MSTORE PUSH1 0x20 ADD SWAP1 DUP2 MSTORE PUSH1 0x20 ADD PUSH1 0x0 KECCAK256 DUP5 PUSH1 0x40 MLOAD PUSH2 0xCC0 SWAP2 SWAP1 PUSH2 0x17DB JUMP JUMPDEST SWAP1 DUP2 MSTORE PUSH1 0x20 ADD PUSH1 0x40 MLOAD DUP1 SWAP2 SUB SWAP1 KECCAK256 DUP4 PUSH1 0x40 MLOAD PUSH2 0xCDC SWAP2 SWAP1 PUSH2 0x17DB JUMP JUMPDEST SWAP1 DUP2 MSTORE PUSH1 0x20 ADD PUSH1 0x40 MLOAD DUP1 SWAP2 SUB SWAP1 KECCAK256 PUSH1 0x0 DUP3 DUP3 SLOAD PUSH2 0xCF9 SWAP2 SWAP1 PUSH2 0x1ABF JUMP JUMPDEST SWAP3 POP POP DUP2 SWAP1 SSTORE POP POP POP POP POP JUMP JUMPDEST PUSH1 0x2 PUSH1 0x20 MSTORE DUP4 PUSH1 0x0 MSTORE PUSH1 0x40 PUSH1 0x0 KECCAK256 PUSH1 0x20 MSTORE DUP3 PUSH1 0x0 MSTORE PUSH1 0x40 PUSH1 0x0 KECCAK256 DUP3 DUP1 MLOAD PUSH1 0x20 DUP2 ADD DUP3 ADD DUP1 MLOAD DUP5 DUP3 MSTORE PUSH1 0x20 DUP4 ADD PUSH1 0x20 DUP6 ADD KECCAK256 DUP2 DUP4 MSTORE DUP1 SWAP6 POP POP POP POP POP POP DUP2 DUP1 MLOAD PUSH1 0x20 DUP2 ADD DUP3 ADD DUP1 MLOAD DUP5 DUP3 MSTORE PUSH1 0x20 DUP4 ADD PUSH1 0x20 DUP6 ADD KECCAK256 DUP2 DUP4 MSTORE DUP1 SWAP6 POP POP POP POP POP POP PUSH1 0x0 SWAP4 POP SWAP4 POP POP POP POP SLOAD DUP2 JUMP JUMPDEST PUSH1 0x3 PUSH1 0x20 MSTORE DUP2 PUSH1 0x0 MSTORE PUSH1 0x40 PUSH1 0x0 KECCAK256 DUP2 DUP1 MLOAD PUSH1 0x20 DUP2 ADD DUP3 ADD DUP1 MLOAD DUP5 DUP3 MSTORE PUSH1 0x20 DUP4 ADD PUSH1 0x20 DUP6 ADD KECCAK256 DUP2 DUP4 MSTORE DUP1 SWAP6 POP POP POP POP POP POP PUSH1 0x0 SWAP2 POP SWAP2 POP POP DUP1 PUSH1 0x0 ADD DUP1 SLOAD PUSH2 0xDB7 SWAP1 PUSH2 0x1BBD JUMP JUMPDEST DUP1 PUSH1 0x1F ADD PUSH1 0x20 DUP1 SWAP2 DIV MUL PUSH1 0x20 ADD PUSH1 0x40 MLOAD SWAP1 DUP2 ADD PUSH1 0x40 MSTORE DUP1 SWAP3 SWAP2 SWAP1 DUP2 DUP2 MSTORE PUSH1 0x20 ADD DUP3 DUP1 SLOAD PUSH2 0xDE3 SWAP1 PUSH2 0x1BBD JUMP JUMPDEST DUP1 ISZERO PUSH2 0xE30 JUMPI DUP1 PUSH1 0x1F LT PUSH2 0xE05 JUMPI PUSH2 0x100 DUP1 DUP4 SLOAD DIV MUL DUP4 MSTORE SWAP2 PUSH1 0x20 ADD SWAP2 PUSH2 0xE30 JUMP JUMPDEST DUP3 ADD SWAP2 SWAP1 PUSH1 0x0 MSTORE PUSH1 0x20 PUSH1 0x0 KECCAK256 SWAP1 JUMPDEST DUP2 SLOAD DUP2 MSTORE SWAP1 PUSH1 0x1 ADD SWAP1 PUSH1 0x20 ADD DUP1 DUP4 GT PUSH2 0xE13 JUMPI DUP3 SWAP1 SUB PUSH1 0x1F AND DUP3 ADD SWAP2 JUMPDEST POP POP POP POP POP SWAP1 DUP1 PUSH1 0x1 ADD SLOAD SWAP1 POP DUP3 JUMP JUMPDEST PUSH1 0x1 PUSH1 0x20 MSTORE DUP3 PUSH1 0x0 MSTORE PUSH1 0x40 PUSH1 0x0 KECCAK256 DUP3 DUP1 MLOAD PUSH1 0x20 DUP2 ADD DUP3 ADD DUP1 MLOAD DUP5 DUP3 MSTORE PUSH1 0x20 DUP4 ADD PUSH1 0x20 DUP6 ADD KECCAK256 DUP2 DUP4 MSTORE DUP1 SWAP6 POP POP POP POP POP POP DUP2 DUP1 MLOAD PUSH1 0x20 DUP2 ADD DUP3 ADD DUP1 MLOAD DUP5 DUP3 MSTORE PUSH1 0x20 DUP4 ADD PUSH1 0x20 DUP6 ADD KECCAK256 DUP2 DUP4 MSTORE DUP1 SWAP6 POP POP POP POP POP POP PUSH1 0x0 SWAP3 POP SWAP3 POP POP POP SLOAD DUP2 JUMP JUMPDEST PUSH1 0x60 PUSH1 0x3 PUSH1 0x0 DUP5 PUSH20 0xFFFFFFFFFFFFFFFFFFFFFFFFFFFFFFFFFFFFFFFF AND PUSH20 0xFFFFFFFFFFFFFFFFFFFFFFFFFFFFFFFFFFFFFFFF AND DUP2 MSTORE PUSH1 0x20 ADD SWAP1 DUP2 MSTORE PUSH1 0x20 ADD PUSH1 0x0 KECCAK256 DUP3 PUSH1 0x40 MLOAD PUSH2 0xEED SWAP2 SWAP1 PUSH2 0x17DB JUMP JUMPDEST SWAP1 DUP2 MSTORE PUSH1 0x20 ADD PUSH1 0x40 MLOAD DUP1 SWAP2 SUB SWAP1 KECCAK256 PUSH1 0x0 ADD DUP1 SLOAD PUSH2 0xF09 SWAP1 PUSH2 0x1BBD JUMP JUMPDEST DUP1 PUSH1 0x1F ADD PUSH1 0x20 DUP1 SWAP2 DIV MUL PUSH1 0x20 ADD PUSH1 0x40 MLOAD SWAP1 DUP2 ADD PUSH1 0x40 MSTORE DUP1 SWAP3 SWAP2 SWAP1 DUP2 DUP2 MSTORE PUSH1 0x20 ADD DUP3 DUP1 SLOAD PUSH2 0xF35 SWAP1 PUSH2 0x1BBD JUMP JUMPDEST DUP1 ISZERO PUSH2 0xF82 JUMPI DUP1 PUSH1 0x1F LT PUSH2 0xF57 JUMPI PUSH2 0x100 DUP1 DUP4 SLOAD DIV MUL DUP4 MSTORE SWAP2 PUSH1 0x20 ADD SWAP2 PUSH2 0xF82 JUMP JUMPDEST DUP3 ADD SWAP2 SWAP1 PUSH1 0x0 MSTORE PUSH1 0x20 PUSH1 0x0 KECCAK256 SWAP1 JUMPDEST DUP2 SLOAD DUP2 MSTORE SWAP1 PUSH1 0x1 ADD SWAP1 PUSH1 0x20 ADD DUP1 DUP4 GT PUSH2 0xF65 JUMPI DUP3 SWAP1 SUB PUSH1 0x1F AND DUP3 ADD SWAP2 JUMPDEST POP POP POP POP POP SWAP1 POP SWAP3 SWAP2 POP POP JUMP JUMPDEST PUSH1 0x0 PUSH1 0x1 PUSH1 0x0 DUP6 PUSH20 0xFFFFFFFFFFFFFFFFFFFFFFFFFFFFFFFFFFFFFFFF AND PUSH20 0xFFFFFFFFFFFFFFFFFFFFFFFFFFFFFFFFFFFFFFFF AND DUP2 MSTORE PUSH1 0x20 ADD SWAP1 DUP2 MSTORE PUSH1 0x20 ADD PUSH1 0x0 KECCAK256 DUP4 PUSH1 0x40 MLOAD PUSH2 0xFDE SWAP2 SWAP1 PUSH2 0x17DB JUMP JUMPDEST SWAP1 DUP2 MSTORE PUSH1 0x20 ADD PUSH1 0x40 MLOAD DUP1 SWAP2 SUB SWAP1 KECCAK256 DUP3 PUSH1 0x40 MLOAD PUSH2 0xFFA SWAP2 SWAP1 PUSH2 0x17DB JUMP JUMPDEST SWAP1 DUP2 MSTORE PUSH1 0x20 ADD PUSH1 0x40 MLOAD DUP1 SWAP2 SUB SWAP1 KECCAK256 SLOAD SWAP1 POP SWAP4 SWAP3 POP POP POP JUMP JUMPDEST PUSH2 0x101A PUSH2 0x10BC JUMP JUMPDEST PUSH1 0x0 PUSH20 0xFFFFFFFFFFFFFFFFFFFFFFFFFFFFFFFFFFFFFFFF AND DUP2 PUSH20 0xFFFFFFFFFFFFFFFFFFFFFFFFFFFFFFFFFFFFFFFF AND EQ ISZERO PUSH2 0x108A JUMPI PUSH1 0x40 MLOAD PUSH32 0x8C379A000000000000000000000000000000000000000000000000000000000 DUP2 MSTORE PUSH1 0x4 ADD PUSH2 0x1081 SWAP1 PUSH2 0x1911 JUMP JUMPDEST PUSH1 0x40 MLOAD DUP1 SWAP2 SUB SWAP1 REVERT JUMPDEST PUSH2 0x1093 DUP2 PUSH2 0x113A JUMP JUMPDEST POP JUMP JUMPDEST PUSH1 0x5 PUSH1 0x0 SWAP1 SLOAD SWAP1 PUSH2 0x100 EXP SWAP1 DIV PUSH20 0xFFFFFFFFFFFFFFFFFFFFFFFFFFFFFFFFFFFFFFFF AND DUP2 JUMP JUMPDEST PUSH2 0x10C4 PUSH2 0x11FE JUMP JUMPDEST PUSH20 0xFFFFFFFFFFFFFFFFFFFFFFFFFFFFFFFFFFFFFFFF AND PUSH2 0x10E2 PUSH2 0x91D JUMP JUMPDEST PUSH20 0xFFFFFFFFFFFFFFFFFFFFFFFFFFFFFFFFFFFFFFFF AND EQ PUSH2 0x1138 JUMPI PUSH1 0x40 MLOAD PUSH32 0x8C379A000000000000000000000000000000000000000000000000000000000 DUP2 MSTORE PUSH1 0x4 ADD PUSH2 0x112F SWAP1 PUSH2 0x1931 JUMP JUMPDEST PUSH1 0x40 MLOAD DUP1 SWAP2 SUB SWAP1 REVERT JUMPDEST JUMP JUMPDEST PUSH1 0x0 DUP1 PUSH1 0x0 SWAP1 SLOAD SWAP1 PUSH2 0x100 EXP SWAP1 DIV PUSH20 0xFFFFFFFFFFFFFFFFFFFFFFFFFFFFFFFFFFFFFFFF AND SWAP1 POP DUP2 PUSH1 0x0 DUP1 PUSH2 0x100 EXP DUP2 SLOAD DUP2 PUSH20 0xFFFFFFFFFFFFFFFFFFFFFFFFFFFFFFFFFFFFFFFF MUL NOT AND SWAP1 DUP4 PUSH20 0xFFFFFFFFFFFFFFFFFFFFFFFFFFFFFFFFFFFFFFFF AND MUL OR SWAP1 SSTORE POP DUP2 PUSH20 0xFFFFFFFFFFFFFFFFFFFFFFFFFFFFFFFFFFFFFFFF AND DUP2 PUSH20 0xFFFFFFFFFFFFFFFFFFFFFFFFFFFFFFFFFFFFFFFF AND PUSH32 0x8BE0079C531659141344CD1FD0A4F28419497F9722A3DAAFE3B4186F6B6457E0 PUSH1 0x40 MLOAD PUSH1 0x40 MLOAD DUP1 SWAP2 SUB SWAP1 LOG3 POP POP JUMP JUMPDEST PUSH1 0x0 CALLER SWAP1 POP SWAP1 JUMP JUMPDEST DUP3 DUP1 SLOAD PUSH2 0x1212 SWAP1 PUSH2 0x1BBD JUMP JUMPDEST SWAP1 PUSH1 0x0 MSTORE PUSH1 0x20 PUSH1 0x0 KECCAK256 SWAP1 PUSH1 0x1F ADD PUSH1 0x20 SWAP1 DIV DUP2 ADD SWAP3 DUP3 PUSH2 0x1234 JUMPI PUSH1 0x0 DUP6 SSTORE PUSH2 0x127B JUMP JUMPDEST DUP3 PUSH1 0x1F LT PUSH2 0x124D JUMPI DUP1 MLOAD PUSH1 0xFF NOT AND DUP4 DUP1 ADD OR DUP6 SSTORE PUSH2 0x127B JUMP JUMPDEST DUP3 DUP1 ADD PUSH1 0x1 ADD DUP6 SSTORE DUP3 ISZERO PUSH2 0x127B JUMPI SWAP2 DUP3 ADD JUMPDEST DUP3 DUP2 GT ISZERO PUSH2 0x127A JUMPI DUP3 MLOAD DUP3 SSTORE SWAP2 PUSH1 0x20 ADD SWAP2 SWAP1 PUSH1 0x1 ADD SWAP1 PUSH2 0x125F JUMP JUMPDEST JUMPDEST POP SWAP1 POP PUSH2 0x1288 SWAP2 SWAP1 PUSH2 0x128C JUMP JUMPDEST POP SWAP1 JUMP JUMPDEST JUMPDEST DUP1 DUP3 GT ISZERO PUSH2 0x12A5 JUMPI PUSH1 0x0 DUP2 PUSH1 0x0 SWAP1 SSTORE POP PUSH1 0x1 ADD PUSH2 0x128D JUMP JUMPDEST POP SWAP1 JUMP JUMPDEST PUSH1 0x0 PUSH2 0x12BC PUSH2 0x12B7 DUP5 PUSH2 0x1A11 JUMP JUMPDEST PUSH2 0x19EC JUMP JUMPDEST SWAP1 POP DUP3 DUP2 MSTORE PUSH1 0x20 DUP2 ADD DUP5 DUP5 DUP5 ADD GT ISZERO PUSH2 0x12D8 JUMPI PUSH2 0x12D7 PUSH2 0x1CB2 JUMP JUMPDEST JUMPDEST PUSH2 0x12E3 DUP5 DUP3 DUP6 PUSH2 0x1B7B JUMP JUMPDEST POP SWAP4 SWAP3 POP POP POP JUMP JUMPDEST PUSH1 0x0 DUP2 CALLDATALOAD SWAP1 POP PUSH2 0x12FA DUP2 PUSH2 0x1DEE JUMP JUMPDEST SWAP3 SWAP2 POP POP JUMP JUMPDEST PUSH1 0x0 DUP2 CALLDATALOAD SWAP1 POP PUSH2 0x130F DUP2 PUSH2 0x1E05 JUMP JUMPDEST SWAP3 SWAP2 POP POP JUMP JUMPDEST PUSH1 0x0 DUP2 MLOAD SWAP1 POP PUSH2 0x1324 DUP2 PUSH2 0x1E05 JUMP JUMPDEST SWAP3 SWAP2 POP POP JUMP JUMPDEST PUSH1 0x0 DUP2 CALLDATALOAD SWAP1 POP PUSH2 0x1339 DUP2 PUSH2 0x1E1C JUMP JUMPDEST SWAP3 SWAP2 POP POP JUMP JUMPDEST PUSH1 0x0 DUP3 PUSH1 0x1F DUP4 ADD SLT PUSH2 0x1354 JUMPI PUSH2 0x1353 PUSH2 0x1CAD JUMP JUMPDEST JUMPDEST DUP2 CALLDATALOAD PUSH2 0x1364 DUP5 DUP3 PUSH1 0x20 DUP7 ADD PUSH2 0x12A9 JUMP JUMPDEST SWAP2 POP POP SWAP3 SWAP2 POP POP JUMP JUMPDEST PUSH1 0x0 DUP2 CALLDATALOAD SWAP1 POP PUSH2 0x137C DUP2 PUSH2 0x1E33 JUMP JUMPDEST SWAP3 SWAP2 POP POP JUMP JUMPDEST PUSH1 0x0 PUSH1 0x20 DUP3 DUP5 SUB SLT ISZERO PUSH2 0x1398 JUMPI PUSH2 0x1397 PUSH2 0x1CBC JUMP JUMPDEST JUMPDEST PUSH1 0x0 PUSH2 0x13A6 DUP5 DUP3 DUP6 ADD PUSH2 0x12EB JUMP JUMPDEST SWAP2 POP POP SWAP3 SWAP2 POP POP JUMP JUMPDEST PUSH1 0x0 DUP1 PUSH1 0x0 DUP1 PUSH1 0x80 DUP6 DUP8 SUB SLT ISZERO PUSH2 0x13C9 JUMPI PUSH2 0x13C8 PUSH2 0x1CBC JUMP JUMPDEST JUMPDEST PUSH1 0x0 PUSH2 0x13D7 DUP8 DUP3 DUP9 ADD PUSH2 0x12EB JUMP JUMPDEST SWAP5 POP POP PUSH1 0x20 PUSH2 0x13E8 DUP8 DUP3 DUP9 ADD PUSH2 0x12EB JUMP JUMPDEST SWAP4 POP POP PUSH1 0x40 DUP6 ADD CALLDATALOAD PUSH8 0xFFFFFFFFFFFFFFFF DUP2 GT ISZERO PUSH2 0x1409 JUMPI PUSH2 0x1408 PUSH2 0x1CB7 JUMP JUMPDEST JUMPDEST PUSH2 0x1415 DUP8 DUP3 DUP9 ADD PUSH2 0x133F JUMP JUMPDEST SWAP3 POP POP PUSH1 0x60 DUP6 ADD CALLDATALOAD PUSH8 0xFFFFFFFFFFFFFFFF DUP2 GT ISZERO PUSH2 0x1436 JUMPI PUSH2 0x1435 PUSH2 0x1CB7 JUMP JUMPDEST JUMPDEST PUSH2 0x1442 DUP8 DUP3 DUP9 ADD PUSH2 0x133F JUMP JUMPDEST SWAP2 POP POP SWAP3 SWAP6 SWAP2 SWAP5 POP SWAP3 POP JUMP JUMPDEST PUSH1 0x0 DUP1 PUSH1 0x0 PUSH1 0x60 DUP5 DUP7 SUB SLT ISZERO PUSH2 0x1467 JUMPI PUSH2 0x1466 PUSH2 0x1CBC JUMP JUMPDEST JUMPDEST PUSH1 0x0 PUSH2 0x1475 DUP7 DUP3 DUP8 ADD PUSH2 0x12EB JUMP JUMPDEST SWAP4 POP POP PUSH1 0x20 PUSH2 0x1486 DUP7 DUP3 DUP8 ADD PUSH2 0x132A JUMP JUMPDEST SWAP3 POP POP PUSH1 0x40 PUSH2 0x1497 DUP7 DUP3 DUP8 ADD PUSH2 0x1300 JUMP JUMPDEST SWAP2 POP POP SWAP3 POP SWAP3 POP SWAP3 JUMP JUMPDEST PUSH1 0x0 DUP1 PUSH1 0x40 DUP4 DUP6 SUB SLT ISZERO PUSH2 0x14B8 JUMPI PUSH2 0x14B7 PUSH2 0x1CBC JUMP JUMPDEST JUMPDEST PUSH1 0x0 PUSH2 0x14C6 DUP6 DUP3 DUP7 ADD PUSH2 0x12EB JUMP JUMPDEST SWAP3 POP POP PUSH1 0x20 DUP4 ADD CALLDATALOAD PUSH8 0xFFFFFFFFFFFFFFFF DUP2 GT ISZERO PUSH2 0x14E7 JUMPI PUSH2 0x14E6 PUSH2 0x1CB7 JUMP JUMPDEST JUMPDEST PUSH2 0x14F3 DUP6 DUP3 DUP7 ADD PUSH2 0x133F JUMP JUMPDEST SWAP2 POP POP SWAP3 POP SWAP3 SWAP1 POP JUMP JUMPDEST PUSH1 0x0 DUP1 PUSH1 0x0 PUSH1 0x60 DUP5 DUP7 SUB SLT ISZERO PUSH2 0x1516 JUMPI PUSH2 0x1515 PUSH2 0x1CBC JUMP JUMPDEST JUMPDEST PUSH1 0x0 PUSH2 0x1524 DUP7 DUP3 DUP8 ADD PUSH2 0x12EB JUMP JUMPDEST SWAP4 POP POP PUSH1 0x20 DUP5 ADD CALLDATALOAD PUSH8 0xFFFFFFFFFFFFFFFF DUP2 GT ISZERO PUSH2 0x1545 JUMPI PUSH2 0x1544 PUSH2 0x1CB7 JUMP JUMPDEST JUMPDEST PUSH2 0x1551 DUP7 DUP3 DUP8 ADD PUSH2 0x133F JUMP JUMPDEST SWAP3 POP POP PUSH1 0x40 DUP5 ADD CALLDATALOAD PUSH8 0xFFFFFFFFFFFFFFFF DUP2 GT ISZERO PUSH2 0x1572 JUMPI PUSH2 0x1571 PUSH2 0x1CB7 JUMP JUMPDEST JUMPDEST PUSH2 0x157E DUP7 DUP3 DUP8 ADD PUSH2 0x133F JUMP JUMPDEST SWAP2 POP POP SWAP3 POP SWAP3 POP SWAP3 JUMP JUMPDEST PUSH1 0x0 DUP1 PUSH1 0x0 DUP1 PUSH1 0x80 DUP6 DUP8 SUB SLT ISZERO PUSH2 0x15A2 JUMPI PUSH2 0x15A1 PUSH2 0x1CBC JUMP JUMPDEST JUMPDEST PUSH1 0x0 PUSH2 0x15B0 DUP8 DUP3 DUP9 ADD PUSH2 0x12EB JUMP JUMPDEST SWAP5 POP POP PUSH1 0x20 DUP6 ADD CALLDATALOAD PUSH8 0xFFFFFFFFFFFFFFFF DUP2 GT ISZERO PUSH2 0x15D1 JUMPI PUSH2 0x15D0 PUSH2 0x1CB7 JUMP JUMPDEST JUMPDEST PUSH2 0x15DD DUP8 DUP3 DUP9 ADD PUSH2 0x133F JUMP JUMPDEST SWAP4 POP POP PUSH1 0x40 DUP6 ADD CALLDATALOAD PUSH8 0xFFFFFFFFFFFFFFFF DUP2 GT ISZERO PUSH2 0x15FE JUMPI PUSH2 0x15FD PUSH2 0x1CB7 JUMP JUMPDEST JUMPDEST PUSH2 0x160A DUP8 DUP3 DUP9 ADD PUSH2 0x133F JUMP JUMPDEST SWAP3 POP POP PUSH1 0x60 PUSH2 0x161B DUP8 DUP3 DUP9 ADD PUSH2 0x136D JUMP JUMPDEST SWAP2 POP POP SWAP3 SWAP6 SWAP2 SWAP5 POP SWAP3 POP JUMP JUMPDEST PUSH1 0x0 PUSH1 0x20 DUP3 DUP5 SUB SLT ISZERO PUSH2 0x163D JUMPI PUSH2 0x163C PUSH2 0x1CBC JUMP JUMPDEST JUMPDEST PUSH1 0x0 PUSH2 0x164B DUP5 DUP3 DUP6 ADD PUSH2 0x1315 JUMP JUMPDEST SWAP2 POP POP SWAP3 SWAP2 POP POP JUMP JUMPDEST PUSH2 0x165D DUP2 PUSH2 0x1AF3 JUMP JUMPDEST DUP3 MSTORE POP POP JUMP JUMPDEST PUSH2 0x166C DUP2 PUSH2 0x1B05 JUMP JUMPDEST DUP3 MSTORE POP POP JUMP JUMPDEST PUSH2 0x167B DUP2 PUSH2 0x1B11 JUMP JUMPDEST DUP3 MSTORE POP POP JUMP JUMPDEST PUSH2 0x168A DUP2 PUSH2 0x1B45 JUMP JUMPDEST DUP3 MSTORE POP POP JUMP JUMPDEST PUSH1 0x0 PUSH2 0x169B DUP3 PUSH2 0x1A42 JUMP JUMPDEST PUSH2 0x16A5 DUP2 DUP6 PUSH2 0x1A4D JUMP JUMPDEST SWAP4 POP PUSH2 0x16B5 DUP2 DUP6 PUSH1 0x20 DUP7 ADD PUSH2 0x1B8A JUMP JUMPDEST PUSH2 0x16BE DUP2 PUSH2 0x1CC1 JUMP JUMPDEST DUP5 ADD SWAP2 POP POP SWAP3 SWAP2 POP POP JUMP JUMPDEST PUSH1 0x0 PUSH2 0x16D4 DUP3 PUSH2 0x1A42 JUMP JUMPDEST PUSH2 0x16DE DUP2 DUP6 PUSH2 0x1A5E JUMP JUMPDEST SWAP4 POP PUSH2 0x16EE DUP2 DUP6 PUSH1 0x20 DUP7 ADD PUSH2 0x1B8A JUMP JUMPDEST DUP1 DUP5 ADD SWAP2 POP POP SWAP3 SWAP2 POP POP JUMP JUMPDEST PUSH1 0x0 PUSH2 0x1707 PUSH1 0x26 DUP4 PUSH2 0x1A4D JUMP JUMPDEST SWAP2 POP PUSH2 0x1712 DUP3 PUSH2 0x1CD2 JUMP JUMPDEST PUSH1 0x40 DUP3 ADD SWAP1 POP SWAP2 SWAP1 POP JUMP JUMPDEST PUSH1 0x0 PUSH2 0x172A PUSH1 0x20 DUP4 PUSH2 0x1A4D JUMP JUMPDEST SWAP2 POP PUSH2 0x1735 DUP3 PUSH2 0x1D21 JUMP JUMPDEST PUSH1 0x20 DUP3 ADD SWAP1 POP SWAP2 SWAP1 POP JUMP JUMPDEST PUSH1 0x0 PUSH2 0x174D PUSH1 0x16 DUP4 PUSH2 0x1A4D JUMP JUMPDEST SWAP2 POP PUSH2 0x1758 DUP3 PUSH2 0x1D4A JUMP JUMPDEST PUSH1 0x20 DUP3 ADD SWAP1 POP SWAP2 SWAP1 POP JUMP JUMPDEST PUSH1 0x0 PUSH2 0x1770 PUSH1 0x1C DUP4 PUSH2 0x1A4D JUMP JUMPDEST SWAP2 POP PUSH2 0x177B DUP3 PUSH2 0x1D73 JUMP JUMPDEST PUSH1 0x20 DUP3 ADD SWAP1 POP SWAP2 SWAP1 POP JUMP JUMPDEST PUSH1 0x0 PUSH2 0x1793 PUSH1 0x14 DUP4 PUSH2 0x1A4D JUMP JUMPDEST SWAP2 POP PUSH2 0x179E DUP3 PUSH2 0x1D9C JUMP JUMPDEST PUSH1 0x20 DUP3 ADD SWAP1 POP SWAP2 SWAP1 POP JUMP JUMPDEST PUSH1 0x0 PUSH2 0x17B6 PUSH1 0x1C DUP4 PUSH2 0x1A4D JUMP JUMPDEST SWAP2 POP PUSH2 0x17C1 DUP3 PUSH2 0x1DC5 JUMP JUMPDEST PUSH1 0x20 DUP3 ADD SWAP1 POP SWAP2 SWAP1 POP JUMP JUMPDEST PUSH2 0x17D5 DUP2 PUSH2 0x1B3B JUMP JUMPDEST DUP3 MSTORE POP POP JUMP JUMPDEST PUSH1 0x0 PUSH2 0x17E7 DUP3 DUP5 PUSH2 0x16C9 JUMP JUMPDEST SWAP2 POP DUP2 SWAP1 POP SWAP3 SWAP2 POP POP JUMP JUMPDEST PUSH1 0x0 PUSH1 0x20 DUP3 ADD SWAP1 POP PUSH2 0x1807 PUSH1 0x0 DUP4 ADD DUP5 PUSH2 0x1654 JUMP JUMPDEST SWAP3 SWAP2 POP POP JUMP JUMPDEST PUSH1 0x0 PUSH1 0x60 DUP3 ADD SWAP1 POP PUSH2 0x1822 PUSH1 0x0 DUP4 ADD DUP7 PUSH2 0x1654 JUMP JUMPDEST PUSH2 0x182F PUSH1 0x20 DUP4 ADD DUP6 PUSH2 0x1654 JUMP JUMPDEST PUSH2 0x183C PUSH1 0x40 DUP4 ADD DUP5 PUSH2 0x17CC JUMP JUMPDEST SWAP5 SWAP4 POP POP POP POP JUMP JUMPDEST PUSH1 0x0 PUSH1 0x40 DUP3 ADD SWAP1 POP PUSH2 0x1859 PUSH1 0x0 DUP4 ADD DUP6 PUSH2 0x1654 JUMP JUMPDEST PUSH2 0x1866 PUSH1 0x20 DUP4 ADD DUP5 PUSH2 0x17CC JUMP JUMPDEST SWAP4 SWAP3 POP POP POP JUMP JUMPDEST PUSH1 0x0 PUSH1 0x60 DUP3 ADD SWAP1 POP PUSH2 0x1882 PUSH1 0x0 DUP4 ADD DUP7 PUSH2 0x1672 JUMP JUMPDEST PUSH2 0x188F PUSH1 0x20 DUP4 ADD DUP6 PUSH2 0x1663 JUMP JUMPDEST PUSH2 0x189C PUSH1 0x40 DUP4 ADD DUP5 PUSH2 0x1654 JUMP JUMPDEST SWAP5 SWAP4 POP POP POP POP JUMP JUMPDEST PUSH1 0x0 PUSH1 0x20 DUP3 ADD SWAP1 POP PUSH2 0x18B9 PUSH1 0x0 DUP4 ADD DUP5 PUSH2 0x1681 JUMP JUMPDEST SWAP3 SWAP2 POP POP JUMP JUMPDEST PUSH1 0x0 PUSH1 0x20 DUP3 ADD SWAP1 POP DUP2 DUP2 SUB PUSH1 0x0 DUP4 ADD MSTORE PUSH2 0x18D9 DUP2 DUP5 PUSH2 0x1690 JUMP JUMPDEST SWAP1 POP SWAP3 SWAP2 POP POP JUMP JUMPDEST PUSH1 0x0 PUSH1 0x40 DUP3 ADD SWAP1 POP DUP2 DUP2 SUB PUSH1 0x0 DUP4 ADD MSTORE PUSH2 0x18FB DUP2 DUP6 PUSH2 0x1690 JUMP JUMPDEST SWAP1 POP PUSH2 0x190A PUSH1 0x20 DUP4 ADD DUP5 PUSH2 0x17CC JUMP JUMPDEST SWAP4 SWAP3 POP POP POP JUMP JUMPDEST PUSH1 0x0 PUSH1 0x20 DUP3 ADD SWAP1 POP DUP2 DUP2 SUB PUSH1 0x0 DUP4 ADD MSTORE PUSH2 0x192A DUP2 PUSH2 0x16FA JUMP JUMPDEST SWAP1 POP SWAP2 SWAP1 POP JUMP JUMPDEST PUSH1 0x0 PUSH1 0x20 DUP3 ADD SWAP1 POP DUP2 DUP2 SUB PUSH1 0x0 DUP4 ADD MSTORE PUSH2 0x194A DUP2 PUSH2 0x171D JUMP JUMPDEST SWAP1 POP SWAP2 SWAP1 POP JUMP JUMPDEST PUSH1 0x0 PUSH1 0x20 DUP3 ADD SWAP1 POP DUP2 DUP2 SUB PUSH1 0x0 DUP4 ADD MSTORE PUSH2 0x196A DUP2 PUSH2 0x1740 JUMP JUMPDEST SWAP1 POP SWAP2 SWAP1 POP JUMP JUMPDEST PUSH1 0x0 PUSH1 0x20 DUP3 ADD SWAP1 POP DUP2 DUP2 SUB PUSH1 0x0 DUP4 ADD MSTORE PUSH2 0x198A DUP2 PUSH2 0x1763 JUMP JUMPDEST SWAP1 POP SWAP2 SWAP1 POP JUMP JUMPDEST PUSH1 0x0 PUSH1 0x20 DUP3 ADD SWAP1 POP DUP2 DUP2 SUB PUSH1 0x0 DUP4 ADD MSTORE PUSH2 0x19AA DUP2 PUSH2 0x1786 JUMP JUMPDEST SWAP1 POP SWAP2 SWAP1 POP JUMP JUMPDEST PUSH1 0x0 PUSH1 0x20 DUP3 ADD SWAP1 POP DUP2 DUP2 SUB PUSH1 0x0 DUP4 ADD MSTORE PUSH2 0x19CA DUP2 PUSH2 0x17A9 JUMP JUMPDEST SWAP1 POP SWAP2 SWAP1 POP JUMP JUMPDEST PUSH1 0x0 PUSH1 0x20 DUP3 ADD SWAP1 POP PUSH2 0x19E6 PUSH1 0x0 DUP4 ADD DUP5 PUSH2 0x17CC JUMP JUMPDEST SWAP3 SWAP2 POP POP JUMP JUMPDEST PUSH1 0x0 PUSH2 0x19F6 PUSH2 0x1A07 JUMP JUMPDEST SWAP1 POP PUSH2 0x1A02 DUP3 DUP3 PUSH2 0x1BEF JUMP JUMPDEST SWAP2 SWAP1 POP JUMP JUMPDEST PUSH1 0x0 PUSH1 0x40 MLOAD SWAP1 POP SWAP1 JUMP JUMPDEST PUSH1 0x0 PUSH8 0xFFFFFFFFFFFFFFFF DUP3 GT ISZERO PUSH2 0x1A2C JUMPI PUSH2 0x1A2B PUSH2 0x1C7E JUMP JUMPDEST JUMPDEST PUSH2 0x1A35 DUP3 PUSH2 0x1CC1 JUMP JUMPDEST SWAP1 POP PUSH1 0x20 DUP2 ADD SWAP1 POP SWAP2 SWAP1 POP JUMP JUMPDEST PUSH1 0x0 DUP2 MLOAD SWAP1 POP SWAP2 SWAP1 POP JUMP JUMPDEST PUSH1 0x0 DUP3 DUP3 MSTORE PUSH1 0x20 DUP3 ADD SWAP1 POP SWAP3 SWAP2 POP POP JUMP JUMPDEST PUSH1 0x0 DUP2 SWAP1 POP SWAP3 SWAP2 POP POP JUMP JUMPDEST PUSH1 0x0 PUSH2 0x1A74 DUP3 PUSH2 0x1B3B JUMP JUMPDEST SWAP2 POP PUSH2 0x1A7F DUP4 PUSH2 0x1B3B JUMP JUMPDEST SWAP3 POP DUP3 PUSH32 0xFFFFFFFFFFFFFFFFFFFFFFFFFFFFFFFFFFFFFFFFFFFFFFFFFFFFFFFFFFFFFFFF SUB DUP3 GT ISZERO PUSH2 0x1AB4 JUMPI PUSH2 0x1AB3 PUSH2 0x1C20 JUMP JUMPDEST JUMPDEST DUP3 DUP3 ADD SWAP1 POP SWAP3 SWAP2 POP POP JUMP JUMPDEST PUSH1 0x0 PUSH2 0x1ACA DUP3 PUSH2 0x1B3B JUMP JUMPDEST SWAP2 POP PUSH2 0x1AD5 DUP4 PUSH2 0x1B3B JUMP JUMPDEST SWAP3 POP DUP3 DUP3 LT ISZERO PUSH2 0x1AE8 JUMPI PUSH2 0x1AE7 PUSH2 0x1C20 JUMP JUMPDEST JUMPDEST DUP3 DUP3 SUB SWAP1 POP SWAP3 SWAP2 POP POP JUMP JUMPDEST PUSH1 0x0 PUSH2 0x1AFE DUP3 PUSH2 0x1B1B JUMP JUMPDEST SWAP1 POP SWAP2 SWAP1 POP JUMP JUMPDEST PUSH1 0x0 DUP2 ISZERO ISZERO SWAP1 POP SWAP2 SWAP1 POP JUMP JUMPDEST PUSH1 0x0 DUP2 SWAP1 POP SWAP2 SWAP1 POP JUMP JUMPDEST PUSH1 0x0 PUSH20 0xFFFFFFFFFFFFFFFFFFFFFFFFFFFFFFFFFFFFFFFF DUP3 AND SWAP1 POP SWAP2 SWAP1 POP JUMP JUMPDEST PUSH1 0x0 DUP2 SWAP1 POP SWAP2 SWAP1 POP JUMP JUMPDEST PUSH1 0x0 PUSH2 0x1B50 DUP3 PUSH2 0x1B57 JUMP JUMPDEST SWAP1 POP SWAP2 SWAP1 POP JUMP JUMPDEST PUSH1 0x0 PUSH2 0x1B62 DUP3 PUSH2 0x1B69 JUMP JUMPDEST SWAP1 POP SWAP2 SWAP1 POP JUMP JUMPDEST PUSH1 0x0 PUSH2 0x1B74 DUP3 PUSH2 0x1B1B JUMP JUMPDEST SWAP1 POP SWAP2 SWAP1 POP JUMP JUMPDEST DUP3 DUP2 DUP4 CALLDATACOPY PUSH1 0x0 DUP4 DUP4 ADD MSTORE POP POP POP JUMP JUMPDEST PUSH1 0x0 JUMPDEST DUP4 DUP2 LT ISZERO PUSH2 0x1BA8 JUMPI DUP1 DUP3 ADD MLOAD DUP2 DUP5 ADD MSTORE PUSH1 0x20 DUP2 ADD SWAP1 POP PUSH2 0x1B8D JUMP JUMPDEST DUP4 DUP2 GT ISZERO PUSH2 0x1BB7 JUMPI PUSH1 0x0 DUP5 DUP5 ADD MSTORE JUMPDEST POP POP POP POP JUMP JUMPDEST PUSH1 0x0 PUSH1 0x2 DUP3 DIV SWAP1 POP PUSH1 0x1 DUP3 AND DUP1 PUSH2 0x1BD5 JUMPI PUSH1 0x7F DUP3 AND SWAP2 POP JUMPDEST PUSH1 0x20 DUP3 LT DUP2 EQ ISZERO PUSH2 0x1BE9 JUMPI PUSH2 0x1BE8 PUSH2 0x1C4F JUMP JUMPDEST JUMPDEST POP SWAP2 SWAP1 POP JUMP JUMPDEST PUSH2 0x1BF8 DUP3 PUSH2 0x1CC1 JUMP JUMPDEST DUP2 ADD DUP2 DUP2 LT PUSH8 0xFFFFFFFFFFFFFFFF DUP3 GT OR ISZERO PUSH2 0x1C17 JUMPI PUSH2 0x1C16 PUSH2 0x1C7E JUMP JUMPDEST JUMPDEST DUP1 PUSH1 0x40 MSTORE POP POP POP JUMP JUMPDEST PUSH32 0x4E487B7100000000000000000000000000000000000000000000000000000000 PUSH1 0x0 MSTORE PUSH1 0x11 PUSH1 0x4 MSTORE PUSH1 0x24 PUSH1 0x0 REVERT JUMPDEST PUSH32 0x4E487B7100000000000000000000000000000000000000000000000000000000 PUSH1 0x0 MSTORE PUSH1 0x22 PUSH1 0x4 MSTORE PUSH1 0x24 PUSH1 0x0 REVERT JUMPDEST PUSH32 0x4E487B7100000000000000000000000000000000000000000000000000000000 PUSH1 0x0 MSTORE PUSH1 0x41 PUSH1 0x4 MSTORE PUSH1 0x24 PUSH1 0x0 REVERT JUMPDEST PUSH1 0x0 DUP1 REVERT JUMPDEST PUSH1 0x0 DUP1 REVERT JUMPDEST PUSH1 0x0 DUP1 REVERT JUMPDEST PUSH1 0x0 DUP1 REVERT JUMPDEST PUSH1 0x0 PUSH1 0x1F NOT PUSH1 0x1F DUP4 ADD AND SWAP1 POP SWAP2 SWAP1 POP JUMP JUMPDEST PUSH32 0x4F776E61626C653A206E6577206F776E657220697320746865207A65726F2061 PUSH1 0x0 DUP3 ADD MSTORE PUSH32 0x6464726573730000000000000000000000000000000000000000000000000000 PUSH1 0x20 DUP3 ADD MSTORE POP JUMP JUMPDEST PUSH32 0x4F776E61626C653A2063616C6C6572206973206E6F7420746865206F776E6572 PUSH1 0x0 DUP3 ADD MSTORE POP JUMP JUMPDEST PUSH32 0x416D6F756E7420457863656564732042616C616E636500000000000000000000 PUSH1 0x0 DUP3 ADD MSTORE POP JUMP JUMPDEST PUSH32 0x416D6F756E74204578636565647320546F74616C2042616C616E636500000000 PUSH1 0x0 DUP3 ADD MSTORE POP JUMP JUMPDEST PUSH32 0x5261772044617461206E6F742073746F72656421000000000000000000000000 PUSH1 0x0 DUP3 ADD MSTORE POP JUMP JUMPDEST PUSH32 0x56616C7565206D7573742062652067726561746F72207468616E203000000000 PUSH1 0x0 DUP3 ADD MSTORE POP JUMP JUMPDEST PUSH2 0x1DF7 DUP2 PUSH2 0x1AF3 JUMP JUMPDEST DUP2 EQ PUSH2 0x1E02 JUMPI PUSH1 0x0 DUP1 REVERT JUMPDEST POP JUMP JUMPDEST PUSH2 0x1E0E DUP2 PUSH2 0x1B05 JUMP JUMPDEST DUP2 EQ PUSH2 0x1E19 JUMPI PUSH1 0x0 DUP1 REVERT JUMPDEST POP JUMP JUMPDEST PUSH2 0x1E25 DUP2 PUSH2 0x1B11 JUMP JUMPDEST DUP2 EQ PUSH2 0x1E30 JUMPI PUSH1 0x0 DUP1 REVERT JUMPDEST POP JUMP JUMPDEST PUSH2 0x1E3C DUP2 PUSH2 0x1B3B JUMP JUMPDEST DUP2 EQ PUSH2 0x1E47 JUMPI PUSH1 0x0 DUP1 REVERT JUMPDEST POP JUMP INVALID LOG2 PUSH5 0x6970667358 0x22 SLT KECCAK256 ADDRESS GT 0x2B CREATE 0xA5 0xDA PUSH25 0x8FE2BB32F850E96C27944081DFB0A7B061EA53F05C8A910B6 PUSH5 0x736F6C6343 STOP ADDMOD SMOD STOP CALLER "
				},
				"gasEstimates": {
					"creation": {
						"codeDepositCost": "1561600",
						"executionCost": "infinite",
						"totalCost": "infinite"
					},
					"external": {
						"fetch_dp_value(address,string)": "infinite",
						"getStakeValue(address,string,string)": "infinite",
						"mostFavoredDataOracle(address,string)": "infinite",
						"owner()": "2589",
						"rawDataStore(address)": "infinite",
						"renounceOwnership()": "30466",
						"return_self_addr()": "430",
						"setRawData(address,bytes32,bool)": "71773",
						"token()": "2688",
						"transferOwnership(address)": "30813",
						"userDataOracle(address,string,string)": "infinite",
						"validateDataPoint(address,string,string,uint256)": "infinite",
						"validatorSplits(address,address,string,string)": "infinite",
						"withdrawMoney(address,string,string,uint256)": "infinite"
					}
				},
				"methodIdentifiers": {
					"fetch_dp_value(address,string)": "e2f2c1a5",
					"getStakeValue(address,string,string)": "e6d56846",
					"mostFavoredDataOracle(address,string)": "bf85f3ed",
					"owner()": "8da5cb5b",
					"rawDataStore(address)": "0c3a9008",
					"renounceOwnership()": "715018a6",
					"return_self_addr()": "848c3c5a",
					"setRawData(address,bytes32,bool)": "4f605504",
					"token()": "fc0c546a",
					"transferOwnership(address)": "f2fde38b",
					"userDataOracle(address,string,string)": "de7f6b9e",
					"validateDataPoint(address,string,string,uint256)": "7c360c94",
					"validatorSplits(address,address,string,string)": "9cc6f67d",
					"withdrawMoney(address,string,string,uint256)": "94728f57"
				}
			},
			"storageLayout": {
				"storage": [
					{
						"astId": 7,
						"contract": "contracts/KaggleDataOracle.sol:KaggleDataOracle",
						"label": "_owner",
						"offset": 0,
						"slot": "0",
						"type": "t_address"
					},
					{
						"astId": 238,
						"contract": "contracts/KaggleDataOracle.sol:KaggleDataOracle",
						"label": "userDataOracle",
						"offset": 0,
						"slot": "1",
						"type": "t_mapping(t_address,t_mapping(t_string_memory_ptr,t_mapping(t_string_memory_ptr,t_uint256)))"
					},
					{
						"astId": 248,
						"contract": "contracts/KaggleDataOracle.sol:KaggleDataOracle",
						"label": "validatorSplits",
						"offset": 0,
						"slot": "2",
						"type": "t_mapping(t_address,t_mapping(t_address,t_mapping(t_string_memory_ptr,t_mapping(t_string_memory_ptr,t_uint256))))"
					},
					{
						"astId": 255,
						"contract": "contracts/KaggleDataOracle.sol:KaggleDataOracle",
						"label": "mostFavoredDataOracle",
						"offset": 0,
						"slot": "3",
						"type": "t_mapping(t_address,t_mapping(t_string_memory_ptr,t_struct(MaxValue)230_storage))"
					},
					{
						"astId": 260,
						"contract": "contracts/KaggleDataOracle.sol:KaggleDataOracle",
						"label": "rawDataStore",
						"offset": 0,
						"slot": "4",
						"type": "t_mapping(t_address,t_struct(RawData)225_storage)"
					},
					{
						"astId": 263,
						"contract": "contracts/KaggleDataOracle.sol:KaggleDataOracle",
						"label": "token",
						"offset": 0,
						"slot": "5",
						"type": "t_contract(IERC20)190"
					}
				],
				"types": {
					"t_address": {
						"encoding": "inplace",
						"label": "address",
						"numberOfBytes": "20"
					},
					"t_bool": {
						"encoding": "inplace",
						"label": "bool",
						"numberOfBytes": "1"
					},
					"t_bytes32": {
						"encoding": "inplace",
						"label": "bytes32",
						"numberOfBytes": "32"
					},
					"t_contract(IERC20)190": {
						"encoding": "inplace",
						"label": "contract IERC20",
						"numberOfBytes": "20"
					},
					"t_mapping(t_address,t_mapping(t_address,t_mapping(t_string_memory_ptr,t_mapping(t_string_memory_ptr,t_uint256))))": {
						"encoding": "mapping",
						"key": "t_address",
						"label": "mapping(address => mapping(address => mapping(string => mapping(string => uint256))))",
						"numberOfBytes": "32",
						"value": "t_mapping(t_address,t_mapping(t_string_memory_ptr,t_mapping(t_string_memory_ptr,t_uint256)))"
					},
					"t_mapping(t_address,t_mapping(t_string_memory_ptr,t_mapping(t_string_memory_ptr,t_uint256)))": {
						"encoding": "mapping",
						"key": "t_address",
						"label": "mapping(address => mapping(string => mapping(string => uint256)))",
						"numberOfBytes": "32",
						"value": "t_mapping(t_string_memory_ptr,t_mapping(t_string_memory_ptr,t_uint256))"
					},
					"t_mapping(t_address,t_mapping(t_string_memory_ptr,t_struct(MaxValue)230_storage))": {
						"encoding": "mapping",
						"key": "t_address",
						"label": "mapping(address => mapping(string => struct KaggleDataOracle.MaxValue))",
						"numberOfBytes": "32",
						"value": "t_mapping(t_string_memory_ptr,t_struct(MaxValue)230_storage)"
					},
					"t_mapping(t_address,t_struct(RawData)225_storage)": {
						"encoding": "mapping",
						"key": "t_address",
						"label": "mapping(address => struct KaggleDataOracle.RawData)",
						"numberOfBytes": "32",
						"value": "t_struct(RawData)225_storage"
					},
					"t_mapping(t_string_memory_ptr,t_mapping(t_string_memory_ptr,t_uint256))": {
						"encoding": "mapping",
						"key": "t_string_memory_ptr",
						"label": "mapping(string => mapping(string => uint256))",
						"numberOfBytes": "32",
						"value": "t_mapping(t_string_memory_ptr,t_uint256)"
					},
					"t_mapping(t_string_memory_ptr,t_struct(MaxValue)230_storage)": {
						"encoding": "mapping",
						"key": "t_string_memory_ptr",
						"label": "mapping(string => struct KaggleDataOracle.MaxValue)",
						"numberOfBytes": "32",
						"value": "t_struct(MaxValue)230_storage"
					},
					"t_mapping(t_string_memory_ptr,t_uint256)": {
						"encoding": "mapping",
						"key": "t_string_memory_ptr",
						"label": "mapping(string => uint256)",
						"numberOfBytes": "32",
						"value": "t_uint256"
					},
					"t_string_memory_ptr": {
						"encoding": "bytes",
						"label": "string",
						"numberOfBytes": "32"
					},
					"t_string_storage": {
						"encoding": "bytes",
						"label": "string",
						"numberOfBytes": "32"
					},
					"t_struct(MaxValue)230_storage": {
						"encoding": "inplace",
						"label": "struct KaggleDataOracle.MaxValue",
						"members": [
							{
								"astId": 227,
								"contract": "contracts/KaggleDataOracle.sol:KaggleDataOracle",
								"label": "attributeValue",
								"offset": 0,
								"slot": "0",
								"type": "t_string_storage"
							},
							{
								"astId": 229,
								"contract": "contracts/KaggleDataOracle.sol:KaggleDataOracle",
								"label": "stakedAmount",
								"offset": 0,
								"slot": "1",
								"type": "t_uint256"
							}
						],
						"numberOfBytes": "64"
					},
					"t_struct(RawData)225_storage": {
						"encoding": "inplace",
						"label": "struct KaggleDataOracle.RawData",
						"members": [
							{
								"astId": 220,
								"contract": "contracts/KaggleDataOracle.sol:KaggleDataOracle",
								"label": "ipfs",
								"offset": 0,
								"slot": "0",
								"type": "t_bytes32"
							},
							{
								"astId": 222,
								"contract": "contracts/KaggleDataOracle.sol:KaggleDataOracle",
								"label": "isActive",
								"offset": 0,
								"slot": "1",
								"type": "t_bool"
							},
							{
								"astId": 224,
								"contract": "contracts/KaggleDataOracle.sol:KaggleDataOracle",
								"label": "verifiedBy",
								"offset": 1,
								"slot": "1",
								"type": "t_address"
							}
						],
						"numberOfBytes": "64"
					},
					"t_uint256": {
						"encoding": "inplace",
						"label": "uint256",
						"numberOfBytes": "32"
					}
				}
			},
			"userdoc": {
				"kind": "user",
				"methods": {},
				"version": 1
			}
		}
	}
}