{
	"data": {
		"bytecode": {
			"linkReferences": {},
			"object": "6101406040523480156200001257600080fd5b5060405162001155380380620011558339818101604052810190620000389190620001b1565b818160008280519060200120905060008280519060200120905060007f8b73c3c69bb8fe3d512ecc4cf759cc79239f7b179b0ffacaa9a75d522b39400f90508260e081815250508161010081815250504660a08181525050620000a3818484620000f760201b60201c565b608081815250503073ffffffffffffffffffffffffffffffffffffffff1660c08173ffffffffffffffffffffffffffffffffffffffff1660601b81525050806101208181525050505050505050506200042d565b600083838346306040516020016200011495949392919062000269565b6040516020818303038152906040528051906020012090509392505050565b60006200014a6200014484620002ef565b620002c6565b9050828152602081018484840111156200016957620001686200040d565b5b620001768482856200036d565b509392505050565b600082601f83011262000196576200019562000408565b5b8151620001a884826020860162000133565b91505092915050565b60008060408385031215620001cb57620001ca62000417565b5b600083015167ffffffffffffffff811115620001ec57620001eb62000412565b5b620001fa858286016200017e565b925050602083015167ffffffffffffffff8111156200021e576200021d62000412565b5b6200022c858286016200017e565b9150509250929050565b620002418162000325565b82525050565b620002528162000339565b82525050565b620002638162000363565b82525050565b600060a08201905062000280600083018862000247565b6200028f602083018762000247565b6200029e604083018662000247565b620002ad606083018562000258565b620002bc608083018462000236565b9695505050505050565b6000620002d2620002e5565b9050620002e08282620003a3565b919050565b6000604051905090565b600067ffffffffffffffff8211156200030d576200030c620003d9565b5b62000318826200041c565b9050602081019050919050565b6000620003328262000343565b9050919050565b6000819050919050565b600073ffffffffffffffffffffffffffffffffffffffff82169050919050565b6000819050919050565b60005b838110156200038d57808201518184015260208101905062000370565b838111156200039d576000848401525b50505050565b620003ae826200041c565b810181811067ffffffffffffffff82111715620003d057620003cf620003d9565b5b80604052505050565b7f4e487b7100000000000000000000000000000000000000000000000000000000600052604160045260246000fd5b600080fd5b600080fd5b600080fd5b600080fd5b6000601f19601f8301169050919050565b60805160a05160c05160601c60e0516101005161012051610cd56200048060003960006103bd015260006103ff015260006103de0152600061031301526000610369015260006103920152610cd56000f3fe608060405234801561001057600080fd5b506004361061002b5760003560e01c806330f89e2914610030575b600080fd5b61004a6004803603810190610045919061073a565b610060565b6040516100579190610899565b60405180910390f35b600061006b82610072565b9050919050565b60008061007e83610096565b905061008e81846060015161010e565b915050919050565b60006101077f9980e35fd3e98fb83ed8ba021944828eb14149855296a1d36bc6313f56ef5aa683600001518051906020012084602001518051906020012085604001516040516020016100ec94939291906108b4565b60405160208183030381529060405280519060200120610135565b9050919050565b600080600061011d858561014f565b9150915061012a816101a1565b819250505092915050565b600061014861014261030f565b83610429565b9050919050565b6000806041835114156101915760008060006020860151925060408601519150606086015160001a90506101858782858561045c565b9450945050505061019a565b60006002915091505b9250929050565b600060048111156101b5576101b4610b31565b5b8160048111156101c8576101c7610b31565b5b14156101d35761030c565b600160048111156101e7576101e6610b31565b5b8160048111156101fa576101f9610b31565b5b141561023b576040517f08c379a000000000000000000000000000000000000000000000000000000000815260040161023290610991565b60405180910390fd5b6002600481111561024f5761024e610b31565b5b81600481111561026257610261610b31565b5b14156102a3576040517f08c379a000000000000000000000000000000000000000000000000000000000815260040161029a906109b1565b60405180910390fd5b600360048111156102b7576102b6610b31565b5b8160048111156102ca576102c9610b31565b5b141561030b576040517f08c379a0000000000000000000000000000000000000000000000000000000008152600401610302906109d1565b60405180910390fd5b5b50565b60007f000000000000000000000000000000000000000000000000000000000000000073ffffffffffffffffffffffffffffffffffffffff163073ffffffffffffffffffffffffffffffffffffffff1614801561038b57507f000000000000000000000000000000000000000000000000000000000000000046145b156103b8577f00000000000000000000000000000000000000000000000000000000000000009050610426565b6104237f00000000000000000000000000000000000000000000000000000000000000007f00000000000000000000000000000000000000000000000000000000000000007f000000000000000000000000000000000000000000000000000000000000000061053f565b90505b90565b6000828260405160200161043e929190610862565b60405160208183030381529060405280519060200120905092915050565b6000807f7fffffffffffffffffffffffffffffff5d576e7357a4501ddfe92f46681b20a08360001c1115610497576000600391509150610536565b6000600187878787604051600081526020016040526040516104bc949392919061094c565b6020604051602081039080840390855afa1580156104de573d6000803e3d6000fd5b505050602060405103519050600073ffffffffffffffffffffffffffffffffffffffff168173ffffffffffffffffffffffffffffffffffffffff16141561052d57600060019250925050610536565b80600092509250505b94509492505050565b6000838383463060405160200161055a9594939291906108f9565b6040516020818303038152906040528051906020012090509392505050565b600061058c61058784610a16565b6109f1565b9050828152602081018484840111156105a8576105a7610b9e565b5b6105b3848285610ae7565b509392505050565b60006105ce6105c984610a47565b6109f1565b9050828152602081018484840111156105ea576105e9610b9e565b5b6105f5848285610ae7565b509392505050565b60008135905061060c81610c88565b92915050565b600082601f83011261062757610626610b8f565b5b8135610637848260208601610579565b91505092915050565b600082601f83011261065557610654610b8f565b5b81356106658482602086016105bb565b91505092915050565b60006080828403121561068457610683610b94565b5b61068e60806109f1565b9050600082013567ffffffffffffffff8111156106ae576106ad610b99565b5b6106ba84828501610640565b600083015250602082013567ffffffffffffffff8111156106de576106dd610b99565b5b6106ea84828501610640565b60208301525060406106fe848285016105fd565b604083015250606082013567ffffffffffffffff81111561072257610721610b99565b5b61072e84828501610612565b60608301525092915050565b6000602082840312156107505761074f610ba8565b5b600082013567ffffffffffffffff81111561076e5761076d610ba3565b5b61077a8482850161066e565b91505092915050565b61078c81610a94565b82525050565b61079b81610aa6565b82525050565b6107b26107ad82610aa6565b610b27565b82525050565b60006107c5601883610a78565b91506107d082610bbe565b602082019050919050565b60006107e8601f83610a78565b91506107f382610be7565b602082019050919050565b600061080b600283610a89565b915061081682610c10565b600282019050919050565b600061082e602283610a78565b915061083982610c39565b604082019050919050565b61084d81610ad0565b82525050565b61085c81610ada565b82525050565b600061086d826107fe565b915061087982856107a1565b60208201915061088982846107a1565b6020820191508190509392505050565b60006020820190506108ae6000830184610783565b92915050565b60006080820190506108c96000830187610792565b6108d66020830186610792565b6108e36040830185610792565b6108f06060830184610783565b95945050505050565b600060a08201905061090e6000830188610792565b61091b6020830187610792565b6109286040830186610792565b6109356060830185610844565b6109426080830184610783565b9695505050505050565b60006080820190506109616000830187610792565b61096e6020830186610853565b61097b6040830185610792565b6109886060830184610792565b95945050505050565b600060208201905081810360008301526109aa816107b8565b9050919050565b600060208201905081810360008301526109ca816107db565b9050919050565b600060208201905081810360008301526109ea81610821565b9050919050565b60006109fb610a0c565b9050610a078282610af6565b919050565b6000604051905090565b600067ffffffffffffffff821115610a3157610a30610b60565b5b610a3a82610bad565b9050602081019050919050565b600067ffffffffffffffff821115610a6257610a61610b60565b5b610a6b82610bad565b9050602081019050919050565b600082825260208201905092915050565b600081905092915050565b6000610a9f82610ab0565b9050919050565b6000819050919050565b600073ffffffffffffffffffffffffffffffffffffffff82169050919050565b6000819050919050565b600060ff82169050919050565b82818337600083830152505050565b610aff82610bad565b810181811067ffffffffffffffff82111715610b1e57610b1d610b60565b5b80604052505050565b6000819050919050565b7f4e487b7100000000000000000000000000000000000000000000000000000000600052602160045260246000fd5b7f4e487b7100000000000000000000000000000000000000000000000000000000600052604160045260246000fd5b600080fd5b600080fd5b600080fd5b600080fd5b600080fd5b600080fd5b6000601f19601f8301169050919050565b7f45434453413a20696e76616c6964207369676e61747572650000000000000000600082015250565b7f45434453413a20696e76616c6964207369676e6174757265206c656e67746800600082015250565b7f1901000000000000000000000000000000000000000000000000000000000000600082015250565b7f45434453413a20696e76616c6964207369676e6174757265202773272076616c60008201527f7565000000000000000000000000000000000000000000000000000000000000602082015250565b610c9181610a94565b8114610c9c57600080fd5b5056fea2646970667358221220cea85e36adfa4af8daf0dcadf5cd36f71e19f9b9182ab612ed535a195638231064736f6c63430008070033",
			"opcodes": "PUSH2 0x140 PUSH1 0x40 MSTORE CALLVALUE DUP1 ISZERO PUSH3 0x12 JUMPI PUSH1 0x0 DUP1 REVERT JUMPDEST POP PUSH1 0x40 MLOAD PUSH3 0x1155 CODESIZE SUB DUP1 PUSH3 0x1155 DUP4 CODECOPY DUP2 DUP2 ADD PUSH1 0x40 MSTORE DUP2 ADD SWAP1 PUSH3 0x38 SWAP2 SWAP1 PUSH3 0x1B1 JUMP JUMPDEST DUP2 DUP2 PUSH1 0x0 DUP3 DUP1 MLOAD SWAP1 PUSH1 0x20 ADD KECCAK256 SWAP1 POP PUSH1 0x0 DUP3 DUP1 MLOAD SWAP1 PUSH1 0x20 ADD KECCAK256 SWAP1 POP PUSH1 0x0 PUSH32 0x8B73C3C69BB8FE3D512ECC4CF759CC79239F7B179B0FFACAA9A75D522B39400F SWAP1 POP DUP3 PUSH1 0xE0 DUP2 DUP2 MSTORE POP POP DUP2 PUSH2 0x100 DUP2 DUP2 MSTORE POP POP CHAINID PUSH1 0xA0 DUP2 DUP2 MSTORE POP POP PUSH3 0xA3 DUP2 DUP5 DUP5 PUSH3 0xF7 PUSH1 0x20 SHL PUSH1 0x20 SHR JUMP JUMPDEST PUSH1 0x80 DUP2 DUP2 MSTORE POP POP ADDRESS PUSH20 0xFFFFFFFFFFFFFFFFFFFFFFFFFFFFFFFFFFFFFFFF AND PUSH1 0xC0 DUP2 PUSH20 0xFFFFFFFFFFFFFFFFFFFFFFFFFFFFFFFFFFFFFFFF AND PUSH1 0x60 SHL DUP2 MSTORE POP POP DUP1 PUSH2 0x120 DUP2 DUP2 MSTORE POP POP POP POP POP POP POP POP POP PUSH3 0x42D JUMP JUMPDEST PUSH1 0x0 DUP4 DUP4 DUP4 CHAINID ADDRESS PUSH1 0x40 MLOAD PUSH1 0x20 ADD PUSH3 0x114 SWAP6 SWAP5 SWAP4 SWAP3 SWAP2 SWAP1 PUSH3 0x269 JUMP JUMPDEST PUSH1 0x40 MLOAD PUSH1 0x20 DUP2 DUP4 SUB SUB DUP2 MSTORE SWAP1 PUSH1 0x40 MSTORE DUP1 MLOAD SWAP1 PUSH1 0x20 ADD KECCAK256 SWAP1 POP SWAP4 SWAP3 POP POP POP JUMP JUMPDEST PUSH1 0x0 PUSH3 0x14A PUSH3 0x144 DUP5 PUSH3 0x2EF JUMP JUMPDEST PUSH3 0x2C6 JUMP JUMPDEST SWAP1 POP DUP3 DUP2 MSTORE PUSH1 0x20 DUP2 ADD DUP5 DUP5 DUP5 ADD GT ISZERO PUSH3 0x169 JUMPI PUSH3 0x168 PUSH3 0x40D JUMP JUMPDEST JUMPDEST PUSH3 0x176 DUP5 DUP3 DUP6 PUSH3 0x36D JUMP JUMPDEST POP SWAP4 SWAP3 POP POP POP JUMP JUMPDEST PUSH1 0x0 DUP3 PUSH1 0x1F DUP4 ADD SLT PUSH3 0x196 JUMPI PUSH3 0x195 PUSH3 0x408 JUMP JUMPDEST JUMPDEST DUP2 MLOAD PUSH3 0x1A8 DUP5 DUP3 PUSH1 0x20 DUP7 ADD PUSH3 0x133 JUMP JUMPDEST SWAP2 POP POP SWAP3 SWAP2 POP POP JUMP JUMPDEST PUSH1 0x0 DUP1 PUSH1 0x40 DUP4 DUP6 SUB SLT ISZERO PUSH3 0x1CB JUMPI PUSH3 0x1CA PUSH3 0x417 JUMP JUMPDEST JUMPDEST PUSH1 0x0 DUP4 ADD MLOAD PUSH8 0xFFFFFFFFFFFFFFFF DUP2 GT ISZERO PUSH3 0x1EC JUMPI PUSH3 0x1EB PUSH3 0x412 JUMP JUMPDEST JUMPDEST PUSH3 0x1FA DUP6 DUP3 DUP7 ADD PUSH3 0x17E JUMP JUMPDEST SWAP3 POP POP PUSH1 0x20 DUP4 ADD MLOAD PUSH8 0xFFFFFFFFFFFFFFFF DUP2 GT ISZERO PUSH3 0x21E JUMPI PUSH3 0x21D PUSH3 0x412 JUMP JUMPDEST JUMPDEST PUSH3 0x22C DUP6 DUP3 DUP7 ADD PUSH3 0x17E JUMP JUMPDEST SWAP2 POP POP SWAP3 POP SWAP3 SWAP1 POP JUMP JUMPDEST PUSH3 0x241 DUP2 PUSH3 0x325 JUMP JUMPDEST DUP3 MSTORE POP POP JUMP JUMPDEST PUSH3 0x252 DUP2 PUSH3 0x339 JUMP JUMPDEST DUP3 MSTORE POP POP JUMP JUMPDEST PUSH3 0x263 DUP2 PUSH3 0x363 JUMP JUMPDEST DUP3 MSTORE POP POP JUMP JUMPDEST PUSH1 0x0 PUSH1 0xA0 DUP3 ADD SWAP1 POP PUSH3 0x280 PUSH1 0x0 DUP4 ADD DUP9 PUSH3 0x247 JUMP JUMPDEST PUSH3 0x28F PUSH1 0x20 DUP4 ADD DUP8 PUSH3 0x247 JUMP JUMPDEST PUSH3 0x29E PUSH1 0x40 DUP4 ADD DUP7 PUSH3 0x247 JUMP JUMPDEST PUSH3 0x2AD PUSH1 0x60 DUP4 ADD DUP6 PUSH3 0x258 JUMP JUMPDEST PUSH3 0x2BC PUSH1 0x80 DUP4 ADD DUP5 PUSH3 0x236 JUMP JUMPDEST SWAP7 SWAP6 POP POP POP POP POP POP JUMP JUMPDEST PUSH1 0x0 PUSH3 0x2D2 PUSH3 0x2E5 JUMP JUMPDEST SWAP1 POP PUSH3 0x2E0 DUP3 DUP3 PUSH3 0x3A3 JUMP JUMPDEST SWAP2 SWAP1 POP JUMP JUMPDEST PUSH1 0x0 PUSH1 0x40 MLOAD SWAP1 POP SWAP1 JUMP JUMPDEST PUSH1 0x0 PUSH8 0xFFFFFFFFFFFFFFFF DUP3 GT ISZERO PUSH3 0x30D JUMPI PUSH3 0x30C PUSH3 0x3D9 JUMP JUMPDEST JUMPDEST PUSH3 0x318 DUP3 PUSH3 0x41C JUMP JUMPDEST SWAP1 POP PUSH1 0x20 DUP2 ADD SWAP1 POP SWAP2 SWAP1 POP JUMP JUMPDEST PUSH1 0x0 PUSH3 0x332 DUP3 PUSH3 0x343 JUMP JUMPDEST SWAP1 POP SWAP2 SWAP1 POP JUMP JUMPDEST PUSH1 0x0 DUP2 SWAP1 POP SWAP2 SWAP1 POP JUMP JUMPDEST PUSH1 0x0 PUSH20 0xFFFFFFFFFFFFFFFFFFFFFFFFFFFFFFFFFFFFFFFF DUP3 AND SWAP1 POP SWAP2 SWAP1 POP JUMP JUMPDEST PUSH1 0x0 DUP2 SWAP1 POP SWAP2 SWAP1 POP JUMP JUMPDEST PUSH1 0x0 JUMPDEST DUP4 DUP2 LT ISZERO PUSH3 0x38D JUMPI DUP1 DUP3 ADD MLOAD DUP2 DUP5 ADD MSTORE PUSH1 0x20 DUP2 ADD SWAP1 POP PUSH3 0x370 JUMP JUMPDEST DUP4 DUP2 GT ISZERO PUSH3 0x39D JUMPI PUSH1 0x0 DUP5 DUP5 ADD MSTORE JUMPDEST POP POP POP POP JUMP JUMPDEST PUSH3 0x3AE DUP3 PUSH3 0x41C JUMP JUMPDEST DUP2 ADD DUP2 DUP2 LT PUSH8 0xFFFFFFFFFFFFFFFF DUP3 GT OR ISZERO PUSH3 0x3D0 JUMPI PUSH3 0x3CF PUSH3 0x3D9 JUMP JUMPDEST JUMPDEST DUP1 PUSH1 0x40 MSTORE POP POP POP JUMP JUMPDEST PUSH32 0x4E487B7100000000000000000000000000000000000000000000000000000000 PUSH1 0x0 MSTORE PUSH1 0x41 PUSH1 0x4 MSTORE PUSH1 0x24 PUSH1 0x0 REVERT JUMPDEST PUSH1 0x0 DUP1 REVERT JUMPDEST PUSH1 0x0 DUP1 REVERT JUMPDEST PUSH1 0x0 DUP1 REVERT JUMPDEST PUSH1 0x0 DUP1 REVERT JUMPDEST PUSH1 0x0 PUSH1 0x1F NOT PUSH1 0x1F DUP4 ADD AND SWAP1 POP SWAP2 SWAP1 POP JUMP JUMPDEST PUSH1 0x80 MLOAD PUSH1 0xA0 MLOAD PUSH1 0xC0 MLOAD PUSH1 0x60 SHR PUSH1 0xE0 MLOAD PUSH2 0x100 MLOAD PUSH2 0x120 MLOAD PUSH2 0xCD5 PUSH3 0x480 PUSH1 0x0 CODECOPY PUSH1 0x0 PUSH2 0x3BD ADD MSTORE PUSH1 0x0 PUSH2 0x3FF ADD MSTORE PUSH1 0x0 PUSH2 0x3DE ADD MSTORE PUSH1 0x0 PUSH2 0x313 ADD MSTORE PUSH1 0x0 PUSH2 0x369 ADD MSTORE PUSH1 0x0 PUSH2 0x392 ADD MSTORE PUSH2 0xCD5 PUSH1 0x0 RETURN INVALID PUSH1 0x80 PUSH1 0x40 MSTORE CALLVALUE DUP1 ISZERO PUSH2 0x10 JUMPI PUSH1 0x0 DUP1 REVERT JUMPDEST POP PUSH1 0x4 CALLDATASIZE LT PUSH2 0x2B JUMPI PUSH1 0x0 CALLDATALOAD PUSH1 0xE0 SHR DUP1 PUSH4 0x30F89E29 EQ PUSH2 0x30 JUMPI JUMPDEST PUSH1 0x0 DUP1 REVERT JUMPDEST PUSH2 0x4A PUSH1 0x4 DUP1 CALLDATASIZE SUB DUP2 ADD SWAP1 PUSH2 0x45 SWAP2 SWAP1 PUSH2 0x73A JUMP JUMPDEST PUSH2 0x60 JUMP JUMPDEST PUSH1 0x40 MLOAD PUSH2 0x57 SWAP2 SWAP1 PUSH2 0x899 JUMP JUMPDEST PUSH1 0x40 MLOAD DUP1 SWAP2 SUB SWAP1 RETURN JUMPDEST PUSH1 0x0 PUSH2 0x6B DUP3 PUSH2 0x72 JUMP JUMPDEST SWAP1 POP SWAP2 SWAP1 POP JUMP JUMPDEST PUSH1 0x0 DUP1 PUSH2 0x7E DUP4 PUSH2 0x96 JUMP JUMPDEST SWAP1 POP PUSH2 0x8E DUP2 DUP5 PUSH1 0x60 ADD MLOAD PUSH2 0x10E JUMP JUMPDEST SWAP2 POP POP SWAP2 SWAP1 POP JUMP JUMPDEST PUSH1 0x0 PUSH2 0x107 PUSH32 0x9980E35FD3E98FB83ED8BA021944828EB14149855296A1D36BC6313F56EF5AA6 DUP4 PUSH1 0x0 ADD MLOAD DUP1 MLOAD SWAP1 PUSH1 0x20 ADD KECCAK256 DUP5 PUSH1 0x20 ADD MLOAD DUP1 MLOAD SWAP1 PUSH1 0x20 ADD KECCAK256 DUP6 PUSH1 0x40 ADD MLOAD PUSH1 0x40 MLOAD PUSH1 0x20 ADD PUSH2 0xEC SWAP5 SWAP4 SWAP3 SWAP2 SWAP1 PUSH2 0x8B4 JUMP JUMPDEST PUSH1 0x40 MLOAD PUSH1 0x20 DUP2 DUP4 SUB SUB DUP2 MSTORE SWAP1 PUSH1 0x40 MSTORE DUP1 MLOAD SWAP1 PUSH1 0x20 ADD KECCAK256 PUSH2 0x135 JUMP JUMPDEST SWAP1 POP SWAP2 SWAP1 POP JUMP JUMPDEST PUSH1 0x0 DUP1 PUSH1 0x0 PUSH2 0x11D DUP6 DUP6 PUSH2 0x14F JUMP JUMPDEST SWAP2 POP SWAP2 POP PUSH2 0x12A DUP2 PUSH2 0x1A1 JUMP JUMPDEST DUP2 SWAP3 POP POP POP SWAP3 SWAP2 POP POP JUMP JUMPDEST PUSH1 0x0 PUSH2 0x148 PUSH2 0x142 PUSH2 0x30F JUMP JUMPDEST DUP4 PUSH2 0x429 JUMP JUMPDEST SWAP1 POP SWAP2 SWAP1 POP JUMP JUMPDEST PUSH1 0x0 DUP1 PUSH1 0x41 DUP4 MLOAD EQ ISZERO PUSH2 0x191 JUMPI PUSH1 0x0 DUP1 PUSH1 0x0 PUSH1 0x20 DUP7 ADD MLOAD SWAP3 POP PUSH1 0x40 DUP7 ADD MLOAD SWAP2 POP PUSH1 0x60 DUP7 ADD MLOAD PUSH1 0x0 BYTE SWAP1 POP PUSH2 0x185 DUP8 DUP3 DUP6 DUP6 PUSH2 0x45C JUMP JUMPDEST SWAP5 POP SWAP5 POP POP POP POP PUSH2 0x19A JUMP JUMPDEST PUSH1 0x0 PUSH1 0x2 SWAP2 POP SWAP2 POP JUMPDEST SWAP3 POP SWAP3 SWAP1 POP JUMP JUMPDEST PUSH1 0x0 PUSH1 0x4 DUP2 GT ISZERO PUSH2 0x1B5 JUMPI PUSH2 0x1B4 PUSH2 0xB31 JUMP JUMPDEST JUMPDEST DUP2 PUSH1 0x4 DUP2 GT ISZERO PUSH2 0x1C8 JUMPI PUSH2 0x1C7 PUSH2 0xB31 JUMP JUMPDEST JUMPDEST EQ ISZERO PUSH2 0x1D3 JUMPI PUSH2 0x30C JUMP JUMPDEST PUSH1 0x1 PUSH1 0x4 DUP2 GT ISZERO PUSH2 0x1E7 JUMPI PUSH2 0x1E6 PUSH2 0xB31 JUMP JUMPDEST JUMPDEST DUP2 PUSH1 0x4 DUP2 GT ISZERO PUSH2 0x1FA JUMPI PUSH2 0x1F9 PUSH2 0xB31 JUMP JUMPDEST JUMPDEST EQ ISZERO PUSH2 0x23B JUMPI PUSH1 0x40 MLOAD PUSH32 0x8C379A000000000000000000000000000000000000000000000000000000000 DUP2 MSTORE PUSH1 0x4 ADD PUSH2 0x232 SWAP1 PUSH2 0x991 JUMP JUMPDEST PUSH1 0x40 MLOAD DUP1 SWAP2 SUB SWAP1 REVERT JUMPDEST PUSH1 0x2 PUSH1 0x4 DUP2 GT ISZERO PUSH2 0x24F JUMPI PUSH2 0x24E PUSH2 0xB31 JUMP JUMPDEST JUMPDEST DUP2 PUSH1 0x4 DUP2 GT ISZERO PUSH2 0x262 JUMPI PUSH2 0x261 PUSH2 0xB31 JUMP JUMPDEST JUMPDEST EQ ISZERO PUSH2 0x2A3 JUMPI PUSH1 0x40 MLOAD PUSH32 0x8C379A000000000000000000000000000000000000000000000000000000000 DUP2 MSTORE PUSH1 0x4 ADD PUSH2 0x29A SWAP1 PUSH2 0x9B1 JUMP JUMPDEST PUSH1 0x40 MLOAD DUP1 SWAP2 SUB SWAP1 REVERT JUMPDEST PUSH1 0x3 PUSH1 0x4 DUP2 GT ISZERO PUSH2 0x2B7 JUMPI PUSH2 0x2B6 PUSH2 0xB31 JUMP JUMPDEST JUMPDEST DUP2 PUSH1 0x4 DUP2 GT ISZERO PUSH2 0x2CA JUMPI PUSH2 0x2C9 PUSH2 0xB31 JUMP JUMPDEST JUMPDEST EQ ISZERO PUSH2 0x30B JUMPI PUSH1 0x40 MLOAD PUSH32 0x8C379A000000000000000000000000000000000000000000000000000000000 DUP2 MSTORE PUSH1 0x4 ADD PUSH2 0x302 SWAP1 PUSH2 0x9D1 JUMP JUMPDEST PUSH1 0x40 MLOAD DUP1 SWAP2 SUB SWAP1 REVERT JUMPDEST JUMPDEST POP JUMP JUMPDEST PUSH1 0x0 PUSH32 0x0 PUSH20 0xFFFFFFFFFFFFFFFFFFFFFFFFFFFFFFFFFFFFFFFF AND ADDRESS PUSH20 0xFFFFFFFFFFFFFFFFFFFFFFFFFFFFFFFFFFFFFFFF AND EQ DUP1 ISZERO PUSH2 0x38B JUMPI POP PUSH32 0x0 CHAINID EQ JUMPDEST ISZERO PUSH2 0x3B8 JUMPI PUSH32 0x0 SWAP1 POP PUSH2 0x426 JUMP JUMPDEST PUSH2 0x423 PUSH32 0x0 PUSH32 0x0 PUSH32 0x0 PUSH2 0x53F JUMP JUMPDEST SWAP1 POP JUMPDEST SWAP1 JUMP JUMPDEST PUSH1 0x0 DUP3 DUP3 PUSH1 0x40 MLOAD PUSH1 0x20 ADD PUSH2 0x43E SWAP3 SWAP2 SWAP1 PUSH2 0x862 JUMP JUMPDEST PUSH1 0x40 MLOAD PUSH1 0x20 DUP2 DUP4 SUB SUB DUP2 MSTORE SWAP1 PUSH1 0x40 MSTORE DUP1 MLOAD SWAP1 PUSH1 0x20 ADD KECCAK256 SWAP1 POP SWAP3 SWAP2 POP POP JUMP JUMPDEST PUSH1 0x0 DUP1 PUSH32 0x7FFFFFFFFFFFFFFFFFFFFFFFFFFFFFFF5D576E7357A4501DDFE92F46681B20A0 DUP4 PUSH1 0x0 SHR GT ISZERO PUSH2 0x497 JUMPI PUSH1 0x0 PUSH1 0x3 SWAP2 POP SWAP2 POP PUSH2 0x536 JUMP JUMPDEST PUSH1 0x0 PUSH1 0x1 DUP8 DUP8 DUP8 DUP8 PUSH1 0x40 MLOAD PUSH1 0x0 DUP2 MSTORE PUSH1 0x20 ADD PUSH1 0x40 MSTORE PUSH1 0x40 MLOAD PUSH2 0x4BC SWAP5 SWAP4 SWAP3 SWAP2 SWAP1 PUSH2 0x94C JUMP JUMPDEST PUSH1 0x20 PUSH1 0x40 MLOAD PUSH1 0x20 DUP2 SUB SWAP1 DUP1 DUP5 SUB SWAP1 DUP6 GAS STATICCALL ISZERO DUP1 ISZERO PUSH2 0x4DE JUMPI RETURNDATASIZE PUSH1 0x0 DUP1 RETURNDATACOPY RETURNDATASIZE PUSH1 0x0 REVERT JUMPDEST POP POP POP PUSH1 0x20 PUSH1 0x40 MLOAD SUB MLOAD SWAP1 POP PUSH1 0x0 PUSH20 0xFFFFFFFFFFFFFFFFFFFFFFFFFFFFFFFFFFFFFFFF AND DUP2 PUSH20 0xFFFFFFFFFFFFFFFFFFFFFFFFFFFFFFFFFFFFFFFF AND EQ ISZERO PUSH2 0x52D JUMPI PUSH1 0x0 PUSH1 0x1 SWAP3 POP SWAP3 POP POP PUSH2 0x536 JUMP JUMPDEST DUP1 PUSH1 0x0 SWAP3 POP SWAP3 POP POP JUMPDEST SWAP5 POP SWAP5 SWAP3 POP POP POP JUMP JUMPDEST PUSH1 0x0 DUP4 DUP4 DUP4 CHAINID ADDRESS PUSH1 0x40 MLOAD PUSH1 0x20 ADD PUSH2 0x55A SWAP6 SWAP5 SWAP4 SWAP3 SWAP2 SWAP1 PUSH2 0x8F9 JUMP JUMPDEST PUSH1 0x40 MLOAD PUSH1 0x20 DUP2 DUP4 SUB SUB DUP2 MSTORE SWAP1 PUSH1 0x40 MSTORE DUP1 MLOAD SWAP1 PUSH1 0x20 ADD KECCAK256 SWAP1 POP SWAP4 SWAP3 POP POP POP JUMP JUMPDEST PUSH1 0x0 PUSH2 0x58C PUSH2 0x587 DUP5 PUSH2 0xA16 JUMP JUMPDEST PUSH2 0x9F1 JUMP JUMPDEST SWAP1 POP DUP3 DUP2 MSTORE PUSH1 0x20 DUP2 ADD DUP5 DUP5 DUP5 ADD GT ISZERO PUSH2 0x5A8 JUMPI PUSH2 0x5A7 PUSH2 0xB9E JUMP JUMPDEST JUMPDEST PUSH2 0x5B3 DUP5 DUP3 DUP6 PUSH2 0xAE7 JUMP JUMPDEST POP SWAP4 SWAP3 POP POP POP JUMP JUMPDEST PUSH1 0x0 PUSH2 0x5CE PUSH2 0x5C9 DUP5 PUSH2 0xA47 JUMP JUMPDEST PUSH2 0x9F1 JUMP JUMPDEST SWAP1 POP DUP3 DUP2 MSTORE PUSH1 0x20 DUP2 ADD DUP5 DUP5 DUP5 ADD GT ISZERO PUSH2 0x5EA JUMPI PUSH2 0x5E9 PUSH2 0xB9E JUMP JUMPDEST JUMPDEST PUSH2 0x5F5 DUP5 DUP3 DUP6 PUSH2 0xAE7 JUMP JUMPDEST POP SWAP4 SWAP3 POP POP POP JUMP JUMPDEST PUSH1 0x0 DUP2 CALLDATALOAD SWAP1 POP PUSH2 0x60C DUP2 PUSH2 0xC88 JUMP JUMPDEST SWAP3 SWAP2 POP POP JUMP JUMPDEST PUSH1 0x0 DUP3 PUSH1 0x1F DUP4 ADD SLT PUSH2 0x627 JUMPI PUSH2 0x626 PUSH2 0xB8F JUMP JUMPDEST JUMPDEST DUP2 CALLDATALOAD PUSH2 0x637 DUP5 DUP3 PUSH1 0x20 DUP7 ADD PUSH2 0x579 JUMP JUMPDEST SWAP2 POP POP SWAP3 SWAP2 POP POP JUMP JUMPDEST PUSH1 0x0 DUP3 PUSH1 0x1F DUP4 ADD SLT PUSH2 0x655 JUMPI PUSH2 0x654 PUSH2 0xB8F JUMP JUMPDEST JUMPDEST DUP2 CALLDATALOAD PUSH2 0x665 DUP5 DUP3 PUSH1 0x20 DUP7 ADD PUSH2 0x5BB JUMP JUMPDEST SWAP2 POP POP SWAP3 SWAP2 POP POP JUMP JUMPDEST PUSH1 0x0 PUSH1 0x80 DUP3 DUP5 SUB SLT ISZERO PUSH2 0x684 JUMPI PUSH2 0x683 PUSH2 0xB94 JUMP JUMPDEST JUMPDEST PUSH2 0x68E PUSH1 0x80 PUSH2 0x9F1 JUMP JUMPDEST SWAP1 POP PUSH1 0x0 DUP3 ADD CALLDATALOAD PUSH8 0xFFFFFFFFFFFFFFFF DUP2 GT ISZERO PUSH2 0x6AE JUMPI PUSH2 0x6AD PUSH2 0xB99 JUMP JUMPDEST JUMPDEST PUSH2 0x6BA DUP5 DUP3 DUP6 ADD PUSH2 0x640 JUMP JUMPDEST PUSH1 0x0 DUP4 ADD MSTORE POP PUSH1 0x20 DUP3 ADD CALLDATALOAD PUSH8 0xFFFFFFFFFFFFFFFF DUP2 GT ISZERO PUSH2 0x6DE JUMPI PUSH2 0x6DD PUSH2 0xB99 JUMP JUMPDEST JUMPDEST PUSH2 0x6EA DUP5 DUP3 DUP6 ADD PUSH2 0x640 JUMP JUMPDEST PUSH1 0x20 DUP4 ADD MSTORE POP PUSH1 0x40 PUSH2 0x6FE DUP5 DUP3 DUP6 ADD PUSH2 0x5FD JUMP JUMPDEST PUSH1 0x40 DUP4 ADD MSTORE POP PUSH1 0x60 DUP3 ADD CALLDATALOAD PUSH8 0xFFFFFFFFFFFFFFFF DUP2 GT ISZERO PUSH2 0x722 JUMPI PUSH2 0x721 PUSH2 0xB99 JUMP JUMPDEST JUMPDEST PUSH2 0x72E DUP5 DUP3 DUP6 ADD PUSH2 0x612 JUMP JUMPDEST PUSH1 0x60 DUP4 ADD MSTORE POP SWAP3 SWAP2 POP POP JUMP JUMPDEST PUSH1 0x0 PUSH1 0x20 DUP3 DUP5 SUB SLT ISZERO PUSH2 0x750 JUMPI PUSH2 0x74F PUSH2 0xBA8 JUMP JUMPDEST JUMPDEST PUSH1 0x0 DUP3 ADD CALLDATALOAD PUSH8 0xFFFFFFFFFFFFFFFF DUP2 GT ISZERO PUSH2 0x76E JUMPI PUSH2 0x76D PUSH2 0xBA3 JUMP JUMPDEST JUMPDEST PUSH2 0x77A DUP5 DUP3 DUP6 ADD PUSH2 0x66E JUMP JUMPDEST SWAP2 POP POP SWAP3 SWAP2 POP POP JUMP JUMPDEST PUSH2 0x78C DUP2 PUSH2 0xA94 JUMP JUMPDEST DUP3 MSTORE POP POP JUMP JUMPDEST PUSH2 0x79B DUP2 PUSH2 0xAA6 JUMP JUMPDEST DUP3 MSTORE POP POP JUMP JUMPDEST PUSH2 0x7B2 PUSH2 0x7AD DUP3 PUSH2 0xAA6 JUMP JUMPDEST PUSH2 0xB27 JUMP JUMPDEST DUP3 MSTORE POP POP JUMP JUMPDEST PUSH1 0x0 PUSH2 0x7C5 PUSH1 0x18 DUP4 PUSH2 0xA78 JUMP JUMPDEST SWAP2 POP PUSH2 0x7D0 DUP3 PUSH2 0xBBE JUMP JUMPDEST PUSH1 0x20 DUP3 ADD SWAP1 POP SWAP2 SWAP1 POP JUMP JUMPDEST PUSH1 0x0 PUSH2 0x7E8 PUSH1 0x1F DUP4 PUSH2 0xA78 JUMP JUMPDEST SWAP2 POP PUSH2 0x7F3 DUP3 PUSH2 0xBE7 JUMP JUMPDEST PUSH1 0x20 DUP3 ADD SWAP1 POP SWAP2 SWAP1 POP JUMP JUMPDEST PUSH1 0x0 PUSH2 0x80B PUSH1 0x2 DUP4 PUSH2 0xA89 JUMP JUMPDEST SWAP2 POP PUSH2 0x816 DUP3 PUSH2 0xC10 JUMP JUMPDEST PUSH1 0x2 DUP3 ADD SWAP1 POP SWAP2 SWAP1 POP JUMP JUMPDEST PUSH1 0x0 PUSH2 0x82E PUSH1 0x22 DUP4 PUSH2 0xA78 JUMP JUMPDEST SWAP2 POP PUSH2 0x839 DUP3 PUSH2 0xC39 JUMP JUMPDEST PUSH1 0x40 DUP3 ADD SWAP1 POP SWAP2 SWAP1 POP JUMP JUMPDEST PUSH2 0x84D DUP2 PUSH2 0xAD0 JUMP JUMPDEST DUP3 MSTORE POP POP JUMP JUMPDEST PUSH2 0x85C DUP2 PUSH2 0xADA JUMP JUMPDEST DUP3 MSTORE POP POP JUMP JUMPDEST PUSH1 0x0 PUSH2 0x86D DUP3 PUSH2 0x7FE JUMP JUMPDEST SWAP2 POP PUSH2 0x879 DUP3 DUP6 PUSH2 0x7A1 JUMP JUMPDEST PUSH1 0x20 DUP3 ADD SWAP2 POP PUSH2 0x889 DUP3 DUP5 PUSH2 0x7A1 JUMP JUMPDEST PUSH1 0x20 DUP3 ADD SWAP2 POP DUP2 SWAP1 POP SWAP4 SWAP3 POP POP POP JUMP JUMPDEST PUSH1 0x0 PUSH1 0x20 DUP3 ADD SWAP1 POP PUSH2 0x8AE PUSH1 0x0 DUP4 ADD DUP5 PUSH2 0x783 JUMP JUMPDEST SWAP3 SWAP2 POP POP JUMP JUMPDEST PUSH1 0x0 PUSH1 0x80 DUP3 ADD SWAP1 POP PUSH2 0x8C9 PUSH1 0x0 DUP4 ADD DUP8 PUSH2 0x792 JUMP JUMPDEST PUSH2 0x8D6 PUSH1 0x20 DUP4 ADD DUP7 PUSH2 0x792 JUMP JUMPDEST PUSH2 0x8E3 PUSH1 0x40 DUP4 ADD DUP6 PUSH2 0x792 JUMP JUMPDEST PUSH2 0x8F0 PUSH1 0x60 DUP4 ADD DUP5 PUSH2 0x783 JUMP JUMPDEST SWAP6 SWAP5 POP POP POP POP POP JUMP JUMPDEST PUSH1 0x0 PUSH1 0xA0 DUP3 ADD SWAP1 POP PUSH2 0x90E PUSH1 0x0 DUP4 ADD DUP9 PUSH2 0x792 JUMP JUMPDEST PUSH2 0x91B PUSH1 0x20 DUP4 ADD DUP8 PUSH2 0x792 JUMP JUMPDEST PUSH2 0x928 PUSH1 0x40 DUP4 ADD DUP7 PUSH2 0x792 JUMP JUMPDEST PUSH2 0x935 PUSH1 0x60 DUP4 ADD DUP6 PUSH2 0x844 JUMP JUMPDEST PUSH2 0x942 PUSH1 0x80 DUP4 ADD DUP5 PUSH2 0x783 JUMP JUMPDEST SWAP7 SWAP6 POP POP POP POP POP POP JUMP JUMPDEST PUSH1 0x0 PUSH1 0x80 DUP3 ADD SWAP1 POP PUSH2 0x961 PUSH1 0x0 DUP4 ADD DUP8 PUSH2 0x792 JUMP JUMPDEST PUSH2 0x96E PUSH1 0x20 DUP4 ADD DUP7 PUSH2 0x853 JUMP JUMPDEST PUSH2 0x97B PUSH1 0x40 DUP4 ADD DUP6 PUSH2 0x792 JUMP JUMPDEST PUSH2 0x988 PUSH1 0x60 DUP4 ADD DUP5 PUSH2 0x792 JUMP JUMPDEST SWAP6 SWAP5 POP POP POP POP POP JUMP JUMPDEST PUSH1 0x0 PUSH1 0x20 DUP3 ADD SWAP1 POP DUP2 DUP2 SUB PUSH1 0x0 DUP4 ADD MSTORE PUSH2 0x9AA DUP2 PUSH2 0x7B8 JUMP JUMPDEST SWAP1 POP SWAP2 SWAP1 POP JUMP JUMPDEST PUSH1 0x0 PUSH1 0x20 DUP3 ADD SWAP1 POP DUP2 DUP2 SUB PUSH1 0x0 DUP4 ADD MSTORE PUSH2 0x9CA DUP2 PUSH2 0x7DB JUMP JUMPDEST SWAP1 POP SWAP2 SWAP1 POP JUMP JUMPDEST PUSH1 0x0 PUSH1 0x20 DUP3 ADD SWAP1 POP DUP2 DUP2 SUB PUSH1 0x0 DUP4 ADD MSTORE PUSH2 0x9EA DUP2 PUSH2 0x821 JUMP JUMPDEST SWAP1 POP SWAP2 SWAP1 POP JUMP JUMPDEST PUSH1 0x0 PUSH2 0x9FB PUSH2 0xA0C JUMP JUMPDEST SWAP1 POP PUSH2 0xA07 DUP3 DUP3 PUSH2 0xAF6 JUMP JUMPDEST SWAP2 SWAP1 POP JUMP JUMPDEST PUSH1 0x0 PUSH1 0x40 MLOAD SWAP1 POP SWAP1 JUMP JUMPDEST PUSH1 0x0 PUSH8 0xFFFFFFFFFFFFFFFF DUP3 GT ISZERO PUSH2 0xA31 JUMPI PUSH2 0xA30 PUSH2 0xB60 JUMP JUMPDEST JUMPDEST PUSH2 0xA3A DUP3 PUSH2 0xBAD JUMP JUMPDEST SWAP1 POP PUSH1 0x20 DUP2 ADD SWAP1 POP SWAP2 SWAP1 POP JUMP JUMPDEST PUSH1 0x0 PUSH8 0xFFFFFFFFFFFFFFFF DUP3 GT ISZERO PUSH2 0xA62 JUMPI PUSH2 0xA61 PUSH2 0xB60 JUMP JUMPDEST JUMPDEST PUSH2 0xA6B DUP3 PUSH2 0xBAD JUMP JUMPDEST SWAP1 POP PUSH1 0x20 DUP2 ADD SWAP1 POP SWAP2 SWAP1 POP JUMP JUMPDEST PUSH1 0x0 DUP3 DUP3 MSTORE PUSH1 0x20 DUP3 ADD SWAP1 POP SWAP3 SWAP2 POP POP JUMP JUMPDEST PUSH1 0x0 DUP2 SWAP1 POP SWAP3 SWAP2 POP POP JUMP JUMPDEST PUSH1 0x0 PUSH2 0xA9F DUP3 PUSH2 0xAB0 JUMP JUMPDEST SWAP1 POP SWAP2 SWAP1 POP JUMP JUMPDEST PUSH1 0x0 DUP2 SWAP1 POP SWAP2 SWAP1 POP JUMP JUMPDEST PUSH1 0x0 PUSH20 0xFFFFFFFFFFFFFFFFFFFFFFFFFFFFFFFFFFFFFFFF DUP3 AND SWAP1 POP SWAP2 SWAP1 POP JUMP JUMPDEST PUSH1 0x0 DUP2 SWAP1 POP SWAP2 SWAP1 POP JUMP JUMPDEST PUSH1 0x0 PUSH1 0xFF DUP3 AND SWAP1 POP SWAP2 SWAP1 POP JUMP JUMPDEST DUP3 DUP2 DUP4 CALLDATACOPY PUSH1 0x0 DUP4 DUP4 ADD MSTORE POP POP POP JUMP JUMPDEST PUSH2 0xAFF DUP3 PUSH2 0xBAD JUMP JUMPDEST DUP2 ADD DUP2 DUP2 LT PUSH8 0xFFFFFFFFFFFFFFFF DUP3 GT OR ISZERO PUSH2 0xB1E JUMPI PUSH2 0xB1D PUSH2 0xB60 JUMP JUMPDEST JUMPDEST DUP1 PUSH1 0x40 MSTORE POP POP POP JUMP JUMPDEST PUSH1 0x0 DUP2 SWAP1 POP SWAP2 SWAP1 POP JUMP JUMPDEST PUSH32 0x4E487B7100000000000000000000000000000000000000000000000000000000 PUSH1 0x0 MSTORE PUSH1 0x21 PUSH1 0x4 MSTORE PUSH1 0x24 PUSH1 0x0 REVERT JUMPDEST PUSH32 0x4E487B7100000000000000000000000000000000000000000000000000000000 PUSH1 0x0 MSTORE PUSH1 0x41 PUSH1 0x4 MSTORE PUSH1 0x24 PUSH1 0x0 REVERT JUMPDEST PUSH1 0x0 DUP1 REVERT JUMPDEST PUSH1 0x0 DUP1 REVERT JUMPDEST PUSH1 0x0 DUP1 REVERT JUMPDEST PUSH1 0x0 DUP1 REVERT JUMPDEST PUSH1 0x0 DUP1 REVERT JUMPDEST PUSH1 0x0 DUP1 REVERT JUMPDEST PUSH1 0x0 PUSH1 0x1F NOT PUSH1 0x1F DUP4 ADD AND SWAP1 POP SWAP2 SWAP1 POP JUMP JUMPDEST PUSH32 0x45434453413A20696E76616C6964207369676E61747572650000000000000000 PUSH1 0x0 DUP3 ADD MSTORE POP JUMP JUMPDEST PUSH32 0x45434453413A20696E76616C6964207369676E6174757265206C656E67746800 PUSH1 0x0 DUP3 ADD MSTORE POP JUMP JUMPDEST PUSH32 0x1901000000000000000000000000000000000000000000000000000000000000 PUSH1 0x0 DUP3 ADD MSTORE POP JUMP JUMPDEST PUSH32 0x45434453413A20696E76616C6964207369676E6174757265202773272076616C PUSH1 0x0 DUP3 ADD MSTORE PUSH32 0x7565000000000000000000000000000000000000000000000000000000000000 PUSH1 0x20 DUP3 ADD MSTORE POP JUMP JUMPDEST PUSH2 0xC91 DUP2 PUSH2 0xA94 JUMP JUMPDEST DUP2 EQ PUSH2 0xC9C JUMPI PUSH1 0x0 DUP1 REVERT JUMPDEST POP JUMP INVALID LOG2 PUSH5 0x6970667358 0x22 SLT KECCAK256 0xCE 0xA8 0x5E CALLDATASIZE 0xAD STATICCALL 0x4A 0xF8 0xDA CREATE 0xDC 0xAD CREATE2 0xCD CALLDATASIZE 0xF7 0x1E NOT 0xF9 0xB9 XOR 0x2A 0xB6 SLT 0xED MSTORE8 GAS NOT JUMP CODESIZE 0x23 LT PUSH5 0x736F6C6343 STOP ADDMOD SMOD STOP CALLER "
		},
		"gasEstimates": {
			"creation": {
				"codeDepositCost": "657000",
				"executionCost": "infinite",
				"totalCost": "infinite"
			},
			"external": {
				"getSigner((string,string,address,bytes))": "infinite"
			},
			"internal": {
				"_hash(struct DataOnboarderSigner.DataSourceLink memory)": "infinite",
				"_verify(struct DataOnboarderSigner.DataSourceLink memory)": "infinite"
			}
		},
		"methodIdentifiers": {
			"getSigner((string,string,address,bytes))": "30f89e29"
		}
	},
	"abi": [
		{
			"inputs": [
				{
					"internalType": "string",
					"name": "SIGNING_DOMAIN",
					"type": "string"
				},
				{
					"internalType": "string",
					"name": "SIGNATURE_VERSION",
					"type": "string"
				}
			],
			"stateMutability": "nonpayable",
			"type": "constructor"
		},
		{
			"inputs": [
				{
					"components": [
						{
							"internalType": "string",
							"name": "profile_uid",
							"type": "string"
						},
						{
							"internalType": "string",
							"name": "platform_name",
							"type": "string"
						},
						{
							"internalType": "address",
							"name": "corresponding_pubkey",
							"type": "address"
						},
						{
							"internalType": "bytes",
							"name": "signature",
							"type": "bytes"
						}
					],
					"internalType": "struct DataOnboarderSigner.DataSourceLink",
					"name": "result",
					"type": "tuple"
				}
			],
			"name": "getSigner",
			"outputs": [
				{
					"internalType": "address",
					"name": "",
					"type": "address"
				}
			],
			"stateMutability": "view",
			"type": "function"
		}
	]
}