{
	"data": {
		"bytecode": {
			"linkReferences": {},
			"object": "60806040523480156200001157600080fd5b5060405162002dfd38038062002dfd8339818101604052810190620000379190620001cc565b620000576200004b620000e960201b60201c565b620000f160201b60201c565b600060018190555081600560006101000a81548173ffffffffffffffffffffffffffffffffffffffff021916908373ffffffffffffffffffffffffffffffffffffffff16021790555080600660006101000a81548173ffffffffffffffffffffffffffffffffffffffff021916908373ffffffffffffffffffffffffffffffffffffffff160217905550505062000266565b600033905090565b60008060009054906101000a900473ffffffffffffffffffffffffffffffffffffffff169050816000806101000a81548173ffffffffffffffffffffffffffffffffffffffff021916908373ffffffffffffffffffffffffffffffffffffffff1602179055508173ffffffffffffffffffffffffffffffffffffffff168173ffffffffffffffffffffffffffffffffffffffff167f8be0079c531659141344cd1fd0a4f28419497f9722a3daafe3b4186f6b6457e060405160405180910390a35050565b600081519050620001c6816200024c565b92915050565b60008060408385031215620001e657620001e562000247565b5b6000620001f685828601620001b5565b92505060206200020985828601620001b5565b9150509250929050565b6000620002208262000227565b9050919050565b600073ffffffffffffffffffffffffffffffffffffffff82169050919050565b600080fd5b620002578162000213565b81146200026357600080fd5b50565b612b8780620002766000396000f3fe608060405234801561001057600080fd5b50600436106100935760003560e01c8063b5ec25ae11610066578063b5ec25ae146100fa578063cd3c6e5614610116578063e6d46c8d14610132578063effbb95d1461014e578063f2fde38b1461018457610093565b806362063e8714610098578063715018a6146100c85780638da5cb5b146100d2578063af812ebf146100f0575b600080fd5b6100b260048036038101906100ad9190611f35565b6101a0565b6040516100bf9190612317565b60405180910390f35b6100d061051b565b005b6100da61052f565b6040516100e79190612273565b60405180910390f35b6100f8610558565b005b610114600480360381019061010f919061205b565b61068e565b005b610130600480360381019061012b91906120b5565b610adc565b005b61014c6004803603810190610147919061205b565b610da6565b005b6101686004803603810190610163919061205b565b611639565b60405161017b9796959493929190612332565b60405180910390f35b61019e60048036038101906101999190611eae565b61173d565b005b6000806002600060015481526020019081526020016000209050898160000190805190602001906101d292919061190b565b5083816007018190555060005b8681101561028f578781815181106101fa576101f96128e6565b5b60200260200101518260040160008a848151811061021b5761021a6128e6565b5b602002602001015160000151815260200190815260200160002060008201518160000155602082015181600101908051906020019061025b92919061190b565b506040820151816002019080519060200190610278929190611991565b50905050808061028790612810565b9150506101df565b5060005b858110156104655760005b868110156103675760018a83815181106102bb576102ba6128e6565b5b602002602001015182815181106102d5576102d46128e6565b5b60200260200101511415610354578260010160008c84815181106102fc576102fb6128e6565b5b602002602001015181526020019081526020016000208b8281518110610325576103246128e6565b5b602002602001015190806001815401808255809150506001900390600052602060002001600090919091909150555b808061035f90612810565b91505061029e565b5060008260010160008c8481518110610383576103826128e6565b5b60200260200101518152602001908152602001600020805490501415610452578160010160008b83815181106103bc576103bb6128e6565b5b60200260200101518152602001908152602001600020600090806001815401808255809150506001900390600052602060002001600090919091909150558160010160008b8381518110610413576104126128e6565b5b60200260200101518152602001908152602001600020600090806001815401808255809150506001900390600052602060002001600090919091909150555b808061045d90612810565b915050610293565b5060008160060160006101000a81548160ff02191690831515021790555060008160050181905550828160060160016101000a81548173ffffffffffffffffffffffffffffffffffffffff021916908373ffffffffffffffffffffffffffffffffffffffff160217905550888160020190805190602001906104e8929190611a1b565b508481600301819055506001600081548092919061050590612810565b9190505550600191505098975050505050505050565b6105236117c1565b61052d600061183f565b565b60008060009054906101000a900473ffffffffffffffffffffffffffffffffffffffff16905090565b600560009054906101000a900473ffffffffffffffffffffffffffffffffffffffff1673ffffffffffffffffffffffffffffffffffffffff1663a9059cbb33600360003373ffffffffffffffffffffffffffffffffffffffff1673ffffffffffffffffffffffffffffffffffffffff168152602001908152602001600020546040518363ffffffff1660e01b81526004016105f49291906122ee565b602060405180830381600087803b15801561060e57600080fd5b505af1158015610622573d6000803e3d6000fd5b505050506040513d601f19601f820116820180604052508101906106469190611f08565b506000600360003373ffffffffffffffffffffffffffffffffffffffff1673ffffffffffffffffffffffffffffffffffffffff16815260200190815260200160002081905550565b600115156002600083815260200190815260200160002060060160009054906101000a900460ff161515146106f8576040517f08c379a00000000000000000000000000000000000000000000000000000000081526004016106ef90612408565b60405180910390fd5b600060026000838152602001908152602001600020600501541415610752576040517f08c379a000000000000000000000000000000000000000000000000000000000815260040161074990612428565b60405180910390fd5b6000600260008381526020019081526020016000206007015490505b60008114610ad8576001600660009054906101000a900473ffffffffffffffffffffffffffffffffffffffff1673ffffffffffffffffffffffffffffffffffffffff1662fdd58e33846040518363ffffffff1660e01b81526004016107d49291906122ee565b60206040518083038186803b1580156107ec57600080fd5b505afa158015610800573d6000803e3d6000fd5b505050506040513d601f19601f820116820180604052508101906108249190612088565b1415610a8b57600260008381526020019081526020016000206001016000828152602001908152602001600020600081548110610864576108636128e6565b5b906000526020600020015490508060026000848152602001908152602001600020600401600083815260200190815260200160002060000154141561092f57600260008381526020019081526020016000206004016000828152602001908152602001600020600201339080600181540180825580915050600190039060005260206000200160009091909190916101000a81548173ffffffffffffffffffffffffffffffffffffffff021916908373ffffffffffffffffffffffffffffffffffffffff1602179055505b600062061a8060026000858152602001908152602001600020600501546109569190612664565b90508060036000600660009054906101000a900473ffffffffffffffffffffffffffffffffffffffff1673ffffffffffffffffffffffffffffffffffffffff166325e56054866040518263ffffffff1660e01b81526004016109b891906124a8565b60206040518083038186803b1580156109d057600080fd5b505afa1580156109e4573d6000803e3d6000fd5b505050506040513d601f19601f82011682018060405250810190610a089190611edb565b73ffffffffffffffffffffffffffffffffffffffff1673ffffffffffffffffffffffffffffffffffffffff1681526020019081526020016000206000828254610a51919061260e565b9250508190555080600260008581526020019081526020016000206005016000828254610a7e91906126ef565b9250508190555050610ad3565b600260008381526020019081526020016000206001016000828152602001908152602001600020600181548110610ac557610ac46128e6565b5b906000526020600020015490505b61076e565b5050565b60008111610b1f576040517f08c379a0000000000000000000000000000000000000000000000000000000008152600401610b1690612468565b60405180910390fd5b6000600560009054906101000a900473ffffffffffffffffffffffffffffffffffffffff1673ffffffffffffffffffffffffffffffffffffffff1663dd62ed3e33306040518363ffffffff1660e01b8152600401610b7e92919061228e565b60206040518083038186803b158015610b9657600080fd5b505afa158015610baa573d6000803e3d6000fd5b505050506040513d601f19601f82011682018060405250810190610bce9190612088565b905081811015610c13576040517f08c379a0000000000000000000000000000000000000000000000000000000008152600401610c0a906123e8565b60405180910390fd5b600560009054906101000a900473ffffffffffffffffffffffffffffffffffffffff1673ffffffffffffffffffffffffffffffffffffffff166323b872dd3330856040518463ffffffff1660e01b8152600401610c72939291906122b7565b602060405180830381600087803b158015610c8c57600080fd5b505af1158015610ca0573d6000803e3d6000fd5b505050506040513d601f19601f82011682018060405250810190610cc49190611f08565b503373ffffffffffffffffffffffffffffffffffffffff166108fc839081150290604051600060405180830381858888f19350505050158015610d0b573d6000803e3d6000fd5b5081600260008581526020019081526020016000206005016000828254610d32919061260e565b9250508190555060016002600085815260200190815260200160002060060160006101000a81548160ff0219169083151502179055507f21f9bb95ea07d82a536314fd89080112cda91fc68b6e0a77ced196a3a291e1c98383604051610d999291906124c3565b60405180910390a1505050565b610dae61052f565b73ffffffffffffffffffffffffffffffffffffffff163373ffffffffffffffffffffffffffffffffffffffff161480610e4857506002600082815260200190815260200160002060060160019054906101000a900473ffffffffffffffffffffffffffffffffffffffff1673ffffffffffffffffffffffffffffffffffffffff163373ffffffffffffffffffffffffffffffffffffffff16145b610e87576040517f08c379a0000000000000000000000000000000000000000000000000000000008152600401610e7e90612488565b60405180910390fd5b600115156002600083815260200190815260200160002060060160009054906101000a900460ff16151514610ef1576040517f08c379a0000000000000000000000000000000000000000000000000000000008152600401610ee8906123c8565b60405180910390fd5b60005b600260008381526020019081526020016000206003015481101561105857600160046000600660009054906101000a900473ffffffffffffffffffffffffffffffffffffffff1673ffffffffffffffffffffffffffffffffffffffff166358b478f4600260008881526020019081526020016000206002018681548110610f7e57610f7d6128e6565b5b90600052602060002001546040518263ffffffff1660e01b8152600401610fa591906124a8565b60206040518083038186803b158015610fbd57600080fd5b505afa158015610fd1573d6000803e3d6000fd5b505050506040513d601f19601f82011682018060405250810190610ff59190611edb565b73ffffffffffffffffffffffffffffffffffffffff1673ffffffffffffffffffffffffffffffffffffffff168152602001908152602001600020600082825461103e919061260e565b92505081905550808061105090612810565b915050610ef4565b5060005b600260008381526020019081526020016000206003015481101561160657600060046000600660009054906101000a900473ffffffffffffffffffffffffffffffffffffffff1673ffffffffffffffffffffffffffffffffffffffff166358b478f46002600088815260200190815260200160002060020186815481106110e6576110e56128e6565b5b90600052602060002001546040518263ffffffff1660e01b815260040161110d91906124a8565b60206040518083038186803b15801561112557600080fd5b505afa158015611139573d6000803e3d6000fd5b505050506040513d601f19601f8201168201806040525081019061115d9190611edb565b73ffffffffffffffffffffffffffffffffffffffff1673ffffffffffffffffffffffffffffffffffffffff16815260200190815260200160002054146115f3576000600260008481526020019081526020016000206003015460646111c29190612695565b60046000600660009054906101000a900473ffffffffffffffffffffffffffffffffffffffff1673ffffffffffffffffffffffffffffffffffffffff166358b478f460026000898152602001908152602001600020600201878154811061122c5761122b6128e6565b5b90600052602060002001546040518263ffffffff1660e01b815260040161125391906124a8565b60206040518083038186803b15801561126b57600080fd5b505afa15801561127f573d6000803e3d6000fd5b505050506040513d601f19601f820116820180604052508101906112a39190611edb565b73ffffffffffffffffffffffffffffffffffffffff1673ffffffffffffffffffffffffffffffffffffffff16815260200190815260200160002054600260008681526020019081526020016000206005015460336113019190612695565b61130b9190612695565b6113159190612664565b90508060026000858152602001908152602001600020600501600082825461133d91906126ef565b92505081905550600560009054906101000a900473ffffffffffffffffffffffffffffffffffffffff1673ffffffffffffffffffffffffffffffffffffffff1663a9059cbb600660009054906101000a900473ffffffffffffffffffffffffffffffffffffffff1673ffffffffffffffffffffffffffffffffffffffff166358b478f46002600088815260200190815260200160002060020186815481106113e8576113e76128e6565b5b90600052602060002001546040518263ffffffff1660e01b815260040161140f91906124a8565b60206040518083038186803b15801561142757600080fd5b505afa15801561143b573d6000803e3d6000fd5b505050506040513d601f19601f8201168201806040525081019061145f9190611edb565b836040518363ffffffff1660e01b815260040161147d9291906122ee565b602060405180830381600087803b15801561149757600080fd5b505af11580156114ab573d6000803e3d6000fd5b505050506040513d601f19601f820116820180604052508101906114cf9190611f08565b50600060046000600660009054906101000a900473ffffffffffffffffffffffffffffffffffffffff1673ffffffffffffffffffffffffffffffffffffffff166358b478f460026000898152602001908152602001600020600201878154811061153c5761153b6128e6565b5b90600052602060002001546040518263ffffffff1660e01b815260040161156391906124a8565b60206040518083038186803b15801561157b57600080fd5b505afa15801561158f573d6000803e3d6000fd5b505050506040513d601f19601f820116820180604052508101906115b39190611edb565b73ffffffffffffffffffffffffffffffffffffffff1673ffffffffffffffffffffffffffffffffffffffff16815260200190815260200160002081905550505b80806115fe90612810565b91505061105c565b5060006002600083815260200190815260200160002060060160006101000a81548160ff02191690831515021790555050565b600260205280600052604060002060009150905080600001805461165c906127ad565b80601f0160208091040260200160405190810160405280929190818152602001828054611688906127ad565b80156116d55780601f106116aa576101008083540402835291602001916116d5565b820191906000526020600020905b8154815290600101906020018083116116b857829003601f168201915b5050505050908060030154908060050154908060060160009054906101000a900460ff16908060060160019054906101000a900473ffffffffffffffffffffffffffffffffffffffff16908060060160159054906101000a900460ff16908060070154905087565b6117456117c1565b600073ffffffffffffffffffffffffffffffffffffffff168173ffffffffffffffffffffffffffffffffffffffff1614156117b5576040517f08c379a00000000000000000000000000000000000000000000000000000000081526004016117ac906123a8565b60405180910390fd5b6117be8161183f565b50565b6117c9611903565b73ffffffffffffffffffffffffffffffffffffffff166117e761052f565b73ffffffffffffffffffffffffffffffffffffffff161461183d576040517f08c379a000000000000000000000000000000000000000000000000000000000815260040161183490612448565b60405180910390fd5b565b60008060009054906101000a900473ffffffffffffffffffffffffffffffffffffffff169050816000806101000a81548173ffffffffffffffffffffffffffffffffffffffff021916908373ffffffffffffffffffffffffffffffffffffffff1602179055508173ffffffffffffffffffffffffffffffffffffffff168173ffffffffffffffffffffffffffffffffffffffff167f8be0079c531659141344cd1fd0a4f28419497f9722a3daafe3b4186f6b6457e060405160405180910390a35050565b600033905090565b828054611917906127ad565b90600052602060002090601f0160209004810192826119395760008555611980565b82601f1061195257805160ff1916838001178555611980565b82800160010185558215611980579182015b8281111561197f578251825591602001919060010190611964565b5b50905061198d9190611a68565b5090565b828054828255906000526020600020908101928215611a0a579160200282015b82811115611a095782518260006101000a81548173ffffffffffffffffffffffffffffffffffffffff021916908373ffffffffffffffffffffffffffffffffffffffff160217905550916020019190600101906119b1565b5b509050611a179190611a68565b5090565b828054828255906000526020600020908101928215611a57579160200282015b82811115611a56578251825591602001919060010190611a3b565b5b509050611a649190611a68565b5090565b5b80821115611a81576000816000905550600101611a69565b5090565b6000611a98611a9384612511565b6124ec565b90508083825260208201905082856020860282011115611abb57611aba612953565b5b60005b85811015611aeb5781611ad18882611cc3565b845260208401935060208301925050600181019050611abe565b5050509392505050565b6000611b08611b038461253d565b6124ec565b90508083825260208201905082856020860282011115611b2b57611b2a612953565b5b60005b85811015611b7957813567ffffffffffffffff811115611b5157611b50612944565b5b808601611b5e8982611d77565b85526020850194506020840193505050600181019050611b2e565b5050509392505050565b6000611b96611b9184612569565b6124ec565b90508083825260208201905082856020860282011115611bb957611bb8612953565b5b60005b85811015611c0757813567ffffffffffffffff811115611bdf57611bde612944565b5b808601611bec8982611de8565b85526020850194506020840193505050600181019050611bbc565b5050509392505050565b6000611c24611c1f84612595565b6124ec565b90508083825260208201905082856020860282011115611c4757611c46612953565b5b60005b85811015611c775781611c5d8882611e84565b845260208401935060208301925050600181019050611c4a565b5050509392505050565b6000611c94611c8f846125c1565b6124ec565b905082815260208101848484011115611cb057611caf612958565b5b611cbb84828561276b565b509392505050565b600081359050611cd281612b0c565b92915050565b600081519050611ce781612b0c565b92915050565b600082601f830112611d0257611d01612944565b5b8135611d12848260208601611a85565b91505092915050565b600082601f830112611d3057611d2f612944565b5b8135611d40848260208601611af5565b91505092915050565b600082601f830112611d5e57611d5d612944565b5b8135611d6e848260208601611b83565b91505092915050565b600082601f830112611d8c57611d8b612944565b5b8135611d9c848260208601611c11565b91505092915050565b600081519050611db481612b23565b92915050565b600082601f830112611dcf57611dce612944565b5b8135611ddf848260208601611c81565b91505092915050565b600060608284031215611dfe57611dfd612949565b5b611e0860606124ec565b90506000611e1884828501611e84565b600083015250602082013567ffffffffffffffff811115611e3c57611e3b61294e565b5b611e4884828501611dba565b602083015250604082013567ffffffffffffffff811115611e6c57611e6b61294e565b5b611e7884828501611ced565b60408301525092915050565b600081359050611e9381612b3a565b92915050565b600081519050611ea881612b3a565b92915050565b600060208284031215611ec457611ec3612962565b5b6000611ed284828501611cc3565b91505092915050565b600060208284031215611ef157611ef0612962565b5b6000611eff84828501611cd8565b91505092915050565b600060208284031215611f1e57611f1d612962565b5b6000611f2c84828501611da5565b91505092915050565b600080600080600080600080610100898b031215611f5657611f55612962565b5b600089013567ffffffffffffffff811115611f7457611f7361295d565b5b611f808b828c01611dba565b985050602089013567ffffffffffffffff811115611fa157611fa061295d565b5b611fad8b828c01611d77565b975050604089013567ffffffffffffffff811115611fce57611fcd61295d565b5b611fda8b828c01611d1b565b965050606089013567ffffffffffffffff811115611ffb57611ffa61295d565b5b6120078b828c01611d49565b95505060806120188b828c01611e84565b94505060a06120298b828c01611e84565b93505060c061203a8b828c01611e84565b92505060e061204b8b828c01611cc3565b9150509295985092959890939650565b60006020828403121561207157612070612962565b5b600061207f84828501611e84565b91505092915050565b60006020828403121561209e5761209d612962565b5b60006120ac84828501611e99565b91505092915050565b600080604083850312156120cc576120cb612962565b5b60006120da85828601611e84565b92505060206120eb85828601611e84565b9150509250929050565b6120fe81612723565b82525050565b61210d81612735565b82525050565b600061211e826125f2565b61212881856125fd565b935061213881856020860161277a565b61214181612967565b840191505092915050565b60006121596026836125fd565b915061216482612978565b604082019050919050565b600061217c6012836125fd565b9150612187826129c7565b602082019050919050565b600061219f6012836125fd565b91506121aa826129f0565b602082019050919050565b60006121c26013836125fd565b91506121cd82612a19565b602082019050919050565b60006121e56021836125fd565b91506121f082612a42565b604082019050919050565b60006122086020836125fd565b915061221382612a91565b602082019050919050565b600061222b6016836125fd565b915061223682612aba565b602082019050919050565b600061224e6013836125fd565b915061225982612ae3565b602082019050919050565b61226d81612761565b82525050565b600060208201905061228860008301846120f5565b92915050565b60006040820190506122a360008301856120f5565b6122b060208301846120f5565b9392505050565b60006060820190506122cc60008301866120f5565b6122d960208301856120f5565b6122e66040830184612264565b949350505050565b600060408201905061230360008301856120f5565b6123106020830184612264565b9392505050565b600060208201905061232c6000830184612104565b92915050565b600060e082019050818103600083015261234c818a612113565b905061235b6020830189612264565b6123686040830188612264565b6123756060830187612104565b61238260808301866120f5565b61238f60a0830185612104565b61239c60c0830184612264565b98975050505050505050565b600060208201905081810360008301526123c18161214c565b9050919050565b600060208201905081810360008301526123e18161216f565b9050919050565b6000602082019050818103600083015261240181612192565b9050919050565b60006020820190508181036000830152612421816121b5565b9050919050565b60006020820190508181036000830152612441816121d8565b9050919050565b60006020820190508181036000830152612461816121fb565b9050919050565b600060208201905081810360008301526124818161221e565b9050919050565b600060208201905081810360008301526124a181612241565b9050919050565b60006020820190506124bd6000830184612264565b92915050565b60006040820190506124d86000830185612264565b6124e56020830184612264565b9392505050565b60006124f6612507565b905061250282826127df565b919050565b6000604051905090565b600067ffffffffffffffff82111561252c5761252b612915565b5b602082029050602081019050919050565b600067ffffffffffffffff82111561255857612557612915565b5b602082029050602081019050919050565b600067ffffffffffffffff82111561258457612583612915565b5b602082029050602081019050919050565b600067ffffffffffffffff8211156125b0576125af612915565b5b602082029050602081019050919050565b600067ffffffffffffffff8211156125dc576125db612915565b5b6125e582612967565b9050602081019050919050565b600081519050919050565b600082825260208201905092915050565b600061261982612761565b915061262483612761565b9250827fffffffffffffffffffffffffffffffffffffffffffffffffffffffffffffffff0382111561265957612658612859565b5b828201905092915050565b600061266f82612761565b915061267a83612761565b92508261268a57612689612888565b5b828204905092915050565b60006126a082612761565b91506126ab83612761565b9250817fffffffffffffffffffffffffffffffffffffffffffffffffffffffffffffffff04831182151516156126e4576126e3612859565b5b828202905092915050565b60006126fa82612761565b915061270583612761565b92508282101561271857612717612859565b5b828203905092915050565b600061272e82612741565b9050919050565b60008115159050919050565b600073ffffffffffffffffffffffffffffffffffffffff82169050919050565b6000819050919050565b82818337600083830152505050565b60005b8381101561279857808201518184015260208101905061277d565b838111156127a7576000848401525b50505050565b600060028204905060018216806127c557607f821691505b602082108114156127d9576127d86128b7565b5b50919050565b6127e882612967565b810181811067ffffffffffffffff8211171561280757612806612915565b5b80604052505050565b600061281b82612761565b91507fffffffffffffffffffffffffffffffffffffffffffffffffffffffffffffffff82141561284e5761284d612859565b5b600182019050919050565b7f4e487b7100000000000000000000000000000000000000000000000000000000600052601160045260246000fd5b7f4e487b7100000000000000000000000000000000000000000000000000000000600052601260045260246000fd5b7f4e487b7100000000000000000000000000000000000000000000000000000000600052602260045260246000fd5b7f4e487b7100000000000000000000000000000000000000000000000000000000600052603260045260246000fd5b7f4e487b7100000000000000000000000000000000000000000000000000000000600052604160045260246000fd5b600080fd5b600080fd5b600080fd5b600080fd5b600080fd5b600080fd5b600080fd5b6000601f19601f8301169050919050565b7f4f776e61626c653a206e6577206f776e657220697320746865207a65726f206160008201527f6464726573730000000000000000000000000000000000000000000000000000602082015250565b7f4a6f6220416c726561647920436c6f7365640000000000000000000000000000600082015250565b7f416c6c6f77616e6365457863657074696f6e0000000000000000000000000000600082015250565b7f4a6f62206973206e6f74206f70656e2079657400000000000000000000000000600082015250565b7f4a6f62206e6f7420616363657074696e67206d6f7265206170706c6963616e7460008201527f7300000000000000000000000000000000000000000000000000000000000000602082015250565b7f4f776e61626c653a2063616c6c6572206973206e6f7420746865206f776e6572600082015250565b7f496e76616c6964416d6f756e74457863657074696f6e00000000000000000000600082015250565b7f556e617574686f72697a656420436c6f73657200000000000000000000000000600082015250565b612b1581612723565b8114612b2057600080fd5b50565b612b2c81612735565b8114612b3757600080fd5b50565b612b4381612761565b8114612b4e57600080fd5b5056fea2646970667358221220fbfdc122f9d928af485cdfa219a895f5e832e6de5e8328a24c5460603b4fe7ff64736f6c63430008070033",
			"opcodes": "PUSH1 0x80 PUSH1 0x40 MSTORE CALLVALUE DUP1 ISZERO PUSH3 0x11 JUMPI PUSH1 0x0 DUP1 REVERT JUMPDEST POP PUSH1 0x40 MLOAD PUSH3 0x2DFD CODESIZE SUB DUP1 PUSH3 0x2DFD DUP4 CODECOPY DUP2 DUP2 ADD PUSH1 0x40 MSTORE DUP2 ADD SWAP1 PUSH3 0x37 SWAP2 SWAP1 PUSH3 0x1CC JUMP JUMPDEST PUSH3 0x57 PUSH3 0x4B PUSH3 0xE9 PUSH1 0x20 SHL PUSH1 0x20 SHR JUMP JUMPDEST PUSH3 0xF1 PUSH1 0x20 SHL PUSH1 0x20 SHR JUMP JUMPDEST PUSH1 0x0 PUSH1 0x1 DUP2 SWAP1 SSTORE POP DUP2 PUSH1 0x5 PUSH1 0x0 PUSH2 0x100 EXP DUP2 SLOAD DUP2 PUSH20 0xFFFFFFFFFFFFFFFFFFFFFFFFFFFFFFFFFFFFFFFF MUL NOT AND SWAP1 DUP4 PUSH20 0xFFFFFFFFFFFFFFFFFFFFFFFFFFFFFFFFFFFFFFFF AND MUL OR SWAP1 SSTORE POP DUP1 PUSH1 0x6 PUSH1 0x0 PUSH2 0x100 EXP DUP2 SLOAD DUP2 PUSH20 0xFFFFFFFFFFFFFFFFFFFFFFFFFFFFFFFFFFFFFFFF MUL NOT AND SWAP1 DUP4 PUSH20 0xFFFFFFFFFFFFFFFFFFFFFFFFFFFFFFFFFFFFFFFF AND MUL OR SWAP1 SSTORE POP POP POP PUSH3 0x266 JUMP JUMPDEST PUSH1 0x0 CALLER SWAP1 POP SWAP1 JUMP JUMPDEST PUSH1 0x0 DUP1 PUSH1 0x0 SWAP1 SLOAD SWAP1 PUSH2 0x100 EXP SWAP1 DIV PUSH20 0xFFFFFFFFFFFFFFFFFFFFFFFFFFFFFFFFFFFFFFFF AND SWAP1 POP DUP2 PUSH1 0x0 DUP1 PUSH2 0x100 EXP DUP2 SLOAD DUP2 PUSH20 0xFFFFFFFFFFFFFFFFFFFFFFFFFFFFFFFFFFFFFFFF MUL NOT AND SWAP1 DUP4 PUSH20 0xFFFFFFFFFFFFFFFFFFFFFFFFFFFFFFFFFFFFFFFF AND MUL OR SWAP1 SSTORE POP DUP2 PUSH20 0xFFFFFFFFFFFFFFFFFFFFFFFFFFFFFFFFFFFFFFFF AND DUP2 PUSH20 0xFFFFFFFFFFFFFFFFFFFFFFFFFFFFFFFFFFFFFFFF AND PUSH32 0x8BE0079C531659141344CD1FD0A4F28419497F9722A3DAAFE3B4186F6B6457E0 PUSH1 0x40 MLOAD PUSH1 0x40 MLOAD DUP1 SWAP2 SUB SWAP1 LOG3 POP POP JUMP JUMPDEST PUSH1 0x0 DUP2 MLOAD SWAP1 POP PUSH3 0x1C6 DUP2 PUSH3 0x24C JUMP JUMPDEST SWAP3 SWAP2 POP POP JUMP JUMPDEST PUSH1 0x0 DUP1 PUSH1 0x40 DUP4 DUP6 SUB SLT ISZERO PUSH3 0x1E6 JUMPI PUSH3 0x1E5 PUSH3 0x247 JUMP JUMPDEST JUMPDEST PUSH1 0x0 PUSH3 0x1F6 DUP6 DUP3 DUP7 ADD PUSH3 0x1B5 JUMP JUMPDEST SWAP3 POP POP PUSH1 0x20 PUSH3 0x209 DUP6 DUP3 DUP7 ADD PUSH3 0x1B5 JUMP JUMPDEST SWAP2 POP POP SWAP3 POP SWAP3 SWAP1 POP JUMP JUMPDEST PUSH1 0x0 PUSH3 0x220 DUP3 PUSH3 0x227 JUMP JUMPDEST SWAP1 POP SWAP2 SWAP1 POP JUMP JUMPDEST PUSH1 0x0 PUSH20 0xFFFFFFFFFFFFFFFFFFFFFFFFFFFFFFFFFFFFFFFF DUP3 AND SWAP1 POP SWAP2 SWAP1 POP JUMP JUMPDEST PUSH1 0x0 DUP1 REVERT JUMPDEST PUSH3 0x257 DUP2 PUSH3 0x213 JUMP JUMPDEST DUP2 EQ PUSH3 0x263 JUMPI PUSH1 0x0 DUP1 REVERT JUMPDEST POP JUMP JUMPDEST PUSH2 0x2B87 DUP1 PUSH3 0x276 PUSH1 0x0 CODECOPY PUSH1 0x0 RETURN INVALID PUSH1 0x80 PUSH1 0x40 MSTORE CALLVALUE DUP1 ISZERO PUSH2 0x10 JUMPI PUSH1 0x0 DUP1 REVERT JUMPDEST POP PUSH1 0x4 CALLDATASIZE LT PUSH2 0x93 JUMPI PUSH1 0x0 CALLDATALOAD PUSH1 0xE0 SHR DUP1 PUSH4 0xB5EC25AE GT PUSH2 0x66 JUMPI DUP1 PUSH4 0xB5EC25AE EQ PUSH2 0xFA JUMPI DUP1 PUSH4 0xCD3C6E56 EQ PUSH2 0x116 JUMPI DUP1 PUSH4 0xE6D46C8D EQ PUSH2 0x132 JUMPI DUP1 PUSH4 0xEFFBB95D EQ PUSH2 0x14E JUMPI DUP1 PUSH4 0xF2FDE38B EQ PUSH2 0x184 JUMPI PUSH2 0x93 JUMP JUMPDEST DUP1 PUSH4 0x62063E87 EQ PUSH2 0x98 JUMPI DUP1 PUSH4 0x715018A6 EQ PUSH2 0xC8 JUMPI DUP1 PUSH4 0x8DA5CB5B EQ PUSH2 0xD2 JUMPI DUP1 PUSH4 0xAF812EBF EQ PUSH2 0xF0 JUMPI JUMPDEST PUSH1 0x0 DUP1 REVERT JUMPDEST PUSH2 0xB2 PUSH1 0x4 DUP1 CALLDATASIZE SUB DUP2 ADD SWAP1 PUSH2 0xAD SWAP2 SWAP1 PUSH2 0x1F35 JUMP JUMPDEST PUSH2 0x1A0 JUMP JUMPDEST PUSH1 0x40 MLOAD PUSH2 0xBF SWAP2 SWAP1 PUSH2 0x2317 JUMP JUMPDEST PUSH1 0x40 MLOAD DUP1 SWAP2 SUB SWAP1 RETURN JUMPDEST PUSH2 0xD0 PUSH2 0x51B JUMP JUMPDEST STOP JUMPDEST PUSH2 0xDA PUSH2 0x52F JUMP JUMPDEST PUSH1 0x40 MLOAD PUSH2 0xE7 SWAP2 SWAP1 PUSH2 0x2273 JUMP JUMPDEST PUSH1 0x40 MLOAD DUP1 SWAP2 SUB SWAP1 RETURN JUMPDEST PUSH2 0xF8 PUSH2 0x558 JUMP JUMPDEST STOP JUMPDEST PUSH2 0x114 PUSH1 0x4 DUP1 CALLDATASIZE SUB DUP2 ADD SWAP1 PUSH2 0x10F SWAP2 SWAP1 PUSH2 0x205B JUMP JUMPDEST PUSH2 0x68E JUMP JUMPDEST STOP JUMPDEST PUSH2 0x130 PUSH1 0x4 DUP1 CALLDATASIZE SUB DUP2 ADD SWAP1 PUSH2 0x12B SWAP2 SWAP1 PUSH2 0x20B5 JUMP JUMPDEST PUSH2 0xADC JUMP JUMPDEST STOP JUMPDEST PUSH2 0x14C PUSH1 0x4 DUP1 CALLDATASIZE SUB DUP2 ADD SWAP1 PUSH2 0x147 SWAP2 SWAP1 PUSH2 0x205B JUMP JUMPDEST PUSH2 0xDA6 JUMP JUMPDEST STOP JUMPDEST PUSH2 0x168 PUSH1 0x4 DUP1 CALLDATASIZE SUB DUP2 ADD SWAP1 PUSH2 0x163 SWAP2 SWAP1 PUSH2 0x205B JUMP JUMPDEST PUSH2 0x1639 JUMP JUMPDEST PUSH1 0x40 MLOAD PUSH2 0x17B SWAP8 SWAP7 SWAP6 SWAP5 SWAP4 SWAP3 SWAP2 SWAP1 PUSH2 0x2332 JUMP JUMPDEST PUSH1 0x40 MLOAD DUP1 SWAP2 SUB SWAP1 RETURN JUMPDEST PUSH2 0x19E PUSH1 0x4 DUP1 CALLDATASIZE SUB DUP2 ADD SWAP1 PUSH2 0x199 SWAP2 SWAP1 PUSH2 0x1EAE JUMP JUMPDEST PUSH2 0x173D JUMP JUMPDEST STOP JUMPDEST PUSH1 0x0 DUP1 PUSH1 0x2 PUSH1 0x0 PUSH1 0x1 SLOAD DUP2 MSTORE PUSH1 0x20 ADD SWAP1 DUP2 MSTORE PUSH1 0x20 ADD PUSH1 0x0 KECCAK256 SWAP1 POP DUP10 DUP2 PUSH1 0x0 ADD SWAP1 DUP1 MLOAD SWAP1 PUSH1 0x20 ADD SWAP1 PUSH2 0x1D2 SWAP3 SWAP2 SWAP1 PUSH2 0x190B JUMP JUMPDEST POP DUP4 DUP2 PUSH1 0x7 ADD DUP2 SWAP1 SSTORE POP PUSH1 0x0 JUMPDEST DUP7 DUP2 LT ISZERO PUSH2 0x28F JUMPI DUP8 DUP2 DUP2 MLOAD DUP2 LT PUSH2 0x1FA JUMPI PUSH2 0x1F9 PUSH2 0x28E6 JUMP JUMPDEST JUMPDEST PUSH1 0x20 MUL PUSH1 0x20 ADD ADD MLOAD DUP3 PUSH1 0x4 ADD PUSH1 0x0 DUP11 DUP5 DUP2 MLOAD DUP2 LT PUSH2 0x21B JUMPI PUSH2 0x21A PUSH2 0x28E6 JUMP JUMPDEST JUMPDEST PUSH1 0x20 MUL PUSH1 0x20 ADD ADD MLOAD PUSH1 0x0 ADD MLOAD DUP2 MSTORE PUSH1 0x20 ADD SWAP1 DUP2 MSTORE PUSH1 0x20 ADD PUSH1 0x0 KECCAK256 PUSH1 0x0 DUP3 ADD MLOAD DUP2 PUSH1 0x0 ADD SSTORE PUSH1 0x20 DUP3 ADD MLOAD DUP2 PUSH1 0x1 ADD SWAP1 DUP1 MLOAD SWAP1 PUSH1 0x20 ADD SWAP1 PUSH2 0x25B SWAP3 SWAP2 SWAP1 PUSH2 0x190B JUMP JUMPDEST POP PUSH1 0x40 DUP3 ADD MLOAD DUP2 PUSH1 0x2 ADD SWAP1 DUP1 MLOAD SWAP1 PUSH1 0x20 ADD SWAP1 PUSH2 0x278 SWAP3 SWAP2 SWAP1 PUSH2 0x1991 JUMP JUMPDEST POP SWAP1 POP POP DUP1 DUP1 PUSH2 0x287 SWAP1 PUSH2 0x2810 JUMP JUMPDEST SWAP2 POP POP PUSH2 0x1DF JUMP JUMPDEST POP PUSH1 0x0 JUMPDEST DUP6 DUP2 LT ISZERO PUSH2 0x465 JUMPI PUSH1 0x0 JUMPDEST DUP7 DUP2 LT ISZERO PUSH2 0x367 JUMPI PUSH1 0x1 DUP11 DUP4 DUP2 MLOAD DUP2 LT PUSH2 0x2BB JUMPI PUSH2 0x2BA PUSH2 0x28E6 JUMP JUMPDEST JUMPDEST PUSH1 0x20 MUL PUSH1 0x20 ADD ADD MLOAD DUP3 DUP2 MLOAD DUP2 LT PUSH2 0x2D5 JUMPI PUSH2 0x2D4 PUSH2 0x28E6 JUMP JUMPDEST JUMPDEST PUSH1 0x20 MUL PUSH1 0x20 ADD ADD MLOAD EQ ISZERO PUSH2 0x354 JUMPI DUP3 PUSH1 0x1 ADD PUSH1 0x0 DUP13 DUP5 DUP2 MLOAD DUP2 LT PUSH2 0x2FC JUMPI PUSH2 0x2FB PUSH2 0x28E6 JUMP JUMPDEST JUMPDEST PUSH1 0x20 MUL PUSH1 0x20 ADD ADD MLOAD DUP2 MSTORE PUSH1 0x20 ADD SWAP1 DUP2 MSTORE PUSH1 0x20 ADD PUSH1 0x0 KECCAK256 DUP12 DUP3 DUP2 MLOAD DUP2 LT PUSH2 0x325 JUMPI PUSH2 0x324 PUSH2 0x28E6 JUMP JUMPDEST JUMPDEST PUSH1 0x20 MUL PUSH1 0x20 ADD ADD MLOAD SWAP1 DUP1 PUSH1 0x1 DUP2 SLOAD ADD DUP1 DUP3 SSTORE DUP1 SWAP2 POP POP PUSH1 0x1 SWAP1 SUB SWAP1 PUSH1 0x0 MSTORE PUSH1 0x20 PUSH1 0x0 KECCAK256 ADD PUSH1 0x0 SWAP1 SWAP2 SWAP1 SWAP2 SWAP1 SWAP2 POP SSTORE JUMPDEST DUP1 DUP1 PUSH2 0x35F SWAP1 PUSH2 0x2810 JUMP JUMPDEST SWAP2 POP POP PUSH2 0x29E JUMP JUMPDEST POP PUSH1 0x0 DUP3 PUSH1 0x1 ADD PUSH1 0x0 DUP13 DUP5 DUP2 MLOAD DUP2 LT PUSH2 0x383 JUMPI PUSH2 0x382 PUSH2 0x28E6 JUMP JUMPDEST JUMPDEST PUSH1 0x20 MUL PUSH1 0x20 ADD ADD MLOAD DUP2 MSTORE PUSH1 0x20 ADD SWAP1 DUP2 MSTORE PUSH1 0x20 ADD PUSH1 0x0 KECCAK256 DUP1 SLOAD SWAP1 POP EQ ISZERO PUSH2 0x452 JUMPI DUP2 PUSH1 0x1 ADD PUSH1 0x0 DUP12 DUP4 DUP2 MLOAD DUP2 LT PUSH2 0x3BC JUMPI PUSH2 0x3BB PUSH2 0x28E6 JUMP JUMPDEST JUMPDEST PUSH1 0x20 MUL PUSH1 0x20 ADD ADD MLOAD DUP2 MSTORE PUSH1 0x20 ADD SWAP1 DUP2 MSTORE PUSH1 0x20 ADD PUSH1 0x0 KECCAK256 PUSH1 0x0 SWAP1 DUP1 PUSH1 0x1 DUP2 SLOAD ADD DUP1 DUP3 SSTORE DUP1 SWAP2 POP POP PUSH1 0x1 SWAP1 SUB SWAP1 PUSH1 0x0 MSTORE PUSH1 0x20 PUSH1 0x0 KECCAK256 ADD PUSH1 0x0 SWAP1 SWAP2 SWAP1 SWAP2 SWAP1 SWAP2 POP SSTORE DUP2 PUSH1 0x1 ADD PUSH1 0x0 DUP12 DUP4 DUP2 MLOAD DUP2 LT PUSH2 0x413 JUMPI PUSH2 0x412 PUSH2 0x28E6 JUMP JUMPDEST JUMPDEST PUSH1 0x20 MUL PUSH1 0x20 ADD ADD MLOAD DUP2 MSTORE PUSH1 0x20 ADD SWAP1 DUP2 MSTORE PUSH1 0x20 ADD PUSH1 0x0 KECCAK256 PUSH1 0x0 SWAP1 DUP1 PUSH1 0x1 DUP2 SLOAD ADD DUP1 DUP3 SSTORE DUP1 SWAP2 POP POP PUSH1 0x1 SWAP1 SUB SWAP1 PUSH1 0x0 MSTORE PUSH1 0x20 PUSH1 0x0 KECCAK256 ADD PUSH1 0x0 SWAP1 SWAP2 SWAP1 SWAP2 SWAP1 SWAP2 POP SSTORE JUMPDEST DUP1 DUP1 PUSH2 0x45D SWAP1 PUSH2 0x2810 JUMP JUMPDEST SWAP2 POP POP PUSH2 0x293 JUMP JUMPDEST POP PUSH1 0x0 DUP2 PUSH1 0x6 ADD PUSH1 0x0 PUSH2 0x100 EXP DUP2 SLOAD DUP2 PUSH1 0xFF MUL NOT AND SWAP1 DUP4 ISZERO ISZERO MUL OR SWAP1 SSTORE POP PUSH1 0x0 DUP2 PUSH1 0x5 ADD DUP2 SWAP1 SSTORE POP DUP3 DUP2 PUSH1 0x6 ADD PUSH1 0x1 PUSH2 0x100 EXP DUP2 SLOAD DUP2 PUSH20 0xFFFFFFFFFFFFFFFFFFFFFFFFFFFFFFFFFFFFFFFF MUL NOT AND SWAP1 DUP4 PUSH20 0xFFFFFFFFFFFFFFFFFFFFFFFFFFFFFFFFFFFFFFFF AND MUL OR SWAP1 SSTORE POP DUP9 DUP2 PUSH1 0x2 ADD SWAP1 DUP1 MLOAD SWAP1 PUSH1 0x20 ADD SWAP1 PUSH2 0x4E8 SWAP3 SWAP2 SWAP1 PUSH2 0x1A1B JUMP JUMPDEST POP DUP5 DUP2 PUSH1 0x3 ADD DUP2 SWAP1 SSTORE POP PUSH1 0x1 PUSH1 0x0 DUP2 SLOAD DUP1 SWAP3 SWAP2 SWAP1 PUSH2 0x505 SWAP1 PUSH2 0x2810 JUMP JUMPDEST SWAP2 SWAP1 POP SSTORE POP PUSH1 0x1 SWAP2 POP POP SWAP9 SWAP8 POP POP POP POP POP POP POP POP JUMP JUMPDEST PUSH2 0x523 PUSH2 0x17C1 JUMP JUMPDEST PUSH2 0x52D PUSH1 0x0 PUSH2 0x183F JUMP JUMPDEST JUMP JUMPDEST PUSH1 0x0 DUP1 PUSH1 0x0 SWAP1 SLOAD SWAP1 PUSH2 0x100 EXP SWAP1 DIV PUSH20 0xFFFFFFFFFFFFFFFFFFFFFFFFFFFFFFFFFFFFFFFF AND SWAP1 POP SWAP1 JUMP JUMPDEST PUSH1 0x5 PUSH1 0x0 SWAP1 SLOAD SWAP1 PUSH2 0x100 EXP SWAP1 DIV PUSH20 0xFFFFFFFFFFFFFFFFFFFFFFFFFFFFFFFFFFFFFFFF AND PUSH20 0xFFFFFFFFFFFFFFFFFFFFFFFFFFFFFFFFFFFFFFFF AND PUSH4 0xA9059CBB CALLER PUSH1 0x3 PUSH1 0x0 CALLER PUSH20 0xFFFFFFFFFFFFFFFFFFFFFFFFFFFFFFFFFFFFFFFF AND PUSH20 0xFFFFFFFFFFFFFFFFFFFFFFFFFFFFFFFFFFFFFFFF AND DUP2 MSTORE PUSH1 0x20 ADD SWAP1 DUP2 MSTORE PUSH1 0x20 ADD PUSH1 0x0 KECCAK256 SLOAD PUSH1 0x40 MLOAD DUP4 PUSH4 0xFFFFFFFF AND PUSH1 0xE0 SHL DUP2 MSTORE PUSH1 0x4 ADD PUSH2 0x5F4 SWAP3 SWAP2 SWAP1 PUSH2 0x22EE JUMP JUMPDEST PUSH1 0x20 PUSH1 0x40 MLOAD DUP1 DUP4 SUB DUP2 PUSH1 0x0 DUP8 DUP1 EXTCODESIZE ISZERO DUP1 ISZERO PUSH2 0x60E JUMPI PUSH1 0x0 DUP1 REVERT JUMPDEST POP GAS CALL ISZERO DUP1 ISZERO PUSH2 0x622 JUMPI RETURNDATASIZE PUSH1 0x0 DUP1 RETURNDATACOPY RETURNDATASIZE PUSH1 0x0 REVERT JUMPDEST POP POP POP POP PUSH1 0x40 MLOAD RETURNDATASIZE PUSH1 0x1F NOT PUSH1 0x1F DUP3 ADD AND DUP3 ADD DUP1 PUSH1 0x40 MSTORE POP DUP2 ADD SWAP1 PUSH2 0x646 SWAP2 SWAP1 PUSH2 0x1F08 JUMP JUMPDEST POP PUSH1 0x0 PUSH1 0x3 PUSH1 0x0 CALLER PUSH20 0xFFFFFFFFFFFFFFFFFFFFFFFFFFFFFFFFFFFFFFFF AND PUSH20 0xFFFFFFFFFFFFFFFFFFFFFFFFFFFFFFFFFFFFFFFF AND DUP2 MSTORE PUSH1 0x20 ADD SWAP1 DUP2 MSTORE PUSH1 0x20 ADD PUSH1 0x0 KECCAK256 DUP2 SWAP1 SSTORE POP JUMP JUMPDEST PUSH1 0x1 ISZERO ISZERO PUSH1 0x2 PUSH1 0x0 DUP4 DUP2 MSTORE PUSH1 0x20 ADD SWAP1 DUP2 MSTORE PUSH1 0x20 ADD PUSH1 0x0 KECCAK256 PUSH1 0x6 ADD PUSH1 0x0 SWAP1 SLOAD SWAP1 PUSH2 0x100 EXP SWAP1 DIV PUSH1 0xFF AND ISZERO ISZERO EQ PUSH2 0x6F8 JUMPI PUSH1 0x40 MLOAD PUSH32 0x8C379A000000000000000000000000000000000000000000000000000000000 DUP2 MSTORE PUSH1 0x4 ADD PUSH2 0x6EF SWAP1 PUSH2 0x2408 JUMP JUMPDEST PUSH1 0x40 MLOAD DUP1 SWAP2 SUB SWAP1 REVERT JUMPDEST PUSH1 0x0 PUSH1 0x2 PUSH1 0x0 DUP4 DUP2 MSTORE PUSH1 0x20 ADD SWAP1 DUP2 MSTORE PUSH1 0x20 ADD PUSH1 0x0 KECCAK256 PUSH1 0x5 ADD SLOAD EQ ISZERO PUSH2 0x752 JUMPI PUSH1 0x40 MLOAD PUSH32 0x8C379A000000000000000000000000000000000000000000000000000000000 DUP2 MSTORE PUSH1 0x4 ADD PUSH2 0x749 SWAP1 PUSH2 0x2428 JUMP JUMPDEST PUSH1 0x40 MLOAD DUP1 SWAP2 SUB SWAP1 REVERT JUMPDEST PUSH1 0x0 PUSH1 0x2 PUSH1 0x0 DUP4 DUP2 MSTORE PUSH1 0x20 ADD SWAP1 DUP2 MSTORE PUSH1 0x20 ADD PUSH1 0x0 KECCAK256 PUSH1 0x7 ADD SLOAD SWAP1 POP JUMPDEST PUSH1 0x0 DUP2 EQ PUSH2 0xAD8 JUMPI PUSH1 0x1 PUSH1 0x6 PUSH1 0x0 SWAP1 SLOAD SWAP1 PUSH2 0x100 EXP SWAP1 DIV PUSH20 0xFFFFFFFFFFFFFFFFFFFFFFFFFFFFFFFFFFFFFFFF AND PUSH20 0xFFFFFFFFFFFFFFFFFFFFFFFFFFFFFFFFFFFFFFFF AND PUSH3 0xFDD58E CALLER DUP5 PUSH1 0x40 MLOAD DUP4 PUSH4 0xFFFFFFFF AND PUSH1 0xE0 SHL DUP2 MSTORE PUSH1 0x4 ADD PUSH2 0x7D4 SWAP3 SWAP2 SWAP1 PUSH2 0x22EE JUMP JUMPDEST PUSH1 0x20 PUSH1 0x40 MLOAD DUP1 DUP4 SUB DUP2 DUP7 DUP1 EXTCODESIZE ISZERO DUP1 ISZERO PUSH2 0x7EC JUMPI PUSH1 0x0 DUP1 REVERT JUMPDEST POP GAS STATICCALL ISZERO DUP1 ISZERO PUSH2 0x800 JUMPI RETURNDATASIZE PUSH1 0x0 DUP1 RETURNDATACOPY RETURNDATASIZE PUSH1 0x0 REVERT JUMPDEST POP POP POP POP PUSH1 0x40 MLOAD RETURNDATASIZE PUSH1 0x1F NOT PUSH1 0x1F DUP3 ADD AND DUP3 ADD DUP1 PUSH1 0x40 MSTORE POP DUP2 ADD SWAP1 PUSH2 0x824 SWAP2 SWAP1 PUSH2 0x2088 JUMP JUMPDEST EQ ISZERO PUSH2 0xA8B JUMPI PUSH1 0x2 PUSH1 0x0 DUP4 DUP2 MSTORE PUSH1 0x20 ADD SWAP1 DUP2 MSTORE PUSH1 0x20 ADD PUSH1 0x0 KECCAK256 PUSH1 0x1 ADD PUSH1 0x0 DUP3 DUP2 MSTORE PUSH1 0x20 ADD SWAP1 DUP2 MSTORE PUSH1 0x20 ADD PUSH1 0x0 KECCAK256 PUSH1 0x0 DUP2 SLOAD DUP2 LT PUSH2 0x864 JUMPI PUSH2 0x863 PUSH2 0x28E6 JUMP JUMPDEST JUMPDEST SWAP1 PUSH1 0x0 MSTORE PUSH1 0x20 PUSH1 0x0 KECCAK256 ADD SLOAD SWAP1 POP DUP1 PUSH1 0x2 PUSH1 0x0 DUP5 DUP2 MSTORE PUSH1 0x20 ADD SWAP1 DUP2 MSTORE PUSH1 0x20 ADD PUSH1 0x0 KECCAK256 PUSH1 0x4 ADD PUSH1 0x0 DUP4 DUP2 MSTORE PUSH1 0x20 ADD SWAP1 DUP2 MSTORE PUSH1 0x20 ADD PUSH1 0x0 KECCAK256 PUSH1 0x0 ADD SLOAD EQ ISZERO PUSH2 0x92F JUMPI PUSH1 0x2 PUSH1 0x0 DUP4 DUP2 MSTORE PUSH1 0x20 ADD SWAP1 DUP2 MSTORE PUSH1 0x20 ADD PUSH1 0x0 KECCAK256 PUSH1 0x4 ADD PUSH1 0x0 DUP3 DUP2 MSTORE PUSH1 0x20 ADD SWAP1 DUP2 MSTORE PUSH1 0x20 ADD PUSH1 0x0 KECCAK256 PUSH1 0x2 ADD CALLER SWAP1 DUP1 PUSH1 0x1 DUP2 SLOAD ADD DUP1 DUP3 SSTORE DUP1 SWAP2 POP POP PUSH1 0x1 SWAP1 SUB SWAP1 PUSH1 0x0 MSTORE PUSH1 0x20 PUSH1 0x0 KECCAK256 ADD PUSH1 0x0 SWAP1 SWAP2 SWAP1 SWAP2 SWAP1 SWAP2 PUSH2 0x100 EXP DUP2 SLOAD DUP2 PUSH20 0xFFFFFFFFFFFFFFFFFFFFFFFFFFFFFFFFFFFFFFFF MUL NOT AND SWAP1 DUP4 PUSH20 0xFFFFFFFFFFFFFFFFFFFFFFFFFFFFFFFFFFFFFFFF AND MUL OR SWAP1 SSTORE POP JUMPDEST PUSH1 0x0 PUSH3 0x61A80 PUSH1 0x2 PUSH1 0x0 DUP6 DUP2 MSTORE PUSH1 0x20 ADD SWAP1 DUP2 MSTORE PUSH1 0x20 ADD PUSH1 0x0 KECCAK256 PUSH1 0x5 ADD SLOAD PUSH2 0x956 SWAP2 SWAP1 PUSH2 0x2664 JUMP JUMPDEST SWAP1 POP DUP1 PUSH1 0x3 PUSH1 0x0 PUSH1 0x6 PUSH1 0x0 SWAP1 SLOAD SWAP1 PUSH2 0x100 EXP SWAP1 DIV PUSH20 0xFFFFFFFFFFFFFFFFFFFFFFFFFFFFFFFFFFFFFFFF AND PUSH20 0xFFFFFFFFFFFFFFFFFFFFFFFFFFFFFFFFFFFFFFFF AND PUSH4 0x25E56054 DUP7 PUSH1 0x40 MLOAD DUP3 PUSH4 0xFFFFFFFF AND PUSH1 0xE0 SHL DUP2 MSTORE PUSH1 0x4 ADD PUSH2 0x9B8 SWAP2 SWAP1 PUSH2 0x24A8 JUMP JUMPDEST PUSH1 0x20 PUSH1 0x40 MLOAD DUP1 DUP4 SUB DUP2 DUP7 DUP1 EXTCODESIZE ISZERO DUP1 ISZERO PUSH2 0x9D0 JUMPI PUSH1 0x0 DUP1 REVERT JUMPDEST POP GAS STATICCALL ISZERO DUP1 ISZERO PUSH2 0x9E4 JUMPI RETURNDATASIZE PUSH1 0x0 DUP1 RETURNDATACOPY RETURNDATASIZE PUSH1 0x0 REVERT JUMPDEST POP POP POP POP PUSH1 0x40 MLOAD RETURNDATASIZE PUSH1 0x1F NOT PUSH1 0x1F DUP3 ADD AND DUP3 ADD DUP1 PUSH1 0x40 MSTORE POP DUP2 ADD SWAP1 PUSH2 0xA08 SWAP2 SWAP1 PUSH2 0x1EDB JUMP JUMPDEST PUSH20 0xFFFFFFFFFFFFFFFFFFFFFFFFFFFFFFFFFFFFFFFF AND PUSH20 0xFFFFFFFFFFFFFFFFFFFFFFFFFFFFFFFFFFFFFFFF AND DUP2 MSTORE PUSH1 0x20 ADD SWAP1 DUP2 MSTORE PUSH1 0x20 ADD PUSH1 0x0 KECCAK256 PUSH1 0x0 DUP3 DUP3 SLOAD PUSH2 0xA51 SWAP2 SWAP1 PUSH2 0x260E JUMP JUMPDEST SWAP3 POP POP DUP2 SWAP1 SSTORE POP DUP1 PUSH1 0x2 PUSH1 0x0 DUP6 DUP2 MSTORE PUSH1 0x20 ADD SWAP1 DUP2 MSTORE PUSH1 0x20 ADD PUSH1 0x0 KECCAK256 PUSH1 0x5 ADD PUSH1 0x0 DUP3 DUP3 SLOAD PUSH2 0xA7E SWAP2 SWAP1 PUSH2 0x26EF JUMP JUMPDEST SWAP3 POP POP DUP2 SWAP1 SSTORE POP POP PUSH2 0xAD3 JUMP JUMPDEST PUSH1 0x2 PUSH1 0x0 DUP4 DUP2 MSTORE PUSH1 0x20 ADD SWAP1 DUP2 MSTORE PUSH1 0x20 ADD PUSH1 0x0 KECCAK256 PUSH1 0x1 ADD PUSH1 0x0 DUP3 DUP2 MSTORE PUSH1 0x20 ADD SWAP1 DUP2 MSTORE PUSH1 0x20 ADD PUSH1 0x0 KECCAK256 PUSH1 0x1 DUP2 SLOAD DUP2 LT PUSH2 0xAC5 JUMPI PUSH2 0xAC4 PUSH2 0x28E6 JUMP JUMPDEST JUMPDEST SWAP1 PUSH1 0x0 MSTORE PUSH1 0x20 PUSH1 0x0 KECCAK256 ADD SLOAD SWAP1 POP JUMPDEST PUSH2 0x76E JUMP JUMPDEST POP POP JUMP JUMPDEST PUSH1 0x0 DUP2 GT PUSH2 0xB1F JUMPI PUSH1 0x40 MLOAD PUSH32 0x8C379A000000000000000000000000000000000000000000000000000000000 DUP2 MSTORE PUSH1 0x4 ADD PUSH2 0xB16 SWAP1 PUSH2 0x2468 JUMP JUMPDEST PUSH1 0x40 MLOAD DUP1 SWAP2 SUB SWAP1 REVERT JUMPDEST PUSH1 0x0 PUSH1 0x5 PUSH1 0x0 SWAP1 SLOAD SWAP1 PUSH2 0x100 EXP SWAP1 DIV PUSH20 0xFFFFFFFFFFFFFFFFFFFFFFFFFFFFFFFFFFFFFFFF AND PUSH20 0xFFFFFFFFFFFFFFFFFFFFFFFFFFFFFFFFFFFFFFFF AND PUSH4 0xDD62ED3E CALLER ADDRESS PUSH1 0x40 MLOAD DUP4 PUSH4 0xFFFFFFFF AND PUSH1 0xE0 SHL DUP2 MSTORE PUSH1 0x4 ADD PUSH2 0xB7E SWAP3 SWAP2 SWAP1 PUSH2 0x228E JUMP JUMPDEST PUSH1 0x20 PUSH1 0x40 MLOAD DUP1 DUP4 SUB DUP2 DUP7 DUP1 EXTCODESIZE ISZERO DUP1 ISZERO PUSH2 0xB96 JUMPI PUSH1 0x0 DUP1 REVERT JUMPDEST POP GAS STATICCALL ISZERO DUP1 ISZERO PUSH2 0xBAA JUMPI RETURNDATASIZE PUSH1 0x0 DUP1 RETURNDATACOPY RETURNDATASIZE PUSH1 0x0 REVERT JUMPDEST POP POP POP POP PUSH1 0x40 MLOAD RETURNDATASIZE PUSH1 0x1F NOT PUSH1 0x1F DUP3 ADD AND DUP3 ADD DUP1 PUSH1 0x40 MSTORE POP DUP2 ADD SWAP1 PUSH2 0xBCE SWAP2 SWAP1 PUSH2 0x2088 JUMP JUMPDEST SWAP1 POP DUP2 DUP2 LT ISZERO PUSH2 0xC13 JUMPI PUSH1 0x40 MLOAD PUSH32 0x8C379A000000000000000000000000000000000000000000000000000000000 DUP2 MSTORE PUSH1 0x4 ADD PUSH2 0xC0A SWAP1 PUSH2 0x23E8 JUMP JUMPDEST PUSH1 0x40 MLOAD DUP1 SWAP2 SUB SWAP1 REVERT JUMPDEST PUSH1 0x5 PUSH1 0x0 SWAP1 SLOAD SWAP1 PUSH2 0x100 EXP SWAP1 DIV PUSH20 0xFFFFFFFFFFFFFFFFFFFFFFFFFFFFFFFFFFFFFFFF AND PUSH20 0xFFFFFFFFFFFFFFFFFFFFFFFFFFFFFFFFFFFFFFFF AND PUSH4 0x23B872DD CALLER ADDRESS DUP6 PUSH1 0x40 MLOAD DUP5 PUSH4 0xFFFFFFFF AND PUSH1 0xE0 SHL DUP2 MSTORE PUSH1 0x4 ADD PUSH2 0xC72 SWAP4 SWAP3 SWAP2 SWAP1 PUSH2 0x22B7 JUMP JUMPDEST PUSH1 0x20 PUSH1 0x40 MLOAD DUP1 DUP4 SUB DUP2 PUSH1 0x0 DUP8 DUP1 EXTCODESIZE ISZERO DUP1 ISZERO PUSH2 0xC8C JUMPI PUSH1 0x0 DUP1 REVERT JUMPDEST POP GAS CALL ISZERO DUP1 ISZERO PUSH2 0xCA0 JUMPI RETURNDATASIZE PUSH1 0x0 DUP1 RETURNDATACOPY RETURNDATASIZE PUSH1 0x0 REVERT JUMPDEST POP POP POP POP PUSH1 0x40 MLOAD RETURNDATASIZE PUSH1 0x1F NOT PUSH1 0x1F DUP3 ADD AND DUP3 ADD DUP1 PUSH1 0x40 MSTORE POP DUP2 ADD SWAP1 PUSH2 0xCC4 SWAP2 SWAP1 PUSH2 0x1F08 JUMP JUMPDEST POP CALLER PUSH20 0xFFFFFFFFFFFFFFFFFFFFFFFFFFFFFFFFFFFFFFFF AND PUSH2 0x8FC DUP4 SWAP1 DUP2 ISZERO MUL SWAP1 PUSH1 0x40 MLOAD PUSH1 0x0 PUSH1 0x40 MLOAD DUP1 DUP4 SUB DUP2 DUP6 DUP9 DUP9 CALL SWAP4 POP POP POP POP ISZERO DUP1 ISZERO PUSH2 0xD0B JUMPI RETURNDATASIZE PUSH1 0x0 DUP1 RETURNDATACOPY RETURNDATASIZE PUSH1 0x0 REVERT JUMPDEST POP DUP2 PUSH1 0x2 PUSH1 0x0 DUP6 DUP2 MSTORE PUSH1 0x20 ADD SWAP1 DUP2 MSTORE PUSH1 0x20 ADD PUSH1 0x0 KECCAK256 PUSH1 0x5 ADD PUSH1 0x0 DUP3 DUP3 SLOAD PUSH2 0xD32 SWAP2 SWAP1 PUSH2 0x260E JUMP JUMPDEST SWAP3 POP POP DUP2 SWAP1 SSTORE POP PUSH1 0x1 PUSH1 0x2 PUSH1 0x0 DUP6 DUP2 MSTORE PUSH1 0x20 ADD SWAP1 DUP2 MSTORE PUSH1 0x20 ADD PUSH1 0x0 KECCAK256 PUSH1 0x6 ADD PUSH1 0x0 PUSH2 0x100 EXP DUP2 SLOAD DUP2 PUSH1 0xFF MUL NOT AND SWAP1 DUP4 ISZERO ISZERO MUL OR SWAP1 SSTORE POP PUSH32 0x21F9BB95EA07D82A536314FD89080112CDA91FC68B6E0A77CED196A3A291E1C9 DUP4 DUP4 PUSH1 0x40 MLOAD PUSH2 0xD99 SWAP3 SWAP2 SWAP1 PUSH2 0x24C3 JUMP JUMPDEST PUSH1 0x40 MLOAD DUP1 SWAP2 SUB SWAP1 LOG1 POP POP POP JUMP JUMPDEST PUSH2 0xDAE PUSH2 0x52F JUMP JUMPDEST PUSH20 0xFFFFFFFFFFFFFFFFFFFFFFFFFFFFFFFFFFFFFFFF AND CALLER PUSH20 0xFFFFFFFFFFFFFFFFFFFFFFFFFFFFFFFFFFFFFFFF AND EQ DUP1 PUSH2 0xE48 JUMPI POP PUSH1 0x2 PUSH1 0x0 DUP3 DUP2 MSTORE PUSH1 0x20 ADD SWAP1 DUP2 MSTORE PUSH1 0x20 ADD PUSH1 0x0 KECCAK256 PUSH1 0x6 ADD PUSH1 0x1 SWAP1 SLOAD SWAP1 PUSH2 0x100 EXP SWAP1 DIV PUSH20 0xFFFFFFFFFFFFFFFFFFFFFFFFFFFFFFFFFFFFFFFF AND PUSH20 0xFFFFFFFFFFFFFFFFFFFFFFFFFFFFFFFFFFFFFFFF AND CALLER PUSH20 0xFFFFFFFFFFFFFFFFFFFFFFFFFFFFFFFFFFFFFFFF AND EQ JUMPDEST PUSH2 0xE87 JUMPI PUSH1 0x40 MLOAD PUSH32 0x8C379A000000000000000000000000000000000000000000000000000000000 DUP2 MSTORE PUSH1 0x4 ADD PUSH2 0xE7E SWAP1 PUSH2 0x2488 JUMP JUMPDEST PUSH1 0x40 MLOAD DUP1 SWAP2 SUB SWAP1 REVERT JUMPDEST PUSH1 0x1 ISZERO ISZERO PUSH1 0x2 PUSH1 0x0 DUP4 DUP2 MSTORE PUSH1 0x20 ADD SWAP1 DUP2 MSTORE PUSH1 0x20 ADD PUSH1 0x0 KECCAK256 PUSH1 0x6 ADD PUSH1 0x0 SWAP1 SLOAD SWAP1 PUSH2 0x100 EXP SWAP1 DIV PUSH1 0xFF AND ISZERO ISZERO EQ PUSH2 0xEF1 JUMPI PUSH1 0x40 MLOAD PUSH32 0x8C379A000000000000000000000000000000000000000000000000000000000 DUP2 MSTORE PUSH1 0x4 ADD PUSH2 0xEE8 SWAP1 PUSH2 0x23C8 JUMP JUMPDEST PUSH1 0x40 MLOAD DUP1 SWAP2 SUB SWAP1 REVERT JUMPDEST PUSH1 0x0 JUMPDEST PUSH1 0x2 PUSH1 0x0 DUP4 DUP2 MSTORE PUSH1 0x20 ADD SWAP1 DUP2 MSTORE PUSH1 0x20 ADD PUSH1 0x0 KECCAK256 PUSH1 0x3 ADD SLOAD DUP2 LT ISZERO PUSH2 0x1058 JUMPI PUSH1 0x1 PUSH1 0x4 PUSH1 0x0 PUSH1 0x6 PUSH1 0x0 SWAP1 SLOAD SWAP1 PUSH2 0x100 EXP SWAP1 DIV PUSH20 0xFFFFFFFFFFFFFFFFFFFFFFFFFFFFFFFFFFFFFFFF AND PUSH20 0xFFFFFFFFFFFFFFFFFFFFFFFFFFFFFFFFFFFFFFFF AND PUSH4 0x58B478F4 PUSH1 0x2 PUSH1 0x0 DUP9 DUP2 MSTORE PUSH1 0x20 ADD SWAP1 DUP2 MSTORE PUSH1 0x20 ADD PUSH1 0x0 KECCAK256 PUSH1 0x2 ADD DUP7 DUP2 SLOAD DUP2 LT PUSH2 0xF7E JUMPI PUSH2 0xF7D PUSH2 0x28E6 JUMP JUMPDEST JUMPDEST SWAP1 PUSH1 0x0 MSTORE PUSH1 0x20 PUSH1 0x0 KECCAK256 ADD SLOAD PUSH1 0x40 MLOAD DUP3 PUSH4 0xFFFFFFFF AND PUSH1 0xE0 SHL DUP2 MSTORE PUSH1 0x4 ADD PUSH2 0xFA5 SWAP2 SWAP1 PUSH2 0x24A8 JUMP JUMPDEST PUSH1 0x20 PUSH1 0x40 MLOAD DUP1 DUP4 SUB DUP2 DUP7 DUP1 EXTCODESIZE ISZERO DUP1 ISZERO PUSH2 0xFBD JUMPI PUSH1 0x0 DUP1 REVERT JUMPDEST POP GAS STATICCALL ISZERO DUP1 ISZERO PUSH2 0xFD1 JUMPI RETURNDATASIZE PUSH1 0x0 DUP1 RETURNDATACOPY RETURNDATASIZE PUSH1 0x0 REVERT JUMPDEST POP POP POP POP PUSH1 0x40 MLOAD RETURNDATASIZE PUSH1 0x1F NOT PUSH1 0x1F DUP3 ADD AND DUP3 ADD DUP1 PUSH1 0x40 MSTORE POP DUP2 ADD SWAP1 PUSH2 0xFF5 SWAP2 SWAP1 PUSH2 0x1EDB JUMP JUMPDEST PUSH20 0xFFFFFFFFFFFFFFFFFFFFFFFFFFFFFFFFFFFFFFFF AND PUSH20 0xFFFFFFFFFFFFFFFFFFFFFFFFFFFFFFFFFFFFFFFF AND DUP2 MSTORE PUSH1 0x20 ADD SWAP1 DUP2 MSTORE PUSH1 0x20 ADD PUSH1 0x0 KECCAK256 PUSH1 0x0 DUP3 DUP3 SLOAD PUSH2 0x103E SWAP2 SWAP1 PUSH2 0x260E JUMP JUMPDEST SWAP3 POP POP DUP2 SWAP1 SSTORE POP DUP1 DUP1 PUSH2 0x1050 SWAP1 PUSH2 0x2810 JUMP JUMPDEST SWAP2 POP POP PUSH2 0xEF4 JUMP JUMPDEST POP PUSH1 0x0 JUMPDEST PUSH1 0x2 PUSH1 0x0 DUP4 DUP2 MSTORE PUSH1 0x20 ADD SWAP1 DUP2 MSTORE PUSH1 0x20 ADD PUSH1 0x0 KECCAK256 PUSH1 0x3 ADD SLOAD DUP2 LT ISZERO PUSH2 0x1606 JUMPI PUSH1 0x0 PUSH1 0x4 PUSH1 0x0 PUSH1 0x6 PUSH1 0x0 SWAP1 SLOAD SWAP1 PUSH2 0x100 EXP SWAP1 DIV PUSH20 0xFFFFFFFFFFFFFFFFFFFFFFFFFFFFFFFFFFFFFFFF AND PUSH20 0xFFFFFFFFFFFFFFFFFFFFFFFFFFFFFFFFFFFFFFFF AND PUSH4 0x58B478F4 PUSH1 0x2 PUSH1 0x0 DUP9 DUP2 MSTORE PUSH1 0x20 ADD SWAP1 DUP2 MSTORE PUSH1 0x20 ADD PUSH1 0x0 KECCAK256 PUSH1 0x2 ADD DUP7 DUP2 SLOAD DUP2 LT PUSH2 0x10E6 JUMPI PUSH2 0x10E5 PUSH2 0x28E6 JUMP JUMPDEST JUMPDEST SWAP1 PUSH1 0x0 MSTORE PUSH1 0x20 PUSH1 0x0 KECCAK256 ADD SLOAD PUSH1 0x40 MLOAD DUP3 PUSH4 0xFFFFFFFF AND PUSH1 0xE0 SHL DUP2 MSTORE PUSH1 0x4 ADD PUSH2 0x110D SWAP2 SWAP1 PUSH2 0x24A8 JUMP JUMPDEST PUSH1 0x20 PUSH1 0x40 MLOAD DUP1 DUP4 SUB DUP2 DUP7 DUP1 EXTCODESIZE ISZERO DUP1 ISZERO PUSH2 0x1125 JUMPI PUSH1 0x0 DUP1 REVERT JUMPDEST POP GAS STATICCALL ISZERO DUP1 ISZERO PUSH2 0x1139 JUMPI RETURNDATASIZE PUSH1 0x0 DUP1 RETURNDATACOPY RETURNDATASIZE PUSH1 0x0 REVERT JUMPDEST POP POP POP POP PUSH1 0x40 MLOAD RETURNDATASIZE PUSH1 0x1F NOT PUSH1 0x1F DUP3 ADD AND DUP3 ADD DUP1 PUSH1 0x40 MSTORE POP DUP2 ADD SWAP1 PUSH2 0x115D SWAP2 SWAP1 PUSH2 0x1EDB JUMP JUMPDEST PUSH20 0xFFFFFFFFFFFFFFFFFFFFFFFFFFFFFFFFFFFFFFFF AND PUSH20 0xFFFFFFFFFFFFFFFFFFFFFFFFFFFFFFFFFFFFFFFF AND DUP2 MSTORE PUSH1 0x20 ADD SWAP1 DUP2 MSTORE PUSH1 0x20 ADD PUSH1 0x0 KECCAK256 SLOAD EQ PUSH2 0x15F3 JUMPI PUSH1 0x0 PUSH1 0x2 PUSH1 0x0 DUP5 DUP2 MSTORE PUSH1 0x20 ADD SWAP1 DUP2 MSTORE PUSH1 0x20 ADD PUSH1 0x0 KECCAK256 PUSH1 0x3 ADD SLOAD PUSH1 0x64 PUSH2 0x11C2 SWAP2 SWAP1 PUSH2 0x2695 JUMP JUMPDEST PUSH1 0x4 PUSH1 0x0 PUSH1 0x6 PUSH1 0x0 SWAP1 SLOAD SWAP1 PUSH2 0x100 EXP SWAP1 DIV PUSH20 0xFFFFFFFFFFFFFFFFFFFFFFFFFFFFFFFFFFFFFFFF AND PUSH20 0xFFFFFFFFFFFFFFFFFFFFFFFFFFFFFFFFFFFFFFFF AND PUSH4 0x58B478F4 PUSH1 0x2 PUSH1 0x0 DUP10 DUP2 MSTORE PUSH1 0x20 ADD SWAP1 DUP2 MSTORE PUSH1 0x20 ADD PUSH1 0x0 KECCAK256 PUSH1 0x2 ADD DUP8 DUP2 SLOAD DUP2 LT PUSH2 0x122C JUMPI PUSH2 0x122B PUSH2 0x28E6 JUMP JUMPDEST JUMPDEST SWAP1 PUSH1 0x0 MSTORE PUSH1 0x20 PUSH1 0x0 KECCAK256 ADD SLOAD PUSH1 0x40 MLOAD DUP3 PUSH4 0xFFFFFFFF AND PUSH1 0xE0 SHL DUP2 MSTORE PUSH1 0x4 ADD PUSH2 0x1253 SWAP2 SWAP1 PUSH2 0x24A8 JUMP JUMPDEST PUSH1 0x20 PUSH1 0x40 MLOAD DUP1 DUP4 SUB DUP2 DUP7 DUP1 EXTCODESIZE ISZERO DUP1 ISZERO PUSH2 0x126B JUMPI PUSH1 0x0 DUP1 REVERT JUMPDEST POP GAS STATICCALL ISZERO DUP1 ISZERO PUSH2 0x127F JUMPI RETURNDATASIZE PUSH1 0x0 DUP1 RETURNDATACOPY RETURNDATASIZE PUSH1 0x0 REVERT JUMPDEST POP POP POP POP PUSH1 0x40 MLOAD RETURNDATASIZE PUSH1 0x1F NOT PUSH1 0x1F DUP3 ADD AND DUP3 ADD DUP1 PUSH1 0x40 MSTORE POP DUP2 ADD SWAP1 PUSH2 0x12A3 SWAP2 SWAP1 PUSH2 0x1EDB JUMP JUMPDEST PUSH20 0xFFFFFFFFFFFFFFFFFFFFFFFFFFFFFFFFFFFFFFFF AND PUSH20 0xFFFFFFFFFFFFFFFFFFFFFFFFFFFFFFFFFFFFFFFF AND DUP2 MSTORE PUSH1 0x20 ADD SWAP1 DUP2 MSTORE PUSH1 0x20 ADD PUSH1 0x0 KECCAK256 SLOAD PUSH1 0x2 PUSH1 0x0 DUP7 DUP2 MSTORE PUSH1 0x20 ADD SWAP1 DUP2 MSTORE PUSH1 0x20 ADD PUSH1 0x0 KECCAK256 PUSH1 0x5 ADD SLOAD PUSH1 0x33 PUSH2 0x1301 SWAP2 SWAP1 PUSH2 0x2695 JUMP JUMPDEST PUSH2 0x130B SWAP2 SWAP1 PUSH2 0x2695 JUMP JUMPDEST PUSH2 0x1315 SWAP2 SWAP1 PUSH2 0x2664 JUMP JUMPDEST SWAP1 POP DUP1 PUSH1 0x2 PUSH1 0x0 DUP6 DUP2 MSTORE PUSH1 0x20 ADD SWAP1 DUP2 MSTORE PUSH1 0x20 ADD PUSH1 0x0 KECCAK256 PUSH1 0x5 ADD PUSH1 0x0 DUP3 DUP3 SLOAD PUSH2 0x133D SWAP2 SWAP1 PUSH2 0x26EF JUMP JUMPDEST SWAP3 POP POP DUP2 SWAP1 SSTORE POP PUSH1 0x5 PUSH1 0x0 SWAP1 SLOAD SWAP1 PUSH2 0x100 EXP SWAP1 DIV PUSH20 0xFFFFFFFFFFFFFFFFFFFFFFFFFFFFFFFFFFFFFFFF AND PUSH20 0xFFFFFFFFFFFFFFFFFFFFFFFFFFFFFFFFFFFFFFFF AND PUSH4 0xA9059CBB PUSH1 0x6 PUSH1 0x0 SWAP1 SLOAD SWAP1 PUSH2 0x100 EXP SWAP1 DIV PUSH20 0xFFFFFFFFFFFFFFFFFFFFFFFFFFFFFFFFFFFFFFFF AND PUSH20 0xFFFFFFFFFFFFFFFFFFFFFFFFFFFFFFFFFFFFFFFF AND PUSH4 0x58B478F4 PUSH1 0x2 PUSH1 0x0 DUP9 DUP2 MSTORE PUSH1 0x20 ADD SWAP1 DUP2 MSTORE PUSH1 0x20 ADD PUSH1 0x0 KECCAK256 PUSH1 0x2 ADD DUP7 DUP2 SLOAD DUP2 LT PUSH2 0x13E8 JUMPI PUSH2 0x13E7 PUSH2 0x28E6 JUMP JUMPDEST JUMPDEST SWAP1 PUSH1 0x0 MSTORE PUSH1 0x20 PUSH1 0x0 KECCAK256 ADD SLOAD PUSH1 0x40 MLOAD DUP3 PUSH4 0xFFFFFFFF AND PUSH1 0xE0 SHL DUP2 MSTORE PUSH1 0x4 ADD PUSH2 0x140F SWAP2 SWAP1 PUSH2 0x24A8 JUMP JUMPDEST PUSH1 0x20 PUSH1 0x40 MLOAD DUP1 DUP4 SUB DUP2 DUP7 DUP1 EXTCODESIZE ISZERO DUP1 ISZERO PUSH2 0x1427 JUMPI PUSH1 0x0 DUP1 REVERT JUMPDEST POP GAS STATICCALL ISZERO DUP1 ISZERO PUSH2 0x143B JUMPI RETURNDATASIZE PUSH1 0x0 DUP1 RETURNDATACOPY RETURNDATASIZE PUSH1 0x0 REVERT JUMPDEST POP POP POP POP PUSH1 0x40 MLOAD RETURNDATASIZE PUSH1 0x1F NOT PUSH1 0x1F DUP3 ADD AND DUP3 ADD DUP1 PUSH1 0x40 MSTORE POP DUP2 ADD SWAP1 PUSH2 0x145F SWAP2 SWAP1 PUSH2 0x1EDB JUMP JUMPDEST DUP4 PUSH1 0x40 MLOAD DUP4 PUSH4 0xFFFFFFFF AND PUSH1 0xE0 SHL DUP2 MSTORE PUSH1 0x4 ADD PUSH2 0x147D SWAP3 SWAP2 SWAP1 PUSH2 0x22EE JUMP JUMPDEST PUSH1 0x20 PUSH1 0x40 MLOAD DUP1 DUP4 SUB DUP2 PUSH1 0x0 DUP8 DUP1 EXTCODESIZE ISZERO DUP1 ISZERO PUSH2 0x1497 JUMPI PUSH1 0x0 DUP1 REVERT JUMPDEST POP GAS CALL ISZERO DUP1 ISZERO PUSH2 0x14AB JUMPI RETURNDATASIZE PUSH1 0x0 DUP1 RETURNDATACOPY RETURNDATASIZE PUSH1 0x0 REVERT JUMPDEST POP POP POP POP PUSH1 0x40 MLOAD RETURNDATASIZE PUSH1 0x1F NOT PUSH1 0x1F DUP3 ADD AND DUP3 ADD DUP1 PUSH1 0x40 MSTORE POP DUP2 ADD SWAP1 PUSH2 0x14CF SWAP2 SWAP1 PUSH2 0x1F08 JUMP JUMPDEST POP PUSH1 0x0 PUSH1 0x4 PUSH1 0x0 PUSH1 0x6 PUSH1 0x0 SWAP1 SLOAD SWAP1 PUSH2 0x100 EXP SWAP1 DIV PUSH20 0xFFFFFFFFFFFFFFFFFFFFFFFFFFFFFFFFFFFFFFFF AND PUSH20 0xFFFFFFFFFFFFFFFFFFFFFFFFFFFFFFFFFFFFFFFF AND PUSH4 0x58B478F4 PUSH1 0x2 PUSH1 0x0 DUP10 DUP2 MSTORE PUSH1 0x20 ADD SWAP1 DUP2 MSTORE PUSH1 0x20 ADD PUSH1 0x0 KECCAK256 PUSH1 0x2 ADD DUP8 DUP2 SLOAD DUP2 LT PUSH2 0x153C JUMPI PUSH2 0x153B PUSH2 0x28E6 JUMP JUMPDEST JUMPDEST SWAP1 PUSH1 0x0 MSTORE PUSH1 0x20 PUSH1 0x0 KECCAK256 ADD SLOAD PUSH1 0x40 MLOAD DUP3 PUSH4 0xFFFFFFFF AND PUSH1 0xE0 SHL DUP2 MSTORE PUSH1 0x4 ADD PUSH2 0x1563 SWAP2 SWAP1 PUSH2 0x24A8 JUMP JUMPDEST PUSH1 0x20 PUSH1 0x40 MLOAD DUP1 DUP4 SUB DUP2 DUP7 DUP1 EXTCODESIZE ISZERO DUP1 ISZERO PUSH2 0x157B JUMPI PUSH1 0x0 DUP1 REVERT JUMPDEST POP GAS STATICCALL ISZERO DUP1 ISZERO PUSH2 0x158F JUMPI RETURNDATASIZE PUSH1 0x0 DUP1 RETURNDATACOPY RETURNDATASIZE PUSH1 0x0 REVERT JUMPDEST POP POP POP POP PUSH1 0x40 MLOAD RETURNDATASIZE PUSH1 0x1F NOT PUSH1 0x1F DUP3 ADD AND DUP3 ADD DUP1 PUSH1 0x40 MSTORE POP DUP2 ADD SWAP1 PUSH2 0x15B3 SWAP2 SWAP1 PUSH2 0x1EDB JUMP JUMPDEST PUSH20 0xFFFFFFFFFFFFFFFFFFFFFFFFFFFFFFFFFFFFFFFF AND PUSH20 0xFFFFFFFFFFFFFFFFFFFFFFFFFFFFFFFFFFFFFFFF AND DUP2 MSTORE PUSH1 0x20 ADD SWAP1 DUP2 MSTORE PUSH1 0x20 ADD PUSH1 0x0 KECCAK256 DUP2 SWAP1 SSTORE POP POP JUMPDEST DUP1 DUP1 PUSH2 0x15FE SWAP1 PUSH2 0x2810 JUMP JUMPDEST SWAP2 POP POP PUSH2 0x105C JUMP JUMPDEST POP PUSH1 0x0 PUSH1 0x2 PUSH1 0x0 DUP4 DUP2 MSTORE PUSH1 0x20 ADD SWAP1 DUP2 MSTORE PUSH1 0x20 ADD PUSH1 0x0 KECCAK256 PUSH1 0x6 ADD PUSH1 0x0 PUSH2 0x100 EXP DUP2 SLOAD DUP2 PUSH1 0xFF MUL NOT AND SWAP1 DUP4 ISZERO ISZERO MUL OR SWAP1 SSTORE POP POP JUMP JUMPDEST PUSH1 0x2 PUSH1 0x20 MSTORE DUP1 PUSH1 0x0 MSTORE PUSH1 0x40 PUSH1 0x0 KECCAK256 PUSH1 0x0 SWAP2 POP SWAP1 POP DUP1 PUSH1 0x0 ADD DUP1 SLOAD PUSH2 0x165C SWAP1 PUSH2 0x27AD JUMP JUMPDEST DUP1 PUSH1 0x1F ADD PUSH1 0x20 DUP1 SWAP2 DIV MUL PUSH1 0x20 ADD PUSH1 0x40 MLOAD SWAP1 DUP2 ADD PUSH1 0x40 MSTORE DUP1 SWAP3 SWAP2 SWAP1 DUP2 DUP2 MSTORE PUSH1 0x20 ADD DUP3 DUP1 SLOAD PUSH2 0x1688 SWAP1 PUSH2 0x27AD JUMP JUMPDEST DUP1 ISZERO PUSH2 0x16D5 JUMPI DUP1 PUSH1 0x1F LT PUSH2 0x16AA JUMPI PUSH2 0x100 DUP1 DUP4 SLOAD DIV MUL DUP4 MSTORE SWAP2 PUSH1 0x20 ADD SWAP2 PUSH2 0x16D5 JUMP JUMPDEST DUP3 ADD SWAP2 SWAP1 PUSH1 0x0 MSTORE PUSH1 0x20 PUSH1 0x0 KECCAK256 SWAP1 JUMPDEST DUP2 SLOAD DUP2 MSTORE SWAP1 PUSH1 0x1 ADD SWAP1 PUSH1 0x20 ADD DUP1 DUP4 GT PUSH2 0x16B8 JUMPI DUP3 SWAP1 SUB PUSH1 0x1F AND DUP3 ADD SWAP2 JUMPDEST POP POP POP POP POP SWAP1 DUP1 PUSH1 0x3 ADD SLOAD SWAP1 DUP1 PUSH1 0x5 ADD SLOAD SWAP1 DUP1 PUSH1 0x6 ADD PUSH1 0x0 SWAP1 SLOAD SWAP1 PUSH2 0x100 EXP SWAP1 DIV PUSH1 0xFF AND SWAP1 DUP1 PUSH1 0x6 ADD PUSH1 0x1 SWAP1 SLOAD SWAP1 PUSH2 0x100 EXP SWAP1 DIV PUSH20 0xFFFFFFFFFFFFFFFFFFFFFFFFFFFFFFFFFFFFFFFF AND SWAP1 DUP1 PUSH1 0x6 ADD PUSH1 0x15 SWAP1 SLOAD SWAP1 PUSH2 0x100 EXP SWAP1 DIV PUSH1 0xFF AND SWAP1 DUP1 PUSH1 0x7 ADD SLOAD SWAP1 POP DUP8 JUMP JUMPDEST PUSH2 0x1745 PUSH2 0x17C1 JUMP JUMPDEST PUSH1 0x0 PUSH20 0xFFFFFFFFFFFFFFFFFFFFFFFFFFFFFFFFFFFFFFFF AND DUP2 PUSH20 0xFFFFFFFFFFFFFFFFFFFFFFFFFFFFFFFFFFFFFFFF AND EQ ISZERO PUSH2 0x17B5 JUMPI PUSH1 0x40 MLOAD PUSH32 0x8C379A000000000000000000000000000000000000000000000000000000000 DUP2 MSTORE PUSH1 0x4 ADD PUSH2 0x17AC SWAP1 PUSH2 0x23A8 JUMP JUMPDEST PUSH1 0x40 MLOAD DUP1 SWAP2 SUB SWAP1 REVERT JUMPDEST PUSH2 0x17BE DUP2 PUSH2 0x183F JUMP JUMPDEST POP JUMP JUMPDEST PUSH2 0x17C9 PUSH2 0x1903 JUMP JUMPDEST PUSH20 0xFFFFFFFFFFFFFFFFFFFFFFFFFFFFFFFFFFFFFFFF AND PUSH2 0x17E7 PUSH2 0x52F JUMP JUMPDEST PUSH20 0xFFFFFFFFFFFFFFFFFFFFFFFFFFFFFFFFFFFFFFFF AND EQ PUSH2 0x183D JUMPI PUSH1 0x40 MLOAD PUSH32 0x8C379A000000000000000000000000000000000000000000000000000000000 DUP2 MSTORE PUSH1 0x4 ADD PUSH2 0x1834 SWAP1 PUSH2 0x2448 JUMP JUMPDEST PUSH1 0x40 MLOAD DUP1 SWAP2 SUB SWAP1 REVERT JUMPDEST JUMP JUMPDEST PUSH1 0x0 DUP1 PUSH1 0x0 SWAP1 SLOAD SWAP1 PUSH2 0x100 EXP SWAP1 DIV PUSH20 0xFFFFFFFFFFFFFFFFFFFFFFFFFFFFFFFFFFFFFFFF AND SWAP1 POP DUP2 PUSH1 0x0 DUP1 PUSH2 0x100 EXP DUP2 SLOAD DUP2 PUSH20 0xFFFFFFFFFFFFFFFFFFFFFFFFFFFFFFFFFFFFFFFF MUL NOT AND SWAP1 DUP4 PUSH20 0xFFFFFFFFFFFFFFFFFFFFFFFFFFFFFFFFFFFFFFFF AND MUL OR SWAP1 SSTORE POP DUP2 PUSH20 0xFFFFFFFFFFFFFFFFFFFFFFFFFFFFFFFFFFFFFFFF AND DUP2 PUSH20 0xFFFFFFFFFFFFFFFFFFFFFFFFFFFFFFFFFFFFFFFF AND PUSH32 0x8BE0079C531659141344CD1FD0A4F28419497F9722A3DAAFE3B4186F6B6457E0 PUSH1 0x40 MLOAD PUSH1 0x40 MLOAD DUP1 SWAP2 SUB SWAP1 LOG3 POP POP JUMP JUMPDEST PUSH1 0x0 CALLER SWAP1 POP SWAP1 JUMP JUMPDEST DUP3 DUP1 SLOAD PUSH2 0x1917 SWAP1 PUSH2 0x27AD JUMP JUMPDEST SWAP1 PUSH1 0x0 MSTORE PUSH1 0x20 PUSH1 0x0 KECCAK256 SWAP1 PUSH1 0x1F ADD PUSH1 0x20 SWAP1 DIV DUP2 ADD SWAP3 DUP3 PUSH2 0x1939 JUMPI PUSH1 0x0 DUP6 SSTORE PUSH2 0x1980 JUMP JUMPDEST DUP3 PUSH1 0x1F LT PUSH2 0x1952 JUMPI DUP1 MLOAD PUSH1 0xFF NOT AND DUP4 DUP1 ADD OR DUP6 SSTORE PUSH2 0x1980 JUMP JUMPDEST DUP3 DUP1 ADD PUSH1 0x1 ADD DUP6 SSTORE DUP3 ISZERO PUSH2 0x1980 JUMPI SWAP2 DUP3 ADD JUMPDEST DUP3 DUP2 GT ISZERO PUSH2 0x197F JUMPI DUP3 MLOAD DUP3 SSTORE SWAP2 PUSH1 0x20 ADD SWAP2 SWAP1 PUSH1 0x1 ADD SWAP1 PUSH2 0x1964 JUMP JUMPDEST JUMPDEST POP SWAP1 POP PUSH2 0x198D SWAP2 SWAP1 PUSH2 0x1A68 JUMP JUMPDEST POP SWAP1 JUMP JUMPDEST DUP3 DUP1 SLOAD DUP3 DUP3 SSTORE SWAP1 PUSH1 0x0 MSTORE PUSH1 0x20 PUSH1 0x0 KECCAK256 SWAP1 DUP2 ADD SWAP3 DUP3 ISZERO PUSH2 0x1A0A JUMPI SWAP2 PUSH1 0x20 MUL DUP3 ADD JUMPDEST DUP3 DUP2 GT ISZERO PUSH2 0x1A09 JUMPI DUP3 MLOAD DUP3 PUSH1 0x0 PUSH2 0x100 EXP DUP2 SLOAD DUP2 PUSH20 0xFFFFFFFFFFFFFFFFFFFFFFFFFFFFFFFFFFFFFFFF MUL NOT AND SWAP1 DUP4 PUSH20 0xFFFFFFFFFFFFFFFFFFFFFFFFFFFFFFFFFFFFFFFF AND MUL OR SWAP1 SSTORE POP SWAP2 PUSH1 0x20 ADD SWAP2 SWAP1 PUSH1 0x1 ADD SWAP1 PUSH2 0x19B1 JUMP JUMPDEST JUMPDEST POP SWAP1 POP PUSH2 0x1A17 SWAP2 SWAP1 PUSH2 0x1A68 JUMP JUMPDEST POP SWAP1 JUMP JUMPDEST DUP3 DUP1 SLOAD DUP3 DUP3 SSTORE SWAP1 PUSH1 0x0 MSTORE PUSH1 0x20 PUSH1 0x0 KECCAK256 SWAP1 DUP2 ADD SWAP3 DUP3 ISZERO PUSH2 0x1A57 JUMPI SWAP2 PUSH1 0x20 MUL DUP3 ADD JUMPDEST DUP3 DUP2 GT ISZERO PUSH2 0x1A56 JUMPI DUP3 MLOAD DUP3 SSTORE SWAP2 PUSH1 0x20 ADD SWAP2 SWAP1 PUSH1 0x1 ADD SWAP1 PUSH2 0x1A3B JUMP JUMPDEST JUMPDEST POP SWAP1 POP PUSH2 0x1A64 SWAP2 SWAP1 PUSH2 0x1A68 JUMP JUMPDEST POP SWAP1 JUMP JUMPDEST JUMPDEST DUP1 DUP3 GT ISZERO PUSH2 0x1A81 JUMPI PUSH1 0x0 DUP2 PUSH1 0x0 SWAP1 SSTORE POP PUSH1 0x1 ADD PUSH2 0x1A69 JUMP JUMPDEST POP SWAP1 JUMP JUMPDEST PUSH1 0x0 PUSH2 0x1A98 PUSH2 0x1A93 DUP5 PUSH2 0x2511 JUMP JUMPDEST PUSH2 0x24EC JUMP JUMPDEST SWAP1 POP DUP1 DUP4 DUP3 MSTORE PUSH1 0x20 DUP3 ADD SWAP1 POP DUP3 DUP6 PUSH1 0x20 DUP7 MUL DUP3 ADD GT ISZERO PUSH2 0x1ABB JUMPI PUSH2 0x1ABA PUSH2 0x2953 JUMP JUMPDEST JUMPDEST PUSH1 0x0 JUMPDEST DUP6 DUP2 LT ISZERO PUSH2 0x1AEB JUMPI DUP2 PUSH2 0x1AD1 DUP9 DUP3 PUSH2 0x1CC3 JUMP JUMPDEST DUP5 MSTORE PUSH1 0x20 DUP5 ADD SWAP4 POP PUSH1 0x20 DUP4 ADD SWAP3 POP POP PUSH1 0x1 DUP2 ADD SWAP1 POP PUSH2 0x1ABE JUMP JUMPDEST POP POP POP SWAP4 SWAP3 POP POP POP JUMP JUMPDEST PUSH1 0x0 PUSH2 0x1B08 PUSH2 0x1B03 DUP5 PUSH2 0x253D JUMP JUMPDEST PUSH2 0x24EC JUMP JUMPDEST SWAP1 POP DUP1 DUP4 DUP3 MSTORE PUSH1 0x20 DUP3 ADD SWAP1 POP DUP3 DUP6 PUSH1 0x20 DUP7 MUL DUP3 ADD GT ISZERO PUSH2 0x1B2B JUMPI PUSH2 0x1B2A PUSH2 0x2953 JUMP JUMPDEST JUMPDEST PUSH1 0x0 JUMPDEST DUP6 DUP2 LT ISZERO PUSH2 0x1B79 JUMPI DUP2 CALLDATALOAD PUSH8 0xFFFFFFFFFFFFFFFF DUP2 GT ISZERO PUSH2 0x1B51 JUMPI PUSH2 0x1B50 PUSH2 0x2944 JUMP JUMPDEST JUMPDEST DUP1 DUP7 ADD PUSH2 0x1B5E DUP10 DUP3 PUSH2 0x1D77 JUMP JUMPDEST DUP6 MSTORE PUSH1 0x20 DUP6 ADD SWAP5 POP PUSH1 0x20 DUP5 ADD SWAP4 POP POP POP PUSH1 0x1 DUP2 ADD SWAP1 POP PUSH2 0x1B2E JUMP JUMPDEST POP POP POP SWAP4 SWAP3 POP POP POP JUMP JUMPDEST PUSH1 0x0 PUSH2 0x1B96 PUSH2 0x1B91 DUP5 PUSH2 0x2569 JUMP JUMPDEST PUSH2 0x24EC JUMP JUMPDEST SWAP1 POP DUP1 DUP4 DUP3 MSTORE PUSH1 0x20 DUP3 ADD SWAP1 POP DUP3 DUP6 PUSH1 0x20 DUP7 MUL DUP3 ADD GT ISZERO PUSH2 0x1BB9 JUMPI PUSH2 0x1BB8 PUSH2 0x2953 JUMP JUMPDEST JUMPDEST PUSH1 0x0 JUMPDEST DUP6 DUP2 LT ISZERO PUSH2 0x1C07 JUMPI DUP2 CALLDATALOAD PUSH8 0xFFFFFFFFFFFFFFFF DUP2 GT ISZERO PUSH2 0x1BDF JUMPI PUSH2 0x1BDE PUSH2 0x2944 JUMP JUMPDEST JUMPDEST DUP1 DUP7 ADD PUSH2 0x1BEC DUP10 DUP3 PUSH2 0x1DE8 JUMP JUMPDEST DUP6 MSTORE PUSH1 0x20 DUP6 ADD SWAP5 POP PUSH1 0x20 DUP5 ADD SWAP4 POP POP POP PUSH1 0x1 DUP2 ADD SWAP1 POP PUSH2 0x1BBC JUMP JUMPDEST POP POP POP SWAP4 SWAP3 POP POP POP JUMP JUMPDEST PUSH1 0x0 PUSH2 0x1C24 PUSH2 0x1C1F DUP5 PUSH2 0x2595 JUMP JUMPDEST PUSH2 0x24EC JUMP JUMPDEST SWAP1 POP DUP1 DUP4 DUP3 MSTORE PUSH1 0x20 DUP3 ADD SWAP1 POP DUP3 DUP6 PUSH1 0x20 DUP7 MUL DUP3 ADD GT ISZERO PUSH2 0x1C47 JUMPI PUSH2 0x1C46 PUSH2 0x2953 JUMP JUMPDEST JUMPDEST PUSH1 0x0 JUMPDEST DUP6 DUP2 LT ISZERO PUSH2 0x1C77 JUMPI DUP2 PUSH2 0x1C5D DUP9 DUP3 PUSH2 0x1E84 JUMP JUMPDEST DUP5 MSTORE PUSH1 0x20 DUP5 ADD SWAP4 POP PUSH1 0x20 DUP4 ADD SWAP3 POP POP PUSH1 0x1 DUP2 ADD SWAP1 POP PUSH2 0x1C4A JUMP JUMPDEST POP POP POP SWAP4 SWAP3 POP POP POP JUMP JUMPDEST PUSH1 0x0 PUSH2 0x1C94 PUSH2 0x1C8F DUP5 PUSH2 0x25C1 JUMP JUMPDEST PUSH2 0x24EC JUMP JUMPDEST SWAP1 POP DUP3 DUP2 MSTORE PUSH1 0x20 DUP2 ADD DUP5 DUP5 DUP5 ADD GT ISZERO PUSH2 0x1CB0 JUMPI PUSH2 0x1CAF PUSH2 0x2958 JUMP JUMPDEST JUMPDEST PUSH2 0x1CBB DUP5 DUP3 DUP6 PUSH2 0x276B JUMP JUMPDEST POP SWAP4 SWAP3 POP POP POP JUMP JUMPDEST PUSH1 0x0 DUP2 CALLDATALOAD SWAP1 POP PUSH2 0x1CD2 DUP2 PUSH2 0x2B0C JUMP JUMPDEST SWAP3 SWAP2 POP POP JUMP JUMPDEST PUSH1 0x0 DUP2 MLOAD SWAP1 POP PUSH2 0x1CE7 DUP2 PUSH2 0x2B0C JUMP JUMPDEST SWAP3 SWAP2 POP POP JUMP JUMPDEST PUSH1 0x0 DUP3 PUSH1 0x1F DUP4 ADD SLT PUSH2 0x1D02 JUMPI PUSH2 0x1D01 PUSH2 0x2944 JUMP JUMPDEST JUMPDEST DUP2 CALLDATALOAD PUSH2 0x1D12 DUP5 DUP3 PUSH1 0x20 DUP7 ADD PUSH2 0x1A85 JUMP JUMPDEST SWAP2 POP POP SWAP3 SWAP2 POP POP JUMP JUMPDEST PUSH1 0x0 DUP3 PUSH1 0x1F DUP4 ADD SLT PUSH2 0x1D30 JUMPI PUSH2 0x1D2F PUSH2 0x2944 JUMP JUMPDEST JUMPDEST DUP2 CALLDATALOAD PUSH2 0x1D40 DUP5 DUP3 PUSH1 0x20 DUP7 ADD PUSH2 0x1AF5 JUMP JUMPDEST SWAP2 POP POP SWAP3 SWAP2 POP POP JUMP JUMPDEST PUSH1 0x0 DUP3 PUSH1 0x1F DUP4 ADD SLT PUSH2 0x1D5E JUMPI PUSH2 0x1D5D PUSH2 0x2944 JUMP JUMPDEST JUMPDEST DUP2 CALLDATALOAD PUSH2 0x1D6E DUP5 DUP3 PUSH1 0x20 DUP7 ADD PUSH2 0x1B83 JUMP JUMPDEST SWAP2 POP POP SWAP3 SWAP2 POP POP JUMP JUMPDEST PUSH1 0x0 DUP3 PUSH1 0x1F DUP4 ADD SLT PUSH2 0x1D8C JUMPI PUSH2 0x1D8B PUSH2 0x2944 JUMP JUMPDEST JUMPDEST DUP2 CALLDATALOAD PUSH2 0x1D9C DUP5 DUP3 PUSH1 0x20 DUP7 ADD PUSH2 0x1C11 JUMP JUMPDEST SWAP2 POP POP SWAP3 SWAP2 POP POP JUMP JUMPDEST PUSH1 0x0 DUP2 MLOAD SWAP1 POP PUSH2 0x1DB4 DUP2 PUSH2 0x2B23 JUMP JUMPDEST SWAP3 SWAP2 POP POP JUMP JUMPDEST PUSH1 0x0 DUP3 PUSH1 0x1F DUP4 ADD SLT PUSH2 0x1DCF JUMPI PUSH2 0x1DCE PUSH2 0x2944 JUMP JUMPDEST JUMPDEST DUP2 CALLDATALOAD PUSH2 0x1DDF DUP5 DUP3 PUSH1 0x20 DUP7 ADD PUSH2 0x1C81 JUMP JUMPDEST SWAP2 POP POP SWAP3 SWAP2 POP POP JUMP JUMPDEST PUSH1 0x0 PUSH1 0x60 DUP3 DUP5 SUB SLT ISZERO PUSH2 0x1DFE JUMPI PUSH2 0x1DFD PUSH2 0x2949 JUMP JUMPDEST JUMPDEST PUSH2 0x1E08 PUSH1 0x60 PUSH2 0x24EC JUMP JUMPDEST SWAP1 POP PUSH1 0x0 PUSH2 0x1E18 DUP5 DUP3 DUP6 ADD PUSH2 0x1E84 JUMP JUMPDEST PUSH1 0x0 DUP4 ADD MSTORE POP PUSH1 0x20 DUP3 ADD CALLDATALOAD PUSH8 0xFFFFFFFFFFFFFFFF DUP2 GT ISZERO PUSH2 0x1E3C JUMPI PUSH2 0x1E3B PUSH2 0x294E JUMP JUMPDEST JUMPDEST PUSH2 0x1E48 DUP5 DUP3 DUP6 ADD PUSH2 0x1DBA JUMP JUMPDEST PUSH1 0x20 DUP4 ADD MSTORE POP PUSH1 0x40 DUP3 ADD CALLDATALOAD PUSH8 0xFFFFFFFFFFFFFFFF DUP2 GT ISZERO PUSH2 0x1E6C JUMPI PUSH2 0x1E6B PUSH2 0x294E JUMP JUMPDEST JUMPDEST PUSH2 0x1E78 DUP5 DUP3 DUP6 ADD PUSH2 0x1CED JUMP JUMPDEST PUSH1 0x40 DUP4 ADD MSTORE POP SWAP3 SWAP2 POP POP JUMP JUMPDEST PUSH1 0x0 DUP2 CALLDATALOAD SWAP1 POP PUSH2 0x1E93 DUP2 PUSH2 0x2B3A JUMP JUMPDEST SWAP3 SWAP2 POP POP JUMP JUMPDEST PUSH1 0x0 DUP2 MLOAD SWAP1 POP PUSH2 0x1EA8 DUP2 PUSH2 0x2B3A JUMP JUMPDEST SWAP3 SWAP2 POP POP JUMP JUMPDEST PUSH1 0x0 PUSH1 0x20 DUP3 DUP5 SUB SLT ISZERO PUSH2 0x1EC4 JUMPI PUSH2 0x1EC3 PUSH2 0x2962 JUMP JUMPDEST JUMPDEST PUSH1 0x0 PUSH2 0x1ED2 DUP5 DUP3 DUP6 ADD PUSH2 0x1CC3 JUMP JUMPDEST SWAP2 POP POP SWAP3 SWAP2 POP POP JUMP JUMPDEST PUSH1 0x0 PUSH1 0x20 DUP3 DUP5 SUB SLT ISZERO PUSH2 0x1EF1 JUMPI PUSH2 0x1EF0 PUSH2 0x2962 JUMP JUMPDEST JUMPDEST PUSH1 0x0 PUSH2 0x1EFF DUP5 DUP3 DUP6 ADD PUSH2 0x1CD8 JUMP JUMPDEST SWAP2 POP POP SWAP3 SWAP2 POP POP JUMP JUMPDEST PUSH1 0x0 PUSH1 0x20 DUP3 DUP5 SUB SLT ISZERO PUSH2 0x1F1E JUMPI PUSH2 0x1F1D PUSH2 0x2962 JUMP JUMPDEST JUMPDEST PUSH1 0x0 PUSH2 0x1F2C DUP5 DUP3 DUP6 ADD PUSH2 0x1DA5 JUMP JUMPDEST SWAP2 POP POP SWAP3 SWAP2 POP POP JUMP JUMPDEST PUSH1 0x0 DUP1 PUSH1 0x0 DUP1 PUSH1 0x0 DUP1 PUSH1 0x0 DUP1 PUSH2 0x100 DUP10 DUP12 SUB SLT ISZERO PUSH2 0x1F56 JUMPI PUSH2 0x1F55 PUSH2 0x2962 JUMP JUMPDEST JUMPDEST PUSH1 0x0 DUP10 ADD CALLDATALOAD PUSH8 0xFFFFFFFFFFFFFFFF DUP2 GT ISZERO PUSH2 0x1F74 JUMPI PUSH2 0x1F73 PUSH2 0x295D JUMP JUMPDEST JUMPDEST PUSH2 0x1F80 DUP12 DUP3 DUP13 ADD PUSH2 0x1DBA JUMP JUMPDEST SWAP9 POP POP PUSH1 0x20 DUP10 ADD CALLDATALOAD PUSH8 0xFFFFFFFFFFFFFFFF DUP2 GT ISZERO PUSH2 0x1FA1 JUMPI PUSH2 0x1FA0 PUSH2 0x295D JUMP JUMPDEST JUMPDEST PUSH2 0x1FAD DUP12 DUP3 DUP13 ADD PUSH2 0x1D77 JUMP JUMPDEST SWAP8 POP POP PUSH1 0x40 DUP10 ADD CALLDATALOAD PUSH8 0xFFFFFFFFFFFFFFFF DUP2 GT ISZERO PUSH2 0x1FCE JUMPI PUSH2 0x1FCD PUSH2 0x295D JUMP JUMPDEST JUMPDEST PUSH2 0x1FDA DUP12 DUP3 DUP13 ADD PUSH2 0x1D1B JUMP JUMPDEST SWAP7 POP POP PUSH1 0x60 DUP10 ADD CALLDATALOAD PUSH8 0xFFFFFFFFFFFFFFFF DUP2 GT ISZERO PUSH2 0x1FFB JUMPI PUSH2 0x1FFA PUSH2 0x295D JUMP JUMPDEST JUMPDEST PUSH2 0x2007 DUP12 DUP3 DUP13 ADD PUSH2 0x1D49 JUMP JUMPDEST SWAP6 POP POP PUSH1 0x80 PUSH2 0x2018 DUP12 DUP3 DUP13 ADD PUSH2 0x1E84 JUMP JUMPDEST SWAP5 POP POP PUSH1 0xA0 PUSH2 0x2029 DUP12 DUP3 DUP13 ADD PUSH2 0x1E84 JUMP JUMPDEST SWAP4 POP POP PUSH1 0xC0 PUSH2 0x203A DUP12 DUP3 DUP13 ADD PUSH2 0x1E84 JUMP JUMPDEST SWAP3 POP POP PUSH1 0xE0 PUSH2 0x204B DUP12 DUP3 DUP13 ADD PUSH2 0x1CC3 JUMP JUMPDEST SWAP2 POP POP SWAP3 SWAP6 SWAP9 POP SWAP3 SWAP6 SWAP9 SWAP1 SWAP4 SWAP7 POP JUMP JUMPDEST PUSH1 0x0 PUSH1 0x20 DUP3 DUP5 SUB SLT ISZERO PUSH2 0x2071 JUMPI PUSH2 0x2070 PUSH2 0x2962 JUMP JUMPDEST JUMPDEST PUSH1 0x0 PUSH2 0x207F DUP5 DUP3 DUP6 ADD PUSH2 0x1E84 JUMP JUMPDEST SWAP2 POP POP SWAP3 SWAP2 POP POP JUMP JUMPDEST PUSH1 0x0 PUSH1 0x20 DUP3 DUP5 SUB SLT ISZERO PUSH2 0x209E JUMPI PUSH2 0x209D PUSH2 0x2962 JUMP JUMPDEST JUMPDEST PUSH1 0x0 PUSH2 0x20AC DUP5 DUP3 DUP6 ADD PUSH2 0x1E99 JUMP JUMPDEST SWAP2 POP POP SWAP3 SWAP2 POP POP JUMP JUMPDEST PUSH1 0x0 DUP1 PUSH1 0x40 DUP4 DUP6 SUB SLT ISZERO PUSH2 0x20CC JUMPI PUSH2 0x20CB PUSH2 0x2962 JUMP JUMPDEST JUMPDEST PUSH1 0x0 PUSH2 0x20DA DUP6 DUP3 DUP7 ADD PUSH2 0x1E84 JUMP JUMPDEST SWAP3 POP POP PUSH1 0x20 PUSH2 0x20EB DUP6 DUP3 DUP7 ADD PUSH2 0x1E84 JUMP JUMPDEST SWAP2 POP POP SWAP3 POP SWAP3 SWAP1 POP JUMP JUMPDEST PUSH2 0x20FE DUP2 PUSH2 0x2723 JUMP JUMPDEST DUP3 MSTORE POP POP JUMP JUMPDEST PUSH2 0x210D DUP2 PUSH2 0x2735 JUMP JUMPDEST DUP3 MSTORE POP POP JUMP JUMPDEST PUSH1 0x0 PUSH2 0x211E DUP3 PUSH2 0x25F2 JUMP JUMPDEST PUSH2 0x2128 DUP2 DUP6 PUSH2 0x25FD JUMP JUMPDEST SWAP4 POP PUSH2 0x2138 DUP2 DUP6 PUSH1 0x20 DUP7 ADD PUSH2 0x277A JUMP JUMPDEST PUSH2 0x2141 DUP2 PUSH2 0x2967 JUMP JUMPDEST DUP5 ADD SWAP2 POP POP SWAP3 SWAP2 POP POP JUMP JUMPDEST PUSH1 0x0 PUSH2 0x2159 PUSH1 0x26 DUP4 PUSH2 0x25FD JUMP JUMPDEST SWAP2 POP PUSH2 0x2164 DUP3 PUSH2 0x2978 JUMP JUMPDEST PUSH1 0x40 DUP3 ADD SWAP1 POP SWAP2 SWAP1 POP JUMP JUMPDEST PUSH1 0x0 PUSH2 0x217C PUSH1 0x12 DUP4 PUSH2 0x25FD JUMP JUMPDEST SWAP2 POP PUSH2 0x2187 DUP3 PUSH2 0x29C7 JUMP JUMPDEST PUSH1 0x20 DUP3 ADD SWAP1 POP SWAP2 SWAP1 POP JUMP JUMPDEST PUSH1 0x0 PUSH2 0x219F PUSH1 0x12 DUP4 PUSH2 0x25FD JUMP JUMPDEST SWAP2 POP PUSH2 0x21AA DUP3 PUSH2 0x29F0 JUMP JUMPDEST PUSH1 0x20 DUP3 ADD SWAP1 POP SWAP2 SWAP1 POP JUMP JUMPDEST PUSH1 0x0 PUSH2 0x21C2 PUSH1 0x13 DUP4 PUSH2 0x25FD JUMP JUMPDEST SWAP2 POP PUSH2 0x21CD DUP3 PUSH2 0x2A19 JUMP JUMPDEST PUSH1 0x20 DUP3 ADD SWAP1 POP SWAP2 SWAP1 POP JUMP JUMPDEST PUSH1 0x0 PUSH2 0x21E5 PUSH1 0x21 DUP4 PUSH2 0x25FD JUMP JUMPDEST SWAP2 POP PUSH2 0x21F0 DUP3 PUSH2 0x2A42 JUMP JUMPDEST PUSH1 0x40 DUP3 ADD SWAP1 POP SWAP2 SWAP1 POP JUMP JUMPDEST PUSH1 0x0 PUSH2 0x2208 PUSH1 0x20 DUP4 PUSH2 0x25FD JUMP JUMPDEST SWAP2 POP PUSH2 0x2213 DUP3 PUSH2 0x2A91 JUMP JUMPDEST PUSH1 0x20 DUP3 ADD SWAP1 POP SWAP2 SWAP1 POP JUMP JUMPDEST PUSH1 0x0 PUSH2 0x222B PUSH1 0x16 DUP4 PUSH2 0x25FD JUMP JUMPDEST SWAP2 POP PUSH2 0x2236 DUP3 PUSH2 0x2ABA JUMP JUMPDEST PUSH1 0x20 DUP3 ADD SWAP1 POP SWAP2 SWAP1 POP JUMP JUMPDEST PUSH1 0x0 PUSH2 0x224E PUSH1 0x13 DUP4 PUSH2 0x25FD JUMP JUMPDEST SWAP2 POP PUSH2 0x2259 DUP3 PUSH2 0x2AE3 JUMP JUMPDEST PUSH1 0x20 DUP3 ADD SWAP1 POP SWAP2 SWAP1 POP JUMP JUMPDEST PUSH2 0x226D DUP2 PUSH2 0x2761 JUMP JUMPDEST DUP3 MSTORE POP POP JUMP JUMPDEST PUSH1 0x0 PUSH1 0x20 DUP3 ADD SWAP1 POP PUSH2 0x2288 PUSH1 0x0 DUP4 ADD DUP5 PUSH2 0x20F5 JUMP JUMPDEST SWAP3 SWAP2 POP POP JUMP JUMPDEST PUSH1 0x0 PUSH1 0x40 DUP3 ADD SWAP1 POP PUSH2 0x22A3 PUSH1 0x0 DUP4 ADD DUP6 PUSH2 0x20F5 JUMP JUMPDEST PUSH2 0x22B0 PUSH1 0x20 DUP4 ADD DUP5 PUSH2 0x20F5 JUMP JUMPDEST SWAP4 SWAP3 POP POP POP JUMP JUMPDEST PUSH1 0x0 PUSH1 0x60 DUP3 ADD SWAP1 POP PUSH2 0x22CC PUSH1 0x0 DUP4 ADD DUP7 PUSH2 0x20F5 JUMP JUMPDEST PUSH2 0x22D9 PUSH1 0x20 DUP4 ADD DUP6 PUSH2 0x20F5 JUMP JUMPDEST PUSH2 0x22E6 PUSH1 0x40 DUP4 ADD DUP5 PUSH2 0x2264 JUMP JUMPDEST SWAP5 SWAP4 POP POP POP POP JUMP JUMPDEST PUSH1 0x0 PUSH1 0x40 DUP3 ADD SWAP1 POP PUSH2 0x2303 PUSH1 0x0 DUP4 ADD DUP6 PUSH2 0x20F5 JUMP JUMPDEST PUSH2 0x2310 PUSH1 0x20 DUP4 ADD DUP5 PUSH2 0x2264 JUMP JUMPDEST SWAP4 SWAP3 POP POP POP JUMP JUMPDEST PUSH1 0x0 PUSH1 0x20 DUP3 ADD SWAP1 POP PUSH2 0x232C PUSH1 0x0 DUP4 ADD DUP5 PUSH2 0x2104 JUMP JUMPDEST SWAP3 SWAP2 POP POP JUMP JUMPDEST PUSH1 0x0 PUSH1 0xE0 DUP3 ADD SWAP1 POP DUP2 DUP2 SUB PUSH1 0x0 DUP4 ADD MSTORE PUSH2 0x234C DUP2 DUP11 PUSH2 0x2113 JUMP JUMPDEST SWAP1 POP PUSH2 0x235B PUSH1 0x20 DUP4 ADD DUP10 PUSH2 0x2264 JUMP JUMPDEST PUSH2 0x2368 PUSH1 0x40 DUP4 ADD DUP9 PUSH2 0x2264 JUMP JUMPDEST PUSH2 0x2375 PUSH1 0x60 DUP4 ADD DUP8 PUSH2 0x2104 JUMP JUMPDEST PUSH2 0x2382 PUSH1 0x80 DUP4 ADD DUP7 PUSH2 0x20F5 JUMP JUMPDEST PUSH2 0x238F PUSH1 0xA0 DUP4 ADD DUP6 PUSH2 0x2104 JUMP JUMPDEST PUSH2 0x239C PUSH1 0xC0 DUP4 ADD DUP5 PUSH2 0x2264 JUMP JUMPDEST SWAP9 SWAP8 POP POP POP POP POP POP POP POP JUMP JUMPDEST PUSH1 0x0 PUSH1 0x20 DUP3 ADD SWAP1 POP DUP2 DUP2 SUB PUSH1 0x0 DUP4 ADD MSTORE PUSH2 0x23C1 DUP2 PUSH2 0x214C JUMP JUMPDEST SWAP1 POP SWAP2 SWAP1 POP JUMP JUMPDEST PUSH1 0x0 PUSH1 0x20 DUP3 ADD SWAP1 POP DUP2 DUP2 SUB PUSH1 0x0 DUP4 ADD MSTORE PUSH2 0x23E1 DUP2 PUSH2 0x216F JUMP JUMPDEST SWAP1 POP SWAP2 SWAP1 POP JUMP JUMPDEST PUSH1 0x0 PUSH1 0x20 DUP3 ADD SWAP1 POP DUP2 DUP2 SUB PUSH1 0x0 DUP4 ADD MSTORE PUSH2 0x2401 DUP2 PUSH2 0x2192 JUMP JUMPDEST SWAP1 POP SWAP2 SWAP1 POP JUMP JUMPDEST PUSH1 0x0 PUSH1 0x20 DUP3 ADD SWAP1 POP DUP2 DUP2 SUB PUSH1 0x0 DUP4 ADD MSTORE PUSH2 0x2421 DUP2 PUSH2 0x21B5 JUMP JUMPDEST SWAP1 POP SWAP2 SWAP1 POP JUMP JUMPDEST PUSH1 0x0 PUSH1 0x20 DUP3 ADD SWAP1 POP DUP2 DUP2 SUB PUSH1 0x0 DUP4 ADD MSTORE PUSH2 0x2441 DUP2 PUSH2 0x21D8 JUMP JUMPDEST SWAP1 POP SWAP2 SWAP1 POP JUMP JUMPDEST PUSH1 0x0 PUSH1 0x20 DUP3 ADD SWAP1 POP DUP2 DUP2 SUB PUSH1 0x0 DUP4 ADD MSTORE PUSH2 0x2461 DUP2 PUSH2 0x21FB JUMP JUMPDEST SWAP1 POP SWAP2 SWAP1 POP JUMP JUMPDEST PUSH1 0x0 PUSH1 0x20 DUP3 ADD SWAP1 POP DUP2 DUP2 SUB PUSH1 0x0 DUP4 ADD MSTORE PUSH2 0x2481 DUP2 PUSH2 0x221E JUMP JUMPDEST SWAP1 POP SWAP2 SWAP1 POP JUMP JUMPDEST PUSH1 0x0 PUSH1 0x20 DUP3 ADD SWAP1 POP DUP2 DUP2 SUB PUSH1 0x0 DUP4 ADD MSTORE PUSH2 0x24A1 DUP2 PUSH2 0x2241 JUMP JUMPDEST SWAP1 POP SWAP2 SWAP1 POP JUMP JUMPDEST PUSH1 0x0 PUSH1 0x20 DUP3 ADD SWAP1 POP PUSH2 0x24BD PUSH1 0x0 DUP4 ADD DUP5 PUSH2 0x2264 JUMP JUMPDEST SWAP3 SWAP2 POP POP JUMP JUMPDEST PUSH1 0x0 PUSH1 0x40 DUP3 ADD SWAP1 POP PUSH2 0x24D8 PUSH1 0x0 DUP4 ADD DUP6 PUSH2 0x2264 JUMP JUMPDEST PUSH2 0x24E5 PUSH1 0x20 DUP4 ADD DUP5 PUSH2 0x2264 JUMP JUMPDEST SWAP4 SWAP3 POP POP POP JUMP JUMPDEST PUSH1 0x0 PUSH2 0x24F6 PUSH2 0x2507 JUMP JUMPDEST SWAP1 POP PUSH2 0x2502 DUP3 DUP3 PUSH2 0x27DF JUMP JUMPDEST SWAP2 SWAP1 POP JUMP JUMPDEST PUSH1 0x0 PUSH1 0x40 MLOAD SWAP1 POP SWAP1 JUMP JUMPDEST PUSH1 0x0 PUSH8 0xFFFFFFFFFFFFFFFF DUP3 GT ISZERO PUSH2 0x252C JUMPI PUSH2 0x252B PUSH2 0x2915 JUMP JUMPDEST JUMPDEST PUSH1 0x20 DUP3 MUL SWAP1 POP PUSH1 0x20 DUP2 ADD SWAP1 POP SWAP2 SWAP1 POP JUMP JUMPDEST PUSH1 0x0 PUSH8 0xFFFFFFFFFFFFFFFF DUP3 GT ISZERO PUSH2 0x2558 JUMPI PUSH2 0x2557 PUSH2 0x2915 JUMP JUMPDEST JUMPDEST PUSH1 0x20 DUP3 MUL SWAP1 POP PUSH1 0x20 DUP2 ADD SWAP1 POP SWAP2 SWAP1 POP JUMP JUMPDEST PUSH1 0x0 PUSH8 0xFFFFFFFFFFFFFFFF DUP3 GT ISZERO PUSH2 0x2584 JUMPI PUSH2 0x2583 PUSH2 0x2915 JUMP JUMPDEST JUMPDEST PUSH1 0x20 DUP3 MUL SWAP1 POP PUSH1 0x20 DUP2 ADD SWAP1 POP SWAP2 SWAP1 POP JUMP JUMPDEST PUSH1 0x0 PUSH8 0xFFFFFFFFFFFFFFFF DUP3 GT ISZERO PUSH2 0x25B0 JUMPI PUSH2 0x25AF PUSH2 0x2915 JUMP JUMPDEST JUMPDEST PUSH1 0x20 DUP3 MUL SWAP1 POP PUSH1 0x20 DUP2 ADD SWAP1 POP SWAP2 SWAP1 POP JUMP JUMPDEST PUSH1 0x0 PUSH8 0xFFFFFFFFFFFFFFFF DUP3 GT ISZERO PUSH2 0x25DC JUMPI PUSH2 0x25DB PUSH2 0x2915 JUMP JUMPDEST JUMPDEST PUSH2 0x25E5 DUP3 PUSH2 0x2967 JUMP JUMPDEST SWAP1 POP PUSH1 0x20 DUP2 ADD SWAP1 POP SWAP2 SWAP1 POP JUMP JUMPDEST PUSH1 0x0 DUP2 MLOAD SWAP1 POP SWAP2 SWAP1 POP JUMP JUMPDEST PUSH1 0x0 DUP3 DUP3 MSTORE PUSH1 0x20 DUP3 ADD SWAP1 POP SWAP3 SWAP2 POP POP JUMP JUMPDEST PUSH1 0x0 PUSH2 0x2619 DUP3 PUSH2 0x2761 JUMP JUMPDEST SWAP2 POP PUSH2 0x2624 DUP4 PUSH2 0x2761 JUMP JUMPDEST SWAP3 POP DUP3 PUSH32 0xFFFFFFFFFFFFFFFFFFFFFFFFFFFFFFFFFFFFFFFFFFFFFFFFFFFFFFFFFFFFFFFF SUB DUP3 GT ISZERO PUSH2 0x2659 JUMPI PUSH2 0x2658 PUSH2 0x2859 JUMP JUMPDEST JUMPDEST DUP3 DUP3 ADD SWAP1 POP SWAP3 SWAP2 POP POP JUMP JUMPDEST PUSH1 0x0 PUSH2 0x266F DUP3 PUSH2 0x2761 JUMP JUMPDEST SWAP2 POP PUSH2 0x267A DUP4 PUSH2 0x2761 JUMP JUMPDEST SWAP3 POP DUP3 PUSH2 0x268A JUMPI PUSH2 0x2689 PUSH2 0x2888 JUMP JUMPDEST JUMPDEST DUP3 DUP3 DIV SWAP1 POP SWAP3 SWAP2 POP POP JUMP JUMPDEST PUSH1 0x0 PUSH2 0x26A0 DUP3 PUSH2 0x2761 JUMP JUMPDEST SWAP2 POP PUSH2 0x26AB DUP4 PUSH2 0x2761 JUMP JUMPDEST SWAP3 POP DUP2 PUSH32 0xFFFFFFFFFFFFFFFFFFFFFFFFFFFFFFFFFFFFFFFFFFFFFFFFFFFFFFFFFFFFFFFF DIV DUP4 GT DUP3 ISZERO ISZERO AND ISZERO PUSH2 0x26E4 JUMPI PUSH2 0x26E3 PUSH2 0x2859 JUMP JUMPDEST JUMPDEST DUP3 DUP3 MUL SWAP1 POP SWAP3 SWAP2 POP POP JUMP JUMPDEST PUSH1 0x0 PUSH2 0x26FA DUP3 PUSH2 0x2761 JUMP JUMPDEST SWAP2 POP PUSH2 0x2705 DUP4 PUSH2 0x2761 JUMP JUMPDEST SWAP3 POP DUP3 DUP3 LT ISZERO PUSH2 0x2718 JUMPI PUSH2 0x2717 PUSH2 0x2859 JUMP JUMPDEST JUMPDEST DUP3 DUP3 SUB SWAP1 POP SWAP3 SWAP2 POP POP JUMP JUMPDEST PUSH1 0x0 PUSH2 0x272E DUP3 PUSH2 0x2741 JUMP JUMPDEST SWAP1 POP SWAP2 SWAP1 POP JUMP JUMPDEST PUSH1 0x0 DUP2 ISZERO ISZERO SWAP1 POP SWAP2 SWAP1 POP JUMP JUMPDEST PUSH1 0x0 PUSH20 0xFFFFFFFFFFFFFFFFFFFFFFFFFFFFFFFFFFFFFFFF DUP3 AND SWAP1 POP SWAP2 SWAP1 POP JUMP JUMPDEST PUSH1 0x0 DUP2 SWAP1 POP SWAP2 SWAP1 POP JUMP JUMPDEST DUP3 DUP2 DUP4 CALLDATACOPY PUSH1 0x0 DUP4 DUP4 ADD MSTORE POP POP POP JUMP JUMPDEST PUSH1 0x0 JUMPDEST DUP4 DUP2 LT ISZERO PUSH2 0x2798 JUMPI DUP1 DUP3 ADD MLOAD DUP2 DUP5 ADD MSTORE PUSH1 0x20 DUP2 ADD SWAP1 POP PUSH2 0x277D JUMP JUMPDEST DUP4 DUP2 GT ISZERO PUSH2 0x27A7 JUMPI PUSH1 0x0 DUP5 DUP5 ADD MSTORE JUMPDEST POP POP POP POP JUMP JUMPDEST PUSH1 0x0 PUSH1 0x2 DUP3 DIV SWAP1 POP PUSH1 0x1 DUP3 AND DUP1 PUSH2 0x27C5 JUMPI PUSH1 0x7F DUP3 AND SWAP2 POP JUMPDEST PUSH1 0x20 DUP3 LT DUP2 EQ ISZERO PUSH2 0x27D9 JUMPI PUSH2 0x27D8 PUSH2 0x28B7 JUMP JUMPDEST JUMPDEST POP SWAP2 SWAP1 POP JUMP JUMPDEST PUSH2 0x27E8 DUP3 PUSH2 0x2967 JUMP JUMPDEST DUP2 ADD DUP2 DUP2 LT PUSH8 0xFFFFFFFFFFFFFFFF DUP3 GT OR ISZERO PUSH2 0x2807 JUMPI PUSH2 0x2806 PUSH2 0x2915 JUMP JUMPDEST JUMPDEST DUP1 PUSH1 0x40 MSTORE POP POP POP JUMP JUMPDEST PUSH1 0x0 PUSH2 0x281B DUP3 PUSH2 0x2761 JUMP JUMPDEST SWAP2 POP PUSH32 0xFFFFFFFFFFFFFFFFFFFFFFFFFFFFFFFFFFFFFFFFFFFFFFFFFFFFFFFFFFFFFFFF DUP3 EQ ISZERO PUSH2 0x284E JUMPI PUSH2 0x284D PUSH2 0x2859 JUMP JUMPDEST JUMPDEST PUSH1 0x1 DUP3 ADD SWAP1 POP SWAP2 SWAP1 POP JUMP JUMPDEST PUSH32 0x4E487B7100000000000000000000000000000000000000000000000000000000 PUSH1 0x0 MSTORE PUSH1 0x11 PUSH1 0x4 MSTORE PUSH1 0x24 PUSH1 0x0 REVERT JUMPDEST PUSH32 0x4E487B7100000000000000000000000000000000000000000000000000000000 PUSH1 0x0 MSTORE PUSH1 0x12 PUSH1 0x4 MSTORE PUSH1 0x24 PUSH1 0x0 REVERT JUMPDEST PUSH32 0x4E487B7100000000000000000000000000000000000000000000000000000000 PUSH1 0x0 MSTORE PUSH1 0x22 PUSH1 0x4 MSTORE PUSH1 0x24 PUSH1 0x0 REVERT JUMPDEST PUSH32 0x4E487B7100000000000000000000000000000000000000000000000000000000 PUSH1 0x0 MSTORE PUSH1 0x32 PUSH1 0x4 MSTORE PUSH1 0x24 PUSH1 0x0 REVERT JUMPDEST PUSH32 0x4E487B7100000000000000000000000000000000000000000000000000000000 PUSH1 0x0 MSTORE PUSH1 0x41 PUSH1 0x4 MSTORE PUSH1 0x24 PUSH1 0x0 REVERT JUMPDEST PUSH1 0x0 DUP1 REVERT JUMPDEST PUSH1 0x0 DUP1 REVERT JUMPDEST PUSH1 0x0 DUP1 REVERT JUMPDEST PUSH1 0x0 DUP1 REVERT JUMPDEST PUSH1 0x0 DUP1 REVERT JUMPDEST PUSH1 0x0 DUP1 REVERT JUMPDEST PUSH1 0x0 DUP1 REVERT JUMPDEST PUSH1 0x0 PUSH1 0x1F NOT PUSH1 0x1F DUP4 ADD AND SWAP1 POP SWAP2 SWAP1 POP JUMP JUMPDEST PUSH32 0x4F776E61626C653A206E6577206F776E657220697320746865207A65726F2061 PUSH1 0x0 DUP3 ADD MSTORE PUSH32 0x6464726573730000000000000000000000000000000000000000000000000000 PUSH1 0x20 DUP3 ADD MSTORE POP JUMP JUMPDEST PUSH32 0x4A6F6220416C726561647920436C6F7365640000000000000000000000000000 PUSH1 0x0 DUP3 ADD MSTORE POP JUMP JUMPDEST PUSH32 0x416C6C6F77616E6365457863657074696F6E0000000000000000000000000000 PUSH1 0x0 DUP3 ADD MSTORE POP JUMP JUMPDEST PUSH32 0x4A6F62206973206E6F74206F70656E2079657400000000000000000000000000 PUSH1 0x0 DUP3 ADD MSTORE POP JUMP JUMPDEST PUSH32 0x4A6F62206E6F7420616363657074696E67206D6F7265206170706C6963616E74 PUSH1 0x0 DUP3 ADD MSTORE PUSH32 0x7300000000000000000000000000000000000000000000000000000000000000 PUSH1 0x20 DUP3 ADD MSTORE POP JUMP JUMPDEST PUSH32 0x4F776E61626C653A2063616C6C6572206973206E6F7420746865206F776E6572 PUSH1 0x0 DUP3 ADD MSTORE POP JUMP JUMPDEST PUSH32 0x496E76616C6964416D6F756E74457863657074696F6E00000000000000000000 PUSH1 0x0 DUP3 ADD MSTORE POP JUMP JUMPDEST PUSH32 0x556E617574686F72697A656420436C6F73657200000000000000000000000000 PUSH1 0x0 DUP3 ADD MSTORE POP JUMP JUMPDEST PUSH2 0x2B15 DUP2 PUSH2 0x2723 JUMP JUMPDEST DUP2 EQ PUSH2 0x2B20 JUMPI PUSH1 0x0 DUP1 REVERT JUMPDEST POP JUMP JUMPDEST PUSH2 0x2B2C DUP2 PUSH2 0x2735 JUMP JUMPDEST DUP2 EQ PUSH2 0x2B37 JUMPI PUSH1 0x0 DUP1 REVERT JUMPDEST POP JUMP JUMPDEST PUSH2 0x2B43 DUP2 PUSH2 0x2761 JUMP JUMPDEST DUP2 EQ PUSH2 0x2B4E JUMPI PUSH1 0x0 DUP1 REVERT JUMPDEST POP JUMP INVALID LOG2 PUSH5 0x6970667358 0x22 SLT KECCAK256 0xFB REVERT 0xC1 0x22 0xF9 0xD9 0x28 0xAF BASEFEE 0x5C 0xDF LOG2 NOT 0xA8 SWAP6 CREATE2 0xE8 ORIGIN 0xE6 0xDE 0x5E DUP4 0x28 LOG2 0x4C SLOAD PUSH1 0x60 EXTCODESIZE 0x4F 0xE7 SELFDESTRUCT PUSH5 0x736F6C6343 STOP ADDMOD SMOD STOP CALLER "
		},
		"gasEstimates": {
			"creation": {
				"codeDepositCost": "2228600",
				"executionCost": "infinite",
				"totalCost": "infinite"
			},
			"external": {
				"all_jobs(uint256)": "infinite",
				"apply_job(uint256)": "infinite",
				"claim_royalties_skill_creator()": "infinite",
				"close_job(uint256)": "infinite",
				"createJob(string,uint256[],uint256[][],(uint256,string,address[])[],uint256,uint256,uint256,address)": "infinite",
				"owner()": "2567",
				"renounceOwnership()": "30421",
				"stake_jou_job(uint256,uint256)": "infinite",
				"transferOwnership(address)": "30835"
			}
		},
		"methodIdentifiers": {
			"all_jobs(uint256)": "effbb95d",
			"apply_job(uint256)": "b5ec25ae",
			"claim_royalties_skill_creator()": "af812ebf",
			"close_job(uint256)": "e6d46c8d",
			"createJob(string,uint256[],uint256[][],(uint256,string,address[])[],uint256,uint256,uint256,address)": "62063e87",
			"owner()": "8da5cb5b",
			"renounceOwnership()": "715018a6",
			"stake_jou_job(uint256,uint256)": "cd3c6e56",
			"transferOwnership(address)": "f2fde38b"
		}
	},
	"abi": [
		{
			"inputs": [
				{
					"internalType": "address",
					"name": "jou_address",
					"type": "address"
				},
				{
					"internalType": "address",
					"name": "skill_std",
					"type": "address"
				}
			],
			"stateMutability": "nonpayable",
			"type": "constructor"
		},
		{
			"anonymous": false,
			"inputs": [
				{
					"indexed": true,
					"internalType": "address",
					"name": "previousOwner",
					"type": "address"
				},
				{
					"indexed": true,
					"internalType": "address",
					"name": "newOwner",
					"type": "address"
				}
			],
			"name": "OwnershipTransferred",
			"type": "event"
		},
		{
			"anonymous": false,
			"inputs": [
				{
					"indexed": false,
					"internalType": "uint256",
					"name": "idx",
					"type": "uint256"
				},
				{
					"indexed": false,
					"internalType": "uint256",
					"name": "amount",
					"type": "uint256"
				}
			],
			"name": "staking_successful",
			"type": "event"
		},
		{
			"inputs": [
				{
					"internalType": "uint256",
					"name": "",
					"type": "uint256"
				}
			],
			"name": "all_jobs",
			"outputs": [
				{
					"internalType": "string",
					"name": "metadata_ipfs",
					"type": "string"
				},
				{
					"internalType": "uint256",
					"name": "qualif_size",
					"type": "uint256"
				},
				{
					"internalType": "uint256",
					"name": "jou_staked",
					"type": "uint256"
				},
				{
					"internalType": "bool",
					"name": "is_active",
					"type": "bool"
				},
				{
					"internalType": "address",
					"name": "closing_indexer",
					"type": "address"
				},
				{
					"internalType": "bool",
					"name": "gasless_experience",
					"type": "bool"
				},
				{
					"internalType": "uint256",
					"name": "root",
					"type": "uint256"
				}
			],
			"stateMutability": "view",
			"type": "function"
		},
		{
			"inputs": [
				{
					"internalType": "uint256",
					"name": "idx",
					"type": "uint256"
				}
			],
			"name": "apply_job",
			"outputs": [],
			"stateMutability": "nonpayable",
			"type": "function"
		},
		{
			"inputs": [],
			"name": "claim_royalties_skill_creator",
			"outputs": [],
			"stateMutability": "nonpayable",
			"type": "function"
		},
		{
			"inputs": [
				{
					"internalType": "uint256",
					"name": "idx",
					"type": "uint256"
				}
			],
			"name": "close_job",
			"outputs": [],
			"stateMutability": "nonpayable",
			"type": "function"
		},
		{
			"inputs": [
				{
					"internalType": "string",
					"name": "metadata_ipfs",
					"type": "string"
				},
				{
					"internalType": "uint256[]",
					"name": "qualifications",
					"type": "uint256[]"
				},
				{
					"internalType": "uint256[][]",
					"name": "qualification_filtering",
					"type": "uint256[][]"
				},
				{
					"components": [
						{
							"internalType": "uint256",
							"name": "checkpoint_addr",
							"type": "uint256"
						},
						{
							"internalType": "string",
							"name": "checkpoint_name",
							"type": "string"
						},
						{
							"internalType": "address[]",
							"name": "candidates",
							"type": "address[]"
						}
					],
					"internalType": "struct Checkpoints[]",
					"name": "checkpoints",
					"type": "tuple[]"
				},
				{
					"internalType": "uint256",
					"name": "checkpoint_size",
					"type": "uint256"
				},
				{
					"internalType": "uint256",
					"name": "qualifications_size",
					"type": "uint256"
				},
				{
					"internalType": "uint256",
					"name": "root",
					"type": "uint256"
				},
				{
					"internalType": "address",
					"name": "closing_indexer",
					"type": "address"
				}
			],
			"name": "createJob",
			"outputs": [
				{
					"internalType": "bool",
					"name": "",
					"type": "bool"
				}
			],
			"stateMutability": "nonpayable",
			"type": "function"
		},
		{
			"inputs": [],
			"name": "owner",
			"outputs": [
				{
					"internalType": "address",
					"name": "",
					"type": "address"
				}
			],
			"stateMutability": "view",
			"type": "function"
		},
		{
			"inputs": [],
			"name": "renounceOwnership",
			"outputs": [],
			"stateMutability": "nonpayable",
			"type": "function"
		},
		{
			"inputs": [
				{
					"internalType": "uint256",
					"name": "idx",
					"type": "uint256"
				},
				{
					"internalType": "uint256",
					"name": "amount",
					"type": "uint256"
				}
			],
			"name": "stake_jou_job",
			"outputs": [],
			"stateMutability": "nonpayable",
			"type": "function"
		},
		{
			"inputs": [
				{
					"internalType": "address",
					"name": "newOwner",
					"type": "address"
				}
			],
			"name": "transferOwnership",
			"outputs": [],
			"stateMutability": "nonpayable",
			"type": "function"
		}
	]
}