{
	"contracts/templates/KaggleDataOracle.sol": {
		"KaggleDataOracle": {
			"abi": [
				{
					"inputs": [
						{
							"internalType": "contract IERC20",
							"name": "_tokenAddress",
							"type": "address"
						}
					],
					"stateMutability": "nonpayable",
					"type": "constructor"
				},
				{
					"anonymous": false,
					"inputs": [
						{
							"indexed": true,
							"internalType": "address",
							"name": "previousOwner",
							"type": "address"
						},
						{
							"indexed": true,
							"internalType": "address",
							"name": "newOwner",
							"type": "address"
						}
					],
					"name": "OwnershipTransferred",
					"type": "event"
				},
				{
					"inputs": [
						{
							"internalType": "address",
							"name": "ad",
							"type": "address"
						},
						{
							"internalType": "string",
							"name": "v2",
							"type": "string"
						},
						{
							"internalType": "string",
							"name": "v3",
							"type": "string"
						}
					],
					"name": "getStakeValue",
					"outputs": [
						{
							"internalType": "uint256",
							"name": "",
							"type": "uint256"
						}
					],
					"stateMutability": "view",
					"type": "function"
				},
				{
					"inputs": [],
					"name": "owner",
					"outputs": [
						{
							"internalType": "address",
							"name": "",
							"type": "address"
						}
					],
					"stateMutability": "view",
					"type": "function"
				},
				{
					"inputs": [
						{
							"internalType": "address",
							"name": "",
							"type": "address"
						}
					],
					"name": "rawDataStore",
					"outputs": [
						{
							"internalType": "bool",
							"name": "",
							"type": "bool"
						}
					],
					"stateMutability": "view",
					"type": "function"
				},
				{
					"inputs": [],
					"name": "renounceOwnership",
					"outputs": [],
					"stateMutability": "nonpayable",
					"type": "function"
				},
				{
					"inputs": [
						{
							"internalType": "address",
							"name": "ad",
							"type": "address"
						},
						{
							"internalType": "bool",
							"name": "set",
							"type": "bool"
						}
					],
					"name": "setRawData",
					"outputs": [],
					"stateMutability": "nonpayable",
					"type": "function"
				},
				{
					"inputs": [],
					"name": "token",
					"outputs": [
						{
							"internalType": "contract IERC20",
							"name": "",
							"type": "address"
						}
					],
					"stateMutability": "view",
					"type": "function"
				},
				{
					"inputs": [
						{
							"internalType": "address",
							"name": "newOwner",
							"type": "address"
						}
					],
					"name": "transferOwnership",
					"outputs": [],
					"stateMutability": "nonpayable",
					"type": "function"
				},
				{
					"inputs": [
						{
							"internalType": "address",
							"name": "",
							"type": "address"
						},
						{
							"internalType": "string",
							"name": "",
							"type": "string"
						},
						{
							"internalType": "string",
							"name": "",
							"type": "string"
						}
					],
					"name": "userDataOracle",
					"outputs": [
						{
							"internalType": "uint256",
							"name": "",
							"type": "uint256"
						}
					],
					"stateMutability": "view",
					"type": "function"
				},
				{
					"inputs": [
						{
							"internalType": "address",
							"name": "ad",
							"type": "address"
						},
						{
							"internalType": "string",
							"name": "v2",
							"type": "string"
						},
						{
							"internalType": "string",
							"name": "v3",
							"type": "string"
						},
						{
							"internalType": "uint256",
							"name": "val",
							"type": "uint256"
						}
					],
					"name": "validateDataPoint",
					"outputs": [],
					"stateMutability": "nonpayable",
					"type": "function"
				},
				{
					"inputs": [
						{
							"internalType": "address",
							"name": "",
							"type": "address"
						},
						{
							"internalType": "address",
							"name": "",
							"type": "address"
						},
						{
							"internalType": "string",
							"name": "",
							"type": "string"
						},
						{
							"internalType": "string",
							"name": "",
							"type": "string"
						}
					],
					"name": "validatorSplits",
					"outputs": [
						{
							"internalType": "uint256",
							"name": "",
							"type": "uint256"
						}
					],
					"stateMutability": "view",
					"type": "function"
				},
				{
					"inputs": [
						{
							"internalType": "address",
							"name": "ad",
							"type": "address"
						},
						{
							"internalType": "string",
							"name": "v2",
							"type": "string"
						},
						{
							"internalType": "string",
							"name": "v3",
							"type": "string"
						},
						{
							"internalType": "uint256",
							"name": "val",
							"type": "uint256"
						}
					],
					"name": "withdrawMoney",
					"outputs": [],
					"stateMutability": "nonpayable",
					"type": "function"
				}
			],
			"devdoc": {
				"kind": "dev",
				"methods": {
					"owner()": {
						"details": "Returns the address of the current owner."
					},
					"renounceOwnership()": {
						"details": "Leaves the contract without owner. It will not be possible to call `onlyOwner` functions anymore. Can only be called by the current owner. NOTE: Renouncing ownership will leave the contract without an owner, thereby removing any functionality that is only available to the owner."
					},
					"transferOwnership(address)": {
						"details": "Transfers ownership of the contract to a new account (`newOwner`). Can only be called by the current owner."
					}
				},
				"version": 1
			},
			"evm": {
				"assembly": "    /* \"contracts/templates/KaggleDataOracle.sol\":182:2000  contract KaggleDataOracle is Ownable{\r... */\n  mstore(0x40, 0x80)\n    /* \"contracts/templates/KaggleDataOracle.sol\":882:956  constructor(IERC20 _tokenAddress) {\r... */\n  callvalue\n  dup1\n  iszero\n  tag_1\n  jumpi\n  0x00\n  dup1\n  revert\ntag_1:\n  pop\n  mload(0x40)\n  sub(codesize, bytecodeSize)\n  dup1\n  bytecodeSize\n  dup4\n  codecopy\n  dup2\n  dup2\n  add\n  0x40\n  mstore\n  dup2\n  add\n  swap1\n  tag_2\n  swap2\n  swap1\n  tag_3\n  jump\t// in\ntag_2:\n    /* \"@openzeppelin/contracts/access/Ownable.sol\":936:968  _transferOwnership(_msgSender()) */\n  tag_7\n    /* \"@openzeppelin/contracts/access/Ownable.sol\":955:967  _msgSender() */\n  tag_8\n    /* \"@openzeppelin/contracts/access/Ownable.sol\":955:965  _msgSender */\n  shl(0x20, tag_9)\n    /* \"@openzeppelin/contracts/access/Ownable.sol\":955:967  _msgSender() */\n  0x20\n  shr\n  jump\t// in\ntag_8:\n    /* \"@openzeppelin/contracts/access/Ownable.sol\":936:954  _transferOwnership */\n  shl(0x20, tag_10)\n    /* \"@openzeppelin/contracts/access/Ownable.sol\":936:968  _transferOwnership(_msgSender()) */\n  0x20\n  shr\n  jump\t// in\ntag_7:\n    /* \"contracts/templates/KaggleDataOracle.sol\":935:948  _tokenAddress */\n  dup1\n    /* \"contracts/templates/KaggleDataOracle.sol\":927:932  token */\n  0x04\n  0x00\n    /* \"contracts/templates/KaggleDataOracle.sol\":927:948  token = _tokenAddress */\n  0x0100\n  exp\n  dup2\n  sload\n  dup2\n  0xffffffffffffffffffffffffffffffffffffffff\n  mul\n  not\n  and\n  swap1\n  dup4\n  0xffffffffffffffffffffffffffffffffffffffff\n  and\n  mul\n  or\n  swap1\n  sstore\n  pop\n    /* \"contracts/templates/KaggleDataOracle.sol\":882:956  constructor(IERC20 _tokenAddress) {\r... */\n  pop\n    /* \"contracts/templates/KaggleDataOracle.sol\":182:2000  contract KaggleDataOracle is Ownable{\r... */\n  jump(tag_12)\n    /* \"@openzeppelin/contracts/utils/Context.sol\":640:736  function _msgSender() internal view virtual returns (address) {... */\ntag_9:\n    /* \"@openzeppelin/contracts/utils/Context.sol\":693:700  address */\n  0x00\n    /* \"@openzeppelin/contracts/utils/Context.sol\":719:729  msg.sender */\n  caller\n    /* \"@openzeppelin/contracts/utils/Context.sol\":712:729  return msg.sender */\n  swap1\n  pop\n    /* \"@openzeppelin/contracts/utils/Context.sol\":640:736  function _msgSender() internal view virtual returns (address) {... */\n  swap1\n  jump\t// out\n    /* \"@openzeppelin/contracts/access/Ownable.sol\":2433:2620  function _transferOwnership(address newOwner) internal virtual {... */\ntag_10:\n    /* \"@openzeppelin/contracts/access/Ownable.sol\":2506:2522  address oldOwner */\n  0x00\n    /* \"@openzeppelin/contracts/access/Ownable.sol\":2525:2531  _owner */\n  dup1\n  0x00\n  swap1\n  sload\n  swap1\n  0x0100\n  exp\n  swap1\n  div\n  0xffffffffffffffffffffffffffffffffffffffff\n  and\n    /* \"@openzeppelin/contracts/access/Ownable.sol\":2506:2531  address oldOwner = _owner */\n  swap1\n  pop\n    /* \"@openzeppelin/contracts/access/Ownable.sol\":2550:2558  newOwner */\n  dup2\n    /* \"@openzeppelin/contracts/access/Ownable.sol\":2541:2547  _owner */\n  0x00\n  dup1\n    /* \"@openzeppelin/contracts/access/Ownable.sol\":2541:2558  _owner = newOwner */\n  0x0100\n  exp\n  dup2\n  sload\n  dup2\n  0xffffffffffffffffffffffffffffffffffffffff\n  mul\n  not\n  and\n  swap1\n  dup4\n  0xffffffffffffffffffffffffffffffffffffffff\n  and\n  mul\n  or\n  swap1\n  sstore\n  pop\n    /* \"@openzeppelin/contracts/access/Ownable.sol\":2604:2612  newOwner */\n  dup2\n    /* \"@openzeppelin/contracts/access/Ownable.sol\":2573:2613  OwnershipTransferred(oldOwner, newOwner) */\n  0xffffffffffffffffffffffffffffffffffffffff\n  and\n    /* \"@openzeppelin/contracts/access/Ownable.sol\":2594:2602  oldOwner */\n  dup2\n    /* \"@openzeppelin/contracts/access/Ownable.sol\":2573:2613  OwnershipTransferred(oldOwner, newOwner) */\n  0xffffffffffffffffffffffffffffffffffffffff\n  and\n  0x8be0079c531659141344cd1fd0a4f28419497f9722a3daafe3b4186f6b6457e0\n  mload(0x40)\n  mload(0x40)\n  dup1\n  swap2\n  sub\n  swap1\n  log3\n    /* \"@openzeppelin/contracts/access/Ownable.sol\":2496:2620  {... */\n  pop\n    /* \"@openzeppelin/contracts/access/Ownable.sol\":2433:2620  function _transferOwnership(address newOwner) internal virtual {... */\n  pop\n  jump\t// out\n    /* \"#utility.yul\":7:178   */\ntag_16:\n    /* \"#utility.yul\":78:83   */\n  0x00\n    /* \"#utility.yul\":109:115   */\n  dup2\n    /* \"#utility.yul\":103:116   */\n  mload\n    /* \"#utility.yul\":94:116   */\n  swap1\n  pop\n    /* \"#utility.yul\":125:172   */\n  tag_18\n    /* \"#utility.yul\":166:171   */\n  dup2\n    /* \"#utility.yul\":125:172   */\n  tag_19\n  jump\t// in\ntag_18:\n    /* \"#utility.yul\":7:178   */\n  swap3\n  swap2\n  pop\n  pop\n  jump\t// out\n    /* \"#utility.yul\":184:563   */\ntag_3:\n    /* \"#utility.yul\":268:274   */\n  0x00\n    /* \"#utility.yul\":317:319   */\n  0x20\n    /* \"#utility.yul\":305:314   */\n  dup3\n    /* \"#utility.yul\":296:303   */\n  dup5\n    /* \"#utility.yul\":292:315   */\n  sub\n    /* \"#utility.yul\":288:320   */\n  slt\n    /* \"#utility.yul\":285:404   */\n  iszero\n  tag_21\n  jumpi\n    /* \"#utility.yul\":323:402   */\n  tag_22\n  tag_23\n  jump\t// in\ntag_22:\n    /* \"#utility.yul\":285:404   */\ntag_21:\n    /* \"#utility.yul\":443:444   */\n  0x00\n    /* \"#utility.yul\":468:546   */\n  tag_24\n    /* \"#utility.yul\":538:545   */\n  dup5\n    /* \"#utility.yul\":529:535   */\n  dup3\n    /* \"#utility.yul\":518:527   */\n  dup6\n    /* \"#utility.yul\":514:536   */\n  add\n    /* \"#utility.yul\":468:546   */\n  tag_16\n  jump\t// in\ntag_24:\n    /* \"#utility.yul\":458:546   */\n  swap2\n  pop\n    /* \"#utility.yul\":414:556   */\n  pop\n    /* \"#utility.yul\":184:563   */\n  swap3\n  swap2\n  pop\n  pop\n  jump\t// out\n    /* \"#utility.yul\":650:746   */\ntag_27:\n    /* \"#utility.yul\":687:694   */\n  0x00\n    /* \"#utility.yul\":716:740   */\n  tag_29\n    /* \"#utility.yul\":734:739   */\n  dup3\n    /* \"#utility.yul\":716:740   */\n  tag_30\n  jump\t// in\ntag_29:\n    /* \"#utility.yul\":705:740   */\n  swap1\n  pop\n    /* \"#utility.yul\":650:746   */\n  swap2\n  swap1\n  pop\n  jump\t// out\n    /* \"#utility.yul\":752:862   */\ntag_31:\n    /* \"#utility.yul\":803:810   */\n  0x00\n    /* \"#utility.yul\":832:856   */\n  tag_33\n    /* \"#utility.yul\":850:855   */\n  dup3\n    /* \"#utility.yul\":832:856   */\n  tag_27\n  jump\t// in\ntag_33:\n    /* \"#utility.yul\":821:856   */\n  swap1\n  pop\n    /* \"#utility.yul\":752:862   */\n  swap2\n  swap1\n  pop\n  jump\t// out\n    /* \"#utility.yul\":868:994   */\ntag_30:\n    /* \"#utility.yul\":905:912   */\n  0x00\n    /* \"#utility.yul\":945:987   */\n  0xffffffffffffffffffffffffffffffffffffffff\n    /* \"#utility.yul\":938:943   */\n  dup3\n    /* \"#utility.yul\":934:988   */\n  and\n    /* \"#utility.yul\":923:988   */\n  swap1\n  pop\n    /* \"#utility.yul\":868:994   */\n  swap2\n  swap1\n  pop\n  jump\t// out\n    /* \"#utility.yul\":1123:1240   */\ntag_23:\n    /* \"#utility.yul\":1232:1233   */\n  0x00\n    /* \"#utility.yul\":1229:1230   */\n  dup1\n    /* \"#utility.yul\":1222:1234   */\n  revert\n    /* \"#utility.yul\":1246:1396   */\ntag_19:\n    /* \"#utility.yul\":1333:1371   */\n  tag_39\n    /* \"#utility.yul\":1365:1370   */\n  dup2\n    /* \"#utility.yul\":1333:1371   */\n  tag_31\n  jump\t// in\ntag_39:\n    /* \"#utility.yul\":1326:1331   */\n  dup2\n    /* \"#utility.yul\":1323:1372   */\n  eq\n    /* \"#utility.yul\":1313:1390   */\n  tag_40\n  jumpi\n    /* \"#utility.yul\":1386:1387   */\n  0x00\n    /* \"#utility.yul\":1383:1384   */\n  dup1\n    /* \"#utility.yul\":1376:1388   */\n  revert\n    /* \"#utility.yul\":1313:1390   */\ntag_40:\n    /* \"#utility.yul\":1246:1396   */\n  pop\n  jump\t// out\n    /* \"contracts/templates/KaggleDataOracle.sol\":182:2000  contract KaggleDataOracle is Ownable{\r... */\ntag_12:\n  dataSize(sub_0)\n  dup1\n  dataOffset(sub_0)\n  0x00\n  codecopy\n  0x00\n  return\nstop\n\nsub_0: assembly {\n        /* \"contracts/templates/KaggleDataOracle.sol\":182:2000  contract KaggleDataOracle is Ownable{\r... */\n      mstore(0x40, 0x80)\n      callvalue\n      dup1\n      iszero\n      tag_1\n      jumpi\n      0x00\n      dup1\n      revert\n    tag_1:\n      pop\n      jumpi(tag_2, lt(calldatasize, 0x04))\n      shr(0xe0, calldataload(0x00))\n      dup1\n      0x94728f57\n      gt\n      tag_14\n      jumpi\n      dup1\n      0x94728f57\n      eq\n      tag_8\n      jumpi\n      dup1\n      0x9cc6f67d\n      eq\n      tag_9\n      jumpi\n      dup1\n      0xde7f6b9e\n      eq\n      tag_10\n      jumpi\n      dup1\n      0xe6d56846\n      eq\n      tag_11\n      jumpi\n      dup1\n      0xf2fde38b\n      eq\n      tag_12\n      jumpi\n      dup1\n      0xfc0c546a\n      eq\n      tag_13\n      jumpi\n      jump(tag_2)\n    tag_14:\n      dup1\n      0x0c3a9008\n      eq\n      tag_3\n      jumpi\n      dup1\n      0x1a00e037\n      eq\n      tag_4\n      jumpi\n      dup1\n      0x715018a6\n      eq\n      tag_5\n      jumpi\n      dup1\n      0x7c360c94\n      eq\n      tag_6\n      jumpi\n      dup1\n      0x8da5cb5b\n      eq\n      tag_7\n      jumpi\n    tag_2:\n      0x00\n      dup1\n      revert\n        /* \"contracts/templates/KaggleDataOracle.sol\":637:680  mapping (address=>bool) public rawDataStore */\n    tag_3:\n      tag_15\n      0x04\n      dup1\n      calldatasize\n      sub\n      dup2\n      add\n      swap1\n      tag_16\n      swap2\n      swap1\n      tag_17\n      jump\t// in\n    tag_16:\n      tag_18\n      jump\t// in\n    tag_15:\n      mload(0x40)\n      tag_19\n      swap2\n      swap1\n      tag_20\n      jump\t// in\n    tag_19:\n      mload(0x40)\n      dup1\n      swap2\n      sub\n      swap1\n      return\n        /* \"contracts/templates/KaggleDataOracle.sol\":968:1162  function setRawData(address ad, bool set) public {\r... */\n    tag_4:\n      tag_21\n      0x04\n      dup1\n      calldatasize\n      sub\n      dup2\n      add\n      swap1\n      tag_22\n      swap2\n      swap1\n      tag_23\n      jump\t// in\n    tag_22:\n      tag_24\n      jump\t// in\n    tag_21:\n      stop\n        /* \"@openzeppelin/contracts/access/Ownable.sol\":1831:1932  function renounceOwnership() public virtual onlyOwner {... */\n    tag_5:\n      tag_25\n      tag_26\n      jump\t// in\n    tag_25:\n      stop\n        /* \"contracts/templates/KaggleDataOracle.sol\":1177:1559  function validateDataPoint( address ad,  string memory v2, string memory v3, uint val) public {\r... */\n    tag_6:\n      tag_27\n      0x04\n      dup1\n      calldatasize\n      sub\n      dup2\n      add\n      swap1\n      tag_28\n      swap2\n      swap1\n      tag_29\n      jump\t// in\n    tag_28:\n      tag_30\n      jump\t// in\n    tag_27:\n      stop\n        /* \"@openzeppelin/contracts/access/Ownable.sol\":1201:1286  function owner() public view virtual returns (address) {... */\n    tag_7:\n      tag_31\n      tag_32\n      jump\t// in\n    tag_31:\n      mload(0x40)\n      tag_33\n      swap2\n      swap1\n      tag_34\n      jump\t// in\n    tag_33:\n      mload(0x40)\n      dup1\n      swap2\n      sub\n      swap1\n      return\n        /* \"contracts/templates/KaggleDataOracle.sol\":1574:1997  function withdrawMoney(address ad,  string memory v2, string memory v3, uint val) public{\r... */\n    tag_8:\n      tag_35\n      0x04\n      dup1\n      calldatasize\n      sub\n      dup2\n      add\n      swap1\n      tag_36\n      swap2\n      swap1\n      tag_29\n      jump\t// in\n    tag_36:\n      tag_37\n      jump\t// in\n    tag_35:\n      stop\n        /* \"contracts/templates/KaggleDataOracle.sol\":523:621  mapping (address=>mapping(address=>mapping(string=>mapping(string=>uint)))) public validatorSplits */\n    tag_9:\n      tag_38\n      0x04\n      dup1\n      calldatasize\n      sub\n      dup2\n      add\n      swap1\n      tag_39\n      swap2\n      swap1\n      tag_40\n      jump\t// in\n    tag_39:\n      tag_41\n      jump\t// in\n    tag_38:\n      mload(0x40)\n      tag_42\n      swap2\n      swap1\n      tag_43\n      jump\t// in\n    tag_42:\n      mload(0x40)\n      dup1\n      swap2\n      sub\n      swap1\n      return\n        /* \"contracts/templates/KaggleDataOracle.sol\":312:393  mapping (address => mapping(string=>mapping(string=>uint))) public userDataOracle */\n    tag_10:\n      tag_44\n      0x04\n      dup1\n      calldatasize\n      sub\n      dup2\n      add\n      swap1\n      tag_45\n      swap2\n      swap1\n      tag_46\n      jump\t// in\n    tag_45:\n      tag_47\n      jump\t// in\n    tag_44:\n      mload(0x40)\n      tag_48\n      swap2\n      swap1\n      tag_43\n      jump\t// in\n    tag_48:\n      mload(0x40)\n      dup1\n      swap2\n      sub\n      swap1\n      return\n        /* \"contracts/templates/KaggleDataOracle.sol\":722:867  function getStakeValue(address ad,string memory v2,string memory v3)public view returns(uint){\r... */\n    tag_11:\n      tag_49\n      0x04\n      dup1\n      calldatasize\n      sub\n      dup2\n      add\n      swap1\n      tag_50\n      swap2\n      swap1\n      tag_46\n      jump\t// in\n    tag_50:\n      tag_51\n      jump\t// in\n    tag_49:\n      mload(0x40)\n      tag_52\n      swap2\n      swap1\n      tag_43\n      jump\t// in\n    tag_52:\n      mload(0x40)\n      dup1\n      swap2\n      sub\n      swap1\n      return\n        /* \"@openzeppelin/contracts/access/Ownable.sol\":2081:2279  function transferOwnership(address newOwner) public virtual onlyOwner {... */\n    tag_12:\n      tag_53\n      0x04\n      dup1\n      calldatasize\n      sub\n      dup2\n      add\n      swap1\n      tag_54\n      swap2\n      swap1\n      tag_17\n      jump\t// in\n    tag_54:\n      tag_55\n      jump\t// in\n    tag_53:\n      stop\n        /* \"contracts/templates/KaggleDataOracle.sol\":687:706  IERC20 public token */\n    tag_13:\n      tag_56\n      tag_57\n      jump\t// in\n    tag_56:\n      mload(0x40)\n      tag_58\n      swap2\n      swap1\n      tag_59\n      jump\t// in\n    tag_58:\n      mload(0x40)\n      dup1\n      swap2\n      sub\n      swap1\n      return\n        /* \"contracts/templates/KaggleDataOracle.sol\":637:680  mapping (address=>bool) public rawDataStore */\n    tag_18:\n      mstore(0x20, 0x03)\n      dup1\n      0x00\n      mstore\n      keccak256(0x00, 0x40)\n      0x00\n      swap2\n      pop\n      sload\n      swap1\n      0x0100\n      exp\n      swap1\n      div\n      0xff\n      and\n      dup2\n      jump\t// out\n        /* \"contracts/templates/KaggleDataOracle.sol\":968:1162  function setRawData(address ad, bool set) public {\r... */\n    tag_24:\n        /* \"contracts/templates/KaggleDataOracle.sol\":1048:1055  owner() */\n      tag_61\n        /* \"contracts/templates/KaggleDataOracle.sol\":1048:1053  owner */\n      tag_32\n        /* \"contracts/templates/KaggleDataOracle.sol\":1048:1055  owner() */\n      jump\t// in\n    tag_61:\n        /* \"contracts/templates/KaggleDataOracle.sol\":1036:1055  msg.sender==owner() */\n      0xffffffffffffffffffffffffffffffffffffffff\n      and\n        /* \"contracts/templates/KaggleDataOracle.sol\":1036:1046  msg.sender */\n      caller\n        /* \"contracts/templates/KaggleDataOracle.sol\":1036:1055  msg.sender==owner() */\n      0xffffffffffffffffffffffffffffffffffffffff\n      and\n      eq\n        /* \"contracts/templates/KaggleDataOracle.sol\":1036:1075  msg.sender==owner() || msg.sender == ad */\n      dup1\n      tag_62\n      jumpi\n      pop\n        /* \"contracts/templates/KaggleDataOracle.sol\":1073:1075  ad */\n      dup2\n        /* \"contracts/templates/KaggleDataOracle.sol\":1059:1075  msg.sender == ad */\n      0xffffffffffffffffffffffffffffffffffffffff\n      and\n        /* \"contracts/templates/KaggleDataOracle.sol\":1059:1069  msg.sender */\n      caller\n        /* \"contracts/templates/KaggleDataOracle.sol\":1059:1075  msg.sender == ad */\n      0xffffffffffffffffffffffffffffffffffffffff\n      and\n      eq\n        /* \"contracts/templates/KaggleDataOracle.sol\":1036:1075  msg.sender==owner() || msg.sender == ad */\n    tag_62:\n        /* \"contracts/templates/KaggleDataOracle.sol\":1028:1108  require(msg.sender==owner() || msg.sender == ad,\"You can only set for yourself\") */\n      tag_63\n      jumpi\n      mload(0x40)\n      0x08c379a000000000000000000000000000000000000000000000000000000000\n      dup2\n      mstore\n      0x04\n      add\n      tag_64\n      swap1\n      tag_65\n      jump\t// in\n    tag_64:\n      mload(0x40)\n      dup1\n      swap2\n      sub\n      swap1\n      revert\n    tag_63:\n        /* \"contracts/templates/KaggleDataOracle.sol\":1138:1141  set */\n      dup1\n        /* \"contracts/templates/KaggleDataOracle.sol\":1119:1131  rawDataStore */\n      0x03\n        /* \"contracts/templates/KaggleDataOracle.sol\":1119:1135  rawDataStore[ad] */\n      0x00\n        /* \"contracts/templates/KaggleDataOracle.sol\":1132:1134  ad */\n      dup5\n        /* \"contracts/templates/KaggleDataOracle.sol\":1119:1135  rawDataStore[ad] */\n      0xffffffffffffffffffffffffffffffffffffffff\n      and\n      0xffffffffffffffffffffffffffffffffffffffff\n      and\n      dup2\n      mstore\n      0x20\n      add\n      swap1\n      dup2\n      mstore\n      0x20\n      add\n      0x00\n      keccak256\n      0x00\n        /* \"contracts/templates/KaggleDataOracle.sol\":1119:1141  rawDataStore[ad] = set */\n      0x0100\n      exp\n      dup2\n      sload\n      dup2\n      0xff\n      mul\n      not\n      and\n      swap1\n      dup4\n      iszero\n      iszero\n      mul\n      or\n      swap1\n      sstore\n      pop\n        /* \"contracts/templates/KaggleDataOracle.sol\":968:1162  function setRawData(address ad, bool set) public {\r... */\n      pop\n      pop\n      jump\t// out\n        /* \"@openzeppelin/contracts/access/Ownable.sol\":1831:1932  function renounceOwnership() public virtual onlyOwner {... */\n    tag_26:\n        /* \"@openzeppelin/contracts/access/Ownable.sol\":1094:1107  _checkOwner() */\n      tag_67\n        /* \"@openzeppelin/contracts/access/Ownable.sol\":1094:1105  _checkOwner */\n      tag_68\n        /* \"@openzeppelin/contracts/access/Ownable.sol\":1094:1107  _checkOwner() */\n      jump\t// in\n    tag_67:\n        /* \"@openzeppelin/contracts/access/Ownable.sol\":1895:1925  _transferOwnership(address(0)) */\n      tag_70\n        /* \"@openzeppelin/contracts/access/Ownable.sol\":1922:1923  0 */\n      0x00\n        /* \"@openzeppelin/contracts/access/Ownable.sol\":1895:1913  _transferOwnership */\n      tag_71\n        /* \"@openzeppelin/contracts/access/Ownable.sol\":1895:1925  _transferOwnership(address(0)) */\n      jump\t// in\n    tag_70:\n        /* \"@openzeppelin/contracts/access/Ownable.sol\":1831:1932  function renounceOwnership() public virtual onlyOwner {... */\n      jump\t// out\n        /* \"contracts/templates/KaggleDataOracle.sol\":1177:1559  function validateDataPoint( address ad,  string memory v2, string memory v3, uint val) public {\r... */\n    tag_30:\n        /* \"contracts/templates/KaggleDataOracle.sol\":1309:1313  true */\n      0x01\n        /* \"contracts/templates/KaggleDataOracle.sol\":1290:1313  rawDataStore[ad] ==true */\n      iszero\n      iszero\n        /* \"contracts/templates/KaggleDataOracle.sol\":1290:1302  rawDataStore */\n      0x03\n        /* \"contracts/templates/KaggleDataOracle.sol\":1290:1306  rawDataStore[ad] */\n      0x00\n        /* \"contracts/templates/KaggleDataOracle.sol\":1303:1305  ad */\n      dup7\n        /* \"contracts/templates/KaggleDataOracle.sol\":1290:1306  rawDataStore[ad] */\n      0xffffffffffffffffffffffffffffffffffffffff\n      and\n      0xffffffffffffffffffffffffffffffffffffffff\n      and\n      dup2\n      mstore\n      0x20\n      add\n      swap1\n      dup2\n      mstore\n      0x20\n      add\n      0x00\n      keccak256\n      0x00\n      swap1\n      sload\n      swap1\n      0x0100\n      exp\n      swap1\n      div\n      0xff\n      and\n        /* \"contracts/templates/KaggleDataOracle.sol\":1290:1313  rawDataStore[ad] ==true */\n      iszero\n      iszero\n      eq\n        /* \"contracts/templates/KaggleDataOracle.sol\":1282:1339  require(rawDataStore[ad] ==true , \"Raw Data not stored!\") */\n      tag_73\n      jumpi\n      mload(0x40)\n      0x08c379a000000000000000000000000000000000000000000000000000000000\n      dup2\n      mstore\n      0x04\n      add\n      tag_74\n      swap1\n      tag_75\n      jump\t// in\n    tag_74:\n      mload(0x40)\n      dup1\n      swap2\n      sub\n      swap1\n      revert\n    tag_73:\n        /* \"contracts/templates/KaggleDataOracle.sol\":1362:1363  0 */\n      0x00\n        /* \"contracts/templates/KaggleDataOracle.sol\":1358:1361  val */\n      dup2\n        /* \"contracts/templates/KaggleDataOracle.sol\":1358:1363  val>0 */\n      gt\n        /* \"contracts/templates/KaggleDataOracle.sol\":1350:1395  require(val>0,\"Value must be greator than 0\") */\n      tag_76\n      jumpi\n      mload(0x40)\n      0x08c379a000000000000000000000000000000000000000000000000000000000\n      dup2\n      mstore\n      0x04\n      add\n      tag_77\n      swap1\n      tag_78\n      jump\t// in\n    tag_77:\n      mload(0x40)\n      dup1\n      swap2\n      sub\n      swap1\n      revert\n    tag_76:\n        /* \"contracts/templates/KaggleDataOracle.sol\":1406:1411  token */\n      0x04\n      0x00\n      swap1\n      sload\n      swap1\n      0x0100\n      exp\n      swap1\n      div\n      0xffffffffffffffffffffffffffffffffffffffff\n      and\n        /* \"contracts/templates/KaggleDataOracle.sol\":1406:1424  token.transferFrom */\n      0xffffffffffffffffffffffffffffffffffffffff\n      and\n      0x23b872dd\n        /* \"contracts/templates/KaggleDataOracle.sol\":1425:1435  msg.sender */\n      caller\n        /* \"contracts/templates/KaggleDataOracle.sol\":1444:1448  this */\n      address\n        /* \"contracts/templates/KaggleDataOracle.sol\":1450:1453  val */\n      dup5\n        /* \"contracts/templates/KaggleDataOracle.sol\":1406:1454  token.transferFrom(msg.sender,address(this),val) */\n      mload(0x40)\n      dup5\n      0xffffffff\n      and\n      0xe0\n      shl\n      dup2\n      mstore\n      0x04\n      add\n      tag_79\n      swap4\n      swap3\n      swap2\n      swap1\n      tag_80\n      jump\t// in\n    tag_79:\n      0x20\n      mload(0x40)\n      dup1\n      dup4\n      sub\n      dup2\n      0x00\n      dup8\n      dup1\n      extcodesize\n      iszero\n      dup1\n      iszero\n      tag_81\n      jumpi\n      0x00\n      dup1\n      revert\n    tag_81:\n      pop\n      gas\n      call\n      iszero\n      dup1\n      iszero\n      tag_83\n      jumpi\n      returndatasize\n      0x00\n      dup1\n      returndatacopy\n      revert(0x00, returndatasize)\n    tag_83:\n      pop\n      pop\n      pop\n      pop\n      mload(0x40)\n      returndatasize\n      not(0x1f)\n      0x1f\n      dup3\n      add\n      and\n      dup3\n      add\n      dup1\n      0x40\n      mstore\n      pop\n      dup2\n      add\n      swap1\n      tag_84\n      swap2\n      swap1\n      tag_85\n      jump\t// in\n    tag_84:\n      pop\n        /* \"contracts/templates/KaggleDataOracle.sol\":1493:1496  val */\n      dup1\n        /* \"contracts/templates/KaggleDataOracle.sol\":1465:1479  userDataOracle */\n      0x01\n        /* \"contracts/templates/KaggleDataOracle.sol\":1465:1483  userDataOracle[ad] */\n      0x00\n        /* \"contracts/templates/KaggleDataOracle.sol\":1480:1482  ad */\n      dup7\n        /* \"contracts/templates/KaggleDataOracle.sol\":1465:1483  userDataOracle[ad] */\n      0xffffffffffffffffffffffffffffffffffffffff\n      and\n      0xffffffffffffffffffffffffffffffffffffffff\n      and\n      dup2\n      mstore\n      0x20\n      add\n      swap1\n      dup2\n      mstore\n      0x20\n      add\n      0x00\n      keccak256\n        /* \"contracts/templates/KaggleDataOracle.sol\":1484:1486  v2 */\n      dup5\n        /* \"contracts/templates/KaggleDataOracle.sol\":1465:1487  userDataOracle[ad][v2] */\n      mload(0x40)\n      tag_86\n      swap2\n      swap1\n      tag_87\n      jump\t// in\n    tag_86:\n      swap1\n      dup2\n      mstore\n      0x20\n      add\n      mload(0x40)\n      dup1\n      swap2\n      sub\n      swap1\n      keccak256\n        /* \"contracts/templates/KaggleDataOracle.sol\":1488:1490  v3 */\n      dup4\n        /* \"contracts/templates/KaggleDataOracle.sol\":1465:1491  userDataOracle[ad][v2][v3] */\n      mload(0x40)\n      tag_88\n      swap2\n      swap1\n      tag_87\n      jump\t// in\n    tag_88:\n      swap1\n      dup2\n      mstore\n      0x20\n      add\n      mload(0x40)\n      dup1\n      swap2\n      sub\n      swap1\n      keccak256\n      0x00\n        /* \"contracts/templates/KaggleDataOracle.sol\":1465:1496  userDataOracle[ad][v2][v3]+=val */\n      dup3\n      dup3\n      sload\n      tag_89\n      swap2\n      swap1\n      tag_90\n      jump\t// in\n    tag_89:\n      swap3\n      pop\n      pop\n      dup2\n      swap1\n      sstore\n      pop\n        /* \"contracts/templates/KaggleDataOracle.sol\":1548:1551  val */\n      dup1\n        /* \"contracts/templates/KaggleDataOracle.sol\":1507:1522  validatorSplits */\n      0x02\n        /* \"contracts/templates/KaggleDataOracle.sol\":1507:1534  validatorSplits[msg.sender] */\n      0x00\n        /* \"contracts/templates/KaggleDataOracle.sol\":1523:1533  msg.sender */\n      caller\n        /* \"contracts/templates/KaggleDataOracle.sol\":1507:1534  validatorSplits[msg.sender] */\n      0xffffffffffffffffffffffffffffffffffffffff\n      and\n      0xffffffffffffffffffffffffffffffffffffffff\n      and\n      dup2\n      mstore\n      0x20\n      add\n      swap1\n      dup2\n      mstore\n      0x20\n      add\n      0x00\n      keccak256\n        /* \"contracts/templates/KaggleDataOracle.sol\":1507:1538  validatorSplits[msg.sender][ad] */\n      0x00\n        /* \"contracts/templates/KaggleDataOracle.sol\":1535:1537  ad */\n      dup7\n        /* \"contracts/templates/KaggleDataOracle.sol\":1507:1538  validatorSplits[msg.sender][ad] */\n      0xffffffffffffffffffffffffffffffffffffffff\n      and\n      0xffffffffffffffffffffffffffffffffffffffff\n      and\n      dup2\n      mstore\n      0x20\n      add\n      swap1\n      dup2\n      mstore\n      0x20\n      add\n      0x00\n      keccak256\n        /* \"contracts/templates/KaggleDataOracle.sol\":1539:1541  v2 */\n      dup5\n        /* \"contracts/templates/KaggleDataOracle.sol\":1507:1542  validatorSplits[msg.sender][ad][v2] */\n      mload(0x40)\n      tag_91\n      swap2\n      swap1\n      tag_87\n      jump\t// in\n    tag_91:\n      swap1\n      dup2\n      mstore\n      0x20\n      add\n      mload(0x40)\n      dup1\n      swap2\n      sub\n      swap1\n      keccak256\n        /* \"contracts/templates/KaggleDataOracle.sol\":1543:1545  v3 */\n      dup4\n        /* \"contracts/templates/KaggleDataOracle.sol\":1507:1546  validatorSplits[msg.sender][ad][v2][v3] */\n      mload(0x40)\n      tag_92\n      swap2\n      swap1\n      tag_87\n      jump\t// in\n    tag_92:\n      swap1\n      dup2\n      mstore\n      0x20\n      add\n      mload(0x40)\n      dup1\n      swap2\n      sub\n      swap1\n      keccak256\n      0x00\n        /* \"contracts/templates/KaggleDataOracle.sol\":1507:1551  validatorSplits[msg.sender][ad][v2][v3]+=val */\n      dup3\n      dup3\n      sload\n      tag_93\n      swap2\n      swap1\n      tag_90\n      jump\t// in\n    tag_93:\n      swap3\n      pop\n      pop\n      dup2\n      swap1\n      sstore\n      pop\n        /* \"contracts/templates/KaggleDataOracle.sol\":1177:1559  function validateDataPoint( address ad,  string memory v2, string memory v3, uint val) public {\r... */\n      pop\n      pop\n      pop\n      pop\n      jump\t// out\n        /* \"@openzeppelin/contracts/access/Ownable.sol\":1201:1286  function owner() public view virtual returns (address) {... */\n    tag_32:\n        /* \"@openzeppelin/contracts/access/Ownable.sol\":1247:1254  address */\n      0x00\n        /* \"@openzeppelin/contracts/access/Ownable.sol\":1273:1279  _owner */\n      dup1\n      0x00\n      swap1\n      sload\n      swap1\n      0x0100\n      exp\n      swap1\n      div\n      0xffffffffffffffffffffffffffffffffffffffff\n      and\n        /* \"@openzeppelin/contracts/access/Ownable.sol\":1266:1279  return _owner */\n      swap1\n      pop\n        /* \"@openzeppelin/contracts/access/Ownable.sol\":1201:1286  function owner() public view virtual returns (address) {... */\n      swap1\n      jump\t// out\n        /* \"contracts/templates/KaggleDataOracle.sol\":1574:1997  function withdrawMoney(address ad,  string memory v2, string memory v3, uint val) public{\r... */\n    tag_37:\n        /* \"contracts/templates/KaggleDataOracle.sol\":1722:1725  val */\n      dup1\n        /* \"contracts/templates/KaggleDataOracle.sol\":1681:1696  validatorSplits */\n      0x02\n        /* \"contracts/templates/KaggleDataOracle.sol\":1681:1708  validatorSplits[msg.sender] */\n      0x00\n        /* \"contracts/templates/KaggleDataOracle.sol\":1697:1707  msg.sender */\n      caller\n        /* \"contracts/templates/KaggleDataOracle.sol\":1681:1708  validatorSplits[msg.sender] */\n      0xffffffffffffffffffffffffffffffffffffffff\n      and\n      0xffffffffffffffffffffffffffffffffffffffff\n      and\n      dup2\n      mstore\n      0x20\n      add\n      swap1\n      dup2\n      mstore\n      0x20\n      add\n      0x00\n      keccak256\n        /* \"contracts/templates/KaggleDataOracle.sol\":1681:1712  validatorSplits[msg.sender][ad] */\n      0x00\n        /* \"contracts/templates/KaggleDataOracle.sol\":1709:1711  ad */\n      dup7\n        /* \"contracts/templates/KaggleDataOracle.sol\":1681:1712  validatorSplits[msg.sender][ad] */\n      0xffffffffffffffffffffffffffffffffffffffff\n      and\n      0xffffffffffffffffffffffffffffffffffffffff\n      and\n      dup2\n      mstore\n      0x20\n      add\n      swap1\n      dup2\n      mstore\n      0x20\n      add\n      0x00\n      keccak256\n        /* \"contracts/templates/KaggleDataOracle.sol\":1713:1715  v2 */\n      dup5\n        /* \"contracts/templates/KaggleDataOracle.sol\":1681:1716  validatorSplits[msg.sender][ad][v2] */\n      mload(0x40)\n      tag_96\n      swap2\n      swap1\n      tag_87\n      jump\t// in\n    tag_96:\n      swap1\n      dup2\n      mstore\n      0x20\n      add\n      mload(0x40)\n      dup1\n      swap2\n      sub\n      swap1\n      keccak256\n        /* \"contracts/templates/KaggleDataOracle.sol\":1717:1719  v3 */\n      dup4\n        /* \"contracts/templates/KaggleDataOracle.sol\":1681:1720  validatorSplits[msg.sender][ad][v2][v3] */\n      mload(0x40)\n      tag_97\n      swap2\n      swap1\n      tag_87\n      jump\t// in\n    tag_97:\n      swap1\n      dup2\n      mstore\n      0x20\n      add\n      mload(0x40)\n      dup1\n      swap2\n      sub\n      swap1\n      keccak256\n      sload\n        /* \"contracts/templates/KaggleDataOracle.sol\":1681:1725  validatorSplits[msg.sender][ad][v2][v3]>=val */\n      lt\n      iszero\n        /* \"contracts/templates/KaggleDataOracle.sol\":1673:1751  require(validatorSplits[msg.sender][ad][v2][v3]>=val,\"Amount Exceeds Balance\") */\n      tag_98\n      jumpi\n      mload(0x40)\n      0x08c379a000000000000000000000000000000000000000000000000000000000\n      dup2\n      mstore\n      0x04\n      add\n      tag_99\n      swap1\n      tag_100\n      jump\t// in\n    tag_99:\n      mload(0x40)\n      dup1\n      swap2\n      sub\n      swap1\n      revert\n    tag_98:\n        /* \"contracts/templates/KaggleDataOracle.sol\":1798:1801  val */\n      dup1\n        /* \"contracts/templates/KaggleDataOracle.sol\":1770:1784  userDataOracle */\n      0x01\n        /* \"contracts/templates/KaggleDataOracle.sol\":1770:1788  userDataOracle[ad] */\n      0x00\n        /* \"contracts/templates/KaggleDataOracle.sol\":1785:1787  ad */\n      dup7\n        /* \"contracts/templates/KaggleDataOracle.sol\":1770:1788  userDataOracle[ad] */\n      0xffffffffffffffffffffffffffffffffffffffff\n      and\n      0xffffffffffffffffffffffffffffffffffffffff\n      and\n      dup2\n      mstore\n      0x20\n      add\n      swap1\n      dup2\n      mstore\n      0x20\n      add\n      0x00\n      keccak256\n        /* \"contracts/templates/KaggleDataOracle.sol\":1789:1791  v2 */\n      dup5\n        /* \"contracts/templates/KaggleDataOracle.sol\":1770:1792  userDataOracle[ad][v2] */\n      mload(0x40)\n      tag_101\n      swap2\n      swap1\n      tag_87\n      jump\t// in\n    tag_101:\n      swap1\n      dup2\n      mstore\n      0x20\n      add\n      mload(0x40)\n      dup1\n      swap2\n      sub\n      swap1\n      keccak256\n        /* \"contracts/templates/KaggleDataOracle.sol\":1793:1795  v3 */\n      dup4\n        /* \"contracts/templates/KaggleDataOracle.sol\":1770:1796  userDataOracle[ad][v2][v3] */\n      mload(0x40)\n      tag_102\n      swap2\n      swap1\n      tag_87\n      jump\t// in\n    tag_102:\n      swap1\n      dup2\n      mstore\n      0x20\n      add\n      mload(0x40)\n      dup1\n      swap2\n      sub\n      swap1\n      keccak256\n      sload\n        /* \"contracts/templates/KaggleDataOracle.sol\":1770:1801  userDataOracle[ad][v2][v3]>=val */\n      lt\n      iszero\n        /* \"contracts/templates/KaggleDataOracle.sol\":1762:1833  require(userDataOracle[ad][v2][v3]>=val,\"Amount Exceeds Total Balance\") */\n      tag_103\n      jumpi\n      mload(0x40)\n      0x08c379a000000000000000000000000000000000000000000000000000000000\n      dup2\n      mstore\n      0x04\n      add\n      tag_104\n      swap1\n      tag_105\n      jump\t// in\n    tag_104:\n      mload(0x40)\n      dup1\n      swap2\n      sub\n      swap1\n      revert\n    tag_103:\n        /* \"contracts/templates/KaggleDataOracle.sol\":1844:1849  token */\n      0x04\n      0x00\n      swap1\n      sload\n      swap1\n      0x0100\n      exp\n      swap1\n      div\n      0xffffffffffffffffffffffffffffffffffffffff\n      and\n        /* \"contracts/templates/KaggleDataOracle.sol\":1844:1862  token.transferFrom */\n      0xffffffffffffffffffffffffffffffffffffffff\n      and\n      0x23b872dd\n        /* \"contracts/templates/KaggleDataOracle.sol\":1871:1875  this */\n      address\n        /* \"contracts/templates/KaggleDataOracle.sol\":1877:1887  msg.sender */\n      caller\n        /* \"contracts/templates/KaggleDataOracle.sol\":1888:1891  val */\n      dup5\n        /* \"contracts/templates/KaggleDataOracle.sol\":1844:1892  token.transferFrom(address(this),msg.sender,val) */\n      mload(0x40)\n      dup5\n      0xffffffff\n      and\n      0xe0\n      shl\n      dup2\n      mstore\n      0x04\n      add\n      tag_106\n      swap4\n      swap3\n      swap2\n      swap1\n      tag_80\n      jump\t// in\n    tag_106:\n      0x20\n      mload(0x40)\n      dup1\n      dup4\n      sub\n      dup2\n      0x00\n      dup8\n      dup1\n      extcodesize\n      iszero\n      dup1\n      iszero\n      tag_107\n      jumpi\n      0x00\n      dup1\n      revert\n    tag_107:\n      pop\n      gas\n      call\n      iszero\n      dup1\n      iszero\n      tag_109\n      jumpi\n      returndatasize\n      0x00\n      dup1\n      returndatacopy\n      revert(0x00, returndatasize)\n    tag_109:\n      pop\n      pop\n      pop\n      pop\n      mload(0x40)\n      returndatasize\n      not(0x1f)\n      0x1f\n      dup3\n      add\n      and\n      dup3\n      add\n      dup1\n      0x40\n      mstore\n      pop\n      dup2\n      add\n      swap1\n      tag_110\n      swap2\n      swap1\n      tag_85\n      jump\t// in\n    tag_110:\n      pop\n        /* \"contracts/templates/KaggleDataOracle.sol\":1931:1934  val */\n      dup1\n        /* \"contracts/templates/KaggleDataOracle.sol\":1903:1917  userDataOracle */\n      0x01\n        /* \"contracts/templates/KaggleDataOracle.sol\":1903:1921  userDataOracle[ad] */\n      0x00\n        /* \"contracts/templates/KaggleDataOracle.sol\":1918:1920  ad */\n      dup7\n        /* \"contracts/templates/KaggleDataOracle.sol\":1903:1921  userDataOracle[ad] */\n      0xffffffffffffffffffffffffffffffffffffffff\n      and\n      0xffffffffffffffffffffffffffffffffffffffff\n      and\n      dup2\n      mstore\n      0x20\n      add\n      swap1\n      dup2\n      mstore\n      0x20\n      add\n      0x00\n      keccak256\n        /* \"contracts/templates/KaggleDataOracle.sol\":1922:1924  v2 */\n      dup5\n        /* \"contracts/templates/KaggleDataOracle.sol\":1903:1925  userDataOracle[ad][v2] */\n      mload(0x40)\n      tag_111\n      swap2\n      swap1\n      tag_87\n      jump\t// in\n    tag_111:\n      swap1\n      dup2\n      mstore\n      0x20\n      add\n      mload(0x40)\n      dup1\n      swap2\n      sub\n      swap1\n      keccak256\n        /* \"contracts/templates/KaggleDataOracle.sol\":1926:1928  v3 */\n      dup4\n        /* \"contracts/templates/KaggleDataOracle.sol\":1903:1929  userDataOracle[ad][v2][v3] */\n      mload(0x40)\n      tag_112\n      swap2\n      swap1\n      tag_87\n      jump\t// in\n    tag_112:\n      swap1\n      dup2\n      mstore\n      0x20\n      add\n      mload(0x40)\n      dup1\n      swap2\n      sub\n      swap1\n      keccak256\n      0x00\n        /* \"contracts/templates/KaggleDataOracle.sol\":1903:1934  userDataOracle[ad][v2][v3]-=val */\n      dup3\n      dup3\n      sload\n      tag_113\n      swap2\n      swap1\n      tag_114\n      jump\t// in\n    tag_113:\n      swap3\n      pop\n      pop\n      dup2\n      swap1\n      sstore\n      pop\n        /* \"contracts/templates/KaggleDataOracle.sol\":1986:1989  val */\n      dup1\n        /* \"contracts/templates/KaggleDataOracle.sol\":1945:1960  validatorSplits */\n      0x02\n        /* \"contracts/templates/KaggleDataOracle.sol\":1945:1972  validatorSplits[msg.sender] */\n      0x00\n        /* \"contracts/templates/KaggleDataOracle.sol\":1961:1971  msg.sender */\n      caller\n        /* \"contracts/templates/KaggleDataOracle.sol\":1945:1972  validatorSplits[msg.sender] */\n      0xffffffffffffffffffffffffffffffffffffffff\n      and\n      0xffffffffffffffffffffffffffffffffffffffff\n      and\n      dup2\n      mstore\n      0x20\n      add\n      swap1\n      dup2\n      mstore\n      0x20\n      add\n      0x00\n      keccak256\n        /* \"contracts/templates/KaggleDataOracle.sol\":1945:1976  validatorSplits[msg.sender][ad] */\n      0x00\n        /* \"contracts/templates/KaggleDataOracle.sol\":1973:1975  ad */\n      dup7\n        /* \"contracts/templates/KaggleDataOracle.sol\":1945:1976  validatorSplits[msg.sender][ad] */\n      0xffffffffffffffffffffffffffffffffffffffff\n      and\n      0xffffffffffffffffffffffffffffffffffffffff\n      and\n      dup2\n      mstore\n      0x20\n      add\n      swap1\n      dup2\n      mstore\n      0x20\n      add\n      0x00\n      keccak256\n        /* \"contracts/templates/KaggleDataOracle.sol\":1977:1979  v2 */\n      dup5\n        /* \"contracts/templates/KaggleDataOracle.sol\":1945:1980  validatorSplits[msg.sender][ad][v2] */\n      mload(0x40)\n      tag_115\n      swap2\n      swap1\n      tag_87\n      jump\t// in\n    tag_115:\n      swap1\n      dup2\n      mstore\n      0x20\n      add\n      mload(0x40)\n      dup1\n      swap2\n      sub\n      swap1\n      keccak256\n        /* \"contracts/templates/KaggleDataOracle.sol\":1981:1983  v3 */\n      dup4\n        /* \"contracts/templates/KaggleDataOracle.sol\":1945:1984  validatorSplits[msg.sender][ad][v2][v3] */\n      mload(0x40)\n      tag_116\n      swap2\n      swap1\n      tag_87\n      jump\t// in\n    tag_116:\n      swap1\n      dup2\n      mstore\n      0x20\n      add\n      mload(0x40)\n      dup1\n      swap2\n      sub\n      swap1\n      keccak256\n      0x00\n        /* \"contracts/templates/KaggleDataOracle.sol\":1945:1989  validatorSplits[msg.sender][ad][v2][v3]-=val */\n      dup3\n      dup3\n      sload\n      tag_117\n      swap2\n      swap1\n      tag_114\n      jump\t// in\n    tag_117:\n      swap3\n      pop\n      pop\n      dup2\n      swap1\n      sstore\n      pop\n        /* \"contracts/templates/KaggleDataOracle.sol\":1574:1997  function withdrawMoney(address ad,  string memory v2, string memory v3, uint val) public{\r... */\n      pop\n      pop\n      pop\n      pop\n      jump\t// out\n        /* \"contracts/templates/KaggleDataOracle.sol\":523:621  mapping (address=>mapping(address=>mapping(string=>mapping(string=>uint)))) public validatorSplits */\n    tag_41:\n      mstore(0x20, 0x02)\n      dup4\n      0x00\n      mstore\n      mstore(0x20, keccak256(0x00, 0x40))\n      dup3\n      0x00\n      mstore\n      keccak256(0x00, 0x40)\n      dup3\n      dup1\n      mload\n      0x20\n      dup2\n      add\n      dup3\n      add\n      dup1\n      mload\n      dup5\n      dup3\n      mstore\n      0x20\n      dup4\n      add\n      0x20\n      dup6\n      add\n      keccak256\n      dup2\n      dup4\n      mstore\n      dup1\n      swap6\n      pop\n      pop\n      pop\n      pop\n      pop\n      pop\n      dup2\n      dup1\n      mload\n      0x20\n      dup2\n      add\n      dup3\n      add\n      dup1\n      mload\n      dup5\n      dup3\n      mstore\n      0x20\n      dup4\n      add\n      0x20\n      dup6\n      add\n      keccak256\n      dup2\n      dup4\n      mstore\n      dup1\n      swap6\n      pop\n      pop\n      pop\n      pop\n      pop\n      pop\n      0x00\n      swap4\n      pop\n      swap4\n      pop\n      pop\n      pop\n      pop\n      sload\n      dup2\n      jump\t// out\n        /* \"contracts/templates/KaggleDataOracle.sol\":312:393  mapping (address => mapping(string=>mapping(string=>uint))) public userDataOracle */\n    tag_47:\n      mstore(0x20, 0x01)\n      dup3\n      0x00\n      mstore\n      keccak256(0x00, 0x40)\n      dup3\n      dup1\n      mload\n      0x20\n      dup2\n      add\n      dup3\n      add\n      dup1\n      mload\n      dup5\n      dup3\n      mstore\n      0x20\n      dup4\n      add\n      0x20\n      dup6\n      add\n      keccak256\n      dup2\n      dup4\n      mstore\n      dup1\n      swap6\n      pop\n      pop\n      pop\n      pop\n      pop\n      pop\n      dup2\n      dup1\n      mload\n      0x20\n      dup2\n      add\n      dup3\n      add\n      dup1\n      mload\n      dup5\n      dup3\n      mstore\n      0x20\n      dup4\n      add\n      0x20\n      dup6\n      add\n      keccak256\n      dup2\n      dup4\n      mstore\n      dup1\n      swap6\n      pop\n      pop\n      pop\n      pop\n      pop\n      pop\n      0x00\n      swap3\n      pop\n      swap3\n      pop\n      pop\n      pop\n      sload\n      dup2\n      jump\t// out\n        /* \"contracts/templates/KaggleDataOracle.sol\":722:867  function getStakeValue(address ad,string memory v2,string memory v3)public view returns(uint){\r... */\n    tag_51:\n        /* \"contracts/templates/KaggleDataOracle.sol\":810:814  uint */\n      0x00\n        /* \"contracts/templates/KaggleDataOracle.sol\":833:847  userDataOracle */\n      0x01\n        /* \"contracts/templates/KaggleDataOracle.sol\":833:851  userDataOracle[ad] */\n      0x00\n        /* \"contracts/templates/KaggleDataOracle.sol\":848:850  ad */\n      dup6\n        /* \"contracts/templates/KaggleDataOracle.sol\":833:851  userDataOracle[ad] */\n      0xffffffffffffffffffffffffffffffffffffffff\n      and\n      0xffffffffffffffffffffffffffffffffffffffff\n      and\n      dup2\n      mstore\n      0x20\n      add\n      swap1\n      dup2\n      mstore\n      0x20\n      add\n      0x00\n      keccak256\n        /* \"contracts/templates/KaggleDataOracle.sol\":852:854  v2 */\n      dup4\n        /* \"contracts/templates/KaggleDataOracle.sol\":833:855  userDataOracle[ad][v2] */\n      mload(0x40)\n      tag_119\n      swap2\n      swap1\n      tag_87\n      jump\t// in\n    tag_119:\n      swap1\n      dup2\n      mstore\n      0x20\n      add\n      mload(0x40)\n      dup1\n      swap2\n      sub\n      swap1\n      keccak256\n        /* \"contracts/templates/KaggleDataOracle.sol\":856:858  v3 */\n      dup3\n        /* \"contracts/templates/KaggleDataOracle.sol\":833:859  userDataOracle[ad][v2][v3] */\n      mload(0x40)\n      tag_120\n      swap2\n      swap1\n      tag_87\n      jump\t// in\n    tag_120:\n      swap1\n      dup2\n      mstore\n      0x20\n      add\n      mload(0x40)\n      dup1\n      swap2\n      sub\n      swap1\n      keccak256\n      sload\n        /* \"contracts/templates/KaggleDataOracle.sol\":826:859  return userDataOracle[ad][v2][v3] */\n      swap1\n      pop\n        /* \"contracts/templates/KaggleDataOracle.sol\":722:867  function getStakeValue(address ad,string memory v2,string memory v3)public view returns(uint){\r... */\n      swap4\n      swap3\n      pop\n      pop\n      pop\n      jump\t// out\n        /* \"@openzeppelin/contracts/access/Ownable.sol\":2081:2279  function transferOwnership(address newOwner) public virtual onlyOwner {... */\n    tag_55:\n        /* \"@openzeppelin/contracts/access/Ownable.sol\":1094:1107  _checkOwner() */\n      tag_122\n        /* \"@openzeppelin/contracts/access/Ownable.sol\":1094:1105  _checkOwner */\n      tag_68\n        /* \"@openzeppelin/contracts/access/Ownable.sol\":1094:1107  _checkOwner() */\n      jump\t// in\n    tag_122:\n        /* \"@openzeppelin/contracts/access/Ownable.sol\":2189:2190  0 */\n      0x00\n        /* \"@openzeppelin/contracts/access/Ownable.sol\":2169:2191  newOwner != address(0) */\n      0xffffffffffffffffffffffffffffffffffffffff\n      and\n        /* \"@openzeppelin/contracts/access/Ownable.sol\":2169:2177  newOwner */\n      dup2\n        /* \"@openzeppelin/contracts/access/Ownable.sol\":2169:2191  newOwner != address(0) */\n      0xffffffffffffffffffffffffffffffffffffffff\n      and\n      eq\n      iszero\n        /* \"@openzeppelin/contracts/access/Ownable.sol\":2161:2234  require(newOwner != address(0), \"Ownable: new owner is the zero address\") */\n      tag_124\n      jumpi\n      mload(0x40)\n      0x08c379a000000000000000000000000000000000000000000000000000000000\n      dup2\n      mstore\n      0x04\n      add\n      tag_125\n      swap1\n      tag_126\n      jump\t// in\n    tag_125:\n      mload(0x40)\n      dup1\n      swap2\n      sub\n      swap1\n      revert\n    tag_124:\n        /* \"@openzeppelin/contracts/access/Ownable.sol\":2244:2272  _transferOwnership(newOwner) */\n      tag_127\n        /* \"@openzeppelin/contracts/access/Ownable.sol\":2263:2271  newOwner */\n      dup2\n        /* \"@openzeppelin/contracts/access/Ownable.sol\":2244:2262  _transferOwnership */\n      tag_71\n        /* \"@openzeppelin/contracts/access/Ownable.sol\":2244:2272  _transferOwnership(newOwner) */\n      jump\t// in\n    tag_127:\n        /* \"@openzeppelin/contracts/access/Ownable.sol\":2081:2279  function transferOwnership(address newOwner) public virtual onlyOwner {... */\n      pop\n      jump\t// out\n        /* \"contracts/templates/KaggleDataOracle.sol\":687:706  IERC20 public token */\n    tag_57:\n      0x04\n      0x00\n      swap1\n      sload\n      swap1\n      0x0100\n      exp\n      swap1\n      div\n      0xffffffffffffffffffffffffffffffffffffffff\n      and\n      dup2\n      jump\t// out\n        /* \"@openzeppelin/contracts/access/Ownable.sol\":1359:1489  function _checkOwner() internal view virtual {... */\n    tag_68:\n        /* \"@openzeppelin/contracts/access/Ownable.sol\":1433:1445  _msgSender() */\n      tag_129\n        /* \"@openzeppelin/contracts/access/Ownable.sol\":1433:1443  _msgSender */\n      tag_130\n        /* \"@openzeppelin/contracts/access/Ownable.sol\":1433:1445  _msgSender() */\n      jump\t// in\n    tag_129:\n        /* \"@openzeppelin/contracts/access/Ownable.sol\":1422:1445  owner() == _msgSender() */\n      0xffffffffffffffffffffffffffffffffffffffff\n      and\n        /* \"@openzeppelin/contracts/access/Ownable.sol\":1422:1429  owner() */\n      tag_131\n        /* \"@openzeppelin/contracts/access/Ownable.sol\":1422:1427  owner */\n      tag_32\n        /* \"@openzeppelin/contracts/access/Ownable.sol\":1422:1429  owner() */\n      jump\t// in\n    tag_131:\n        /* \"@openzeppelin/contracts/access/Ownable.sol\":1422:1445  owner() == _msgSender() */\n      0xffffffffffffffffffffffffffffffffffffffff\n      and\n      eq\n        /* \"@openzeppelin/contracts/access/Ownable.sol\":1414:1482  require(owner() == _msgSender(), \"Ownable: caller is not the owner\") */\n      tag_132\n      jumpi\n      mload(0x40)\n      0x08c379a000000000000000000000000000000000000000000000000000000000\n      dup2\n      mstore\n      0x04\n      add\n      tag_133\n      swap1\n      tag_134\n      jump\t// in\n    tag_133:\n      mload(0x40)\n      dup1\n      swap2\n      sub\n      swap1\n      revert\n    tag_132:\n        /* \"@openzeppelin/contracts/access/Ownable.sol\":1359:1489  function _checkOwner() internal view virtual {... */\n      jump\t// out\n        /* \"@openzeppelin/contracts/access/Ownable.sol\":2433:2620  function _transferOwnership(address newOwner) internal virtual {... */\n    tag_71:\n        /* \"@openzeppelin/contracts/access/Ownable.sol\":2506:2522  address oldOwner */\n      0x00\n        /* \"@openzeppelin/contracts/access/Ownable.sol\":2525:2531  _owner */\n      dup1\n      0x00\n      swap1\n      sload\n      swap1\n      0x0100\n      exp\n      swap1\n      div\n      0xffffffffffffffffffffffffffffffffffffffff\n      and\n        /* \"@openzeppelin/contracts/access/Ownable.sol\":2506:2531  address oldOwner = _owner */\n      swap1\n      pop\n        /* \"@openzeppelin/contracts/access/Ownable.sol\":2550:2558  newOwner */\n      dup2\n        /* \"@openzeppelin/contracts/access/Ownable.sol\":2541:2547  _owner */\n      0x00\n      dup1\n        /* \"@openzeppelin/contracts/access/Ownable.sol\":2541:2558  _owner = newOwner */\n      0x0100\n      exp\n      dup2\n      sload\n      dup2\n      0xffffffffffffffffffffffffffffffffffffffff\n      mul\n      not\n      and\n      swap1\n      dup4\n      0xffffffffffffffffffffffffffffffffffffffff\n      and\n      mul\n      or\n      swap1\n      sstore\n      pop\n        /* \"@openzeppelin/contracts/access/Ownable.sol\":2604:2612  newOwner */\n      dup2\n        /* \"@openzeppelin/contracts/access/Ownable.sol\":2573:2613  OwnershipTransferred(oldOwner, newOwner) */\n      0xffffffffffffffffffffffffffffffffffffffff\n      and\n        /* \"@openzeppelin/contracts/access/Ownable.sol\":2594:2602  oldOwner */\n      dup2\n        /* \"@openzeppelin/contracts/access/Ownable.sol\":2573:2613  OwnershipTransferred(oldOwner, newOwner) */\n      0xffffffffffffffffffffffffffffffffffffffff\n      and\n      0x8be0079c531659141344cd1fd0a4f28419497f9722a3daafe3b4186f6b6457e0\n      mload(0x40)\n      mload(0x40)\n      dup1\n      swap2\n      sub\n      swap1\n      log3\n        /* \"@openzeppelin/contracts/access/Ownable.sol\":2496:2620  {... */\n      pop\n        /* \"@openzeppelin/contracts/access/Ownable.sol\":2433:2620  function _transferOwnership(address newOwner) internal virtual {... */\n      pop\n      jump\t// out\n        /* \"@openzeppelin/contracts/utils/Context.sol\":640:736  function _msgSender() internal view virtual returns (address) {... */\n    tag_130:\n        /* \"@openzeppelin/contracts/utils/Context.sol\":693:700  address */\n      0x00\n        /* \"@openzeppelin/contracts/utils/Context.sol\":719:729  msg.sender */\n      caller\n        /* \"@openzeppelin/contracts/utils/Context.sol\":712:729  return msg.sender */\n      swap1\n      pop\n        /* \"@openzeppelin/contracts/utils/Context.sol\":640:736  function _msgSender() internal view virtual returns (address) {... */\n      swap1\n      jump\t// out\n        /* \"#utility.yul\":7:419   */\n    tag_138:\n        /* \"#utility.yul\":85:90   */\n      0x00\n        /* \"#utility.yul\":110:176   */\n      tag_140\n        /* \"#utility.yul\":126:175   */\n      tag_141\n        /* \"#utility.yul\":168:174   */\n      dup5\n        /* \"#utility.yul\":126:175   */\n      tag_142\n      jump\t// in\n    tag_141:\n        /* \"#utility.yul\":110:176   */\n      tag_143\n      jump\t// in\n    tag_140:\n        /* \"#utility.yul\":101:176   */\n      swap1\n      pop\n        /* \"#utility.yul\":199:205   */\n      dup3\n        /* \"#utility.yul\":192:197   */\n      dup2\n        /* \"#utility.yul\":185:206   */\n      mstore\n        /* \"#utility.yul\":237:241   */\n      0x20\n        /* \"#utility.yul\":230:235   */\n      dup2\n        /* \"#utility.yul\":226:242   */\n      add\n        /* \"#utility.yul\":275:278   */\n      dup5\n        /* \"#utility.yul\":266:272   */\n      dup5\n        /* \"#utility.yul\":261:264   */\n      dup5\n        /* \"#utility.yul\":257:273   */\n      add\n        /* \"#utility.yul\":254:279   */\n      gt\n        /* \"#utility.yul\":251:363   */\n      iszero\n      tag_144\n      jumpi\n        /* \"#utility.yul\":282:361   */\n      tag_145\n      tag_146\n      jump\t// in\n    tag_145:\n        /* \"#utility.yul\":251:363   */\n    tag_144:\n        /* \"#utility.yul\":372:413   */\n      tag_147\n        /* \"#utility.yul\":406:412   */\n      dup5\n        /* \"#utility.yul\":401:404   */\n      dup3\n        /* \"#utility.yul\":396:399   */\n      dup6\n        /* \"#utility.yul\":372:413   */\n      tag_148\n      jump\t// in\n    tag_147:\n        /* \"#utility.yul\":91:419   */\n      pop\n        /* \"#utility.yul\":7:419   */\n      swap4\n      swap3\n      pop\n      pop\n      pop\n      jump\t// out\n        /* \"#utility.yul\":425:564   */\n    tag_149:\n        /* \"#utility.yul\":471:476   */\n      0x00\n        /* \"#utility.yul\":509:515   */\n      dup2\n        /* \"#utility.yul\":496:516   */\n      calldataload\n        /* \"#utility.yul\":487:516   */\n      swap1\n      pop\n        /* \"#utility.yul\":525:558   */\n      tag_151\n        /* \"#utility.yul\":552:557   */\n      dup2\n        /* \"#utility.yul\":525:558   */\n      tag_152\n      jump\t// in\n    tag_151:\n        /* \"#utility.yul\":425:564   */\n      swap3\n      swap2\n      pop\n      pop\n      jump\t// out\n        /* \"#utility.yul\":570:703   */\n    tag_153:\n        /* \"#utility.yul\":613:618   */\n      0x00\n        /* \"#utility.yul\":651:657   */\n      dup2\n        /* \"#utility.yul\":638:658   */\n      calldataload\n        /* \"#utility.yul\":629:658   */\n      swap1\n      pop\n        /* \"#utility.yul\":667:697   */\n      tag_155\n        /* \"#utility.yul\":691:696   */\n      dup2\n        /* \"#utility.yul\":667:697   */\n      tag_156\n      jump\t// in\n    tag_155:\n        /* \"#utility.yul\":570:703   */\n      swap3\n      swap2\n      pop\n      pop\n      jump\t// out\n        /* \"#utility.yul\":709:846   */\n    tag_157:\n        /* \"#utility.yul\":763:768   */\n      0x00\n        /* \"#utility.yul\":794:800   */\n      dup2\n        /* \"#utility.yul\":788:801   */\n      mload\n        /* \"#utility.yul\":779:801   */\n      swap1\n      pop\n        /* \"#utility.yul\":810:840   */\n      tag_159\n        /* \"#utility.yul\":834:839   */\n      dup2\n        /* \"#utility.yul\":810:840   */\n      tag_156\n      jump\t// in\n    tag_159:\n        /* \"#utility.yul\":709:846   */\n      swap3\n      swap2\n      pop\n      pop\n      jump\t// out\n        /* \"#utility.yul\":866:1206   */\n    tag_160:\n        /* \"#utility.yul\":922:927   */\n      0x00\n        /* \"#utility.yul\":971:974   */\n      dup3\n        /* \"#utility.yul\":964:968   */\n      0x1f\n        /* \"#utility.yul\":956:962   */\n      dup4\n        /* \"#utility.yul\":952:969   */\n      add\n        /* \"#utility.yul\":948:975   */\n      slt\n        /* \"#utility.yul\":938:1060   */\n      tag_162\n      jumpi\n        /* \"#utility.yul\":979:1058   */\n      tag_163\n      tag_164\n      jump\t// in\n    tag_163:\n        /* \"#utility.yul\":938:1060   */\n    tag_162:\n        /* \"#utility.yul\":1096:1102   */\n      dup2\n        /* \"#utility.yul\":1083:1103   */\n      calldataload\n        /* \"#utility.yul\":1121:1200   */\n      tag_165\n        /* \"#utility.yul\":1196:1199   */\n      dup5\n        /* \"#utility.yul\":1188:1194   */\n      dup3\n        /* \"#utility.yul\":1181:1185   */\n      0x20\n        /* \"#utility.yul\":1173:1179   */\n      dup7\n        /* \"#utility.yul\":1169:1186   */\n      add\n        /* \"#utility.yul\":1121:1200   */\n      tag_138\n      jump\t// in\n    tag_165:\n        /* \"#utility.yul\":1112:1200   */\n      swap2\n      pop\n        /* \"#utility.yul\":928:1206   */\n      pop\n        /* \"#utility.yul\":866:1206   */\n      swap3\n      swap2\n      pop\n      pop\n      jump\t// out\n        /* \"#utility.yul\":1212:1351   */\n    tag_166:\n        /* \"#utility.yul\":1258:1263   */\n      0x00\n        /* \"#utility.yul\":1296:1302   */\n      dup2\n        /* \"#utility.yul\":1283:1303   */\n      calldataload\n        /* \"#utility.yul\":1274:1303   */\n      swap1\n      pop\n        /* \"#utility.yul\":1312:1345   */\n      tag_168\n        /* \"#utility.yul\":1339:1344   */\n      dup2\n        /* \"#utility.yul\":1312:1345   */\n      tag_169\n      jump\t// in\n    tag_168:\n        /* \"#utility.yul\":1212:1351   */\n      swap3\n      swap2\n      pop\n      pop\n      jump\t// out\n        /* \"#utility.yul\":1357:1686   */\n    tag_17:\n        /* \"#utility.yul\":1416:1422   */\n      0x00\n        /* \"#utility.yul\":1465:1467   */\n      0x20\n        /* \"#utility.yul\":1453:1462   */\n      dup3\n        /* \"#utility.yul\":1444:1451   */\n      dup5\n        /* \"#utility.yul\":1440:1463   */\n      sub\n        /* \"#utility.yul\":1436:1468   */\n      slt\n        /* \"#utility.yul\":1433:1552   */\n      iszero\n      tag_171\n      jumpi\n        /* \"#utility.yul\":1471:1550   */\n      tag_172\n      tag_173\n      jump\t// in\n    tag_172:\n        /* \"#utility.yul\":1433:1552   */\n    tag_171:\n        /* \"#utility.yul\":1591:1592   */\n      0x00\n        /* \"#utility.yul\":1616:1669   */\n      tag_174\n        /* \"#utility.yul\":1661:1668   */\n      dup5\n        /* \"#utility.yul\":1652:1658   */\n      dup3\n        /* \"#utility.yul\":1641:1650   */\n      dup6\n        /* \"#utility.yul\":1637:1659   */\n      add\n        /* \"#utility.yul\":1616:1669   */\n      tag_149\n      jump\t// in\n    tag_174:\n        /* \"#utility.yul\":1606:1669   */\n      swap2\n      pop\n        /* \"#utility.yul\":1562:1679   */\n      pop\n        /* \"#utility.yul\":1357:1686   */\n      swap3\n      swap2\n      pop\n      pop\n      jump\t// out\n        /* \"#utility.yul\":1692:2817   */\n    tag_40:\n        /* \"#utility.yul\":1798:1804   */\n      0x00\n        /* \"#utility.yul\":1806:1812   */\n      dup1\n        /* \"#utility.yul\":1814:1820   */\n      0x00\n        /* \"#utility.yul\":1822:1828   */\n      dup1\n        /* \"#utility.yul\":1871:1874   */\n      0x80\n        /* \"#utility.yul\":1859:1868   */\n      dup6\n        /* \"#utility.yul\":1850:1857   */\n      dup8\n        /* \"#utility.yul\":1846:1869   */\n      sub\n        /* \"#utility.yul\":1842:1875   */\n      slt\n        /* \"#utility.yul\":1839:1959   */\n      iszero\n      tag_176\n      jumpi\n        /* \"#utility.yul\":1878:1957   */\n      tag_177\n      tag_173\n      jump\t// in\n    tag_177:\n        /* \"#utility.yul\":1839:1959   */\n    tag_176:\n        /* \"#utility.yul\":1998:1999   */\n      0x00\n        /* \"#utility.yul\":2023:2076   */\n      tag_178\n        /* \"#utility.yul\":2068:2075   */\n      dup8\n        /* \"#utility.yul\":2059:2065   */\n      dup3\n        /* \"#utility.yul\":2048:2057   */\n      dup9\n        /* \"#utility.yul\":2044:2066   */\n      add\n        /* \"#utility.yul\":2023:2076   */\n      tag_149\n      jump\t// in\n    tag_178:\n        /* \"#utility.yul\":2013:2076   */\n      swap5\n      pop\n        /* \"#utility.yul\":1969:2086   */\n      pop\n        /* \"#utility.yul\":2125:2127   */\n      0x20\n        /* \"#utility.yul\":2151:2204   */\n      tag_179\n        /* \"#utility.yul\":2196:2203   */\n      dup8\n        /* \"#utility.yul\":2187:2193   */\n      dup3\n        /* \"#utility.yul\":2176:2185   */\n      dup9\n        /* \"#utility.yul\":2172:2194   */\n      add\n        /* \"#utility.yul\":2151:2204   */\n      tag_149\n      jump\t// in\n    tag_179:\n        /* \"#utility.yul\":2141:2204   */\n      swap4\n      pop\n        /* \"#utility.yul\":2096:2214   */\n      pop\n        /* \"#utility.yul\":2281:2283   */\n      0x40\n        /* \"#utility.yul\":2270:2279   */\n      dup6\n        /* \"#utility.yul\":2266:2284   */\n      add\n        /* \"#utility.yul\":2253:2285   */\n      calldataload\n        /* \"#utility.yul\":2312:2330   */\n      0xffffffffffffffff\n        /* \"#utility.yul\":2304:2310   */\n      dup2\n        /* \"#utility.yul\":2301:2331   */\n      gt\n        /* \"#utility.yul\":2298:2415   */\n      iszero\n      tag_180\n      jumpi\n        /* \"#utility.yul\":2334:2413   */\n      tag_181\n      tag_182\n      jump\t// in\n    tag_181:\n        /* \"#utility.yul\":2298:2415   */\n    tag_180:\n        /* \"#utility.yul\":2439:2502   */\n      tag_183\n        /* \"#utility.yul\":2494:2501   */\n      dup8\n        /* \"#utility.yul\":2485:2491   */\n      dup3\n        /* \"#utility.yul\":2474:2483   */\n      dup9\n        /* \"#utility.yul\":2470:2492   */\n      add\n        /* \"#utility.yul\":2439:2502   */\n      tag_160\n      jump\t// in\n    tag_183:\n        /* \"#utility.yul\":2429:2502   */\n      swap3\n      pop\n        /* \"#utility.yul\":2224:2512   */\n      pop\n        /* \"#utility.yul\":2579:2581   */\n      0x60\n        /* \"#utility.yul\":2568:2577   */\n      dup6\n        /* \"#utility.yul\":2564:2582   */\n      add\n        /* \"#utility.yul\":2551:2583   */\n      calldataload\n        /* \"#utility.yul\":2610:2628   */\n      0xffffffffffffffff\n        /* \"#utility.yul\":2602:2608   */\n      dup2\n        /* \"#utility.yul\":2599:2629   */\n      gt\n        /* \"#utility.yul\":2596:2713   */\n      iszero\n      tag_184\n      jumpi\n        /* \"#utility.yul\":2632:2711   */\n      tag_185\n      tag_182\n      jump\t// in\n    tag_185:\n        /* \"#utility.yul\":2596:2713   */\n    tag_184:\n        /* \"#utility.yul\":2737:2800   */\n      tag_186\n        /* \"#utility.yul\":2792:2799   */\n      dup8\n        /* \"#utility.yul\":2783:2789   */\n      dup3\n        /* \"#utility.yul\":2772:2781   */\n      dup9\n        /* \"#utility.yul\":2768:2790   */\n      add\n        /* \"#utility.yul\":2737:2800   */\n      tag_160\n      jump\t// in\n    tag_186:\n        /* \"#utility.yul\":2727:2800   */\n      swap2\n      pop\n        /* \"#utility.yul\":2522:2810   */\n      pop\n        /* \"#utility.yul\":1692:2817   */\n      swap3\n      swap6\n      swap2\n      swap5\n      pop\n      swap3\n      pop\n      jump\t// out\n        /* \"#utility.yul\":2823:3291   */\n    tag_23:\n        /* \"#utility.yul\":2888:2894   */\n      0x00\n        /* \"#utility.yul\":2896:2902   */\n      dup1\n        /* \"#utility.yul\":2945:2947   */\n      0x40\n        /* \"#utility.yul\":2933:2942   */\n      dup4\n        /* \"#utility.yul\":2924:2931   */\n      dup6\n        /* \"#utility.yul\":2920:2943   */\n      sub\n        /* \"#utility.yul\":2916:2948   */\n      slt\n        /* \"#utility.yul\":2913:3032   */\n      iszero\n      tag_188\n      jumpi\n        /* \"#utility.yul\":2951:3030   */\n      tag_189\n      tag_173\n      jump\t// in\n    tag_189:\n        /* \"#utility.yul\":2913:3032   */\n    tag_188:\n        /* \"#utility.yul\":3071:3072   */\n      0x00\n        /* \"#utility.yul\":3096:3149   */\n      tag_190\n        /* \"#utility.yul\":3141:3148   */\n      dup6\n        /* \"#utility.yul\":3132:3138   */\n      dup3\n        /* \"#utility.yul\":3121:3130   */\n      dup7\n        /* \"#utility.yul\":3117:3139   */\n      add\n        /* \"#utility.yul\":3096:3149   */\n      tag_149\n      jump\t// in\n    tag_190:\n        /* \"#utility.yul\":3086:3149   */\n      swap3\n      pop\n        /* \"#utility.yul\":3042:3159   */\n      pop\n        /* \"#utility.yul\":3198:3200   */\n      0x20\n        /* \"#utility.yul\":3224:3274   */\n      tag_191\n        /* \"#utility.yul\":3266:3273   */\n      dup6\n        /* \"#utility.yul\":3257:3263   */\n      dup3\n        /* \"#utility.yul\":3246:3255   */\n      dup7\n        /* \"#utility.yul\":3242:3264   */\n      add\n        /* \"#utility.yul\":3224:3274   */\n      tag_153\n      jump\t// in\n    tag_191:\n        /* \"#utility.yul\":3214:3274   */\n      swap2\n      pop\n        /* \"#utility.yul\":3169:3284   */\n      pop\n        /* \"#utility.yul\":2823:3291   */\n      swap3\n      pop\n      swap3\n      swap1\n      pop\n      jump\t// out\n        /* \"#utility.yul\":3297:4276   */\n    tag_46:\n        /* \"#utility.yul\":3394:3400   */\n      0x00\n        /* \"#utility.yul\":3402:3408   */\n      dup1\n        /* \"#utility.yul\":3410:3416   */\n      0x00\n        /* \"#utility.yul\":3459:3461   */\n      0x60\n        /* \"#utility.yul\":3447:3456   */\n      dup5\n        /* \"#utility.yul\":3438:3445   */\n      dup7\n        /* \"#utility.yul\":3434:3457   */\n      sub\n        /* \"#utility.yul\":3430:3462   */\n      slt\n        /* \"#utility.yul\":3427:3546   */\n      iszero\n      tag_193\n      jumpi\n        /* \"#utility.yul\":3465:3544   */\n      tag_194\n      tag_173\n      jump\t// in\n    tag_194:\n        /* \"#utility.yul\":3427:3546   */\n    tag_193:\n        /* \"#utility.yul\":3585:3586   */\n      0x00\n        /* \"#utility.yul\":3610:3663   */\n      tag_195\n        /* \"#utility.yul\":3655:3662   */\n      dup7\n        /* \"#utility.yul\":3646:3652   */\n      dup3\n        /* \"#utility.yul\":3635:3644   */\n      dup8\n        /* \"#utility.yul\":3631:3653   */\n      add\n        /* \"#utility.yul\":3610:3663   */\n      tag_149\n      jump\t// in\n    tag_195:\n        /* \"#utility.yul\":3600:3663   */\n      swap4\n      pop\n        /* \"#utility.yul\":3556:3673   */\n      pop\n        /* \"#utility.yul\":3740:3742   */\n      0x20\n        /* \"#utility.yul\":3729:3738   */\n      dup5\n        /* \"#utility.yul\":3725:3743   */\n      add\n        /* \"#utility.yul\":3712:3744   */\n      calldataload\n        /* \"#utility.yul\":3771:3789   */\n      0xffffffffffffffff\n        /* \"#utility.yul\":3763:3769   */\n      dup2\n        /* \"#utility.yul\":3760:3790   */\n      gt\n        /* \"#utility.yul\":3757:3874   */\n      iszero\n      tag_196\n      jumpi\n        /* \"#utility.yul\":3793:3872   */\n      tag_197\n      tag_182\n      jump\t// in\n    tag_197:\n        /* \"#utility.yul\":3757:3874   */\n    tag_196:\n        /* \"#utility.yul\":3898:3961   */\n      tag_198\n        /* \"#utility.yul\":3953:3960   */\n      dup7\n        /* \"#utility.yul\":3944:3950   */\n      dup3\n        /* \"#utility.yul\":3933:3942   */\n      dup8\n        /* \"#utility.yul\":3929:3951   */\n      add\n        /* \"#utility.yul\":3898:3961   */\n      tag_160\n      jump\t// in\n    tag_198:\n        /* \"#utility.yul\":3888:3961   */\n      swap3\n      pop\n        /* \"#utility.yul\":3683:3971   */\n      pop\n        /* \"#utility.yul\":4038:4040   */\n      0x40\n        /* \"#utility.yul\":4027:4036   */\n      dup5\n        /* \"#utility.yul\":4023:4041   */\n      add\n        /* \"#utility.yul\":4010:4042   */\n      calldataload\n        /* \"#utility.yul\":4069:4087   */\n      0xffffffffffffffff\n        /* \"#utility.yul\":4061:4067   */\n      dup2\n        /* \"#utility.yul\":4058:4088   */\n      gt\n        /* \"#utility.yul\":4055:4172   */\n      iszero\n      tag_199\n      jumpi\n        /* \"#utility.yul\":4091:4170   */\n      tag_200\n      tag_182\n      jump\t// in\n    tag_200:\n        /* \"#utility.yul\":4055:4172   */\n    tag_199:\n        /* \"#utility.yul\":4196:4259   */\n      tag_201\n        /* \"#utility.yul\":4251:4258   */\n      dup7\n        /* \"#utility.yul\":4242:4248   */\n      dup3\n        /* \"#utility.yul\":4231:4240   */\n      dup8\n        /* \"#utility.yul\":4227:4249   */\n      add\n        /* \"#utility.yul\":4196:4259   */\n      tag_160\n      jump\t// in\n    tag_201:\n        /* \"#utility.yul\":4186:4259   */\n      swap2\n      pop\n        /* \"#utility.yul\":3981:4269   */\n      pop\n        /* \"#utility.yul\":3297:4276   */\n      swap3\n      pop\n      swap3\n      pop\n      swap3\n      jump\t// out\n        /* \"#utility.yul\":4282:5407   */\n    tag_29:\n        /* \"#utility.yul\":4388:4394   */\n      0x00\n        /* \"#utility.yul\":4396:4402   */\n      dup1\n        /* \"#utility.yul\":4404:4410   */\n      0x00\n        /* \"#utility.yul\":4412:4418   */\n      dup1\n        /* \"#utility.yul\":4461:4464   */\n      0x80\n        /* \"#utility.yul\":4449:4458   */\n      dup6\n        /* \"#utility.yul\":4440:4447   */\n      dup8\n        /* \"#utility.yul\":4436:4459   */\n      sub\n        /* \"#utility.yul\":4432:4465   */\n      slt\n        /* \"#utility.yul\":4429:4549   */\n      iszero\n      tag_203\n      jumpi\n        /* \"#utility.yul\":4468:4547   */\n      tag_204\n      tag_173\n      jump\t// in\n    tag_204:\n        /* \"#utility.yul\":4429:4549   */\n    tag_203:\n        /* \"#utility.yul\":4588:4589   */\n      0x00\n        /* \"#utility.yul\":4613:4666   */\n      tag_205\n        /* \"#utility.yul\":4658:4665   */\n      dup8\n        /* \"#utility.yul\":4649:4655   */\n      dup3\n        /* \"#utility.yul\":4638:4647   */\n      dup9\n        /* \"#utility.yul\":4634:4656   */\n      add\n        /* \"#utility.yul\":4613:4666   */\n      tag_149\n      jump\t// in\n    tag_205:\n        /* \"#utility.yul\":4603:4666   */\n      swap5\n      pop\n        /* \"#utility.yul\":4559:4676   */\n      pop\n        /* \"#utility.yul\":4743:4745   */\n      0x20\n        /* \"#utility.yul\":4732:4741   */\n      dup6\n        /* \"#utility.yul\":4728:4746   */\n      add\n        /* \"#utility.yul\":4715:4747   */\n      calldataload\n        /* \"#utility.yul\":4774:4792   */\n      0xffffffffffffffff\n        /* \"#utility.yul\":4766:4772   */\n      dup2\n        /* \"#utility.yul\":4763:4793   */\n      gt\n        /* \"#utility.yul\":4760:4877   */\n      iszero\n      tag_206\n      jumpi\n        /* \"#utility.yul\":4796:4875   */\n      tag_207\n      tag_182\n      jump\t// in\n    tag_207:\n        /* \"#utility.yul\":4760:4877   */\n    tag_206:\n        /* \"#utility.yul\":4901:4964   */\n      tag_208\n        /* \"#utility.yul\":4956:4963   */\n      dup8\n        /* \"#utility.yul\":4947:4953   */\n      dup3\n        /* \"#utility.yul\":4936:4945   */\n      dup9\n        /* \"#utility.yul\":4932:4954   */\n      add\n        /* \"#utility.yul\":4901:4964   */\n      tag_160\n      jump\t// in\n    tag_208:\n        /* \"#utility.yul\":4891:4964   */\n      swap4\n      pop\n        /* \"#utility.yul\":4686:4974   */\n      pop\n        /* \"#utility.yul\":5041:5043   */\n      0x40\n        /* \"#utility.yul\":5030:5039   */\n      dup6\n        /* \"#utility.yul\":5026:5044   */\n      add\n        /* \"#utility.yul\":5013:5045   */\n      calldataload\n        /* \"#utility.yul\":5072:5090   */\n      0xffffffffffffffff\n        /* \"#utility.yul\":5064:5070   */\n      dup2\n        /* \"#utility.yul\":5061:5091   */\n      gt\n        /* \"#utility.yul\":5058:5175   */\n      iszero\n      tag_209\n      jumpi\n        /* \"#utility.yul\":5094:5173   */\n      tag_210\n      tag_182\n      jump\t// in\n    tag_210:\n        /* \"#utility.yul\":5058:5175   */\n    tag_209:\n        /* \"#utility.yul\":5199:5262   */\n      tag_211\n        /* \"#utility.yul\":5254:5261   */\n      dup8\n        /* \"#utility.yul\":5245:5251   */\n      dup3\n        /* \"#utility.yul\":5234:5243   */\n      dup9\n        /* \"#utility.yul\":5230:5252   */\n      add\n        /* \"#utility.yul\":5199:5262   */\n      tag_160\n      jump\t// in\n    tag_211:\n        /* \"#utility.yul\":5189:5262   */\n      swap3\n      pop\n        /* \"#utility.yul\":4984:5272   */\n      pop\n        /* \"#utility.yul\":5311:5313   */\n      0x60\n        /* \"#utility.yul\":5337:5390   */\n      tag_212\n        /* \"#utility.yul\":5382:5389   */\n      dup8\n        /* \"#utility.yul\":5373:5379   */\n      dup3\n        /* \"#utility.yul\":5362:5371   */\n      dup9\n        /* \"#utility.yul\":5358:5380   */\n      add\n        /* \"#utility.yul\":5337:5390   */\n      tag_166\n      jump\t// in\n    tag_212:\n        /* \"#utility.yul\":5327:5390   */\n      swap2\n      pop\n        /* \"#utility.yul\":5282:5400   */\n      pop\n        /* \"#utility.yul\":4282:5407   */\n      swap3\n      swap6\n      swap2\n      swap5\n      pop\n      swap3\n      pop\n      jump\t// out\n        /* \"#utility.yul\":5413:5758   */\n    tag_85:\n        /* \"#utility.yul\":5480:5486   */\n      0x00\n        /* \"#utility.yul\":5529:5531   */\n      0x20\n        /* \"#utility.yul\":5517:5526   */\n      dup3\n        /* \"#utility.yul\":5508:5515   */\n      dup5\n        /* \"#utility.yul\":5504:5527   */\n      sub\n        /* \"#utility.yul\":5500:5532   */\n      slt\n        /* \"#utility.yul\":5497:5616   */\n      iszero\n      tag_214\n      jumpi\n        /* \"#utility.yul\":5535:5614   */\n      tag_215\n      tag_173\n      jump\t// in\n    tag_215:\n        /* \"#utility.yul\":5497:5616   */\n    tag_214:\n        /* \"#utility.yul\":5655:5656   */\n      0x00\n        /* \"#utility.yul\":5680:5741   */\n      tag_216\n        /* \"#utility.yul\":5733:5740   */\n      dup5\n        /* \"#utility.yul\":5724:5730   */\n      dup3\n        /* \"#utility.yul\":5713:5722   */\n      dup6\n        /* \"#utility.yul\":5709:5731   */\n      add\n        /* \"#utility.yul\":5680:5741   */\n      tag_157\n      jump\t// in\n    tag_216:\n        /* \"#utility.yul\":5670:5741   */\n      swap2\n      pop\n        /* \"#utility.yul\":5626:5751   */\n      pop\n        /* \"#utility.yul\":5413:5758   */\n      swap3\n      swap2\n      pop\n      pop\n      jump\t// out\n        /* \"#utility.yul\":5764:5882   */\n    tag_217:\n        /* \"#utility.yul\":5851:5875   */\n      tag_219\n        /* \"#utility.yul\":5869:5874   */\n      dup2\n        /* \"#utility.yul\":5851:5875   */\n      tag_220\n      jump\t// in\n    tag_219:\n        /* \"#utility.yul\":5846:5849   */\n      dup3\n        /* \"#utility.yul\":5839:5876   */\n      mstore\n        /* \"#utility.yul\":5764:5882   */\n      pop\n      pop\n      jump\t// out\n        /* \"#utility.yul\":5888:5997   */\n    tag_221:\n        /* \"#utility.yul\":5969:5990   */\n      tag_223\n        /* \"#utility.yul\":5984:5989   */\n      dup2\n        /* \"#utility.yul\":5969:5990   */\n      tag_224\n      jump\t// in\n    tag_223:\n        /* \"#utility.yul\":5964:5967   */\n      dup3\n        /* \"#utility.yul\":5957:5991   */\n      mstore\n        /* \"#utility.yul\":5888:5997   */\n      pop\n      pop\n      jump\t// out\n        /* \"#utility.yul\":6003:6162   */\n    tag_225:\n        /* \"#utility.yul\":6104:6155   */\n      tag_227\n        /* \"#utility.yul\":6149:6154   */\n      dup2\n        /* \"#utility.yul\":6104:6155   */\n      tag_228\n      jump\t// in\n    tag_227:\n        /* \"#utility.yul\":6099:6102   */\n      dup3\n        /* \"#utility.yul\":6092:6156   */\n      mstore\n        /* \"#utility.yul\":6003:6162   */\n      pop\n      pop\n      jump\t// out\n        /* \"#utility.yul\":6168:6545   */\n    tag_229:\n        /* \"#utility.yul\":6274:6277   */\n      0x00\n        /* \"#utility.yul\":6302:6341   */\n      tag_231\n        /* \"#utility.yul\":6335:6340   */\n      dup3\n        /* \"#utility.yul\":6302:6341   */\n      tag_232\n      jump\t// in\n    tag_231:\n        /* \"#utility.yul\":6357:6446   */\n      tag_233\n        /* \"#utility.yul\":6439:6445   */\n      dup2\n        /* \"#utility.yul\":6434:6437   */\n      dup6\n        /* \"#utility.yul\":6357:6446   */\n      tag_234\n      jump\t// in\n    tag_233:\n        /* \"#utility.yul\":6350:6446   */\n      swap4\n      pop\n        /* \"#utility.yul\":6455:6507   */\n      tag_235\n        /* \"#utility.yul\":6500:6506   */\n      dup2\n        /* \"#utility.yul\":6495:6498   */\n      dup6\n        /* \"#utility.yul\":6488:6492   */\n      0x20\n        /* \"#utility.yul\":6481:6486   */\n      dup7\n        /* \"#utility.yul\":6477:6493   */\n      add\n        /* \"#utility.yul\":6455:6507   */\n      tag_236\n      jump\t// in\n    tag_235:\n        /* \"#utility.yul\":6532:6538   */\n      dup1\n        /* \"#utility.yul\":6527:6530   */\n      dup5\n        /* \"#utility.yul\":6523:6539   */\n      add\n        /* \"#utility.yul\":6516:6539   */\n      swap2\n      pop\n        /* \"#utility.yul\":6278:6545   */\n      pop\n        /* \"#utility.yul\":6168:6545   */\n      swap3\n      swap2\n      pop\n      pop\n      jump\t// out\n        /* \"#utility.yul\":6551:6917   */\n    tag_237:\n        /* \"#utility.yul\":6693:6696   */\n      0x00\n        /* \"#utility.yul\":6714:6781   */\n      tag_239\n        /* \"#utility.yul\":6778:6780   */\n      0x26\n        /* \"#utility.yul\":6773:6776   */\n      dup4\n        /* \"#utility.yul\":6714:6781   */\n      tag_240\n      jump\t// in\n    tag_239:\n        /* \"#utility.yul\":6707:6781   */\n      swap2\n      pop\n        /* \"#utility.yul\":6790:6883   */\n      tag_241\n        /* \"#utility.yul\":6879:6882   */\n      dup3\n        /* \"#utility.yul\":6790:6883   */\n      tag_242\n      jump\t// in\n    tag_241:\n        /* \"#utility.yul\":6908:6910   */\n      0x40\n        /* \"#utility.yul\":6903:6906   */\n      dup3\n        /* \"#utility.yul\":6899:6911   */\n      add\n        /* \"#utility.yul\":6892:6911   */\n      swap1\n      pop\n        /* \"#utility.yul\":6551:6917   */\n      swap2\n      swap1\n      pop\n      jump\t// out\n        /* \"#utility.yul\":6923:7289   */\n    tag_243:\n        /* \"#utility.yul\":7065:7068   */\n      0x00\n        /* \"#utility.yul\":7086:7153   */\n      tag_245\n        /* \"#utility.yul\":7150:7152   */\n      0x1d\n        /* \"#utility.yul\":7145:7148   */\n      dup4\n        /* \"#utility.yul\":7086:7153   */\n      tag_240\n      jump\t// in\n    tag_245:\n        /* \"#utility.yul\":7079:7153   */\n      swap2\n      pop\n        /* \"#utility.yul\":7162:7255   */\n      tag_246\n        /* \"#utility.yul\":7251:7254   */\n      dup3\n        /* \"#utility.yul\":7162:7255   */\n      tag_247\n      jump\t// in\n    tag_246:\n        /* \"#utility.yul\":7280:7282   */\n      0x20\n        /* \"#utility.yul\":7275:7278   */\n      dup3\n        /* \"#utility.yul\":7271:7283   */\n      add\n        /* \"#utility.yul\":7264:7283   */\n      swap1\n      pop\n        /* \"#utility.yul\":6923:7289   */\n      swap2\n      swap1\n      pop\n      jump\t// out\n        /* \"#utility.yul\":7295:7661   */\n    tag_248:\n        /* \"#utility.yul\":7437:7440   */\n      0x00\n        /* \"#utility.yul\":7458:7525   */\n      tag_250\n        /* \"#utility.yul\":7522:7524   */\n      0x20\n        /* \"#utility.yul\":7517:7520   */\n      dup4\n        /* \"#utility.yul\":7458:7525   */\n      tag_240\n      jump\t// in\n    tag_250:\n        /* \"#utility.yul\":7451:7525   */\n      swap2\n      pop\n        /* \"#utility.yul\":7534:7627   */\n      tag_251\n        /* \"#utility.yul\":7623:7626   */\n      dup3\n        /* \"#utility.yul\":7534:7627   */\n      tag_252\n      jump\t// in\n    tag_251:\n        /* \"#utility.yul\":7652:7654   */\n      0x20\n        /* \"#utility.yul\":7647:7650   */\n      dup3\n        /* \"#utility.yul\":7643:7655   */\n      add\n        /* \"#utility.yul\":7636:7655   */\n      swap1\n      pop\n        /* \"#utility.yul\":7295:7661   */\n      swap2\n      swap1\n      pop\n      jump\t// out\n        /* \"#utility.yul\":7667:8033   */\n    tag_253:\n        /* \"#utility.yul\":7809:7812   */\n      0x00\n        /* \"#utility.yul\":7830:7897   */\n      tag_255\n        /* \"#utility.yul\":7894:7896   */\n      0x16\n        /* \"#utility.yul\":7889:7892   */\n      dup4\n        /* \"#utility.yul\":7830:7897   */\n      tag_240\n      jump\t// in\n    tag_255:\n        /* \"#utility.yul\":7823:7897   */\n      swap2\n      pop\n        /* \"#utility.yul\":7906:7999   */\n      tag_256\n        /* \"#utility.yul\":7995:7998   */\n      dup3\n        /* \"#utility.yul\":7906:7999   */\n      tag_257\n      jump\t// in\n    tag_256:\n        /* \"#utility.yul\":8024:8026   */\n      0x20\n        /* \"#utility.yul\":8019:8022   */\n      dup3\n        /* \"#utility.yul\":8015:8027   */\n      add\n        /* \"#utility.yul\":8008:8027   */\n      swap1\n      pop\n        /* \"#utility.yul\":7667:8033   */\n      swap2\n      swap1\n      pop\n      jump\t// out\n        /* \"#utility.yul\":8039:8405   */\n    tag_258:\n        /* \"#utility.yul\":8181:8184   */\n      0x00\n        /* \"#utility.yul\":8202:8269   */\n      tag_260\n        /* \"#utility.yul\":8266:8268   */\n      0x1c\n        /* \"#utility.yul\":8261:8264   */\n      dup4\n        /* \"#utility.yul\":8202:8269   */\n      tag_240\n      jump\t// in\n    tag_260:\n        /* \"#utility.yul\":8195:8269   */\n      swap2\n      pop\n        /* \"#utility.yul\":8278:8371   */\n      tag_261\n        /* \"#utility.yul\":8367:8370   */\n      dup3\n        /* \"#utility.yul\":8278:8371   */\n      tag_262\n      jump\t// in\n    tag_261:\n        /* \"#utility.yul\":8396:8398   */\n      0x20\n        /* \"#utility.yul\":8391:8394   */\n      dup3\n        /* \"#utility.yul\":8387:8399   */\n      add\n        /* \"#utility.yul\":8380:8399   */\n      swap1\n      pop\n        /* \"#utility.yul\":8039:8405   */\n      swap2\n      swap1\n      pop\n      jump\t// out\n        /* \"#utility.yul\":8411:8777   */\n    tag_263:\n        /* \"#utility.yul\":8553:8556   */\n      0x00\n        /* \"#utility.yul\":8574:8641   */\n      tag_265\n        /* \"#utility.yul\":8638:8640   */\n      0x14\n        /* \"#utility.yul\":8633:8636   */\n      dup4\n        /* \"#utility.yul\":8574:8641   */\n      tag_240\n      jump\t// in\n    tag_265:\n        /* \"#utility.yul\":8567:8641   */\n      swap2\n      pop\n        /* \"#utility.yul\":8650:8743   */\n      tag_266\n        /* \"#utility.yul\":8739:8742   */\n      dup3\n        /* \"#utility.yul\":8650:8743   */\n      tag_267\n      jump\t// in\n    tag_266:\n        /* \"#utility.yul\":8768:8770   */\n      0x20\n        /* \"#utility.yul\":8763:8766   */\n      dup3\n        /* \"#utility.yul\":8759:8771   */\n      add\n        /* \"#utility.yul\":8752:8771   */\n      swap1\n      pop\n        /* \"#utility.yul\":8411:8777   */\n      swap2\n      swap1\n      pop\n      jump\t// out\n        /* \"#utility.yul\":8783:9149   */\n    tag_268:\n        /* \"#utility.yul\":8925:8928   */\n      0x00\n        /* \"#utility.yul\":8946:9013   */\n      tag_270\n        /* \"#utility.yul\":9010:9012   */\n      0x1c\n        /* \"#utility.yul\":9005:9008   */\n      dup4\n        /* \"#utility.yul\":8946:9013   */\n      tag_240\n      jump\t// in\n    tag_270:\n        /* \"#utility.yul\":8939:9013   */\n      swap2\n      pop\n        /* \"#utility.yul\":9022:9115   */\n      tag_271\n        /* \"#utility.yul\":9111:9114   */\n      dup3\n        /* \"#utility.yul\":9022:9115   */\n      tag_272\n      jump\t// in\n    tag_271:\n        /* \"#utility.yul\":9140:9142   */\n      0x20\n        /* \"#utility.yul\":9135:9138   */\n      dup3\n        /* \"#utility.yul\":9131:9143   */\n      add\n        /* \"#utility.yul\":9124:9143   */\n      swap1\n      pop\n        /* \"#utility.yul\":8783:9149   */\n      swap2\n      swap1\n      pop\n      jump\t// out\n        /* \"#utility.yul\":9155:9273   */\n    tag_273:\n        /* \"#utility.yul\":9242:9266   */\n      tag_275\n        /* \"#utility.yul\":9260:9265   */\n      dup2\n        /* \"#utility.yul\":9242:9266   */\n      tag_276\n      jump\t// in\n    tag_275:\n        /* \"#utility.yul\":9237:9240   */\n      dup3\n        /* \"#utility.yul\":9230:9267   */\n      mstore\n        /* \"#utility.yul\":9155:9273   */\n      pop\n      pop\n      jump\t// out\n        /* \"#utility.yul\":9279:9554   */\n    tag_87:\n        /* \"#utility.yul\":9411:9414   */\n      0x00\n        /* \"#utility.yul\":9433:9528   */\n      tag_278\n        /* \"#utility.yul\":9524:9527   */\n      dup3\n        /* \"#utility.yul\":9515:9521   */\n      dup5\n        /* \"#utility.yul\":9433:9528   */\n      tag_229\n      jump\t// in\n    tag_278:\n        /* \"#utility.yul\":9426:9528   */\n      swap2\n      pop\n        /* \"#utility.yul\":9545:9548   */\n      dup2\n        /* \"#utility.yul\":9538:9548   */\n      swap1\n      pop\n        /* \"#utility.yul\":9279:9554   */\n      swap3\n      swap2\n      pop\n      pop\n      jump\t// out\n        /* \"#utility.yul\":9560:9782   */\n    tag_34:\n        /* \"#utility.yul\":9653:9657   */\n      0x00\n        /* \"#utility.yul\":9691:9693   */\n      0x20\n        /* \"#utility.yul\":9680:9689   */\n      dup3\n        /* \"#utility.yul\":9676:9694   */\n      add\n        /* \"#utility.yul\":9668:9694   */\n      swap1\n      pop\n        /* \"#utility.yul\":9704:9775   */\n      tag_280\n        /* \"#utility.yul\":9772:9773   */\n      0x00\n        /* \"#utility.yul\":9761:9770   */\n      dup4\n        /* \"#utility.yul\":9757:9774   */\n      add\n        /* \"#utility.yul\":9748:9754   */\n      dup5\n        /* \"#utility.yul\":9704:9775   */\n      tag_217\n      jump\t// in\n    tag_280:\n        /* \"#utility.yul\":9560:9782   */\n      swap3\n      swap2\n      pop\n      pop\n      jump\t// out\n        /* \"#utility.yul\":9788:10230   */\n    tag_80:\n        /* \"#utility.yul\":9937:9941   */\n      0x00\n        /* \"#utility.yul\":9975:9977   */\n      0x60\n        /* \"#utility.yul\":9964:9973   */\n      dup3\n        /* \"#utility.yul\":9960:9978   */\n      add\n        /* \"#utility.yul\":9952:9978   */\n      swap1\n      pop\n        /* \"#utility.yul\":9988:10059   */\n      tag_282\n        /* \"#utility.yul\":10056:10057   */\n      0x00\n        /* \"#utility.yul\":10045:10054   */\n      dup4\n        /* \"#utility.yul\":10041:10058   */\n      add\n        /* \"#utility.yul\":10032:10038   */\n      dup7\n        /* \"#utility.yul\":9988:10059   */\n      tag_217\n      jump\t// in\n    tag_282:\n        /* \"#utility.yul\":10069:10141   */\n      tag_283\n        /* \"#utility.yul\":10137:10139   */\n      0x20\n        /* \"#utility.yul\":10126:10135   */\n      dup4\n        /* \"#utility.yul\":10122:10140   */\n      add\n        /* \"#utility.yul\":10113:10119   */\n      dup6\n        /* \"#utility.yul\":10069:10141   */\n      tag_217\n      jump\t// in\n    tag_283:\n        /* \"#utility.yul\":10151:10223   */\n      tag_284\n        /* \"#utility.yul\":10219:10221   */\n      0x40\n        /* \"#utility.yul\":10208:10217   */\n      dup4\n        /* \"#utility.yul\":10204:10222   */\n      add\n        /* \"#utility.yul\":10195:10201   */\n      dup5\n        /* \"#utility.yul\":10151:10223   */\n      tag_273\n      jump\t// in\n    tag_284:\n        /* \"#utility.yul\":9788:10230   */\n      swap5\n      swap4\n      pop\n      pop\n      pop\n      pop\n      jump\t// out\n        /* \"#utility.yul\":10236:10446   */\n    tag_20:\n        /* \"#utility.yul\":10323:10327   */\n      0x00\n        /* \"#utility.yul\":10361:10363   */\n      0x20\n        /* \"#utility.yul\":10350:10359   */\n      dup3\n        /* \"#utility.yul\":10346:10364   */\n      add\n        /* \"#utility.yul\":10338:10364   */\n      swap1\n      pop\n        /* \"#utility.yul\":10374:10439   */\n      tag_286\n        /* \"#utility.yul\":10436:10437   */\n      0x00\n        /* \"#utility.yul\":10425:10434   */\n      dup4\n        /* \"#utility.yul\":10421:10438   */\n      add\n        /* \"#utility.yul\":10412:10418   */\n      dup5\n        /* \"#utility.yul\":10374:10439   */\n      tag_221\n      jump\t// in\n    tag_286:\n        /* \"#utility.yul\":10236:10446   */\n      swap3\n      swap2\n      pop\n      pop\n      jump\t// out\n        /* \"#utility.yul\":10452:10702   */\n    tag_59:\n        /* \"#utility.yul\":10559:10563   */\n      0x00\n        /* \"#utility.yul\":10597:10599   */\n      0x20\n        /* \"#utility.yul\":10586:10595   */\n      dup3\n        /* \"#utility.yul\":10582:10600   */\n      add\n        /* \"#utility.yul\":10574:10600   */\n      swap1\n      pop\n        /* \"#utility.yul\":10610:10695   */\n      tag_288\n        /* \"#utility.yul\":10692:10693   */\n      0x00\n        /* \"#utility.yul\":10681:10690   */\n      dup4\n        /* \"#utility.yul\":10677:10694   */\n      add\n        /* \"#utility.yul\":10668:10674   */\n      dup5\n        /* \"#utility.yul\":10610:10695   */\n      tag_225\n      jump\t// in\n    tag_288:\n        /* \"#utility.yul\":10452:10702   */\n      swap3\n      swap2\n      pop\n      pop\n      jump\t// out\n        /* \"#utility.yul\":10708:11127   */\n    tag_126:\n        /* \"#utility.yul\":10874:10878   */\n      0x00\n        /* \"#utility.yul\":10912:10914   */\n      0x20\n        /* \"#utility.yul\":10901:10910   */\n      dup3\n        /* \"#utility.yul\":10897:10915   */\n      add\n        /* \"#utility.yul\":10889:10915   */\n      swap1\n      pop\n        /* \"#utility.yul\":10961:10970   */\n      dup2\n        /* \"#utility.yul\":10955:10959   */\n      dup2\n        /* \"#utility.yul\":10951:10971   */\n      sub\n        /* \"#utility.yul\":10947:10948   */\n      0x00\n        /* \"#utility.yul\":10936:10945   */\n      dup4\n        /* \"#utility.yul\":10932:10949   */\n      add\n        /* \"#utility.yul\":10925:10972   */\n      mstore\n        /* \"#utility.yul\":10989:11120   */\n      tag_290\n        /* \"#utility.yul\":11115:11119   */\n      dup2\n        /* \"#utility.yul\":10989:11120   */\n      tag_237\n      jump\t// in\n    tag_290:\n        /* \"#utility.yul\":10981:11120   */\n      swap1\n      pop\n        /* \"#utility.yul\":10708:11127   */\n      swap2\n      swap1\n      pop\n      jump\t// out\n        /* \"#utility.yul\":11133:11552   */\n    tag_65:\n        /* \"#utility.yul\":11299:11303   */\n      0x00\n        /* \"#utility.yul\":11337:11339   */\n      0x20\n        /* \"#utility.yul\":11326:11335   */\n      dup3\n        /* \"#utility.yul\":11322:11340   */\n      add\n        /* \"#utility.yul\":11314:11340   */\n      swap1\n      pop\n        /* \"#utility.yul\":11386:11395   */\n      dup2\n        /* \"#utility.yul\":11380:11384   */\n      dup2\n        /* \"#utility.yul\":11376:11396   */\n      sub\n        /* \"#utility.yul\":11372:11373   */\n      0x00\n        /* \"#utility.yul\":11361:11370   */\n      dup4\n        /* \"#utility.yul\":11357:11374   */\n      add\n        /* \"#utility.yul\":11350:11397   */\n      mstore\n        /* \"#utility.yul\":11414:11545   */\n      tag_292\n        /* \"#utility.yul\":11540:11544   */\n      dup2\n        /* \"#utility.yul\":11414:11545   */\n      tag_243\n      jump\t// in\n    tag_292:\n        /* \"#utility.yul\":11406:11545   */\n      swap1\n      pop\n        /* \"#utility.yul\":11133:11552   */\n      swap2\n      swap1\n      pop\n      jump\t// out\n        /* \"#utility.yul\":11558:11977   */\n    tag_134:\n        /* \"#utility.yul\":11724:11728   */\n      0x00\n        /* \"#utility.yul\":11762:11764   */\n      0x20\n        /* \"#utility.yul\":11751:11760   */\n      dup3\n        /* \"#utility.yul\":11747:11765   */\n      add\n        /* \"#utility.yul\":11739:11765   */\n      swap1\n      pop\n        /* \"#utility.yul\":11811:11820   */\n      dup2\n        /* \"#utility.yul\":11805:11809   */\n      dup2\n        /* \"#utility.yul\":11801:11821   */\n      sub\n        /* \"#utility.yul\":11797:11798   */\n      0x00\n        /* \"#utility.yul\":11786:11795   */\n      dup4\n        /* \"#utility.yul\":11782:11799   */\n      add\n        /* \"#utility.yul\":11775:11822   */\n      mstore\n        /* \"#utility.yul\":11839:11970   */\n      tag_294\n        /* \"#utility.yul\":11965:11969   */\n      dup2\n        /* \"#utility.yul\":11839:11970   */\n      tag_248\n      jump\t// in\n    tag_294:\n        /* \"#utility.yul\":11831:11970   */\n      swap1\n      pop\n        /* \"#utility.yul\":11558:11977   */\n      swap2\n      swap1\n      pop\n      jump\t// out\n        /* \"#utility.yul\":11983:12402   */\n    tag_100:\n        /* \"#utility.yul\":12149:12153   */\n      0x00\n        /* \"#utility.yul\":12187:12189   */\n      0x20\n        /* \"#utility.yul\":12176:12185   */\n      dup3\n        /* \"#utility.yul\":12172:12190   */\n      add\n        /* \"#utility.yul\":12164:12190   */\n      swap1\n      pop\n        /* \"#utility.yul\":12236:12245   */\n      dup2\n        /* \"#utility.yul\":12230:12234   */\n      dup2\n        /* \"#utility.yul\":12226:12246   */\n      sub\n        /* \"#utility.yul\":12222:12223   */\n      0x00\n        /* \"#utility.yul\":12211:12220   */\n      dup4\n        /* \"#utility.yul\":12207:12224   */\n      add\n        /* \"#utility.yul\":12200:12247   */\n      mstore\n        /* \"#utility.yul\":12264:12395   */\n      tag_296\n        /* \"#utility.yul\":12390:12394   */\n      dup2\n        /* \"#utility.yul\":12264:12395   */\n      tag_253\n      jump\t// in\n    tag_296:\n        /* \"#utility.yul\":12256:12395   */\n      swap1\n      pop\n        /* \"#utility.yul\":11983:12402   */\n      swap2\n      swap1\n      pop\n      jump\t// out\n        /* \"#utility.yul\":12408:12827   */\n    tag_105:\n        /* \"#utility.yul\":12574:12578   */\n      0x00\n        /* \"#utility.yul\":12612:12614   */\n      0x20\n        /* \"#utility.yul\":12601:12610   */\n      dup3\n        /* \"#utility.yul\":12597:12615   */\n      add\n        /* \"#utility.yul\":12589:12615   */\n      swap1\n      pop\n        /* \"#utility.yul\":12661:12670   */\n      dup2\n        /* \"#utility.yul\":12655:12659   */\n      dup2\n        /* \"#utility.yul\":12651:12671   */\n      sub\n        /* \"#utility.yul\":12647:12648   */\n      0x00\n        /* \"#utility.yul\":12636:12645   */\n      dup4\n        /* \"#utility.yul\":12632:12649   */\n      add\n        /* \"#utility.yul\":12625:12672   */\n      mstore\n        /* \"#utility.yul\":12689:12820   */\n      tag_298\n        /* \"#utility.yul\":12815:12819   */\n      dup2\n        /* \"#utility.yul\":12689:12820   */\n      tag_258\n      jump\t// in\n    tag_298:\n        /* \"#utility.yul\":12681:12820   */\n      swap1\n      pop\n        /* \"#utility.yul\":12408:12827   */\n      swap2\n      swap1\n      pop\n      jump\t// out\n        /* \"#utility.yul\":12833:13252   */\n    tag_75:\n        /* \"#utility.yul\":12999:13003   */\n      0x00\n        /* \"#utility.yul\":13037:13039   */\n      0x20\n        /* \"#utility.yul\":13026:13035   */\n      dup3\n        /* \"#utility.yul\":13022:13040   */\n      add\n        /* \"#utility.yul\":13014:13040   */\n      swap1\n      pop\n        /* \"#utility.yul\":13086:13095   */\n      dup2\n        /* \"#utility.yul\":13080:13084   */\n      dup2\n        /* \"#utility.yul\":13076:13096   */\n      sub\n        /* \"#utility.yul\":13072:13073   */\n      0x00\n        /* \"#utility.yul\":13061:13070   */\n      dup4\n        /* \"#utility.yul\":13057:13074   */\n      add\n        /* \"#utility.yul\":13050:13097   */\n      mstore\n        /* \"#utility.yul\":13114:13245   */\n      tag_300\n        /* \"#utility.yul\":13240:13244   */\n      dup2\n        /* \"#utility.yul\":13114:13245   */\n      tag_263\n      jump\t// in\n    tag_300:\n        /* \"#utility.yul\":13106:13245   */\n      swap1\n      pop\n        /* \"#utility.yul\":12833:13252   */\n      swap2\n      swap1\n      pop\n      jump\t// out\n        /* \"#utility.yul\":13258:13677   */\n    tag_78:\n        /* \"#utility.yul\":13424:13428   */\n      0x00\n        /* \"#utility.yul\":13462:13464   */\n      0x20\n        /* \"#utility.yul\":13451:13460   */\n      dup3\n        /* \"#utility.yul\":13447:13465   */\n      add\n        /* \"#utility.yul\":13439:13465   */\n      swap1\n      pop\n        /* \"#utility.yul\":13511:13520   */\n      dup2\n        /* \"#utility.yul\":13505:13509   */\n      dup2\n        /* \"#utility.yul\":13501:13521   */\n      sub\n        /* \"#utility.yul\":13497:13498   */\n      0x00\n        /* \"#utility.yul\":13486:13495   */\n      dup4\n        /* \"#utility.yul\":13482:13499   */\n      add\n        /* \"#utility.yul\":13475:13522   */\n      mstore\n        /* \"#utility.yul\":13539:13670   */\n      tag_302\n        /* \"#utility.yul\":13665:13669   */\n      dup2\n        /* \"#utility.yul\":13539:13670   */\n      tag_268\n      jump\t// in\n    tag_302:\n        /* \"#utility.yul\":13531:13670   */\n      swap1\n      pop\n        /* \"#utility.yul\":13258:13677   */\n      swap2\n      swap1\n      pop\n      jump\t// out\n        /* \"#utility.yul\":13683:13905   */\n    tag_43:\n        /* \"#utility.yul\":13776:13780   */\n      0x00\n        /* \"#utility.yul\":13814:13816   */\n      0x20\n        /* \"#utility.yul\":13803:13812   */\n      dup3\n        /* \"#utility.yul\":13799:13817   */\n      add\n        /* \"#utility.yul\":13791:13817   */\n      swap1\n      pop\n        /* \"#utility.yul\":13827:13898   */\n      tag_304\n        /* \"#utility.yul\":13895:13896   */\n      0x00\n        /* \"#utility.yul\":13884:13893   */\n      dup4\n        /* \"#utility.yul\":13880:13897   */\n      add\n        /* \"#utility.yul\":13871:13877   */\n      dup5\n        /* \"#utility.yul\":13827:13898   */\n      tag_273\n      jump\t// in\n    tag_304:\n        /* \"#utility.yul\":13683:13905   */\n      swap3\n      swap2\n      pop\n      pop\n      jump\t// out\n        /* \"#utility.yul\":13911:14040   */\n    tag_143:\n        /* \"#utility.yul\":13945:13951   */\n      0x00\n        /* \"#utility.yul\":13972:13992   */\n      tag_306\n      tag_307\n      jump\t// in\n    tag_306:\n        /* \"#utility.yul\":13962:13992   */\n      swap1\n      pop\n        /* \"#utility.yul\":14001:14034   */\n      tag_308\n        /* \"#utility.yul\":14029:14033   */\n      dup3\n        /* \"#utility.yul\":14021:14027   */\n      dup3\n        /* \"#utility.yul\":14001:14034   */\n      tag_309\n      jump\t// in\n    tag_308:\n        /* \"#utility.yul\":13911:14040   */\n      swap2\n      swap1\n      pop\n      jump\t// out\n        /* \"#utility.yul\":14046:14121   */\n    tag_307:\n        /* \"#utility.yul\":14079:14085   */\n      0x00\n        /* \"#utility.yul\":14112:14114   */\n      0x40\n        /* \"#utility.yul\":14106:14115   */\n      mload\n        /* \"#utility.yul\":14096:14115   */\n      swap1\n      pop\n        /* \"#utility.yul\":14046:14121   */\n      swap1\n      jump\t// out\n        /* \"#utility.yul\":14127:14435   */\n    tag_142:\n        /* \"#utility.yul\":14189:14193   */\n      0x00\n        /* \"#utility.yul\":14279:14297   */\n      0xffffffffffffffff\n        /* \"#utility.yul\":14271:14277   */\n      dup3\n        /* \"#utility.yul\":14268:14298   */\n      gt\n        /* \"#utility.yul\":14265:14321   */\n      iszero\n      tag_312\n      jumpi\n        /* \"#utility.yul\":14301:14319   */\n      tag_313\n      tag_314\n      jump\t// in\n    tag_313:\n        /* \"#utility.yul\":14265:14321   */\n    tag_312:\n        /* \"#utility.yul\":14339:14368   */\n      tag_315\n        /* \"#utility.yul\":14361:14367   */\n      dup3\n        /* \"#utility.yul\":14339:14368   */\n      tag_316\n      jump\t// in\n    tag_315:\n        /* \"#utility.yul\":14331:14368   */\n      swap1\n      pop\n        /* \"#utility.yul\":14423:14427   */\n      0x20\n        /* \"#utility.yul\":14417:14421   */\n      dup2\n        /* \"#utility.yul\":14413:14428   */\n      add\n        /* \"#utility.yul\":14405:14428   */\n      swap1\n      pop\n        /* \"#utility.yul\":14127:14435   */\n      swap2\n      swap1\n      pop\n      jump\t// out\n        /* \"#utility.yul\":14441:14540   */\n    tag_232:\n        /* \"#utility.yul\":14493:14499   */\n      0x00\n        /* \"#utility.yul\":14527:14532   */\n      dup2\n        /* \"#utility.yul\":14521:14533   */\n      mload\n        /* \"#utility.yul\":14511:14533   */\n      swap1\n      pop\n        /* \"#utility.yul\":14441:14540   */\n      swap2\n      swap1\n      pop\n      jump\t// out\n        /* \"#utility.yul\":14546:14715   */\n    tag_240:\n        /* \"#utility.yul\":14630:14641   */\n      0x00\n        /* \"#utility.yul\":14664:14670   */\n      dup3\n        /* \"#utility.yul\":14659:14662   */\n      dup3\n        /* \"#utility.yul\":14652:14671   */\n      mstore\n        /* \"#utility.yul\":14704:14708   */\n      0x20\n        /* \"#utility.yul\":14699:14702   */\n      dup3\n        /* \"#utility.yul\":14695:14709   */\n      add\n        /* \"#utility.yul\":14680:14709   */\n      swap1\n      pop\n        /* \"#utility.yul\":14546:14715   */\n      swap3\n      swap2\n      pop\n      pop\n      jump\t// out\n        /* \"#utility.yul\":14721:14869   */\n    tag_234:\n        /* \"#utility.yul\":14823:14834   */\n      0x00\n        /* \"#utility.yul\":14860:14863   */\n      dup2\n        /* \"#utility.yul\":14845:14863   */\n      swap1\n      pop\n        /* \"#utility.yul\":14721:14869   */\n      swap3\n      swap2\n      pop\n      pop\n      jump\t// out\n        /* \"#utility.yul\":14875:15180   */\n    tag_90:\n        /* \"#utility.yul\":14915:14918   */\n      0x00\n        /* \"#utility.yul\":14934:14954   */\n      tag_321\n        /* \"#utility.yul\":14952:14953   */\n      dup3\n        /* \"#utility.yul\":14934:14954   */\n      tag_276\n      jump\t// in\n    tag_321:\n        /* \"#utility.yul\":14929:14954   */\n      swap2\n      pop\n        /* \"#utility.yul\":14968:14988   */\n      tag_322\n        /* \"#utility.yul\":14986:14987   */\n      dup4\n        /* \"#utility.yul\":14968:14988   */\n      tag_276\n      jump\t// in\n    tag_322:\n        /* \"#utility.yul\":14963:14988   */\n      swap3\n      pop\n        /* \"#utility.yul\":15122:15123   */\n      dup3\n        /* \"#utility.yul\":15054:15120   */\n      0xffffffffffffffffffffffffffffffffffffffffffffffffffffffffffffffff\n        /* \"#utility.yul\":15050:15124   */\n      sub\n        /* \"#utility.yul\":15047:15048   */\n      dup3\n        /* \"#utility.yul\":15044:15125   */\n      gt\n        /* \"#utility.yul\":15041:15148   */\n      iszero\n      tag_323\n      jumpi\n        /* \"#utility.yul\":15128:15146   */\n      tag_324\n      tag_325\n      jump\t// in\n    tag_324:\n        /* \"#utility.yul\":15041:15148   */\n    tag_323:\n        /* \"#utility.yul\":15172:15173   */\n      dup3\n        /* \"#utility.yul\":15169:15170   */\n      dup3\n        /* \"#utility.yul\":15165:15174   */\n      add\n        /* \"#utility.yul\":15158:15174   */\n      swap1\n      pop\n        /* \"#utility.yul\":14875:15180   */\n      swap3\n      swap2\n      pop\n      pop\n      jump\t// out\n        /* \"#utility.yul\":15186:15377   */\n    tag_114:\n        /* \"#utility.yul\":15226:15230   */\n      0x00\n        /* \"#utility.yul\":15246:15266   */\n      tag_327\n        /* \"#utility.yul\":15264:15265   */\n      dup3\n        /* \"#utility.yul\":15246:15266   */\n      tag_276\n      jump\t// in\n    tag_327:\n        /* \"#utility.yul\":15241:15266   */\n      swap2\n      pop\n        /* \"#utility.yul\":15280:15300   */\n      tag_328\n        /* \"#utility.yul\":15298:15299   */\n      dup4\n        /* \"#utility.yul\":15280:15300   */\n      tag_276\n      jump\t// in\n    tag_328:\n        /* \"#utility.yul\":15275:15300   */\n      swap3\n      pop\n        /* \"#utility.yul\":15319:15320   */\n      dup3\n        /* \"#utility.yul\":15316:15317   */\n      dup3\n        /* \"#utility.yul\":15313:15321   */\n      lt\n        /* \"#utility.yul\":15310:15344   */\n      iszero\n      tag_329\n      jumpi\n        /* \"#utility.yul\":15324:15342   */\n      tag_330\n      tag_325\n      jump\t// in\n    tag_330:\n        /* \"#utility.yul\":15310:15344   */\n    tag_329:\n        /* \"#utility.yul\":15369:15370   */\n      dup3\n        /* \"#utility.yul\":15366:15367   */\n      dup3\n        /* \"#utility.yul\":15362:15371   */\n      sub\n        /* \"#utility.yul\":15354:15371   */\n      swap1\n      pop\n        /* \"#utility.yul\":15186:15377   */\n      swap3\n      swap2\n      pop\n      pop\n      jump\t// out\n        /* \"#utility.yul\":15383:15479   */\n    tag_220:\n        /* \"#utility.yul\":15420:15427   */\n      0x00\n        /* \"#utility.yul\":15449:15473   */\n      tag_332\n        /* \"#utility.yul\":15467:15472   */\n      dup3\n        /* \"#utility.yul\":15449:15473   */\n      tag_333\n      jump\t// in\n    tag_332:\n        /* \"#utility.yul\":15438:15473   */\n      swap1\n      pop\n        /* \"#utility.yul\":15383:15479   */\n      swap2\n      swap1\n      pop\n      jump\t// out\n        /* \"#utility.yul\":15485:15575   */\n    tag_224:\n        /* \"#utility.yul\":15519:15526   */\n      0x00\n        /* \"#utility.yul\":15562:15567   */\n      dup2\n        /* \"#utility.yul\":15555:15568   */\n      iszero\n        /* \"#utility.yul\":15548:15569   */\n      iszero\n        /* \"#utility.yul\":15537:15569   */\n      swap1\n      pop\n        /* \"#utility.yul\":15485:15575   */\n      swap2\n      swap1\n      pop\n      jump\t// out\n        /* \"#utility.yul\":15581:15707   */\n    tag_333:\n        /* \"#utility.yul\":15618:15625   */\n      0x00\n        /* \"#utility.yul\":15658:15700   */\n      0xffffffffffffffffffffffffffffffffffffffff\n        /* \"#utility.yul\":15651:15656   */\n      dup3\n        /* \"#utility.yul\":15647:15701   */\n      and\n        /* \"#utility.yul\":15636:15701   */\n      swap1\n      pop\n        /* \"#utility.yul\":15581:15707   */\n      swap2\n      swap1\n      pop\n      jump\t// out\n        /* \"#utility.yul\":15713:15790   */\n    tag_276:\n        /* \"#utility.yul\":15750:15757   */\n      0x00\n        /* \"#utility.yul\":15779:15784   */\n      dup2\n        /* \"#utility.yul\":15768:15784   */\n      swap1\n      pop\n        /* \"#utility.yul\":15713:15790   */\n      swap2\n      swap1\n      pop\n      jump\t// out\n        /* \"#utility.yul\":15796:15936   */\n    tag_228:\n        /* \"#utility.yul\":15860:15869   */\n      0x00\n        /* \"#utility.yul\":15893:15930   */\n      tag_338\n        /* \"#utility.yul\":15924:15929   */\n      dup3\n        /* \"#utility.yul\":15893:15930   */\n      tag_339\n      jump\t// in\n    tag_338:\n        /* \"#utility.yul\":15880:15930   */\n      swap1\n      pop\n        /* \"#utility.yul\":15796:15936   */\n      swap2\n      swap1\n      pop\n      jump\t// out\n        /* \"#utility.yul\":15942:16068   */\n    tag_339:\n        /* \"#utility.yul\":15992:16001   */\n      0x00\n        /* \"#utility.yul\":16025:16062   */\n      tag_341\n        /* \"#utility.yul\":16056:16061   */\n      dup3\n        /* \"#utility.yul\":16025:16062   */\n      tag_342\n      jump\t// in\n    tag_341:\n        /* \"#utility.yul\":16012:16062   */\n      swap1\n      pop\n        /* \"#utility.yul\":15942:16068   */\n      swap2\n      swap1\n      pop\n      jump\t// out\n        /* \"#utility.yul\":16074:16187   */\n    tag_342:\n        /* \"#utility.yul\":16124:16133   */\n      0x00\n        /* \"#utility.yul\":16157:16181   */\n      tag_344\n        /* \"#utility.yul\":16175:16180   */\n      dup3\n        /* \"#utility.yul\":16157:16181   */\n      tag_333\n      jump\t// in\n    tag_344:\n        /* \"#utility.yul\":16144:16181   */\n      swap1\n      pop\n        /* \"#utility.yul\":16074:16187   */\n      swap2\n      swap1\n      pop\n      jump\t// out\n        /* \"#utility.yul\":16193:16347   */\n    tag_148:\n        /* \"#utility.yul\":16277:16283   */\n      dup3\n        /* \"#utility.yul\":16272:16275   */\n      dup2\n        /* \"#utility.yul\":16267:16270   */\n      dup4\n        /* \"#utility.yul\":16254:16284   */\n      calldatacopy\n        /* \"#utility.yul\":16339:16340   */\n      0x00\n        /* \"#utility.yul\":16330:16336   */\n      dup4\n        /* \"#utility.yul\":16325:16328   */\n      dup4\n        /* \"#utility.yul\":16321:16337   */\n      add\n        /* \"#utility.yul\":16314:16341   */\n      mstore\n        /* \"#utility.yul\":16193:16347   */\n      pop\n      pop\n      pop\n      jump\t// out\n        /* \"#utility.yul\":16353:16660   */\n    tag_236:\n        /* \"#utility.yul\":16421:16422   */\n      0x00\n        /* \"#utility.yul\":16431:16544   */\n    tag_347:\n        /* \"#utility.yul\":16445:16451   */\n      dup4\n        /* \"#utility.yul\":16442:16443   */\n      dup2\n        /* \"#utility.yul\":16439:16452   */\n      lt\n        /* \"#utility.yul\":16431:16544   */\n      iszero\n      tag_349\n      jumpi\n        /* \"#utility.yul\":16530:16531   */\n      dup1\n        /* \"#utility.yul\":16525:16528   */\n      dup3\n        /* \"#utility.yul\":16521:16532   */\n      add\n        /* \"#utility.yul\":16515:16533   */\n      mload\n        /* \"#utility.yul\":16511:16512   */\n      dup2\n        /* \"#utility.yul\":16506:16509   */\n      dup5\n        /* \"#utility.yul\":16502:16513   */\n      add\n        /* \"#utility.yul\":16495:16534   */\n      mstore\n        /* \"#utility.yul\":16467:16469   */\n      0x20\n        /* \"#utility.yul\":16464:16465   */\n      dup2\n        /* \"#utility.yul\":16460:16470   */\n      add\n        /* \"#utility.yul\":16455:16470   */\n      swap1\n      pop\n        /* \"#utility.yul\":16431:16544   */\n      jump(tag_347)\n    tag_349:\n        /* \"#utility.yul\":16562:16568   */\n      dup4\n        /* \"#utility.yul\":16559:16560   */\n      dup2\n        /* \"#utility.yul\":16556:16569   */\n      gt\n        /* \"#utility.yul\":16553:16654   */\n      iszero\n      tag_350\n      jumpi\n        /* \"#utility.yul\":16642:16643   */\n      0x00\n        /* \"#utility.yul\":16633:16639   */\n      dup5\n        /* \"#utility.yul\":16628:16631   */\n      dup5\n        /* \"#utility.yul\":16624:16640   */\n      add\n        /* \"#utility.yul\":16617:16644   */\n      mstore\n        /* \"#utility.yul\":16553:16654   */\n    tag_350:\n        /* \"#utility.yul\":16402:16660   */\n      pop\n        /* \"#utility.yul\":16353:16660   */\n      pop\n      pop\n      pop\n      jump\t// out\n        /* \"#utility.yul\":16666:16947   */\n    tag_309:\n        /* \"#utility.yul\":16749:16776   */\n      tag_352\n        /* \"#utility.yul\":16771:16775   */\n      dup3\n        /* \"#utility.yul\":16749:16776   */\n      tag_316\n      jump\t// in\n    tag_352:\n        /* \"#utility.yul\":16741:16747   */\n      dup2\n        /* \"#utility.yul\":16737:16777   */\n      add\n        /* \"#utility.yul\":16879:16885   */\n      dup2\n        /* \"#utility.yul\":16867:16877   */\n      dup2\n        /* \"#utility.yul\":16864:16886   */\n      lt\n        /* \"#utility.yul\":16843:16861   */\n      0xffffffffffffffff\n        /* \"#utility.yul\":16831:16841   */\n      dup3\n        /* \"#utility.yul\":16828:16862   */\n      gt\n        /* \"#utility.yul\":16825:16887   */\n      or\n        /* \"#utility.yul\":16822:16910   */\n      iszero\n      tag_353\n      jumpi\n        /* \"#utility.yul\":16890:16908   */\n      tag_354\n      tag_314\n      jump\t// in\n    tag_354:\n        /* \"#utility.yul\":16822:16910   */\n    tag_353:\n        /* \"#utility.yul\":16930:16940   */\n      dup1\n        /* \"#utility.yul\":16926:16928   */\n      0x40\n        /* \"#utility.yul\":16919:16941   */\n      mstore\n        /* \"#utility.yul\":16709:16947   */\n      pop\n        /* \"#utility.yul\":16666:16947   */\n      pop\n      pop\n      jump\t// out\n        /* \"#utility.yul\":16953:17133   */\n    tag_325:\n        /* \"#utility.yul\":17001:17078   */\n      0x4e487b7100000000000000000000000000000000000000000000000000000000\n        /* \"#utility.yul\":16998:16999   */\n      0x00\n        /* \"#utility.yul\":16991:17079   */\n      mstore\n        /* \"#utility.yul\":17098:17102   */\n      0x11\n        /* \"#utility.yul\":17095:17096   */\n      0x04\n        /* \"#utility.yul\":17088:17103   */\n      mstore\n        /* \"#utility.yul\":17122:17126   */\n      0x24\n        /* \"#utility.yul\":17119:17120   */\n      0x00\n        /* \"#utility.yul\":17112:17127   */\n      revert\n        /* \"#utility.yul\":17139:17319   */\n    tag_314:\n        /* \"#utility.yul\":17187:17264   */\n      0x4e487b7100000000000000000000000000000000000000000000000000000000\n        /* \"#utility.yul\":17184:17185   */\n      0x00\n        /* \"#utility.yul\":17177:17265   */\n      mstore\n        /* \"#utility.yul\":17284:17288   */\n      0x41\n        /* \"#utility.yul\":17281:17282   */\n      0x04\n        /* \"#utility.yul\":17274:17289   */\n      mstore\n        /* \"#utility.yul\":17308:17312   */\n      0x24\n        /* \"#utility.yul\":17305:17306   */\n      0x00\n        /* \"#utility.yul\":17298:17313   */\n      revert\n        /* \"#utility.yul\":17325:17442   */\n    tag_164:\n        /* \"#utility.yul\":17434:17435   */\n      0x00\n        /* \"#utility.yul\":17431:17432   */\n      dup1\n        /* \"#utility.yul\":17424:17436   */\n      revert\n        /* \"#utility.yul\":17448:17565   */\n    tag_146:\n        /* \"#utility.yul\":17557:17558   */\n      0x00\n        /* \"#utility.yul\":17554:17555   */\n      dup1\n        /* \"#utility.yul\":17547:17559   */\n      revert\n        /* \"#utility.yul\":17571:17688   */\n    tag_182:\n        /* \"#utility.yul\":17680:17681   */\n      0x00\n        /* \"#utility.yul\":17677:17678   */\n      dup1\n        /* \"#utility.yul\":17670:17682   */\n      revert\n        /* \"#utility.yul\":17694:17811   */\n    tag_173:\n        /* \"#utility.yul\":17803:17804   */\n      0x00\n        /* \"#utility.yul\":17800:17801   */\n      dup1\n        /* \"#utility.yul\":17793:17805   */\n      revert\n        /* \"#utility.yul\":17817:17919   */\n    tag_316:\n        /* \"#utility.yul\":17858:17864   */\n      0x00\n        /* \"#utility.yul\":17909:17911   */\n      0x1f\n        /* \"#utility.yul\":17905:17912   */\n      not\n        /* \"#utility.yul\":17900:17902   */\n      0x1f\n        /* \"#utility.yul\":17893:17898   */\n      dup4\n        /* \"#utility.yul\":17889:17903   */\n      add\n        /* \"#utility.yul\":17885:17913   */\n      and\n        /* \"#utility.yul\":17875:17913   */\n      swap1\n      pop\n        /* \"#utility.yul\":17817:17919   */\n      swap2\n      swap1\n      pop\n      jump\t// out\n        /* \"#utility.yul\":17925:18150   */\n    tag_242:\n        /* \"#utility.yul\":18065:18099   */\n      0x4f776e61626c653a206e6577206f776e657220697320746865207a65726f2061\n        /* \"#utility.yul\":18061:18062   */\n      0x00\n        /* \"#utility.yul\":18053:18059   */\n      dup3\n        /* \"#utility.yul\":18049:18063   */\n      add\n        /* \"#utility.yul\":18042:18100   */\n      mstore\n        /* \"#utility.yul\":18134:18142   */\n      0x6464726573730000000000000000000000000000000000000000000000000000\n        /* \"#utility.yul\":18129:18131   */\n      0x20\n        /* \"#utility.yul\":18121:18127   */\n      dup3\n        /* \"#utility.yul\":18117:18132   */\n      add\n        /* \"#utility.yul\":18110:18143   */\n      mstore\n        /* \"#utility.yul\":17925:18150   */\n      pop\n      jump\t// out\n        /* \"#utility.yul\":18156:18335   */\n    tag_247:\n        /* \"#utility.yul\":18296:18327   */\n      0x596f752063616e206f6e6c792073657420666f7220796f757273656c66000000\n        /* \"#utility.yul\":18292:18293   */\n      0x00\n        /* \"#utility.yul\":18284:18290   */\n      dup3\n        /* \"#utility.yul\":18280:18294   */\n      add\n        /* \"#utility.yul\":18273:18328   */\n      mstore\n        /* \"#utility.yul\":18156:18335   */\n      pop\n      jump\t// out\n        /* \"#utility.yul\":18341:18523   */\n    tag_252:\n        /* \"#utility.yul\":18481:18515   */\n      0x4f776e61626c653a2063616c6c6572206973206e6f7420746865206f776e6572\n        /* \"#utility.yul\":18477:18478   */\n      0x00\n        /* \"#utility.yul\":18469:18475   */\n      dup3\n        /* \"#utility.yul\":18465:18479   */\n      add\n        /* \"#utility.yul\":18458:18516   */\n      mstore\n        /* \"#utility.yul\":18341:18523   */\n      pop\n      jump\t// out\n        /* \"#utility.yul\":18529:18701   */\n    tag_257:\n        /* \"#utility.yul\":18669:18693   */\n      0x416d6f756e7420457863656564732042616c616e636500000000000000000000\n        /* \"#utility.yul\":18665:18666   */\n      0x00\n        /* \"#utility.yul\":18657:18663   */\n      dup3\n        /* \"#utility.yul\":18653:18667   */\n      add\n        /* \"#utility.yul\":18646:18694   */\n      mstore\n        /* \"#utility.yul\":18529:18701   */\n      pop\n      jump\t// out\n        /* \"#utility.yul\":18707:18885   */\n    tag_262:\n        /* \"#utility.yul\":18847:18877   */\n      0x416d6f756e74204578636565647320546f74616c2042616c616e636500000000\n        /* \"#utility.yul\":18843:18844   */\n      0x00\n        /* \"#utility.yul\":18835:18841   */\n      dup3\n        /* \"#utility.yul\":18831:18845   */\n      add\n        /* \"#utility.yul\":18824:18878   */\n      mstore\n        /* \"#utility.yul\":18707:18885   */\n      pop\n      jump\t// out\n        /* \"#utility.yul\":18891:19061   */\n    tag_267:\n        /* \"#utility.yul\":19031:19053   */\n      0x5261772044617461206e6f742073746f72656421000000000000000000000000\n        /* \"#utility.yul\":19027:19028   */\n      0x00\n        /* \"#utility.yul\":19019:19025   */\n      dup3\n        /* \"#utility.yul\":19015:19029   */\n      add\n        /* \"#utility.yul\":19008:19054   */\n      mstore\n        /* \"#utility.yul\":18891:19061   */\n      pop\n      jump\t// out\n        /* \"#utility.yul\":19067:19245   */\n    tag_272:\n        /* \"#utility.yul\":19207:19237   */\n      0x56616c7565206d7573742062652067726561746f72207468616e203000000000\n        /* \"#utility.yul\":19203:19204   */\n      0x00\n        /* \"#utility.yul\":19195:19201   */\n      dup3\n        /* \"#utility.yul\":19191:19205   */\n      add\n        /* \"#utility.yul\":19184:19238   */\n      mstore\n        /* \"#utility.yul\":19067:19245   */\n      pop\n      jump\t// out\n        /* \"#utility.yul\":19251:19373   */\n    tag_152:\n        /* \"#utility.yul\":19324:19348   */\n      tag_370\n        /* \"#utility.yul\":19342:19347   */\n      dup2\n        /* \"#utility.yul\":19324:19348   */\n      tag_220\n      jump\t// in\n    tag_370:\n        /* \"#utility.yul\":19317:19322   */\n      dup2\n        /* \"#utility.yul\":19314:19349   */\n      eq\n        /* \"#utility.yul\":19304:19367   */\n      tag_371\n      jumpi\n        /* \"#utility.yul\":19363:19364   */\n      0x00\n        /* \"#utility.yul\":19360:19361   */\n      dup1\n        /* \"#utility.yul\":19353:19365   */\n      revert\n        /* \"#utility.yul\":19304:19367   */\n    tag_371:\n        /* \"#utility.yul\":19251:19373   */\n      pop\n      jump\t// out\n        /* \"#utility.yul\":19379:19495   */\n    tag_156:\n        /* \"#utility.yul\":19449:19470   */\n      tag_373\n        /* \"#utility.yul\":19464:19469   */\n      dup2\n        /* \"#utility.yul\":19449:19470   */\n      tag_224\n      jump\t// in\n    tag_373:\n        /* \"#utility.yul\":19442:19447   */\n      dup2\n        /* \"#utility.yul\":19439:19471   */\n      eq\n        /* \"#utility.yul\":19429:19489   */\n      tag_374\n      jumpi\n        /* \"#utility.yul\":19485:19486   */\n      0x00\n        /* \"#utility.yul\":19482:19483   */\n      dup1\n        /* \"#utility.yul\":19475:19487   */\n      revert\n        /* \"#utility.yul\":19429:19489   */\n    tag_374:\n        /* \"#utility.yul\":19379:19495   */\n      pop\n      jump\t// out\n        /* \"#utility.yul\":19501:19623   */\n    tag_169:\n        /* \"#utility.yul\":19574:19598   */\n      tag_376\n        /* \"#utility.yul\":19592:19597   */\n      dup2\n        /* \"#utility.yul\":19574:19598   */\n      tag_276\n      jump\t// in\n    tag_376:\n        /* \"#utility.yul\":19567:19572   */\n      dup2\n        /* \"#utility.yul\":19564:19599   */\n      eq\n        /* \"#utility.yul\":19554:19617   */\n      tag_377\n      jumpi\n        /* \"#utility.yul\":19613:19614   */\n      0x00\n        /* \"#utility.yul\":19610:19611   */\n      dup1\n        /* \"#utility.yul\":19603:19615   */\n      revert\n        /* \"#utility.yul\":19554:19617   */\n    tag_377:\n        /* \"#utility.yul\":19501:19623   */\n      pop\n      jump\t// out\n\n    auxdata: 0xa2646970667358221220c6ae323c1117d04d5eff5e26d143a6d3e9f188f84f9097bff061521c97e38ea164736f6c63430008070033\n}\n",
				"bytecode": {
					"linkReferences": {},
					"object": "60806040523480156200001157600080fd5b50604051620019f9380380620019f9833981810160405281019062000037919062000182565b620000576200004b6200009f60201b60201c565b620000a760201b60201c565b80600460006101000a81548173ffffffffffffffffffffffffffffffffffffffff021916908373ffffffffffffffffffffffffffffffffffffffff160217905550506200021b565b600033905090565b60008060009054906101000a900473ffffffffffffffffffffffffffffffffffffffff169050816000806101000a81548173ffffffffffffffffffffffffffffffffffffffff021916908373ffffffffffffffffffffffffffffffffffffffff1602179055508173ffffffffffffffffffffffffffffffffffffffff168173ffffffffffffffffffffffffffffffffffffffff167f8be0079c531659141344cd1fd0a4f28419497f9722a3daafe3b4186f6b6457e060405160405180910390a35050565b6000815190506200017c8162000201565b92915050565b6000602082840312156200019b576200019a620001fc565b5b6000620001ab848285016200016b565b91505092915050565b6000620001c182620001dc565b9050919050565b6000620001d582620001b4565b9050919050565b600073ffffffffffffffffffffffffffffffffffffffff82169050919050565b600080fd5b6200020c81620001c8565b81146200021857600080fd5b50565b6117ce806200022b6000396000f3fe608060405234801561001057600080fd5b50600436106100a95760003560e01c806394728f571161007157806394728f571461013e5780639cc6f67d1461015a578063de7f6b9e1461018a578063e6d56846146101ba578063f2fde38b146101ea578063fc0c546a14610206576100a9565b80630c3a9008146100ae5780631a00e037146100de578063715018a6146100fa5780637c360c94146101045780638da5cb5b14610120575b600080fd5b6100c860048036038101906100c39190610e34565b610224565b6040516100d59190611262565b60405180910390f35b6100f860048036038101906100f39190610f00565b610244565b005b61010261034a565b005b61011e60048036038101906101199190610fcb565b61035e565b005b610128610645565b6040516101359190611210565b60405180910390f35b61015860048036038101906101539190610fcb565b61066e565b005b610174600480360381019061016f9190610e61565b610a30565b6040516101819190611378565b60405180910390f35b6101a4600480360381019061019f9190610f40565b610a9b565b6040516101b19190611378565b60405180910390f35b6101d460048036038101906101cf9190610f40565b610af9565b6040516101e19190611378565b60405180910390f35b61020460048036038101906101ff9190610e34565b610b7c565b005b61020e610c00565b60405161021b919061127d565b60405180910390f35b60036020528060005260406000206000915054906101000a900460ff1681565b61024c610645565b73ffffffffffffffffffffffffffffffffffffffff163373ffffffffffffffffffffffffffffffffffffffff1614806102b057508173ffffffffffffffffffffffffffffffffffffffff163373ffffffffffffffffffffffffffffffffffffffff16145b6102ef576040517f08c379a00000000000000000000000000000000000000000000000000000000081526004016102e6906112b8565b60405180910390fd5b80600360008473ffffffffffffffffffffffffffffffffffffffff1673ffffffffffffffffffffffffffffffffffffffff16815260200190815260200160002060006101000a81548160ff0219169083151502179055505050565b610352610c26565b61035c6000610ca4565b565b60011515600360008673ffffffffffffffffffffffffffffffffffffffff1673ffffffffffffffffffffffffffffffffffffffff16815260200190815260200160002060009054906101000a900460ff161515146103f1576040517f08c379a00000000000000000000000000000000000000000000000000000000081526004016103e890611338565b60405180910390fd5b60008111610434576040517f08c379a000000000000000000000000000000000000000000000000000000000815260040161042b90611358565b60405180910390fd5b600460009054906101000a900473ffffffffffffffffffffffffffffffffffffffff1673ffffffffffffffffffffffffffffffffffffffff166323b872dd3330846040518463ffffffff1660e01b81526004016104939392919061122b565b602060405180830381600087803b1580156104ad57600080fd5b505af11580156104c1573d6000803e3d6000fd5b505050506040513d601f19601f820116820180604052508101906104e5919061106a565b5080600160008673ffffffffffffffffffffffffffffffffffffffff1673ffffffffffffffffffffffffffffffffffffffff1681526020019081526020016000208460405161053491906111f9565b90815260200160405180910390208360405161055091906111f9565b9081526020016040518091039020600082825461056d9190611410565b9250508190555080600260003373ffffffffffffffffffffffffffffffffffffffff1673ffffffffffffffffffffffffffffffffffffffff16815260200190815260200160002060008673ffffffffffffffffffffffffffffffffffffffff1673ffffffffffffffffffffffffffffffffffffffff168152602001908152602001600020846040516105ff91906111f9565b90815260200160405180910390208360405161061b91906111f9565b908152602001604051809103902060008282546106389190611410565b9250508190555050505050565b60008060009054906101000a900473ffffffffffffffffffffffffffffffffffffffff16905090565b80600260003373ffffffffffffffffffffffffffffffffffffffff1673ffffffffffffffffffffffffffffffffffffffff16815260200190815260200160002060008673ffffffffffffffffffffffffffffffffffffffff1673ffffffffffffffffffffffffffffffffffffffff168152602001908152602001600020846040516106f991906111f9565b90815260200160405180910390208360405161071591906111f9565b9081526020016040518091039020541015610765576040517f08c379a000000000000000000000000000000000000000000000000000000000815260040161075c906112f8565b60405180910390fd5b80600160008673ffffffffffffffffffffffffffffffffffffffff1673ffffffffffffffffffffffffffffffffffffffff168152602001908152602001600020846040516107b391906111f9565b9081526020016040518091039020836040516107cf91906111f9565b908152602001604051809103902054101561081f576040517f08c379a000000000000000000000000000000000000000000000000000000000815260040161081690611318565b60405180910390fd5b600460009054906101000a900473ffffffffffffffffffffffffffffffffffffffff1673ffffffffffffffffffffffffffffffffffffffff166323b872dd3033846040518463ffffffff1660e01b815260040161087e9392919061122b565b602060405180830381600087803b15801561089857600080fd5b505af11580156108ac573d6000803e3d6000fd5b505050506040513d601f19601f820116820180604052508101906108d0919061106a565b5080600160008673ffffffffffffffffffffffffffffffffffffffff1673ffffffffffffffffffffffffffffffffffffffff1681526020019081526020016000208460405161091f91906111f9565b90815260200160405180910390208360405161093b91906111f9565b908152602001604051809103902060008282546109589190611466565b9250508190555080600260003373ffffffffffffffffffffffffffffffffffffffff1673ffffffffffffffffffffffffffffffffffffffff16815260200190815260200160002060008673ffffffffffffffffffffffffffffffffffffffff1673ffffffffffffffffffffffffffffffffffffffff168152602001908152602001600020846040516109ea91906111f9565b908152602001604051809103902083604051610a0691906111f9565b90815260200160405180910390206000828254610a239190611466565b9250508190555050505050565b600260205283600052604060002060205282600052604060002082805160208101820180518482526020830160208501208183528095505050505050818051602081018201805184825260208301602085012081835280955050505050506000935093505050505481565b6001602052826000526040600020828051602081018201805184825260208301602085012081835280955050505050508180516020810182018051848252602083016020850120818352809550505050505060009250925050505481565b6000600160008573ffffffffffffffffffffffffffffffffffffffff1673ffffffffffffffffffffffffffffffffffffffff16815260200190815260200160002083604051610b4891906111f9565b908152602001604051809103902082604051610b6491906111f9565b90815260200160405180910390205490509392505050565b610b84610c26565b600073ffffffffffffffffffffffffffffffffffffffff168173ffffffffffffffffffffffffffffffffffffffff161415610bf4576040517f08c379a0000000000000000000000000000000000000000000000000000000008152600401610beb90611298565b60405180910390fd5b610bfd81610ca4565b50565b600460009054906101000a900473ffffffffffffffffffffffffffffffffffffffff1681565b610c2e610d68565b73ffffffffffffffffffffffffffffffffffffffff16610c4c610645565b73ffffffffffffffffffffffffffffffffffffffff1614610ca2576040517f08c379a0000000000000000000000000000000000000000000000000000000008152600401610c99906112d8565b60405180910390fd5b565b60008060009054906101000a900473ffffffffffffffffffffffffffffffffffffffff169050816000806101000a81548173ffffffffffffffffffffffffffffffffffffffff021916908373ffffffffffffffffffffffffffffffffffffffff1602179055508173ffffffffffffffffffffffffffffffffffffffff168173ffffffffffffffffffffffffffffffffffffffff167f8be0079c531659141344cd1fd0a4f28419497f9722a3daafe3b4186f6b6457e060405160405180910390a35050565b600033905090565b6000610d83610d7e846113b8565b611393565b905082815260208101848484011115610d9f57610d9e6115ee565b5b610daa848285611518565b509392505050565b600081359050610dc181611753565b92915050565b600081359050610dd68161176a565b92915050565b600081519050610deb8161176a565b92915050565b600082601f830112610e0657610e056115e9565b5b8135610e16848260208601610d70565b91505092915050565b600081359050610e2e81611781565b92915050565b600060208284031215610e4a57610e496115f8565b5b6000610e5884828501610db2565b91505092915050565b60008060008060808587031215610e7b57610e7a6115f8565b5b6000610e8987828801610db2565b9450506020610e9a87828801610db2565b935050604085013567ffffffffffffffff811115610ebb57610eba6115f3565b5b610ec787828801610df1565b925050606085013567ffffffffffffffff811115610ee857610ee76115f3565b5b610ef487828801610df1565b91505092959194509250565b60008060408385031215610f1757610f166115f8565b5b6000610f2585828601610db2565b9250506020610f3685828601610dc7565b9150509250929050565b600080600060608486031215610f5957610f586115f8565b5b6000610f6786828701610db2565b935050602084013567ffffffffffffffff811115610f8857610f876115f3565b5b610f9486828701610df1565b925050604084013567ffffffffffffffff811115610fb557610fb46115f3565b5b610fc186828701610df1565b9150509250925092565b60008060008060808587031215610fe557610fe46115f8565b5b6000610ff387828801610db2565b945050602085013567ffffffffffffffff811115611014576110136115f3565b5b61102087828801610df1565b935050604085013567ffffffffffffffff811115611041576110406115f3565b5b61104d87828801610df1565b925050606061105e87828801610e1f565b91505092959194509250565b6000602082840312156110805761107f6115f8565b5b600061108e84828501610ddc565b91505092915050565b6110a08161149a565b82525050565b6110af816114ac565b82525050565b6110be816114e2565b82525050565b60006110cf826113e9565b6110d98185611405565b93506110e9818560208601611527565b80840191505092915050565b60006111026026836113f4565b915061110d8261160e565b604082019050919050565b6000611125601d836113f4565b91506111308261165d565b602082019050919050565b60006111486020836113f4565b915061115382611686565b602082019050919050565b600061116b6016836113f4565b9150611176826116af565b602082019050919050565b600061118e601c836113f4565b9150611199826116d8565b602082019050919050565b60006111b16014836113f4565b91506111bc82611701565b602082019050919050565b60006111d4601c836113f4565b91506111df8261172a565b602082019050919050565b6111f3816114d8565b82525050565b600061120582846110c4565b915081905092915050565b60006020820190506112256000830184611097565b92915050565b60006060820190506112406000830186611097565b61124d6020830185611097565b61125a60408301846111ea565b949350505050565b600060208201905061127760008301846110a6565b92915050565b600060208201905061129260008301846110b5565b92915050565b600060208201905081810360008301526112b1816110f5565b9050919050565b600060208201905081810360008301526112d181611118565b9050919050565b600060208201905081810360008301526112f18161113b565b9050919050565b600060208201905081810360008301526113118161115e565b9050919050565b6000602082019050818103600083015261133181611181565b9050919050565b60006020820190508181036000830152611351816111a4565b9050919050565b60006020820190508181036000830152611371816111c7565b9050919050565b600060208201905061138d60008301846111ea565b92915050565b600061139d6113ae565b90506113a9828261155a565b919050565b6000604051905090565b600067ffffffffffffffff8211156113d3576113d26115ba565b5b6113dc826115fd565b9050602081019050919050565b600081519050919050565b600082825260208201905092915050565b600081905092915050565b600061141b826114d8565b9150611426836114d8565b9250827fffffffffffffffffffffffffffffffffffffffffffffffffffffffffffffffff0382111561145b5761145a61158b565b5b828201905092915050565b6000611471826114d8565b915061147c836114d8565b92508282101561148f5761148e61158b565b5b828203905092915050565b60006114a5826114b8565b9050919050565b60008115159050919050565b600073ffffffffffffffffffffffffffffffffffffffff82169050919050565b6000819050919050565b60006114ed826114f4565b9050919050565b60006114ff82611506565b9050919050565b6000611511826114b8565b9050919050565b82818337600083830152505050565b60005b8381101561154557808201518184015260208101905061152a565b83811115611554576000848401525b50505050565b611563826115fd565b810181811067ffffffffffffffff82111715611582576115816115ba565b5b80604052505050565b7f4e487b7100000000000000000000000000000000000000000000000000000000600052601160045260246000fd5b7f4e487b7100000000000000000000000000000000000000000000000000000000600052604160045260246000fd5b600080fd5b600080fd5b600080fd5b600080fd5b6000601f19601f8301169050919050565b7f4f776e61626c653a206e6577206f776e657220697320746865207a65726f206160008201527f6464726573730000000000000000000000000000000000000000000000000000602082015250565b7f596f752063616e206f6e6c792073657420666f7220796f757273656c66000000600082015250565b7f4f776e61626c653a2063616c6c6572206973206e6f7420746865206f776e6572600082015250565b7f416d6f756e7420457863656564732042616c616e636500000000000000000000600082015250565b7f416d6f756e74204578636565647320546f74616c2042616c616e636500000000600082015250565b7f5261772044617461206e6f742073746f72656421000000000000000000000000600082015250565b7f56616c7565206d7573742062652067726561746f72207468616e203000000000600082015250565b61175c8161149a565b811461176757600080fd5b50565b611773816114ac565b811461177e57600080fd5b50565b61178a816114d8565b811461179557600080fd5b5056fea2646970667358221220c6ae323c1117d04d5eff5e26d143a6d3e9f188f84f9097bff061521c97e38ea164736f6c63430008070033",
					"opcodes": "PUSH1 0x80 PUSH1 0x40 MSTORE CALLVALUE DUP1 ISZERO PUSH3 0x11 JUMPI PUSH1 0x0 DUP1 REVERT JUMPDEST POP PUSH1 0x40 MLOAD PUSH3 0x19F9 CODESIZE SUB DUP1 PUSH3 0x19F9 DUP4 CODECOPY DUP2 DUP2 ADD PUSH1 0x40 MSTORE DUP2 ADD SWAP1 PUSH3 0x37 SWAP2 SWAP1 PUSH3 0x182 JUMP JUMPDEST PUSH3 0x57 PUSH3 0x4B PUSH3 0x9F PUSH1 0x20 SHL PUSH1 0x20 SHR JUMP JUMPDEST PUSH3 0xA7 PUSH1 0x20 SHL PUSH1 0x20 SHR JUMP JUMPDEST DUP1 PUSH1 0x4 PUSH1 0x0 PUSH2 0x100 EXP DUP2 SLOAD DUP2 PUSH20 0xFFFFFFFFFFFFFFFFFFFFFFFFFFFFFFFFFFFFFFFF MUL NOT AND SWAP1 DUP4 PUSH20 0xFFFFFFFFFFFFFFFFFFFFFFFFFFFFFFFFFFFFFFFF AND MUL OR SWAP1 SSTORE POP POP PUSH3 0x21B JUMP JUMPDEST PUSH1 0x0 CALLER SWAP1 POP SWAP1 JUMP JUMPDEST PUSH1 0x0 DUP1 PUSH1 0x0 SWAP1 SLOAD SWAP1 PUSH2 0x100 EXP SWAP1 DIV PUSH20 0xFFFFFFFFFFFFFFFFFFFFFFFFFFFFFFFFFFFFFFFF AND SWAP1 POP DUP2 PUSH1 0x0 DUP1 PUSH2 0x100 EXP DUP2 SLOAD DUP2 PUSH20 0xFFFFFFFFFFFFFFFFFFFFFFFFFFFFFFFFFFFFFFFF MUL NOT AND SWAP1 DUP4 PUSH20 0xFFFFFFFFFFFFFFFFFFFFFFFFFFFFFFFFFFFFFFFF AND MUL OR SWAP1 SSTORE POP DUP2 PUSH20 0xFFFFFFFFFFFFFFFFFFFFFFFFFFFFFFFFFFFFFFFF AND DUP2 PUSH20 0xFFFFFFFFFFFFFFFFFFFFFFFFFFFFFFFFFFFFFFFF AND PUSH32 0x8BE0079C531659141344CD1FD0A4F28419497F9722A3DAAFE3B4186F6B6457E0 PUSH1 0x40 MLOAD PUSH1 0x40 MLOAD DUP1 SWAP2 SUB SWAP1 LOG3 POP POP JUMP JUMPDEST PUSH1 0x0 DUP2 MLOAD SWAP1 POP PUSH3 0x17C DUP2 PUSH3 0x201 JUMP JUMPDEST SWAP3 SWAP2 POP POP JUMP JUMPDEST PUSH1 0x0 PUSH1 0x20 DUP3 DUP5 SUB SLT ISZERO PUSH3 0x19B JUMPI PUSH3 0x19A PUSH3 0x1FC JUMP JUMPDEST JUMPDEST PUSH1 0x0 PUSH3 0x1AB DUP5 DUP3 DUP6 ADD PUSH3 0x16B JUMP JUMPDEST SWAP2 POP POP SWAP3 SWAP2 POP POP JUMP JUMPDEST PUSH1 0x0 PUSH3 0x1C1 DUP3 PUSH3 0x1DC JUMP JUMPDEST SWAP1 POP SWAP2 SWAP1 POP JUMP JUMPDEST PUSH1 0x0 PUSH3 0x1D5 DUP3 PUSH3 0x1B4 JUMP JUMPDEST SWAP1 POP SWAP2 SWAP1 POP JUMP JUMPDEST PUSH1 0x0 PUSH20 0xFFFFFFFFFFFFFFFFFFFFFFFFFFFFFFFFFFFFFFFF DUP3 AND SWAP1 POP SWAP2 SWAP1 POP JUMP JUMPDEST PUSH1 0x0 DUP1 REVERT JUMPDEST PUSH3 0x20C DUP2 PUSH3 0x1C8 JUMP JUMPDEST DUP2 EQ PUSH3 0x218 JUMPI PUSH1 0x0 DUP1 REVERT JUMPDEST POP JUMP JUMPDEST PUSH2 0x17CE DUP1 PUSH3 0x22B PUSH1 0x0 CODECOPY PUSH1 0x0 RETURN INVALID PUSH1 0x80 PUSH1 0x40 MSTORE CALLVALUE DUP1 ISZERO PUSH2 0x10 JUMPI PUSH1 0x0 DUP1 REVERT JUMPDEST POP PUSH1 0x4 CALLDATASIZE LT PUSH2 0xA9 JUMPI PUSH1 0x0 CALLDATALOAD PUSH1 0xE0 SHR DUP1 PUSH4 0x94728F57 GT PUSH2 0x71 JUMPI DUP1 PUSH4 0x94728F57 EQ PUSH2 0x13E JUMPI DUP1 PUSH4 0x9CC6F67D EQ PUSH2 0x15A JUMPI DUP1 PUSH4 0xDE7F6B9E EQ PUSH2 0x18A JUMPI DUP1 PUSH4 0xE6D56846 EQ PUSH2 0x1BA JUMPI DUP1 PUSH4 0xF2FDE38B EQ PUSH2 0x1EA JUMPI DUP1 PUSH4 0xFC0C546A EQ PUSH2 0x206 JUMPI PUSH2 0xA9 JUMP JUMPDEST DUP1 PUSH4 0xC3A9008 EQ PUSH2 0xAE JUMPI DUP1 PUSH4 0x1A00E037 EQ PUSH2 0xDE JUMPI DUP1 PUSH4 0x715018A6 EQ PUSH2 0xFA JUMPI DUP1 PUSH4 0x7C360C94 EQ PUSH2 0x104 JUMPI DUP1 PUSH4 0x8DA5CB5B EQ PUSH2 0x120 JUMPI JUMPDEST PUSH1 0x0 DUP1 REVERT JUMPDEST PUSH2 0xC8 PUSH1 0x4 DUP1 CALLDATASIZE SUB DUP2 ADD SWAP1 PUSH2 0xC3 SWAP2 SWAP1 PUSH2 0xE34 JUMP JUMPDEST PUSH2 0x224 JUMP JUMPDEST PUSH1 0x40 MLOAD PUSH2 0xD5 SWAP2 SWAP1 PUSH2 0x1262 JUMP JUMPDEST PUSH1 0x40 MLOAD DUP1 SWAP2 SUB SWAP1 RETURN JUMPDEST PUSH2 0xF8 PUSH1 0x4 DUP1 CALLDATASIZE SUB DUP2 ADD SWAP1 PUSH2 0xF3 SWAP2 SWAP1 PUSH2 0xF00 JUMP JUMPDEST PUSH2 0x244 JUMP JUMPDEST STOP JUMPDEST PUSH2 0x102 PUSH2 0x34A JUMP JUMPDEST STOP JUMPDEST PUSH2 0x11E PUSH1 0x4 DUP1 CALLDATASIZE SUB DUP2 ADD SWAP1 PUSH2 0x119 SWAP2 SWAP1 PUSH2 0xFCB JUMP JUMPDEST PUSH2 0x35E JUMP JUMPDEST STOP JUMPDEST PUSH2 0x128 PUSH2 0x645 JUMP JUMPDEST PUSH1 0x40 MLOAD PUSH2 0x135 SWAP2 SWAP1 PUSH2 0x1210 JUMP JUMPDEST PUSH1 0x40 MLOAD DUP1 SWAP2 SUB SWAP1 RETURN JUMPDEST PUSH2 0x158 PUSH1 0x4 DUP1 CALLDATASIZE SUB DUP2 ADD SWAP1 PUSH2 0x153 SWAP2 SWAP1 PUSH2 0xFCB JUMP JUMPDEST PUSH2 0x66E JUMP JUMPDEST STOP JUMPDEST PUSH2 0x174 PUSH1 0x4 DUP1 CALLDATASIZE SUB DUP2 ADD SWAP1 PUSH2 0x16F SWAP2 SWAP1 PUSH2 0xE61 JUMP JUMPDEST PUSH2 0xA30 JUMP JUMPDEST PUSH1 0x40 MLOAD PUSH2 0x181 SWAP2 SWAP1 PUSH2 0x1378 JUMP JUMPDEST PUSH1 0x40 MLOAD DUP1 SWAP2 SUB SWAP1 RETURN JUMPDEST PUSH2 0x1A4 PUSH1 0x4 DUP1 CALLDATASIZE SUB DUP2 ADD SWAP1 PUSH2 0x19F SWAP2 SWAP1 PUSH2 0xF40 JUMP JUMPDEST PUSH2 0xA9B JUMP JUMPDEST PUSH1 0x40 MLOAD PUSH2 0x1B1 SWAP2 SWAP1 PUSH2 0x1378 JUMP JUMPDEST PUSH1 0x40 MLOAD DUP1 SWAP2 SUB SWAP1 RETURN JUMPDEST PUSH2 0x1D4 PUSH1 0x4 DUP1 CALLDATASIZE SUB DUP2 ADD SWAP1 PUSH2 0x1CF SWAP2 SWAP1 PUSH2 0xF40 JUMP JUMPDEST PUSH2 0xAF9 JUMP JUMPDEST PUSH1 0x40 MLOAD PUSH2 0x1E1 SWAP2 SWAP1 PUSH2 0x1378 JUMP JUMPDEST PUSH1 0x40 MLOAD DUP1 SWAP2 SUB SWAP1 RETURN JUMPDEST PUSH2 0x204 PUSH1 0x4 DUP1 CALLDATASIZE SUB DUP2 ADD SWAP1 PUSH2 0x1FF SWAP2 SWAP1 PUSH2 0xE34 JUMP JUMPDEST PUSH2 0xB7C JUMP JUMPDEST STOP JUMPDEST PUSH2 0x20E PUSH2 0xC00 JUMP JUMPDEST PUSH1 0x40 MLOAD PUSH2 0x21B SWAP2 SWAP1 PUSH2 0x127D JUMP JUMPDEST PUSH1 0x40 MLOAD DUP1 SWAP2 SUB SWAP1 RETURN JUMPDEST PUSH1 0x3 PUSH1 0x20 MSTORE DUP1 PUSH1 0x0 MSTORE PUSH1 0x40 PUSH1 0x0 KECCAK256 PUSH1 0x0 SWAP2 POP SLOAD SWAP1 PUSH2 0x100 EXP SWAP1 DIV PUSH1 0xFF AND DUP2 JUMP JUMPDEST PUSH2 0x24C PUSH2 0x645 JUMP JUMPDEST PUSH20 0xFFFFFFFFFFFFFFFFFFFFFFFFFFFFFFFFFFFFFFFF AND CALLER PUSH20 0xFFFFFFFFFFFFFFFFFFFFFFFFFFFFFFFFFFFFFFFF AND EQ DUP1 PUSH2 0x2B0 JUMPI POP DUP2 PUSH20 0xFFFFFFFFFFFFFFFFFFFFFFFFFFFFFFFFFFFFFFFF AND CALLER PUSH20 0xFFFFFFFFFFFFFFFFFFFFFFFFFFFFFFFFFFFFFFFF AND EQ JUMPDEST PUSH2 0x2EF JUMPI PUSH1 0x40 MLOAD PUSH32 0x8C379A000000000000000000000000000000000000000000000000000000000 DUP2 MSTORE PUSH1 0x4 ADD PUSH2 0x2E6 SWAP1 PUSH2 0x12B8 JUMP JUMPDEST PUSH1 0x40 MLOAD DUP1 SWAP2 SUB SWAP1 REVERT JUMPDEST DUP1 PUSH1 0x3 PUSH1 0x0 DUP5 PUSH20 0xFFFFFFFFFFFFFFFFFFFFFFFFFFFFFFFFFFFFFFFF AND PUSH20 0xFFFFFFFFFFFFFFFFFFFFFFFFFFFFFFFFFFFFFFFF AND DUP2 MSTORE PUSH1 0x20 ADD SWAP1 DUP2 MSTORE PUSH1 0x20 ADD PUSH1 0x0 KECCAK256 PUSH1 0x0 PUSH2 0x100 EXP DUP2 SLOAD DUP2 PUSH1 0xFF MUL NOT AND SWAP1 DUP4 ISZERO ISZERO MUL OR SWAP1 SSTORE POP POP POP JUMP JUMPDEST PUSH2 0x352 PUSH2 0xC26 JUMP JUMPDEST PUSH2 0x35C PUSH1 0x0 PUSH2 0xCA4 JUMP JUMPDEST JUMP JUMPDEST PUSH1 0x1 ISZERO ISZERO PUSH1 0x3 PUSH1 0x0 DUP7 PUSH20 0xFFFFFFFFFFFFFFFFFFFFFFFFFFFFFFFFFFFFFFFF AND PUSH20 0xFFFFFFFFFFFFFFFFFFFFFFFFFFFFFFFFFFFFFFFF AND DUP2 MSTORE PUSH1 0x20 ADD SWAP1 DUP2 MSTORE PUSH1 0x20 ADD PUSH1 0x0 KECCAK256 PUSH1 0x0 SWAP1 SLOAD SWAP1 PUSH2 0x100 EXP SWAP1 DIV PUSH1 0xFF AND ISZERO ISZERO EQ PUSH2 0x3F1 JUMPI PUSH1 0x40 MLOAD PUSH32 0x8C379A000000000000000000000000000000000000000000000000000000000 DUP2 MSTORE PUSH1 0x4 ADD PUSH2 0x3E8 SWAP1 PUSH2 0x1338 JUMP JUMPDEST PUSH1 0x40 MLOAD DUP1 SWAP2 SUB SWAP1 REVERT JUMPDEST PUSH1 0x0 DUP2 GT PUSH2 0x434 JUMPI PUSH1 0x40 MLOAD PUSH32 0x8C379A000000000000000000000000000000000000000000000000000000000 DUP2 MSTORE PUSH1 0x4 ADD PUSH2 0x42B SWAP1 PUSH2 0x1358 JUMP JUMPDEST PUSH1 0x40 MLOAD DUP1 SWAP2 SUB SWAP1 REVERT JUMPDEST PUSH1 0x4 PUSH1 0x0 SWAP1 SLOAD SWAP1 PUSH2 0x100 EXP SWAP1 DIV PUSH20 0xFFFFFFFFFFFFFFFFFFFFFFFFFFFFFFFFFFFFFFFF AND PUSH20 0xFFFFFFFFFFFFFFFFFFFFFFFFFFFFFFFFFFFFFFFF AND PUSH4 0x23B872DD CALLER ADDRESS DUP5 PUSH1 0x40 MLOAD DUP5 PUSH4 0xFFFFFFFF AND PUSH1 0xE0 SHL DUP2 MSTORE PUSH1 0x4 ADD PUSH2 0x493 SWAP4 SWAP3 SWAP2 SWAP1 PUSH2 0x122B JUMP JUMPDEST PUSH1 0x20 PUSH1 0x40 MLOAD DUP1 DUP4 SUB DUP2 PUSH1 0x0 DUP8 DUP1 EXTCODESIZE ISZERO DUP1 ISZERO PUSH2 0x4AD JUMPI PUSH1 0x0 DUP1 REVERT JUMPDEST POP GAS CALL ISZERO DUP1 ISZERO PUSH2 0x4C1 JUMPI RETURNDATASIZE PUSH1 0x0 DUP1 RETURNDATACOPY RETURNDATASIZE PUSH1 0x0 REVERT JUMPDEST POP POP POP POP PUSH1 0x40 MLOAD RETURNDATASIZE PUSH1 0x1F NOT PUSH1 0x1F DUP3 ADD AND DUP3 ADD DUP1 PUSH1 0x40 MSTORE POP DUP2 ADD SWAP1 PUSH2 0x4E5 SWAP2 SWAP1 PUSH2 0x106A JUMP JUMPDEST POP DUP1 PUSH1 0x1 PUSH1 0x0 DUP7 PUSH20 0xFFFFFFFFFFFFFFFFFFFFFFFFFFFFFFFFFFFFFFFF AND PUSH20 0xFFFFFFFFFFFFFFFFFFFFFFFFFFFFFFFFFFFFFFFF AND DUP2 MSTORE PUSH1 0x20 ADD SWAP1 DUP2 MSTORE PUSH1 0x20 ADD PUSH1 0x0 KECCAK256 DUP5 PUSH1 0x40 MLOAD PUSH2 0x534 SWAP2 SWAP1 PUSH2 0x11F9 JUMP JUMPDEST SWAP1 DUP2 MSTORE PUSH1 0x20 ADD PUSH1 0x40 MLOAD DUP1 SWAP2 SUB SWAP1 KECCAK256 DUP4 PUSH1 0x40 MLOAD PUSH2 0x550 SWAP2 SWAP1 PUSH2 0x11F9 JUMP JUMPDEST SWAP1 DUP2 MSTORE PUSH1 0x20 ADD PUSH1 0x40 MLOAD DUP1 SWAP2 SUB SWAP1 KECCAK256 PUSH1 0x0 DUP3 DUP3 SLOAD PUSH2 0x56D SWAP2 SWAP1 PUSH2 0x1410 JUMP JUMPDEST SWAP3 POP POP DUP2 SWAP1 SSTORE POP DUP1 PUSH1 0x2 PUSH1 0x0 CALLER PUSH20 0xFFFFFFFFFFFFFFFFFFFFFFFFFFFFFFFFFFFFFFFF AND PUSH20 0xFFFFFFFFFFFFFFFFFFFFFFFFFFFFFFFFFFFFFFFF AND DUP2 MSTORE PUSH1 0x20 ADD SWAP1 DUP2 MSTORE PUSH1 0x20 ADD PUSH1 0x0 KECCAK256 PUSH1 0x0 DUP7 PUSH20 0xFFFFFFFFFFFFFFFFFFFFFFFFFFFFFFFFFFFFFFFF AND PUSH20 0xFFFFFFFFFFFFFFFFFFFFFFFFFFFFFFFFFFFFFFFF AND DUP2 MSTORE PUSH1 0x20 ADD SWAP1 DUP2 MSTORE PUSH1 0x20 ADD PUSH1 0x0 KECCAK256 DUP5 PUSH1 0x40 MLOAD PUSH2 0x5FF SWAP2 SWAP1 PUSH2 0x11F9 JUMP JUMPDEST SWAP1 DUP2 MSTORE PUSH1 0x20 ADD PUSH1 0x40 MLOAD DUP1 SWAP2 SUB SWAP1 KECCAK256 DUP4 PUSH1 0x40 MLOAD PUSH2 0x61B SWAP2 SWAP1 PUSH2 0x11F9 JUMP JUMPDEST SWAP1 DUP2 MSTORE PUSH1 0x20 ADD PUSH1 0x40 MLOAD DUP1 SWAP2 SUB SWAP1 KECCAK256 PUSH1 0x0 DUP3 DUP3 SLOAD PUSH2 0x638 SWAP2 SWAP1 PUSH2 0x1410 JUMP JUMPDEST SWAP3 POP POP DUP2 SWAP1 SSTORE POP POP POP POP POP JUMP JUMPDEST PUSH1 0x0 DUP1 PUSH1 0x0 SWAP1 SLOAD SWAP1 PUSH2 0x100 EXP SWAP1 DIV PUSH20 0xFFFFFFFFFFFFFFFFFFFFFFFFFFFFFFFFFFFFFFFF AND SWAP1 POP SWAP1 JUMP JUMPDEST DUP1 PUSH1 0x2 PUSH1 0x0 CALLER PUSH20 0xFFFFFFFFFFFFFFFFFFFFFFFFFFFFFFFFFFFFFFFF AND PUSH20 0xFFFFFFFFFFFFFFFFFFFFFFFFFFFFFFFFFFFFFFFF AND DUP2 MSTORE PUSH1 0x20 ADD SWAP1 DUP2 MSTORE PUSH1 0x20 ADD PUSH1 0x0 KECCAK256 PUSH1 0x0 DUP7 PUSH20 0xFFFFFFFFFFFFFFFFFFFFFFFFFFFFFFFFFFFFFFFF AND PUSH20 0xFFFFFFFFFFFFFFFFFFFFFFFFFFFFFFFFFFFFFFFF AND DUP2 MSTORE PUSH1 0x20 ADD SWAP1 DUP2 MSTORE PUSH1 0x20 ADD PUSH1 0x0 KECCAK256 DUP5 PUSH1 0x40 MLOAD PUSH2 0x6F9 SWAP2 SWAP1 PUSH2 0x11F9 JUMP JUMPDEST SWAP1 DUP2 MSTORE PUSH1 0x20 ADD PUSH1 0x40 MLOAD DUP1 SWAP2 SUB SWAP1 KECCAK256 DUP4 PUSH1 0x40 MLOAD PUSH2 0x715 SWAP2 SWAP1 PUSH2 0x11F9 JUMP JUMPDEST SWAP1 DUP2 MSTORE PUSH1 0x20 ADD PUSH1 0x40 MLOAD DUP1 SWAP2 SUB SWAP1 KECCAK256 SLOAD LT ISZERO PUSH2 0x765 JUMPI PUSH1 0x40 MLOAD PUSH32 0x8C379A000000000000000000000000000000000000000000000000000000000 DUP2 MSTORE PUSH1 0x4 ADD PUSH2 0x75C SWAP1 PUSH2 0x12F8 JUMP JUMPDEST PUSH1 0x40 MLOAD DUP1 SWAP2 SUB SWAP1 REVERT JUMPDEST DUP1 PUSH1 0x1 PUSH1 0x0 DUP7 PUSH20 0xFFFFFFFFFFFFFFFFFFFFFFFFFFFFFFFFFFFFFFFF AND PUSH20 0xFFFFFFFFFFFFFFFFFFFFFFFFFFFFFFFFFFFFFFFF AND DUP2 MSTORE PUSH1 0x20 ADD SWAP1 DUP2 MSTORE PUSH1 0x20 ADD PUSH1 0x0 KECCAK256 DUP5 PUSH1 0x40 MLOAD PUSH2 0x7B3 SWAP2 SWAP1 PUSH2 0x11F9 JUMP JUMPDEST SWAP1 DUP2 MSTORE PUSH1 0x20 ADD PUSH1 0x40 MLOAD DUP1 SWAP2 SUB SWAP1 KECCAK256 DUP4 PUSH1 0x40 MLOAD PUSH2 0x7CF SWAP2 SWAP1 PUSH2 0x11F9 JUMP JUMPDEST SWAP1 DUP2 MSTORE PUSH1 0x20 ADD PUSH1 0x40 MLOAD DUP1 SWAP2 SUB SWAP1 KECCAK256 SLOAD LT ISZERO PUSH2 0x81F JUMPI PUSH1 0x40 MLOAD PUSH32 0x8C379A000000000000000000000000000000000000000000000000000000000 DUP2 MSTORE PUSH1 0x4 ADD PUSH2 0x816 SWAP1 PUSH2 0x1318 JUMP JUMPDEST PUSH1 0x40 MLOAD DUP1 SWAP2 SUB SWAP1 REVERT JUMPDEST PUSH1 0x4 PUSH1 0x0 SWAP1 SLOAD SWAP1 PUSH2 0x100 EXP SWAP1 DIV PUSH20 0xFFFFFFFFFFFFFFFFFFFFFFFFFFFFFFFFFFFFFFFF AND PUSH20 0xFFFFFFFFFFFFFFFFFFFFFFFFFFFFFFFFFFFFFFFF AND PUSH4 0x23B872DD ADDRESS CALLER DUP5 PUSH1 0x40 MLOAD DUP5 PUSH4 0xFFFFFFFF AND PUSH1 0xE0 SHL DUP2 MSTORE PUSH1 0x4 ADD PUSH2 0x87E SWAP4 SWAP3 SWAP2 SWAP1 PUSH2 0x122B JUMP JUMPDEST PUSH1 0x20 PUSH1 0x40 MLOAD DUP1 DUP4 SUB DUP2 PUSH1 0x0 DUP8 DUP1 EXTCODESIZE ISZERO DUP1 ISZERO PUSH2 0x898 JUMPI PUSH1 0x0 DUP1 REVERT JUMPDEST POP GAS CALL ISZERO DUP1 ISZERO PUSH2 0x8AC JUMPI RETURNDATASIZE PUSH1 0x0 DUP1 RETURNDATACOPY RETURNDATASIZE PUSH1 0x0 REVERT JUMPDEST POP POP POP POP PUSH1 0x40 MLOAD RETURNDATASIZE PUSH1 0x1F NOT PUSH1 0x1F DUP3 ADD AND DUP3 ADD DUP1 PUSH1 0x40 MSTORE POP DUP2 ADD SWAP1 PUSH2 0x8D0 SWAP2 SWAP1 PUSH2 0x106A JUMP JUMPDEST POP DUP1 PUSH1 0x1 PUSH1 0x0 DUP7 PUSH20 0xFFFFFFFFFFFFFFFFFFFFFFFFFFFFFFFFFFFFFFFF AND PUSH20 0xFFFFFFFFFFFFFFFFFFFFFFFFFFFFFFFFFFFFFFFF AND DUP2 MSTORE PUSH1 0x20 ADD SWAP1 DUP2 MSTORE PUSH1 0x20 ADD PUSH1 0x0 KECCAK256 DUP5 PUSH1 0x40 MLOAD PUSH2 0x91F SWAP2 SWAP1 PUSH2 0x11F9 JUMP JUMPDEST SWAP1 DUP2 MSTORE PUSH1 0x20 ADD PUSH1 0x40 MLOAD DUP1 SWAP2 SUB SWAP1 KECCAK256 DUP4 PUSH1 0x40 MLOAD PUSH2 0x93B SWAP2 SWAP1 PUSH2 0x11F9 JUMP JUMPDEST SWAP1 DUP2 MSTORE PUSH1 0x20 ADD PUSH1 0x40 MLOAD DUP1 SWAP2 SUB SWAP1 KECCAK256 PUSH1 0x0 DUP3 DUP3 SLOAD PUSH2 0x958 SWAP2 SWAP1 PUSH2 0x1466 JUMP JUMPDEST SWAP3 POP POP DUP2 SWAP1 SSTORE POP DUP1 PUSH1 0x2 PUSH1 0x0 CALLER PUSH20 0xFFFFFFFFFFFFFFFFFFFFFFFFFFFFFFFFFFFFFFFF AND PUSH20 0xFFFFFFFFFFFFFFFFFFFFFFFFFFFFFFFFFFFFFFFF AND DUP2 MSTORE PUSH1 0x20 ADD SWAP1 DUP2 MSTORE PUSH1 0x20 ADD PUSH1 0x0 KECCAK256 PUSH1 0x0 DUP7 PUSH20 0xFFFFFFFFFFFFFFFFFFFFFFFFFFFFFFFFFFFFFFFF AND PUSH20 0xFFFFFFFFFFFFFFFFFFFFFFFFFFFFFFFFFFFFFFFF AND DUP2 MSTORE PUSH1 0x20 ADD SWAP1 DUP2 MSTORE PUSH1 0x20 ADD PUSH1 0x0 KECCAK256 DUP5 PUSH1 0x40 MLOAD PUSH2 0x9EA SWAP2 SWAP1 PUSH2 0x11F9 JUMP JUMPDEST SWAP1 DUP2 MSTORE PUSH1 0x20 ADD PUSH1 0x40 MLOAD DUP1 SWAP2 SUB SWAP1 KECCAK256 DUP4 PUSH1 0x40 MLOAD PUSH2 0xA06 SWAP2 SWAP1 PUSH2 0x11F9 JUMP JUMPDEST SWAP1 DUP2 MSTORE PUSH1 0x20 ADD PUSH1 0x40 MLOAD DUP1 SWAP2 SUB SWAP1 KECCAK256 PUSH1 0x0 DUP3 DUP3 SLOAD PUSH2 0xA23 SWAP2 SWAP1 PUSH2 0x1466 JUMP JUMPDEST SWAP3 POP POP DUP2 SWAP1 SSTORE POP POP POP POP POP JUMP JUMPDEST PUSH1 0x2 PUSH1 0x20 MSTORE DUP4 PUSH1 0x0 MSTORE PUSH1 0x40 PUSH1 0x0 KECCAK256 PUSH1 0x20 MSTORE DUP3 PUSH1 0x0 MSTORE PUSH1 0x40 PUSH1 0x0 KECCAK256 DUP3 DUP1 MLOAD PUSH1 0x20 DUP2 ADD DUP3 ADD DUP1 MLOAD DUP5 DUP3 MSTORE PUSH1 0x20 DUP4 ADD PUSH1 0x20 DUP6 ADD KECCAK256 DUP2 DUP4 MSTORE DUP1 SWAP6 POP POP POP POP POP POP DUP2 DUP1 MLOAD PUSH1 0x20 DUP2 ADD DUP3 ADD DUP1 MLOAD DUP5 DUP3 MSTORE PUSH1 0x20 DUP4 ADD PUSH1 0x20 DUP6 ADD KECCAK256 DUP2 DUP4 MSTORE DUP1 SWAP6 POP POP POP POP POP POP PUSH1 0x0 SWAP4 POP SWAP4 POP POP POP POP SLOAD DUP2 JUMP JUMPDEST PUSH1 0x1 PUSH1 0x20 MSTORE DUP3 PUSH1 0x0 MSTORE PUSH1 0x40 PUSH1 0x0 KECCAK256 DUP3 DUP1 MLOAD PUSH1 0x20 DUP2 ADD DUP3 ADD DUP1 MLOAD DUP5 DUP3 MSTORE PUSH1 0x20 DUP4 ADD PUSH1 0x20 DUP6 ADD KECCAK256 DUP2 DUP4 MSTORE DUP1 SWAP6 POP POP POP POP POP POP DUP2 DUP1 MLOAD PUSH1 0x20 DUP2 ADD DUP3 ADD DUP1 MLOAD DUP5 DUP3 MSTORE PUSH1 0x20 DUP4 ADD PUSH1 0x20 DUP6 ADD KECCAK256 DUP2 DUP4 MSTORE DUP1 SWAP6 POP POP POP POP POP POP PUSH1 0x0 SWAP3 POP SWAP3 POP POP POP SLOAD DUP2 JUMP JUMPDEST PUSH1 0x0 PUSH1 0x1 PUSH1 0x0 DUP6 PUSH20 0xFFFFFFFFFFFFFFFFFFFFFFFFFFFFFFFFFFFFFFFF AND PUSH20 0xFFFFFFFFFFFFFFFFFFFFFFFFFFFFFFFFFFFFFFFF AND DUP2 MSTORE PUSH1 0x20 ADD SWAP1 DUP2 MSTORE PUSH1 0x20 ADD PUSH1 0x0 KECCAK256 DUP4 PUSH1 0x40 MLOAD PUSH2 0xB48 SWAP2 SWAP1 PUSH2 0x11F9 JUMP JUMPDEST SWAP1 DUP2 MSTORE PUSH1 0x20 ADD PUSH1 0x40 MLOAD DUP1 SWAP2 SUB SWAP1 KECCAK256 DUP3 PUSH1 0x40 MLOAD PUSH2 0xB64 SWAP2 SWAP1 PUSH2 0x11F9 JUMP JUMPDEST SWAP1 DUP2 MSTORE PUSH1 0x20 ADD PUSH1 0x40 MLOAD DUP1 SWAP2 SUB SWAP1 KECCAK256 SLOAD SWAP1 POP SWAP4 SWAP3 POP POP POP JUMP JUMPDEST PUSH2 0xB84 PUSH2 0xC26 JUMP JUMPDEST PUSH1 0x0 PUSH20 0xFFFFFFFFFFFFFFFFFFFFFFFFFFFFFFFFFFFFFFFF AND DUP2 PUSH20 0xFFFFFFFFFFFFFFFFFFFFFFFFFFFFFFFFFFFFFFFF AND EQ ISZERO PUSH2 0xBF4 JUMPI PUSH1 0x40 MLOAD PUSH32 0x8C379A000000000000000000000000000000000000000000000000000000000 DUP2 MSTORE PUSH1 0x4 ADD PUSH2 0xBEB SWAP1 PUSH2 0x1298 JUMP JUMPDEST PUSH1 0x40 MLOAD DUP1 SWAP2 SUB SWAP1 REVERT JUMPDEST PUSH2 0xBFD DUP2 PUSH2 0xCA4 JUMP JUMPDEST POP JUMP JUMPDEST PUSH1 0x4 PUSH1 0x0 SWAP1 SLOAD SWAP1 PUSH2 0x100 EXP SWAP1 DIV PUSH20 0xFFFFFFFFFFFFFFFFFFFFFFFFFFFFFFFFFFFFFFFF AND DUP2 JUMP JUMPDEST PUSH2 0xC2E PUSH2 0xD68 JUMP JUMPDEST PUSH20 0xFFFFFFFFFFFFFFFFFFFFFFFFFFFFFFFFFFFFFFFF AND PUSH2 0xC4C PUSH2 0x645 JUMP JUMPDEST PUSH20 0xFFFFFFFFFFFFFFFFFFFFFFFFFFFFFFFFFFFFFFFF AND EQ PUSH2 0xCA2 JUMPI PUSH1 0x40 MLOAD PUSH32 0x8C379A000000000000000000000000000000000000000000000000000000000 DUP2 MSTORE PUSH1 0x4 ADD PUSH2 0xC99 SWAP1 PUSH2 0x12D8 JUMP JUMPDEST PUSH1 0x40 MLOAD DUP1 SWAP2 SUB SWAP1 REVERT JUMPDEST JUMP JUMPDEST PUSH1 0x0 DUP1 PUSH1 0x0 SWAP1 SLOAD SWAP1 PUSH2 0x100 EXP SWAP1 DIV PUSH20 0xFFFFFFFFFFFFFFFFFFFFFFFFFFFFFFFFFFFFFFFF AND SWAP1 POP DUP2 PUSH1 0x0 DUP1 PUSH2 0x100 EXP DUP2 SLOAD DUP2 PUSH20 0xFFFFFFFFFFFFFFFFFFFFFFFFFFFFFFFFFFFFFFFF MUL NOT AND SWAP1 DUP4 PUSH20 0xFFFFFFFFFFFFFFFFFFFFFFFFFFFFFFFFFFFFFFFF AND MUL OR SWAP1 SSTORE POP DUP2 PUSH20 0xFFFFFFFFFFFFFFFFFFFFFFFFFFFFFFFFFFFFFFFF AND DUP2 PUSH20 0xFFFFFFFFFFFFFFFFFFFFFFFFFFFFFFFFFFFFFFFF AND PUSH32 0x8BE0079C531659141344CD1FD0A4F28419497F9722A3DAAFE3B4186F6B6457E0 PUSH1 0x40 MLOAD PUSH1 0x40 MLOAD DUP1 SWAP2 SUB SWAP1 LOG3 POP POP JUMP JUMPDEST PUSH1 0x0 CALLER SWAP1 POP SWAP1 JUMP JUMPDEST PUSH1 0x0 PUSH2 0xD83 PUSH2 0xD7E DUP5 PUSH2 0x13B8 JUMP JUMPDEST PUSH2 0x1393 JUMP JUMPDEST SWAP1 POP DUP3 DUP2 MSTORE PUSH1 0x20 DUP2 ADD DUP5 DUP5 DUP5 ADD GT ISZERO PUSH2 0xD9F JUMPI PUSH2 0xD9E PUSH2 0x15EE JUMP JUMPDEST JUMPDEST PUSH2 0xDAA DUP5 DUP3 DUP6 PUSH2 0x1518 JUMP JUMPDEST POP SWAP4 SWAP3 POP POP POP JUMP JUMPDEST PUSH1 0x0 DUP2 CALLDATALOAD SWAP1 POP PUSH2 0xDC1 DUP2 PUSH2 0x1753 JUMP JUMPDEST SWAP3 SWAP2 POP POP JUMP JUMPDEST PUSH1 0x0 DUP2 CALLDATALOAD SWAP1 POP PUSH2 0xDD6 DUP2 PUSH2 0x176A JUMP JUMPDEST SWAP3 SWAP2 POP POP JUMP JUMPDEST PUSH1 0x0 DUP2 MLOAD SWAP1 POP PUSH2 0xDEB DUP2 PUSH2 0x176A JUMP JUMPDEST SWAP3 SWAP2 POP POP JUMP JUMPDEST PUSH1 0x0 DUP3 PUSH1 0x1F DUP4 ADD SLT PUSH2 0xE06 JUMPI PUSH2 0xE05 PUSH2 0x15E9 JUMP JUMPDEST JUMPDEST DUP2 CALLDATALOAD PUSH2 0xE16 DUP5 DUP3 PUSH1 0x20 DUP7 ADD PUSH2 0xD70 JUMP JUMPDEST SWAP2 POP POP SWAP3 SWAP2 POP POP JUMP JUMPDEST PUSH1 0x0 DUP2 CALLDATALOAD SWAP1 POP PUSH2 0xE2E DUP2 PUSH2 0x1781 JUMP JUMPDEST SWAP3 SWAP2 POP POP JUMP JUMPDEST PUSH1 0x0 PUSH1 0x20 DUP3 DUP5 SUB SLT ISZERO PUSH2 0xE4A JUMPI PUSH2 0xE49 PUSH2 0x15F8 JUMP JUMPDEST JUMPDEST PUSH1 0x0 PUSH2 0xE58 DUP5 DUP3 DUP6 ADD PUSH2 0xDB2 JUMP JUMPDEST SWAP2 POP POP SWAP3 SWAP2 POP POP JUMP JUMPDEST PUSH1 0x0 DUP1 PUSH1 0x0 DUP1 PUSH1 0x80 DUP6 DUP8 SUB SLT ISZERO PUSH2 0xE7B JUMPI PUSH2 0xE7A PUSH2 0x15F8 JUMP JUMPDEST JUMPDEST PUSH1 0x0 PUSH2 0xE89 DUP8 DUP3 DUP9 ADD PUSH2 0xDB2 JUMP JUMPDEST SWAP5 POP POP PUSH1 0x20 PUSH2 0xE9A DUP8 DUP3 DUP9 ADD PUSH2 0xDB2 JUMP JUMPDEST SWAP4 POP POP PUSH1 0x40 DUP6 ADD CALLDATALOAD PUSH8 0xFFFFFFFFFFFFFFFF DUP2 GT ISZERO PUSH2 0xEBB JUMPI PUSH2 0xEBA PUSH2 0x15F3 JUMP JUMPDEST JUMPDEST PUSH2 0xEC7 DUP8 DUP3 DUP9 ADD PUSH2 0xDF1 JUMP JUMPDEST SWAP3 POP POP PUSH1 0x60 DUP6 ADD CALLDATALOAD PUSH8 0xFFFFFFFFFFFFFFFF DUP2 GT ISZERO PUSH2 0xEE8 JUMPI PUSH2 0xEE7 PUSH2 0x15F3 JUMP JUMPDEST JUMPDEST PUSH2 0xEF4 DUP8 DUP3 DUP9 ADD PUSH2 0xDF1 JUMP JUMPDEST SWAP2 POP POP SWAP3 SWAP6 SWAP2 SWAP5 POP SWAP3 POP JUMP JUMPDEST PUSH1 0x0 DUP1 PUSH1 0x40 DUP4 DUP6 SUB SLT ISZERO PUSH2 0xF17 JUMPI PUSH2 0xF16 PUSH2 0x15F8 JUMP JUMPDEST JUMPDEST PUSH1 0x0 PUSH2 0xF25 DUP6 DUP3 DUP7 ADD PUSH2 0xDB2 JUMP JUMPDEST SWAP3 POP POP PUSH1 0x20 PUSH2 0xF36 DUP6 DUP3 DUP7 ADD PUSH2 0xDC7 JUMP JUMPDEST SWAP2 POP POP SWAP3 POP SWAP3 SWAP1 POP JUMP JUMPDEST PUSH1 0x0 DUP1 PUSH1 0x0 PUSH1 0x60 DUP5 DUP7 SUB SLT ISZERO PUSH2 0xF59 JUMPI PUSH2 0xF58 PUSH2 0x15F8 JUMP JUMPDEST JUMPDEST PUSH1 0x0 PUSH2 0xF67 DUP7 DUP3 DUP8 ADD PUSH2 0xDB2 JUMP JUMPDEST SWAP4 POP POP PUSH1 0x20 DUP5 ADD CALLDATALOAD PUSH8 0xFFFFFFFFFFFFFFFF DUP2 GT ISZERO PUSH2 0xF88 JUMPI PUSH2 0xF87 PUSH2 0x15F3 JUMP JUMPDEST JUMPDEST PUSH2 0xF94 DUP7 DUP3 DUP8 ADD PUSH2 0xDF1 JUMP JUMPDEST SWAP3 POP POP PUSH1 0x40 DUP5 ADD CALLDATALOAD PUSH8 0xFFFFFFFFFFFFFFFF DUP2 GT ISZERO PUSH2 0xFB5 JUMPI PUSH2 0xFB4 PUSH2 0x15F3 JUMP JUMPDEST JUMPDEST PUSH2 0xFC1 DUP7 DUP3 DUP8 ADD PUSH2 0xDF1 JUMP JUMPDEST SWAP2 POP POP SWAP3 POP SWAP3 POP SWAP3 JUMP JUMPDEST PUSH1 0x0 DUP1 PUSH1 0x0 DUP1 PUSH1 0x80 DUP6 DUP8 SUB SLT ISZERO PUSH2 0xFE5 JUMPI PUSH2 0xFE4 PUSH2 0x15F8 JUMP JUMPDEST JUMPDEST PUSH1 0x0 PUSH2 0xFF3 DUP8 DUP3 DUP9 ADD PUSH2 0xDB2 JUMP JUMPDEST SWAP5 POP POP PUSH1 0x20 DUP6 ADD CALLDATALOAD PUSH8 0xFFFFFFFFFFFFFFFF DUP2 GT ISZERO PUSH2 0x1014 JUMPI PUSH2 0x1013 PUSH2 0x15F3 JUMP JUMPDEST JUMPDEST PUSH2 0x1020 DUP8 DUP3 DUP9 ADD PUSH2 0xDF1 JUMP JUMPDEST SWAP4 POP POP PUSH1 0x40 DUP6 ADD CALLDATALOAD PUSH8 0xFFFFFFFFFFFFFFFF DUP2 GT ISZERO PUSH2 0x1041 JUMPI PUSH2 0x1040 PUSH2 0x15F3 JUMP JUMPDEST JUMPDEST PUSH2 0x104D DUP8 DUP3 DUP9 ADD PUSH2 0xDF1 JUMP JUMPDEST SWAP3 POP POP PUSH1 0x60 PUSH2 0x105E DUP8 DUP3 DUP9 ADD PUSH2 0xE1F JUMP JUMPDEST SWAP2 POP POP SWAP3 SWAP6 SWAP2 SWAP5 POP SWAP3 POP JUMP JUMPDEST PUSH1 0x0 PUSH1 0x20 DUP3 DUP5 SUB SLT ISZERO PUSH2 0x1080 JUMPI PUSH2 0x107F PUSH2 0x15F8 JUMP JUMPDEST JUMPDEST PUSH1 0x0 PUSH2 0x108E DUP5 DUP3 DUP6 ADD PUSH2 0xDDC JUMP JUMPDEST SWAP2 POP POP SWAP3 SWAP2 POP POP JUMP JUMPDEST PUSH2 0x10A0 DUP2 PUSH2 0x149A JUMP JUMPDEST DUP3 MSTORE POP POP JUMP JUMPDEST PUSH2 0x10AF DUP2 PUSH2 0x14AC JUMP JUMPDEST DUP3 MSTORE POP POP JUMP JUMPDEST PUSH2 0x10BE DUP2 PUSH2 0x14E2 JUMP JUMPDEST DUP3 MSTORE POP POP JUMP JUMPDEST PUSH1 0x0 PUSH2 0x10CF DUP3 PUSH2 0x13E9 JUMP JUMPDEST PUSH2 0x10D9 DUP2 DUP6 PUSH2 0x1405 JUMP JUMPDEST SWAP4 POP PUSH2 0x10E9 DUP2 DUP6 PUSH1 0x20 DUP7 ADD PUSH2 0x1527 JUMP JUMPDEST DUP1 DUP5 ADD SWAP2 POP POP SWAP3 SWAP2 POP POP JUMP JUMPDEST PUSH1 0x0 PUSH2 0x1102 PUSH1 0x26 DUP4 PUSH2 0x13F4 JUMP JUMPDEST SWAP2 POP PUSH2 0x110D DUP3 PUSH2 0x160E JUMP JUMPDEST PUSH1 0x40 DUP3 ADD SWAP1 POP SWAP2 SWAP1 POP JUMP JUMPDEST PUSH1 0x0 PUSH2 0x1125 PUSH1 0x1D DUP4 PUSH2 0x13F4 JUMP JUMPDEST SWAP2 POP PUSH2 0x1130 DUP3 PUSH2 0x165D JUMP JUMPDEST PUSH1 0x20 DUP3 ADD SWAP1 POP SWAP2 SWAP1 POP JUMP JUMPDEST PUSH1 0x0 PUSH2 0x1148 PUSH1 0x20 DUP4 PUSH2 0x13F4 JUMP JUMPDEST SWAP2 POP PUSH2 0x1153 DUP3 PUSH2 0x1686 JUMP JUMPDEST PUSH1 0x20 DUP3 ADD SWAP1 POP SWAP2 SWAP1 POP JUMP JUMPDEST PUSH1 0x0 PUSH2 0x116B PUSH1 0x16 DUP4 PUSH2 0x13F4 JUMP JUMPDEST SWAP2 POP PUSH2 0x1176 DUP3 PUSH2 0x16AF JUMP JUMPDEST PUSH1 0x20 DUP3 ADD SWAP1 POP SWAP2 SWAP1 POP JUMP JUMPDEST PUSH1 0x0 PUSH2 0x118E PUSH1 0x1C DUP4 PUSH2 0x13F4 JUMP JUMPDEST SWAP2 POP PUSH2 0x1199 DUP3 PUSH2 0x16D8 JUMP JUMPDEST PUSH1 0x20 DUP3 ADD SWAP1 POP SWAP2 SWAP1 POP JUMP JUMPDEST PUSH1 0x0 PUSH2 0x11B1 PUSH1 0x14 DUP4 PUSH2 0x13F4 JUMP JUMPDEST SWAP2 POP PUSH2 0x11BC DUP3 PUSH2 0x1701 JUMP JUMPDEST PUSH1 0x20 DUP3 ADD SWAP1 POP SWAP2 SWAP1 POP JUMP JUMPDEST PUSH1 0x0 PUSH2 0x11D4 PUSH1 0x1C DUP4 PUSH2 0x13F4 JUMP JUMPDEST SWAP2 POP PUSH2 0x11DF DUP3 PUSH2 0x172A JUMP JUMPDEST PUSH1 0x20 DUP3 ADD SWAP1 POP SWAP2 SWAP1 POP JUMP JUMPDEST PUSH2 0x11F3 DUP2 PUSH2 0x14D8 JUMP JUMPDEST DUP3 MSTORE POP POP JUMP JUMPDEST PUSH1 0x0 PUSH2 0x1205 DUP3 DUP5 PUSH2 0x10C4 JUMP JUMPDEST SWAP2 POP DUP2 SWAP1 POP SWAP3 SWAP2 POP POP JUMP JUMPDEST PUSH1 0x0 PUSH1 0x20 DUP3 ADD SWAP1 POP PUSH2 0x1225 PUSH1 0x0 DUP4 ADD DUP5 PUSH2 0x1097 JUMP JUMPDEST SWAP3 SWAP2 POP POP JUMP JUMPDEST PUSH1 0x0 PUSH1 0x60 DUP3 ADD SWAP1 POP PUSH2 0x1240 PUSH1 0x0 DUP4 ADD DUP7 PUSH2 0x1097 JUMP JUMPDEST PUSH2 0x124D PUSH1 0x20 DUP4 ADD DUP6 PUSH2 0x1097 JUMP JUMPDEST PUSH2 0x125A PUSH1 0x40 DUP4 ADD DUP5 PUSH2 0x11EA JUMP JUMPDEST SWAP5 SWAP4 POP POP POP POP JUMP JUMPDEST PUSH1 0x0 PUSH1 0x20 DUP3 ADD SWAP1 POP PUSH2 0x1277 PUSH1 0x0 DUP4 ADD DUP5 PUSH2 0x10A6 JUMP JUMPDEST SWAP3 SWAP2 POP POP JUMP JUMPDEST PUSH1 0x0 PUSH1 0x20 DUP3 ADD SWAP1 POP PUSH2 0x1292 PUSH1 0x0 DUP4 ADD DUP5 PUSH2 0x10B5 JUMP JUMPDEST SWAP3 SWAP2 POP POP JUMP JUMPDEST PUSH1 0x0 PUSH1 0x20 DUP3 ADD SWAP1 POP DUP2 DUP2 SUB PUSH1 0x0 DUP4 ADD MSTORE PUSH2 0x12B1 DUP2 PUSH2 0x10F5 JUMP JUMPDEST SWAP1 POP SWAP2 SWAP1 POP JUMP JUMPDEST PUSH1 0x0 PUSH1 0x20 DUP3 ADD SWAP1 POP DUP2 DUP2 SUB PUSH1 0x0 DUP4 ADD MSTORE PUSH2 0x12D1 DUP2 PUSH2 0x1118 JUMP JUMPDEST SWAP1 POP SWAP2 SWAP1 POP JUMP JUMPDEST PUSH1 0x0 PUSH1 0x20 DUP3 ADD SWAP1 POP DUP2 DUP2 SUB PUSH1 0x0 DUP4 ADD MSTORE PUSH2 0x12F1 DUP2 PUSH2 0x113B JUMP JUMPDEST SWAP1 POP SWAP2 SWAP1 POP JUMP JUMPDEST PUSH1 0x0 PUSH1 0x20 DUP3 ADD SWAP1 POP DUP2 DUP2 SUB PUSH1 0x0 DUP4 ADD MSTORE PUSH2 0x1311 DUP2 PUSH2 0x115E JUMP JUMPDEST SWAP1 POP SWAP2 SWAP1 POP JUMP JUMPDEST PUSH1 0x0 PUSH1 0x20 DUP3 ADD SWAP1 POP DUP2 DUP2 SUB PUSH1 0x0 DUP4 ADD MSTORE PUSH2 0x1331 DUP2 PUSH2 0x1181 JUMP JUMPDEST SWAP1 POP SWAP2 SWAP1 POP JUMP JUMPDEST PUSH1 0x0 PUSH1 0x20 DUP3 ADD SWAP1 POP DUP2 DUP2 SUB PUSH1 0x0 DUP4 ADD MSTORE PUSH2 0x1351 DUP2 PUSH2 0x11A4 JUMP JUMPDEST SWAP1 POP SWAP2 SWAP1 POP JUMP JUMPDEST PUSH1 0x0 PUSH1 0x20 DUP3 ADD SWAP1 POP DUP2 DUP2 SUB PUSH1 0x0 DUP4 ADD MSTORE PUSH2 0x1371 DUP2 PUSH2 0x11C7 JUMP JUMPDEST SWAP1 POP SWAP2 SWAP1 POP JUMP JUMPDEST PUSH1 0x0 PUSH1 0x20 DUP3 ADD SWAP1 POP PUSH2 0x138D PUSH1 0x0 DUP4 ADD DUP5 PUSH2 0x11EA JUMP JUMPDEST SWAP3 SWAP2 POP POP JUMP JUMPDEST PUSH1 0x0 PUSH2 0x139D PUSH2 0x13AE JUMP JUMPDEST SWAP1 POP PUSH2 0x13A9 DUP3 DUP3 PUSH2 0x155A JUMP JUMPDEST SWAP2 SWAP1 POP JUMP JUMPDEST PUSH1 0x0 PUSH1 0x40 MLOAD SWAP1 POP SWAP1 JUMP JUMPDEST PUSH1 0x0 PUSH8 0xFFFFFFFFFFFFFFFF DUP3 GT ISZERO PUSH2 0x13D3 JUMPI PUSH2 0x13D2 PUSH2 0x15BA JUMP JUMPDEST JUMPDEST PUSH2 0x13DC DUP3 PUSH2 0x15FD JUMP JUMPDEST SWAP1 POP PUSH1 0x20 DUP2 ADD SWAP1 POP SWAP2 SWAP1 POP JUMP JUMPDEST PUSH1 0x0 DUP2 MLOAD SWAP1 POP SWAP2 SWAP1 POP JUMP JUMPDEST PUSH1 0x0 DUP3 DUP3 MSTORE PUSH1 0x20 DUP3 ADD SWAP1 POP SWAP3 SWAP2 POP POP JUMP JUMPDEST PUSH1 0x0 DUP2 SWAP1 POP SWAP3 SWAP2 POP POP JUMP JUMPDEST PUSH1 0x0 PUSH2 0x141B DUP3 PUSH2 0x14D8 JUMP JUMPDEST SWAP2 POP PUSH2 0x1426 DUP4 PUSH2 0x14D8 JUMP JUMPDEST SWAP3 POP DUP3 PUSH32 0xFFFFFFFFFFFFFFFFFFFFFFFFFFFFFFFFFFFFFFFFFFFFFFFFFFFFFFFFFFFFFFFF SUB DUP3 GT ISZERO PUSH2 0x145B JUMPI PUSH2 0x145A PUSH2 0x158B JUMP JUMPDEST JUMPDEST DUP3 DUP3 ADD SWAP1 POP SWAP3 SWAP2 POP POP JUMP JUMPDEST PUSH1 0x0 PUSH2 0x1471 DUP3 PUSH2 0x14D8 JUMP JUMPDEST SWAP2 POP PUSH2 0x147C DUP4 PUSH2 0x14D8 JUMP JUMPDEST SWAP3 POP DUP3 DUP3 LT ISZERO PUSH2 0x148F JUMPI PUSH2 0x148E PUSH2 0x158B JUMP JUMPDEST JUMPDEST DUP3 DUP3 SUB SWAP1 POP SWAP3 SWAP2 POP POP JUMP JUMPDEST PUSH1 0x0 PUSH2 0x14A5 DUP3 PUSH2 0x14B8 JUMP JUMPDEST SWAP1 POP SWAP2 SWAP1 POP JUMP JUMPDEST PUSH1 0x0 DUP2 ISZERO ISZERO SWAP1 POP SWAP2 SWAP1 POP JUMP JUMPDEST PUSH1 0x0 PUSH20 0xFFFFFFFFFFFFFFFFFFFFFFFFFFFFFFFFFFFFFFFF DUP3 AND SWAP1 POP SWAP2 SWAP1 POP JUMP JUMPDEST PUSH1 0x0 DUP2 SWAP1 POP SWAP2 SWAP1 POP JUMP JUMPDEST PUSH1 0x0 PUSH2 0x14ED DUP3 PUSH2 0x14F4 JUMP JUMPDEST SWAP1 POP SWAP2 SWAP1 POP JUMP JUMPDEST PUSH1 0x0 PUSH2 0x14FF DUP3 PUSH2 0x1506 JUMP JUMPDEST SWAP1 POP SWAP2 SWAP1 POP JUMP JUMPDEST PUSH1 0x0 PUSH2 0x1511 DUP3 PUSH2 0x14B8 JUMP JUMPDEST SWAP1 POP SWAP2 SWAP1 POP JUMP JUMPDEST DUP3 DUP2 DUP4 CALLDATACOPY PUSH1 0x0 DUP4 DUP4 ADD MSTORE POP POP POP JUMP JUMPDEST PUSH1 0x0 JUMPDEST DUP4 DUP2 LT ISZERO PUSH2 0x1545 JUMPI DUP1 DUP3 ADD MLOAD DUP2 DUP5 ADD MSTORE PUSH1 0x20 DUP2 ADD SWAP1 POP PUSH2 0x152A JUMP JUMPDEST DUP4 DUP2 GT ISZERO PUSH2 0x1554 JUMPI PUSH1 0x0 DUP5 DUP5 ADD MSTORE JUMPDEST POP POP POP POP JUMP JUMPDEST PUSH2 0x1563 DUP3 PUSH2 0x15FD JUMP JUMPDEST DUP2 ADD DUP2 DUP2 LT PUSH8 0xFFFFFFFFFFFFFFFF DUP3 GT OR ISZERO PUSH2 0x1582 JUMPI PUSH2 0x1581 PUSH2 0x15BA JUMP JUMPDEST JUMPDEST DUP1 PUSH1 0x40 MSTORE POP POP POP JUMP JUMPDEST PUSH32 0x4E487B7100000000000000000000000000000000000000000000000000000000 PUSH1 0x0 MSTORE PUSH1 0x11 PUSH1 0x4 MSTORE PUSH1 0x24 PUSH1 0x0 REVERT JUMPDEST PUSH32 0x4E487B7100000000000000000000000000000000000000000000000000000000 PUSH1 0x0 MSTORE PUSH1 0x41 PUSH1 0x4 MSTORE PUSH1 0x24 PUSH1 0x0 REVERT JUMPDEST PUSH1 0x0 DUP1 REVERT JUMPDEST PUSH1 0x0 DUP1 REVERT JUMPDEST PUSH1 0x0 DUP1 REVERT JUMPDEST PUSH1 0x0 DUP1 REVERT JUMPDEST PUSH1 0x0 PUSH1 0x1F NOT PUSH1 0x1F DUP4 ADD AND SWAP1 POP SWAP2 SWAP1 POP JUMP JUMPDEST PUSH32 0x4F776E61626C653A206E6577206F776E657220697320746865207A65726F2061 PUSH1 0x0 DUP3 ADD MSTORE PUSH32 0x6464726573730000000000000000000000000000000000000000000000000000 PUSH1 0x20 DUP3 ADD MSTORE POP JUMP JUMPDEST PUSH32 0x596F752063616E206F6E6C792073657420666F7220796F757273656C66000000 PUSH1 0x0 DUP3 ADD MSTORE POP JUMP JUMPDEST PUSH32 0x4F776E61626C653A2063616C6C6572206973206E6F7420746865206F776E6572 PUSH1 0x0 DUP3 ADD MSTORE POP JUMP JUMPDEST PUSH32 0x416D6F756E7420457863656564732042616C616E636500000000000000000000 PUSH1 0x0 DUP3 ADD MSTORE POP JUMP JUMPDEST PUSH32 0x416D6F756E74204578636565647320546F74616C2042616C616E636500000000 PUSH1 0x0 DUP3 ADD MSTORE POP JUMP JUMPDEST PUSH32 0x5261772044617461206E6F742073746F72656421000000000000000000000000 PUSH1 0x0 DUP3 ADD MSTORE POP JUMP JUMPDEST PUSH32 0x56616C7565206D7573742062652067726561746F72207468616E203000000000 PUSH1 0x0 DUP3 ADD MSTORE POP JUMP JUMPDEST PUSH2 0x175C DUP2 PUSH2 0x149A JUMP JUMPDEST DUP2 EQ PUSH2 0x1767 JUMPI PUSH1 0x0 DUP1 REVERT JUMPDEST POP JUMP JUMPDEST PUSH2 0x1773 DUP2 PUSH2 0x14AC JUMP JUMPDEST DUP2 EQ PUSH2 0x177E JUMPI PUSH1 0x0 DUP1 REVERT JUMPDEST POP JUMP JUMPDEST PUSH2 0x178A DUP2 PUSH2 0x14D8 JUMP JUMPDEST DUP2 EQ PUSH2 0x1795 JUMPI PUSH1 0x0 DUP1 REVERT JUMPDEST POP JUMP INVALID LOG2 PUSH5 0x6970667358 0x22 SLT KECCAK256 0xC6 0xAE ORIGIN EXTCODECOPY GT OR 0xD0 0x4D 0x5E SELFDESTRUCT 0x5E 0x26 0xD1 NUMBER 0xA6 0xD3 0xE9 CALL DUP9 0xF8 0x4F SWAP1 SWAP8 0xBF CREATE PUSH2 0x521C SWAP8 0xE3 DUP15 LOG1 PUSH5 0x736F6C6343 STOP ADDMOD SMOD STOP CALLER "
				},
				"gasEstimates": {
					"creation": {
						"codeDepositCost": "1218800",
						"executionCost": "infinite",
						"totalCost": "infinite"
					},
					"external": {
						"getStakeValue(address,string,string)": "infinite",
						"owner()": "2611",
						"rawDataStore(address)": "2846",
						"renounceOwnership()": "30443",
						"setRawData(address,bool)": "27258",
						"token()": "2710",
						"transferOwnership(address)": "30835",
						"userDataOracle(address,string,string)": "infinite",
						"validateDataPoint(address,string,string,uint256)": "infinite",
						"validatorSplits(address,address,string,string)": "infinite",
						"withdrawMoney(address,string,string,uint256)": "infinite"
					}
				},
				"methodIdentifiers": {
					"getStakeValue(address,string,string)": "e6d56846",
					"owner()": "8da5cb5b",
					"rawDataStore(address)": "0c3a9008",
					"renounceOwnership()": "715018a6",
					"setRawData(address,bool)": "1a00e037",
					"token()": "fc0c546a",
					"transferOwnership(address)": "f2fde38b",
					"userDataOracle(address,string,string)": "de7f6b9e",
					"validateDataPoint(address,string,string,uint256)": "7c360c94",
					"validatorSplits(address,address,string,string)": "9cc6f67d",
					"withdrawMoney(address,string,string,uint256)": "94728f57"
				}
			},
			"storageLayout": {
				"storage": [
					{
						"astId": 7,
						"contract": "contracts/templates/KaggleDataOracle.sol:KaggleDataOracle",
						"label": "_owner",
						"offset": 0,
						"slot": "0",
						"type": "t_address"
					},
					{
						"astId": 226,
						"contract": "contracts/templates/KaggleDataOracle.sol:KaggleDataOracle",
						"label": "userDataOracle",
						"offset": 0,
						"slot": "1",
						"type": "t_mapping(t_address,t_mapping(t_string_memory_ptr,t_mapping(t_string_memory_ptr,t_uint256)))"
					},
					{
						"astId": 236,
						"contract": "contracts/templates/KaggleDataOracle.sol:KaggleDataOracle",
						"label": "validatorSplits",
						"offset": 0,
						"slot": "2",
						"type": "t_mapping(t_address,t_mapping(t_address,t_mapping(t_string_memory_ptr,t_mapping(t_string_memory_ptr,t_uint256))))"
					},
					{
						"astId": 240,
						"contract": "contracts/templates/KaggleDataOracle.sol:KaggleDataOracle",
						"label": "rawDataStore",
						"offset": 0,
						"slot": "3",
						"type": "t_mapping(t_address,t_bool)"
					},
					{
						"astId": 243,
						"contract": "contracts/templates/KaggleDataOracle.sol:KaggleDataOracle",
						"label": "token",
						"offset": 0,
						"slot": "4",
						"type": "t_contract(IERC20)190"
					}
				],
				"types": {
					"t_address": {
						"encoding": "inplace",
						"label": "address",
						"numberOfBytes": "20"
					},
					"t_bool": {
						"encoding": "inplace",
						"label": "bool",
						"numberOfBytes": "1"
					},
					"t_contract(IERC20)190": {
						"encoding": "inplace",
						"label": "contract IERC20",
						"numberOfBytes": "20"
					},
					"t_mapping(t_address,t_bool)": {
						"encoding": "mapping",
						"key": "t_address",
						"label": "mapping(address => bool)",
						"numberOfBytes": "32",
						"value": "t_bool"
					},
					"t_mapping(t_address,t_mapping(t_address,t_mapping(t_string_memory_ptr,t_mapping(t_string_memory_ptr,t_uint256))))": {
						"encoding": "mapping",
						"key": "t_address",
						"label": "mapping(address => mapping(address => mapping(string => mapping(string => uint256))))",
						"numberOfBytes": "32",
						"value": "t_mapping(t_address,t_mapping(t_string_memory_ptr,t_mapping(t_string_memory_ptr,t_uint256)))"
					},
					"t_mapping(t_address,t_mapping(t_string_memory_ptr,t_mapping(t_string_memory_ptr,t_uint256)))": {
						"encoding": "mapping",
						"key": "t_address",
						"label": "mapping(address => mapping(string => mapping(string => uint256)))",
						"numberOfBytes": "32",
						"value": "t_mapping(t_string_memory_ptr,t_mapping(t_string_memory_ptr,t_uint256))"
					},
					"t_mapping(t_string_memory_ptr,t_mapping(t_string_memory_ptr,t_uint256))": {
						"encoding": "mapping",
						"key": "t_string_memory_ptr",
						"label": "mapping(string => mapping(string => uint256))",
						"numberOfBytes": "32",
						"value": "t_mapping(t_string_memory_ptr,t_uint256)"
					},
					"t_mapping(t_string_memory_ptr,t_uint256)": {
						"encoding": "mapping",
						"key": "t_string_memory_ptr",
						"label": "mapping(string => uint256)",
						"numberOfBytes": "32",
						"value": "t_uint256"
					},
					"t_string_memory_ptr": {
						"encoding": "bytes",
						"label": "string",
						"numberOfBytes": "32"
					},
					"t_uint256": {
						"encoding": "inplace",
						"label": "uint256",
						"numberOfBytes": "32"
					}
				}
			},
			"userdoc": {
				"kind": "user",
				"methods": {},
				"version": 1
			}
		}
	}
}